{
  "_format": "hh-sol-artifact-1",
  "contractName": "FacadeAct",
  "sourceName": "contracts/reserve/facade/FacadeAct.sol",
  "abi": [
    {
      "inputs": [],
      "name": "UIntOutOfBounds",
      "type": "error"
    },
    {
      "inputs": [
        {
          "internalType": "contract RTokenP1",
          "name": "rToken",
          "type": "address"
        }
      ],
      "name": "claimAndSweepRewards",
      "outputs": [],
      "stateMutability": "nonpayable",
      "type": "function"
    },
    {
      "inputs": [
        {
          "internalType": "contract RTokenP1",
          "name": "rToken",
          "type": "address"
        }
      ],
      "name": "getActCalldata",
      "outputs": [
        {
          "internalType": "address",
          "name": "",
          "type": "address"
        },
        {
          "internalType": "bytes",
          "name": "",
          "type": "bytes"
        }
      ],
      "stateMutability": "nonpayable",
      "type": "function"
    }
  ],
  "bytecode": "0x608060405234801561001057600080fd5b506133ea806100206000396000f3fe608060405234801561001057600080fd5b50600436106100365760003560e01c806398d2a7301461003b578063f2e8b16014610050575b600080fd5b61004e610049366004612ffc565b61007a565b005b61006361005e366004612ffc565b6103e2565b604051610071929190613019565b60405180910390f35b6000816001600160a01b031663dffeadd06040518163ffffffff1660e01b815260040160206040518083038186803b1580156100b557600080fd5b505afa1580156100c9573d6000803e3d6000fd5b505050506040513d601f19601f820116820180604052508101906100ed919061307e565b9050816001600160a01b031663372500ab6040518163ffffffff1660e01b8152600401600060405180830381600087803b15801561012a57600080fd5b505af115801561013e573d6000803e3d6000fd5b50505050806001600160a01b031663dc8af5f66040518163ffffffff1660e01b815260040160206040518083038186803b15801561017b57600080fd5b505afa15801561018f573d6000803e3d6000fd5b505050506040513d601f19601f820116820180604052508101906101b3919061307e565b6001600160a01b031663372500ab6040518163ffffffff1660e01b8152600401600060405180830381600087803b1580156101ed57600080fd5b505af1158015610201573d6000803e3d6000fd5b50505050806001600160a01b03166341bf0c4e6040518163ffffffff1660e01b815260040160206040518083038186803b15801561023e57600080fd5b505afa158015610252573d6000803e3d6000fd5b505050506040513d601f19601f82011682018060405250810190610276919061307e565b6001600160a01b031663372500ab6040518163ffffffff1660e01b8152600401600060405180830381600087803b1580156102b057600080fd5b505af11580156102c4573d6000803e3d6000fd5b50505050806001600160a01b031663531367636040518163ffffffff1660e01b815260040160206040518083038186803b15801561030157600080fd5b505afa158015610315573d6000803e3d6000fd5b505050506040513d601f19601f82011682018060405250810190610339919061307e565b6001600160a01b031663372500ab6040518163ffffffff1660e01b8152600401600060405180830381600087803b15801561037357600080fd5b505af1158015610387573d6000803e3d6000fd5b50505050816001600160a01b031663c1e4d0346040518163ffffffff1660e01b8152600401600060405180830381600087803b1580156103c657600080fd5b505af11580156103da573d6000803e3d6000fd5b505050505050565b600060606000836001600160a01b031663dffeadd06040518163ffffffff1660e01b815260040160206040518083038186803b15801561042157600080fd5b505afa158015610435573d6000803e3d6000fd5b505050506040513d601f19601f82011682018060405250810190610459919061307e565b90506000604051806101000160405280836001600160a01b031663979d7e866040518163ffffffff1660e01b815260040160206040518083038186803b1580156104a257600080fd5b505afa1580156104b6573d6000803e3d6000fd5b505050506040513d601f19601f820116820180604052508101906104da919061307e565b6001600160a01b03168152602001836001600160a01b031663dc8af5f66040518163ffffffff1660e01b815260040160206040518083038186803b15801561052157600080fd5b505afa158015610535573d6000803e3d6000fd5b505050506040513d601f19601f82011682018060405250810190610559919061307e565b6001600160a01b03168152602001836001600160a01b0316632f2439b16040518163ffffffff1660e01b815260040160206040518083038186803b1580156105a057600080fd5b505afa1580156105b4573d6000803e3d6000fd5b505050506040513d601f19601f820116820180604052508101906105d8919061307e565b6001600160a01b03168152602001836001600160a01b03166341bf0c4e6040518163ffffffff1660e01b815260040160206040518083038186803b15801561061f57600080fd5b505afa158015610633573d6000803e3d6000fd5b505050506040513d601f19601f82011682018060405250810190610657919061307e565b6001600160a01b03168152602001836001600160a01b031663531367636040518163ffffffff1660e01b815260040160206040518083038186803b15801561069e57600080fd5b505afa1580156106b2573d6000803e3d6000fd5b505050506040513d601f19601f820116820180604052508101906106d6919061307e565b6001600160a01b03168152602001836001600160a01b0316634780a5e56040518163ffffffff1660e01b815260040160206040518083038186803b15801561071d57600080fd5b505afa158015610731573d6000803e3d6000fd5b505050506040513d601f19601f82011682018060405250810190610755919061307e565b6001600160a01b03168152602001866001600160a01b03168152602001836001600160a01b031663c99dc3dd6040518163ffffffff1660e01b815260040160206040518083038186803b1580156107ab57600080fd5b505afa1580156107bf573d6000803e3d6000fd5b505050506040513d601f19601f820116820180604052508101906107e3919061307e565b6001600160a01b03168152509050600081600001516001600160a01b0316632510a1d76040518163ffffffff1660e01b815260040160006040518083038186803b15801561083057600080fd5b505afa158015610844573d6000803e3d6000fd5b505050506040513d6000823e601f3d908101601f1916820160405261086c91908101906130c1565b905081600001516001600160a01b031663f8ac93e86040518163ffffffff1660e01b8152600401600060405180830381600087803b1580156108ad57600080fd5b505af11580156108c1573d6000803e3d6000fd5b50600292506108ce915050565b82604001516001600160a01b031663200d2ed26040518163ffffffff1660e01b815260040160206040518083038186803b15801561090b57600080fd5b505afa15801561091f573d6000803e3d6000fd5b505050506040513d601f19601f82011682018060405250810190610943919061319c565b600281111561095457610954613186565b1415610a7d5781604001516001600160a01b0316638a55015b6040518163ffffffff1660e01b8152600401600060405180830381600087803b15801561099957600080fd5b505af11580156109ad573d6000803e3d6000fd5b50600292506109ba915050565b82604001516001600160a01b031663200d2ed26040518163ffffffff1660e01b815260040160206040518083038186803b1580156109f757600080fd5b505afa158015610a0b573d6000803e3d6000fd5b505050506040513d601f19601f82011682018060405250810190610a2f919061319c565b6002811115610a4057610a40613186565b14610a7d5750604090810151815160048152602481019092526020820180516001600160e01b0316638a55015b60e01b1790529590945092505050565b600082602001516001600160a01b031663c76aeb126040518163ffffffff1660e01b815260040160206040518083038186803b158015610abc57600080fd5b505afa158015610ad0573d6000803e3d6000fd5b505050506040513d601f19601f82011682018060405250810190610af491906131bd565b65ffffffffffff161115610d6f5760005b8151811015610d6957600083602001516001600160a01b031663a9f752e5848481518110610b3557610b356131e5565b60200260200101516040518263ffffffff1660e01b8152600401610b6891906001600160a01b0391909116815260200190565b60206040518083038186803b158015610b8057600080fd5b505afa158015610b94573d6000803e3d6000fd5b505050506040513d601f19601f82011682018060405250810190610bb8919061307e565b90506001600160a01b03811615801590610c3e5750806001600160a01b031663faf7ba6a6040518163ffffffff1660e01b815260040160206040518083038186803b158015610c0657600080fd5b505afa158015610c1a573d6000803e3d6000fd5b505050506040513d601f19601f82011682018060405250810190610c3e91906131fb565b15610d565783602001516001600160a01b0316630e0264d1848481518110610c6857610c686131e5565b60200260200101516040518263ffffffff1660e01b8152600401610c9b91906001600160a01b0391909116815260200190565b600060405180830381600087803b158015610cb557600080fd5b505af1925050508015610cc6575060015b610ccf57610d56565b8360200151630e0264d160e01b848481518110610cee57610cee6131e5565b6020026020010151604051602401610d1591906001600160a01b0391909116815260200190565b60408051601f198184030181529190526020810180516001600160e01b03166001600160e01b03199093169290921790915290999098509650505050505050565b5080610d6181613233565b915050610b05565b50612280565b600082604001516001600160a01b031663200d2ed26040518163ffffffff1660e01b815260040160206040518083038186803b158015610dae57600080fd5b505afa158015610dc2573d6000803e3d6000fd5b505050506040513d601f19601f82011682018060405250810190610de6919061319c565b6002811115610df757610df7613186565b148015610e76575081604001516001600160a01b031663e45a5b2d6040518163ffffffff1660e01b815260040160206040518083038186803b158015610e3c57600080fd5b505afa158015610e50573d6000803e3d6000fd5b505050506040513d601f19601f82011682018060405250810190610e7491906131fb565b155b15610f49576040805160008152602080820192839052840151631506e5fb60e31b909252906001600160a01b031663a8372fd8610eb6836024810161324e565b600060405180830381600087803b158015610ed057600080fd5b505af1925050508015610ee1575060015b610eea57610d69565b6020830151604051631506e5fb60e31b90610f0990849060240161324e565b60408051601f198184030181529190526020810180516001600160e01b03166001600160e01b031990931692909217909152909890975095505050505050565b60005b81518110156116f757600083606001516001600160a01b031663a9f752e5848481518110610f7c57610f7c6131e5565b60200260200101516040518263ffffffff1660e01b8152600401610faf91906001600160a01b0391909116815260200190565b60206040518083038186803b158015610fc757600080fd5b505afa158015610fdb573d6000803e3d6000fd5b505050506040513d601f19601f82011682018060405250810190610fff919061307e565b90506001600160a01b038116158015906110855750806001600160a01b031663faf7ba6a6040518163ffffffff1660e01b815260040160206040518083038186803b15801561104d57600080fd5b505afa158015611061573d6000803e3d6000fd5b505050506040513d601f19601f8201168201806040525081019061108591906131fb565b156111355783606001516001600160a01b0316630e0264d18484815181106110af576110af6131e5565b60200260200101516040518263ffffffff1660e01b81526004016110e291906001600160a01b0391909116815260200190565b600060405180830381600087803b1580156110fc57600080fd5b505af192505050801561110d575060015b61111657611135565b8360600151630e0264d160e01b848481518110610cee57610cee6131e5565b83608001516001600160a01b031663a9f752e584848151811061115a5761115a6131e5565b60200260200101516040518263ffffffff1660e01b815260040161118d91906001600160a01b0391909116815260200190565b60206040518083038186803b1580156111a557600080fd5b505afa1580156111b9573d6000803e3d6000fd5b505050506040513d601f19601f820116820180604052508101906111dd919061307e565b90506001600160a01b038116158015906112635750806001600160a01b031663faf7ba6a6040518163ffffffff1660e01b815260040160206040518083038186803b15801561122b57600080fd5b505afa15801561123f573d6000803e3d6000fd5b505050506040513d601f19601f8201168201806040525081019061126391906131fb565b156113135783608001516001600160a01b0316630e0264d184848151811061128d5761128d6131e5565b60200260200101516040518263ffffffff1660e01b81526004016112c091906001600160a01b0391909116815260200190565b600060405180830381600087803b1580156112da57600080fd5b505af19250505080156112eb575060015b6112f457611313565b8360800151630e0264d160e01b848481518110610cee57610cee6131e5565b600084606001516001600160a01b031663c76aeb126040518163ffffffff1660e01b815260040160206040518083038186803b15801561135257600080fd5b505afa158015611366573d6000803e3d6000fd5b505050506040513d601f19601f8201168201806040525081019061138a91906131bd565b905084606001516001600160a01b0316639b4ec8e98585815181106113b1576113b16131e5565b60200260200101516040518263ffffffff1660e01b81526004016113e491906001600160a01b0391909116815260200190565b600060405180830381600087803b1580156113fe57600080fd5b505af192505050801561140f575060015b61141857611530565b60008186606001516001600160a01b031663c76aeb126040518163ffffffff1660e01b815260040160206040518083038186803b15801561145857600080fd5b505afa15801561146c573d6000803e3d6000fd5b505050506040513d601f19601f8201168201806040525081019061149091906131bd565b61149a919061329b565b65ffffffffffff161115611530578460600151639b4ec8e960e01b8585815181106114c7576114c76131e5565b60200260200101516040516024016114ee91906001600160a01b0391909116815260200190565b60408051601f198184030181529190526020810180516001600160e01b03166001600160e01b031990931692909217909152909a909950975050505050505050565b84608001516001600160a01b031663c76aeb126040518163ffffffff1660e01b815260040160206040518083038186803b15801561156d57600080fd5b505afa158015611581573d6000803e3d6000fd5b505050506040513d601f19601f820116820180604052508101906115a591906131bd565b905084608001516001600160a01b0316639b4ec8e98585815181106115cc576115cc6131e5565b60200260200101516040518263ffffffff1660e01b81526004016115ff91906001600160a01b0391909116815260200190565b600060405180830381600087803b15801561161957600080fd5b505af192505050801561162a575060015b611633576116e2565b60008186608001516001600160a01b031663c76aeb126040518163ffffffff1660e01b815260040160206040518083038186803b15801561167357600080fd5b505afa158015611687573d6000803e3d6000fd5b505050506040513d601f19601f820116820180604052508101906116ab91906131bd565b6116b5919061329b565b65ffffffffffff1611156116e2578460800151639b4ec8e960e01b8585815181106114c7576114c76131e5565b505080806116ef90613233565b915050610f4c565b50600082604001516001600160a01b031663200d2ed26040518163ffffffff1660e01b815260040160206040518083038186803b15801561173757600080fd5b505afa15801561174b573d6000803e3d6000fd5b505050506040513d601f19601f8201168201806040525081019061176f919061319c565b600281111561178057611780613186565b14156122805781602001516001600160a01b031663a8372fd8826040518263ffffffff1660e01b81526004016117b6919061324e565b600060405180830381600087803b1580156117d057600080fd5b505af19250505080156117e1575060015b6117ea57612280565b60005b8151811015611c6d57604080516002808252606082018352600092602083019080368337019050509050876001600160a01b0316838381518110611833576118336131e5565b60200260200101516001600160a01b031614611a7557600084606001516001600160a01b031663c76aeb126040518163ffffffff1660e01b815260040160206040518083038186803b15801561188857600080fd5b505afa15801561189c573d6000803e3d6000fd5b505050506040513d601f19601f820116820180604052508101906118c091906131bd565b905084606001516001600160a01b0316639b4ec8e98585815181106118e7576118e76131e5565b60200260200101516040518263ffffffff1660e01b815260040161191a91906001600160a01b0391909116815260200190565b600060405180830381600087803b15801561193457600080fd5b505af1925050508015611945575060015b61194e57611a73565b60008186606001516001600160a01b031663c76aeb126040518163ffffffff1660e01b815260040160206040518083038186803b15801561198e57600080fd5b505afa1580156119a2573d6000803e3d6000fd5b505050506040513d601f19601f820116820180604052508101906119c691906131bd565b6119d0919061329b565b65ffffffffffff161115611a735788826000815181106119f2576119f26131e5565b60200260200101906001600160a01b031690816001600160a01b031681525050838381518110611a2457611a246131e5565b602002602001015182600181518110611a3f57611a3f6131e5565b6001600160a01b03909216602092830291909101820152850151604051631506e5fb60e31b906114ee90859060240161324e565b505b8360e001516001600160a01b0316838381518110611a9557611a956131e5565b60200260200101516001600160a01b031614611c5a57600084608001516001600160a01b031663c76aeb126040518163ffffffff1660e01b815260040160206040518083038186803b158015611aea57600080fd5b505afa158015611afe573d6000803e3d6000fd5b505050506040513d601f19601f82011682018060405250810190611b2291906131bd565b905084608001516001600160a01b0316639b4ec8e9858581518110611b4957611b496131e5565b60200260200101516040518263ffffffff1660e01b8152600401611b7c91906001600160a01b0391909116815260200190565b600060405180830381600087803b158015611b9657600080fd5b505af1925050508015611ba7575060015b611bb057611c58565b60008186608001516001600160a01b031663c76aeb126040518163ffffffff1660e01b815260040160206040518083038186803b158015611bf057600080fd5b505afa158015611c04573d6000803e3d6000fd5b505050506040513d601f19601f82011682018060405250810190611c2891906131bd565b611c32919061329b565b65ffffffffffff161115611c58578460e00151826000815181106119f2576119f26131e5565b505b5080611c6581613233565b9150506117ed565b5081516040516366f15f4560e11b81526001600160a01b038881166004830152600092169063cde2be8a9060240160206040518083038186803b158015611cb357600080fd5b505afa158015611cc7573d6000803e3d6000fd5b505050506040513d601f19601f82011682018060405250810190611ceb919061307e565b90506000816001600160a01b031663a035b1fe6040518163ffffffff1660e01b8152600401604080518083038186803b158015611d2757600080fd5b505afa158015611d3b573d6000803e3d6000fd5b505050506040513d601f19601f82011682018060405250810190611d5f91906132d9565b509050611ddc81836001600160a01b031663e28a1b866040518163ffffffff1660e01b815260040160206040518083038186803b158015611d9f57600080fd5b505afa158015611db3573d6000803e3d6000fd5b505050506040513d601f19601f82011682018060405250810190611dd7919061330c565b612e51565b9050611e5c84606001516001600160a01b0316637cbf6db26040518163ffffffff1660e01b815260040160206040518083038186803b158015611e1e57600080fd5b505afa158015611e32573d6000803e3d6000fd5b505050506040513d601f19601f82011682018060405250810190611e56919061330c565b82612e7b565b6060850151604051632ac07b9560e11b81526001600160a01b0391821660048201526001600160c01b03929092169190841690635580f72a9060240160206040518083038186803b158015611eb057600080fd5b505afa158015611ec4573d6000803e3d6000fd5b505050506040513d601f19601f82011682018060405250810190611ee8919061330c565b6001600160c01b03161115611fc4576060840151604051639b4ec8e960e01b81526001600160a01b038a8116600483015290911690639b4ec8e990602401600060405180830381600087803b158015611f4057600080fd5b505af1925050508015611f51575060015b611f5a57611fc4565b604080516001808252818301909252600091602080830190803683370190505090508881600081518110611f9057611f906131e5565b6001600160a01b03909216602092830291909101820152850151604051631506e5fb60e31b906114ee90849060240161324e565b5050815160e08301516040516366f15f4560e11b81526001600160a01b039182166004820152600092919091169063cde2be8a9060240160206040518083038186803b15801561201357600080fd5b505afa158015612027573d6000803e3d6000fd5b505050506040513d601f19601f8201168201806040525081019061204b919061307e565b90506000816001600160a01b031663a035b1fe6040518163ffffffff1660e01b8152600401604080518083038186803b15801561208757600080fd5b505afa15801561209b573d6000803e3d6000fd5b505050506040513d601f19601f820116820180604052508101906120bf91906132d9565b5090506120ff81836001600160a01b031663e28a1b866040518163ffffffff1660e01b815260040160206040518083038186803b158015611d9f57600080fd5b905061214184608001516001600160a01b0316637cbf6db26040518163ffffffff1660e01b815260040160206040518083038186803b158015611e1e57600080fd5b6080850151604051632ac07b9560e11b81526001600160a01b0391821660048201526001600160c01b03929092169190841690635580f72a9060240160206040518083038186803b15801561219557600080fd5b505afa1580156121a9573d6000803e3d6000fd5b505050506040513d601f19601f820116820180604052508101906121cd919061330c565b6001600160c01b0316111561227d57608084015160e0850151604051639b4ec8e960e01b81526001600160a01b039182166004820152911690639b4ec8e990602401600060405180830381600087803b15801561222957600080fd5b505af192505050801561223a575060015b6122435761227d565b604080516001808252818301909252600091602080830190803683370190505090508460e0015181600081518110611f9057611f906131e5565b50505b6000836001600160a01b031663656e96e16040518163ffffffff1660e01b815260040160206040518083038186803b1580156122bb57600080fd5b505afa1580156122cf573d6000803e3d6000fd5b505050506040513d601f19601f820116820180604052508101906122f3919061307e565b90506000816001600160a01b031663b9db102a6040518163ffffffff1660e01b815260040160206040518083038186803b15801561233057600080fd5b505afa158015612344573d6000803e3d6000fd5b505050506040513d601f19601f8201168201806040525081019061236891906131bd565b9050816001600160a01b0316635220f5106040518163ffffffff1660e01b8152600401600060405180830381600087803b1580156123a557600080fd5b505af19250505080156123b6575060015b6123bf5761247d565b8065ffffffffffff16826001600160a01b031663b9db102a6040518163ffffffff1660e01b815260040160206040518083038186803b15801561240157600080fd5b505afa158015612415573d6000803e3d6000fd5b505050506040513d601f19601f8201168201806040525081019061243991906131bd565b65ffffffffffff161461247d57506040805160048152602481019091526020810180516001600160e01b03166305220f5160e41b1790529097909650945050505050565b505060008260a001516001600160a01b031663f3a6bcbe6040518163ffffffff1660e01b815260040160206040518083038186803b1580156124be57600080fd5b505afa1580156124d2573d6000803e3d6000fd5b505050506040513d601f19601f820116820180604052508101906124f691906131bd565b90508260a001516001600160a01b031663296130866040518163ffffffff1660e01b8152600401600060405180830381600087803b15801561253757600080fd5b505af1925050508015612548575060015b61255157612616565b8065ffffffffffff168360a001516001600160a01b031663f3a6bcbe6040518163ffffffff1660e01b815260040160206040518083038186803b15801561259757600080fd5b505afa1580156125ab573d6000803e3d6000fd5b505050506040513d601f19601f820116820180604052508101906125cf91906131bd565b65ffffffffffff161461261657505060a001516040805160048152602481019091526020810180516001600160e01b03166314b0984360e11b179052909590945092505050565b506000815167ffffffffffffffff811115612633576126336130ab565b60405190808252806020026020018201604052801561265c578160200160208202803683370190505b50905060005b82518110156127335782818151811061267d5761267d6131e5565b602090810291909101810151908501516040516370a0823160e01b81526001600160a01b0391821660048201529116906370a082319060240160206040518083038186803b1580156126ce57600080fd5b505afa1580156126e2573d6000803e3d6000fd5b505050506040513d601f19601f820116820180604052508101906127069190613327565b828281518110612718576127186131e5565b602090810291909101015261272c81613233565b9050612662565b50600083602001516001600160a01b0316637cbf6db26040518163ffffffff1660e01b815260040160206040518083038186803b15801561277357600080fd5b505afa158015612787573d6000803e3d6000fd5b505050506040513d601f19601f820116820180604052508101906127ab919061330c565b905083602001516001600160a01b031663372500ab6040518163ffffffff1660e01b8152600401600060405180830381600087803b1580156127ec57600080fd5b505af19250505080156127fd575060015b61280657612b6e565b60005b8351811015612b6c57600085600001516001600160a01b031663cde2be8a868481518110612839576128396131e5565b60200260200101516040518263ffffffff1660e01b815260040161286c91906001600160a01b0391909116815260200190565b60206040518083038186803b15801561288457600080fd5b505afa158015612898573d6000803e3d6000fd5b505050506040513d601f19601f820116820180604052508101906128bc919061307e565b6001600160a01b031663a035b1fe6040518163ffffffff1660e01b8152600401604080518083038186803b1580156128f357600080fd5b505afa158015612907573d6000803e3d6000fd5b505050506040513d601f19601f8201168201806040525081019061292b91906132d9565b509050612a128187600001516001600160a01b031663cde2be8a888681518110612957576129576131e5565b60200260200101516040518263ffffffff1660e01b815260040161298a91906001600160a01b0391909116815260200190565b60206040518083038186803b1580156129a257600080fd5b505afa1580156129b6573d6000803e3d6000fd5b505050506040513d601f19601f820116820180604052508101906129da919061307e565b6001600160a01b031663e28a1b866040518163ffffffff1660e01b815260040160206040518083038186803b158015611d9f57600080fd5b90506000858381518110612a2857612a286131e5565b602090810291909101810151908801516040516370a0823160e01b81526001600160a01b0391821660048201529116906370a082319060240160206040518083038186803b158015612a7957600080fd5b505afa158015612a8d573d6000803e3d6000fd5b505050506040513d601f19601f82011682018060405250810190612ab19190613327565b9050612abd8483612e7b565b6001600160c01b0316858481518110612ad857612ad86131e5565b602002602001015182612aeb9190613340565b1115612b595760208701516040516001600160a01b038d16602482015263372500ab60e01b906044015b60408051601f198184030181529190526020810180516001600160e01b03166001600160e01b031990931692909217909152909c909b509950505050505050505050565b505080612b6590613233565b9050612809565b505b60405163098d2a7360e41b81526001600160a01b038916600482015230906398d2a73090602401600060405180830381600087803b158015612baf57600080fd5b505af1925050508015612bc0575060015b612bc957612e33565b60005b8351811015612e3157600085600001516001600160a01b031663cde2be8a868481518110612bfc57612bfc6131e5565b60200260200101516040518263ffffffff1660e01b8152600401612c2f91906001600160a01b0391909116815260200190565b60206040518083038186803b158015612c4757600080fd5b505afa158015612c5b573d6000803e3d6000fd5b505050506040513d601f19601f82011682018060405250810190612c7f919061307e565b6001600160a01b031663a035b1fe6040518163ffffffff1660e01b8152600401604080518083038186803b158015612cb657600080fd5b505afa158015612cca573d6000803e3d6000fd5b505050506040513d601f19601f82011682018060405250810190612cee91906132d9565b509050612d1a8187600001516001600160a01b031663cde2be8a888681518110612957576129576131e5565b90506000858381518110612d3057612d306131e5565b602090810291909101810151908801516040516370a0823160e01b81526001600160a01b0391821660048201529116906370a082319060240160206040518083038186803b158015612d8157600080fd5b505afa158015612d95573d6000803e3d6000fd5b505050506040513d601f19601f82011682018060405250810190612db99190613327565b9050612dc58483612e7b565b6001600160c01b0316858481518110612de057612de06131e5565b602002602001015182612df39190613340565b1115612e1e576040516001600160a01b038c166024820152309063098d2a7360e41b90604401612b15565b505080612e2a90613233565b9050612bcc565b505b50506040805160008082526020820190925294509450505050915091565b6000816001600160c01b0316836001600160c01b031611612e725781612e74565b825b9392505050565b6000806001600160c01b03831615612ea757612ea26001600160c01b038516846001612ed4565b612eb0565b6001600160c01b035b90506000816001600160c01b031611612eca576001612ecc565b805b949350505050565b6000612ecc612f07612ef7670de0b6b3a76400006001600160c01b038816613357565b856001600160c01b031685612f0c565b612fb6565b600080612f19848661338c565b90506000836002811115612f2f57612f2f613186565b1415612f3c579050612e74565b6001836002811115612f5057612f50613186565b1415612f90576002612f63600186613340565b612f6d919061338c565b612f7785876133a0565b1115612f8b5780612f8781613233565b9150505b612ecc565b6000612f9c85876133a0565b1115612ecc5780612fac81613233565b9695505050505050565b60006001600160c01b03821115612fe05760405163f44398f560e01b815260040160405180910390fd5b5090565b6001600160a01b0381168114612ff957600080fd5b50565b60006020828403121561300e57600080fd5b8135612eca81612fe4565b60018060a01b038316815260006020604081840152835180604085015260005b8181101561305557858101830151858201606001528201613039565b81811115613067576000606083870101525b50601f01601f191692909201606001949350505050565b60006020828403121561309057600080fd5b8151612eca81612fe4565b80516130a681612fe4565b919050565b634e487b7160e01b600052604160045260246000fd5b600060208083850312156130d457600080fd5b825167ffffffffffffffff808211156130ec57600080fd5b818501915085601f83011261310057600080fd5b815181811115613112576131126130ab565b8060051b604051601f19603f83011681018181108582111715613137576131376130ab565b60405291825284820192508381018501918883111561315557600080fd5b938501935b8285101561317a5761316b8561309b565b8452938501939285019261315a565b98975050505050505050565b634e487b7160e01b600052602160045260246000fd5b6000602082840312156131ae57600080fd5b815160038110612eca57600080fd5b6000602082840312156131cf57600080fd5b815165ffffffffffff81168114612eca57600080fd5b634e487b7160e01b600052603260045260246000fd5b60006020828403121561320d57600080fd5b81518015158114612eca57600080fd5b634e487b7160e01b600052601160045260246000fd5b60006000198214156132475761324761321d565b5060010190565b6020808252825182820181905260009190848201906040850190845b8181101561328f5783516001600160a01b03168352928401929184019160010161326a565b50909695505050505050565b600065ffffffffffff838116908316818110156132ba576132ba61321d565b039392505050565b80516001600160c01b03811681146130a657600080fd5b600080604083850312156132ec57600080fd5b6132f5836132c2565b9150613303602084016132c2565b90509250929050565b60006020828403121561331e57600080fd5b612e74826132c2565b60006020828403121561333957600080fd5b5051919050565b6000828210156133525761335261321d565b500390565b60008160001904831182151516156133715761337161321d565b500290565b634e487b7160e01b600052601260045260246000fd5b60008261339b5761339b613376565b500490565b6000826133af576133af613376565b50069056fea2646970667358221220cf1628b00595fb8017555d071124afb6e814addcb84dbf5ce69b6931a9275b8f64736f6c63430008090033",
  "linkReferences": {},
  "deployedLinkReferences": {}
}