{
  "_format": "hh-sol-artifact-1",
  "contractName": "AssetRegistryP1",
  "sourceName": "contracts/reserve/p1/AssetRegistry.sol",
  "abi": [
    {
      "anonymous": false,
      "inputs": [
        {
          "indexed": false,
          "internalType": "address",
          "name": "previousAdmin",
          "type": "address"
        },
        {
          "indexed": false,
          "internalType": "address",
          "name": "newAdmin",
          "type": "address"
        }
      ],
      "name": "AdminChanged",
      "type": "event"
    },
    {
      "anonymous": false,
      "inputs": [
        {
          "indexed": true,
          "internalType": "contract IERC20",
          "name": "erc20",
          "type": "address"
        },
        {
          "indexed": true,
          "internalType": "contract IAsset",
          "name": "asset",
          "type": "address"
        }
      ],
      "name": "AssetRegistered",
      "type": "event"
    },
    {
      "anonymous": false,
      "inputs": [
        {
          "indexed": true,
          "internalType": "contract IERC20",
          "name": "erc20",
          "type": "address"
        },
        {
          "indexed": true,
          "internalType": "contract IAsset",
          "name": "asset",
          "type": "address"
        }
      ],
      "name": "AssetUnregistered",
      "type": "event"
    },
    {
      "anonymous": false,
      "inputs": [
        {
          "indexed": true,
          "internalType": "address",
          "name": "beacon",
          "type": "address"
        }
      ],
      "name": "BeaconUpgraded",
      "type": "event"
    },
    {
      "anonymous": false,
      "inputs": [
        {
          "indexed": false,
          "internalType": "uint8",
          "name": "version",
          "type": "uint8"
        }
      ],
      "name": "Initialized",
      "type": "event"
    },
    {
      "anonymous": false,
      "inputs": [
        {
          "indexed": true,
          "internalType": "address",
          "name": "implementation",
          "type": "address"
        }
      ],
      "name": "Upgraded",
      "type": "event"
    },
    {
      "inputs": [],
      "name": "erc20s",
      "outputs": [
        {
          "internalType": "contract IERC20[]",
          "name": "erc20s_",
          "type": "address[]"
        }
      ],
      "stateMutability": "view",
      "type": "function"
    },
    {
      "inputs": [],
      "name": "getRegistry",
      "outputs": [
        {
          "components": [
            {
              "internalType": "contract IERC20[]",
              "name": "erc20s",
              "type": "address[]"
            },
            {
              "internalType": "contract IAsset[]",
              "name": "assets",
              "type": "address[]"
            }
          ],
          "internalType": "struct Registry",
          "name": "reg",
          "type": "tuple"
        }
      ],
      "stateMutability": "view",
      "type": "function"
    },
    {
      "inputs": [
        {
          "internalType": "contract IMain",
          "name": "main_",
          "type": "address"
        },
        {
          "internalType": "contract IAsset[]",
          "name": "assets_",
          "type": "address[]"
        }
      ],
      "name": "init",
      "outputs": [],
      "stateMutability": "nonpayable",
      "type": "function"
    },
    {
      "inputs": [
        {
          "internalType": "contract IERC20",
          "name": "erc20",
          "type": "address"
        }
      ],
      "name": "isRegistered",
      "outputs": [
        {
          "internalType": "bool",
          "name": "",
          "type": "bool"
        }
      ],
      "stateMutability": "view",
      "type": "function"
    },
    {
      "inputs": [],
      "name": "main",
      "outputs": [
        {
          "internalType": "contract IMain",
          "name": "",
          "type": "address"
        }
      ],
      "stateMutability": "view",
      "type": "function"
    },
    {
      "inputs": [],
      "name": "proxiableUUID",
      "outputs": [
        {
          "internalType": "bytes32",
          "name": "",
          "type": "bytes32"
        }
      ],
      "stateMutability": "view",
      "type": "function"
    },
    {
      "inputs": [],
      "name": "refresh",
      "outputs": [],
      "stateMutability": "nonpayable",
      "type": "function"
    },
    {
      "inputs": [
        {
          "internalType": "contract IAsset",
          "name": "asset",
          "type": "address"
        }
      ],
      "name": "register",
      "outputs": [
        {
          "internalType": "bool",
          "name": "",
          "type": "bool"
        }
      ],
      "stateMutability": "nonpayable",
      "type": "function"
    },
    {
      "inputs": [
        {
          "internalType": "contract IAsset",
          "name": "asset",
          "type": "address"
        }
      ],
      "name": "swapRegistered",
      "outputs": [
        {
          "internalType": "bool",
          "name": "swapped",
          "type": "bool"
        }
      ],
      "stateMutability": "nonpayable",
      "type": "function"
    },
    {
      "inputs": [
        {
          "internalType": "contract IERC20",
          "name": "erc20",
          "type": "address"
        }
      ],
      "name": "toAsset",
      "outputs": [
        {
          "internalType": "contract IAsset",
          "name": "",
          "type": "address"
        }
      ],
      "stateMutability": "view",
      "type": "function"
    },
    {
      "inputs": [
        {
          "internalType": "contract IERC20",
          "name": "erc20",
          "type": "address"
        }
      ],
      "name": "toColl",
      "outputs": [
        {
          "internalType": "contract ICollateral",
          "name": "",
          "type": "address"
        }
      ],
      "stateMutability": "view",
      "type": "function"
    },
    {
      "inputs": [
        {
          "internalType": "contract IAsset",
          "name": "asset",
          "type": "address"
        }
      ],
      "name": "unregister",
      "outputs": [],
      "stateMutability": "nonpayable",
      "type": "function"
    },
    {
      "inputs": [
        {
          "internalType": "address",
          "name": "newImplementation",
          "type": "address"
        }
      ],
      "name": "upgradeTo",
      "outputs": [],
      "stateMutability": "nonpayable",
      "type": "function"
    },
    {
      "inputs": [
        {
          "internalType": "address",
          "name": "newImplementation",
          "type": "address"
        },
        {
          "internalType": "bytes",
          "name": "data",
          "type": "bytes"
        }
      ],
      "name": "upgradeToAndCall",
      "outputs": [],
      "stateMutability": "payable",
      "type": "function"
    },
    {
      "inputs": [],
      "name": "version",
      "outputs": [
        {
          "internalType": "string",
          "name": "",
          "type": "string"
        }
      ],
      "stateMutability": "pure",
      "type": "function"
    }
  ],
  "bytecode": "0x60a0604052306080523480156200001557600080fd5b50600054610100900460ff1615808015620000375750600054600160ff909116105b8062000067575062000054306200014160201b620015eb1760201c565b15801562000067575060005460ff166001145b620000cf5760405162461bcd60e51b815260206004820152602e60248201527f496e697469616c697a61626c653a20636f6e747261637420697320616c72656160448201526d191e481a5b9a5d1a585b1a5e995960921b606482015260840160405180910390fd5b6000805460ff191660011790558015620000f3576000805461ff0019166101001790555b80156200013a576000805461ff0019169055604051600181527f7f26b83ff96e1f2b6a682f133852f6798a09c465da95921460cefb38474024989060200160405180910390a15b5062000150565b6001600160a01b03163b151590565b60805161255562000188600039600081816109a5015281816109e50152818161104801528181611088015261111701526125556000f3fe6080604052600436106100e85760003560e01c806352d1902d1161008a578063c3c5a54711610059578063c3c5a5471461028e578063cde2be8a146102ae578063dffeadd0146102ce578063f8ac93e8146102ee57600080fd5b806352d1902d146101dd57806354fd4d501461020057806357a26a40146102345780635ab1bd531461026c57600080fd5b80633ba3712a116100c65780633ba3712a1461015a5780633c5a3cea1461018a5780634420e486146101aa5780634f1ef286146101ca57600080fd5b80632510a1d7146100ed5780632ec2c246146101185780633659cfe61461013a575b600080fd5b3480156100f957600080fd5b50610102610303565b60405161010f9190611fba565b60405180910390f35b34801561012457600080fd5b5061013861013336600461201c565b6103ad565b005b34801561014657600080fd5b5061013861015536600461201c565b61099a565b34801561016657600080fd5b5061017a61017536600461201c565b610a7a565b604051901515815260200161010f565b34801561019657600080fd5b506101386101a5366004612039565b610d65565b3480156101b657600080fd5b5061017a6101c536600461201c565b610f59565b6101386101d83660046120d7565b61103d565b3480156101e957600080fd5b506101f261110a565b60405190815260200161010f565b34801561020c57600080fd5b5060408051808201825260058152640312e322e360dc1b6020820152905161010f91906121c7565b34801561024057600080fd5b5061025461024f36600461201c565b6111bd565b6040516001600160a01b03909116815260200161010f565b34801561027857600080fd5b506102816112ff565b60405161010f91906121fa565b34801561029a57600080fd5b5061017a6102a936600461201c565b611471565b3480156102ba57600080fd5b506102546102c936600461201c565b61147e565b3480156102da57600080fd5b50609754610254906001600160a01b031681565b3480156102fa57600080fd5b506101386114cc565b6060600061031160ca6115fa565b90508067ffffffffffffffff81111561032c5761032c6120c1565b604051908082528060200260200182016040528015610355578160200160208202803683370190505b50915060005b818110156103a85761036e60ca82611604565b83828151811061038057610380612297565b6001600160a01b03909216602092830291909101909101526103a1816122c3565b905061035b565b505090565b60975460408051808201909152600581526427aba722a960d91b60208201526001600160a01b03909116906391d14854906103e7906122de565b336040516001600160e01b031960e085901b16815260048101929092526001600160a01b0316602482015260440160206040518083038186803b15801561042d57600080fd5b505afa158015610441573d6000803e3d6000fd5b505050506040513d601f19601f820116820180604052508101906104659190612302565b61048a5760405162461bcd60e51b815260040161048190612324565b60405180910390fd5b610506816001600160a01b031663785e9e866040518163ffffffff1660e01b815260040160206040518083038186803b1580156104c657600080fd5b505afa1580156104da573d6000803e3d6000fd5b505050506040513d601f19601f820116820180604052508101906104fe919061234d565b60ca90611617565b61054b5760405162461bcd60e51b815260206004820152601660248201527537379030b9b9b2ba103a37903ab73932b3b4b9ba32b960511b6044820152606401610481565b806001600160a01b031660cc6000836001600160a01b031663785e9e866040518163ffffffff1660e01b815260040160206040518083038186803b15801561059257600080fd5b505afa1580156105a6573d6000803e3d6000fd5b505050506040513d601f19601f820116820180604052508101906105ca919061234d565b6001600160a01b03908116825260208201929092526040016000205416146106265760405162461bcd60e51b815260206004820152600f60248201526e185cdcd95d081b9bdd08199bdd5b99608a1b6044820152606401610481565b600060c960009054906101000a90046001600160a01b03166001600160a01b031663a5a5828c836001600160a01b031663785e9e866040518163ffffffff1660e01b815260040160206040518083038186803b15801561068557600080fd5b505afa158015610699573d6000803e3d6000fd5b505050506040513d601f19601f820116820180604052508101906106bd919061234d565b6040516001600160e01b031960e084901b1681526001600160a01b03909116600482015260240160206040518083038186803b1580156106fc57600080fd5b505afa158015610710573d6000803e3d6000fd5b505050506040513d601f19601f82011682018060405250810190610734919061236a565b90506107b2826001600160a01b031663785e9e866040518163ffffffff1660e01b815260040160206040518083038186803b15801561077257600080fd5b505afa158015610786573d6000803e3d6000fd5b505050506040513d601f19601f820116820180604052508101906107aa919061234d565b60ca90611639565b50600060cc6000846001600160a01b031663785e9e866040518163ffffffff1660e01b815260040160206040518083038186803b1580156107f257600080fd5b505afa158015610806573d6000803e3d6000fd5b505050506040513d601f19601f8201168201806040525081019061082a919061234d565b6001600160a01b03166001600160a01b0316815260200190815260200160002060006101000a8154816001600160a01b0302191690836001600160a01b03160217905550816001600160a01b0316826001600160a01b031663785e9e866040518163ffffffff1660e01b815260040160206040518083038186803b1580156108b157600080fd5b505afa1580156108c5573d6000803e3d6000fd5b505050506040513d601f19601f820116820180604052508101906108e9919061234d565b6001600160a01b03167f817f216d12af1855f1b81f88dc6421e26ebc7fa7eca01c58fd1035dd655b3d5460405160405180910390a36001600160c01b038116156109965760c960009054906101000a90046001600160a01b03166001600160a01b031663e27f3bef6040518163ffffffff1660e01b8152600401600060405180830381600087803b15801561097d57600080fd5b505af1158015610991573d6000803e3d6000fd5b505050505b5050565b306001600160a01b037f00000000000000000000000000000000000000000000000000000000000000001614156109e35760405162461bcd60e51b815260040161048190612393565b7f00000000000000000000000000000000000000000000000000000000000000006001600160a01b0316610a2c6000805160206124d9833981519152546001600160a01b031690565b6001600160a01b031614610a525760405162461bcd60e51b8152600401610481906123df565b610a5b8161164e565b60408051600080825260208201909252610a7791839190611722565b50565b60975460408051808201909152600581526427aba722a960d91b60208201526000916001600160a01b0316906391d1485490610ab5906122de565b336040516001600160e01b031960e085901b16815260048101929092526001600160a01b0316602482015260440160206040518083038186803b158015610afb57600080fd5b505afa158015610b0f573d6000803e3d6000fd5b505050506040513d601f19601f82011682018060405250810190610b339190612302565b610b4f5760405162461bcd60e51b815260040161048190612324565b610b8b826001600160a01b031663785e9e866040518163ffffffff1660e01b815260040160206040518083038186803b1580156104c657600080fd5b610bcc5760405162461bcd60e51b815260206004820152601260248201527137379022a92199181031b7b63634b9b4b7b760711b6044820152606401610481565b600060c960009054906101000a90046001600160a01b03166001600160a01b031663a5a5828c846001600160a01b031663785e9e866040518163ffffffff1660e01b815260040160206040518083038186803b158015610c2b57600080fd5b505afa158015610c3f573d6000803e3d6000fd5b505050506040513d601f19601f82011682018060405250810190610c63919061234d565b6040516001600160e01b031960e084901b1681526001600160a01b03909116600482015260240160206040518083038186803b158015610ca257600080fd5b505afa158015610cb6573d6000803e3d6000fd5b505050506040513d601f19601f82011682018060405250810190610cda919061236a565b9050610ce5836118a1565b91506001600160c01b03811615610d5f5760c960009054906101000a90046001600160a01b03166001600160a01b031663e27f3bef6040518163ffffffff1660e01b8152600401600060405180830381600087803b158015610d4657600080fd5b505af1158015610d5a573d6000803e3d6000fd5b505050505b50919050565b600054610100900460ff1615808015610d855750600054600160ff909116105b80610d9f5750303b158015610d9f575060005460ff166001145b610e025760405162461bcd60e51b815260206004820152602e60248201527f496e697469616c697a61626c653a20636f6e747261637420697320616c72656160448201526d191e481a5b9a5d1a585b1a5e995960921b6064820152608401610481565b6000805460ff191660011790558015610e25576000805461ff0019166101001790555b610e2e84611a07565b836001600160a01b0316632f2439b16040518163ffffffff1660e01b815260040160206040518083038186803b158015610e6757600080fd5b505afa158015610e7b573d6000803e3d6000fd5b505050506040513d601f19601f82011682018060405250810190610e9f919061234d565b60c980546001600160a01b0319166001600160a01b03929092169190911790558160005b81811015610f0b57610efa858583818110610ee057610ee0612297565b9050602002016020810190610ef5919061201c565b611aa5565b50610f04816122c3565b9050610ec3565b50508015610f53576000805461ff0019169055604051600181527f7f26b83ff96e1f2b6a682f133852f6798a09c465da95921460cefb38474024989060200160405180910390a15b50505050565b60975460408051808201909152600581526427aba722a960d91b60208201526000916001600160a01b0316906391d1485490610f94906122de565b336040516001600160e01b031960e085901b16815260048101929092526001600160a01b0316602482015260440160206040518083038186803b158015610fda57600080fd5b505afa158015610fee573d6000803e3d6000fd5b505050506040513d601f19601f820116820180604052508101906110129190612302565b61102e5760405162461bcd60e51b815260040161048190612324565b61103782611aa5565b92915050565b306001600160a01b037f00000000000000000000000000000000000000000000000000000000000000001614156110865760405162461bcd60e51b815260040161048190612393565b7f00000000000000000000000000000000000000000000000000000000000000006001600160a01b03166110cf6000805160206124d9833981519152546001600160a01b031690565b6001600160a01b0316146110f55760405162461bcd60e51b8152600401610481906123df565b6110fe8261164e565b61099682826001611722565b6000306001600160a01b037f000000000000000000000000000000000000000000000000000000000000000016146111aa5760405162461bcd60e51b815260206004820152603860248201527f555550535570677261646561626c653a206d757374206e6f742062652063616c60448201527f6c6564207468726f7567682064656c656761746563616c6c00000000000000006064820152608401610481565b506000805160206124d983398151915290565b60006111ca60ca83611617565b61120b5760405162461bcd60e51b8152602060048201526012602482015271195c98cc8c081d5b9c9959da5cdd195c995960721b6044820152606401610481565b6001600160a01b03808316600090815260cc602090815260409182902054825163c59b3d6360e01b8152925193169263c59b3d63926004808201939291829003018186803b15801561125c57600080fd5b505afa158015611270573d6000803e3d6000fd5b505050506040513d601f19601f820116820180604052508101906112949190612302565b6112e05760405162461bcd60e51b815260206004820152601760248201527f6572633230206973206e6f7420636f6c6c61746572616c0000000000000000006044820152606401610481565b506001600160a01b03908116600090815260cc60205260409020541690565b6040805180820190915260608082526020820152600061131f60ca6115fa565b90508067ffffffffffffffff81111561133a5761133a6120c1565b604051908082528060200260200182016040528015611363578160200160208202803683370190505b5082528067ffffffffffffffff81111561137f5761137f6120c1565b6040519080825280602002602001820160405280156113a8578160200160208202803683370190505b50602083015260005b818110156103a8576113c460ca82611604565b83518051839081106113d8576113d8612297565b6001600160a01b039092166020928302919091019091015260cc60006113ff60ca84611604565b6001600160a01b03166001600160a01b0316815260200190815260200160002060009054906101000a90046001600160a01b03168360200151828151811061144957611449612297565b6001600160a01b039092166020928302919091019091015261146a816122c3565b90506113b1565b600061103760ca83611617565b600061148b60ca83611617565b6112e05760405162461bcd60e51b8152602060048201526012602482015271195c98cc8c081d5b9c9959da5cdd195c995960721b6044820152606401610481565b60006114d860ca6115fa565b905060005b8181101561099657600060cc816114f560ca85611604565b6001600160a01b039081168252602080830193909352604091820160002054825163c59b3d6360e01b8152925191169350839263c59b3d639260048082019391829003018186803b15801561154957600080fd5b505afa15801561155d573d6000803e3d6000fd5b505050506040513d601f19601f820116820180604052508101906115819190612302565b156115da57806001600160a01b031663f8ac93e86040518163ffffffff1660e01b8152600401600060405180830381600087803b1580156115c157600080fd5b505af11580156115d5573d6000803e3d6000fd5b505050505b506115e4816122c3565b90506114dd565b6001600160a01b03163b151590565b6000611037825490565b60006116108383611bdd565b9392505050565b6001600160a01b03811660009081526001830160205260408120541515611610565b6000611610836001600160a01b038416611c07565b60975460408051808201909152600581526427aba722a960d91b60208201526001600160a01b03909116906391d1485490611688906122de565b336040516001600160e01b031960e085901b16815260048101929092526001600160a01b0316602482015260440160206040518083038186803b1580156116ce57600080fd5b505afa1580156116e2573d6000803e3d6000fd5b505050506040513d601f19601f820116820180604052508101906117069190612302565b610a775760405162461bcd60e51b815260040161048190612324565b7f4910fdfa16fed3260ed0e7147f7cc6da11a60208b5b9406d12a635614ffd91435460ff161561175a5761175583611cfa565b505050565b826001600160a01b03166352d1902d6040518163ffffffff1660e01b815260040160206040518083038186803b15801561179357600080fd5b505afa9250505080156117c3575060408051601f3d908101601f191682019092526117c09181019061242b565b60015b6118265760405162461bcd60e51b815260206004820152602e60248201527f45524331393637557067726164653a206e657720696d706c656d656e7461746960448201526d6f6e206973206e6f74205555505360901b6064820152608401610481565b6000805160206124d983398151915281146118955760405162461bcd60e51b815260206004820152602960248201527f45524331393637557067726164653a20756e737570706f727465642070726f786044820152681a58589b195555525160ba1b6064820152608401610481565b50611755838383611d96565b600080826001600160a01b031663785e9e866040518163ffffffff1660e01b815260040160206040518083038186803b1580156118dd57600080fd5b505afa1580156118f1573d6000803e3d6000fd5b505050506040513d601f19601f82011682018060405250810190611915919061234d565b905061192260ca82611617565b1561199e576001600160a01b03818116600090815260cc6020526040902054811690841614156119555750600092915050565b6001600160a01b03808216600081815260cc60205260408082205490519316927f817f216d12af1855f1b81f88dc6421e26ebc7fa7eca01c58fd1035dd655b3d549190a36119ab565b6119a960ca82611dbb565b505b6001600160a01b03818116600081815260cc602052604080822080546001600160a01b0319169488169485179055517f7beb5803e95d997a3a41bdd114aad49420e9b4ee9fd80c96b9acb7a8bf9ee0779190a350600192915050565b600054610100900460ff16611a2e5760405162461bcd60e51b815260040161048190612444565b6001600160a01b038116611a7b5760405162461bcd60e51b81526020600482015260146024820152736d61696e206973207a65726f206164647265737360601b6044820152606401610481565b611a83611dd0565b609780546001600160a01b0319166001600160a01b0392909216919091179055565b6000611ae3826001600160a01b031663785e9e866040518163ffffffff1660e01b815260040160206040518083038186803b1580156104c657600080fd5b1580611b885750816001600160a01b031660cc6000846001600160a01b031663785e9e866040518163ffffffff1660e01b815260040160206040518083038186803b158015611b3157600080fd5b505afa158015611b45573d6000803e3d6000fd5b505050506040513d601f19601f82011682018060405250810190611b69919061234d565b6001600160a01b03908116825260208201929092526040016000205416145b611bd45760405162461bcd60e51b815260206004820152601860248201527f6475706c696361746520455243323020646574656374656400000000000000006044820152606401610481565b611037826118a1565b6000826000018281548110611bf457611bf4612297565b9060005260206000200154905092915050565b60008181526001830160205260408120548015611cf0576000611c2b60018361248f565b8554909150600090611c3f9060019061248f565b9050818114611ca4576000866000018281548110611c5f57611c5f612297565b9060005260206000200154905080876000018481548110611c8257611c82612297565b6000918252602080832090910192909255918252600188019052604090208390555b8554869080611cb557611cb56124a6565b600190038181906000526020600020016000905590558560010160008681526020019081526020016000206000905560019350505050611037565b6000915050611037565b6001600160a01b0381163b611d675760405162461bcd60e51b815260206004820152602d60248201527f455243313936373a206e657720696d706c656d656e746174696f6e206973206e60448201526c1bdd08184818dbdb9d1c9858dd609a1b6064820152608401610481565b6000805160206124d983398151915280546001600160a01b0319166001600160a01b0392909216919091179055565b611d9f83611df9565b600082511180611dac5750805b1561175557610f538383611e39565b6000611610836001600160a01b038416611f2d565b600054610100900460ff16611df75760405162461bcd60e51b815260040161048190612444565b565b611e0281611cfa565b6040516001600160a01b038216907fbc7cd75a20ee27fd9adebab32041f755214dbc6bffa90cc0225b39da2e5c2d3b90600090a250565b60606001600160a01b0383163b611ea15760405162461bcd60e51b815260206004820152602660248201527f416464726573733a2064656c65676174652063616c6c20746f206e6f6e2d636f6044820152651b9d1c9858dd60d21b6064820152608401610481565b600080846001600160a01b031684604051611ebc91906124bc565b600060405180830381855af49150503d8060008114611ef7576040519150601f19603f3d011682016040523d82523d6000602084013e611efc565b606091505b5091509150611f2482826040518060600160405280602781526020016124f960279139611f7c565b95945050505050565b6000818152600183016020526040812054611f7457508154600181810184556000848152602080822090930184905584548482528286019093526040902091909155611037565b506000611037565b60608315611f8b575081611610565b6116108383815115611fa05781518083602001fd5b8060405162461bcd60e51b815260040161048191906121c7565b6020808252825182820181905260009190848201906040850190845b81811015611ffb5783516001600160a01b031683529284019291840191600101611fd6565b50909695505050505050565b6001600160a01b0381168114610a7757600080fd5b60006020828403121561202e57600080fd5b813561161081612007565b60008060006040848603121561204e57600080fd5b833561205981612007565b9250602084013567ffffffffffffffff8082111561207657600080fd5b818601915086601f83011261208a57600080fd5b81358181111561209957600080fd5b8760208260051b85010111156120ae57600080fd5b6020830194508093505050509250925092565b634e487b7160e01b600052604160045260246000fd5b600080604083850312156120ea57600080fd5b82356120f581612007565b9150602083013567ffffffffffffffff8082111561211257600080fd5b818501915085601f83011261212657600080fd5b813581811115612138576121386120c1565b604051601f8201601f19908116603f01168101908382118183101715612160576121606120c1565b8160405282815288602084870101111561217957600080fd5b8260208601602083013760006020848301015280955050505050509250929050565b60005b838110156121b657818101518382015260200161219e565b83811115610f535750506000910152565b60208152600082518060208401526121e681604085016020870161219b565b601f01601f19169190910160400192915050565b6020808252825160408383015280516060840181905260009291820190839060808601905b8083101561224a5783516001600160a01b03168252602082019150848401935060018301925061221f565b5086840151868203601f190160408801528051808352908501935090840191506000905b80821015611ffb5783516001600160a01b0316835292840192918401916001919091019061226e565b634e487b7160e01b600052603260045260246000fd5b634e487b7160e01b600052601160045260246000fd5b60006000198214156122d7576122d76122ad565b5060010190565b80516020808301519190811015610d5f5760001960209190910360031b1b16919050565b60006020828403121561231457600080fd5b8151801515811461161057600080fd5b6020808252600f908201526e676f7665726e616e6365206f6e6c7960881b604082015260600190565b60006020828403121561235f57600080fd5b815161161081612007565b60006020828403121561237c57600080fd5b81516001600160c01b038116811461161057600080fd5b6020808252602c908201527f46756e6374696f6e206d7573742062652063616c6c6564207468726f7567682060408201526b19195b1959d85d1958d85b1b60a21b606082015260800190565b6020808252602c908201527f46756e6374696f6e206d7573742062652063616c6c6564207468726f7567682060408201526b6163746976652070726f787960a01b606082015260800190565b60006020828403121561243d57600080fd5b5051919050565b6020808252602b908201527f496e697469616c697a61626c653a20636f6e7472616374206973206e6f74206960408201526a6e697469616c697a696e6760a81b606082015260800190565b6000828210156124a1576124a16122ad565b500390565b634e487b7160e01b600052603160045260246000fd5b600082516124ce81846020870161219b565b919091019291505056fe360894a13ba1a3210667c828492db98dca3e2076cc3735a920a3ca505d382bbc416464726573733a206c6f772d6c6576656c2064656c65676174652063616c6c206661696c6564a2646970667358221220802777c09d5cbb92131948b64442a31d268597c6a815dbea4eb318ffb8a6640e64736f6c63430008090033",
  "linkReferences": {},
  "deployedLinkReferences": {}
}