{
  "_format": "hh-sol-artifact-1",
  "contractName": "CTokenFiatCollateral",
  "sourceName": "contracts/reserve/plugins/assets/CTokenFiatCollateral.sol",
  "abi": [
    {
      "inputs": [
        {
          "components": [
            {
              "internalType": "uint192",
              "name": "fallbackPrice",
              "type": "uint192"
            },
            {
              "internalType": "contract AggregatorV3Interface",
              "name": "chainlinkFeed",
              "type": "address"
            },
            {
              "internalType": "uint192",
              "name": "oracleError",
              "type": "uint192"
            },
            {
              "internalType": "contract IERC20Metadata",
              "name": "erc20",
              "type": "address"
            },
            {
              "internalType": "uint192",
              "name": "maxTradeVolume",
              "type": "uint192"
            },
            {
              "internalType": "uint48",
              "name": "oracleTimeout",
              "type": "uint48"
            },
            {
              "internalType": "bytes32",
              "name": "targetName",
              "type": "bytes32"
            },
            {
              "internalType": "uint192",
              "name": "defaultThreshold",
              "type": "uint192"
            },
            {
              "internalType": "uint256",
              "name": "delayUntilDefault",
              "type": "uint256"
            }
          ],
          "internalType": "struct CollateralConfig",
          "name": "config",
          "type": "tuple"
        },
        {
          "internalType": "contract IComptroller",
          "name": "comptroller_",
          "type": "address"
        }
      ],
      "stateMutability": "nonpayable",
      "type": "constructor"
    },
    {
      "inputs": [],
      "name": "StalePrice",
      "type": "error"
    },
    {
      "inputs": [],
      "name": "UIntOutOfBounds",
      "type": "error"
    },
    {
      "anonymous": false,
      "inputs": [
        {
          "indexed": true,
          "internalType": "enum CollateralStatus",
          "name": "oldStatus",
          "type": "uint8"
        },
        {
          "indexed": true,
          "internalType": "enum CollateralStatus",
          "name": "newStatus",
          "type": "uint8"
        }
      ],
      "name": "CollateralStatusChanged",
      "type": "event"
    },
    {
      "anonymous": false,
      "inputs": [
        {
          "indexed": true,
          "internalType": "contract IERC20",
          "name": "erc20",
          "type": "address"
        },
        {
          "indexed": true,
          "internalType": "uint256",
          "name": "amount",
          "type": "uint256"
        }
      ],
      "name": "RewardsClaimed",
      "type": "event"
    },
    {
      "inputs": [
        {
          "internalType": "address",
          "name": "account",
          "type": "address"
        }
      ],
      "name": "bal",
      "outputs": [
        {
          "internalType": "uint192",
          "name": "",
          "type": "uint192"
        }
      ],
      "stateMutability": "view",
      "type": "function"
    },
    {
      "inputs": [],
      "name": "chainlinkFeed",
      "outputs": [
        {
          "internalType": "contract AggregatorV3Interface",
          "name": "",
          "type": "address"
        }
      ],
      "stateMutability": "view",
      "type": "function"
    },
    {
      "inputs": [],
      "name": "claimRewards",
      "outputs": [],
      "stateMutability": "nonpayable",
      "type": "function"
    },
    {
      "inputs": [],
      "name": "comptroller",
      "outputs": [
        {
          "internalType": "contract IComptroller",
          "name": "",
          "type": "address"
        }
      ],
      "stateMutability": "view",
      "type": "function"
    },
    {
      "inputs": [],
      "name": "delayUntilDefault",
      "outputs": [
        {
          "internalType": "uint256",
          "name": "",
          "type": "uint256"
        }
      ],
      "stateMutability": "view",
      "type": "function"
    },
    {
      "inputs": [],
      "name": "erc20",
      "outputs": [
        {
          "internalType": "contract IERC20Metadata",
          "name": "",
          "type": "address"
        }
      ],
      "stateMutability": "view",
      "type": "function"
    },
    {
      "inputs": [],
      "name": "erc20Decimals",
      "outputs": [
        {
          "internalType": "uint8",
          "name": "",
          "type": "uint8"
        }
      ],
      "stateMutability": "view",
      "type": "function"
    },
    {
      "inputs": [],
      "name": "fallbackPrice",
      "outputs": [
        {
          "internalType": "uint192",
          "name": "",
          "type": "uint192"
        }
      ],
      "stateMutability": "view",
      "type": "function"
    },
    {
      "inputs": [],
      "name": "isCollateral",
      "outputs": [
        {
          "internalType": "bool",
          "name": "",
          "type": "bool"
        }
      ],
      "stateMutability": "pure",
      "type": "function"
    },
    {
      "inputs": [],
      "name": "maxTradeVolume",
      "outputs": [
        {
          "internalType": "uint192",
          "name": "",
          "type": "uint192"
        }
      ],
      "stateMutability": "view",
      "type": "function"
    },
    {
      "inputs": [],
      "name": "oracleError",
      "outputs": [
        {
          "internalType": "uint192",
          "name": "",
          "type": "uint192"
        }
      ],
      "stateMutability": "view",
      "type": "function"
    },
    {
      "inputs": [],
      "name": "oracleTimeout",
      "outputs": [
        {
          "internalType": "uint48",
          "name": "",
          "type": "uint48"
        }
      ],
      "stateMutability": "view",
      "type": "function"
    },
    {
      "inputs": [],
      "name": "pegBottom",
      "outputs": [
        {
          "internalType": "uint192",
          "name": "",
          "type": "uint192"
        }
      ],
      "stateMutability": "view",
      "type": "function"
    },
    {
      "inputs": [],
      "name": "pegTop",
      "outputs": [
        {
          "internalType": "uint192",
          "name": "",
          "type": "uint192"
        }
      ],
      "stateMutability": "view",
      "type": "function"
    },
    {
      "inputs": [],
      "name": "prevReferencePrice",
      "outputs": [
        {
          "internalType": "uint192",
          "name": "",
          "type": "uint192"
        }
      ],
      "stateMutability": "view",
      "type": "function"
    },
    {
      "inputs": [],
      "name": "price",
      "outputs": [
        {
          "internalType": "uint192",
          "name": "",
          "type": "uint192"
        },
        {
          "internalType": "uint192",
          "name": "",
          "type": "uint192"
        }
      ],
      "stateMutability": "view",
      "type": "function"
    },
    {
      "inputs": [],
      "name": "refPerTok",
      "outputs": [
        {
          "internalType": "uint192",
          "name": "",
          "type": "uint192"
        }
      ],
      "stateMutability": "view",
      "type": "function"
    },
    {
      "inputs": [],
      "name": "referenceERC20Decimals",
      "outputs": [
        {
          "internalType": "uint8",
          "name": "",
          "type": "uint8"
        }
      ],
      "stateMutability": "view",
      "type": "function"
    },
    {
      "inputs": [],
      "name": "refresh",
      "outputs": [],
      "stateMutability": "nonpayable",
      "type": "function"
    },
    {
      "inputs": [],
      "name": "status",
      "outputs": [
        {
          "internalType": "enum CollateralStatus",
          "name": "",
          "type": "uint8"
        }
      ],
      "stateMutability": "view",
      "type": "function"
    },
    {
      "inputs": [],
      "name": "targetName",
      "outputs": [
        {
          "internalType": "bytes32",
          "name": "",
          "type": "bytes32"
        }
      ],
      "stateMutability": "view",
      "type": "function"
    },
    {
      "inputs": [],
      "name": "targetPerRef",
      "outputs": [
        {
          "internalType": "uint192",
          "name": "",
          "type": "uint192"
        }
      ],
      "stateMutability": "view",
      "type": "function"
    },
    {
      "inputs": [],
      "name": "tryPrice",
      "outputs": [
        {
          "internalType": "uint192",
          "name": "low",
          "type": "uint192"
        },
        {
          "internalType": "uint192",
          "name": "high",
          "type": "uint192"
        },
        {
          "internalType": "uint192",
          "name": "pegPrice",
          "type": "uint192"
        }
      ],
      "stateMutability": "view",
      "type": "function"
    },
    {
      "inputs": [],
      "name": "whenDefault",
      "outputs": [
        {
          "internalType": "uint256",
          "name": "",
          "type": "uint256"
        }
      ],
      "stateMutability": "view",
      "type": "function"
    }
  ],
  "bytecode": "0x6102006040526000196001553480156200001857600080fd5b5060405162002583380380620025838339810160408190526200003b91620009b2565b81806000015181602001518260400151836060015184608001518560a001516000866001600160c01b031611620000b95760405162461bcd60e51b815260206004820152601360248201527f66616c6c6261636b207072696365207a65726f0000000000000000000000000060448201526064015b60405180910390fd5b6001600160a01b038516620001115760405162461bcd60e51b815260206004820152601660248201527f6d697373696e6720636861696e6c696e6b2066656564000000000000000000006044820152606401620000b0565b6000846001600160c01b03161180156200013b5750670de0b6b3a76400006001600160c01b038516105b620001895760405162461bcd60e51b815260206004820152601960248201527f6f7261636c65206572726f72206f7574206f662072616e6765000000000000006044820152606401620000b0565b6001600160a01b038316620001d15760405162461bcd60e51b815260206004820152600d60248201526c06d697373696e6720657263323609c1b6044820152606401620000b0565b6000826001600160c01b0316116200022c5760405162461bcd60e51b815260206004820152601860248201527f696e76616c6964206d617820747261646520766f6c756d6500000000000000006044820152606401620000b0565b60008165ffffffffffff16116200027b5760405162461bcd60e51b81526020600482015260126024820152716f7261636c6554696d656f7574207a65726f60701b6044820152606401620000b0565b600080546001600160c01b0319166001600160c01b03888116919091179091556001600160a01b0386811660805290851661010052831660a08190526040805163313ce56760e01b8152905163313ce56791600480820192602092909190829003018186803b158015620002ee57600080fd5b505afa15801562000303573d6000803e3d6000fd5b505050506040513d601f19601f8201168201806040525081019062000329919062000a95565b60ff1660c09081526001600160c01b0390921660e05265ffffffffffff16610120528501511515935062000399925050505760405162461bcd60e51b81526020600482015260126024820152717461726765744e616d65206d697373696e6760701b6044820152606401620000b0565b60e08101516001600160c01b0316156200040457600081610100015111620004045760405162461bcd60e51b815260206004820152601660248201527f64656c6179556e74696c44656661756c74207a65726f000000000000000000006044820152606401620000b0565b60c081015161016052610100810151610140526000670de0b6b3a7640000905060006200044d8360e00151836001600160c01b03166200061760201b62000b1e1790919060201c565b90506200045b818362000ad0565b6001600160c01b03166101805262000474818362000afb565b6001600160c01b03166101a0525050506001600160a01b038116620004dc5760405162461bcd60e51b815260206004820152601360248201527f636f6d7074726f6c6c6572206d697373696e67000000000000000000000000006044820152606401620000b0565b600082606001519050806001600160a01b0316636f307dc36040518163ffffffff1660e01b815260040160206040518083038186803b1580156200051f57600080fd5b505afa15801562000534573d6000803e3d6000fd5b505050506040513d601f19601f820116820180604052508101906200055a919062000b29565b6001600160a01b031663313ce5676040518163ffffffff1660e01b815260040160206040518083038186803b1580156200059357600080fd5b505afa158015620005a8573d6000803e3d6000fd5b505050506040513d601f19601f82011682018060405250810190620005ce919062000a95565b60ff166101c0526001600160a01b0382166101e052620005ed62000630565b600280546001600160c01b0319166001600160c01b03929092169190911790555062000dd2915050565b60006200062783836001620006e3565b90505b92915050565b60008060a0516001600160a01b031663182df0f56040518163ffffffff1660e01b815260040160206040518083038186803b1580156200066f57600080fd5b505afa15801562000684573d6000803e3d6000fd5b505050506040513d601f19601f82011682018060405250810190620006aa919062000b49565b9050600060126101c0516008620006c2919062000b63565b620006ce919062000b63565b9050620006dc828262000725565b9250505090565b60006200071b62000715620007056001600160c01b0380871690881662000baa565b670de0b6b3a76400008562000734565b620007f8565b90505b9392505050565b60006200062783838362000827565b60008062000743848662000be2565b905060008360028111156200075c576200075c62000bf9565b14156200076b5790506200071e565b600183600281111562000782576200078262000bf9565b1415620007cd5760026200079860018662000c0f565b620007a4919062000be2565b620007b0858762000c29565b1115620007c75780620007c38162000c40565b9150505b6200071b565b6000620007db858762000c29565b11156200071b5780620007ee8162000c40565b9695505050505050565b60006001600160c01b03821115620008235760405163f44398f560e01b815260040160405180910390fd5b5090565b60008362000838575060006200071e565b605f198360000b13620008785760028260028111156200085c576200085c62000bf9565b146200086a5760006200086d565b60015b60ff1690506200071e565b8260000b6028136200089d5760405163f44398f560e01b815260040160405180910390fd5b620008aa60128462000c5e565b92506000620008bb84820b62000904565b620008c890600a62000da4565b90506000808560000b1215620008eb57620008e586838662000734565b620008f7565b620008f7828762000baa565b9050620007ee81620007f8565b60008082126200091557816200062a565b6200062a8262000db2565b60405161012081016001600160401b03811182821017156200095257634e487b7160e01b600052604160045260246000fd5b60405290565b80516001600160c01b03811681146200097057600080fd5b919050565b6001600160a01b03811681146200098b57600080fd5b50565b8051620009708162000975565b805165ffffffffffff811681146200097057600080fd5b600080828403610140811215620009c857600080fd5b61012080821215620009d957600080fd5b620009e362000920565b9150620009f08562000958565b825262000a00602086016200098e565b602083015262000a136040860162000958565b604083015262000a26606086016200098e565b606083015262000a396080860162000958565b608083015262000a4c60a086016200099b565b60a083015260c085015160c083015262000a6960e0860162000958565b60e083015261010080860151818401525081935062000a8a8186016200098e565b925050509250929050565b60006020828403121562000aa857600080fd5b815160ff811681146200071e57600080fd5b634e487b7160e01b600052601160045260246000fd5b60006001600160c01b038381169083168181101562000af35762000af362000aba565b039392505050565b60006001600160c01b0382811684821680830382111562000b205762000b2062000aba565b01949350505050565b60006020828403121562000b3c57600080fd5b81516200071e8162000975565b60006020828403121562000b5c57600080fd5b5051919050565b600081810b83820b8281128015607f1983018412161562000b885762000b8862000aba565b81607f01831381161562000ba05762000ba062000aba565b5090039392505050565b600081600019048311821515161562000bc75762000bc762000aba565b500290565b634e487b7160e01b600052601260045260246000fd5b60008262000bf45762000bf462000bcc565b500490565b634e487b7160e01b600052602160045260246000fd5b60008282101562000c245762000c2462000aba565b500390565b60008262000c3b5762000c3b62000bcc565b500690565b600060001982141562000c575762000c5762000aba565b5060010190565b60008160000b8360000b6000821282607f0382138115161562000c855762000c8562000aba565b82607f1903821281161562000c9e5762000c9e62000aba565b50019392505050565b600181815b8085111562000ce857816000190482111562000ccc5762000ccc62000aba565b8085161562000cda57918102915b93841c939080029062000cac565b509250929050565b60008262000d01575060016200062a565b8162000d10575060006200062a565b816001811462000d29576002811462000d345762000d54565b60019150506200062a565b60ff84111562000d485762000d4862000aba565b50506001821b6200062a565b5060208310610133831016604e8410600b841016171562000d79575081810a6200062a565b62000d85838362000ca7565b806000190482111562000d9c5762000d9c62000aba565b029392505050565b600062000627838362000cf0565b6000600160ff1b82141562000dcb5762000dcb62000aba565b5060000390565b60805160a05160c05160e05161010051610120516101405161016051610180516101a0516101c0516101e0516116bd62000ec660003960008181610200015281816104b201526105d601526000818161023f0152610a3d01526000818161038e0152610e540152600081816103b50152610e180152600061046201526000818161043301526111b101526000818161035001526107fc0152600081816103dc015281816108520152610899015260006102f901526000818161019c015261079a0152600081816102660152818161071b015281816109a30152610a820152600081816102bf01526107da01526116bd6000f3fe608060405234801561001057600080fd5b50600436106101585760003560e01c8063a035b1fe116100c3578063c59b3d631161007c578063c59b3d63146103fe578063d9e8e6701461040d578063e28a1b861461041b578063e6a150531461042e578063f8ac93e814610455578063fdfd59171461045d57600080fd5b8063a035b1fe1461031b578063a7fa0faf14610343578063abfeece51461034b578063ae4e187514610389578063b94d8739146103b0578063c55f29d1146103d757600080fd5b806362b338681161011557806362b338681461023a578063785e9e86146102615780637d1ea137146102885780637dbdf1f5146102ba5780638b382ee7146102e157806395acc4ae146102f457600080fd5b8063200d2ed21461015d5780632dc866241461017b578063372500ab1461018d5780633cb5d379146101975780635580f72a146101d05780635fe3b567146101fb575b600080fd5b610165610484565b604051610172919061124a565b60405180910390f35b6001545b604051908152602001610172565b6101956104ae565b005b6101be7f000000000000000000000000000000000000000000000000000000000000000081565b60405160ff9091168152602001610172565b6101e36101de366004611287565b6106f5565b6040516001600160c01b039091168152602001610172565b6102227f000000000000000000000000000000000000000000000000000000000000000081565b6040516001600160a01b039091168152602001610172565b6101be7f000000000000000000000000000000000000000000000000000000000000000081565b6102227f000000000000000000000000000000000000000000000000000000000000000081565b6102906107c9565b604080516001600160c01b0394851681529284166020840152921691810191909152606001610172565b6102227f000000000000000000000000000000000000000000000000000000000000000081565b6002546101e3906001600160c01b031681565b6101e37f000000000000000000000000000000000000000000000000000000000000000081565b6103236108d7565b604080516001600160c01b03938416815292909116602083015201610172565b6101e361099e565b6103727f000000000000000000000000000000000000000000000000000000000000000081565b60405165ffffffffffff9091168152602001610172565b6101e37f000000000000000000000000000000000000000000000000000000000000000081565b6101e37f000000000000000000000000000000000000000000000000000000000000000081565b6101e37f000000000000000000000000000000000000000000000000000000000000000081565b60405160018152602001610172565b670de0b6b3a76400006101e3565b6000546101e3906001600160c01b031681565b61017f7f000000000000000000000000000000000000000000000000000000000000000081565b610195610a80565b61017f7f000000000000000000000000000000000000000000000000000000000000000081565b600060001960015414156104985750600090565b4260015411156104a85750600190565b50600290565b60007f00000000000000000000000000000000000000000000000000000000000000006001600160a01b0316639d1b5a0a6040518163ffffffff1660e01b815260040160206040518083038186803b15801561050957600080fd5b505afa15801561051d573d6000803e3d6000fd5b505050506040513d601f19601f8201168201806040525081019061054191906112a4565b6040516370a0823160e01b81523060048201529091506000906001600160a01b038316906370a082319060240160206040518083038186803b15801561058657600080fd5b505afa15801561059a573d6000803e3d6000fd5b505050506040513d601f19601f820116820180604052508101906105be91906112c1565b6040516374d7814960e11b81523060048201529091507f00000000000000000000000000000000000000000000000000000000000000006001600160a01b03169063e9af029290602401600060405180830381600087803b15801561062257600080fd5b505af1158015610636573d6000803e3d6000fd5b50506040516370a0823160e01b81523060048201528392506001600160a01b03851691506370a082319060240160206040518083038186803b15801561067b57600080fd5b505afa15801561068f573d6000803e3d6000fd5b505050506040513d601f19601f820116820180604052508101906106b391906112c1565b6106bd91906112f0565b6040516001600160a01b038416907ffc30cddea38e2bf4d6ea7d3f9ed3b6ad7f176419f4963bd81318067a4aee73fe90600090a35050565b6040516370a0823160e01b81526001600160a01b0382811660048301526000916107c3917f000000000000000000000000000000000000000000000000000000000000000016906370a082319060240160206040518083038186803b15801561075d57600080fd5b505afa158015610771573d6000803e3d6000fd5b505050506040513d601f19601f8201168201806040525081019061079591906112c1565b6107be7f0000000000000000000000000000000000000000000000000000000000000000611307565b610b33565b92915050565b600080806108206001600160a01b037f0000000000000000000000000000000000000000000000000000000000000000167f0000000000000000000000000000000000000000000000000000000000000000610b41565b9050600061083f61082f61099e565b6001600160c01b03841690610b1e565b9050610886610876670de0b6b3a76400007f0000000000000000000000000000000000000000000000000000000000000000610cd0565b6001600160c01b03831690610cdc565b93506108cf6108bd670de0b6b3a76400007f0000000000000000000000000000000000000000000000000000000000000000610cea565b6001600160c01b038316906002610cf6565b925050909192565b600080306001600160a01b0316637d1ea1376040518163ffffffff1660e01b815260040160606040518083038186803b15801561091357600080fd5b505afa925050508015610943575060408051601f3d908101601f1916820190925261094091810190611343565b60015b610994573d808015610971576040519150601f19603f3d011682016040523d82523d6000602084013e610976565b606091505b50805161098257600080fd5b506000926001600160c01b0392509050565b5090939092509050565b6000807f00000000000000000000000000000000000000000000000000000000000000006001600160a01b031663182df0f56040518163ffffffff1660e01b815260040160206040518083038186803b1580156109fa57600080fd5b505afa158015610a0e573d6000803e3d6000fd5b505050506040513d601f19601f82011682018060405250810190610a3291906112c1565b905060006012610a637f00000000000000000000000000000000000000000000000000000000000000006008611386565b610a6d9190611386565b9050610a798282610b33565b9250505090565b7f00000000000000000000000000000000000000000000000000000000000000006001600160a01b031663bd6d894d6040518163ffffffff1660e01b8152600401602060405180830381600087803b158015610adb57600080fd5b505af1158015610aef573d6000803e3d6000fd5b505050506040513d601f19601f82011682018060405250810190610b1391906112c1565b50610b1c610d36565b565b6000610b2c83836001610f95565b9392505050565b6000610b2c83836000610fc2565b6000806000806000866001600160a01b031663feaf968c6040518163ffffffff1660e01b815260040160a06040518083038186803b158015610b8257600080fd5b505afa158015610b96573d6000803e3d6000fd5b505050506040513d601f19601f82011682018060405250810190610bba91906113e1565b9450945050935093508160001480610be957508369ffffffffffffffffffff168169ffffffffffffffffffff16105b15610c0757604051630cd5fa0760e11b815260040160405180910390fd5b6000610c1383426112f0565b90508665ffffffffffff168165ffffffffffff161115610c4657604051630cd5fa0760e11b815260040160405180910390fd5b610cc484896001600160a01b031663313ce5676040518163ffffffff1660e01b815260040160206040518083038186803b158015610c8357600080fd5b505afa158015610c97573d6000803e3d6000fd5b505050506040513d601f19601f82011682018060405250810190610cbb9190611431565b6107be90611307565b98975050505050505050565b6000610b2c8284611454565b6000610b2c83836000610cf6565b6000610b2c828461147f565b6000610d2e610d29610d19670de0b6b3a76400006001600160c01b0388166114a7565b856001600160c01b031685611092565b611132565b949350505050565b6001544210610d4157565b6000610d4b610484565b9050306001600160a01b0316637d1ea1376040518163ffffffff1660e01b815260040160606040518083038186803b158015610d8657600080fd5b505afa925050508015610db6575060408051601f3d908101601f19168201909252610db391810190611343565b60015b610e05573d808015610de4576040519150601f19603f3d011682016040523d82523d6000602084013e610de9565b606091505b508051610df557600080fd5b610dff6001611160565b50610ec4565b6001600160c01b0383161580610e4c57507f00000000000000000000000000000000000000000000000000000000000000006001600160c01b0316816001600160c01b0316105b80610e8857507f00000000000000000000000000000000000000000000000000000000000000006001600160c01b0316816001600160c01b0316115b15610e9c57610e976001611160565b610ec0565b600080546001600160c01b0319166001600160c01b038516178155610ec090611160565b5050505b6000610ece61099e565b6002549091506001600160c01b039081169082161015610ef257610ef26002611160565b600280546001600160c01b0319166001600160c01b0383161790556000610f17610484565b9050806002811115610f2b57610f2b611234565b836002811115610f3d57610f3d611234565b14610f9057806002811115610f5457610f54611234565b836002811115610f6657610f66611234565b6040517f99cada7141db4d51b602b2e469ec310c78ffbba0eb05bc3e3e633f30672dea0290600090a35b505050565b6000610d2e610d29610fb36001600160c01b038087169088166114a7565b670de0b6b3a764000085611092565b600083610fd157506000610b2c565b605f198360000b1361100a576002826002811115610ff157610ff1611234565b14610ffd576000611000565b60015b60ff169050610b2c565b8260000b60281361102e5760405163f44398f560e01b815260040160405180910390fd5b6110396012846114c6565b925060006110498460000b611206565b61105490600a6115ed565b90506000808560000b12156110735761106e868386611092565b61107d565b61107d82876114a7565b905061108881611132565b9695505050505050565b60008061109f848661160f565b905060008360028111156110b5576110b5611234565b14156110c2579050610b2c565b60018360028111156110d6576110d6611234565b14156111165760026110e96001866112f0565b6110f3919061160f565b6110fd8587611623565b1115611111578061110d81611637565b9150505b610d2e565b60006111228587611623565b1115610d2e578061108881611637565b60006001600160c01b0382111561115c5760405163f44398f560e01b815260040160405180910390fd5b5090565b426001541161116c5750565b600081600281111561118057611180611234565b141561118f5760001960015550565b60018160028111156111a3576111a3611234565b14156111e4576111de6111d67f000000000000000000000000000000000000000000000000000000000000000042611652565b60015461121e565b60015550565b60028160028111156111f8576111f8611234565b141561120357426001555b50565b600080821261121557816107c3565b6107c38261166a565b600081831061122d5781610b2c565b5090919050565b634e487b7160e01b600052602160045260246000fd5b602081016003831061126c57634e487b7160e01b600052602160045260246000fd5b91905290565b6001600160a01b038116811461120357600080fd5b60006020828403121561129957600080fd5b8135610b2c81611272565b6000602082840312156112b657600080fd5b8151610b2c81611272565b6000602082840312156112d357600080fd5b5051919050565b634e487b7160e01b600052601160045260246000fd5b600082821015611302576113026112da565b500390565b600081810b607f1981141561131e5761131e6112da565b60000392915050565b80516001600160c01b038116811461133e57600080fd5b919050565b60008060006060848603121561135857600080fd5b61136184611327565b925061136f60208501611327565b915061137d60408501611327565b90509250925092565b600081810b83820b8281128015607f198301841216156113a8576113a86112da565b81607f0183138116156113bd576113bd6112da565b5090039392505050565b805169ffffffffffffffffffff8116811461133e57600080fd5b600080600080600060a086880312156113f957600080fd5b611402866113c7565b9450602086015193506040860151925060608601519150611425608087016113c7565b90509295509295909350565b60006020828403121561144357600080fd5b815160ff81168114610b2c57600080fd5b60006001600160c01b03828116848216808303821115611476576114766112da565b01949350505050565b60006001600160c01b038381169083168181101561149f5761149f6112da565b039392505050565b60008160001904831182151516156114c1576114c16112da565b500290565b60008160000b8360000b6000821282607f038213811516156114ea576114ea6112da565b82607f19038212811615611500576115006112da565b50019392505050565b600181815b8085111561154457816000190482111561152a5761152a6112da565b8085161561153757918102915b93841c939080029061150e565b509250929050565b60008261155b575060016107c3565b81611568575060006107c3565b816001811461157e5760028114611588576115a4565b60019150506107c3565b60ff841115611599576115996112da565b50506001821b6107c3565b5060208310610133831016604e8410600b84101617156115c7575081810a6107c3565b6115d18383611509565b80600019048211156115e5576115e56112da565b029392505050565b6000610b2c838361154c565b634e487b7160e01b600052601260045260246000fd5b60008261161e5761161e6115f9565b500490565b600082611632576116326115f9565b500690565b600060001982141561164b5761164b6112da565b5060010190565b60008219821115611665576116656112da565b500190565b6000600160ff1b821415611680576116806112da565b506000039056fea2646970667358221220be659cbbb24b686681738ca8ee6f5281bbe0fe1c25014eacad2c520b875012ea64736f6c63430008090033",
  "linkReferences": {},
  "deployedLinkReferences": {}
}