{
  "_format": "hh-sol-artifact-1",
  "contractName": "Governance",
  "sourceName": "contracts/reserve/plugins/governance/Governance.sol",
  "abi": [
    {
      "inputs": [
        {
          "internalType": "contract IStRSRVotes",
          "name": "token_",
          "type": "address"
        },
        {
          "internalType": "contract TimelockController",
          "name": "timelock_",
          "type": "address"
        },
        {
          "internalType": "uint256",
          "name": "votingDelay_",
          "type": "uint256"
        },
        {
          "internalType": "uint256",
          "name": "votingPeriod_",
          "type": "uint256"
        },
        {
          "internalType": "uint256",
          "name": "proposalThresholdAsMicroPercent_",
          "type": "uint256"
        },
        {
          "internalType": "uint256",
          "name": "quorumPercent",
          "type": "uint256"
        }
      ],
      "stateMutability": "nonpayable",
      "type": "constructor"
    },
    {
      "inputs": [],
      "name": "Empty",
      "type": "error"
    },
    {
      "anonymous": false,
      "inputs": [
        {
          "indexed": false,
          "internalType": "uint256",
          "name": "proposalId",
          "type": "uint256"
        }
      ],
      "name": "ProposalCanceled",
      "type": "event"
    },
    {
      "anonymous": false,
      "inputs": [
        {
          "indexed": false,
          "internalType": "uint256",
          "name": "proposalId",
          "type": "uint256"
        },
        {
          "indexed": false,
          "internalType": "address",
          "name": "proposer",
          "type": "address"
        },
        {
          "indexed": false,
          "internalType": "address[]",
          "name": "targets",
          "type": "address[]"
        },
        {
          "indexed": false,
          "internalType": "uint256[]",
          "name": "values",
          "type": "uint256[]"
        },
        {
          "indexed": false,
          "internalType": "string[]",
          "name": "signatures",
          "type": "string[]"
        },
        {
          "indexed": false,
          "internalType": "bytes[]",
          "name": "calldatas",
          "type": "bytes[]"
        },
        {
          "indexed": false,
          "internalType": "uint256",
          "name": "startBlock",
          "type": "uint256"
        },
        {
          "indexed": false,
          "internalType": "uint256",
          "name": "endBlock",
          "type": "uint256"
        },
        {
          "indexed": false,
          "internalType": "string",
          "name": "description",
          "type": "string"
        }
      ],
      "name": "ProposalCreated",
      "type": "event"
    },
    {
      "anonymous": false,
      "inputs": [
        {
          "indexed": false,
          "internalType": "uint256",
          "name": "proposalId",
          "type": "uint256"
        }
      ],
      "name": "ProposalExecuted",
      "type": "event"
    },
    {
      "anonymous": false,
      "inputs": [
        {
          "indexed": false,
          "internalType": "uint256",
          "name": "proposalId",
          "type": "uint256"
        },
        {
          "indexed": false,
          "internalType": "uint256",
          "name": "eta",
          "type": "uint256"
        }
      ],
      "name": "ProposalQueued",
      "type": "event"
    },
    {
      "anonymous": false,
      "inputs": [
        {
          "indexed": false,
          "internalType": "uint256",
          "name": "oldProposalThreshold",
          "type": "uint256"
        },
        {
          "indexed": false,
          "internalType": "uint256",
          "name": "newProposalThreshold",
          "type": "uint256"
        }
      ],
      "name": "ProposalThresholdSet",
      "type": "event"
    },
    {
      "anonymous": false,
      "inputs": [
        {
          "indexed": false,
          "internalType": "uint256",
          "name": "oldQuorumNumerator",
          "type": "uint256"
        },
        {
          "indexed": false,
          "internalType": "uint256",
          "name": "newQuorumNumerator",
          "type": "uint256"
        }
      ],
      "name": "QuorumNumeratorUpdated",
      "type": "event"
    },
    {
      "anonymous": false,
      "inputs": [
        {
          "indexed": false,
          "internalType": "address",
          "name": "oldTimelock",
          "type": "address"
        },
        {
          "indexed": false,
          "internalType": "address",
          "name": "newTimelock",
          "type": "address"
        }
      ],
      "name": "TimelockChange",
      "type": "event"
    },
    {
      "anonymous": false,
      "inputs": [
        {
          "indexed": true,
          "internalType": "address",
          "name": "voter",
          "type": "address"
        },
        {
          "indexed": false,
          "internalType": "uint256",
          "name": "proposalId",
          "type": "uint256"
        },
        {
          "indexed": false,
          "internalType": "uint8",
          "name": "support",
          "type": "uint8"
        },
        {
          "indexed": false,
          "internalType": "uint256",
          "name": "weight",
          "type": "uint256"
        },
        {
          "indexed": false,
          "internalType": "string",
          "name": "reason",
          "type": "string"
        }
      ],
      "name": "VoteCast",
      "type": "event"
    },
    {
      "anonymous": false,
      "inputs": [
        {
          "indexed": true,
          "internalType": "address",
          "name": "voter",
          "type": "address"
        },
        {
          "indexed": false,
          "internalType": "uint256",
          "name": "proposalId",
          "type": "uint256"
        },
        {
          "indexed": false,
          "internalType": "uint8",
          "name": "support",
          "type": "uint8"
        },
        {
          "indexed": false,
          "internalType": "uint256",
          "name": "weight",
          "type": "uint256"
        },
        {
          "indexed": false,
          "internalType": "string",
          "name": "reason",
          "type": "string"
        },
        {
          "indexed": false,
          "internalType": "bytes",
          "name": "params",
          "type": "bytes"
        }
      ],
      "name": "VoteCastWithParams",
      "type": "event"
    },
    {
      "anonymous": false,
      "inputs": [
        {
          "indexed": false,
          "internalType": "uint256",
          "name": "oldVotingDelay",
          "type": "uint256"
        },
        {
          "indexed": false,
          "internalType": "uint256",
          "name": "newVotingDelay",
          "type": "uint256"
        }
      ],
      "name": "VotingDelaySet",
      "type": "event"
    },
    {
      "anonymous": false,
      "inputs": [
        {
          "indexed": false,
          "internalType": "uint256",
          "name": "oldVotingPeriod",
          "type": "uint256"
        },
        {
          "indexed": false,
          "internalType": "uint256",
          "name": "newVotingPeriod",
          "type": "uint256"
        }
      ],
      "name": "VotingPeriodSet",
      "type": "event"
    },
    {
      "inputs": [],
      "name": "BALLOT_TYPEHASH",
      "outputs": [
        {
          "internalType": "bytes32",
          "name": "",
          "type": "bytes32"
        }
      ],
      "stateMutability": "view",
      "type": "function"
    },
    {
      "inputs": [],
      "name": "COUNTING_MODE",
      "outputs": [
        {
          "internalType": "string",
          "name": "",
          "type": "string"
        }
      ],
      "stateMutability": "pure",
      "type": "function"
    },
    {
      "inputs": [],
      "name": "EXTENDED_BALLOT_TYPEHASH",
      "outputs": [
        {
          "internalType": "bytes32",
          "name": "",
          "type": "bytes32"
        }
      ],
      "stateMutability": "view",
      "type": "function"
    },
    {
      "inputs": [
        {
          "internalType": "address[]",
          "name": "targets",
          "type": "address[]"
        },
        {
          "internalType": "uint256[]",
          "name": "values",
          "type": "uint256[]"
        },
        {
          "internalType": "bytes[]",
          "name": "calldatas",
          "type": "bytes[]"
        },
        {
          "internalType": "bytes32",
          "name": "descriptionHash",
          "type": "bytes32"
        }
      ],
      "name": "cancel",
      "outputs": [],
      "stateMutability": "nonpayable",
      "type": "function"
    },
    {
      "inputs": [
        {
          "internalType": "uint256",
          "name": "proposalId",
          "type": "uint256"
        },
        {
          "internalType": "uint8",
          "name": "support",
          "type": "uint8"
        }
      ],
      "name": "castVote",
      "outputs": [
        {
          "internalType": "uint256",
          "name": "",
          "type": "uint256"
        }
      ],
      "stateMutability": "nonpayable",
      "type": "function"
    },
    {
      "inputs": [
        {
          "internalType": "uint256",
          "name": "proposalId",
          "type": "uint256"
        },
        {
          "internalType": "uint8",
          "name": "support",
          "type": "uint8"
        },
        {
          "internalType": "uint8",
          "name": "v",
          "type": "uint8"
        },
        {
          "internalType": "bytes32",
          "name": "r",
          "type": "bytes32"
        },
        {
          "internalType": "bytes32",
          "name": "s",
          "type": "bytes32"
        }
      ],
      "name": "castVoteBySig",
      "outputs": [
        {
          "internalType": "uint256",
          "name": "",
          "type": "uint256"
        }
      ],
      "stateMutability": "nonpayable",
      "type": "function"
    },
    {
      "inputs": [
        {
          "internalType": "uint256",
          "name": "proposalId",
          "type": "uint256"
        },
        {
          "internalType": "uint8",
          "name": "support",
          "type": "uint8"
        },
        {
          "internalType": "string",
          "name": "reason",
          "type": "string"
        }
      ],
      "name": "castVoteWithReason",
      "outputs": [
        {
          "internalType": "uint256",
          "name": "",
          "type": "uint256"
        }
      ],
      "stateMutability": "nonpayable",
      "type": "function"
    },
    {
      "inputs": [
        {
          "internalType": "uint256",
          "name": "proposalId",
          "type": "uint256"
        },
        {
          "internalType": "uint8",
          "name": "support",
          "type": "uint8"
        },
        {
          "internalType": "string",
          "name": "reason",
          "type": "string"
        },
        {
          "internalType": "bytes",
          "name": "params",
          "type": "bytes"
        }
      ],
      "name": "castVoteWithReasonAndParams",
      "outputs": [
        {
          "internalType": "uint256",
          "name": "",
          "type": "uint256"
        }
      ],
      "stateMutability": "nonpayable",
      "type": "function"
    },
    {
      "inputs": [
        {
          "internalType": "uint256",
          "name": "proposalId",
          "type": "uint256"
        },
        {
          "internalType": "uint8",
          "name": "support",
          "type": "uint8"
        },
        {
          "internalType": "string",
          "name": "reason",
          "type": "string"
        },
        {
          "internalType": "bytes",
          "name": "params",
          "type": "bytes"
        },
        {
          "internalType": "uint8",
          "name": "v",
          "type": "uint8"
        },
        {
          "internalType": "bytes32",
          "name": "r",
          "type": "bytes32"
        },
        {
          "internalType": "bytes32",
          "name": "s",
          "type": "bytes32"
        }
      ],
      "name": "castVoteWithReasonAndParamsBySig",
      "outputs": [
        {
          "internalType": "uint256",
          "name": "",
          "type": "uint256"
        }
      ],
      "stateMutability": "nonpayable",
      "type": "function"
    },
    {
      "inputs": [
        {
          "internalType": "address[]",
          "name": "targets",
          "type": "address[]"
        },
        {
          "internalType": "uint256[]",
          "name": "values",
          "type": "uint256[]"
        },
        {
          "internalType": "bytes[]",
          "name": "calldatas",
          "type": "bytes[]"
        },
        {
          "internalType": "bytes32",
          "name": "descriptionHash",
          "type": "bytes32"
        }
      ],
      "name": "execute",
      "outputs": [
        {
          "internalType": "uint256",
          "name": "",
          "type": "uint256"
        }
      ],
      "stateMutability": "payable",
      "type": "function"
    },
    {
      "inputs": [
        {
          "internalType": "address",
          "name": "account",
          "type": "address"
        },
        {
          "internalType": "uint256",
          "name": "blockNumber",
          "type": "uint256"
        }
      ],
      "name": "getVotes",
      "outputs": [
        {
          "internalType": "uint256",
          "name": "",
          "type": "uint256"
        }
      ],
      "stateMutability": "view",
      "type": "function"
    },
    {
      "inputs": [
        {
          "internalType": "address",
          "name": "account",
          "type": "address"
        },
        {
          "internalType": "uint256",
          "name": "blockNumber",
          "type": "uint256"
        },
        {
          "internalType": "bytes",
          "name": "params",
          "type": "bytes"
        }
      ],
      "name": "getVotesWithParams",
      "outputs": [
        {
          "internalType": "uint256",
          "name": "",
          "type": "uint256"
        }
      ],
      "stateMutability": "view",
      "type": "function"
    },
    {
      "inputs": [
        {
          "internalType": "uint256",
          "name": "proposalId",
          "type": "uint256"
        },
        {
          "internalType": "address",
          "name": "account",
          "type": "address"
        }
      ],
      "name": "hasVoted",
      "outputs": [
        {
          "internalType": "bool",
          "name": "",
          "type": "bool"
        }
      ],
      "stateMutability": "view",
      "type": "function"
    },
    {
      "inputs": [
        {
          "internalType": "address[]",
          "name": "targets",
          "type": "address[]"
        },
        {
          "internalType": "uint256[]",
          "name": "values",
          "type": "uint256[]"
        },
        {
          "internalType": "bytes[]",
          "name": "calldatas",
          "type": "bytes[]"
        },
        {
          "internalType": "bytes32",
          "name": "descriptionHash",
          "type": "bytes32"
        }
      ],
      "name": "hashProposal",
      "outputs": [
        {
          "internalType": "uint256",
          "name": "",
          "type": "uint256"
        }
      ],
      "stateMutability": "pure",
      "type": "function"
    },
    {
      "inputs": [],
      "name": "name",
      "outputs": [
        {
          "internalType": "string",
          "name": "",
          "type": "string"
        }
      ],
      "stateMutability": "view",
      "type": "function"
    },
    {
      "inputs": [
        {
          "internalType": "address",
          "name": "",
          "type": "address"
        },
        {
          "internalType": "address",
          "name": "",
          "type": "address"
        },
        {
          "internalType": "uint256[]",
          "name": "",
          "type": "uint256[]"
        },
        {
          "internalType": "uint256[]",
          "name": "",
          "type": "uint256[]"
        },
        {
          "internalType": "bytes",
          "name": "",
          "type": "bytes"
        }
      ],
      "name": "onERC1155BatchReceived",
      "outputs": [
        {
          "internalType": "bytes4",
          "name": "",
          "type": "bytes4"
        }
      ],
      "stateMutability": "nonpayable",
      "type": "function"
    },
    {
      "inputs": [
        {
          "internalType": "address",
          "name": "",
          "type": "address"
        },
        {
          "internalType": "address",
          "name": "",
          "type": "address"
        },
        {
          "internalType": "uint256",
          "name": "",
          "type": "uint256"
        },
        {
          "internalType": "uint256",
          "name": "",
          "type": "uint256"
        },
        {
          "internalType": "bytes",
          "name": "",
          "type": "bytes"
        }
      ],
      "name": "onERC1155Received",
      "outputs": [
        {
          "internalType": "bytes4",
          "name": "",
          "type": "bytes4"
        }
      ],
      "stateMutability": "nonpayable",
      "type": "function"
    },
    {
      "inputs": [
        {
          "internalType": "address",
          "name": "",
          "type": "address"
        },
        {
          "internalType": "address",
          "name": "",
          "type": "address"
        },
        {
          "internalType": "uint256",
          "name": "",
          "type": "uint256"
        },
        {
          "internalType": "bytes",
          "name": "",
          "type": "bytes"
        }
      ],
      "name": "onERC721Received",
      "outputs": [
        {
          "internalType": "bytes4",
          "name": "",
          "type": "bytes4"
        }
      ],
      "stateMutability": "nonpayable",
      "type": "function"
    },
    {
      "inputs": [
        {
          "internalType": "uint256",
          "name": "proposalId",
          "type": "uint256"
        }
      ],
      "name": "proposalDeadline",
      "outputs": [
        {
          "internalType": "uint256",
          "name": "",
          "type": "uint256"
        }
      ],
      "stateMutability": "view",
      "type": "function"
    },
    {
      "inputs": [
        {
          "internalType": "uint256",
          "name": "proposalId",
          "type": "uint256"
        }
      ],
      "name": "proposalEta",
      "outputs": [
        {
          "internalType": "uint256",
          "name": "",
          "type": "uint256"
        }
      ],
      "stateMutability": "view",
      "type": "function"
    },
    {
      "inputs": [
        {
          "internalType": "uint256",
          "name": "proposalId",
          "type": "uint256"
        }
      ],
      "name": "proposalSnapshot",
      "outputs": [
        {
          "internalType": "uint256",
          "name": "",
          "type": "uint256"
        }
      ],
      "stateMutability": "view",
      "type": "function"
    },
    {
      "inputs": [],
      "name": "proposalThreshold",
      "outputs": [
        {
          "internalType": "uint256",
          "name": "",
          "type": "uint256"
        }
      ],
      "stateMutability": "view",
      "type": "function"
    },
    {
      "inputs": [
        {
          "internalType": "uint256",
          "name": "proposalId",
          "type": "uint256"
        }
      ],
      "name": "proposalVotes",
      "outputs": [
        {
          "internalType": "uint256",
          "name": "againstVotes",
          "type": "uint256"
        },
        {
          "internalType": "uint256",
          "name": "forVotes",
          "type": "uint256"
        },
        {
          "internalType": "uint256",
          "name": "abstainVotes",
          "type": "uint256"
        }
      ],
      "stateMutability": "view",
      "type": "function"
    },
    {
      "inputs": [
        {
          "internalType": "address[]",
          "name": "targets",
          "type": "address[]"
        },
        {
          "internalType": "uint256[]",
          "name": "values",
          "type": "uint256[]"
        },
        {
          "internalType": "bytes[]",
          "name": "calldatas",
          "type": "bytes[]"
        },
        {
          "internalType": "string",
          "name": "description",
          "type": "string"
        }
      ],
      "name": "propose",
      "outputs": [
        {
          "internalType": "uint256",
          "name": "proposalId",
          "type": "uint256"
        }
      ],
      "stateMutability": "nonpayable",
      "type": "function"
    },
    {
      "inputs": [
        {
          "internalType": "address[]",
          "name": "targets",
          "type": "address[]"
        },
        {
          "internalType": "uint256[]",
          "name": "values",
          "type": "uint256[]"
        },
        {
          "internalType": "bytes[]",
          "name": "calldatas",
          "type": "bytes[]"
        },
        {
          "internalType": "bytes32",
          "name": "descriptionHash",
          "type": "bytes32"
        }
      ],
      "name": "queue",
      "outputs": [
        {
          "internalType": "uint256",
          "name": "proposalId",
          "type": "uint256"
        }
      ],
      "stateMutability": "nonpayable",
      "type": "function"
    },
    {
      "inputs": [
        {
          "internalType": "uint256",
          "name": "",
          "type": "uint256"
        }
      ],
      "name": "quorum",
      "outputs": [
        {
          "internalType": "uint256",
          "name": "",
          "type": "uint256"
        }
      ],
      "stateMutability": "view",
      "type": "function"
    },
    {
      "inputs": [],
      "name": "quorumDenominator",
      "outputs": [
        {
          "internalType": "uint256",
          "name": "",
          "type": "uint256"
        }
      ],
      "stateMutability": "view",
      "type": "function"
    },
    {
      "inputs": [
        {
          "internalType": "uint256",
          "name": "blockNumber",
          "type": "uint256"
        }
      ],
      "name": "quorumNumerator",
      "outputs": [
        {
          "internalType": "uint256",
          "name": "",
          "type": "uint256"
        }
      ],
      "stateMutability": "view",
      "type": "function"
    },
    {
      "inputs": [],
      "name": "quorumNumerator",
      "outputs": [
        {
          "internalType": "uint256",
          "name": "",
          "type": "uint256"
        }
      ],
      "stateMutability": "view",
      "type": "function"
    },
    {
      "inputs": [
        {
          "internalType": "address",
          "name": "target",
          "type": "address"
        },
        {
          "internalType": "uint256",
          "name": "value",
          "type": "uint256"
        },
        {
          "internalType": "bytes",
          "name": "data",
          "type": "bytes"
        }
      ],
      "name": "relay",
      "outputs": [],
      "stateMutability": "payable",
      "type": "function"
    },
    {
      "inputs": [
        {
          "internalType": "uint256",
          "name": "newProposalThreshold",
          "type": "uint256"
        }
      ],
      "name": "setProposalThreshold",
      "outputs": [],
      "stateMutability": "nonpayable",
      "type": "function"
    },
    {
      "inputs": [
        {
          "internalType": "uint256",
          "name": "newVotingDelay",
          "type": "uint256"
        }
      ],
      "name": "setVotingDelay",
      "outputs": [],
      "stateMutability": "nonpayable",
      "type": "function"
    },
    {
      "inputs": [
        {
          "internalType": "uint256",
          "name": "newVotingPeriod",
          "type": "uint256"
        }
      ],
      "name": "setVotingPeriod",
      "outputs": [],
      "stateMutability": "nonpayable",
      "type": "function"
    },
    {
      "inputs": [
        {
          "internalType": "uint256",
          "name": "proposalId",
          "type": "uint256"
        }
      ],
      "name": "state",
      "outputs": [
        {
          "internalType": "enum IGovernor.ProposalState",
          "name": "",
          "type": "uint8"
        }
      ],
      "stateMutability": "view",
      "type": "function"
    },
    {
      "inputs": [
        {
          "internalType": "bytes4",
          "name": "interfaceId",
          "type": "bytes4"
        }
      ],
      "name": "supportsInterface",
      "outputs": [
        {
          "internalType": "bool",
          "name": "",
          "type": "bool"
        }
      ],
      "stateMutability": "view",
      "type": "function"
    },
    {
      "inputs": [],
      "name": "timelock",
      "outputs": [
        {
          "internalType": "address",
          "name": "",
          "type": "address"
        }
      ],
      "stateMutability": "view",
      "type": "function"
    },
    {
      "inputs": [],
      "name": "token",
      "outputs": [
        {
          "internalType": "contract IVotes",
          "name": "",
          "type": "address"
        }
      ],
      "stateMutability": "view",
      "type": "function"
    },
    {
      "inputs": [
        {
          "internalType": "uint256",
          "name": "newQuorumNumerator",
          "type": "uint256"
        }
      ],
      "name": "updateQuorumNumerator",
      "outputs": [],
      "stateMutability": "nonpayable",
      "type": "function"
    },
    {
      "inputs": [
        {
          "internalType": "contract TimelockController",
          "name": "newTimelock",
          "type": "address"
        }
      ],
      "name": "updateTimelock",
      "outputs": [],
      "stateMutability": "nonpayable",
      "type": "function"
    },
    {
      "inputs": [],
      "name": "version",
      "outputs": [
        {
          "internalType": "string",
          "name": "",
          "type": "string"
        }
      ],
      "stateMutability": "view",
      "type": "function"
    },
    {
      "inputs": [],
      "name": "votingDelay",
      "outputs": [
        {
          "internalType": "uint256",
          "name": "",
          "type": "uint256"
        }
      ],
      "stateMutability": "view",
      "type": "function"
    },
    {
      "inputs": [],
      "name": "votingPeriod",
      "outputs": [
        {
          "internalType": "uint256",
          "name": "",
          "type": "uint256"
        }
      ],
      "stateMutability": "view",
      "type": "function"
    },
    {
      "stateMutability": "payable",
      "type": "receive"
    }
  ],
  "bytecode": "0x6101606040523480156200001257600080fd5b50604051620049a9380380620049a98339810160408190526200003591620008b6565b8481878686866040518060400160405280601081526020016f476f7665726e6f7220416c6578696f7360801b81525080620000756200017360201b60201c565b815160208084019190912082518383012060e08290526101008190524660a0818152604080517f8b73c3c69bb8fe3d512ecc4cf759cc79239f7b179b0ffacaa9a75d522b39400f81880181905281830187905260608201869052608082019490945230818401528151808203909301835260c00190528051940193909320919290916080523060c05261012052505082516200011b925060009150602084019062000801565b50620001299050836200018e565b6200013482620001cf565b6200013f8162000276565b5050506001600160a01b0316610140526200015a81620002b7565b5062000166816200042f565b505050505050506200097c565b6040805180820190915260018152603160f81b602082015290565b60045460408051918252602082018390527fc565b045403dc03c2eea82b81a0465edad9e2e7fc4d97e11421c209da93d7a93910160405180910390a1600455565b60008111620002355760405162461bcd60e51b815260206004820152602760248201527f476f7665726e6f7253657474696e67733a20766f74696e6720706572696f6420604482015266746f6f206c6f7760c81b60648201526084015b60405180910390fd5b60055460408051918252602082018390527f7e3f7f0708a84de9203036abaa450dccc85ad5ff52f78c170f3edb55cf5e8828910160405180910390a1600555565b60065460408051918252602082018390527fccb45da8d5717e6c4544694297c4ba5cf151d455c9bb0ed4fc7a38411bc05461910160405180910390a1600655565b60648111156200033c5760405162461bcd60e51b815260206004820152604360248201527f476f7665726e6f72566f74657351756f72756d4672616374696f6e3a2071756f60448201527f72756d4e756d657261746f72206f7665722071756f72756d44656e6f6d696e616064820152623a37b960e91b608482015260a4016200022c565b60006200034862000498565b905080158015906200035a5750600954155b15620003d55760096000016040518060400160405280600063ffffffff1681526020016200039384620004d060201b620013ad1760201c565b6001600160e01b0390811690915282546001810184556000938452602093849020835194909301519091166401000000000263ffffffff909316929092179101555b620003f08260096200053f60201b6200141a1790919060201c565b505060408051828152602081018490527f0553476bf02ef2726e8ce5ced78d63e26e602e4a2257b1f559418e24b4633997910160405180910390a15050565b600a54604080516001600160a01b03928316815291831660208301527f08f74ea46ef7894f65eabfb5e6e695de773a000b47c529ab559178069b226401910160405180910390a1600a80546001600160a01b0319166001600160a01b0392909216919091179055565b60095460009015620004c957620004bb60096200059260201b620014501760201c565b6001600160e01b0316905090565b5060085490565b60006001600160e01b038211156200053b5760405162461bcd60e51b815260206004820152602760248201527f53616665436173743a2076616c756520646f65736e27742066697420696e20326044820152663234206269747360c81b60648201526084016200022c565b5090565b6000806200057c846000016200056043620005e060201b6200148e1760201c565b6200057686620004d060201b620013ad1760201c565b62000647565b6001600160e01b03918216969116945092505050565b80546000908015620005d657620005be83620005b060018462000919565b600091825260209091200190565b5464010000000090046001600160e01b0316620005d9565b60005b9392505050565b600063ffffffff8211156200053b5760405162461bcd60e51b815260206004820152602660248201527f53616665436173743a2076616c756520646f65736e27742066697420696e203360448201526532206269747360d01b60648201526084016200022c565b825460009081908015620007a35760006200066987620005b060018562000919565b60408051808201909152905463ffffffff8082168084526401000000009092046001600160e01b031660208401529192509087161015620006ed5760405162461bcd60e51b815260206004820152601760248201527f436865636b706f696e743a20696e76616c6964206b657900000000000000000060448201526064016200022c565b8563ffffffff16816000015163ffffffff1614156200074257846200071988620005b060018662000919565b80546001600160e01b03929092166401000000000263ffffffff90921691909117905562000792565b6040805180820190915263ffffffff80881682526001600160e01b0380881660208085019182528b54600181018d5560008d81529190912094519151909216640100000000029216919091179101555b602001519250839150620007f99050565b50506040805180820190915263ffffffff80851682526001600160e01b0380851660208085019182528854600181018a5560008a8152918220955192519093166401000000000291909316179201919091559050815b935093915050565b8280546200080f906200093f565b90600052602060002090601f0160209004810192826200083357600085556200087e565b82601f106200084e57805160ff19168380011785556200087e565b828001600101855582156200087e579182015b828111156200087e57825182559160200191906001019062000861565b506200053b9291505b808211156200053b576000815560010162000887565b6001600160a01b0381168114620008b357600080fd5b50565b60008060008060008060c08789031215620008d057600080fd5b8651620008dd816200089d565b6020880151909650620008f0816200089d565b6040880151606089015160808a015160a0909a0151989b929a5090989097909650945092505050565b6000828210156200093a57634e487b7160e01b600052601160045260246000fd5b500390565b600181811c908216806200095457607f821691505b602082108114156200097657634e487b7160e01b600052602260045260246000fd5b50919050565b60805160a05160c05160e051610100516101205161014051613fb6620009f36000396000818161088901528181611b0001528181611b80015281816122bc015261235a01526000612802015260006128510152600061282c01526000612785015260006127af015260006127d90152613fb66000f3fe6080604052600436106102555760003560e01c80637b3c71d311610139578063c28bc2fa116100b6578063ea0217cf1161007a578063ea0217cf146107cb578063eb9019d4146107eb578063ece40cc11461080b578063f23a6e611461082b578063f8ce560a14610857578063fc0c546a1461087757600080fd5b8063c28bc2fa146106ec578063c59057e4146106ff578063d33219b41461071f578063dd4e2ba514610751578063deaaa7cc1461079757600080fd5b8063a890c910116100fd578063a890c9101461064b578063ab58fb8e1461066b578063b58131b01461068b578063bc197c81146106a0578063c01f9e37146106cc57600080fd5b80637b3c71d3146105c25780637d5e81e2146105e257806397c3d334146106025780639a802a6d14610616578063a7713a701461063657600080fd5b80633932abb1116101d2578063544ffc9c11610196578063544ffc9c146104c357806354fd4d501461051857806356781388146105425780635f398a141461056257806360c4247f1461058257806370b0f660146105a257600080fd5b80633932abb1146103f75780633bccf4fd1461040c5780633e4f49e61461042c5780634385963214610459578063452115d6146104a357600080fd5b8063150b7a0211610219578063150b7a0214610337578063160cbed7146103705780632656227d146103905780632d63f693146103a35780632fe3e261146103c357600080fd5b806301ffc9a71461027d57806302a251a3146102b257806303420181146102d557806306f3f9e6146102f557806306fdde031461031557600080fd5b3661027857306102636108ab565b6001600160a01b03161461027657600080fd5b005b600080fd5b34801561028957600080fd5b5061029d6102983660046130ec565b6108c4565b60405190151581526020015b60405180910390f35b3480156102be57600080fd5b506102c76108d5565b6040519081526020016102a9565b3480156102e157600080fd5b506102c76102f036600461322a565b6108e0565b34801561030157600080fd5b506102766103103660046132d0565b6109d8565b34801561032157600080fd5b5061032a610a70565b6040516102a99190613336565b34801561034357600080fd5b5061035761035236600461335e565b610b02565b6040516001600160e01b031990911681526020016102a9565b34801561037c57600080fd5b506102c761038b36600461353a565b610b13565b6102c761039e36600461353a565b610b62565b3480156103af57600080fd5b506102c76103be3660046132d0565b610c4f565b3480156103cf57600080fd5b506102c77fb3b3f3b703cd84ce352197dcff232b1b5d3cfb2025ce47cf04742d0651f1af8881565b34801561040357600080fd5b506102c7610c86565b34801561041857600080fd5b506102c76104273660046135c9565b610c91565b34801561043857600080fd5b5061044c6104473660046132d0565b610d07565b6040516102a9919061362d565b34801561046557600080fd5b5061029d610474366004613655565b60008281526007602090815260408083206001600160a01b038516845260030190915290205460ff1692915050565b3480156104af57600080fd5b506102766104be36600461353a565b610d12565b3480156104cf57600080fd5b506104fd6104de3660046132d0565b6000908152600760205260409020805460018201546002909201549092565b604080519384526020840192909252908201526060016102a9565b34801561052457600080fd5b506040805180820190915260018152603160f81b602082015261032a565b34801561054e57600080fd5b506102c761055d366004613685565b610d6a565b34801561056e57600080fd5b506102c761057d3660046136b1565b610d8b565b34801561058e57600080fd5b506102c761059d3660046132d0565b610dd5565b3480156105ae57600080fd5b506102766105bd3660046132d0565b610e6a565b3480156105ce57600080fd5b506102c76105dd366004613734565b610ef6565b3480156105ee57600080fd5b506102c76105fd36600461378d565b610f48565b34801561060e57600080fd5b5060646102c7565b34801561062257600080fd5b506102c7610631366004613841565b610f5f565b34801561064257600080fd5b506102c7610f76565b34801561065757600080fd5b50610276610666366004613899565b610fa0565b34801561067757600080fd5b506102c76106863660046132d0565b61102c565b34801561069757600080fd5b506102c76110d5565b3480156106ac57600080fd5b506103576106bb3660046138b6565b63bc197c8160e01b95945050505050565b3480156106d857600080fd5b506102c76106e73660046132d0565b6110e0565b6102766106fa366004613949565b61110f565b34801561070b57600080fd5b506102c761071a36600461353a565b611223565b34801561072b57600080fd5b50600a546001600160a01b03165b6040516001600160a01b0390911681526020016102a9565b34801561075d57600080fd5b506040805180820190915260208082527f737570706f72743d627261766f2671756f72756d3d666f722c6162737461696e9082015261032a565b3480156107a357600080fd5b506102c77f150214d74d59b7d1e90c73fc22ef3d991dd0a76b046543d4d80ab92d2a50328f81565b3480156107d757600080fd5b506102766107e63660046132d0565b61125d565b3480156107f757600080fd5b506102c761080636600461398c565b6112e9565b34801561081757600080fd5b506102766108263660046132d0565b61130a565b34801561083757600080fd5b506103576108463660046139b8565b63f23a6e6160e01b95945050505050565b34801561086357600080fd5b506102c76108723660046132d0565b611396565b34801561088357600080fd5b506107397f000000000000000000000000000000000000000000000000000000000000000081565b60006108bf600a546001600160a01b031690565b905090565b60006108cf826114f3565b92915050565b60006108bf60055490565b60008061098461097c7fb3b3f3b703cd84ce352197dcff232b1b5d3cfb2025ce47cf04742d0651f1af888c8c8c8c60405161091c929190613a20565b60405180910390208b80519060200120604051602001610961959493929190948552602085019390935260ff9190911660408401526060830152608082015260a00190565b60405160208183030381529060405280519060200120611518565b868686611566565b90506109ca8a828b8b8b8080601f0160208091040260200160405190810160405280939291908181526020018383808284376000920191909152508d9250611584915050565b9a9950505050505050505050565b6109e06108ab565b6001600160a01b0316336001600160a01b031614610a195760405162461bcd60e51b8152600401610a1090613a30565b60405180910390fd5b30610a226108ab565b6001600160a01b031614610a645760008036604051610a42929190613a20565b604051809103902090505b80610a5860026116e6565b14610a6257610a4d565b505b610a6d81611765565b50565b606060008054610a7f90613a67565b80601f0160208091040260200160405190810160405280929190818152602001828054610aab90613a67565b8015610af85780601f10610acd57610100808354040283529160200191610af8565b820191906000526020600020905b815481529060010190602001808311610adb57829003601f168201915b5050505050905090565b630a85bd0160e11b5b949350505050565b6000610b21858585856118b1565b9050610b2c81611ad0565b610b0b5760405162461bcd60e51b81526020600482015260076024820152666e65772065726160c81b6044820152606401610a10565b600080610b7186868686611223565b90506000610b7e82610d07565b90506004816007811115610b9457610b94613617565b1480610bb157506005816007811115610baf57610baf613617565b145b610bcd5760405162461bcd60e51b8152600401610a1090613aa2565b600082815260016020818152604092839020600201805460ff191690921790915590518381527f712ae1383f79ac853f8d882153778e0260ef8f03b504e2866e0593e04d2b291f910160405180910390a1610c2b8288888888611c1b565b610c388288888888611cbd565b610c458288888888611d09565b5095945050505050565b60008181526001602090815260408083208151928301909152546001600160401b0316908190525b6001600160401b031692915050565b60006108bf60045490565b604080517f150214d74d59b7d1e90c73fc22ef3d991dd0a76b046543d4d80ab92d2a50328f602082015290810186905260ff851660608201526000908190610cdf9061097c90608001610961565b9050610cfc87828860405180602001604052806000815250611d42565b979650505050505050565b60006108cf82611d65565b6000610d2085858585611ecd565b9050610d2b81611ad0565b15610d635760405162461bcd60e51b815260206004820152600860248201526773616d652065726160c01b6044820152606401610a10565b5050505050565b600080339050610b0b84828560405180602001604052806000815250611d42565b600080339050610cfc87828888888080601f0160208091040260200160405190810160405280939291908181526020018383808284376000920191909152508a9250611584915050565b60095460009080610dea575050600854919050565b60006009610df9600184613af9565b81548110610e0957610e09613b10565b60009182526020918290206040805180820190915291015463ffffffff8116808352600160201b9091046001600160e01b03169282019290925291508410610e5f57602001516001600160e01b03169392505050565b610b0b600985611edb565b610e726108ab565b6001600160a01b0316336001600160a01b031614610ea25760405162461bcd60e51b8152600401610a1090613a30565b30610eab6108ab565b6001600160a01b031614610eed5760008036604051610ecb929190613a20565b604051809103902090505b80610ee160026116e6565b14610eeb57610ed6565b505b610a6d81611f8d565b600080339050610f3e86828787878080601f016020809104026020016040519081016040528093929190818152602001838380828437600092019190915250611d4292505050565b9695505050505050565b6000610f5685858585611fce565b95945050505050565b6000610f6c848484612291565b90505b9392505050565b60095460009015610f9957610f8b6009611450565b6001600160e01b0316905090565b5060085490565b610fa86108ab565b6001600160a01b0316336001600160a01b031614610fd85760405162461bcd60e51b8152600401610a1090613a30565b30610fe16108ab565b6001600160a01b0316146110235760008036604051611001929190613a20565b604051809103902090505b8061101760026116e6565b146110215761100c565b505b610a6d816123ff565b600a546000828152600b602052604080822054905163d45c443560e01b81526004810191909152909182916001600160a01b039091169063d45c44359060240160206040518083038186803b15801561108457600080fd5b505afa158015611098573d6000803e3d6000fd5b505050506040513d601f19601f820116820180604052508101906110bc9190613b26565b9050806001146110cc5780610f6f565b60009392505050565b60006108bf60065490565b60008181526001602081815260408084208151928301909152909101546001600160401b031690819052610c77565b6111176108ab565b6001600160a01b0316336001600160a01b0316146111475760405162461bcd60e51b8152600401610a1090613a30565b306111506108ab565b6001600160a01b0316146111925760008036604051611170929190613a20565b604051809103902090505b8061118660026116e6565b146111905761117b565b505b600080856001600160a01b03168585856040516111b0929190613a20565b60006040518083038185875af1925050503d80600081146111ed576040519150601f19603f3d011682016040523d82523d6000602084013e6111f2565b606091505b509150915061121a8282604051806060016040528060288152602001613f5960289139612468565b50505050505050565b60008484848460405160200161123c9493929190613c08565b60408051601f19818403018152919052805160209091012095945050505050565b6112656108ab565b6001600160a01b0316336001600160a01b0316146112955760405162461bcd60e51b8152600401610a1090613a30565b3061129e6108ab565b6001600160a01b0316146112e057600080366040516112be929190613a20565b604051809103902090505b806112d460026116e6565b146112de576112c9565b505b610a6d81612481565b6000610f6f838361130560408051602081019091526000815290565b612291565b6113126108ab565b6001600160a01b0316336001600160a01b0316146113425760405162461bcd60e51b8152600401610a1090613a30565b3061134b6108ab565b6001600160a01b03161461138d576000803660405161136b929190613a20565b604051809103902090505b8061138160026116e6565b1461138b57611376565b505b610a6d81612522565b60006113a0610f76565b6108cf90620f4240613c53565b60006001600160e01b038211156114165760405162461bcd60e51b815260206004820152602760248201527f53616665436173743a2076616c756520646f65736e27742066697420696e20326044820152663234206269747360c81b6064820152608401610a10565b5090565b6000806114388461142a4361148e565b611433866113ad565b612563565b6001600160e01b0391821693501690505b9250929050565b805460009080156110cc576114788361146a600184613af9565b600091825260209091200190565b54600160201b90046001600160e01b0316610f6f565b600063ffffffff8211156114165760405162461bcd60e51b815260206004820152602660248201527f53616665436173743a2076616c756520646f65736e27742066697420696e203360448201526532206269747360d01b6064820152608401610a10565b60006001600160e01b03198216636e665ced60e01b14806108cf57506108cf8261270d565b60006108cf611525612778565b8360405161190160f01b6020820152602281018390526042810182905260009060620160405160208183030381529060405280519060200120905092915050565b60008060006115778787878761289f565b91509150610c4581612963565b600085815260016020819052604082209061159e88610d07565b60078111156115af576115af613617565b146116085760405162461bcd60e51b815260206004820152602360248201527f476f7665726e6f723a20766f7465206e6f742063757272656e746c792061637460448201526269766560e81b6064820152608401610a10565b604080516020810190915281546001600160401b03169081905260009061163190889086612291565b90506116408888888488612ab1565b835161169257866001600160a01b03167fb8e138887d0aa13bab447e82de9d5c1777041ecd21ca36ba824ff1e6c07ddda4898884896040516116859493929190613c72565b60405180910390a2610cfc565b866001600160a01b03167fe2babfbac5889a709b63bb7f598b324e08bc5a4fb9ec647fb3cbc9ec07eb871289888489896040516116d3959493929190613c9a565b60405180910390a2979650505050505050565b60006117018254600f81810b600160801b909204900b131590565b1561171f57604051631ed9509560e11b815260040160405180910390fd5b508054600f0b6000818152600180840160205260408220805492905583546fffffffffffffffffffffffffffffffff191692016001600160801b03169190911790915590565b60648111156117e85760405162461bcd60e51b815260206004820152604360248201527f476f7665726e6f72566f74657351756f72756d4672616374696f6e3a2071756f60448201527f72756d4e756d657261746f72206f7665722071756f72756d44656e6f6d696e616064820152623a37b960e91b608482015260a401610a10565b60006117f2610f76565b905080158015906118035750600954155b1561186757604080518082019091526000815260099060208101611826846113ad565b6001600160e01b039081169091528254600181018455600093845260209384902083519490930151909116600160201b0263ffffffff909316929092179101555b61187260098361141a565b505060408051828152602081018490527f0553476bf02ef2726e8ce5ced78d63e26e602e4a2257b1f559418e24b4633997910160405180910390a15050565b6000806118c086868686611223565b905060046118cd82610d07565b60078111156118de576118de613617565b146118fb5760405162461bcd60e51b8152600401610a1090613aa2565b600a546040805163793d064960e11b815290516000926001600160a01b03169163f27a0c92916004808301926020929190829003018186803b15801561194057600080fd5b505afa158015611954573d6000803e3d6000fd5b505050506040513d601f19601f820116820180604052508101906119789190613b26565b600a5460405163b1c5f42760e01b81529192506001600160a01b03169063b1c5f427906119b2908a908a908a906000908b90600401613ce0565b60206040518083038186803b1580156119ca57600080fd5b505afa1580156119de573d6000803e3d6000fd5b505050506040513d601f19601f82011682018060405250810190611a029190613b26565b6000838152600b602052604080822092909255600a5491516308f2a0bb60e41b81526001600160a01b0390921691638f2a0bb091611a4d918b918b918b91908b908990600401613d2e565b600060405180830381600087803b158015611a6757600080fd5b505af1158015611a7b573d6000803e3d6000fd5b505050507f9a2e42fd6722813d69113e7d0079d3d940171428df7373df9c7f7617cfda2892828242611aad9190613d86565b604080519283526020830191909152015b60405180910390a15095945050505050565b600080611adc83610c4f565b60405163a4ba1f4d60e01b8152600481018290529091506000906001600160a01b037f0000000000000000000000000000000000000000000000000000000000000000169063a4ba1f4d9060240160206040518083038186803b158015611b4257600080fd5b505afa158015611b56573d6000803e3d6000fd5b505050506040513d601f19601f82011682018060405250810190611b7a9190613b26565b905060007f00000000000000000000000000000000000000000000000000000000000000006001600160a01b031663973628f66040518163ffffffff1660e01b815260040160206040518083038186803b158015611bd757600080fd5b505afa158015611beb573d6000803e3d6000fd5b505050506040513d601f19601f82011682018060405250810190611c0f9190613b26565b91909114949350505050565b30611c246108ab565b6001600160a01b031614610d635760005b8451811015611cb557306001600160a01b0316858281518110611c5a57611c5a613b10565b60200260200101516001600160a01b03161415611ca557611ca5838281518110611c8657611c86613b10565b6020026020010151805190602001206002612c3090919063ffffffff16565b611cae81613d9e565b9050611c35565b505050505050565b611cca8585858585612c6c565b611cd385611ad0565b610d635760405162461bcd60e51b81526020600482015260076024820152666e65772065726160c81b6044820152606401610a10565b30611d126108ab565b6001600160a01b031614610d6357600254600f81810b600160801b909204900b1315610d63576000600255610d63565b6000610f5685858585611d6060408051602081019091526000815290565b611584565b600080611d7183612ce0565b90506004816007811115611d8757611d87613617565b14611d925792915050565b6000838152600b602052604090205480611dad575092915050565b600a54604051632ab0f52960e01b8152600481018390526001600160a01b0390911690632ab0f5299060240160206040518083038186803b158015611df157600080fd5b505afa158015611e05573d6000803e3d6000fd5b505050506040513d601f19601f82011682018060405250810190611e299190613db9565b15611e38575060079392505050565b600a54604051632c258a9f60e11b8152600481018390526001600160a01b039091169063584b153e9060240160206040518083038186803b158015611e7c57600080fd5b505afa158015611e90573d6000803e3d6000fd5b505050506040513d601f19601f82011682018060405250810190611eb49190613db9565b15611ec3575060059392505050565b5060029392505050565b6000610f5685858585612dec565b6000438210611f2c5760405162461bcd60e51b815260206004820181905260248201527f436865636b706f696e74733a20626c6f636b206e6f7420796574206d696e65646044820152606401610a10565b6000611f378361148e565b84549091506000611f4a86848385612e9e565b90508015611f7757611f618661146a600184613af9565b54600160201b90046001600160e01b0316611f7a565b60005b6001600160e01b03169695505050505050565b60045460408051918252602082018390527fc565b045403dc03c2eea82b81a0465edad9e2e7fc4d97e11421c209da93d7a93910160405180910390a1600455565b6000611fd86110d5565b611fe733610806600143613af9565b101561204f5760405162461bcd60e51b815260206004820152603160248201527f476f7665726e6f723a2070726f706f73657220766f7465732062656c6f7720706044820152701c9bdc1bdcd85b081d1a1c995cda1bdb19607a1b6064820152608401610a10565b60006120648686868680519060200120611223565b905084518651146120875760405162461bcd60e51b8152600401610a1090613ddb565b83518651146120a85760405162461bcd60e51b8152600401610a1090613ddb565b60008651116120f95760405162461bcd60e51b815260206004820152601860248201527f476f7665726e6f723a20656d7074792070726f706f73616c00000000000000006044820152606401610a10565b600081815260016020908152604091829020825191820190925281546001600160401b031690819052156121795760405162461bcd60e51b815260206004820152602160248201527f476f7665726e6f723a2070726f706f73616c20616c72656164792065786973746044820152607360f81b6064820152608401610a10565b600061218b612186610c86565b612efc565b61219443612efc565b61219e9190613e1c565b905060006121ad6121866108d5565b6121b79083613e1c565b835467ffffffffffffffff19166001600160401b038416178455905060018301805467ffffffffffffffff19166001600160401b0383161790557f7d84a6263ae0d98d3329bd7b46bb4e8d6f98cd35a7adb45c274c8b7fd5ebd5e084338b8b8d516001600160401b0381111561222f5761222f61316d565b60405190808252806020026020018201604052801561226257816020015b606081526020019060019003908161224d5790505b508c88888e60405161227c99989796959493929190613e47565b60405180910390a15091979650505050505050565b604051630748d63560e31b81526001600160a01b0384811660048301526024820184905260009182917f00000000000000000000000000000000000000000000000000000000000000001690633a46b1a89060440160206040518083038186803b1580156122fe57600080fd5b505afa158015612312573d6000803e3d6000fd5b505050506040513d601f19601f820116820180604052508101906123369190613b26565b604051632394e7a360e21b8152600481018690529091506000906001600160a01b037f00000000000000000000000000000000000000000000000000000000000000001690638e539e8c9060240160206040518083038186803b15801561239c57600080fd5b505afa1580156123b0573d6000803e3d6000fd5b505050506040513d601f19601f820116820180604052508101906123d49190613b26565b9050806123e657600092505050610f6f565b806123f5836305f5e100613c53565b610f3e9190613f36565b600a54604080516001600160a01b03928316815291831660208301527f08f74ea46ef7894f65eabfb5e6e695de773a000b47c529ab559178069b226401910160405180910390a1600a80546001600160a01b0319166001600160a01b0392909216919091179055565b60608315612477575081610f6f565b610f6f8383612f64565b600081116124e15760405162461bcd60e51b815260206004820152602760248201527f476f7665726e6f7253657474696e67733a20766f74696e6720706572696f6420604482015266746f6f206c6f7760c81b6064820152608401610a10565b60055460408051918252602082018390527f7e3f7f0708a84de9203036abaa450dccc85ad5ff52f78c170f3edb55cf5e8828910160405180910390a1600555565b60065460408051918252602082018390527fccb45da8d5717e6c4544694297c4ba5cf151d455c9bb0ed4fc7a38411bc05461910160405180910390a1600655565b8254600090819080156126b05760006125818761146a600185613af9565b60408051808201909152905463ffffffff808216808452600160201b9092046001600160e01b0316602084015291925090871610156126025760405162461bcd60e51b815260206004820152601760248201527f436865636b706f696e743a20696e76616c6964206b65790000000000000000006044820152606401610a10565b8563ffffffff16816000015163ffffffff161415612651578461262a8861146a600186613af9565b80546001600160e01b0392909216600160201b0263ffffffff9092169190911790556126a0565b6040805180820190915263ffffffff80881682526001600160e01b0380881660208085019182528b54600181018d5560008d81529190912094519151909216600160201b029216919091179101555b6020015192508391506127059050565b50506040805180820190915263ffffffff80851682526001600160e01b0380851660208085019182528854600181018a5560008a815291822095519251909316600160201b0291909316179201919091559050815b935093915050565b60006001600160e01b0319821663bf26d89760e01b148061273e57506001600160e01b031982166379dd796f60e01b145b8061275957506001600160e01b03198216630271189760e51b145b806108cf57506301ffc9a760e01b6001600160e01b03198316146108cf565b6000306001600160a01b037f0000000000000000000000000000000000000000000000000000000000000000161480156127d157507f000000000000000000000000000000000000000000000000000000000000000046145b156127fb57507f000000000000000000000000000000000000000000000000000000000000000090565b50604080517f00000000000000000000000000000000000000000000000000000000000000006020808301919091527f0000000000000000000000000000000000000000000000000000000000000000828401527f000000000000000000000000000000000000000000000000000000000000000060608301524660808301523060a0808401919091528351808403909101815260c0909201909252805191012090565b6000807f7fffffffffffffffffffffffffffffff5d576e7357a4501ddfe92f46681b20a08311156128d6575060009050600361295a565b6040805160008082526020820180845289905260ff881692820192909252606081018690526080810185905260019060a0016020604051602081039080840390855afa15801561292a573d6000803e3d6000fd5b5050604051601f1901519150506001600160a01b0381166129535760006001925092505061295a565b9150600090505b94509492505050565b600081600481111561297757612977613617565b14156129805750565b600181600481111561299457612994613617565b14156129e25760405162461bcd60e51b815260206004820152601860248201527f45434453413a20696e76616c6964207369676e617475726500000000000000006044820152606401610a10565b60028160048111156129f6576129f6613617565b1415612a445760405162461bcd60e51b815260206004820152601f60248201527f45434453413a20696e76616c6964207369676e6174757265206c656e677468006044820152606401610a10565b6003816004811115612a5857612a58613617565b1415610a6d5760405162461bcd60e51b815260206004820152602260248201527f45434453413a20696e76616c6964207369676e6174757265202773272076616c604482015261756560f01b6064820152608401610a10565b60008581526007602090815260408083206001600160a01b0388168452600381019092529091205460ff1615612b395760405162461bcd60e51b815260206004820152602760248201527f476f7665726e6f72566f74696e6753696d706c653a20766f746520616c726561604482015266191e4818d85cdd60ca1b6064820152608401610a10565b6001600160a01b03851660009081526003820160205260408120805460ff1916600117905560ff168460ff161415612b8a5782816000016000828254612b7f9190613d86565b90915550611cb59050565b60ff841660011415612baa5782816001016000828254612b7f9190613d86565b60ff841660021415612bca5782816002016000828254612b7f9190613d86565b60405162461bcd60e51b815260206004820152603560248201527f476f7665726e6f72566f74696e6753696d706c653a20696e76616c69642076616044820152746c756520666f7220656e756d20566f74655479706560581b6064820152608401610a10565b8154600160801b90819004600f0b6000818152600180860160205260409091209390935583546001600160801b03908116939091011602179055565b600a5460405163e38335e560e01b81526001600160a01b039091169063e38335e5903490612ca7908890889088906000908990600401613ce0565b6000604051808303818588803b158015612cc057600080fd5b505af1158015612cd4573d6000803e3d6000fd5b50505050505050505050565b6000818152600160205260408120600281015460ff1615612d045750600792915050565b6002810154610100900460ff1615612d1f5750600292915050565b6000612d2a84610c4f565b905080612d795760405162461bcd60e51b815260206004820152601d60248201527f476f7665726e6f723a20756e6b6e6f776e2070726f706f73616c2069640000006044820152606401610a10565b438110612d8a575060009392505050565b6000612d95856110e0565b9050438110612da957506001949350505050565b612db285612f8e565b8015612dd1575060008581526007602052604090208054600190910154115b15612de157506004949350505050565b506003949350505050565b600080612dfb86868686612fc5565b6000818152600b602052604090205490915015610f5657600a546000828152600b60205260409081902054905163c4d252f560e01b81526001600160a01b039092169163c4d252f591612e549160040190815260200190565b600060405180830381600087803b158015612e6e57600080fd5b505af1158015612e82573d6000803e3d6000fd5b5050506000828152600b60205260408120555095945050505050565b60005b81831015612ef4576000612eb584846130d1565b60008781526020902090915063ffffffff86169082015463ffffffff161115612ee057809250612eee565b612eeb816001613d86565b93505b50612ea1565b509392505050565b60006001600160401b038211156114165760405162461bcd60e51b815260206004820152602660248201527f53616665436173743a2076616c756520646f65736e27742066697420696e203660448201526534206269747360d01b6064820152608401610a10565b815115612f745781518083602001fd5b8060405162461bcd60e51b8152600401610a109190613336565b600081815260076020526040812060028101546001820154612fb09190613d86565b612fbc61087285610c4f565b11159392505050565b600080612fd486868686611223565b90506000612fe182610d07565b90506002816007811115612ff757612ff7613617565b141580156130175750600681600781111561301457613014613617565b14155b80156130355750600781600781111561303257613032613617565b14155b6130815760405162461bcd60e51b815260206004820152601d60248201527f476f7665726e6f723a2070726f706f73616c206e6f74206163746976650000006044820152606401610a10565b60008281526001602052604090819020600201805461ff001916610100179055517f789cf55be980739dad1d0699b93b58e806b51c9d96619bfa8fe0a28abaa7b30c90611abe9084815260200190565b60006130e06002848418613f36565b610f6f90848416613d86565b6000602082840312156130fe57600080fd5b81356001600160e01b031981168114610f6f57600080fd5b803560ff8116811461312757600080fd5b919050565b60008083601f84011261313e57600080fd5b5081356001600160401b0381111561315557600080fd5b60208301915083602082850101111561144957600080fd5b634e487b7160e01b600052604160045260246000fd5b604051601f8201601f191681016001600160401b03811182821017156131ab576131ab61316d565b604052919050565b60006001600160401b038311156131cc576131cc61316d565b6131df601f8401601f1916602001613183565b90508281528383830111156131f357600080fd5b828260208301376000602084830101529392505050565b600082601f83011261321b57600080fd5b610f6f838335602085016131b3565b60008060008060008060008060e0898b03121561324657600080fd5b8835975061325660208a01613116565b965060408901356001600160401b038082111561327257600080fd5b61327e8c838d0161312c565b909850965060608b013591508082111561329757600080fd5b506132a48b828c0161320a565b9450506132b360808a01613116565b925060a0890135915060c089013590509295985092959890939650565b6000602082840312156132e257600080fd5b5035919050565b6000815180845260005b8181101561330f576020818501810151868301820152016132f3565b81811115613321576000602083870101525b50601f01601f19169290920160200192915050565b602081526000610f6f60208301846132e9565b6001600160a01b0381168114610a6d57600080fd5b6000806000806080858703121561337457600080fd5b843561337f81613349565b9350602085013561338f81613349565b92506040850135915060608501356001600160401b038111156133b157600080fd5b6133bd8782880161320a565b91505092959194509250565b60006001600160401b038211156133e2576133e261316d565b5060051b60200190565b600082601f8301126133fd57600080fd5b8135602061341261340d836133c9565b613183565b82815260059290921b8401810191818101908684111561343157600080fd5b8286015b8481101561345557803561344881613349565b8352918301918301613435565b509695505050505050565b600082601f83011261347157600080fd5b8135602061348161340d836133c9565b82815260059290921b840181019181810190868411156134a057600080fd5b8286015b8481101561345557803583529183019183016134a4565b600082601f8301126134cc57600080fd5b813560206134dc61340d836133c9565b82815260059290921b840181019181810190868411156134fb57600080fd5b8286015b848110156134555780356001600160401b0381111561351e5760008081fd5b61352c8986838b010161320a565b8452509183019183016134ff565b6000806000806080858703121561355057600080fd5b84356001600160401b038082111561356757600080fd5b613573888389016133ec565b9550602087013591508082111561358957600080fd5b61359588838901613460565b945060408701359150808211156135ab57600080fd5b506135b8878288016134bb565b949793965093946060013593505050565b600080600080600060a086880312156135e157600080fd5b853594506135f160208701613116565b93506135ff60408701613116565b94979396509394606081013594506080013592915050565b634e487b7160e01b600052602160045260246000fd5b602081016008831061364f57634e487b7160e01b600052602160045260246000fd5b91905290565b6000806040838503121561366857600080fd5b82359150602083013561367a81613349565b809150509250929050565b6000806040838503121561369857600080fd5b823591506136a860208401613116565b90509250929050565b6000806000806000608086880312156136c957600080fd5b853594506136d960208701613116565b935060408601356001600160401b03808211156136f557600080fd5b61370189838a0161312c565b9095509350606088013591508082111561371a57600080fd5b506137278882890161320a565b9150509295509295909350565b6000806000806060858703121561374a57600080fd5b8435935061375a60208601613116565b925060408501356001600160401b0381111561377557600080fd5b6137818782880161312c565b95989497509550505050565b600080600080608085870312156137a357600080fd5b84356001600160401b03808211156137ba57600080fd5b6137c6888389016133ec565b955060208701359150808211156137dc57600080fd5b6137e888838901613460565b945060408701359150808211156137fe57600080fd5b61380a888389016134bb565b9350606087013591508082111561382057600080fd5b508501601f8101871361383257600080fd5b6133bd878235602084016131b3565b60008060006060848603121561385657600080fd5b833561386181613349565b92506020840135915060408401356001600160401b0381111561388357600080fd5b61388f8682870161320a565b9150509250925092565b6000602082840312156138ab57600080fd5b8135610f6f81613349565b600080600080600060a086880312156138ce57600080fd5b85356138d981613349565b945060208601356138e981613349565b935060408601356001600160401b038082111561390557600080fd5b61391189838a01613460565b9450606088013591508082111561392757600080fd5b61393389838a01613460565b9350608088013591508082111561371a57600080fd5b6000806000806060858703121561395f57600080fd5b843561396a81613349565b93506020850135925060408501356001600160401b0381111561377557600080fd5b6000806040838503121561399f57600080fd5b82356139aa81613349565b946020939093013593505050565b600080600080600060a086880312156139d057600080fd5b85356139db81613349565b945060208601356139eb81613349565b9350604086013592506060860135915060808601356001600160401b03811115613a1457600080fd5b6137278882890161320a565b8183823760009101908152919050565b60208082526018908201527f476f7665726e6f723a206f6e6c79476f7665726e616e63650000000000000000604082015260600190565b600181811c90821680613a7b57607f821691505b60208210811415613a9c57634e487b7160e01b600052602260045260246000fd5b50919050565b60208082526021908201527f476f7665726e6f723a2070726f706f73616c206e6f74207375636365737366756040820152601b60fa1b606082015260800190565b634e487b7160e01b600052601160045260246000fd5b600082821015613b0b57613b0b613ae3565b500390565b634e487b7160e01b600052603260045260246000fd5b600060208284031215613b3857600080fd5b5051919050565b600081518084526020808501945080840160005b83811015613b785781516001600160a01b031687529582019590820190600101613b53565b509495945050505050565b600081518084526020808501945080840160005b83811015613b7857815187529582019590820190600101613b97565b600081518084526020808501808196508360051b8101915082860160005b85811015613bfb578284038952613be98483516132e9565b98850198935090840190600101613bd1565b5091979650505050505050565b608081526000613c1b6080830187613b3f565b8281036020840152613c2d8187613b83565b90508281036040840152613c418186613bb3565b91505082606083015295945050505050565b6000816000190483118215151615613c6d57613c6d613ae3565b500290565b84815260ff84166020820152826040820152608060608201526000610f3e60808301846132e9565b85815260ff8516602082015283604082015260a060608201526000613cc260a08301856132e9565b8281036080840152613cd481856132e9565b98975050505050505050565b60a081526000613cf360a0830188613b3f565b8281036020840152613d058188613b83565b90508281036040840152613d198187613bb3565b60608401959095525050608001529392505050565b60c081526000613d4160c0830189613b3f565b8281036020840152613d538189613b83565b90508281036040840152613d678188613bb3565b60608401969096525050608081019290925260a0909101529392505050565b60008219821115613d9957613d99613ae3565b500190565b6000600019821415613db257613db2613ae3565b5060010190565b600060208284031215613dcb57600080fd5b81518015158114610f6f57600080fd5b60208082526021908201527f476f7665726e6f723a20696e76616c69642070726f706f73616c206c656e67746040820152600d60fb1b606082015260800190565b60006001600160401b03808316818516808303821115613e3e57613e3e613ae3565b01949350505050565b60006101208b8352602060018060a01b038c1681850152816040850152613e708285018c613b3f565b91508382036060850152613e84828b613b83565b915083820360808501528189518084528284019150828160051b850101838c0160005b83811015613ed557601f19878403018552613ec38383516132e9565b94860194925090850190600101613ea7565b505086810360a0880152613ee9818c613bb3565b945050505050613f0460c08401876001600160401b03169052565b6001600160401b03851660e0840152828103610100840152613f2681856132e9565b9c9b505050505050505050505050565b600082613f5357634e487b7160e01b600052601260045260246000fd5b50049056fe476f7665726e6f723a2072656c617920726576657274656420776974686f7574206d657373616765a2646970667358221220d3f69e689b3ebd75ea06a9b5a1107391bf8954133e946fc83e6e02b1d234395164736f6c63430008090033",
  "linkReferences": {},
  "deployedLinkReferences": {}
}