{
  "_format": "hh-sol-artifact-1",
  "contractName": "AaveLendingPoolMock",
  "sourceName": "contracts/reserve/plugins/mocks/AaveLendingPoolMock.sol",
  "abi": [
    {
      "inputs": [
        {
          "internalType": "address",
          "name": "lendingAddressesProvider",
          "type": "address"
        }
      ],
      "stateMutability": "nonpayable",
      "type": "constructor"
    },
    {
      "inputs": [],
      "name": "getAddressesProvider",
      "outputs": [
        {
          "internalType": "contract ILendingPoolAddressesProvider",
          "name": "",
          "type": "address"
        }
      ],
      "stateMutability": "view",
      "type": "function"
    },
    {
      "inputs": [
        {
          "internalType": "address",
          "name": "asset",
          "type": "address"
        }
      ],
      "name": "getReserveNormalizedIncome",
      "outputs": [
        {
          "internalType": "uint256",
          "name": "",
          "type": "uint256"
        }
      ],
      "stateMutability": "view",
      "type": "function"
    },
    {
      "inputs": [
        {
          "internalType": "address",
          "name": "asset",
          "type": "address"
        },
        {
          "internalType": "uint256",
          "name": "newRate",
          "type": "uint256"
        }
      ],
      "name": "setNormalizedIncome",
      "outputs": [],
      "stateMutability": "nonpayable",
      "type": "function"
    }
  ],
  "bytecode": "0x608060405234801561001057600080fd5b5060405161023338038061023383398101604081905261002f91610054565b600080546001600160a01b0319166001600160a01b0392909216919091179055610084565b60006020828403121561006657600080fd5b81516001600160a01b038116811461007d57600080fd5b9392505050565b6101a0806100936000396000f3fe608060405234801561001057600080fd5b50600436106100415760003560e01c8063d15e005314610046578063d208e2901461006c578063fe65acfe14610098575b600080fd5b61005961005436600461011e565b6100b3565b6040519081526020015b60405180910390f35b61009661007a366004610140565b6001600160a01b03909116600090815260016020526040902055565b005b6000546040516001600160a01b039091168152602001610063565b6001600160a01b0381166000908152600160205260408120546100e2576b033b2e3c9fd0803ce80000006100fc565b6001600160a01b0382166000908152600160205260409020545b92915050565b80356001600160a01b038116811461011957600080fd5b919050565b60006020828403121561013057600080fd5b61013982610102565b9392505050565b6000806040838503121561015357600080fd5b61015c83610102565b94602093909301359350505056fea2646970667358221220ea2841b31924be71ad7a8baed47cc60c0cda53cfe5de2297acfb3bf00a44821d64736f6c63430008090033",
  "linkReferences": {},
  "deployedLinkReferences": {}
}