{
  "_format": "hh-sol-artifact-1",
  "contractName": "RTokenP1",
  "sourceName": "contracts/reserve/p1/RToken.sol",
  "abi": [
    {
      "inputs": [],
      "name": "UIntOutOfBounds",
      "type": "error"
    },
    {
      "anonymous": false,
      "inputs": [
        {
          "indexed": false,
          "internalType": "address",
          "name": "previousAdmin",
          "type": "address"
        },
        {
          "indexed": false,
          "internalType": "address",
          "name": "newAdmin",
          "type": "address"
        }
      ],
      "name": "AdminChanged",
      "type": "event"
    },
    {
      "anonymous": false,
      "inputs": [
        {
          "indexed": true,
          "internalType": "address",
          "name": "owner",
          "type": "address"
        },
        {
          "indexed": true,
          "internalType": "address",
          "name": "spender",
          "type": "address"
        },
        {
          "indexed": false,
          "internalType": "uint256",
          "name": "value",
          "type": "uint256"
        }
      ],
      "name": "Approval",
      "type": "event"
    },
    {
      "anonymous": false,
      "inputs": [
        {
          "indexed": false,
          "internalType": "uint192",
          "name": "oldBasketsNeeded",
          "type": "uint192"
        },
        {
          "indexed": false,
          "internalType": "uint192",
          "name": "newBasketsNeeded",
          "type": "uint192"
        }
      ],
      "name": "BasketsNeededChanged",
      "type": "event"
    },
    {
      "anonymous": false,
      "inputs": [
        {
          "indexed": true,
          "internalType": "address",
          "name": "beacon",
          "type": "address"
        }
      ],
      "name": "BeaconUpgraded",
      "type": "event"
    },
    {
      "anonymous": false,
      "inputs": [
        {
          "indexed": false,
          "internalType": "uint8",
          "name": "version",
          "type": "uint8"
        }
      ],
      "name": "Initialized",
      "type": "event"
    },
    {
      "anonymous": false,
      "inputs": [
        {
          "indexed": true,
          "internalType": "address",
          "name": "issuer",
          "type": "address"
        },
        {
          "indexed": true,
          "internalType": "uint256",
          "name": "amount",
          "type": "uint256"
        },
        {
          "indexed": true,
          "internalType": "uint192",
          "name": "baskets",
          "type": "uint192"
        }
      ],
      "name": "Issuance",
      "type": "event"
    },
    {
      "anonymous": false,
      "inputs": [
        {
          "indexed": true,
          "internalType": "uint192",
          "name": "oldVal",
          "type": "uint192"
        },
        {
          "indexed": true,
          "internalType": "uint192",
          "name": "newVal",
          "type": "uint192"
        }
      ],
      "name": "IssuanceRateSet",
      "type": "event"
    },
    {
      "anonymous": false,
      "inputs": [
        {
          "indexed": true,
          "internalType": "address",
          "name": "issuer",
          "type": "address"
        },
        {
          "indexed": true,
          "internalType": "uint256",
          "name": "index",
          "type": "uint256"
        },
        {
          "indexed": true,
          "internalType": "uint256",
          "name": "amount",
          "type": "uint256"
        },
        {
          "indexed": false,
          "internalType": "uint192",
          "name": "baskets",
          "type": "uint192"
        },
        {
          "indexed": false,
          "internalType": "address[]",
          "name": "erc20s",
          "type": "address[]"
        },
        {
          "indexed": false,
          "internalType": "uint256[]",
          "name": "quantities",
          "type": "uint256[]"
        },
        {
          "indexed": false,
          "internalType": "uint192",
          "name": "blockAvailableAt",
          "type": "uint192"
        }
      ],
      "name": "IssuanceStarted",
      "type": "event"
    },
    {
      "anonymous": false,
      "inputs": [
        {
          "indexed": true,
          "internalType": "address",
          "name": "issuer",
          "type": "address"
        },
        {
          "indexed": true,
          "internalType": "uint256",
          "name": "firstId",
          "type": "uint256"
        },
        {
          "indexed": true,
          "internalType": "uint256",
          "name": "endId",
          "type": "uint256"
        },
        {
          "indexed": false,
          "internalType": "uint256",
          "name": "amount",
          "type": "uint256"
        }
      ],
      "name": "IssuancesCanceled",
      "type": "event"
    },
    {
      "anonymous": false,
      "inputs": [
        {
          "indexed": true,
          "internalType": "address",
          "name": "issuer",
          "type": "address"
        },
        {
          "indexed": true,
          "internalType": "uint256",
          "name": "firstId",
          "type": "uint256"
        },
        {
          "indexed": true,
          "internalType": "uint256",
          "name": "endId",
          "type": "uint256"
        },
        {
          "indexed": false,
          "internalType": "uint256",
          "name": "amount",
          "type": "uint256"
        }
      ],
      "name": "IssuancesCompleted",
      "type": "event"
    },
    {
      "anonymous": false,
      "inputs": [
        {
          "indexed": false,
          "internalType": "uint256",
          "name": "amount",
          "type": "uint256"
        }
      ],
      "name": "Melted",
      "type": "event"
    },
    {
      "anonymous": false,
      "inputs": [
        {
          "indexed": true,
          "internalType": "address",
          "name": "redeemer",
          "type": "address"
        },
        {
          "indexed": true,
          "internalType": "uint256",
          "name": "amount",
          "type": "uint256"
        },
        {
          "indexed": false,
          "internalType": "uint192",
          "name": "baskets",
          "type": "uint192"
        }
      ],
      "name": "Redemption",
      "type": "event"
    },
    {
      "anonymous": false,
      "inputs": [
        {
          "indexed": true,
          "internalType": "uint256",
          "name": "oldVal",
          "type": "uint256"
        },
        {
          "indexed": true,
          "internalType": "uint256",
          "name": "newVal",
          "type": "uint256"
        }
      ],
      "name": "RedemptionRateFloorSet",
      "type": "event"
    },
    {
      "anonymous": false,
      "inputs": [
        {
          "indexed": true,
          "internalType": "contract IERC20",
          "name": "erc20",
          "type": "address"
        },
        {
          "indexed": true,
          "internalType": "uint256",
          "name": "amount",
          "type": "uint256"
        }
      ],
      "name": "RewardsClaimed",
      "type": "event"
    },
    {
      "anonymous": false,
      "inputs": [
        {
          "indexed": true,
          "internalType": "uint192",
          "name": "oldVal",
          "type": "uint192"
        },
        {
          "indexed": true,
          "internalType": "uint192",
          "name": "newVal",
          "type": "uint192"
        }
      ],
      "name": "ScalingRedemptionRateSet",
      "type": "event"
    },
    {
      "anonymous": false,
      "inputs": [
        {
          "indexed": true,
          "internalType": "address",
          "name": "from",
          "type": "address"
        },
        {
          "indexed": true,
          "internalType": "address",
          "name": "to",
          "type": "address"
        },
        {
          "indexed": false,
          "internalType": "uint256",
          "name": "value",
          "type": "uint256"
        }
      ],
      "name": "Transfer",
      "type": "event"
    },
    {
      "anonymous": false,
      "inputs": [
        {
          "indexed": true,
          "internalType": "address",
          "name": "implementation",
          "type": "address"
        }
      ],
      "name": "Upgraded",
      "type": "event"
    },
    {
      "inputs": [],
      "name": "DOMAIN_SEPARATOR",
      "outputs": [
        {
          "internalType": "bytes32",
          "name": "",
          "type": "bytes32"
        }
      ],
      "stateMutability": "view",
      "type": "function"
    },
    {
      "inputs": [
        {
          "internalType": "address",
          "name": "owner",
          "type": "address"
        },
        {
          "internalType": "address",
          "name": "spender",
          "type": "address"
        }
      ],
      "name": "allowance",
      "outputs": [
        {
          "internalType": "uint256",
          "name": "",
          "type": "uint256"
        }
      ],
      "stateMutability": "view",
      "type": "function"
    },
    {
      "inputs": [
        {
          "internalType": "address",
          "name": "spender",
          "type": "address"
        },
        {
          "internalType": "uint256",
          "name": "amount",
          "type": "uint256"
        }
      ],
      "name": "approve",
      "outputs": [
        {
          "internalType": "bool",
          "name": "",
          "type": "bool"
        }
      ],
      "stateMutability": "nonpayable",
      "type": "function"
    },
    {
      "inputs": [
        {
          "internalType": "address",
          "name": "account",
          "type": "address"
        }
      ],
      "name": "balanceOf",
      "outputs": [
        {
          "internalType": "uint256",
          "name": "",
          "type": "uint256"
        }
      ],
      "stateMutability": "view",
      "type": "function"
    },
    {
      "inputs": [],
      "name": "basketsNeeded",
      "outputs": [
        {
          "internalType": "uint192",
          "name": "",
          "type": "uint192"
        }
      ],
      "stateMutability": "view",
      "type": "function"
    },
    {
      "inputs": [
        {
          "internalType": "uint256",
          "name": "endId",
          "type": "uint256"
        },
        {
          "internalType": "bool",
          "name": "earliest",
          "type": "bool"
        }
      ],
      "name": "cancel",
      "outputs": [],
      "stateMutability": "nonpayable",
      "type": "function"
    },
    {
      "inputs": [],
      "name": "claimRewards",
      "outputs": [],
      "stateMutability": "nonpayable",
      "type": "function"
    },
    {
      "inputs": [
        {
          "internalType": "contract IERC20",
          "name": "erc20",
          "type": "address"
        }
      ],
      "name": "claimRewardsSingle",
      "outputs": [],
      "stateMutability": "nonpayable",
      "type": "function"
    },
    {
      "inputs": [],
      "name": "decimals",
      "outputs": [
        {
          "internalType": "uint8",
          "name": "",
          "type": "uint8"
        }
      ],
      "stateMutability": "view",
      "type": "function"
    },
    {
      "inputs": [
        {
          "internalType": "address",
          "name": "spender",
          "type": "address"
        },
        {
          "internalType": "uint256",
          "name": "subtractedValue",
          "type": "uint256"
        }
      ],
      "name": "decreaseAllowance",
      "outputs": [
        {
          "internalType": "bool",
          "name": "",
          "type": "bool"
        }
      ],
      "stateMutability": "nonpayable",
      "type": "function"
    },
    {
      "inputs": [
        {
          "internalType": "address",
          "name": "spender",
          "type": "address"
        },
        {
          "internalType": "uint256",
          "name": "addedValue",
          "type": "uint256"
        }
      ],
      "name": "increaseAllowance",
      "outputs": [
        {
          "internalType": "bool",
          "name": "",
          "type": "bool"
        }
      ],
      "stateMutability": "nonpayable",
      "type": "function"
    },
    {
      "inputs": [
        {
          "internalType": "contract IMain",
          "name": "main_",
          "type": "address"
        },
        {
          "internalType": "string",
          "name": "name_",
          "type": "string"
        },
        {
          "internalType": "string",
          "name": "symbol_",
          "type": "string"
        },
        {
          "internalType": "string",
          "name": "mandate_",
          "type": "string"
        },
        {
          "internalType": "uint192",
          "name": "issuanceRate_",
          "type": "uint192"
        },
        {
          "internalType": "uint192",
          "name": "scalingRedemptionRate_",
          "type": "uint192"
        },
        {
          "internalType": "uint256",
          "name": "redemptionRateFloor_",
          "type": "uint256"
        }
      ],
      "name": "init",
      "outputs": [],
      "stateMutability": "nonpayable",
      "type": "function"
    },
    {
      "inputs": [],
      "name": "issuanceRate",
      "outputs": [
        {
          "internalType": "uint192",
          "name": "",
          "type": "uint192"
        }
      ],
      "stateMutability": "view",
      "type": "function"
    },
    {
      "inputs": [
        {
          "internalType": "uint256",
          "name": "amtRToken",
          "type": "uint256"
        }
      ],
      "name": "issue",
      "outputs": [],
      "stateMutability": "nonpayable",
      "type": "function"
    },
    {
      "inputs": [
        {
          "internalType": "address",
          "name": "account",
          "type": "address"
        },
        {
          "internalType": "uint256",
          "name": "index",
          "type": "uint256"
        }
      ],
      "name": "issueItem",
      "outputs": [
        {
          "components": [
            {
              "internalType": "uint192",
              "name": "when",
              "type": "uint192"
            },
            {
              "internalType": "uint256",
              "name": "amtRToken",
              "type": "uint256"
            },
            {
              "internalType": "uint192",
              "name": "amtBaskets",
              "type": "uint192"
            },
            {
              "internalType": "uint256[]",
              "name": "deposits",
              "type": "uint256[]"
            }
          ],
          "internalType": "struct RTokenP1.IssueItem",
          "name": "",
          "type": "tuple"
        }
      ],
      "stateMutability": "view",
      "type": "function"
    },
    {
      "inputs": [
        {
          "internalType": "address",
          "name": "",
          "type": "address"
        }
      ],
      "name": "issueQueues",
      "outputs": [
        {
          "internalType": "uint256",
          "name": "basketNonce",
          "type": "uint256"
        },
        {
          "internalType": "uint256",
          "name": "left",
          "type": "uint256"
        },
        {
          "internalType": "uint256",
          "name": "right",
          "type": "uint256"
        }
      ],
      "stateMutability": "view",
      "type": "function"
    },
    {
      "inputs": [],
      "name": "main",
      "outputs": [
        {
          "internalType": "contract IMain",
          "name": "",
          "type": "address"
        }
      ],
      "stateMutability": "view",
      "type": "function"
    },
    {
      "inputs": [],
      "name": "mandate",
      "outputs": [
        {
          "internalType": "string",
          "name": "",
          "type": "string"
        }
      ],
      "stateMutability": "view",
      "type": "function"
    },
    {
      "inputs": [
        {
          "internalType": "uint256",
          "name": "amtRToken",
          "type": "uint256"
        }
      ],
      "name": "melt",
      "outputs": [],
      "stateMutability": "nonpayable",
      "type": "function"
    },
    {
      "inputs": [
        {
          "internalType": "address",
          "name": "recipient",
          "type": "address"
        },
        {
          "internalType": "uint256",
          "name": "amtRToken",
          "type": "uint256"
        }
      ],
      "name": "mint",
      "outputs": [],
      "stateMutability": "nonpayable",
      "type": "function"
    },
    {
      "inputs": [],
      "name": "name",
      "outputs": [
        {
          "internalType": "string",
          "name": "",
          "type": "string"
        }
      ],
      "stateMutability": "view",
      "type": "function"
    },
    {
      "inputs": [
        {
          "internalType": "address",
          "name": "owner",
          "type": "address"
        }
      ],
      "name": "nonces",
      "outputs": [
        {
          "internalType": "uint256",
          "name": "",
          "type": "uint256"
        }
      ],
      "stateMutability": "view",
      "type": "function"
    },
    {
      "inputs": [
        {
          "internalType": "address",
          "name": "owner",
          "type": "address"
        },
        {
          "internalType": "address",
          "name": "spender",
          "type": "address"
        },
        {
          "internalType": "uint256",
          "name": "value",
          "type": "uint256"
        },
        {
          "internalType": "uint256",
          "name": "deadline",
          "type": "uint256"
        },
        {
          "internalType": "uint8",
          "name": "v",
          "type": "uint8"
        },
        {
          "internalType": "bytes32",
          "name": "r",
          "type": "bytes32"
        },
        {
          "internalType": "bytes32",
          "name": "s",
          "type": "bytes32"
        }
      ],
      "name": "permit",
      "outputs": [],
      "stateMutability": "nonpayable",
      "type": "function"
    },
    {
      "inputs": [],
      "name": "proxiableUUID",
      "outputs": [
        {
          "internalType": "bytes32",
          "name": "",
          "type": "bytes32"
        }
      ],
      "stateMutability": "view",
      "type": "function"
    },
    {
      "inputs": [
        {
          "internalType": "address",
          "name": "account",
          "type": "address"
        }
      ],
      "name": "queueBounds",
      "outputs": [
        {
          "internalType": "uint256",
          "name": "left",
          "type": "uint256"
        },
        {
          "internalType": "uint256",
          "name": "right",
          "type": "uint256"
        }
      ],
      "stateMutability": "view",
      "type": "function"
    },
    {
      "inputs": [
        {
          "internalType": "uint256",
          "name": "amount",
          "type": "uint256"
        }
      ],
      "name": "redeem",
      "outputs": [],
      "stateMutability": "nonpayable",
      "type": "function"
    },
    {
      "inputs": [],
      "name": "redemptionLimit",
      "outputs": [
        {
          "internalType": "uint256",
          "name": "",
          "type": "uint256"
        }
      ],
      "stateMutability": "view",
      "type": "function"
    },
    {
      "inputs": [],
      "name": "redemptionRateFloor",
      "outputs": [
        {
          "internalType": "uint256",
          "name": "",
          "type": "uint256"
        }
      ],
      "stateMutability": "view",
      "type": "function"
    },
    {
      "inputs": [],
      "name": "scalingRedemptionRate",
      "outputs": [
        {
          "internalType": "uint192",
          "name": "",
          "type": "uint192"
        }
      ],
      "stateMutability": "view",
      "type": "function"
    },
    {
      "inputs": [
        {
          "internalType": "uint192",
          "name": "basketsNeeded_",
          "type": "uint192"
        }
      ],
      "name": "setBasketsNeeded",
      "outputs": [],
      "stateMutability": "nonpayable",
      "type": "function"
    },
    {
      "inputs": [
        {
          "internalType": "uint192",
          "name": "val",
          "type": "uint192"
        }
      ],
      "name": "setIssuanceRate",
      "outputs": [],
      "stateMutability": "nonpayable",
      "type": "function"
    },
    {
      "inputs": [
        {
          "internalType": "uint256",
          "name": "val",
          "type": "uint256"
        }
      ],
      "name": "setRedemptionRateFloor",
      "outputs": [],
      "stateMutability": "nonpayable",
      "type": "function"
    },
    {
      "inputs": [
        {
          "internalType": "uint192",
          "name": "val",
          "type": "uint192"
        }
      ],
      "name": "setScalingRedemptionRate",
      "outputs": [],
      "stateMutability": "nonpayable",
      "type": "function"
    },
    {
      "inputs": [],
      "name": "sweepRewards",
      "outputs": [],
      "stateMutability": "nonpayable",
      "type": "function"
    },
    {
      "inputs": [
        {
          "internalType": "contract IERC20",
          "name": "erc20",
          "type": "address"
        }
      ],
      "name": "sweepRewardsSingle",
      "outputs": [],
      "stateMutability": "nonpayable",
      "type": "function"
    },
    {
      "inputs": [],
      "name": "symbol",
      "outputs": [
        {
          "internalType": "string",
          "name": "",
          "type": "string"
        }
      ],
      "stateMutability": "view",
      "type": "function"
    },
    {
      "inputs": [],
      "name": "totalSupply",
      "outputs": [
        {
          "internalType": "uint256",
          "name": "",
          "type": "uint256"
        }
      ],
      "stateMutability": "view",
      "type": "function"
    },
    {
      "inputs": [
        {
          "internalType": "address",
          "name": "to",
          "type": "address"
        },
        {
          "internalType": "uint256",
          "name": "amount",
          "type": "uint256"
        }
      ],
      "name": "transfer",
      "outputs": [
        {
          "internalType": "bool",
          "name": "",
          "type": "bool"
        }
      ],
      "stateMutability": "nonpayable",
      "type": "function"
    },
    {
      "inputs": [
        {
          "internalType": "address",
          "name": "from",
          "type": "address"
        },
        {
          "internalType": "address",
          "name": "to",
          "type": "address"
        },
        {
          "internalType": "uint256",
          "name": "amount",
          "type": "uint256"
        }
      ],
      "name": "transferFrom",
      "outputs": [
        {
          "internalType": "bool",
          "name": "",
          "type": "bool"
        }
      ],
      "stateMutability": "nonpayable",
      "type": "function"
    },
    {
      "inputs": [
        {
          "internalType": "address",
          "name": "newImplementation",
          "type": "address"
        }
      ],
      "name": "upgradeTo",
      "outputs": [],
      "stateMutability": "nonpayable",
      "type": "function"
    },
    {
      "inputs": [
        {
          "internalType": "address",
          "name": "newImplementation",
          "type": "address"
        },
        {
          "internalType": "bytes",
          "name": "data",
          "type": "bytes"
        }
      ],
      "name": "upgradeToAndCall",
      "outputs": [],
      "stateMutability": "payable",
      "type": "function"
    },
    {
      "inputs": [],
      "name": "version",
      "outputs": [
        {
          "internalType": "string",
          "name": "",
          "type": "string"
        }
      ],
      "stateMutability": "pure",
      "type": "function"
    },
    {
      "inputs": [
        {
          "internalType": "address",
          "name": "account",
          "type": "address"
        },
        {
          "internalType": "uint256",
          "name": "endId",
          "type": "uint256"
        }
      ],
      "name": "vest",
      "outputs": [],
      "stateMutability": "nonpayable",
      "type": "function"
    }
  ],
  "bytecode": "0x60a0604052306080523480156200001557600080fd5b50600054610100900460ff1615808015620000375750600054600160ff909116105b8062000067575062000054306200014160201b620033a71760201c565b15801562000067575060005460ff166001145b620000cf5760405162461bcd60e51b815260206004820152602e60248201527f496e697469616c697a61626c653a20636f6e747261637420697320616c72656160448201526d191e481a5b9a5d1a585b1a5e995960921b606482015260840160405180910390fd5b6000805460ff191660011790558015620000f3576000805461ff0019166101001790555b80156200013a576000805461ff0019169055604051600181527f7f26b83ff96e1f2b6a682f133852f6798a09c465da95921460cefb38474024989060200160405180910390a15b5062000150565b6001600160a01b03163b151590565b608051615f8e62000188600039600081816111590152818161119901528181611796015281816117d601526118650152615f8e6000f3fe60806040526004361061025c5760003560e01c80635a941ea211610144578063acda2a9d116100b6578063d505accf1161007a578063d505accf1461076f578063db006a751461078f578063dd62ed3e146107af578063dffeadd0146107cf578063ee5eef9f14610807578063f646e5971461082657600080fd5b8063acda2a9d14610696578063adaef42c146106c3578063c1e4d034146106e3578063c9d6bb79146106f8578063cc872b661461074f57600080fd5b80638c83ed33116101085780638c83ed33146105eb57806395d89b411461060b578063a457c2d714610620578063a51720d914610640578063a9059cbb14610660578063ac9da5831461068057600080fd5b80635a941ea21461053f578063639654491461055457806370a08231146105745780637121c273146105aa5780637ecebe00146105cb57600080fd5b806337dc3191116101dd578063455312ee116101a1578063455312ee1461045157806347039848146104715780634ba38de4146104c95780634f1ef286146104e957806352d1902d146104fc57806354fd4d501461051157600080fd5b806337dc3191146103a357806339509351146103c357806339b1b96d146103e35780633c9ae2ba146103f857806340c10f191461043157600080fd5b80632797c6c8116102245780632797c6c81461031d578063313ce5671461033d5780633644e515146103595780633659cfe61461036e578063372500ab1461038e57600080fd5b806306fdde0314610261578063095ea7b31461028c57806318160ddd146102bc5780631a14663c146102db57806323b872dd146102fd575b600080fd5b34801561026d57600080fd5b50610276610846565b604051610283919061545d565b60405180910390f35b34801561029857600080fd5b506102ac6102a73660046154a5565b6108d8565b6040519015158152602001610283565b3480156102c857600080fd5b5060cb545b604051908152602001610283565b3480156102e757600080fd5b506102fb6102f6366004615536565b6108f0565b005b34801561030957600080fd5b506102ac61031836600461560d565b610df9565b34801561032957600080fd5b506102fb6103383660046154a5565b610e1f565b34801561034957600080fd5b5060405160128152602001610283565b34801561036557600080fd5b506102cd61113f565b34801561037a57600080fd5b506102fb61038936600461564e565b61114e565b34801561039a57600080fd5b506102fb61122e565b3480156103af57600080fd5b506102fb6103be366004615679565b6112a9565b3480156103cf57600080fd5b506102ac6103de3660046154a5565b6113d2565b3480156103ef57600080fd5b506102766113f4565b34801561040457600080fd5b5061016254610419906001600160c01b031681565b6040516001600160c01b039091168152602001610283565b34801561043d57600080fd5b506102fb61044c3660046154a5565b611483565b34801561045d57600080fd5b506102fb61046c3660046156a9565b6114fb565b34801561047d57600080fd5b506104ae61048c36600461564e565b61016b6020526000908152604090208054600282015460039092015490919083565b60408051938452602084019290925290820152606001610283565b3480156104d557600080fd5b506102fb6104e43660046156c2565b611605565b6102fb6104f7366004615724565b61178b565b34801561050857600080fd5b506102cd611858565b34801561051d57600080fd5b506040805180820190915260058152640312e322e360dc1b6020820152610276565b34801561054b57600080fd5b506102cd61190b565b34801561056057600080fd5b506102fb61056f3660046156c2565b611922565b34801561058057600080fd5b506102cd61058f36600461564e565b6001600160a01b0316600090815260c9602052604090205490565b3480156105b657600080fd5b5061016754610419906001600160c01b031681565b3480156105d757600080fd5b506102cd6105e636600461564e565b6119de565b3480156105f757600080fd5b506102fb6106063660046156a9565b6119ff565b34801561061757600080fd5b50610276611ae7565b34801561062c57600080fd5b506102ac61063b3660046154a5565b611af6565b34801561064c57600080fd5b506102fb61065b3660046156c2565b611b7c565b34801561066c57600080fd5b506102ac61067b3660046154a5565b611d1b565b34801561068c57600080fd5b5061016c546102cd565b3480156106a257600080fd5b506106b66106b13660046154a5565b611d29565b6040516102839190615807565b3480156106cf57600080fd5b506102fb6106de36600461564e565b611e48565b3480156106ef57600080fd5b506102fb611f3d565b34801561070457600080fd5b5061073a61071336600461564e565b6001600160a01b0316600090815261016b6020526040902060028101546003909101549091565b60408051928352602083019190915201610283565b34801561075b57600080fd5b506102fb61076a3660046156a9565b611f9d565b34801561077b57600080fd5b506102fb61078a36600461584c565b612a1a565b34801561079b57600080fd5b506102fb6107aa3660046156a9565b612b95565b3480156107bb57600080fd5b506102cd6107ca3660046158c3565b613314565b3480156107db57600080fd5b506097546107ef906001600160a01b031681565b6040516001600160a01b039091168152602001610283565b34801561081357600080fd5b5061016d546001600160c01b0316610419565b34801561083257600080fd5b506102fb61084136600461564e565b61333f565b606060cc8054610855906158f1565b80601f0160208091040260200160405190810160405280929190818152602001828054610881906158f1565b80156108ce5780601f106108a3576101008083540402835291602001916108ce565b820191906000526020600020905b8154815290600101906020018083116108b157829003601f168201915b5050505050905090565b6000336108e68185856133b6565b5060019392505050565b600054610100900460ff16158080156109105750600054600160ff909116105b8061092a5750303b15801561092a575060005460ff166001145b6109925760405162461bcd60e51b815260206004820152602e60248201527f496e697469616c697a61626c653a20636f6e747261637420697320616c72656160448201526d191e481a5b9a5d1a585b1a5e995960921b60648201526084015b60405180910390fd5b6000805460ff1916600117905580156109b5576000805461ff0019166101001790555b886109ef5760405162461bcd60e51b815260206004820152600a6024820152696e616d6520656d70747960b01b6044820152606401610989565b86610a2b5760405162461bcd60e51b815260206004820152600c60248201526b73796d626f6c20656d70747960a01b6044820152606401610989565b84610a685760405162461bcd60e51b815260206004820152600d60248201526c6d616e6461746520656d70747960981b6044820152606401610989565b610a718b6134da565b610ae48a8a8080601f01602080910402602001604051908101604052809392919081815260200183838082843760009201919091525050604080516020601f8e018190048102820181019092528c815292508c91508b908190840183828082843760009201919091525061357892505050565b610b238a8a8080601f0160208091040260200160405190810160405280939291908181526020018383808284376000920191909152506135a992505050565b8a6001600160a01b031663979d7e866040518163ffffffff1660e01b815260040160206040518083038186803b158015610b5c57600080fd5b505afa158015610b70573d6000803e3d6000fd5b505050506040513d601f19601f82011682018060405250810190610b949190615926565b61016360006101000a8154816001600160a01b0302191690836001600160a01b031602179055508a6001600160a01b0316632f2439b16040518163ffffffff1660e01b815260040160206040518083038186803b158015610bf457600080fd5b505afa158015610c08573d6000803e3d6000fd5b505050506040513d601f19601f82011682018060405250810190610c2c9190615926565b61016460006101000a8154816001600160a01b0302191690836001600160a01b031602179055508a6001600160a01b031663dc8af5f66040518163ffffffff1660e01b815260040160206040518083038186803b158015610c8c57600080fd5b505afa158015610ca0573d6000803e3d6000fd5b505050506040513d601f19601f82011682018060405250810190610cc49190615926565b61016560006101000a8154816001600160a01b0302191690836001600160a01b031602179055508a6001600160a01b031663656e96e16040518163ffffffff1660e01b815260040160206040518083038186803b158015610d2457600080fd5b505afa158015610d38573d6000803e3d6000fd5b505050506040513d601f19601f82011682018060405250810190610d5c9190615926565b61016680546001600160a01b0319166001600160a01b0392909216919091179055610d8a6101618787615295565b50610d9484611b7c565b610d9d83611605565b610da6826114fb565b8015610dec576000805461ff0019169055604051600181527f7f26b83ff96e1f2b6a682f133852f6798a09c465da95921460cefb38474024989060200160405180910390a15b5050505050505050505050565b600033610e078582856135f3565b610e12858585613667565b60019150505b9392505050565b609760009054906101000a90046001600160a01b03166001600160a01b031663f17063756040518163ffffffff1660e01b815260040160206040518083038186803b158015610e6d57600080fd5b505afa158015610e81573d6000803e3d6000fd5b505050506040513d601f19601f82011682018060405250810190610ea59190615943565b15610ec25760405162461bcd60e51b815260040161098990615960565b609760009054906101000a90046001600160a01b03166001600160a01b031663979d7e866040518163ffffffff1660e01b815260040160206040518083038186803b158015610f1057600080fd5b505afa158015610f24573d6000803e3d6000fd5b505050506040513d601f19601f82011682018060405250810190610f489190615926565b6001600160a01b031663f8ac93e86040518163ffffffff1660e01b8152600401600060405180830381600087803b158015610f8257600080fd5b505af1158015610f96573d6000803e3d6000fd5b50505050600061016460009054906101000a90046001600160a01b03166001600160a01b031663200d2ed26040518163ffffffff1660e01b815260040160206040518083038186803b158015610feb57600080fd5b505afa158015610fff573d6000803e3d6000fd5b505050506040513d601f19601f82011682018060405250810190611023919061598a565b90506000816002811115611039576110396159ab565b146110775760405162461bcd60e51b815260206004820152600e60248201526d18985cdad95d081d5b9cdbdd5b9960921b6044820152606401610989565b6001600160a01b03808416600090815261016b6020908152604080832061016454825163057ff68760e51b815292519195169263affed0e09260048082019391829003018186803b1580156110cb57600080fd5b505afa1580156110df573d6000803e3d6000fd5b505050506040513d601f19601f8201168201806040525081019061110391906159c1565b825490915065ffffffffffff82161461112e57611129858360020154846003015461381d565b611138565b6111388585613c4b565b5050505050565b6000611149614171565b905090565b306001600160a01b037f00000000000000000000000000000000000000000000000000000000000000001614156111975760405162461bcd60e51b8152600401610989906159e9565b7f00000000000000000000000000000000000000000000000000000000000000006001600160a01b03166111e0600080516020615f12833981519152546001600160a01b031690565b6001600160a01b0316146112065760405162461bcd60e51b815260040161098990615a35565b61120f816141ec565b6040805160008082526020820190925261122b918391906142c0565b50565b61123661443f565b6101635460405163d93888ad60e01b81526001600160a01b03909116600482015273__$08d36e59b955a5499e173aaa3c4eaafd65$__9063d93888ad906024015b60006040518083038186803b15801561128f57600080fd5b505af41580156112a3573d6000803e3d6000fd5b50505050565b609760009054906101000a90046001600160a01b03166001600160a01b031663054f7d9c6040518163ffffffff1660e01b815260040160206040518083038186803b1580156112f757600080fd5b505afa15801561130b573d6000803e3d6000fd5b505050506040513d601f19601f8201168201806040525081019061132f9190615943565b156113655760405162461bcd60e51b8152602060048201526006602482015265333937bd32b760d11b6044820152606401610989565b33600081815261016b602052604090206002810154841080159061138d575080600301548411155b6113a95760405162461bcd60e51b815260040161098990615a81565b82156113c3576113be8282600201548661381d565b6112a3565b6112a38285836003015461381d565b6000336108e68185856113e58383613314565b6113ef9190615abd565b6133b6565b6101618054611402906158f1565b80601f016020809104026020016040519081016040528092919081815260200182805461142e906158f1565b801561147b5780601f106114505761010080835404028352916020019161147b565b820191906000526020600020905b81548152906001019060200180831161145e57829003601f168201915b505050505081565b61148b61443f565b610165546001600160a01b0316336001600160a01b0316146114e55760405162461bcd60e51b81526020600482015260136024820152723737ba103130b1b5b4b7339036b0b730b3b2b960691b6044820152606401610989565b6114ef82826144e4565b6114f76145b1565b5050565b60975460408051808201909152600581526427aba722a960d91b60208201526001600160a01b03909116906391d148549061153590615ad5565b336040516001600160e01b031960e085901b16815260048101929092526001600160a01b0316602482015260440160206040518083038186803b15801561157b57600080fd5b505afa15801561158f573d6000803e3d6000fd5b505050506040513d601f19601f820116820180604052508101906115b39190615943565b6115cf5760405162461bcd60e51b815260040161098990615af9565b61016c546040518291907f3e4252e7751ab9d091c55f72f757aeebe5acbc8c4859ecdf6eb602db902dcd2890600090a361016c55565b60975460408051808201909152600581526427aba722a960d91b60208201526001600160a01b03909116906391d148549061163f90615ad5565b336040516001600160e01b031960e085901b16815260048101929092526001600160a01b0316602482015260440160206040518083038186803b15801561168557600080fd5b505afa158015611699573d6000803e3d6000fd5b505050506040513d601f19601f820116820180604052508101906116bd9190615943565b6116d95760405162461bcd60e51b815260040161098990615af9565b670de0b6b3a76400006001600160c01b038216111561172d5760405162461bcd60e51b815260206004820152601060248201526f34b73b30b634b210333930b1ba34b7b760811b6044820152606401610989565b61016d546040516001600160c01b038084169216907f538a1900e0a4d6ba9cba8557189d22a09addb52da0c23fffc68d8cbe1badc38490600090a361016d80546001600160c01b0319166001600160c01b0392909216919091179055565b306001600160a01b037f00000000000000000000000000000000000000000000000000000000000000001614156117d45760405162461bcd60e51b8152600401610989906159e9565b7f00000000000000000000000000000000000000000000000000000000000000006001600160a01b031661181d600080516020615f12833981519152546001600160a01b031690565b6001600160a01b0316146118435760405162461bcd60e51b815260040161098990615a35565b61184c826141ec565b6114f7828260016142c0565b6000306001600160a01b037f000000000000000000000000000000000000000000000000000000000000000016146118f85760405162461bcd60e51b815260206004820152603860248201527f555550535570677261646561626c653a206d757374206e6f742062652063616c60448201527f6c6564207468726f7567682064656c656761746563616c6c00000000000000006064820152608401610989565b50600080516020615f1283398151915290565b600061114961191960cb5490565b61016c906146ae565b61192a61443f565b610165546001600160a01b0316336001600160a01b0316146119845760405162461bcd60e51b81526020600482015260136024820152723737ba103130b1b5b4b7339036b0b730b3b2b960691b6044820152606401610989565b61016754604080516001600160c01b0392831681529183166020830152600080516020615ef2833981519152910160405180910390a161016780546001600160c01b0319166001600160c01b03831617905561122b6145b1565b6001600160a01b038116600090815261012f60205260408120545b92915050565b609760009054906101000a90046001600160a01b03166001600160a01b031663f17063756040518163ffffffff1660e01b815260040160206040518083038186803b158015611a4d57600080fd5b505afa158015611a61573d6000803e3d6000fd5b505050506040513d601f19601f82011682018060405250810190611a859190615943565b15611aa25760405162461bcd60e51b815260040161098990615960565b611aac338261476c565b6040518181527f12b02b431a920654430b36652724950afbd1e5279648b404790dbd036b1a58a79060200160405180910390a161122b6145b1565b606060cd8054610855906158f1565b60003381611b048286613314565b905083811015611b645760405162461bcd60e51b815260206004820152602560248201527f45524332303a2064656372656173656420616c6c6f77616e63652062656c6f77604482015264207a65726f60d81b6064820152608401610989565b611b7182868684036133b6565b506001949350505050565b60975460408051808201909152600581526427aba722a960d91b60208201526001600160a01b03909116906391d1485490611bb690615ad5565b336040516001600160e01b031960e085901b16815260048101929092526001600160a01b0316602482015260440160206040518083038186803b158015611bfc57600080fd5b505afa158015611c10573d6000803e3d6000fd5b505050506040513d601f19601f82011682018060405250810190611c349190615943565b611c505760405162461bcd60e51b815260040161098990615af9565b6000816001600160c01b0316118015611c7a5750670de0b6b3a76400006001600160c01b03821611155b611cbd5760405162461bcd60e51b8152602060048201526014602482015273696e76616c69642069737375616e63655261746560601b6044820152606401610989565b610162546040516001600160c01b038084169216907f730a1a6c7a5c39e09096376bae04892ba49664ed38cce3e9608a119449f47bc090600090a361016280546001600160c01b0319166001600160c01b0392909216919091179055565b6000336108e6818585613667565b60408051608081018252600080825260208083018290528284018290526060808401526001600160a01b038616825261016b90529190912060028101548310801590611d785750806003015483105b611d945760405162461bcd60e51b815260040161098990615a81565b806004018381548110611da957611da9615b22565b600091825260209182902060408051608081018252600490930290910180546001600160c01b0390811684526001820154848601526002820154168383015260038101805483518187028101870190945280845293949193606086019392830182828015611e3657602002820191906000526020600020905b815481526020019060010190808311611e22575b50505050508152505091505092915050565b611e5061443f565b610163546040516366f15f4560e11b81526001600160a01b03838116600483015273__$08d36e59b955a5499e173aaa3c4eaafd65$__9263c944276c9291169063cde2be8a9060240160206040518083038186803b158015611eb157600080fd5b505afa158015611ec5573d6000803e3d6000fd5b505050506040513d601f19601f82011682018060405250810190611ee99190615926565b6040516001600160e01b031960e084901b1681526001600160a01b0390911660048201526024015b60006040518083038186803b158015611f2957600080fd5b505af4158015611138573d6000803e3d6000fd5b611f4561443f565b61016354610165546040516302ffa6e160e01b815261016f60048201526001600160a01b0392831660248201529116604482015273__$08d36e59b955a5499e173aaa3c4eaafd65$__906302ffa6e190606401611277565b609760009054906101000a90046001600160a01b03166001600160a01b031663f17063756040518163ffffffff1660e01b815260040160206040518083038186803b158015611feb57600080fd5b505afa158015611fff573d6000803e3d6000fd5b505050506040513d601f19601f820116820180604052508101906120239190615943565b156120405760405162461bcd60e51b815260040161098990615960565b600081116120845760405162461bcd60e51b815260206004820152601160248201527043616e6e6f74206973737565207a65726f60781b6044820152606401610989565b61016360009054906101000a90046001600160a01b03166001600160a01b031663f8ac93e86040518163ffffffff1660e01b8152600401600060405180830381600087803b1580156120d557600080fd5b505af11580156120e9573d6000803e3d6000fd5b5050505060006120f63390565b9050600061016460009054906101000a90046001600160a01b03166001600160a01b031663affed0e06040518163ffffffff1660e01b815260040160206040518083038186803b15801561214957600080fd5b505afa15801561215d573d6000803e3d6000fd5b505050506040513d601f19601f8201168201806040525081019061218191906159c1565b6001600160a01b038316600090815261016b60205260409020805491925090158015906121b75750805465ffffffffffff831614155b156122de576121cf838260020154836003015461381d565b61016360009054906101000a90046001600160a01b03166001600160a01b031663f8ac93e86040518163ffffffff1660e01b8152600401600060405180830381600087803b15801561222057600080fd5b505af1158015612234573d6000803e3d6000fd5b5050505061016460009054906101000a90046001600160a01b03166001600160a01b031663affed0e06040518163ffffffff1660e01b815260040160206040518083038186803b15801561228757600080fd5b505afa15801561229b573d6000803e3d6000fd5b505050506040513d601f19601f820116820180604052508101906122bf91906159c1565b6001600160a01b038416600090815261016b6020526040902090925090505b6101645460408051631006976960e11b815290516000926001600160a01b03169163200d2ed2916004808301926020929190829003018186803b15801561232457600080fd5b505afa158015612338573d6000803e3d6000fd5b505050506040513d601f19601f8201168201806040525081019061235c919061598a565b90506000816002811115612372576123726159ab565b146123b05760405162461bcd60e51b815260206004820152600e60248201526d18985cdad95d081d5b9cdbdd5b9960921b6044820152606401610989565b61016660009054906101000a90046001600160a01b03166001600160a01b0316635220f5106040518163ffffffff1660e01b8152600401600060405180830381600087803b15801561240157600080fd5b505af1158015612415573d6000803e3d6000fd5b5050505060008061242560cb5490565b116124305785612450565b61016754612450906001600160c01b03168761244b60cb5490565b6148ac565b610164546040516331883c3f60e21b815291925060009182916001600160a01b03169063c620f0fc9061248a908690600290600401615b38565b60006040518083038186803b1580156124a257600080fd5b505afa1580156124b6573d6000803e3d6000fd5b505050506040513d6000823e601f3d908101601f191682016040526124de9190810190615c02565b9150915060006124ed8961498f565b905061250143670de0b6b3a7640000615cc7565b816001600160c01b031611158015612520575085600301548660020154145b801561253d5750600085600281111561253b5761253b6159ab565b145b1561267f576101675460009061255d9086906001600160c01b0316615ce6565b61016754604080516001600160c01b0392831681529183166020830152919250600080516020615ef2833981519152910160405180910390a161016780546001600160c01b0319166001600160c01b0383811691909117909155604051908616908b906001600160a01b038c16907f641331aa871befdfc51e26035df6c966f4b582230d04abe254f92f16f4b8184b90600090a46125fb898b6144e4565b60005b8451811015610dec5761266f8a61016560009054906101000a90046001600160a01b031686848151811061263457612634615b22565b602002602001015188858151811061264e5761264e615b22565b60200260200101516001600160a01b0316614b17909392919063ffffffff16565b61267881615d11565b90506125fe565b60048601546003870154600091116126b05760048088018054600181018255600091825260209091209102016126d8565b866004018760030154815481106126c9576126c9615b22565b90600052602060002090600402015b80546001600160c01b0319166001600160c01b03841617815584516003890154919250901561286a5760008860040160018a600301546127189190615d2c565b8154811061272857612728615b22565b906000526020600020906004020190508b81600101546127489190615abd565b600184015560028101546127669088906001600160c01b0316615ce6565b6002840180546001600160c01b0319166001600160c01b0392909216919091179055845167ffffffffffffffff8111156127a2576127a26156dd565b6040519080825280602002602001820160405280156127cb578160200160208202803683370190505b5080516127e2916003860191602090910190615319565b5060005b828110156128635785818151811061280057612800615b22565b602002602001015182600301828154811061281d5761281d615b22565b90600052602060002001546128329190615abd565b84600301828154811061284757612847615b22565b60009182526020909120015561285c81615d11565b90506127e6565b50506128a5565b600182018b90556002820180546001600160c01b0319166001600160c01b03881617905583516128a39060038401906020870190615319565b505b65ffffffffffff8916885584516128c59060018a01906020880190615354565b506003880180549060006128d883615d11565b91905055508a600189600301546128ef9190615d2c565b8b6001600160a01b03167f686c6d27990d6139603e98d659f15b28e1d6ec26618cde97d822c5ed8fe5f08d8989898960405161292e9493929190615d43565b60405180910390a460005b818110156129bf5784818151811061295357612953615b22565b602002602001015161016f600088848151811061297257612972615b22565b60200260200101516001600160a01b03166001600160a01b0316815260200190815260200160002060008282546129a99190615abd565b909155506129b8905081615d11565b9050612939565b5060005b81811015612a0c576129fc8b308784815181106129e2576129e2615b22565b602002602001015189858151811061264e5761264e615b22565b612a0581615d11565b90506129c3565b505050505050505050505050565b83421115612a6a5760405162461bcd60e51b815260206004820152601d60248201527f45524332305065726d69743a206578706972656420646561646c696e650000006044820152606401610989565b60007f6e71edae12b1b97f4d1f60370fef10105fa2faae0126114a169c64845d6126c9888888612a998c614b82565b6040805160208101969096526001600160a01b0394851690860152929091166060840152608083015260a082015260c0810186905260e00160405160208183030381529060405280519060200120905073__$2d1f1df91c509134c97a9b37f5a8e18539$__634a42ee8089612b0d84614bab565b6040516001600160e01b031960e085901b1681526001600160a01b039092166004830152602482015260ff87166044820152606481018690526084810185905260a40160006040518083038186803b158015612b6857600080fd5b505af4158015612b7c573d6000803e3d6000fd5b50505050612b8b8888886133b6565b5050505050505050565b609760009054906101000a90046001600160a01b03166001600160a01b031663054f7d9c6040518163ffffffff1660e01b815260040160206040518083038186803b158015612be357600080fd5b505afa158015612bf7573d6000803e3d6000fd5b505050506040513d601f19601f82011682018060405250810190612c1b9190615943565b15612c515760405162461bcd60e51b8152602060048201526006602482015265333937bd32b760d11b6044820152606401610989565b60008111612c965760405162461bcd60e51b815260206004820152601260248201527143616e6e6f742072656465656d207a65726f60701b6044820152606401610989565b609760009054906101000a90046001600160a01b03166001600160a01b031663979d7e866040518163ffffffff1660e01b815260040160206040518083038186803b158015612ce457600080fd5b505afa158015612cf8573d6000803e3d6000fd5b505050506040513d601f19601f82011682018060405250810190612d1c9190615926565b6001600160a01b031663f8ac93e86040518163ffffffff1660e01b8152600401600060405180830381600087803b158015612d5657600080fd5b505af1158015612d6a573d6000803e3d6000fd5b505050506000612d773390565b905081612d99826001600160a01b0316600090815260c9602052604090205490565b1015612ddb5760405162461bcd60e51b81526020600482015260116024820152703737ba1032b737bab3b410292a37b5b2b760791b6044820152606401610989565b6101645460408051631006976960e11b815290516002926001600160a01b03169163200d2ed2916004808301926020929190829003018186803b158015612e2157600080fd5b505afa158015612e35573d6000803e3d6000fd5b505050506040513d601f19601f82011682018060405250810190612e59919061598a565b6002811115612e6a57612e6a6159ab565b1415612ead5760405162461bcd60e51b815260206004820152601260248201527118dbdb1b185d195c985b08191959985d5b1d60721b6044820152606401610989565b609760009054906101000a90046001600160a01b03166001600160a01b031663656e96e16040518163ffffffff1660e01b815260040160206040518083038186803b158015612efb57600080fd5b505afa158015612f0f573d6000803e3d6000fd5b505050506040513d601f19601f82011682018060405250810190612f339190615926565b6001600160a01b0316635220f5106040518163ffffffff1660e01b8152600401600060405180830381600087803b158015612f6d57600080fd5b505af1925050508015612f7e575060015b50610167546001600160c01b03166000612f9760cb5490565b90506000612faf836001600160c01b031686846148ac565b6040516001600160c01b038216815290915085906001600160a01b038616907f669d5d69fbac2341ef767e638892e6bc8f663ef889d9e82933a66e70d24389789060200160405180910390a3610164546040516331883c3f60e21b815260009182916001600160a01b039091169063c620f0fc906130339086908590600401615b38565b60006040518083038186803b15801561304b57600080fd5b505afa15801561305f573d6000803e3d6000fd5b505050506040513d6000823e601f3d908101601f191682016040526130879190810190615c02565b815191935091506000856130a38a670de0b6b3a7640000615cc7565b6130ad9190615dd9565b905060005b828110156131e3576000670de0b6b3a764000067ffffffffffffffff166001600160c01b03168683815181106130ea576130ea615b22565b6020908102919091010151610165546040516370a0823160e01b81526001600160a01b0391821660048201529116906370a082319060240160206040518083038186803b15801561313a57600080fd5b505afa15801561314e573d6000803e3d6000fd5b505050506040513d601f19601f820116820180604052508101906131729190615dfb565b613185906001600160c01b038616615cc7565b61318f9190615dd9565b90508482815181106131a3576131a3615b22565b60200260200101518110156131d257808583815181106131c5576131c5615b22565b6020026020010181815250505b506131dc81615d11565b90506130b2565b506131f161016c878b614bf9565b6131fb8588615e14565b61016780546001600160c01b0319166001600160c01b0392831690811790915560408051928a1683526020830191909152600080516020615ef2833981519152910160405180910390a161324f888a61476c565b600160005b838110156132c65784818151811061326e5761326e615b22565b602002602001015160001415613283576132b6565b811561328e57600091505b6101655485516132b6916001600160a01b0316908c908890859081106129e2576129e2615b22565b6132bf81615d11565b9050613254565b5080156133085760405162461bcd60e51b815260206004820152601060248201526f22b6b83a3c903932b232b6b83a34b7b760811b6044820152606401610989565b50505050505050505050565b6001600160a01b03918216600090815260ca6020908152604080832093909416825291909152205490565b61334761443f565b610163546101655460405163e9bc733f60e01b815261016f60048201526001600160a01b03808516602483015292831660448201529116606482015273__$08d36e59b955a5499e173aaa3c4eaafd65$__9063e9bc733f90608401611f11565b6001600160a01b03163b151590565b6001600160a01b0383166134185760405162461bcd60e51b8152602060048201526024808201527f45524332303a20617070726f76652066726f6d20746865207a65726f206164646044820152637265737360e01b6064820152608401610989565b6001600160a01b0382166134795760405162461bcd60e51b815260206004820152602260248201527f45524332303a20617070726f766520746f20746865207a65726f206164647265604482015261737360f01b6064820152608401610989565b6001600160a01b03838116600081815260ca602090815260408083209487168084529482529182902085905590518481527f8c5be1e5ebec7d5bd14f71427d1e84f3dd0314c0f7b2291e5b200ac8c7c3b925910160405180910390a3505050565b600054610100900460ff166135015760405162461bcd60e51b815260040161098990615e3c565b6001600160a01b03811661354e5760405162461bcd60e51b81526020600482015260146024820152736d61696e206973207a65726f206164647265737360601b6044820152606401610989565b613556614cb7565b609780546001600160a01b0319166001600160a01b0392909216919091179055565b600054610100900460ff1661359f5760405162461bcd60e51b815260040161098990615e3c565b6114f78282614cde565b600054610100900460ff166135d05760405162461bcd60e51b815260040161098990615e3c565b61122b81604051806040016040528060018152602001603160f81b815250614d2c565b60006135ff8484613314565b905060001981146112a3578181101561365a5760405162461bcd60e51b815260206004820152601d60248201527f45524332303a20696e73756666696369656e7420616c6c6f77616e63650000006044820152606401610989565b6112a384848484036133b6565b6001600160a01b0383166136cb5760405162461bcd60e51b815260206004820152602560248201527f45524332303a207472616e736665722066726f6d20746865207a65726f206164604482015264647265737360d81b6064820152608401610989565b6001600160a01b03821661372d5760405162461bcd60e51b815260206004820152602360248201527f45524332303a207472616e7366657220746f20746865207a65726f206164647260448201526265737360e81b6064820152608401610989565b613738838383614d6d565b6001600160a01b038316600090815260c96020526040902054818110156137b05760405162461bcd60e51b815260206004820152602660248201527f45524332303a207472616e7366657220616d6f756e7420657863656564732062604482015265616c616e636560d01b6064820152608401610989565b6001600160a01b03808516600081815260c9602052604080822086860390559286168082529083902080548601905591517fddf252ad1be2c89b69c2b068fc378daa952ba7f163c4a11628f55a4df523b3ef906138109086815260200190565b60405180910390a36112a3565b80821061382957505050565b6001600160a01b038316600090815261016b60205260408120600181015490918167ffffffffffffffff811115613862576138626156dd565b60405190808252806020026020018201604052801561388b578160200160208202803683370190505b509050600080600485016138a0600188615d2c565b815481106138b0576138b0615b22565b90600052602060002090600402019050866000141561399d578060010154915060005b84811015613997578160030181815481106138f0576138f0615b22565b906000526020600020015484828151811061390d5761390d615b22565b60200260200101818152505083818151811061392b5761392b615b22565b602002602001015161016f600088600101848154811061394d5761394d615b22565b60009182526020808320909101546001600160a01b0316835282019290925260400181208054909190613981908490615d2c565b90915550613990905081615d11565b90506138d3565b50613ad8565b6000600486016139ae60018a615d2c565b815481106139be576139be615b22565b90600052602060002090600402019050806001015482600101546139e29190615d2c565b925060005b85811015613ad557816003018181548110613a0457613a04615b22565b9060005260206000200154836003018281548110613a2457613a24615b22565b9060005260206000200154613a399190615d2c565b858281518110613a4b57613a4b615b22565b602002602001018181525050848181518110613a6957613a69615b22565b602002602001015161016f6000896001018481548110613a8b57613a8b615b22565b60009182526020808320909101546001600160a01b0316835282019290925260400181208054909190613abf908490615d2c565b90915550613ace905081615d11565b90506139e7565b50505b868560020154148015613aee5750846003015486145b15613b06576000600286018190556003860155613b8d565b868560020154148015613b1c5750846003015486105b15613b2d5760028501869055613b8d565b868560020154108015613b435750846003015486145b15613b545760038501879055613b8d565b60405162461bcd60e51b815260206004820152600e60248201526d2130b2103932b33ab73229b830b760911b6044820152606401610989565b8587896001600160a01b03167f8d02f355336bad9d0d69b8a6a40a439e836b5ef070029ea58da8e474b237b5f285604051613bca91815260200190565b60405180910390a460005b6001860154811015613c4057613c3089858381518110613bf757613bf7615b22565b6020026020010151886001018481548110613c1457613c14615b22565b6000918252602090912001546001600160a01b03169190614dc6565b613c3981615d11565b9050613bd5565b505050505050505050565b6001600160a01b038216600090815261016b602052604090206002810154821415613c7557505050565b81816002015411158015613c8d575080600301548211155b613ca95760405162461bcd60e51b815260040161098990615a81565b6000808060048401613cbc600187615d2c565b81548110613ccc57613ccc615b22565b9060005260206000209060040201905043670de0b6b3a7640000613cf09190615cc7565b81546001600160c01b03161115613d3e5760405162461bcd60e51b815260206004820152601260248201527169737375616e6365206e6f7420726561647960701b6044820152606401610989565b600184015460008167ffffffffffffffff811115613d5e57613d5e6156dd565b604051908082528060200260200182016040528015613d87578160200160208202803683370190505b509050856002015460001415613e7c57600183015460028401549095506001600160c01b0316935060005b82811015613e7657836003018181548110613dcf57613dcf615b22565b9060005260206000200154828281518110613dec57613dec615b22565b602002602001018181525050818181518110613e0a57613e0a615b22565b602002602001015161016f6000896001018481548110613e2c57613e2c615b22565b60009182526020808320909101546001600160a01b0316835282019290925260400181208054909190613e60908490615d2c565b90915550613e6f905081615d11565b9050613db2565b50613fe0565b60008660040160018860020154613e939190615d2c565b81548110613ea357613ea3615b22565b9060005260206000209060040201905080600101548460010154613ec79190615d2c565b60028083015490860154919750613eea916001600160c01b039182169116615e14565b945060005b83811015613fdd57816003018181548110613f0c57613f0c615b22565b9060005260206000200154856003018281548110613f2c57613f2c615b22565b9060005260206000200154613f419190615d2c565b838281518110613f5357613f53615b22565b602002602001018181525050828181518110613f7157613f71615b22565b602002602001015161016f60008a6001018481548110613f9357613f93615b22565b60009182526020808320909101546001600160a01b0316835282019290925260400181208054909190613fc7908490615d2c565b90915550613fd6905081615d11565b9050613eef565b50505b61016754600080516020615ef2833981519152906001600160c01b03166140078682615ce6565b604080516001600160c01b0393841681529290911660208301520160405180910390a1610167546140429085906001600160c01b0316615ce6565b61016780546001600160c01b0319166001600160c01b039283161790556040519085169086906001600160a01b038b16907f641331aa871befdfc51e26035df6c966f4b582230d04abe254f92f16f4b8184b90600090a4868660020154896001600160a01b03167f576b8228616b6d68b15aa60bbd34bb40a88ae5f2dc97c20db2b35f3ef6c353f9886040516140da91815260200190565b60405180910390a48560030154871415614101576000600287018190556003870155614109565b600286018790555b61411388866144e4565b60005b82811015613c4057610165548251614161916001600160a01b03169084908490811061414457614144615b22565b6020026020010151896001018481548110613c1457613c14615b22565b61416a81615d11565b9050614116565b60006111497f8b73c3c69bb8fe3d512ecc4cf759cc79239f7b179b0ffacaa9a75d522b39400f6141a060fb5490565b60fc546040805160208101859052908101839052606081018290524660808201523060a082015260009060c0016040516020818303038152906040528051906020012090509392505050565b60975460408051808201909152600581526427aba722a960d91b60208201526001600160a01b03909116906391d148549061422690615ad5565b336040516001600160e01b031960e085901b16815260048101929092526001600160a01b0316602482015260440160206040518083038186803b15801561426c57600080fd5b505afa158015614280573d6000803e3d6000fd5b505050506040513d601f19601f820116820180604052508101906142a49190615943565b61122b5760405162461bcd60e51b815260040161098990615af9565b7f4910fdfa16fed3260ed0e7147f7cc6da11a60208b5b9406d12a635614ffd91435460ff16156142f8576142f383614df6565b505050565b826001600160a01b03166352d1902d6040518163ffffffff1660e01b815260040160206040518083038186803b15801561433157600080fd5b505afa925050508015614361575060408051601f3d908101601f1916820190925261435e91810190615dfb565b60015b6143c45760405162461bcd60e51b815260206004820152602e60248201527f45524331393637557067726164653a206e657720696d706c656d656e7461746960448201526d6f6e206973206e6f74205555505360901b6064820152608401610989565b600080516020615f1283398151915281146144335760405162461bcd60e51b815260206004820152602960248201527f45524331393637557067726164653a20756e737570706f727465642070726f786044820152681a58589b195555525160ba1b6064820152608401610989565b506142f3838383614e92565b609760009054906101000a90046001600160a01b03166001600160a01b031663f17063756040518163ffffffff1660e01b815260040160206040518083038186803b15801561448d57600080fd5b505afa1580156144a1573d6000803e3d6000fd5b505050506040513d601f19601f820116820180604052508101906144c59190615943565b156144e25760405162461bcd60e51b815260040161098990615960565b565b6001600160a01b03821661453a5760405162461bcd60e51b815260206004820152601f60248201527f45524332303a206d696e7420746f20746865207a65726f2061646472657373006044820152606401610989565b61454660008383614d6d565b8060cb60008282546145589190615abd565b90915550506001600160a01b038216600081815260c960209081526040808320805486019055518481527fddf252ad1be2c89b69c2b068fc378daa952ba7f163c4a11628f55a4df523b3ef910160405180910390a35050565b60006145bc60cb5490565b9050806145c65750565b6101675460009082906145ea906001600160c01b0316670de0b6b3a7640000615cc7565b6145f49190615dd9565b9050600082614604600182615d2c565b61016754614623906001600160c01b0316670de0b6b3a7640000615cc7565b61462d9190615abd565b6146379190615dd9565b9050633b9aca00826001600160c01b03161015801561466b57506b033b2e3c9fd0803ce8000000816001600160c01b031611155b6142f35760405162461bcd60e51b815260206004820152601460248201527342552072617465206f7574206f662072616e676560601b6044820152606401610989565b60018201546000908190670de0b6b3a7640000906146d5906001600160c01b031685615cc7565b6146df9190615dd9565b905080846000015411156146f1575082545b600184015460009061471290600160c01b900465ffffffffffff1643615e87565b905061012c61472965ffffffffffff831684615cc7565b6147339190615dd9565b85600201546147429190615abd565b925060008483116147535782614755565b845b905080841115614763578093505b50505092915050565b6001600160a01b0382166147cc5760405162461bcd60e51b815260206004820152602160248201527f45524332303a206275726e2066726f6d20746865207a65726f206164647265736044820152607360f81b6064820152608401610989565b6147d882600083614d6d565b6001600160a01b038216600090815260c960205260409020548181101561484c5760405162461bcd60e51b815260206004820152602260248201527f45524332303a206275726e20616d6f756e7420657863656564732062616c616e604482015261636560f01b6064820152608401610989565b6001600160a01b038316600081815260c960209081526040808320868603905560cb80548790039055518581529192917fddf252ad1be2c89b69c2b068fc378daa952ba7f163c4a11628f55a4df523b3ef910160405180910390a3505050565b60008060006148bb8686614eb7565b915091508382106148df5760405163f44398f560e01b815260040160405180910390fd5b600084806148ef576148ef615dc3565b868809905081811115614903576001830392505b90819003906000859003851680868161491e5761491e615dc3565b04955080838161493057614930615dc3565b04925080816000038161494557614945615dc3565b046001019390930291909101600285810380870282030280870282030280870282030280870282030280870282030280870282030295860290039094029390930295945050505050565b60004361016a541015614a56574361016a55670de0b6b3a76400006149b360cb5490565b610162546149ca91906001600160c01b0316615cc7565b6149d49190615dd9565b61016980546001600160c01b0319166001600160c01b0392909216919091179055614a09670de0b6b3a7640000612710615ea6565b610169546001600160c01b0391821691161015614a5657614a34670de0b6b3a7640000612710615ea6565b61016980546001600160c01b0319166001600160c01b03929092169190911790555b610168546001600160c01b03166000614a70600143615d2c565b614a8290670de0b6b3a7640000615cc7565b9050816001600160c01b0316816001600160c01b03161115614aa2578091505b610169546001600160c01b0316614aba600182615e14565b6001600160c01b0316614ad586670de0b6b3a7640000615cc7565b614adf9190615abd565b614ae99190615dd9565b614af39083615ce6565b61016880546001600160c01b0319166001600160c01b038316179055949350505050565b6040516001600160a01b03808516602483015283166044820152606481018290526112a39085906323b872dd60e01b906084015b60408051601f198184030181529190526020810180516001600160e01b03166001600160e01b031990931692909217909152614ee4565b6001600160a01b038116600090815261012f602052604090208054600181018255905b50919050565b60006119f9614bb8614171565b8360405161190160f01b6020820152602281018390526042810182905260009060620160405160208183030381529060405280519060200120905092915050565b8254158015614c13575060018301546001600160c01b0316155b15614c1d57505050565b6000614c2984846146ae565b905080821115614c7b5760405162461bcd60e51b815260206004820152601f60248201527f726564656d7074696f6e206261747465727920696e73756666696369656e74006044820152606401610989565b60018401805465ffffffffffff60c01b1916600160c01b4365ffffffffffff1602179055614ca98282615d2c565b846002018190555050505050565b600054610100900460ff166144e25760405162461bcd60e51b815260040161098990615e3c565b600054610100900460ff16614d055760405162461bcd60e51b815260040161098990615e3c565b8151614d189060cc9060208501906153a9565b5080516142f39060cd9060208401906153a9565b600054610100900460ff16614d535760405162461bcd60e51b815260040161098990615e3c565b81516020928301208151919092012060fb9190915560fc55565b6001600160a01b0382163014156142f35760405162461bcd60e51b815260206004820152601760248201527f52546f6b656e207472616e7366657220746f2073656c660000000000000000006044820152606401610989565b6040516001600160a01b0383166024820152604481018290526142f390849063a9059cbb60e01b90606401614b4b565b6001600160a01b0381163b614e635760405162461bcd60e51b815260206004820152602d60248201527f455243313936373a206e657720696d706c656d656e746174696f6e206973206e60448201526c1bdd08184818dbdb9d1c9858dd609a1b6064820152608401610989565b600080516020615f1283398151915280546001600160a01b0319166001600160a01b0392909216919091179055565b614e9b83614fb6565b600082511180614ea85750805b156142f3576112a38383614ff6565b6000808060001984860990508385029150818103925081811015614edc576001830392505b509250929050565b6000614f39826040518060400160405280602081526020017f5361666545524332303a206c6f772d6c6576656c2063616c6c206661696c6564815250856001600160a01b03166150ea9092919063ffffffff16565b8051909150156142f35780806020019051810190614f579190615943565b6142f35760405162461bcd60e51b815260206004820152602a60248201527f5361666545524332303a204552433230206f7065726174696f6e20646964206e6044820152691bdd081cdd58d8d9595960b21b6064820152608401610989565b614fbf81614df6565b6040516001600160a01b038216907fbc7cd75a20ee27fd9adebab32041f755214dbc6bffa90cc0225b39da2e5c2d3b90600090a250565b60606001600160a01b0383163b61505e5760405162461bcd60e51b815260206004820152602660248201527f416464726573733a2064656c65676174652063616c6c20746f206e6f6e2d636f6044820152651b9d1c9858dd60d21b6064820152608401610989565b600080846001600160a01b0316846040516150799190615ed5565b600060405180830381855af49150503d80600081146150b4576040519150601f19603f3d011682016040523d82523d6000602084013e6150b9565b606091505b50915091506150e18282604051806060016040528060278152602001615f3260279139615101565b95945050505050565b60606150f9848460008561511a565b949350505050565b60608315615110575081610e18565b610e1883836151f5565b60608247101561517b5760405162461bcd60e51b815260206004820152602660248201527f416464726573733a20696e73756666696369656e742062616c616e636520666f6044820152651c8818d85b1b60d21b6064820152608401610989565b600080866001600160a01b031685876040516151979190615ed5565b60006040518083038185875af1925050503d80600081146151d4576040519150601f19603f3d011682016040523d82523d6000602084013e6151d9565b606091505b50915091506151ea8783838761521f565b979650505050505050565b8151156152055781518083602001fd5b8060405162461bcd60e51b8152600401610989919061545d565b6060831561528b578251615284576001600160a01b0385163b6152845760405162461bcd60e51b815260206004820152601d60248201527f416464726573733a2063616c6c20746f206e6f6e2d636f6e74726163740000006044820152606401610989565b50816150f9565b6150f983836151f5565b8280546152a1906158f1565b90600052602060002090601f0160209004810192826152c35760008555615309565b82601f106152dc5782800160ff19823516178555615309565b82800160010185558215615309579182015b828111156153095782358255916020019190600101906152ee565b5061531592915061541c565b5090565b828054828255906000526020600020908101928215615309579160200282015b82811115615309578251825591602001919060010190615339565b828054828255906000526020600020908101928215615309579160200282015b8281111561530957825182546001600160a01b0319166001600160a01b03909116178255602090920191600190910190615374565b8280546153b5906158f1565b90600052602060002090601f0160209004810192826153d75760008555615309565b82601f106153f057805160ff1916838001178555615309565b828001600101855582156153095791820182811115615309578251825591602001919060010190615339565b5b80821115615315576000815560010161541d565b60005b8381101561544c578181015183820152602001615434565b838111156112a35750506000910152565b602081526000825180602084015261547c816040850160208701615431565b601f01601f19169190910160400192915050565b6001600160a01b038116811461122b57600080fd5b600080604083850312156154b857600080fd5b82356154c381615490565b946020939093013593505050565b60008083601f8401126154e357600080fd5b50813567ffffffffffffffff8111156154fb57600080fd5b60208301915083602082850101111561551357600080fd5b9250929050565b80356001600160c01b038116811461553157600080fd5b919050565b60008060008060008060008060008060e08b8d03121561555557600080fd5b8a3561556081615490565b995060208b013567ffffffffffffffff8082111561557d57600080fd5b6155898e838f016154d1565b909b50995060408d01359150808211156155a257600080fd5b6155ae8e838f016154d1565b909950975060608d01359150808211156155c757600080fd5b506155d48d828e016154d1565b90965094506155e7905060808c0161551a565b92506155f560a08c0161551a565b915060c08b013590509295989b9194979a5092959850565b60008060006060848603121561562257600080fd5b833561562d81615490565b9250602084013561563d81615490565b929592945050506040919091013590565b60006020828403121561566057600080fd5b8135610e1881615490565b801515811461122b57600080fd5b6000806040838503121561568c57600080fd5b82359150602083013561569e8161566b565b809150509250929050565b6000602082840312156156bb57600080fd5b5035919050565b6000602082840312156156d457600080fd5b610e188261551a565b634e487b7160e01b600052604160045260246000fd5b604051601f8201601f1916810167ffffffffffffffff8111828210171561571c5761571c6156dd565b604052919050565b6000806040838503121561573757600080fd5b823561574281615490565b915060208381013567ffffffffffffffff8082111561576057600080fd5b818601915086601f83011261577457600080fd5b813581811115615786576157866156dd565b615798601f8201601f191685016156f3565b915080825287848285010111156157ae57600080fd5b80848401858401376000848284010152508093505050509250929050565b600081518084526020808501945080840160005b838110156157fc578151875295820195908201906001016157e0565b509495945050505050565b60208152600060018060c01b03808451166020840152602084015160408401528060408501511660608401525060608301516080808401526150f960a08401826157cc565b600080600080600080600060e0888a03121561586757600080fd5b873561587281615490565b9650602088013561588281615490565b95506040880135945060608801359350608088013560ff811681146158a657600080fd5b9699959850939692959460a0840135945060c09093013592915050565b600080604083850312156158d657600080fd5b82356158e181615490565b9150602083013561569e81615490565b600181811c9082168061590557607f821691505b60208210811415614ba557634e487b7160e01b600052602260045260246000fd5b60006020828403121561593857600080fd5b8151610e1881615490565b60006020828403121561595557600080fd5b8151610e188161566b565b60208082526010908201526f3830bab9b2b21037b910333937bd32b760811b604082015260600190565b60006020828403121561599c57600080fd5b815160038110610e1857600080fd5b634e487b7160e01b600052602160045260246000fd5b6000602082840312156159d357600080fd5b815165ffffffffffff81168114610e1857600080fd5b6020808252602c908201527f46756e6374696f6e206d7573742062652063616c6c6564207468726f7567682060408201526b19195b1959d85d1958d85b1b60a21b606082015260800190565b6020808252602c908201527f46756e6374696f6e206d7573742062652063616c6c6564207468726f7567682060408201526b6163746976652070726f787960a01b606082015260800190565b6020808252600c908201526b6f7574206f662072616e676560a01b604082015260600190565b634e487b7160e01b600052601160045260246000fd5b60008219821115615ad057615ad0615aa7565b500190565b80516020808301519190811015614ba55760001960209190910360031b1b16919050565b6020808252600f908201526e676f7665726e616e6365206f6e6c7960881b604082015260600190565b634e487b7160e01b600052603260045260246000fd5b6001600160c01b03831681526040810160038310615b6657634e487b7160e01b600052602160045260246000fd5b8260208301529392505050565b600067ffffffffffffffff821115615b8d57615b8d6156dd565b5060051b60200190565b600082601f830112615ba857600080fd5b81516020615bbd615bb883615b73565b6156f3565b82815260059290921b84018101918181019086841115615bdc57600080fd5b8286015b84811015615bf75780518352918301918301615be0565b509695505050505050565b60008060408385031215615c1557600080fd5b825167ffffffffffffffff80821115615c2d57600080fd5b818501915085601f830112615c4157600080fd5b81516020615c51615bb883615b73565b82815260059290921b84018101918181019089841115615c7057600080fd5b948201945b83861015615c97578551615c8881615490565b82529482019490820190615c75565b91880151919650909350505080821115615cb057600080fd5b50615cbd85828601615b97565b9150509250929050565b6000816000190483118215151615615ce157615ce1615aa7565b500290565b60006001600160c01b03828116848216808303821115615d0857615d08615aa7565b01949350505050565b6000600019821415615d2557615d25615aa7565b5060010190565b600082821015615d3e57615d3e615aa7565b500390565b6001600160c01b0385811682526080602080840182905286519184018290526000928782019290919060a0860190855b81811015615d985785516001600160a01b031683529483019491830191600101615d73565b50508581036040870152615dac81896157cc565b945050508085166060850152505095945050505050565b634e487b7160e01b600052601260045260246000fd5b600082615df657634e487b7160e01b600052601260045260246000fd5b500490565b600060208284031215615e0d57600080fd5b5051919050565b60006001600160c01b0383811690831681811015615e3457615e34615aa7565b039392505050565b6020808252602b908201527f496e697469616c697a61626c653a20636f6e7472616374206973206e6f74206960408201526a6e697469616c697a696e6760a81b606082015260800190565b600065ffffffffffff83811690831681811015615e3457615e34615aa7565b60006001600160c01b0382811684821681151582840482111615615ecc57615ecc615aa7565b02949350505050565b60008251615ee7818460208701615431565b919091019291505056fe0b0ca69be72e0611a1f79eedf91aece404ff14cb8fcfd0c997a72b68d4fdd478360894a13ba1a3210667c828492db98dca3e2076cc3735a920a3ca505d382bbc416464726573733a206c6f772d6c6576656c2064656c65676174652063616c6c206661696c6564a26469706673582212201ec4c78b34881402d7b4dad2e7af69fcf46fb479fdc3a4f2afcde9bff157067664736f6c63430008090033",
  "linkReferences": {
    "contracts/reserve/libraries/Permit.sol": {
      "PermitLib": [
        {
          "length": 20,
          "start": 11379
        }
      ]
    },
    "contracts/reserve/p1/mixins/RewardableLib.sol": {
      "RewardableLibP1": [
        {
          "length": 20,
          "start": 5089
        },
        {
          "length": 20,
          "start": 8187
        },
        {
          "length": 20,
          "start": 8451
        },
        {
          "length": 20,
          "start": 13581
        }
      ]
    }
  },
  "deployedLinkReferences": {
    "contracts/reserve/libraries/Permit.sol": {
      "PermitLib": [
        {
          "length": 20,
          "start": 10987
        }
      ]
    },
    "contracts/reserve/p1/mixins/RewardableLib.sol": {
      "RewardableLibP1": [
        {
          "length": 20,
          "start": 4697
        },
        {
          "length": 20,
          "start": 7795
        },
        {
          "length": 20,
          "start": 8059
        },
        {
          "length": 20,
          "start": 13189
        }
      ]
    }
  }
}