{
  "_format": "hh-sol-artifact-1",
  "contractName": "RTokenCollateral",
  "sourceName": "contracts/reserve/plugins/mocks/RTokenCollateral.sol",
  "abi": [
    {
      "inputs": [
        {
          "internalType": "contract IRToken",
          "name": "erc20_",
          "type": "address"
        },
        {
          "internalType": "uint192",
          "name": "maxTradeVolume_",
          "type": "uint192"
        },
        {
          "internalType": "bytes32",
          "name": "targetName_",
          "type": "bytes32"
        },
        {
          "internalType": "uint256",
          "name": "delayUntilDefault_",
          "type": "uint256"
        }
      ],
      "stateMutability": "nonpayable",
      "type": "constructor"
    },
    {
      "inputs": [],
      "name": "UIntOutOfBounds",
      "type": "error"
    },
    {
      "anonymous": false,
      "inputs": [
        {
          "indexed": true,
          "internalType": "enum CollateralStatus",
          "name": "oldStatus",
          "type": "uint8"
        },
        {
          "indexed": true,
          "internalType": "enum CollateralStatus",
          "name": "newStatus",
          "type": "uint8"
        }
      ],
      "name": "CollateralStatusChanged",
      "type": "event"
    },
    {
      "anonymous": false,
      "inputs": [
        {
          "indexed": true,
          "internalType": "contract IERC20",
          "name": "erc20",
          "type": "address"
        },
        {
          "indexed": true,
          "internalType": "uint256",
          "name": "amount",
          "type": "uint256"
        }
      ],
      "name": "RewardsClaimed",
      "type": "event"
    },
    {
      "inputs": [],
      "name": "assetRegistry",
      "outputs": [
        {
          "internalType": "contract IAssetRegistry",
          "name": "",
          "type": "address"
        }
      ],
      "stateMutability": "view",
      "type": "function"
    },
    {
      "inputs": [],
      "name": "backingManager",
      "outputs": [
        {
          "internalType": "contract IBackingManager",
          "name": "",
          "type": "address"
        }
      ],
      "stateMutability": "view",
      "type": "function"
    },
    {
      "inputs": [
        {
          "internalType": "address",
          "name": "account",
          "type": "address"
        }
      ],
      "name": "bal",
      "outputs": [
        {
          "internalType": "uint192",
          "name": "",
          "type": "uint192"
        }
      ],
      "stateMutability": "view",
      "type": "function"
    },
    {
      "inputs": [],
      "name": "basketHandler",
      "outputs": [
        {
          "internalType": "contract IBasketHandler",
          "name": "",
          "type": "address"
        }
      ],
      "stateMutability": "view",
      "type": "function"
    },
    {
      "inputs": [],
      "name": "claimRewards",
      "outputs": [],
      "stateMutability": "nonpayable",
      "type": "function"
    },
    {
      "inputs": [],
      "name": "delayUntilDefault",
      "outputs": [
        {
          "internalType": "uint256",
          "name": "",
          "type": "uint256"
        }
      ],
      "stateMutability": "view",
      "type": "function"
    },
    {
      "inputs": [],
      "name": "erc20",
      "outputs": [
        {
          "internalType": "contract IERC20Metadata",
          "name": "",
          "type": "address"
        }
      ],
      "stateMutability": "view",
      "type": "function"
    },
    {
      "inputs": [],
      "name": "erc20Decimals",
      "outputs": [
        {
          "internalType": "uint8",
          "name": "",
          "type": "uint8"
        }
      ],
      "stateMutability": "view",
      "type": "function"
    },
    {
      "inputs": [],
      "name": "fallbackPrice",
      "outputs": [
        {
          "internalType": "uint192",
          "name": "",
          "type": "uint192"
        }
      ],
      "stateMutability": "view",
      "type": "function"
    },
    {
      "inputs": [],
      "name": "isCollateral",
      "outputs": [
        {
          "internalType": "bool",
          "name": "",
          "type": "bool"
        }
      ],
      "stateMutability": "pure",
      "type": "function"
    },
    {
      "inputs": [],
      "name": "maxTradeVolume",
      "outputs": [
        {
          "internalType": "uint192",
          "name": "",
          "type": "uint192"
        }
      ],
      "stateMutability": "view",
      "type": "function"
    },
    {
      "inputs": [],
      "name": "price",
      "outputs": [
        {
          "internalType": "uint192",
          "name": "low",
          "type": "uint192"
        },
        {
          "internalType": "uint192",
          "name": "high",
          "type": "uint192"
        }
      ],
      "stateMutability": "view",
      "type": "function"
    },
    {
      "inputs": [],
      "name": "priceable",
      "outputs": [
        {
          "internalType": "bool",
          "name": "",
          "type": "bool"
        }
      ],
      "stateMutability": "view",
      "type": "function"
    },
    {
      "inputs": [],
      "name": "refPerTok",
      "outputs": [
        {
          "internalType": "uint192",
          "name": "",
          "type": "uint192"
        }
      ],
      "stateMutability": "view",
      "type": "function"
    },
    {
      "inputs": [],
      "name": "refresh",
      "outputs": [],
      "stateMutability": "nonpayable",
      "type": "function"
    },
    {
      "inputs": [],
      "name": "status",
      "outputs": [
        {
          "internalType": "enum CollateralStatus",
          "name": "",
          "type": "uint8"
        }
      ],
      "stateMutability": "view",
      "type": "function"
    },
    {
      "inputs": [],
      "name": "targetName",
      "outputs": [
        {
          "internalType": "bytes32",
          "name": "",
          "type": "bytes32"
        }
      ],
      "stateMutability": "view",
      "type": "function"
    },
    {
      "inputs": [],
      "name": "targetPerRef",
      "outputs": [
        {
          "internalType": "uint192",
          "name": "",
          "type": "uint192"
        }
      ],
      "stateMutability": "view",
      "type": "function"
    },
    {
      "inputs": [],
      "name": "tryPrice",
      "outputs": [
        {
          "internalType": "uint192",
          "name": "low",
          "type": "uint192"
        },
        {
          "internalType": "uint192",
          "name": "high",
          "type": "uint192"
        }
      ],
      "stateMutability": "view",
      "type": "function"
    },
    {
      "inputs": [],
      "name": "whenDefault",
      "outputs": [
        {
          "internalType": "uint256",
          "name": "",
          "type": "uint256"
        }
      ],
      "stateMutability": "view",
      "type": "function"
    }
  ],
  "bytecode": "0x6101806040526000196000553480156200001857600080fd5b5060405162002bf638038062002bf68339810160408190526200003b91620003fc565b83836001600160a01b038216620000895760405162461bcd60e51b815260206004820152600d60248201526c06d697373696e6720657263323609c1b60448201526064015b60405180910390fd5b6000816001600160c01b031611620000e45760405162461bcd60e51b815260206004820152601860248201527f696e76616c6964206d617820747261646520766f6c756d650000000000000000604482015260640162000080565b6000826001600160a01b031663dffeadd06040518163ffffffff1660e01b815260040160206040518083038186803b1580156200012057600080fd5b505afa15801562000135573d6000803e3d6000fd5b505050506040513d601f19601f820116820180604052508101906200015b919062000454565b9050806001600160a01b0316632f2439b16040518163ffffffff1660e01b815260040160206040518083038186803b1580156200019757600080fd5b505afa158015620001ac573d6000803e3d6000fd5b505050506040513d601f19601f82011682018060405250810190620001d2919062000454565b6001600160a01b03166080816001600160a01b031681525050806001600160a01b031663979d7e866040518163ffffffff1660e01b815260040160206040518083038186803b1580156200022557600080fd5b505afa1580156200023a573d6000803e3d6000fd5b505050506040513d601f19601f8201168201806040525081019062000260919062000454565b6001600160a01b031660a0816001600160a01b031681525050806001600160a01b031663dc8af5f66040518163ffffffff1660e01b815260040160206040518083038186803b158015620002b357600080fd5b505afa158015620002c8573d6000803e3d6000fd5b505050506040513d601f19601f82011682018060405250810190620002ee919062000454565b6001600160a01b0390811660c052831660e08190526040805163313ce56760e01b8152905163313ce56791600480820192602092909190829003018186803b1580156200033a57600080fd5b505afa1580156200034f573d6000803e3d6000fd5b505050506040513d601f19601f820116820180604052508101906200037591906200047b565b60ff1661010052506001600160c01b0316610120525081620003cf5760405162461bcd60e51b81526020600482015260126024820152717461726765744e616d65206d697373696e6760701b604482015260640162000080565b610160919091526101405250620004a09050565b6001600160a01b0381168114620003f957600080fd5b50565b600080600080608085870312156200041357600080fd5b84516200042081620003e3565b60208601519094506001600160c01b03811681146200043e57600080fd5b6040860151606090960151949790965092505050565b6000602082840312156200046757600080fd5b81516200047481620003e3565b9392505050565b6000602082840312156200048e57600080fd5b815160ff811681146200047457600080fd5b60805160a05160c05160e0516101005161012051610140516101605161268e62000568600039600061034d0152600061031e0152600061027c015260006101ac01526000818161022d015281816103bf015281816104e5015281816105b701528181610662015281816107a301526109bd0152600081816102ef01528181610a6501528181610b0501528181610dbc0152610e5b0152600081816102a30152610efc01526000818161016b0152818161044c0152818161070b0152610927015261268e6000f3fe608060405234801561001057600080fd5b506004361061012c5760003560e01c8063979d7e86116100ad578063dc8af5f611610071578063dc8af5f6146102ea578063e28a1b8614610311578063e6a1505314610319578063f8ac93e814610340578063fdfd59171461034857600080fd5b8063979d7e861461029e578063a035b1fe146102c5578063a7fa0faf146102cd578063c59b3d63146102db578063d9e8e670146102e257600080fd5b80635580f72a116100f45780635580f72a146101e0578063614078811461020b578063785e9e86146102285780637d1ea1371461024f57806395acc4ae1461027757600080fd5b8063200d2ed2146101315780632dc866241461014f5780632f2439b114610166578063372500ab146101a55780633cb5d379146101a7575b600080fd5b61013961036f565b604051610146919061209e565b60405180910390f35b61015860005481565b604051908152602001610146565b61018d7f000000000000000000000000000000000000000000000000000000000000000081565b6040516001600160a01b039091168152602001610146565b005b6101ce7f000000000000000000000000000000000000000000000000000000000000000081565b60405160ff9091168152602001610146565b6101f36101ee3660046120de565b610399565b6040516001600160c01b039091168152602001610146565b6001546102189060ff1681565b6040519015158152602001610146565b61018d7f000000000000000000000000000000000000000000000000000000000000000081565b610257610444565b604080516001600160c01b03938416815292909116602083015201610146565b6101f37f000000000000000000000000000000000000000000000000000000000000000081565b61018d7f000000000000000000000000000000000000000000000000000000000000000081565b61025761059f565b670de0b6b3a76400006101f3565b6001610218565b6101f36105b2565b61018d7f000000000000000000000000000000000000000000000000000000000000000081565b6101f3610706565b6101587f000000000000000000000000000000000000000000000000000000000000000081565b6101a561083e565b6101587f000000000000000000000000000000000000000000000000000000000000000081565b600060001960005414156103835750600090565b4260005411156103935750600190565b50600290565b6040516370a0823160e01b81526001600160a01b03828116600483015260009161043e917f000000000000000000000000000000000000000000000000000000000000000016906370a082319060240160206040518083038186803b15801561040157600080fd5b505afa158015610415573d6000803e3d6000fd5b505050506040513d601f19601f8201168201806040525081019061043991906120fb565b6108e3565b92915050565b6000806000807f00000000000000000000000000000000000000000000000000000000000000006001600160a01b031663a035b1fe6040518163ffffffff1660e01b8152600401604080518083038186803b1580156104a257600080fd5b505afa1580156104b6573d6000803e3d6000fd5b505050506040513d601f19601f820116820180604052508101906104da9190612130565b91509150600061053c7f00000000000000000000000000000000000000000000000000000000000000006001600160a01b03166318160ddd6040518163ffffffff1660e01b815260040160206040518083038186803b15801561040157600080fd5b90506001600160c01b038116610556575090939092509050565b6000610560610911565b602081015190915061057c906001600160c01b03168584610fa5565b8151909650610595906001600160c01b03168484610fa5565b9450505050509091565b6000806105aa610fbe565b915091509091565b6000807f00000000000000000000000000000000000000000000000000000000000000006001600160a01b03166318160ddd6040518163ffffffff1660e01b815260040160206040518083038186803b15801561060e57600080fd5b505afa158015610622573d6000803e3d6000fd5b505050506040513d601f19601f8201168201806040525081019061064691906120fb565b90508061065c5750670de0b6b3a7640000919050565b610700817f00000000000000000000000000000000000000000000000000000000000000006001600160a01b0316637121c2736040518163ffffffff1660e01b815260040160206040518083038186803b1580156106b957600080fd5b505afa1580156106cd573d6000803e3d6000fd5b505050506040513d601f19601f820116820180604052508101906106f19190612163565b6001600160c01b031690611083565b91505090565b6000807f00000000000000000000000000000000000000000000000000000000000000006001600160a01b031663e28a1b866040518163ffffffff1660e01b815260040160206040518083038186803b15801561076257600080fd5b505afa158015610776573d6000803e3d6000fd5b505050506040513d601f19601f8201168201806040525081019061079a9190612163565b905060006107fa7f00000000000000000000000000000000000000000000000000000000000000006001600160a01b03166318160ddd6040518163ffffffff1660e01b815260040160206040518083038186803b15801561040157600080fd5b90506001600160c01b0381166108105750919050565b600061081a610911565b6020810151909150610836906001600160c01b03168484610fa5565b935050505090565b426000541161084957565b600061085361036f565b600019600090815590915061086661036f565b905080600281111561087a5761087a612088565b82600281111561088c5761088c612088565b146108df578060028111156108a3576108a3612088565b8260028111156108b5576108b5612088565b6040517f99cada7141db4d51b602b2e469ec310c78ffbba0eb05bc3e3e633f30672dea0290600090a35b5050565b60006001600160c01b0382111561090d5760405163f44398f560e01b815260040160405180910390fd5b5090565b60408051808201909152600080825260208201527f00000000000000000000000000000000000000000000000000000000000000006001600160a01b031663e45a5b2d6040518163ffffffff1660e01b815260040160206040518083038186803b15801561097e57600080fd5b505afa158015610992573d6000803e3d6000fd5b505050506040513d601f19601f820116820180604052508101906109b6919061217e565b15610a61577f00000000000000000000000000000000000000000000000000000000000000006001600160a01b0316637121c2736040518163ffffffff1660e01b815260040160206040518083038186803b158015610a1457600080fd5b505afa158015610a28573d6000803e3d6000fd5b505050506040513d601f19601f82011682018060405250810190610a4c9190612163565b6001600160c01b031660208201819052815290565b60007f00000000000000000000000000000000000000000000000000000000000000006001600160a01b031663dffeadd06040518163ffffffff1660e01b815260040160206040518083038186803b158015610abc57600080fd5b505afa158015610ad0573d6000803e3d6000fd5b505050506040513d601f19601f82011682018060405250810190610af491906121a0565b905060006040518060c001604052807f00000000000000000000000000000000000000000000000000000000000000006001600160a01b03168152602001836001600160a01b0316632f2439b16040518163ffffffff1660e01b815260040160206040518083038186803b158015610b6b57600080fd5b505afa158015610b7f573d6000803e3d6000fd5b505050506040513d601f19601f82011682018060405250810190610ba391906121a0565b6001600160a01b03168152602001836001600160a01b031663979d7e866040518163ffffffff1660e01b815260040160206040518083038186803b158015610bea57600080fd5b505afa158015610bfe573d6000803e3d6000fd5b505050506040513d601f19601f82011682018060405250810190610c2291906121a0565b6001600160a01b03168152602001836001600160a01b0316634780a5e56040518163ffffffff1660e01b815260040160206040518083038186803b158015610c6957600080fd5b505afa158015610c7d573d6000803e3d6000fd5b505050506040513d601f19601f82011682018060405250810190610ca191906121a0565b6001600160a01b03168152602001836001600160a01b031663c99dc3dd6040518163ffffffff1660e01b815260040160206040518083038186803b158015610ce857600080fd5b505afa158015610cfc573d6000803e3d6000fd5b505050506040513d601f19601f82011682018060405250810190610d2091906121a0565b6001600160a01b03168152602001836001600160a01b03166340c65f726040518163ffffffff1660e01b815260040160206040518083038186803b158015610d6757600080fd5b505afa158015610d7b573d6000803e3d6000fd5b505050506040513d601f19601f82011682018060405250810190610d9f91906121a0565b6001600160a01b03168152509050600060405180604001604052807f00000000000000000000000000000000000000000000000000000000000000006001600160a01b0316637cbf6db26040518163ffffffff1660e01b815260040160206040518083038186803b158015610e1357600080fd5b505afa158015610e27573d6000803e3d6000fd5b505050506040513d601f19601f82011682018060405250810190610e4b9190612163565b6001600160c01b031681526020017f00000000000000000000000000000000000000000000000000000000000000006001600160a01b0316630db3d42c6040518163ffffffff1660e01b815260040160206040518083038186803b158015610eb257600080fd5b505afa158015610ec6573d6000803e3d6000fd5b505050506040513d601f19601f82011682018060405250810190610eea9190612163565b6001600160c01b0316815250905060007f00000000000000000000000000000000000000000000000000000000000000006001600160a01b0316635ab1bd536040518163ffffffff1660e01b815260040160006040518083038186803b158015610f5357600080fd5b505afa158015610f67573d6000803e3d6000fd5b505050506040513d6000823e601f3d908101601f19168201604052610f8f91908101906122c5565b9050610f9c838383611091565b94505050505090565b6000610fb484848460006112ac565b90505b9392505050565b600080306001600160a01b0316637d1ea1376040518163ffffffff1660e01b8152600401604080518083038186803b158015610ff957600080fd5b505afa925050508015611029575060408051601f3d908101601f1916820190925261102691810190612130565b60015b61107a573d808015611057576040519150601f19603f3d011682016040523d82523d6000602084013e61105c565b606091505b50805161106857600080fd5b506000926001600160c01b0392509050565b90939092509050565b6000610fb7838360006112e3565b604080518082019091526000808252602082015260008085602001516001600160a01b031663a035b1fe6040518163ffffffff1660e01b8152600401604080518083038186803b1580156110e457600080fd5b505afa1580156110f8573d6000803e3d6000fd5b505050506040513d601f19601f8201168201806040525081019061111c9190612130565b9150915060008061112e888888611316565b9150915060006111c5826111c0868c60a001516001600160a01b0316637121c2736040518163ffffffff1660e01b815260040160206040518083038186803b15801561117957600080fd5b505afa15801561118d573d6000803e3d6000fd5b505050506040513d601f19601f820116820180604052508101906111b19190612163565b6001600160c01b0316906118cc565b6118da565b905060006111d58a898488611902565b60208a0151909150600090611222906111f790670de0b6b3a764000090611bad565b60208c0151600290611212906001600160c01b0316866118cc565b6001600160c01b031691906112e3565b905060006001600160c01b038083169087161161124057600061125c565b61125c6112566001600160c01b03881684611bad565b856118da565b90506112736001600160c01b0385168960026112e3565b6001600160c01b039081168a5261128e9082168860026112e3565b6001600160c01b031660208a015250969a9950505050505050505050565b60006112d8610439866001600160c01b0316866001600160c01b0316866001600160c01b031686611bb9565b90505b949350505050565b6000610fb4610439611306670de0b6b3a76400006001600160c01b0388166123c9565b856001600160c01b031685611c68565b60008080805b845151811015611893578660a001516001600160a01b03168560000151828151811061134a5761134a6123e8565b60200260200101516001600160a01b0316141561136657611883565b60008560200151828151811061137e5761137e6123e8565b60209081029190910101518851604051632ac07b9560e11b81526001600160a01b039182166004820152911690635580f72a9060240160206040518083038186803b1580156113cc57600080fd5b505afa1580156113e0573d6000803e3d6000fd5b505050506040513d601f19601f820116820180604052508101906114049190612163565b905087608001516001600160a01b03168660000151838151811061142a5761142a6123e8565b60200260200101516001600160a01b031614156114f6576114f38660200151838151811061145a5761145a6123e8565b602090810291909101015160608a0151604051632ac07b9560e11b81526001600160a01b039182166004820152911690635580f72a9060240160206040518083038186803b1580156114ab57600080fd5b505afa1580156114bf573d6000803e3d6000fd5b505050506040513d601f19601f820116820180604052508101906114e39190612163565b6001600160c01b03831690611d12565b90505b6000808760200151848151811061150f5761150f6123e8565b60200260200101516001600160a01b031663a035b1fe6040518163ffffffff1660e01b8152600401604080518083038186803b15801561154e57600080fd5b505afa158015611562573d6000803e3d6000fd5b505050506040513d601f19601f820116820180604052508101906115869190612130565b915091506000611623896020015186815181106115a5576115a56123e8565b60200260200101516001600160a01b031663e28a1b866040518163ffffffff1660e01b815260040160206040518083038186803b1580156115e557600080fd5b505afa1580156115f9573d6000803e3d6000fd5b505050506040513d601f19601f8201168201806040525081019061161d9190612163565b84611d1e565b905060008b602001516001600160a01b031663a5a5828c8b600001518881518110611650576116506123e8565b60200260200101516040518263ffffffff1660e01b815260040161168391906001600160a01b0391909116815260200190565b60206040518083038186803b15801561169b57600080fd5b505afa1580156116af573d6000803e3d6000fd5b505050506040513d601f19601f820116820180604052508101906116d39190612163565b90506001600160c01b03811615801561171657506117148a602001518781518110611700576117006123e8565b602002602001015186848e60000151611d3f565b155b15611725575050505050611883565b61173a6001600160c01b038516866000611df8565b611744908a6123fe565b8c516040516307a4469760e21b81526001600160c01b03808716600483015288166024820152670de0b6b3a76400006044820152919a506001600160a01b031690631e911a5c9060640160206040518083038186803b1580156117a657600080fd5b505afa9250505080156117d6575060408051601f3d908101601f191682019092526117d3918101906120fb565b60015b611825573d808015611804576040519150601f19603f3d011682016040523d82523d6000602084013e611809565b606091505b50805161181557600080fd5b6001600160c01b03985050611865565b6001600160c01b03611839828b8316612429565b1061184d576001600160c01b039850611863565b611856816108e3565b611860908a6123fe565b98505b505b8a5161187b906001600160c01b03891690611d12565b965050505050505b61188c81612441565b905061131c565b506001600160c01b03818116908416116118ae5760006118c1565b6118c16001600160c01b03841682611bad565b925050935093915050565b6000610fb783836001611df8565b6000816001600160c01b0316836001600160c01b0316106118fb5781610fb7565b5090919050565b600080826001600160c01b03161161191c5761191c61245c565b83515160005b81811015611ba357600087602001516001600160a01b031663a5a5828c88600001518481518110611955576119556123e8565b60200260200101516040518263ffffffff1660e01b815260040161198891906001600160a01b0391909116815260200190565b60206040518083038186803b1580156119a057600080fd5b505afa1580156119b4573d6000803e3d6000fd5b505050506040513d601f19601f820116820180604052508101906119d89190612163565b90506001600160c01b0381166119ee5750611b93565b6000611a066001600160c01b038816838860026112ac565b9050600088602001518481518110611a2057611a206123e8565b60209081029190910101518a51604051632ac07b9560e11b81526001600160a01b039182166004820152911690635580f72a9060240160206040518083038186803b158015611a6e57600080fd5b505afa158015611a82573d6000803e3d6000fd5b505050506040513d601f19601f82011682018060405250810190611aa69190612163565b90506001600160c01b038281169082161015611b8f57600089602001518581518110611ad457611ad46123e8565b60200260200101516001600160a01b031663a035b1fe6040518163ffffffff1660e01b8152600401604080518083038186803b158015611b1357600080fd5b505afa158015611b27573d6000803e3d6000fd5b505050506040513d601f19601f82011682018060405250810190611b4b9190612130565b9150611b8b9050611b7b826000611b6b6001600160c01b03881687611bad565b6001600160c01b03169190611df8565b6001600160c01b03891690611d12565b9650505b5050505b611b9c81612441565b9050611922565b5050949350505050565b6000610fb78284612472565b600080611bc7868686611e25565b90506000836002811115611bdd57611bdd612088565b1415611bea5790506112db565b60008480611bfa57611bfa61249a565b86880990506002846002811115611c1357611c13612088565b1415611c32578015611c2d57611c2a600183612429565b91505b611c5e565b6002611c3f6001876124b0565b611c4991906124c7565b811115611c5e57611c5b600183612429565b91505b5095945050505050565b600080611c7584866124c7565b90506000836002811115611c8b57611c8b612088565b1415611c98579050610fb7565b6001836002811115611cac57611cac612088565b1415611cec576002611cbf6001866124b0565b611cc991906124c7565b611cd385876124db565b1115611ce75780611ce381612441565b9150505b610fb4565b6000611cf885876124db565b1115610fb45780611d0881612441565b9695505050505050565b6000610fb782846123fe565b6000816001600160c01b0316836001600160c01b0316116118fb5781610fb7565b6000611d61611d4e8385611f08565b6001600160c01b03908116908616101590565b80156112d857506001611dee866001600160a01b0316633cb5d3796040518163ffffffff1660e01b815260040160206040518083038186803b158015611da657600080fd5b505afa158015611dba573d6000803e3d6000fd5b505050506040513d601f19601f82011682018060405250810190611dde91906124ef565b6001600160c01b03871690611f57565b1195945050505050565b6000610fb4610439611e166001600160c01b038087169088166123c9565b670de0b6b3a764000085611c68565b6000806000611e348686611f65565b91509150838210611e585760405163f44398f560e01b815260040160405180910390fd5b60008480611e6857611e6861249a565b868809905081811115611e7c576001830392505b908190039060008590038516808681611e9757611e9761249a565b049550808381611ea957611ea961249a565b049250808160000381611ebe57611ebe61249a565b046001019390930291909101600285810380870282030280870282030280870282030280870282030280870282030280870282030295860290039094029390930295945050505050565b6000806001600160c01b03831615611f3457611f2f6001600160c01b0385168460016112e3565b611f3d565b6001600160c01b035b90506000816001600160c01b031611610fb75760016112db565b6000610fb783836000611f92565b6000808060001984860990508385029150818103925081811015611f8a576001830392505b509250929050565b60006001600160c01b038416611faa57506000610fb7565b6029198360000b13611fe3576002826002811115611fca57611fca612088565b14611fd6576000611fd9565b60015b60ff169050610fb7565b8260000b6060136120075760405163f44398f560e01b815260040160405180910390fd5b612012601284612512565b925060006120228460000b612070565b61202d90600a61262f565b905060008460000b12156120545761204f856001600160c01b03168285611c68565b612067565b612067816001600160c01b0387166123c9565b95945050505050565b600080821261207f578161043e565b61043e8261263b565b634e487b7160e01b600052602160045260246000fd5b60208101600383106120c057634e487b7160e01b600052602160045260246000fd5b91905290565b6001600160a01b03811681146120db57600080fd5b50565b6000602082840312156120f057600080fd5b8135610fb7816120c6565b60006020828403121561210d57600080fd5b5051919050565b80516001600160c01b038116811461212b57600080fd5b919050565b6000806040838503121561214357600080fd5b61214c83612114565b915061215a60208401612114565b90509250929050565b60006020828403121561217557600080fd5b610fb782612114565b60006020828403121561219057600080fd5b81518015158114610fb757600080fd5b6000602082840312156121b257600080fd5b8151610fb7816120c6565b634e487b7160e01b600052604160045260246000fd5b6040805190810167ffffffffffffffff811182821017156121f6576121f66121bd565b60405290565b604051601f8201601f1916810167ffffffffffffffff81118282101715612225576122256121bd565b604052919050565b600067ffffffffffffffff821115612247576122476121bd565b5060051b60200190565b600082601f83011261226257600080fd5b815160206122776122728361222d565b6121fc565b82815260059290921b8401810191818101908684111561229657600080fd5b8286015b848110156122ba5780516122ad816120c6565b835291830191830161229a565b509695505050505050565b600060208083850312156122d857600080fd5b825167ffffffffffffffff808211156122f057600080fd5b908401906040828703121561230457600080fd5b61230c6121d3565b82518281111561231b57600080fd5b8301601f8101881361232c57600080fd5b805161233a6122728261222d565b81815260059190911b8201860190868101908a83111561235957600080fd5b928701925b82841015612380578351612371816120c6565b8252928701929087019061235e565b8452505050828401518281111561239657600080fd5b6123a288828601612251565b948201949094529695505050505050565b634e487b7160e01b600052601160045260246000fd5b60008160001904831182151516156123e3576123e36123b3565b500290565b634e487b7160e01b600052603260045260246000fd5b60006001600160c01b03828116848216808303821115612420576124206123b3565b01949350505050565b6000821982111561243c5761243c6123b3565b500190565b6000600019821415612455576124556123b3565b5060010190565b634e487b7160e01b600052600160045260246000fd5b60006001600160c01b0383811690831681811015612492576124926123b3565b039392505050565b634e487b7160e01b600052601260045260246000fd5b6000828210156124c2576124c26123b3565b500390565b6000826124d6576124d661249a565b500490565b6000826124ea576124ea61249a565b500690565b60006020828403121561250157600080fd5b815160ff81168114610fb757600080fd5b600081810b83820b8281128015607f19830184121615612534576125346123b3565b81607f018313811615612549576125496123b3565b5090039392505050565b600181815b80851115611f8a578160001904821115612574576125746123b3565b8085161561258157918102915b93841c9390800290612558565b60008261259d5750600161043e565b816125aa5750600061043e565b81600181146125c057600281146125ca576125e6565b600191505061043e565b60ff8411156125db576125db6123b3565b50506001821b61043e565b5060208310610133831016604e8410600b8410161715612609575081810a61043e565b6126138383612553565b8060001904821115612627576126276123b3565b029392505050565b6000610fb7838361258e565b6000600160ff1b821415612651576126516123b3565b506000039056fea2646970667358221220c732d80c127bd5ea2205088cd379d919e9bf02b4bb91a81b5613b0904b917e8c64736f6c63430008090033",
  "linkReferences": {},
  "deployedLinkReferences": {}
}