{
  "_format": "hh-sol-artifact-1",
  "contractName": "CTokenSelfReferentialCollateral",
  "sourceName": "contracts/reserve/plugins/assets/CTokenSelfReferentialCollateral.sol",
  "abi": [
    {
      "inputs": [
        {
          "components": [
            {
              "internalType": "uint192",
              "name": "fallbackPrice",
              "type": "uint192"
            },
            {
              "internalType": "contract AggregatorV3Interface",
              "name": "chainlinkFeed",
              "type": "address"
            },
            {
              "internalType": "uint192",
              "name": "oracleError",
              "type": "uint192"
            },
            {
              "internalType": "contract IERC20Metadata",
              "name": "erc20",
              "type": "address"
            },
            {
              "internalType": "uint192",
              "name": "maxTradeVolume",
              "type": "uint192"
            },
            {
              "internalType": "uint48",
              "name": "oracleTimeout",
              "type": "uint48"
            },
            {
              "internalType": "bytes32",
              "name": "targetName",
              "type": "bytes32"
            },
            {
              "internalType": "uint192",
              "name": "defaultThreshold",
              "type": "uint192"
            },
            {
              "internalType": "uint256",
              "name": "delayUntilDefault",
              "type": "uint256"
            }
          ],
          "internalType": "struct CollateralConfig",
          "name": "config",
          "type": "tuple"
        },
        {
          "internalType": "uint8",
          "name": "referenceERC20Decimals_",
          "type": "uint8"
        },
        {
          "internalType": "contract IComptroller",
          "name": "comptroller_",
          "type": "address"
        }
      ],
      "stateMutability": "nonpayable",
      "type": "constructor"
    },
    {
      "inputs": [],
      "name": "StalePrice",
      "type": "error"
    },
    {
      "inputs": [],
      "name": "UIntOutOfBounds",
      "type": "error"
    },
    {
      "anonymous": false,
      "inputs": [
        {
          "indexed": true,
          "internalType": "enum CollateralStatus",
          "name": "oldStatus",
          "type": "uint8"
        },
        {
          "indexed": true,
          "internalType": "enum CollateralStatus",
          "name": "newStatus",
          "type": "uint8"
        }
      ],
      "name": "CollateralStatusChanged",
      "type": "event"
    },
    {
      "anonymous": false,
      "inputs": [
        {
          "indexed": true,
          "internalType": "contract IERC20",
          "name": "erc20",
          "type": "address"
        },
        {
          "indexed": true,
          "internalType": "uint256",
          "name": "amount",
          "type": "uint256"
        }
      ],
      "name": "RewardsClaimed",
      "type": "event"
    },
    {
      "inputs": [
        {
          "internalType": "address",
          "name": "account",
          "type": "address"
        }
      ],
      "name": "bal",
      "outputs": [
        {
          "internalType": "uint192",
          "name": "",
          "type": "uint192"
        }
      ],
      "stateMutability": "view",
      "type": "function"
    },
    {
      "inputs": [],
      "name": "chainlinkFeed",
      "outputs": [
        {
          "internalType": "contract AggregatorV3Interface",
          "name": "",
          "type": "address"
        }
      ],
      "stateMutability": "view",
      "type": "function"
    },
    {
      "inputs": [],
      "name": "claimRewards",
      "outputs": [],
      "stateMutability": "nonpayable",
      "type": "function"
    },
    {
      "inputs": [],
      "name": "comptroller",
      "outputs": [
        {
          "internalType": "contract IComptroller",
          "name": "",
          "type": "address"
        }
      ],
      "stateMutability": "view",
      "type": "function"
    },
    {
      "inputs": [],
      "name": "delayUntilDefault",
      "outputs": [
        {
          "internalType": "uint256",
          "name": "",
          "type": "uint256"
        }
      ],
      "stateMutability": "view",
      "type": "function"
    },
    {
      "inputs": [],
      "name": "erc20",
      "outputs": [
        {
          "internalType": "contract IERC20Metadata",
          "name": "",
          "type": "address"
        }
      ],
      "stateMutability": "view",
      "type": "function"
    },
    {
      "inputs": [],
      "name": "erc20Decimals",
      "outputs": [
        {
          "internalType": "uint8",
          "name": "",
          "type": "uint8"
        }
      ],
      "stateMutability": "view",
      "type": "function"
    },
    {
      "inputs": [],
      "name": "fallbackPrice",
      "outputs": [
        {
          "internalType": "uint192",
          "name": "",
          "type": "uint192"
        }
      ],
      "stateMutability": "view",
      "type": "function"
    },
    {
      "inputs": [],
      "name": "isCollateral",
      "outputs": [
        {
          "internalType": "bool",
          "name": "",
          "type": "bool"
        }
      ],
      "stateMutability": "pure",
      "type": "function"
    },
    {
      "inputs": [],
      "name": "maxTradeVolume",
      "outputs": [
        {
          "internalType": "uint192",
          "name": "",
          "type": "uint192"
        }
      ],
      "stateMutability": "view",
      "type": "function"
    },
    {
      "inputs": [],
      "name": "oracleError",
      "outputs": [
        {
          "internalType": "uint192",
          "name": "",
          "type": "uint192"
        }
      ],
      "stateMutability": "view",
      "type": "function"
    },
    {
      "inputs": [],
      "name": "oracleTimeout",
      "outputs": [
        {
          "internalType": "uint48",
          "name": "",
          "type": "uint48"
        }
      ],
      "stateMutability": "view",
      "type": "function"
    },
    {
      "inputs": [],
      "name": "pegBottom",
      "outputs": [
        {
          "internalType": "uint192",
          "name": "",
          "type": "uint192"
        }
      ],
      "stateMutability": "view",
      "type": "function"
    },
    {
      "inputs": [],
      "name": "pegTop",
      "outputs": [
        {
          "internalType": "uint192",
          "name": "",
          "type": "uint192"
        }
      ],
      "stateMutability": "view",
      "type": "function"
    },
    {
      "inputs": [],
      "name": "prevReferencePrice",
      "outputs": [
        {
          "internalType": "uint192",
          "name": "",
          "type": "uint192"
        }
      ],
      "stateMutability": "view",
      "type": "function"
    },
    {
      "inputs": [],
      "name": "price",
      "outputs": [
        {
          "internalType": "uint192",
          "name": "",
          "type": "uint192"
        },
        {
          "internalType": "uint192",
          "name": "",
          "type": "uint192"
        }
      ],
      "stateMutability": "view",
      "type": "function"
    },
    {
      "inputs": [],
      "name": "refPerTok",
      "outputs": [
        {
          "internalType": "uint192",
          "name": "",
          "type": "uint192"
        }
      ],
      "stateMutability": "view",
      "type": "function"
    },
    {
      "inputs": [],
      "name": "referenceERC20Decimals",
      "outputs": [
        {
          "internalType": "uint8",
          "name": "",
          "type": "uint8"
        }
      ],
      "stateMutability": "view",
      "type": "function"
    },
    {
      "inputs": [],
      "name": "refresh",
      "outputs": [],
      "stateMutability": "nonpayable",
      "type": "function"
    },
    {
      "inputs": [],
      "name": "status",
      "outputs": [
        {
          "internalType": "enum CollateralStatus",
          "name": "",
          "type": "uint8"
        }
      ],
      "stateMutability": "view",
      "type": "function"
    },
    {
      "inputs": [],
      "name": "targetName",
      "outputs": [
        {
          "internalType": "bytes32",
          "name": "",
          "type": "bytes32"
        }
      ],
      "stateMutability": "view",
      "type": "function"
    },
    {
      "inputs": [],
      "name": "targetPerRef",
      "outputs": [
        {
          "internalType": "uint192",
          "name": "",
          "type": "uint192"
        }
      ],
      "stateMutability": "view",
      "type": "function"
    },
    {
      "inputs": [],
      "name": "tryPrice",
      "outputs": [
        {
          "internalType": "uint192",
          "name": "low",
          "type": "uint192"
        },
        {
          "internalType": "uint192",
          "name": "high",
          "type": "uint192"
        },
        {
          "internalType": "uint192",
          "name": "pegPrice",
          "type": "uint192"
        }
      ],
      "stateMutability": "view",
      "type": "function"
    },
    {
      "inputs": [],
      "name": "whenDefault",
      "outputs": [
        {
          "internalType": "uint256",
          "name": "",
          "type": "uint256"
        }
      ],
      "stateMutability": "view",
      "type": "function"
    }
  ],
  "bytecode": "0x6102006040526000196001553480156200001857600080fd5b5060405162002539380380620025398339810160408190526200003b9162000975565b8280806000015181602001518260400151836060015184608001518560a001516000866001600160c01b031611620000ba5760405162461bcd60e51b815260206004820152601360248201527f66616c6c6261636b207072696365207a65726f0000000000000000000000000060448201526064015b60405180910390fd5b6001600160a01b038516620001125760405162461bcd60e51b815260206004820152601660248201527f6d697373696e6720636861696e6c696e6b2066656564000000000000000000006044820152606401620000b1565b6000846001600160c01b03161180156200013c5750670de0b6b3a76400006001600160c01b038516105b6200018a5760405162461bcd60e51b815260206004820152601960248201527f6f7261636c65206572726f72206f7574206f662072616e6765000000000000006044820152606401620000b1565b6001600160a01b038316620001d25760405162461bcd60e51b815260206004820152600d60248201526c06d697373696e6720657263323609c1b6044820152606401620000b1565b6000826001600160c01b0316116200022d5760405162461bcd60e51b815260206004820152601860248201527f696e76616c6964206d617820747261646520766f6c756d6500000000000000006044820152606401620000b1565b60008165ffffffffffff16116200027c5760405162461bcd60e51b81526020600482015260126024820152716f7261636c6554696d656f7574207a65726f60701b6044820152606401620000b1565b600080546001600160c01b0319166001600160c01b03888116919091179091556001600160a01b0386811660805290851661010052831660a08190526040805163313ce56760e01b8152905163313ce56791600480820192602092909190829003018186803b158015620002ef57600080fd5b505afa15801562000304573d6000803e3d6000fd5b505050506040513d601f19601f820116820180604052508101906200032a919062000a6b565b60ff1660c09081526001600160c01b0390921660e05265ffffffffffff1661012052850151151593506200039a925050505760405162461bcd60e51b81526020600482015260126024820152717461726765744e616d65206d697373696e6760701b6044820152606401620000b1565b60e08101516001600160c01b0316156200040557600081610100015111620004055760405162461bcd60e51b815260206004820152601660248201527f64656c6179556e74696c44656661756c74207a65726f000000000000000000006044820152606401620000b1565b60c081015161016052610100810151610140526000670de0b6b3a7640000905060006200044e8360e00151836001600160c01b0316620005d660201b62000b251790919060201c565b90506200045c818362000a9f565b6001600160c01b03166101805262000475818362000aca565b6001600160c01b039081166101a05260e085015116159250620004de9150505760405162461bcd60e51b815260206004820152601f60248201527f64656661756c74207468726573686f6c64206e6f7420737570706f72746564006044820152606401620000b1565b5060008260ff1611620005345760405162461bcd60e51b815260206004820152601e60248201527f7265666572656e63654552433230446563696d616c73206d697373696e6700006044820152606401620000b1565b6001600160a01b0381166200058c5760405162461bcd60e51b815260206004820152601360248201527f636f6d7074726f6c6c6572206d697373696e67000000000000000000000000006044820152606401620000b1565b60ff82166101c0526001600160a01b0381166101e052620005ac620005ef565b600280546001600160c01b0319166001600160c01b03929092169190911790555062000d81915050565b6000620005e683836001620006a2565b90505b92915050565b60008060a0516001600160a01b031663182df0f56040518163ffffffff1660e01b815260040160206040518083038186803b1580156200062e57600080fd5b505afa15801562000643573d6000803e3d6000fd5b505050506040513d601f19601f8201168201806040525081019062000669919062000af8565b9050600060126101c051600862000681919062000b12565b6200068d919062000b12565b90506200069b8282620006e4565b9250505090565b6000620006da620006d4620006c46001600160c01b0380871690881662000b59565b670de0b6b3a764000085620006f3565b620007b7565b90505b9392505050565b6000620005e6838383620007e6565b60008062000702848662000b91565b905060008360028111156200071b576200071b62000ba8565b14156200072a579050620006dd565b600183600281111562000741576200074162000ba8565b14156200078c5760026200075760018662000bbe565b62000763919062000b91565b6200076f858762000bd8565b1115620007865780620007828162000bef565b9150505b620006da565b60006200079a858762000bd8565b1115620006da5780620007ad8162000bef565b9695505050505050565b60006001600160c01b03821115620007e25760405163f44398f560e01b815260040160405180910390fd5b5090565b600083620007f757506000620006dd565b605f198360000b13620008375760028260028111156200081b576200081b62000ba8565b14620008295760006200082c565b60015b60ff169050620006dd565b8260000b6028136200085c5760405163f44398f560e01b815260040160405180910390fd5b6200086960128462000c0d565b925060006200087a84820b620008c3565b6200088790600a62000d53565b90506000808560000b1215620008aa57620008a4868386620006f3565b620008b6565b620008b6828762000b59565b9050620007ad81620007b7565b6000808212620008d45781620005e9565b620005e98262000d61565b60405161012081016001600160401b03811182821017156200091157634e487b7160e01b600052604160045260246000fd5b60405290565b80516001600160c01b03811681146200092f57600080fd5b919050565b80516001600160a01b03811681146200092f57600080fd5b805165ffffffffffff811681146200092f57600080fd5b805160ff811681146200092f57600080fd5b60008060008385036101608112156200098d57600080fd5b610120808212156200099e57600080fd5b620009a8620008df565b9150620009b58662000917565b8252620009c56020870162000934565b6020830152620009d86040870162000917565b6040830152620009eb6060870162000934565b6060830152620009fe6080870162000917565b608083015262000a1160a087016200094c565b60a083015260c086015160c083015262000a2e60e0870162000917565b60e083015261010080870151818401525081945062000a4f81870162000963565b9350505062000a62610140850162000934565b90509250925092565b60006020828403121562000a7e57600080fd5b620005e68262000963565b634e487b7160e01b600052601160045260246000fd5b60006001600160c01b038381169083168181101562000ac25762000ac262000a89565b039392505050565b60006001600160c01b0382811684821680830382111562000aef5762000aef62000a89565b01949350505050565b60006020828403121562000b0b57600080fd5b5051919050565b600081810b83820b8281128015607f1983018412161562000b375762000b3762000a89565b81607f01831381161562000b4f5762000b4f62000a89565b5090039392505050565b600081600019048311821515161562000b765762000b7662000a89565b500290565b634e487b7160e01b600052601260045260246000fd5b60008262000ba35762000ba362000b7b565b500490565b634e487b7160e01b600052602160045260246000fd5b60008282101562000bd35762000bd362000a89565b500390565b60008262000bea5762000bea62000b7b565b500690565b600060001982141562000c065762000c0662000a89565b5060010190565b60008160000b8360000b6000821282607f0382138115161562000c345762000c3462000a89565b82607f1903821281161562000c4d5762000c4d62000a89565b50019392505050565b600181815b8085111562000c9757816000190482111562000c7b5762000c7b62000a89565b8085161562000c8957918102915b93841c939080029062000c5b565b509250929050565b60008262000cb057506001620005e9565b8162000cbf57506000620005e9565b816001811462000cd8576002811462000ce35762000d03565b6001915050620005e9565b60ff84111562000cf75762000cf762000a89565b50506001821b620005e9565b5060208310610133831016604e8410600b841016171562000d28575081810a620005e9565b62000d34838362000c56565b806000190482111562000d4b5762000d4b62000a89565b029392505050565b6000620005e6838362000c9f565b6000600160ff1b82141562000d7a5762000d7a62000a89565b5060000390565b60805160a05160c05160e05161010051610120516101405161016051610180516101a0516101c0516101e0516116c462000e7560003960008181610200015281816104b201526105d601526000818161023f0152610a4401526000818161038e0152610e5b0152600081816103b50152610e1f0152600061046201526000818161043301526111b801526000818161035001526108090152600081816103dc0152818161084f0152610896015260006102f901526000818161019c015261079a0152600081816102660152818161071b015281816109aa0152610a890152600081816102bf01526107e701526116c46000f3fe608060405234801561001057600080fd5b50600436106101585760003560e01c8063a035b1fe116100c3578063c59b3d631161007c578063c59b3d63146103fe578063d9e8e6701461040d578063e28a1b861461041b578063e6a150531461042e578063f8ac93e814610455578063fdfd59171461045d57600080fd5b8063a035b1fe1461031b578063a7fa0faf14610343578063abfeece51461034b578063ae4e187514610389578063b94d8739146103b0578063c55f29d1146103d757600080fd5b806362b338681161011557806362b338681461023a578063785e9e86146102615780637d1ea137146102885780637dbdf1f5146102ba5780638b382ee7146102e157806395acc4ae146102f457600080fd5b8063200d2ed21461015d5780632dc866241461017b578063372500ab1461018d5780633cb5d379146101975780635580f72a146101d05780635fe3b567146101fb575b600080fd5b610165610484565b6040516101729190611251565b60405180910390f35b6001545b604051908152602001610172565b6101956104ae565b005b6101be7f000000000000000000000000000000000000000000000000000000000000000081565b60405160ff9091168152602001610172565b6101e36101de36600461128e565b6106f5565b6040516001600160c01b039091168152602001610172565b6102227f000000000000000000000000000000000000000000000000000000000000000081565b6040516001600160a01b039091168152602001610172565b6101be7f000000000000000000000000000000000000000000000000000000000000000081565b6102227f000000000000000000000000000000000000000000000000000000000000000081565b6102906107c9565b604080516001600160c01b0394851681529284166020840152921691810191909152606001610172565b6102227f000000000000000000000000000000000000000000000000000000000000000081565b6002546101e3906001600160c01b031681565b6101e37f000000000000000000000000000000000000000000000000000000000000000081565b6103236108de565b604080516001600160c01b03938416815292909116602083015201610172565b6101e36109a5565b6103727f000000000000000000000000000000000000000000000000000000000000000081565b60405165ffffffffffff9091168152602001610172565b6101e37f000000000000000000000000000000000000000000000000000000000000000081565b6101e37f000000000000000000000000000000000000000000000000000000000000000081565b6101e37f000000000000000000000000000000000000000000000000000000000000000081565b60405160018152602001610172565b670de0b6b3a76400006101e3565b6000546101e3906001600160c01b031681565b61017f7f000000000000000000000000000000000000000000000000000000000000000081565b610195610a87565b61017f7f000000000000000000000000000000000000000000000000000000000000000081565b600060001960015414156104985750600090565b4260015411156104a85750600190565b50600290565b60007f00000000000000000000000000000000000000000000000000000000000000006001600160a01b0316639d1b5a0a6040518163ffffffff1660e01b815260040160206040518083038186803b15801561050957600080fd5b505afa15801561051d573d6000803e3d6000fd5b505050506040513d601f19601f8201168201806040525081019061054191906112ab565b6040516370a0823160e01b81523060048201529091506000906001600160a01b038316906370a082319060240160206040518083038186803b15801561058657600080fd5b505afa15801561059a573d6000803e3d6000fd5b505050506040513d601f19601f820116820180604052508101906105be91906112c8565b6040516374d7814960e11b81523060048201529091507f00000000000000000000000000000000000000000000000000000000000000006001600160a01b03169063e9af029290602401600060405180830381600087803b15801561062257600080fd5b505af1158015610636573d6000803e3d6000fd5b50506040516370a0823160e01b81523060048201528392506001600160a01b03851691506370a082319060240160206040518083038186803b15801561067b57600080fd5b505afa15801561068f573d6000803e3d6000fd5b505050506040513d601f19601f820116820180604052508101906106b391906112c8565b6106bd91906112f7565b6040516001600160a01b038416907ffc30cddea38e2bf4d6ea7d3f9ed3b6ad7f176419f4963bd81318067a4aee73fe90600090a35050565b6040516370a0823160e01b81526001600160a01b0382811660048301526000916107c3917f000000000000000000000000000000000000000000000000000000000000000016906370a082319060240160206040518083038186803b15801561075d57600080fd5b505afa158015610771573d6000803e3d6000fd5b505050506040513d601f19601f8201168201806040525081019061079591906112c8565b6107be7f000000000000000000000000000000000000000000000000000000000000000061130e565b610b3a565b92915050565b60008060008061083c6107da6109a5565b61082d6001600160a01b037f0000000000000000000000000000000000000000000000000000000000000000167f0000000000000000000000000000000000000000000000000000000000000000610b48565b6001600160c01b031690610b25565b9050610883610873670de0b6b3a76400007f0000000000000000000000000000000000000000000000000000000000000000610cd7565b6001600160c01b03831690610ce3565b93506108cc6108ba670de0b6b3a76400007f0000000000000000000000000000000000000000000000000000000000000000610cf1565b6001600160c01b038316906002610cfd565b9394670de0b6b3a76400009350915050565b600080306001600160a01b0316637d1ea1376040518163ffffffff1660e01b815260040160606040518083038186803b15801561091a57600080fd5b505afa92505050801561094a575060408051601f3d908101601f191682019092526109479181019061134a565b60015b61099b573d808015610978576040519150601f19603f3d011682016040523d82523d6000602084013e61097d565b606091505b50805161098957600080fd5b506000926001600160c01b0392509050565b5090939092509050565b6000807f00000000000000000000000000000000000000000000000000000000000000006001600160a01b031663182df0f56040518163ffffffff1660e01b815260040160206040518083038186803b158015610a0157600080fd5b505afa158015610a15573d6000803e3d6000fd5b505050506040513d601f19601f82011682018060405250810190610a3991906112c8565b905060006012610a6a7f0000000000000000000000000000000000000000000000000000000000000000600861138d565b610a74919061138d565b9050610a808282610b3a565b9250505090565b7f00000000000000000000000000000000000000000000000000000000000000006001600160a01b031663bd6d894d6040518163ffffffff1660e01b8152600401602060405180830381600087803b158015610ae257600080fd5b505af1158015610af6573d6000803e3d6000fd5b505050506040513d601f19601f82011682018060405250810190610b1a91906112c8565b50610b23610d3d565b565b6000610b3383836001610f9c565b9392505050565b6000610b3383836000610fc9565b6000806000806000866001600160a01b031663feaf968c6040518163ffffffff1660e01b815260040160a06040518083038186803b158015610b8957600080fd5b505afa158015610b9d573d6000803e3d6000fd5b505050506040513d601f19601f82011682018060405250810190610bc191906113e8565b9450945050935093508160001480610bf057508369ffffffffffffffffffff168169ffffffffffffffffffff16105b15610c0e57604051630cd5fa0760e11b815260040160405180910390fd5b6000610c1a83426112f7565b90508665ffffffffffff168165ffffffffffff161115610c4d57604051630cd5fa0760e11b815260040160405180910390fd5b610ccb84896001600160a01b031663313ce5676040518163ffffffff1660e01b815260040160206040518083038186803b158015610c8a57600080fd5b505afa158015610c9e573d6000803e3d6000fd5b505050506040513d601f19601f82011682018060405250810190610cc29190611438565b6107be9061130e565b98975050505050505050565b6000610b33828461145b565b6000610b3383836000610cfd565b6000610b338284611486565b6000610d35610d30610d20670de0b6b3a76400006001600160c01b0388166114ae565b856001600160c01b031685611099565b611139565b949350505050565b6001544210610d4857565b6000610d52610484565b9050306001600160a01b0316637d1ea1376040518163ffffffff1660e01b815260040160606040518083038186803b158015610d8d57600080fd5b505afa925050508015610dbd575060408051601f3d908101601f19168201909252610dba9181019061134a565b60015b610e0c573d808015610deb576040519150601f19603f3d011682016040523d82523d6000602084013e610df0565b606091505b508051610dfc57600080fd5b610e066001611167565b50610ecb565b6001600160c01b0383161580610e5357507f00000000000000000000000000000000000000000000000000000000000000006001600160c01b0316816001600160c01b0316105b80610e8f57507f00000000000000000000000000000000000000000000000000000000000000006001600160c01b0316816001600160c01b0316115b15610ea357610e9e6001611167565b610ec7565b600080546001600160c01b0319166001600160c01b038516178155610ec790611167565b5050505b6000610ed56109a5565b6002549091506001600160c01b039081169082161015610ef957610ef96002611167565b600280546001600160c01b0319166001600160c01b0383161790556000610f1e610484565b9050806002811115610f3257610f3261123b565b836002811115610f4457610f4461123b565b14610f9757806002811115610f5b57610f5b61123b565b836002811115610f6d57610f6d61123b565b6040517f99cada7141db4d51b602b2e469ec310c78ffbba0eb05bc3e3e633f30672dea0290600090a35b505050565b6000610d35610d30610fba6001600160c01b038087169088166114ae565b670de0b6b3a764000085611099565b600083610fd857506000610b33565b605f198360000b13611011576002826002811115610ff857610ff861123b565b14611004576000611007565b60015b60ff169050610b33565b8260000b6028136110355760405163f44398f560e01b815260040160405180910390fd5b6110406012846114cd565b925060006110508460000b61120d565b61105b90600a6115f4565b90506000808560000b121561107a57611075868386611099565b611084565b61108482876114ae565b905061108f81611139565b9695505050505050565b6000806110a68486611616565b905060008360028111156110bc576110bc61123b565b14156110c9579050610b33565b60018360028111156110dd576110dd61123b565b141561111d5760026110f06001866112f7565b6110fa9190611616565b611104858761162a565b111561111857806111148161163e565b9150505b610d35565b6000611129858761162a565b1115610d35578061108f8161163e565b60006001600160c01b038211156111635760405163f44398f560e01b815260040160405180910390fd5b5090565b42600154116111735750565b60008160028111156111875761118761123b565b14156111965760001960015550565b60018160028111156111aa576111aa61123b565b14156111eb576111e56111dd7f000000000000000000000000000000000000000000000000000000000000000042611659565b600154611225565b60015550565b60028160028111156111ff576111ff61123b565b141561120a57426001555b50565b600080821261121c57816107c3565b6107c382611671565b60008183106112345781610b33565b5090919050565b634e487b7160e01b600052602160045260246000fd5b602081016003831061127357634e487b7160e01b600052602160045260246000fd5b91905290565b6001600160a01b038116811461120a57600080fd5b6000602082840312156112a057600080fd5b8135610b3381611279565b6000602082840312156112bd57600080fd5b8151610b3381611279565b6000602082840312156112da57600080fd5b5051919050565b634e487b7160e01b600052601160045260246000fd5b600082821015611309576113096112e1565b500390565b600081810b607f19811415611325576113256112e1565b60000392915050565b80516001600160c01b038116811461134557600080fd5b919050565b60008060006060848603121561135f57600080fd5b6113688461132e565b92506113766020850161132e565b91506113846040850161132e565b90509250925092565b600081810b83820b8281128015607f198301841216156113af576113af6112e1565b81607f0183138116156113c4576113c46112e1565b5090039392505050565b805169ffffffffffffffffffff8116811461134557600080fd5b600080600080600060a0868803121561140057600080fd5b611409866113ce565b945060208601519350604086015192506060860151915061142c608087016113ce565b90509295509295909350565b60006020828403121561144a57600080fd5b815160ff81168114610b3357600080fd5b60006001600160c01b0382811684821680830382111561147d5761147d6112e1565b01949350505050565b60006001600160c01b03838116908316818110156114a6576114a66112e1565b039392505050565b60008160001904831182151516156114c8576114c86112e1565b500290565b60008160000b8360000b6000821282607f038213811516156114f1576114f16112e1565b82607f19038212811615611507576115076112e1565b50019392505050565b600181815b8085111561154b578160001904821115611531576115316112e1565b8085161561153e57918102915b93841c9390800290611515565b509250929050565b600082611562575060016107c3565b8161156f575060006107c3565b8160018114611585576002811461158f576115ab565b60019150506107c3565b60ff8411156115a0576115a06112e1565b50506001821b6107c3565b5060208310610133831016604e8410600b84101617156115ce575081810a6107c3565b6115d88383611510565b80600019048211156115ec576115ec6112e1565b029392505050565b6000610b338383611553565b634e487b7160e01b600052601260045260246000fd5b60008261162557611625611600565b500490565b60008261163957611639611600565b500690565b6000600019821415611652576116526112e1565b5060010190565b6000821982111561166c5761166c6112e1565b500190565b6000600160ff1b821415611687576116876112e1565b506000039056fea264697066735822122022ce4a3b63b7e6773400739f29d33630bbc990662b98d715898bc39e55c785e164736f6c63430008090033",
  "linkReferences": {},
  "deployedLinkReferences": {}
}