{
  "_format": "hh-sol-artifact-1",
  "contractName": "FixedCallerMock",
  "sourceName": "contracts/reserve/libraries/test/FixedCallerMock.sol",
  "abi": [
    {
      "inputs": [],
      "name": "UIntOutOfBounds",
      "type": "error"
    },
    {
      "inputs": [
        {
          "internalType": "int256",
          "name": "x",
          "type": "int256"
        }
      ],
      "name": "abs_",
      "outputs": [
        {
          "internalType": "uint256",
          "name": "",
          "type": "uint256"
        }
      ],
      "stateMutability": "pure",
      "type": "function"
    },
    {
      "inputs": [
        {
          "internalType": "uint192",
          "name": "x",
          "type": "uint192"
        },
        {
          "internalType": "uint192",
          "name": "y",
          "type": "uint192"
        }
      ],
      "name": "div",
      "outputs": [
        {
          "internalType": "uint192",
          "name": "",
          "type": "uint192"
        }
      ],
      "stateMutability": "pure",
      "type": "function"
    },
    {
      "inputs": [
        {
          "internalType": "uint256",
          "name": "x",
          "type": "uint256"
        },
        {
          "internalType": "uint192",
          "name": "y",
          "type": "uint192"
        }
      ],
      "name": "divFix_",
      "outputs": [
        {
          "internalType": "uint192",
          "name": "",
          "type": "uint192"
        }
      ],
      "stateMutability": "pure",
      "type": "function"
    },
    {
      "inputs": [
        {
          "internalType": "uint192",
          "name": "x",
          "type": "uint192"
        },
        {
          "internalType": "uint192",
          "name": "y",
          "type": "uint192"
        },
        {
          "internalType": "enum RoundingMode",
          "name": "rnd",
          "type": "uint8"
        }
      ],
      "name": "divRnd",
      "outputs": [
        {
          "internalType": "uint192",
          "name": "",
          "type": "uint192"
        }
      ],
      "stateMutability": "pure",
      "type": "function"
    },
    {
      "inputs": [
        {
          "internalType": "uint256",
          "name": "n",
          "type": "uint256"
        },
        {
          "internalType": "uint256",
          "name": "d",
          "type": "uint256"
        },
        {
          "internalType": "enum RoundingMode",
          "name": "rnd",
          "type": "uint8"
        }
      ],
      "name": "divrnd_",
      "outputs": [
        {
          "internalType": "uint256",
          "name": "",
          "type": "uint256"
        }
      ],
      "stateMutability": "pure",
      "type": "function"
    },
    {
      "inputs": [
        {
          "internalType": "uint192",
          "name": "x",
          "type": "uint192"
        },
        {
          "internalType": "uint256",
          "name": "y",
          "type": "uint256"
        }
      ],
      "name": "divu",
      "outputs": [
        {
          "internalType": "uint192",
          "name": "",
          "type": "uint192"
        }
      ],
      "stateMutability": "pure",
      "type": "function"
    },
    {
      "inputs": [
        {
          "internalType": "uint192",
          "name": "x",
          "type": "uint192"
        },
        {
          "internalType": "uint256",
          "name": "y",
          "type": "uint256"
        },
        {
          "internalType": "enum RoundingMode",
          "name": "rnd",
          "type": "uint8"
        }
      ],
      "name": "divuRnd",
      "outputs": [
        {
          "internalType": "uint192",
          "name": "",
          "type": "uint192"
        }
      ],
      "stateMutability": "pure",
      "type": "function"
    },
    {
      "inputs": [
        {
          "internalType": "uint256",
          "name": "x",
          "type": "uint256"
        },
        {
          "internalType": "uint256",
          "name": "y",
          "type": "uint256"
        }
      ],
      "name": "divuu_",
      "outputs": [
        {
          "internalType": "uint256",
          "name": "",
          "type": "uint256"
        }
      ],
      "stateMutability": "pure",
      "type": "function"
    },
    {
      "inputs": [
        {
          "internalType": "uint192",
          "name": "x",
          "type": "uint192"
        },
        {
          "internalType": "uint192",
          "name": "y",
          "type": "uint192"
        }
      ],
      "name": "eq",
      "outputs": [
        {
          "internalType": "bool",
          "name": "",
          "type": "bool"
        }
      ],
      "stateMutability": "pure",
      "type": "function"
    },
    {
      "inputs": [
        {
          "internalType": "uint192",
          "name": "x",
          "type": "uint192"
        },
        {
          "internalType": "uint192",
          "name": "y",
          "type": "uint192"
        }
      ],
      "name": "fixMax_",
      "outputs": [
        {
          "internalType": "uint192",
          "name": "",
          "type": "uint192"
        }
      ],
      "stateMutability": "pure",
      "type": "function"
    },
    {
      "inputs": [
        {
          "internalType": "uint192",
          "name": "x",
          "type": "uint192"
        },
        {
          "internalType": "uint192",
          "name": "y",
          "type": "uint192"
        }
      ],
      "name": "fixMin_",
      "outputs": [
        {
          "internalType": "uint192",
          "name": "",
          "type": "uint192"
        }
      ],
      "stateMutability": "pure",
      "type": "function"
    },
    {
      "inputs": [
        {
          "internalType": "uint256",
          "name": "x",
          "type": "uint256"
        },
        {
          "internalType": "uint256",
          "name": "y",
          "type": "uint256"
        }
      ],
      "name": "fullMul_",
      "outputs": [
        {
          "internalType": "uint256",
          "name": "h",
          "type": "uint256"
        },
        {
          "internalType": "uint256",
          "name": "l",
          "type": "uint256"
        }
      ],
      "stateMutability": "pure",
      "type": "function"
    },
    {
      "inputs": [
        {
          "internalType": "uint192",
          "name": "x",
          "type": "uint192"
        },
        {
          "internalType": "uint192",
          "name": "y",
          "type": "uint192"
        }
      ],
      "name": "gt",
      "outputs": [
        {
          "internalType": "bool",
          "name": "",
          "type": "bool"
        }
      ],
      "stateMutability": "pure",
      "type": "function"
    },
    {
      "inputs": [
        {
          "internalType": "uint192",
          "name": "x",
          "type": "uint192"
        },
        {
          "internalType": "uint192",
          "name": "y",
          "type": "uint192"
        }
      ],
      "name": "gte",
      "outputs": [
        {
          "internalType": "bool",
          "name": "",
          "type": "bool"
        }
      ],
      "stateMutability": "pure",
      "type": "function"
    },
    {
      "inputs": [
        {
          "internalType": "uint192",
          "name": "x",
          "type": "uint192"
        },
        {
          "internalType": "uint192",
          "name": "y",
          "type": "uint192"
        }
      ],
      "name": "lt",
      "outputs": [
        {
          "internalType": "bool",
          "name": "",
          "type": "bool"
        }
      ],
      "stateMutability": "pure",
      "type": "function"
    },
    {
      "inputs": [
        {
          "internalType": "uint192",
          "name": "x",
          "type": "uint192"
        },
        {
          "internalType": "uint192",
          "name": "y",
          "type": "uint192"
        }
      ],
      "name": "lte",
      "outputs": [
        {
          "internalType": "bool",
          "name": "",
          "type": "bool"
        }
      ],
      "stateMutability": "pure",
      "type": "function"
    },
    {
      "inputs": [
        {
          "internalType": "uint192",
          "name": "x",
          "type": "uint192"
        },
        {
          "internalType": "uint192",
          "name": "y",
          "type": "uint192"
        }
      ],
      "name": "minus",
      "outputs": [
        {
          "internalType": "uint192",
          "name": "",
          "type": "uint192"
        }
      ],
      "stateMutability": "pure",
      "type": "function"
    },
    {
      "inputs": [
        {
          "internalType": "uint192",
          "name": "x",
          "type": "uint192"
        },
        {
          "internalType": "uint256",
          "name": "y",
          "type": "uint256"
        }
      ],
      "name": "minusu",
      "outputs": [
        {
          "internalType": "uint192",
          "name": "",
          "type": "uint192"
        }
      ],
      "stateMutability": "pure",
      "type": "function"
    },
    {
      "inputs": [
        {
          "internalType": "uint192",
          "name": "x",
          "type": "uint192"
        },
        {
          "internalType": "uint192",
          "name": "y",
          "type": "uint192"
        }
      ],
      "name": "mul",
      "outputs": [
        {
          "internalType": "uint192",
          "name": "",
          "type": "uint192"
        }
      ],
      "stateMutability": "pure",
      "type": "function"
    },
    {
      "inputs": [
        {
          "internalType": "uint192",
          "name": "x",
          "type": "uint192"
        },
        {
          "internalType": "uint192",
          "name": "y",
          "type": "uint192"
        },
        {
          "internalType": "uint192",
          "name": "z",
          "type": "uint192"
        }
      ],
      "name": "mulDiv",
      "outputs": [
        {
          "internalType": "uint192",
          "name": "",
          "type": "uint192"
        }
      ],
      "stateMutability": "pure",
      "type": "function"
    },
    {
      "inputs": [
        {
          "internalType": "uint256",
          "name": "x",
          "type": "uint256"
        },
        {
          "internalType": "uint256",
          "name": "y",
          "type": "uint256"
        },
        {
          "internalType": "uint256",
          "name": "z",
          "type": "uint256"
        },
        {
          "internalType": "enum RoundingMode",
          "name": "rnd",
          "type": "uint8"
        }
      ],
      "name": "mulDiv256Rnd_",
      "outputs": [
        {
          "internalType": "uint256",
          "name": "",
          "type": "uint256"
        }
      ],
      "stateMutability": "pure",
      "type": "function"
    },
    {
      "inputs": [
        {
          "internalType": "uint256",
          "name": "x",
          "type": "uint256"
        },
        {
          "internalType": "uint256",
          "name": "y",
          "type": "uint256"
        },
        {
          "internalType": "uint256",
          "name": "z",
          "type": "uint256"
        }
      ],
      "name": "mulDiv256_",
      "outputs": [
        {
          "internalType": "uint256",
          "name": "",
          "type": "uint256"
        }
      ],
      "stateMutability": "pure",
      "type": "function"
    },
    {
      "inputs": [
        {
          "internalType": "uint192",
          "name": "x",
          "type": "uint192"
        },
        {
          "internalType": "uint192",
          "name": "y",
          "type": "uint192"
        },
        {
          "internalType": "uint192",
          "name": "z",
          "type": "uint192"
        },
        {
          "internalType": "enum RoundingMode",
          "name": "rnd",
          "type": "uint8"
        }
      ],
      "name": "mulDivRnd",
      "outputs": [
        {
          "internalType": "uint192",
          "name": "",
          "type": "uint192"
        }
      ],
      "stateMutability": "pure",
      "type": "function"
    },
    {
      "inputs": [
        {
          "internalType": "uint192",
          "name": "x",
          "type": "uint192"
        },
        {
          "internalType": "uint192",
          "name": "y",
          "type": "uint192"
        },
        {
          "internalType": "enum RoundingMode",
          "name": "rnd",
          "type": "uint8"
        }
      ],
      "name": "mulRnd",
      "outputs": [
        {
          "internalType": "uint192",
          "name": "",
          "type": "uint192"
        }
      ],
      "stateMutability": "pure",
      "type": "function"
    },
    {
      "inputs": [
        {
          "internalType": "uint192",
          "name": "x",
          "type": "uint192"
        },
        {
          "internalType": "uint192",
          "name": "y",
          "type": "uint192"
        }
      ],
      "name": "mul_toUint",
      "outputs": [
        {
          "internalType": "uint256",
          "name": "",
          "type": "uint256"
        }
      ],
      "stateMutability": "pure",
      "type": "function"
    },
    {
      "inputs": [
        {
          "internalType": "uint192",
          "name": "x",
          "type": "uint192"
        },
        {
          "internalType": "uint192",
          "name": "y",
          "type": "uint192"
        },
        {
          "internalType": "enum RoundingMode",
          "name": "rnd",
          "type": "uint8"
        }
      ],
      "name": "mul_toUintRnd",
      "outputs": [
        {
          "internalType": "uint256",
          "name": "",
          "type": "uint256"
        }
      ],
      "stateMutability": "pure",
      "type": "function"
    },
    {
      "inputs": [
        {
          "internalType": "uint192",
          "name": "x",
          "type": "uint192"
        },
        {
          "internalType": "uint256",
          "name": "y",
          "type": "uint256"
        }
      ],
      "name": "mulu",
      "outputs": [
        {
          "internalType": "uint192",
          "name": "",
          "type": "uint192"
        }
      ],
      "stateMutability": "pure",
      "type": "function"
    },
    {
      "inputs": [
        {
          "internalType": "uint192",
          "name": "x",
          "type": "uint192"
        },
        {
          "internalType": "uint256",
          "name": "y",
          "type": "uint256"
        },
        {
          "internalType": "uint256",
          "name": "z",
          "type": "uint256"
        }
      ],
      "name": "muluDivu",
      "outputs": [
        {
          "internalType": "uint192",
          "name": "",
          "type": "uint192"
        }
      ],
      "stateMutability": "pure",
      "type": "function"
    },
    {
      "inputs": [
        {
          "internalType": "uint192",
          "name": "x",
          "type": "uint192"
        },
        {
          "internalType": "uint256",
          "name": "y",
          "type": "uint256"
        },
        {
          "internalType": "uint256",
          "name": "z",
          "type": "uint256"
        },
        {
          "internalType": "enum RoundingMode",
          "name": "rnd",
          "type": "uint8"
        }
      ],
      "name": "muluDivuRnd",
      "outputs": [
        {
          "internalType": "uint192",
          "name": "",
          "type": "uint192"
        }
      ],
      "stateMutability": "pure",
      "type": "function"
    },
    {
      "inputs": [
        {
          "internalType": "uint192",
          "name": "x",
          "type": "uint192"
        },
        {
          "internalType": "uint256",
          "name": "y",
          "type": "uint256"
        }
      ],
      "name": "mulu_toUint",
      "outputs": [
        {
          "internalType": "uint256",
          "name": "",
          "type": "uint256"
        }
      ],
      "stateMutability": "pure",
      "type": "function"
    },
    {
      "inputs": [
        {
          "internalType": "uint192",
          "name": "x",
          "type": "uint192"
        },
        {
          "internalType": "uint256",
          "name": "y",
          "type": "uint256"
        },
        {
          "internalType": "enum RoundingMode",
          "name": "rnd",
          "type": "uint8"
        }
      ],
      "name": "mulu_toUintRnd",
      "outputs": [
        {
          "internalType": "uint256",
          "name": "",
          "type": "uint256"
        }
      ],
      "stateMutability": "pure",
      "type": "function"
    },
    {
      "inputs": [
        {
          "internalType": "uint192",
          "name": "x",
          "type": "uint192"
        },
        {
          "internalType": "uint192",
          "name": "y",
          "type": "uint192"
        },
        {
          "internalType": "uint192",
          "name": "epsilon",
          "type": "uint192"
        }
      ],
      "name": "near",
      "outputs": [
        {
          "internalType": "bool",
          "name": "",
          "type": "bool"
        }
      ],
      "stateMutability": "pure",
      "type": "function"
    },
    {
      "inputs": [
        {
          "internalType": "uint192",
          "name": "x",
          "type": "uint192"
        },
        {
          "internalType": "uint192",
          "name": "y",
          "type": "uint192"
        }
      ],
      "name": "neq",
      "outputs": [
        {
          "internalType": "bool",
          "name": "",
          "type": "bool"
        }
      ],
      "stateMutability": "pure",
      "type": "function"
    },
    {
      "inputs": [
        {
          "internalType": "uint192",
          "name": "x",
          "type": "uint192"
        },
        {
          "internalType": "uint192",
          "name": "y",
          "type": "uint192"
        }
      ],
      "name": "plus",
      "outputs": [
        {
          "internalType": "uint192",
          "name": "",
          "type": "uint192"
        }
      ],
      "stateMutability": "pure",
      "type": "function"
    },
    {
      "inputs": [
        {
          "internalType": "uint192",
          "name": "x",
          "type": "uint192"
        },
        {
          "internalType": "uint256",
          "name": "y",
          "type": "uint256"
        }
      ],
      "name": "plusu",
      "outputs": [
        {
          "internalType": "uint192",
          "name": "",
          "type": "uint192"
        }
      ],
      "stateMutability": "pure",
      "type": "function"
    },
    {
      "inputs": [
        {
          "internalType": "uint192",
          "name": "x",
          "type": "uint192"
        },
        {
          "internalType": "uint48",
          "name": "y",
          "type": "uint48"
        }
      ],
      "name": "powu",
      "outputs": [
        {
          "internalType": "uint192",
          "name": "",
          "type": "uint192"
        }
      ],
      "stateMutability": "pure",
      "type": "function"
    },
    {
      "inputs": [
        {
          "internalType": "uint192",
          "name": "x",
          "type": "uint192"
        },
        {
          "internalType": "int8",
          "name": "decimals",
          "type": "int8"
        }
      ],
      "name": "shiftl",
      "outputs": [
        {
          "internalType": "uint192",
          "name": "",
          "type": "uint192"
        }
      ],
      "stateMutability": "pure",
      "type": "function"
    },
    {
      "inputs": [
        {
          "internalType": "uint192",
          "name": "x",
          "type": "uint192"
        },
        {
          "internalType": "int8",
          "name": "decimals",
          "type": "int8"
        },
        {
          "internalType": "enum RoundingMode",
          "name": "rnd",
          "type": "uint8"
        }
      ],
      "name": "shiftlRnd",
      "outputs": [
        {
          "internalType": "uint192",
          "name": "",
          "type": "uint192"
        }
      ],
      "stateMutability": "pure",
      "type": "function"
    },
    {
      "inputs": [
        {
          "internalType": "uint256",
          "name": "x",
          "type": "uint256"
        },
        {
          "internalType": "int8",
          "name": "d",
          "type": "int8"
        }
      ],
      "name": "shiftl_toFix_",
      "outputs": [
        {
          "internalType": "uint192",
          "name": "",
          "type": "uint192"
        }
      ],
      "stateMutability": "pure",
      "type": "function"
    },
    {
      "inputs": [
        {
          "internalType": "uint256",
          "name": "x",
          "type": "uint256"
        },
        {
          "internalType": "int8",
          "name": "d",
          "type": "int8"
        },
        {
          "internalType": "enum RoundingMode",
          "name": "rnd",
          "type": "uint8"
        }
      ],
      "name": "shiftl_toFix_Rnd",
      "outputs": [
        {
          "internalType": "uint192",
          "name": "",
          "type": "uint192"
        }
      ],
      "stateMutability": "pure",
      "type": "function"
    },
    {
      "inputs": [
        {
          "internalType": "uint192",
          "name": "x",
          "type": "uint192"
        },
        {
          "internalType": "int8",
          "name": "d",
          "type": "int8"
        }
      ],
      "name": "shiftl_toUint",
      "outputs": [
        {
          "internalType": "uint256",
          "name": "",
          "type": "uint256"
        }
      ],
      "stateMutability": "pure",
      "type": "function"
    },
    {
      "inputs": [
        {
          "internalType": "uint192",
          "name": "x",
          "type": "uint192"
        },
        {
          "internalType": "int8",
          "name": "d",
          "type": "int8"
        },
        {
          "internalType": "enum RoundingMode",
          "name": "rnd",
          "type": "uint8"
        }
      ],
      "name": "shiftl_toUintRnd",
      "outputs": [
        {
          "internalType": "uint256",
          "name": "",
          "type": "uint256"
        }
      ],
      "stateMutability": "pure",
      "type": "function"
    },
    {
      "inputs": [
        {
          "internalType": "uint256",
          "name": "x",
          "type": "uint256"
        }
      ],
      "name": "toFix_",
      "outputs": [
        {
          "internalType": "uint192",
          "name": "",
          "type": "uint192"
        }
      ],
      "stateMutability": "pure",
      "type": "function"
    },
    {
      "inputs": [
        {
          "internalType": "uint192",
          "name": "x",
          "type": "uint192"
        }
      ],
      "name": "toUint",
      "outputs": [
        {
          "internalType": "uint256",
          "name": "",
          "type": "uint256"
        }
      ],
      "stateMutability": "pure",
      "type": "function"
    },
    {
      "inputs": [
        {
          "internalType": "uint192",
          "name": "x",
          "type": "uint192"
        },
        {
          "internalType": "enum RoundingMode",
          "name": "rnd",
          "type": "uint8"
        }
      ],
      "name": "toUintRnd",
      "outputs": [
        {
          "internalType": "uint256",
          "name": "",
          "type": "uint256"
        }
      ],
      "stateMutability": "pure",
      "type": "function"
    }
  ],
  "bytecode": "0x608060405234801561001057600080fd5b50611a04806100206000396000f3fe608060405234801561001057600080fd5b506004361061027f5760003560e01c80636c165b161161015c578063bd4adc6b116100ce578063d7c4197711610087578063d7c41977146105b9578063e412c70c146105cc578063f09b0386146105df578063f6c98071146105f2578063f7b7435014610605578063fbe0d1621461061857600080fd5b8063bd4adc6b14610547578063c12506e31461055a578063c15ff53e1461056d578063c3f8a1ce14610580578063c4ac625814610593578063c74e0bc7146105a657600080fd5b8063995091d811610120578063995091d8146104d55780639efabaeb146104e8578063a68d3078146104fb578063b27e39901461050e578063b7294dfe14610521578063b789155a1461053457600080fd5b80636c165b161461046157806374f6dd8b146104745780637a040676146104875780638df712af1461049a578063950c7a5b146104ad57600080fd5b8063340b530b116101f55780635103946a116101b95780635103946a146103ef5780635427c3d514610402578063542eb06e146104155780635451d126146104285780635f5d0bff1461043b5780636a05e0b31461044e57600080fd5b8063340b530b146103905780633ac1e4f6146103a35780634881bbda146103b65780634a3b2840146103c95780634ec48a55146103dc57600080fd5b806325f544671161024757806325f544671461031e5780632734b9b6146103315780632886f2661461034457806332f9b99a14610357578063336d3cb51461036a57806333950b641461037d57600080fd5b80630c705f35146102845780630f506956146102b45780631651303a146102d7578063179a32de146102f8578063233b92641461030b575b600080fd5b6102976102923660046112fa565b61062b565b6040516001600160c01b0390911681526020015b60405180910390f35b6102c76102c23660046112fa565b610640565b60405190151581526020016102ab565b6102ea6102e536600461133c565b610657565b6040519081526020016102ab565b610297610306366004611378565b61066e565b610297610319366004611391565b610679565b61029761032c3660046113cb565b610686565b61029761033f3660046113f5565b610692565b6102976103523660046112fa565b61069f565b6102c76103653660046112fa565b6106ab565b6102ea6103783660046113cb565b6106c1565b6102ea61038b3660046112fa565b6106cd565b61029761039e3660046112fa565b6106d9565b6102c76103b1366004611391565b6106e5565b6102976103c43660046112fa565b6106f2565b6102976103d73660046113cb565b6106fe565b6102976103ea366004611428565b61070a565b6102ea6103fd36600461147c565b610723565b6102976104103660046114c8565b610730565b6102976104233660046113cb565b61073d565b61029761043636600461133c565b610749565b6102c76104493660046112fa565b610756565b6102c761045c3660046112fa565b61076d565b61029761046f3660046114f4565b610784565b61029761048236600461147c565b610792565b6102976104953660046112fa565b61079f565b6102ea6104a83660046114c8565b6107ab565b6104c06104bb36600461152f565b6107b8565b604080519283526020830191909152016102ab565b6102ea6104e3366004611551565b6107d0565b6102976104f636600461157b565b6107dc565b6102c76105093660046112fa565b6107e9565b6102ea61051c3660046115a0565b6107ff565b61029761052f3660046115cc565b61080c565b6102ea6105423660046115ef565b610818565b6102c76105553660046112fa565b610832565b6102ea610568366004611378565b610848565b6102ea61057b36600461152f565b610853565b6102ea61058e36600461160a565b61086f565b6102976105a1366004611551565b61088b565b6102ea6105b4366004611634565b610897565b6102976105c73660046113cb565b6108a4565b6102976105da36600461147c565b6108b0565b6102976105ed366004611660565b6108bd565b6102976106003660046112fa565b6108c9565b6102ea610613366004611683565b6108d5565b6102976106263660046116b7565b6108e3565b600061063783836108ef565b90505b92915050565b60006001600160c01b038083169084161115610637565b6000610664848484610917565b90505b9392505050565b600061063a82610936565b6000610664848484610952565b60006106378383610961565b6000610664848484610979565b60006106378383610988565b60006001600160c01b0380841690831614610637565b60006106378383610996565b600061063783836109b4565b600061063783836109db565b60006106648484846109fc565b60006106378383610a4a565b60006106378383610a56565b600061071885858585610a80565b90505b949350505050565b6000610664848484610aac565b6000610664848484610ad4565b60006106378383610ba4565b6000610664848484610bae565b60006001600160c01b038083169084161015610637565b60006001600160c01b038084169083161415610637565b600061071885858585610bc7565b6000610664848484610be1565b60006106378383610c14565b6000610664848484610c22565b6000806107c58484610cd1565b915091509250929050565b60006106378383610cfe565b6000610664848484610d0c565b60006001600160c01b0380831690841610610637565b6000610664848484610db6565b60006106378383610e99565b600061082382610ea7565b6001600160881b031692915050565b60006001600160c01b0380831690841611610637565b600061063a82610eb4565b600061085f8383610ecc565b6001600160c01b03169392505050565b600061087b8383610ee4565b6001600160881b03169392505050565b60006106378383610f02565b6000610664848484610f10565b60006106378383610fb0565b6000610664848484610fda565b60006106378383611007565b60006106378383611085565b600061071885858585611091565b60006106378383611140565b6000816001600160c01b0316836001600160c01b0316106109105781610637565b5090919050565b60006106646001600160c01b03851684670de0b6b3a764000085611091565b600061063a61094d670de0b6b3a76400008461170f565b6112b0565b60006106648484846000610a80565b600061063761094d836001600160c01b03861661170f565b60006106648484846000610bc7565b600061063783836001610fda565b60006106376001600160c01b03841683670de0b6b3a7640000610db6565b60006106376001600160c01b038085169084166a0c097ce7bc90715b34b9f160241b610db6565b6000816001600160c01b0316836001600160c01b0316116109105781610637565b600080836001600160c01b0316856001600160c01b03161115610a2857610a23848661172e565b610a32565b610a32858561172e565b6001600160c01b038085169116109150509392505050565b60006106378284611756565b6000610637610a6d670de0b6b3a76400008461170f565b61094d906001600160c01b038616611781565b600061071861094d866001600160c01b0316866001600160c01b0316866001600160c01b031686611091565b60006106646001600160c01b038086169085166a0c097ce7bc90715b34b9f160241b85611091565b60006001600160c01b038416610aec57506000610667565b603a198360000b13610b265760025b826002811115610b0d57610b0d611798565b14610b19576000610b1c565b60015b60ff169050610667565b8260000b603a13610b4a5760405163f44398f560e01b815260040160405180910390fd5b6000610b588460000b610eb4565b610b6390600a61188a565b9050610b9b60008560000b1215610b885761094d866001600160c01b03168386610f10565b61094d826001600160c01b03881661170f565b95945050505050565b6000610637838360005b600061066461094d856001600160c01b03168585610f10565b600061071861094d866001600160c01b0316868686611091565b600061066461094d610c04670de0b6b3a76400006001600160c01b03881661170f565b856001600160c01b031685610f10565b600061063783836000610be1565b60006001600160c01b038416610c3a57506000610667565b6029198360000b13610c4d576002610afb565b8260000b606013610c715760405163f44398f560e01b815260040160405180910390fd5b610c7c601284611896565b92506000610c8c8460000b610eb4565b610c9790600a61188a565b905060008460000b1215610cbe57610cb9856001600160c01b03168285610f10565b610b9b565b610b9b816001600160c01b03871661170f565b6000808060001984860990508385029150818103925081811015610cf6576001830392505b509250929050565b600061063783836000610c22565b600083610d1b57506000610667565b605f198360000b13610d2e576002610afb565b8260000b602813610d525760405163f44398f560e01b815260040160405180910390fd5b610d5d6012846118ed565b92506000610d6d8460000b610eb4565b610d7890600a61188a565b90506000808560000b1215610d9757610d92868386610f10565b610da1565b610da1828761170f565b9050610dac816112b0565b9695505050505050565b6000806000610dc58686610cd1565b91509150838210610de95760405163f44398f560e01b815260040160405180910390fd5b60008480610df957610df96118d7565b868809905081811115610e0d576001830392505b908190039060008590038516808681610e2857610e286118d7565b049550808381610e3a57610e3a6118d7565b049250808160000381610e4f57610e4f6118d7565b046001019390930291909101600285810380870282030280870282030280870282030280870282030280870282030280870282030295860290039094029390930295945050505050565b600061063783836000610d0c565b600061063a826000610ee4565b6000808212610ec3578161063a565b61063a82611930565b600061063761094d670de0b6b3a76400008585610db6565b60006106376001600160c01b038416670de0b6b3a764000084610f10565b600061063783836000610ad4565b600080610f1d848661194d565b90506000836002811115610f3357610f33611798565b1415610f40579050610667565b6001836002811115610f5457610f54611798565b1415610f94576002610f67600186611781565b610f71919061194d565b610f7b8587611961565b1115610f8f5780610f8b81611975565b9150505b610664565b6000610fa08587611961565b11156106645780610dac81611975565b6000610637610fc7670de0b6b3a76400008461170f565b61094d906001600160c01b038616611990565b600061066461094d610ff86001600160c01b0380871690881661170f565b670de0b6b3a764000085610f10565b60006110236a0c097ce7bc90715b34b9f160241b60001961194d565b831015611060576110596001600160c01b03831661104f6a0c097ce7bc90715b34b9f160241b8661170f565b61094d919061194d565b905061063a565b61105961094d846a0c097ce7bc90715b34b9f160241b6001600160c01b038616610db6565b6000610637828461172e565b60008061109f868686610db6565b905060008360028111156110b5576110b5611798565b14156110c257905061071b565b600084806110d2576110d26118d7565b868809905060028460028111156110eb576110eb611798565b141561110a57801561110557611102600183611990565b91505b611136565b6002611117600187611781565b611121919061194d565b81111561113657611133600183611990565b91505b5095945050505050565b6000670de0b6b3a76400006001600160c01b038416111561116057600080fd5b8165ffffffffffff166001141561117857508161063a565b6001600160c01b038316670de0b6b3a7640000148061119d575065ffffffffffff8216155b156111b15750670de0b6b3a764000061063a565b60006111ce670de0b6b3a76400006001600160c01b03861661170f565b90506a0c097ce7bc90715b34b9f160241b5b6001808516141561122f576a0c097ce7bc90715b34b9f160241b6112056002826119a8565b6001600160801b0316611218848461170f565b6112229190611990565b61122c919061194d565b90505b60018465ffffffffffff16116112445761129b565b60019390931c657fffffffffff16926a0c097ce7bc90715b34b9f160241b61126d6002826119a8565b6001600160801b0316611280848061170f565b61128a9190611990565b611294919061194d565b91506111e0565b610b9b61094d670de0b6b3a76400008361194d565b60006001600160c01b038211156112da5760405163f44398f560e01b815260040160405180910390fd5b5090565b80356001600160c01b03811681146112f557600080fd5b919050565b6000806040838503121561130d57600080fd5b611316836112de565b9150611324602084016112de565b90509250929050565b8035600381106112f557600080fd5b60008060006060848603121561135157600080fd5b61135a846112de565b92506020840135915061136f6040850161132d565b90509250925092565b60006020828403121561138a57600080fd5b5035919050565b6000806000606084860312156113a657600080fd5b6113af846112de565b92506113bd602085016112de565b915061136f604085016112de565b600080604083850312156113de57600080fd5b6113e7836112de565b946020939093013593505050565b60008060006060848603121561140a57600080fd5b611413846112de565b95602085013595506040909401359392505050565b6000806000806080858703121561143e57600080fd5b611447856112de565b9350611455602086016112de565b9250611463604086016112de565b91506114716060860161132d565b905092959194509250565b60008060006060848603121561149157600080fd5b61149a846112de565b92506114a8602085016112de565b915061136f6040850161132d565b8035600081900b81146112f557600080fd5b6000806000606084860312156114dd57600080fd5b6114e6846112de565b92506114a8602085016114b6565b6000806000806080858703121561150a57600080fd5b611513856112de565b935060208501359250604085013591506114716060860161132d565b6000806040838503121561154257600080fd5b50508035926020909101359150565b6000806040838503121561156457600080fd5b61156d836112de565b9150611324602084016114b6565b60008060006060848603121561159057600080fd5b833592506114a8602085016114b6565b6000806000606084860312156115b557600080fd5b505081359360208301359350604090920135919050565b600080604083850312156115df57600080fd5b82359150611324602084016114b6565b60006020828403121561160157600080fd5b610637826112de565b6000806040838503121561161d57600080fd5b611626836112de565b91506113246020840161132d565b60008060006060848603121561164957600080fd5b833592506020840135915061136f6040850161132d565b6000806040838503121561167357600080fd5b82359150611324602084016112de565b6000806000806080858703121561169957600080fd5b8435935060208501359250604085013591506114716060860161132d565b600080604083850312156116ca57600080fd5b6116d3836112de565b9150602083013565ffffffffffff811681146116ee57600080fd5b809150509250929050565b634e487b7160e01b600052601160045260246000fd5b6000816000190483118215151615611729576117296116f9565b500290565b60006001600160c01b038381169083168181101561174e5761174e6116f9565b039392505050565b60006001600160c01b03828116848216808303821115611778576117786116f9565b01949350505050565b600082821015611793576117936116f9565b500390565b634e487b7160e01b600052602160045260246000fd5b600181815b80851115610cf65781600019048211156117cf576117cf6116f9565b808516156117dc57918102915b93841c93908002906117b3565b6000826117f85750600161063a565b816118055750600061063a565b816001811461181b576002811461182557611841565b600191505061063a565b60ff841115611836576118366116f9565b50506001821b61063a565b5060208310610133831016604e8410600b8410161715611864575081810a61063a565b61186e83836117ae565b8060001904821115611882576118826116f9565b029392505050565b600061063783836117e9565b600081810b83820b8281128015607f198301841216156118b8576118b86116f9565b81607f0183138116156118cd576118cd6116f9565b5090039392505050565b634e487b7160e01b600052601260045260246000fd5b60008160000b8360000b6000821282607f03821381151615611911576119116116f9565b82607f19038212811615611927576119276116f9565b50019392505050565b6000600160ff1b821415611946576119466116f9565b5060000390565b60008261195c5761195c6118d7565b500490565b600082611970576119706118d7565b500690565b6000600019821415611989576119896116f9565b5060010190565b600082198211156119a3576119a36116f9565b500190565b60006001600160801b03808416806119c2576119c26118d7565b9216919091049291505056fea2646970667358221220a7116ddb209d933878719d55546d32da15d3d86a007e64697d715cebee4e64a664736f6c63430008090033",
  "linkReferences": {},
  "deployedLinkReferences": {}
}