{
  "_format": "hh-sol-artifact-1",
  "contractName": "FacadeWrite",
  "sourceName": "contracts/reserve/facade/FacadeWrite.sol",
  "abi": [
    {
      "inputs": [
        {
          "internalType": "contract IDeployer",
          "name": "deployer_",
          "type": "address"
        }
      ],
      "stateMutability": "nonpayable",
      "type": "constructor"
    },
    {
      "anonymous": false,
      "inputs": [
        {
          "indexed": true,
          "internalType": "contract IRToken",
          "name": "rToken",
          "type": "address"
        },
        {
          "indexed": true,
          "internalType": "address",
          "name": "governance",
          "type": "address"
        },
        {
          "indexed": true,
          "internalType": "address",
          "name": "timelock",
          "type": "address"
        }
      ],
      "name": "GovernanceCreated",
      "type": "event"
    },
    {
      "inputs": [
        {
          "components": [
            {
              "internalType": "string",
              "name": "name",
              "type": "string"
            },
            {
              "internalType": "string",
              "name": "symbol",
              "type": "string"
            },
            {
              "internalType": "string",
              "name": "mandate",
              "type": "string"
            },
            {
              "components": [
                {
                  "components": [
                    {
                      "internalType": "uint16",
                      "name": "rTokenDist",
                      "type": "uint16"
                    },
                    {
                      "internalType": "uint16",
                      "name": "rsrDist",
                      "type": "uint16"
                    }
                  ],
                  "internalType": "struct RevenueShare",
                  "name": "dist",
                  "type": "tuple"
                },
                {
                  "internalType": "uint192",
                  "name": "minTradeVolume",
                  "type": "uint192"
                },
                {
                  "internalType": "uint192",
                  "name": "rTokenMaxTradeVolume",
                  "type": "uint192"
                },
                {
                  "internalType": "uint48",
                  "name": "shortFreeze",
                  "type": "uint48"
                },
                {
                  "internalType": "uint48",
                  "name": "longFreeze",
                  "type": "uint48"
                },
                {
                  "internalType": "uint192",
                  "name": "rewardRatio",
                  "type": "uint192"
                },
                {
                  "internalType": "uint48",
                  "name": "rewardPeriod",
                  "type": "uint48"
                },
                {
                  "internalType": "uint48",
                  "name": "unstakingDelay",
                  "type": "uint48"
                },
                {
                  "internalType": "uint48",
                  "name": "tradingDelay",
                  "type": "uint48"
                },
                {
                  "internalType": "uint48",
                  "name": "auctionLength",
                  "type": "uint48"
                },
                {
                  "internalType": "uint192",
                  "name": "backingBuffer",
                  "type": "uint192"
                },
                {
                  "internalType": "uint192",
                  "name": "maxTradeSlippage",
                  "type": "uint192"
                },
                {
                  "internalType": "uint192",
                  "name": "issuanceRate",
                  "type": "uint192"
                },
                {
                  "internalType": "uint192",
                  "name": "scalingRedemptionRate",
                  "type": "uint192"
                },
                {
                  "internalType": "uint256",
                  "name": "redemptionRateFloor",
                  "type": "uint256"
                }
              ],
              "internalType": "struct DeploymentParams",
              "name": "params",
              "type": "tuple"
            }
          ],
          "internalType": "struct ConfigurationParams",
          "name": "config",
          "type": "tuple"
        },
        {
          "components": [
            {
              "internalType": "contract IAsset[]",
              "name": "assets",
              "type": "address[]"
            },
            {
              "internalType": "contract ICollateral[]",
              "name": "primaryBasket",
              "type": "address[]"
            },
            {
              "internalType": "uint192[]",
              "name": "weights",
              "type": "uint192[]"
            },
            {
              "components": [
                {
                  "internalType": "bytes32",
                  "name": "backupUnit",
                  "type": "bytes32"
                },
                {
                  "internalType": "uint256",
                  "name": "diversityFactor",
                  "type": "uint256"
                },
                {
                  "internalType": "contract ICollateral[]",
                  "name": "backupCollateral",
                  "type": "address[]"
                }
              ],
              "internalType": "struct BackupInfo[]",
              "name": "backups",
              "type": "tuple[]"
            },
            {
              "components": [
                {
                  "internalType": "address",
                  "name": "beneficiary",
                  "type": "address"
                },
                {
                  "components": [
                    {
                      "internalType": "uint16",
                      "name": "rTokenDist",
                      "type": "uint16"
                    },
                    {
                      "internalType": "uint16",
                      "name": "rsrDist",
                      "type": "uint16"
                    }
                  ],
                  "internalType": "struct RevenueShare",
                  "name": "revShare",
                  "type": "tuple"
                }
              ],
              "internalType": "struct BeneficiaryInfo[]",
              "name": "beneficiaries",
              "type": "tuple[]"
            }
          ],
          "internalType": "struct SetupParams",
          "name": "setup",
          "type": "tuple"
        }
      ],
      "name": "deployRToken",
      "outputs": [
        {
          "internalType": "address",
          "name": "",
          "type": "address"
        }
      ],
      "stateMutability": "nonpayable",
      "type": "function"
    },
    {
      "inputs": [],
      "name": "deployer",
      "outputs": [
        {
          "internalType": "contract IDeployer",
          "name": "",
          "type": "address"
        }
      ],
      "stateMutability": "view",
      "type": "function"
    },
    {
      "inputs": [
        {
          "internalType": "contract IRToken",
          "name": "rToken",
          "type": "address"
        },
        {
          "internalType": "bool",
          "name": "deployGovernance",
          "type": "bool"
        },
        {
          "internalType": "bool",
          "name": "unpause",
          "type": "bool"
        },
        {
          "components": [
            {
              "internalType": "uint256",
              "name": "votingDelay",
              "type": "uint256"
            },
            {
              "internalType": "uint256",
              "name": "votingPeriod",
              "type": "uint256"
            },
            {
              "internalType": "uint256",
              "name": "proposalThresholdAsMicroPercent",
              "type": "uint256"
            },
            {
              "internalType": "uint256",
              "name": "quorumPercent",
              "type": "uint256"
            },
            {
              "internalType": "uint256",
              "name": "timelockDelay",
              "type": "uint256"
            }
          ],
          "internalType": "struct GovernanceParams",
          "name": "govParams",
          "type": "tuple"
        },
        {
          "internalType": "address",
          "name": "owner",
          "type": "address"
        },
        {
          "internalType": "address",
          "name": "guardian",
          "type": "address"
        },
        {
          "internalType": "address",
          "name": "pauser",
          "type": "address"
        }
      ],
      "name": "setupGovernance",
      "outputs": [
        {
          "internalType": "address",
          "name": "newOwner",
          "type": "address"
        }
      ],
      "stateMutability": "nonpayable",
      "type": "function"
    }
  ],
  "bytecode": "0x60a06040523480156200001157600080fd5b5060405162004e3c38038062004e3c833981016040819052620000349162000093565b6001600160a01b038116620000815760405162461bcd60e51b815260206004820152600f60248201526e696e76616c6964206164647265737360881b604482015260640160405180910390fd5b6001600160a01b0316608052620000c5565b600060208284031215620000a657600080fd5b81516001600160a01b0381168114620000be57600080fd5b9392505050565b608051614d55620000e760003960008181609b01526113cf0152614d556000f3fe60806040523480156200001157600080fd5b5060043610620000465760003560e01c80635c2d92e5146200004b578063753dc35a146200007e578063d5f394881462000095575b600080fd5b620000626200005c36600462002274565b620000bd565b6040516001600160a01b03909116815260200160405180910390f35b620000626200008f3660046200231c565b620010f3565b620000627f000000000000000000000000000000000000000000000000000000000000000081565b600080886001600160a01b031663dffeadd06040518163ffffffff1660e01b815260040160206040518083038186803b158015620000fa57600080fd5b505afa1580156200010f573d6000803e3d6000fd5b505050506040513d601f19601f820116820180604052508101906200013591906200238f565b9050806001600160a01b03166391d148546040518060400160405280600581526020016427aba722a960d91b8152506200016f90620023b6565b306040518363ffffffff1660e01b81526004016200018f929190620023db565b60206040518083038186803b158015620001a857600080fd5b505afa158015620001bd573d6000803e3d6000fd5b505050506040513d601f19601f82011682018060405250810190620001e39190620023f2565b620002355760405162461bcd60e51b815260206004820152601d60248201527f6f776e65727368697020616c7265616479207472616e7366657272656400000060448201526064015b60405180910390fd5b806001600160a01b03166391d148546040518060400160405280600581526020016427aba722a960d91b8152506200026d90620023b6565b336040518363ffffffff1660e01b81526004016200028d929190620023db565b60206040518083038186803b158015620002a657600080fd5b505afa158015620002bb573d6000803e3d6000fd5b505050506040513d601f19601f82011682018060405250810190620002e19190620023f2565b620003265760405162461bcd60e51b81526020600482015260146024820152733737ba1034b734ba34b0b6103232b83637bcb2b960611b60448201526064016200022c565b806001600160a01b031663d547741f6040518060400160405280600581526020016427aba722a960d91b8152506200035e90620023b6565b336040518363ffffffff1660e01b81526004016200037e929190620023db565b600060405180830381600087803b1580156200039957600080fd5b505af1158015620003ae573d6000803e3d6000fd5b50505050871562000957576001600160a01b038516156200040a5760405162461bcd60e51b81526020600482015260156024820152746f776e65722073686f756c6420626520656d70747960581b60448201526064016200022c565b6040805160008082526020820181815282840193849052909260808a01359291908490620004389062002225565b6200044794939291906200246e565b604051809103906000f08015801562000464573d6000803e3d6000fd5b509050600073__$b5e3e2eac3e7ecc569375f1c851610c4c3$__630c48221d846001600160a01b0316634780a5e56040518163ffffffff1660e01b815260040160206040518083038186803b158015620004bd57600080fd5b505afa158015620004d2573d6000803e3d6000fd5b505050506040513d601f19601f82011682018060405250810190620004f891906200238f565b604080516001600160e01b031960e085901b1681526001600160a01b03928316600482015291861660248301528b35604483015260208c013560648301528b0135608482015260608b013560a482015260c40160206040518083038186803b1580156200056457600080fd5b505af415801562000579573d6000803e3d6000fd5b505050506040513d601f19601f820116820180604052508101906200059f91906200238f565b9050816001600160a01b0316816001600160a01b03168c6001600160a01b03167f777419e2e4c706c5ea8f18b5292cc23249798ba28513b11080b97f44ca87fbd060405160405180910390a4816001600160a01b0316632f2ff15d836001600160a01b0316638f61f4f56040518163ffffffff1660e01b815260040160206040518083038186803b1580156200063457600080fd5b505afa15801562000649573d6000803e3d6000fd5b505050506040513d601f19601f820116820180604052508101906200066f9190620024b7565b836040518363ffffffff1660e01b81526004016200068f929190620023db565b600060405180830381600087803b158015620006aa57600080fd5b505af1158015620006bf573d6000803e3d6000fd5b50505050816001600160a01b0316632f2ff15d836001600160a01b031663b08e51c06040518163ffffffff1660e01b815260040160206040518083038186803b1580156200070c57600080fd5b505afa15801562000721573d6000803e3d6000fd5b505050506040513d601f19601f82011682018060405250810190620007479190620024b7565b886040518363ffffffff1660e01b815260040162000767929190620023db565b600060405180830381600087803b1580156200078257600080fd5b505af115801562000797573d6000803e3d6000fd5b50505050816001600160a01b0316632f2ff15d836001600160a01b03166307bd02656040518163ffffffff1660e01b815260040160206040518083038186803b158015620007e457600080fd5b505afa158015620007f9573d6000803e3d6000fd5b505050506040513d601f19601f820116820180604052508101906200081f9190620024b7565b60006040518363ffffffff1660e01b815260040162000840929190620023db565b600060405180830381600087803b1580156200085b57600080fd5b505af115801562000870573d6000803e3d6000fd5b50505050816001600160a01b031663d547741f836001600160a01b0316630d3cf6fc6040518163ffffffff1660e01b815260040160206040518083038186803b158015620008bd57600080fd5b505afa158015620008d2573d6000803e3d6000fd5b505050506040513d601f19601f82011682018060405250810190620008f89190620024b7565b306040518363ffffffff1660e01b815260040162000918929190620023db565b600060405180830381600087803b1580156200093357600080fd5b505af115801562000948573d6000803e3d6000fd5b505050508193505050620009a7565b6001600160a01b038516620009a35760405162461bcd60e51b81526020600482015260116024820152701bdddb995c881b9bdd081919599a5b9959607a1b60448201526064016200022c565b8491505b6001600160a01b0384161562000b6c57806001600160a01b0316632f2ff15d6040518060400160405280600d81526020016c29a427a92a2fa32922a2ad22a960991b815250620009f790620023b6565b866040518363ffffffff1660e01b815260040162000a17929190620023db565b600060405180830381600087803b15801562000a3257600080fd5b505af115801562000a47573d6000803e3d6000fd5b50505050806001600160a01b0316632f2ff15d6040518060400160405280600c81526020016b2627a723afa32922a2ad22a960a11b81525062000a8a90620023b6565b866040518363ffffffff1660e01b815260040162000aaa929190620023db565b600060405180830381600087803b15801562000ac557600080fd5b505af115801562000ada573d6000803e3d6000fd5b50505050806001600160a01b0316632f2ff15d604051806040016040528060068152602001652820aaa9a2a960d11b81525062000b1790620023b6565b866040518363ffffffff1660e01b815260040162000b37929190620023db565b600060405180830381600087803b15801562000b5257600080fd5b505af115801562000b67573d6000803e3d6000fd5b505050505b6001600160a01b0383161562000c0a57806001600160a01b0316632f2ff15d604051806040016040528060068152602001652820aaa9a2a960d11b81525062000bb590620023b6565b856040518363ffffffff1660e01b815260040162000bd5929190620023db565b600060405180830381600087803b15801562000bf057600080fd5b505af115801562000c05573d6000803e3d6000fd5b505050505b861562000c6757806001600160a01b0316633f4ba83a6040518163ffffffff1660e01b8152600401600060405180830381600087803b15801562000c4d57600080fd5b505af115801562000c62573d6000803e3d6000fd5b505050505b806001600160a01b0316632f2ff15d6040518060400160405280600581526020016427aba722a960d91b81525062000c9f90620023b6565b846040518363ffffffff1660e01b815260040162000cbf929190620023db565b600060405180830381600087803b15801562000cda57600080fd5b505af115801562000cef573d6000803e3d6000fd5b50505050806001600160a01b0316632f2ff15d6040518060400160405280600d81526020016c29a427a92a2fa32922a2ad22a960991b81525062000d3390620023b6565b846040518363ffffffff1660e01b815260040162000d53929190620023db565b600060405180830381600087803b15801562000d6e57600080fd5b505af115801562000d83573d6000803e3d6000fd5b50505050806001600160a01b0316632f2ff15d6040518060400160405280600c81526020016b2627a723afa32922a2ad22a960a11b81525062000dc690620023b6565b846040518363ffffffff1660e01b815260040162000de6929190620023db565b600060405180830381600087803b15801562000e0157600080fd5b505af115801562000e16573d6000803e3d6000fd5b50505050806001600160a01b0316632f2ff15d604051806040016040528060068152602001652820aaa9a2a960d11b81525062000e5390620023b6565b846040518363ffffffff1660e01b815260040162000e73929190620023db565b600060405180830381600087803b15801562000e8e57600080fd5b505af115801562000ea3573d6000803e3d6000fd5b50505050806001600160a01b03166336568abe6040518060400160405280600581526020016427aba722a960d91b81525062000edf90620023b6565b306040518363ffffffff1660e01b815260040162000eff929190620023db565b600060405180830381600087803b15801562000f1a57600080fd5b505af115801562000f2f573d6000803e3d6000fd5b50505050806001600160a01b03166336568abe6040518060400160405280600d81526020016c29a427a92a2fa32922a2ad22a960991b81525062000f7390620023b6565b306040518363ffffffff1660e01b815260040162000f93929190620023db565b600060405180830381600087803b15801562000fae57600080fd5b505af115801562000fc3573d6000803e3d6000fd5b50505050806001600160a01b03166336568abe6040518060400160405280600c81526020016b2627a723afa32922a2ad22a960a11b8152506200100690620023b6565b306040518363ffffffff1660e01b815260040162001026929190620023db565b600060405180830381600087803b1580156200104157600080fd5b505af115801562001056573d6000803e3d6000fd5b50505050806001600160a01b03166336568abe604051806040016040528060068152602001652820aaa9a2a960d11b8152506200109390620023b6565b306040518363ffffffff1660e01b8152600401620010b3929190620023db565b600060405180830381600087803b158015620010ce57600080fd5b505af1158015620010e3573d6000803e3d6000fd5b5050505050979650505050505050565b600080620011056020840184620024d1565b905011620011465760405162461bcd60e51b815260206004820152600d60248201526c1b9bc818dbdb1b185d195c985b609a1b60448201526064016200022c565b620011556040830183620024d1565b9050620011666020840184620024d1565b905014620011a85760405162461bcd60e51b815260206004820152600e60248201526d0d2dcecc2d8d2c840d8cadccee8d60931b60448201526064016200022c565b60005b620011ba6060840184620024d1565b905081101562001267576000620011d56060850185620024d1565b83818110620011e857620011e862002525565b9050602002810190620011fc91906200253b565b6200120c906040810190620024d1565b905011620012545760405162461bcd60e51b81526020600482015260146024820152731b9bc8189858dadd5c0818dbdb1b185d195c985b60621b60448201526064016200022c565b6200125f816200255c565b9050620011ab565b5060005b6200127a608084018462002586565b9050811015620013c257600062001295608085018562002586565b83818110620012a857620012a862002525565b620012c09260206060909202019081019150620025d2565b6001600160a01b0316141580156200136157506000620012e4608085018562002586565b83818110620012f757620012f762002525565b6200131292604060609092020190810191506020016200260a565b61ffff16118062001361575060006200132f608085018562002586565b8381811062001342576200134262002525565b6200135b9260609182020190810191506040016200260a565b61ffff16115b620013af5760405162461bcd60e51b815260206004820152601d60248201527f62656e6566696369617279207265765368617265206d69736d6174636800000060448201526064016200022c565b620013ba816200255c565b90506200126b565b5060006001600160a01b037f00000000000000000000000000000000000000000000000000000000000000001663db0a036962001400868062002628565b6200140f602089018962002628565b6200141e60408b018b62002628565b308c6060016040518963ffffffff1660e01b815260040162001448989796959493929190620026f6565b602060405180830381600087803b1580156200146357600080fd5b505af115801562001478573d6000803e3d6000fd5b505050506040513d601f19601f820116820180604052508101906200149e91906200238f565b90506000816001600160a01b031663dffeadd06040518163ffffffff1660e01b815260040160206040518083038186803b158015620014dc57600080fd5b505afa158015620014f1573d6000803e3d6000fd5b505050506040513d601f19601f820116820180604052508101906200151791906200238f565b90506000816001600160a01b031663979d7e866040518163ffffffff1660e01b815260040160206040518083038186803b1580156200155557600080fd5b505afa1580156200156a573d6000803e3d6000fd5b505050506040513d601f19601f820116820180604052508101906200159091906200238f565b90506000826001600160a01b031663dc8af5f66040518163ffffffff1660e01b815260040160206040518083038186803b158015620015ce57600080fd5b505afa158015620015e3573d6000803e3d6000fd5b505050506040513d601f19601f820116820180604052508101906200160991906200238f565b90506000836001600160a01b0316632f2439b16040518163ffffffff1660e01b815260040160206040518083038186803b1580156200164757600080fd5b505afa1580156200165c573d6000803e3d6000fd5b505050506040513d601f19601f820116820180604052508101906200168291906200238f565b905060005b620016938880620024d1565b905081101562001888576001600160a01b038416634420e486620016b88a80620024d1565b84818110620016cb57620016cb62002525565b9050602002016020810190620016e29190620025d2565b6040516001600160e01b031960e084901b1681526001600160a01b039091166004820152602401602060405180830381600087803b1580156200172457600080fd5b505af115801562001739573d6000803e3d6000fd5b505050506040513d601f19601f820116820180604052508101906200175f9190620023f2565b506001600160a01b0383166398026d946200177b8a80620024d1565b848181106200178e576200178e62002525565b9050602002016020810190620017a59190620025d2565b6001600160a01b031663785e9e866040518163ffffffff1660e01b815260040160206040518083038186803b158015620017de57600080fd5b505afa158015620017f3573d6000803e3d6000fd5b505050506040513d601f19601f820116820180604052508101906200181991906200238f565b6040516001600160e01b031960e084901b1681526001600160a01b039091166004820152602401600060405180830381600087803b1580156200185b57600080fd5b505af115801562001870573d6000803e3d6000fd5b505050508062001880906200255c565b905062001687565b5060006200189a6020890189620024d1565b905067ffffffffffffffff811115620018b757620018b762002412565b604051908082528060200260200182016040528015620018e1578160200160208202803683370190505b50905060005b620018f660208a018a620024d1565b905081101562001b0e576001600160a01b038516634420e4866200191e60208c018c620024d1565b8481811062001931576200193162002525565b9050602002016020810190620019489190620025d2565b6040516001600160e01b031960e084901b1681526001600160a01b039091166004820152602401602060405180830381600087803b1580156200198a57600080fd5b505af11580156200199f573d6000803e3d6000fd5b505050506040513d601f19601f82011682018060405250810190620019c59190620023f2565b506000620019d760208b018b620024d1565b83818110620019ea57620019ea62002525565b905060200201602081019062001a019190620025d2565b6001600160a01b031663785e9e866040518163ffffffff1660e01b815260040160206040518083038186803b15801562001a3a57600080fd5b505afa15801562001a4f573d6000803e3d6000fd5b505050506040513d601f19601f8201168201806040525081019062001a7591906200238f565b90508083838151811062001a8d5762001a8d62002525565b6001600160a01b0392831660209182029290920101526040516326009b6560e21b81528282166004820152908616906398026d9490602401600060405180830381600087803b15801562001ae057600080fd5b505af115801562001af5573d6000803e3d6000fd5b50505050508062001b06906200255c565b9050620018e7565b506001600160a01b03821663ef2b93378262001b2e60408c018c620024d1565b6040518463ffffffff1660e01b815260040162001b4e9392919062002949565b600060405180830381600087803b15801562001b6957600080fd5b505af115801562001b7e573d6000803e3d6000fd5b50505050816001600160a01b0316638a55015b6040518163ffffffff1660e01b8152600401600060405180830381600087803b15801562001bbe57600080fd5b505af115801562001bd3573d6000803e3d6000fd5b505050505060005b62001bea6060890189620024d1565b905081101562001fcb57600062001c0560608a018a620024d1565b8381811062001c185762001c1862002525565b905060200281019062001c2c91906200253b565b62001c3c906040810190620024d1565b905067ffffffffffffffff81111562001c595762001c5962002412565b60405190808252806020026020018201604052801562001c83578160200160208202803683370190505b50905060005b62001c9860608b018b620024d1565b8481811062001cab5762001cab62002525565b905060200281019062001cbf91906200253b565b62001ccf906040810190620024d1565b905081101562001ee057600062001cea60608c018c620024d1565b8581811062001cfd5762001cfd62002525565b905060200281019062001d1191906200253b565b62001d21906040810190620024d1565b8381811062001d345762001d3462002525565b905060200201602081019062001d4b9190620025d2565b604051632210724360e11b81526001600160a01b03808316600483015291925090881690634420e48690602401602060405180830381600087803b15801562001d9357600080fd5b505af115801562001da8573d6000803e3d6000fd5b505050506040513d601f19601f8201168201806040525081019062001dce9190620023f2565b506000816001600160a01b031663785e9e866040518163ffffffff1660e01b815260040160206040518083038186803b15801562001e0b57600080fd5b505afa15801562001e20573d6000803e3d6000fd5b505050506040513d601f19601f8201168201806040525081019062001e4691906200238f565b90508084848151811062001e5e5762001e5e62002525565b6001600160a01b0392831660209182029290920101526040516326009b6560e21b81528282166004820152908816906398026d9490602401600060405180830381600087803b15801562001eb157600080fd5b505af115801562001ec6573d6000803e3d6000fd5b5050505050508062001ed8906200255c565b905062001c89565b506001600160a01b03831663f11d464862001eff60608c018c620024d1565b8581811062001f125762001f1262002525565b905060200281019062001f2691906200253b565b3562001f3660608d018d620024d1565b8681811062001f495762001f4962002525565b905060200281019062001f5d91906200253b565b60200135846040518463ffffffff1660e01b815260040162001f8293929190620029b0565b600060405180830381600087803b15801562001f9d57600080fd5b505af115801562001fb2573d6000803e3d6000fd5b50505050508062001fc3906200255c565b905062001bdb565b5060005b62001fde608089018962002586565b90508110156200213757846001600160a01b031663bfe109286040518163ffffffff1660e01b815260040160206040518083038186803b1580156200202257600080fd5b505afa15801562002037573d6000803e3d6000fd5b505050506040513d601f19601f820116820180604052508101906200205d91906200238f565b6001600160a01b031663885944376200207a60808b018b62002586565b848181106200208d576200208d62002525565b620020a59260206060909202019081019150620025d2565b620020b460808c018c62002586565b85818110620020c757620020c762002525565b9050606002016020016040518363ffffffff1660e01b8152600401620020ef929190620029da565b600060405180830381600087803b1580156200210a57600080fd5b505af11580156200211f573d6000803e3d6000fd5b50505050806200212f906200255c565b905062001fcf565b50836001600160a01b0316638456cb596040518163ffffffff1660e01b8152600401600060405180830381600087803b1580156200217457600080fd5b505af115801562002189573d6000803e3d6000fd5b50505050836001600160a01b0316632f2ff15d6040518060400160405280600581526020016427aba722a960d91b815250620021c590620023b6565b336040518363ffffffff1660e01b8152600401620021e5929190620023db565b600060405180830381600087803b1580156200220057600080fd5b505af115801562002215573d6000803e3d6000fd5b50969a9950505050505050505050565b61232680620029fa83390190565b6001600160a01b03811681146200224957600080fd5b50565b80151581146200224957600080fd5b600060a082840312156200226e57600080fd5b50919050565b6000806000806000806000610160888a0312156200229157600080fd5b87356200229e8162002233565b96506020880135620022b0816200224c565b95506040880135620022c2816200224c565b9450620022d38960608a016200225b565b9350610100880135620022e68162002233565b9250610120880135620022f98162002233565b91506101408801356200230c8162002233565b8091505092959891949750929550565b600080604083850312156200233057600080fd5b823567ffffffffffffffff808211156200234957600080fd5b9084019061026082870312156200235f57600080fd5b909250602084013590808211156200237657600080fd5b5062002385858286016200225b565b9150509250929050565b600060208284031215620023a257600080fd5b8151620023af8162002233565b9392505050565b805160208083015191908110156200226e5760001960209190910360031b1b16919050565b9182526001600160a01b0316602082015260400190565b6000602082840312156200240557600080fd5b8151620023af816200224c565b634e487b7160e01b600052604160045260246000fd5b600081518084526020808501945080840160005b83811015620024635781516001600160a01b0316875295820195908201906001016200243c565b509495945050505050565b84815260806020820152600062002489608083018662002428565b82810360408401526200249d818662002428565b91505060018060a01b038316606083015295945050505050565b600060208284031215620024ca57600080fd5b5051919050565b6000808335601e19843603018112620024e957600080fd5b83018035915067ffffffffffffffff8211156200250557600080fd5b6020019150600581901b36038213156200251e57600080fd5b9250929050565b634e487b7160e01b600052603260045260246000fd5b60008235605e198336030181126200255257600080fd5b9190910192915050565b60006000198214156200257f57634e487b7160e01b600052601160045260246000fd5b5060010190565b6000808335601e198436030181126200259e57600080fd5b83018035915067ffffffffffffffff821115620025ba57600080fd5b60200191506060810236038213156200251e57600080fd5b600060208284031215620025e557600080fd5b8135620023af8162002233565b803561ffff811681146200260557600080fd5b919050565b6000602082840312156200261d57600080fd5b620023af82620025f2565b6000808335601e198436030181126200264057600080fd5b83018035915067ffffffffffffffff8211156200265c57600080fd5b6020019150368190038213156200251e57600080fd5b81835281816020850137506000828201602090810191909152601f909101601f19169091010190565b61ffff80620026aa83620025f2565b16835280620026bc60208401620025f2565b166020840152505050565b80356001600160c01b03811681146200260557600080fd5b803565ffffffffffff811681146200260557600080fd5b60006102808083526200270d8184018b8d62002672565b905082810360208401526200272481898b62002672565b905082810360408401526200273b81878962002672565b6001600160a01b038616606085015291506200275d905060808301846200269b565b6200276b60408401620026c7565b6001600160c01b031660c08301526200278760608401620026c7565b6001600160c01b031660e0830152620027a360808401620026df565b610100620027ba8185018365ffffffffffff169052565b620027c860a08601620026df565b9150610120620027e18186018465ffffffffffff169052565b620027ef60c08701620026c7565b925061014062002809818701856001600160c01b03169052565b6200281760e08801620026df565b9350610160620028308188018665ffffffffffff169052565b6200283d848901620026df565b94506101809350620028588488018665ffffffffffff169052565b62002865838901620026df565b94506101a09250620028808388018665ffffffffffff169052565b6200288d828901620026df565b94506101c09150620028a88288018665ffffffffffff169052565b620028b5818901620026c7565b9450506101e0620028d0818801866001600160c01b03169052565b620028dd848901620026c7565b6001600160c01b0381166102008901529450620028fc838901620026c7565b6001600160c01b03811661022089015294506200291b828901620026c7565b6001600160c01b03811661024089015294508088013561026088015250505050509998505050505050505050565b6040815260006200295e604083018662002428565b8281036020848101919091528482528591810160005b86811015620029a4576001600160c01b036200299085620026c7565b168252928201929082019060010162002974565b50979650505050505050565b838152826020820152606060408201526000620029d1606083018462002428565b95945050505050565b6001600160a01b038316815260608101620023af60208301846200269b56fe60806040523480156200001157600080fd5b506040516200232638038062002326833981016040819052620000349162000408565b6200004f600080516020620022a6833981519152806200022d565b62000079600080516020620022c6833981519152600080516020620022a68339815191526200022d565b620000a3600080516020620022e6833981519152600080516020620022a68339815191526200022d565b620000cd60008051602062002306833981519152600080516020620022a68339815191526200022d565b620000e8600080516020620022a68339815191523062000278565b6001600160a01b03811615620001135762000113600080516020620022a68339815191528262000278565b60005b835181101562000199576200015d600080516020620022c68339815191528583815181106200014957620001496200048f565b60200260200101516200027860201b60201c565b62000186600080516020620023068339815191528583815181106200014957620001496200048f565b6200019181620004a5565b905062000116565b5060005b8251811015620001e357620001d0600080516020620022e68339815191528483815181106200014957620001496200048f565b620001db81620004a5565b90506200019d565b5060028490556040805160008152602081018690527f11c24f4ead16507c69ac467fbd5e4eed5fb5c699626d2cc6d66421df253886d5910160405180910390a150505050620004cf565b600082815260208190526040808220600101805490849055905190918391839186917fbd79b86ffe0ab8e8776151514217cd7cacd52c909f66475c3af44e129f0b00ff9190a4505050565b62000284828262000288565b5050565b6000828152602081815260408083206001600160a01b038516845290915290205460ff1662000284576000828152602081815260408083206001600160a01b03851684529091529020805460ff19166001179055620002e43390565b6001600160a01b0316816001600160a01b0316837f2f8788117e7eff1d82e926ec794901d17c78024a50270940304540a733656f0d60405160405180910390a45050565b634e487b7160e01b600052604160045260246000fd5b80516001600160a01b03811681146200035657600080fd5b919050565b600082601f8301126200036d57600080fd5b815160206001600160401b03808311156200038c576200038c62000328565b8260051b604051601f19603f83011681018181108482111715620003b457620003b462000328565b604052938452858101830193838101925087851115620003d357600080fd5b83870191505b84821015620003fd57620003ed826200033e565b83529183019190830190620003d9565b979650505050505050565b600080600080608085870312156200041f57600080fd5b845160208601519094506001600160401b03808211156200043f57600080fd5b6200044d888389016200035b565b945060408701519150808211156200046457600080fd5b5062000473878288016200035b565b92505062000484606086016200033e565b905092959194509250565b634e487b7160e01b600052603260045260246000fd5b6000600019821415620004c857634e487b7160e01b600052601160045260246000fd5b5060010190565b611dc780620004df6000396000f3fe6080604052600436106101bb5760003560e01c80638065657f116100ec578063bc197c811161008a578063d547741f11610064578063d547741f14610582578063e38335e5146105a2578063f23a6e61146105b5578063f27a0c92146105e157600080fd5b8063bc197c8114610509578063c4d252f514610535578063d45c44351461055557600080fd5b806391d14854116100c657806391d1485414610480578063a217fddf146104a0578063b08e51c0146104b5578063b1c5f427146104e957600080fd5b80638065657f1461040c5780638f2a0bb01461042c5780638f61f4f51461044c57600080fd5b8063248a9ca31161015957806331d507501161013357806331d507501461038c57806336568abe146103ac578063584b153e146103cc57806364d62353146103ec57600080fd5b8063248a9ca31461030b5780632ab0f5291461033b5780632f2ff15d1461036c57600080fd5b80630d3cf6fc116101955780630d3cf6fc14610260578063134008d31461029457806313bc9f20146102a7578063150b7a02146102c757600080fd5b806301d5062a146101c757806301ffc9a7146101e957806307bd02651461021e57600080fd5b366101c257005b600080fd5b3480156101d357600080fd5b506101e76101e23660046113c0565b6105f6565b005b3480156101f557600080fd5b50610209610204366004611434565b61068b565b60405190151581526020015b60405180910390f35b34801561022a57600080fd5b506102527fd8aa0f3194971a2a116679f7c2090f6939c8d4e01a2a8d7e41d55e5351469e6381565b604051908152602001610215565b34801561026c57600080fd5b506102527f5f58e3a2316349923ce3780f8d587db2d72378aed66a8261c916544fa6846ca581565b6101e76102a236600461145e565b6106b6565b3480156102b357600080fd5b506102096102c23660046114c9565b61076b565b3480156102d357600080fd5b506102f26102e2366004611597565b630a85bd0160e11b949350505050565b6040516001600160e01b03199091168152602001610215565b34801561031757600080fd5b506102526103263660046114c9565b60009081526020819052604090206001015490565b34801561034757600080fd5b506102096103563660046114c9565b6000908152600160208190526040909120541490565b34801561037857600080fd5b506101e76103873660046115fe565b610791565b34801561039857600080fd5b506102096103a73660046114c9565b6107bb565b3480156103b857600080fd5b506101e76103c73660046115fe565b6107d4565b3480156103d857600080fd5b506102096103e73660046114c9565b610857565b3480156103f857600080fd5b506101e76104073660046114c9565b61086d565b34801561041857600080fd5b5061025261042736600461145e565b610911565b34801561043857600080fd5b506101e761044736600461166e565b610950565b34801561045857600080fd5b506102527fb09aa5aeb3702cfd50b6b62bc4532604938f21248a27a1d5ca736082b6819cc181565b34801561048c57600080fd5b5061020961049b3660046115fe565b610aa2565b3480156104ac57600080fd5b50610252600081565b3480156104c157600080fd5b506102527ffd643c72710c63c0180259aba6b2d05451e3591a24e58b62239378085726f78381565b3480156104f557600080fd5b5061025261050436600461171f565b610acb565b34801561051557600080fd5b506102f2610524366004611846565b63bc197c8160e01b95945050505050565b34801561054157600080fd5b506101e76105503660046114c9565b610b10565b34801561056157600080fd5b506102526105703660046114c9565b60009081526001602052604090205490565b34801561058e57600080fd5b506101e761059d3660046115fe565b610be5565b6101e76105b036600461171f565b610c0a565b3480156105c157600080fd5b506102f26105d03660046118ef565b63f23a6e6160e01b95945050505050565b3480156105ed57600080fd5b50600254610252565b7fb09aa5aeb3702cfd50b6b62bc4532604938f21248a27a1d5ca736082b6819cc161062081610d94565b6000610630898989898989610911565b905061063c8184610da1565b6000817f4cf4410cc57040e44862ef0f45f3dd5a5e02db8eb8add648d4b0e236f1d07dca8b8b8b8b8b8a6040516106789695949392919061197c565b60405180910390a3505050505050505050565b60006001600160e01b03198216630271189760e51b14806106b057506106b082610e90565b92915050565b7fd8aa0f3194971a2a116679f7c2090f6939c8d4e01a2a8d7e41d55e5351469e636106e2816000610aa2565b6106f0576106f08133610ec5565b6000610700888888888888610911565b905061070c8185610f1e565b61071888888888610fba565b6000817fc2617efa69bab66782fa219543714338489c4e9e178271560a91b82c3f612b588a8a8a8a60405161075094939291906119b9565b60405180910390a36107618161108d565b5050505050505050565b60008181526001602052604081205460018111801561078a5750428111155b9392505050565b6000828152602081905260409020600101546107ac81610d94565b6107b683836110c6565b505050565b60008181526001602052604081205481905b1192915050565b6001600160a01b03811633146108495760405162461bcd60e51b815260206004820152602f60248201527f416363657373436f6e74726f6c3a2063616e206f6e6c792072656e6f756e636560448201526e103937b632b9903337b91039b2b63360891b60648201526084015b60405180910390fd5b610853828261114a565b5050565b60008181526001602081905260408220546107cd565b3330146108d05760405162461bcd60e51b815260206004820152602b60248201527f54696d656c6f636b436f6e74726f6c6c65723a2063616c6c6572206d7573742060448201526a62652074696d656c6f636b60a81b6064820152608401610840565b60025460408051918252602082018390527f11c24f4ead16507c69ac467fbd5e4eed5fb5c699626d2cc6d66421df253886d5910160405180910390a1600255565b600086868686868660405160200161092e9695949392919061197c565b6040516020818303038152906040528051906020012090509695505050505050565b7fb09aa5aeb3702cfd50b6b62bc4532604938f21248a27a1d5ca736082b6819cc161097a81610d94565b8887146109995760405162461bcd60e51b8152600401610840906119eb565b8885146109b85760405162461bcd60e51b8152600401610840906119eb565b60006109ca8b8b8b8b8b8b8b8b610acb565b90506109d68184610da1565b60005b8a811015610a945780827f4cf4410cc57040e44862ef0f45f3dd5a5e02db8eb8add648d4b0e236f1d07dca8e8e85818110610a1657610a16611a2e565b9050602002016020810190610a2b9190611a44565b8d8d86818110610a3d57610a3d611a2e565b905060200201358c8c87818110610a5657610a56611a2e565b9050602002810190610a689190611a5f565b8c8b604051610a7c9695949392919061197c565b60405180910390a3610a8d81611abb565b90506109d9565b505050505050505050505050565b6000918252602082815260408084206001600160a01b0393909316845291905290205460ff1690565b60008888888888888888604051602001610aec989796959493929190611b66565b60405160208183030381529060405280519060200120905098975050505050505050565b7ffd643c72710c63c0180259aba6b2d05451e3591a24e58b62239378085726f783610b3a81610d94565b610b4382610857565b610ba95760405162461bcd60e51b815260206004820152603160248201527f54696d656c6f636b436f6e74726f6c6c65723a206f7065726174696f6e2063616044820152701b9b9bdd0818994818d85b98d95b1b1959607a1b6064820152608401610840565b6000828152600160205260408082208290555183917fbaa1eb22f2a492ba1a5fea61b8df4d27c6c8b5f3971e63bb58fa14ff72eedb7091a25050565b600082815260208190526040902060010154610c0081610d94565b6107b6838361114a565b7fd8aa0f3194971a2a116679f7c2090f6939c8d4e01a2a8d7e41d55e5351469e63610c36816000610aa2565b610c4457610c448133610ec5565b878614610c635760405162461bcd60e51b8152600401610840906119eb565b878414610c825760405162461bcd60e51b8152600401610840906119eb565b6000610c948a8a8a8a8a8a8a8a610acb565b9050610ca08185610f1e565b60005b89811015610d7e5760008b8b83818110610cbf57610cbf611a2e565b9050602002016020810190610cd49190611a44565b905060008a8a84818110610cea57610cea611a2e565b9050602002013590503660008a8a86818110610d0857610d08611a2e565b9050602002810190610d1a9190611a5f565b91509150610d2a84848484610fba565b84867fc2617efa69bab66782fa219543714338489c4e9e178271560a91b82c3f612b5886868686604051610d6194939291906119b9565b60405180910390a35050505080610d7790611abb565b9050610ca3565b50610d888161108d565b50505050505050505050565b610d9e8133610ec5565b50565b610daa826107bb565b15610e0f5760405162461bcd60e51b815260206004820152602f60248201527f54696d656c6f636b436f6e74726f6c6c65723a206f7065726174696f6e20616c60448201526e1c9958591e481cd8da19591d5b1959608a1b6064820152608401610840565b600254811015610e705760405162461bcd60e51b815260206004820152602660248201527f54696d656c6f636b436f6e74726f6c6c65723a20696e73756666696369656e746044820152652064656c617960d01b6064820152608401610840565b610e7a8142611c11565b6000928352600160205260409092209190915550565b60006001600160e01b03198216637965db0b60e01b14806106b057506301ffc9a760e01b6001600160e01b03198316146106b0565b610ecf8282610aa2565b61085357610edc816111af565b610ee78360206111c1565b604051602001610ef8929190611c59565b60408051601f198184030181529082905262461bcd60e51b825261084091600401611cce565b610f278261076b565b610f435760405162461bcd60e51b815260040161084090611d01565b801580610f5f5750600081815260016020819052604090912054145b6108535760405162461bcd60e51b815260206004820152602660248201527f54696d656c6f636b436f6e74726f6c6c65723a206d697373696e6720646570656044820152656e64656e637960d01b6064820152608401610840565b6000846001600160a01b0316848484604051610fd7929190611d4b565b60006040518083038185875af1925050503d8060008114611014576040519150601f19603f3d011682016040523d82523d6000602084013e611019565b606091505b50509050806110865760405162461bcd60e51b815260206004820152603360248201527f54696d656c6f636b436f6e74726f6c6c65723a20756e6465726c79696e6720746044820152721c985b9cd858dd1a5bdb881c995d995c9d1959606a1b6064820152608401610840565b5050505050565b6110968161076b565b6110b25760405162461bcd60e51b815260040161084090611d01565b600090815260016020819052604090912055565b6110d08282610aa2565b610853576000828152602081815260408083206001600160a01b03851684529091529020805460ff191660011790556111063390565b6001600160a01b0316816001600160a01b0316837f2f8788117e7eff1d82e926ec794901d17c78024a50270940304540a733656f0d60405160405180910390a45050565b6111548282610aa2565b15610853576000828152602081815260408083206001600160a01b0385168085529252808320805460ff1916905551339285917ff6391f5c32d9c69d2a47ea670b442974b53935d1edc7fd64eb21e047a839171b9190a45050565b60606106b06001600160a01b03831660145b606060006111d0836002611d5b565b6111db906002611c11565b6001600160401b038111156111f2576111f26114e2565b6040519080825280601f01601f19166020018201604052801561121c576020820181803683370190505b509050600360fc1b8160008151811061123757611237611a2e565b60200101906001600160f81b031916908160001a905350600f60fb1b8160018151811061126657611266611a2e565b60200101906001600160f81b031916908160001a905350600061128a846002611d5b565b611295906001611c11565b90505b600181111561130d576f181899199a1a9b1b9c1cb0b131b232b360811b85600f16601081106112c9576112c9611a2e565b1a60f81b8282815181106112df576112df611a2e565b60200101906001600160f81b031916908160001a90535060049490941c9361130681611d7a565b9050611298565b50831561078a5760405162461bcd60e51b815260206004820181905260248201527f537472696e67733a20686578206c656e67746820696e73756666696369656e746044820152606401610840565b80356001600160a01b038116811461137357600080fd5b919050565b60008083601f84011261138a57600080fd5b5081356001600160401b038111156113a157600080fd5b6020830191508360208285010111156113b957600080fd5b9250929050565b600080600080600080600060c0888a0312156113db57600080fd5b6113e48861135c565b96506020880135955060408801356001600160401b0381111561140657600080fd5b6114128a828b01611378565b989b979a50986060810135976080820135975060a09091013595509350505050565b60006020828403121561144657600080fd5b81356001600160e01b03198116811461078a57600080fd5b60008060008060008060a0878903121561147757600080fd5b6114808761135c565b95506020870135945060408701356001600160401b038111156114a257600080fd5b6114ae89828a01611378565b979a9699509760608101359660809091013595509350505050565b6000602082840312156114db57600080fd5b5035919050565b634e487b7160e01b600052604160045260246000fd5b604051601f8201601f191681016001600160401b0381118282101715611520576115206114e2565b604052919050565b600082601f83011261153957600080fd5b81356001600160401b03811115611552576115526114e2565b611565601f8201601f19166020016114f8565b81815284602083860101111561157a57600080fd5b816020850160208301376000918101602001919091529392505050565b600080600080608085870312156115ad57600080fd5b6115b68561135c565b93506115c46020860161135c565b92506040850135915060608501356001600160401b038111156115e657600080fd5b6115f287828801611528565b91505092959194509250565b6000806040838503121561161157600080fd5b823591506116216020840161135c565b90509250929050565b60008083601f84011261163c57600080fd5b5081356001600160401b0381111561165357600080fd5b6020830191508360208260051b85010111156113b957600080fd5b600080600080600080600080600060c08a8c03121561168c57600080fd5b89356001600160401b03808211156116a357600080fd5b6116af8d838e0161162a565b909b50995060208c01359150808211156116c857600080fd5b6116d48d838e0161162a565b909950975060408c01359150808211156116ed57600080fd5b506116fa8c828d0161162a565b9a9d999c50979a969997986060880135976080810135975060a0013595509350505050565b60008060008060008060008060a0898b03121561173b57600080fd5b88356001600160401b038082111561175257600080fd5b61175e8c838d0161162a565b909a50985060208b013591508082111561177757600080fd5b6117838c838d0161162a565b909850965060408b013591508082111561179c57600080fd5b506117a98b828c0161162a565b999c989b509699959896976060870135966080013595509350505050565b600082601f8301126117d857600080fd5b813560206001600160401b038211156117f3576117f36114e2565b8160051b6118028282016114f8565b928352848101820192828101908785111561181c57600080fd5b83870192505b8483101561183b57823582529183019190830190611822565b979650505050505050565b600080600080600060a0868803121561185e57600080fd5b6118678661135c565b94506118756020870161135c565b935060408601356001600160401b038082111561189157600080fd5b61189d89838a016117c7565b945060608801359150808211156118b357600080fd5b6118bf89838a016117c7565b935060808801359150808211156118d557600080fd5b506118e288828901611528565b9150509295509295909350565b600080600080600060a0868803121561190757600080fd5b6119108661135c565b945061191e6020870161135c565b9350604086013592506060860135915060808601356001600160401b0381111561194757600080fd5b6118e288828901611528565b81835281816020850137506000828201602090810191909152601f909101601f19169091010190565b60018060a01b038716815285602082015260a0604082015260006119a460a083018688611953565b60608301949094525060800152949350505050565b60018060a01b03851681528360208201526060604082015260006119e1606083018486611953565b9695505050505050565b60208082526023908201527f54696d656c6f636b436f6e74726f6c6c65723a206c656e677468206d69736d616040820152620e8c6d60eb1b606082015260800190565b634e487b7160e01b600052603260045260246000fd5b600060208284031215611a5657600080fd5b61078a8261135c565b6000808335601e19843603018112611a7657600080fd5b8301803591506001600160401b03821115611a9057600080fd5b6020019150368190038213156113b957600080fd5b634e487b7160e01b600052601160045260246000fd5b6000600019821415611acf57611acf611aa5565b5060010190565b81835260006020808501808196508560051b810191508460005b87811015611b595782840389528135601e19883603018112611b1157600080fd5b870180356001600160401b03811115611b2957600080fd5b803603891315611b3857600080fd5b611b458682898501611953565b9a87019a9550505090840190600101611af0565b5091979650505050505050565b60a0808252810188905260008960c08301825b8b811015611ba7576001600160a01b03611b928461135c565b16825260209283019290910190600101611b79565b5083810360208501528881526001600160fb1b03891115611bc757600080fd5b8860051b9150818a602083013781810191505060208101600081526020848303016040850152611bf881888a611ad6565b6060850196909652505050608001529695505050505050565b60008219821115611c2457611c24611aa5565b500190565b60005b83811015611c44578181015183820152602001611c2c565b83811115611c53576000848401525b50505050565b7f416363657373436f6e74726f6c3a206163636f756e7420000000000000000000815260008351611c91816017850160208801611c29565b7001034b99036b4b9b9b4b733903937b6329607d1b6017918401918201528351611cc2816028840160208801611c29565b01602801949350505050565b6020815260008251806020840152611ced816040850160208701611c29565b601f01601f19169190910160400192915050565b6020808252602a908201527f54696d656c6f636b436f6e74726f6c6c65723a206f7065726174696f6e206973604082015269206e6f7420726561647960b01b606082015260800190565b8183823760009101908152919050565b6000816000190483118215151615611d7557611d75611aa5565b500290565b600081611d8957611d89611aa5565b50600019019056fea26469706673582212206a80fb3907c21d61bbc0203cda2012de01b66308abfe0ccb3f569e598bc3a0a464736f6c634300080900335f58e3a2316349923ce3780f8d587db2d72378aed66a8261c916544fa6846ca5b09aa5aeb3702cfd50b6b62bc4532604938f21248a27a1d5ca736082b6819cc1d8aa0f3194971a2a116679f7c2090f6939c8d4e01a2a8d7e41d55e5351469e63fd643c72710c63c0180259aba6b2d05451e3591a24e58b62239378085726f783a264697066735822122052c48bb428956e38b039f5a1fed880b8fcebe6068769bdfd47f6b9a1114f31ef64736f6c63430008090033",
  "linkReferences": {
    "contracts/reserve/facade/lib/FacadeWriteLib.sol": {
      "FacadeWriteLib": [
        {
          "length": 20,
          "start": 1362
        }
      ]
    }
  },
  "deployedLinkReferences": {
    "contracts/reserve/facade/lib/FacadeWriteLib.sol": {
      "FacadeWriteLib": [
        {
          "length": 20,
          "start": 1131
        }
      ]
    }
  }
}