{
  "_format": "hh-sol-artifact-1",
  "contractName": "MainP0",
  "sourceName": "contracts/reserve/p0/Main.sol",
  "abi": [
    {
      "anonymous": false,
      "inputs": [
        {
          "indexed": true,
          "internalType": "contract IAssetRegistry",
          "name": "oldVal",
          "type": "address"
        },
        {
          "indexed": true,
          "internalType": "contract IAssetRegistry",
          "name": "newVal",
          "type": "address"
        }
      ],
      "name": "AssetRegistrySet",
      "type": "event"
    },
    {
      "anonymous": false,
      "inputs": [
        {
          "indexed": true,
          "internalType": "contract IBackingManager",
          "name": "oldVal",
          "type": "address"
        },
        {
          "indexed": true,
          "internalType": "contract IBackingManager",
          "name": "newVal",
          "type": "address"
        }
      ],
      "name": "BackingManagerSet",
      "type": "event"
    },
    {
      "anonymous": false,
      "inputs": [
        {
          "indexed": true,
          "internalType": "contract IBasketHandler",
          "name": "oldVal",
          "type": "address"
        },
        {
          "indexed": true,
          "internalType": "contract IBasketHandler",
          "name": "newVal",
          "type": "address"
        }
      ],
      "name": "BasketHandlerSet",
      "type": "event"
    },
    {
      "anonymous": false,
      "inputs": [
        {
          "indexed": true,
          "internalType": "contract IBroker",
          "name": "oldVal",
          "type": "address"
        },
        {
          "indexed": true,
          "internalType": "contract IBroker",
          "name": "newVal",
          "type": "address"
        }
      ],
      "name": "BrokerSet",
      "type": "event"
    },
    {
      "anonymous": false,
      "inputs": [
        {
          "indexed": true,
          "internalType": "contract IDistributor",
          "name": "oldVal",
          "type": "address"
        },
        {
          "indexed": true,
          "internalType": "contract IDistributor",
          "name": "newVal",
          "type": "address"
        }
      ],
      "name": "DistributorSet",
      "type": "event"
    },
    {
      "anonymous": false,
      "inputs": [
        {
          "indexed": true,
          "internalType": "contract IFurnace",
          "name": "oldVal",
          "type": "address"
        },
        {
          "indexed": true,
          "internalType": "contract IFurnace",
          "name": "newVal",
          "type": "address"
        }
      ],
      "name": "FurnaceSet",
      "type": "event"
    },
    {
      "anonymous": false,
      "inputs": [
        {
          "indexed": false,
          "internalType": "uint8",
          "name": "version",
          "type": "uint8"
        }
      ],
      "name": "Initialized",
      "type": "event"
    },
    {
      "anonymous": false,
      "inputs": [
        {
          "indexed": true,
          "internalType": "uint48",
          "name": "oldDuration",
          "type": "uint48"
        },
        {
          "indexed": true,
          "internalType": "uint48",
          "name": "newDuration",
          "type": "uint48"
        }
      ],
      "name": "LongFreezeDurationSet",
      "type": "event"
    },
    {
      "anonymous": false,
      "inputs": [],
      "name": "MainInitialized",
      "type": "event"
    },
    {
      "anonymous": false,
      "inputs": [
        {
          "indexed": true,
          "internalType": "bool",
          "name": "oldVal",
          "type": "bool"
        },
        {
          "indexed": true,
          "internalType": "bool",
          "name": "newVal",
          "type": "bool"
        }
      ],
      "name": "PausedSet",
      "type": "event"
    },
    {
      "anonymous": false,
      "inputs": [
        {
          "indexed": true,
          "internalType": "contract IRevenueTrader",
          "name": "oldVal",
          "type": "address"
        },
        {
          "indexed": true,
          "internalType": "contract IRevenueTrader",
          "name": "newVal",
          "type": "address"
        }
      ],
      "name": "RSRTraderSet",
      "type": "event"
    },
    {
      "anonymous": false,
      "inputs": [
        {
          "indexed": true,
          "internalType": "contract IRToken",
          "name": "oldVal",
          "type": "address"
        },
        {
          "indexed": true,
          "internalType": "contract IRToken",
          "name": "newVal",
          "type": "address"
        }
      ],
      "name": "RTokenSet",
      "type": "event"
    },
    {
      "anonymous": false,
      "inputs": [
        {
          "indexed": true,
          "internalType": "contract IRevenueTrader",
          "name": "oldVal",
          "type": "address"
        },
        {
          "indexed": true,
          "internalType": "contract IRevenueTrader",
          "name": "newVal",
          "type": "address"
        }
      ],
      "name": "RTokenTraderSet",
      "type": "event"
    },
    {
      "anonymous": false,
      "inputs": [
        {
          "indexed": true,
          "internalType": "bytes32",
          "name": "role",
          "type": "bytes32"
        },
        {
          "indexed": true,
          "internalType": "bytes32",
          "name": "previousAdminRole",
          "type": "bytes32"
        },
        {
          "indexed": true,
          "internalType": "bytes32",
          "name": "newAdminRole",
          "type": "bytes32"
        }
      ],
      "name": "RoleAdminChanged",
      "type": "event"
    },
    {
      "anonymous": false,
      "inputs": [
        {
          "indexed": true,
          "internalType": "bytes32",
          "name": "role",
          "type": "bytes32"
        },
        {
          "indexed": true,
          "internalType": "address",
          "name": "account",
          "type": "address"
        },
        {
          "indexed": true,
          "internalType": "address",
          "name": "sender",
          "type": "address"
        }
      ],
      "name": "RoleGranted",
      "type": "event"
    },
    {
      "anonymous": false,
      "inputs": [
        {
          "indexed": true,
          "internalType": "bytes32",
          "name": "role",
          "type": "bytes32"
        },
        {
          "indexed": true,
          "internalType": "address",
          "name": "account",
          "type": "address"
        },
        {
          "indexed": true,
          "internalType": "address",
          "name": "sender",
          "type": "address"
        }
      ],
      "name": "RoleRevoked",
      "type": "event"
    },
    {
      "anonymous": false,
      "inputs": [
        {
          "indexed": true,
          "internalType": "uint48",
          "name": "oldDuration",
          "type": "uint48"
        },
        {
          "indexed": true,
          "internalType": "uint48",
          "name": "newDuration",
          "type": "uint48"
        }
      ],
      "name": "ShortFreezeDurationSet",
      "type": "event"
    },
    {
      "anonymous": false,
      "inputs": [
        {
          "indexed": true,
          "internalType": "contract IStRSR",
          "name": "oldVal",
          "type": "address"
        },
        {
          "indexed": true,
          "internalType": "contract IStRSR",
          "name": "newVal",
          "type": "address"
        }
      ],
      "name": "StRSRSet",
      "type": "event"
    },
    {
      "anonymous": false,
      "inputs": [
        {
          "indexed": true,
          "internalType": "uint48",
          "name": "oldVal",
          "type": "uint48"
        },
        {
          "indexed": true,
          "internalType": "uint48",
          "name": "newVal",
          "type": "uint48"
        }
      ],
      "name": "UnfreezeAtSet",
      "type": "event"
    },
    {
      "inputs": [],
      "name": "DEFAULT_ADMIN_ROLE",
      "outputs": [
        {
          "internalType": "bytes32",
          "name": "",
          "type": "bytes32"
        }
      ],
      "stateMutability": "view",
      "type": "function"
    },
    {
      "inputs": [],
      "name": "LONG_FREEZER_ROLE",
      "outputs": [
        {
          "internalType": "bytes32",
          "name": "",
          "type": "bytes32"
        }
      ],
      "stateMutability": "view",
      "type": "function"
    },
    {
      "inputs": [],
      "name": "OWNER_ROLE",
      "outputs": [
        {
          "internalType": "bytes32",
          "name": "",
          "type": "bytes32"
        }
      ],
      "stateMutability": "view",
      "type": "function"
    },
    {
      "inputs": [],
      "name": "PAUSER_ROLE",
      "outputs": [
        {
          "internalType": "bytes32",
          "name": "",
          "type": "bytes32"
        }
      ],
      "stateMutability": "view",
      "type": "function"
    },
    {
      "inputs": [],
      "name": "SHORT_FREEZER_ROLE",
      "outputs": [
        {
          "internalType": "bytes32",
          "name": "",
          "type": "bytes32"
        }
      ],
      "stateMutability": "view",
      "type": "function"
    },
    {
      "inputs": [],
      "name": "assetRegistry",
      "outputs": [
        {
          "internalType": "contract IAssetRegistry",
          "name": "",
          "type": "address"
        }
      ],
      "stateMutability": "view",
      "type": "function"
    },
    {
      "inputs": [],
      "name": "backingManager",
      "outputs": [
        {
          "internalType": "contract IBackingManager",
          "name": "",
          "type": "address"
        }
      ],
      "stateMutability": "view",
      "type": "function"
    },
    {
      "inputs": [],
      "name": "basketHandler",
      "outputs": [
        {
          "internalType": "contract IBasketHandler",
          "name": "",
          "type": "address"
        }
      ],
      "stateMutability": "view",
      "type": "function"
    },
    {
      "inputs": [],
      "name": "broker",
      "outputs": [
        {
          "internalType": "contract IBroker",
          "name": "",
          "type": "address"
        }
      ],
      "stateMutability": "view",
      "type": "function"
    },
    {
      "inputs": [],
      "name": "distributor",
      "outputs": [
        {
          "internalType": "contract IDistributor",
          "name": "",
          "type": "address"
        }
      ],
      "stateMutability": "view",
      "type": "function"
    },
    {
      "inputs": [],
      "name": "freezeForever",
      "outputs": [],
      "stateMutability": "nonpayable",
      "type": "function"
    },
    {
      "inputs": [],
      "name": "freezeLong",
      "outputs": [],
      "stateMutability": "nonpayable",
      "type": "function"
    },
    {
      "inputs": [],
      "name": "freezeShort",
      "outputs": [],
      "stateMutability": "nonpayable",
      "type": "function"
    },
    {
      "inputs": [],
      "name": "frozen",
      "outputs": [
        {
          "internalType": "bool",
          "name": "",
          "type": "bool"
        }
      ],
      "stateMutability": "view",
      "type": "function"
    },
    {
      "inputs": [],
      "name": "furnace",
      "outputs": [
        {
          "internalType": "contract IFurnace",
          "name": "",
          "type": "address"
        }
      ],
      "stateMutability": "view",
      "type": "function"
    },
    {
      "inputs": [
        {
          "internalType": "bytes32",
          "name": "role",
          "type": "bytes32"
        }
      ],
      "name": "getRoleAdmin",
      "outputs": [
        {
          "internalType": "bytes32",
          "name": "",
          "type": "bytes32"
        }
      ],
      "stateMutability": "view",
      "type": "function"
    },
    {
      "inputs": [
        {
          "internalType": "bytes32",
          "name": "role",
          "type": "bytes32"
        },
        {
          "internalType": "address",
          "name": "account",
          "type": "address"
        }
      ],
      "name": "grantRole",
      "outputs": [],
      "stateMutability": "nonpayable",
      "type": "function"
    },
    {
      "inputs": [
        {
          "internalType": "bytes32",
          "name": "role",
          "type": "bytes32"
        },
        {
          "internalType": "address",
          "name": "account",
          "type": "address"
        }
      ],
      "name": "hasRole",
      "outputs": [
        {
          "internalType": "bool",
          "name": "",
          "type": "bool"
        }
      ],
      "stateMutability": "view",
      "type": "function"
    },
    {
      "inputs": [
        {
          "components": [
            {
              "internalType": "contract IRToken",
              "name": "rToken",
              "type": "address"
            },
            {
              "internalType": "contract IStRSR",
              "name": "stRSR",
              "type": "address"
            },
            {
              "internalType": "contract IAssetRegistry",
              "name": "assetRegistry",
              "type": "address"
            },
            {
              "internalType": "contract IBasketHandler",
              "name": "basketHandler",
              "type": "address"
            },
            {
              "internalType": "contract IBackingManager",
              "name": "backingManager",
              "type": "address"
            },
            {
              "internalType": "contract IDistributor",
              "name": "distributor",
              "type": "address"
            },
            {
              "internalType": "contract IFurnace",
              "name": "furnace",
              "type": "address"
            },
            {
              "internalType": "contract IBroker",
              "name": "broker",
              "type": "address"
            },
            {
              "internalType": "contract IRevenueTrader",
              "name": "rsrTrader",
              "type": "address"
            },
            {
              "internalType": "contract IRevenueTrader",
              "name": "rTokenTrader",
              "type": "address"
            }
          ],
          "internalType": "struct Components",
          "name": "components",
          "type": "tuple"
        },
        {
          "internalType": "contract IERC20",
          "name": "rsr_",
          "type": "address"
        },
        {
          "internalType": "uint48",
          "name": "shortFreeze_",
          "type": "uint48"
        },
        {
          "internalType": "uint48",
          "name": "longFreeze_",
          "type": "uint48"
        }
      ],
      "name": "init",
      "outputs": [],
      "stateMutability": "nonpayable",
      "type": "function"
    },
    {
      "inputs": [],
      "name": "longFreeze",
      "outputs": [
        {
          "internalType": "uint48",
          "name": "",
          "type": "uint48"
        }
      ],
      "stateMutability": "view",
      "type": "function"
    },
    {
      "inputs": [
        {
          "internalType": "address",
          "name": "",
          "type": "address"
        }
      ],
      "name": "longFreezes",
      "outputs": [
        {
          "internalType": "uint256",
          "name": "",
          "type": "uint256"
        }
      ],
      "stateMutability": "view",
      "type": "function"
    },
    {
      "inputs": [],
      "name": "pause",
      "outputs": [],
      "stateMutability": "nonpayable",
      "type": "function"
    },
    {
      "inputs": [],
      "name": "paused",
      "outputs": [
        {
          "internalType": "bool",
          "name": "",
          "type": "bool"
        }
      ],
      "stateMutability": "view",
      "type": "function"
    },
    {
      "inputs": [],
      "name": "pausedOrFrozen",
      "outputs": [
        {
          "internalType": "bool",
          "name": "",
          "type": "bool"
        }
      ],
      "stateMutability": "view",
      "type": "function"
    },
    {
      "inputs": [],
      "name": "poke",
      "outputs": [],
      "stateMutability": "nonpayable",
      "type": "function"
    },
    {
      "inputs": [],
      "name": "rToken",
      "outputs": [
        {
          "internalType": "contract IRToken",
          "name": "",
          "type": "address"
        }
      ],
      "stateMutability": "view",
      "type": "function"
    },
    {
      "inputs": [],
      "name": "rTokenTrader",
      "outputs": [
        {
          "internalType": "contract IRevenueTrader",
          "name": "",
          "type": "address"
        }
      ],
      "stateMutability": "view",
      "type": "function"
    },
    {
      "inputs": [
        {
          "internalType": "bytes32",
          "name": "role",
          "type": "bytes32"
        },
        {
          "internalType": "address",
          "name": "account",
          "type": "address"
        }
      ],
      "name": "renounceRole",
      "outputs": [],
      "stateMutability": "nonpayable",
      "type": "function"
    },
    {
      "inputs": [
        {
          "internalType": "bytes32",
          "name": "role",
          "type": "bytes32"
        },
        {
          "internalType": "address",
          "name": "account",
          "type": "address"
        }
      ],
      "name": "revokeRole",
      "outputs": [],
      "stateMutability": "nonpayable",
      "type": "function"
    },
    {
      "inputs": [],
      "name": "rsr",
      "outputs": [
        {
          "internalType": "contract IERC20",
          "name": "",
          "type": "address"
        }
      ],
      "stateMutability": "view",
      "type": "function"
    },
    {
      "inputs": [],
      "name": "rsrTrader",
      "outputs": [
        {
          "internalType": "contract IRevenueTrader",
          "name": "",
          "type": "address"
        }
      ],
      "stateMutability": "view",
      "type": "function"
    },
    {
      "inputs": [
        {
          "internalType": "uint48",
          "name": "longFreeze_",
          "type": "uint48"
        }
      ],
      "name": "setLongFreeze",
      "outputs": [],
      "stateMutability": "nonpayable",
      "type": "function"
    },
    {
      "inputs": [
        {
          "internalType": "uint48",
          "name": "shortFreeze_",
          "type": "uint48"
        }
      ],
      "name": "setShortFreeze",
      "outputs": [],
      "stateMutability": "nonpayable",
      "type": "function"
    },
    {
      "inputs": [],
      "name": "shortFreeze",
      "outputs": [
        {
          "internalType": "uint48",
          "name": "",
          "type": "uint48"
        }
      ],
      "stateMutability": "view",
      "type": "function"
    },
    {
      "inputs": [],
      "name": "stRSR",
      "outputs": [
        {
          "internalType": "contract IStRSR",
          "name": "",
          "type": "address"
        }
      ],
      "stateMutability": "view",
      "type": "function"
    },
    {
      "inputs": [
        {
          "internalType": "bytes4",
          "name": "interfaceId",
          "type": "bytes4"
        }
      ],
      "name": "supportsInterface",
      "outputs": [
        {
          "internalType": "bool",
          "name": "",
          "type": "bool"
        }
      ],
      "stateMutability": "view",
      "type": "function"
    },
    {
      "inputs": [],
      "name": "unfreeze",
      "outputs": [],
      "stateMutability": "nonpayable",
      "type": "function"
    },
    {
      "inputs": [],
      "name": "unfreezeAt",
      "outputs": [
        {
          "internalType": "uint48",
          "name": "",
          "type": "uint48"
        }
      ],
      "stateMutability": "view",
      "type": "function"
    },
    {
      "inputs": [],
      "name": "unpause",
      "outputs": [],
      "stateMutability": "nonpayable",
      "type": "function"
    },
    {
      "inputs": [],
      "name": "version",
      "outputs": [
        {
          "internalType": "string",
          "name": "",
          "type": "string"
        }
      ],
      "stateMutability": "pure",
      "type": "function"
    }
  ],
  "bytecode": "0x608060405234801561001057600080fd5b50612278806100206000396000f3fe608060405234801561001057600080fd5b50600436106102485760003560e01c80636a28f0001161013b578063c99dc3dd116100b8578063e58378bb1161007c578063e58378bb1461050d578063e63ab1e914610515578063f17063751461051d578063f8aa0c4e14610525578063fe8aa12a1461053e57600080fd5b8063c99dc3dd146104a1578063d547741f146104b4578063dc8af5f6146104c7578063de1611cf146104da578063e083b5e6146104ed57600080fd5b8063979d7e86116100ff578063979d7e861461044d578063992e1d6a14610460578063a217fddf14610473578063abff01101461047b578063bfe109281461048e57600080fd5b80636a28f00014610410578063705a6618146104185780638456cb591461042a57806391d148541461043257806394c7f2991461044557600080fd5b80633f4ba83a116101c9578063531367631161018d57806353136763146103a757806354fd4d50146103ba578063590f6b1a146103e15780635c975abb146103e9578063656e96e1146103fd57600080fd5b80633f4ba83a1461035357806340c65f721461035b57806341bf0c4e1461036e5780634780a5e5146103815780635187ae681461039457600080fd5b80632b56d18a116102105780632b56d18a146102ca5780632d870960146102fa5780632f2439b1146103025780632f2ff15d1461032d57806336568abe1461034057600080fd5b806301ffc9a71461024d578063054f7d9c146102755780630f702ed3146102875780631817835814610291578063248a9ca314610299575b600080fd5b61026061025b366004611dfb565b610546565b60405190151581526020015b60405180910390f35b60985465ffffffffffff164210610260565b61028f61057d565b005b61028f610615565b6102bc6102a7366004611e25565b60009081526065602052604090206001015490565b60405190815260200161026c565b6098546102e390600160301b900465ffffffffffff1681565b60405165ffffffffffff909116815260200161026c565b6102bc61079c565b60cc54610315906001600160a01b031681565b6040516001600160a01b03909116815260200161026c565b61028f61033b366004611e53565b6107cd565b61028f61034e366004611e53565b61089f565b61028f61091d565b60c954610315906001600160a01b031681565b60d054610315906001600160a01b031681565b60ca54610315906001600160a01b031681565b61028f6103a2366004611e9e565b610999565b60cf54610315906001600160a01b031681565b60408051808201825260058152640312e322e360dc1b6020820152905161026c9190611ee5565b6102bc610aa4565b60985461026090600160901b900460ff1681565b60d154610315906001600160a01b031681565b61028f610ad3565b6098546102e39065ffffffffffff1681565b61028f610b58565b610260610440366004611e53565b610bdb565b61028f610c09565b60cb54610315906001600160a01b031681565b61028f61046e366004611f71565b610c48565b6102bc600081565b60d254610315906001600160a01b031681565b60ce54610315906001600160a01b031681565b60fb54610315906001600160a01b031681565b61028f6104c2366004611e53565b610df8565b60cd54610315906001600160a01b031681565b61028f6104e8366004611e9e565b610e1d565b6102bc6104fb366004612083565b60976020526000908152604090205481565b6102bc610f2a565b6102bc610f51565b610260610f79565b6098546102e390600160601b900465ffffffffffff1681565b61028f610fa2565b60006001600160e01b03198216637965db0b60e01b148061057757506301ffc9a760e01b6001600160e01b03198316145b92915050565b6040518060400160405280600d81526020016c29a427a92a2fa32922a2ad22a960991b8152506105ac906120a0565b6105b581611063565b6105ed6040518060400160405280600d81526020016c29a427a92a2fa32922a2ad22a960991b8152506105e7906120a0565b3361106d565b6098546106129061060d90600160301b900465ffffffffffff16426120dd565b6110d4565b50565b61061d610f79565b156106625760405162461bcd60e51b815260206004820152601060248201526f3830bab9b2b21037b910333937bd32b760811b60448201526064015b60405180910390fd5b60cb60009054906101000a90046001600160a01b03166001600160a01b031663f8ac93e86040518163ffffffff1660e01b8152600401600060405180830381600087803b1580156106b257600080fd5b505af11580156106c6573d6000803e3d6000fd5b5050505060d160009054906101000a90046001600160a01b03166001600160a01b0316635220f5106040518163ffffffff1660e01b8152600401600060405180830381600087803b15801561071a57600080fd5b505af115801561072e573d6000803e3d6000fd5b5050505060ca60009054906101000a90046001600160a01b03166001600160a01b031663296130866040518163ffffffff1660e01b8152600401600060405180830381600087803b15801561078257600080fd5b505af1158015610796573d6000803e3d6000fd5b50505050565b6040518060400160405280600c81526020016b2627a723afa32922a2ad22a960a11b8152506107ca906120a0565b81565b6000828152606560205260409020600101546107e881611063565b6001600160a01b03821661083e5760405162461bcd60e51b815260206004820152601e60248201527f63616e6e6f74206772616e7420726f6c6520746f2061646472657373203000006044820152606401610659565b6040518060400160405280600c81526020016b2627a723afa32922a2ad22a960a11b81525061086c906120a0565b831415610890576001600160a01b0382166000908152609760205260409020600690555b61089a8383611173565b505050565b6001600160a01b038116331461090f5760405162461bcd60e51b815260206004820152602f60248201527f416363657373436f6e74726f6c3a2063616e206f6e6c792072656e6f756e636560448201526e103937b632b9903337b91039b2b63360891b6064820152608401610659565b610919828261106d565b5050565b604051806040016040528060068152602001652820aaa9a2a960d11b815250610945906120a0565b61094e81611063565b609854604051600091600160901b900460ff161515907f8a03df86592b6c04a66160b441f1d7282689edca334882d14f468dc60352b0ff908390a3506098805460ff60901b19169055565b6040518060400160405280600581526020016427aba722a960d91b8152506109c0906120a0565b6109c981611063565b60008265ffffffffffff161180156109ed57506301e1338065ffffffffffff831611155b610a395760405162461bcd60e51b815260206004820152601860248201527f6c6f6e6720667265657a65206f7574206f662072616e676500000000000000006044820152606401610659565b60985460405165ffffffffffff80851692600160601b900416907f2b855a9093ce8fb8bd37179aa306b424a5008d3a000751f4c2e721c51b89f9a290600090a3506098805465ffffffffffff909216600160601b0265ffffffffffff60601b19909216919091179055565b6040518060400160405280600d81526020016c29a427a92a2fa32922a2ad22a960991b8152506107ca906120a0565b6040518060400160405280600581526020016427aba722a960d91b815250610afa906120a0565b610b0381611063565b60985460405165ffffffffffff4281169216907f4fd793fe252ef26ede0a814ca52971990ff5ade10f86376fb1914bfb17c57e0890600090a3506098805465ffffffffffff19164265ffffffffffff16179055565b604051806040016040528060068152602001652820aaa9a2a960d11b815250610b80906120a0565b610b8981611063565b609854604051600191600160901b900460ff161515907f8a03df86592b6c04a66160b441f1d7282689edca334882d14f468dc60352b0ff90600090a3506098805460ff60901b1916600160901b179055565b60008281526065602090815260408083206001600160a01b038516845290915281205460ff165b9392505050565b6040518060400160405280600581526020016427aba722a960d91b815250610c30906120a0565b610c3981611063565b61061265ffffffffffff6110d4565b600054610100900460ff1615808015610c685750600054600160ff909116105b80610c825750303b158015610c82575060005460ff166001145b610ce55760405162461bcd60e51b815260206004820152602e60248201527f496e697469616c697a61626c653a20636f6e747261637420697320616c72656160448201526d191e481a5b9a5d1a585b1a5e995960921b6064820152608401610659565b6000805460ff191660011790558015610d08576000805461ff0019166101001790555b6001600160a01b038416610d545760405162461bcd60e51b8152602060048201526013602482015272696e76616c696420525352206164647265737360681b6044820152606401610659565b610d5e83836111f9565b610d67856113f9565b60fb80546001600160a01b0319166001600160a01b0386161790556040517fb3d8a26384852953cab1d93ea954a4ac74e1dc9f5c29576d4a4f45cdb230130e90600090a18015610df1576000805461ff0019169055604051600181527f7f26b83ff96e1f2b6a682f133852f6798a09c465da95921460cefb38474024989060200160405180910390a15b5050505050565b600082815260656020526040902060010154610e1381611063565b61089a838361106d565b6040518060400160405280600581526020016427aba722a960d91b815250610e44906120a0565b610e4d81611063565b60008265ffffffffffff16118015610e70575062278d0065ffffffffffff831611155b610ebc5760405162461bcd60e51b815260206004820152601960248201527f73686f727420667265657a65206f7574206f662072616e6765000000000000006044820152606401610659565b60985460405165ffffffffffff80851692600160301b900416907f84af4c1855ea2ef70449c6ae7119d367873ea35277b9681e0e47898900266f9490600090a3506098805465ffffffffffff909216600160301b026bffffffffffff00000000000019909216919091179055565b6040518060400160405280600581526020016427aba722a960d91b8152506107ca906120a0565b604051806040016040528060068152602001652820aaa9a2a960d11b8152506107ca906120a0565b609854600090600160901b900460ff1680610f9d575060985465ffffffffffff1642105b905090565b6040518060400160405280600c81526020016b2627a723afa32922a2ad22a960a11b815250610fd0906120a0565b610fd981611063565b336000908152609760205260408120805460019290610ff9908490612107565b909155505033600090815260976020526040902054611043576110436040518060400160405280600c81526020016b2627a723afa32922a2ad22a960a11b8152506105e7906120a0565b6098546106129061060d90600160601b900465ffffffffffff16426120dd565b61061281336114a2565b6110778282610bdb565b156109195760008281526065602090815260408083206001600160a01b0385168085529252808320805460ff1916905551339285917ff6391f5c32d9c69d2a47ea670b442974b53935d1edc7fd64eb21e047a839171b9190a45050565b60985465ffffffffffff9081169082161161111a5760405162461bcd60e51b8152602060048201526006602482015265333937bd32b760d11b6044820152606401610659565b60985460405165ffffffffffff8084169216907f4fd793fe252ef26ede0a814ca52971990ff5ade10f86376fb1914bfb17c57e0890600090a36098805465ffffffffffff191665ffffffffffff92909216919091179055565b61117d8282610bdb565b6109195760008281526065602090815260408083206001600160a01b03851684529091529020805460ff191660011790556111b53390565b6001600160a01b0316816001600160a01b0316837f2f8788117e7eff1d82e926ec794901d17c78024a50270940304540a733656f0d60405160405180910390a45050565b600054610100900460ff166112205760405162461bcd60e51b81526004016106599061211e565b6112286114fb565b61127e6040518060400160405280600581526020016427aba722a960d91b815250611252906120a0565b6040518060400160405280600581526020016427aba722a960d91b815250611279906120a0565b611524565b6112b06040518060400160405280600d81526020016c29a427a92a2fa32922a2ad22a960991b815250611252906120a0565b6112e16040518060400160405280600c81526020016b2627a723afa32922a2ad22a960a11b815250611252906120a0565b61130c604051806040016040528060068152602001652820aaa9a2a960d11b815250611252906120a0565b60408051808201909152600581526427aba722a960d91b6020820152339061133d90611337906120a0565b82611173565b61136f6040518060400160405280600d81526020016c29a427a92a2fa32922a2ad22a960991b815250611337906120a0565b6113a06040518060400160405280600c81526020016b2627a723afa32922a2ad22a960a11b815250611337906120a0565b6113cb604051806040016040528060068152602001652820aaa9a2a960d11b815250611337906120a0565b6001600160a01b0381166000908152609760205260409020600690556113f083610e1d565b61089a82610999565b600054610100900460ff166114205760405162461bcd60e51b81526004016106599061211e565b61142d816080015161156f565b61143a8160600151611621565b6114488161010001516116d3565b611456816101200151611785565b6114638160400151611837565b6114708160a001516118e9565b61147d8160c0015161199b565b61148a8160e00151611a4d565b6114978160200151611af8565b805161061290611ba2565b6114ac8282610bdb565b610919576114b981611c4d565b6114c4836020611c5f565b6040516020016114d5929190612169565b60408051601f198184030181529082905262461bcd60e51b825261065991600401611ee5565b600054610100900460ff166115225760405162461bcd60e51b81526004016106599061211e565b565b600082815260656020526040808220600101805490849055905190918391839186917fbd79b86ffe0ab8e8776151514217cd7cacd52c909f66475c3af44e129f0b00ff9190a4505050565b6001600160a01b0381166115c55760405162461bcd60e51b815260206004820152601e60248201527f696e76616c6964204261636b696e674d616e61676572206164647265737300006044820152606401610659565b60cd546040516001600160a01b038084169216907fd4ec685c4e7367fc82d24a1c90d8c91c07a0e204b5b4655fc1a6d5b6b9d9eeb790600090a360cd80546001600160a01b0319166001600160a01b0392909216919091179055565b6001600160a01b0381166116775760405162461bcd60e51b815260206004820152601d60248201527f696e76616c6964204261736b657448616e646c657220616464726573730000006044820152606401610659565b60cc546040516001600160a01b038084169216907fa41efa7d680b9ae9379ca75b956c50587b28ed07453f7d19388c7199397a1e8e90600090a360cc80546001600160a01b0319166001600160a01b0392909216919091179055565b6001600160a01b0381166117295760405162461bcd60e51b815260206004820152601960248201527f696e76616c6964205253525472616465722061646472657373000000000000006044820152606401610659565b60cf546040516001600160a01b038084169216907f2fa6596476f0ebdb5fef9a37bedb7ef956e0e1c4e094464cbf49c38f44f7e8d190600090a360cf80546001600160a01b0319166001600160a01b0392909216919091179055565b6001600160a01b0381166117db5760405162461bcd60e51b815260206004820152601c60248201527f696e76616c69642052546f6b656e5472616465722061646472657373000000006044820152606401610659565b60d0546040516001600160a01b038084169216907f0d76a5d5849780e9a81127e61df7ee55bf3f766bc326510d3a52ede3caea168f90600090a360d080546001600160a01b0319166001600160a01b0392909216919091179055565b6001600160a01b03811661188d5760405162461bcd60e51b815260206004820152601d60248201527f696e76616c6964204173736574526567697374727920616464726573730000006044820152606401610659565b60cb546040516001600160a01b038084169216907f5c69d378772ea2f02015deabd3b7ee1db0851dba819e216585de7a155d22a14890600090a360cb80546001600160a01b0319166001600160a01b0392909216919091179055565b6001600160a01b03811661193f5760405162461bcd60e51b815260206004820152601b60248201527f696e76616c6964204469737472696275746f72206164647265737300000000006044820152606401610659565b60ce546040516001600160a01b038084169216907f8c6eabd1db7fe5a1951a7c78767c0e3633c5352578d15d45f99aa4c4db01c55a90600090a360ce80546001600160a01b0319166001600160a01b0392909216919091179055565b6001600160a01b0381166119f15760405162461bcd60e51b815260206004820152601760248201527f696e76616c6964204675726e61636520616464726573730000000000000000006044820152606401610659565b60d1546040516001600160a01b038084169216907fe0c9d7fae2ccca1a3980ce26aada40d9f7fc84406cdb3adbdcfb8f9dd21c9b5390600090a360d180546001600160a01b0319166001600160a01b0392909216919091179055565b6001600160a01b038116611a9c5760405162461bcd60e51b8152602060048201526016602482015275696e76616c69642042726f6b6572206164647265737360501b6044820152606401610659565b60d2546040516001600160a01b038084169216907fc29cab4074359a76aba74458623910a8b95269ded89ad9f98cd2db1de3ead35690600090a360d280546001600160a01b0319166001600160a01b0392909216919091179055565b6001600160a01b038116611b465760405162461bcd60e51b8152602060048201526015602482015274696e76616c6964205374525352206164647265737360581b6044820152606401610659565b60ca546040516001600160a01b038084169216907f1b29dc90e15d6ade122a9e27d886b4a077e66131c7e0cc805fc303e49690c9fc90600090a360ca80546001600160a01b0319166001600160a01b0392909216919091179055565b6001600160a01b038116611bf15760405162461bcd60e51b8152602060048201526016602482015275696e76616c69642052546f6b656e206164647265737360501b6044820152606401610659565b60c9546040516001600160a01b038084169216907f2d2909c1d06afe38080a70d63a8793874674efb0fdf3b3bf3fd046056688b3ea90600090a360c980546001600160a01b0319166001600160a01b0392909216919091179055565b60606105776001600160a01b03831660145b60606000611c6e8360026121de565b611c799060026121fd565b67ffffffffffffffff811115611c9157611c91611f18565b6040519080825280601f01601f191660200182016040528015611cbb576020820181803683370190505b509050600360fc1b81600081518110611cd657611cd6612215565b60200101906001600160f81b031916908160001a905350600f60fb1b81600181518110611d0557611d05612215565b60200101906001600160f81b031916908160001a9053506000611d298460026121de565b611d349060016121fd565b90505b6001811115611dac576f181899199a1a9b1b9c1cb0b131b232b360811b85600f1660108110611d6857611d68612215565b1a60f81b828281518110611d7e57611d7e612215565b60200101906001600160f81b031916908160001a90535060049490941c93611da58161222b565b9050611d37565b508315610c025760405162461bcd60e51b815260206004820181905260248201527f537472696e67733a20686578206c656e67746820696e73756666696369656e746044820152606401610659565b600060208284031215611e0d57600080fd5b81356001600160e01b031981168114610c0257600080fd5b600060208284031215611e3757600080fd5b5035919050565b6001600160a01b038116811461061257600080fd5b60008060408385031215611e6657600080fd5b823591506020830135611e7881611e3e565b809150509250929050565b803565ffffffffffff81168114611e9957600080fd5b919050565b600060208284031215611eb057600080fd5b610c0282611e83565b60005b83811015611ed4578181015183820152602001611ebc565b838111156107965750506000910152565b6020815260008251806020840152611f04816040850160208701611eb9565b601f01601f19169190910160400192915050565b634e487b7160e01b600052604160045260246000fd5b604051610140810167ffffffffffffffff81118282101715611f6057634e487b7160e01b600052604160045260246000fd5b60405290565b8035611e9981611e3e565b6000806000808486036101a0811215611f8957600080fd5b61014080821215611f9957600080fd5b611fa1611f2e565b9150611fac87611f66565b8252611fba60208801611f66565b6020830152611fcb60408801611f66565b6040830152611fdc60608801611f66565b6060830152611fed60808801611f66565b6080830152611ffe60a08801611f66565b60a083015261200f60c08801611f66565b60c083015261202060e08801611f66565b60e0830152610100612033818901611f66565b90830152610120612045888201611f66565b8184015250819550612058818801611f66565b945050506120696101608601611e83565b91506120786101808601611e83565b905092959194509250565b60006020828403121561209557600080fd5b8135610c0281611e3e565b805160208083015191908110156120c1576000198160200360031b1b821691505b50919050565b634e487b7160e01b600052601160045260246000fd5b600065ffffffffffff8083168185168083038211156120fe576120fe6120c7565b01949350505050565b600082821015612119576121196120c7565b500390565b6020808252602b908201527f496e697469616c697a61626c653a20636f6e7472616374206973206e6f74206960408201526a6e697469616c697a696e6760a81b606082015260800190565b7f416363657373436f6e74726f6c3a206163636f756e74200000000000000000008152600083516121a1816017850160208801611eb9565b7001034b99036b4b9b9b4b733903937b6329607d1b60179184019182015283516121d2816028840160208801611eb9565b01602801949350505050565b60008160001904831182151516156121f8576121f86120c7565b500290565b60008219821115612210576122106120c7565b500190565b634e487b7160e01b600052603260045260246000fd5b60008161223a5761223a6120c7565b50600019019056fea26469706673582212206b97da2d27deaa42cc9e7877d5e13408acf22d7c17c8ee1e0cdb14164c97731564736f6c63430008090033",
  "linkReferences": {},
  "deployedLinkReferences": {}
}