{
  "_format": "hh-sol-artifact-1",
  "contractName": "StRSRP0",
  "sourceName": "contracts/reserve/p0/StRSR.sol",
  "abi": [
    {
      "inputs": [],
      "name": "UIntOutOfBounds",
      "type": "error"
    },
    {
      "anonymous": false,
      "inputs": [
        {
          "indexed": true,
          "internalType": "uint256",
          "name": "newEra",
          "type": "uint256"
        }
      ],
      "name": "AllBalancesReset",
      "type": "event"
    },
    {
      "anonymous": false,
      "inputs": [
        {
          "indexed": true,
          "internalType": "uint256",
          "name": "newEra",
          "type": "uint256"
        }
      ],
      "name": "AllUnstakingReset",
      "type": "event"
    },
    {
      "anonymous": false,
      "inputs": [
        {
          "indexed": true,
          "internalType": "address",
          "name": "owner",
          "type": "address"
        },
        {
          "indexed": true,
          "internalType": "address",
          "name": "spender",
          "type": "address"
        },
        {
          "indexed": false,
          "internalType": "uint256",
          "name": "value",
          "type": "uint256"
        }
      ],
      "name": "Approval",
      "type": "event"
    },
    {
      "anonymous": false,
      "inputs": [
        {
          "indexed": true,
          "internalType": "uint192",
          "name": "oldVal",
          "type": "uint192"
        },
        {
          "indexed": true,
          "internalType": "uint192",
          "name": "newVal",
          "type": "uint192"
        }
      ],
      "name": "ExchangeRateSet",
      "type": "event"
    },
    {
      "anonymous": false,
      "inputs": [
        {
          "indexed": false,
          "internalType": "uint8",
          "name": "version",
          "type": "uint8"
        }
      ],
      "name": "Initialized",
      "type": "event"
    },
    {
      "anonymous": false,
      "inputs": [
        {
          "indexed": true,
          "internalType": "uint48",
          "name": "oldVal",
          "type": "uint48"
        },
        {
          "indexed": true,
          "internalType": "uint48",
          "name": "newVal",
          "type": "uint48"
        }
      ],
      "name": "RewardPeriodSet",
      "type": "event"
    },
    {
      "anonymous": false,
      "inputs": [
        {
          "indexed": true,
          "internalType": "uint192",
          "name": "oldVal",
          "type": "uint192"
        },
        {
          "indexed": true,
          "internalType": "uint192",
          "name": "newVal",
          "type": "uint192"
        }
      ],
      "name": "RewardRatioSet",
      "type": "event"
    },
    {
      "anonymous": false,
      "inputs": [
        {
          "indexed": true,
          "internalType": "uint256",
          "name": "rsrAmt",
          "type": "uint256"
        }
      ],
      "name": "RewardsPaid",
      "type": "event"
    },
    {
      "anonymous": false,
      "inputs": [
        {
          "indexed": true,
          "internalType": "uint256",
          "name": "era",
          "type": "uint256"
        },
        {
          "indexed": true,
          "internalType": "address",
          "name": "staker",
          "type": "address"
        },
        {
          "indexed": false,
          "internalType": "uint256",
          "name": "rsrAmount",
          "type": "uint256"
        },
        {
          "indexed": true,
          "internalType": "uint256",
          "name": "stRSRAmount",
          "type": "uint256"
        }
      ],
      "name": "Staked",
      "type": "event"
    },
    {
      "anonymous": false,
      "inputs": [
        {
          "indexed": true,
          "internalType": "address",
          "name": "from",
          "type": "address"
        },
        {
          "indexed": true,
          "internalType": "address",
          "name": "to",
          "type": "address"
        },
        {
          "indexed": false,
          "internalType": "uint256",
          "name": "value",
          "type": "uint256"
        }
      ],
      "name": "Transfer",
      "type": "event"
    },
    {
      "anonymous": false,
      "inputs": [
        {
          "indexed": true,
          "internalType": "uint256",
          "name": "firstId",
          "type": "uint256"
        },
        {
          "indexed": true,
          "internalType": "uint256",
          "name": "endId",
          "type": "uint256"
        },
        {
          "indexed": false,
          "internalType": "uint256",
          "name": "draftEra",
          "type": "uint256"
        },
        {
          "indexed": true,
          "internalType": "address",
          "name": "staker",
          "type": "address"
        },
        {
          "indexed": false,
          "internalType": "uint256",
          "name": "rsrAmount",
          "type": "uint256"
        }
      ],
      "name": "UnstakingCompleted",
      "type": "event"
    },
    {
      "anonymous": false,
      "inputs": [
        {
          "indexed": true,
          "internalType": "uint48",
          "name": "oldVal",
          "type": "uint48"
        },
        {
          "indexed": true,
          "internalType": "uint48",
          "name": "newVal",
          "type": "uint48"
        }
      ],
      "name": "UnstakingDelaySet",
      "type": "event"
    },
    {
      "anonymous": false,
      "inputs": [
        {
          "indexed": true,
          "internalType": "uint256",
          "name": "draftId",
          "type": "uint256"
        },
        {
          "indexed": true,
          "internalType": "uint256",
          "name": "draftEra",
          "type": "uint256"
        },
        {
          "indexed": true,
          "internalType": "address",
          "name": "staker",
          "type": "address"
        },
        {
          "indexed": false,
          "internalType": "uint256",
          "name": "rsrAmount",
          "type": "uint256"
        },
        {
          "indexed": false,
          "internalType": "uint256",
          "name": "stRSRAmount",
          "type": "uint256"
        },
        {
          "indexed": false,
          "internalType": "uint256",
          "name": "availableAt",
          "type": "uint256"
        }
      ],
      "name": "UnstakingStarted",
      "type": "event"
    },
    {
      "inputs": [],
      "name": "DOMAIN_SEPARATOR",
      "outputs": [
        {
          "internalType": "bytes32",
          "name": "",
          "type": "bytes32"
        }
      ],
      "stateMutability": "view",
      "type": "function"
    },
    {
      "inputs": [],
      "name": "MAX_REWARD_PERIOD",
      "outputs": [
        {
          "internalType": "uint48",
          "name": "",
          "type": "uint48"
        }
      ],
      "stateMutability": "view",
      "type": "function"
    },
    {
      "inputs": [],
      "name": "MAX_REWARD_RATIO",
      "outputs": [
        {
          "internalType": "uint192",
          "name": "",
          "type": "uint192"
        }
      ],
      "stateMutability": "view",
      "type": "function"
    },
    {
      "inputs": [],
      "name": "MAX_UNSTAKING_DELAY",
      "outputs": [
        {
          "internalType": "uint48",
          "name": "",
          "type": "uint48"
        }
      ],
      "stateMutability": "view",
      "type": "function"
    },
    {
      "inputs": [
        {
          "internalType": "address",
          "name": "owner",
          "type": "address"
        },
        {
          "internalType": "address",
          "name": "spender",
          "type": "address"
        }
      ],
      "name": "allowance",
      "outputs": [
        {
          "internalType": "uint256",
          "name": "",
          "type": "uint256"
        }
      ],
      "stateMutability": "view",
      "type": "function"
    },
    {
      "inputs": [
        {
          "internalType": "address",
          "name": "spender",
          "type": "address"
        },
        {
          "internalType": "uint256",
          "name": "amount",
          "type": "uint256"
        }
      ],
      "name": "approve",
      "outputs": [
        {
          "internalType": "bool",
          "name": "",
          "type": "bool"
        }
      ],
      "stateMutability": "nonpayable",
      "type": "function"
    },
    {
      "inputs": [
        {
          "internalType": "address",
          "name": "account",
          "type": "address"
        }
      ],
      "name": "balanceOf",
      "outputs": [
        {
          "internalType": "uint256",
          "name": "",
          "type": "uint256"
        }
      ],
      "stateMutability": "view",
      "type": "function"
    },
    {
      "inputs": [],
      "name": "decimals",
      "outputs": [
        {
          "internalType": "uint8",
          "name": "",
          "type": "uint8"
        }
      ],
      "stateMutability": "pure",
      "type": "function"
    },
    {
      "inputs": [
        {
          "internalType": "address",
          "name": "spender",
          "type": "address"
        },
        {
          "internalType": "uint256",
          "name": "subtractedValue",
          "type": "uint256"
        }
      ],
      "name": "decreaseAllowance",
      "outputs": [
        {
          "internalType": "bool",
          "name": "",
          "type": "bool"
        }
      ],
      "stateMutability": "nonpayable",
      "type": "function"
    },
    {
      "inputs": [
        {
          "internalType": "address",
          "name": "account",
          "type": "address"
        }
      ],
      "name": "endIdForWithdraw",
      "outputs": [
        {
          "internalType": "uint256",
          "name": "",
          "type": "uint256"
        }
      ],
      "stateMutability": "view",
      "type": "function"
    },
    {
      "inputs": [],
      "name": "exchangeRate",
      "outputs": [
        {
          "internalType": "uint192",
          "name": "",
          "type": "uint192"
        }
      ],
      "stateMutability": "view",
      "type": "function"
    },
    {
      "inputs": [
        {
          "internalType": "address",
          "name": "spender",
          "type": "address"
        },
        {
          "internalType": "uint256",
          "name": "addedValue",
          "type": "uint256"
        }
      ],
      "name": "increaseAllowance",
      "outputs": [
        {
          "internalType": "bool",
          "name": "",
          "type": "bool"
        }
      ],
      "stateMutability": "nonpayable",
      "type": "function"
    },
    {
      "inputs": [
        {
          "internalType": "contract IMain",
          "name": "main_",
          "type": "address"
        },
        {
          "internalType": "string",
          "name": "name_",
          "type": "string"
        },
        {
          "internalType": "string",
          "name": "symbol_",
          "type": "string"
        },
        {
          "internalType": "uint48",
          "name": "unstakingDelay_",
          "type": "uint48"
        },
        {
          "internalType": "uint48",
          "name": "rewardPeriod_",
          "type": "uint48"
        },
        {
          "internalType": "uint192",
          "name": "rewardRatio_",
          "type": "uint192"
        }
      ],
      "name": "init",
      "outputs": [],
      "stateMutability": "nonpayable",
      "type": "function"
    },
    {
      "inputs": [],
      "name": "main",
      "outputs": [
        {
          "internalType": "contract IMain",
          "name": "",
          "type": "address"
        }
      ],
      "stateMutability": "view",
      "type": "function"
    },
    {
      "inputs": [],
      "name": "name",
      "outputs": [
        {
          "internalType": "string",
          "name": "",
          "type": "string"
        }
      ],
      "stateMutability": "view",
      "type": "function"
    },
    {
      "inputs": [
        {
          "internalType": "address",
          "name": "owner",
          "type": "address"
        }
      ],
      "name": "nonces",
      "outputs": [
        {
          "internalType": "uint256",
          "name": "",
          "type": "uint256"
        }
      ],
      "stateMutability": "view",
      "type": "function"
    },
    {
      "inputs": [],
      "name": "payoutRewards",
      "outputs": [],
      "stateMutability": "nonpayable",
      "type": "function"
    },
    {
      "inputs": [
        {
          "internalType": "address",
          "name": "owner",
          "type": "address"
        },
        {
          "internalType": "address",
          "name": "spender",
          "type": "address"
        },
        {
          "internalType": "uint256",
          "name": "value",
          "type": "uint256"
        },
        {
          "internalType": "uint256",
          "name": "deadline",
          "type": "uint256"
        },
        {
          "internalType": "uint8",
          "name": "v",
          "type": "uint8"
        },
        {
          "internalType": "bytes32",
          "name": "r",
          "type": "bytes32"
        },
        {
          "internalType": "bytes32",
          "name": "s",
          "type": "bytes32"
        }
      ],
      "name": "permit",
      "outputs": [],
      "stateMutability": "nonpayable",
      "type": "function"
    },
    {
      "inputs": [],
      "name": "rewardPeriod",
      "outputs": [
        {
          "internalType": "uint48",
          "name": "",
          "type": "uint48"
        }
      ],
      "stateMutability": "view",
      "type": "function"
    },
    {
      "inputs": [],
      "name": "rewardRatio",
      "outputs": [
        {
          "internalType": "uint192",
          "name": "",
          "type": "uint192"
        }
      ],
      "stateMutability": "view",
      "type": "function"
    },
    {
      "inputs": [
        {
          "internalType": "uint256",
          "name": "rsrAmount",
          "type": "uint256"
        }
      ],
      "name": "seizeRSR",
      "outputs": [],
      "stateMutability": "nonpayable",
      "type": "function"
    },
    {
      "inputs": [
        {
          "internalType": "uint48",
          "name": "val",
          "type": "uint48"
        }
      ],
      "name": "setRewardPeriod",
      "outputs": [],
      "stateMutability": "nonpayable",
      "type": "function"
    },
    {
      "inputs": [
        {
          "internalType": "uint192",
          "name": "val",
          "type": "uint192"
        }
      ],
      "name": "setRewardRatio",
      "outputs": [],
      "stateMutability": "nonpayable",
      "type": "function"
    },
    {
      "inputs": [
        {
          "internalType": "uint48",
          "name": "val",
          "type": "uint48"
        }
      ],
      "name": "setUnstakingDelay",
      "outputs": [],
      "stateMutability": "nonpayable",
      "type": "function"
    },
    {
      "inputs": [
        {
          "internalType": "uint256",
          "name": "rsrAmount",
          "type": "uint256"
        }
      ],
      "name": "stake",
      "outputs": [],
      "stateMutability": "nonpayable",
      "type": "function"
    },
    {
      "inputs": [],
      "name": "symbol",
      "outputs": [
        {
          "internalType": "string",
          "name": "",
          "type": "string"
        }
      ],
      "stateMutability": "view",
      "type": "function"
    },
    {
      "inputs": [],
      "name": "totalSupply",
      "outputs": [
        {
          "internalType": "uint256",
          "name": "",
          "type": "uint256"
        }
      ],
      "stateMutability": "view",
      "type": "function"
    },
    {
      "inputs": [
        {
          "internalType": "address",
          "name": "to",
          "type": "address"
        },
        {
          "internalType": "uint256",
          "name": "amount",
          "type": "uint256"
        }
      ],
      "name": "transfer",
      "outputs": [
        {
          "internalType": "bool",
          "name": "",
          "type": "bool"
        }
      ],
      "stateMutability": "nonpayable",
      "type": "function"
    },
    {
      "inputs": [
        {
          "internalType": "address",
          "name": "from",
          "type": "address"
        },
        {
          "internalType": "address",
          "name": "to",
          "type": "address"
        },
        {
          "internalType": "uint256",
          "name": "amount",
          "type": "uint256"
        }
      ],
      "name": "transferFrom",
      "outputs": [
        {
          "internalType": "bool",
          "name": "",
          "type": "bool"
        }
      ],
      "stateMutability": "nonpayable",
      "type": "function"
    },
    {
      "inputs": [
        {
          "internalType": "uint256",
          "name": "stakeAmount",
          "type": "uint256"
        }
      ],
      "name": "unstake",
      "outputs": [],
      "stateMutability": "nonpayable",
      "type": "function"
    },
    {
      "inputs": [],
      "name": "unstakingDelay",
      "outputs": [
        {
          "internalType": "uint48",
          "name": "",
          "type": "uint48"
        }
      ],
      "stateMutability": "view",
      "type": "function"
    },
    {
      "inputs": [],
      "name": "version",
      "outputs": [
        {
          "internalType": "string",
          "name": "",
          "type": "string"
        }
      ],
      "stateMutability": "pure",
      "type": "function"
    },
    {
      "inputs": [
        {
          "internalType": "address",
          "name": "account",
          "type": "address"
        },
        {
          "internalType": "uint256",
          "name": "endId",
          "type": "uint256"
        }
      ],
      "name": "withdraw",
      "outputs": [],
      "stateMutability": "nonpayable",
      "type": "function"
    },
    {
      "inputs": [
        {
          "internalType": "address",
          "name": "",
          "type": "address"
        },
        {
          "internalType": "uint256",
          "name": "",
          "type": "uint256"
        }
      ],
      "name": "withdrawals",
      "outputs": [
        {
          "internalType": "address",
          "name": "account",
          "type": "address"
        },
        {
          "internalType": "uint256",
          "name": "rsrAmount",
          "type": "uint256"
        },
        {
          "internalType": "uint256",
          "name": "stakeAmount",
          "type": "uint256"
        },
        {
          "internalType": "uint256",
          "name": "availableAt",
          "type": "uint256"
        }
      ],
      "stateMutability": "view",
      "type": "function"
    }
  ],
  "bytecode": "0x60a06040527f6e71edae12b1b97f4d1f60370fef10105fa2faae0126114a169c64845d6126c960805234801561003457600080fd5b50608051613f0b6100506000396000611b7e0152613f0b6000f3fe608060405234801561001057600080fd5b50600436106102065760003560e01c806371664e491161011a578063cf9649e1116100ad578063dd62ed3e1161007c578063dd62ed3e1461047b578063dffeadd0146104b4578063e88dc5b7146104df578063eb58a8a8146104f8578063f3fef3a31461050b57600080fd5b8063cf9649e11461033e578063d505accf14610446578063d591101f14610459578063d7ccc2751461046857600080fd5b8063a457c2d7116100e9578063a457c2d7146103fa578063a694fc3a1461040d578063a9059cbb14610420578063b555450d1461043357600080fd5b806371664e49146103b95780637ecebe00146103cc57806395d89b41146103df578063a439622f146103e757600080fd5b80633644e5151161019d57806349018e411161016c57806349018e411461033e5780634ea4b8431461034957806354fd4d501461035c578063646033bc1461037d57806370a082311461039057600080fd5b80633644e515146102c657806339509351146102ce5780633ba0b9a9146102e1578063422b10771461030157600080fd5b806323b872dd116101d957806323b872dd14610287578063296130861461029a5780632e17de78146102a4578063313ce567146102b757600080fd5b806306fdde031461020b5780630708924614610229578063095ea7b31461025257806318160ddd14610275575b600080fd5b61021361051e565b604051610220919061385d565b60405180910390f35b60755461023b9065ffffffffffff1681565b60405165ffffffffffff9091168152602001610220565b6102656102603660046138a5565b6105b0565b6040519015158152602001610220565b606f545b604051908152602001610220565b6102656102953660046138d1565b6105c7565b6102a26105e9565b005b6102a26102b2366004613912565b61069f565b60405160128152602001610220565b610279610a31565b6102656102dc3660046138a5565b610a40565b6102e9610a7f565b6040516001600160c01b039091168152602001610220565b61031461030f3660046138a5565b610ab1565b604080516001600160a01b0390951685526020850193909352918301526060820152608001610220565b61023b6301e1338081565b6102a2610357366004613a00565b610b01565b6040805180820190915260058152640312e322e360dc1b6020820152610213565b6076546102e9906001600160c01b031681565b61027961039e366004613aa7565b6001600160a01b03166000908152606b602052604090205490565b6102a26103c7366004613ac4565b610df6565b6102796103da366004613aa7565b61101f565b61021361103d565b6102a26103f5366004613912565b61104c565b6102656104083660046138a5565b6116d4565b6102a261041b366004613912565b611771565b61026561042e3660046138a5565b611ab2565b610279610441366004613aa7565b611abf565b6102a2610454366004613adf565b611b2a565b6102e9670de0b6b3a764000081565b6102a2610476366004613b56565b611c9b565b610279610489366004613b71565b6001600160a01b039182166000908152606c6020908152604080832093909416825291909152205490565b6033546104c7906001600160a01b031681565b6040516001600160a01b039091168152602001610220565b60755461023b90600160301b900465ffffffffffff1681565b6102a2610506366004613ac4565b611e22565b6102a26105193660046138a5565b611fcc565b60606069805461052d90613baa565b80601f016020809104026020016040519081016040528092919081815260200182805461055990613baa565b80156105a65780601f1061057b576101008083540402835291602001916105a6565b820191906000526020600020905b81548152906001019060200180831161058957829003601f168201915b5050505050905090565b60006105bd33848461259f565b5060015b92915050565b60006105d48433846126c3565b6105df848484612755565b5060019392505050565b603360009054906101000a90046001600160a01b03166001600160a01b031663f17063756040518163ffffffff1660e01b815260040160206040518083038186803b15801561063757600080fd5b505afa15801561064b573d6000803e3d6000fd5b505050506040513d601f19601f8201168201806040525081019061066f9190613bdf565b156106955760405162461bcd60e51b815260040161068c90613c01565b60405180910390fd5b61069d612934565b565b603360009054906101000a90046001600160a01b03166001600160a01b031663f17063756040518163ffffffff1660e01b815260040160206040518083038186803b1580156106ed57600080fd5b505afa158015610701573d6000803e3d6000fd5b505050506040513d601f19601f820116820180604052508101906107259190613bdf565b156107425760405162461bcd60e51b815260040161068c90613c01565b33816107875760405162461bcd60e51b815260206004820152601460248201527343616e6e6f74207769746864726177207a65726f60601b604482015260640161068c565b6001600160a01b0381166000908152606b60205260409020548211156107e45760405162461bcd60e51b81526020600482015260126024820152714e6f7420656e6f7567682062616c616e636560701b604482015260640161068c565b603360009054906101000a90046001600160a01b03166001600160a01b031663181783586040518163ffffffff1660e01b8152600401600060405180830381600087803b15801561083457600080fd5b505af1158015610848573d6000803e3d6000fd5b505050506000606f546070548461085f9190613c41565b6108699190613c76565b6001600160a01b0383166000908152606b6020526040812080549293508592909190610896908490613c8a565b9250508190555082606f60008282546108af9190613c8a565b9250508190555080607060008282546108c89190613c8a565b90915550506001600160a01b03821660009081526074602052604081205490816108f3576000610939565b6001600160a01b0384166000908152607460205260409020610916600184613c8a565b8154811061092657610926613ca1565b9060005260206000209060040201600301545b60755490915060009061095e906109589065ffffffffffff1642613cb7565b83612add565b6001600160a01b03868116600081815260746020908152604080832081516080810183528581528084018c81528184018f815260608084018b8152855460018082018855968a52988890209451600490990290940180546001600160a01b03191698909a16979097178955905192880192909255905160028701555160039095019490945560735484518a81529182018c9052938101859052939450909286917f1a9484bd0ef282a993728aef393a723fbc6fdc06f16c98befba1b4e3a8a7a3f8910160405180910390a4505050505050565b6000610a3b612af3565b905090565b336000818152606c602090815260408083206001600160a01b03871684529091528120549091906105df9082908690610a7a908790613cb7565b61259f565b600060705460001480610a925750606f54155b610aa457610a3b607054606f54612b6e565b50670de0b6b3a764000090565b60746020528160005260406000208181548110610acd57600080fd5b600091825260209091206004909102018054600182015460028301546003909301546001600160a01b039092169450925084565b600054610100900460ff1615808015610b215750600054600160ff909116105b80610b3b5750303b158015610b3b575060005460ff166001145b610b9e5760405162461bcd60e51b815260206004820152602e60248201527f496e697469616c697a61626c653a20636f6e747261637420697320616c72656160448201526d191e481a5b9a5d1a585b1a5e995960921b606482015260840161068c565b6000805460ff191660011790558015610bc1576000805461ff0019166101001790555b6000865111610bff5760405162461bcd60e51b815260206004820152600a6024820152696e616d6520656d70747960b01b604482015260640161068c565b6000855111610c3f5760405162461bcd60e51b815260206004820152600c60248201526b73796d626f6c20656d70747960a01b604482015260640161068c565b610c4887612b8b565b610c6b86604051806040016040528060018152602001603160f81b815250612c21565b8551610c7e906069906020890190613747565b508451610c9290606a906020880190613747565b5042607181905550866001600160a01b031663c99dc3dd6040518163ffffffff1660e01b815260040160206040518083038186803b158015610cd357600080fd5b505afa158015610ce7573d6000803e3d6000fd5b505050506040513d601f19601f82011682018060405250810190610d0b9190613ccf565b6040516370a0823160e01b81523060048201526001600160a01b0391909116906370a082319060240160206040518083038186803b158015610d4c57600080fd5b505afa158015610d60573d6000803e3d6000fd5b505050506040513d601f19601f82011682018060405250810190610d849190613cec565b607255610d9084611e22565b610d9983610df6565b610da282611c9b565b60016073558015610ded576000805461ff0019169055604051600181527f7f26b83ff96e1f2b6a682f133852f6798a09c465da95921460cefb38474024989060200160405180910390a15b50505050505050565b60335460408051808201909152600581526427aba722a960d91b60208201526001600160a01b03909116906391d1485490610e3090613d05565b336040516001600160e01b031960e085901b16815260048101929092526001600160a01b0316602482015260440160206040518083038186803b158015610e7657600080fd5b505afa158015610e8a573d6000803e3d6000fd5b505050506040513d601f19601f82011682018060405250810190610eae9190613bdf565b610eca5760405162461bcd60e51b815260040161068c90613d29565b60008165ffffffffffff16118015610eee57506301e1338065ffffffffffff821611155b610f315760405162461bcd60e51b81526020600482015260146024820152731a5b9d985b1a59081c995dd85c9914195c9a5bd960621b604482015260640161068c565b60755460405165ffffffffffff80841692600160301b900416907f2b9667710e15f72935a45635aaac962ed42250b852cb7e5a5b30dc5a9a9bef2a90600090a36075805465ffffffffffff808416600160301b9081026bffffffffffff00000000000019841681179485905582169282169290921792610fb5929004166002613d52565b65ffffffffffff16111561101c5760405162461bcd60e51b815260206004820152602860248201527f756e7374616b696e6744656c61792f726577617264506572696f6420696e636f6044820152676d70617469626c6560c01b606482015260840161068c565b50565b6001600160a01b0381166000908152606860205260408120546105c1565b6060606a805461052d90613baa565b603360009054906101000a90046001600160a01b03166001600160a01b031663f17063756040518163ffffffff1660e01b815260040160206040518083038186803b15801561109a57600080fd5b505afa1580156110ae573d6000803e3d6000fd5b505050506040513d601f19601f820116820180604052508101906110d29190613bdf565b156110ef5760405162461bcd60e51b815260040161068c90613c01565b603360009054906101000a90046001600160a01b03166001600160a01b031663dc8af5f66040518163ffffffff1660e01b815260040160206040518083038186803b15801561113d57600080fd5b505afa158015611151573d6000803e3d6000fd5b505050506040513d601f19601f820116820180604052508101906111759190613ccf565b6001600160a01b0316336001600160a01b0316146111cb5760405162461bcd60e51b81526020600482015260136024820152723737ba103130b1b5b4b7339036b0b730b3b2b960691b604482015260640161068c565b600081116112135760405162461bcd60e51b8152602060048201526015602482015274416d6f756e742063616e6e6f74206265207a65726f60581b604482015260640161068c565b600061121d610a7f565b90506000611229612c52565b90506000603360009054906101000a90046001600160a01b03166001600160a01b031663c99dc3dd6040518163ffffffff1660e01b815260040160206040518083038186803b15801561127b57600080fd5b505afa15801561128f573d6000803e3d6000fd5b505050506040513d601f19601f820116820180604052508101906112b39190613ccf565b6040516370a0823160e01b81523060048201526001600160a01b0391909116906370a082319060240160206040518083038186803b1580156112f457600080fd5b505afa158015611308573d6000803e3d6000fd5b505050506040513d601f19601f8201168201806040525081019061132c9190613cec565b9050808411156113895760405162461bcd60e51b815260206004820152602260248201527f43616e6e6f74207365697a65206d6f726520525352207468616e20776520686f6044820152611b1960f21b606482015260840161068c565b60008082611398600182613c8a565b876070546113a69190613c41565b6113b09190613cb7565b6113ba9190613c76565b606f549091506113cf90633b9aca0090612d72565b816070546113dd9190613c8a565b10156113f2576113eb612d90565b915061140f565b80607060008282546114049190613c8a565b925050819055508091505b60008361141d600182613c8a565b88611426612e2f565b6114309190613c41565b61143a9190613cb7565b6114449190613c76565b905061145c611451612eff565b633b9aca0090612d72565b81611465612e2f565b61146f9190613c8a565b101561148e5761147d612fcb565b6114879084613cb7565b92506115a9565b60005b61149b606d613030565b8110156115a75760006074816114b2606d8561303a565b6001600160a01b03166001600160a01b03168152602001908152602001600020905060005b81548110156115925760008282815481106114f4576114f4613ca1565b906000526020600020906004020160010154905060008860018a6115189190613c8a565b6115228e85613c41565b61152c9190613cb7565b6115369190613c76565b90508084848154811061154b5761154b613ca1565b9060005260206000209060040201600101600082825461156b9190613c8a565b9091555061157b90508189613cb7565b97505050808061158a90613d80565b9150506114d7565b5050808061159f90613d80565b915050611491565b505b6000846115b7600182613c8a565b6115c18a89613c41565b6115cb9190613cb7565b6115d59190613c76565b90506115e18185613cb7565b9350838811156115f3576115f3613d9b565b6115fb610a7f565b6001600160c01b0316876001600160c01b03167fa960008f17c9b70495943fe5e4a3c8aed709c7dcafe762f7a89e64743669404360405160405180910390a36116ca336033546040805163c99dc3dd60e01b8152905188926001600160a01b03169163c99dc3dd916004808301926020929190829003018186803b15801561168257600080fd5b505afa158015611696573d6000803e3d6000fd5b505050506040513d601f19601f820116820180604052508101906116ba9190613ccf565b6001600160a01b03169190613046565b5050505050505050565b336000818152606c602090815260408083206001600160a01b0387168452909152812054909190838110156117595760405162461bcd60e51b815260206004820152602560248201527f45524332303a2064656372656173656420616c6c6f77616e63652062656c6f77604482015264207a65726f60d81b606482015260840161068c565b611766828686840361259f565b506001949350505050565b33816117b35760405162461bcd60e51b815260206004820152601160248201527043616e6e6f74207374616b65207a65726f60781b604482015260640161068c565b603360009054906101000a90046001600160a01b03166001600160a01b031663979d7e866040518163ffffffff1660e01b815260040160206040518083038186803b15801561180157600080fd5b505afa158015611815573d6000803e3d6000fd5b505050506040513d601f19601f820116820180604052508101906118399190613ccf565b6001600160a01b031663f8ac93e86040518163ffffffff1660e01b8152600401600060405180830381600087803b15801561187357600080fd5b505af1158015611887573d6000803e3d6000fd5b50505050603360009054906101000a90046001600160a01b03166001600160a01b031663f17063756040518163ffffffff1660e01b815260040160206040518083038186803b1580156118d957600080fd5b505afa1580156118ed573d6000803e3d6000fd5b505050506040513d601f19601f820116820180604052508101906119119190613bdf565b61191d5761191d612934565b606f5482901561194457607054606f546119379085613c41565b6119419190613c76565b90505b6001600160a01b0382166000908152606b602052604090205461196e5761196c606d836130a9565b505b6001600160a01b0382166000908152606b602052604081208054839290611996908490613cb7565b9250508190555080606f60008282546119af9190613cb7565b9250508190555082607060008282546119c89190613cb7565b909155505060735460405184815282916001600160a01b038516917f17700ceb1658b18206f427c1578048e87504106b14ec69e9b4586d9a95174a329060200160405180910390a4611aad823085603360009054906101000a90046001600160a01b03166001600160a01b031663c99dc3dd6040518163ffffffff1660e01b815260040160206040518083038186803b158015611a6457600080fd5b505afa158015611a78573d6000803e3d6000fd5b505050506040513d601f19601f82011682018060405250810190611a9c9190613ccf565b6001600160a01b03169291906130be565b505050565b60006105bd338484612755565b6001600160a01b0381166000908152607460205260408120815b815481108015611b0c575042828281548110611af757611af7613ca1565b90600052602060002090600402016003015411155b15611b235780611b1b81613d80565b915050611ad9565b9392505050565b83421115611b7a5760405162461bcd60e51b815260206004820152601d60248201527f45524332305065726d69743a206578706972656420646561646c696e65000000604482015260640161068c565b60007f0000000000000000000000000000000000000000000000000000000000000000888888611ba98c6130f6565b6040805160208101969096526001600160a01b0394851690860152929091166060840152608083015260a082015260c0810186905260e00160405160208183030381529060405280519060200120905073__$2d1f1df91c509134c97a9b37f5a8e18539$__634a42ee8089611c1d8461311e565b6040516001600160e01b031960e085901b1681526001600160a01b039092166004830152602482015260ff87166044820152606481018690526084810185905260a40160006040518083038186803b158015611c7857600080fd5b505af4158015611c8c573d6000803e3d6000fd5b505050506116ca88888861259f565b60335460408051808201909152600581526427aba722a960d91b60208201526001600160a01b03909116906391d1485490611cd590613d05565b336040516001600160e01b031960e085901b16815260048101929092526001600160a01b0316602482015260440160206040518083038186803b158015611d1b57600080fd5b505afa158015611d2f573d6000803e3d6000fd5b505050506040513d601f19601f82011682018060405250810190611d539190613bdf565b611d6f5760405162461bcd60e51b815260040161068c90613d29565b670de0b6b3a76400006001600160c01b0382161115611dc65760405162461bcd60e51b8152602060048201526013602482015272696e76616c696420726577617264526174696f60681b604482015260640161068c565b6076546040516001600160c01b038084169216907fb118098f66750616290767b73d61ab7f4de09e99e97505e256e70c3b10782e7690600090a3607680546001600160c01b0319166001600160c01b0392909216919091179055565b60335460408051808201909152600581526427aba722a960d91b60208201526001600160a01b03909116906391d1485490611e5c90613d05565b336040516001600160e01b031960e085901b16815260048101929092526001600160a01b0316602482015260440160206040518083038186803b158015611ea257600080fd5b505afa158015611eb6573d6000803e3d6000fd5b505050506040513d601f19601f82011682018060405250810190611eda9190613bdf565b611ef65760405162461bcd60e51b815260040161068c90613d29565b60008165ffffffffffff16118015611f1a57506301e1338065ffffffffffff821611155b611f5f5760405162461bcd60e51b8152602060048201526016602482015275696e76616c696420756e7374616b696e6744656c617960501b604482015260640161068c565b60755460405165ffffffffffff8084169216907f93159285ad2cef1861fdef1d2ca04162b2eff9aa5c08324f599d3aa0e04b223a90600090a36075805465ffffffffffff191665ffffffffffff838116918217928390559091610fb591600160301b909104166002613d52565b603360009054906101000a90046001600160a01b03166001600160a01b031663f17063756040518163ffffffff1660e01b815260040160206040518083038186803b15801561201a57600080fd5b505afa15801561202e573d6000803e3d6000fd5b505050506040513d601f19601f820116820180604052508101906120529190613bdf565b1561206f5760405162461bcd60e51b815260040161068c90613c01565b60335460408051632f2439b160e01b815290516000926001600160a01b031691632f2439b1916004808301926020929190829003018186803b1580156120b457600080fd5b505afa1580156120c8573d6000803e3d6000fd5b505050506040513d601f19601f820116820180604052508101906120ec9190613ccf565b9050806001600160a01b031663e45a5b2d6040518163ffffffff1660e01b815260040160206040518083038186803b15801561212757600080fd5b505afa15801561213b573d6000803e3d6000fd5b505050506040513d601f19601f8201168201806040525081019061215f9190613bdf565b6121a25760405162461bcd60e51b815260206004820152601460248201527314951bdad95b881d5b98d85c1a5d185b1a5e995960621b604482015260640161068c565b6000816001600160a01b031663200d2ed26040518163ffffffff1660e01b815260040160206040518083038186803b1580156121dd57600080fd5b505afa1580156121f1573d6000803e3d6000fd5b505050506040513d601f19601f820116820180604052508101906122159190613dc7565b600281111561222657612226613db1565b146122665760405162461bcd60e51b815260206004820152601060248201526f18985cdad95d08191959985d5b1d195960821b604482015260640161068c565b6001600160a01b0383166000908152607460205260409020826122895750505050565b80548311156122d05760405162461bcd60e51b8152602060048201526013602482015272696e646578206f75742d6f662d626f756e647360681b604482015260640161068c565b42816122dd600186613c8a565b815481106122ed576122ed613ca1565b90600052602060002090600402016003015411156123465760405162461bcd60e51b81526020600482015260166024820152757769746864726177616c20756e617661696c61626c6560501b604482015260640161068c565b603360009054906101000a90046001600160a01b03166001600160a01b031663181783586040518163ffffffff1660e01b8152600401600060405180830381600087803b15801561239657600080fd5b505af11580156123aa573d6000803e3d6000fd5b5050505060005b8181815481106123c3576123c3613ca1565b906000526020600020906004020160010154600014801561240757508181815481106123f1576123f1613ca1565b9060005260206000209060040201600201546000145b801561241257508381105b15612429578061242181613d80565b9150506123b1565b6000815b858110801561245f57504284828154811061244a5761244a613ca1565b90600052602060002090600402016003015411155b156124f85783818154811061247657612476613ca1565b906000526020600020906004020160010154826124939190613cb7565b915060008482815481106124a9576124a9613ca1565b90600052602060002090600402016001018190555060008482815481106124d2576124d2613ca1565b6000918252602090912060026004909202010155806124f081613d80565b91505061242d565b866001600160a01b031681847fd42f64bbf441b944cb3b10d82058ccb2b527d393e6c6c96346d5dc540957d19260735486604051612540929190918252602082015260400190565b60405180910390a4610ded8783603360009054906101000a90046001600160a01b03166001600160a01b031663c99dc3dd6040518163ffffffff1660e01b815260040160206040518083038186803b15801561168257600080fd5b5050565b6001600160a01b0383166126015760405162461bcd60e51b8152602060048201526024808201527f45524332303a20617070726f76652066726f6d20746865207a65726f206164646044820152637265737360e01b606482015260840161068c565b6001600160a01b0382166126625760405162461bcd60e51b815260206004820152602260248201527f45524332303a20617070726f766520746f20746865207a65726f206164647265604482015261737360f01b606482015260840161068c565b6001600160a01b038381166000818152606c602090815260408083209487168084529482529182902085905590518481527f8c5be1e5ebec7d5bd14f71427d1e84f3dd0314c0f7b2291e5b200ac8c7c3b925910160405180910390a3505050565b6001600160a01b038381166000908152606c6020908152604080832093861683529290522054600019811461274f57818110156127425760405162461bcd60e51b815260206004820152601d60248201527f45524332303a20696e73756666696369656e7420616c6c6f77616e6365000000604482015260640161068c565b61274f848484840361259f565b50505050565b6001600160a01b0383166127b95760405162461bcd60e51b815260206004820152602560248201527f45524332303a207472616e736665722066726f6d20746865207a65726f206164604482015264647265737360d81b606482015260840161068c565b6001600160a01b03821661281b5760405162461bcd60e51b815260206004820152602360248201527f45524332303a207472616e7366657220746f20746865207a65726f206164647260448201526265737360e81b606482015260840161068c565b6001600160a01b03821630141561286d5760405162461bcd60e51b815260206004820152601660248201527529ba2929a9103a3930b739b332b9103a379039b2b63360511b604482015260640161068c565b6001600160a01b0383166000908152606b6020526040902054818110156128e55760405162461bcd60e51b815260206004820152602660248201527f45524332303a207472616e7366657220616d6f756e7420657863656564732062604482015265616c616e636560d01b606482015260840161068c565b6001600160a01b038085166000908152606b602052604080822085850390559185168152908120805484929061291c908490613cb7565b9091555061292d9050606d846130a9565b5050505050565b60755460715461295391600160301b900465ffffffffffff1690613cb7565b42101561295c57565b6000612966610a7f565b90506000607560069054906101000a900465ffffffffffff166071544261298d9190613de8565b6129979190613e0f565b6076549091506000906129e4906129d59084906129c690670de0b6b3a7640000906001600160c01b031661316c565b6001600160c01b031690613178565b670de0b6b3a76400009061316c565b90506000612a06607254836001600160c01b0316612d7290919063ffffffff16565b90508060706000828254612a1a9190613cb7565b9091555050607554612a3b90600160301b900465ffffffffffff1684613d52565b65ffffffffffff1660716000828254612a549190613cb7565b90915550612a629050612c52565b60725560405181907fb0c65a5b323022d926c456e1564d86f0bda40160a781c820f571d7635b34880190600090a2612a98610a7f565b6001600160c01b0316846001600160c01b03167fa960008f17c9b70495943fe5e4a3c8aed709c7dcafe762f7a89e64743669404360405160405180910390a350505050565b6000818311612aec5781611b23565b5090919050565b6000610a3b7f8b73c3c69bb8fe3d512ecc4cf759cc79239f7b179b0ffacaa9a75d522b39400f612b2260345490565b6035546040805160208101859052908101839052606081018290524660808201523060a082015260009060c0016040516020818303038152906040528051906020012090509392505050565b6000611b23612b86670de0b6b3a764000085856132f4565b6133d7565b600054610100900460ff16612bb25760405162461bcd60e51b815260040161068c90613e34565b6001600160a01b038116612bff5760405162461bcd60e51b81526020600482015260146024820152736d61696e206973207a65726f206164647265737360601b604482015260640161068c565b603380546001600160a01b0319166001600160a01b0392909216919091179055565b600054610100900460ff16612c485760405162461bcd60e51b815260040161068c90613e34565b61259b8282613401565b6000612c5c612e2f565b607054603360009054906101000a90046001600160a01b03166001600160a01b031663c99dc3dd6040518163ffffffff1660e01b815260040160206040518083038186803b158015612cad57600080fd5b505afa158015612cc1573d6000803e3d6000fd5b505050506040513d601f19601f82011682018060405250810190612ce59190613ccf565b6040516370a0823160e01b81523060048201526001600160a01b0391909116906370a082319060240160206040518083038186803b158015612d2657600080fd5b505afa158015612d3a573d6000803e3d6000fd5b505050506040513d601f19601f82011682018060405250810190612d5e9190613cec565b612d689190613c8a565b610a3b9190613c8a565b6000611b236001600160c01b03841683670de0b6b3a76400006132f4565b60708054600091829055606f829055607380549192612dae83613d80565b919050555060005b612dc0606d613030565b811015612dff576000612dd4606d8361303a565b6001600160a01b03166000908152606b60205260408120555080612df781613d80565b915050612db6565b506073546040517fdeba711e99fd7b5e4c3791cdf72d3b4af968d7bff093b505fba2ab5a967bc49390600090a290565b6000805b612e3d606d613030565b811015612efb5760005b60746000612e56606d8561303a565b6001600160a01b03168152602081019190915260400160002054811015612ee85760746000612e86606d8561303a565b6001600160a01b03166001600160a01b031681526020019081526020016000208181548110612eb757612eb7613ca1565b90600052602060002090600402016001015483612ed49190613cb7565b925080612ee081613d80565b915050612e47565b5080612ef381613d80565b915050612e33565b5090565b6000805b612f0d606d613030565b811015612efb5760005b60746000612f26606d8561303a565b6001600160a01b03168152602081019190915260400160002054811015612fb85760746000612f56606d8561303a565b6001600160a01b03166001600160a01b031681526020019081526020016000208181548110612f8757612f87613ca1565b90600052602060002090600402016002015483612fa49190613cb7565b925080612fb081613d80565b915050612f17565b5080612fc381613d80565b915050612f03565b6000612fd5612e2f565b905060005b612fe4606d613030565b811015612efb576000612ff8606d8361303a565b6001600160a01b038116600090815260746020526040812091925061301d91906137c7565b508061302881613d80565b915050612fda565b60006105c1825490565b6000611b238383613442565b6040516001600160a01b038316602482015260448101829052611aad90849063a9059cbb60e01b906064015b60408051601f198184030181529190526020810180516001600160e01b03166001600160e01b03199093169290921790915261346c565b6000611b23836001600160a01b03841661353e565b6040516001600160a01b038085166024830152831660448201526064810182905261274f9085906323b872dd60e01b90608401613072565b6001600160a01b03811660009081526068602052604090208054600181018255905b50919050565b60006105c161312b612af3565b8360405161190160f01b6020820152602281018390526042810182905260009060620160405160208183030381529060405280519060200120905092915050565b6000611b238284613e7f565b6000670de0b6b3a76400006001600160c01b038416111561319857600080fd5b8165ffffffffffff16600114156131b05750816105c1565b6001600160c01b038316670de0b6b3a764000014806131d5575065ffffffffffff8216155b156131e95750670de0b6b3a76400006105c1565b6000613206670de0b6b3a76400006001600160c01b038616613c41565b90506ec097ce7bc90715b34b9f10000000005b60018085161415613269576ec097ce7bc90715b34b9f100000000061323f600282613e9f565b6001600160801b03166132528484613c41565b61325c9190613cb7565b6132669190613c76565b90505b60018465ffffffffffff161161327e576132d6565b60019390931c657fffffffffff16926ec097ce7bc90715b34b9f10000000006132a8600282613e9f565b6001600160801b03166132bb8480613c41565b6132c59190613cb7565b6132cf9190613c76565b9150613219565b6132eb612b86670de0b6b3a764000083613c76565b95945050505050565b6000806000613303868661358d565b915091508382106133275760405163f44398f560e01b815260040160405180910390fd5b6000848061333757613337613c60565b86880990508181111561334b576001830392505b90819003906000859003851680868161336657613366613c60565b04955080838161337857613378613c60565b04925080816000038161338d5761338d613c60565b046001019390930291909101600285810380870282030280870282030280870282030280870282030280870282030280870282030295860290039094029390930295945050505050565b60006001600160c01b03821115612efb5760405163f44398f560e01b815260040160405180910390fd5b600054610100900460ff166134285760405162461bcd60e51b815260040161068c90613e34565b815160209283012081519190920120603491909155603555565b600082600001828154811061345957613459613ca1565b9060005260206000200154905092915050565b60006134c1826040518060400160405280602081526020017f5361666545524332303a206c6f772d6c6576656c2063616c6c206661696c6564815250856001600160a01b03166135ba9092919063ffffffff16565b805190915015611aad57808060200190518101906134df9190613bdf565b611aad5760405162461bcd60e51b815260206004820152602a60248201527f5361666545524332303a204552433230206f7065726174696f6e20646964206e6044820152691bdd081cdd58d8d9595960b21b606482015260840161068c565b6000818152600183016020526040812054613585575081546001818101845560008481526020808220909301849055845484825282860190935260409020919091556105c1565b5060006105c1565b60008080600019848609905083850291508181039250818110156135b2576001830392505b509250929050565b60606135c984846000856135d1565b949350505050565b6060824710156136325760405162461bcd60e51b815260206004820152602660248201527f416464726573733a20696e73756666696369656e742062616c616e636520666f6044820152651c8818d85b1b60d21b606482015260840161068c565b600080866001600160a01b0316858760405161364e9190613eb9565b60006040518083038185875af1925050503d806000811461368b576040519150601f19603f3d011682016040523d82523d6000602084013e613690565b606091505b50915091506136a1878383876136ac565b979650505050505050565b60608315613718578251613711576001600160a01b0385163b6137115760405162461bcd60e51b815260206004820152601d60248201527f416464726573733a2063616c6c20746f206e6f6e2d636f6e7472616374000000604482015260640161068c565b50816135c9565b6135c9838381511561372d5781518083602001fd5b8060405162461bcd60e51b815260040161068c919061385d565b82805461375390613baa565b90600052602060002090601f01602090048101928261377557600085556137bb565b82601f1061378e57805160ff19168380011785556137bb565b828001600101855582156137bb579182015b828111156137bb5782518255916020019190600101906137a0565b50612efb9291506137e8565b508054600082556004029060005260206000209081019061101c91906137fd565b5b80821115612efb57600081556001016137e9565b5b80821115612efb5780546001600160a01b03191681556000600182018190556002820181905560038201556004016137fe565b60005b8381101561384c578181015183820152602001613834565b8381111561274f5750506000910152565b602081526000825180602084015261387c816040850160208701613831565b601f01601f19169190910160400192915050565b6001600160a01b038116811461101c57600080fd5b600080604083850312156138b857600080fd5b82356138c381613890565b946020939093013593505050565b6000806000606084860312156138e657600080fd5b83356138f181613890565b9250602084013561390181613890565b929592945050506040919091013590565b60006020828403121561392457600080fd5b5035919050565b634e487b7160e01b600052604160045260246000fd5b600082601f83011261395257600080fd5b813567ffffffffffffffff8082111561396d5761396d61392b565b604051601f8301601f19908116603f011681019082821181831017156139955761399561392b565b816040528381528660208588010111156139ae57600080fd5b836020870160208301376000602085830101528094505050505092915050565b803565ffffffffffff811681146139e457600080fd5b919050565b80356001600160c01b03811681146139e457600080fd5b60008060008060008060c08789031215613a1957600080fd5b8635613a2481613890565b9550602087013567ffffffffffffffff80821115613a4157600080fd5b613a4d8a838b01613941565b96506040890135915080821115613a6357600080fd5b50613a7089828a01613941565b945050613a7f606088016139ce565b9250613a8d608088016139ce565b9150613a9b60a088016139e9565b90509295509295509295565b600060208284031215613ab957600080fd5b8135611b2381613890565b600060208284031215613ad657600080fd5b611b23826139ce565b600080600080600080600060e0888a031215613afa57600080fd5b8735613b0581613890565b96506020880135613b1581613890565b95506040880135945060608801359350608088013560ff81168114613b3957600080fd5b9699959850939692959460a0840135945060c09093013592915050565b600060208284031215613b6857600080fd5b611b23826139e9565b60008060408385031215613b8457600080fd5b8235613b8f81613890565b91506020830135613b9f81613890565b809150509250929050565b600181811c90821680613bbe57607f821691505b6020821081141561311857634e487b7160e01b600052602260045260246000fd5b600060208284031215613bf157600080fd5b81518015158114611b2357600080fd5b60208082526010908201526f3830bab9b2b21037b910333937bd32b760811b604082015260600190565b634e487b7160e01b600052601160045260246000fd5b6000816000190483118215151615613c5b57613c5b613c2b565b500290565b634e487b7160e01b600052601260045260246000fd5b600082613c8557613c85613c60565b500490565b600082821015613c9c57613c9c613c2b565b500390565b634e487b7160e01b600052603260045260246000fd5b60008219821115613cca57613cca613c2b565b500190565b600060208284031215613ce157600080fd5b8151611b2381613890565b600060208284031215613cfe57600080fd5b5051919050565b805160208083015191908110156131185760001960209190910360031b1b16919050565b6020808252600f908201526e676f7665726e616e6365206f6e6c7960881b604082015260600190565b600065ffffffffffff80831681851681830481118215151615613d7757613d77613c2b565b02949350505050565b6000600019821415613d9457613d94613c2b565b5060010190565b634e487b7160e01b600052600160045260246000fd5b634e487b7160e01b600052602160045260246000fd5b600060208284031215613dd957600080fd5b815160038110611b2357600080fd5b600065ffffffffffff83811690831681811015613e0757613e07613c2b565b039392505050565b600065ffffffffffff80841680613e2857613e28613c60565b92169190910492915050565b6020808252602b908201527f496e697469616c697a61626c653a20636f6e7472616374206973206e6f74206960408201526a6e697469616c697a696e6760a81b606082015260800190565b60006001600160c01b0383811690831681811015613e0757613e07613c2b565b60006001600160801b0380841680613e2857613e28613c60565b60008251613ecb818460208701613831565b919091019291505056fea2646970667358221220cc37439f7077db4eb94dd912cbfca9deac3ac3bef8ec8fe41649cd63bca65c5b64736f6c63430008090033",
  "linkReferences": {
    "contracts/reserve/libraries/Permit.sol": {
      "PermitLib": [
        {
          "length": 20,
          "start": 7243
        }
      ]
    }
  },
  "deployedLinkReferences": {
    "contracts/reserve/libraries/Permit.sol": {
      "PermitLib": [
        {
          "length": 20,
          "start": 7163
        }
      ]
    }
  }
}