{
  "_format": "hh-sol-artifact-1",
  "contractName": "DeltaVerified",
  "sourceName": "contracts/DeltaVerified.sol",
  "abi": [
    {
      "inputs": [
        {
          "internalType": "address",
          "name": "oracle_",
          "type": "address"
        },
        {
          "internalType": "uint256",
          "name": "newCloseFactorMantissa_",
          "type": "uint256"
        }
      ],
      "stateMutability": "nonpayable",
      "type": "constructor"
    },
    {
      "anonymous": false,
      "inputs": [
        {
          "indexed": false,
          "internalType": "address",
          "name": "targetAccount",
          "type": "address"
        },
        {
          "indexed": false,
          "internalType": "address",
          "name": "assetBorrow",
          "type": "address"
        },
        {
          "indexed": false,
          "internalType": "uint256",
          "name": "borrowBalanceAccumulated",
          "type": "uint256"
        },
        {
          "indexed": false,
          "internalType": "uint256",
          "name": "amountRepaid",
          "type": "uint256"
        },
        {
          "indexed": false,
          "internalType": "address",
          "name": "liquidator",
          "type": "address"
        },
        {
          "indexed": false,
          "internalType": "address",
          "name": "assetCollateral",
          "type": "address"
        },
        {
          "indexed": false,
          "internalType": "uint256",
          "name": "amountSeized",
          "type": "uint256"
        }
      ],
      "name": "BorrowLiquidated",
      "type": "event"
    },
    {
      "anonymous": false,
      "inputs": [
        {
          "indexed": false,
          "internalType": "address",
          "name": "account",
          "type": "address"
        },
        {
          "indexed": false,
          "internalType": "address",
          "name": "asset",
          "type": "address"
        },
        {
          "indexed": false,
          "internalType": "uint256",
          "name": "amount",
          "type": "uint256"
        },
        {
          "indexed": false,
          "internalType": "uint256",
          "name": "startingBalance",
          "type": "uint256"
        },
        {
          "indexed": false,
          "internalType": "uint256",
          "name": "newBalance",
          "type": "uint256"
        }
      ],
      "name": "BorrowRepaid",
      "type": "event"
    },
    {
      "anonymous": false,
      "inputs": [
        {
          "indexed": false,
          "internalType": "address",
          "name": "account",
          "type": "address"
        },
        {
          "indexed": false,
          "internalType": "address",
          "name": "asset",
          "type": "address"
        },
        {
          "indexed": false,
          "internalType": "uint256",
          "name": "amount",
          "type": "uint256"
        },
        {
          "indexed": false,
          "internalType": "uint256",
          "name": "startingBalance",
          "type": "uint256"
        },
        {
          "indexed": false,
          "internalType": "uint256",
          "name": "borrowAmountWithFee",
          "type": "uint256"
        },
        {
          "indexed": false,
          "internalType": "uint256",
          "name": "newBalance",
          "type": "uint256"
        }
      ],
      "name": "BorrowTaken",
      "type": "event"
    },
    {
      "anonymous": false,
      "inputs": [
        {
          "indexed": false,
          "internalType": "address",
          "name": "asset",
          "type": "address"
        },
        {
          "indexed": false,
          "internalType": "uint256",
          "name": "equityAvailableBefore",
          "type": "uint256"
        },
        {
          "indexed": false,
          "internalType": "uint256",
          "name": "amount",
          "type": "uint256"
        },
        {
          "indexed": false,
          "internalType": "address",
          "name": "owner",
          "type": "address"
        }
      ],
      "name": "EquityWithdrawn",
      "type": "event"
    },
    {
      "anonymous": false,
      "inputs": [
        {
          "indexed": false,
          "internalType": "address",
          "name": "account",
          "type": "address"
        },
        {
          "indexed": false,
          "internalType": "address",
          "name": "asset",
          "type": "address"
        },
        {
          "indexed": false,
          "internalType": "uint256",
          "name": "amount",
          "type": "uint256"
        },
        {
          "indexed": false,
          "internalType": "uint256",
          "name": "startingBalance",
          "type": "uint256"
        },
        {
          "indexed": false,
          "internalType": "uint256",
          "name": "newBalance",
          "type": "uint256"
        }
      ],
      "name": "SupplyOrgFeeAsAdmin",
      "type": "event"
    },
    {
      "anonymous": false,
      "inputs": [
        {
          "indexed": false,
          "internalType": "address",
          "name": "account",
          "type": "address"
        },
        {
          "indexed": false,
          "internalType": "address",
          "name": "asset",
          "type": "address"
        },
        {
          "indexed": false,
          "internalType": "uint256",
          "name": "amount",
          "type": "uint256"
        },
        {
          "indexed": false,
          "internalType": "uint256",
          "name": "startingBalance",
          "type": "uint256"
        },
        {
          "indexed": false,
          "internalType": "uint256",
          "name": "newBalance",
          "type": "uint256"
        }
      ],
      "name": "SupplyReceived",
      "type": "event"
    },
    {
      "anonymous": false,
      "inputs": [
        {
          "indexed": false,
          "internalType": "address",
          "name": "account",
          "type": "address"
        },
        {
          "indexed": false,
          "internalType": "address",
          "name": "asset",
          "type": "address"
        },
        {
          "indexed": false,
          "internalType": "uint256",
          "name": "amount",
          "type": "uint256"
        },
        {
          "indexed": false,
          "internalType": "uint256",
          "name": "startingBalance",
          "type": "uint256"
        },
        {
          "indexed": false,
          "internalType": "uint256",
          "name": "newBalance",
          "type": "uint256"
        }
      ],
      "name": "SupplyWithdrawn",
      "type": "event"
    },
    {
      "inputs": [],
      "name": "_guardCounter",
      "outputs": [
        {
          "internalType": "uint256",
          "name": "",
          "type": "uint256"
        }
      ],
      "stateMutability": "view",
      "type": "function"
    },
    {
      "inputs": [
        {
          "internalType": "address",
          "name": "asset",
          "type": "address"
        },
        {
          "internalType": "address",
          "name": "interestRateModel",
          "type": "address"
        }
      ],
      "name": "_setMarketIRateModel",
      "outputs": [
        {
          "internalType": "bool",
          "name": "",
          "type": "bool"
        }
      ],
      "stateMutability": "nonpayable",
      "type": "function"
    },
    {
      "inputs": [
        {
          "internalType": "uint256",
          "name": "collateralRatioMantissa",
          "type": "uint256"
        },
        {
          "internalType": "uint256",
          "name": "liquidationDiscountMantissa",
          "type": "uint256"
        }
      ],
      "name": "_setRiskParameters",
      "outputs": [
        {
          "internalType": "bool",
          "name": "",
          "type": "bool"
        }
      ],
      "stateMutability": "nonpayable",
      "type": "function"
    },
    {
      "inputs": [
        {
          "internalType": "address",
          "name": "asset",
          "type": "address"
        },
        {
          "internalType": "address",
          "name": "interestRateModel",
          "type": "address"
        }
      ],
      "name": "_supportMarket",
      "outputs": [
        {
          "internalType": "bool",
          "name": "",
          "type": "bool"
        }
      ],
      "stateMutability": "nonpayable",
      "type": "function"
    },
    {
      "inputs": [
        {
          "internalType": "address",
          "name": "asset",
          "type": "address"
        }
      ],
      "name": "_suspendMarket",
      "outputs": [
        {
          "internalType": "bool",
          "name": "",
          "type": "bool"
        }
      ],
      "stateMutability": "nonpayable",
      "type": "function"
    },
    {
      "inputs": [
        {
          "internalType": "address",
          "name": "asset",
          "type": "address"
        },
        {
          "internalType": "uint256",
          "name": "amount",
          "type": "uint256"
        }
      ],
      "name": "_withdrawEquity",
      "outputs": [
        {
          "internalType": "bool",
          "name": "",
          "type": "bool"
        }
      ],
      "stateMutability": "nonpayable",
      "type": "function"
    },
    {
      "inputs": [],
      "name": "admin",
      "outputs": [
        {
          "internalType": "address",
          "name": "",
          "type": "address"
        }
      ],
      "stateMutability": "view",
      "type": "function"
    },
    {
      "inputs": [
        {
          "internalType": "address",
          "name": "asset",
          "type": "address"
        }
      ],
      "name": "assetPrices",
      "outputs": [
        {
          "internalType": "uint256",
          "name": "",
          "type": "uint256"
        }
      ],
      "stateMutability": "view",
      "type": "function"
    },
    {
      "inputs": [
        {
          "internalType": "address",
          "name": "asset",
          "type": "address"
        },
        {
          "internalType": "uint256",
          "name": "amount",
          "type": "uint256"
        }
      ],
      "name": "borrow",
      "outputs": [
        {
          "internalType": "bool",
          "name": "",
          "type": "bool"
        }
      ],
      "stateMutability": "nonpayable",
      "type": "function"
    },
    {
      "inputs": [
        {
          "internalType": "address",
          "name": "",
          "type": "address"
        },
        {
          "internalType": "address",
          "name": "",
          "type": "address"
        }
      ],
      "name": "borrowBalances",
      "outputs": [
        {
          "internalType": "uint256",
          "name": "principal",
          "type": "uint256"
        },
        {
          "internalType": "uint256",
          "name": "interestIndex",
          "type": "uint256"
        }
      ],
      "stateMutability": "view",
      "type": "function"
    },
    {
      "inputs": [
        {
          "internalType": "address",
          "name": "userAddress",
          "type": "address"
        }
      ],
      "name": "calculateAccountValues",
      "outputs": [
        {
          "internalType": "uint256",
          "name": "",
          "type": "uint256"
        },
        {
          "internalType": "uint256",
          "name": "",
          "type": "uint256"
        }
      ],
      "stateMutability": "view",
      "type": "function"
    },
    {
      "inputs": [
        {
          "internalType": "uint256",
          "name": "startingBalance",
          "type": "uint256"
        },
        {
          "internalType": "uint256",
          "name": "interestIndexStart",
          "type": "uint256"
        },
        {
          "internalType": "uint256",
          "name": "interestIndexEnd",
          "type": "uint256"
        }
      ],
      "name": "calculateBalance",
      "outputs": [
        {
          "internalType": "uint256",
          "name": "",
          "type": "uint256"
        }
      ],
      "stateMutability": "pure",
      "type": "function"
    },
    {
      "inputs": [],
      "name": "closeFactorMantissa",
      "outputs": [
        {
          "internalType": "uint256",
          "name": "",
          "type": "uint256"
        }
      ],
      "stateMutability": "view",
      "type": "function"
    },
    {
      "inputs": [
        {
          "internalType": "uint256",
          "name": "",
          "type": "uint256"
        }
      ],
      "name": "collateralMarkets",
      "outputs": [
        {
          "internalType": "address",
          "name": "",
          "type": "address"
        }
      ],
      "stateMutability": "view",
      "type": "function"
    },
    {
      "inputs": [],
      "name": "collateralRatio",
      "outputs": [
        {
          "internalType": "uint256",
          "name": "mantissa",
          "type": "uint256"
        }
      ],
      "stateMutability": "view",
      "type": "function"
    },
    {
      "inputs": [
        {
          "internalType": "address",
          "name": "asset",
          "type": "address"
        }
      ],
      "name": "fetchAssetPrice",
      "outputs": [
        {
          "components": [
            {
              "internalType": "uint256",
              "name": "mantissa",
              "type": "uint256"
            }
          ],
          "internalType": "struct Exponential.Exp",
          "name": "",
          "type": "tuple"
        }
      ],
      "stateMutability": "view",
      "type": "function"
    },
    {
      "inputs": [
        {
          "internalType": "address",
          "name": "account",
          "type": "address"
        }
      ],
      "name": "getAccountLiquidity",
      "outputs": [
        {
          "internalType": "int256",
          "name": "",
          "type": "int256"
        }
      ],
      "stateMutability": "view",
      "type": "function"
    },
    {
      "inputs": [
        {
          "internalType": "address",
          "name": "account",
          "type": "address"
        },
        {
          "internalType": "address",
          "name": "asset",
          "type": "address"
        }
      ],
      "name": "getBorrowBalance",
      "outputs": [
        {
          "internalType": "uint256",
          "name": "",
          "type": "uint256"
        }
      ],
      "stateMutability": "view",
      "type": "function"
    },
    {
      "inputs": [
        {
          "internalType": "address",
          "name": "account",
          "type": "address"
        },
        {
          "internalType": "address",
          "name": "asset",
          "type": "address"
        }
      ],
      "name": "getBorrowBalanceWithInterest",
      "outputs": [
        {
          "internalType": "uint256",
          "name": "",
          "type": "uint256"
        }
      ],
      "stateMutability": "view",
      "type": "function"
    },
    {
      "inputs": [],
      "name": "getCollateralMarketsLength",
      "outputs": [
        {
          "internalType": "uint256",
          "name": "",
          "type": "uint256"
        }
      ],
      "stateMutability": "view",
      "type": "function"
    },
    {
      "inputs": [
        {
          "internalType": "address",
          "name": "asset",
          "type": "address"
        }
      ],
      "name": "getMarketBalances",
      "outputs": [
        {
          "internalType": "uint256",
          "name": "",
          "type": "uint256"
        },
        {
          "internalType": "uint256",
          "name": "",
          "type": "uint256"
        }
      ],
      "stateMutability": "view",
      "type": "function"
    },
    {
      "inputs": [
        {
          "internalType": "address",
          "name": "account",
          "type": "address"
        },
        {
          "internalType": "address",
          "name": "asset",
          "type": "address"
        }
      ],
      "name": "getSupplyBalance",
      "outputs": [
        {
          "internalType": "uint256",
          "name": "",
          "type": "uint256"
        }
      ],
      "stateMutability": "view",
      "type": "function"
    },
    {
      "inputs": [
        {
          "internalType": "address",
          "name": "account",
          "type": "address"
        },
        {
          "internalType": "address",
          "name": "asset",
          "type": "address"
        }
      ],
      "name": "getSupplyBalanceWithInterest",
      "outputs": [
        {
          "internalType": "uint256",
          "name": "",
          "type": "uint256"
        }
      ],
      "stateMutability": "view",
      "type": "function"
    },
    {
      "inputs": [
        {
          "internalType": "address",
          "name": "targetAccount",
          "type": "address"
        },
        {
          "internalType": "address",
          "name": "assetBorrow",
          "type": "address"
        },
        {
          "internalType": "address",
          "name": "assetCollateral",
          "type": "address"
        },
        {
          "internalType": "uint256",
          "name": "requestedAmountClose",
          "type": "uint256"
        }
      ],
      "name": "liquidateBorrow",
      "outputs": [
        {
          "internalType": "bool",
          "name": "",
          "type": "bool"
        }
      ],
      "stateMutability": "nonpayable",
      "type": "function"
    },
    {
      "inputs": [],
      "name": "liquidationDiscount",
      "outputs": [
        {
          "internalType": "uint256",
          "name": "mantissa",
          "type": "uint256"
        }
      ],
      "stateMutability": "view",
      "type": "function"
    },
    {
      "inputs": [
        {
          "internalType": "address",
          "name": "",
          "type": "address"
        }
      ],
      "name": "markets",
      "outputs": [
        {
          "internalType": "bool",
          "name": "isSupported",
          "type": "bool"
        },
        {
          "internalType": "uint256",
          "name": "blockNumber",
          "type": "uint256"
        },
        {
          "internalType": "address",
          "name": "interestRateModel",
          "type": "address"
        },
        {
          "internalType": "uint256",
          "name": "totalSupply",
          "type": "uint256"
        },
        {
          "internalType": "uint256",
          "name": "supplyRateMantissa",
          "type": "uint256"
        },
        {
          "internalType": "uint256",
          "name": "supplyIndex",
          "type": "uint256"
        },
        {
          "internalType": "uint256",
          "name": "totalBorrows",
          "type": "uint256"
        },
        {
          "internalType": "uint256",
          "name": "borrowRateMantissa",
          "type": "uint256"
        },
        {
          "internalType": "uint256",
          "name": "borrowIndex",
          "type": "uint256"
        }
      ],
      "stateMutability": "view",
      "type": "function"
    },
    {
      "inputs": [],
      "name": "maxLiquidationDiscountMantissa",
      "outputs": [
        {
          "internalType": "uint256",
          "name": "",
          "type": "uint256"
        }
      ],
      "stateMutability": "view",
      "type": "function"
    },
    {
      "inputs": [],
      "name": "minCollateralRatioMantissa",
      "outputs": [
        {
          "internalType": "uint256",
          "name": "",
          "type": "uint256"
        }
      ],
      "stateMutability": "view",
      "type": "function"
    },
    {
      "inputs": [],
      "name": "originationFee",
      "outputs": [
        {
          "internalType": "uint256",
          "name": "mantissa",
          "type": "uint256"
        }
      ],
      "stateMutability": "view",
      "type": "function"
    },
    {
      "inputs": [
        {
          "internalType": "address",
          "name": "",
          "type": "address"
        },
        {
          "internalType": "address",
          "name": "",
          "type": "address"
        }
      ],
      "name": "originationFeeBalance",
      "outputs": [
        {
          "internalType": "uint256",
          "name": "",
          "type": "uint256"
        }
      ],
      "stateMutability": "view",
      "type": "function"
    },
    {
      "inputs": [],
      "name": "paused",
      "outputs": [
        {
          "internalType": "bool",
          "name": "",
          "type": "bool"
        }
      ],
      "stateMutability": "view",
      "type": "function"
    },
    {
      "inputs": [],
      "name": "priceOracle",
      "outputs": [
        {
          "internalType": "contract ChainLink",
          "name": "",
          "type": "address"
        }
      ],
      "stateMutability": "view",
      "type": "function"
    },
    {
      "inputs": [
        {
          "internalType": "address",
          "name": "asset",
          "type": "address"
        },
        {
          "internalType": "uint256",
          "name": "amount",
          "type": "uint256"
        }
      ],
      "name": "repayBorrow",
      "outputs": [
        {
          "internalType": "bool",
          "name": "",
          "type": "bool"
        }
      ],
      "stateMutability": "nonpayable",
      "type": "function"
    },
    {
      "inputs": [],
      "name": "rewardControl",
      "outputs": [
        {
          "internalType": "contract IRewardControl",
          "name": "",
          "type": "address"
        }
      ],
      "stateMutability": "view",
      "type": "function"
    },
    {
      "inputs": [
        {
          "internalType": "address",
          "name": "rewardControl_",
          "type": "address"
        }
      ],
      "name": "setRewardControlAddress",
      "outputs": [
        {
          "internalType": "bool",
          "name": "",
          "type": "bool"
        }
      ],
      "stateMutability": "nonpayable",
      "type": "function"
    },
    {
      "inputs": [
        {
          "internalType": "address",
          "name": "asset",
          "type": "address"
        },
        {
          "internalType": "uint256",
          "name": "amount",
          "type": "uint256"
        }
      ],
      "name": "supply",
      "outputs": [
        {
          "internalType": "bool",
          "name": "",
          "type": "bool"
        }
      ],
      "stateMutability": "nonpayable",
      "type": "function"
    },
    {
      "inputs": [
        {
          "internalType": "address",
          "name": "",
          "type": "address"
        },
        {
          "internalType": "address",
          "name": "",
          "type": "address"
        }
      ],
      "name": "supplyBalances",
      "outputs": [
        {
          "internalType": "uint256",
          "name": "principal",
          "type": "uint256"
        },
        {
          "internalType": "uint256",
          "name": "interestIndex",
          "type": "uint256"
        }
      ],
      "stateMutability": "view",
      "type": "function"
    },
    {
      "inputs": [
        {
          "internalType": "address",
          "name": "asset",
          "type": "address"
        },
        {
          "internalType": "uint256",
          "name": "requestedAmount",
          "type": "uint256"
        }
      ],
      "name": "withdraw",
      "outputs": [
        {
          "internalType": "bool",
          "name": "",
          "type": "bool"
        }
      ],
      "stateMutability": "nonpayable",
      "type": "function"
    }
  ],
  "bytecode": "0x60806040526000196000553480156200001757600080fd5b506040516200445d3803806200445d8339810160408190526200003a91620001be565b6001600160a01b038216620000965760405162461bcd60e51b815260206004820152601c60248201527f4f7261636c652063616e2774206265205a45524f20616464726573730000000060448201526064015b60405180910390fd5b670de0b6b3a76400008110620001085760405162461bcd60e51b815260206004820152603060248201527f496e76616c6964204f726967696e6174696f6e20466565206f7220436c6f736560448201526f20466163746f72204d616e746973736160801b60648201526084016200008d565b60078054336001600160a01b031991821617909155670de0b6b3a7640000600190815566038d7ea4c680006002819055671158e460913d0000600381905567016345785d8a00006004819055670f43fc2c04ee00006005556006819055604080516020808201835290849052600e9390935580518084018252849052600f939093558251918201909252819052601055601555600980549091166001600160a01b039390931692909217909155601455620001fa565b60008060408385031215620001d257600080fd5b82516001600160a01b0381168114620001ea57600080fd5b6020939093015192949293505050565b614253806200020a6000396000f3fe608060405234801561001057600080fd5b50600436106102325760003560e01c8063b4eae1cb11610130578063dbe2bc84116100b8578063f2b9fdb81161007c578063f2b9fdb8146105e0578063f3fef3a3146105f3578063f5c61ce614610606578063f851a44014610619578063fc7d42d71461062c57600080fd5b8063dbe2bc841461057c578063ddec280e1461058f578063e61604cf146105b1578063e69e4640146105c4578063e8755446146105d757600080fd5b8063be2eafa1116100ff578063be2eafa114610531578063beb546151461053a578063bf5bfdfb1461054d578063c1abfaa314610556578063c365a6461461056957600080fd5b8063b4eae1cb146104b2578063b7adddac146104bc578063b8bb5c42146104ee578063ba377731146104f857600080fd5b80635e9a523c116101be5780638053fcbe116101825780638053fcbe146103b45780638a0022c6146103be5780638e8f294b146103d15780639f180cf11461048c578063abdb5ea81461049f57600080fd5b80635e9a523c146103335780635ec88c79146103465780636e2ede031461035957806379b29648146103615780637bc332101461038957600080fd5b80632c52c7fd116102055780632c52c7fd146102e4578063343caa1d146102ed5780634706c375146103005780634b8a3529146103135780635c975abb1461032657600080fd5b80630dd8fe6c14610237578063118e31b71461025d57806321237f9c146102965780632630c12f146102b9575b600080fd5b61024a610245366004613dfd565b61065e565b6040519081526020015b60405180910390f35b61024a61026b366004613dfd565b6001600160a01b039182166000908152600b6020908152604080832093909416825291909152205490565b6102a96102a4366004613e30565b6106d5565b6040519015158152602001610254565b6009546102cc906001600160a01b031681565b6040516001600160a01b039091168152602001610254565b61024a60065481565b61024a6102fb366004613dfd565b6107b2565b6102a961030e366004613e4b565b610807565b6102a9610321366004613e4b565b610b72565b6011546102a99060ff1681565b61024a610341366004613e30565b611022565b61024a610354366004613e30565b611036565b600d5461024a565b61037461036f366004613e30565b61107c565b60408051928352602083019190915201610254565b61024a610397366004613dfd565b601260209081526000928352604080842090915290825290205481565b60105461024a9081565b6102a96103cc366004613dfd565b611119565b6104386103df366004613e30565b600c6020526000908152604090208054600182015460028301546003840154600485015460058601546006870154600788015460089098015460ff9097169795966001600160a01b039095169593949293919290919089565b604080519915158a5260208a01989098526001600160a01b03909616968801969096526060870193909352608086019190915260a085015260c084015260e083019190915261010082015261012001610254565b61037461049a366004613e30565b61120f565b6102a96104ad366004613e4b565b61122e565b600e5461024a9081565b6103746104ca366004613dfd565b600a6020908152600092835260408084209091529082529020805460019091015482565b600f5461024a9081565b61024a610506366004613dfd565b6001600160a01b039182166000908152600a6020908152604080832093909416825291909152205490565b61024a60055481565b6102cc610548366004613e75565b6115f6565b61024a60155481565b6102a9610564366004613dfd565b611620565b6102a9610577366004613e8e565b6117ef565b6102a961058a366004613e30565b611a77565b6105a261059d366004613e30565b611b21565b60405190518152602001610254565b6102a96105bf366004613eb0565b611c3c565b61024a6105d2366004613efb565b6122c8565b61024a60145481565b6102a96105ee366004613e4b565b6122fa565b6102a9610601366004613e4b565b61268d565b6013546102cc906001600160a01b031681565b6007546102cc906001600160a01b031681565b61037461063a366004613dfd565b600b6020908152600092835260408084209091529082529020805460019091015482565b6001600160a01b038082166000818152600c602090815260408083209487168352600b8252808320938352929052908120600883015460078401546001850154939485948594919391926106b3929143612aa8565b93506106c881600001548260010154866122c8565b9450505050505b92915050565b6007546000906001600160a01b031633146107285760405162461bcd60e51b815260206004820152600e60248201526d22bc3832b1ba32b21030b236b4b760911b60448201526064015b60405180910390fd5b6001600160a01b03821661078c5760405162461bcd60e51b815260206004820152602560248201527f526577617264436f6e74726f6c20616464726573732063616e6e6f7420626520604482015264656d70747960d81b606482015260840161071f565b50601380546001600160a01b0319166001600160a01b0392909216919091179055600190565b6001600160a01b038082166000818152600c602090815260408083209487168352600a8252808320938352929052908120600583015460048401546001850154939485948594919391926106b3929143612aa8565b6007546000906001600160a01b031633146108705760405162461bcd60e51b815260206004820152602360248201527f4551554954595f5749544844524157414c5f4d4f44454c5f4f574e45525f434860448201526245434b60e81b606482015260840161071f565b6001600160a01b0383166108c65760405162461bcd60e51b815260206004820152601b60248201527f41737365742063616e2774206265207a65726f20616464726573730000000000604482015260640161071f565b6000806108d28561107c565b91509150600082826108e388612b1b565b6108ed9190613f3d565b6108f79190613f55565b90508085106109485760405162461bcd60e51b815260206004820152601b60248201527f4551554954595f494e53554646494349454e545f42414c414e43450000000000604482015260640161071f565b6007546109609087906001600160a01b031687612b97565b6001600160a01b038087166000908152600c60205260409020600201541663517cf73e878761098e82612b1b565b6109989190613f55565b6001600160a01b038a166000908152600c6020526040908190206003015490516001600160e01b031960e086901b1681526109d893929190600401613f6c565b60206040518083038186803b1580156109f057600080fd5b505afa158015610a04573d6000803e3d6000fd5b505050506040513d601f19601f82011682018060405250810190610a289190613f8d565b6001600160a01b038088166000908152600c6020526040902060048101929092556002909101541663ed2b5a3c8787610a6082612b1b565b610a6a9190613f55565b6001600160a01b038a166000908152600c6020526040908190206006015490516001600160e01b031960e086901b168152610aaa93929190600401613f6c565b60206040518083038186803b158015610ac257600080fd5b505afa158015610ad6573d6000803e3d6000fd5b505050506040513d601f19601f82011682018060405250810190610afa9190613f8d565b6001600160a01b038781166000818152600c6020908152604091829020600790810195909555935481519283529382018590528101889052911660608201527fcb9f0cda23d6b563fc8e14d8fdada71d2ab7dadccc2e26dc353bf20ea8c5b8529060800160405180910390a150600195945050505050565b6000600160156000828254610b879190613f3d565b909155505060155460115460ff1615610bb25760405162461bcd60e51b815260040161071f90613fa6565b610bbc8433612c7f565b610bc4613af4565b6001600160a01b0385166000818152600c60209081526040808320338452600b8352818420948452939091529020815460ff16610c3a5760405162461bcd60e51b815260206004820152601460248201527313505492d15517d393d517d4d5541413d495115160621b604482015260640161071f565b610c5282600801548360070154846001015443612aa8565b80845281546001830154610c65926122c8565b6020840152610c7386612d06565b60408401819052600090610c88908890613f55565b905083604001518460200151610c9e9190613f3d565b60608501819052825460068501549091610cb791613f3d565b610cc19190613f55565b6080850152610ccf33612d6c565b61018086018190526101608601919091525115610d2e5760405162461bcd60e51b815260206004820181905260248201527f424f52524f575f4143434f554e545f53484f525446414c4c5f50524553454e54604482015260640161071f565b610d3c888560400151612e4f565b6101a08501819052610160850151905190511015610da65760405162461bcd60e51b815260206004820152602160248201527f424f52524f575f414d4f554e545f4c49515549444954595f53484f525446414c6044820152601360fa1b606482015260840161071f565b610daf88612b1b565b60a08501819052610dc1908890613f55565b60c0850152600583015460048401546001850154610de192919043612aa8565b60e0850152600283015460c085015160808601516040516328be7b9f60e11b81526001600160a01b039093169263517cf73e92610e22928d92600401613f6c565b60206040518083038186803b158015610e3a57600080fd5b505afa158015610e4e573d6000803e3d6000fd5b505050506040513d601f19601f82011682018060405250810190610e729190613f8d565b610100850152600283015460c08501516080860151604051633b4ad68f60e21b81526001600160a01b039093169263ed2b5a3c92610eb4928d92600401613f6c565b60206040518083038186803b158015610ecc57600080fd5b505afa158015610ee0573d6000803e3d6000fd5b505050506040513d601f19601f82011682018060405250810190610f049190613f8d565b61012085018190524360018086019190915560808601516006860155610100860151600486015560e086015160058601556007850191909155845160088501819055835461014087015260608601518455908301553360009081526012602090815260408083206001600160a01b038c16845290915281208054839290610f8c908490613f3d565b90915550610f9d9050883389612b97565b610140840151604080860151845482513381526001600160a01b038d1660208201528084018c90526060810194909452608084019190915260a0830152517f6b69190ebbb96f162b04dc222ef96416f9dca9a415b6dd183c79424501113e189181900360c00190a16001955050505050601554811461101b57600080fd5b5092915050565b60008061102e83611b21565b519392505050565b600080600061104484612d6c565b9150915061105182511590565b156110735761105f81612f02565b61106b90600019613fcf565b949350505050565b61106b82612f02565b6000806000806000806000600c6000896001600160a01b03166001600160a01b0316815260200190815260200160002090506110c681600501548260040154836001015443612aa8565b94506110db81600301548260050154876122c8565b93506110f581600801548260070154836001015443612aa8565b925061110a81600601548260080154856122c8565b93989397509295505050505050565b6007546000906001600160a01b031633146111895760405162461bcd60e51b815260206004820152602a60248201527f5345545f4d41524b45545f494e5445524553545f524154455f4d4f44454c5f4f604482015269574e45525f434845434b60b01b606482015260840161071f565b6001600160a01b0382166111da5760405162461bcd60e51b8152602060048201526018602482015277052617465204d6f64656c2063616e6e6f74206265203078360441b604482015260640161071f565b506001600160a01b039182166000908152600c6020526040902060020180546001600160a01b03191691909216179055600190565b60008060008061121e85612f1a565b9051905190969095509350505050565b60006001601560008282546112439190613f3d565b909155505060155460115460ff161561126e5760405162461bcd60e51b815260040161071f90613fa6565b6112788433612c7f565b6112d560405180610160016040528060008152602001600081526020016000815260200160008152602001600081526020016000815260200160008152602001600081526020016000815260200160008152602001600081525090565b6001600160a01b0385166000818152600c60209081526040808320338452600b835281842094845293909152902060088201546007830154600184015461131e92919043612aa8565b80845281546001830154611331926122c8565b60208401526000548614156113615761135761134d88336130e7565b8460200151613165565b6040840152611369565b604083018690525b8260400151836020015161137d9190613f55565b60608401526040830151611394908890339061317c565b8054606084015160068401546113aa9190613f3d565b6113b49190613f55565b60808401526113c287612b1b565b60a0840181905260408401516113d791613f3d565b60c08401526005820154600483015460018401546113f792919043612aa8565b60e0840152600282015460c084015160808501516040516328be7b9f60e11b81526001600160a01b039093169263517cf73e92611438928c92600401613f6c565b60206040518083038186803b15801561145057600080fd5b505afa158015611464573d6000803e3d6000fd5b505050506040513d601f19601f820116820180604052508101906114889190613f8d565b610100840152600282015460c08401516080850151604051633b4ad68f60e21b81526001600160a01b039093169263ed2b5a3c926114ca928c92600401613f6c565b60206040518083038186803b1580156114e257600080fd5b505afa1580156114f6573d6000803e3d6000fd5b505050506040513d601f19601f8201168201806040525081019061151a9190613f8d565b61012084018190524360018085019190915560808501516006850155610100850151600485015560e085015160058501556007840191909155835160088401819055825461014086015260608501518355908201556040830151611581908890339061331b565b6115958733856040015185600501546133fa565b7f550e7e464126359c6adc43831f011682856b177df6c49c0af6675dd2a063649d3388856040015186610140015185600001546040516115d9959493929190614054565b60405180910390a160019450505050601554811461101b57600080fd5b600d818154811061160657600080fd5b6000918252602090912001546001600160a01b0316905081565b6007546000906001600160a01b0316331461166a5760405162461bcd60e51b815260206004820152600a60248201526927b7363c9030b236b4b760b11b604482015260640161071f565b6001600160a01b0382166116bb5760405162461bcd60e51b8152602060048201526018602482015277052617465204d6f64656c2063616e6e6f74206265203078360441b604482015260640161071f565b600d546010116117215760405162461bcd60e51b815260206004820152602b60248201527f457863656564696e6720746865206d6178206e756d626572206f66206d61726b60448201526a195d1cc8185b1b1bddd95960aa1b606482015260840161071f565b6001600160a01b038381166000908152600c6020526040902060020180546001600160a01b03191691841691909117905561175b836135e8565b6001600160a01b0383166000908152600c60205260409020805460ff19166001178155600501546117a6576001546001600160a01b0384166000908152600c60205260409020600501555b6001600160a01b0383166000908152600c60205260409020600801546117e6576001546001600160a01b0384166000908152600c60205260409020600801555b50600192915050565b6007546000906001600160a01b0316331461184c5760405162461bcd60e51b815260206004820152601f60248201527f5345545f5249534b5f504152414d45544552535f4f574e45525f434845434b00604482015260640161071f565b600554831015801561186057506006548211155b6118f85760405162461bcd60e51b815260206004820152605960248201527f4c69717569646174696f6e20646973636f756e74206973206d6f72652074686160448201527f6e206d617820646973636f756e74206f7220636f6c6c61746572616c2072617460648201527f696f206973206c657373207468616e206d696e20726174696f00000000000000608482015260a40161071f565b6040805160208082018352858252825180820184528581528351808301855260055481528451928301909452600654825291929061193884835190511090565b156119855760405162461bcd60e51b815260206004820152601860248201527f494e56414c49445f434f4c4c41544552414c5f524154494f0000000000000000604482015260640161071f565b8251815110156119d75760405162461bcd60e51b815260206004820152601c60248201527f494e56414c49445f4c49515549444154494f4e5f444953434f554e5400000000604482015260640161071f565b604080516020810190915260008152611a06846040518060200160405280670de0b6b3a7640000815250613696565b9050611a158582519051111590565b15611a625760405162461bcd60e51b815260206004820181905260248201527f494e56414c49445f434f4d42494e45445f5249534b5f504152414d4554455253604482015260640161071f565b50509151600e55516010555060019392505050565b6007546000906001600160a01b03163314611ad45760405162461bcd60e51b815260206004820152601a60248201527f53555350454e445f4d41524b45545f4f574e45525f434845434b000000000000604482015260640161071f565b6001600160a01b0382166000908152600c602052604090205460ff16611afc57506001919050565b506001600160a01b03166000908152600c60205260409020805460ff19169055600190565b6040805160208101909152600081526009546001600160a01b0316611b795760405162461bcd60e51b815260206004820152600e60248201526d4f7261636c65206973205a65726f60901b604482015260640161071f565b60095460405163b3596f0760e01b81526001600160a01b038481166004830152600092839291169063b3596f0790602401604080518083038186803b158015611bc157600080fd5b505afa158015611bd5573d6000803e3d6000fd5b505050506040513d601f19601f82011682018060405250810190611bf99190614085565b90925090506000611c0e60ff83166012613f55565b9050611c1b81600a61419f565b611c2590846141ab565b604080516020810190915290815295945050505050565b60115460009060ff1615611c625760405162461bcd60e51b815260040161071f90613fa6565b611c6c83866136cb565b611c7683336136cb565b611c808486612c7f565b611c88613b9e565b6001600160a01b038087168083528682166020808501829052336040808701918252898616606088018190526000858152600c8552828120828252838220888352600b8752848320978352968652838220978252600a8087528483208484528752848320955190991682529785528281209181529352909120919291611d0d89611b21565b610380870152611d1c8a611b21565b866103a00181905250611d3d85600801548660070154876001015443612aa8565b6080870181905283546001850154611d54926122c8565b610100870152600584015460048501546001860154611d7592919043612aa8565b60e0870181905282546001840154611d8c926122c8565b6101c08701528054600182015460e0880151611da99291906122c8565b61020087015281546101c08701516003860154611dc69190613f3d565b611dd09190613f55565b610240870181905281546102008801519091611dec9190613f3d565b611df69190613f55565b6102408701526103a08601516103808701516101c0880151611e19929190613720565b610300870152845460ff1615611e7857611e398b876103a001518c6137cc565b6102e0870152610100860151610300870151611e559190613165565b61032087018190526102e0870151611e6d9190613165565b610320870152611e93565b611e8c866101000151876103000151613165565b6103208701525b600054881415611eae57610320860151610340870152611eb7565b61034086018890525b85610320015186610340015110611f105760405162461bcd60e51b815260206004820152601f60248201527f4c49515549444154455f434c4f53455f414d4f554e545f544f4f5f4849474800604482015260640161071f565b611f2a866103a001518761038001518861034001516138d8565b6103608701526040860151610340870151611f46918c9161317c565b856103400151866101000151611f5c9190613f55565b6101208701819052835460068701549091611f7691613f3d565b611f809190613f55565b610140870152611f8f8a612b1b565b6102608701819052610340870151611fa691613f3d565b610280870152600585015460048601546001870154611fc792919043612aa8565b60a087015260028501546102808701516101408801516040516328be7b9f60e11b81526001600160a01b039093169263517cf73e9261200a928f92600401613f6c565b60206040518083038186803b15801561202257600080fd5b505afa158015612036573d6000803e3d6000fd5b505050506040513d601f19601f8201168201806040525081019061205a9190613f8d565b6102a08701526002850154610280870151610140880151604051633b4ad68f60e21b81526001600160a01b039093169263ed2b5a3c9261209e928f92600401613f6c565b60206040518083038186803b1580156120b657600080fd5b505afa1580156120ca573d6000803e3d6000fd5b505050506040513d601f19601f820116820180604052508101906120ee9190613f8d565b6102c087015260088401546007850154600186015461210f92919043612aa8565b60c08701526103608601516101c087015161212a9190613f55565b6101e08701526103608601516102008701516121469190613f3d565b610220870181905243600180880182905561014089015160068901556102a0890151600489015560a08901516005808a01919091556102c08a015160078a015560808a01516008808b01829055898401949094556102408b015160038a015560e08b015191890182905560c08b01519389019390935586546101608b01526101208a015187558682019290925584546101808a01526101e0890151855584810182905583546101a08a015291835590820155604086015161034087015161220e918c9161331b565b6122278a87604001518861034001518960a001516133fa565b85516020808801516101008901516103408a01516040808c01516060808e01516103608f015184516001600160a01b039a8b168152978a1698880198909852928601949094529284019190915290841660808301529290921660a083015260c08201527fea875c193740bd26dcfcd2e8dc9ac63cc31ee98ac4c001575746d75c30bab5b39060e00160405180910390a15060019a9950505050505050505050565b6000836122d7575060006122f3565b60006122e383866141ab565b90506122ef84826141ca565b9150505b9392505050565b600060016015600082825461230f9190613f3d565b909155505060155460115460ff161561233a5760405162461bcd60e51b815260040161071f90613fa6565b6001600160a01b0384166123905760405162461bcd60e51b815260206004820152601b60248201527f41737365742063616e2774206265207a65726f20616464726573730000000000604482015260640161071f565b61239a84336136cb565b6001600160a01b0384166000908152600c60205260409020805460ff166123fa5760405162461bcd60e51b815260206004820152601460248201527313505492d15517d393d517d4d5541413d495115160621b604482015260640161071f565b336000908152600a602090815260408083206001600160a01b03891684529091529020612425613ca8565b61243087338861317c565b61244883600501548460040154856001015443612aa8565b602082018190528254600184015461245f926122c8565b60408201819052612471908790613f3d565b6060820181905282546003850154909161248a91613f3d565b6124949190613f55565b60808201526124a287612b1b565b60a082018190526124b4908790613f3d565b60c08201819052600284015460068501546040516328be7b9f60e11b81526001600160a01b039092169263517cf73e926124f3928c9291600401613f6c565b60206040518083038186803b15801561250b57600080fd5b505afa15801561251f573d6000803e3d6000fd5b505050506040513d601f19601f820116820180604052508101906125439190613f8d565b60e082015260088301546007840154600185015461256392919043612aa8565b610100820152600283015460c08201516006850154604051633b4ad68f60e21b81526001600160a01b039093169263ed2b5a3c926125a5928c92600401613f6c565b60206040518083038186803b1580156125bd57600080fd5b505afa1580156125d1573d6000803e3d6000fd5b505050506040513d601f19601f820116820180604052508101906125f59190613f8d565b6101208201819052436001808601919091556080830151600386015560e0830151600486015560208301516005860181905560078601929092556101008301516008860155835483526060830151845583015561265387338861331b565b805182546040517f4ea5606ff36959d6c1a24f693661d800a98dd80c0fb8469a665d2ec7e8313c21926115d99233928c928c929091614054565b60006001601560008282546126a29190613f3d565b909155505060155460115460ff16156126cd5760405162461bcd60e51b815260040161071f90613fa6565b6126d784336136cb565b6001600160a01b0384166000818152600c60209081526040808320338452600a835281842094845293909152902061270d613cfb565b61271633612d6c565b6101a083015261018082015260058301546004840154600185015461273d92919043612aa8565b6040820181905282546001840154612754926122c8565b6060820152600054861415612790576127728782610180015161396d565b610160820181905260608201516127899190613165565b8152612794565b8581525b61279d87612b1b565b60c0820181905281516127af91613f55565b60e0820152805160608201516127c59190613f55565b60808201526101a081015151156128295760405162461bcd60e51b815260206004820152602260248201527f57495448445241575f4143434f554e545f53484f525446414c4c5f5052455345604482015261139560f21b606482015260840161071f565b612837878260000151613992565b6101c082018190526101808201519051905110156128a35760405162461bcd60e51b815260206004820152602360248201527f57495448445241575f414d4f554e545f4c49515549444954595f53484f52544660448201526210531360ea1b606482015260840161071f565b8154608082015160038501546128b99190613f3d565b6128c39190613f55565b60a0820152600283015460e082015160068501546040516328be7b9f60e11b81526001600160a01b039093169263517cf73e92612904928c92600401613f6c565b60206040518083038186803b15801561291c57600080fd5b505afa158015612930573d6000803e3d6000fd5b505050506040513d601f19601f820116820180604052508101906129549190613f8d565b61010082015260088301546007840154600185015461297592919043612aa8565b610120820152600283015460e08201516006850154604051633b4ad68f60e21b81526001600160a01b039093169263ed2b5a3c926129b7928c92600401613f6c565b60206040518083038186803b1580156129cf57600080fd5b505afa1580156129e3573d6000803e3d6000fd5b505050506040513d601f19601f82011682018060405250810190612a079190613f8d565b61014082018190524360018086019190915560a0830151600386015561010083015160048601556040830151600586018190556007860192909255610120830151600886015583546020840152608083015184558301558051612a6d9088903390612b97565b8051602082015183546040517f56559a17e3aa8ea4b05036eaf31aeaf9fb71fc1b8865b6389647639940bed030936115d99333938d93614054565b600080612ab58484613f55565b90506000612ad160405180602001604052808881525083613a00565b90506000612af5826040518060200160405280670de0b6b3a7640000815250613696565b90506000612b03828a613a00565b9050612b0e81612f02565b9998505050505050505050565b6040516370a0823160e01b815230600482015260009082906001600160a01b038216906370a082319060240160206040518083038186803b158015612b5f57600080fd5b505afa158015612b73573d6000803e3d6000fd5b505050506040513d601f19601f820116820180604052508101906122f39190613f8d565b60405163a9059cbb60e01b81526001600160a01b03838116600483015260248201839052849160009183169063a9059cbb90604401600060405180830381600087803b158015612be657600080fd5b505af1158015612bfa573d6000803e3d6000fd5b505050503d60008114612c145760208114612c1e57600080fd5b6000199150612c2a565b60206000803e60005191505b5080612c785760405162461bcd60e51b815260206004820152601960248201527f544f4b454e5f5452414e534645525f4f55545f4641494c454400000000000000604482015260640161071f565b5050505050565b6013546001600160a01b0316612c93575050565b60135460405163db57d0c760e01b81526001600160a01b0384811660048301528381166024830152600060448301529091169063db57d0c7906064015b600060405180830381600087803b158015612cea57600080fd5b505af1158015612cfe573d6000803e3d6000fd5b505050505050565b6040805160208101909152600f5490819052600090612d23575090565b6040805160208082018352600f5482528251908101909252670de0b6b3a76400008252600091612d539190613696565b90506000612d618285613a00565b905061106b81612f02565b604080516020810190915260008152604080516020810190915260008152600080612d9685612f1a565b91509150612db06040518060200160405280600081525090565b604080516020808201835285518252825180820184526000815283518083018552600e5481528451928301909452855182529192612ded91613a1d565b9050612dfb82825190511090565b15612e2757612e0a8183613a8c565b604080516020810190915260008152999098509650505050505050565b612e318282613a8c565b60408051602081019091526000815290999098509650505050505050565b604080516020810190915260008152604080516020810190915260008152604080516020810190915260008152612e8585611b21565b9150612e9082511590565b15612ed35760405162461bcd60e51b81526020600482015260136024820152724d495353494e475f41535345545f505249434560681b604482015260640161071f565b6040805160208101909152600e548152612eed9083613a1d565b9050612ef98185613a00565b95945050505050565b80516000906106cf90670de0b6b3a7640000906141ca565b604080516020810190915260008152604080516020810190915260008152612f40613d71565b6040805160208082018352600080835260e08501929092528251808201909352818352610120840192909252600d54918301919091525b81602001518110156130d157600d8181548110612f9657612f966141ec565b60009182526020808320909101546001600160a01b039081168086528352600c82526040808420898316808652600a85528286208851851687528552828620908652600b855282862088519094168652929093529092208254919291156130545761300f83600501548460040154856001015443612aa8565b6040860181905282546001840154613026926122c8565b60608601819052855161303891613992565b60c0860181905260e086015161304e9190613696565b60e08601525b8054156130bb5761307383600801548460070154856001015443612aa8565b608086018190528154600183015461308a926122c8565b60a08601819052855161309c91613992565b61010086018190526101208601516130b49190613696565b6101208601525b50505080806130c990614202565b915050612f77565b508060e001518161012001519250925050915091565b6040516370a0823160e01b81526001600160a01b03828116600483015260009184918216906370a082319060240160206040518083038186803b15801561312d57600080fd5b505afa158015613141573d6000803e3d6000fd5b505050506040513d601f19601f8201168201806040525081019061106b9190613f8d565b6000818310156131765750816106cf565b50919050565b604051636eb1769f60e11b81526001600160a01b0383811660048301523060248301528491839183169063dd62ed3e9060440160206040518083038186803b1580156131c757600080fd5b505afa1580156131db573d6000803e3d6000fd5b505050506040513d601f19601f820116820180604052508101906131ff9190613f8d565b1161324c5760405162461bcd60e51b815260206004820152601c60248201527f544f4b454e5f494e53554646494349454e545f414c4c4f57414e434500000000604482015260640161071f565b6040516370a0823160e01b81526001600160a01b0384811660048301528391908316906370a082319060240160206040518083038186803b15801561329057600080fd5b505afa1580156132a4573d6000803e3d6000fd5b505050506040513d601f19601f820116820180604052508101906132c89190613f8d565b116133155760405162461bcd60e51b815260206004820152601a60248201527f544f4b454e5f494e53554646494349454e545f42414c414e4345000000000000604482015260640161071f565b50505050565b6040516323b872dd60e01b81526001600160a01b0383811660048301523060248301526044820183905284916000918316906323b872dd90606401600060405180830381600087803b15801561337057600080fd5b505af1158015613384573d6000803e3d6000fd5b505050503d6000811461339e57602081146133a857600080fd5b60001991506133b4565b60206000803e60005191505b5080612c785760405162461bcd60e51b81526020600482015260156024820152741513d2d15397d514905394d1915497d19052531151605a1b604482015260640161071f565b6007546134119085906001600160a01b03166136cb565b6001600160a01b03808416600090815260126020908152604080832093881683529290529081205415612c78576001600160a01b0380851660009081526012602090815260408083209389168352929052205483101561347257508161349a565b506001600160a01b038084166000908152601260209081526040808320938816835292905220545b6007546001600160a01b039081166000908152600a602090815260408083209389168352929052206134ca613ca8565b6001600160a01b038087166000908152601260209081526040808320938b1683529290529081208054859290613501908490613f55565b9091555050815460018301546135189190866122c8565b6040820181905261352a908490613f3d565b6060820181905282546001600160a01b0389166000908152600c6020526040902060030154909161355a91613f3d565b6135649190613f55565b608082018190526001600160a01b038089166000908152600c60205260409081902060030192909255835480845260608401518086556001860188905560075493517fa4317c2dd8ca95b5d74e51fdd145f7beb968acdba1579f140fdf7113789f1681946135d79416928c928992614054565b60405180910390a150505050505050565b60005b600d5481101561364357816001600160a01b0316600d8281548110613612576136126141ec565b6000918252602090912001546001600160a01b03161415613631575050565b8061363b81614202565b9150506135eb565b50600d80546001810182556000919091527fd7b6990105719101dabeb77144f2a3385c8033acd3af97e9423a695e81ad1eb50180546001600160a01b0319166001600160a01b0392909216919091179055565b604080516020810190915260008152815183516000916136b591613f3d565b6040805160208101909152908152949350505050565b6013546001600160a01b03166136df575050565b60135460405163d511e08960e01b81526001600160a01b0384811660048301528381166024830152600060448301529091169063d511e08990606401612cd0565b60006137386040518060200160405280600081525090565b6040805160208101909152600081526040805160208101909152600081526040805160208101909152600081526040805160208082018352670de0b6b3a764000082528251908101909252601054825261379191613696565b935061379d8787613a00565b92506137a98489613a1d565b91506137b58383613aab565b90506137c081612f02565b98975050505050505050565b60006137e46040518060200160405280600081525090565b6040805160208082018352600080835283518083018552818152845180840186528281528551808501875283815286519485019096529183529293909161382a8a612d6c565b6040805160208082018352600e548252825190810190925260105482529298509096506138579190613a8c565b9350613879846040518060200160405280670de0b6b3a7640000815250613a8c565b92506138858984613a1d565b915060006138938b8a61065e565b905060006138b1604051806020016040528060145481525083613a00565b90506138bd8185613aab565b92506138c883612f02565b9c9b505050505050505050505050565b60006138f06040518060200160405280600081525090565b6040805160208101909152600081526040805160208101909152600081526040805160208101909152600081526040805160208082018352670de0b6b3a764000082528251908101909252601054825261394991613696565b93506139558885613a1d565b92506139618387613a00565b91506137b58288613aab565b60008061397984611b21565b905060006139878483613aab565b9050612ef981612f02565b60408051602081019091526000815260006139ac84611b21565b90506139b781511590565b156139fa5760405162461bcd60e51b81526020600482015260136024820152724d495353494e475f41535345545f505249434560681b604482015260640161071f565b61106b81845b6040805160208101909152600080825283516136b59084906141ab565b60408051602081019091526000815281518351600091613a3c916141ab565b9050600081613a546002670de0b6b3a76400006141ca565b613a5e9190613f3d565b90506000613a74670de0b6b3a7640000836141ca565b60408051602081019091529081529695505050505050565b604080516020810190915260008152815183516000916136b591613f55565b604080516020810190915260008152825182516122f391906040805160208101909152600081526000613ae6670de0b6b3a7640000856141ab565b90506000611c2584836141ca565b604051806101c001604052806000815260200160008152602001600081526020016000815260200160008152602001600081526020016000815260200160008152602001600081526020016000815260200160008152602001613b636040518060200160405280600081525090565b8152602001613b7e6040518060200160405280600081525090565b8152602001613b996040518060200160405280600081525090565b905290565b604051806103c0016040528060006001600160a01b0316815260200160006001600160a01b0316815260200160006001600160a01b0316815260200160006001600160a01b03168152602001600081526020016000815260200160008152602001600081526020016000815260200160008152602001600081526020016000815260200160008152602001600081526020016000815260200160008152602001600081526020016000815260200160008152602001600081526020016000815260200160008152602001600081526020016000815260200160008152602001600081526020016000815260200160008152602001613b7e6040518060200160405280600081525090565b604051806101400160405280600081526020016000815260200160008152602001600081526020016000815260200160008152602001600081526020016000815260200160008152602001600081525090565b604051806101e00160405280600081526020016000815260200160008152602001600081526020016000815260200160008152602001600081526020016000815260200160008152602001600081526020016000815260200160008152602001613b636040518060200160405280600081525090565b60405180610140016040528060006001600160a01b031681526020016000815260200160008152602001600081526020016000815260200160008152602001613dc66040518060200160405280600081525090565b8152602001613b636040518060200160405280600081525090565b80356001600160a01b0381168114613df857600080fd5b919050565b60008060408385031215613e1057600080fd5b613e1983613de1565b9150613e2760208401613de1565b90509250929050565b600060208284031215613e4257600080fd5b6122f382613de1565b60008060408385031215613e5e57600080fd5b613e6783613de1565b946020939093013593505050565b600060208284031215613e8757600080fd5b5035919050565b60008060408385031215613ea157600080fd5b50508035926020909101359150565b60008060008060808587031215613ec657600080fd5b613ecf85613de1565b9350613edd60208601613de1565b9250613eeb60408601613de1565b9396929550929360600135925050565b600080600060608486031215613f1057600080fd5b505081359360208301359350604090920135919050565b634e487b7160e01b600052601160045260246000fd5b60008219821115613f5057613f50613f27565b500190565b600082821015613f6757613f67613f27565b500390565b6001600160a01b039390931683526020830191909152604082015260600190565b600060208284031215613f9f57600080fd5b5051919050565b6020808252600f908201526e10dbdb9d1c9858dd081c185d5cd959608a1b604082015260600190565b60006001600160ff1b0381841382841380821686840486111615613ff557613ff5613f27565b600160ff1b600087128281168783058912161561401457614014613f27565b6000871292508782058712848416161561403057614030613f27565b8785058712818416161561404657614046613f27565b505050929093029392505050565b6001600160a01b03958616815293909416602084015260408301919091526060820152608081019190915260a00190565b6000806040838503121561409857600080fd5b82519150602083015160ff811681146140b057600080fd5b809150509250929050565b600181815b808511156140f65781600019048211156140dc576140dc613f27565b808516156140e957918102915b93841c93908002906140c0565b509250929050565b60008261410d575060016106cf565b8161411a575060006106cf565b8160018114614130576002811461413a57614156565b60019150506106cf565b60ff84111561414b5761414b613f27565b50506001821b6106cf565b5060208310610133831016604e8410600b8410161715614179575081810a6106cf565b61418383836140bb565b806000190482111561419757614197613f27565b029392505050565b60006122f383836140fe565b60008160001904831182151516156141c5576141c5613f27565b500290565b6000826141e757634e487b7160e01b600052601260045260246000fd5b500490565b634e487b7160e01b600052603260045260246000fd5b600060001982141561421657614216613f27565b506001019056fea2646970667358221220198e3ce9566714a322b7dc051c146f9e58e5c768df9827f3c497a453527862d064736f6c63430008090033",
  "linkReferences": {},
  "deployedLinkReferences": {}
}