{
  "_format": "hh-sol-artifact-1",
  "contractName": "ArrayCallerMock",
  "sourceName": "contracts/reserve/libraries/test/ArrayCallerMock.sol",
  "abi": [
    {
      "inputs": [
        {
          "internalType": "contract IERC20[]",
          "name": "arr",
          "type": "address[]"
        }
      ],
      "name": "allUnique",
      "outputs": [
        {
          "internalType": "bool",
          "name": "",
          "type": "bool"
        }
      ],
      "stateMutability": "pure",
      "type": "function"
    },
    {
      "inputs": [
        {
          "internalType": "contract IERC20[]",
          "name": "arr",
          "type": "address[]"
        }
      ],
      "name": "sortedAndAllUnique",
      "outputs": [
        {
          "internalType": "bool",
          "name": "",
          "type": "bool"
        }
      ],
      "stateMutability": "pure",
      "type": "function"
    }
  ],
  "bytecode": "0x608060405234801561001057600080fd5b50610338806100206000396000f3fe608060405234801561001057600080fd5b50600436106100365760003560e01c806301fb81511461003b5780637babc77f14610062575b600080fd5b61004e6100493660046101df565b610075565b604051901515815260200160405180910390f35b61004e6100703660046101df565b610086565b600061008082610091565b92915050565b60006100808261011a565b805160009060015b8181101561011057836100ad6001836102ba565b815181106100bd576100bd6102d1565b60200260200101516001600160a01b03168482815181106100e0576100e06102d1565b60200260200101516001600160a01b031611610100575060009392505050565b610109816102e7565b9050610099565b5060019392505050565b805160009060015b818110156101105760005b8181101561019c57848181518110610147576101476102d1565b60200260200101516001600160a01b031685838151811061016a5761016a6102d1565b60200260200101516001600160a01b0316141561018c57506000949350505050565b610195816102e7565b905061012d565b506101a6816102e7565b9050610122565b634e487b7160e01b600052604160045260246000fd5b80356001600160a01b03811681146101da57600080fd5b919050565b600060208083850312156101f257600080fd5b823567ffffffffffffffff8082111561020a57600080fd5b818501915085601f83011261021e57600080fd5b813581811115610230576102306101ad565b8060051b604051601f19603f83011681018181108582111715610255576102556101ad565b60405291825284820192508381018501918883111561027357600080fd5b938501935b8285101561029857610289856101c3565b84529385019392850192610278565b98975050505050505050565b634e487b7160e01b600052601160045260246000fd5b6000828210156102cc576102cc6102a4565b500390565b634e487b7160e01b600052603260045260246000fd5b60006000198214156102fb576102fb6102a4565b506001019056fea26469706673582212207d74d470111aa9f2e1fbc5c86c8b94061e4aa98fc345e0a7a048d041fe57c46d64736f6c63430008090033",
  "linkReferences": {},
  "deployedLinkReferences": {}
}