{
  "_format": "hh-sol-artifact-1",
  "contractName": "BasketHandlerP1",
  "sourceName": "contracts/reserve/p1/BasketHandler.sol",
  "abi": [
    {
      "inputs": [],
      "name": "UIntOutOfBounds",
      "type": "error"
    },
    {
      "anonymous": false,
      "inputs": [
        {
          "indexed": false,
          "internalType": "address",
          "name": "previousAdmin",
          "type": "address"
        },
        {
          "indexed": false,
          "internalType": "address",
          "name": "newAdmin",
          "type": "address"
        }
      ],
      "name": "AdminChanged",
      "type": "event"
    },
    {
      "anonymous": false,
      "inputs": [
        {
          "indexed": true,
          "internalType": "bytes32",
          "name": "targetName",
          "type": "bytes32"
        },
        {
          "indexed": true,
          "internalType": "uint256",
          "name": "max",
          "type": "uint256"
        },
        {
          "indexed": false,
          "internalType": "contract IERC20[]",
          "name": "erc20s",
          "type": "address[]"
        }
      ],
      "name": "BackupConfigSet",
      "type": "event"
    },
    {
      "anonymous": false,
      "inputs": [
        {
          "indexed": true,
          "internalType": "uint256",
          "name": "nonce",
          "type": "uint256"
        },
        {
          "indexed": false,
          "internalType": "contract IERC20[]",
          "name": "erc20s",
          "type": "address[]"
        },
        {
          "indexed": false,
          "internalType": "uint192[]",
          "name": "refAmts",
          "type": "uint192[]"
        },
        {
          "indexed": false,
          "internalType": "bool",
          "name": "disabled",
          "type": "bool"
        }
      ],
      "name": "BasketSet",
      "type": "event"
    },
    {
      "anonymous": false,
      "inputs": [
        {
          "indexed": true,
          "internalType": "address",
          "name": "beacon",
          "type": "address"
        }
      ],
      "name": "BeaconUpgraded",
      "type": "event"
    },
    {
      "anonymous": false,
      "inputs": [
        {
          "indexed": false,
          "internalType": "uint8",
          "name": "version",
          "type": "uint8"
        }
      ],
      "name": "Initialized",
      "type": "event"
    },
    {
      "anonymous": false,
      "inputs": [
        {
          "indexed": false,
          "internalType": "contract IERC20[]",
          "name": "erc20s",
          "type": "address[]"
        },
        {
          "indexed": false,
          "internalType": "uint192[]",
          "name": "targetAmts",
          "type": "uint192[]"
        },
        {
          "indexed": false,
          "internalType": "bytes32[]",
          "name": "targetNames",
          "type": "bytes32[]"
        }
      ],
      "name": "PrimeBasketSet",
      "type": "event"
    },
    {
      "anonymous": false,
      "inputs": [
        {
          "indexed": true,
          "internalType": "address",
          "name": "implementation",
          "type": "address"
        }
      ],
      "name": "Upgraded",
      "type": "event"
    },
    {
      "inputs": [],
      "name": "MAX_TARGET_AMT",
      "outputs": [
        {
          "internalType": "uint192",
          "name": "",
          "type": "uint192"
        }
      ],
      "stateMutability": "view",
      "type": "function"
    },
    {
      "inputs": [
        {
          "internalType": "address",
          "name": "account",
          "type": "address"
        }
      ],
      "name": "basketsHeldBy",
      "outputs": [
        {
          "internalType": "uint192",
          "name": "baskets",
          "type": "uint192"
        }
      ],
      "stateMutability": "view",
      "type": "function"
    },
    {
      "inputs": [],
      "name": "disableBasket",
      "outputs": [],
      "stateMutability": "nonpayable",
      "type": "function"
    },
    {
      "inputs": [],
      "name": "fallbackPrice",
      "outputs": [
        {
          "internalType": "uint192",
          "name": "p",
          "type": "uint192"
        }
      ],
      "stateMutability": "view",
      "type": "function"
    },
    {
      "inputs": [],
      "name": "fullyCollateralized",
      "outputs": [
        {
          "internalType": "bool",
          "name": "",
          "type": "bool"
        }
      ],
      "stateMutability": "view",
      "type": "function"
    },
    {
      "inputs": [
        {
          "internalType": "contract IMain",
          "name": "main_",
          "type": "address"
        }
      ],
      "name": "init",
      "outputs": [],
      "stateMutability": "nonpayable",
      "type": "function"
    },
    {
      "inputs": [],
      "name": "main",
      "outputs": [
        {
          "internalType": "contract IMain",
          "name": "",
          "type": "address"
        }
      ],
      "stateMutability": "view",
      "type": "function"
    },
    {
      "inputs": [],
      "name": "nonce",
      "outputs": [
        {
          "internalType": "uint48",
          "name": "",
          "type": "uint48"
        }
      ],
      "stateMutability": "view",
      "type": "function"
    },
    {
      "inputs": [],
      "name": "price",
      "outputs": [
        {
          "internalType": "uint192",
          "name": "low",
          "type": "uint192"
        },
        {
          "internalType": "uint192",
          "name": "high",
          "type": "uint192"
        }
      ],
      "stateMutability": "view",
      "type": "function"
    },
    {
      "inputs": [],
      "name": "proxiableUUID",
      "outputs": [
        {
          "internalType": "bytes32",
          "name": "",
          "type": "bytes32"
        }
      ],
      "stateMutability": "view",
      "type": "function"
    },
    {
      "inputs": [
        {
          "internalType": "contract IERC20",
          "name": "erc20",
          "type": "address"
        }
      ],
      "name": "quantity",
      "outputs": [
        {
          "internalType": "uint192",
          "name": "",
          "type": "uint192"
        }
      ],
      "stateMutability": "view",
      "type": "function"
    },
    {
      "inputs": [
        {
          "internalType": "uint192",
          "name": "amount",
          "type": "uint192"
        },
        {
          "internalType": "enum RoundingMode",
          "name": "rounding",
          "type": "uint8"
        }
      ],
      "name": "quote",
      "outputs": [
        {
          "internalType": "address[]",
          "name": "erc20s",
          "type": "address[]"
        },
        {
          "internalType": "uint256[]",
          "name": "quantities",
          "type": "uint256[]"
        }
      ],
      "stateMutability": "view",
      "type": "function"
    },
    {
      "inputs": [],
      "name": "refreshBasket",
      "outputs": [],
      "stateMutability": "nonpayable",
      "type": "function"
    },
    {
      "inputs": [
        {
          "internalType": "bytes32",
          "name": "targetName",
          "type": "bytes32"
        },
        {
          "internalType": "uint256",
          "name": "max",
          "type": "uint256"
        },
        {
          "internalType": "contract IERC20[]",
          "name": "erc20s",
          "type": "address[]"
        }
      ],
      "name": "setBackupConfig",
      "outputs": [],
      "stateMutability": "nonpayable",
      "type": "function"
    },
    {
      "inputs": [
        {
          "internalType": "contract IERC20[]",
          "name": "erc20s",
          "type": "address[]"
        },
        {
          "internalType": "uint192[]",
          "name": "targetAmts",
          "type": "uint192[]"
        }
      ],
      "name": "setPrimeBasket",
      "outputs": [],
      "stateMutability": "nonpayable",
      "type": "function"
    },
    {
      "inputs": [],
      "name": "status",
      "outputs": [
        {
          "internalType": "enum CollateralStatus",
          "name": "status_",
          "type": "uint8"
        }
      ],
      "stateMutability": "view",
      "type": "function"
    },
    {
      "inputs": [],
      "name": "timestamp",
      "outputs": [
        {
          "internalType": "uint48",
          "name": "",
          "type": "uint48"
        }
      ],
      "stateMutability": "view",
      "type": "function"
    },
    {
      "inputs": [
        {
          "internalType": "address",
          "name": "newImplementation",
          "type": "address"
        }
      ],
      "name": "upgradeTo",
      "outputs": [],
      "stateMutability": "nonpayable",
      "type": "function"
    },
    {
      "inputs": [
        {
          "internalType": "address",
          "name": "newImplementation",
          "type": "address"
        },
        {
          "internalType": "bytes",
          "name": "data",
          "type": "bytes"
        }
      ],
      "name": "upgradeToAndCall",
      "outputs": [],
      "stateMutability": "payable",
      "type": "function"
    },
    {
      "inputs": [],
      "name": "version",
      "outputs": [
        {
          "internalType": "string",
          "name": "",
          "type": "string"
        }
      ],
      "stateMutability": "pure",
      "type": "function"
    }
  ],
  "bytecode": "0x60a0604052306080523480156200001557600080fd5b50600054610100900460ff1615808015620000375750600054600160ff909116105b8062000067575062000054306200014160201b620025d41760201c565b15801562000067575060005460ff166001145b620000cf5760405162461bcd60e51b815260206004820152602e60248201527f496e697469616c697a61626c653a20636f6e747261637420697320616c72656160448201526d191e481a5b9a5d1a585b1a5e995960921b606482015260840160405180910390fd5b6000805460ff191660011790558015620000f3576000805461ff0019166101001790555b80156200013a576000805461ff0019169055604051600181527f7f26b83ff96e1f2b6a682f133852f6798a09c465da95921460cefb38474024989060200160405180910390a15b5062000150565b6001600160a01b03163b151590565b608051614da362000188600039600081816109ba015281816109fa01528181610a9a01528181610ada0152610b690152614da36000f3fe60806040526004361061011f5760003560e01c8063aa47955e116100a0578063e27f3bef11610064578063e27f3bef14610377578063e28a1b861461038c578063e45a5b2d146103a1578063ef2b9337146103c6578063f11d4648146103e657600080fd5b8063aa47955e14610292578063affed0e0146102b2578063b80777ea146102e8578063c620f0fc14610311578063dffeadd01461033f57600080fd5b806354fd4d50116100e757806354fd4d50146101c75780637e4e2d08146101fb5780638a55015b14610228578063a035b1fe1461023d578063a5a5828c1461027257600080fd5b806319ab453c14610124578063200d2ed2146101465780633659cfe6146101715780634f1ef2861461019157806352d1902d146101a4575b600080fd5b34801561013057600080fd5b5061014461013f3660046142db565b610406565b005b34801561015257600080fd5b5061015b610820565b604051610168919061430e565b60405180910390f35b34801561017d57600080fd5b5061014461018c3660046142db565b6109af565b61014461019f36600461434c565b610a8f565b3480156101b057600080fd5b506101b9610b5c565b604051908152602001610168565b3480156101d357600080fd5b5060408051808201825260058152640312e322e360dc1b60208201529051610168919061443c565b34801561020757600080fd5b50610210610c0f565b6040516001600160c01b039091168152602001610168565b34801561023457600080fd5b50610144610c26565b34801561024957600080fd5b50610252610e44565b604080516001600160c01b03938416815292909116602083015201610168565b34801561027e57600080fd5b5061021061028d3660046142db565b611064565b34801561029e57600080fd5b506102106102ad3660046142db565b61124a565b3480156102be57600080fd5b5060d4546102d19065ffffffffffff1681565b60405165ffffffffffff9091168152602001610168565b3480156102f457600080fd5b5060d4546102d1906601000000000000900465ffffffffffff1681565b34801561031d57600080fd5b5061033161032c366004614491565b61156a565b6040516101689291906144ca565b34801561034b57600080fd5b5060975461035f906001600160a01b031681565b6040516001600160a01b039091168152602001610168565b34801561038357600080fd5b5061014461177a565b34801561039857600080fd5b5061021061187e565b3480156103ad57600080fd5b506103b6611a38565b6040519015158152602001610168565b3480156103d257600080fd5b506101446103e136600461459a565b611ae7565b3480156103f257600080fd5b50610144610401366004614606565b6122b6565b600054610100900460ff16158080156104265750600054600160ff909116105b806104405750303b158015610440575060005460ff166001145b6104a85760405162461bcd60e51b815260206004820152602e60248201527f496e697469616c697a61626c653a20636f6e747261637420697320616c72656160448201526d191e481a5b9a5d1a585b1a5e995960921b60648201526084015b60405180910390fd5b6000805460ff1916600117905580156104cb576000805461ff0019166101001790555b6104d4826125e3565b816001600160a01b031663979d7e866040518163ffffffff1660e01b815260040160206040518083038186803b15801561050d57600080fd5b505afa158015610521573d6000803e3d6000fd5b505050506040513d601f19601f82011682018060405250810190610545919061464d565b60c960006101000a8154816001600160a01b0302191690836001600160a01b03160217905550816001600160a01b031663dc8af5f66040518163ffffffff1660e01b815260040160206040518083038186803b1580156105a457600080fd5b505afa1580156105b8573d6000803e3d6000fd5b505050506040513d601f19601f820116820180604052508101906105dc919061464d565b60ca60006101000a8154816001600160a01b0302191690836001600160a01b03160217905550816001600160a01b031663c99dc3dd6040518163ffffffff1660e01b815260040160206040518083038186803b15801561063b57600080fd5b505afa15801561064f573d6000803e3d6000fd5b505050506040513d601f19601f82011682018060405250810190610673919061464d565b60cb60006101000a8154816001600160a01b0302191690836001600160a01b03160217905550816001600160a01b03166340c65f726040518163ffffffff1660e01b815260040160206040518083038186803b1580156106d257600080fd5b505afa1580156106e6573d6000803e3d6000fd5b505050506040513d601f19601f8201168201806040525081019061070a919061464d565b60cc60006101000a8154816001600160a01b0302191690836001600160a01b03160217905550816001600160a01b0316634780a5e56040518163ffffffff1660e01b815260040160206040518083038186803b15801561076957600080fd5b505afa15801561077d573d6000803e3d6000fd5b505050506040513d601f19601f820116820180604052508101906107a1919061464d565b60cd80546001600160a01b03929092166001600160a01b031990921691909117905560d4805460ff60601b1916600160601b179055801561081c576000805461ff0019169055604051600181527f7f26b83ff96e1f2b6a682f133852f6798a09c465da95921460cefb38474024989060200160405180910390a15b5050565b60d25460d45460009190600160601b900460ff168061083d575080155b1561084a57600291505090565b60005b818110156109aa5760c95460d280546000926001600160a01b0316916357a26a40918590811061087f5761087f61466a565b60009182526020909120015460405160e083901b6001600160e01b03191681526001600160a01b03909116600482015260240160206040518083038186803b1580156108ca57600080fd5b505afa1580156108de573d6000803e3d6000fd5b505050506040513d601f19601f82011682018060405250810190610902919061464d565b6001600160a01b031663200d2ed26040518163ffffffff1660e01b815260040160206040518083038186803b15801561093a57600080fd5b505afa15801561094e573d6000803e3d6000fd5b505050506040513d601f19601f820116820180604052508101906109729190614680565b90506109908482600281111561098a5761098a6142f8565b90612681565b15610999578093505b506109a3816146b3565b905061084d565b505090565b306001600160a01b037f00000000000000000000000000000000000000000000000000000000000000001614156109f85760405162461bcd60e51b815260040161049f906146ce565b7f00000000000000000000000000000000000000000000000000000000000000006001600160a01b0316610a41600080516020614d27833981519152546001600160a01b031690565b6001600160a01b031614610a675760405162461bcd60e51b815260040161049f9061471a565b610a70816126b1565b60408051600080825260208201909252610a8c91839190612785565b50565b306001600160a01b037f0000000000000000000000000000000000000000000000000000000000000000161415610ad85760405162461bcd60e51b815260040161049f906146ce565b7f00000000000000000000000000000000000000000000000000000000000000006001600160a01b0316610b21600080516020614d27833981519152546001600160a01b031690565b6001600160a01b031614610b475760405162461bcd60e51b815260040161049f9061471a565b610b50826126b1565b61081c82826001612785565b6000306001600160a01b037f00000000000000000000000000000000000000000000000000000000000000001614610bfc5760405162461bcd60e51b815260206004820152603860248201527f555550535570677261646561626c653a206d757374206e6f742062652063616c60448201527f6c6564207468726f7567682064656c656761746563616c6c0000000000000000606482015260840161049f565b50600080516020614d2783398151915290565b610c23670de0b6b3a76400006103e8614766565b81565b60c960009054906101000a90046001600160a01b03166001600160a01b031663f8ac93e86040518163ffffffff1660e01b8152600401600060405180830381600087803b158015610c7657600080fd5b505af1158015610c8a573d6000803e3d6000fd5b505060975460408051808201909152600581526427aba722a960d91b60208201526001600160a01b0390911692506391d148549150610cc890614795565b336040516001600160e01b031960e085901b16815260048101929092526001600160a01b0316602482015260440160206040518083038186803b158015610d0e57600080fd5b505afa158015610d22573d6000803e3d6000fd5b505050506040513d601f19601f82011682018060405250810190610d4691906147bc565b80610df757506002610d56610820565b6002811115610d6757610d676142f8565b148015610df75750609760009054906101000a90046001600160a01b03166001600160a01b031663f17063756040518163ffffffff1660e01b815260040160206040518083038186803b158015610dbd57600080fd5b505afa158015610dd1573d6000803e3d6000fd5b505050506040513d601f19601f82011682018060405250810190610df591906147bc565b155b610e3a5760405162461bcd60e51b81526020600482015260146024820152736261736b657420756e7265667265736861626c6560601b604482015260640161049f565b610e42612904565b565b60d254600090819081908190815b8181101561101c576000610e8f60d26000018381548110610e7557610e7561466a565b6000918252602090912001546001600160a01b0316611064565b90506001600160c01b038116610ea5575061100c565b60c95460d2805460009283926001600160a01b039091169163cde2be8a919087908110610ed457610ed461466a565b60009182526020909120015460405160e083901b6001600160e01b03191681526001600160a01b03909116600482015260240160206040518083038186803b158015610f1f57600080fd5b505afa158015610f33573d6000803e3d6000fd5b505050506040513d601f19601f82011682018060405250810190610f57919061464d565b6001600160a01b031663a035b1fe6040518163ffffffff1660e01b8152600401604080518083038186803b158015610f8e57600080fd5b505afa158015610fa2573d6000803e3d6000fd5b505050506040513d601f19601f82011682018060405250810190610fc691906147de565b91509150610fd4838361320a565b610fe7906001600160c01b03168861480d565b9650610ff3838261320a565b611006906001600160c01b03168761480d565b95505050505b611015816146b3565b9050610e52565b506001600160c01b03831015611032578261103b565b6001600160c01b035b94506001600160c01b03821015611052578161105b565b6001600160c01b035b93505050509091565b60c95460405163015e89a960e61b81526001600160a01b03838116600483015260009216906357a26a409060240160206040518083038186803b1580156110aa57600080fd5b505afa9250505080156110da575060408051601f3d908101601f191682019092526110d79181019061464d565b60015b6110e657506000919050565b6002816001600160a01b031663200d2ed26040518163ffffffff1660e01b815260040160206040518083038186803b15801561112157600080fd5b505afa158015611135573d6000803e3d6000fd5b505050506040513d601f19601f820116820180604052508101906111599190614680565b600281111561116a5761116a6142f8565b14156111795750600092915050565b6000816001600160a01b031663a7fa0faf6040518163ffffffff1660e01b815260040160206040518083038186803b1580156111b457600080fd5b505afa1580156111c8573d6000803e3d6000fd5b505050506040513d601f19601f820116820180604052508101906111ec9190614825565b90506001600160c01b03811615611233576001600160a01b038416600090815260d3602052604090205461122b906001600160c01b03168260026132d5565b949350505050565b506001600160c01b039392505050565b5050919050565b60d254600090801580611266575060d454600160601b900460ff165b156112745750600092915050565b6001600160c01b03915060005b818110156112435760c95460d280546000926001600160a01b0316916357a26a4091859081106112b3576112b361466a565b60009182526020909120015460405160e083901b6001600160e01b03191681526001600160a01b03909116600482015260240160206040518083038186803b1580156112fe57600080fd5b505afa158015611312573d6000803e3d6000fd5b505050506040513d601f19601f82011682018060405250810190611336919061464d565b90506002816001600160a01b031663200d2ed26040518163ffffffff1660e01b815260040160206040518083038186803b15801561137357600080fd5b505afa158015611387573d6000803e3d6000fd5b505050506040513d601f19601f820116820180604052508101906113ab9190614680565b60028111156113bc576113bc6142f8565b14156113cd57506000949350505050565b6000816001600160a01b031663a7fa0faf6040518163ffffffff1660e01b815260040160206040518083038186803b15801561140857600080fd5b505afa15801561141c573d6000803e3d6000fd5b505050506040513d601f19601f820116820180604052508101906114409190614825565b90506001600160c01b03811661145c5750600095945050505050565b604051632ac07b9560e11b81526001600160a01b03878116600483015260009190841690635580f72a9060240160206040518083038186803b1580156114a157600080fd5b505afa1580156114b5573d6000803e3d6000fd5b505050506040513d601f19601f820116820180604052508101906114d99190614825565b9050600061153583600260d2600101600060d26000018a815481106115005761150061466a565b60009182526020808320909101546001600160a01b031683528201929092526040019020546001600160c01b031691906132d5565b90506115538761154e6001600160c01b03851684613317565b613325565b96505050505080611563906146b3565b9050611281565b60d25460609081908067ffffffffffffffff81111561158b5761158b614336565b6040519080825280602002602001820160405280156115b4578160200160208202803683370190505b5092508067ffffffffffffffff8111156115d0576115d0614336565b6040519080825280602002602001820160405280156115f9578160200160208202803683370190505b50915060005b818110156117715760d280548290811061161b5761161b61466a565b9060005260206000200160009054906101000a90046001600160a01b031684828151811061164b5761164b61466a565b60200260200101906001600160a01b031690816001600160a01b03168152505061174460d260000182815481106116845761168461466a565b600091825260209182902001546040805163313ce56760e01b815290516001600160a01b039092169263313ce56792600480840193829003018186803b1580156116cd57600080fd5b505afa1580156116e1573d6000803e3d6000fd5b505050506040513d601f19601f820116820180604052508101906117059190614842565b86611734898961172460d26000018881548110610e7557610e7561466a565b6001600160c01b0316919061334d565b6001600160c01b0316919061337a565b8382815181106117565761175661466a565b602090810291909101015261176a816146b3565b90506115ff565b50509250929050565b60c9546001600160a01b0316336001600160a01b0316146117d35760405162461bcd60e51b81526020600482015260136024820152726173736574207265676973747279206f6e6c7960681b604482015260640161049f565b60d25460009067ffffffffffffffff8111156117f1576117f1614336565b60405190808252806020026020018201604052801561181a578160200160208202803683370190505b5060d45460405191925065ffffffffffff16907f96b0986d2e475227127142054ad0599449d839de95c18f73d7577f9af3c22f73906118609060d2908590600190614865565b60405180910390a25060d4805460ff60601b1916600160601b179055565b60d2546000908190815b81811015611a125760006118ab60d26000018381548110610e7557610e7561466a565b90506001600160c01b0381166118c15750611a02565b60c95460d280546000926001600160a01b03169163cde2be8a91869081106118eb576118eb61466a565b60009182526020909120015460405160e083901b6001600160e01b03191681526001600160a01b03909116600482015260240160206040518083038186803b15801561193657600080fd5b505afa15801561194a573d6000803e3d6000fd5b505050506040513d601f19601f8201168201806040525081019061196e919061464d565b6001600160a01b031663e28a1b866040518163ffffffff1660e01b815260040160206040518083038186803b1580156119a657600080fd5b505afa1580156119ba573d6000803e3d6000fd5b505050506040513d601f19601f820116820180604052508101906119de9190614825565b90506119ea828261320a565b6119fd906001600160c01b03168661480d565b945050505b611a0b816146b3565b9050611888565b506001600160c01b03821015611a285781611a31565b6001600160c01b035b9250505090565b60cc5460408051637121c27360e01b815290516000926001600160a01b031691637121c273916004808301926020929190829003018186803b158015611a7d57600080fd5b505afa158015611a91573d6000803e3d6000fd5b505050506040513d601f19601f82011682018060405250810190611ab59190614825565b60ca546001600160c01b039190911690611ad7906001600160a01b031661124a565b6001600160c01b03161015905090565b60975460408051808201909152600581526427aba722a960d91b60208201526001600160a01b03909116906391d1485490611b2190614795565b336040516001600160e01b031960e085901b16815260048101929092526001600160a01b0316602482015260440160206040518083038186803b158015611b6757600080fd5b505afa158015611b7b573d6000803e3d6000fd5b505050506040513d601f19601f82011682018060405250810190611b9f91906147bc565b611bbb5760405162461bcd60e51b815260040161049f90614903565b82611bfe5760405162461bcd60e51b815260206004820152601360248201527218d85b9b9bdd08195b5c1d1e4818985cdad95d606a1b604482015260640161049f565b828114611c435760405162461bcd60e51b81526020600482015260136024820152720daeae6e840c4ca40e6c2daca40d8cadccee8d606b1b604482015260640161049f565b611c4d8484613458565b60005b60ce54811015611cf45760ce805460cf9160009184908110611c7457611c7461466a565b60009182526020808320909101546001600160a01b03168352820192909252604001812080546001600160c01b031916905560ce805460d092919084908110611cbf57611cbf61466a565b60009182526020808320909101546001600160a01b03168352820192909252604001812055611ced816146b3565b9050611c50565b50611d0160ce6000614298565b60008367ffffffffffffffff811115611d1c57611d1c614336565b604051908082528060200260200182016040528015611d45578160200160208202803683370190505b50905060005b8481101561226f5760c9546001600160a01b031663cde2be8a878784818110611d7657611d7661466a565b9050602002016020810190611d8b91906142db565b6040516001600160e01b031960e084901b1681526001600160a01b03909116600482015260240160206040518083038186803b158015611dca57600080fd5b505afa158015611dde573d6000803e3d6000fd5b505050506040513d601f19601f82011682018060405250810190611e02919061464d565b6001600160a01b031663c59b3d636040518163ffffffff1660e01b815260040160206040518083038186803b158015611e3a57600080fd5b505afa158015611e4e573d6000803e3d6000fd5b505050506040513d601f19601f82011682018060405250810190611e7291906147bc565b611eb85760405162461bcd60e51b81526020600482015260176024820152761d1bdad95b881a5cc81b9bdd0818dbdb1b185d195c985b604a1b604482015260640161049f565b838382818110611eca57611eca61466a565b9050602002016020810190611edf919061492c565b6001600160c01b0316600010611f465760405162461bcd60e51b815260206004820152602660248201527f696e76616c69642074617267657420616d6f756e743b206d757374206265206e6044820152656f6e7a65726f60d01b606482015260840161049f565b611f5a670de0b6b3a76400006103e8614766565b6001600160c01b0316848483818110611f7557611f7561466a565b9050602002016020810190611f8a919061492c565b6001600160c01b03161115611fe15760405162461bcd60e51b815260206004820181905260248201527f696e76616c69642074617267657420616d6f756e743b20746f6f206c61726765604482015260640161049f565b60ce868683818110611ff557611ff561466a565b905060200201602081019061200a91906142db565b81546001810183556000928352602090922090910180546001600160a01b0319166001600160a01b0390921691909117905583838281811061204e5761204e61466a565b9050602002016020810190612063919061492c565b60cf60008888858181106120795761207961466a565b905060200201602081019061208e91906142db565b6001600160a01b039081168252602082019290925260400160002080546001600160c01b0319166001600160c01b03939093169290921790915560c954166357a26a408787848181106120e3576120e361466a565b90506020020160208101906120f891906142db565b6040516001600160e01b031960e084901b1681526001600160a01b03909116600482015260240160206040518083038186803b15801561213757600080fd5b505afa15801561214b573d6000803e3d6000fd5b505050506040513d601f19601f8201168201806040525081019061216f919061464d565b6001600160a01b031663fdfd59176040518163ffffffff1660e01b815260040160206040518083038186803b1580156121a757600080fd5b505afa1580156121bb573d6000803e3d6000fd5b505050506040513d601f19601f820116820180604052508101906121df9190614949565b8282815181106121f1576121f161466a565b60200260200101818152505081818151811061220f5761220f61466a565b602002602001015160ce60020160008888858181106122305761223061466a565b905060200201602081019061224591906142db565b6001600160a01b03168152602081019190915260400160002055612268816146b3565b9050611d4b565b507f629da6921e2e606994411ee546db2cd47613a15eb48b5f4e474506e11349ab2085858585856040516122a79594939291906149ab565b60405180910390a15050505050565b60975460408051808201909152600581526427aba722a960d91b60208201526001600160a01b03909116906391d14854906122f090614795565b336040516001600160e01b031960e085901b16815260048101929092526001600160a01b0316602482015260440160206040518083038186803b15801561233657600080fd5b505afa15801561234a573d6000803e3d6000fd5b505050506040513d601f19601f8201168201806040525081019061236e91906147bc565b61238a5760405162461bcd60e51b815260040161049f90614903565b6123948282613458565b600084815260d160205260408120848155906123b4906001830190614298565b60005b828110156125915760c9546001600160a01b031663cde2be8a8585848181106123e2576123e261466a565b90506020020160208101906123f791906142db565b6040516001600160e01b031960e084901b1681526001600160a01b03909116600482015260240160206040518083038186803b15801561243657600080fd5b505afa15801561244a573d6000803e3d6000fd5b505050506040513d601f19601f8201168201806040525081019061246e919061464d565b6001600160a01b031663c59b3d636040518163ffffffff1660e01b815260040160206040518083038186803b1580156124a657600080fd5b505afa1580156124ba573d6000803e3d6000fd5b505050506040513d601f19601f820116820180604052508101906124de91906147bc565b6125245760405162461bcd60e51b81526020600482015260176024820152761d1bdad95b881a5cc81b9bdd0818dbdb1b185d195c985b604a1b604482015260640161049f565b8160010184848381811061253a5761253a61466a565b905060200201602081019061254f91906142db565b81546001810183556000928352602090922090910180546001600160a01b0319166001600160a01b0390921691909117905561258a816146b3565b90506123b7565b5083857f5e4dc2c7b1c113b11b34cda7c3dad9d453b0288298f8c9e9dd8e91515f22819d85856040516125c5929190614a49565b60405180910390a35050505050565b6001600160a01b03163b151590565b600054610100900460ff1661260a5760405162461bcd60e51b815260040161049f90614a5d565b6001600160a01b0381166126575760405162461bcd60e51b81526020600482015260146024820152736d61696e206973207a65726f206164647265737360601b604482015260640161049f565b61265f613727565b609780546001600160a01b0319166001600160a01b0392909216919091179055565b6000816002811115612695576126956142f8565b8360028111156126a7576126a76142f8565b1190505b92915050565b60975460408051808201909152600581526427aba722a960d91b60208201526001600160a01b03909116906391d14854906126eb90614795565b336040516001600160e01b031960e085901b16815260048101929092526001600160a01b0316602482015260440160206040518083038186803b15801561273157600080fd5b505afa158015612745573d6000803e3d6000fd5b505050506040513d601f19601f8201168201806040525081019061276991906147bc565b610a8c5760405162461bcd60e51b815260040161049f90614903565b7f4910fdfa16fed3260ed0e7147f7cc6da11a60208b5b9406d12a635614ffd91435460ff16156127bd576127b88361374e565b505050565b826001600160a01b03166352d1902d6040518163ffffffff1660e01b815260040160206040518083038186803b1580156127f657600080fd5b505afa925050508015612826575060408051601f3d908101601f1916820190925261282391810190614949565b60015b6128895760405162461bcd60e51b815260206004820152602e60248201527f45524331393637557067726164653a206e657720696d706c656d656e7461746960448201526d6f6e206973206e6f74205555505360901b606482015260840161049f565b600080516020614d2783398151915281146128f85760405162461bcd60e51b815260206004820152602960248201527f45524331393637557067726164653a20756e737570706f727465642070726f786044820152681a58589b195555525160ba1b606482015260840161049f565b506127b88383836137ea565b60d4805460ff60601b191690555b600061291e60d5613815565b11156129415761293b61293360d5600061381f565b60d59061382b565b50612912565b61294b60d7613837565b60ce5460005b818110156129b7576129a660ce600201600060ce60000184815481106129795761297961466a565b60009182526020808320909101546001600160a01b0316835282019290925260400190205460d5906138c0565b506129b0816146b3565b9050612951565b5060006129c460d5613815565b905060008167ffffffffffffffff8111156129e1576129e1614336565b604051908082528060200260200182016040528015612a0a578160200160208202803683370190505b50905060008267ffffffffffffffff811115612a2857612a28614336565b604051908082528060200260200182016040528015612a51578160200160208202803683370190505b50905060005b84811015612d0e57600060ce6000018281548110612a7757612a7761466a565b60009182526020822001546001600160a01b031691505b85811015612ad5576001600160a01b038216600090815260d06020526040902054612aba60d58361381f565b1415612ac557612ad5565b612ace816146b3565b9050612a8e565b858110612ae457612ae4614aa8565b6001600160a01b038216600090815260cf602052604090205484516001600160c01b0390911690612b42908290879085908110612b2357612b2361466a565b60200260200101516001600160c01b03166138cc90919063ffffffff16565b858381518110612b5457612b5461466a565b6001600160c01b039092166020928302919091018201526001600160a01b038416600090815260d09091526040902054612b8e90846138d8565b8015612ba257506001600160c01b03811615155b15612cfa57612bbd81878481518110612b2357612b2361466a565b868381518110612bcf57612bcf61466a565b6001600160c01b03929092166020928302919091019091015260c95460405163015e89a960e61b81526001600160a01b038086166004830152612cfa928692612cf192909116906357a26a409060240160206040518083038186803b158015612c3757600080fd5b505afa158015612c4b573d6000803e3d6000fd5b505050506040513d601f19601f82011682018060405250810190612c6f919061464d565b6001600160a01b031663d9e8e6706040518163ffffffff1660e01b815260040160206040518083038186803b158015612ca757600080fd5b505afa158015612cbb573d6000803e3d6000fd5b505050506040513d601f19601f82011682018060405250810190612cdf9190614825565b6001600160c01b0385169060026132d5565b60d79190613bde565b50505080612d07906146b3565b9050612a57565b5060005b8381101561303057612d68838281518110612d2f57612d2f61466a565b6020026020010151838381518110612d4957612d4961466a565b60200260200101516001600160c01b0316613ce290919063ffffffff16565b15612d7257613020565b60008060d181612d8360d58661381f565b8152602081019190915260400160009081206001810154909250905b8181108015612dae5750825484105b15612e1357612df0612dc160d58761381f565b846001018381548110612dd657612dd661466a565b6000918252602090912001546001600160a01b03166138d8565b15612e035783612dff816146b3565b9450505b612e0c816146b3565b9050612d9f565b5082612e2d5760d4805460ff60601b1916600160601b1790555b600080612e7e888781518110612e4557612e4561466a565b6020026020010151888881518110612e5f57612e5f61466a565b60200260200101516001600160c01b0316613cf490919063ffffffff16565b905060005b8381108015612e9157508583105b15613019576000856001018281548110612ead57612ead61466a565b6000918252602090912001546001600160a01b03169050612ed8612ed260d58a61381f565b826138d8565b156130085760c95460405163015e89a960e61b81526001600160a01b038084166004830152612ffa928492612cf192612fe8928d929116906357a26a409060240160206040518083038186803b158015612f3157600080fd5b505afa158015612f45573d6000803e3d6000fd5b505050506040513d601f19601f82011682018060405250810190612f69919061464d565b6001600160a01b031663d9e8e6706040518163ffffffff1660e01b815260040160206040518083038186803b158015612fa157600080fd5b505afa158015612fb5573d6000803e3d6000fd5b505050506040513d601f19601f82011682018060405250810190612fd99190614825565b6001600160c01b031690613d00565b6001600160c01b0387169060026132d5565b83613004816146b3565b9450505b50613012816146b3565b9050612e83565b5050505050505b613029816146b3565b9050612d12565b5060d7548061304d5760d4805460ff60601b1916600160601b1790555b60d454600160601b900460ff166130d05761306a60d260d7613d18565b60d480546001919060009061308890849065ffffffffffff16614abe565b92506101000a81548165ffffffffffff021916908365ffffffffffff1602179055504260d460066101000a81548165ffffffffffff021916908365ffffffffffff1602179055505b60d254945060008567ffffffffffffffff8111156130f0576130f0614336565b604051908082528060200260200182016040528015613119578160200160208202803683370190505b50905060005b868110156131ae5760d2805460d391600091849081106131415761314161466a565b60009182526020808320909101546001600160a01b0316835282019290925260400190205482516001600160c01b03909116908390839081106131865761318661466a565b6001600160c01b03909216602092830291909101909101526131a7816146b3565b905061311f565b5060d45460405165ffffffffffff8216917f96b0986d2e475227127142054ad0599449d839de95c18f73d7577f9af3c22f73916131fa9160d2918691600160601b900460ff1690614865565b60405180910390a2505050505050565b60006001600160c01b038316158061322957506001600160c01b038216155b15613236575060006126ab565b6001600160c01b03838116148061325557506001600160c01b03828116145b1561326857506001600160c01b036126ab565b6001600160c01b0382811690841681810291828161328857613288614ae8565b041461329e576001600160c01b039150506126ab565b6706f05b59d3b200008101818110156132c2576001600160c01b03925050506126ab565b670de0b6b3a76400009004949350505050565b600061330d6133086132f8670de0b6b3a76400006001600160c01b038816614afe565b856001600160c01b031685613e36565b613ee0565b90505b9392505050565b6000613310838360006132d5565b6000816001600160c01b0316836001600160c01b0316106133465781613310565b5090919050565b600061330d61330861336b6001600160c01b03808716908816614afe565b670de0b6b3a764000085613e36565b60006001600160c01b03841661339257506000613310565b6029198360000b136133cb5760028260028111156133b2576133b26142f8565b146133be5760006133c1565b60015b60ff169050613310565b8260000b6060136133ef5760405163f44398f560e01b815260040160405180910390fd5b6133fa601284614b1d565b9250600061340a8460000b613f0e565b61341590600a614c42565b905060008460000b121561343c57613437856001600160c01b03168285613e36565b61344f565b61344f816001600160c01b038716614afe565b95945050505050565b6000805b828110156136a85760cb546001600160a01b03168484838181106134825761348261466a565b905060200201602081019061349791906142db565b6001600160a01b031614156134ee5760405162461bcd60e51b815260206004820152601b60248201527f525352206973206e6f742076616c696420636f6c6c61746572616c0000000000604482015260640161049f565b60cc546001600160a01b031684848381811061350c5761350c61466a565b905060200201602081019061352191906142db565b6001600160a01b031614156135785760405162461bcd60e51b815260206004820152601e60248201527f52546f6b656e206973206e6f742076616c696420636f6c6c61746572616c0000604482015260640161049f565b60cd546001600160a01b03168484838181106135965761359661466a565b90506020020160208101906135ab91906142db565b6001600160a01b031614156136025760405162461bcd60e51b815260206004820152601d60248201527f7374525352206973206e6f742076616c696420636f6c6c61746572616c000000604482015260640161049f565b816001600160a01b031684848381811061361e5761361e61466a565b905060200201602081019061363391906142db565b6001600160a01b031614156136965760405162461bcd60e51b8152602060048201526024808201527f61646472657373207a65726f206973206e6f742076616c696420636f6c6c6174604482015263195c985b60e21b606482015260840161049f565b806136a0816146b3565b91505061345c565b506136e5838380806020026020016040519081016040528093929190818152602001838360200280828437600092019190915250613f2692505050565b6127b85760405162461bcd60e51b8152602060048201526013602482015272636f6e7461696e73206475706c69636174657360681b604482015260640161049f565b600054610100900460ff16610e425760405162461bcd60e51b815260040161049f90614a5d565b6001600160a01b0381163b6137bb5760405162461bcd60e51b815260206004820152602d60248201527f455243313936373a206e657720696d706c656d656e746174696f6e206973206e60448201526c1bdd08184818dbdb9d1c9858dd609a1b606482015260840161049f565b600080516020614d2783398151915280546001600160a01b0319166001600160a01b0392909216919091179055565b6137f383613fc3565b6000825111806138005750805b156127b85761380f8383614003565b50505050565b60006126ab825490565b600061331083836140ee565b60006133108383614118565b805460005b818110156138b45760008360010160008560000184815481106138615761386161466a565b6000918252602080832091909101546001600160a01b03168352820192909252604001902080546001600160c01b0319166001600160c01b03929092169190911790556138ad816146b3565b905061383c565b5061081c826000614298565b6000613310838361420b565b60006133108284614c4e565b60006001600160a01b0382166138f0575060006126ab565b60cb546001600160a01b038381169116141561390e575060006126ab565b60cc546001600160a01b038381169116141561392c575060006126ab565b60cd546001600160a01b038381169116141561394a575060006126ab565b60c95460405163015e89a960e61b81526001600160a01b038481166004830152909116906357a26a409060240160206040518083038186803b15801561398f57600080fd5b505afa9250505080156139bf575060408051601f3d908101601f191682019092526139bc9181019061464d565b60015b6139cb575060006126ab565b806001600160a01b031663fdfd59176040518163ffffffff1660e01b815260040160206040518083038186803b158015613a0457600080fd5b505afa158015613a18573d6000803e3d6000fd5b505050506040513d601f19601f82011682018060405250810190613a3c9190614949565b84148015613acc57506002816001600160a01b031663200d2ed26040518163ffffffff1660e01b815260040160206040518083038186803b158015613a8057600080fd5b505afa158015613a94573d6000803e3d6000fd5b505050506040513d601f19601f82011682018060405250810190613ab89190614680565b6002811115613ac957613ac96142f8565b14155b8015613b5157506000816001600160a01b031663a7fa0faf6040518163ffffffff1660e01b815260040160206040518083038186803b158015613b0e57600080fd5b505afa158015613b22573d6000803e3d6000fd5b505050506040513d601f19601f82011682018060405250810190613b469190614825565b6001600160c01b0316115b8015613bd657506000816001600160a01b031663d9e8e6706040518163ffffffff1660e01b815260040160206040518083038186803b158015613b9357600080fd5b505afa158015613ba7573d6000803e3d6000fd5b505050506040513d601f19601f82011682018060405250810190613bcb9190614825565b6001600160c01b0316115b9150506126ab565b6001600160c01b038116613bf157505050565b6001600160a01b03821660009081526001840160205260409020546001600160c01b0316613c75578254600180820185556000858152602080822090930180546001600160a01b0319166001600160a01b03871690811790915581529085019091526040902080546001600160c01b0319166001600160c01b038316179055505050565b6001600160a01b0382166000908152600184016020526040902054613ca3906001600160c01b0316826138cc565b6001600160a01b0383166000908152600185016020526040902080546001600160c01b03929092166001600160c01b0319909216919091179055505050565b6001600160c01b039081169116111590565b60006133108284614c70565b6000613310613308836001600160c01b038616614afe565b613d2182613837565b805460005b8181101561380f5782548490849083908110613d4457613d4461466a565b600091825260208083209091015483546001818101865594845291832090910180546001600160a01b0319166001600160a01b03909216919091179055845491850191859084908110613d9957613d9961466a565b60009182526020808320909101546001600160a01b0316835282019290925260400181205484546001600160c01b03909116916001870191869085908110613de357613de361466a565b6000918252602080832091909101546001600160a01b03168352820192909252604001902080546001600160c01b0319166001600160c01b0392909216919091179055613e2f816146b3565b9050613d26565b600080613e438486614c98565b90506000836002811115613e5957613e596142f8565b1415613e66579050613310565b6001836002811115613e7a57613e7a6142f8565b1415613eba576002613e8d600186614cac565b613e979190614c98565b613ea18587614cc3565b1115613eb55780613eb1816146b3565b9150505b61330d565b6000613ec68587614cc3565b111561330d5780613ed6816146b3565b9695505050505050565b60006001600160c01b03821115613f0a5760405163f44398f560e01b815260040160405180910390fd5b5090565b6000808212613f1d57816126ab565b6126ab82614cd7565b805160009060015b81811015613fb95760005b81811015613fa857848181518110613f5357613f5361466a565b60200260200101516001600160a01b0316858381518110613f7657613f7661466a565b60200260200101516001600160a01b03161415613f9857506000949350505050565b613fa1816146b3565b9050613f39565b50613fb2816146b3565b9050613f2e565b5060019392505050565b613fcc8161374e565b6040516001600160a01b038216907fbc7cd75a20ee27fd9adebab32041f755214dbc6bffa90cc0225b39da2e5c2d3b90600090a250565b60606001600160a01b0383163b61406b5760405162461bcd60e51b815260206004820152602660248201527f416464726573733a2064656c65676174652063616c6c20746f206e6f6e2d636f6044820152651b9d1c9858dd60d21b606482015260840161049f565b600080846001600160a01b0316846040516140869190614cf4565b600060405180830381855af49150503d80600081146140c1576040519150601f19603f3d011682016040523d82523d6000602084013e6140c6565b606091505b509150915061344f8282604051806060016040528060278152602001614d476027913961425a565b60008260000182815481106141055761410561466a565b9060005260206000200154905092915050565b6000818152600183016020526040812054801561420157600061413c600183614cac565b855490915060009061415090600190614cac565b90508181146141b55760008660000182815481106141705761417061466a565b90600052602060002001549050808760000184815481106141935761419361466a565b6000918252602080832090910192909255918252600188019052604090208390555b85548690806141c6576141c6614d10565b6001900381819060005260206000200160009055905585600101600086815260200190815260200160002060009055600193505050506126ab565b60009150506126ab565b6000818152600183016020526040812054614252575081546001818101845560008481526020808220909301849055845484825282860190935260409020919091556126ab565b5060006126ab565b60608315614269575081613310565b613310838381511561427e5781518083602001fd5b8060405162461bcd60e51b815260040161049f919061443c565b5080546000825590600052602060002090810190610a8c91905b80821115613f0a57600081556001016142b2565b6001600160a01b0381168114610a8c57600080fd5b6000602082840312156142ed57600080fd5b8135613310816142c6565b634e487b7160e01b600052602160045260246000fd5b602081016003831061433057634e487b7160e01b600052602160045260246000fd5b91905290565b634e487b7160e01b600052604160045260246000fd5b6000806040838503121561435f57600080fd5b823561436a816142c6565b9150602083013567ffffffffffffffff8082111561438757600080fd5b818501915085601f83011261439b57600080fd5b8135818111156143ad576143ad614336565b604051601f8201601f19908116603f011681019083821181831017156143d5576143d5614336565b816040528281528860208487010111156143ee57600080fd5b8260208601602083013760006020848301015280955050505050509250929050565b60005b8381101561442b578181015183820152602001614413565b8381111561380f5750506000910152565b602081526000825180602084015261445b816040850160208701614410565b601f01601f19169190910160400192915050565b6001600160c01b0381168114610a8c57600080fd5b60038110610a8c57600080fd5b600080604083850312156144a457600080fd5b82356144af8161446f565b915060208301356144bf81614484565b809150509250929050565b604080825283519082018190526000906020906060840190828701845b8281101561450c5781516001600160a01b0316845292840192908401906001016144e7565b5050508381038285015284518082528583019183019060005b8181101561454157835183529284019291840191600101614525565b5090979650505050505050565b60008083601f84011261456057600080fd5b50813567ffffffffffffffff81111561457857600080fd5b6020830191508360208260051b850101111561459357600080fd5b9250929050565b600080600080604085870312156145b057600080fd5b843567ffffffffffffffff808211156145c857600080fd5b6145d48883890161454e565b909650945060208701359150808211156145ed57600080fd5b506145fa8782880161454e565b95989497509550505050565b6000806000806060858703121561461c57600080fd5b8435935060208501359250604085013567ffffffffffffffff81111561464157600080fd5b6145fa8782880161454e565b60006020828403121561465f57600080fd5b8151613310816142c6565b634e487b7160e01b600052603260045260246000fd5b60006020828403121561469257600080fd5b815161331081614484565b634e487b7160e01b600052601160045260246000fd5b60006000198214156146c7576146c761469d565b5060010190565b6020808252602c908201527f46756e6374696f6e206d7573742062652063616c6c6564207468726f7567682060408201526b19195b1959d85d1958d85b1b60a21b606082015260800190565b6020808252602c908201527f46756e6374696f6e206d7573742062652063616c6c6564207468726f7567682060408201526b6163746976652070726f787960a01b606082015260800190565b60006001600160c01b038281168482168115158284048211161561478c5761478c61469d565b02949350505050565b805160208083015191908110156147b6576000198160200360031b1b821691505b50919050565b6000602082840312156147ce57600080fd5b8151801515811461331057600080fd5b600080604083850312156147f157600080fd5b82516147fc8161446f565b60208401519092506144bf8161446f565b600082198211156148205761482061469d565b500190565b60006020828403121561483757600080fd5b81516133108161446f565b60006020828403121561485457600080fd5b815160ff8116811461331057600080fd5b6000606082016060835280865480835260808501915087600052602092508260002060005b828110156148b15781546001600160a01b031684526020840193506001918201910161488a565b5050508381038285015285518082528683019183019060005b818110156148ef5783516001600160c01b0316835292840192918401916001016148ca565b50508515156040860152925061122b915050565b6020808252600f908201526e676f7665726e616e6365206f6e6c7960881b604082015260600190565b60006020828403121561493e57600080fd5b81356133108161446f565b60006020828403121561495b57600080fd5b5051919050565b8183526000602080850194508260005b858110156149a0578135614985816142c6565b6001600160a01b031687529582019590820190600101614972565b509495945050505050565b6060815260006149bf606083018789614962565b8281036020848101919091528582528691810160005b87811015614a035783356149e88161446f565b6001600160c01b0316825292820192908201906001016149d5565b508481036040860152855180825290820192508186019060005b81811015614a3957825185529383019391830191600101614a1d565b50929a9950505050505050505050565b60208152600061330d602083018486614962565b6020808252602b908201527f496e697469616c697a61626c653a20636f6e7472616374206973206e6f74206960408201526a6e697469616c697a696e6760a81b606082015260800190565b634e487b7160e01b600052600160045260246000fd5b600065ffffffffffff808316818516808303821115614adf57614adf61469d565b01949350505050565b634e487b7160e01b600052601260045260246000fd5b6000816000190483118215151615614b1857614b1861469d565b500290565b600081810b83820b8281128015607f19830184121615614b3f57614b3f61469d565b81607f018313811615614b5457614b5461469d565b5090039392505050565b600181815b80851115614b99578160001904821115614b7f57614b7f61469d565b80851615614b8c57918102915b93841c9390800290614b63565b509250929050565b600082614bb0575060016126ab565b81614bbd575060006126ab565b8160018114614bd35760028114614bdd57614bf9565b60019150506126ab565b60ff841115614bee57614bee61469d565b50506001821b6126ab565b5060208310610133831016604e8410600b8410161715614c1c575081810a6126ab565b614c268383614b5e565b8060001904821115614c3a57614c3a61469d565b029392505050565b60006133108383614ba1565b60006001600160c01b03828116848216808303821115614adf57614adf61469d565b60006001600160c01b0383811690831681811015614c9057614c9061469d565b039392505050565b600082614ca757614ca7614ae8565b500490565b600082821015614cbe57614cbe61469d565b500390565b600082614cd257614cd2614ae8565b500690565b6000600160ff1b821415614ced57614ced61469d565b5060000390565b60008251614d06818460208701614410565b9190910192915050565b634e487b7160e01b600052603160045260246000fdfe360894a13ba1a3210667c828492db98dca3e2076cc3735a920a3ca505d382bbc416464726573733a206c6f772d6c6576656c2064656c65676174652063616c6c206661696c6564a26469706673582212204ae1bed8f2a62d04bc9e122e41aeb52889b1f4e93ddaa6802d4432eb66bb1f8464736f6c63430008090033",
  "linkReferences": {},
  "deployedLinkReferences": {}
}