{
  "_format": "hh-sol-artifact-1",
  "contractName": "ERC1271Mock",
  "sourceName": "contracts/reserve/plugins/mocks/ERC1271Mock.sol",
  "abi": [
    {
      "inputs": [],
      "name": "approvalsOn",
      "outputs": [
        {
          "internalType": "bool",
          "name": "",
          "type": "bool"
        }
      ],
      "stateMutability": "view",
      "type": "function"
    },
    {
      "inputs": [],
      "name": "disableApprovals",
      "outputs": [],
      "stateMutability": "nonpayable",
      "type": "function"
    },
    {
      "inputs": [],
      "name": "enableApprovals",
      "outputs": [],
      "stateMutability": "nonpayable",
      "type": "function"
    },
    {
      "inputs": [
        {
          "internalType": "bytes32",
          "name": "",
          "type": "bytes32"
        },
        {
          "internalType": "bytes",
          "name": "",
          "type": "bytes"
        }
      ],
      "name": "isValidSignature",
      "outputs": [
        {
          "internalType": "bytes4",
          "name": "magicValue",
          "type": "bytes4"
        }
      ],
      "stateMutability": "view",
      "type": "function"
    }
  ],
  "bytecode": "0x60806040526000805460ff1916905534801561001a57600080fd5b506101eb8061002a6000396000f3fe608060405234801561001057600080fd5b506004361061004c5760003560e01c80631626ba7e14610051578063d02bbb9914610082578063d3a8333d14610096578063f96c3dd8146100b3575b600080fd5b61006461005f3660046100fa565b6100c2565b6040516001600160e01b031990911681526020015b60405180910390f35b6100946000805460ff19166001179055565b005b6000546100a39060ff1681565b6040519015158152602001610079565b6100946000805460ff19169055565b6000805460ff166100d45760006100dd565b630b135d3f60e11b5b9392505050565b634e487b7160e01b600052604160045260246000fd5b6000806040838503121561010d57600080fd5b82359150602083013567ffffffffffffffff8082111561012c57600080fd5b818501915085601f83011261014057600080fd5b813581811115610152576101526100e4565b604051601f8201601f19908116603f0116810190838211818310171561017a5761017a6100e4565b8160405282815288602084870101111561019357600080fd5b826020860160208301376000602084830101528095505050505050925092905056fea264697066735822122013804a1b2364d2e0259a429a853a501d925b045f6b13521cb9adfc6e5664e6f964736f6c63430008090033",
  "linkReferences": {},
  "deployedLinkReferences": {}
}