{
  "_format": "hh-sol-artifact-1",
  "contractName": "PermitLib",
  "sourceName": "contracts/reserve/libraries/Permit.sol",
  "abi": [
    {
      "inputs": [
        {
          "internalType": "address",
          "name": "owner",
          "type": "address"
        },
        {
          "internalType": "bytes32",
          "name": "hash",
          "type": "bytes32"
        },
        {
          "internalType": "uint8",
          "name": "v",
          "type": "uint8"
        },
        {
          "internalType": "bytes32",
          "name": "r",
          "type": "bytes32"
        },
        {
          "internalType": "bytes32",
          "name": "s",
          "type": "bytes32"
        }
      ],
      "name": "requireSignature",
      "outputs": [],
      "stateMutability": "view",
      "type": "function"
    }
  ],
  "bytecode": "0x6105cf61003a600b82828239805160001a60731461002d57634e487b7160e01b600052600060045260246000fd5b30600052607381538281f3fe73000000000000000000000000000000000000000030146080604052600436106100355760003560e01c80634a42ee801461003a575b600080fd5b61004d610048366004610456565b61004f565b005b6001600160a01b0385163b1561017157604080516020810184905280820183905260f885901b6001600160f81b0319166060820152815160418183030181526061820192839052630b135d3f60e11b9092526001600160a01b03871691631626ba7e916100c09188916065016104ea565b60206040518083038186803b1580156100d857600080fd5b505afa1580156100ec573d6000803e3d6000fd5b505050506040513d601f19601f820116820180604052508101906101109190610524565b6001600160e01b031916631626ba7e60e01b1461016c5760405162461bcd60e51b8152602060048201526015602482015274115490cc4c8dcc4e88155b985d5d1a1bdc9a5e9959605a1b60448201526064015b60405180910390fd5b610201565b60408051602081018490529081018290526001600160f81b031960f885901b1660608201526101b59086908690606101604051602081830303815290604052610208565b6102015760405162461bcd60e51b815260206004820152601e60248201527f45524332305065726d69743a20696e76616c6964207369676e617475726500006044820152606401610163565b5050505050565b6000806000610217858561034c565b909250905060008160048111156102305761023061054e565b14801561024e5750856001600160a01b0316826001600160a01b0316145b1561025e57600192505050610345565b600080876001600160a01b0316631626ba7e60e01b88886040516024016102869291906104ea565b60408051601f198184030181529181526020820180516001600160e01b03166001600160e01b03199094169390931790925290516102c49190610564565b600060405180830381855afa9150503d80600081146102ff576040519150601f19603f3d011682016040523d82523d6000602084013e610304565b606091505b5091509150818015610317575080516020145b801561033e57508051630b135d3f60e11b9061033c9083016020908101908401610580565b145b9450505050505b9392505050565b6000808251604114156103835760208301516040840151606085015160001a61037787828585610392565b9450945050505061038b565b506000905060025b9250929050565b6000807f7fffffffffffffffffffffffffffffff5d576e7357a4501ddfe92f46681b20a08311156103c9575060009050600361044d565b6040805160008082526020820180845289905260ff881692820192909252606081018690526080810185905260019060a0016020604051602081039080840390855afa15801561041d573d6000803e3d6000fd5b5050604051601f1901519150506001600160a01b0381166104465760006001925092505061044d565b9150600090505b94509492505050565b600080600080600060a0868803121561046e57600080fd5b85356001600160a01b038116811461048557600080fd5b945060208601359350604086013560ff811681146104a257600080fd5b94979396509394606081013594506080013592915050565b60005b838110156104d55781810151838201526020016104bd565b838111156104e4576000848401525b50505050565b828152604060208201526000825180604084015261050f8160608501602087016104ba565b601f01601f1916919091016060019392505050565b60006020828403121561053657600080fd5b81516001600160e01b03198116811461034557600080fd5b634e487b7160e01b600052602160045260246000fd5b600082516105768184602087016104ba565b9190910192915050565b60006020828403121561059257600080fd5b505191905056fea264697066735822122036290353545a1c032034503d5c6c2628fd3395c58927cf694632214087f4ea1e64736f6c63430008090033",
  "linkReferences": {},
  "deployedLinkReferences": {}
}