{
  "_format": "hh-sol-artifact-1",
  "contractName": "RTokenAsset",
  "sourceName": "contracts/reserve/plugins/assets/RTokenAsset.sol",
  "abi": [
    {
      "inputs": [
        {
          "internalType": "contract IRToken",
          "name": "erc20_",
          "type": "address"
        },
        {
          "internalType": "uint192",
          "name": "maxTradeVolume_",
          "type": "uint192"
        }
      ],
      "stateMutability": "nonpayable",
      "type": "constructor"
    },
    {
      "inputs": [],
      "name": "UIntOutOfBounds",
      "type": "error"
    },
    {
      "anonymous": false,
      "inputs": [
        {
          "indexed": true,
          "internalType": "contract IERC20",
          "name": "erc20",
          "type": "address"
        },
        {
          "indexed": true,
          "internalType": "uint256",
          "name": "amount",
          "type": "uint256"
        }
      ],
      "name": "RewardsClaimed",
      "type": "event"
    },
    {
      "inputs": [],
      "name": "assetRegistry",
      "outputs": [
        {
          "internalType": "contract IAssetRegistry",
          "name": "",
          "type": "address"
        }
      ],
      "stateMutability": "view",
      "type": "function"
    },
    {
      "inputs": [],
      "name": "backingManager",
      "outputs": [
        {
          "internalType": "contract IBackingManager",
          "name": "",
          "type": "address"
        }
      ],
      "stateMutability": "view",
      "type": "function"
    },
    {
      "inputs": [
        {
          "internalType": "address",
          "name": "account",
          "type": "address"
        }
      ],
      "name": "bal",
      "outputs": [
        {
          "internalType": "uint192",
          "name": "",
          "type": "uint192"
        }
      ],
      "stateMutability": "view",
      "type": "function"
    },
    {
      "inputs": [],
      "name": "basketHandler",
      "outputs": [
        {
          "internalType": "contract IBasketHandler",
          "name": "",
          "type": "address"
        }
      ],
      "stateMutability": "view",
      "type": "function"
    },
    {
      "inputs": [],
      "name": "claimRewards",
      "outputs": [],
      "stateMutability": "nonpayable",
      "type": "function"
    },
    {
      "inputs": [],
      "name": "erc20",
      "outputs": [
        {
          "internalType": "contract IERC20Metadata",
          "name": "",
          "type": "address"
        }
      ],
      "stateMutability": "view",
      "type": "function"
    },
    {
      "inputs": [],
      "name": "erc20Decimals",
      "outputs": [
        {
          "internalType": "uint8",
          "name": "",
          "type": "uint8"
        }
      ],
      "stateMutability": "view",
      "type": "function"
    },
    {
      "inputs": [],
      "name": "fallbackPrice",
      "outputs": [
        {
          "internalType": "uint192",
          "name": "",
          "type": "uint192"
        }
      ],
      "stateMutability": "view",
      "type": "function"
    },
    {
      "inputs": [],
      "name": "isCollateral",
      "outputs": [
        {
          "internalType": "bool",
          "name": "",
          "type": "bool"
        }
      ],
      "stateMutability": "pure",
      "type": "function"
    },
    {
      "inputs": [],
      "name": "maxTradeVolume",
      "outputs": [
        {
          "internalType": "uint192",
          "name": "",
          "type": "uint192"
        }
      ],
      "stateMutability": "view",
      "type": "function"
    },
    {
      "inputs": [],
      "name": "price",
      "outputs": [
        {
          "internalType": "uint192",
          "name": "",
          "type": "uint192"
        },
        {
          "internalType": "uint192",
          "name": "",
          "type": "uint192"
        }
      ],
      "stateMutability": "view",
      "type": "function"
    },
    {
      "inputs": [],
      "name": "tryPrice",
      "outputs": [
        {
          "internalType": "uint192",
          "name": "low",
          "type": "uint192"
        },
        {
          "internalType": "uint192",
          "name": "high",
          "type": "uint192"
        }
      ],
      "stateMutability": "view",
      "type": "function"
    }
  ],
  "bytecode": "0x6101406040523480156200001257600080fd5b50604051620027d0380380620027d08339810160408190526200003591620003a2565b6001600160a01b038216620000815760405162461bcd60e51b815260206004820152600d60248201526c06d697373696e6720657263323609c1b60448201526064015b60405180910390fd5b6000816001600160c01b031611620000dc5760405162461bcd60e51b815260206004820152601860248201527f696e76616c6964206d617820747261646520766f6c756d650000000000000000604482015260640162000078565b6000826001600160a01b031663dffeadd06040518163ffffffff1660e01b815260040160206040518083038186803b1580156200011857600080fd5b505afa1580156200012d573d6000803e3d6000fd5b505050506040513d601f19601f82011682018060405250810190620001539190620003ec565b9050806001600160a01b0316632f2439b16040518163ffffffff1660e01b815260040160206040518083038186803b1580156200018f57600080fd5b505afa158015620001a4573d6000803e3d6000fd5b505050506040513d601f19601f82011682018060405250810190620001ca9190620003ec565b6001600160a01b03166080816001600160a01b031681525050806001600160a01b031663979d7e866040518163ffffffff1660e01b815260040160206040518083038186803b1580156200021d57600080fd5b505afa15801562000232573d6000803e3d6000fd5b505050506040513d601f19601f82011682018060405250810190620002589190620003ec565b6001600160a01b031660a0816001600160a01b031681525050806001600160a01b031663dc8af5f66040518163ffffffff1660e01b815260040160206040518083038186803b158015620002ab57600080fd5b505afa158015620002c0573d6000803e3d6000fd5b505050506040513d601f19601f82011682018060405250810190620002e69190620003ec565b6001600160a01b0390811660c052831660e08190526040805163313ce56760e01b8152905163313ce56791600480820192602092909190829003018186803b1580156200033257600080fd5b505afa15801562000347573d6000803e3d6000fd5b505050506040513d601f19601f820116820180604052508101906200036d919062000413565b60ff1661010052506001600160c01b0316610120525062000438565b6001600160a01b03811681146200039f57600080fd5b50565b60008060408385031215620003b657600080fd5b8251620003c38162000389565b60208401519092506001600160c01b0381168114620003e157600080fd5b809150509250929050565b600060208284031215620003ff57600080fd5b81516200040c8162000389565b9392505050565b6000602082840312156200042657600080fd5b815160ff811681146200040c57600080fd5b60805160a05160c05160e05161010051610120516122f5620004db60003960006101b7015260006101040152600081816101680152818161026c01528181610392015281816105ae015261072301526000818161021c015281816107cb0152818161086b01528181610b220152610bc10152600081816101de0152610c6201526000818160be015281816102f901528181610516015261068d01526122f56000f3fe608060405234801561001057600080fd5b50600436106100b45760003560e01c806395acc4ae1161007157806395acc4ae146101b2578063979d7e86146101d9578063a035b1fe14610200578063c59b3d6314610208578063dc8af5f614610217578063e28a1b861461023e57600080fd5b80632f2439b1146100b9578063372500ab146100fd5780633cb5d379146100ff5780635580f72a14610138578063785e9e86146101635780637d1ea1371461018a575b600080fd5b6100e07f000000000000000000000000000000000000000000000000000000000000000081565b6040516001600160a01b0390911681526020015b60405180910390f35b005b6101267f000000000000000000000000000000000000000000000000000000000000000081565b60405160ff90911681526020016100f4565b61014b610146366004611d2f565b610246565b6040516001600160c01b0390911681526020016100f4565b6100e07f000000000000000000000000000000000000000000000000000000000000000081565b6101926102f1565b604080516001600160c01b039384168152929091166020830152016100f4565b61014b7f000000000000000000000000000000000000000000000000000000000000000081565b6100e07f000000000000000000000000000000000000000000000000000000000000000081565b61019261044c565b604051600081526020016100f4565b6100e07f000000000000000000000000000000000000000000000000000000000000000081565b61014b610511565b6040516370a0823160e01b81526001600160a01b0382811660048301526000916102eb917f000000000000000000000000000000000000000000000000000000000000000016906370a082319060240160206040518083038186803b1580156102ae57600080fd5b505afa1580156102c2573d6000803e3d6000fd5b505050506040513d601f19601f820116820180604052508101906102e69190611d4c565b610649565b92915050565b6000806000807f00000000000000000000000000000000000000000000000000000000000000006001600160a01b031663a035b1fe6040518163ffffffff1660e01b8152600401604080518083038186803b15801561034f57600080fd5b505afa158015610363573d6000803e3d6000fd5b505050506040513d601f19601f820116820180604052508101906103879190611d81565b9150915060006103e97f00000000000000000000000000000000000000000000000000000000000000006001600160a01b03166318160ddd6040518163ffffffff1660e01b815260040160206040518083038186803b1580156102ae57600080fd5b90506001600160c01b038116610403575090939092509050565b600061040d610677565b6020810151909150610429906001600160c01b03168584610d0b565b8151909650610442906001600160c01b03168484610d0b565b9450505050509091565b600080306001600160a01b0316637d1ea1376040518163ffffffff1660e01b8152600401604080518083038186803b15801561048757600080fd5b505afa9250505080156104b7575060408051601f3d908101601f191682019092526104b491810190611d81565b60015b610508573d8080156104e5576040519150601f19603f3d011682016040523d82523d6000602084013e6104ea565b606091505b5080516104f657600080fd5b506000926001600160c01b0392509050565b90939092509050565b6000807f00000000000000000000000000000000000000000000000000000000000000006001600160a01b031663e28a1b866040518163ffffffff1660e01b815260040160206040518083038186803b15801561056d57600080fd5b505afa158015610581573d6000803e3d6000fd5b505050506040513d601f19601f820116820180604052508101906105a59190611db4565b905060006106057f00000000000000000000000000000000000000000000000000000000000000006001600160a01b03166318160ddd6040518163ffffffff1660e01b815260040160206040518083038186803b1580156102ae57600080fd5b90506001600160c01b03811661061b5750919050565b6000610625610677565b6020810151909150610641906001600160c01b03168484610d0b565b935050505090565b60006001600160c01b038211156106735760405163f44398f560e01b815260040160405180910390fd5b5090565b60408051808201909152600080825260208201527f00000000000000000000000000000000000000000000000000000000000000006001600160a01b031663e45a5b2d6040518163ffffffff1660e01b815260040160206040518083038186803b1580156106e457600080fd5b505afa1580156106f8573d6000803e3d6000fd5b505050506040513d601f19601f8201168201806040525081019061071c9190611dcf565b156107c7577f00000000000000000000000000000000000000000000000000000000000000006001600160a01b0316637121c2736040518163ffffffff1660e01b815260040160206040518083038186803b15801561077a57600080fd5b505afa15801561078e573d6000803e3d6000fd5b505050506040513d601f19601f820116820180604052508101906107b29190611db4565b6001600160c01b031660208201819052815290565b60007f00000000000000000000000000000000000000000000000000000000000000006001600160a01b031663dffeadd06040518163ffffffff1660e01b815260040160206040518083038186803b15801561082257600080fd5b505afa158015610836573d6000803e3d6000fd5b505050506040513d601f19601f8201168201806040525081019061085a9190611df1565b905060006040518060c001604052807f00000000000000000000000000000000000000000000000000000000000000006001600160a01b03168152602001836001600160a01b0316632f2439b16040518163ffffffff1660e01b815260040160206040518083038186803b1580156108d157600080fd5b505afa1580156108e5573d6000803e3d6000fd5b505050506040513d601f19601f820116820180604052508101906109099190611df1565b6001600160a01b03168152602001836001600160a01b031663979d7e866040518163ffffffff1660e01b815260040160206040518083038186803b15801561095057600080fd5b505afa158015610964573d6000803e3d6000fd5b505050506040513d601f19601f820116820180604052508101906109889190611df1565b6001600160a01b03168152602001836001600160a01b0316634780a5e56040518163ffffffff1660e01b815260040160206040518083038186803b1580156109cf57600080fd5b505afa1580156109e3573d6000803e3d6000fd5b505050506040513d601f19601f82011682018060405250810190610a079190611df1565b6001600160a01b03168152602001836001600160a01b031663c99dc3dd6040518163ffffffff1660e01b815260040160206040518083038186803b158015610a4e57600080fd5b505afa158015610a62573d6000803e3d6000fd5b505050506040513d601f19601f82011682018060405250810190610a869190611df1565b6001600160a01b03168152602001836001600160a01b03166340c65f726040518163ffffffff1660e01b815260040160206040518083038186803b158015610acd57600080fd5b505afa158015610ae1573d6000803e3d6000fd5b505050506040513d601f19601f82011682018060405250810190610b059190611df1565b6001600160a01b03168152509050600060405180604001604052807f00000000000000000000000000000000000000000000000000000000000000006001600160a01b0316637cbf6db26040518163ffffffff1660e01b815260040160206040518083038186803b158015610b7957600080fd5b505afa158015610b8d573d6000803e3d6000fd5b505050506040513d601f19601f82011682018060405250810190610bb19190611db4565b6001600160c01b031681526020017f00000000000000000000000000000000000000000000000000000000000000006001600160a01b0316630db3d42c6040518163ffffffff1660e01b815260040160206040518083038186803b158015610c1857600080fd5b505afa158015610c2c573d6000803e3d6000fd5b505050506040513d601f19601f82011682018060405250810190610c509190611db4565b6001600160c01b0316815250905060007f00000000000000000000000000000000000000000000000000000000000000006001600160a01b0316635ab1bd536040518163ffffffff1660e01b815260040160006040518083038186803b158015610cb957600080fd5b505afa158015610ccd573d6000803e3d6000fd5b505050506040513d6000823e601f3d908101601f19168201604052610cf59190810190611f16565b9050610d02838383610d24565b94505050505090565b6000610d1a8484846000610f3f565b90505b9392505050565b604080518082019091526000808252602082015260008085602001516001600160a01b031663a035b1fe6040518163ffffffff1660e01b8152600401604080518083038186803b158015610d7757600080fd5b505afa158015610d8b573d6000803e3d6000fd5b505050506040513d601f19601f82011682018060405250810190610daf9190611d81565b91509150600080610dc1888888610f76565b915091506000610e5882610e53868c60a001516001600160a01b0316637121c2736040518163ffffffff1660e01b815260040160206040518083038186803b158015610e0c57600080fd5b505afa158015610e20573d6000803e3d6000fd5b505050506040513d601f19601f82011682018060405250810190610e449190611db4565b6001600160c01b03169061152c565b61153a565b90506000610e688a898488611562565b60208a0151909150600090610eb590610e8a90670de0b6b3a76400009061180d565b60208c0151600290610ea5906001600160c01b03168661152c565b6001600160c01b03169190611819565b905060006001600160c01b0380831690871611610ed3576000610eef565b610eef610ee96001600160c01b0388168461180d565b8561153a565b9050610f066001600160c01b038516896002611819565b6001600160c01b039081168a52610f21908216886002611819565b6001600160c01b031660208a015250969a9950505050505050505050565b6000610f6b6102e6866001600160c01b0316866001600160c01b0316866001600160c01b03168661184c565b90505b949350505050565b60008080805b8451518110156114f3578660a001516001600160a01b031685600001518281518110610faa57610faa612004565b60200260200101516001600160a01b03161415610fc6576114e3565b600085602001518281518110610fde57610fde612004565b60209081029190910101518851604051632ac07b9560e11b81526001600160a01b039182166004820152911690635580f72a9060240160206040518083038186803b15801561102c57600080fd5b505afa158015611040573d6000803e3d6000fd5b505050506040513d601f19601f820116820180604052508101906110649190611db4565b905087608001516001600160a01b03168660000151838151811061108a5761108a612004565b60200260200101516001600160a01b0316141561115657611153866020015183815181106110ba576110ba612004565b602090810291909101015160608a0151604051632ac07b9560e11b81526001600160a01b039182166004820152911690635580f72a9060240160206040518083038186803b15801561110b57600080fd5b505afa15801561111f573d6000803e3d6000fd5b505050506040513d601f19601f820116820180604052508101906111439190611db4565b6001600160c01b038316906118fb565b90505b6000808760200151848151811061116f5761116f612004565b60200260200101516001600160a01b031663a035b1fe6040518163ffffffff1660e01b8152600401604080518083038186803b1580156111ae57600080fd5b505afa1580156111c2573d6000803e3d6000fd5b505050506040513d601f19601f820116820180604052508101906111e69190611d81565b9150915060006112838960200151868151811061120557611205612004565b60200260200101516001600160a01b031663e28a1b866040518163ffffffff1660e01b815260040160206040518083038186803b15801561124557600080fd5b505afa158015611259573d6000803e3d6000fd5b505050506040513d601f19601f8201168201806040525081019061127d9190611db4565b84611907565b905060008b602001516001600160a01b031663a5a5828c8b6000015188815181106112b0576112b0612004565b60200260200101516040518263ffffffff1660e01b81526004016112e391906001600160a01b0391909116815260200190565b60206040518083038186803b1580156112fb57600080fd5b505afa15801561130f573d6000803e3d6000fd5b505050506040513d601f19601f820116820180604052508101906113339190611db4565b90506001600160c01b03811615801561137657506113748a60200151878151811061136057611360612004565b602002602001015186848e60000151611928565b155b156113855750505050506114e3565b61139a6001600160c01b0385168660006119e1565b6113a4908a612030565b8c516040516307a4469760e21b81526001600160c01b03808716600483015288166024820152670de0b6b3a76400006044820152919a506001600160a01b031690631e911a5c9060640160206040518083038186803b15801561140657600080fd5b505afa925050508015611436575060408051601f3d908101601f1916820190925261143391810190611d4c565b60015b611485573d808015611464576040519150601f19603f3d011682016040523d82523d6000602084013e611469565b606091505b50805161147557600080fd5b6001600160c01b039850506114c5565b6001600160c01b03611499828b831661205b565b106114ad576001600160c01b0398506114c3565b6114b681610649565b6114c0908a612030565b98505b505b8a516114db906001600160c01b038916906118fb565b965050505050505b6114ec81612073565b9050610f7c565b506001600160c01b038181169084161161150e576000611521565b6115216001600160c01b0384168261180d565b925050935093915050565b6000610d1d838360016119e1565b6000816001600160c01b0316836001600160c01b03161061155b5781610d1d565b5090919050565b600080826001600160c01b03161161157c5761157c61208e565b83515160005b8181101561180357600087602001516001600160a01b031663a5a5828c886000015184815181106115b5576115b5612004565b60200260200101516040518263ffffffff1660e01b81526004016115e891906001600160a01b0391909116815260200190565b60206040518083038186803b15801561160057600080fd5b505afa158015611614573d6000803e3d6000fd5b505050506040513d601f19601f820116820180604052508101906116389190611db4565b90506001600160c01b03811661164e57506117f3565b60006116666001600160c01b03881683886002610f3f565b905060008860200151848151811061168057611680612004565b60209081029190910101518a51604051632ac07b9560e11b81526001600160a01b039182166004820152911690635580f72a9060240160206040518083038186803b1580156116ce57600080fd5b505afa1580156116e2573d6000803e3d6000fd5b505050506040513d601f19601f820116820180604052508101906117069190611db4565b90506001600160c01b0382811690821610156117ef5760008960200151858151811061173457611734612004565b60200260200101516001600160a01b031663a035b1fe6040518163ffffffff1660e01b8152600401604080518083038186803b15801561177357600080fd5b505afa158015611787573d6000803e3d6000fd5b505050506040513d601f19601f820116820180604052508101906117ab9190611d81565b91506117eb90506117db8260006117cb6001600160c01b0388168761180d565b6001600160c01b031691906119e1565b6001600160c01b038916906118fb565b9650505b5050505b6117fc81612073565b9050611582565b5050949350505050565b6000610d1d82846120a4565b6000610d1a6102e661183c670de0b6b3a76400006001600160c01b0388166120cc565b856001600160c01b031685611a0a565b60008061185a868686611ab4565b90506000836002811115611870576118706120eb565b141561187d579050610f6e565b6000848061188d5761188d612101565b868809905060028460028111156118a6576118a66120eb565b14156118c55780156118c0576118bd60018361205b565b91505b6118f1565b60026118d2600187612117565b6118dc919061212e565b8111156118f1576118ee60018361205b565b91505b5095945050505050565b6000610d1d8284612030565b6000816001600160c01b0316836001600160c01b03161161155b5781610d1d565b600061194a6119378385611b97565b6001600160c01b03908116908616101590565b8015610f6b575060016119d7866001600160a01b0316633cb5d3796040518163ffffffff1660e01b815260040160206040518083038186803b15801561198f57600080fd5b505afa1580156119a3573d6000803e3d6000fd5b505050506040513d601f19601f820116820180604052508101906119c79190612142565b6001600160c01b03871690611be6565b1195945050505050565b6000610d1a6102e66119ff6001600160c01b038087169088166120cc565b670de0b6b3a7640000855b600080611a17848661212e565b90506000836002811115611a2d57611a2d6120eb565b1415611a3a579050610d1d565b6001836002811115611a4e57611a4e6120eb565b1415611a8e576002611a61600186612117565b611a6b919061212e565b611a758587612165565b1115611a895780611a8581612073565b9150505b610d1a565b6000611a9a8587612165565b1115610d1a5780611aaa81612073565b9695505050505050565b6000806000611ac38686611bf4565b91509150838210611ae75760405163f44398f560e01b815260040160405180910390fd5b60008480611af757611af7612101565b868809905081811115611b0b576001830392505b908190039060008590038516808681611b2657611b26612101565b049550808381611b3857611b38612101565b049250808160000381611b4d57611b4d612101565b046001019390930291909101600285810380870282030280870282030280870282030280870282030280870282030280870282030295860290039094029390930295945050505050565b6000806001600160c01b03831615611bc357611bbe6001600160c01b038516846001611819565b611bcc565b6001600160c01b035b90506000816001600160c01b031611610d1d576001610f6e565b6000610d1d83836000611c21565b6000808060001984860990508385029150818103925081811015611c19576001830392505b509250929050565b60006001600160c01b038416611c3957506000610d1d565b6029198360000b13611c72576002826002811115611c5957611c596120eb565b14611c65576000611c68565b60015b60ff169050610d1d565b8260000b606013611c965760405163f44398f560e01b815260040160405180910390fd5b611ca1601284612179565b92506000611cb18460000b611cff565b611cbc90600a612296565b905060008460000b1215611ce357611cde856001600160c01b03168285611a0a565b611cf6565b611cf6816001600160c01b0387166120cc565b95945050505050565b6000808212611d0e57816102eb565b6102eb826122a2565b6001600160a01b0381168114611d2c57600080fd5b50565b600060208284031215611d4157600080fd5b8135610d1d81611d17565b600060208284031215611d5e57600080fd5b5051919050565b80516001600160c01b0381168114611d7c57600080fd5b919050565b60008060408385031215611d9457600080fd5b611d9d83611d65565b9150611dab60208401611d65565b90509250929050565b600060208284031215611dc657600080fd5b610d1d82611d65565b600060208284031215611de157600080fd5b81518015158114610d1d57600080fd5b600060208284031215611e0357600080fd5b8151610d1d81611d17565b634e487b7160e01b600052604160045260246000fd5b6040805190810167ffffffffffffffff81118282101715611e4757611e47611e0e565b60405290565b604051601f8201601f1916810167ffffffffffffffff81118282101715611e7657611e76611e0e565b604052919050565b600067ffffffffffffffff821115611e9857611e98611e0e565b5060051b60200190565b600082601f830112611eb357600080fd5b81516020611ec8611ec383611e7e565b611e4d565b82815260059290921b84018101918181019086841115611ee757600080fd5b8286015b84811015611f0b578051611efe81611d17565b8352918301918301611eeb565b509695505050505050565b60006020808385031215611f2957600080fd5b825167ffffffffffffffff80821115611f4157600080fd5b9084019060408287031215611f5557600080fd5b611f5d611e24565b825182811115611f6c57600080fd5b8301601f81018813611f7d57600080fd5b8051611f8b611ec382611e7e565b81815260059190911b8201860190868101908a831115611faa57600080fd5b928701925b82841015611fd1578351611fc281611d17565b82529287019290870190611faf565b84525050508284015182811115611fe757600080fd5b611ff388828601611ea2565b948201949094529695505050505050565b634e487b7160e01b600052603260045260246000fd5b634e487b7160e01b600052601160045260246000fd5b60006001600160c01b038281168482168083038211156120525761205261201a565b01949350505050565b6000821982111561206e5761206e61201a565b500190565b60006000198214156120875761208761201a565b5060010190565b634e487b7160e01b600052600160045260246000fd5b60006001600160c01b03838116908316818110156120c4576120c461201a565b039392505050565b60008160001904831182151516156120e6576120e661201a565b500290565b634e487b7160e01b600052602160045260246000fd5b634e487b7160e01b600052601260045260246000fd5b6000828210156121295761212961201a565b500390565b60008261213d5761213d612101565b500490565b60006020828403121561215457600080fd5b815160ff81168114610d1d57600080fd5b60008261217457612174612101565b500690565b600081810b83820b8281128015607f1983018412161561219b5761219b61201a565b81607f0183138116156121b0576121b061201a565b5090039392505050565b600181815b80851115611c195781600019048211156121db576121db61201a565b808516156121e857918102915b93841c93908002906121bf565b600082612204575060016102eb565b81612211575060006102eb565b816001811461222757600281146122315761224d565b60019150506102eb565b60ff8411156122425761224261201a565b50506001821b6102eb565b5060208310610133831016604e8410600b8410161715612270575081810a6102eb565b61227a83836121ba565b806000190482111561228e5761228e61201a565b029392505050565b6000610d1d83836121f5565b6000600160ff1b8214156122b8576122b861201a565b506000039056fea26469706673582212209c7c24beb698b11e3b54968ffec4bc202152b66d5e4241eaa76ad152a587ee8a64736f6c63430008090033",
  "linkReferences": {},
  "deployedLinkReferences": {}
}