{
  "_format": "hh-sol-artifact-1",
  "contractName": "StRSRP1VotesV2",
  "sourceName": "contracts/reserve/plugins/mocks/upgrades/StRSRV2.sol",
  "abi": [
    {
      "inputs": [],
      "name": "UIntOutOfBounds",
      "type": "error"
    },
    {
      "anonymous": false,
      "inputs": [
        {
          "indexed": false,
          "internalType": "address",
          "name": "previousAdmin",
          "type": "address"
        },
        {
          "indexed": false,
          "internalType": "address",
          "name": "newAdmin",
          "type": "address"
        }
      ],
      "name": "AdminChanged",
      "type": "event"
    },
    {
      "anonymous": false,
      "inputs": [
        {
          "indexed": true,
          "internalType": "uint256",
          "name": "newEra",
          "type": "uint256"
        }
      ],
      "name": "AllBalancesReset",
      "type": "event"
    },
    {
      "anonymous": false,
      "inputs": [
        {
          "indexed": true,
          "internalType": "uint256",
          "name": "newEra",
          "type": "uint256"
        }
      ],
      "name": "AllUnstakingReset",
      "type": "event"
    },
    {
      "anonymous": false,
      "inputs": [
        {
          "indexed": true,
          "internalType": "address",
          "name": "owner",
          "type": "address"
        },
        {
          "indexed": true,
          "internalType": "address",
          "name": "spender",
          "type": "address"
        },
        {
          "indexed": false,
          "internalType": "uint256",
          "name": "value",
          "type": "uint256"
        }
      ],
      "name": "Approval",
      "type": "event"
    },
    {
      "anonymous": false,
      "inputs": [
        {
          "indexed": true,
          "internalType": "address",
          "name": "beacon",
          "type": "address"
        }
      ],
      "name": "BeaconUpgraded",
      "type": "event"
    },
    {
      "anonymous": false,
      "inputs": [
        {
          "indexed": true,
          "internalType": "address",
          "name": "delegator",
          "type": "address"
        },
        {
          "indexed": true,
          "internalType": "address",
          "name": "fromDelegate",
          "type": "address"
        },
        {
          "indexed": true,
          "internalType": "address",
          "name": "toDelegate",
          "type": "address"
        }
      ],
      "name": "DelegateChanged",
      "type": "event"
    },
    {
      "anonymous": false,
      "inputs": [
        {
          "indexed": true,
          "internalType": "address",
          "name": "delegate",
          "type": "address"
        },
        {
          "indexed": false,
          "internalType": "uint256",
          "name": "previousBalance",
          "type": "uint256"
        },
        {
          "indexed": false,
          "internalType": "uint256",
          "name": "newBalance",
          "type": "uint256"
        }
      ],
      "name": "DelegateVotesChanged",
      "type": "event"
    },
    {
      "anonymous": false,
      "inputs": [
        {
          "indexed": true,
          "internalType": "uint192",
          "name": "oldVal",
          "type": "uint192"
        },
        {
          "indexed": true,
          "internalType": "uint192",
          "name": "newVal",
          "type": "uint192"
        }
      ],
      "name": "ExchangeRateSet",
      "type": "event"
    },
    {
      "anonymous": false,
      "inputs": [
        {
          "indexed": false,
          "internalType": "uint8",
          "name": "version",
          "type": "uint8"
        }
      ],
      "name": "Initialized",
      "type": "event"
    },
    {
      "anonymous": false,
      "inputs": [
        {
          "indexed": true,
          "internalType": "uint48",
          "name": "oldVal",
          "type": "uint48"
        },
        {
          "indexed": true,
          "internalType": "uint48",
          "name": "newVal",
          "type": "uint48"
        }
      ],
      "name": "RewardPeriodSet",
      "type": "event"
    },
    {
      "anonymous": false,
      "inputs": [
        {
          "indexed": true,
          "internalType": "uint192",
          "name": "oldVal",
          "type": "uint192"
        },
        {
          "indexed": true,
          "internalType": "uint192",
          "name": "newVal",
          "type": "uint192"
        }
      ],
      "name": "RewardRatioSet",
      "type": "event"
    },
    {
      "anonymous": false,
      "inputs": [
        {
          "indexed": true,
          "internalType": "uint256",
          "name": "rsrAmt",
          "type": "uint256"
        }
      ],
      "name": "RewardsPaid",
      "type": "event"
    },
    {
      "anonymous": false,
      "inputs": [
        {
          "indexed": true,
          "internalType": "uint256",
          "name": "era",
          "type": "uint256"
        },
        {
          "indexed": true,
          "internalType": "address",
          "name": "staker",
          "type": "address"
        },
        {
          "indexed": false,
          "internalType": "uint256",
          "name": "rsrAmount",
          "type": "uint256"
        },
        {
          "indexed": true,
          "internalType": "uint256",
          "name": "stRSRAmount",
          "type": "uint256"
        }
      ],
      "name": "Staked",
      "type": "event"
    },
    {
      "anonymous": false,
      "inputs": [
        {
          "indexed": true,
          "internalType": "address",
          "name": "from",
          "type": "address"
        },
        {
          "indexed": true,
          "internalType": "address",
          "name": "to",
          "type": "address"
        },
        {
          "indexed": false,
          "internalType": "uint256",
          "name": "value",
          "type": "uint256"
        }
      ],
      "name": "Transfer",
      "type": "event"
    },
    {
      "anonymous": false,
      "inputs": [
        {
          "indexed": true,
          "internalType": "uint256",
          "name": "firstId",
          "type": "uint256"
        },
        {
          "indexed": true,
          "internalType": "uint256",
          "name": "endId",
          "type": "uint256"
        },
        {
          "indexed": false,
          "internalType": "uint256",
          "name": "draftEra",
          "type": "uint256"
        },
        {
          "indexed": true,
          "internalType": "address",
          "name": "staker",
          "type": "address"
        },
        {
          "indexed": false,
          "internalType": "uint256",
          "name": "rsrAmount",
          "type": "uint256"
        }
      ],
      "name": "UnstakingCompleted",
      "type": "event"
    },
    {
      "anonymous": false,
      "inputs": [
        {
          "indexed": true,
          "internalType": "uint48",
          "name": "oldVal",
          "type": "uint48"
        },
        {
          "indexed": true,
          "internalType": "uint48",
          "name": "newVal",
          "type": "uint48"
        }
      ],
      "name": "UnstakingDelaySet",
      "type": "event"
    },
    {
      "anonymous": false,
      "inputs": [
        {
          "indexed": true,
          "internalType": "uint256",
          "name": "draftId",
          "type": "uint256"
        },
        {
          "indexed": true,
          "internalType": "uint256",
          "name": "draftEra",
          "type": "uint256"
        },
        {
          "indexed": true,
          "internalType": "address",
          "name": "staker",
          "type": "address"
        },
        {
          "indexed": false,
          "internalType": "uint256",
          "name": "rsrAmount",
          "type": "uint256"
        },
        {
          "indexed": false,
          "internalType": "uint256",
          "name": "stRSRAmount",
          "type": "uint256"
        },
        {
          "indexed": false,
          "internalType": "uint256",
          "name": "availableAt",
          "type": "uint256"
        }
      ],
      "name": "UnstakingStarted",
      "type": "event"
    },
    {
      "anonymous": false,
      "inputs": [
        {
          "indexed": true,
          "internalType": "address",
          "name": "implementation",
          "type": "address"
        }
      ],
      "name": "Upgraded",
      "type": "event"
    },
    {
      "inputs": [],
      "name": "DOMAIN_SEPARATOR",
      "outputs": [
        {
          "internalType": "bytes32",
          "name": "",
          "type": "bytes32"
        }
      ],
      "stateMutability": "view",
      "type": "function"
    },
    {
      "inputs": [],
      "name": "MAX_REWARD_PERIOD",
      "outputs": [
        {
          "internalType": "uint48",
          "name": "",
          "type": "uint48"
        }
      ],
      "stateMutability": "view",
      "type": "function"
    },
    {
      "inputs": [],
      "name": "MAX_REWARD_RATIO",
      "outputs": [
        {
          "internalType": "uint192",
          "name": "",
          "type": "uint192"
        }
      ],
      "stateMutability": "view",
      "type": "function"
    },
    {
      "inputs": [],
      "name": "MAX_UNSTAKING_DELAY",
      "outputs": [
        {
          "internalType": "uint48",
          "name": "",
          "type": "uint48"
        }
      ],
      "stateMutability": "view",
      "type": "function"
    },
    {
      "inputs": [
        {
          "internalType": "address",
          "name": "owner",
          "type": "address"
        },
        {
          "internalType": "address",
          "name": "spender",
          "type": "address"
        }
      ],
      "name": "allowance",
      "outputs": [
        {
          "internalType": "uint256",
          "name": "",
          "type": "uint256"
        }
      ],
      "stateMutability": "view",
      "type": "function"
    },
    {
      "inputs": [
        {
          "internalType": "address",
          "name": "spender",
          "type": "address"
        },
        {
          "internalType": "uint256",
          "name": "amount",
          "type": "uint256"
        }
      ],
      "name": "approve",
      "outputs": [
        {
          "internalType": "bool",
          "name": "",
          "type": "bool"
        }
      ],
      "stateMutability": "nonpayable",
      "type": "function"
    },
    {
      "inputs": [
        {
          "internalType": "address",
          "name": "account",
          "type": "address"
        }
      ],
      "name": "balanceOf",
      "outputs": [
        {
          "internalType": "uint256",
          "name": "",
          "type": "uint256"
        }
      ],
      "stateMutability": "view",
      "type": "function"
    },
    {
      "inputs": [
        {
          "internalType": "address",
          "name": "account",
          "type": "address"
        },
        {
          "internalType": "uint48",
          "name": "pos",
          "type": "uint48"
        }
      ],
      "name": "checkpoints",
      "outputs": [
        {
          "components": [
            {
              "internalType": "uint48",
              "name": "fromBlock",
              "type": "uint48"
            },
            {
              "internalType": "uint224",
              "name": "val",
              "type": "uint224"
            }
          ],
          "internalType": "struct StRSRP1Votes.Checkpoint",
          "name": "",
          "type": "tuple"
        }
      ],
      "stateMutability": "view",
      "type": "function"
    },
    {
      "inputs": [],
      "name": "currentEra",
      "outputs": [
        {
          "internalType": "uint256",
          "name": "",
          "type": "uint256"
        }
      ],
      "stateMutability": "view",
      "type": "function"
    },
    {
      "inputs": [],
      "name": "decimals",
      "outputs": [
        {
          "internalType": "uint8",
          "name": "",
          "type": "uint8"
        }
      ],
      "stateMutability": "view",
      "type": "function"
    },
    {
      "inputs": [
        {
          "internalType": "address",
          "name": "spender",
          "type": "address"
        },
        {
          "internalType": "uint256",
          "name": "subtractedValue",
          "type": "uint256"
        }
      ],
      "name": "decreaseAllowance",
      "outputs": [
        {
          "internalType": "bool",
          "name": "",
          "type": "bool"
        }
      ],
      "stateMutability": "nonpayable",
      "type": "function"
    },
    {
      "inputs": [
        {
          "internalType": "address",
          "name": "delegatee",
          "type": "address"
        }
      ],
      "name": "delegate",
      "outputs": [],
      "stateMutability": "nonpayable",
      "type": "function"
    },
    {
      "inputs": [
        {
          "internalType": "address",
          "name": "delegatee",
          "type": "address"
        },
        {
          "internalType": "uint256",
          "name": "nonce",
          "type": "uint256"
        },
        {
          "internalType": "uint256",
          "name": "expiry",
          "type": "uint256"
        },
        {
          "internalType": "uint8",
          "name": "v",
          "type": "uint8"
        },
        {
          "internalType": "bytes32",
          "name": "r",
          "type": "bytes32"
        },
        {
          "internalType": "bytes32",
          "name": "s",
          "type": "bytes32"
        }
      ],
      "name": "delegateBySig",
      "outputs": [],
      "stateMutability": "nonpayable",
      "type": "function"
    },
    {
      "inputs": [
        {
          "internalType": "address",
          "name": "account",
          "type": "address"
        }
      ],
      "name": "delegates",
      "outputs": [
        {
          "internalType": "address",
          "name": "",
          "type": "address"
        }
      ],
      "stateMutability": "view",
      "type": "function"
    },
    {
      "inputs": [
        {
          "internalType": "uint256",
          "name": "era_",
          "type": "uint256"
        },
        {
          "internalType": "address",
          "name": "account",
          "type": "address"
        }
      ],
      "name": "draftQueueLen",
      "outputs": [
        {
          "internalType": "uint256",
          "name": "",
          "type": "uint256"
        }
      ],
      "stateMutability": "view",
      "type": "function"
    },
    {
      "inputs": [
        {
          "internalType": "uint256",
          "name": "",
          "type": "uint256"
        },
        {
          "internalType": "address",
          "name": "",
          "type": "address"
        },
        {
          "internalType": "uint256",
          "name": "",
          "type": "uint256"
        }
      ],
      "name": "draftQueues",
      "outputs": [
        {
          "internalType": "uint176",
          "name": "drafts",
          "type": "uint176"
        },
        {
          "internalType": "uint64",
          "name": "availableAt",
          "type": "uint64"
        }
      ],
      "stateMutability": "view",
      "type": "function"
    },
    {
      "inputs": [],
      "name": "draftRate",
      "outputs": [
        {
          "internalType": "uint192",
          "name": "",
          "type": "uint192"
        }
      ],
      "stateMutability": "view",
      "type": "function"
    },
    {
      "inputs": [
        {
          "internalType": "address",
          "name": "account",
          "type": "address"
        }
      ],
      "name": "endIdForWithdraw",
      "outputs": [
        {
          "internalType": "uint256",
          "name": "",
          "type": "uint256"
        }
      ],
      "stateMutability": "view",
      "type": "function"
    },
    {
      "inputs": [],
      "name": "exchangeRate",
      "outputs": [
        {
          "internalType": "uint192",
          "name": "",
          "type": "uint192"
        }
      ],
      "stateMutability": "view",
      "type": "function"
    },
    {
      "inputs": [
        {
          "internalType": "uint256",
          "name": "",
          "type": "uint256"
        },
        {
          "internalType": "address",
          "name": "",
          "type": "address"
        }
      ],
      "name": "firstRemainingDraft",
      "outputs": [
        {
          "internalType": "uint256",
          "name": "",
          "type": "uint256"
        }
      ],
      "stateMutability": "view",
      "type": "function"
    },
    {
      "inputs": [
        {
          "internalType": "uint256",
          "name": "blockNumber",
          "type": "uint256"
        }
      ],
      "name": "getPastEra",
      "outputs": [
        {
          "internalType": "uint256",
          "name": "",
          "type": "uint256"
        }
      ],
      "stateMutability": "view",
      "type": "function"
    },
    {
      "inputs": [
        {
          "internalType": "uint256",
          "name": "blockNumber",
          "type": "uint256"
        }
      ],
      "name": "getPastTotalSupply",
      "outputs": [
        {
          "internalType": "uint256",
          "name": "",
          "type": "uint256"
        }
      ],
      "stateMutability": "view",
      "type": "function"
    },
    {
      "inputs": [
        {
          "internalType": "address",
          "name": "account",
          "type": "address"
        },
        {
          "internalType": "uint256",
          "name": "blockNumber",
          "type": "uint256"
        }
      ],
      "name": "getPastVotes",
      "outputs": [
        {
          "internalType": "uint256",
          "name": "",
          "type": "uint256"
        }
      ],
      "stateMutability": "view",
      "type": "function"
    },
    {
      "inputs": [
        {
          "internalType": "address",
          "name": "account",
          "type": "address"
        }
      ],
      "name": "getVotes",
      "outputs": [
        {
          "internalType": "uint256",
          "name": "",
          "type": "uint256"
        }
      ],
      "stateMutability": "view",
      "type": "function"
    },
    {
      "inputs": [
        {
          "internalType": "address",
          "name": "spender",
          "type": "address"
        },
        {
          "internalType": "uint256",
          "name": "addedValue",
          "type": "uint256"
        }
      ],
      "name": "increaseAllowance",
      "outputs": [
        {
          "internalType": "bool",
          "name": "",
          "type": "bool"
        }
      ],
      "stateMutability": "nonpayable",
      "type": "function"
    },
    {
      "inputs": [
        {
          "internalType": "contract IMain",
          "name": "main_",
          "type": "address"
        },
        {
          "internalType": "string",
          "name": "name_",
          "type": "string"
        },
        {
          "internalType": "string",
          "name": "symbol_",
          "type": "string"
        },
        {
          "internalType": "uint48",
          "name": "unstakingDelay_",
          "type": "uint48"
        },
        {
          "internalType": "uint48",
          "name": "rewardPeriod_",
          "type": "uint48"
        },
        {
          "internalType": "uint192",
          "name": "rewardRatio_",
          "type": "uint192"
        }
      ],
      "name": "init",
      "outputs": [],
      "stateMutability": "nonpayable",
      "type": "function"
    },
    {
      "inputs": [],
      "name": "main",
      "outputs": [
        {
          "internalType": "contract IMain",
          "name": "",
          "type": "address"
        }
      ],
      "stateMutability": "view",
      "type": "function"
    },
    {
      "inputs": [],
      "name": "name",
      "outputs": [
        {
          "internalType": "string",
          "name": "",
          "type": "string"
        }
      ],
      "stateMutability": "view",
      "type": "function"
    },
    {
      "inputs": [],
      "name": "newValue",
      "outputs": [
        {
          "internalType": "uint256",
          "name": "",
          "type": "uint256"
        }
      ],
      "stateMutability": "view",
      "type": "function"
    },
    {
      "inputs": [
        {
          "internalType": "address",
          "name": "owner",
          "type": "address"
        }
      ],
      "name": "nonces",
      "outputs": [
        {
          "internalType": "uint256",
          "name": "",
          "type": "uint256"
        }
      ],
      "stateMutability": "view",
      "type": "function"
    },
    {
      "inputs": [
        {
          "internalType": "address",
          "name": "account",
          "type": "address"
        }
      ],
      "name": "numCheckpoints",
      "outputs": [
        {
          "internalType": "uint48",
          "name": "",
          "type": "uint48"
        }
      ],
      "stateMutability": "view",
      "type": "function"
    },
    {
      "inputs": [],
      "name": "payoutLastPaid",
      "outputs": [
        {
          "internalType": "uint48",
          "name": "",
          "type": "uint48"
        }
      ],
      "stateMutability": "view",
      "type": "function"
    },
    {
      "inputs": [],
      "name": "payoutRewards",
      "outputs": [],
      "stateMutability": "nonpayable",
      "type": "function"
    },
    {
      "inputs": [
        {
          "internalType": "address",
          "name": "owner",
          "type": "address"
        },
        {
          "internalType": "address",
          "name": "spender",
          "type": "address"
        },
        {
          "internalType": "uint256",
          "name": "value",
          "type": "uint256"
        },
        {
          "internalType": "uint256",
          "name": "deadline",
          "type": "uint256"
        },
        {
          "internalType": "uint8",
          "name": "v",
          "type": "uint8"
        },
        {
          "internalType": "bytes32",
          "name": "r",
          "type": "bytes32"
        },
        {
          "internalType": "bytes32",
          "name": "s",
          "type": "bytes32"
        }
      ],
      "name": "permit",
      "outputs": [],
      "stateMutability": "nonpayable",
      "type": "function"
    },
    {
      "inputs": [],
      "name": "proxiableUUID",
      "outputs": [
        {
          "internalType": "bytes32",
          "name": "",
          "type": "bytes32"
        }
      ],
      "stateMutability": "view",
      "type": "function"
    },
    {
      "inputs": [],
      "name": "rewardPeriod",
      "outputs": [
        {
          "internalType": "uint48",
          "name": "",
          "type": "uint48"
        }
      ],
      "stateMutability": "view",
      "type": "function"
    },
    {
      "inputs": [],
      "name": "rewardRatio",
      "outputs": [
        {
          "internalType": "uint192",
          "name": "",
          "type": "uint192"
        }
      ],
      "stateMutability": "view",
      "type": "function"
    },
    {
      "inputs": [
        {
          "internalType": "uint256",
          "name": "rsrAmount",
          "type": "uint256"
        }
      ],
      "name": "seizeRSR",
      "outputs": [],
      "stateMutability": "nonpayable",
      "type": "function"
    },
    {
      "inputs": [
        {
          "internalType": "string",
          "name": "name_",
          "type": "string"
        }
      ],
      "name": "setName",
      "outputs": [],
      "stateMutability": "nonpayable",
      "type": "function"
    },
    {
      "inputs": [
        {
          "internalType": "uint256",
          "name": "newValue_",
          "type": "uint256"
        }
      ],
      "name": "setNewValue",
      "outputs": [],
      "stateMutability": "nonpayable",
      "type": "function"
    },
    {
      "inputs": [
        {
          "internalType": "uint48",
          "name": "val",
          "type": "uint48"
        }
      ],
      "name": "setRewardPeriod",
      "outputs": [],
      "stateMutability": "nonpayable",
      "type": "function"
    },
    {
      "inputs": [
        {
          "internalType": "uint192",
          "name": "val",
          "type": "uint192"
        }
      ],
      "name": "setRewardRatio",
      "outputs": [],
      "stateMutability": "nonpayable",
      "type": "function"
    },
    {
      "inputs": [
        {
          "internalType": "string",
          "name": "symbol_",
          "type": "string"
        }
      ],
      "name": "setSymbol",
      "outputs": [],
      "stateMutability": "nonpayable",
      "type": "function"
    },
    {
      "inputs": [
        {
          "internalType": "uint48",
          "name": "val",
          "type": "uint48"
        }
      ],
      "name": "setUnstakingDelay",
      "outputs": [],
      "stateMutability": "nonpayable",
      "type": "function"
    },
    {
      "inputs": [
        {
          "internalType": "uint256",
          "name": "rsrAmount",
          "type": "uint256"
        }
      ],
      "name": "stake",
      "outputs": [],
      "stateMutability": "nonpayable",
      "type": "function"
    },
    {
      "inputs": [],
      "name": "stakeRate",
      "outputs": [
        {
          "internalType": "uint192",
          "name": "",
          "type": "uint192"
        }
      ],
      "stateMutability": "view",
      "type": "function"
    },
    {
      "inputs": [],
      "name": "symbol",
      "outputs": [
        {
          "internalType": "string",
          "name": "",
          "type": "string"
        }
      ],
      "stateMutability": "view",
      "type": "function"
    },
    {
      "inputs": [],
      "name": "totalSupply",
      "outputs": [
        {
          "internalType": "uint256",
          "name": "",
          "type": "uint256"
        }
      ],
      "stateMutability": "view",
      "type": "function"
    },
    {
      "inputs": [
        {
          "internalType": "address",
          "name": "to",
          "type": "address"
        },
        {
          "internalType": "uint256",
          "name": "amount",
          "type": "uint256"
        }
      ],
      "name": "transfer",
      "outputs": [
        {
          "internalType": "bool",
          "name": "",
          "type": "bool"
        }
      ],
      "stateMutability": "nonpayable",
      "type": "function"
    },
    {
      "inputs": [
        {
          "internalType": "address",
          "name": "from",
          "type": "address"
        },
        {
          "internalType": "address",
          "name": "to",
          "type": "address"
        },
        {
          "internalType": "uint256",
          "name": "amount",
          "type": "uint256"
        }
      ],
      "name": "transferFrom",
      "outputs": [
        {
          "internalType": "bool",
          "name": "",
          "type": "bool"
        }
      ],
      "stateMutability": "nonpayable",
      "type": "function"
    },
    {
      "inputs": [
        {
          "internalType": "uint256",
          "name": "stakeAmount",
          "type": "uint256"
        }
      ],
      "name": "unstake",
      "outputs": [],
      "stateMutability": "nonpayable",
      "type": "function"
    },
    {
      "inputs": [],
      "name": "unstakingDelay",
      "outputs": [
        {
          "internalType": "uint48",
          "name": "",
          "type": "uint48"
        }
      ],
      "stateMutability": "view",
      "type": "function"
    },
    {
      "inputs": [
        {
          "internalType": "address",
          "name": "newImplementation",
          "type": "address"
        }
      ],
      "name": "upgradeTo",
      "outputs": [],
      "stateMutability": "nonpayable",
      "type": "function"
    },
    {
      "inputs": [
        {
          "internalType": "address",
          "name": "newImplementation",
          "type": "address"
        },
        {
          "internalType": "bytes",
          "name": "data",
          "type": "bytes"
        }
      ],
      "name": "upgradeToAndCall",
      "outputs": [],
      "stateMutability": "payable",
      "type": "function"
    },
    {
      "inputs": [],
      "name": "version",
      "outputs": [
        {
          "internalType": "string",
          "name": "",
          "type": "string"
        }
      ],
      "stateMutability": "pure",
      "type": "function"
    },
    {
      "inputs": [
        {
          "internalType": "address",
          "name": "account",
          "type": "address"
        },
        {
          "internalType": "uint256",
          "name": "endId",
          "type": "uint256"
        }
      ],
      "name": "withdraw",
      "outputs": [],
      "stateMutability": "nonpayable",
      "type": "function"
    }
  ],
  "bytecode": "0x60a0604052306080523480156200001557600080fd5b50600054610100900460ff1615808015620000375750600054600160ff909116105b8062000067575062000054306200014160201b620033191760201c565b15801562000067575060005460ff166001145b620000cf5760405162461bcd60e51b815260206004820152602e60248201527f496e697469616c697a61626c653a20636f6e747261637420697320616c72656160448201526d191e481a5b9a5d1a585b1a5e995960921b606482015260840160405180910390fd5b6000805460ff191660011790558015620000f3576000805461ff0019166101001790555b80156200013a576000805461ff0019169055604051600181527f7f26b83ff96e1f2b6a682f133852f6798a09c465da95921460cefb38474024989060200160405180910390a15b5062000150565b6001600160a01b03163b151590565b608051615d896200018860003960008181610f5e01528181610f9e015281816116c10152818161170101526117940152615d896000f3fe60806040526004361061036b5760003560e01c80637ecebe00116101c6578063c3cda520116100f7578063dffeadd011610095578063eb58a8a81161006f578063eb58a8a814610af1578063edc26eaf14610b11578063f3a6bcbe14610b32578063f3fef3a314610b5957600080fd5b8063dffeadd014610a71578063e88dc5b714610a91578063e96bfb2114610ab857600080fd5b8063d505accf116100d1578063d505accf146109c3578063d591101f146109e3578063d7ccc275146109ff578063dd62ed3e14610a1f57600080fd5b8063c3cda52014610983578063c47f0027146109a3578063cf9649e11461054257600080fd5b8063a439622f11610164578063a694fc3a1161013e578063a694fc3a14610903578063a9059cbb14610923578063b555450d14610943578063b84c82461461096357600080fd5b8063a439622f146108a3578063a457c2d7146108c3578063a4ba1f4d146108e357600080fd5b8063951c4077116101a0578063951c40771461083857806395d89b4114610858578063973628f61461086d5780639ab24eb01461088357600080fd5b80637ecebe00146107d757806381160fe3146107f75780638e539e8c1461081857600080fd5b80634ea4b843116102a05780636c3db9791161023e57806370a082311161021857806370a082311461070e57806371664e49146107545780637c65452c146107745780637ddb74881461078b57600080fd5b80636c3db979146106635780636f94d10a146106a75780636fcfff45146106ee57600080fd5b806354fd4d501161027a57806354fd4d50146105a2578063587cde1e146105d05780635c19a95c14610622578063646033bc1461064257600080fd5b80634ea4b8431461055a5780634f1ef2861461057a57806352d1902d1461058d57600080fd5b8063313ce5671161030d57806339509351116102e757806339509351146104d55780633a46b1a8146104f55780633ba0b9a91461051557806349018e411461054257600080fd5b8063313ce567146104795780633644e515146104a05780633659cfe6146104b557600080fd5b806318160ddd1161034957806318160ddd1461040257806323b872dd1461042257806329613086146104425780632e17de781461045957600080fd5b806306fdde0314610370578063070892461461039b578063095ea7b3146103d2575b600080fd5b34801561037c57600080fd5b50610385610b79565b604051610392919061538f565b60405180910390f35b3480156103a757600080fd5b50610110546103bb9065ffffffffffff1681565b60405165ffffffffffff9091168152602001610392565b3480156103de57600080fd5b506103f26103ed3660046153d7565b610c07565b6040519015158152602001610392565b34801561040e57600080fd5b50610105545b604051908152602001610392565b34801561042e57600080fd5b506103f261043d366004615403565b610c1e565b34801561044e57600080fd5b50610457610c41565b005b34801561046557600080fd5b50610457610474366004615444565b610cf7565b34801561048557600080fd5b5061048e601281565b60405160ff9091168152602001610392565b3480156104ac57600080fd5b50610414610f44565b3480156104c157600080fd5b506104576104d036600461545d565b610f53565b3480156104e157600080fd5b506103f26104f03660046153d7565b611033565b34801561050157600080fd5b506104146105103660046153d7565b61107d565b34801561052157600080fd5b5061052a6110e4565b6040516001600160c01b039091168152602001610392565b34801561054e57600080fd5b506103bb6301e1338081565b34801561056657600080fd5b506104576105753660046154f4565b611122565b6104576105883660046155bd565b6116b6565b34801561059957600080fd5b50610414611787565b3480156105ae57600080fd5b506040805180820190915260058152640322e302e360dc1b6020820152610385565b3480156105dc57600080fd5b5061060a6105eb36600461545d565b6001600160a01b03908116600090815261013160205260409020541690565b6040516001600160a01b039091168152602001610392565b34801561062e57600080fd5b5061045761063d36600461545d565b61183a565b34801561064e57600080fd5b506101115461052a906001600160c01b031681565b34801561066f57600080fd5b5061041461067e366004615680565b600091825261010a602090815260408084206001600160a01b0393909316845291905290205490565b3480156106b357600080fd5b506106c76106c23660046156b0565b611844565b604080516001600160b01b0390931683526001600160401b03909116602083015201610392565b3480156106fa57600080fd5b506103bb61070936600461545d565b61189c565b34801561071a57600080fd5b5061041461072936600461545d565b610103546000908152610104602090815260408083206001600160a01b039094168352929052205490565b34801561076057600080fd5b5061045761076f3660046156d7565b6118cd565b34801561078057600080fd5b506104146101635481565b34801561079757600080fd5b506107ab6107a63660046156f2565b611af5565b60408051825165ffffffffffff1681526020928301516001600160e01b03169281019290925201610392565b3480156107e357600080fd5b506104146107f236600461545d565b611b88565b34801561080357600080fd5b506101075461052a906001600160c01b031681565b34801561082457600080fd5b50610414610833366004615444565b611ba7565b34801561084457600080fd5b50610457610853366004615444565b611bf2565b34801561086457600080fd5b50610385611ccc565b34801561087957600080fd5b5061010354610414565b34801561088f57600080fd5b5061041461089e36600461545d565b611cd9565b3480156108af57600080fd5b506104576108be366004615444565b611d7e565b3480156108cf57600080fd5b506103f26108de3660046153d7565b612254565b3480156108ef57600080fd5b506104146108fe366004615444565b6122fc565b34801561090f57600080fd5b5061045761091e366004615444565b612329565b34801561092f57600080fd5b506103f261093e3660046153d7565b6124e7565b34801561094f57600080fd5b5061041461095e36600461545d565b6124f5565b34801561096f57600080fd5b5061045761097e366004615727565b612604565b34801561098f57600080fd5b5061045761099e366004615779565b6126e9565b3480156109af57600080fd5b506104576109be366004615727565b612816565b3480156109cf57600080fd5b506104576109de3660046157d3565b6128f6565b3480156109ef57600080fd5b5061052a670de0b6b3a764000081565b348015610a0b57600080fd5b50610457610a1a366004615841565b612a71565b348015610a2b57600080fd5b50610414610a3a36600461585c565b610103546000908152610108602090815260408083206001600160a01b039586168452825280832093909416825291909152205490565b348015610a7d57600080fd5b5060975461060a906001600160a01b031681565b348015610a9d57600080fd5b50610110546103bb90600160301b900465ffffffffffff1681565b348015610ac457600080fd5b50610414610ad3366004615680565b61010b60209081526000928352604080842090915290825290205481565b348015610afd57600080fd5b50610457610b0c3660046156d7565b612bfa565b348015610b1d57600080fd5b5061010e5461052a906001600160c01b031681565b348015610b3e57600080fd5b50610111546103bb90600160c01b900465ffffffffffff1681565b348015610b6557600080fd5b50610457610b743660046153d7565b612da6565b60fd8054610b869061588a565b80601f0160208091040260200160405190810160405280929190818152602001828054610bb29061588a565b8015610bff5780601f10610bd457610100808354040283529160200191610bff565b820191906000526020600020905b815481529060010190602001808311610be257829003601f168201915b505050505081565b6000610c14338484613328565b5060015b92915050565b6000610c2b84338461345c565b610c368484846134fc565b5060015b9392505050565b609760009054906101000a90046001600160a01b03166001600160a01b031663f17063756040518163ffffffff1660e01b815260040160206040518083038186803b158015610c8f57600080fd5b505afa158015610ca3573d6000803e3d6000fd5b505050506040513d601f19601f82011682018060405250810190610cc791906158bf565b15610ced5760405162461bcd60e51b8152600401610ce4906158e1565b60405180910390fd5b610cf56136e1565b565b609760009054906101000a90046001600160a01b03166001600160a01b031663f17063756040518163ffffffff1660e01b815260040160206040518083038186803b158015610d4557600080fd5b505afa158015610d59573d6000803e3d6000fd5b505050506040513d601f19601f82011682018060405250810190610d7d91906158bf565b15610d9a5760405162461bcd60e51b8152600401610ce4906158e1565b3381610ddf5760405162461bcd60e51b815260206004820152601460248201527343616e6e6f74207769746864726177207a65726f60601b6044820152606401610ce4565b610103546000908152610104602090815260408083206001600160a01b0385168452909152902054821115610e4b5760405162461bcd60e51b81526020600482015260126024820152714e6f7420656e6f7567682062616c616e636560701b6044820152606401610ce4565b610e536136e1565b610e5d8183613953565b610107546000906001600160c01b0316610e78600182615921565b6001600160c01b031661010554670de0b6b3a7640000610e989190615949565b610ea29190615968565b610eac9190615996565b905060008161010654610ebf91906159aa565b6101068390559050600080610ed4858461397d565b91509150846001600160a01b031661010354837f1a9484bd0ef282a993728aef393a723fbc6fdc06f16c98befba1b4e3a8a7a3f8868a86604051610f349392919092835260208301919091526001600160401b0316604082015260600190565b60405180910390a4505050505050565b6000610f4e613b62565b905090565b306001600160a01b037f0000000000000000000000000000000000000000000000000000000000000000161415610f9c5760405162461bcd60e51b8152600401610ce4906159c1565b7f00000000000000000000000000000000000000000000000000000000000000006001600160a01b0316610fe5600080516020615d0d833981519152546001600160a01b031690565b6001600160a01b03161461100b5760405162461bcd60e51b8152600401610ce490615a0d565b61101481613bdd565b6040805160008082526020820190925261103091839190613cb1565b50565b61010354600090815261010860209081526040808320338085529083528184206001600160a01b0387168552909252822054610c369082908690611078908790615968565b613328565b600043821061109e5760405162461bcd60e51b8152600401610ce490615a59565b60006110ac61013284613e2b565b6000818152610133602090815260408083206001600160a01b038916845290915290209091506110dc9084613e2b565b949350505050565b610107546000906001600160c01b03166110ff600282615a90565b611118906ec097ce7bc90715b34b9f1000000000615ab6565b610f4e9190615a90565b600054610100900460ff16158080156111425750600054600160ff909116105b8061115c5750303b15801561115c575060005460ff166001145b6111bf5760405162461bcd60e51b815260206004820152602e60248201527f496e697469616c697a61626c653a20636f6e747261637420697320616c72656160448201526d191e481a5b9a5d1a585b1a5e995960921b6064820152608401610ce4565b6000805460ff1916600117905580156111e2576000805461ff0019166101001790555b8661121c5760405162461bcd60e51b815260206004820152600a6024820152696e616d6520656d70747960b01b6044820152606401610ce4565b846112585760405162461bcd60e51b815260206004820152600c60248201526b73796d626f6c20656d70747960a01b6044820152606401610ce4565b61126189613eef565b6112b988888080601f016020809104026020016040519081016040528093929190818152602001838380828437600092019190915250506040805180820190915260018152603160f81b60208201529150613f8d9050565b6112c560fd89896152d3565b506112d260fe87876152d3565b50886001600160a01b031663979d7e866040518163ffffffff1660e01b815260040160206040518083038186803b15801561130c57600080fd5b505afa158015611320573d6000803e3d6000fd5b505050506040513d601f19601f820116820180604052508101906113449190615ae1565b60ff60006101000a8154816001600160a01b0302191690836001600160a01b03160217905550886001600160a01b031663dc8af5f66040518163ffffffff1660e01b815260040160206040518083038186803b1580156113a357600080fd5b505afa1580156113b7573d6000803e3d6000fd5b505050506040513d601f19601f820116820180604052508101906113db9190615ae1565b61010060006101000a8154816001600160a01b0302191690836001600160a01b03160217905550886001600160a01b0316632f2439b16040518163ffffffff1660e01b815260040160206040518083038186803b15801561143b57600080fd5b505afa15801561144f573d6000803e3d6000fd5b505050506040513d601f19601f820116820180604052508101906114739190615ae1565b61010160006101000a8154816001600160a01b0302191690836001600160a01b03160217905550886001600160a01b031663c99dc3dd6040518163ffffffff1660e01b815260040160206040518083038186803b1580156114d357600080fd5b505afa1580156114e7573d6000803e3d6000fd5b505050506040513d601f19601f8201168201806040525081019061150b9190615ae1565b61010280546001600160a01b0319166001600160a01b03928316179055610111805465ffffffffffff60c01b1916600160c01b4265ffffffffffff16021790556040805163c99dc3dd60e01b81529051918b169163c99dc3dd91600480820192602092909190829003018186803b15801561158557600080fd5b505afa158015611599573d6000803e3d6000fd5b505050506040513d601f19601f820116820180604052508101906115bd9190615ae1565b6040516370a0823160e01b81523060048201526001600160a01b0391909116906370a082319060240160206040518083038186803b1580156115fe57600080fd5b505afa158015611612573d6000803e3d6000fd5b505050506040513d601f19601f820116820180604052508101906116369190615afe565b6101125561164384612bfa565b61164c836118cd565b61165582612a71565b61165d613fbe565b611665613fd6565b80156116ab576000805461ff0019169055604051600181527f7f26b83ff96e1f2b6a682f133852f6798a09c465da95921460cefb38474024989060200160405180910390a15b505050505050505050565b306001600160a01b037f00000000000000000000000000000000000000000000000000000000000000001614156116ff5760405162461bcd60e51b8152600401610ce4906159c1565b7f00000000000000000000000000000000000000000000000000000000000000006001600160a01b0316611748600080516020615d0d833981519152546001600160a01b031690565b6001600160a01b03161461176e5760405162461bcd60e51b8152600401610ce490615a0d565b61177782613bdd565b61178382826001613cb1565b5050565b6000306001600160a01b037f000000000000000000000000000000000000000000000000000000000000000016146118275760405162461bcd60e51b815260206004820152603860248201527f555550535570677261646561626c653a206d757374206e6f742062652063616c60448201527f6c6564207468726f7567682064656c656761746563616c6c00000000000000006064820152608401610ce4565b50600080516020615d0d83398151915290565b6110303382614042565b61010a602052826000526040600020602052816000526040600020818154811061186d57600080fd5b6000918252602090912001546001600160b01b0381169350600160b01b90046001600160401b03169150839050565b610103546000908152610133602090815260408083206001600160a01b0385168452909152812054610c18906140cc565b60975460408051808201909152600581526427aba722a960d91b60208201526001600160a01b03909116906391d148549061190790615b17565b336040516001600160e01b031960e085901b16815260048101929092526001600160a01b0316602482015260440160206040518083038186803b15801561194d57600080fd5b505afa158015611961573d6000803e3d6000fd5b505050506040513d601f19601f8201168201806040525081019061198591906158bf565b6119a15760405162461bcd60e51b8152600401610ce490615b3b565b60008165ffffffffffff161180156119c557506301e1338065ffffffffffff821611155b611a085760405162461bcd60e51b81526020600482015260146024820152731a5b9d985b1a59081c995dd85c9914195c9a5bd960621b6044820152606401610ce4565b6101105460405165ffffffffffff80841692600160301b900416907f2b9667710e15f72935a45635aaac962ed42250b852cb7e5a5b30dc5a9a9bef2a90600090a3610110805465ffffffffffff808416600160301b9081026bffffffffffff00000000000019841681179485905582169282169290921792611a8e929004166002615b64565b65ffffffffffff1611156110305760405162461bcd60e51b815260206004820152602860248201527f756e7374616b696e6744656c61792f726577617264506572696f6420696e636f6044820152676d70617469626c6560c01b6064820152608401610ce4565b6040805180820182526000808252602080830182905261010354825261013381528382206001600160a01b0387168352905291909120805465ffffffffffff8416908110611b4557611b45615b92565b600091825260209182902060408051808201909152600290920201805465ffffffffffff168252600101546001600160e01b031691810191909152905092915050565b6001600160a01b038116600090815261010f6020526040812054610c18565b6000438210611bc85760405162461bcd60e51b8152600401610ce490615a59565b6000611bd661013284613e2b565b600081815261013460205260409020909150610c3a9084613e2b565b60975460408051808201909152600581526427aba722a960d91b60208201526001600160a01b03909116906391d1485490611c2c90615b17565b336040516001600160e01b031960e085901b16815260048101929092526001600160a01b0316602482015260440160206040518083038186803b158015611c7257600080fd5b505afa158015611c86573d6000803e3d6000fd5b505050506040513d601f19601f82011682018060405250810190611caa91906158bf565b611cc65760405162461bcd60e51b8152600401610ce490615b3b565b61016355565b60fe8054610b869061588a565b610103546000908152610133602090815260408083206001600160a01b03851684529091528120548015611d6b57610103546000908152610133602090815260408083206001600160a01b03871684529091529020611d396001836159aa565b81548110611d4957611d49615b92565b60009182526020909120600160029092020101546001600160e01b0316611d6e565b60005b6001600160e01b03169392505050565b609760009054906101000a90046001600160a01b03166001600160a01b031663f17063756040518163ffffffff1660e01b815260040160206040518083038186803b158015611dcc57600080fd5b505afa158015611de0573d6000803e3d6000fd5b505050506040513d601f19601f82011682018060405250810190611e0491906158bf565b15611e215760405162461bcd60e51b8152600401610ce4906158e1565b610100546001600160a01b0316336001600160a01b031614611e7b5760405162461bcd60e51b81526020600482015260136024820152723737ba103130b1b5b4b7339036b0b730b3b2b960691b6044820152606401610ce4565b60008111611ec35760405162461bcd60e51b8152602060048201526015602482015274416d6f756e742063616e6e6f74206265207a65726f60581b6044820152606401610ce4565b6000611ecd6110e4565b610102546040516370a0823160e01b81523060048201529192506000916001600160a01b03909116906370a082319060240160206040518083038186803b158015611f1757600080fd5b505afa158015611f2b573d6000803e3d6000fd5b505050506040513d601f19601f82011682018060405250810190611f4f9190615afe565b905080831115611fac5760405162461bcd60e51b815260206004820152602260248201527f43616e6e6f74207365697a65206d6f726520525352207468616e20776520686f6044820152611b1960f21b6064820152608401610ce4565b600080611fb7614137565b9050600083611fc76001826159aa565b8761010654611fd69190615949565b611fe09190615968565b611fea9190615996565b9050806101066000828254611fff91906159aa565b90915550506101065490925082901561206d57610106546120216001826159aa565b6101055461203790670de0b6b3a7640000615949565b6120419190615968565b61204b9190615996565b61010780546001600160c01b0319166001600160c01b03929092169190911790555b6101065415806120965750610107546b033b2e3c9fd0803ce80000006001600160c01b03909116115b156120b357610106546120a99084615968565b92506120b3613fbe565b6000846120c16001826159aa565b8861010d546120d09190615949565b6120da9190615968565b6120e49190615996565b90508061010d60008282546120f991906159aa565b9091555061210990508185615968565b61010d54909450156121705761010d546121246001826159aa565b61010c5461213a90670de0b6b3a7640000615949565b6121449190615968565b61214e9190615996565b61010e80546001600160c01b0319166001600160c01b03929092169190911790555b61010d541580612199575061010e546b033b2e3c9fd0803ce80000006001600160c01b03909116115b156121b65761010d546121ac9085615968565b93506121b6613fd6565b846121c26001826159aa565b6121cc8986615949565b6121d69190615968565b6121e09190615996565b6121ea9085615968565b93506121f46110e4565b6001600160c01b0316866001600160c01b03167fa960008f17c9b70495943fe5e4a3c8aed709c7dcafe762f7a89e64743669404360405160405180910390a361224b33610102546001600160a01b031690866141d2565b50505050505050565b61010354600090815261010860209081526040808320338085529083528184206001600160a01b0387168552909252822054838110156122e45760405162461bcd60e51b815260206004820152602560248201527f45524332303a2064656372656173656420616c6c6f77616e63652062656c6f77604482015264207a65726f60d81b6064820152608401610ce4565b6122f18286868403613328565b506001949350505050565b600043821061231d5760405162461bcd60e51b8152600401610ce490615a59565b610c1861013283613e2b565b6000811161236d5760405162461bcd60e51b815260206004820152601160248201527043616e6e6f74207374616b65207a65726f60781b6044820152606401610ce4565b609760009054906101000a90046001600160a01b03166001600160a01b031663f17063756040518163ffffffff1660e01b815260040160206040518083038186803b1580156123bb57600080fd5b505afa1580156123cf573d6000803e3d6000fd5b505050506040513d601f19601f820116820180604052508101906123f391906158bf565b6123ff576123ff6136e1565b600081610106546124109190615968565b61010754909150600090670de0b6b3a7640000906124389084906001600160c01b0316615949565b6124429190615996565b90506000610105548261245591906159aa565b9050600033905084610106600082825461246f9190615968565b9091555061247f90508183614235565b81816001600160a01b0316610103547f17700ceb1658b18206f427c1578048e87504106b14ec69e9b4586d9a95174a32886040516124bf91815260200190565b60405180910390a4610102546124e0906001600160a01b031682308861425f565b5050505050565b600033610c368185856134fc565b61010954600081815261010a602090815260408083206001600160a01b03861680855290835281842094845261010b835281842090845290915281205482549192429290919080821061254b5795945050505050565b8383838154811061255e5761255e615b92565b600091825260209091200154600160b01b90046001600160401b031611156125895750949350505050565b60005b6125976001836159aa565b8310156125fa5760026125aa8385615968565b6125b49190615996565b9050848482815481106125c9576125c9615b92565b600091825260209091200154600160b01b90046001600160401b0316116125f25780925061258c565b80915061258c565b5095945050505050565b60975460408051808201909152600581526427aba722a960d91b60208201526001600160a01b03909116906391d148549061263e90615b17565b336040516001600160e01b031960e085901b16815260048101929092526001600160a01b0316602482015260440160206040518083038186803b15801561268457600080fd5b505afa158015612698573d6000803e3d6000fd5b505050506040513d601f19601f820116820180604052508101906126bc91906158bf565b6126d85760405162461bcd60e51b8152600401610ce490615b3b565b6126e460fe83836152d3565b505050565b834211156127395760405162461bcd60e51b815260206004820152601d60248201527f4552433230566f7465733a207369676e617475726520657870697265640000006044820152606401610ce4565b604080517fe48329057bfd03d55e49b547132e39cffd9c1820ad7b9d4c5307691425d15adf60208201526001600160a01b0388169181019190915260608101869052608081018590526000906127b3906127ab9060a00160405160208183030381529060405280519060200120614297565b8585856142e5565b90506127be81614303565b861461280c5760405162461bcd60e51b815260206004820152601960248201527f4552433230566f7465733a20696e76616c6964206e6f6e6365000000000000006044820152606401610ce4565b61224b8188614042565b60975460408051808201909152600581526427aba722a960d91b60208201526001600160a01b03909116906391d148549061285090615b17565b336040516001600160e01b031960e085901b16815260048101929092526001600160a01b0316602482015260440160206040518083038186803b15801561289657600080fd5b505afa1580156128aa573d6000803e3d6000fd5b505050506040513d601f19601f820116820180604052508101906128ce91906158bf565b6128ea5760405162461bcd60e51b8152600401610ce490615b3b565b6126e460fd83836152d3565b834211156129465760405162461bcd60e51b815260206004820152601d60248201527f45524332305065726d69743a206578706972656420646561646c696e650000006044820152606401610ce4565b60007f6e71edae12b1b97f4d1f60370fef10105fa2faae0126114a169c64845d6126c98888886129758c614303565b6040805160208101969096526001600160a01b0394851690860152929091166060840152608083015260a082015260c0810186905260e00160405160208183030381529060405280519060200120905073__$2d1f1df91c509134c97a9b37f5a8e18539$__634a42ee80896129e984614297565b6040516001600160e01b031960e085901b1681526001600160a01b039092166004830152602482015260ff87166044820152606481018690526084810185905260a40160006040518083038186803b158015612a4457600080fd5b505af4158015612a58573d6000803e3d6000fd5b50505050612a67888888613328565b5050505050505050565b60975460408051808201909152600581526427aba722a960d91b60208201526001600160a01b03909116906391d1485490612aab90615b17565b336040516001600160e01b031960e085901b16815260048101929092526001600160a01b0316602482015260440160206040518083038186803b158015612af157600080fd5b505afa158015612b05573d6000803e3d6000fd5b505050506040513d601f19601f82011682018060405250810190612b2991906158bf565b612b455760405162461bcd60e51b8152600401610ce490615b3b565b670de0b6b3a76400006001600160c01b0382161115612b9c5760405162461bcd60e51b8152602060048201526013602482015272696e76616c696420726577617264526174696f60681b6044820152606401610ce4565b610111546040516001600160c01b038084169216907fb118098f66750616290767b73d61ab7f4de09e99e97505e256e70c3b10782e7690600090a361011180546001600160c01b0319166001600160c01b0392909216919091179055565b60975460408051808201909152600581526427aba722a960d91b60208201526001600160a01b03909116906391d1485490612c3490615b17565b336040516001600160e01b031960e085901b16815260048101929092526001600160a01b0316602482015260440160206040518083038186803b158015612c7a57600080fd5b505afa158015612c8e573d6000803e3d6000fd5b505050506040513d601f19601f82011682018060405250810190612cb291906158bf565b612cce5760405162461bcd60e51b8152600401610ce490615b3b565b60008165ffffffffffff16118015612cf257506301e1338065ffffffffffff821611155b612d375760405162461bcd60e51b8152602060048201526016602482015275696e76616c696420756e7374616b696e6744656c617960501b6044820152606401610ce4565b6101105460405165ffffffffffff8084169216907f93159285ad2cef1861fdef1d2ca04162b2eff9aa5c08324f599d3aa0e04b223a90600090a3610110805465ffffffffffff191665ffffffffffff838116918217928390559091611a8e91600160301b909104166002615b64565b609760009054906101000a90046001600160a01b03166001600160a01b031663f17063756040518163ffffffff1660e01b815260040160206040518083038186803b158015612df457600080fd5b505afa158015612e08573d6000803e3d6000fd5b505050506040513d601f19601f82011682018060405250810190612e2c91906158bf565b15612e495760405162461bcd60e51b8152600401610ce4906158e1565b60ff60009054906101000a90046001600160a01b03166001600160a01b031663f8ac93e86040518163ffffffff1660e01b8152600401600060405180830381600087803b158015612e9957600080fd5b505af1158015612ead573d6000803e3d6000fd5b5050505061010160009054906101000a90046001600160a01b03166001600160a01b031663e45a5b2d6040518163ffffffff1660e01b815260040160206040518083038186803b158015612f0057600080fd5b505afa158015612f14573d6000803e3d6000fd5b505050506040513d601f19601f82011682018060405250810190612f3891906158bf565b612f7b5760405162461bcd60e51b815260206004820152601460248201527314951bdad95b881d5b98d85c1a5d185b1a5e995960621b6044820152606401610ce4565b6101015460408051631006976960e11b815290516000926001600160a01b03169163200d2ed2916004808301926020929190829003018186803b158015612fc157600080fd5b505afa158015612fd5573d6000803e3d6000fd5b505050506040513d601f19601f82011682018060405250810190612ff99190615bbe565b600281111561300a5761300a615ba8565b1461304a5760405162461bcd60e51b815260206004820152601060248201526f18985cdad95d08191959985d5b1d195960821b6044820152606401610ce4565b61010954600081815261010b602090815260408083206001600160a01b0387168085529083528184205494845261010a835281842090845290915290208215806130945750828210155b1561309f5750505050565b80548311156130e65760405162461bcd60e51b8152602060048201526013602482015272696e646578206f75742d6f662d626f756e647360681b6044820152606401610ce4565b42816130f36001866159aa565b8154811061310357613103615b92565b600091825260209091200154600160b01b90046001600160401b031611156131665760405162461bcd60e51b81526020600482015260166024820152757769746864726177616c20756e617661696c61626c6560501b6044820152606401610ce4565b60008083116131765760006131a8565b816131826001856159aa565b8154811061319257613192615b92565b6000918252602090912001546001600160b01b03165b6001600160b01b03169050600081836131c26001886159aa565b815481106131d2576131d2615b92565b6000918252602090912001546131f191906001600160b01b0316615921565b61010954600090815261010b602090815260408083206001600160a01b038b168452909152812087905561010c5491925090613237906001600160c01b038416906159aa565b61010e549091506000906001600160c01b0316613255600182615921565b6001600160c01b0316613270670de0b6b3a764000085615949565b61327a9190615968565b6132849190615996565b905060008161010d5461329791906159aa565b9050806132a957505050505050505050565b61010c83905561010d8290556101095460408051918252602082018390526001600160a01b038b16918a918a917fd42f64bbf441b944cb3b10d82058ccb2b527d393e6c6c96346d5dc540957d192910160405180910390a4610102546116ab906001600160a01b03168a836141d2565b6001600160a01b03163b151590565b6001600160a01b03831661338a5760405162461bcd60e51b8152602060048201526024808201527f45524332303a20617070726f76652066726f6d20746865207a65726f206164646044820152637265737360e01b6064820152608401610ce4565b6001600160a01b0382166133eb5760405162461bcd60e51b815260206004820152602260248201527f45524332303a20617070726f766520746f20746865207a65726f206164647265604482015261737360f01b6064820152608401610ce4565b610103546000908152610108602090815260408083206001600160a01b0387811680865291845282852090871680865290845293829020859055905184815290917f8c5be1e5ebec7d5bd14f71427d1e84f3dd0314c0f7b2291e5b200ac8c7c3b925910160405180910390a3505050565b610103546000908152610108602090815260408083206001600160a01b038088168552908352818420908616845290915290205460001981146134f657818110156134e95760405162461bcd60e51b815260206004820152601d60248201527f45524332303a20696e73756666696369656e7420616c6c6f77616e63650000006044820152606401610ce4565b6134f68484848403613328565b50505050565b6001600160a01b0383166135605760405162461bcd60e51b815260206004820152602560248201527f45524332303a207472616e736665722066726f6d20746865207a65726f206164604482015264647265737360d81b6064820152608401610ce4565b6001600160a01b0382166135c25760405162461bcd60e51b815260206004820152602360248201527f45524332303a207472616e7366657220746f20746865207a65726f206164647260448201526265737360e81b6064820152608401610ce4565b610103546000908152610104602090815260408083206001600160a01b038716845291829052909120548281101561364b5760405162461bcd60e51b815260206004820152602660248201527f45524332303a207472616e7366657220616d6f756e7420657863656564732062604482015265616c616e636560d01b6064820152608401610ce4565b6001600160a01b03808616600090815260208490526040808220868503905591861681529081208054859290613682908490615968565b92505081905550836001600160a01b0316856001600160a01b03167fddf252ad1be2c89b69c2b068fc378daa952ba7f163c4a11628f55a4df523b3ef856040516136ce91815260200190565b60405180910390a36124e085858561432c565b610110546101115461370c9165ffffffffffff600160301b909104811691600160c01b900416615bdf565b65ffffffffffff1642101561371d57565b610110546101115460009165ffffffffffff600160301b90910481169161374d91600160c01b9091041642615c00565b6137579190615c1f565b905060006137636110e4565b610111549091506000906137929061378c906001600160c01b0316670de0b6b3a7640000615921565b8461436a565b6137a490670de0b6b3a7640000615921565b61011254909150600090670de0b6b3a7640000906137cb906001600160c01b038516615949565b6137d59190615996565b90508061010660008282546137ea9190615968565b90915550506101105461380c90600160301b900465ffffffffffff1685615b64565b610111805460189061382e908490600160c01b900465ffffffffffff16615bdf565b92506101000a81548165ffffffffffff021916908365ffffffffffff160217905550613858614137565b6101125561010654158061386d575061010554155b6138b057610106546138806001826159aa565b670de0b6b3a7640000610105546138979190615949565b6138a19190615968565b6138ab9190615996565b6138ba565b670de0b6b3a76400005b61010780546001600160c01b0319166001600160c01b039290921691909117905560405181907fb0c65a5b323022d926c456e1564d86f0bda40160a781c820f571d7635b34880190600090a261390e6110e4565b6001600160c01b0316836001600160c01b03167fa960008f17c9b70495943fe5e4a3c8aed709c7dcafe762f7a89e64743669404360405160405180910390a350505050565b61395d82826144eb565b610103546000908152610134602052604090206134f6906146528361465e565b6000808261010d60008282546139939190615968565b909155505061010d5461010e54600091670de0b6b3a7640000916139c091906001600160c01b0316615949565b6139ca9190615996565b9050600061010c54826139dd91906159aa565b61010c83905561010954600090815261010a602090815260408083206001600160a01b038b16845290915281208054965091925085613a1d576000613a4f565b81613a296001886159aa565b81548110613a3957613a39615b92565b6000918252602090912001546001600160b01b03165b6001600160b01b031690506000808711613a6a576000613aa3565b82613a766001896159aa565b81548110613a8657613a86615b92565b600091825260209091200154600160b01b90046001600160401b03165b61011054909150613abc9065ffffffffffff1642615c38565b9550856001600160401b0316816001600160401b03161115613adc578095505b82604051806040016040528086856001600160c01b0316613afd9190615968565b6001600160b01b0390811682526001600160401b03808b166020938401528454600181018655600095865294839020845195018054949093015116600160b01b026001600160f01b031990931693169290921717905550949793965092945050505050565b6000610f4e7f8b73c3c69bb8fe3d512ecc4cf759cc79239f7b179b0ffacaa9a75d522b39400f613b9160c95490565b60ca546040805160208101859052908101839052606081018290524660808201523060a082015260009060c0016040516020818303038152906040528051906020012090509392505050565b60975460408051808201909152600581526427aba722a960d91b60208201526001600160a01b03909116906391d1485490613c1790615b17565b336040516001600160e01b031960e085901b16815260048101929092526001600160a01b0316602482015260440160206040518083038186803b158015613c5d57600080fd5b505afa158015613c71573d6000803e3d6000fd5b505050506040513d601f19601f82011682018060405250810190613c9591906158bf565b6110305760405162461bcd60e51b8152600401610ce490615b3b565b7f4910fdfa16fed3260ed0e7147f7cc6da11a60208b5b9406d12a635614ffd91435460ff1615613ce4576126e483614807565b826001600160a01b03166352d1902d6040518163ffffffff1660e01b815260040160206040518083038186803b158015613d1d57600080fd5b505afa925050508015613d4d575060408051601f3d908101601f19168201909252613d4a91810190615afe565b60015b613db05760405162461bcd60e51b815260206004820152602e60248201527f45524331393637557067726164653a206e657720696d706c656d656e7461746960448201526d6f6e206973206e6f74205555505360901b6064820152608401610ce4565b600080516020615d0d8339815191528114613e1f5760405162461bcd60e51b815260206004820152602960248201527f45524331393637557067726164653a20756e737570706f727465642070726f786044820152681a58589b195555525160ba1b6064820152608401610ce4565b506126e48383836148a3565b8154600090815b81811015613e96576000613e4682846148c8565b905084868281548110613e5b57613e5b615b92565b600091825260209091206002909102015465ffffffffffff161115613e8257809250613e90565b613e8d816001615968565b91505b50613e32565b8115613eda5784613ea86001846159aa565b81548110613eb857613eb8615b92565b60009182526020909120600160029092020101546001600160e01b0316613edd565b60005b6001600160e01b031695945050505050565b600054610100900460ff16613f165760405162461bcd60e51b8152600401610ce490615c5a565b6001600160a01b038116613f635760405162461bcd60e51b81526020600482015260146024820152736d61696e206973207a65726f206164647265737360601b6044820152606401610ce4565b613f6b6148e3565b609780546001600160a01b0319166001600160a01b0392909216919091179055565b600054610100900460ff16613fb45760405162461bcd60e51b8152600401610ce490615c5a565b611783828261490a565b613fc661494b565b6117836101326149b7600161465e565b600061010d81905561010c81905561010e80546001600160c01b031916670de0b6b3a764000017905561010980549161400e83615ca5565b9091555050610109546040517ff5696d9c0450397a3ed4f9ee6c8999f155174d2d0621d8d3fd16ae67b2384e6b90600090a2565b6001600160a01b0382811660008181526101316020818152604080842080546101035486526101048452828620878752845282862054949093528787166001600160a01b03198416811790915590519190951694919391928592917f3134e8a2e6d97e929a7e54011ea5485d7d196dd5f0ba4d4ef95803e8e3fc257f9190a46134f68284836149c3565b600065ffffffffffff8211156141335760405162461bcd60e51b815260206004820152602660248201527f53616665436173743a2076616c756520646f65736e27742066697420696e203460448201526538206269747360d01b6064820152608401610ce4565b5090565b61010d5461010654610102546040516370a0823160e01b815230600482015260009392916001600160a01b0316906370a082319060240160206040518083038186803b15801561418657600080fd5b505afa15801561419a573d6000803e3d6000fd5b505050506040513d601f19601f820116820180604052508101906141be9190615afe565b6141c891906159aa565b610f4e91906159aa565b6040516001600160a01b0383166024820152604481018290526126e490849063a9059cbb60e01b906064015b60408051601f198184030181529190526020810180516001600160e01b03166001600160e01b031990931692909217909152614b1e565b61423f8282614bf0565b610103546000908152610134602052604090206134f6906149b78361465e565b6040516001600160a01b03808516602483015283166044820152606481018290526134f69085906323b872dd60e01b906084016141fe565b6000610c186142a4613b62565b8360405161190160f01b6020820152602281018390526042810182905260009060620160405160208183030381529060405280519060200120905092915050565b60008060006142f687878787614d0e565b915091506125fa81614dd2565b6001600160a01b038116600090815261010f602052604090208054600181018255905b50919050565b614337838383614f20565b6001600160a01b03838116600090815261013160205260408082205485841683529120546126e4929182169116836149c3565b6000670de0b6b3a76400006001600160c01b038416111561438a57600080fd5b8165ffffffffffff16600114156143a2575081610c18565b6001600160c01b038316670de0b6b3a764000014806143c7575065ffffffffffff8216155b156143db5750670de0b6b3a7640000610c18565b60006143f8670de0b6b3a76400006001600160c01b038616615949565b90506ec097ce7bc90715b34b9f10000000005b6001808516141561445b576ec097ce7bc90715b34b9f1000000000614431600282615cc0565b6001600160801b03166144448484615949565b61444e9190615968565b6144589190615996565b90505b60018465ffffffffffff1611614470576144c8565b60019390931c657fffffffffff16926ec097ce7bc90715b34b9f100000000061449a600282615cc0565b6001600160801b03166144ad8480615949565b6144b79190615968565b6144c19190615996565b915061440b565b6144e26144dd670de0b6b3a764000083615996565b614f72565b95945050505050565b6001600160a01b03821661454b5760405162461bcd60e51b815260206004820152602160248201527f45524332303a206275726e2066726f6d20746865207a65726f206164647265736044820152607360f81b6064820152608401610ce4565b610103546000908152610104602090815260408083206001600160a01b03861684529182905290912054828110156145d05760405162461bcd60e51b815260206004820152602260248201527f45524332303a206275726e20616d6f756e7420657863656564732062616c616e604482015261636560f01b6064820152608401610ce4565b6001600160a01b0384166000908152602083905260408120848303905561010580548592906146009084906159aa565b90915550506040518381526000906001600160a01b038616907fddf252ad1be2c89b69c2b068fc378daa952ba7f163c4a11628f55a4df523b3ef9060200160405180910390a36134f68460008561432c565b6000610c3a82846159aa565b8254600090819080156146a957856146776001836159aa565b8154811061468757614687615b92565b60009182526020909120600160029092020101546001600160e01b03166146ac565b60005b6001600160e01b031692506146c583858763ffffffff16565b915060008111801561470a575043866146df6001846159aa565b815481106146ef576146ef615b92565b600091825260209091206002909102015465ffffffffffff16145b1561476e5761471882614f9c565b866147246001846159aa565b8154811061473457614734615b92565b906000526020600020906002020160010160006101000a8154816001600160e01b0302191690836001600160e01b031602179055506147fe565b856040518060400160405280614783436140cc565b65ffffffffffff16815260200161479985614f9c565b6001600160e01b0390811690915282546001808201855560009485526020948590208451600290930201805465ffffffffffff191665ffffffffffff90931692909217825592909301519290910180546001600160e01b031916929091169190911790555b50935093915050565b6001600160a01b0381163b6148745760405162461bcd60e51b815260206004820152602d60248201527f455243313936373a206e657720696d706c656d656e746174696f6e206973206e60448201526c1bdd08184818dbdb9d1c9858dd609a1b6064820152608401610ce4565b600080516020615d0d83398151915280546001600160a01b0319166001600160a01b0392909216919091179055565b6148ac83615005565b6000825111806148b95750805b156126e4576134f68383615045565b60006148d76002848418615996565b610c3a90848416615968565b600054610100900460ff16610cf55760405162461bcd60e51b8152600401610ce490615c5a565b600054610100900460ff166149315760405162461bcd60e51b8152600401610ce490615c5a565b81516020928301208151919092012060c99190915560ca55565b600061010681905561010581905561010780546001600160c01b031916670de0b6b3a764000017905561010380549161498383615ca5565b9091555050610103546040517fdeba711e99fd7b5e4c3791cdf72d3b4af968d7bff093b505fba2ab5a967bc49390600090a2565b6000610c3a8284615968565b816001600160a01b0316836001600160a01b0316141580156149e55750600081115b156126e4576001600160a01b03831615614a8257610103546000908152610133602090815260408083206001600160a01b038716845290915281208190614a2f906146528561465e565b91509150846001600160a01b03167fdec2bacdd2f05b59de34da9b523dff8be42e5e38e818c82fdb0bae774387a7248383604051614a77929190918252602082015260400190565b60405180910390a250505b6001600160a01b038216156126e457610103546000908152610133602090815260408083206001600160a01b038616845290915281208190614ac7906149b78561465e565b91509150836001600160a01b03167fdec2bacdd2f05b59de34da9b523dff8be42e5e38e818c82fdb0bae774387a7248383604051614b0f929190918252602082015260400190565b60405180910390a25050505050565b6000614b73826040518060400160405280602081526020017f5361666545524332303a206c6f772d6c6576656c2063616c6c206661696c6564815250856001600160a01b03166151309092919063ffffffff16565b8051909150156126e45780806020019051810190614b9191906158bf565b6126e45760405162461bcd60e51b815260206004820152602a60248201527f5361666545524332303a204552433230206f7065726174696f6e20646964206e6044820152691bdd081cdd58d8d9595960b21b6064820152608401610ce4565b6001600160a01b038216614c465760405162461bcd60e51b815260206004820152601f60248201527f45524332303a206d696e7420746f20746865207a65726f2061646472657373006044820152606401610ce4565b610105546001600160e01b0390614c5e908390615968565b10614c6b57614c6b615cda565b610103546000908152610104602090815260408083206001600160a01b038616845290915281208054839290614ca2908490615968565b92505081905550806101056000828254614cbc9190615968565b90915550506040518181526001600160a01b038316906000907fddf252ad1be2c89b69c2b068fc378daa952ba7f163c4a11628f55a4df523b3ef9060200160405180910390a36117836000838361432c565b6000807f7fffffffffffffffffffffffffffffff5d576e7357a4501ddfe92f46681b20a0831115614d455750600090506003614dc9565b6040805160008082526020820180845289905260ff881692820192909252606081018690526080810185905260019060a0016020604051602081039080840390855afa158015614d99573d6000803e3d6000fd5b5050604051601f1901519150506001600160a01b038116614dc257600060019250925050614dc9565b9150600090505b94509492505050565b6000816004811115614de657614de6615ba8565b1415614def5750565b6001816004811115614e0357614e03615ba8565b1415614e515760405162461bcd60e51b815260206004820152601860248201527f45434453413a20696e76616c6964207369676e617475726500000000000000006044820152606401610ce4565b6002816004811115614e6557614e65615ba8565b1415614eb35760405162461bcd60e51b815260206004820152601f60248201527f45434453413a20696e76616c6964207369676e6174757265206c656e677468006044820152606401610ce4565b6003816004811115614ec757614ec7615ba8565b14156110305760405162461bcd60e51b815260206004820152602260248201527f45434453413a20696e76616c6964207369676e6174757265202773272076616c604482015261756560f01b6064820152608401610ce4565b6001600160a01b0382163014156126e45760405162461bcd60e51b815260206004820152601660248201527529ba2929a9103a3930b739b332b9103a379039b2b63360511b6044820152606401610ce4565b60006001600160c01b038211156141335760405163f44398f560e01b815260040160405180910390fd5b60006001600160e01b038211156141335760405162461bcd60e51b815260206004820152602760248201527f53616665436173743a2076616c756520646f65736e27742066697420696e20326044820152663234206269747360c81b6064820152608401610ce4565b61500e81614807565b6040516001600160a01b038216907fbc7cd75a20ee27fd9adebab32041f755214dbc6bffa90cc0225b39da2e5c2d3b90600090a250565b60606001600160a01b0383163b6150ad5760405162461bcd60e51b815260206004820152602660248201527f416464726573733a2064656c65676174652063616c6c20746f206e6f6e2d636f6044820152651b9d1c9858dd60d21b6064820152608401610ce4565b600080846001600160a01b0316846040516150c89190615cf0565b600060405180830381855af49150503d8060008114615103576040519150601f19603f3d011682016040523d82523d6000602084013e615108565b606091505b50915091506144e28282604051806060016040528060278152602001615d2d6027913961513f565b60606110dc8484600085615158565b6060831561514e575081610c3a565b610c3a8383615233565b6060824710156151b95760405162461bcd60e51b815260206004820152602660248201527f416464726573733a20696e73756666696369656e742062616c616e636520666f6044820152651c8818d85b1b60d21b6064820152608401610ce4565b600080866001600160a01b031685876040516151d59190615cf0565b60006040518083038185875af1925050503d8060008114615212576040519150601f19603f3d011682016040523d82523d6000602084013e615217565b606091505b50915091506152288783838761525d565b979650505050505050565b8151156152435781518083602001fd5b8060405162461bcd60e51b8152600401610ce4919061538f565b606083156152c95782516152c2576001600160a01b0385163b6152c25760405162461bcd60e51b815260206004820152601d60248201527f416464726573733a2063616c6c20746f206e6f6e2d636f6e74726163740000006044820152606401610ce4565b50816110dc565b6110dc8383615233565b8280546152df9061588a565b90600052602060002090601f0160209004810192826153015760008555615347565b82601f1061531a5782800160ff19823516178555615347565b82800160010185558215615347579182015b8281111561534757823582559160200191906001019061532c565b506141339291505b80821115614133576000815560010161534f565b60005b8381101561537e578181015183820152602001615366565b838111156134f65750506000910152565b60208152600082518060208401526153ae816040850160208701615363565b601f01601f19169190910160400192915050565b6001600160a01b038116811461103057600080fd5b600080604083850312156153ea57600080fd5b82356153f5816153c2565b946020939093013593505050565b60008060006060848603121561541857600080fd5b8335615423816153c2565b92506020840135615433816153c2565b929592945050506040919091013590565b60006020828403121561545657600080fd5b5035919050565b60006020828403121561546f57600080fd5b8135610c3a816153c2565b60008083601f84011261548c57600080fd5b5081356001600160401b038111156154a357600080fd5b6020830191508360208285010111156154bb57600080fd5b9250929050565b803565ffffffffffff811681146154d857600080fd5b919050565b80356001600160c01b03811681146154d857600080fd5b60008060008060008060008060c0898b03121561551057600080fd5b883561551b816153c2565b975060208901356001600160401b038082111561553757600080fd5b6155438c838d0161547a565b909950975060408b013591508082111561555c57600080fd5b506155698b828c0161547a565b909650945061557c905060608a016154c2565b925061558a60808a016154c2565b915061559860a08a016154dd565b90509295985092959890939650565b634e487b7160e01b600052604160045260246000fd5b600080604083850312156155d057600080fd5b82356155db816153c2565b915060208301356001600160401b03808211156155f757600080fd5b818501915085601f83011261560b57600080fd5b81358181111561561d5761561d6155a7565b604051601f8201601f19908116603f01168101908382118183101715615645576156456155a7565b8160405282815288602084870101111561565e57600080fd5b8260208601602083013760006020848301015280955050505050509250929050565b6000806040838503121561569357600080fd5b8235915060208301356156a5816153c2565b809150509250929050565b6000806000606084860312156156c557600080fd5b833592506020840135615433816153c2565b6000602082840312156156e957600080fd5b610c3a826154c2565b6000806040838503121561570557600080fd5b8235615710816153c2565b915061571e602084016154c2565b90509250929050565b6000806020838503121561573a57600080fd5b82356001600160401b0381111561575057600080fd5b61575c8582860161547a565b90969095509350505050565b803560ff811681146154d857600080fd5b60008060008060008060c0878903121561579257600080fd5b863561579d816153c2565b955060208701359450604087013593506157b960608801615768565b92506080870135915060a087013590509295509295509295565b600080600080600080600060e0888a0312156157ee57600080fd5b87356157f9816153c2565b96506020880135615809816153c2565b9550604088013594506060880135935061582560808901615768565b925060a0880135915060c0880135905092959891949750929550565b60006020828403121561585357600080fd5b610c3a826154dd565b6000806040838503121561586f57600080fd5b823561587a816153c2565b915060208301356156a5816153c2565b600181811c9082168061589e57607f821691505b6020821081141561432657634e487b7160e01b600052602260045260246000fd5b6000602082840312156158d157600080fd5b81518015158114610c3a57600080fd5b60208082526010908201526f3830bab9b2b21037b910333937bd32b760811b604082015260600190565b634e487b7160e01b600052601160045260246000fd5b60006001600160c01b03838116908316818110156159415761594161590b565b039392505050565b60008160001904831182151516156159635761596361590b565b500290565b6000821982111561597b5761597b61590b565b500190565b634e487b7160e01b600052601260045260246000fd5b6000826159a5576159a5615980565b500490565b6000828210156159bc576159bc61590b565b500390565b6020808252602c908201527f46756e6374696f6e206d7573742062652063616c6c6564207468726f7567682060408201526b19195b1959d85d1958d85b1b60a21b606082015260800190565b6020808252602c908201527f46756e6374696f6e206d7573742062652063616c6c6564207468726f7567682060408201526b6163746976652070726f787960a01b606082015260800190565b6020808252601f908201527f4552433230566f7465733a20626c6f636b206e6f7420796574206d696e656400604082015260600190565b60006001600160c01b0383811680615aaa57615aaa615980565b92169190910492915050565b60006001600160c01b03828116848216808303821115615ad857615ad861590b565b01949350505050565b600060208284031215615af357600080fd5b8151610c3a816153c2565b600060208284031215615b1057600080fd5b5051919050565b805160208083015191908110156143265760001960209190910360031b1b16919050565b6020808252600f908201526e676f7665726e616e6365206f6e6c7960881b604082015260600190565b600065ffffffffffff80831681851681830481118215151615615b8957615b8961590b565b02949350505050565b634e487b7160e01b600052603260045260246000fd5b634e487b7160e01b600052602160045260246000fd5b600060208284031215615bd057600080fd5b815160038110610c3a57600080fd5b600065ffffffffffff808316818516808303821115615ad857615ad861590b565b600065ffffffffffff838116908316818110156159415761594161590b565b600065ffffffffffff80841680615aaa57615aaa615980565b60006001600160401b03808316818516808303821115615ad857615ad861590b565b6020808252602b908201527f496e697469616c697a61626c653a20636f6e7472616374206973206e6f74206960408201526a6e697469616c697a696e6760a81b606082015260800190565b6000600019821415615cb957615cb961590b565b5060010190565b60006001600160801b0380841680615aaa57615aaa615980565b634e487b7160e01b600052600160045260246000fd5b60008251615d02818460208701615363565b919091019291505056fe360894a13ba1a3210667c828492db98dca3e2076cc3735a920a3ca505d382bbc416464726573733a206c6f772d6c6576656c2064656c65676174652063616c6c206661696c6564a2646970667358221220188b51b2c60cdca212b7d849af26829e57fbf33ffd6d3456e274e1c2556a6c5164736f6c63430008090033",
  "linkReferences": {
    "contracts/reserve/libraries/Permit.sol": {
      "PermitLib": [
        {
          "length": 20,
          "start": 11087
        }
      ]
    }
  },
  "deployedLinkReferences": {
    "contracts/reserve/libraries/Permit.sol": {
      "PermitLib": [
        {
          "length": 20,
          "start": 10695
        }
      ]
    }
  }
}