{
  "_format": "hh-sol-artifact-1",
  "contractName": "GnosisMock",
  "sourceName": "contracts/reserve/plugins/mocks/GnosisMock.sol",
  "abi": [
    {
      "inputs": [
        {
          "internalType": "uint256",
          "name": "auctionId",
          "type": "uint256"
        }
      ],
      "name": "auctionData",
      "outputs": [
        {
          "components": [
            {
              "internalType": "contract IERC20",
              "name": "auctioningToken",
              "type": "address"
            },
            {
              "internalType": "contract IERC20",
              "name": "biddingToken",
              "type": "address"
            },
            {
              "internalType": "uint256",
              "name": "orderCancellationEndDate",
              "type": "uint256"
            },
            {
              "internalType": "uint256",
              "name": "auctionEndDate",
              "type": "uint256"
            },
            {
              "internalType": "bytes32",
              "name": "initialAuctionOrder",
              "type": "bytes32"
            },
            {
              "internalType": "uint256",
              "name": "minimumBiddingAmountPerOrder",
              "type": "uint256"
            },
            {
              "internalType": "uint256",
              "name": "interimSumBidAmount",
              "type": "uint256"
            },
            {
              "internalType": "bytes32",
              "name": "interimOrder",
              "type": "bytes32"
            },
            {
              "internalType": "bytes32",
              "name": "clearingPriceOrder",
              "type": "bytes32"
            },
            {
              "internalType": "uint96",
              "name": "volumeClearingPriceOrder",
              "type": "uint96"
            },
            {
              "internalType": "bool",
              "name": "minFundingThresholdNotReached",
              "type": "bool"
            },
            {
              "internalType": "bool",
              "name": "isAtomicClosureAllowed",
              "type": "bool"
            },
            {
              "internalType": "uint256",
              "name": "feeNumerator",
              "type": "uint256"
            },
            {
              "internalType": "uint256",
              "name": "minFundingThreshold",
              "type": "uint256"
            }
          ],
          "internalType": "struct GnosisAuctionData",
          "name": "data",
          "type": "tuple"
        }
      ],
      "stateMutability": "view",
      "type": "function"
    },
    {
      "inputs": [
        {
          "internalType": "uint256",
          "name": "",
          "type": "uint256"
        }
      ],
      "name": "auctions",
      "outputs": [
        {
          "internalType": "address",
          "name": "origin",
          "type": "address"
        },
        {
          "internalType": "contract IERC20",
          "name": "sell",
          "type": "address"
        },
        {
          "internalType": "contract IERC20",
          "name": "buy",
          "type": "address"
        },
        {
          "internalType": "uint256",
          "name": "sellAmount",
          "type": "uint256"
        },
        {
          "internalType": "uint256",
          "name": "minBuyAmount",
          "type": "uint256"
        },
        {
          "internalType": "uint256",
          "name": "startTime",
          "type": "uint256"
        },
        {
          "internalType": "uint256",
          "name": "endTime",
          "type": "uint256"
        },
        {
          "internalType": "enum MauctionStatus",
          "name": "status",
          "type": "uint8"
        },
        {
          "internalType": "bytes32",
          "name": "encodedClearingOrder",
          "type": "bytes32"
        }
      ],
      "stateMutability": "view",
      "type": "function"
    },
    {
      "inputs": [
        {
          "internalType": "uint256",
          "name": "",
          "type": "uint256"
        }
      ],
      "name": "bids",
      "outputs": [
        {
          "internalType": "address",
          "name": "bidder",
          "type": "address"
        },
        {
          "internalType": "uint256",
          "name": "sellAmount",
          "type": "uint256"
        },
        {
          "internalType": "uint256",
          "name": "buyAmount",
          "type": "uint256"
        }
      ],
      "stateMutability": "view",
      "type": "function"
    },
    {
      "inputs": [],
      "name": "feeNumerator",
      "outputs": [
        {
          "internalType": "uint256",
          "name": "",
          "type": "uint256"
        }
      ],
      "stateMutability": "view",
      "type": "function"
    },
    {
      "inputs": [
        {
          "internalType": "contract IERC20",
          "name": "auctioningToken",
          "type": "address"
        },
        {
          "internalType": "contract IERC20",
          "name": "biddingToken",
          "type": "address"
        },
        {
          "internalType": "uint256",
          "name": "",
          "type": "uint256"
        },
        {
          "internalType": "uint256",
          "name": "auctionEndDate",
          "type": "uint256"
        },
        {
          "internalType": "uint96",
          "name": "auctionedSellAmount",
          "type": "uint96"
        },
        {
          "internalType": "uint96",
          "name": "minBuyAmount",
          "type": "uint96"
        },
        {
          "internalType": "uint256",
          "name": "",
          "type": "uint256"
        },
        {
          "internalType": "uint256",
          "name": "",
          "type": "uint256"
        },
        {
          "internalType": "bool",
          "name": "",
          "type": "bool"
        },
        {
          "internalType": "address",
          "name": "",
          "type": "address"
        },
        {
          "internalType": "bytes",
          "name": "",
          "type": "bytes"
        }
      ],
      "name": "initiateAuction",
      "outputs": [
        {
          "internalType": "uint256",
          "name": "auctionId",
          "type": "uint256"
        }
      ],
      "stateMutability": "nonpayable",
      "type": "function"
    },
    {
      "inputs": [],
      "name": "numAuctions",
      "outputs": [
        {
          "internalType": "uint256",
          "name": "",
          "type": "uint256"
        }
      ],
      "stateMutability": "view",
      "type": "function"
    },
    {
      "inputs": [
        {
          "internalType": "uint256",
          "name": "auctionId",
          "type": "uint256"
        },
        {
          "components": [
            {
              "internalType": "address",
              "name": "bidder",
              "type": "address"
            },
            {
              "internalType": "uint256",
              "name": "sellAmount",
              "type": "uint256"
            },
            {
              "internalType": "uint256",
              "name": "buyAmount",
              "type": "uint256"
            }
          ],
          "internalType": "struct Bid",
          "name": "bid",
          "type": "tuple"
        }
      ],
      "name": "placeBid",
      "outputs": [],
      "stateMutability": "nonpayable",
      "type": "function"
    },
    {
      "inputs": [
        {
          "internalType": "uint256",
          "name": "auctionId",
          "type": "uint256"
        }
      ],
      "name": "settleAuction",
      "outputs": [
        {
          "internalType": "bytes32",
          "name": "encodedOrder",
          "type": "bytes32"
        }
      ],
      "stateMutability": "nonpayable",
      "type": "function"
    }
  ],
  "bytecode": "0x608060405234801561001057600080fd5b50610f73806100206000396000f3fe608060405234801561001057600080fd5b50600436106100885760003560e01c8063571a26a01161005b578063571a26a0146101455780635c113acc1461016d578063b5b50f5c14610175578063e86dea4a1461018a57600080fd5b80630a4cd6c91461008d5780632e993611146100b35780634423c5f1146100c657806355fc62d214610125575b600080fd5b6100a061009b366004610b89565b610192565b6040519081526020015b60405180910390f35b6100a06100c1366004610c58565b610360565b6101006100d4366004610c58565b60016020819052600091825260409091208054918101546002909101546001600160a01b039092169183565b604080516001600160a01b0390941684526020840192909252908201526060016100aa565b610138610133366004610c58565b610556565b6040516100aa9190610c71565b610158610153366004610c58565b610623565b6040516100aa99989796959493929190610d50565b6000546100a0565b610188610183366004610dc3565b610694565b005b6100a0600081565b600080886001600160601b0316116101e75760405162461bcd60e51b815260206004820152601360248201527273656c6c20616d6f756e74206973207a65726f60681b60448201526064015b60405180910390fd5b506000546102096001600160a01b038d1633306001600160601b038c166107cf565b6000604051806101200160405280336001600160a01b031681526020018e6001600160a01b031681526020018d6001600160a01b031681526020018a6001600160601b03168152602001896001600160601b031681526020014281526020018b81526020016001600281111561028157610281610d3a565b81526000602091820181905283546001808201865594825290829020835160099092020180546001600160a01b03199081166001600160a01b0393841617825592840151818601805485169184169190911790556040840151600280830180549095169190931617909255606083015160038301556080830151600483015560a0830151600583015560c0830151600683015560e0830151600783018054949593949193909260ff1990921691849081111561033f5761033f610d3a565b0217905550610100820151816008015550509b9a5050505050505050505050565b6000806000838154811061037657610376610e43565b9060005260206000209060090201905042816006015411156103da5760405162461bcd60e51b815260206004820152601a60248201527f746f6f206561726c7920746f20636c6f73652061756374696f6e00000000000060448201526064016101de565b6001600782015460ff1660028111156103f5576103f5610d3a565b1461043b5760405162461bcd60e51b8152602060048201526016602482015275185d58dd1a5bdb88185b1c9958591e4818db1bdcd95960521b60448201526064016101de565b60078101805460ff1916600217905560006006820181905583815260016020526040902080546001600160a01b03166104b257815460038301546001840154610492926001600160a01b0391821692911690610840565b6104a3600083600301546000610875565b60089092018290555092915050565b8054600180830154908401546104d6926001600160a01b0391821692911690610840565b8154600280830154908401546104fa926001600160a01b0391821692911690610840565b80600101548260030154111561054257815460018201546003840154610542926001600160a01b03169161052d91610e6f565b60018501546001600160a01b03169190610840565b6104a3600082600101548360020154610875565b604080516101c081018252600080825260208201819052918101829052606081018290526080810182905260a0810182905260c0810182905260e08101829052610100810182905261012081018290526101408101829052610160810182905261018081018290526101a0810191909152600082815481106105da576105da610e43565b60009182526020822060066009909202010154606083015280548390811061060457610604610e43565b6000918252602090912060086009909202010154610100820152919050565b6000818154811061063357600080fd5b60009182526020909120600990910201805460018201546002830154600384015460048501546005860154600687015460078801546008909801546001600160a01b0397881699509587169794909616959294919390929160ff9091169089565b600082815481106106a7576106a7610e43565b906000526020600020906009020160030154816020015111156106ff5760405162461bcd60e51b815260206004820152601060248201526f1a5b9d985b1a5908189a59081cd95b1b60821b60448201526064016101de565b60008160400151116107455760405162461bcd60e51b815260206004820152600f60248201526e1e995c9bc81d9bdb1d5b5948189a59608a1b60448201526064016101de565b61078b81600001513083604001516000868154811061076657610766610e43565b60009182526020909120600260099092020101546001600160a01b03169291906107cf565b600091825260016020818152604093849020835181546001600160a01b0319166001600160a01b039091161781559083015191810191909155910151600290910155565b6040516001600160a01b038085166024830152831660448201526064810182905261083a9085906323b872dd60e01b906084015b60408051601f198184030181529190526020810180516001600160e01b03166001600160e01b03199093169290921790915261089c565b50505050565b6040516001600160a01b03831660248201526044810182905261087090849063a9059cbb60e01b90606401610803565b505050565b60008161088a606085901b60c087901b610e86565b6108949190610e86565b949350505050565b60006108f1826040518060400160405280602081526020017f5361666545524332303a206c6f772d6c6576656c2063616c6c206661696c6564815250856001600160a01b031661096e9092919063ffffffff16565b805190915015610870578080602001905181019061090f9190610e9e565b6108705760405162461bcd60e51b815260206004820152602a60248201527f5361666545524332303a204552433230206f7065726174696f6e20646964206e6044820152691bdd081cdd58d8d9595960b21b60648201526084016101de565b6060610894848460008585600080866001600160a01b031685876040516109959190610eee565b60006040518083038185875af1925050503d80600081146109d2576040519150601f19603f3d011682016040523d82523d6000602084013e6109d7565b606091505b50915091506109e8878383876109f3565b979650505050505050565b60608315610a5f578251610a58576001600160a01b0385163b610a585760405162461bcd60e51b815260206004820152601d60248201527f416464726573733a2063616c6c20746f206e6f6e2d636f6e747261637400000060448201526064016101de565b5081610894565b6108948383815115610a745781518083602001fd5b8060405162461bcd60e51b81526004016101de9190610f0a565b6001600160a01b0381168114610aa357600080fd5b50565b8035610ab181610a8e565b919050565b80356001600160601b0381168114610ab157600080fd5b8015158114610aa357600080fd5b8035610ab181610acd565b634e487b7160e01b600052604160045260246000fd5b600082601f830112610b0d57600080fd5b813567ffffffffffffffff80821115610b2857610b28610ae6565b604051601f8301601f19908116603f01168101908282118183101715610b5057610b50610ae6565b81604052838152866020858801011115610b6957600080fd5b836020870160208301376000602085830101528094505050505092915050565b60008060008060008060008060008060006101608c8e031215610bab57600080fd5b8b35610bb681610a8e565b9a5060208c0135610bc681610a8e565b995060408c0135985060608c01359750610be260808d01610ab6565b9650610bf060a08d01610ab6565b955060c08c0135945060e08c01359350610c0d6101008d01610adb565b9250610c1c6101208d01610aa6565b91506101408c013567ffffffffffffffff811115610c3957600080fd5b610c458e828f01610afc565b9150509295989b509295989b9093969950565b600060208284031215610c6a57600080fd5b5035919050565b81516001600160a01b031681526101c081016020830151610c9d60208401826001600160a01b03169052565b5060408301516040830152606083015160608301526080830151608083015260a083015160a083015260c083015160c083015260e083015160e083015261010080840151818401525061012080840151610d01828501826001600160601b03169052565b5050610140838101511515908301526101608084015115159083015261018080840151908301526101a092830151929091019190915290565b634e487b7160e01b600052602160045260246000fd5b6001600160a01b038a81168252898116602083015288166040820152606081018790526080810186905260a0810185905260c08101849052610120810160038410610dab57634e487b7160e01b600052602160045260246000fd5b60e08201939093526101000152979650505050505050565b6000808284036080811215610dd757600080fd5b833592506060601f1982011215610ded57600080fd5b506040516060810181811067ffffffffffffffff82111715610e1157610e11610ae6565b6040526020840135610e2281610a8e565b81526040848101356020830152606090940135938101939093525092909150565b634e487b7160e01b600052603260045260246000fd5b634e487b7160e01b600052601160045260246000fd5b600082821015610e8157610e81610e59565b500390565b60008219821115610e9957610e99610e59565b500190565b600060208284031215610eb057600080fd5b8151610ebb81610acd565b9392505050565b60005b83811015610edd578181015183820152602001610ec5565b8381111561083a5750506000910152565b60008251610f00818460208701610ec2565b9190910192915050565b6020815260008251806020840152610f29816040850160208701610ec2565b601f01601f1916919091016040019291505056fea26469706673582212200cc170c4769384b32b612d00445c249cfb0f10f0c629b19077d352910f957b0264736f6c63430008090033",
  "linkReferences": {},
  "deployedLinkReferences": {}
}