{
  "_format": "hh-sol-artifact-1",
  "contractName": "SelfdestructTransfer",
  "sourceName": "contracts/reserve/plugins/mocks/SelfdestructTransferMock.sol",
  "abi": [
    {
      "inputs": [
        {
          "internalType": "address payable",
          "name": "to",
          "type": "address"
        }
      ],
      "name": "destroyAndTransfer",
      "outputs": [],
      "stateMutability": "payable",
      "type": "function"
    }
  ],
  "bytecode": "0x6080604052348015600f57600080fd5b5060a28061001e6000396000f3fe608060405260043610601c5760003560e01c8063785e07b3146021575b600080fd5b6030602c366004603e565b6032565b005b806001600160a01b0316ff5b600060208284031215604f57600080fd5b81356001600160a01b0381168114606557600080fd5b939250505056fea2646970667358221220ffe2958a1c8aab394529095393fa70ce281b308c6b4b624dd3054e19118d7e8d64736f6c63430008090033",
  "linkReferences": {},
  "deployedLinkReferences": {}
}