{
  "_format": "hh-sol-artifact-1",
  "contractName": "TradingLibP0",
  "sourceName": "contracts/reserve/p0/mixins/TradingLib.sol",
  "abi": [
    {
      "inputs": [],
      "name": "UIntOutOfBounds",
      "type": "error"
    },
    {
      "inputs": [
        {
          "internalType": "contract IBackingManager",
          "name": "bm",
          "type": "IBackingManager"
        }
      ],
      "name": "prepareRecollateralizationTrade",
      "outputs": [
        {
          "internalType": "bool",
          "name": "doTrade",
          "type": "bool"
        },
        {
          "components": [
            {
              "internalType": "contract IAsset",
              "name": "sell",
              "type": "IAsset"
            },
            {
              "internalType": "contract IAsset",
              "name": "buy",
              "type": "IAsset"
            },
            {
              "internalType": "uint256",
              "name": "sellAmount",
              "type": "uint256"
            },
            {
              "internalType": "uint256",
              "name": "minBuyAmount",
              "type": "uint256"
            }
          ],
          "internalType": "struct TradeRequest",
          "name": "req",
          "type": "tuple"
        }
      ],
      "stateMutability": "view",
      "type": "function"
    }
  ],
  "bytecode": "0x612c4a61003a600b82828239805160001a60731461002d57634e487b7160e01b600052600060045260246000fd5b30600052607381538281f3fe73000000000000000000000000000000000000000030146080604052600436106100355760003560e01c80636178830e1461003a575b600080fd5b61004d610048366004612773565b610093565b60408051921515835281516001600160a01b0390811660208086019190915283015116838201528101516060808401919091520151608082015260a00160405180910390f35b600061009d612721565b6000836001600160a01b031663dffeadd06040518163ffffffff1660e01b815260040160206040518083038186803b1580156100d857600080fd5b505afa1580156100ec573d6000803e3d6000fd5b505050506040513d601f19601f820116820180604052508101906101109190612790565b905060006040518060c00160405280866001600160a01b03168152602001836001600160a01b0316632f2439b16040518163ffffffff1660e01b815260040160206040518083038186803b15801561016757600080fd5b505afa15801561017b573d6000803e3d6000fd5b505050506040513d601f19601f8201168201806040525081019061019f9190612790565b6001600160a01b03168152602001836001600160a01b031663979d7e866040518163ffffffff1660e01b815260040160206040518083038186803b1580156101e657600080fd5b505afa1580156101fa573d6000803e3d6000fd5b505050506040513d601f19601f8201168201806040525081019061021e9190612790565b6001600160a01b03168152602001836001600160a01b0316634780a5e56040518163ffffffff1660e01b815260040160206040518083038186803b15801561026557600080fd5b505afa158015610279573d6000803e3d6000fd5b505050506040513d601f19601f8201168201806040525081019061029d9190612790565b6001600160a01b03168152602001836001600160a01b031663c99dc3dd6040518163ffffffff1660e01b815260040160206040518083038186803b1580156102e457600080fd5b505afa1580156102f8573d6000803e3d6000fd5b505050506040513d601f19601f8201168201806040525081019061031c9190612790565b6001600160a01b03168152602001836001600160a01b03166340c65f726040518163ffffffff1660e01b815260040160206040518083038186803b15801561036357600080fd5b505afa158015610377573d6000803e3d6000fd5b505050506040513d601f19601f8201168201806040525081019061039b9190612790565b6001600160a01b0316815250905060006040518060400160405280876001600160a01b0316637cbf6db26040518163ffffffff1660e01b815260040160206040518083038186803b1580156103ef57600080fd5b505afa158015610403573d6000803e3d6000fd5b505050506040513d601f19601f8201168201806040525081019061042791906127d4565b6001600160c01b03168152602001876001600160a01b0316630db3d42c6040518163ffffffff1660e01b815260040160206040518083038186803b15801561046e57600080fd5b505afa158015610482573d6000803e3d6000fd5b505050506040513d601f19601f820116820180604052508101906104a691906127d4565b6001600160c01b03168152509050600082604001516001600160a01b0316632510a1d76040518163ffffffff1660e01b815260040160006040518083038186803b1580156104f357600080fd5b505afa158015610507573d6000803e3d6000fd5b505050506040513d6000823e601f3d908101601f1916820160405261052f9190810190612805565b9050600061053e8484846106e4565b9050600061054e858585856108ff565b80519091506001600160a01b03161580610573575060208101516001600160a01b0316155b156105875760009750505050505050915091565b60808101516001600160c01b031615806106a3575080600001516001600160a01b031663c59b3d636040518163ffffffff1660e01b815260040160206040518083038186803b1580156105d957600080fd5b505afa1580156105ed573d6000803e3d6000fd5b505050506040513d601f19601f8201168201806040525081019061061191906128ca565b80156106a35750600081600001516001600160a01b031663200d2ed26040518163ffffffff1660e01b815260040160206040518083038186803b15801561065757600080fd5b505afa15801561066b573d6000803e3d6000fd5b505050506040513d601f19601f8201168201806040525081019061068f9190612902565b60028111156106a0576106a06128ec565b14155b156106bc576106b28185611321565b90985096506106cc565b6106c68185611622565b90985096505b876106d9576106d9612923565b505050505050915091565b604080518082019091526000808252602082015260008085602001516001600160a01b031663a035b1fe6040518163ffffffff1660e01b8152600401604080518083038186803b15801561073757600080fd5b505afa15801561074b573d6000803e3d6000fd5b505050506040513d601f19601f8201168201806040525081019061076f9190612939565b91509150600080610781888888611746565b91509150600061081882610813868c60a001516001600160a01b0316637121c2736040518163ffffffff1660e01b815260040160206040518083038186803b1580156107cc57600080fd5b505afa1580156107e0573d6000803e3d6000fd5b505050506040513d601f19601f8201168201806040525081019061080491906127d4565b6001600160c01b031690611cfe565b611d15565b905060006108288a898488611d3d565b60208a01519091506000906108759061084a90670de0b6b3a764000090612045565b60208c0151600290610865906001600160c01b031686611cfe565b6001600160c01b03169190612051565b905060006001600160c01b03808316908716116108935760006108af565b6108af6108a96001600160c01b03881684612045565b85611d15565b90506108c66001600160c01b038516896002612051565b6001600160c01b039081168a526108e1908216886002612051565b6001600160c01b031660208a015250969a9950505050505050505050565b6040805160c0810182526000808252602080830182905282840182905260608084018390526080840183905260a084018390528451908101855282815290810182905292830152906001815260005b84518110156110215786608001516001600160a01b03168582815181106109775761097761296c565b60200260200101516001600160a01b0316141561099357611011565b600087604001516001600160a01b031663cde2be8a8784815181106109ba576109ba61296c565b60200260200101516040518263ffffffff1660e01b81526004016109ed91906001600160a01b0391909116815260200190565b60206040518083038186803b158015610a0557600080fd5b505afa158015610a19573d6000803e3d6000fd5b505050506040513d601f19601f82011682018060405250810190610a3d9190612790565b8851604051632ac07b9560e11b81526001600160a01b03918216600482015291925060009190831690635580f72a9060240160206040518083038186803b158015610a8757600080fd5b505afa158015610a9b573d6000803e3d6000fd5b505050506040513d601f19601f82011682018060405250810190610abf91906127d4565b90506000610b818a602001516001600160a01b031663a5a5828c8a8781518110610aeb57610aeb61296c565b60200260200101516040518263ffffffff1660e01b8152600401610b1e91906001600160a01b0391909116815260200190565b60206040518083038186803b158015610b3657600080fd5b505afa158015610b4a573d6000803e3d6000fd5b505050506040513d601f19601f82011682018060405250810190610b6e91906127d4565b88516001600160c01b03169060026120a4565b90506001600160c01b038082169083161115610e38576000836001600160a01b031663a035b1fe6040518163ffffffff1660e01b8152600401604080518083038186803b158015610bd157600080fd5b505afa158015610be5573d6000803e3d6000fd5b505050506040513d601f19601f82011682018060405250810190610c099190612939565b5090506000610c368282610c266001600160c01b03881687612045565b6001600160c01b031691906120a4565b90506000856001600160a01b031663c59b3d636040518163ffffffff1660e01b815260040160206040518083038186803b158015610c7357600080fd5b505afa158015610c87573d6000803e3d6000fd5b505050506040513d601f19601f82011682018060405250810190610cab91906128ca565b15610d2457856001600160a01b031663200d2ed26040518163ffffffff1660e01b815260040160206040518083038186803b158015610ce957600080fd5b505afa158015610cfd573d6000803e3d6000fd5b505050506040513d601f19601f82011682018060405250810190610d219190612902565b90505b610d2f8882846120d1565b8015610dbc5750610dbc8686610db5896001600160a01b031663e28a1b866040518163ffffffff1660e01b815260040160206040518083038186803b158015610d7757600080fd5b505afa158015610d8b573d6000803e3d6000fd5b505050506040513d601f19601f82011682018060405250810190610daf91906127d4565b87612199565b8f516121ba565b15610e30576001600160a01b0386168952610de06001600160c01b03861685612045565b6001600160c01b0390811660408b0152831660808a015287816002811115610e0a57610e0a6128ec565b90816002811115610e1d57610e1d6128ec565b9052506001600160c01b03821660208901525b50505061100d565b610ef98a602001516001600160a01b031663a5a5828c8a8781518110610e6057610e6061296c565b60200260200101516040518263ffffffff1660e01b8152600401610e9391906001600160a01b0391909116815260200190565b60206040518083038186803b158015610eab57600080fd5b505afa158015610ebf573d6000803e3d6000fd5b505050506040513d601f19601f82011682018060405250810190610ee391906127d4565b60208901516001600160c01b03169060026120a4565b90506001600160c01b03808216908316101561100d576000610f246001600160c01b03831684612045565b90506000846001600160a01b031663a035b1fe6040518163ffffffff1660e01b8152600401604080518083038186803b158015610f6057600080fd5b505afa158015610f74573d6000803e3d6000fd5b505050506040513d601f19601f82011682018060405250810190610f989190612939565b915060009050610fb36001600160c01b0384168360026120a4565b9050610fd58860400151826001600160c01b031661209390919063ffffffff16565b15611009576001600160a01b03861660208a01526001600160c01b0380841660608b015282811660a08b0152811660408901525b5050505b5050505b61101a81612998565b905061094e565b5081516001600160a01b0316158015611046575060208201516001600160a01b031615155b1561131857604080870151608088015191516366f15f4560e11b81526001600160a01b0392831660048201526000929091169063cde2be8a9060240160206040518083038186803b15801561109a57600080fd5b505afa1580156110ae573d6000803e3d6000fd5b505050506040513d601f19601f820116820180604052508101906110d29190612790565b6060880151604051632ac07b9560e11b81526001600160a01b0391821660048201529192506000916111e591841690635580f72a9060240160206040518083038186803b15801561112257600080fd5b505afa158015611136573d6000803e3d6000fd5b505050506040513d601f19601f8201168201806040525081019061115a91906127d4565b8951604051632ac07b9560e11b81526001600160a01b03918216600482015290851690635580f72a9060240160206040518083038186803b15801561119e57600080fd5b505afa1580156111b2573d6000803e3d6000fd5b505050506040513d601f19601f820116820180604052508101906111d691906127d4565b6001600160c01b031690612276565b90506000826001600160a01b031663a035b1fe6040518163ffffffff1660e01b8152600401604080518083038186803b15801561122157600080fd5b505afa158015611235573d6000803e3d6000fd5b505050506040513d601f19601f820116820180604052508101906112599190612939565b50905060006112d8846001600160a01b031663e28a1b866040518163ffffffff1660e01b815260040160206040518083038186803b15801561129a57600080fd5b505afa1580156112ae573d6000803e3d6000fd5b505050506040513d601f19601f820116820180604052508101906112d291906127d4565b83612199565b90506112ea8484838c600001516121ba565b15611313576001600160a01b03841686526001600160c01b038084166040880152821660808701525b505050505b50949350505050565b600061132b612721565b60008460a001516001600160c01b0316118015611355575060a08401516001600160c01b03908116105b801561136e575060808401516001600160c01b03908116105b61137a5761137a612923565b60006113fe85600001516001600160a01b031663e28a1b866040518163ffffffff1660e01b815260040160206040518083038186803b1580156113bc57600080fd5b505afa1580156113d0573d6000803e3d6000fd5b505050506040513d601f19601f820116820180604052508101906113f491906127d4565b8660800151612199565b8551604087015186519293506114159284906121ba565b61142357600092505061161b565b604085015160808601516000906001600160c01b0316156114db57600061145288600001518960800151612282565b9050806001600160c01b0316836001600160c01b03161115611472578092505b6114d788608001518960a0015160026114c66114b68c60200151670de0b6b3a764000067ffffffffffffffff166001600160c01b031661204590919063ffffffff16565b6001600160c01b03891690611cfe565b6001600160c01b0316929190612333565b9150505b86516001600160a01b039081168552602080890151821681870152885160408051633cb5d37960e01b8152905161157b949290921692633cb5d37992600480840193829003018186803b15801561153157600080fd5b505afa158015611545573d6000803e3d6000fd5b505050506040513d601f19601f8201168201806040525081019061156991906129b3565b6001600160c01b03841690600061235f565b84604001818152505061160e87602001516001600160a01b0316633cb5d3796040518163ffffffff1660e01b815260040160206040518083038186803b1580156115c457600080fd5b505afa1580156115d8573d6000803e3d6000fd5b505050506040513d601f19601f820116820180604052508101906115fc91906129b3565b6001600160c01b03831690600261235f565b6060850152506001935050505b9250929050565b600061162c612721565b600084608001516001600160c01b0316118015611656575060808401516001600160c01b03908116105b801561166f575060008460a001516001600160c01b0316115b8015611688575060a08401516001600160c01b03908116105b61169457611694612923565b6116b384606001516116ae85600001518760a0015161243d565b612199565b6001600160c01b03166060850181905260a085015160808601516000926116dd9290916002612333565b6020850151909150600090611711906116ff90670de0b6b3a764000090612045565b6001600160c01b038416906002612051565b9050611721818760400151611d15565b6001600160c01b031660408701526117398686611321565b9350935050509250929050565b60008080805b8451811015611cc5578660a001516001600160a01b03168582815181106117755761177561296c565b60200260200101516001600160a01b0316141561179157611cb5565b600087604001516001600160a01b031663cde2be8a8784815181106117b8576117b861296c565b60200260200101516040518263ffffffff1660e01b81526004016117eb91906001600160a01b0391909116815260200190565b60206040518083038186803b15801561180357600080fd5b505afa158015611817573d6000803e3d6000fd5b505050506040513d601f19601f8201168201806040525081019061183b9190612790565b8851604051632ac07b9560e11b81526001600160a01b03918216600482015291925060009190831690635580f72a9060240160206040518083038186803b15801561188557600080fd5b505afa158015611899573d6000803e3d6000fd5b505050506040513d601f19601f820116820180604052508101906118bd91906127d4565b905088608001516001600160a01b03168784815181106118df576118df61296c565b60200260200101516001600160a01b0316141561198b576060890151604051632ac07b9560e11b81526001600160a01b03918216600482015261198891841690635580f72a9060240160206040518083038186803b15801561194057600080fd5b505afa158015611954573d6000803e3d6000fd5b505050506040513d601f19601f8201168201806040525081019061197891906127d4565b6001600160c01b03831690612276565b90505b600080836001600160a01b031663a035b1fe6040518163ffffffff1660e01b8152600401604080518083038186803b1580156119c657600080fd5b505afa1580156119da573d6000803e3d6000fd5b505050506040513d601f19601f820116820180604052508101906119fe9190612939565b915091506000611a7e856001600160a01b031663e28a1b866040518163ffffffff1660e01b815260040160206040518083038186803b158015611a4057600080fd5b505afa158015611a54573d6000803e3d6000fd5b505050506040513d601f19601f82011682018060405250810190611a7891906127d4565b84612199565b905060008c602001516001600160a01b031663a5a5828c8c8981518110611aa757611aa761296c565b60200260200101516040518263ffffffff1660e01b8152600401611ada91906001600160a01b0391909116815260200190565b60206040518083038186803b158015611af257600080fd5b505afa158015611b06573d6000803e3d6000fd5b505050506040513d601f19601f82011682018060405250810190611b2a91906127d4565b90506001600160c01b038116158015611b505750611b4e8686848f600001516121ba565b155b15611b6057505050505050611cb5565b611b756001600160c01b0385168660006120a4565b8d516040516307a4469760e21b81526001600160c01b03808716600483015288166024820152670de0b6b3a76400006044820152919b506001600160a01b031690631e911a5c9060640160206040518083038186803b158015611bd757600080fd5b505afa925050508015611c07575060408051601f3d908101601f19168201909252611c04918101906129d6565b60015b611c56573d808015611c35576040519150601f19603f3d011682016040523d82523d6000602084013e611c3a565b606091505b508051611c4657600080fd5b6001600160c01b03995050611c96565b6001600160c01b03611c6a828c83166129ef565b10611c7e576001600160c01b039950611c94565b611c8781612464565b611c91908b612a07565b99505b505b8b51611cac906001600160c01b038a1690612276565b97505050505050505b611cbe81612998565b905061174c565b506001600160c01b0381811690841611611ce0576000611cf3565b611cf36001600160c01b03841682612045565b925050935093915050565b6000611d0c838360016120a4565b90505b92915050565b6000816001600160c01b0316836001600160c01b031610611d365781611d0c565b5090919050565b600080826001600160c01b031611611d5757611d57612923565b835160005b8181101561203b57600087602001516001600160a01b031663a5a5828c888481518110611d8b57611d8b61296c565b60200260200101516040518263ffffffff1660e01b8152600401611dbe91906001600160a01b0391909116815260200190565b60206040518083038186803b158015611dd657600080fd5b505afa158015611dea573d6000803e3d6000fd5b505050506040513d601f19601f82011682018060405250810190611e0e91906127d4565b90506001600160c01b038116611e24575061202b565b600088604001516001600160a01b03166357a26a40898581518110611e4b57611e4b61296c565b60200260200101516040518263ffffffff1660e01b8152600401611e7e91906001600160a01b0391909116815260200190565b60206040518083038186803b158015611e9657600080fd5b505afa158015611eaa573d6000803e3d6000fd5b505050506040513d601f19601f82011682018060405250810190611ece9190612790565b90506000611ee86001600160c01b03891684896002612333565b8a51604051632ac07b9560e11b81526001600160a01b03918216600482015291925060009190841690635580f72a9060240160206040518083038186803b158015611f3257600080fd5b505afa158015611f46573d6000803e3d6000fd5b505050506040513d601f19601f82011682018060405250810190611f6a91906127d4565b90506001600160c01b038281169082161015612026576000836001600160a01b031663a035b1fe6040518163ffffffff1660e01b8152600401604080518083038186803b158015611fba57600080fd5b505afa158015611fce573d6000803e3d6000fd5b505050506040513d601f19601f82011682018060405250810190611ff29190612939565b91506120229050612012826000610c266001600160c01b03881687612045565b6001600160c01b038a1690612276565b9750505b505050505b61203481612998565b9050611d5c565b5050949350505050565b6000611d0c8284612a32565b6000612089612084612074670de0b6b3a76400006001600160c01b038816612a5a565b856001600160c01b031685612492565b612464565b90505b9392505050565b6001600160c01b0390811691161190565b60006120896120846120c26001600160c01b03808716908816612a5a565b670de0b6b3a764000085612492565b60006002845160028111156120e8576120e86128ec565b14156121275760025b836002811115612103576121036128ec565b148015612120575060208401516001600160c01b03908116908316115b905061208c565b60008451600281111561213c5761213c6128ec565b1415612164576002836002811115612156576121566128ec565b1480612120575060006120f1565b6001836002811115612178576121786128ec565b141580612120575060208401516001600160c01b0390811690831611612120565b6000816001600160c01b0316836001600160c01b031611611d365781611d0c565b60006121dc6121c9838561243d565b6001600160c01b03908116908616101590565b801561226b57506001612269866001600160a01b0316633cb5d3796040518163ffffffff1660e01b815260040160206040518083038186803b15801561222157600080fd5b505afa158015612235573d6000803e3d6000fd5b505050506040513d601f19601f8201168201806040525081019061225991906129b3565b6001600160c01b0387169061253c565b115b90505b949350505050565b6000611d0c8284612a07565b6000806001600160c01b038316156123105761230b836001866001600160a01b03166395acc4ae6040518163ffffffff1660e01b815260040160206040518083038186803b1580156122d357600080fd5b505afa1580156122e7573d6000803e3d6000fd5b505050506040513d601f19601f8201168201806040525081019061086591906127d4565b612319565b6001600160c01b035b90506000816001600160c01b03161161208c57600161226e565b600061226b612084866001600160c01b0316866001600160c01b0316866001600160c01b03168661254a565b60006001600160c01b0384166123775750600061208c565b6029198360000b136123b0576002826002811115612397576123976128ec565b146123a35760006123a6565b60015b60ff16905061208c565b8260000b6060136123d45760405163f44398f560e01b815260040160405180910390fd5b6123df601284612a79565b925060006123ef8460000b6125f9565b6123fa90600a612b96565b905060008460000b12156124215761241c856001600160c01b03168285612492565b612434565b612434816001600160c01b038716612a5a565b95945050505050565b6000806001600160c01b038316156123105761230b6001600160c01b038516846001612051565b60006001600160c01b0382111561248e5760405163f44398f560e01b815260040160405180910390fd5b5090565b60008061249f8486612bb8565b905060008360028111156124b5576124b56128ec565b14156124c257905061208c565b60018360028111156124d6576124d66128ec565b14156125165760026124e9600186612bcc565b6124f39190612bb8565b6124fd8587612be3565b1115612511578061250d81612998565b9150505b612089565b60006125228587612be3565b1115612089578061253281612998565b9695505050505050565b6000611d0c8383600061235f565b600080612558868686612611565b9050600083600281111561256e5761256e6128ec565b141561257b57905061226e565b6000848061258b5761258b612ba2565b868809905060028460028111156125a4576125a46128ec565b14156125c35780156125be576125bb6001836129ef565b91505b6125ef565b60026125d0600187612bcc565b6125da9190612bb8565b8111156125ef576125ec6001836129ef565b91505b5095945050505050565b60008082126126085781611d0f565b611d0f82612bf7565b600080600061262086866126f4565b915091508382106126445760405163f44398f560e01b815260040160405180910390fd5b6000848061265457612654612ba2565b868809905081811115612668576001830392505b90819003906000859003851680868161268357612683612ba2565b04955080838161269557612695612ba2565b0492508081600003816126aa576126aa612ba2565b046001019390930291909101600285810380870282030280870282030280870282030280870282030280870282030280870282030295860290039094029390930295945050505050565b6000808060001984860990508385029150818103925081811015612719576001830392505b509250929050565b604051806080016040528060006001600160a01b0316815260200160006001600160a01b0316815260200160008152602001600081525090565b6001600160a01b038116811461277057600080fd5b50565b60006020828403121561278557600080fd5b813561208c8161275b565b6000602082840312156127a257600080fd5b815161208c8161275b565b80516127b88161275b565b919050565b80516001600160c01b03811681146127b857600080fd5b6000602082840312156127e657600080fd5b611d0c826127bd565b634e487b7160e01b600052604160045260246000fd5b6000602080838503121561281857600080fd5b825167ffffffffffffffff8082111561283057600080fd5b818501915085601f83011261284457600080fd5b815181811115612856576128566127ef565b8060051b604051601f19603f8301168101818110858211171561287b5761287b6127ef565b60405291825284820192508381018501918883111561289957600080fd5b938501935b828510156128be576128af856127ad565b8452938501939285019261289e565b98975050505050505050565b6000602082840312156128dc57600080fd5b8151801515811461208c57600080fd5b634e487b7160e01b600052602160045260246000fd5b60006020828403121561291457600080fd5b81516003811061208c57600080fd5b634e487b7160e01b600052600160045260246000fd5b6000806040838503121561294c57600080fd5b612955836127bd565b9150612963602084016127bd565b90509250929050565b634e487b7160e01b600052603260045260246000fd5b634e487b7160e01b600052601160045260246000fd5b60006000198214156129ac576129ac612982565b5060010190565b6000602082840312156129c557600080fd5b815160ff8116811461208c57600080fd5b6000602082840312156129e857600080fd5b5051919050565b60008219821115612a0257612a02612982565b500190565b60006001600160c01b03828116848216808303821115612a2957612a29612982565b01949350505050565b60006001600160c01b0383811690831681811015612a5257612a52612982565b039392505050565b6000816000190483118215151615612a7457612a74612982565b500290565b600081810b83820b8281128015607f19830184121615612a9b57612a9b612982565b81607f018313811615612ab057612ab0612982565b5090039392505050565b600181815b80851115612719578160001904821115612adb57612adb612982565b80851615612ae857918102915b93841c9390800290612abf565b600082612b0457506001611d0f565b81612b1157506000611d0f565b8160018114612b275760028114612b3157612b4d565b6001915050611d0f565b60ff841115612b4257612b42612982565b50506001821b611d0f565b5060208310610133831016604e8410600b8410161715612b70575081810a611d0f565b612b7a8383612aba565b8060001904821115612b8e57612b8e612982565b029392505050565b6000611d0c8383612af5565b634e487b7160e01b600052601260045260246000fd5b600082612bc757612bc7612ba2565b500490565b600082821015612bde57612bde612982565b500390565b600082612bf257612bf2612ba2565b500690565b6000600160ff1b821415612c0d57612c0d612982565b506000039056fea26469706673582212203a17da69b4a287e6586a59d8bde00cd3f8e12f1b16b522b4a4f3278cf0767b6964736f6c63430008090033",
  "linkReferences": {},
  "deployedLinkReferences": {}
}