{
  "_format": "hh-sol-artifact-1",
  "contractName": "GnosisMockReentrant",
  "sourceName": "contracts/reserve/plugins/mocks/GnosisMockReentrant.sol",
  "abi": [
    {
      "inputs": [
        {
          "internalType": "uint256",
          "name": "auctionId",
          "type": "uint256"
        }
      ],
      "name": "auctionData",
      "outputs": [
        {
          "components": [
            {
              "internalType": "contract IERC20",
              "name": "auctioningToken",
              "type": "address"
            },
            {
              "internalType": "contract IERC20",
              "name": "biddingToken",
              "type": "address"
            },
            {
              "internalType": "uint256",
              "name": "orderCancellationEndDate",
              "type": "uint256"
            },
            {
              "internalType": "uint256",
              "name": "auctionEndDate",
              "type": "uint256"
            },
            {
              "internalType": "bytes32",
              "name": "initialAuctionOrder",
              "type": "bytes32"
            },
            {
              "internalType": "uint256",
              "name": "minimumBiddingAmountPerOrder",
              "type": "uint256"
            },
            {
              "internalType": "uint256",
              "name": "interimSumBidAmount",
              "type": "uint256"
            },
            {
              "internalType": "bytes32",
              "name": "interimOrder",
              "type": "bytes32"
            },
            {
              "internalType": "bytes32",
              "name": "clearingPriceOrder",
              "type": "bytes32"
            },
            {
              "internalType": "uint96",
              "name": "volumeClearingPriceOrder",
              "type": "uint96"
            },
            {
              "internalType": "bool",
              "name": "minFundingThresholdNotReached",
              "type": "bool"
            },
            {
              "internalType": "bool",
              "name": "isAtomicClosureAllowed",
              "type": "bool"
            },
            {
              "internalType": "uint256",
              "name": "feeNumerator",
              "type": "uint256"
            },
            {
              "internalType": "uint256",
              "name": "minFundingThreshold",
              "type": "uint256"
            }
          ],
          "internalType": "struct GnosisAuctionData",
          "name": "data",
          "type": "tuple"
        }
      ],
      "stateMutability": "view",
      "type": "function"
    },
    {
      "inputs": [
        {
          "internalType": "uint256",
          "name": "",
          "type": "uint256"
        }
      ],
      "name": "auctions",
      "outputs": [
        {
          "internalType": "address",
          "name": "origin",
          "type": "address"
        },
        {
          "internalType": "contract IERC20",
          "name": "sell",
          "type": "address"
        },
        {
          "internalType": "contract IERC20",
          "name": "buy",
          "type": "address"
        },
        {
          "internalType": "uint256",
          "name": "sellAmount",
          "type": "uint256"
        },
        {
          "internalType": "uint256",
          "name": "minBuyAmount",
          "type": "uint256"
        },
        {
          "internalType": "uint256",
          "name": "startTime",
          "type": "uint256"
        },
        {
          "internalType": "uint256",
          "name": "endTime",
          "type": "uint256"
        },
        {
          "internalType": "enum MauctionStatus",
          "name": "status",
          "type": "uint8"
        },
        {
          "internalType": "bytes32",
          "name": "encodedClearingOrder",
          "type": "bytes32"
        }
      ],
      "stateMutability": "view",
      "type": "function"
    },
    {
      "inputs": [
        {
          "internalType": "uint256",
          "name": "",
          "type": "uint256"
        }
      ],
      "name": "bids",
      "outputs": [
        {
          "internalType": "address",
          "name": "bidder",
          "type": "address"
        },
        {
          "internalType": "uint256",
          "name": "sellAmount",
          "type": "uint256"
        },
        {
          "internalType": "uint256",
          "name": "buyAmount",
          "type": "uint256"
        }
      ],
      "stateMutability": "view",
      "type": "function"
    },
    {
      "inputs": [],
      "name": "feeNumerator",
      "outputs": [
        {
          "internalType": "uint256",
          "name": "",
          "type": "uint256"
        }
      ],
      "stateMutability": "view",
      "type": "function"
    },
    {
      "inputs": [
        {
          "internalType": "contract IERC20",
          "name": "auctioningToken",
          "type": "address"
        },
        {
          "internalType": "contract IERC20",
          "name": "biddingToken",
          "type": "address"
        },
        {
          "internalType": "uint256",
          "name": "",
          "type": "uint256"
        },
        {
          "internalType": "uint256",
          "name": "auctionEndDate",
          "type": "uint256"
        },
        {
          "internalType": "uint96",
          "name": "auctionedSellAmount",
          "type": "uint96"
        },
        {
          "internalType": "uint96",
          "name": "minBuyAmount",
          "type": "uint96"
        },
        {
          "internalType": "uint256",
          "name": "",
          "type": "uint256"
        },
        {
          "internalType": "uint256",
          "name": "",
          "type": "uint256"
        },
        {
          "internalType": "bool",
          "name": "",
          "type": "bool"
        },
        {
          "internalType": "address",
          "name": "",
          "type": "address"
        },
        {
          "internalType": "bytes",
          "name": "",
          "type": "bytes"
        }
      ],
      "name": "initiateAuction",
      "outputs": [
        {
          "internalType": "uint256",
          "name": "auctionId",
          "type": "uint256"
        }
      ],
      "stateMutability": "nonpayable",
      "type": "function"
    },
    {
      "inputs": [],
      "name": "numAuctions",
      "outputs": [
        {
          "internalType": "uint256",
          "name": "",
          "type": "uint256"
        }
      ],
      "stateMutability": "view",
      "type": "function"
    },
    {
      "inputs": [
        {
          "internalType": "uint256",
          "name": "auctionId",
          "type": "uint256"
        },
        {
          "components": [
            {
              "internalType": "address",
              "name": "bidder",
              "type": "address"
            },
            {
              "internalType": "uint256",
              "name": "sellAmount",
              "type": "uint256"
            },
            {
              "internalType": "uint256",
              "name": "buyAmount",
              "type": "uint256"
            }
          ],
          "internalType": "struct Bid",
          "name": "bid",
          "type": "tuple"
        }
      ],
      "name": "placeBid",
      "outputs": [],
      "stateMutability": "nonpayable",
      "type": "function"
    },
    {
      "inputs": [],
      "name": "reenterOnInit",
      "outputs": [
        {
          "internalType": "bool",
          "name": "",
          "type": "bool"
        }
      ],
      "stateMutability": "view",
      "type": "function"
    },
    {
      "inputs": [],
      "name": "reenterOnSettle",
      "outputs": [
        {
          "internalType": "bool",
          "name": "",
          "type": "bool"
        }
      ],
      "stateMutability": "view",
      "type": "function"
    },
    {
      "inputs": [
        {
          "internalType": "bool",
          "name": "value",
          "type": "bool"
        }
      ],
      "name": "setReenterOnInit",
      "outputs": [],
      "stateMutability": "nonpayable",
      "type": "function"
    },
    {
      "inputs": [
        {
          "internalType": "bool",
          "name": "value",
          "type": "bool"
        }
      ],
      "name": "setReenterOnSettle",
      "outputs": [],
      "stateMutability": "nonpayable",
      "type": "function"
    },
    {
      "inputs": [
        {
          "internalType": "uint256",
          "name": "auctionId",
          "type": "uint256"
        }
      ],
      "name": "settleAuction",
      "outputs": [
        {
          "internalType": "bytes32",
          "name": "encodedOrder",
          "type": "bytes32"
        }
      ],
      "stateMutability": "nonpayable",
      "type": "function"
    }
  ],
  "bytecode": "0x608060405234801561001057600080fd5b50611160806100206000396000f3fe608060405234801561001057600080fd5b50600436106100b45760003560e01c80637cb27318116100715780637cb27318146101a1578063ac26ca16146101c4578063b5b50f5c146101e6578063ca356a0f146101f9578063e86dea4a14610221578063f2a58f4c1461022957600080fd5b80630a4cd6c9146100b95780632e993611146100df5780634423c5f1146100f257806355fc62d214610151578063571a26a0146101715780635c113acc14610199575b600080fd5b6100cc6100c7366004610d35565b610236565b6040519081526020015b60405180910390f35b6100cc6100ed366004610e04565b610484565b61012c610100366004610e04565b60016020819052600091825260409091208054918101546002909101546001600160a01b039092169183565b604080516001600160a01b0390941684526020840192909252908201526060016100d6565b61016461015f366004610e04565b610702565b6040516100d69190610e1d565b61018461017f366004610e04565b6107cf565b6040516100d699989796959493929190610efc565b6000546100cc565b6101c26101af366004610f6f565b6002805460ff1916911515919091179055565b005b6002546101d690610100900460ff1681565b60405190151581526020016100d6565b6101c26101f4366004610f93565b610840565b6101c2610207366004610f6f565b600280549115156101000261ff0019909216919091179055565b6100cc600081565b6002546101d69060ff1681565b600080886001600160601b03161161028b5760405162461bcd60e51b815260206004820152601360248201527273656c6c20616d6f756e74206973207a65726f60681b60448201526064015b60405180910390fd5b5060005460025460ff161561030f57336001600160a01b03166311da60b46040518163ffffffff1660e01b81526004016040805180830381600087803b1580156102d457600080fd5b505af11580156102e8573d6000803e3d6000fd5b505050506040513d601f19601f8201168201806040525081019061030c9190611013565b50505b61032d6001600160a01b038d1633306001600160601b038c1661097b565b6000604051806101200160405280336001600160a01b031681526020018e6001600160a01b031681526020018d6001600160a01b031681526020018a6001600160601b03168152602001896001600160601b031681526020014281526020018b8152602001600160028111156103a5576103a5610ee6565b81526000602091820181905283546001808201865594825290829020835160099092020180546001600160a01b03199081166001600160a01b0393841617825592840151818601805485169184169190911790556040840151600280830180549095169190931617909255606083015160038301556080830151600483015560a0830151600583015560c0830151600683015560e0830151600783018054949593949193909260ff1990921691849081111561046357610463610ee6565b0217905550610100820151816008015550509b9a5050505050505050505050565b6000806000838154811061049a5761049a611037565b9060005260206000209060090201905042816006015411156104fe5760405162461bcd60e51b815260206004820152601a60248201527f746f6f206561726c7920746f20636c6f73652061756374696f6e0000000000006044820152606401610282565b6001600782015460ff16600281111561051957610519610ee6565b1461055f5760405162461bcd60e51b8152602060048201526016602482015275185d58dd1a5bdb88185b1c9958591e4818db1bdcd95960521b6044820152606401610282565b60078101805460ff19166002908117909155600060068301819055848152600160205260409020905460ff610100909104161561060b57336001600160a01b03166311da60b46040518163ffffffff1660e01b81526004016040805180830381600087803b1580156105d057600080fd5b505af11580156105e4573d6000803e3d6000fd5b505050506040513d601f19601f820116820180604052508101906106089190611013565b50505b80546001600160a01b031661065e5781546003830154600184015461063e926001600160a01b03918216929116906109ec565b61064f600083600301546000610a21565b60089092018290555092915050565b805460018083015490840154610682926001600160a01b03918216929116906109ec565b8154600280830154908401546106a6926001600160a01b03918216929116906109ec565b8060010154826003015411156106ee578154600182015460038401546106ee926001600160a01b0316916106d991611063565b60018501546001600160a01b031691906109ec565b61064f600082600101548360020154610a21565b604080516101c081018252600080825260208201819052918101829052606081018290526080810182905260a0810182905260c0810182905260e08101829052610100810182905261012081018290526101408101829052610160810182905261018081018290526101a08101919091526000828154811061078657610786611037565b6000918252602082206006600990920201015460608301528054839081106107b0576107b0611037565b6000918252602090912060086009909202010154610100820152919050565b600081815481106107df57600080fd5b60009182526020909120600990910201805460018201546002830154600384015460048501546005860154600687015460078801546008909801546001600160a01b0397881699509587169794909616959294919390929160ff9091169089565b6000828154811061085357610853611037565b906000526020600020906009020160030154816020015111156108ab5760405162461bcd60e51b815260206004820152601060248201526f1a5b9d985b1a5908189a59081cd95b1b60821b6044820152606401610282565b60008160400151116108f15760405162461bcd60e51b815260206004820152600f60248201526e1e995c9bc81d9bdb1d5b5948189a59608a1b6044820152606401610282565b61093781600001513083604001516000868154811061091257610912611037565b60009182526020909120600260099092020101546001600160a01b031692919061097b565b600091825260016020818152604093849020835181546001600160a01b0319166001600160a01b039091161781559083015191810191909155910151600290910155565b6040516001600160a01b03808516602483015283166044820152606481018290526109e69085906323b872dd60e01b906084015b60408051601f198184030181529190526020810180516001600160e01b03166001600160e01b031990931692909217909152610a48565b50505050565b6040516001600160a01b038316602482015260448101829052610a1c90849063a9059cbb60e01b906064016109af565b505050565b600081610a36606085901b60c087901b61107a565b610a40919061107a565b949350505050565b6000610a9d826040518060400160405280602081526020017f5361666545524332303a206c6f772d6c6576656c2063616c6c206661696c6564815250856001600160a01b0316610b1a9092919063ffffffff16565b805190915015610a1c5780806020019051810190610abb9190611092565b610a1c5760405162461bcd60e51b815260206004820152602a60248201527f5361666545524332303a204552433230206f7065726174696f6e20646964206e6044820152691bdd081cdd58d8d9595960b21b6064820152608401610282565b6060610a40848460008585600080866001600160a01b03168587604051610b4191906110db565b60006040518083038185875af1925050503d8060008114610b7e576040519150601f19603f3d011682016040523d82523d6000602084013e610b83565b606091505b5091509150610b9487838387610b9f565b979650505050505050565b60608315610c0b578251610c04576001600160a01b0385163b610c045760405162461bcd60e51b815260206004820152601d60248201527f416464726573733a2063616c6c20746f206e6f6e2d636f6e74726163740000006044820152606401610282565b5081610a40565b610a408383815115610c205781518083602001fd5b8060405162461bcd60e51b815260040161028291906110f7565b6001600160a01b0381168114610c4f57600080fd5b50565b8035610c5d81610c3a565b919050565b80356001600160601b0381168114610c5d57600080fd5b8015158114610c4f57600080fd5b8035610c5d81610c79565b634e487b7160e01b600052604160045260246000fd5b600082601f830112610cb957600080fd5b813567ffffffffffffffff80821115610cd457610cd4610c92565b604051601f8301601f19908116603f01168101908282118183101715610cfc57610cfc610c92565b81604052838152866020858801011115610d1557600080fd5b836020870160208301376000602085830101528094505050505092915050565b60008060008060008060008060008060006101608c8e031215610d5757600080fd5b8b35610d6281610c3a565b9a5060208c0135610d7281610c3a565b995060408c0135985060608c01359750610d8e60808d01610c62565b9650610d9c60a08d01610c62565b955060c08c0135945060e08c01359350610db96101008d01610c87565b9250610dc86101208d01610c52565b91506101408c013567ffffffffffffffff811115610de557600080fd5b610df18e828f01610ca8565b9150509295989b509295989b9093969950565b600060208284031215610e1657600080fd5b5035919050565b81516001600160a01b031681526101c081016020830151610e4960208401826001600160a01b03169052565b5060408301516040830152606083015160608301526080830151608083015260a083015160a083015260c083015160c083015260e083015160e083015261010080840151818401525061012080840151610ead828501826001600160601b03169052565b5050610140838101511515908301526101608084015115159083015261018080840151908301526101a092830151929091019190915290565b634e487b7160e01b600052602160045260246000fd5b6001600160a01b038a81168252898116602083015288166040820152606081018790526080810186905260a0810185905260c08101849052610120810160038410610f5757634e487b7160e01b600052602160045260246000fd5b60e08201939093526101000152979650505050505050565b600060208284031215610f8157600080fd5b8135610f8c81610c79565b9392505050565b6000808284036080811215610fa757600080fd5b833592506060601f1982011215610fbd57600080fd5b506040516060810181811067ffffffffffffffff82111715610fe157610fe1610c92565b6040526020840135610ff281610c3a565b81526040848101356020830152606090940135938101939093525092909150565b6000806040838503121561102657600080fd5b505080516020909101519092909150565b634e487b7160e01b600052603260045260246000fd5b634e487b7160e01b600052601160045260246000fd5b6000828210156110755761107561104d565b500390565b6000821982111561108d5761108d61104d565b500190565b6000602082840312156110a457600080fd5b8151610f8c81610c79565b60005b838110156110ca5781810151838201526020016110b2565b838111156109e65750506000910152565b600082516110ed8184602087016110af565b9190910192915050565b60208152600082518060208401526111168160408501602087016110af565b601f01601f1916919091016040019291505056fea26469706673582212204d4e72ea0fb620b34978f38ca29dfa4da54c486d26a50dcd795e4bd4ea8cff3864736f6c63430008090033",
  "linkReferences": {},
  "deployedLinkReferences": {}
}