{
  "_format": "hh-sol-artifact-1",
  "contractName": "AssetRegistryP0",
  "sourceName": "contracts/reserve/p0/AssetRegistry.sol",
  "abi": [
    {
      "anonymous": false,
      "inputs": [
        {
          "indexed": true,
          "internalType": "contract IERC20",
          "name": "erc20",
          "type": "address"
        },
        {
          "indexed": true,
          "internalType": "contract IAsset",
          "name": "asset",
          "type": "address"
        }
      ],
      "name": "AssetRegistered",
      "type": "event"
    },
    {
      "anonymous": false,
      "inputs": [
        {
          "indexed": true,
          "internalType": "contract IERC20",
          "name": "erc20",
          "type": "address"
        },
        {
          "indexed": true,
          "internalType": "contract IAsset",
          "name": "asset",
          "type": "address"
        }
      ],
      "name": "AssetUnregistered",
      "type": "event"
    },
    {
      "anonymous": false,
      "inputs": [
        {
          "indexed": false,
          "internalType": "uint8",
          "name": "version",
          "type": "uint8"
        }
      ],
      "name": "Initialized",
      "type": "event"
    },
    {
      "inputs": [],
      "name": "erc20s",
      "outputs": [
        {
          "internalType": "contract IERC20[]",
          "name": "erc20s_",
          "type": "address[]"
        }
      ],
      "stateMutability": "view",
      "type": "function"
    },
    {
      "inputs": [],
      "name": "getRegistry",
      "outputs": [
        {
          "components": [
            {
              "internalType": "contract IERC20[]",
              "name": "erc20s",
              "type": "address[]"
            },
            {
              "internalType": "contract IAsset[]",
              "name": "assets",
              "type": "address[]"
            }
          ],
          "internalType": "struct Registry",
          "name": "reg",
          "type": "tuple"
        }
      ],
      "stateMutability": "view",
      "type": "function"
    },
    {
      "inputs": [
        {
          "internalType": "contract IMain",
          "name": "main_",
          "type": "address"
        },
        {
          "internalType": "contract IAsset[]",
          "name": "assets_",
          "type": "address[]"
        }
      ],
      "name": "init",
      "outputs": [],
      "stateMutability": "nonpayable",
      "type": "function"
    },
    {
      "inputs": [
        {
          "internalType": "contract IERC20",
          "name": "erc20",
          "type": "address"
        }
      ],
      "name": "isRegistered",
      "outputs": [
        {
          "internalType": "bool",
          "name": "",
          "type": "bool"
        }
      ],
      "stateMutability": "view",
      "type": "function"
    },
    {
      "inputs": [],
      "name": "main",
      "outputs": [
        {
          "internalType": "contract IMain",
          "name": "",
          "type": "address"
        }
      ],
      "stateMutability": "view",
      "type": "function"
    },
    {
      "inputs": [],
      "name": "refresh",
      "outputs": [],
      "stateMutability": "nonpayable",
      "type": "function"
    },
    {
      "inputs": [
        {
          "internalType": "contract IAsset",
          "name": "asset",
          "type": "address"
        }
      ],
      "name": "register",
      "outputs": [
        {
          "internalType": "bool",
          "name": "",
          "type": "bool"
        }
      ],
      "stateMutability": "nonpayable",
      "type": "function"
    },
    {
      "inputs": [
        {
          "internalType": "contract IAsset",
          "name": "asset",
          "type": "address"
        }
      ],
      "name": "swapRegistered",
      "outputs": [
        {
          "internalType": "bool",
          "name": "swapped",
          "type": "bool"
        }
      ],
      "stateMutability": "nonpayable",
      "type": "function"
    },
    {
      "inputs": [
        {
          "internalType": "contract IERC20",
          "name": "erc20",
          "type": "address"
        }
      ],
      "name": "toAsset",
      "outputs": [
        {
          "internalType": "contract IAsset",
          "name": "",
          "type": "address"
        }
      ],
      "stateMutability": "view",
      "type": "function"
    },
    {
      "inputs": [
        {
          "internalType": "contract IERC20",
          "name": "erc20",
          "type": "address"
        }
      ],
      "name": "toColl",
      "outputs": [
        {
          "internalType": "contract ICollateral",
          "name": "",
          "type": "address"
        }
      ],
      "stateMutability": "view",
      "type": "function"
    },
    {
      "inputs": [
        {
          "internalType": "contract IAsset",
          "name": "asset",
          "type": "address"
        }
      ],
      "name": "unregister",
      "outputs": [],
      "stateMutability": "nonpayable",
      "type": "function"
    },
    {
      "inputs": [],
      "name": "version",
      "outputs": [
        {
          "internalType": "string",
          "name": "",
          "type": "string"
        }
      ],
      "stateMutability": "pure",
      "type": "function"
    }
  ],
  "bytecode": "0x608060405234801561001057600080fd5b50612233806100206000396000f3fe608060405234801561001057600080fd5b50600436106100b45760003560e01c806357a26a401161007157806357a26a401461015c5780635ab1bd5314610187578063c3c5a5471461019c578063cde2be8a146101af578063dffeadd0146101c2578063f8ac93e8146101d557600080fd5b80632510a1d7146100b95780632ec2c246146100d75780633ba3712a146100ec5780633c5a3cea1461010f5780634420e4861461012257806354fd4d5014610135575b600080fd5b6100c16101dd565b6040516100ce9190611e4b565b60405180910390f35b6100ea6100e5366004611eb8565b61028c565b005b6100ff6100fa366004611eb8565b61094e565b60405190151581526020016100ce565b6100ea61011d366004611ef2565b610db9565b6100ff610130366004611eb8565b610f0f565b60408051808201825260058152640312e322e360dc1b602082015290516100ce9190611fcc565b61016f61016a366004611eb8565b610ff5565b6040516001600160a01b0390911681526020016100ce565b61018f61115e565b6040516100ce9190612021565b6100ff6101aa366004611eb8565b61135e565b61016f6101bd366004611eb8565b61136b565b60335461016f906001600160a01b031681565b6100ea6113e0565b60606101e960346114ff565b67ffffffffffffffff81111561020157610201611edc565b60405190808252806020026020018201604052801561022a578160200160208202803683370190505b50905060005b61023a60346114ff565b8110156102885761024c603482611509565b82828151811061025e5761025e6120be565b6001600160a01b039092166020928302919091019091015280610280816120ea565b915050610230565b5090565b60335460408051808201909152600581526427aba722a960d91b60208201526001600160a01b03909116906391d14854906102c690612105565b336040516001600160e01b031960e085901b16815260048101929092526001600160a01b0316602482015260440160206040518083038186803b15801561030c57600080fd5b505afa158015610320573d6000803e3d6000fd5b505050506040513d601f19601f820116820180604052508101906103449190612129565b6103695760405162461bcd60e51b81526004016103609061214b565b60405180910390fd5b6103e5816001600160a01b031663785e9e866040518163ffffffff1660e01b815260040160206040518083038186803b1580156103a557600080fd5b505afa1580156103b9573d6000803e3d6000fd5b505050506040513d601f19601f820116820180604052508101906103dd9190612174565b60349061151e565b61042a5760405162461bcd60e51b815260206004820152601660248201527537379030b9b9b2ba103a37903ab73932b3b4b9ba32b960511b6044820152606401610360565b806001600160a01b031660366000836001600160a01b031663785e9e866040518163ffffffff1660e01b815260040160206040518083038186803b15801561047157600080fd5b505afa158015610485573d6000803e3d6000fd5b505050506040513d601f19601f820116820180604052508101906104a99190612174565b6001600160a01b03908116825260208201929092526040016000205416146105055760405162461bcd60e51b815260206004820152600f60248201526e185cdcd95d081b9bdd08199bdd5b99608a1b6044820152606401610360565b60335460408051632f2439b160e01b815290516000926001600160a01b031691632f2439b1916004808301926020929190829003018186803b15801561054a57600080fd5b505afa15801561055e573d6000803e3d6000fd5b505050506040513d601f19601f820116820180604052508101906105829190612174565b6001600160a01b031663a5a5828c836001600160a01b031663785e9e866040518163ffffffff1660e01b815260040160206040518083038186803b1580156105c957600080fd5b505afa1580156105dd573d6000803e3d6000fd5b505050506040513d601f19601f820116820180604052508101906106019190612174565b6040516001600160e01b031960e084901b1681526001600160a01b03909116600482015260240160206040518083038186803b15801561064057600080fd5b505afa158015610654573d6000803e3d6000fd5b505050506040513d601f19601f820116820180604052508101906106789190612191565b90506106f6826001600160a01b031663785e9e866040518163ffffffff1660e01b815260040160206040518083038186803b1580156106b657600080fd5b505afa1580156106ca573d6000803e3d6000fd5b505050506040513d601f19601f820116820180604052508101906106ee9190612174565b603490611540565b50600060366000846001600160a01b031663785e9e866040518163ffffffff1660e01b815260040160206040518083038186803b15801561073657600080fd5b505afa15801561074a573d6000803e3d6000fd5b505050506040513d601f19601f8201168201806040525081019061076e9190612174565b6001600160a01b03166001600160a01b0316815260200190815260200160002060006101000a8154816001600160a01b0302191690836001600160a01b03160217905550816001600160a01b0316826001600160a01b031663785e9e866040518163ffffffff1660e01b815260040160206040518083038186803b1580156107f557600080fd5b505afa158015610809573d6000803e3d6000fd5b505050506040513d601f19601f8201168201806040525081019061082d9190612174565b6001600160a01b03167f817f216d12af1855f1b81f88dc6421e26ebc7fa7eca01c58fd1035dd655b3d5460405160405180910390a36001600160c01b0381161561094a57603360009054906101000a90046001600160a01b03166001600160a01b0316632f2439b16040518163ffffffff1660e01b815260040160206040518083038186803b1580156108bf57600080fd5b505afa1580156108d3573d6000803e3d6000fd5b505050506040513d601f19601f820116820180604052508101906108f79190612174565b6001600160a01b031663e27f3bef6040518163ffffffff1660e01b8152600401600060405180830381600087803b15801561093157600080fd5b505af1158015610945573d6000803e3d6000fd5b505050505b5050565b60335460408051808201909152600581526427aba722a960d91b60208201526000916001600160a01b0316906391d148549061098990612105565b336040516001600160e01b031960e085901b16815260048101929092526001600160a01b0316602482015260440160206040518083038186803b1580156109cf57600080fd5b505afa1580156109e3573d6000803e3d6000fd5b505050506040513d601f19601f82011682018060405250810190610a079190612129565b610a235760405162461bcd60e51b81526004016103609061214b565b610a5f826001600160a01b031663785e9e866040518163ffffffff1660e01b815260040160206040518083038186803b1580156103a557600080fd5b610aa05760405162461bcd60e51b815260206004820152601260248201527137379022a92199181031b7b63634b9b4b7b760711b6044820152606401610360565b60006001600160a01b031660366000846001600160a01b031663785e9e866040518163ffffffff1660e01b815260040160206040518083038186803b158015610ae857600080fd5b505afa158015610afc573d6000803e3d6000fd5b505050506040513d601f19601f82011682018060405250810190610b209190612174565b6001600160a01b039081168252602082019290925260400160002054161415610b4b57610b4b6121ba565b60335460408051632f2439b160e01b815290516000926001600160a01b031691632f2439b1916004808301926020929190829003018186803b158015610b9057600080fd5b505afa158015610ba4573d6000803e3d6000fd5b505050506040513d601f19601f82011682018060405250810190610bc89190612174565b6001600160a01b031663a5a5828c846001600160a01b031663785e9e866040518163ffffffff1660e01b815260040160206040518083038186803b158015610c0f57600080fd5b505afa158015610c23573d6000803e3d6000fd5b505050506040513d601f19601f82011682018060405250810190610c479190612174565b6040516001600160e01b031960e084901b1681526001600160a01b03909116600482015260240160206040518083038186803b158015610c8657600080fd5b505afa158015610c9a573d6000803e3d6000fd5b505050506040513d601f19601f82011682018060405250810190610cbe9190612191565b9050610cc983611555565b91506001600160c01b03811615610db357603360009054906101000a90046001600160a01b03166001600160a01b0316632f2439b16040518163ffffffff1660e01b815260040160206040518083038186803b158015610d2857600080fd5b505afa158015610d3c573d6000803e3d6000fd5b505050506040513d601f19601f82011682018060405250810190610d609190612174565b6001600160a01b031663e27f3bef6040518163ffffffff1660e01b8152600401600060405180830381600087803b158015610d9a57600080fd5b505af1158015610dae573d6000803e3d6000fd5b505050505b50919050565b600054610100900460ff1615808015610dd95750600054600160ff909116105b80610df35750303b158015610df3575060005460ff166001145b610e565760405162461bcd60e51b815260206004820152602e60248201527f496e697469616c697a61626c653a20636f6e747261637420697320616c72656160448201526d191e481a5b9a5d1a585b1a5e995960921b6064820152608401610360565b6000805460ff191660011790558015610e79576000805461ff0019166101001790555b610e8283611aaf565b60005b8251811015610ec357610eb0838281518110610ea357610ea36120be565b6020026020010151611b89565b5080610ebb816120ea565b915050610e85565b508015610f0a576000805461ff0019169055604051600181527f7f26b83ff96e1f2b6a682f133852f6798a09c465da95921460cefb38474024989060200160405180910390a15b505050565b60335460408051808201909152600581526427aba722a960d91b60208201526000916001600160a01b0316906391d1485490610f4a90612105565b336040516001600160e01b031960e085901b16815260048101929092526001600160a01b0316602482015260440160206040518083038186803b158015610f9057600080fd5b505afa158015610fa4573d6000803e3d6000fd5b505050506040513d601f19601f82011682018060405250810190610fc89190612129565b610fe45760405162461bcd60e51b81526004016103609061214b565b610fed82611b89565b90505b919050565b600061100260348361151e565b6110435760405162461bcd60e51b8152602060048201526012602482015271195c98cc8c081d5b9c9959da5cdd195c995960721b6044820152606401610360565b6001600160a01b038281166000908152603660205260409020541661106a5761106a6121ba565b6001600160a01b0380831660009081526036602090815260409182902054825163c59b3d6360e01b8152925193169263c59b3d63926004808201939291829003018186803b1580156110bb57600080fd5b505afa1580156110cf573d6000803e3d6000fd5b505050506040513d601f19601f820116820180604052508101906110f39190612129565b61113f5760405162461bcd60e51b815260206004820152601760248201527f6572633230206973206e6f7420636f6c6c61746572616c0000000000000000006044820152606401610360565b506001600160a01b039081166000908152603660205260409020541690565b6040805180820190915260608082526020820152600061117e60346114ff565b90508067ffffffffffffffff81111561119957611199611edc565b6040519080825280602002602001820160405280156111c2578160200160208202803683370190505b5082528067ffffffffffffffff8111156111de576111de611edc565b604051908082528060200260200182016040528015611207578160200160208202803683370190505b50602083015260005b8181101561134757611223603482611509565b8351805183908110611237576112376120be565b6001600160a01b03909216602092830291909101909101526036600061125e603484611509565b6001600160a01b03166001600160a01b0316815260200190815260200160002060009054906101000a90046001600160a01b0316836020015182815181106112a8576112a86120be565b6001600160a01b03909216602092830291909101909101528251805160009190839081106112d8576112d86120be565b60200260200101516001600160a01b031614156112f7576112f76121ba565b60006001600160a01b031683602001518281518110611318576113186120be565b60200260200101516001600160a01b03161415611337576113376121ba565b611340816120ea565b9050611210565b5060208201515182515114610288576102886121ba565b6000610fed60348361151e565b600061137860348361151e565b6113b95760405162461bcd60e51b8152602060048201526012602482015271195c98cc8c081d5b9c9959da5cdd195c995960721b6044820152606401610360565b6001600160a01b038281166000908152603660205260409020541661113f5761113f6121ba565b60005b6113ed60346114ff565b8110156114fc576000603681611404603485611509565b6001600160a01b039081168252602080830193909352604091820160002054825163c59b3d6360e01b8152925191169350839263c59b3d639260048082019391829003018186803b15801561145857600080fd5b505afa15801561146c573d6000803e3d6000fd5b505050506040513d601f19601f820116820180604052508101906114909190612129565b156114e957806001600160a01b031663f8ac93e86040518163ffffffff1660e01b8152600401600060405180830381600087803b1580156114d057600080fd5b505af11580156114e4573d6000803e3d6000fd5b505050505b50806114f4816120ea565b9150506113e3565b50565b6000610fed825490565b60006115158383611cc1565b90505b92915050565b6001600160a01b03811660009081526001830160205260408120541515611515565b6000611515836001600160a01b038416611ceb565b6000611593826001600160a01b031663785e9e866040518163ffffffff1660e01b815260040160206040518083038186803b1580156103a557600080fd5b80156116385750816001600160a01b031660366000846001600160a01b031663785e9e866040518163ffffffff1660e01b815260040160206040518083038186803b1580156115e157600080fd5b505afa1580156115f5573d6000803e3d6000fd5b505050506040513d601f19601f820116820180604052508101906116199190612174565b6001600160a01b03908116825260208201929092526040016000205416145b1561164557506000919050565b611681826001600160a01b031663785e9e866040518163ffffffff1660e01b815260040160206040518083038186803b1580156103a557600080fd5b80156117275750816001600160a01b031660366000846001600160a01b031663785e9e866040518163ffffffff1660e01b815260040160206040518083038186803b1580156116cf57600080fd5b505afa1580156116e3573d6000803e3d6000fd5b505050506040513d601f19601f820116820180604052508101906117079190612174565b6001600160a01b0390811682526020820192909252604001600020541614155b156118c257611768826001600160a01b031663785e9e866040518163ffffffff1660e01b815260040160206040518083038186803b1580156106b657600080fd5b5060366000836001600160a01b031663785e9e866040518163ffffffff1660e01b815260040160206040518083038186803b1580156117a657600080fd5b505afa1580156117ba573d6000803e3d6000fd5b505050506040513d601f19601f820116820180604052508101906117de9190612174565b6001600160a01b03166001600160a01b0316815260200190815260200160002060009054906101000a90046001600160a01b03166001600160a01b0316826001600160a01b031663785e9e866040518163ffffffff1660e01b815260040160206040518083038186803b15801561185457600080fd5b505afa158015611868573d6000803e3d6000fd5b505050506040513d601f19601f8201168201806040525081019061188c9190612174565b6001600160a01b03167f817f216d12af1855f1b81f88dc6421e26ebc7fa7eca01c58fd1035dd655b3d5460405160405180910390a35b61193e826001600160a01b031663785e9e866040518163ffffffff1660e01b815260040160206040518083038186803b1580156118fe57600080fd5b505afa158015611912573d6000803e3d6000fd5b505050506040513d601f19601f820116820180604052508101906119369190612174565b603490611dde565b90508160366000846001600160a01b031663785e9e866040518163ffffffff1660e01b815260040160206040518083038186803b15801561197e57600080fd5b505afa158015611992573d6000803e3d6000fd5b505050506040513d601f19601f820116820180604052508101906119b69190612174565b6001600160a01b03166001600160a01b0316815260200190815260200160002060006101000a8154816001600160a01b0302191690836001600160a01b03160217905550816001600160a01b0316826001600160a01b031663785e9e866040518163ffffffff1660e01b815260040160206040518083038186803b158015611a3d57600080fd5b505afa158015611a51573d6000803e3d6000fd5b505050506040513d601f19601f82011682018060405250810190611a759190612174565b6001600160a01b03167f7beb5803e95d997a3a41bdd114aad49420e9b4ee9fd80c96b9acb7a8bf9ee07760405160405180910390a3919050565b600054610100900460ff16611b1a5760405162461bcd60e51b815260206004820152602b60248201527f496e697469616c697a61626c653a20636f6e7472616374206973206e6f74206960448201526a6e697469616c697a696e6760a81b6064820152608401610360565b6001600160a01b038116611b675760405162461bcd60e51b81526020600482015260146024820152736d61696e206973207a65726f206164647265737360601b6044820152606401610360565b603380546001600160a01b0319166001600160a01b0392909216919091179055565b6000611bc7826001600160a01b031663785e9e866040518163ffffffff1660e01b815260040160206040518083038186803b1580156103a557600080fd5b1580611c6c5750816001600160a01b031660366000846001600160a01b031663785e9e866040518163ffffffff1660e01b815260040160206040518083038186803b158015611c1557600080fd5b505afa158015611c29573d6000803e3d6000fd5b505050506040513d601f19601f82011682018060405250810190611c4d9190612174565b6001600160a01b03908116825260208201929092526040016000205416145b611cb85760405162461bcd60e51b815260206004820152601860248201527f6475706c696361746520455243323020646574656374656400000000000000006044820152606401610360565b610fed82611555565b6000826000018281548110611cd857611cd86120be565b9060005260206000200154905092915050565b60008181526001830160205260408120548015611dd4576000611d0f6001836121d0565b8554909150600090611d23906001906121d0565b9050818114611d88576000866000018281548110611d4357611d436120be565b9060005260206000200154905080876000018481548110611d6657611d666120be565b6000918252602080832090910192909255918252600188019052604090208390555b8554869080611d9957611d996121e7565b600190038181906000526020600020016000905590558560010160008681526020019081526020016000206000905560019350505050611518565b6000915050611518565b6000611515836001600160a01b0384166000611e0d838360009081526001919091016020526040902054151590565b611e4357508154600181810184556000848152602080822090930184905584548482528286019093526040902091909155611518565b506000611518565b6020808252825182820181905260009190848201906040850190845b81811015611e8c5783516001600160a01b031683529284019291840191600101611e67565b50909695505050505050565b6001600160a01b03811681146114fc57600080fd5b8035610ff081611e98565b600060208284031215611eca57600080fd5b8135611ed581611e98565b9392505050565b634e487b7160e01b600052604160045260246000fd5b60008060408385031215611f0557600080fd5b8235611f1081611e98565b915060208381013567ffffffffffffffff80821115611f2e57600080fd5b818601915086601f830112611f4257600080fd5b813581811115611f5457611f54611edc565b8060051b604051601f19603f83011681018181108582111715611f7957611f79611edc565b604052918252848201925083810185019189831115611f9757600080fd5b938501935b82851015611fbc57611fad85611ead565b84529385019392850192611f9c565b8096505050505050509250929050565b600060208083528351808285015260005b81811015611ff957858101830151858201604001528201611fdd565b8181111561200b576000604083870101525b50601f01601f1916929092016040019392505050565b6020808252825160408383015280516060840181905260009291820190839060808601905b808310156120715783516001600160a01b031682526020820191508484019350600183019250612046565b5086840151868203601f190160408801528051808352908501935090840191506000905b80821015611e8c5783516001600160a01b03168352928401929184019160019190910190612095565b634e487b7160e01b600052603260045260246000fd5b634e487b7160e01b600052601160045260246000fd5b60006000198214156120fe576120fe6120d4565b5060010190565b80516020808301519190811015610db35760001960209190910360031b1b16919050565b60006020828403121561213b57600080fd5b81518015158114611ed557600080fd5b6020808252600f908201526e676f7665726e616e6365206f6e6c7960881b604082015260600190565b60006020828403121561218657600080fd5b8151611ed581611e98565b6000602082840312156121a357600080fd5b81516001600160c01b0381168114611ed557600080fd5b634e487b7160e01b600052600160045260246000fd5b6000828210156121e2576121e26120d4565b500390565b634e487b7160e01b600052603160045260246000fdfea264697066735822122026fe3ab72a22c6a0de756998a27482cb7a779c5cc040a881ac4071894092f47764736f6c63430008090033",
  "linkReferences": {},
  "deployedLinkReferences": {}
}