{
  "_format": "hh-sol-artifact-1",
  "contractName": "DeltaOpen",
  "sourceName": "contracts/DeltaOpen.sol",
  "abi": [
    {
      "inputs": [
        {
          "internalType": "address",
          "name": "oracle_",
          "type": "address"
        },
        {
          "internalType": "uint256",
          "name": "newCloseFactorMantissa_",
          "type": "uint256"
        }
      ],
      "stateMutability": "nonpayable",
      "type": "constructor"
    },
    {
      "anonymous": false,
      "inputs": [
        {
          "indexed": false,
          "internalType": "address",
          "name": "targetAccount",
          "type": "address"
        },
        {
          "indexed": false,
          "internalType": "address",
          "name": "assetBorrow",
          "type": "address"
        },
        {
          "indexed": false,
          "internalType": "uint256",
          "name": "borrowBalanceAccumulated",
          "type": "uint256"
        },
        {
          "indexed": false,
          "internalType": "uint256",
          "name": "amountRepaid",
          "type": "uint256"
        },
        {
          "indexed": false,
          "internalType": "address",
          "name": "liquidator",
          "type": "address"
        },
        {
          "indexed": false,
          "internalType": "address",
          "name": "assetCollateral",
          "type": "address"
        },
        {
          "indexed": false,
          "internalType": "uint256",
          "name": "amountSeized",
          "type": "uint256"
        }
      ],
      "name": "BorrowLiquidated",
      "type": "event"
    },
    {
      "anonymous": false,
      "inputs": [
        {
          "indexed": false,
          "internalType": "address",
          "name": "account",
          "type": "address"
        },
        {
          "indexed": false,
          "internalType": "address",
          "name": "asset",
          "type": "address"
        },
        {
          "indexed": false,
          "internalType": "uint256",
          "name": "amount",
          "type": "uint256"
        },
        {
          "indexed": false,
          "internalType": "uint256",
          "name": "startingBalance",
          "type": "uint256"
        },
        {
          "indexed": false,
          "internalType": "uint256",
          "name": "newBalance",
          "type": "uint256"
        }
      ],
      "name": "BorrowRepaid",
      "type": "event"
    },
    {
      "anonymous": false,
      "inputs": [
        {
          "indexed": false,
          "internalType": "address",
          "name": "account",
          "type": "address"
        },
        {
          "indexed": false,
          "internalType": "address",
          "name": "asset",
          "type": "address"
        },
        {
          "indexed": false,
          "internalType": "uint256",
          "name": "amount",
          "type": "uint256"
        },
        {
          "indexed": false,
          "internalType": "uint256",
          "name": "startingBalance",
          "type": "uint256"
        },
        {
          "indexed": false,
          "internalType": "uint256",
          "name": "borrowAmountWithFee",
          "type": "uint256"
        },
        {
          "indexed": false,
          "internalType": "uint256",
          "name": "newBalance",
          "type": "uint256"
        }
      ],
      "name": "BorrowTaken",
      "type": "event"
    },
    {
      "anonymous": false,
      "inputs": [
        {
          "indexed": false,
          "internalType": "address",
          "name": "asset",
          "type": "address"
        },
        {
          "indexed": false,
          "internalType": "uint256",
          "name": "equityAvailableBefore",
          "type": "uint256"
        },
        {
          "indexed": false,
          "internalType": "uint256",
          "name": "amount",
          "type": "uint256"
        },
        {
          "indexed": false,
          "internalType": "address",
          "name": "owner",
          "type": "address"
        }
      ],
      "name": "EquityWithdrawn",
      "type": "event"
    },
    {
      "anonymous": false,
      "inputs": [
        {
          "indexed": false,
          "internalType": "address",
          "name": "account",
          "type": "address"
        },
        {
          "indexed": false,
          "internalType": "address",
          "name": "asset",
          "type": "address"
        },
        {
          "indexed": false,
          "internalType": "uint256",
          "name": "amount",
          "type": "uint256"
        },
        {
          "indexed": false,
          "internalType": "uint256",
          "name": "startingBalance",
          "type": "uint256"
        },
        {
          "indexed": false,
          "internalType": "uint256",
          "name": "newBalance",
          "type": "uint256"
        }
      ],
      "name": "SupplyOrgFeeAsAdmin",
      "type": "event"
    },
    {
      "anonymous": false,
      "inputs": [
        {
          "indexed": false,
          "internalType": "address",
          "name": "account",
          "type": "address"
        },
        {
          "indexed": false,
          "internalType": "address",
          "name": "asset",
          "type": "address"
        },
        {
          "indexed": false,
          "internalType": "uint256",
          "name": "amount",
          "type": "uint256"
        },
        {
          "indexed": false,
          "internalType": "uint256",
          "name": "startingBalance",
          "type": "uint256"
        },
        {
          "indexed": false,
          "internalType": "uint256",
          "name": "newBalance",
          "type": "uint256"
        }
      ],
      "name": "SupplyReceived",
      "type": "event"
    },
    {
      "anonymous": false,
      "inputs": [
        {
          "indexed": false,
          "internalType": "address",
          "name": "account",
          "type": "address"
        },
        {
          "indexed": false,
          "internalType": "address",
          "name": "asset",
          "type": "address"
        },
        {
          "indexed": false,
          "internalType": "uint256",
          "name": "amount",
          "type": "uint256"
        },
        {
          "indexed": false,
          "internalType": "uint256",
          "name": "startingBalance",
          "type": "uint256"
        },
        {
          "indexed": false,
          "internalType": "uint256",
          "name": "newBalance",
          "type": "uint256"
        }
      ],
      "name": "SupplyWithdrawn",
      "type": "event"
    },
    {
      "inputs": [],
      "name": "_guardCounter",
      "outputs": [
        {
          "internalType": "uint256",
          "name": "",
          "type": "uint256"
        }
      ],
      "stateMutability": "view",
      "type": "function"
    },
    {
      "inputs": [
        {
          "internalType": "address",
          "name": "asset",
          "type": "address"
        },
        {
          "internalType": "address",
          "name": "interestRateModel",
          "type": "address"
        }
      ],
      "name": "_setMarketIRateModel",
      "outputs": [
        {
          "internalType": "bool",
          "name": "",
          "type": "bool"
        }
      ],
      "stateMutability": "nonpayable",
      "type": "function"
    },
    {
      "inputs": [
        {
          "internalType": "uint256",
          "name": "collateralRatioMantissa",
          "type": "uint256"
        },
        {
          "internalType": "uint256",
          "name": "liquidationDiscountMantissa",
          "type": "uint256"
        }
      ],
      "name": "_setRiskParameters",
      "outputs": [
        {
          "internalType": "bool",
          "name": "",
          "type": "bool"
        }
      ],
      "stateMutability": "nonpayable",
      "type": "function"
    },
    {
      "inputs": [
        {
          "internalType": "address",
          "name": "asset",
          "type": "address"
        },
        {
          "internalType": "address",
          "name": "interestRateModel",
          "type": "address"
        }
      ],
      "name": "_supportMarket",
      "outputs": [
        {
          "internalType": "bool",
          "name": "",
          "type": "bool"
        }
      ],
      "stateMutability": "nonpayable",
      "type": "function"
    },
    {
      "inputs": [
        {
          "internalType": "address",
          "name": "asset",
          "type": "address"
        }
      ],
      "name": "_suspendMarket",
      "outputs": [
        {
          "internalType": "bool",
          "name": "",
          "type": "bool"
        }
      ],
      "stateMutability": "nonpayable",
      "type": "function"
    },
    {
      "inputs": [
        {
          "internalType": "address",
          "name": "asset",
          "type": "address"
        },
        {
          "internalType": "uint256",
          "name": "amount",
          "type": "uint256"
        }
      ],
      "name": "_withdrawEquity",
      "outputs": [
        {
          "internalType": "bool",
          "name": "",
          "type": "bool"
        }
      ],
      "stateMutability": "nonpayable",
      "type": "function"
    },
    {
      "inputs": [],
      "name": "admin",
      "outputs": [
        {
          "internalType": "address",
          "name": "",
          "type": "address"
        }
      ],
      "stateMutability": "view",
      "type": "function"
    },
    {
      "inputs": [
        {
          "internalType": "address",
          "name": "asset",
          "type": "address"
        }
      ],
      "name": "assetPrices",
      "outputs": [
        {
          "internalType": "uint256",
          "name": "",
          "type": "uint256"
        }
      ],
      "stateMutability": "view",
      "type": "function"
    },
    {
      "inputs": [
        {
          "internalType": "address",
          "name": "asset",
          "type": "address"
        },
        {
          "internalType": "uint256",
          "name": "amount",
          "type": "uint256"
        }
      ],
      "name": "borrow",
      "outputs": [
        {
          "internalType": "bool",
          "name": "",
          "type": "bool"
        }
      ],
      "stateMutability": "nonpayable",
      "type": "function"
    },
    {
      "inputs": [
        {
          "internalType": "address",
          "name": "",
          "type": "address"
        },
        {
          "internalType": "address",
          "name": "",
          "type": "address"
        }
      ],
      "name": "borrowBalances",
      "outputs": [
        {
          "internalType": "uint256",
          "name": "principal",
          "type": "uint256"
        },
        {
          "internalType": "uint256",
          "name": "interestIndex",
          "type": "uint256"
        }
      ],
      "stateMutability": "view",
      "type": "function"
    },
    {
      "inputs": [
        {
          "internalType": "address",
          "name": "userAddress",
          "type": "address"
        }
      ],
      "name": "calculateAccountValues",
      "outputs": [
        {
          "internalType": "uint256",
          "name": "",
          "type": "uint256"
        },
        {
          "internalType": "uint256",
          "name": "",
          "type": "uint256"
        }
      ],
      "stateMutability": "view",
      "type": "function"
    },
    {
      "inputs": [
        {
          "internalType": "uint256",
          "name": "startingBalance",
          "type": "uint256"
        },
        {
          "internalType": "uint256",
          "name": "interestIndexStart",
          "type": "uint256"
        },
        {
          "internalType": "uint256",
          "name": "interestIndexEnd",
          "type": "uint256"
        }
      ],
      "name": "calculateBalance",
      "outputs": [
        {
          "internalType": "uint256",
          "name": "",
          "type": "uint256"
        }
      ],
      "stateMutability": "pure",
      "type": "function"
    },
    {
      "inputs": [],
      "name": "closeFactorMantissa",
      "outputs": [
        {
          "internalType": "uint256",
          "name": "",
          "type": "uint256"
        }
      ],
      "stateMutability": "view",
      "type": "function"
    },
    {
      "inputs": [
        {
          "internalType": "uint256",
          "name": "",
          "type": "uint256"
        }
      ],
      "name": "collateralMarkets",
      "outputs": [
        {
          "internalType": "address",
          "name": "",
          "type": "address"
        }
      ],
      "stateMutability": "view",
      "type": "function"
    },
    {
      "inputs": [],
      "name": "collateralRatio",
      "outputs": [
        {
          "internalType": "uint256",
          "name": "mantissa",
          "type": "uint256"
        }
      ],
      "stateMutability": "view",
      "type": "function"
    },
    {
      "inputs": [
        {
          "internalType": "address",
          "name": "asset",
          "type": "address"
        }
      ],
      "name": "fetchAssetPrice",
      "outputs": [
        {
          "components": [
            {
              "internalType": "uint256",
              "name": "mantissa",
              "type": "uint256"
            }
          ],
          "internalType": "struct Exponential.Exp",
          "name": "",
          "type": "tuple"
        }
      ],
      "stateMutability": "view",
      "type": "function"
    },
    {
      "inputs": [
        {
          "internalType": "address",
          "name": "account",
          "type": "address"
        }
      ],
      "name": "getAccountLiquidity",
      "outputs": [
        {
          "internalType": "int256",
          "name": "",
          "type": "int256"
        }
      ],
      "stateMutability": "view",
      "type": "function"
    },
    {
      "inputs": [
        {
          "internalType": "address",
          "name": "account",
          "type": "address"
        },
        {
          "internalType": "address",
          "name": "asset",
          "type": "address"
        }
      ],
      "name": "getBorrowBalance",
      "outputs": [
        {
          "internalType": "uint256",
          "name": "",
          "type": "uint256"
        }
      ],
      "stateMutability": "view",
      "type": "function"
    },
    {
      "inputs": [
        {
          "internalType": "address",
          "name": "account",
          "type": "address"
        },
        {
          "internalType": "address",
          "name": "asset",
          "type": "address"
        }
      ],
      "name": "getBorrowBalanceWithInterest",
      "outputs": [
        {
          "internalType": "uint256",
          "name": "",
          "type": "uint256"
        }
      ],
      "stateMutability": "view",
      "type": "function"
    },
    {
      "inputs": [],
      "name": "getCollateralMarketsLength",
      "outputs": [
        {
          "internalType": "uint256",
          "name": "",
          "type": "uint256"
        }
      ],
      "stateMutability": "view",
      "type": "function"
    },
    {
      "inputs": [
        {
          "internalType": "address",
          "name": "asset",
          "type": "address"
        }
      ],
      "name": "getMarketBalances",
      "outputs": [
        {
          "internalType": "uint256",
          "name": "",
          "type": "uint256"
        },
        {
          "internalType": "uint256",
          "name": "",
          "type": "uint256"
        }
      ],
      "stateMutability": "view",
      "type": "function"
    },
    {
      "inputs": [
        {
          "internalType": "address",
          "name": "account",
          "type": "address"
        },
        {
          "internalType": "address",
          "name": "asset",
          "type": "address"
        }
      ],
      "name": "getSupplyBalance",
      "outputs": [
        {
          "internalType": "uint256",
          "name": "",
          "type": "uint256"
        }
      ],
      "stateMutability": "view",
      "type": "function"
    },
    {
      "inputs": [
        {
          "internalType": "address",
          "name": "account",
          "type": "address"
        },
        {
          "internalType": "address",
          "name": "asset",
          "type": "address"
        }
      ],
      "name": "getSupplyBalanceWithInterest",
      "outputs": [
        {
          "internalType": "uint256",
          "name": "",
          "type": "uint256"
        }
      ],
      "stateMutability": "view",
      "type": "function"
    },
    {
      "inputs": [
        {
          "internalType": "address",
          "name": "targetAccount",
          "type": "address"
        },
        {
          "internalType": "address",
          "name": "assetBorrow",
          "type": "address"
        },
        {
          "internalType": "address",
          "name": "assetCollateral",
          "type": "address"
        },
        {
          "internalType": "uint256",
          "name": "requestedAmountClose",
          "type": "uint256"
        }
      ],
      "name": "liquidateBorrow",
      "outputs": [
        {
          "internalType": "bool",
          "name": "",
          "type": "bool"
        }
      ],
      "stateMutability": "nonpayable",
      "type": "function"
    },
    {
      "inputs": [],
      "name": "liquidationDiscount",
      "outputs": [
        {
          "internalType": "uint256",
          "name": "mantissa",
          "type": "uint256"
        }
      ],
      "stateMutability": "view",
      "type": "function"
    },
    {
      "inputs": [
        {
          "internalType": "address",
          "name": "",
          "type": "address"
        }
      ],
      "name": "markets",
      "outputs": [
        {
          "internalType": "bool",
          "name": "isSupported",
          "type": "bool"
        },
        {
          "internalType": "uint256",
          "name": "blockNumber",
          "type": "uint256"
        },
        {
          "internalType": "address",
          "name": "interestRateModel",
          "type": "address"
        },
        {
          "internalType": "uint256",
          "name": "totalSupply",
          "type": "uint256"
        },
        {
          "internalType": "uint256",
          "name": "supplyRateMantissa",
          "type": "uint256"
        },
        {
          "internalType": "uint256",
          "name": "supplyIndex",
          "type": "uint256"
        },
        {
          "internalType": "uint256",
          "name": "totalBorrows",
          "type": "uint256"
        },
        {
          "internalType": "uint256",
          "name": "borrowRateMantissa",
          "type": "uint256"
        },
        {
          "internalType": "uint256",
          "name": "borrowIndex",
          "type": "uint256"
        }
      ],
      "stateMutability": "view",
      "type": "function"
    },
    {
      "inputs": [],
      "name": "maxLiquidationDiscountMantissa",
      "outputs": [
        {
          "internalType": "uint256",
          "name": "",
          "type": "uint256"
        }
      ],
      "stateMutability": "view",
      "type": "function"
    },
    {
      "inputs": [],
      "name": "minCollateralRatioMantissa",
      "outputs": [
        {
          "internalType": "uint256",
          "name": "",
          "type": "uint256"
        }
      ],
      "stateMutability": "view",
      "type": "function"
    },
    {
      "inputs": [],
      "name": "originationFee",
      "outputs": [
        {
          "internalType": "uint256",
          "name": "mantissa",
          "type": "uint256"
        }
      ],
      "stateMutability": "view",
      "type": "function"
    },
    {
      "inputs": [
        {
          "internalType": "address",
          "name": "",
          "type": "address"
        },
        {
          "internalType": "address",
          "name": "",
          "type": "address"
        }
      ],
      "name": "originationFeeBalance",
      "outputs": [
        {
          "internalType": "uint256",
          "name": "",
          "type": "uint256"
        }
      ],
      "stateMutability": "view",
      "type": "function"
    },
    {
      "inputs": [],
      "name": "paused",
      "outputs": [
        {
          "internalType": "bool",
          "name": "",
          "type": "bool"
        }
      ],
      "stateMutability": "view",
      "type": "function"
    },
    {
      "inputs": [],
      "name": "priceOracle",
      "outputs": [
        {
          "internalType": "contract ChainLink",
          "name": "",
          "type": "address"
        }
      ],
      "stateMutability": "view",
      "type": "function"
    },
    {
      "inputs": [
        {
          "internalType": "address",
          "name": "asset",
          "type": "address"
        },
        {
          "internalType": "uint256",
          "name": "amount",
          "type": "uint256"
        }
      ],
      "name": "repayBorrow",
      "outputs": [
        {
          "internalType": "bool",
          "name": "",
          "type": "bool"
        }
      ],
      "stateMutability": "nonpayable",
      "type": "function"
    },
    {
      "inputs": [],
      "name": "rewardControl",
      "outputs": [
        {
          "internalType": "contract IRewardControl",
          "name": "",
          "type": "address"
        }
      ],
      "stateMutability": "view",
      "type": "function"
    },
    {
      "inputs": [
        {
          "internalType": "address",
          "name": "rewardControl_",
          "type": "address"
        }
      ],
      "name": "setRewardControlAddress",
      "outputs": [
        {
          "internalType": "bool",
          "name": "",
          "type": "bool"
        }
      ],
      "stateMutability": "nonpayable",
      "type": "function"
    },
    {
      "inputs": [
        {
          "internalType": "address",
          "name": "asset",
          "type": "address"
        },
        {
          "internalType": "uint256",
          "name": "amount",
          "type": "uint256"
        }
      ],
      "name": "supply",
      "outputs": [
        {
          "internalType": "bool",
          "name": "",
          "type": "bool"
        }
      ],
      "stateMutability": "nonpayable",
      "type": "function"
    },
    {
      "inputs": [
        {
          "internalType": "address",
          "name": "",
          "type": "address"
        },
        {
          "internalType": "address",
          "name": "",
          "type": "address"
        }
      ],
      "name": "supplyBalances",
      "outputs": [
        {
          "internalType": "uint256",
          "name": "principal",
          "type": "uint256"
        },
        {
          "internalType": "uint256",
          "name": "interestIndex",
          "type": "uint256"
        }
      ],
      "stateMutability": "view",
      "type": "function"
    },
    {
      "inputs": [
        {
          "internalType": "address",
          "name": "asset",
          "type": "address"
        },
        {
          "internalType": "uint256",
          "name": "requestedAmount",
          "type": "uint256"
        }
      ],
      "name": "withdraw",
      "outputs": [
        {
          "internalType": "bool",
          "name": "",
          "type": "bool"
        }
      ],
      "stateMutability": "nonpayable",
      "type": "function"
    }
  ],
  "bytecode": "0x60806040526000196000553480156200001757600080fd5b50604051620044b9380380620044b98339810160408190526200003a91620001be565b6001600160a01b038216620000965760405162461bcd60e51b815260206004820152601c60248201527f4f7261636c652063616e2774206265205a45524f20616464726573730000000060448201526064015b60405180910390fd5b670de0b6b3a76400008110620001085760405162461bcd60e51b815260206004820152603060248201527f496e76616c6964204f726967696e6174696f6e20466565206f7220436c6f736560448201526f20466163746f72204d616e746973736160801b60648201526084016200008d565b60078054336001600160a01b031991821617909155670de0b6b3a7640000600190815566038d7ea4c680006002819055671158e460913d0000600381905567016345785d8a00006004819055670f43fc2c04ee00006005556006819055604080516020808201835290849052600e9390935580518084018252849052600f939093558251918201909252819052601055601555600980549091166001600160a01b039390931692909217909155601455620001fa565b60008060408385031215620001d257600080fd5b82516001600160a01b0381168114620001ea57600080fd5b6020939093015192949293505050565b6142af806200020a6000396000f3fe608060405234801561001057600080fd5b50600436106102325760003560e01c8063b4eae1cb11610130578063dbe2bc84116100b8578063f2b9fdb81161007c578063f2b9fdb8146105e0578063f3fef3a3146105f3578063f5c61ce614610606578063f851a44014610619578063fc7d42d71461062c57600080fd5b8063dbe2bc841461057c578063ddec280e1461058f578063e61604cf146105b1578063e69e4640146105c4578063e8755446146105d757600080fd5b8063be2eafa1116100ff578063be2eafa114610531578063beb546151461053a578063bf5bfdfb1461054d578063c1abfaa314610556578063c365a6461461056957600080fd5b8063b4eae1cb146104b2578063b7adddac146104bc578063b8bb5c42146104ee578063ba377731146104f857600080fd5b80635e9a523c116101be5780638053fcbe116101825780638053fcbe146103b45780638a0022c6146103be5780638e8f294b146103d15780639f180cf11461048c578063abdb5ea81461049f57600080fd5b80635e9a523c146103335780635ec88c79146103465780636e2ede031461035957806379b29648146103615780637bc332101461038957600080fd5b80632c52c7fd116102055780632c52c7fd146102e4578063343caa1d146102ed5780634706c375146103005780634b8a3529146103135780635c975abb1461032657600080fd5b80630dd8fe6c14610237578063118e31b71461025d57806321237f9c146102965780632630c12f146102b9575b600080fd5b61024a610245366004613e59565b61065e565b6040519081526020015b60405180910390f35b61024a61026b366004613e59565b6001600160a01b039182166000908152600b6020908152604080832093909416825291909152205490565b6102a96102a4366004613e8c565b6106d5565b6040519015158152602001610254565b6009546102cc906001600160a01b031681565b6040516001600160a01b039091168152602001610254565b61024a60065481565b61024a6102fb366004613e59565b6107b2565b6102a961030e366004613ea7565b610807565b6102a9610321366004613ea7565b610b72565b6011546102a99060ff1681565b61024a610341366004613e8c565b611022565b61024a610354366004613e8c565b611036565b600d5461024a565b61037461036f366004613e8c565b61107c565b60408051928352602083019190915201610254565b61024a610397366004613e59565b601260209081526000928352604080842090915290825290205481565b60105461024a9081565b6102a96103cc366004613e59565b611119565b6104386103df366004613e8c565b600c6020526000908152604090208054600182015460028301546003840154600485015460058601546006870154600788015460089098015460ff9097169795966001600160a01b039095169593949293919290919089565b604080519915158a5260208a01989098526001600160a01b03909616968801969096526060870193909352608086019190915260a085015260c084015260e083019190915261010082015261012001610254565b61037461049a366004613e8c565b61120f565b6102a96104ad366004613ea7565b61122e565b600e5461024a9081565b6103746104ca366004613e59565b600a6020908152600092835260408084209091529082529020805460019091015482565b600f5461024a9081565b61024a610506366004613e59565b6001600160a01b039182166000908152600a6020908152604080832093909416825291909152205490565b61024a60055481565b6102cc610548366004613ed1565b6115f6565b61024a60155481565b6102a9610564366004613e59565b611620565b6102a9610577366004613eea565b61184b565b6102a961058a366004613e8c565b611ad3565b6105a261059d366004613e8c565b611b7d565b60405190518152602001610254565b6102a96105bf366004613f0c565b611c98565b61024a6105d2366004613f57565b612324565b61024a60145481565b6102a96105ee366004613ea7565b612356565b6102a9610601366004613ea7565b6126e9565b6013546102cc906001600160a01b031681565b6007546102cc906001600160a01b031681565b61037461063a366004613e59565b600b6020908152600092835260408084209091529082529020805460019091015482565b6001600160a01b038082166000818152600c602090815260408083209487168352600b8252808320938352929052908120600883015460078401546001850154939485948594919391926106b3929143612b04565b93506106c88160000154826001015486612324565b9450505050505b92915050565b6007546000906001600160a01b031633146107285760405162461bcd60e51b815260206004820152600e60248201526d22bc3832b1ba32b21030b236b4b760911b60448201526064015b60405180910390fd5b6001600160a01b03821661078c5760405162461bcd60e51b815260206004820152602560248201527f526577617264436f6e74726f6c20616464726573732063616e6e6f7420626520604482015264656d70747960d81b606482015260840161071f565b50601380546001600160a01b0319166001600160a01b0392909216919091179055600190565b6001600160a01b038082166000818152600c602090815260408083209487168352600a8252808320938352929052908120600583015460048401546001850154939485948594919391926106b3929143612b04565b6007546000906001600160a01b031633146108705760405162461bcd60e51b815260206004820152602360248201527f4551554954595f5749544844524157414c5f4d4f44454c5f4f574e45525f434860448201526245434b60e81b606482015260840161071f565b6001600160a01b0383166108c65760405162461bcd60e51b815260206004820152601b60248201527f41737365742063616e2774206265207a65726f20616464726573730000000000604482015260640161071f565b6000806108d28561107c565b91509150600082826108e388612b77565b6108ed9190613f99565b6108f79190613fb1565b90508085106109485760405162461bcd60e51b815260206004820152601b60248201527f4551554954595f494e53554646494349454e545f42414c414e43450000000000604482015260640161071f565b6007546109609087906001600160a01b031687612bf3565b6001600160a01b038087166000908152600c60205260409020600201541663517cf73e878761098e82612b77565b6109989190613fb1565b6001600160a01b038a166000908152600c6020526040908190206003015490516001600160e01b031960e086901b1681526109d893929190600401613fc8565b60206040518083038186803b1580156109f057600080fd5b505afa158015610a04573d6000803e3d6000fd5b505050506040513d601f19601f82011682018060405250810190610a289190613fe9565b6001600160a01b038088166000908152600c6020526040902060048101929092556002909101541663ed2b5a3c8787610a6082612b77565b610a6a9190613fb1565b6001600160a01b038a166000908152600c6020526040908190206006015490516001600160e01b031960e086901b168152610aaa93929190600401613fc8565b60206040518083038186803b158015610ac257600080fd5b505afa158015610ad6573d6000803e3d6000fd5b505050506040513d601f19601f82011682018060405250810190610afa9190613fe9565b6001600160a01b038781166000818152600c6020908152604091829020600790810195909555935481519283529382018590528101889052911660608201527fcb9f0cda23d6b563fc8e14d8fdada71d2ab7dadccc2e26dc353bf20ea8c5b8529060800160405180910390a150600195945050505050565b6000600160156000828254610b879190613f99565b909155505060155460115460ff1615610bb25760405162461bcd60e51b815260040161071f90614002565b610bbc8433612cdb565b610bc4613b50565b6001600160a01b0385166000818152600c60209081526040808320338452600b8352818420948452939091529020815460ff16610c3a5760405162461bcd60e51b815260206004820152601460248201527313505492d15517d393d517d4d5541413d495115160621b604482015260640161071f565b610c5282600801548360070154846001015443612b04565b80845281546001830154610c6592612324565b6020840152610c7386612d62565b60408401819052600090610c88908890613fb1565b905083604001518460200151610c9e9190613f99565b60608501819052825460068501549091610cb791613f99565b610cc19190613fb1565b6080850152610ccf33612dc8565b61018086018190526101608601919091525115610d2e5760405162461bcd60e51b815260206004820181905260248201527f424f52524f575f4143434f554e545f53484f525446414c4c5f50524553454e54604482015260640161071f565b610d3c888560400151612eab565b6101a08501819052610160850151905190511015610da65760405162461bcd60e51b815260206004820152602160248201527f424f52524f575f414d4f554e545f4c49515549444954595f53484f525446414c6044820152601360fa1b606482015260840161071f565b610daf88612b77565b60a08501819052610dc1908890613fb1565b60c0850152600583015460048401546001850154610de192919043612b04565b60e0850152600283015460c085015160808601516040516328be7b9f60e11b81526001600160a01b039093169263517cf73e92610e22928d92600401613fc8565b60206040518083038186803b158015610e3a57600080fd5b505afa158015610e4e573d6000803e3d6000fd5b505050506040513d601f19601f82011682018060405250810190610e729190613fe9565b610100850152600283015460c08501516080860151604051633b4ad68f60e21b81526001600160a01b039093169263ed2b5a3c92610eb4928d92600401613fc8565b60206040518083038186803b158015610ecc57600080fd5b505afa158015610ee0573d6000803e3d6000fd5b505050506040513d601f19601f82011682018060405250810190610f049190613fe9565b61012085018190524360018086019190915560808601516006860155610100860151600486015560e086015160058601556007850191909155845160088501819055835461014087015260608601518455908301553360009081526012602090815260408083206001600160a01b038c16845290915281208054839290610f8c908490613f99565b90915550610f9d9050883389612bf3565b610140840151604080860151845482513381526001600160a01b038d1660208201528084018c90526060810194909452608084019190915260a0830152517f6b69190ebbb96f162b04dc222ef96416f9dca9a415b6dd183c79424501113e189181900360c00190a16001955050505050601554811461101b57600080fd5b5092915050565b60008061102e83611b7d565b519392505050565b600080600061104484612dc8565b9150915061105182511590565b156110735761105f81612f5e565b61106b9060001961402b565b949350505050565b61106b82612f5e565b6000806000806000806000600c6000896001600160a01b03166001600160a01b0316815260200190815260200160002090506110c681600501548260040154836001015443612b04565b94506110db8160030154826005015487612324565b93506110f581600801548260070154836001015443612b04565b925061110a8160060154826008015485612324565b93989397509295505050505050565b6007546000906001600160a01b031633146111895760405162461bcd60e51b815260206004820152602a60248201527f5345545f4d41524b45545f494e5445524553545f524154455f4d4f44454c5f4f604482015269574e45525f434845434b60b01b606482015260840161071f565b6001600160a01b0382166111da5760405162461bcd60e51b8152602060048201526018602482015277052617465204d6f64656c2063616e6e6f74206265203078360441b604482015260640161071f565b506001600160a01b039182166000908152600c6020526040902060020180546001600160a01b03191691909216179055600190565b60008060008061121e85612f76565b9051905190969095509350505050565b60006001601560008282546112439190613f99565b909155505060155460115460ff161561126e5760405162461bcd60e51b815260040161071f90614002565b6112788433612cdb565b6112d560405180610160016040528060008152602001600081526020016000815260200160008152602001600081526020016000815260200160008152602001600081526020016000815260200160008152602001600081525090565b6001600160a01b0385166000818152600c60209081526040808320338452600b835281842094845293909152902060088201546007830154600184015461131e92919043612b04565b8084528154600183015461133192612324565b60208401526000548614156113615761135761134d8833613143565b84602001516131c1565b6040840152611369565b604083018690525b8260400151836020015161137d9190613fb1565b6060840152604083015161139490889033906131d8565b8054606084015160068401546113aa9190613f99565b6113b49190613fb1565b60808401526113c287612b77565b60a0840181905260408401516113d791613f99565b60c08401526005820154600483015460018401546113f792919043612b04565b60e0840152600282015460c084015160808501516040516328be7b9f60e11b81526001600160a01b039093169263517cf73e92611438928c92600401613fc8565b60206040518083038186803b15801561145057600080fd5b505afa158015611464573d6000803e3d6000fd5b505050506040513d601f19601f820116820180604052508101906114889190613fe9565b610100840152600282015460c08401516080850151604051633b4ad68f60e21b81526001600160a01b039093169263ed2b5a3c926114ca928c92600401613fc8565b60206040518083038186803b1580156114e257600080fd5b505afa1580156114f6573d6000803e3d6000fd5b505050506040513d601f19601f8201168201806040525081019061151a9190613fe9565b61012084018190524360018085019190915560808501516006850155610100850151600485015560e0850151600585015560078401919091558351600884018190558254610140860152606085015183559082015560408301516115819088903390613377565b611595873385604001518560050154613456565b7f550e7e464126359c6adc43831f011682856b177df6c49c0af6675dd2a063649d3388856040015186610140015185600001546040516115d99594939291906140b0565b60405180910390a160019450505050601554811461101b57600080fd5b600d818154811061160657600080fd5b6000918252602090912001546001600160a01b0316905081565b6007546000906001600160a01b0316331461166a5760405162461bcd60e51b815260206004820152600a60248201526927b7363c9030b236b4b760b11b604482015260640161071f565b6001600160a01b0382166116bb5760405162461bcd60e51b8152602060048201526018602482015277052617465204d6f64656c2063616e6e6f74206265203078360441b604482015260640161071f565b600d546010116117215760405162461bcd60e51b815260206004820152602b60248201527f457863656564696e6720746865206d6178206e756d626572206f66206d61726b60448201526a195d1cc8185b1b1bddd95960aa1b606482015260840161071f565b600061172c84611b7d565b905061173781511590565b1561177c5760405162461bcd60e51b8152602060048201526015602482015274139bdd0818481cdd5c1c1bdc9d195908185cdcd95d605a1b604482015260640161071f565b6001600160a01b038481166000908152600c6020526040902060020180546001600160a01b0319169185169190911790556117b684613644565b6001600160a01b0384166000908152600c60205260409020805460ff1916600117815560050154611801576001546001600160a01b0385166000908152600c60205260409020600501555b6001600160a01b0384166000908152600c6020526040902060080154611841576001546001600160a01b0385166000908152600c60205260409020600801555b5060019392505050565b6007546000906001600160a01b031633146118a85760405162461bcd60e51b815260206004820152601f60248201527f5345545f5249534b5f504152414d45544552535f4f574e45525f434845434b00604482015260640161071f565b60055483101580156118bc57506006548211155b6119545760405162461bcd60e51b815260206004820152605960248201527f4c69717569646174696f6e20646973636f756e74206973206d6f72652074686160448201527f6e206d617820646973636f756e74206f7220636f6c6c61746572616c2072617460648201527f696f206973206c657373207468616e206d696e20726174696f00000000000000608482015260a40161071f565b6040805160208082018352858252825180820184528581528351808301855260055481528451928301909452600654825291929061199484835190511090565b156119e15760405162461bcd60e51b815260206004820152601860248201527f494e56414c49445f434f4c4c41544552414c5f524154494f0000000000000000604482015260640161071f565b825181511015611a335760405162461bcd60e51b815260206004820152601c60248201527f494e56414c49445f4c49515549444154494f4e5f444953434f554e5400000000604482015260640161071f565b604080516020810190915260008152611a62846040518060200160405280670de0b6b3a76400008152506136f2565b9050611a718582519051111590565b15611abe5760405162461bcd60e51b815260206004820181905260248201527f494e56414c49445f434f4d42494e45445f5249534b5f504152414d4554455253604482015260640161071f565b50509151600e55516010555060019392505050565b6007546000906001600160a01b03163314611b305760405162461bcd60e51b815260206004820152601a60248201527f53555350454e445f4d41524b45545f4f574e45525f434845434b000000000000604482015260640161071f565b6001600160a01b0382166000908152600c602052604090205460ff16611b5857506001919050565b506001600160a01b03166000908152600c60205260409020805460ff19169055600190565b6040805160208101909152600081526009546001600160a01b0316611bd55760405162461bcd60e51b815260206004820152600e60248201526d4f7261636c65206973205a65726f60901b604482015260640161071f565b60095460405163b3596f0760e01b81526001600160a01b038481166004830152600092839291169063b3596f0790602401604080518083038186803b158015611c1d57600080fd5b505afa158015611c31573d6000803e3d6000fd5b505050506040513d601f19601f82011682018060405250810190611c5591906140e1565b90925090506000611c6a60ff83166012613fb1565b9050611c7781600a6141fb565b611c819084614207565b604080516020810190915290815295945050505050565b60115460009060ff1615611cbe5760405162461bcd60e51b815260040161071f90614002565b611cc88386613727565b611cd28333613727565b611cdc8486612cdb565b611ce4613bfa565b6001600160a01b038087168083528682166020808501829052336040808701918252898616606088018190526000858152600c8552828120828252838220888352600b8752848320978352968652838220978252600a8087528483208484528752848320955190991682529785528281209181529352909120919291611d6989611b7d565b610380870152611d788a611b7d565b866103a00181905250611d9985600801548660070154876001015443612b04565b6080870181905283546001850154611db092612324565b610100870152600584015460048501546001860154611dd192919043612b04565b60e0870181905282546001840154611de892612324565b6101c08701528054600182015460e0880151611e05929190612324565b61020087015281546101c08701516003860154611e229190613f99565b611e2c9190613fb1565b610240870181905281546102008801519091611e489190613f99565b611e529190613fb1565b6102408701526103a08601516103808701516101c0880151611e7592919061377c565b610300870152845460ff1615611ed457611e958b876103a001518c613828565b6102e0870152610100860151610300870151611eb191906131c1565b61032087018190526102e0870151611ec991906131c1565b610320870152611eef565b611ee88661010001518761030001516131c1565b6103208701525b600054881415611f0a57610320860151610340870152611f13565b61034086018890525b85610320015186610340015110611f6c5760405162461bcd60e51b815260206004820152601f60248201527f4c49515549444154455f434c4f53455f414d4f554e545f544f4f5f4849474800604482015260640161071f565b611f86866103a00151876103800151886103400151613934565b6103608701526040860151610340870151611fa2918c916131d8565b856103400151866101000151611fb89190613fb1565b6101208701819052835460068701549091611fd291613f99565b611fdc9190613fb1565b610140870152611feb8a612b77565b610260870181905261034087015161200291613f99565b61028087015260058501546004860154600187015461202392919043612b04565b60a087015260028501546102808701516101408801516040516328be7b9f60e11b81526001600160a01b039093169263517cf73e92612066928f92600401613fc8565b60206040518083038186803b15801561207e57600080fd5b505afa158015612092573d6000803e3d6000fd5b505050506040513d601f19601f820116820180604052508101906120b69190613fe9565b6102a08701526002850154610280870151610140880151604051633b4ad68f60e21b81526001600160a01b039093169263ed2b5a3c926120fa928f92600401613fc8565b60206040518083038186803b15801561211257600080fd5b505afa158015612126573d6000803e3d6000fd5b505050506040513d601f19601f8201168201806040525081019061214a9190613fe9565b6102c087015260088401546007850154600186015461216b92919043612b04565b60c08701526103608601516101c08701516121869190613fb1565b6101e08701526103608601516102008701516121a29190613f99565b610220870181905243600180880182905561014089015160068901556102a0890151600489015560a08901516005808a01919091556102c08a015160078a015560808a01516008808b01829055898401949094556102408b015160038a015560e08b015191890182905560c08b01519389019390935586546101608b01526101208a015187558682019290925584546101808a01526101e0890151855584810182905583546101a08a015291835590820155604086015161034087015161226a918c91613377565b6122838a87604001518861034001518960a00151613456565b85516020808801516101008901516103408a01516040808c01516060808e01516103608f015184516001600160a01b039a8b168152978a1698880198909852928601949094529284019190915290841660808301529290921660a083015260c08201527fea875c193740bd26dcfcd2e8dc9ac63cc31ee98ac4c001575746d75c30bab5b39060e00160405180910390a15060019a9950505050505050505050565b6000836123335750600061234f565b600061233f8386614207565b905061234b8482614226565b9150505b9392505050565b600060016015600082825461236b9190613f99565b909155505060155460115460ff16156123965760405162461bcd60e51b815260040161071f90614002565b6001600160a01b0384166123ec5760405162461bcd60e51b815260206004820152601b60248201527f41737365742063616e2774206265207a65726f20616464726573730000000000604482015260640161071f565b6123f68433613727565b6001600160a01b0384166000908152600c60205260409020805460ff166124565760405162461bcd60e51b815260206004820152601460248201527313505492d15517d393d517d4d5541413d495115160621b604482015260640161071f565b336000908152600a602090815260408083206001600160a01b03891684529091529020612481613d04565b61248c8733886131d8565b6124a483600501548460040154856001015443612b04565b60208201819052825460018401546124bb92612324565b604082018190526124cd908790613f99565b606082018190528254600385015490916124e691613f99565b6124f09190613fb1565b60808201526124fe87612b77565b60a08201819052612510908790613f99565b60c08201819052600284015460068501546040516328be7b9f60e11b81526001600160a01b039092169263517cf73e9261254f928c9291600401613fc8565b60206040518083038186803b15801561256757600080fd5b505afa15801561257b573d6000803e3d6000fd5b505050506040513d601f19601f8201168201806040525081019061259f9190613fe9565b60e08201526008830154600784015460018501546125bf92919043612b04565b610100820152600283015460c08201516006850154604051633b4ad68f60e21b81526001600160a01b039093169263ed2b5a3c92612601928c92600401613fc8565b60206040518083038186803b15801561261957600080fd5b505afa15801561262d573d6000803e3d6000fd5b505050506040513d601f19601f820116820180604052508101906126519190613fe9565b6101208201819052436001808601919091556080830151600386015560e083015160048601556020830151600586018190556007860192909255610100830151600886015583548352606083015184558301556126af873388613377565b805182546040517f4ea5606ff36959d6c1a24f693661d800a98dd80c0fb8469a665d2ec7e8313c21926115d99233928c928c9290916140b0565b60006001601560008282546126fe9190613f99565b909155505060155460115460ff16156127295760405162461bcd60e51b815260040161071f90614002565b6127338433613727565b6001600160a01b0384166000818152600c60209081526040808320338452600a8352818420948452939091529020612769613d57565b61277233612dc8565b6101a083015261018082015260058301546004840154600185015461279992919043612b04565b60408201819052825460018401546127b092612324565b60608201526000548614156127ec576127ce878261018001516139c9565b610160820181905260608201516127e591906131c1565b81526127f0565b8581525b6127f987612b77565b60c08201819052815161280b91613fb1565b60e0820152805160608201516128219190613fb1565b60808201526101a081015151156128855760405162461bcd60e51b815260206004820152602260248201527f57495448445241575f4143434f554e545f53484f525446414c4c5f5052455345604482015261139560f21b606482015260840161071f565b6128938782600001516139ee565b6101c082018190526101808201519051905110156128ff5760405162461bcd60e51b815260206004820152602360248201527f57495448445241575f414d4f554e545f4c49515549444954595f53484f52544660448201526210531360ea1b606482015260840161071f565b8154608082015160038501546129159190613f99565b61291f9190613fb1565b60a0820152600283015460e082015160068501546040516328be7b9f60e11b81526001600160a01b039093169263517cf73e92612960928c92600401613fc8565b60206040518083038186803b15801561297857600080fd5b505afa15801561298c573d6000803e3d6000fd5b505050506040513d601f19601f820116820180604052508101906129b09190613fe9565b6101008201526008830154600784015460018501546129d192919043612b04565b610120820152600283015460e08201516006850154604051633b4ad68f60e21b81526001600160a01b039093169263ed2b5a3c92612a13928c92600401613fc8565b60206040518083038186803b158015612a2b57600080fd5b505afa158015612a3f573d6000803e3d6000fd5b505050506040513d601f19601f82011682018060405250810190612a639190613fe9565b61014082018190524360018086019190915560a0830151600386015561010083015160048601556040830151600586018190556007860192909255610120830151600886015583546020840152608083015184558301558051612ac99088903390612bf3565b8051602082015183546040517f56559a17e3aa8ea4b05036eaf31aeaf9fb71fc1b8865b6389647639940bed030936115d99333938d936140b0565b600080612b118484613fb1565b90506000612b2d60405180602001604052808881525083613a5c565b90506000612b51826040518060200160405280670de0b6b3a76400008152506136f2565b90506000612b5f828a613a5c565b9050612b6a81612f5e565b9998505050505050505050565b6040516370a0823160e01b815230600482015260009082906001600160a01b038216906370a082319060240160206040518083038186803b158015612bbb57600080fd5b505afa158015612bcf573d6000803e3d6000fd5b505050506040513d601f19601f8201168201806040525081019061234f9190613fe9565b60405163a9059cbb60e01b81526001600160a01b03838116600483015260248201839052849160009183169063a9059cbb90604401600060405180830381600087803b158015612c4257600080fd5b505af1158015612c56573d6000803e3d6000fd5b505050503d60008114612c705760208114612c7a57600080fd5b6000199150612c86565b60206000803e60005191505b5080612cd45760405162461bcd60e51b815260206004820152601960248201527f544f4b454e5f5452414e534645525f4f55545f4641494c454400000000000000604482015260640161071f565b5050505050565b6013546001600160a01b0316612cef575050565b60135460405163db57d0c760e01b81526001600160a01b0384811660048301528381166024830152600060448301529091169063db57d0c7906064015b600060405180830381600087803b158015612d4657600080fd5b505af1158015612d5a573d6000803e3d6000fd5b505050505050565b6040805160208101909152600f5490819052600090612d7f575090565b6040805160208082018352600f5482528251908101909252670de0b6b3a76400008252600091612daf91906136f2565b90506000612dbd8285613a5c565b905061106b81612f5e565b604080516020810190915260008152604080516020810190915260008152600080612df285612f76565b91509150612e0c6040518060200160405280600081525090565b604080516020808201835285518252825180820184526000815283518083018552600e5481528451928301909452855182529192612e4991613a79565b9050612e5782825190511090565b15612e8357612e668183613ae8565b604080516020810190915260008152999098509650505050505050565b612e8d8282613ae8565b60408051602081019091526000815290999098509650505050505050565b604080516020810190915260008152604080516020810190915260008152604080516020810190915260008152612ee185611b7d565b9150612eec82511590565b15612f2f5760405162461bcd60e51b81526020600482015260136024820152724d495353494e475f41535345545f505249434560681b604482015260640161071f565b6040805160208101909152600e548152612f499083613a79565b9050612f558185613a5c565b95945050505050565b80516000906106cf90670de0b6b3a764000090614226565b604080516020810190915260008152604080516020810190915260008152612f9c613dcd565b6040805160208082018352600080835260e08501929092528251808201909352818352610120840192909252600d54918301919091525b816020015181101561312d57600d8181548110612ff257612ff2614248565b60009182526020808320909101546001600160a01b039081168086528352600c82526040808420898316808652600a85528286208851851687528552828620908652600b855282862088519094168652929093529092208254919291156130b05761306b83600501548460040154856001015443612b04565b604086018190528254600184015461308292612324565b606086018190528551613094916139ee565b60c0860181905260e08601516130aa91906136f2565b60e08601525b805415613117576130cf83600801548460070154856001015443612b04565b60808601819052815460018301546130e692612324565b60a0860181905285516130f8916139ee565b610100860181905261012086015161311091906136f2565b6101208601525b50505080806131259061425e565b915050612fd3565b508060e001518161012001519250925050915091565b6040516370a0823160e01b81526001600160a01b03828116600483015260009184918216906370a082319060240160206040518083038186803b15801561318957600080fd5b505afa15801561319d573d6000803e3d6000fd5b505050506040513d601f19601f8201168201806040525081019061106b9190613fe9565b6000818310156131d25750816106cf565b50919050565b604051636eb1769f60e11b81526001600160a01b0383811660048301523060248301528491839183169063dd62ed3e9060440160206040518083038186803b15801561322357600080fd5b505afa158015613237573d6000803e3d6000fd5b505050506040513d601f19601f8201168201806040525081019061325b9190613fe9565b116132a85760405162461bcd60e51b815260206004820152601c60248201527f544f4b454e5f494e53554646494349454e545f414c4c4f57414e434500000000604482015260640161071f565b6040516370a0823160e01b81526001600160a01b0384811660048301528391908316906370a082319060240160206040518083038186803b1580156132ec57600080fd5b505afa158015613300573d6000803e3d6000fd5b505050506040513d601f19601f820116820180604052508101906133249190613fe9565b116133715760405162461bcd60e51b815260206004820152601a60248201527f544f4b454e5f494e53554646494349454e545f42414c414e4345000000000000604482015260640161071f565b50505050565b6040516323b872dd60e01b81526001600160a01b0383811660048301523060248301526044820183905284916000918316906323b872dd90606401600060405180830381600087803b1580156133cc57600080fd5b505af11580156133e0573d6000803e3d6000fd5b505050503d600081146133fa576020811461340457600080fd5b6000199150613410565b60206000803e60005191505b5080612cd45760405162461bcd60e51b81526020600482015260156024820152741513d2d15397d514905394d1915497d19052531151605a1b604482015260640161071f565b60075461346d9085906001600160a01b0316613727565b6001600160a01b03808416600090815260126020908152604080832093881683529290529081205415612cd4576001600160a01b038085166000908152601260209081526040808320938916835292905220548310156134ce5750816134f6565b506001600160a01b038084166000908152601260209081526040808320938816835292905220545b6007546001600160a01b039081166000908152600a60209081526040808320938916835292905220613526613d04565b6001600160a01b038087166000908152601260209081526040808320938b168352929052908120805485929061355d908490613fb1565b909155505081546001830154613574919086612324565b60408201819052613586908490613f99565b6060820181905282546001600160a01b0389166000908152600c602052604090206003015490916135b691613f99565b6135c09190613fb1565b608082018190526001600160a01b038089166000908152600c60205260409081902060030192909255835480845260608401518086556001860188905560075493517fa4317c2dd8ca95b5d74e51fdd145f7beb968acdba1579f140fdf7113789f1681946136339416928c9289926140b0565b60405180910390a150505050505050565b60005b600d5481101561369f57816001600160a01b0316600d828154811061366e5761366e614248565b6000918252602090912001546001600160a01b0316141561368d575050565b806136978161425e565b915050613647565b50600d80546001810182556000919091527fd7b6990105719101dabeb77144f2a3385c8033acd3af97e9423a695e81ad1eb50180546001600160a01b0319166001600160a01b0392909216919091179055565b6040805160208101909152600081528151835160009161371191613f99565b6040805160208101909152908152949350505050565b6013546001600160a01b031661373b575050565b60135460405163d511e08960e01b81526001600160a01b0384811660048301528381166024830152600060448301529091169063d511e08990606401612d2c565b60006137946040518060200160405280600081525090565b6040805160208101909152600081526040805160208101909152600081526040805160208101909152600081526040805160208082018352670de0b6b3a76400008252825190810190925260105482526137ed916136f2565b93506137f98787613a5c565b92506138058489613a79565b91506138118383613b07565b905061381c81612f5e565b98975050505050505050565b60006138406040518060200160405280600081525090565b604080516020808201835260008083528351808301855281815284518084018652828152855180850187528381528651948501909652918352929390916138868a612dc8565b6040805160208082018352600e548252825190810190925260105482529298509096506138b39190613ae8565b93506138d5846040518060200160405280670de0b6b3a7640000815250613ae8565b92506138e18984613a79565b915060006138ef8b8a61065e565b9050600061390d604051806020016040528060145481525083613a5c565b90506139198185613b07565b925061392483612f5e565b9c9b505050505050505050505050565b600061394c6040518060200160405280600081525090565b6040805160208101909152600081526040805160208101909152600081526040805160208101909152600081526040805160208082018352670de0b6b3a76400008252825190810190925260105482526139a5916136f2565b93506139b18885613a79565b92506139bd8387613a5c565b91506138118288613b07565b6000806139d584611b7d565b905060006139e38483613b07565b9050612f5581612f5e565b6040805160208101909152600081526000613a0884611b7d565b9050613a1381511590565b15613a565760405162461bcd60e51b81526020600482015260136024820152724d495353494e475f41535345545f505249434560681b604482015260640161071f565b61106b81845b604080516020810190915260008082528351613711908490614207565b60408051602081019091526000815281518351600091613a9891614207565b9050600081613ab06002670de0b6b3a7640000614226565b613aba9190613f99565b90506000613ad0670de0b6b3a764000083614226565b60408051602081019091529081529695505050505050565b6040805160208101909152600081528151835160009161371191613fb1565b6040805160208101909152600081528251825161234f91906040805160208101909152600081526000613b42670de0b6b3a764000085614207565b90506000611c818483614226565b604051806101c001604052806000815260200160008152602001600081526020016000815260200160008152602001600081526020016000815260200160008152602001600081526020016000815260200160008152602001613bbf6040518060200160405280600081525090565b8152602001613bda6040518060200160405280600081525090565b8152602001613bf56040518060200160405280600081525090565b905290565b604051806103c0016040528060006001600160a01b0316815260200160006001600160a01b0316815260200160006001600160a01b0316815260200160006001600160a01b03168152602001600081526020016000815260200160008152602001600081526020016000815260200160008152602001600081526020016000815260200160008152602001600081526020016000815260200160008152602001600081526020016000815260200160008152602001600081526020016000815260200160008152602001600081526020016000815260200160008152602001600081526020016000815260200160008152602001613bda6040518060200160405280600081525090565b604051806101400160405280600081526020016000815260200160008152602001600081526020016000815260200160008152602001600081526020016000815260200160008152602001600081525090565b604051806101e00160405280600081526020016000815260200160008152602001600081526020016000815260200160008152602001600081526020016000815260200160008152602001600081526020016000815260200160008152602001613bbf6040518060200160405280600081525090565b60405180610140016040528060006001600160a01b031681526020016000815260200160008152602001600081526020016000815260200160008152602001613e226040518060200160405280600081525090565b8152602001613bbf6040518060200160405280600081525090565b80356001600160a01b0381168114613e5457600080fd5b919050565b60008060408385031215613e6c57600080fd5b613e7583613e3d565b9150613e8360208401613e3d565b90509250929050565b600060208284031215613e9e57600080fd5b61234f82613e3d565b60008060408385031215613eba57600080fd5b613ec383613e3d565b946020939093013593505050565b600060208284031215613ee357600080fd5b5035919050565b60008060408385031215613efd57600080fd5b50508035926020909101359150565b60008060008060808587031215613f2257600080fd5b613f2b85613e3d565b9350613f3960208601613e3d565b9250613f4760408601613e3d565b9396929550929360600135925050565b600080600060608486031215613f6c57600080fd5b505081359360208301359350604090920135919050565b634e487b7160e01b600052601160045260246000fd5b60008219821115613fac57613fac613f83565b500190565b600082821015613fc357613fc3613f83565b500390565b6001600160a01b039390931683526020830191909152604082015260600190565b600060208284031215613ffb57600080fd5b5051919050565b6020808252600f908201526e10dbdb9d1c9858dd081c185d5cd959608a1b604082015260600190565b60006001600160ff1b038184138284138082168684048611161561405157614051613f83565b600160ff1b600087128281168783058912161561407057614070613f83565b6000871292508782058712848416161561408c5761408c613f83565b878505871281841616156140a2576140a2613f83565b505050929093029392505050565b6001600160a01b03958616815293909416602084015260408301919091526060820152608081019190915260a00190565b600080604083850312156140f457600080fd5b82519150602083015160ff8116811461410c57600080fd5b809150509250929050565b600181815b8085111561415257816000190482111561413857614138613f83565b8085161561414557918102915b93841c939080029061411c565b509250929050565b600082614169575060016106cf565b81614176575060006106cf565b816001811461418c5760028114614196576141b2565b60019150506106cf565b60ff8411156141a7576141a7613f83565b50506001821b6106cf565b5060208310610133831016604e8410600b84101617156141d5575081810a6106cf565b6141df8383614117565b80600019048211156141f3576141f3613f83565b029392505050565b600061234f838361415a565b600081600019048311821515161561422157614221613f83565b500290565b60008261424357634e487b7160e01b600052601260045260246000fd5b500490565b634e487b7160e01b600052603260045260246000fd5b600060001982141561427257614272613f83565b506001019056fea2646970667358221220294b0bae845209758b700b4d8ee6b3e3c615b52acb9b65eb1df92d952dd22d3864736f6c63430008090033",
  "linkReferences": {},
  "deployedLinkReferences": {}
}