{
  "_format": "hh-sol-artifact-1",
  "contractName": "InvalidMockV3Aggregator",
  "sourceName": "contracts/reserve/plugins/mocks/InvalidChainlinkMock.sol",
  "abi": [
    {
      "inputs": [
        {
          "internalType": "uint8",
          "name": "_decimals",
          "type": "uint8"
        },
        {
          "internalType": "int256",
          "name": "_initialAnswer",
          "type": "int256"
        }
      ],
      "stateMutability": "nonpayable",
      "type": "constructor"
    },
    {
      "inputs": [],
      "name": "decimals",
      "outputs": [
        {
          "internalType": "uint8",
          "name": "",
          "type": "uint8"
        }
      ],
      "stateMutability": "view",
      "type": "function"
    },
    {
      "inputs": [],
      "name": "description",
      "outputs": [
        {
          "internalType": "string",
          "name": "",
          "type": "string"
        }
      ],
      "stateMutability": "pure",
      "type": "function"
    },
    {
      "inputs": [
        {
          "internalType": "uint256",
          "name": "",
          "type": "uint256"
        }
      ],
      "name": "getAnswer",
      "outputs": [
        {
          "internalType": "int256",
          "name": "",
          "type": "int256"
        }
      ],
      "stateMutability": "view",
      "type": "function"
    },
    {
      "inputs": [
        {
          "internalType": "uint80",
          "name": "_roundId",
          "type": "uint80"
        }
      ],
      "name": "getRoundData",
      "outputs": [
        {
          "internalType": "uint80",
          "name": "roundId",
          "type": "uint80"
        },
        {
          "internalType": "int256",
          "name": "answer",
          "type": "int256"
        },
        {
          "internalType": "uint256",
          "name": "startedAt",
          "type": "uint256"
        },
        {
          "internalType": "uint256",
          "name": "updatedAt",
          "type": "uint256"
        },
        {
          "internalType": "uint80",
          "name": "answeredInRound",
          "type": "uint80"
        }
      ],
      "stateMutability": "view",
      "type": "function"
    },
    {
      "inputs": [
        {
          "internalType": "uint256",
          "name": "",
          "type": "uint256"
        }
      ],
      "name": "getTimestamp",
      "outputs": [
        {
          "internalType": "uint256",
          "name": "",
          "type": "uint256"
        }
      ],
      "stateMutability": "view",
      "type": "function"
    },
    {
      "inputs": [],
      "name": "infiniteLoop",
      "outputs": [],
      "stateMutability": "pure",
      "type": "function"
    },
    {
      "inputs": [],
      "name": "latestAnswer",
      "outputs": [
        {
          "internalType": "int256",
          "name": "",
          "type": "int256"
        }
      ],
      "stateMutability": "view",
      "type": "function"
    },
    {
      "inputs": [],
      "name": "latestRound",
      "outputs": [
        {
          "internalType": "uint256",
          "name": "",
          "type": "uint256"
        }
      ],
      "stateMutability": "view",
      "type": "function"
    },
    {
      "inputs": [],
      "name": "latestRoundData",
      "outputs": [
        {
          "internalType": "uint80",
          "name": "roundId",
          "type": "uint80"
        },
        {
          "internalType": "int256",
          "name": "answer",
          "type": "int256"
        },
        {
          "internalType": "uint256",
          "name": "startedAt",
          "type": "uint256"
        },
        {
          "internalType": "uint256",
          "name": "updatedAt",
          "type": "uint256"
        },
        {
          "internalType": "uint80",
          "name": "answeredInRoundyarn",
          "type": "uint80"
        }
      ],
      "stateMutability": "view",
      "type": "function"
    },
    {
      "inputs": [],
      "name": "latestTimestamp",
      "outputs": [
        {
          "internalType": "uint256",
          "name": "",
          "type": "uint256"
        }
      ],
      "stateMutability": "view",
      "type": "function"
    },
    {
      "inputs": [],
      "name": "setInvalidTimestamp",
      "outputs": [],
      "stateMutability": "nonpayable",
      "type": "function"
    },
    {
      "inputs": [
        {
          "internalType": "bool",
          "name": "on",
          "type": "bool"
        }
      ],
      "name": "setSimplyRevert",
      "outputs": [],
      "stateMutability": "nonpayable",
      "type": "function"
    },
    {
      "inputs": [],
      "name": "simplyRevert",
      "outputs": [
        {
          "internalType": "bool",
          "name": "",
          "type": "bool"
        }
      ],
      "stateMutability": "view",
      "type": "function"
    },
    {
      "inputs": [
        {
          "internalType": "int256",
          "name": "_answer",
          "type": "int256"
        }
      ],
      "name": "updateAnswer",
      "outputs": [],
      "stateMutability": "nonpayable",
      "type": "function"
    },
    {
      "inputs": [
        {
          "internalType": "uint80",
          "name": "_roundId",
          "type": "uint80"
        },
        {
          "internalType": "int256",
          "name": "_answer",
          "type": "int256"
        },
        {
          "internalType": "uint256",
          "name": "_timestamp",
          "type": "uint256"
        },
        {
          "internalType": "uint256",
          "name": "_startedAt",
          "type": "uint256"
        }
      ],
      "name": "updateRoundData",
      "outputs": [],
      "stateMutability": "nonpayable",
      "type": "function"
    },
    {
      "inputs": [],
      "name": "version",
      "outputs": [
        {
          "internalType": "uint256",
          "name": "",
          "type": "uint256"
        }
      ],
      "stateMutability": "view",
      "type": "function"
    }
  ],
  "bytecode": "0x608060405234801561001057600080fd5b506040516106db3803806106db83398101604081905261002f916100a8565b6000805460ff191660ff8416179055818161004981610052565b50505050610105565b6001819055426002556003805490600061006b836100dc565b9091555050600380546000908152600460209081526040808320949094558254825260058152838220429081905592548252600690529190912055565b600080604083850312156100bb57600080fd5b825160ff811681146100cc57600080fd5b6020939093015192949293505050565b60006000198214156100fe57634e487b7160e01b600052601160045260246000fd5b5060010190565b6105c7806101146000396000f3fe608060405234801561001057600080fd5b50600436106101005760003560e01c80638205bf6a11610097578063b633620c11610066578063b633620c146102d0578063d8b4fa21146102f0578063e6eb246014610307578063feaf968c1461032457600080fd5b80638205bf6a146102165780639a6fc8f51461021f578063a87a20ce1461029d578063b5ab58dc146102b057600080fd5b806354fd4d50116100d357806354fd4d50146101a5578063668a0f02146101ad5780637284e416146101b65780637c97325d146101f557600080fd5b80631dbf353d14610105578063313ce5671461010f5780634aa2011f1461013357806350d25bcd1461018e575b600080fd5b61010d61032c565b005b60005461011c9060ff1681565b60405160ff90911681526020015b60405180910390f35b61010d61014136600461047d565b69ffffffffffffffffffff90931660038181556001849055600283905560009182526004602090815260408084209590955581548352600581528483209390935554815260069091522055565b61019760015481565b60405190815260200161012a565b610197600081565b61019760035481565b604080518082018252601f81527f76302e382f74657374732f4d6f636b563341676772656761746f722e736f6c006020820152905161012a91906104b6565b61010d61020336600461050b565b6007805460ff1916911515919091179055565b61019760025481565b61026661022d366004610534565b69ffffffffffffffffffff8116600090815260046020908152604080832054600683528184205460059093529220549293919290918490565b6040805169ffffffffffffffffffff968716815260208101959095528401929092526060830152909116608082015260a00161012a565b61010d6102ab36600461054f565b61034b565b6101976102be36600461054f565b60046020526000908152604090205481565b6101976102de36600461054f565b60056020526000908152604090205481565b61010d600354600090815260056020526040812055565b6007546103149060ff1681565b604051901515815260200161012a565b6102666103a1565b6000610336610440565b8181528161034381610568565b925050610336565b6001819055426002556003805490600061036483610568565b9091555050600380546000908152600460209081526040808320949094558254825260058152838220429081905592548252600690529190912055565b600754600090819081908190819060ff16156103bc57600080fd5b306001600160a01b0316631dbf353d600a6040518263ffffffff1660e01b815260040160006040518083038187803b1580156103f757600080fd5b5086fa15801561040b573d6000803e3d6000fd5b505050505050506003546000818152600460209081526040808320546005909252909120549194509250429150839091929394565b60405180602001604052806001906020820280368337509192915050565b803569ffffffffffffffffffff8116811461047857600080fd5b919050565b6000806000806080858703121561049357600080fd5b61049c8561045e565b966020860135965060408601359560600135945092505050565b600060208083528351808285015260005b818110156104e3578581018301518582016040015282016104c7565b818111156104f5576000604083870101525b50601f01601f1916929092016040019392505050565b60006020828403121561051d57600080fd5b8135801515811461052d57600080fd5b9392505050565b60006020828403121561054657600080fd5b61052d8261045e565b60006020828403121561056157600080fd5b5035919050565b600060001982141561058a57634e487b7160e01b600052601160045260246000fd5b506001019056fea26469706673582212206a8e2848ab19e0a30be7187798cb033d549f8ab350fac1f4a498d7402bcac5a264736f6c63430008090033",
  "linkReferences": {},
  "deployedLinkReferences": {}
}