{
  "_format": "hh-sol-artifact-1",
  "contractName": "BadCollateralPlugin",
  "sourceName": "contracts/reserve/plugins/mocks/BadCollateralPlugin.sol",
  "abi": [
    {
      "inputs": [
        {
          "components": [
            {
              "internalType": "uint192",
              "name": "fallbackPrice",
              "type": "uint192"
            },
            {
              "internalType": "contract AggregatorV3Interface",
              "name": "chainlinkFeed",
              "type": "address"
            },
            {
              "internalType": "uint192",
              "name": "oracleError",
              "type": "uint192"
            },
            {
              "internalType": "contract IERC20Metadata",
              "name": "erc20",
              "type": "address"
            },
            {
              "internalType": "uint192",
              "name": "maxTradeVolume",
              "type": "uint192"
            },
            {
              "internalType": "uint48",
              "name": "oracleTimeout",
              "type": "uint48"
            },
            {
              "internalType": "bytes32",
              "name": "targetName",
              "type": "bytes32"
            },
            {
              "internalType": "uint192",
              "name": "defaultThreshold",
              "type": "uint192"
            },
            {
              "internalType": "uint256",
              "name": "delayUntilDefault",
              "type": "uint256"
            }
          ],
          "internalType": "struct CollateralConfig",
          "name": "config",
          "type": "tuple"
        }
      ],
      "stateMutability": "nonpayable",
      "type": "constructor"
    },
    {
      "inputs": [],
      "name": "StalePrice",
      "type": "error"
    },
    {
      "inputs": [],
      "name": "UIntOutOfBounds",
      "type": "error"
    },
    {
      "anonymous": false,
      "inputs": [
        {
          "indexed": true,
          "internalType": "enum CollateralStatus",
          "name": "oldStatus",
          "type": "uint8"
        },
        {
          "indexed": true,
          "internalType": "enum CollateralStatus",
          "name": "newStatus",
          "type": "uint8"
        }
      ],
      "name": "CollateralStatusChanged",
      "type": "event"
    },
    {
      "anonymous": false,
      "inputs": [
        {
          "indexed": true,
          "internalType": "contract IERC20",
          "name": "erc20",
          "type": "address"
        },
        {
          "indexed": true,
          "internalType": "uint256",
          "name": "amount",
          "type": "uint256"
        }
      ],
      "name": "RewardsClaimed",
      "type": "event"
    },
    {
      "inputs": [
        {
          "internalType": "address",
          "name": "account",
          "type": "address"
        }
      ],
      "name": "bal",
      "outputs": [
        {
          "internalType": "uint192",
          "name": "",
          "type": "uint192"
        }
      ],
      "stateMutability": "view",
      "type": "function"
    },
    {
      "inputs": [],
      "name": "chainlinkFeed",
      "outputs": [
        {
          "internalType": "contract AggregatorV3Interface",
          "name": "",
          "type": "address"
        }
      ],
      "stateMutability": "view",
      "type": "function"
    },
    {
      "inputs": [],
      "name": "checkHardDefault",
      "outputs": [
        {
          "internalType": "bool",
          "name": "",
          "type": "bool"
        }
      ],
      "stateMutability": "view",
      "type": "function"
    },
    {
      "inputs": [],
      "name": "checkSoftDefault",
      "outputs": [
        {
          "internalType": "bool",
          "name": "",
          "type": "bool"
        }
      ],
      "stateMutability": "view",
      "type": "function"
    },
    {
      "inputs": [],
      "name": "claimRewards",
      "outputs": [],
      "stateMutability": "nonpayable",
      "type": "function"
    },
    {
      "inputs": [],
      "name": "delayUntilDefault",
      "outputs": [
        {
          "internalType": "uint256",
          "name": "",
          "type": "uint256"
        }
      ],
      "stateMutability": "view",
      "type": "function"
    },
    {
      "inputs": [],
      "name": "erc20",
      "outputs": [
        {
          "internalType": "contract IERC20Metadata",
          "name": "",
          "type": "address"
        }
      ],
      "stateMutability": "view",
      "type": "function"
    },
    {
      "inputs": [],
      "name": "erc20Decimals",
      "outputs": [
        {
          "internalType": "uint8",
          "name": "",
          "type": "uint8"
        }
      ],
      "stateMutability": "view",
      "type": "function"
    },
    {
      "inputs": [],
      "name": "fallbackPrice",
      "outputs": [
        {
          "internalType": "uint192",
          "name": "",
          "type": "uint192"
        }
      ],
      "stateMutability": "view",
      "type": "function"
    },
    {
      "inputs": [],
      "name": "isCollateral",
      "outputs": [
        {
          "internalType": "bool",
          "name": "",
          "type": "bool"
        }
      ],
      "stateMutability": "pure",
      "type": "function"
    },
    {
      "inputs": [],
      "name": "maxTradeVolume",
      "outputs": [
        {
          "internalType": "uint192",
          "name": "",
          "type": "uint192"
        }
      ],
      "stateMutability": "view",
      "type": "function"
    },
    {
      "inputs": [],
      "name": "oracleError",
      "outputs": [
        {
          "internalType": "uint192",
          "name": "",
          "type": "uint192"
        }
      ],
      "stateMutability": "view",
      "type": "function"
    },
    {
      "inputs": [],
      "name": "oracleTimeout",
      "outputs": [
        {
          "internalType": "uint48",
          "name": "",
          "type": "uint48"
        }
      ],
      "stateMutability": "view",
      "type": "function"
    },
    {
      "inputs": [],
      "name": "pegBottom",
      "outputs": [
        {
          "internalType": "uint192",
          "name": "",
          "type": "uint192"
        }
      ],
      "stateMutability": "view",
      "type": "function"
    },
    {
      "inputs": [],
      "name": "pegTop",
      "outputs": [
        {
          "internalType": "uint192",
          "name": "",
          "type": "uint192"
        }
      ],
      "stateMutability": "view",
      "type": "function"
    },
    {
      "inputs": [],
      "name": "prevReferencePrice",
      "outputs": [
        {
          "internalType": "uint192",
          "name": "",
          "type": "uint192"
        }
      ],
      "stateMutability": "view",
      "type": "function"
    },
    {
      "inputs": [],
      "name": "price",
      "outputs": [
        {
          "internalType": "uint192",
          "name": "",
          "type": "uint192"
        },
        {
          "internalType": "uint192",
          "name": "",
          "type": "uint192"
        }
      ],
      "stateMutability": "view",
      "type": "function"
    },
    {
      "inputs": [],
      "name": "refPerTok",
      "outputs": [
        {
          "internalType": "uint192",
          "name": "",
          "type": "uint192"
        }
      ],
      "stateMutability": "view",
      "type": "function"
    },
    {
      "inputs": [],
      "name": "refresh",
      "outputs": [],
      "stateMutability": "nonpayable",
      "type": "function"
    },
    {
      "inputs": [
        {
          "internalType": "bool",
          "name": "on",
          "type": "bool"
        }
      ],
      "name": "setHardDefaultCheck",
      "outputs": [],
      "stateMutability": "nonpayable",
      "type": "function"
    },
    {
      "inputs": [
        {
          "internalType": "bool",
          "name": "on",
          "type": "bool"
        }
      ],
      "name": "setSoftDefaultCheck",
      "outputs": [],
      "stateMutability": "nonpayable",
      "type": "function"
    },
    {
      "inputs": [],
      "name": "status",
      "outputs": [
        {
          "internalType": "enum CollateralStatus",
          "name": "",
          "type": "uint8"
        }
      ],
      "stateMutability": "view",
      "type": "function"
    },
    {
      "inputs": [],
      "name": "targetName",
      "outputs": [
        {
          "internalType": "bytes32",
          "name": "",
          "type": "bytes32"
        }
      ],
      "stateMutability": "view",
      "type": "function"
    },
    {
      "inputs": [],
      "name": "targetPerRef",
      "outputs": [
        {
          "internalType": "uint192",
          "name": "",
          "type": "uint192"
        }
      ],
      "stateMutability": "view",
      "type": "function"
    },
    {
      "inputs": [],
      "name": "tryPrice",
      "outputs": [
        {
          "internalType": "uint192",
          "name": "low",
          "type": "uint192"
        },
        {
          "internalType": "uint192",
          "name": "high",
          "type": "uint192"
        },
        {
          "internalType": "uint192",
          "name": "pegPrice",
          "type": "uint192"
        }
      ],
      "stateMutability": "view",
      "type": "function"
    },
    {
      "inputs": [],
      "name": "whenDefault",
      "outputs": [
        {
          "internalType": "uint256",
          "name": "",
          "type": "uint256"
        }
      ],
      "stateMutability": "view",
      "type": "function"
    }
  ],
  "bytecode": "0x6101c06040526000196001556002805461ffff60c01b191661010160c01b1790553480156200002d57600080fd5b50604051620022ee380380620022ee833981016040819052620000509162000838565b8080806000015181602001518260400151836060015184608001518560a001516000866001600160c01b031611620000cf5760405162461bcd60e51b815260206004820152601360248201527f66616c6c6261636b207072696365207a65726f0000000000000000000000000060448201526064015b60405180910390fd5b6001600160a01b038516620001275760405162461bcd60e51b815260206004820152601660248201527f6d697373696e6720636861696e6c696e6b2066656564000000000000000000006044820152606401620000c6565b6000846001600160c01b0316118015620001515750670de0b6b3a76400006001600160c01b038516105b6200019f5760405162461bcd60e51b815260206004820152601960248201527f6f7261636c65206572726f72206f7574206f662072616e6765000000000000006044820152606401620000c6565b6001600160a01b038316620001e75760405162461bcd60e51b815260206004820152600d60248201526c06d697373696e6720657263323609c1b6044820152606401620000c6565b6000826001600160c01b031611620002425760405162461bcd60e51b815260206004820152601860248201527f696e76616c6964206d617820747261646520766f6c756d6500000000000000006044820152606401620000c6565b60008165ffffffffffff1611620002915760405162461bcd60e51b81526020600482015260126024820152716f7261636c6554696d656f7574207a65726f60701b6044820152606401620000c6565b600080546001600160c01b0319166001600160c01b03888116919091179091556001600160a01b0386811660805290851661010052831660a08190526040805163313ce56760e01b8152905163313ce56791600480820192602092909190829003018186803b1580156200030457600080fd5b505afa15801562000319573d6000803e3d6000fd5b505050506040513d601f19601f820116820180604052508101906200033f9190620008f3565b60ff1660c09081526001600160c01b0390921660e05265ffffffffffff166101205285015115159350620003af925050505760405162461bcd60e51b81526020600482015260126024820152717461726765744e616d65206d697373696e6760701b6044820152606401620000c6565b60e08101516001600160c01b0316156200041a576000816101000151116200041a5760405162461bcd60e51b815260206004820152601660248201527f64656c6179556e74696c44656661756c74207a65726f000000000000000000006044820152606401620000c6565b60c081015161016052610100810151610140526000670de0b6b3a764000090506000620004638360e00151836001600160c01b0316620004ce60201b62000d341790919060201c565b90506200047181836200092e565b6001600160c01b0316610180526200048a818362000959565b6001600160c01b03166101a05250620004a5915050620004e7565b600280546001600160c01b0319166001600160c01b03929092169190911790555062000bc99050565b6000620004de8383600162000577565b90505b92915050565b60008060a0516001600160a01b0316632c4e722e6040518163ffffffff1660e01b815260040160206040518083038186803b1580156200052657600080fd5b505afa1580156200053b573d6000803e3d6000fd5b505050506040513d601f19601f8201168201806040525081019062000561919062000987565b90506200057181601a19620005b9565b91505090565b6000620005af620005a9620005996001600160c01b03808716908816620009a1565b670de0b6b3a764000085620005c8565b6200068c565b90505b9392505050565b6000620004de838383620006bb565b600080620005d78486620009d9565b90506000836002811115620005f057620005f0620009f0565b1415620005ff579050620005b2565b6001836002811115620006165762000616620009f0565b1415620006615760026200062c60018662000a06565b620006389190620009d9565b62000644858762000a20565b11156200065b5780620006578162000a37565b9150505b620005af565b60006200066f858762000a20565b1115620005af5780620006828162000a37565b9695505050505050565b60006001600160c01b03821115620006b75760405163f44398f560e01b815260040160405180910390fd5b5090565b600083620006cc57506000620005b2565b605f198360000b136200070c576002826002811115620006f057620006f0620009f0565b14620006fe57600062000701565b60015b60ff169050620005b2565b8260000b602813620007315760405163f44398f560e01b815260040160405180910390fd5b6200073e60128462000a55565b925060006200074f84820b62000798565b6200075c90600a62000b9b565b90506000808560000b12156200077f5762000779868386620005c8565b6200078b565b6200078b8287620009a1565b905062000682816200068c565b6000808212620007a95781620004e1565b620004e18262000ba9565b60405161012081016001600160401b0381118282101715620007e657634e487b7160e01b600052604160045260246000fd5b60405290565b80516001600160c01b03811681146200080457600080fd5b919050565b80516001600160a01b03811681146200080457600080fd5b805165ffffffffffff811681146200080457600080fd5b600061012082840312156200084c57600080fd5b62000856620007b4565b6200086183620007ec565b8152620008716020840162000809565b60208201526200088460408401620007ec565b6040820152620008976060840162000809565b6060820152620008aa60808401620007ec565b6080820152620008bd60a0840162000821565b60a082015260c083015160c0820152620008da60e08401620007ec565b60e0820152610100928301519281019290925250919050565b6000602082840312156200090657600080fd5b815160ff81168114620005b257600080fd5b634e487b7160e01b600052601160045260246000fd5b60006001600160c01b038381169083168181101562000951576200095162000918565b039392505050565b60006001600160c01b038281168482168083038211156200097e576200097e62000918565b01949350505050565b6000602082840312156200099a57600080fd5b5051919050565b6000816000190483118215151615620009be57620009be62000918565b500290565b634e487b7160e01b600052601260045260246000fd5b600082620009eb57620009eb620009c3565b500490565b634e487b7160e01b600052602160045260246000fd5b60008282101562000a1b5762000a1b62000918565b500390565b60008262000a325762000a32620009c3565b500690565b600060001982141562000a4e5762000a4e62000918565b5060010190565b60008160000b8360000b6000821282607f0382138115161562000a7c5762000a7c62000918565b82607f1903821281161562000a955762000a9562000918565b50019392505050565b600181815b8085111562000adf57816000190482111562000ac35762000ac362000918565b8085161562000ad157918102915b93841c939080029062000aa3565b509250929050565b60008262000af857506001620004e1565b8162000b0757506000620004e1565b816001811462000b20576002811462000b2b5762000b4b565b6001915050620004e1565b60ff84111562000b3f5762000b3f62000918565b50506001821b620004e1565b5060208310610133831016604e8410600b841016171562000b70575081810a620004e1565b62000b7c838362000a9e565b806000190482111562000b935762000b9362000918565b029392505050565b6000620004de838362000ae7565b6000600160ff1b82141562000bc25762000bc262000918565b5060000390565b60805160a05160c05160e05161010051610120516101405161016051610180516101a05161165562000c996000396000818161039a0152610bde0152600081816103c10152610ba2015260006104d201526000818161044b0152610f9d01526000818161035c015261086d0152600081816103fc015281816108c3015261090a015260006103050152600081816101d2015261080b01526000818161023601528181610522015281816106470152818161078c0152610a140152600081816102a7015261084b01526116556000f3fe608060405234801561001057600080fd5b506004361061018e5760003560e01c8063abfeece5116100de578063d9e8e67011610097578063e81065db11610071578063e81065db1461046d578063efc463e514610499578063f8ac93e8146104c5578063fdfd5917146104cd57600080fd5b8063d9e8e67014610425578063e28a1b8614610433578063e6a150531461044657600080fd5b8063abfeece514610357578063ae4e187514610395578063b94d8739146103bc578063c2510c77146103e3578063c55f29d1146103f7578063c59b3d631461041e57600080fd5b80637d1ea1371161014b5780638b382ee7116101255780638b382ee7146102ed57806395acc4ae14610300578063a035b1fe14610327578063a7fa0faf1461034f57600080fd5b80637d1ea137146102705780637dbdf1f5146102a2578063853783ab146102c957600080fd5b8063200d2ed2146101935780632dc86624146101b1578063372500ab146101c35780633cb5d379146101cd5780635580f72a14610206578063785e9e8614610231575b600080fd5b61019b6104f4565b6040516101a89190611201565b60405180910390f35b6001545b6040519081526020016101a8565b6101cb61051e565b005b6101f47f000000000000000000000000000000000000000000000000000000000000000081565b60405160ff90911681526020016101a8565b61021961021436600461123e565b610766565b6040516001600160c01b0390911681526020016101a8565b6102587f000000000000000000000000000000000000000000000000000000000000000081565b6040516001600160a01b0390911681526020016101a8565b61027861083a565b604080516001600160c01b03948516815292841660208401529216918101919091526060016101a8565b6102587f000000000000000000000000000000000000000000000000000000000000000081565b6002546102dd90600160c01b900460ff1681565b60405190151581526020016101a8565b600254610219906001600160c01b031681565b6102197f000000000000000000000000000000000000000000000000000000000000000081565b61032f610948565b604080516001600160c01b039384168152929091166020830152016101a8565b610219610a0f565b61037e7f000000000000000000000000000000000000000000000000000000000000000081565b60405165ffffffffffff90911681526020016101a8565b6102197f000000000000000000000000000000000000000000000000000000000000000081565b6102197f000000000000000000000000000000000000000000000000000000000000000081565b6002546102dd90600160c81b900460ff1681565b6102197f000000000000000000000000000000000000000000000000000000000000000081565b60016102dd565b670de0b6b3a7640000610219565b600054610219906001600160c01b031681565b6101b57f000000000000000000000000000000000000000000000000000000000000000081565b6101cb61047b36600461125b565b60028054911515600160c01b0260ff60c01b19909216919091179055565b6101cb6104a736600461125b565b60028054911515600160c81b0260ff60c81b19909216919091179055565b6101cb610ab7565b6101b57f000000000000000000000000000000000000000000000000000000000000000081565b600060001960015414156105085750600090565b4260015411156105185750600190565b50600290565b60007f00000000000000000000000000000000000000000000000000000000000000006001600160a01b03166399248ea76040518163ffffffff1660e01b815260040160206040518083038186803b15801561057957600080fd5b505afa15801561058d573d6000803e3d6000fd5b505050506040513d601f19601f820116820180604052508101906105b1919061127d565b6040516370a0823160e01b81523060048201529091506000906001600160a01b038316906370a082319060240160206040518083038186803b1580156105f657600080fd5b505afa15801561060a573d6000803e3d6000fd5b505050506040513d601f19601f8201168201806040525081019061062e919061129a565b6040516345c1ace760e01b8152600160048201529091507f00000000000000000000000000000000000000000000000000000000000000006001600160a01b0316906345c1ace790602401600060405180830381600087803b15801561069357600080fd5b505af11580156106a7573d6000803e3d6000fd5b50506040516370a0823160e01b81523060048201528392506001600160a01b03851691506370a082319060240160206040518083038186803b1580156106ec57600080fd5b505afa158015610700573d6000803e3d6000fd5b505050506040513d601f19601f82011682018060405250810190610724919061129a565b61072e91906112c9565b6040516001600160a01b038416907ffc30cddea38e2bf4d6ea7d3f9ed3b6ad7f176419f4963bd81318067a4aee73fe90600090a35050565b6040516370a0823160e01b81526001600160a01b038281166004830152600091610834917f000000000000000000000000000000000000000000000000000000000000000016906370a082319060240160206040518083038186803b1580156107ce57600080fd5b505afa1580156107e2573d6000803e3d6000fd5b505050506040513d601f19601f82011682018060405250810190610806919061129a565b61082f7f00000000000000000000000000000000000000000000000000000000000000006112e0565b610d49565b92915050565b600080806108916001600160a01b037f0000000000000000000000000000000000000000000000000000000000000000167f0000000000000000000000000000000000000000000000000000000000000000610d57565b905060006108b06108a0610a0f565b6001600160c01b03841690610d34565b90506108f76108e7670de0b6b3a76400007f0000000000000000000000000000000000000000000000000000000000000000610ee6565b6001600160c01b03831690610ef2565b935061094061092e670de0b6b3a76400007f0000000000000000000000000000000000000000000000000000000000000000610f00565b6001600160c01b038316906002610f0c565b925050909192565b600080306001600160a01b0316637d1ea1376040518163ffffffff1660e01b815260040160606040518083038186803b15801561098457600080fd5b505afa9250505080156109b4575060408051601f3d908101601f191682019092526109b19181019061131c565b60015b610a05573d8080156109e2576040519150601f19603f3d011682016040523d82523d6000602084013e6109e7565b606091505b5080516109f357600080fd5b506000926001600160c01b0392509050565b5090939092509050565b6000807f00000000000000000000000000000000000000000000000000000000000000006001600160a01b0316632c4e722e6040518163ffffffff1660e01b815260040160206040518083038186803b158015610a6b57600080fd5b505afa158015610a7f573d6000803e3d6000fd5b505050506040513d601f19601f82011682018060405250810190610aa3919061129a565b9050610ab181601a19610d49565b91505090565b6001544210610ac257565b6000610acc6104f4565b600254909150600160c01b900460ff1615610c4e57306001600160a01b0316637d1ea1376040518163ffffffff1660e01b815260040160606040518083038186803b158015610b1a57600080fd5b505afa925050508015610b4a575060408051601f3d908101601f19168201909252610b479181019061131c565b60015b610b8f573d808015610b78576040519150601f19603f3d011682016040523d82523d6000602084013e610b7d565b606091505b508051610b8957600080fd5b50610c4e565b6001600160c01b0383161580610bd657507f00000000000000000000000000000000000000000000000000000000000000006001600160c01b0316816001600160c01b0316105b80610c1257507f00000000000000000000000000000000000000000000000000000000000000006001600160c01b0316816001600160c01b0316115b15610c2657610c216001610f4c565b610c4a565b600080546001600160c01b0319166001600160c01b038516178155610c4a90610f4c565b5050505b6000610c58610a0f565b600254909150600160c81b900460ff168015610c8257506002546001600160c01b03908116908216105b15610c9157610c916002610f4c565b600280546001600160c01b0319166001600160c01b0383161790556000610cb66104f4565b9050806002811115610cca57610cca6111eb565b836002811115610cdc57610cdc6111eb565b14610d2f57806002811115610cf357610cf36111eb565b836002811115610d0557610d056111eb565b6040517f99cada7141db4d51b602b2e469ec310c78ffbba0eb05bc3e3e633f30672dea0290600090a35b505050565b6000610d4283836001610ff2565b9392505050565b6000610d428383600061101f565b6000806000806000866001600160a01b031663feaf968c6040518163ffffffff1660e01b815260040160a06040518083038186803b158015610d9857600080fd5b505afa158015610dac573d6000803e3d6000fd5b505050506040513d601f19601f82011682018060405250810190610dd09190611379565b9450945050935093508160001480610dff57508369ffffffffffffffffffff168169ffffffffffffffffffff16105b15610e1d57604051630cd5fa0760e11b815260040160405180910390fd5b6000610e2983426112c9565b90508665ffffffffffff168165ffffffffffff161115610e5c57604051630cd5fa0760e11b815260040160405180910390fd5b610eda84896001600160a01b031663313ce5676040518163ffffffff1660e01b815260040160206040518083038186803b158015610e9957600080fd5b505afa158015610ead573d6000803e3d6000fd5b505050506040513d601f19601f82011682018060405250810190610ed191906113c9565b61082f906112e0565b98975050505050505050565b6000610d4282846113ec565b6000610d4283836000610f0c565b6000610d428284611417565b6000610f44610f3f610f2f670de0b6b3a76400006001600160c01b03881661143f565b856001600160c01b0316856110ef565b61118f565b949350505050565b4260015411610f585750565b6000816002811115610f6c57610f6c6111eb565b1415610f7b5760001960015550565b6001816002811115610f8f57610f8f6111eb565b1415610fd057610fca610fc27f00000000000000000000000000000000000000000000000000000000000000004261145e565b6001546111bd565b60015550565b6002816002811115610fe457610fe46111eb565b1415610fef57426001555b50565b6000610f44610f3f6110106001600160c01b0380871690881661143f565b670de0b6b3a7640000856110ef565b60008361102e57506000610d42565b605f198360000b1361106757600282600281111561104e5761104e6111eb565b1461105a57600061105d565b60015b60ff169050610d42565b8260000b60281361108b5760405163f44398f560e01b815260040160405180910390fd5b611096601284611476565b925060006110a68460000b6111d3565b6110b190600a61159d565b90506000808560000b12156110d0576110cb8683866110ef565b6110da565b6110da828761143f565b90506110e58161118f565b9695505050505050565b6000806110fc84866115bf565b90506000836002811115611112576111126111eb565b141561111f579050610d42565b6001836002811115611133576111336111eb565b14156111735760026111466001866112c9565b61115091906115bf565b61115a85876115d3565b111561116e578061116a816115e7565b9150505b610f44565b600061117f85876115d3565b1115610f4457806110e5816115e7565b60006001600160c01b038211156111b95760405163f44398f560e01b815260040160405180910390fd5b5090565b60008183106111cc5781610d42565b5090919050565b60008082126111e25781610834565b61083482611602565b634e487b7160e01b600052602160045260246000fd5b602081016003831061122357634e487b7160e01b600052602160045260246000fd5b91905290565b6001600160a01b0381168114610fef57600080fd5b60006020828403121561125057600080fd5b8135610d4281611229565b60006020828403121561126d57600080fd5b81358015158114610d4257600080fd5b60006020828403121561128f57600080fd5b8151610d4281611229565b6000602082840312156112ac57600080fd5b5051919050565b634e487b7160e01b600052601160045260246000fd5b6000828210156112db576112db6112b3565b500390565b600081810b607f198114156112f7576112f76112b3565b60000392915050565b80516001600160c01b038116811461131757600080fd5b919050565b60008060006060848603121561133157600080fd5b61133a84611300565b925061134860208501611300565b915061135660408501611300565b90509250925092565b805169ffffffffffffffffffff8116811461131757600080fd5b600080600080600060a0868803121561139157600080fd5b61139a8661135f565b94506020860151935060408601519250606086015191506113bd6080870161135f565b90509295509295909350565b6000602082840312156113db57600080fd5b815160ff81168114610d4257600080fd5b60006001600160c01b0382811684821680830382111561140e5761140e6112b3565b01949350505050565b60006001600160c01b0383811690831681811015611437576114376112b3565b039392505050565b6000816000190483118215151615611459576114596112b3565b500290565b60008219821115611471576114716112b3565b500190565b60008160000b8360000b6000821282607f0382138115161561149a5761149a6112b3565b82607f190382128116156114b0576114b06112b3565b50019392505050565b600181815b808511156114f45781600019048211156114da576114da6112b3565b808516156114e757918102915b93841c93908002906114be565b509250929050565b60008261150b57506001610834565b8161151857506000610834565b816001811461152e576002811461153857611554565b6001915050610834565b60ff841115611549576115496112b3565b50506001821b610834565b5060208310610133831016604e8410600b8410161715611577575081810a610834565b61158183836114b9565b8060001904821115611595576115956112b3565b029392505050565b6000610d4283836114fc565b634e487b7160e01b600052601260045260246000fd5b6000826115ce576115ce6115a9565b500490565b6000826115e2576115e26115a9565b500690565b60006000198214156115fb576115fb6112b3565b5060010190565b6000600160ff1b821415611618576116186112b3565b506000039056fea2646970667358221220f636814c2e1b57d76c9b226c125f2e86fc242e2b9e21ade0310a45a48f0f54d464736f6c63430008090033",
  "linkReferences": {},
  "deployedLinkReferences": {}
}