{
  "_format": "hh-sol-artifact-1",
  "contractName": "BadERC20",
  "sourceName": "contracts/reserve/plugins/mocks/BadERC20.sol",
  "abi": [
    {
      "inputs": [
        {
          "internalType": "string",
          "name": "name",
          "type": "string"
        },
        {
          "internalType": "string",
          "name": "symbol",
          "type": "string"
        }
      ],
      "stateMutability": "nonpayable",
      "type": "constructor"
    },
    {
      "inputs": [],
      "name": "UIntOutOfBounds",
      "type": "error"
    },
    {
      "anonymous": false,
      "inputs": [
        {
          "indexed": true,
          "internalType": "address",
          "name": "owner",
          "type": "address"
        },
        {
          "indexed": true,
          "internalType": "address",
          "name": "spender",
          "type": "address"
        },
        {
          "indexed": false,
          "internalType": "uint256",
          "name": "value",
          "type": "uint256"
        }
      ],
      "name": "Approval",
      "type": "event"
    },
    {
      "anonymous": false,
      "inputs": [
        {
          "indexed": true,
          "internalType": "address",
          "name": "from",
          "type": "address"
        },
        {
          "indexed": true,
          "internalType": "address",
          "name": "to",
          "type": "address"
        },
        {
          "indexed": false,
          "internalType": "uint256",
          "name": "value",
          "type": "uint256"
        }
      ],
      "name": "Transfer",
      "type": "event"
    },
    {
      "inputs": [
        {
          "internalType": "address",
          "name": "owner",
          "type": "address"
        },
        {
          "internalType": "address",
          "name": "spender",
          "type": "address"
        },
        {
          "internalType": "uint256",
          "name": "amount",
          "type": "uint256"
        }
      ],
      "name": "adminApprove",
      "outputs": [],
      "stateMutability": "nonpayable",
      "type": "function"
    },
    {
      "inputs": [
        {
          "internalType": "address",
          "name": "owner",
          "type": "address"
        },
        {
          "internalType": "address",
          "name": "spender",
          "type": "address"
        }
      ],
      "name": "allowance",
      "outputs": [
        {
          "internalType": "uint256",
          "name": "",
          "type": "uint256"
        }
      ],
      "stateMutability": "view",
      "type": "function"
    },
    {
      "inputs": [
        {
          "internalType": "address",
          "name": "spender",
          "type": "address"
        },
        {
          "internalType": "uint256",
          "name": "amount",
          "type": "uint256"
        }
      ],
      "name": "approve",
      "outputs": [
        {
          "internalType": "bool",
          "name": "",
          "type": "bool"
        }
      ],
      "stateMutability": "nonpayable",
      "type": "function"
    },
    {
      "inputs": [
        {
          "internalType": "address",
          "name": "account",
          "type": "address"
        }
      ],
      "name": "balanceOf",
      "outputs": [
        {
          "internalType": "uint256",
          "name": "",
          "type": "uint256"
        }
      ],
      "stateMutability": "view",
      "type": "function"
    },
    {
      "inputs": [
        {
          "internalType": "address",
          "name": "sender",
          "type": "address"
        },
        {
          "internalType": "uint256",
          "name": "amount",
          "type": "uint256"
        }
      ],
      "name": "burn",
      "outputs": [],
      "stateMutability": "nonpayable",
      "type": "function"
    },
    {
      "inputs": [
        {
          "internalType": "address",
          "name": "",
          "type": "address"
        }
      ],
      "name": "censored",
      "outputs": [
        {
          "internalType": "bool",
          "name": "",
          "type": "bool"
        }
      ],
      "stateMutability": "view",
      "type": "function"
    },
    {
      "inputs": [],
      "name": "decimals",
      "outputs": [
        {
          "internalType": "uint8",
          "name": "",
          "type": "uint8"
        }
      ],
      "stateMutability": "view",
      "type": "function"
    },
    {
      "inputs": [
        {
          "internalType": "address",
          "name": "spender",
          "type": "address"
        },
        {
          "internalType": "uint256",
          "name": "subtractedValue",
          "type": "uint256"
        }
      ],
      "name": "decreaseAllowance",
      "outputs": [
        {
          "internalType": "bool",
          "name": "",
          "type": "bool"
        }
      ],
      "stateMutability": "nonpayable",
      "type": "function"
    },
    {
      "inputs": [
        {
          "internalType": "address",
          "name": "spender",
          "type": "address"
        },
        {
          "internalType": "uint256",
          "name": "addedValue",
          "type": "uint256"
        }
      ],
      "name": "increaseAllowance",
      "outputs": [
        {
          "internalType": "bool",
          "name": "",
          "type": "bool"
        }
      ],
      "stateMutability": "nonpayable",
      "type": "function"
    },
    {
      "inputs": [
        {
          "internalType": "address",
          "name": "recipient",
          "type": "address"
        },
        {
          "internalType": "uint256",
          "name": "amount",
          "type": "uint256"
        }
      ],
      "name": "mint",
      "outputs": [],
      "stateMutability": "nonpayable",
      "type": "function"
    },
    {
      "inputs": [],
      "name": "name",
      "outputs": [
        {
          "internalType": "string",
          "name": "",
          "type": "string"
        }
      ],
      "stateMutability": "view",
      "type": "function"
    },
    {
      "inputs": [],
      "name": "revertDecimals",
      "outputs": [
        {
          "internalType": "bool",
          "name": "",
          "type": "bool"
        }
      ],
      "stateMutability": "view",
      "type": "function"
    },
    {
      "inputs": [
        {
          "internalType": "address",
          "name": "account",
          "type": "address"
        },
        {
          "internalType": "bool",
          "name": "val",
          "type": "bool"
        }
      ],
      "name": "setCensored",
      "outputs": [],
      "stateMutability": "nonpayable",
      "type": "function"
    },
    {
      "inputs": [
        {
          "internalType": "bool",
          "name": "newVal",
          "type": "bool"
        }
      ],
      "name": "setRevertDecimals",
      "outputs": [],
      "stateMutability": "nonpayable",
      "type": "function"
    },
    {
      "inputs": [
        {
          "internalType": "uint192",
          "name": "newFee",
          "type": "uint192"
        }
      ],
      "name": "setTransferFee",
      "outputs": [],
      "stateMutability": "nonpayable",
      "type": "function"
    },
    {
      "inputs": [],
      "name": "symbol",
      "outputs": [
        {
          "internalType": "string",
          "name": "",
          "type": "string"
        }
      ],
      "stateMutability": "view",
      "type": "function"
    },
    {
      "inputs": [],
      "name": "totalSupply",
      "outputs": [
        {
          "internalType": "uint256",
          "name": "",
          "type": "uint256"
        }
      ],
      "stateMutability": "view",
      "type": "function"
    },
    {
      "inputs": [
        {
          "internalType": "address",
          "name": "to",
          "type": "address"
        },
        {
          "internalType": "uint256",
          "name": "amount",
          "type": "uint256"
        }
      ],
      "name": "transfer",
      "outputs": [
        {
          "internalType": "bool",
          "name": "",
          "type": "bool"
        }
      ],
      "stateMutability": "nonpayable",
      "type": "function"
    },
    {
      "inputs": [],
      "name": "transferFee",
      "outputs": [
        {
          "internalType": "uint192",
          "name": "",
          "type": "uint192"
        }
      ],
      "stateMutability": "view",
      "type": "function"
    },
    {
      "inputs": [
        {
          "internalType": "address",
          "name": "from",
          "type": "address"
        },
        {
          "internalType": "address",
          "name": "to",
          "type": "address"
        },
        {
          "internalType": "uint256",
          "name": "amount",
          "type": "uint256"
        }
      ],
      "name": "transferFrom",
      "outputs": [
        {
          "internalType": "bool",
          "name": "",
          "type": "bool"
        }
      ],
      "stateMutability": "nonpayable",
      "type": "function"
    }
  ],
  "bytecode": "0x60806040523480156200001157600080fd5b506040516200149f3803806200149f8339810160408190526200003491620001e6565b8181818181600390805190602001906200005092919062000073565b5080516200006690600490602084019062000073565b505050505050506200028d565b828054620000819062000250565b90600052602060002090601f016020900481019282620000a55760008555620000f0565b82601f10620000c057805160ff1916838001178555620000f0565b82800160010185558215620000f0579182015b82811115620000f0578251825591602001919060010190620000d3565b50620000fe92915062000102565b5090565b5b80821115620000fe576000815560010162000103565b634e487b7160e01b600052604160045260246000fd5b600082601f8301126200014157600080fd5b81516001600160401b03808211156200015e576200015e62000119565b604051601f8301601f19908116603f0116810190828211818310171562000189576200018962000119565b81604052838152602092508683858801011115620001a657600080fd5b600091505b83821015620001ca5785820183015181830184015290820190620001ab565b83821115620001dc5760008385830101525b9695505050505050565b60008060408385031215620001fa57600080fd5b82516001600160401b03808211156200021257600080fd5b62000220868387016200012f565b935060208501519150808211156200023757600080fd5b5062000246858286016200012f565b9150509250929050565b600181811c908216806200026557607f821691505b602082108114156200028757634e487b7160e01b600052602260045260246000fd5b50919050565b611202806200029d6000396000f3fe608060405234801561001057600080fd5b506004361061012c5760003560e01c8063787cde74116100ad578063acb2ad6f11610071578063acb2ad6f146102cf578063b7df40a2146102fa578063cdfc22e914610326578063dd62ed3e1461033a578063fcd6c1911461034d57600080fd5b8063787cde741461025557806395d89b411461028e5780639dc29fac14610296578063a457c2d7146102a9578063a9059cbb146102bc57600080fd5b8063313ce567116100f4578063313ce567146101ba57806339509351146101d457806340c10f19146101e75780634a28f135146101fc57806370a082311461022c57600080fd5b806306fdde0314610131578063095ea7b31461014f57806318160ddd14610172578063187664901461018457806323b872dd146101a7575b600080fd5b610139610360565b6040516101469190610f5a565b60405180910390f35b61016261015d366004610fa9565b6103f2565b6040519015158152602001610146565b6002545b604051908152602001610146565b610162610192366004610fd3565b60066020526000908152604090205460ff1681565b6101626101b5366004610ff5565b61040a565b6101c26104da565b60405160ff9091168152602001610146565b6101626101e2366004610fa9565b61054c565b6101fa6101f5366004610fa9565b61056e565b005b6101fa61020a366004611031565b600580546001600160c01b0319166001600160c01b0392909216919091179055565b61017661023a366004610fd3565b6001600160a01b031660009081526020819052604090205490565b6101fa61026336600461106a565b6001600160a01b03919091166000908152600660205260409020805460ff1916911515919091179055565b61013961057c565b6101fa6102a4366004610fa9565b61058b565b6101626102b7366004610fa9565b610595565b6101626102ca366004610fa9565b61061b565b6005546102e2906001600160c01b031681565b6040516001600160c01b039091168152602001610146565b6101fa61030836600461109d565b60058054911515600160c01b0260ff60c01b19909216919091179055565b60055461016290600160c01b900460ff1681565b6101766103483660046110b8565b6106c2565b6101fa61035b366004610ff5565b6106ed565b60606003805461036f906110e2565b80601f016020809104026020016040519081016040528092919081815260200182805461039b906110e2565b80156103e85780601f106103bd576101008083540402835291602001916103e8565b820191906000526020600020905b8154815290600101906020018083116103cb57829003601f168201915b5050505050905090565b6000336104008185856106fd565b5060019392505050565b6001600160a01b038316600090815260066020526040812054339060ff168061044b57506001600160a01b03841660009081526006602052604090205460ff165b156104885760405162461bcd60e51b815260206004820152600860248201526718d95b9cdbdc995960c21b60448201526064015b60405180910390fd5b610493858285610821565b6005546000906104ae906001600160c01b031685600261089b565b90506104c486866104bf8488611133565b6108c2565b6104ce8682610a66565b50600195945050505050565b60408051637f0cb08160e01b602082015281518082036004018152602490910190915260055460009190600160c01b900460ff16156105445760408051808201909152600b81526a4e6f20446563696d616c7360a81b60208201526105429030908390610b98565b505b601291505090565b60003361040081858561055f83836106c2565b610569919061114a565b6106fd565b6105788282610c10565b5050565b60606004805461036f906110e2565b6105788282610a66565b600033816105a382866106c2565b9050838110156106035760405162461bcd60e51b815260206004820152602560248201527f45524332303a2064656372656173656420616c6c6f77616e63652062656c6f77604482015264207a65726f60d81b606482015260840161047f565b61061082868684036106fd565b506001949350505050565b3360008181526006602052604081205490919060ff168061065457506001600160a01b03841660009081526006602052604090205460ff165b1561068c5760405162461bcd60e51b815260206004820152600860248201526718d95b9cdbdc995960c21b604482015260640161047f565b6005546000906106a7906001600160c01b031685600261089b565b90506106b882866104bf8488611133565b6106108282610a66565b6001600160a01b03918216600090815260016020908152604080832093909416825291909152205490565b6106f88383836106fd565b505050565b6001600160a01b03831661075f5760405162461bcd60e51b8152602060048201526024808201527f45524332303a20617070726f76652066726f6d20746865207a65726f206164646044820152637265737360e01b606482015260840161047f565b6001600160a01b0382166107c05760405162461bcd60e51b815260206004820152602260248201527f45524332303a20617070726f766520746f20746865207a65726f206164647265604482015261737360f01b606482015260840161047f565b6001600160a01b0383811660008181526001602090815260408083209487168084529482529182902085905590518481527f8c5be1e5ebec7d5bd14f71427d1e84f3dd0314c0f7b2291e5b200ac8c7c3b925910160405180910390a3505050565b600061082d84846106c2565b9050600019811461089557818110156108885760405162461bcd60e51b815260206004820152601d60248201527f45524332303a20696e73756666696369656e7420616c6c6f77616e6365000000604482015260640161047f565b61089584848484036106fd565b50505050565b60006108ba6001600160c01b03851684670de0b6b3a764000085610ccf565b949350505050565b6001600160a01b0383166109265760405162461bcd60e51b815260206004820152602560248201527f45524332303a207472616e736665722066726f6d20746865207a65726f206164604482015264647265737360d81b606482015260840161047f565b6001600160a01b0382166109885760405162461bcd60e51b815260206004820152602360248201527f45524332303a207472616e7366657220746f20746865207a65726f206164647260448201526265737360e81b606482015260840161047f565b6001600160a01b03831660009081526020819052604090205481811015610a005760405162461bcd60e51b815260206004820152602660248201527f45524332303a207472616e7366657220616d6f756e7420657863656564732062604482015265616c616e636560d01b606482015260840161047f565b6001600160a01b03848116600081815260208181526040808320878703905593871680835291849020805487019055925185815290927fddf252ad1be2c89b69c2b068fc378daa952ba7f163c4a11628f55a4df523b3ef910160405180910390a3610895565b6001600160a01b038216610ac65760405162461bcd60e51b815260206004820152602160248201527f45524332303a206275726e2066726f6d20746865207a65726f206164647265736044820152607360f81b606482015260840161047f565b6001600160a01b03821660009081526020819052604090205481811015610b3a5760405162461bcd60e51b815260206004820152602260248201527f45524332303a206275726e20616d6f756e7420657863656564732062616c616e604482015261636560f01b606482015260840161047f565b6001600160a01b0383166000818152602081815260408083208686039055600280548790039055518581529192917fddf252ad1be2c89b69c2b068fc378daa952ba7f163c4a11628f55a4df523b3ef910160405180910390a3505050565b6060600080856001600160a01b031685604051610bb59190611162565b600060405180830381855afa9150503d8060008114610bf0576040519150601f19603f3d011682016040523d82523d6000602084013e610bf5565b606091505b5091509150610c0686838387610d7e565b9695505050505050565b6001600160a01b038216610c665760405162461bcd60e51b815260206004820152601f60248201527f45524332303a206d696e7420746f20746865207a65726f206164647265737300604482015260640161047f565b8060026000828254610c78919061114a565b90915550506001600160a01b038216600081815260208181526040808320805486019055518481527fddf252ad1be2c89b69c2b068fc378daa952ba7f163c4a11628f55a4df523b3ef910160405180910390a35050565b600080610cdd868686610df4565b90506000836002811115610cf357610cf361117e565b1415610d005790506108ba565b60008480610d1057610d10611194565b86880990506002846002811115610d2957610d2961117e565b1415610d48578015610d4357610d4060018361114a565b91505b610d74565b6002610d55600187611133565b610d5f91906111aa565b811115610d7457610d7160018361114a565b91505b5095945050505050565b60608315610dea578251610de3576001600160a01b0385163b610de35760405162461bcd60e51b815260206004820152601d60248201527f416464726573733a2063616c6c20746f206e6f6e2d636f6e7472616374000000604482015260640161047f565b50816108ba565b6108ba8383610ed7565b6000806000610e038686610f01565b91509150838210610e275760405163f44398f560e01b815260040160405180910390fd5b60008480610e3757610e37611194565b868809905081811115610e4b576001830392505b908190039060008590038516808681610e6657610e66611194565b049550808381610e7857610e78611194565b049250808160000381610e8d57610e8d611194565b046001019390930291909101600285810380870282030280870282030280870282030280870282030280870282030280870282030295860290039094029390930295945050505050565b815115610ee75781518083602001fd5b8060405162461bcd60e51b815260040161047f9190610f5a565b6000808060001984860990508385029150818103925081811015610f26576001830392505b509250929050565b60005b83811015610f49578181015183820152602001610f31565b838111156108955750506000910152565b6020815260008251806020840152610f79816040850160208701610f2e565b601f01601f19169190910160400192915050565b80356001600160a01b0381168114610fa457600080fd5b919050565b60008060408385031215610fbc57600080fd5b610fc583610f8d565b946020939093013593505050565b600060208284031215610fe557600080fd5b610fee82610f8d565b9392505050565b60008060006060848603121561100a57600080fd5b61101384610f8d565b925061102160208501610f8d565b9150604084013590509250925092565b60006020828403121561104357600080fd5b81356001600160c01b0381168114610fee57600080fd5b80358015158114610fa457600080fd5b6000806040838503121561107d57600080fd5b61108683610f8d565b91506110946020840161105a565b90509250929050565b6000602082840312156110af57600080fd5b610fee8261105a565b600080604083850312156110cb57600080fd5b6110d483610f8d565b915061109460208401610f8d565b600181811c908216806110f657607f821691505b6020821081141561111757634e487b7160e01b600052602260045260246000fd5b50919050565b634e487b7160e01b600052601160045260246000fd5b6000828210156111455761114561111d565b500390565b6000821982111561115d5761115d61111d565b500190565b60008251611174818460208701610f2e565b9190910192915050565b634e487b7160e01b600052602160045260246000fd5b634e487b7160e01b600052601260045260246000fd5b6000826111c757634e487b7160e01b600052601260045260246000fd5b50049056fea264697066735822122064c55eef258bb521cbd4ce67cd3914e2be3f255c78e6001df35c11543996aaa564736f6c63430008090033",
  "linkReferences": {},
  "deployedLinkReferences": {}
}