{
  "_format": "hh-sol-artifact-1",
  "contractName": "RTokenP0",
  "sourceName": "contracts/reserve/p0/RToken.sol",
  "abi": [
    {
      "inputs": [],
      "name": "UIntOutOfBounds",
      "type": "error"
    },
    {
      "anonymous": false,
      "inputs": [
        {
          "indexed": true,
          "internalType": "address",
          "name": "owner",
          "type": "address"
        },
        {
          "indexed": true,
          "internalType": "address",
          "name": "spender",
          "type": "address"
        },
        {
          "indexed": false,
          "internalType": "uint256",
          "name": "value",
          "type": "uint256"
        }
      ],
      "name": "Approval",
      "type": "event"
    },
    {
      "anonymous": false,
      "inputs": [
        {
          "indexed": false,
          "internalType": "uint192",
          "name": "oldBasketsNeeded",
          "type": "uint192"
        },
        {
          "indexed": false,
          "internalType": "uint192",
          "name": "newBasketsNeeded",
          "type": "uint192"
        }
      ],
      "name": "BasketsNeededChanged",
      "type": "event"
    },
    {
      "anonymous": false,
      "inputs": [
        {
          "indexed": false,
          "internalType": "uint8",
          "name": "version",
          "type": "uint8"
        }
      ],
      "name": "Initialized",
      "type": "event"
    },
    {
      "anonymous": false,
      "inputs": [
        {
          "indexed": true,
          "internalType": "address",
          "name": "issuer",
          "type": "address"
        },
        {
          "indexed": true,
          "internalType": "uint256",
          "name": "amount",
          "type": "uint256"
        },
        {
          "indexed": true,
          "internalType": "uint192",
          "name": "baskets",
          "type": "uint192"
        }
      ],
      "name": "Issuance",
      "type": "event"
    },
    {
      "anonymous": false,
      "inputs": [
        {
          "indexed": true,
          "internalType": "uint192",
          "name": "oldVal",
          "type": "uint192"
        },
        {
          "indexed": true,
          "internalType": "uint192",
          "name": "newVal",
          "type": "uint192"
        }
      ],
      "name": "IssuanceRateSet",
      "type": "event"
    },
    {
      "anonymous": false,
      "inputs": [
        {
          "indexed": true,
          "internalType": "address",
          "name": "issuer",
          "type": "address"
        },
        {
          "indexed": true,
          "internalType": "uint256",
          "name": "index",
          "type": "uint256"
        },
        {
          "indexed": true,
          "internalType": "uint256",
          "name": "amount",
          "type": "uint256"
        },
        {
          "indexed": false,
          "internalType": "uint192",
          "name": "baskets",
          "type": "uint192"
        },
        {
          "indexed": false,
          "internalType": "address[]",
          "name": "erc20s",
          "type": "address[]"
        },
        {
          "indexed": false,
          "internalType": "uint256[]",
          "name": "quantities",
          "type": "uint256[]"
        },
        {
          "indexed": false,
          "internalType": "uint192",
          "name": "blockAvailableAt",
          "type": "uint192"
        }
      ],
      "name": "IssuanceStarted",
      "type": "event"
    },
    {
      "anonymous": false,
      "inputs": [
        {
          "indexed": true,
          "internalType": "address",
          "name": "issuer",
          "type": "address"
        },
        {
          "indexed": true,
          "internalType": "uint256",
          "name": "firstId",
          "type": "uint256"
        },
        {
          "indexed": true,
          "internalType": "uint256",
          "name": "endId",
          "type": "uint256"
        },
        {
          "indexed": false,
          "internalType": "uint256",
          "name": "amount",
          "type": "uint256"
        }
      ],
      "name": "IssuancesCanceled",
      "type": "event"
    },
    {
      "anonymous": false,
      "inputs": [
        {
          "indexed": true,
          "internalType": "address",
          "name": "issuer",
          "type": "address"
        },
        {
          "indexed": true,
          "internalType": "uint256",
          "name": "firstId",
          "type": "uint256"
        },
        {
          "indexed": true,
          "internalType": "uint256",
          "name": "endId",
          "type": "uint256"
        },
        {
          "indexed": false,
          "internalType": "uint256",
          "name": "amount",
          "type": "uint256"
        }
      ],
      "name": "IssuancesCompleted",
      "type": "event"
    },
    {
      "anonymous": false,
      "inputs": [
        {
          "indexed": false,
          "internalType": "uint256",
          "name": "amount",
          "type": "uint256"
        }
      ],
      "name": "Melted",
      "type": "event"
    },
    {
      "anonymous": false,
      "inputs": [
        {
          "indexed": true,
          "internalType": "address",
          "name": "redeemer",
          "type": "address"
        },
        {
          "indexed": true,
          "internalType": "uint256",
          "name": "amount",
          "type": "uint256"
        },
        {
          "indexed": false,
          "internalType": "uint192",
          "name": "baskets",
          "type": "uint192"
        }
      ],
      "name": "Redemption",
      "type": "event"
    },
    {
      "anonymous": false,
      "inputs": [
        {
          "indexed": true,
          "internalType": "uint256",
          "name": "oldVal",
          "type": "uint256"
        },
        {
          "indexed": true,
          "internalType": "uint256",
          "name": "newVal",
          "type": "uint256"
        }
      ],
      "name": "RedemptionRateFloorSet",
      "type": "event"
    },
    {
      "anonymous": false,
      "inputs": [
        {
          "indexed": true,
          "internalType": "contract IERC20",
          "name": "erc20",
          "type": "address"
        },
        {
          "indexed": true,
          "internalType": "uint256",
          "name": "amount",
          "type": "uint256"
        }
      ],
      "name": "RewardsClaimed",
      "type": "event"
    },
    {
      "anonymous": false,
      "inputs": [
        {
          "indexed": true,
          "internalType": "uint192",
          "name": "oldVal",
          "type": "uint192"
        },
        {
          "indexed": true,
          "internalType": "uint192",
          "name": "newVal",
          "type": "uint192"
        }
      ],
      "name": "ScalingRedemptionRateSet",
      "type": "event"
    },
    {
      "anonymous": false,
      "inputs": [
        {
          "indexed": true,
          "internalType": "address",
          "name": "from",
          "type": "address"
        },
        {
          "indexed": true,
          "internalType": "address",
          "name": "to",
          "type": "address"
        },
        {
          "indexed": false,
          "internalType": "uint256",
          "name": "value",
          "type": "uint256"
        }
      ],
      "name": "Transfer",
      "type": "event"
    },
    {
      "inputs": [],
      "name": "DOMAIN_SEPARATOR",
      "outputs": [
        {
          "internalType": "bytes32",
          "name": "",
          "type": "bytes32"
        }
      ],
      "stateMutability": "view",
      "type": "function"
    },
    {
      "inputs": [],
      "name": "MAX_ISSUANCE_RATE",
      "outputs": [
        {
          "internalType": "uint192",
          "name": "",
          "type": "uint192"
        }
      ],
      "stateMutability": "view",
      "type": "function"
    },
    {
      "inputs": [],
      "name": "MIN_BLOCK_ISSUANCE_LIMIT",
      "outputs": [
        {
          "internalType": "uint256",
          "name": "",
          "type": "uint256"
        }
      ],
      "stateMutability": "view",
      "type": "function"
    },
    {
      "inputs": [],
      "name": "allVestAt",
      "outputs": [
        {
          "internalType": "uint192",
          "name": "",
          "type": "uint192"
        }
      ],
      "stateMutability": "view",
      "type": "function"
    },
    {
      "inputs": [
        {
          "internalType": "address",
          "name": "owner",
          "type": "address"
        },
        {
          "internalType": "address",
          "name": "spender",
          "type": "address"
        }
      ],
      "name": "allowance",
      "outputs": [
        {
          "internalType": "uint256",
          "name": "",
          "type": "uint256"
        }
      ],
      "stateMutability": "view",
      "type": "function"
    },
    {
      "inputs": [
        {
          "internalType": "address",
          "name": "spender",
          "type": "address"
        },
        {
          "internalType": "uint256",
          "name": "amount",
          "type": "uint256"
        }
      ],
      "name": "approve",
      "outputs": [
        {
          "internalType": "bool",
          "name": "",
          "type": "bool"
        }
      ],
      "stateMutability": "nonpayable",
      "type": "function"
    },
    {
      "inputs": [
        {
          "internalType": "address",
          "name": "account",
          "type": "address"
        }
      ],
      "name": "balanceOf",
      "outputs": [
        {
          "internalType": "uint256",
          "name": "",
          "type": "uint256"
        }
      ],
      "stateMutability": "view",
      "type": "function"
    },
    {
      "inputs": [],
      "name": "basketsNeeded",
      "outputs": [
        {
          "internalType": "uint192",
          "name": "",
          "type": "uint192"
        }
      ],
      "stateMutability": "view",
      "type": "function"
    },
    {
      "inputs": [
        {
          "internalType": "uint256",
          "name": "endId",
          "type": "uint256"
        },
        {
          "internalType": "bool",
          "name": "earliest",
          "type": "bool"
        }
      ],
      "name": "cancel",
      "outputs": [],
      "stateMutability": "nonpayable",
      "type": "function"
    },
    {
      "inputs": [],
      "name": "claimRewards",
      "outputs": [],
      "stateMutability": "nonpayable",
      "type": "function"
    },
    {
      "inputs": [
        {
          "internalType": "contract IERC20",
          "name": "erc20",
          "type": "address"
        }
      ],
      "name": "claimRewardsSingle",
      "outputs": [],
      "stateMutability": "nonpayable",
      "type": "function"
    },
    {
      "inputs": [],
      "name": "decimals",
      "outputs": [
        {
          "internalType": "uint8",
          "name": "",
          "type": "uint8"
        }
      ],
      "stateMutability": "view",
      "type": "function"
    },
    {
      "inputs": [
        {
          "internalType": "address",
          "name": "spender",
          "type": "address"
        },
        {
          "internalType": "uint256",
          "name": "subtractedValue",
          "type": "uint256"
        }
      ],
      "name": "decreaseAllowance",
      "outputs": [
        {
          "internalType": "bool",
          "name": "",
          "type": "bool"
        }
      ],
      "stateMutability": "nonpayable",
      "type": "function"
    },
    {
      "inputs": [
        {
          "internalType": "address",
          "name": "account",
          "type": "address"
        }
      ],
      "name": "endIdForVest",
      "outputs": [
        {
          "internalType": "uint256",
          "name": "",
          "type": "uint256"
        }
      ],
      "stateMutability": "view",
      "type": "function"
    },
    {
      "inputs": [
        {
          "internalType": "address",
          "name": "spender",
          "type": "address"
        },
        {
          "internalType": "uint256",
          "name": "addedValue",
          "type": "uint256"
        }
      ],
      "name": "increaseAllowance",
      "outputs": [
        {
          "internalType": "bool",
          "name": "",
          "type": "bool"
        }
      ],
      "stateMutability": "nonpayable",
      "type": "function"
    },
    {
      "inputs": [
        {
          "internalType": "contract IMain",
          "name": "main_",
          "type": "address"
        },
        {
          "internalType": "string",
          "name": "name_",
          "type": "string"
        },
        {
          "internalType": "string",
          "name": "symbol_",
          "type": "string"
        },
        {
          "internalType": "string",
          "name": "mandate_",
          "type": "string"
        },
        {
          "internalType": "uint192",
          "name": "issuanceRate_",
          "type": "uint192"
        },
        {
          "internalType": "uint192",
          "name": "scalingRedemptionRate_",
          "type": "uint192"
        },
        {
          "internalType": "uint256",
          "name": "redemptionRateFloor_",
          "type": "uint256"
        }
      ],
      "name": "init",
      "outputs": [],
      "stateMutability": "nonpayable",
      "type": "function"
    },
    {
      "inputs": [],
      "name": "issuanceRate",
      "outputs": [
        {
          "internalType": "uint192",
          "name": "",
          "type": "uint192"
        }
      ],
      "stateMutability": "view",
      "type": "function"
    },
    {
      "inputs": [
        {
          "internalType": "address",
          "name": "",
          "type": "address"
        },
        {
          "internalType": "uint256",
          "name": "",
          "type": "uint256"
        }
      ],
      "name": "issuances",
      "outputs": [
        {
          "internalType": "address",
          "name": "issuer",
          "type": "address"
        },
        {
          "internalType": "uint256",
          "name": "amount",
          "type": "uint256"
        },
        {
          "internalType": "uint192",
          "name": "baskets",
          "type": "uint192"
        },
        {
          "internalType": "uint256",
          "name": "basketNonce",
          "type": "uint256"
        },
        {
          "internalType": "uint192",
          "name": "blockAvailableAt",
          "type": "uint192"
        },
        {
          "internalType": "bool",
          "name": "processed",
          "type": "bool"
        }
      ],
      "stateMutability": "view",
      "type": "function"
    },
    {
      "inputs": [
        {
          "internalType": "uint256",
          "name": "amount",
          "type": "uint256"
        }
      ],
      "name": "issue",
      "outputs": [],
      "stateMutability": "nonpayable",
      "type": "function"
    },
    {
      "inputs": [],
      "name": "main",
      "outputs": [
        {
          "internalType": "contract IMain",
          "name": "",
          "type": "address"
        }
      ],
      "stateMutability": "view",
      "type": "function"
    },
    {
      "inputs": [],
      "name": "mandate",
      "outputs": [
        {
          "internalType": "string",
          "name": "",
          "type": "string"
        }
      ],
      "stateMutability": "view",
      "type": "function"
    },
    {
      "inputs": [
        {
          "internalType": "uint256",
          "name": "amount",
          "type": "uint256"
        }
      ],
      "name": "melt",
      "outputs": [],
      "stateMutability": "nonpayable",
      "type": "function"
    },
    {
      "inputs": [
        {
          "internalType": "address",
          "name": "recipient",
          "type": "address"
        },
        {
          "internalType": "uint256",
          "name": "amount",
          "type": "uint256"
        }
      ],
      "name": "mint",
      "outputs": [],
      "stateMutability": "nonpayable",
      "type": "function"
    },
    {
      "inputs": [],
      "name": "name",
      "outputs": [
        {
          "internalType": "string",
          "name": "",
          "type": "string"
        }
      ],
      "stateMutability": "view",
      "type": "function"
    },
    {
      "inputs": [
        {
          "internalType": "address",
          "name": "owner",
          "type": "address"
        }
      ],
      "name": "nonces",
      "outputs": [
        {
          "internalType": "uint256",
          "name": "",
          "type": "uint256"
        }
      ],
      "stateMutability": "view",
      "type": "function"
    },
    {
      "inputs": [
        {
          "internalType": "address",
          "name": "owner",
          "type": "address"
        },
        {
          "internalType": "address",
          "name": "spender",
          "type": "address"
        },
        {
          "internalType": "uint256",
          "name": "value",
          "type": "uint256"
        },
        {
          "internalType": "uint256",
          "name": "deadline",
          "type": "uint256"
        },
        {
          "internalType": "uint8",
          "name": "v",
          "type": "uint8"
        },
        {
          "internalType": "bytes32",
          "name": "r",
          "type": "bytes32"
        },
        {
          "internalType": "bytes32",
          "name": "s",
          "type": "bytes32"
        }
      ],
      "name": "permit",
      "outputs": [],
      "stateMutability": "nonpayable",
      "type": "function"
    },
    {
      "inputs": [
        {
          "internalType": "uint256",
          "name": "amount",
          "type": "uint256"
        }
      ],
      "name": "redeem",
      "outputs": [],
      "stateMutability": "nonpayable",
      "type": "function"
    },
    {
      "inputs": [],
      "name": "redemptionLimit",
      "outputs": [
        {
          "internalType": "uint256",
          "name": "",
          "type": "uint256"
        }
      ],
      "stateMutability": "view",
      "type": "function"
    },
    {
      "inputs": [],
      "name": "redemptionRateFloor",
      "outputs": [
        {
          "internalType": "uint256",
          "name": "",
          "type": "uint256"
        }
      ],
      "stateMutability": "view",
      "type": "function"
    },
    {
      "inputs": [],
      "name": "scalingRedemptionRate",
      "outputs": [
        {
          "internalType": "uint192",
          "name": "",
          "type": "uint192"
        }
      ],
      "stateMutability": "view",
      "type": "function"
    },
    {
      "inputs": [
        {
          "internalType": "uint192",
          "name": "basketsNeeded_",
          "type": "uint192"
        }
      ],
      "name": "setBasketsNeeded",
      "outputs": [],
      "stateMutability": "nonpayable",
      "type": "function"
    },
    {
      "inputs": [
        {
          "internalType": "uint192",
          "name": "val",
          "type": "uint192"
        }
      ],
      "name": "setIssuanceRate",
      "outputs": [],
      "stateMutability": "nonpayable",
      "type": "function"
    },
    {
      "inputs": [
        {
          "internalType": "uint256",
          "name": "val",
          "type": "uint256"
        }
      ],
      "name": "setRedemptionRateFloor",
      "outputs": [],
      "stateMutability": "nonpayable",
      "type": "function"
    },
    {
      "inputs": [
        {
          "internalType": "uint192",
          "name": "val",
          "type": "uint192"
        }
      ],
      "name": "setScalingRedemptionRate",
      "outputs": [],
      "stateMutability": "nonpayable",
      "type": "function"
    },
    {
      "inputs": [],
      "name": "sweepRewards",
      "outputs": [],
      "stateMutability": "nonpayable",
      "type": "function"
    },
    {
      "inputs": [
        {
          "internalType": "contract IERC20",
          "name": "erc20",
          "type": "address"
        }
      ],
      "name": "sweepRewardsSingle",
      "outputs": [],
      "stateMutability": "nonpayable",
      "type": "function"
    },
    {
      "inputs": [],
      "name": "symbol",
      "outputs": [
        {
          "internalType": "string",
          "name": "",
          "type": "string"
        }
      ],
      "stateMutability": "view",
      "type": "function"
    },
    {
      "inputs": [],
      "name": "totalSupply",
      "outputs": [
        {
          "internalType": "uint256",
          "name": "",
          "type": "uint256"
        }
      ],
      "stateMutability": "view",
      "type": "function"
    },
    {
      "inputs": [
        {
          "internalType": "address",
          "name": "to",
          "type": "address"
        },
        {
          "internalType": "uint256",
          "name": "amount",
          "type": "uint256"
        }
      ],
      "name": "transfer",
      "outputs": [
        {
          "internalType": "bool",
          "name": "",
          "type": "bool"
        }
      ],
      "stateMutability": "nonpayable",
      "type": "function"
    },
    {
      "inputs": [
        {
          "internalType": "address",
          "name": "from",
          "type": "address"
        },
        {
          "internalType": "address",
          "name": "to",
          "type": "address"
        },
        {
          "internalType": "uint256",
          "name": "amount",
          "type": "uint256"
        }
      ],
      "name": "transferFrom",
      "outputs": [
        {
          "internalType": "bool",
          "name": "",
          "type": "bool"
        }
      ],
      "stateMutability": "nonpayable",
      "type": "function"
    },
    {
      "inputs": [
        {
          "internalType": "address",
          "name": "account",
          "type": "address"
        },
        {
          "internalType": "uint256",
          "name": "index",
          "type": "uint256"
        }
      ],
      "name": "validP1IssueItemIndex",
      "outputs": [
        {
          "internalType": "bool",
          "name": "",
          "type": "bool"
        }
      ],
      "stateMutability": "view",
      "type": "function"
    },
    {
      "inputs": [],
      "name": "version",
      "outputs": [
        {
          "internalType": "string",
          "name": "",
          "type": "string"
        }
      ],
      "stateMutability": "pure",
      "type": "function"
    },
    {
      "inputs": [
        {
          "internalType": "address",
          "name": "account",
          "type": "address"
        },
        {
          "internalType": "uint256",
          "name": "endId",
          "type": "uint256"
        }
      ],
      "name": "vest",
      "outputs": [],
      "stateMutability": "nonpayable",
      "type": "function"
    }
  ],
  "bytecode": "0x608060405234801561001057600080fd5b506168cd80620000216000396000f3fe608060405234801561001057600080fd5b50600436106102695760003560e01c80636a63f1a711610151578063a9059cbb116100c3578063d505accf11610087578063d505accf1461056d578063db006a7514610580578063dd62ed3e14610593578063dffeadd0146105a6578063ee5eef9f146105d1578063f646e597146105e257600080fd5b8063a9059cbb14610524578063ac9da58314610537578063adaef42c1461053f578063c1e4d03414610552578063cc872b661461055a57600080fd5b8063838a0d3c11610115578063838a0d3c146104755780638c83ed331461048857806395d89b411461049b578063a0d9aa17146104a3578063a457c2d7146104fe578063a51720d91461051157600080fd5b80636a63f1a71461040057806370a08231146104135780637121c2731461043c57806373d16dd71461044f5780637ecebe001461046257600080fd5b8063372500ab116101ea57806340c10f19116101ae57806340c10f191461038b578063455312ee1461039e5780634ba38de4146103b157806354fd4d50146103c45780635a941ea2146103e557806363965449146103ed57600080fd5b8063372500ab1461034257806337dc31911461034a578063395093511461035d57806339b1b96d146103705780633c9ae2ba1461037857600080fd5b80632797c6c8116102315780632797c6c8146102e95780632a7b01e9146102fc57806331051d5214610323578063313ce5671461032b5780633644e5151461033a57600080fd5b806306fdde031461026e578063095ea7b31461028c57806318160ddd146102af5780631a14663c146102c157806323b872dd146102d6575b600080fd5b6102766105f5565b6040516102839190615ccd565b60405180910390f35b61029f61029a366004615d15565b610687565b6040519015158152602001610283565b6036545b604051908152602001610283565b6102d46102cf366004615e14565b6106a1565b005b61029f6102e4366004615f0d565b6108b6565b6102d46102f7366004615d15565b6108dc565b61030b670de0b6b3a764000081565b6040516001600160c01b039091168152602001610283565b6102b3610d7f565b60405160128152602001610283565b6102b3610d9f565b6102d4610dae565b6102d4610358366004615f5c565b6110f0565b61029f61036b366004615d15565b6116c4565b6102766116e6565b60d35461030b906001600160c01b031681565b6102d4610399366004615d15565b611774565b6102d46103ac366004615f8c565b611905565b6102d46103bf366004615fa5565b611a0d565b6040805180820190915260058152640312e322e360dc1b6020820152610276565b6102b3611b91565b6102d46103fb366004615fa5565b611ba7565b60d15461030b906001600160c01b031681565b6102b3610421366004615fc0565b6001600160a01b031660009081526034602052604090205490565b60d25461030b906001600160c01b031681565b6102b361045d366004615fc0565b611d93565b6102b3610470366004615fc0565b611e2f565b61029f610483366004615d15565b611e4d565b6102d4610496366004615f8c565b611e74565b610276611f5c565b6104b66104b1366004615d15565b611f6b565b604080516001600160a01b03909716875260208701959095526001600160c01b03938416948601949094526060850191909152166080830152151560a082015260c001610283565b61029f61050c366004615d15565b611fdc565b6102d461051f366004615fa5565b612062565b61029f610532366004615d15565b6121ff565b60d4546102b3565b6102d461054d366004615fc0565b61220d565b6102d4612410565b6102d4610568366004615f8c565b61276c565b6102d461057b366004615fdd565b613063565b6102d461058e366004615f8c565b6131de565b6102b36105a1366004616054565b613a23565b6033546105b9906001600160a01b031681565b6040516001600160a01b039091168152602001610283565b60d5546001600160c01b031661030b565b6102d46105f0366004615fc0565b613a4e565b60606037805461060490616082565b80601f016020809104026020016040519081016040528092919081815260200182805461063090616082565b801561067d5780601f106106525761010080835404028352916020019161067d565b820191906000526020600020905b81548152906001019060200180831161066057829003601f168201915b5050505050905090565b600033610695818585613df4565b60019150505b92915050565b600054610100900460ff16158080156106c15750600054600160ff909116105b806106db5750303b1580156106db575060005460ff166001145b6107435760405162461bcd60e51b815260206004820152602e60248201527f496e697469616c697a61626c653a20636f6e747261637420697320616c72656160448201526d191e481a5b9a5d1a585b1a5e995960921b60648201526084015b60405180910390fd5b6000805460ff191660011790558015610766576000805461ff0019166101001790555b60008851116107a45760405162461bcd60e51b815260206004820152600a6024820152696e616d6520656d70747960b01b604482015260640161073a565b60008751116107e45760405162461bcd60e51b815260206004820152600c60248201526b73796d626f6c20656d70747960a01b604482015260640161073a565b846108215760405162461bcd60e51b815260206004820152600d60248201526c6d616e6461746520656d70747960981b604482015260640161073a565b61082a89613f18565b6108348888613fae565b61083d88613fdf565b61084960cc8787615aeb565b5061085384612062565b61085c83611a0d565b61086582611905565b80156108ab576000805461ff0019169055604051600181527f7f26b83ff96e1f2b6a682f133852f6798a09c465da95921460cefb38474024989060200160405180910390a15b505050505050505050565b6000336108c4858285614029565b6108cf8585856140a3565b60019150505b9392505050565b603360009054906101000a90046001600160a01b03166001600160a01b031663f17063756040518163ffffffff1660e01b815260040160206040518083038186803b15801561092a57600080fd5b505afa15801561093e573d6000803e3d6000fd5b505050506040513d601f19601f8201168201806040525081019061096291906160b7565b1561097f5760405162461bcd60e51b815260040161073a906160d4565b603360009054906101000a90046001600160a01b03166001600160a01b031663181783586040518163ffffffff1660e01b8152600401600060405180830381600087803b1580156109cf57600080fd5b505af11580156109e3573d6000803e3d6000fd5b50600092506109f0915050565b603360009054906101000a90046001600160a01b03166001600160a01b0316632f2439b16040518163ffffffff1660e01b815260040160206040518083038186803b158015610a3e57600080fd5b505afa158015610a52573d6000803e3d6000fd5b505050506040513d601f19601f82011682018060405250810190610a769190616114565b6001600160a01b031663200d2ed26040518163ffffffff1660e01b815260040160206040518083038186803b158015610aae57600080fd5b505afa158015610ac2573d6000803e3d6000fd5b505050506040513d601f19601f82011682018060405250810190610ae69190616131565b6002811115610af757610af76160fe565b14610b355760405162461bcd60e51b815260206004820152600e60248201526d18985cdad95d081d5b9cdbdd5b9960921b604482015260640161073a565b80610b3f83614259565b1415610b49575050565b80610b5383614259565b11158015610b695750610b65826142e6565b8111155b610ba45760405162461bcd60e51b815260206004820152600c60248201526b6f7574206f662072616e676560a01b604482015260640161073a565b6000610baf83614370565b90508015610bbc57505050565b6001600160a01b038316600090815260d0602052604081209080805b8581108015610be75750835481105b15610c30576000610bf888836146ce565b9050610c048184616168565b925083158015610c145750600081115b15610c1d578193505b5080610c2881616180565b915050610bd8565b508015610c7d578482876001600160a01b03167f576b8228616b6d68b15aa60bbd34bb40a88ae5f2dc97c20db2b35f3ef6c353f984604051610c7491815260200190565b60405180910390a45b8254851415610d76578254600090610c979060019061619b565b90505b60008112610d7457838181548110610cb457610cb46161da565b906000526020600020906007020160060160189054906101000a900460ff16610cdf57610cdf6161f0565b83805480610cef57610cef616206565b60008281526020812060076000199093019283020180546001600160a01b0319168155600181018290556002810180546001600160c01b031916905590610d396003830182615b6b565b610d47600483016000615b6b565b506000600582015560060180546001600160c81b0319169055905580610d6c8161621c565b915050610c9a565b505b505050505b5050565b610d93670de0b6b3a764000061271061623a565b6001600160c01b031681565b6000610da9614b03565b905090565b603360009054906101000a90046001600160a01b03166001600160a01b031663f17063756040518163ffffffff1660e01b815260040160206040518083038186803b158015610dfc57600080fd5b505afa158015610e10573d6000803e3d6000fd5b505050506040513d601f19601f82011682018060405250810190610e3491906160b7565b15610e515760405162461bcd60e51b815260040161073a906160d4565b603360009054906101000a90046001600160a01b03166001600160a01b031663181783586040518163ffffffff1660e01b8152600401600060405180830381600087803b158015610ea157600080fd5b505af1158015610eb5573d6000803e3d6000fd5b505050506000603360009054906101000a90046001600160a01b03166001600160a01b031663979d7e866040518163ffffffff1660e01b815260040160206040518083038186803b158015610f0957600080fd5b505afa158015610f1d573d6000803e3d6000fd5b505050506040513d601f19601f82011682018060405250810190610f419190616114565b90506000816001600160a01b0316632510a1d76040518163ffffffff1660e01b815260040160006040518083038186803b158015610f7e57600080fd5b505afa158015610f92573d6000803e3d6000fd5b505050506040513d6000823e601f3d908101601f19168201604052610fba919081019061628d565b905060005b81518110156110eb576000836001600160a01b031663cde2be8a848481518110610feb57610feb6161da565b60200260200101516040518263ffffffff1660e01b815260040161101e91906001600160a01b0391909116815260200190565b60206040518083038186803b15801561103657600080fd5b505afa15801561104a573d6000803e3d6000fd5b505050506040513d601f19601f8201168201806040525081019061106e9190616114565b6040805160048152602481018252602080820180516001600160e01b031663372500ab60e01b179052825180840190935260148352731c995dd85c991cc818db185a5b4819985a5b195960621b908301529192506110d6916001600160a01b03841691614b7e565b505080806110e390616180565b915050610fbf565b505050565b603360009054906101000a90046001600160a01b03166001600160a01b031663054f7d9c6040518163ffffffff1660e01b815260040160206040518083038186803b15801561113e57600080fd5b505afa158015611152573d6000803e3d6000fd5b505050506040513d601f19601f8201168201806040525081019061117691906160b7565b156111ac5760405162461bcd60e51b8152602060048201526006602482015265333937bd32b760d11b604482015260640161073a565b603360009054906101000a90046001600160a01b03166001600160a01b031663979d7e866040518163ffffffff1660e01b815260040160206040518083038186803b1580156111fa57600080fd5b505afa15801561120e573d6000803e3d6000fd5b505050506040513d601f19601f820116820180604052508101906112329190616114565b6001600160a01b031663f8ac93e86040518163ffffffff1660e01b8152600401600060405180830381600087803b15801561126c57600080fd5b505af1158015611280573d6000803e3d6000fd5b50505050603360009054906101000a90046001600160a01b03166001600160a01b031663656e96e16040518163ffffffff1660e01b815260040160206040518083038186803b1580156112d257600080fd5b505afa1580156112e6573d6000803e3d6000fd5b505050506040513d601f19601f8201168201806040525081019061130a9190616114565b6001600160a01b0316635220f5106040518163ffffffff1660e01b8152600401600060405180830381600087803b15801561134457600080fd5b505af1925050508015611355575060015b50338261136182614259565b111580156113775750611373816142e6565b8311155b6113b25760405162461bcd60e51b815260206004820152600c60248201526b6f7574206f662072616e676560a01b604482015260640161073a565b6001600160a01b038116600090815260d0602052604081209080808080876113dd57855489906113e1565b6000895b9092509050815b81811080156113f75750865481105b15611580576000878281548110611410576114106161da565b906000526020600020906007020190508060060160189054906101000a900460ff1661156d5760005b600382015481101561152c5781600401818154811061145a5761145a6161da565b906000526020600020015460d7600084600301848154811061147e5761147e6161da565b60009182526020808320909101546001600160a01b03168352820192909252604001812080549091906114b2908490616321565b9091555050815460048301805461151a926001600160a01b03169190849081106114de576114de6161da565b90600052602060002001548460030184815481106114fe576114fe6161da565b6000918252602090912001546001600160a01b03169190614bf6565b8061152481616180565b915050611439565b50600181015461153c9088616168565b60068201805460ff60c01b1916600160c01b17905596508561155d81616180565b965050856001141561156d578194505b508061157881616180565b9150506113e8565b5083156115cd578083886001600160a01b03167f8d02f355336bad9d0d69b8a6a40a439e836b5ef070029ea58da8e474b237b5f2886040516115c491815260200190565b60405180910390a45b85546000906115de9060019061619b565b90505b600081126116b8578681815481106115fb576115fb6161da565b906000526020600020906007020160060160189054906101000a900460ff16611623576116b8565b8680548061163357611633616206565b60008281526020812060076000199093019283020180546001600160a01b0319168155600181018290556002810180546001600160c01b03191690559061167d6003830182615b6b565b61168b600483016000615b6b565b506000600582015560060180546001600160c81b03191690559055806116b08161621c565b9150506115e1565b50505050505050505050565b6000336106958185856116d78383613a23565b6116e19190616168565b613df4565b60cc80546116f390616082565b80601f016020809104026020016040519081016040528092919081815260200182805461171f90616082565b801561176c5780601f106117415761010080835404028352916020019161176c565b820191906000526020600020905b81548152906001019060200180831161174f57829003601f168201915b505050505081565b603360009054906101000a90046001600160a01b03166001600160a01b031663f17063756040518163ffffffff1660e01b815260040160206040518083038186803b1580156117c257600080fd5b505afa1580156117d6573d6000803e3d6000fd5b505050506040513d601f19601f820116820180604052508101906117fa91906160b7565b156118175760405162461bcd60e51b815260040161073a906160d4565b603360009054906101000a90046001600160a01b03166001600160a01b031663dc8af5f66040518163ffffffff1660e01b815260040160206040518083038186803b15801561186557600080fd5b505afa158015611879573d6000803e3d6000fd5b505050506040513d601f19601f8201168201806040525081019061189d9190616114565b6001600160a01b0316336001600160a01b0316146118f35760405162461bcd60e51b81526020600482015260136024820152723737ba103130b1b5b4b7339036b0b730b3b2b960691b604482015260640161073a565b6118fd8282614c59565b610d7b614d26565b60335460408051808201909152600581526427aba722a960d91b60208201526001600160a01b03909116906391d148549061193f90616338565b336040516001600160e01b031960e085901b16815260048101929092526001600160a01b0316602482015260440160206040518083038186803b15801561198557600080fd5b505afa158015611999573d6000803e3d6000fd5b505050506040513d601f19601f820116820180604052508101906119bd91906160b7565b6119d95760405162461bcd60e51b815260040161073a9061635c565b60d4546040518291907f3e4252e7751ab9d091c55f72f757aeebe5acbc8c4859ecdf6eb602db902dcd2890600090a360d455565b60335460408051808201909152600581526427aba722a960d91b60208201526001600160a01b03909116906391d1485490611a4790616338565b336040516001600160e01b031960e085901b16815260048101929092526001600160a01b0316602482015260440160206040518083038186803b158015611a8d57600080fd5b505afa158015611aa1573d6000803e3d6000fd5b505050506040513d601f19601f82011682018060405250810190611ac591906160b7565b611ae15760405162461bcd60e51b815260040161073a9061635c565b670de0b6b3a76400006001600160c01b0382161115611b355760405162461bcd60e51b815260206004820152601060248201526f34b73b30b634b210333930b1ba34b7b760811b604482015260640161073a565b60d5546040516001600160c01b038084169216907f538a1900e0a4d6ba9cba8557189d22a09addb52da0c23fffc68d8cbe1badc38490600090a360d580546001600160c01b0319166001600160c01b0392909216919091179055565b6000610da9611b9f60365490565b60d490614e73565b603360009054906101000a90046001600160a01b03166001600160a01b031663f17063756040518163ffffffff1660e01b815260040160206040518083038186803b158015611bf557600080fd5b505afa158015611c09573d6000803e3d6000fd5b505050506040513d601f19601f82011682018060405250810190611c2d91906160b7565b15611c4a5760405162461bcd60e51b815260040161073a906160d4565b603360009054906101000a90046001600160a01b03166001600160a01b031663dc8af5f66040518163ffffffff1660e01b815260040160206040518083038186803b158015611c9857600080fd5b505afa158015611cac573d6000803e3d6000fd5b505050506040513d601f19601f82011682018060405250810190611cd09190616114565b6001600160a01b0316336001600160a01b031614611d265760405162461bcd60e51b81526020600482015260136024820152723737ba103130b1b5b4b7339036b0b730b3b2b960691b604482015260640161073a565b60d254604080516001600160c01b03928316815291831660208301527f0b0ca69be72e0611a1f79eedf91aece404ff14cb8fcfd0c997a72b68d4fdd478910160405180910390a160d280546001600160c01b0319166001600160c01b038316179055611d90614d26565b50565b600080611d9f83614259565b90506000611dac43614f31565b6001600160a01b038516600090815260d0602052604090209091505b805483108015611e0f5750611e0f82828581548110611de957611de96161da565b60009182526020909120600790910201600601546001600160c01b039182169116111590565b15611e265782611e1e81616180565b935050611dc8565b50909392505050565b6001600160a01b0381166000908152609a602052604081205461069b565b600081611e5984614259565b101580156108d55750611e6b836142e6565b82109392505050565b603360009054906101000a90046001600160a01b03166001600160a01b031663f17063756040518163ffffffff1660e01b815260040160206040518083038186803b158015611ec257600080fd5b505afa158015611ed6573d6000803e3d6000fd5b505050506040513d601f19601f82011682018060405250810190611efa91906160b7565b15611f175760405162461bcd60e51b815260040161073a906160d4565b611f213382614f4d565b6040518181527f12b02b431a920654430b36652724950afbd1e5279648b404790dbd036b1a58a79060200160405180910390a1611d90614d26565b60606038805461060490616082565b60d06020528160005260406000208181548110611f8757600080fd5b6000918252602090912060079091020180546001820154600283015460058401546006909401546001600160a01b0390931695509093506001600160c01b03908116929190811690600160c01b900460ff1686565b60003381611fea8286613a23565b90508381101561204a5760405162461bcd60e51b815260206004820152602560248201527f45524332303a2064656372656173656420616c6c6f77616e63652062656c6f77604482015264207a65726f60d81b606482015260840161073a565b6120578286868403613df4565b506001949350505050565b60335460408051808201909152600581526427aba722a960d91b60208201526001600160a01b03909116906391d148549061209c90616338565b336040516001600160e01b031960e085901b16815260048101929092526001600160a01b0316602482015260440160206040518083038186803b1580156120e257600080fd5b505afa1580156120f6573d6000803e3d6000fd5b505050506040513d601f19601f8201168201806040525081019061211a91906160b7565b6121365760405162461bcd60e51b815260040161073a9061635c565b6000816001600160c01b03161180156121605750670de0b6b3a76400006001600160c01b03821611155b6121a35760405162461bcd60e51b8152602060048201526014602482015273696e76616c69642069737375616e63655261746560601b604482015260640161073a565b60d3546040516001600160c01b038084169216907f730a1a6c7a5c39e09096376bae04892ba49664ed38cce3e9608a119449f47bc090600090a360d380546001600160c01b0319166001600160c01b0392909216919091179055565b6000336106958185856140a3565b603360009054906101000a90046001600160a01b03166001600160a01b031663f17063756040518163ffffffff1660e01b815260040160206040518083038186803b15801561225b57600080fd5b505afa15801561226f573d6000803e3d6000fd5b505050506040513d601f19601f8201168201806040525081019061229391906160b7565b156122b05760405162461bcd60e51b815260040161073a906160d4565b60335460408051634bcebf4360e11b815290516000926001600160a01b03169163979d7e86916004808301926020929190829003018186803b1580156122f557600080fd5b505afa158015612309573d6000803e3d6000fd5b505050506040513d601f19601f8201168201806040525081019061232d9190616114565b6040516366f15f4560e11b81526001600160a01b038481166004830152919091169063cde2be8a9060240160206040518083038186803b15801561237057600080fd5b505afa158015612384573d6000803e3d6000fd5b505050506040513d601f19601f820116820180604052508101906123a89190616114565b6040805160048152602481018252602080820180516001600160e01b031663372500ab60e01b179052825180840190935260148352731c995dd85c991cc818db185a5b4819985a5b195960621b908301529192506110eb916001600160a01b03841691614b7e565b603360009054906101000a90046001600160a01b03166001600160a01b031663f17063756040518163ffffffff1660e01b815260040160206040518083038186803b15801561245e57600080fd5b505afa158015612472573d6000803e3d6000fd5b505050506040513d601f19601f8201168201806040525081019061249691906160b7565b156124b35760405162461bcd60e51b815260040161073a906160d4565b60335460408051634bcebf4360e11b815290516000926001600160a01b03169163979d7e86916004808301926020929190829003018186803b1580156124f857600080fd5b505afa15801561250c573d6000803e3d6000fd5b505050506040513d601f19601f820116820180604052508101906125309190616114565b6001600160a01b0316632510a1d76040518163ffffffff1660e01b815260040160006040518083038186803b15801561256857600080fd5b505afa15801561257c573d6000803e3d6000fd5b505050506040513d6000823e601f3d908101601f191682016040526125a4919081019061628d565b90506000603360009054906101000a90046001600160a01b03166001600160a01b031663dc8af5f66040518163ffffffff1660e01b815260040160206040518083038186803b1580156125f657600080fd5b505afa15801561260a573d6000803e3d6000fd5b505050506040513d601f19601f8201168201806040525081019061262e9190616114565b905060005b82518110156110eb57600060d76000858481518110612654576126546161da565b60200260200101516001600160a01b03166001600160a01b031681526020019081526020016000205484838151811061268f5761268f6161da565b60209081029190910101516040516370a0823160e01b81523060048201526001600160a01b03909116906370a082319060240160206040518083038186803b1580156126da57600080fd5b505afa1580156126ee573d6000803e3d6000fd5b505050506040513d601f19601f820116820180604052508101906127129190616385565b61271c9190616321565b9050801561275b5761275b838286858151811061273b5761273b6161da565b60200260200101516001600160a01b0316614bf69092919063ffffffff16565b5061276581616180565b9050612633565b603360009054906101000a90046001600160a01b03166001600160a01b031663f17063756040518163ffffffff1660e01b815260040160206040518083038186803b1580156127ba57600080fd5b505afa1580156127ce573d6000803e3d6000fd5b505050506040513d601f19601f820116820180604052508101906127f291906160b7565b1561280f5760405162461bcd60e51b815260040161073a906160d4565b600081116128535760405162461bcd60e51b815260206004820152601160248201527043616e6e6f74206973737565207a65726f60781b604482015260640161073a565b603360009054906101000a90046001600160a01b03166001600160a01b031663181783586040518163ffffffff1660e01b8152600401600060405180830381600087803b1580156128a357600080fd5b505af11580156128b7573d6000803e3d6000fd5b505050506000603360009054906101000a90046001600160a01b03166001600160a01b0316632f2439b16040518163ffffffff1660e01b815260040160206040518083038186803b15801561290b57600080fd5b505afa15801561291f573d6000803e3d6000fd5b505050506040513d601f19601f820116820180604052508101906129439190616114565b90506000816001600160a01b031663200d2ed26040518163ffffffff1660e01b815260040160206040518083038186803b15801561298057600080fd5b505afa158015612994573d6000803e3d6000fd5b505050506040513d601f19601f820116820180604052508101906129b89190616131565b60028111156129c9576129c96160fe565b14612a075760405162461bcd60e51b815260206004820152600e60248201526d18985cdad95d081d5b9cdbdd5b9960921b604482015260640161073a565b33612a1181614370565b50600080612a1e60365490565b11612a3b57612a3684612a31601261639e565b61508d565b612a5b565b612a5b84612a4860365490565b60d2546001600160c01b0316919061509b565b9050600080846001600160a01b031663c620f0fc8460026040518363ffffffff1660e01b8152600401612a8f9291906163be565b60006040518083038186803b158015612aa757600080fd5b505afa158015612abb573d6000803e3d6000fd5b505050506040513d6000823e601f3d908101601f19168201604052612ae3919081019061645f565b9150915060005b8251811015612bc557818181518110612b0557612b056161da565b602002602001015160d76000858481518110612b2357612b236161da565b60200260200101516001600160a01b03166001600160a01b031681526020019081526020016000206000828254612b5a9190616168565b92505081905550612bb38530848481518110612b7857612b786161da565b6020026020010151868581518110612b9257612b926161da565b60200260200101516001600160a01b03166150b2909392919063ffffffff16565b80612bbd81616180565b915050612aea565b5060335460408051632f2439b160e01b815290516000926001600160a01b031691632f2439b1916004808301926020929190829003018186803b158015612c0b57600080fd5b505afa158015612c1f573d6000803e3d6000fd5b505050506040513d601f19601f82011682018060405250810190612c439190616114565b6001600160a01b031663affed0e06040518163ffffffff1660e01b815260040160206040518083038186803b158015612c7b57600080fd5b505afa158015612c8f573d6000803e3d6000fd5b505050506040513d601f19601f82011682018060405250810190612cb39190616524565b90506000604051806101000160405280876001600160a01b03168152602001898152602001866001600160c01b031681526020018581526020018481526020018365ffffffffffff168152602001612d0a8a6150ea565b6001600160c01b039081168252600060209283018190526001600160a01b038a8116825260d08452604080832080546001808201835591855293869020875160079095020180546001600160a01b031916949093169390931782558585015192820192909255908401516002820180546001600160c01b03191691909316179091556060830151805193945084939192612dac92600385019290910190615b89565b5060808201518051612dc8916004840191602090910190615bde565b5060a0820151600582015560c08201516006909101805460e0909301511515600160c01b026001600160c81b03199093166001600160c01b0390921691909117919091179055612e1960ce876151de565b506001600160a01b038616600090815260d06020526040812054612e3f90600190616321565b905081602001518183600001516001600160a01b03167f686c6d27990d6139603e98d659f15b28e1d6ec26618cde97d822c5ed8fe5f08d8560400151866060015187608001518860c00151604051612e9a949392919061654c565b60405180910390a4612ec5612eae43614f31565b60c08401516001600160c01b039182169116111590565b8015612f5257506000886001600160a01b031663200d2ed26040518163ffffffff1660e01b815260040160206040518083038186803b158015612f0757600080fd5b505afa158015612f1b573d6000803e3d6000fd5b505050506040513d601f19601f82011682018060405250810190612f3f9190616131565b6002811115612f5057612f506160fe565b145b156108ab576000612f6388836146ce565b90508182896001600160a01b03167f576b8228616b6d68b15aa60bbd34bb40a88ae5f2dc97c20db2b35f3ef6c353f984604051612fa291815260200190565b60405180910390a482602001518114612fbd57612fbd6161f0565b6001600160a01b038816600090815260d060205260409020805480612fe457612fe4616206565b60008281526020812060076000199093019283020180546001600160a01b0319168155600181018290556002810180546001600160c01b03191690559061302e6003830182615b6b565b61303c600483016000615b6b565b506000600582015560060180546001600160c81b0319169055905550505050505050505050565b834211156130b35760405162461bcd60e51b815260206004820152601d60248201527f45524332305065726d69743a206578706972656420646561646c696e65000000604482015260640161073a565b60007f6e71edae12b1b97f4d1f60370fef10105fa2faae0126114a169c64845d6126c98888886130e28c6151f3565b6040805160208101969096526001600160a01b0394851690860152929091166060840152608083015260a082015260c0810186905260e00160405160208183030381529060405280519060200120905073__$2d1f1df91c509134c97a9b37f5a8e18539$__634a42ee80896131568461521b565b6040516001600160e01b031960e085901b1681526001600160a01b039092166004830152602482015260ff87166044820152606481018690526084810185905260a40160006040518083038186803b1580156131b157600080fd5b505af41580156131c5573d6000803e3d6000fd5b505050506131d4888888613df4565b5050505050505050565b603360009054906101000a90046001600160a01b03166001600160a01b031663054f7d9c6040518163ffffffff1660e01b815260040160206040518083038186803b15801561322c57600080fd5b505afa158015613240573d6000803e3d6000fd5b505050506040513d601f19601f8201168201806040525081019061326491906160b7565b1561329a5760405162461bcd60e51b8152602060048201526006602482015265333937bd32b760d11b604482015260640161073a565b600081116132df5760405162461bcd60e51b815260206004820152601260248201527143616e6e6f742072656465656d207a65726f60701b604482015260640161073a565b806132e933610421565b101561332b5760405162461bcd60e51b81526020600482015260116024820152703737ba1032b737bab3b410292a37b5b2b760791b604482015260640161073a565b603360009054906101000a90046001600160a01b03166001600160a01b031663979d7e866040518163ffffffff1660e01b815260040160206040518083038186803b15801561337957600080fd5b505afa15801561338d573d6000803e3d6000fd5b505050506040513d601f19601f820116820180604052508101906133b19190616114565b6001600160a01b031663f8ac93e86040518163ffffffff1660e01b8152600401600060405180830381600087803b1580156133eb57600080fd5b505af11580156133ff573d6000803e3d6000fd5b50505050603360009054906101000a90046001600160a01b03166001600160a01b031663656e96e16040518163ffffffff1660e01b815260040160206040518083038186803b15801561345157600080fd5b505afa158015613465573d6000803e3d6000fd5b505050506040513d601f19601f820116820180604052508101906134899190616114565b6001600160a01b0316635220f5106040518163ffffffff1660e01b8152600401600060405180830381600087803b1580156134c357600080fd5b505af19250505080156134d4575060015b5060335460408051632f2439b160e01b815290516000926001600160a01b031691632f2439b1916004808301926020929190829003018186803b15801561351a57600080fd5b505afa15801561352e573d6000803e3d6000fd5b505050506040513d601f19601f820116820180604052508101906135529190616114565b90506002816001600160a01b031663200d2ed26040518163ffffffff1660e01b815260040160206040518083038186803b15801561358f57600080fd5b505afa1580156135a3573d6000803e3d6000fd5b505050506040513d601f19601f820116820180604052508101906135c79190616131565b60028111156135d8576135d86160fe565b141561361b5760405162461bcd60e51b815260206004820152601260248201527118dbdb1b185d195c985b08191959985d5b1d60721b604482015260640161073a565b600061362a83612a4860365490565b60d2549091506001600160c01b03908116908216111561364c5761364c6161f0565b604080516001600160c01b03831681529051849133917f669d5d69fbac2341ef767e638892e6bc8f663ef889d9e82933a66e70d24389789181900360200190a3600080836001600160a01b031663c620f0fc8460006040518363ffffffff1660e01b81526004016136be9291906163be565b60006040518083038186803b1580156136d657600080fd5b505afa1580156136ea573d6000803e3d6000fd5b505050506040513d6000823e601f3d908101601f19168201604052613712919081019061645f565b91509150600061373c61372460365490565b61372d88614f31565b6001600160c01b031690615269565b905061375361374a60365490565b60d49088615277565b61375d3387614f4d565b60d2547f0b0ca69be72e0611a1f79eedf91aece404ff14cb8fcfd0c997a72b68d4fdd478906001600160c01b03166137958187615335565b604080516001600160c01b0393841681529290911660208301520160405180910390a160d2546137ce906001600160c01b031685615335565b60d280546001600160c01b0319166001600160c01b039290921691909117905560335460408051636e457afb60e11b815290516000926001600160a01b03169163dc8af5f6916004808301926020929190829003018186803b15801561383357600080fd5b505afa158015613847573d6000803e3d6000fd5b505050506040513d601f19601f8201168201806040525081019061386b9190616114565b9050600160005b85518110156139e157600086828151811061388f5761388f6161da565b60209081029190910101516040516370a0823160e01b81526001600160a01b038681166004830152909116906370a082319060240160206040518083038186803b1580156138dc57600080fd5b505afa1580156138f0573d6000803e3d6000fd5b505050506040513d601f19601f820116820180604052508101906139149190616385565b9050600061392b6001600160c01b03871683615341565b9050613950878481518110613942576139426161da565b60200260200101518261535f565b878481518110613962576139626161da565b6020026020010181815250506000878481518110613982576139826161da565b602002602001015111156139cc576139c185338986815181106139a7576139a76161da565b60200260200101518b8781518110612b9257612b926161da565b83156139cc57600093505b505080806139d990616180565b915050613872565b5080156131d45760405162461bcd60e51b815260206004820152601060248201526f22b6b83a3c903932b232b6b83a34b7b760811b604482015260640161073a565b6001600160a01b03918216600090815260356020908152604080832093909416825291909152205490565b603360009054906101000a90046001600160a01b03166001600160a01b031663f17063756040518163ffffffff1660e01b815260040160206040518083038186803b158015613a9c57600080fd5b505afa158015613ab0573d6000803e3d6000fd5b505050506040513d601f19601f82011682018060405250810190613ad491906160b7565b15613af15760405162461bcd60e51b815260040161073a906160d4565b603360009054906101000a90046001600160a01b03166001600160a01b031663979d7e866040518163ffffffff1660e01b815260040160206040518083038186803b158015613b3f57600080fd5b505afa158015613b53573d6000803e3d6000fd5b505050506040513d601f19601f82011682018060405250810190613b779190616114565b60405163c3c5a54760e01b81526001600160a01b038381166004830152919091169063c3c5a5479060240160206040518083038186803b158015613bba57600080fd5b505afa158015613bce573d6000803e3d6000fd5b505050506040513d601f19601f82011682018060405250810190613bf291906160b7565b613c335760405162461bcd60e51b8152602060048201526012602482015271195c98cc8c081d5b9c9959da5cdd195c995960721b604482015260640161073a565b6001600160a01b038116600081815260d760205260408082205490516370a0823160e01b8152306004820152919290916370a082319060240160206040518083038186803b158015613c8457600080fd5b505afa158015613c98573d6000803e3d6000fd5b505050506040513d601f19601f82011682018060405250810190613cbc9190616385565b613cc69190616321565b90508015610d7b5760335460408051636e457afb60e11b81529051613d5d926001600160a01b03169163dc8af5f6916004808301926020929190829003018186803b158015613d1457600080fd5b505afa158015613d28573d6000803e3d6000fd5b505050506040513d601f19601f82011682018060405250810190613d4c9190616114565b6001600160a01b0384169083614bf6565b6001600160a01b038216600081815260d76020526040908190205490516370a0823160e01b81523060048201529091906370a082319060240160206040518083038186803b158015613dae57600080fd5b505afa158015613dc2573d6000803e3d6000fd5b505050506040513d601f19601f82011682018060405250810190613de69190616385565b1015610d7b57610d7b6161f0565b6001600160a01b038316613e565760405162461bcd60e51b8152602060048201526024808201527f45524332303a20617070726f76652066726f6d20746865207a65726f206164646044820152637265737360e01b606482015260840161073a565b6001600160a01b038216613eb75760405162461bcd60e51b815260206004820152602260248201527f45524332303a20617070726f766520746f20746865207a65726f206164647265604482015261737360f01b606482015260840161073a565b6001600160a01b0383811660008181526035602090815260408083209487168084529482529182902085905590518481527f8c5be1e5ebec7d5bd14f71427d1e84f3dd0314c0f7b2291e5b200ac8c7c3b925910160405180910390a3505050565b600054610100900460ff16613f3f5760405162461bcd60e51b815260040161073a906165f3565b6001600160a01b038116613f8c5760405162461bcd60e51b81526020600482015260146024820152736d61696e206973207a65726f206164647265737360601b604482015260640161073a565b603380546001600160a01b0319166001600160a01b0392909216919091179055565b600054610100900460ff16613fd55760405162461bcd60e51b815260040161073a906165f3565b610d7b8282615375565b600054610100900460ff166140065760405162461bcd60e51b815260040161073a906165f3565b611d9081604051806040016040528060018152602001603160f81b8152506153c3565b60006140358484613a23565b9050600019811461409d57818110156140905760405162461bcd60e51b815260206004820152601d60248201527f45524332303a20696e73756666696369656e7420616c6c6f77616e6365000000604482015260640161073a565b61409d8484848403613df4565b50505050565b6001600160a01b0383166141075760405162461bcd60e51b815260206004820152602560248201527f45524332303a207472616e736665722066726f6d20746865207a65726f206164604482015264647265737360d81b606482015260840161073a565b6001600160a01b0382166141695760405162461bcd60e51b815260206004820152602360248201527f45524332303a207472616e7366657220746f20746865207a65726f206164647260448201526265737360e81b606482015260840161073a565b614174838383615404565b6001600160a01b038316600090815260346020526040902054818110156141ec5760405162461bcd60e51b815260206004820152602660248201527f45524332303a207472616e7366657220616d6f756e7420657863656564732062604482015265616c616e636560d01b606482015260840161073a565b6001600160a01b0380851660008181526034602052604080822086860390559286168082529083902080548601905591517fddf252ad1be2c89b69c2b068fc378daa952ba7f163c4a11628f55a4df523b3ef9061424c9086815260200190565b60405180910390a361409d565b6001600160a01b038116600090815260d06020526040812081805b82548110156142de576000838281548110614291576142916161da565b906000526020600020906007020190508060060160189054906101000a900460ff166142bd57506142de565b826142c781616180565b9350505080806142d690616180565b915050614274565b509392505050565b6001600160a01b038116600090815260d0602052604081208161430884614259565b9050805b82548110156142de576000838281548110614329576143296161da565b906000526020600020906007020190508060060160189054906101000a900460ff1661435d578261435981616180565b9350505b508061436881616180565b91505061430c565b600080603360009054906101000a90046001600160a01b03166001600160a01b0316632f2439b16040518163ffffffff1660e01b815260040160206040518083038186803b1580156143c157600080fd5b505afa1580156143d5573d6000803e3d6000fd5b505050506040513d601f19601f820116820180604052508101906143f99190616114565b6001600160a01b031663affed0e06040518163ffffffff1660e01b815260040160206040518083038186803b15801561443157600080fd5b505afa158015614445573d6000803e3d6000fd5b505050506040513d601f19601f820116820180604052508101906144699190616524565b90506000808080805b6001600160a01b038816600090815260d06020526040902054811015614599576001600160a01b038816600090815260d0602052604081208054839081106144bc576144bc6161da565b906000526020600020906007020190508060060160189054906101000a900460ff161580156144f757508665ffffffffffff16816005015414155b1561458657600181015461450b9086616168565b945085614516578193505b6001955060005b6003820154811015614562578154600483018054614550926001600160a01b03169190849081106114de576114de6161da565b8061455a81616180565b91505061451d565b5060068101805460ff60c01b1916600160c01b179055614583826001616168565b92505b508061459181616180565b915050614472565b5083156146c3578082886001600160a01b03167f8d02f355336bad9d0d69b8a6a40a439e836b5ef070029ea58da8e474b237b5f2866040516145dd91815260200190565b60405180910390a46001600160a01b038716600090815260d0602052604081205461460a9060019061619b565b90505b600081126146c1576001600160a01b038816600090815260d06020526040902080548061463c5761463c616206565b60008281526020812060076000199093019283020180546001600160a01b0319168155600181018290556002810180546001600160c01b0319169055906146866003830182615b6b565b614694600483016000615b6b565b506000600582015560060180546001600160c81b03191690559055806146b98161621c565b91505061460d565b505b509195945050505050565b6001600160a01b038216600090815260d0602052604081208054829190849081106146fb576146fb6161da565b906000526020600020906007020190506000603360009054906101000a90046001600160a01b03166001600160a01b0316632f2439b16040518163ffffffff1660e01b815260040160206040518083038186803b15801561475b57600080fd5b505afa15801561476f573d6000803e3d6000fd5b505050506040513d601f19601f820116820180604052508101906147939190616114565b6001600160a01b031663affed0e06040518163ffffffff1660e01b815260040160206040518083038186803b1580156147cb57600080fd5b505afa1580156147df573d6000803e3d6000fd5b505050506040513d601f19601f820116820180604052508101906148039190616524565b905061482861481143614f31565b60068401546001600160c01b039182169116111590565b6148695760405162461bcd60e51b815260206004820152601260248201527169737375616e6365206e6f7420726561647960701b604482015260640161073a565b8065ffffffffffff16826005015414614884576148846161f0565b6006820154600160c01b900460ff16614afb5760005b60038301548110156149dd578260040181815481106148bb576148bb6161da565b906000526020600020015460d760008560030184815481106148df576148df6161da565b60009182526020808320909101546001600160a01b0316835282019290925260400181208054909190614913908490616321565b909155505060335460408051636e457afb60e11b815290516149cb926001600160a01b03169163dc8af5f6916004808301926020929190829003018186803b15801561495e57600080fd5b505afa158015614972573d6000803e3d6000fd5b505050506040513d601f19601f820116820180604052508101906149969190616114565b8460040183815481106149ab576149ab6161da565b90600052602060002001548560030184815481106114fe576114fe6161da565b806149d581616180565b91505061489a565b50815460018301546149f8916001600160a01b031690614c59565b600182015460d25460028401549194507f0b0ca69be72e0611a1f79eedf91aece404ff14cb8fcfd0c997a72b68d4fdd478916001600160c01b0391821691614a429183911661545d565b604080516001600160c01b0393841681529290911660208301520160405180910390a1600282015460d254614a83916001600160c01b03918216911661545d565b60d280546001600160c01b039283166001600160c01b031990911617905560068301805460ff60c01b1916600160c01b179055600283015460018401546040519190921691906001600160a01b038816907f641331aa871befdfc51e26035df6c966f4b582230d04abe254f92f16f4b8184b90600090a45b505092915050565b6000610da97f8b73c3c69bb8fe3d512ecc4cf759cc79239f7b179b0ffacaa9a75d522b39400f614b3260665490565b6067546040805160208101859052908101839052606081018290524660808201523060a082015260009060c0016040516020818303038152906040528051906020012090509392505050565b6060600080856001600160a01b031685604051614b9b919061663e565b600060405180830381855af49150503d8060008114614bd6576040519150601f19603f3d011682016040523d82523d6000602084013e614bdb565b606091505b5091509150614bec86838387615469565b9695505050505050565b6040516001600160a01b0383166024820152604481018290526110eb90849063a9059cbb60e01b906064015b60408051601f198184030181529190526020810180516001600160e01b03166001600160e01b0319909316929092179091526154df565b6001600160a01b038216614caf5760405162461bcd60e51b815260206004820152601f60248201527f45524332303a206d696e7420746f20746865207a65726f206164647265737300604482015260640161073a565b614cbb60008383615404565b8060366000828254614ccd9190616168565b90915550506001600160a01b0382166000818152603460209081526040808320805486019055518481527fddf252ad1be2c89b69c2b068fc378daa952ba7f163c4a11628f55a4df523b3ef910160405180910390a35050565b6000614d3160365490565b905080614d3b5750565b60d2546000908290614d5e906001600160c01b0316670de0b6b3a764000061665a565b614d68919061668f565b9050600082614d78600182616321565b60d254614d96906001600160c01b0316670de0b6b3a764000061665a565b614da09190616168565b614daa919061668f565b90506001600160c01b038211801590614dca57506001600160c01b038111155b8015614dfd5750614de7633b9aca00670de0b6b3a76400006166a3565b6001600160c01b0316826001600160c01b031610155b8015614e305750614e1a670de0b6b3a7640000633b9aca0061623a565b6001600160c01b0316816001600160c01b031611155b6110eb5760405162461bcd60e51b815260206004820152601460248201527342552072617465206f7574206f662072616e676560601b604482015260640161073a565b60018201546000908190670de0b6b3a764000090614e9a906001600160c01b03168561665a565b614ea4919061668f565b90508084600001541115614eb6575082545b6001840154600090614ed790600160c01b900465ffffffffffff16436166c9565b905061012c614eee65ffffffffffff83168461665a565b614ef8919061668f565b8560020154614f079190616168565b92506000848311614f185782614f1a565b845b905080841115614f28578093505b50505092915050565b600061069b614f48670de0b6b3a76400008461665a565b6155b1565b6001600160a01b038216614fad5760405162461bcd60e51b815260206004820152602160248201527f45524332303a206275726e2066726f6d20746865207a65726f206164647265736044820152607360f81b606482015260840161073a565b614fb982600083615404565b6001600160a01b0382166000908152603460205260409020548181101561502d5760405162461bcd60e51b815260206004820152602260248201527f45524332303a206275726e20616d6f756e7420657863656564732062616c616e604482015261636560f01b606482015260840161073a565b6001600160a01b03831660008181526034602090815260408083208686039055603680548790039055518581529192917fddf252ad1be2c89b69c2b068fc378daa952ba7f163c4a11628f55a4df523b3ef910160405180910390a3505050565b60006108d5838360006155df565b60006150aa84848460006156a5565b949350505050565b6040516001600160a01b038085166024830152831660448201526064810182905261409d9085906323b872dd60e01b90608401614c22565b6000806151146151036150fe600143616321565b614f31565b60d1546001600160c01b03166156c8565b43600090815260cd602052604090205490915061517f5761516e615142670de0b6b3a764000061271061623a565b6001600160c01b031661516961515760365490565b60d3546001600160c01b031690615341565b6156e9565b43600090815260cd60205260409020555b43600090815260cd60205260409020546151b76151a7670de0b6b3a7640000868460026156a5565b6001600160c01b0384169061545d565b60d180546001600160c01b0319166001600160c01b03929092169182179055949350505050565b60006108d5836001600160a01b0384166156f8565b6001600160a01b0381166000908152609a602052604090208054600181018255905b50919050565b600061069b615228614b03565b8360405161190160f01b6020820152602281018390526042810182905260009060620160405160208183030381529060405280519060200120905092915050565b60006108d583836000615747565b8254158015615291575060018301546001600160c01b0316155b1561529b57505050565b60006152a78484614e73565b9050808211156152f95760405162461bcd60e51b815260206004820152601f60248201527f726564656d7074696f6e206261747465727920696e73756666696369656e7400604482015260640161073a565b60018401805465ffffffffffff60c01b1916600160c01b4365ffffffffffff16021790556153278282616321565b846002018190555050505050565b60006108d582846166f0565b60006108d56001600160c01b03841683670de0b6b3a7640000615760565b600081831061536e57816108d5565b5090919050565b600054610100900460ff1661539c5760405162461bcd60e51b815260040161073a906165f3565b81516153af906037906020850190615c19565b5080516110eb906038906020840190615c19565b600054610100900460ff166153ea5760405162461bcd60e51b815260040161073a906165f3565b815160209283012081519190920120606691909155606755565b6001600160a01b0382163014156110eb5760405162461bcd60e51b815260206004820152601760248201527f52546f6b656e207472616e7366657220746f2073656c66000000000000000000604482015260640161073a565b60006108d58284616710565b606083156154d55782516154ce576001600160a01b0385163b6154ce5760405162461bcd60e51b815260206004820152601d60248201527f416464726573733a2063616c6c20746f206e6f6e2d636f6e7472616374000000604482015260640161073a565b50816150aa565b6150aa8383615843565b6000615534826040518060400160405280602081526020017f5361666545524332303a206c6f772d6c6576656c2063616c6c206661696c6564815250856001600160a01b031661586d9092919063ffffffff16565b8051909150156110eb578080602001905181019061555291906160b7565b6110eb5760405162461bcd60e51b815260206004820152602a60248201527f5361666545524332303a204552433230206f7065726174696f6e20646964206e6044820152691bdd081cdd58d8d9595960b21b606482015260840161073a565b60006001600160c01b038211156155db5760405163f44398f560e01b815260040160405180910390fd5b5090565b6000836155ee575060006108d5565b605f198360000b1361562757600282600281111561560e5761560e6160fe565b1461561a57600061561d565b60015b60ff1690506108d5565b8260000b60281361564b5760405163f44398f560e01b815260040160405180910390fd5b61565660128461673b565b925060006156668460000b61587c565b61567190600a61685a565b90506000808560000b12156156905761568b868386615894565b61569a565b61569a828761665a565b9050614bec816155b1565b60006156bf614f48866001600160c01b0316868686615934565b95945050505050565b6000816001600160c01b0316836001600160c01b03161161536e57816108d5565b600081831161536e57816108d5565b600081815260018301602052604081205461573f5750815460018181018455600084815260208082209093018490558454848252828601909352604090209190915561069b565b50600061069b565b60006150aa614f48856001600160c01b03168585615894565b600080600061576f86866159e3565b915091508382106157935760405163f44398f560e01b815260040160405180910390fd5b600084806157a3576157a3616679565b8688099050818111156157b7576001830392505b9081900390600085900385168086816157d2576157d2616679565b0495508083816157e4576157e4616679565b0492508081600003816157f9576157f9616679565b046001019390930291909101600285810380870282030280870282030280870282030280870282030280870282030280870282030295860290039094029390930295945050505050565b8151156158535781518083602001fd5b8060405162461bcd60e51b815260040161073a9190615ccd565b60606150aa8484600085615a10565b600080821261588b578161069b565b61069b82616866565b6000806158a1848661668f565b905060008360028111156158b7576158b76160fe565b14156158c45790506108d5565b60018360028111156158d8576158d86160fe565b14156159185760026158eb600186616321565b6158f5919061668f565b6158ff8587616883565b1115615913578061590f81616180565b9150505b6150aa565b60006159248587616883565b11156150aa5780614bec81616180565b600080615942868686615760565b90506000836002811115615958576159586160fe565b14156159655790506150aa565b6000848061597557615975616679565b8688099050600284600281111561598e5761598e6160fe565b14156159ad5780156159a8576159a5600183616168565b91505b6159d9565b60026159ba600187616321565b6159c4919061668f565b8111156159d9576159d6600183616168565b91505b5095945050505050565b6000808060001984860990508385029150818103925081811015615a08576001830392505b509250929050565b606082471015615a715760405162461bcd60e51b815260206004820152602660248201527f416464726573733a20696e73756666696369656e742062616c616e636520666f6044820152651c8818d85b1b60d21b606482015260840161073a565b600080866001600160a01b03168587604051615a8d919061663e565b60006040518083038185875af1925050503d8060008114615aca576040519150601f19603f3d011682016040523d82523d6000602084013e615acf565b606091505b5091509150615ae087838387615469565b979650505050505050565b828054615af790616082565b90600052602060002090601f016020900481019282615b195760008555615b5f565b82601f10615b325782800160ff19823516178555615b5f565b82800160010185558215615b5f579182015b82811115615b5f578235825591602001919060010190615b44565b506155db929150615c8c565b5080546000825590600052602060002090810190611d909190615c8c565b828054828255906000526020600020908101928215615b5f579160200282015b82811115615b5f57825182546001600160a01b0319166001600160a01b03909116178255602090920191600190910190615ba9565b828054828255906000526020600020908101928215615b5f579160200282015b82811115615b5f578251825591602001919060010190615bfe565b828054615c2590616082565b90600052602060002090601f016020900481019282615c475760008555615b5f565b82601f10615c6057805160ff1916838001178555615b5f565b82800160010185558215615b5f5791820182811115615b5f578251825591602001919060010190615bfe565b5b808211156155db5760008155600101615c8d565b60005b83811015615cbc578181015183820152602001615ca4565b8381111561409d5750506000910152565b6020815260008251806020840152615cec816040850160208701615ca1565b601f01601f19169190910160400192915050565b6001600160a01b0381168114611d9057600080fd5b60008060408385031215615d2857600080fd5b8235615d3381615d00565b946020939093013593505050565b634e487b7160e01b600052604160045260246000fd5b604051601f8201601f1916810167ffffffffffffffff81118282101715615d8057615d80615d41565b604052919050565b600082601f830112615d9957600080fd5b813567ffffffffffffffff811115615db357615db3615d41565b615dc6601f8201601f1916602001615d57565b818152846020838601011115615ddb57600080fd5b816020850160208301376000918101602001919091529392505050565b80356001600160c01b0381168114615e0f57600080fd5b919050565b60008060008060008060008060e0898b031215615e3057600080fd5b8835615e3b81615d00565b9750602089013567ffffffffffffffff80821115615e5857600080fd5b615e648c838d01615d88565b985060408b0135915080821115615e7a57600080fd5b615e868c838d01615d88565b975060608b0135915080821115615e9c57600080fd5b818b0191508b601f830112615eb057600080fd5b813581811115615ebf57600080fd5b8c6020828501011115615ed157600080fd5b602083019750809650505050615ee960808a01615df8565b9250615ef760a08a01615df8565b915060c089013590509295985092959890939650565b600080600060608486031215615f2257600080fd5b8335615f2d81615d00565b92506020840135615f3d81615d00565b929592945050506040919091013590565b8015158114611d9057600080fd5b60008060408385031215615f6f57600080fd5b823591506020830135615f8181615f4e565b809150509250929050565b600060208284031215615f9e57600080fd5b5035919050565b600060208284031215615fb757600080fd5b6108d582615df8565b600060208284031215615fd257600080fd5b81356108d581615d00565b600080600080600080600060e0888a031215615ff857600080fd5b873561600381615d00565b9650602088013561601381615d00565b95506040880135945060608801359350608088013560ff8116811461603757600080fd5b9699959850939692959460a0840135945060c09093013592915050565b6000806040838503121561606757600080fd5b823561607281615d00565b91506020830135615f8181615d00565b600181811c9082168061609657607f821691505b6020821081141561521557634e487b7160e01b600052602260045260246000fd5b6000602082840312156160c957600080fd5b81516108d581615f4e565b60208082526010908201526f3830bab9b2b21037b910333937bd32b760811b604082015260600190565b634e487b7160e01b600052602160045260246000fd5b60006020828403121561612657600080fd5b81516108d581615d00565b60006020828403121561614357600080fd5b8151600381106108d557600080fd5b634e487b7160e01b600052601160045260246000fd5b6000821982111561617b5761617b616152565b500190565b600060001982141561619457616194616152565b5060010190565b60008083128015600160ff1b8501841216156161b9576161b9616152565b6001600160ff1b03840183138116156161d4576161d4616152565b50500390565b634e487b7160e01b600052603260045260246000fd5b634e487b7160e01b600052600160045260246000fd5b634e487b7160e01b600052603160045260246000fd5b6000600160ff1b82141561623257616232616152565b506000190190565b60006001600160c01b038281168482168115158284048211161561626057616260616152565b02949350505050565b600067ffffffffffffffff82111561628357616283615d41565b5060051b60200190565b600060208083850312156162a057600080fd5b825167ffffffffffffffff8111156162b757600080fd5b8301601f810185136162c857600080fd5b80516162db6162d682616269565b615d57565b81815260059190911b820183019083810190878311156162fa57600080fd5b928401925b82841015615ae057835161631281615d00565b825292840192908401906162ff565b60008282101561633357616333616152565b500390565b805160208083015191908110156152155760001960209190910360031b1b16919050565b6020808252600f908201526e676f7665726e616e6365206f6e6c7960881b604082015260600190565b60006020828403121561639757600080fd5b5051919050565b600081810b607f198114156163b5576163b5616152565b60000392915050565b6001600160c01b038316815260408101600383106163ec57634e487b7160e01b600052602160045260246000fd5b8260208301529392505050565b600082601f83011261640a57600080fd5b8151602061641a6162d683616269565b82815260059290921b8401810191818101908684111561643957600080fd5b8286015b84811015616454578051835291830191830161643d565b509695505050505050565b6000806040838503121561647257600080fd5b825167ffffffffffffffff8082111561648a57600080fd5b818501915085601f83011261649e57600080fd5b815160206164ae6162d683616269565b82815260059290921b840181019181810190898411156164cd57600080fd5b948201945b838610156164f45785516164e581615d00565b825294820194908201906164d2565b9188015191965090935050508082111561650d57600080fd5b5061651a858286016163f9565b9150509250929050565b60006020828403121561653657600080fd5b815165ffffffffffff811681146108d557600080fd5b6001600160c01b0385168152608060208083018290528551918301829052600091868201919060a0850190845b8181101561659e5784516001600160a01b031683529383019391830191600101616579565b50508481036040860152865180825290820192508187019060005b818110156165d5578251855293830193918301916001016165b9565b5050506001600160c01b038516606085015250905095945050505050565b6020808252602b908201527f496e697469616c697a61626c653a20636f6e7472616374206973206e6f74206960408201526a6e697469616c697a696e6760a81b606082015260800190565b60008251616650818460208701615ca1565b9190910192915050565b600081600019048311821515161561667457616674616152565b500290565b634e487b7160e01b600052601260045260246000fd5b60008261669e5761669e616679565b500490565b60006001600160c01b03838116806166bd576166bd616679565b92169190910492915050565b600065ffffffffffff838116908316818110156166e8576166e8616152565b039392505050565b60006001600160c01b03838116908316818110156166e8576166e8616152565b60006001600160c01b0382811684821680830382111561673257616732616152565b01949350505050565b60008160000b8360000b6000821282607f0382138115161561675f5761675f616152565b82607f1903821281161561677557616775616152565b50019392505050565b600181815b80851115615a0857816000190482111561679f5761679f616152565b808516156167ac57918102915b93841c9390800290616783565b6000826167c85750600161069b565b816167d55750600061069b565b81600181146167eb57600281146167f557616811565b600191505061069b565b60ff84111561680657616806616152565b50506001821b61069b565b5060208310610133831016604e8410600b8410161715616834575081810a61069b565b61683e838361677e565b806000190482111561685257616852616152565b029392505050565b60006108d583836167b9565b6000600160ff1b82141561687c5761687c616152565b5060000390565b60008261689257616892616679565b50069056fea2646970667358221220ff010c55bf7d57856854b2b7ceebeeb2c92e8886d7703e830df3a27a5f94529264736f6c63430008090033",
  "linkReferences": {
    "contracts/reserve/libraries/Permit.sol": {
      "PermitLib": [
        {
          "length": 20,
          "start": 12629
        }
      ]
    }
  },
  "deployedLinkReferences": {
    "contracts/reserve/libraries/Permit.sol": {
      "PermitLib": [
        {
          "length": 20,
          "start": 12596
        }
      ]
    }
  }
}