{
  "_format": "hh-sol-artifact-1",
  "contractName": "MockAave",
  "sourceName": "contracts/mocks/MockAave.sol",
  "abi": [
    {
      "inputs": [],
      "stateMutability": "nonpayable",
      "type": "constructor"
    },
    {
      "inputs": [
        {
          "internalType": "address",
          "name": "asset",
          "type": "address"
        },
        {
          "internalType": "address",
          "name": "who",
          "type": "address"
        }
      ],
      "name": "balanceOf",
      "outputs": [
        {
          "internalType": "uint256",
          "name": "",
          "type": "uint256"
        }
      ],
      "stateMutability": "view",
      "type": "function"
    },
    {
      "inputs": [
        {
          "internalType": "address",
          "name": "asset",
          "type": "address"
        },
        {
          "internalType": "uint256",
          "name": "amount",
          "type": "uint256"
        },
        {
          "internalType": "address",
          "name": "onBehalfOf",
          "type": "address"
        },
        {
          "internalType": "uint16",
          "name": "referralCode",
          "type": "uint16"
        }
      ],
      "name": "deposit",
      "outputs": [],
      "stateMutability": "nonpayable",
      "type": "function"
    },
    {
      "inputs": [
        {
          "internalType": "address",
          "name": "asset",
          "type": "address"
        },
        {
          "internalType": "uint256",
          "name": "amount",
          "type": "uint256"
        },
        {
          "internalType": "address",
          "name": "to",
          "type": "address"
        }
      ],
      "name": "withdraw",
      "outputs": [],
      "stateMutability": "nonpayable",
      "type": "function"
    }
  ],
  "bytecode": "0x608060405234801561001057600080fd5b506104d7806100206000396000f3fe608060405234801561001057600080fd5b50600436106100415760003560e01c806369328dec14610046578063e8eda9df1461005b578063f7888aec1461006e575b600080fd5b610059610054366004610355565b6100b7565b005b610059610069366004610391565b610270565b6100a561007c3660046103e7565b6001600160a01b0391821660009081526020818152604080832093909416825291909152205490565b60405190815260200160405180910390f35b6040516370a0823160e01b815230600482015282906001600160a01b038516906370a082319060240160206040518083038186803b1580156100f857600080fd5b505afa15801561010c573d6000803e3d6000fd5b505050506040513d601f19601f82011682018060405250810190610130919061041a565b10156101785760405162461bcd60e51b8152602060048201526013602482015272125b9cdd59999a58da595b9d08185b5bdd5b9d606a1b604482015260640160405180910390fd5b60405163a9059cbb60e01b81526001600160a01b0382811660048301526024820184905284169063a9059cbb90604401602060405180830381600087803b1580156101c257600080fd5b505af11580156101d6573d6000803e3d6000fd5b505050506040513d601f19601f820116820180604052508101906101fa9190610433565b506001600160a01b0383166000908152602081815260408083203384529091528120805484929061022c908490610472565b90915550506001600160a01b0380841660009081526020818152604080832093851683529290529081208054849290610266908490610489565b9091555050505050565b6040516323b872dd60e01b81526001600160a01b038381166004830152306024830152604482018590528516906323b872dd90606401602060405180830381600087803b1580156102c057600080fd5b505af11580156102d4573d6000803e3d6000fd5b505050506040513d601f19601f820116820180604052508101906102f89190610433565b506001600160a01b038085166000908152602081815260408083209386168352929052908120805485929061032e908490610489565b909155505050505050565b80356001600160a01b038116811461035057600080fd5b919050565b60008060006060848603121561036a57600080fd5b61037384610339565b92506020840135915061038860408501610339565b90509250925092565b600080600080608085870312156103a757600080fd5b6103b085610339565b9350602085013592506103c560408601610339565b9150606085013561ffff811681146103dc57600080fd5b939692955090935050565b600080604083850312156103fa57600080fd5b61040383610339565b915061041160208401610339565b90509250929050565b60006020828403121561042c57600080fd5b5051919050565b60006020828403121561044557600080fd5b8151801515811461045557600080fd5b9392505050565b634e487b7160e01b600052601160045260246000fd5b6000828210156104845761048461045c565b500390565b6000821982111561049c5761049c61045c565b50019056fea2646970667358221220ffba248c738b42a96c2eae9f6e80314685d41e49c2a6bef6c2410f06610567d464736f6c63430008090033",
  "linkReferences": {},
  "deployedLinkReferences": {}
}