{
  "_format": "hh-sol-artifact-1",
  "contractName": "FurnaceP0",
  "sourceName": "contracts/reserve/p0/Furnace.sol",
  "abi": [
    {
      "inputs": [],
      "name": "UIntOutOfBounds",
      "type": "error"
    },
    {
      "anonymous": false,
      "inputs": [
        {
          "indexed": false,
          "internalType": "uint8",
          "name": "version",
          "type": "uint8"
        }
      ],
      "name": "Initialized",
      "type": "event"
    },
    {
      "anonymous": false,
      "inputs": [
        {
          "indexed": true,
          "internalType": "uint48",
          "name": "oldPeriod",
          "type": "uint48"
        },
        {
          "indexed": true,
          "internalType": "uint48",
          "name": "newPeriod",
          "type": "uint48"
        }
      ],
      "name": "PeriodSet",
      "type": "event"
    },
    {
      "anonymous": false,
      "inputs": [
        {
          "indexed": true,
          "internalType": "uint192",
          "name": "oldRatio",
          "type": "uint192"
        },
        {
          "indexed": true,
          "internalType": "uint192",
          "name": "newRatio",
          "type": "uint192"
        }
      ],
      "name": "RatioSet",
      "type": "event"
    },
    {
      "inputs": [],
      "name": "MAX_PERIOD",
      "outputs": [
        {
          "internalType": "uint48",
          "name": "",
          "type": "uint48"
        }
      ],
      "stateMutability": "view",
      "type": "function"
    },
    {
      "inputs": [],
      "name": "MAX_RATIO",
      "outputs": [
        {
          "internalType": "uint192",
          "name": "",
          "type": "uint192"
        }
      ],
      "stateMutability": "view",
      "type": "function"
    },
    {
      "inputs": [
        {
          "internalType": "contract IMain",
          "name": "main_",
          "type": "address"
        },
        {
          "internalType": "uint48",
          "name": "period_",
          "type": "uint48"
        },
        {
          "internalType": "uint192",
          "name": "ratio_",
          "type": "uint192"
        }
      ],
      "name": "init",
      "outputs": [],
      "stateMutability": "nonpayable",
      "type": "function"
    },
    {
      "inputs": [],
      "name": "lastPayout",
      "outputs": [
        {
          "internalType": "uint48",
          "name": "",
          "type": "uint48"
        }
      ],
      "stateMutability": "view",
      "type": "function"
    },
    {
      "inputs": [],
      "name": "lastPayoutBal",
      "outputs": [
        {
          "internalType": "uint256",
          "name": "",
          "type": "uint256"
        }
      ],
      "stateMutability": "view",
      "type": "function"
    },
    {
      "inputs": [],
      "name": "main",
      "outputs": [
        {
          "internalType": "contract IMain",
          "name": "",
          "type": "address"
        }
      ],
      "stateMutability": "view",
      "type": "function"
    },
    {
      "inputs": [],
      "name": "melt",
      "outputs": [],
      "stateMutability": "nonpayable",
      "type": "function"
    },
    {
      "inputs": [],
      "name": "period",
      "outputs": [
        {
          "internalType": "uint48",
          "name": "",
          "type": "uint48"
        }
      ],
      "stateMutability": "view",
      "type": "function"
    },
    {
      "inputs": [],
      "name": "ratio",
      "outputs": [
        {
          "internalType": "uint192",
          "name": "",
          "type": "uint192"
        }
      ],
      "stateMutability": "view",
      "type": "function"
    },
    {
      "inputs": [
        {
          "internalType": "uint48",
          "name": "period_",
          "type": "uint48"
        }
      ],
      "name": "setPeriod",
      "outputs": [],
      "stateMutability": "nonpayable",
      "type": "function"
    },
    {
      "inputs": [
        {
          "internalType": "uint192",
          "name": "ratio_",
          "type": "uint192"
        }
      ],
      "name": "setRatio",
      "outputs": [],
      "stateMutability": "nonpayable",
      "type": "function"
    },
    {
      "inputs": [],
      "name": "version",
      "outputs": [
        {
          "internalType": "string",
          "name": "",
          "type": "string"
        }
      ],
      "stateMutability": "pure",
      "type": "function"
    }
  ],
  "bytecode": "0x608060405234801561001057600080fd5b50611213806100206000396000f3fe608060405234801561001057600080fd5b50600436106100b45760003560e01c806371ca337d1161007157806371ca337d1461015357806391163fec14610166578063b9db102a14610179578063c810b7fe146101a2578063dffeadd0146101ad578063ef78d4fd146101d857600080fd5b80632212965c146100b95780632b8869fb146100d55780634f533b23146100ea5780635220f510146100fd57806354fd4d5014610105578063630eb8ab1461012c575b600080fd5b6100c260365481565b6040519081526020015b60405180910390f35b6100e86100e3366004610ee0565b6101f1565b005b6100e86100f8366004610f12565b6103b7565b6100e861055a565b60408051808201825260058152640312e322e360dc1b602082015290516100cc9190610f2d565b61013b670de0b6b3a764000081565b6040516001600160c01b0390911681526020016100cc565b60345461013b906001600160c01b031681565b6100e8610174366004610f9a565b6108c5565b60355461018b9065ffffffffffff1681565b60405165ffffffffffff90911681526020016100cc565b61018b6301e1338081565b6033546101c0906001600160a01b031681565b6040516001600160a01b0390911681526020016100cc565b60345461018b90600160c01b900465ffffffffffff1681565b60335460408051808201909152600581526427aba722a960d91b60208201526001600160a01b03909116906391d148549061022b90610fdf565b336040516001600160e01b031960e085901b16815260048101929092526001600160a01b0316602482015260440160206040518083038186803b15801561027157600080fd5b505afa158015610285573d6000803e3d6000fd5b505050506040513d601f19601f820116820180604052508101906102a99190611006565b6102ec5760405162461bcd60e51b815260206004820152600f60248201526e676f7665726e616e6365206f6e6c7960881b60448201526064015b60405180910390fd5b60008165ffffffffffff1611801561031057506301e1338065ffffffffffff821611155b61034d5760405162461bcd60e51b815260206004820152600e60248201526d1a5b9d985b1a59081c195c9a5bd960921b60448201526064016102e3565b60345460405165ffffffffffff80841692600160c01b900416907fbe247d2a99b68d117449399fce980543968aadb8ebfc20d43fed0b4a9529dc7b90600090a36034805465ffffffffffff909216600160c01b0265ffffffffffff60c01b19909216919091179055565b60335460408051808201909152600581526427aba722a960d91b60208201526001600160a01b03909116906391d14854906103f190610fdf565b336040516001600160e01b031960e085901b16815260048101929092526001600160a01b0316602482015260440160206040518083038186803b15801561043757600080fd5b505afa15801561044b573d6000803e3d6000fd5b505050506040513d601f19601f8201168201806040525081019061046f9190611006565b6104ad5760405162461bcd60e51b815260206004820152600f60248201526e676f7665726e616e6365206f6e6c7960881b60448201526064016102e3565b670de0b6b3a76400006001600160c01b03821611156104fe5760405162461bcd60e51b815260206004820152600d60248201526c696e76616c696420726174696f60981b60448201526064016102e3565b6034546040516001600160c01b038084169216907fe4370d9c0bc402ac3265a919b985d9e114b75512ced35b436883c18c84284ccb90600090a3603480546001600160c01b0319166001600160c01b0392909216919091179055565b603360009054906101000a90046001600160a01b03166001600160a01b031663f17063756040518163ffffffff1660e01b815260040160206040518083038186803b1580156105a857600080fd5b505afa1580156105bc573d6000803e3d6000fd5b505050506040513d601f19601f820116820180604052508101906105e09190611006565b156106205760405162461bcd60e51b815260206004820152601060248201526f3830bab9b2b21037b910333937bd32b760811b60448201526064016102e3565b6034546035546106429165ffffffffffff600160c01b90910481169116611045565b67ffffffffffffffff164265ffffffffffff16101561065d57565b60345460355460009165ffffffffffff600160c01b909104811691610683911642611071565b61068d91906110ae565b6034549091506000906106da906106cb9084906106bc90670de0b6b3a7640000906001600160c01b0316610af9565b6001600160c01b031690610b0e565b670de0b6b3a764000090610af9565b90506000603360009054906101000a90046001600160a01b03166001600160a01b03166340c65f726040518163ffffffff1660e01b815260040160206040518083038186803b15801561072c57600080fd5b505afa158015610740573d6000803e3d6000fd5b505050506040513d601f19601f8201168201806040525081019061076491906110d3565b90506000610786603654846001600160c01b0316610c8f90919063ffffffff16565b6034549091506107a590600160c01b900465ffffffffffff16856110f0565b603580546000906107bf90849065ffffffffffff1661111e565b92506101000a81548165ffffffffffff021916908365ffffffffffff160217905550600081111561084557604051638c83ed3360e01b8152600481018290526001600160a01b03831690638c83ed3390602401600060405180830381600087803b15801561082c57600080fd5b505af1158015610840573d6000803e3d6000fd5b505050505b6040516370a0823160e01b81523060048201526001600160a01b038316906370a082319060240160206040518083038186803b15801561088457600080fd5b505afa158015610898573d6000803e3d6000fd5b505050506040513d601f19601f820116820180604052508101906108bc919061113f565b60365550505050565b600054610100900460ff16158080156108e55750600054600160ff909116105b806108ff5750303b1580156108ff575060005460ff166001145b6109625760405162461bcd60e51b815260206004820152602e60248201527f496e697469616c697a61626c653a20636f6e747261637420697320616c72656160448201526d191e481a5b9a5d1a585b1a5e995960921b60648201526084016102e3565b6000805460ff191660011790558015610985576000805461ff0019166101001790555b61098e84610cad565b610997836101f1565b6109a0826103b7565b6035805465ffffffffffff19164265ffffffffffff16179055604080516320632fb960e11b815290516001600160a01b038616916340c65f72916004808301926020929190829003018186803b1580156109f957600080fd5b505afa158015610a0d573d6000803e3d6000fd5b505050506040513d601f19601f82011682018060405250810190610a3191906110d3565b6040516370a0823160e01b81523060048201526001600160a01b0391909116906370a082319060240160206040518083038186803b158015610a7257600080fd5b505afa158015610a86573d6000803e3d6000fd5b505050506040513d601f19601f82011682018060405250810190610aaa919061113f565b6036558015610af3576000805461ff0019169055604051600181527f7f26b83ff96e1f2b6a682f133852f6798a09c465da95921460cefb38474024989060200160405180910390a15b50505050565b6000610b058284611158565b90505b92915050565b6000670de0b6b3a76400006001600160c01b0384161115610b2e57600080fd5b8165ffffffffffff1660011415610b46575081610b08565b6001600160c01b038316670de0b6b3a76400001480610b6b575065ffffffffffff8216155b15610b7f5750670de0b6b3a7640000610b08565b6000610b9c670de0b6b3a76400006001600160c01b038616611178565b90506ec097ce7bc90715b34b9f10000000005b60018085161415610bff576ec097ce7bc90715b34b9f1000000000610bd5600282611197565b6001600160801b0316610be88484611178565b610bf291906111b1565b610bfc91906111c9565b90505b60018465ffffffffffff1611610c1457610c6c565b60019390931c657fffffffffff16926ec097ce7bc90715b34b9f1000000000610c3e600282611197565b6001600160801b0316610c518480611178565b610c5b91906111b1565b610c6591906111c9565b9150610baf565b610c86610c81670de0b6b3a7640000836111c9565b610d87565b95945050505050565b6000610b056001600160c01b03841683670de0b6b3a7640000610db5565b600054610100900460ff16610d185760405162461bcd60e51b815260206004820152602b60248201527f496e697469616c697a61626c653a20636f6e7472616374206973206e6f74206960448201526a6e697469616c697a696e6760a81b60648201526084016102e3565b6001600160a01b038116610d655760405162461bcd60e51b81526020600482015260146024820152736d61696e206973207a65726f206164647265737360601b60448201526064016102e3565b603380546001600160a01b0319166001600160a01b0392909216919091179055565b60006001600160c01b03821115610db15760405163f44398f560e01b815260040160405180910390fd5b5090565b6000806000610dc48686610e98565b91509150838210610de85760405163f44398f560e01b815260040160405180910390fd5b60008480610df857610df8611098565b868809905081811115610e0c576001830392505b908190039060008590038516808681610e2757610e27611098565b049550808381610e3957610e39611098565b049250808160000381610e4e57610e4e611098565b046001019390930291909101600285810380870282030280870282030280870282030280870282030280870282030280870282030295860290039094029390930295945050505050565b6000808060001984860990508385029150818103925081811015610ebd576001830392505b509250929050565b803565ffffffffffff81168114610edb57600080fd5b919050565b600060208284031215610ef257600080fd5b610b0582610ec5565b80356001600160c01b0381168114610edb57600080fd5b600060208284031215610f2457600080fd5b610b0582610efb565b600060208083528351808285015260005b81811015610f5a57858101830151858201604001528201610f3e565b81811115610f6c576000604083870101525b50601f01601f1916929092016040019392505050565b6001600160a01b0381168114610f9757600080fd5b50565b600080600060608486031215610faf57600080fd5b8335610fba81610f82565b9250610fc860208501610ec5565b9150610fd660408501610efb565b90509250925092565b80516020808301519190811015611000576000198160200360031b1b821691505b50919050565b60006020828403121561101857600080fd5b8151801515811461102857600080fd5b9392505050565b634e487b7160e01b600052601160045260246000fd5b600067ffffffffffffffff8083168185168083038211156110685761106861102f565b01949350505050565b600065ffffffffffff838116908316818110156110905761109061102f565b039392505050565b634e487b7160e01b600052601260045260246000fd5b600065ffffffffffff808416806110c7576110c7611098565b92169190910492915050565b6000602082840312156110e557600080fd5b815161102881610f82565b600065ffffffffffff808316818516818304811182151516156111155761111561102f565b02949350505050565b600065ffffffffffff8083168185168083038211156110685761106861102f565b60006020828403121561115157600080fd5b5051919050565b60006001600160c01b03838116908316818110156110905761109061102f565b60008160001904831182151516156111925761119261102f565b500290565b60006001600160801b03808416806110c7576110c7611098565b600082198211156111c4576111c461102f565b500190565b6000826111d8576111d8611098565b50049056fea26469706673582212205c7b2c82ac5db99ca2e9aa09db4438777320ceaf94f079750297b94619c2864a64736f6c63430008090033",
  "linkReferences": {},
  "deployedLinkReferences": {}
}