{
  "_format": "hh-sol-artifact-1",
  "contractName": "CTokenMock",
  "sourceName": "contracts/reserve/plugins/mocks/CTokenMock.sol",
  "abi": [
    {
      "inputs": [
        {
          "internalType": "string",
          "name": "name",
          "type": "string"
        },
        {
          "internalType": "string",
          "name": "symbol",
          "type": "string"
        },
        {
          "internalType": "address",
          "name": "underlyingToken",
          "type": "address"
        }
      ],
      "stateMutability": "nonpayable",
      "type": "constructor"
    },
    {
      "inputs": [],
      "name": "UIntOutOfBounds",
      "type": "error"
    },
    {
      "anonymous": false,
      "inputs": [
        {
          "indexed": true,
          "internalType": "address",
          "name": "owner",
          "type": "address"
        },
        {
          "indexed": true,
          "internalType": "address",
          "name": "spender",
          "type": "address"
        },
        {
          "indexed": false,
          "internalType": "uint256",
          "name": "value",
          "type": "uint256"
        }
      ],
      "name": "Approval",
      "type": "event"
    },
    {
      "anonymous": false,
      "inputs": [
        {
          "indexed": true,
          "internalType": "address",
          "name": "from",
          "type": "address"
        },
        {
          "indexed": true,
          "internalType": "address",
          "name": "to",
          "type": "address"
        },
        {
          "indexed": false,
          "internalType": "uint256",
          "name": "value",
          "type": "uint256"
        }
      ],
      "name": "Transfer",
      "type": "event"
    },
    {
      "inputs": [
        {
          "internalType": "address",
          "name": "owner",
          "type": "address"
        },
        {
          "internalType": "address",
          "name": "spender",
          "type": "address"
        },
        {
          "internalType": "uint256",
          "name": "amount",
          "type": "uint256"
        }
      ],
      "name": "adminApprove",
      "outputs": [],
      "stateMutability": "nonpayable",
      "type": "function"
    },
    {
      "inputs": [
        {
          "internalType": "address",
          "name": "owner",
          "type": "address"
        },
        {
          "internalType": "address",
          "name": "spender",
          "type": "address"
        }
      ],
      "name": "allowance",
      "outputs": [
        {
          "internalType": "uint256",
          "name": "",
          "type": "uint256"
        }
      ],
      "stateMutability": "view",
      "type": "function"
    },
    {
      "inputs": [
        {
          "internalType": "address",
          "name": "spender",
          "type": "address"
        },
        {
          "internalType": "uint256",
          "name": "amount",
          "type": "uint256"
        }
      ],
      "name": "approve",
      "outputs": [
        {
          "internalType": "bool",
          "name": "",
          "type": "bool"
        }
      ],
      "stateMutability": "nonpayable",
      "type": "function"
    },
    {
      "inputs": [
        {
          "internalType": "address",
          "name": "account",
          "type": "address"
        }
      ],
      "name": "balanceOf",
      "outputs": [
        {
          "internalType": "uint256",
          "name": "",
          "type": "uint256"
        }
      ],
      "stateMutability": "view",
      "type": "function"
    },
    {
      "inputs": [
        {
          "internalType": "address",
          "name": "sender",
          "type": "address"
        },
        {
          "internalType": "uint256",
          "name": "amount",
          "type": "uint256"
        }
      ],
      "name": "burn",
      "outputs": [],
      "stateMutability": "nonpayable",
      "type": "function"
    },
    {
      "inputs": [],
      "name": "decimals",
      "outputs": [
        {
          "internalType": "uint8",
          "name": "",
          "type": "uint8"
        }
      ],
      "stateMutability": "pure",
      "type": "function"
    },
    {
      "inputs": [
        {
          "internalType": "address",
          "name": "spender",
          "type": "address"
        },
        {
          "internalType": "uint256",
          "name": "subtractedValue",
          "type": "uint256"
        }
      ],
      "name": "decreaseAllowance",
      "outputs": [
        {
          "internalType": "bool",
          "name": "",
          "type": "bool"
        }
      ],
      "stateMutability": "nonpayable",
      "type": "function"
    },
    {
      "inputs": [],
      "name": "exchangeRateCurrent",
      "outputs": [
        {
          "internalType": "uint256",
          "name": "",
          "type": "uint256"
        }
      ],
      "stateMutability": "nonpayable",
      "type": "function"
    },
    {
      "inputs": [],
      "name": "exchangeRateStored",
      "outputs": [
        {
          "internalType": "uint256",
          "name": "",
          "type": "uint256"
        }
      ],
      "stateMutability": "view",
      "type": "function"
    },
    {
      "inputs": [
        {
          "internalType": "address",
          "name": "spender",
          "type": "address"
        },
        {
          "internalType": "uint256",
          "name": "addedValue",
          "type": "uint256"
        }
      ],
      "name": "increaseAllowance",
      "outputs": [
        {
          "internalType": "bool",
          "name": "",
          "type": "bool"
        }
      ],
      "stateMutability": "nonpayable",
      "type": "function"
    },
    {
      "inputs": [
        {
          "internalType": "address",
          "name": "recipient",
          "type": "address"
        },
        {
          "internalType": "uint256",
          "name": "amount",
          "type": "uint256"
        }
      ],
      "name": "mint",
      "outputs": [],
      "stateMutability": "nonpayable",
      "type": "function"
    },
    {
      "inputs": [],
      "name": "name",
      "outputs": [
        {
          "internalType": "string",
          "name": "",
          "type": "string"
        }
      ],
      "stateMutability": "view",
      "type": "function"
    },
    {
      "inputs": [
        {
          "internalType": "uint192",
          "name": "fiatcoinRedemptionRate",
          "type": "uint192"
        }
      ],
      "name": "setExchangeRate",
      "outputs": [],
      "stateMutability": "nonpayable",
      "type": "function"
    },
    {
      "inputs": [],
      "name": "symbol",
      "outputs": [
        {
          "internalType": "string",
          "name": "",
          "type": "string"
        }
      ],
      "stateMutability": "view",
      "type": "function"
    },
    {
      "inputs": [],
      "name": "totalSupply",
      "outputs": [
        {
          "internalType": "uint256",
          "name": "",
          "type": "uint256"
        }
      ],
      "stateMutability": "view",
      "type": "function"
    },
    {
      "inputs": [
        {
          "internalType": "address",
          "name": "to",
          "type": "address"
        },
        {
          "internalType": "uint256",
          "name": "amount",
          "type": "uint256"
        }
      ],
      "name": "transfer",
      "outputs": [
        {
          "internalType": "bool",
          "name": "",
          "type": "bool"
        }
      ],
      "stateMutability": "nonpayable",
      "type": "function"
    },
    {
      "inputs": [
        {
          "internalType": "address",
          "name": "from",
          "type": "address"
        },
        {
          "internalType": "address",
          "name": "to",
          "type": "address"
        },
        {
          "internalType": "uint256",
          "name": "amount",
          "type": "uint256"
        }
      ],
      "name": "transferFrom",
      "outputs": [
        {
          "internalType": "bool",
          "name": "",
          "type": "bool"
        }
      ],
      "stateMutability": "nonpayable",
      "type": "function"
    },
    {
      "inputs": [],
      "name": "underlying",
      "outputs": [
        {
          "internalType": "address",
          "name": "",
          "type": "address"
        }
      ],
      "stateMutability": "view",
      "type": "function"
    }
  ],
  "bytecode": "0x60806040523480156200001157600080fd5b5060405162001d4238038062001d42833981016040819052620000349162000740565b82828181816003908051906020019062000050929190620005d8565b50805162000066906004906020840190620005d8565b5050600580546001600160a01b0319166001600160a01b038616179055506200009b9150670de0b6b3a76400009050620000a8565b6006555062000aac915050565b600080620000ba6002600119620001b1565b90506000600560009054906101000a90046001600160a01b03166001600160a01b031663313ce5676040518163ffffffff1660e01b815260040160206040518083038186803b1580156200010d57600080fd5b505afa15801562000122573d6000803e3d6000fd5b505050506040513d601f19601f82011682018060405250810190620001489190620007cd565b620001566008601262000808565b6200016291906200084f565b9050620001a9826200018c83876001600160c01b0316620001c960201b6200047c1790919060201c565b6001600160c01b0316620001d860201b6200048a1790919060201c565b949350505050565b6000620001c083838362000202565b90505b92915050565b6000620001c0838383620002ec565b6000620001c06001600160c01b038085169084166ec097ce7bc90715b34b9f1000000000620003a9565b6000836200021357506000620002e5565b605f198360000b13620002545760025b82600281111562000238576200023862000898565b146200024657600062000249565b60015b60ff169050620002e5565b8260000b602813620002795760405163f44398f560e01b815260040160405180910390fd5b620002866012846200084f565b925060006200029784820b6200049b565b620002a490600a620009a3565b90506000808560000b1215620002c757620002c1868386620004b7565b620002d3565b620002d38287620009b1565b9050620002e0816200057b565b925050505b9392505050565b60006001600160c01b0384166200030657506000620002e5565b603a198360000b136200031b57600262000223565b8260000b603a13620003405760405163f44398f560e01b815260040160405180910390fd5b60006200034f84820b6200049b565b6200035c90600a620009a3565b9050620003a060008560000b12156200038b57620003856001600160c01b0387168386620004b7565b6200057b565b62000385826001600160c01b038816620009b1565b95945050505050565b60008080620003b98686620005aa565b91509150838210620003de5760405163f44398f560e01b815260040160405180910390fd5b60008480620003f157620003f1620009d3565b86880990508181111562000406576001830392505b908190039060008590038516808681620004245762000424620009d3565b049550808381620004395762000439620009d3565b049250808160000381620004515762000451620009d3565b046001019390930291909101600285810380870282030280870282030280870282030280870282030280870282030280870282030295860290039094029390930295945050505050565b6000808212620004ac5781620001c3565b620001c382620009e9565b600080620004c6848662000a09565b90506000836002811115620004df57620004df62000898565b1415620004ee579050620002e5565b600183600281111562000505576200050562000898565b1415620005505760026200051b60018662000a20565b62000527919062000a09565b62000533858762000a3a565b11156200054a5780620005468162000a51565b9150505b620001a9565b60006200055e858762000a3a565b1115620001a95780620005718162000a51565b9695505050505050565b60006001600160c01b03821115620005a65760405163f44398f560e01b815260040160405180910390fd5b5090565b6000808060001984860990508385029150818103925081811015620005d0576001830392505b509250929050565b828054620005e69062000a6f565b90600052602060002090601f0160209004810192826200060a576000855562000655565b82601f106200062557805160ff191683800117855562000655565b8280016001018555821562000655579182015b828111156200065557825182559160200191906001019062000638565b50620005a69291505b80821115620005a657600081556001016200065e565b634e487b7160e01b600052604160045260246000fd5b600082601f8301126200069c57600080fd5b81516001600160401b0380821115620006b957620006b962000674565b604051601f8301601f19908116603f01168101908282118183101715620006e457620006e462000674565b816040528381526020925086838588010111156200070157600080fd5b600091505b8382101562000725578582018301518183018401529082019062000706565b83821115620005715760008385830101529695505050505050565b6000806000606084860312156200075657600080fd5b83516001600160401b03808211156200076e57600080fd5b6200077c878388016200068a565b945060208601519150808211156200079357600080fd5b50620007a2868287016200068a565b604086015190935090506001600160a01b0381168114620007c257600080fd5b809150509250925092565b600060208284031215620007e057600080fd5b815160ff81168114620002e557600080fd5b634e487b7160e01b600052601160045260246000fd5b600081810b83820b8281128015607f198301841216156200082d576200082d620007f2565b81607f018313811615620008455762000845620007f2565b5090039392505050565b60008160000b8360000b6000821282607f03821381151615620008765762000876620007f2565b82607f190382128116156200088f576200088f620007f2565b50019392505050565b634e487b7160e01b600052602160045260246000fd5b600181815b80851115620005d0578160001904821115620008d357620008d3620007f2565b80851615620008e157918102915b93841c9390800290620008b3565b6000826200090057506001620001c3565b816200090f57506000620001c3565b8160018114620009285760028114620009335762000953565b6001915050620001c3565b60ff841115620009475762000947620007f2565b50506001821b620001c3565b5060208310610133831016604e8410600b841016171562000978575081810a620001c3565b620009848383620008ae565b80600019048211156200099b576200099b620007f2565b029392505050565b6000620001c08383620008ef565b6000816000190483118215151615620009ce57620009ce620007f2565b500290565b634e487b7160e01b600052601260045260246000fd5b6000600160ff1b82141562000a025762000a02620007f2565b5060000390565b60008262000a1b5762000a1b620009d3565b500490565b60008282101562000a355762000a35620007f2565b500390565b60008262000a4c5762000a4c620009d3565b500690565b600060001982141562000a685762000a68620007f2565b5060010190565b600181811c9082168062000a8457607f821691505b6020821081141562000aa657634e487b7160e01b600052602260045260246000fd5b50919050565b6112868062000abc6000396000f3fe608060405234801561001057600080fd5b50600436106101165760003560e01c806370a08231116100a2578063a457c2d711610071578063a457c2d714610232578063a9059cbb14610245578063bd6d894d1461016e578063dd62ed3e14610258578063fcd6c1911461026b57600080fd5b806370a08231146101db57806391e3d3cb1461020457806395d89b41146102175780639dc29fac1461021f57600080fd5b806323b872dd116100e957806323b872dd14610176578063313ce56714610189578063395093511461019857806340c10f19146101ab5780636f307dc3146101c057600080fd5b806306fdde031461011b578063095ea7b31461013957806318160ddd1461015c578063182df0f51461016e575b600080fd5b61012361027e565b6040516101309190610e48565b60405180910390f35b61014c610147366004610eb9565b610310565b6040519015158152602001610130565b6002545b604051908152602001610130565b600654610160565b61014c610184366004610ee3565b61032a565b60405160088152602001610130565b61014c6101a6366004610eb9565b610350565b6101be6101b9366004610eb9565b610372565b005b6005546040516001600160a01b039091168152602001610130565b6101606101e9366004610f1f565b6001600160a01b031660009081526020819052604090205490565b6101be610212366004610f3a565b610380565b61012361038f565b6101be61022d366004610eb9565b61039e565b61014c610240366004610eb9565b6103a8565b61014c610253366004610eb9565b610433565b610160610266366004610f63565b610441565b6101be610279366004610ee3565b61046c565b60606003805461028d90610f96565b80601f01602080910402602001604051908101604052809291908181526020018280546102b990610f96565b80156103065780601f106102db57610100808354040283529160200191610306565b820191906000526020600020905b8154815290600101906020018083116102e957829003601f168201915b5050505050905090565b60003361031e8185856104b2565b60019150505b92915050565b6000336103388582856105d6565b610343858585610650565b60019150505b9392505050565b60003361031e8185856103638383610441565b61036d9190610fe7565b6104b2565b61037c82826107f4565b5050565b610389816108b3565b60065550565b60606004805461028d90610f96565b61037c8282610993565b600033816103b68286610441565b90508381101561041b5760405162461bcd60e51b815260206004820152602560248201527f45524332303a2064656372656173656420616c6c6f77616e63652062656c6f77604482015264207a65726f60d81b60648201526084015b60405180910390fd5b61042882868684036104b2565b506001949350505050565b60003361031e818585610650565b6001600160a01b03918216600090815260016020908152604080832093909416825291909152205490565b6104778383836104b2565b505050565b600061034983836000610ac5565b60006103496001600160c01b038085169084166ec097ce7bc90715b34b9f1000000000610b9a565b6001600160a01b0383166105145760405162461bcd60e51b8152602060048201526024808201527f45524332303a20617070726f76652066726f6d20746865207a65726f206164646044820152637265737360e01b6064820152608401610412565b6001600160a01b0382166105755760405162461bcd60e51b815260206004820152602260248201527f45524332303a20617070726f766520746f20746865207a65726f206164647265604482015261737360f01b6064820152608401610412565b6001600160a01b0383811660008181526001602090815260408083209487168084529482529182902085905590518481527f8c5be1e5ebec7d5bd14f71427d1e84f3dd0314c0f7b2291e5b200ac8c7c3b925910160405180910390a3505050565b60006105e28484610441565b9050600019811461064a578181101561063d5760405162461bcd60e51b815260206004820152601d60248201527f45524332303a20696e73756666696369656e7420616c6c6f77616e63650000006044820152606401610412565b61064a84848484036104b2565b50505050565b6001600160a01b0383166106b45760405162461bcd60e51b815260206004820152602560248201527f45524332303a207472616e736665722066726f6d20746865207a65726f206164604482015264647265737360d81b6064820152608401610412565b6001600160a01b0382166107165760405162461bcd60e51b815260206004820152602360248201527f45524332303a207472616e7366657220746f20746865207a65726f206164647260448201526265737360e81b6064820152608401610412565b6001600160a01b0383166000908152602081905260409020548181101561078e5760405162461bcd60e51b815260206004820152602660248201527f45524332303a207472616e7366657220616d6f756e7420657863656564732062604482015265616c616e636560d01b6064820152608401610412565b6001600160a01b03848116600081815260208181526040808320878703905593871680835291849020805487019055925185815290927fddf252ad1be2c89b69c2b068fc378daa952ba7f163c4a11628f55a4df523b3ef910160405180910390a361064a565b6001600160a01b03821661084a5760405162461bcd60e51b815260206004820152601f60248201527f45524332303a206d696e7420746f20746865207a65726f2061646472657373006044820152606401610412565b806002600082825461085c9190610fe7565b90915550506001600160a01b038216600081815260208181526040808320805486019055518481527fddf252ad1be2c89b69c2b068fc378daa952ba7f163c4a11628f55a4df523b3ef910160405180910390a35050565b6000806108c36002600119610c7d565b90506000600560009054906101000a90046001600160a01b03166001600160a01b031663313ce5676040518163ffffffff1660e01b815260040160206040518083038186803b15801561091557600080fd5b505afa158015610929573d6000803e3d6000fd5b505050506040513d601f19601f8201168201806040525081019061094d9190610fff565b61095960086012611022565b6109639190611063565b905061098b8261097c6001600160c01b0387168461047c565b6001600160c01b03169061048a565b949350505050565b6001600160a01b0382166109f35760405162461bcd60e51b815260206004820152602160248201527f45524332303a206275726e2066726f6d20746865207a65726f206164647265736044820152607360f81b6064820152608401610412565b6001600160a01b03821660009081526020819052604090205481811015610a675760405162461bcd60e51b815260206004820152602260248201527f45524332303a206275726e20616d6f756e7420657863656564732062616c616e604482015261636560f01b6064820152608401610412565b6001600160a01b0383166000818152602081815260408083208686039055600280548790039055518581529192917fddf252ad1be2c89b69c2b068fc378daa952ba7f163c4a11628f55a4df523b3ef910160405180910390a3505050565b60006001600160c01b038416610add57506000610349565b603a198360000b13610b175760025b826002811115610afe57610afe6110a6565b14610b0a576000610b0d565b60015b60ff169050610349565b8260000b603a13610b3b5760405163f44398f560e01b815260040160405180910390fd5b6000610b498460000b610c8b565b610b5490600a611198565b9050610b9160008560000b1215610b7e57610b79866001600160c01b03168386610ca3565b610d4d565b610b79826001600160c01b0388166111a4565b95945050505050565b6000806000610ba98686610d7b565b91509150838210610bcd5760405163f44398f560e01b815260040160405180910390fd5b60008480610bdd57610bdd6111c3565b868809905081811115610bf1576001830392505b908190039060008590038516808681610c0c57610c0c6111c3565b049550808381610c1e57610c1e6111c3565b049250808160000381610c3357610c336111c3565b046001019390930291909101600285810380870282030280870282030280870282030280870282030280870282030280870282030295860290039094029390930295945050505050565b600061034983836000610da8565b6000808212610c9a5781610324565b610324826111d9565b600080610cb084866111f6565b90506000836002811115610cc657610cc66110a6565b1415610cd3579050610349565b6001836002811115610ce757610ce76110a6565b1415610d27576002610cfa60018661120a565b610d0491906111f6565b610d0e8587611221565b1115610d225780610d1e81611235565b9150505b61098b565b6000610d338587611221565b111561098b5780610d4381611235565b9695505050505050565b60006001600160c01b03821115610d775760405163f44398f560e01b815260040160405180910390fd5b5090565b6000808060001984860990508385029150818103925081811015610da0576001830392505b509250929050565b600083610db757506000610349565b605f198360000b13610dca576002610aec565b8260000b602813610dee5760405163f44398f560e01b815260040160405180910390fd5b610df9601284611063565b92506000610e098460000b610c8b565b610e1490600a611198565b90506000808560000b1215610e3357610e2e868386610ca3565b610e3d565b610e3d82876111a4565b9050610d4381610d4d565b600060208083528351808285015260005b81811015610e7557858101830151858201604001528201610e59565b81811115610e87576000604083870101525b50601f01601f1916929092016040019392505050565b80356001600160a01b0381168114610eb457600080fd5b919050565b60008060408385031215610ecc57600080fd5b610ed583610e9d565b946020939093013593505050565b600080600060608486031215610ef857600080fd5b610f0184610e9d565b9250610f0f60208501610e9d565b9150604084013590509250925092565b600060208284031215610f3157600080fd5b61034982610e9d565b600060208284031215610f4c57600080fd5b81356001600160c01b038116811461034957600080fd5b60008060408385031215610f7657600080fd5b610f7f83610e9d565b9150610f8d60208401610e9d565b90509250929050565b600181811c90821680610faa57607f821691505b60208210811415610fcb57634e487b7160e01b600052602260045260246000fd5b50919050565b634e487b7160e01b600052601160045260246000fd5b60008219821115610ffa57610ffa610fd1565b500190565b60006020828403121561101157600080fd5b815160ff8116811461034957600080fd5b600081810b83820b8281128015607f1983018412161561104457611044610fd1565b81607f01831381161561105957611059610fd1565b5090039392505050565b60008160000b8360000b6000821282607f0382138115161561108757611087610fd1565b82607f1903821281161561109d5761109d610fd1565b50019392505050565b634e487b7160e01b600052602160045260246000fd5b600181815b80851115610da05781600019048211156110dd576110dd610fd1565b808516156110ea57918102915b93841c93908002906110c1565b60008261110657506001610324565b8161111357506000610324565b816001811461112957600281146111335761114f565b6001915050610324565b60ff84111561114457611144610fd1565b50506001821b610324565b5060208310610133831016604e8410600b8410161715611172575081810a610324565b61117c83836110bc565b806000190482111561119057611190610fd1565b029392505050565b600061034983836110f7565b60008160001904831182151516156111be576111be610fd1565b500290565b634e487b7160e01b600052601260045260246000fd5b6000600160ff1b8214156111ef576111ef610fd1565b5060000390565b600082611205576112056111c3565b500490565b60008282101561121c5761121c610fd1565b500390565b600082611230576112306111c3565b500690565b600060001982141561124957611249610fd1565b506001019056fea2646970667358221220dc63588dd572db5ce5618493fdb1f2cd690078fc65cd155555566d2ed9e57bd464736f6c63430008090033",
  "linkReferences": {},
  "deployedLinkReferences": {}
}