{
  "_format": "hh-sol-artifact-1",
  "contractName": "RateModel",
  "sourceName": "contracts/RateModel.sol",
  "abi": [
    {
      "inputs": [
        {
          "internalType": "uint256",
          "name": "minRate_",
          "type": "uint256"
        },
        {
          "internalType": "uint256",
          "name": "healthyMinUR_",
          "type": "uint256"
        },
        {
          "internalType": "uint256",
          "name": "healthyMinRate_",
          "type": "uint256"
        },
        {
          "internalType": "uint256",
          "name": "maxRate_",
          "type": "uint256"
        },
        {
          "internalType": "uint256",
          "name": "healthyMaxUR_",
          "type": "uint256"
        },
        {
          "internalType": "uint256",
          "name": "healthyMaxRate_",
          "type": "uint256"
        }
      ],
      "stateMutability": "nonpayable",
      "type": "constructor"
    },
    {
      "anonymous": false,
      "inputs": [
        {
          "indexed": false,
          "internalType": "uint256",
          "name": "oldBlocksPerYear",
          "type": "uint256"
        },
        {
          "indexed": false,
          "internalType": "uint256",
          "name": "newBlocksPerYear",
          "type": "uint256"
        }
      ],
      "name": "BlocksPerYearUpdated",
      "type": "event"
    },
    {
      "anonymous": false,
      "inputs": [
        {
          "indexed": true,
          "internalType": "address",
          "name": "owner",
          "type": "address"
        },
        {
          "indexed": true,
          "internalType": "address",
          "name": "newOwner",
          "type": "address"
        }
      ],
      "name": "OwnerUpdate",
      "type": "event"
    },
    {
      "inputs": [],
      "name": "acceptOwnership",
      "outputs": [],
      "stateMutability": "nonpayable",
      "type": "function"
    },
    {
      "inputs": [],
      "name": "blocksPerYear",
      "outputs": [
        {
          "internalType": "uint256",
          "name": "",
          "type": "uint256"
        }
      ],
      "stateMutability": "view",
      "type": "function"
    },
    {
      "inputs": [
        {
          "internalType": "uint256",
          "name": "_blocksPerYear",
          "type": "uint256"
        }
      ],
      "name": "changeBlocksPerYear",
      "outputs": [],
      "stateMutability": "nonpayable",
      "type": "function"
    },
    {
      "inputs": [
        {
          "internalType": "uint256",
          "name": "minRate_",
          "type": "uint256"
        },
        {
          "internalType": "uint256",
          "name": "healthyMinUR_",
          "type": "uint256"
        },
        {
          "internalType": "uint256",
          "name": "healthyMinRate_",
          "type": "uint256"
        },
        {
          "internalType": "uint256",
          "name": "maxRate_",
          "type": "uint256"
        },
        {
          "internalType": "uint256",
          "name": "healthyMaxUR_",
          "type": "uint256"
        },
        {
          "internalType": "uint256",
          "name": "healthyMaxRate_",
          "type": "uint256"
        }
      ],
      "name": "changeRates",
      "outputs": [],
      "stateMutability": "nonpayable",
      "type": "function"
    },
    {
      "inputs": [
        {
          "internalType": "address",
          "name": "asset",
          "type": "address"
        },
        {
          "internalType": "uint256",
          "name": "cash",
          "type": "uint256"
        },
        {
          "internalType": "uint256",
          "name": "borrows",
          "type": "uint256"
        }
      ],
      "name": "getBorrowRate",
      "outputs": [
        {
          "internalType": "uint256",
          "name": "",
          "type": "uint256"
        }
      ],
      "stateMutability": "view",
      "type": "function"
    },
    {
      "inputs": [
        {
          "internalType": "address",
          "name": "_asset",
          "type": "address"
        },
        {
          "internalType": "uint256",
          "name": "cash",
          "type": "uint256"
        },
        {
          "internalType": "uint256",
          "name": "borrows",
          "type": "uint256"
        }
      ],
      "name": "getSupplyRate",
      "outputs": [
        {
          "internalType": "uint256",
          "name": "",
          "type": "uint256"
        }
      ],
      "stateMutability": "view",
      "type": "function"
    },
    {
      "inputs": [],
      "name": "newOwner",
      "outputs": [
        {
          "internalType": "address",
          "name": "",
          "type": "address"
        }
      ],
      "stateMutability": "view",
      "type": "function"
    },
    {
      "inputs": [],
      "name": "owner",
      "outputs": [
        {
          "internalType": "address",
          "name": "",
          "type": "address"
        }
      ],
      "stateMutability": "view",
      "type": "function"
    },
    {
      "inputs": [
        {
          "internalType": "address",
          "name": "newOwner_",
          "type": "address"
        }
      ],
      "name": "transferOwnership",
      "outputs": [],
      "stateMutability": "nonpayable",
      "type": "function"
    }
  ],
  "bytecode": "0x60806040526227ec006000556002805460ff60a01b1916601960a21b1790553480156200002b57600080fd5b5060405162001576380380620015768339810160408190526200004e9162000741565b828610620000b35760405162461bcd60e51b815260206004820152602760248201527f4d696e20526174652073686f756c64206265206c6573736572207468616e204d6044820152666178205261746560c81b60648201526084015b60405180910390fd5b8185106200011e5760405162461bcd60e51b815260206004820152603160248201527f6865616c7468794d696e55525f2073686f756c64206265206c6573736572207460448201527068616e206865616c7468794d617855525f60781b6064820152608401620000aa565b808410620001955760405162461bcd60e51b815260206004820152603560248201527f6865616c7468794d696e526174655f2073686f756c64206265206c657373657260448201527f207468616e206865616c7468794d6178526174655f00000000000000000000006064820152608401620000aa565b600180546001600160a01b03191633179055620001b7868686868686620001c3565b5050505050506200081c565b6001546001600160a01b031633146200020b5760405162461bcd60e51b81526020600482015260096024820152683737b716b7bbb732b960b91b6044820152606401620000aa565b828610620002825760405162461bcd60e51b815260206004820152603560248201527f5b6368616e676552617465735d204d696e20526174652073686f756c6420626560448201527f206c6573736572207468616e204d6178205261746500000000000000000000006064820152608401620000aa565b818510620002eb5760405162461bcd60e51b815260206004820152602f60248201527f4865616c7468794d696e55522073686f756c64206265206c657373657220746860448201526e30b7102432b0b63a343ca6b0bc2aa960891b6064820152608401620000aa565b808410620003625760405162461bcd60e51b815260206004820152603360248201527f4865616c7468794d696e526174652073686f756c64206265206c65737365722060448201527f7468616e204865616c7468794d617852617465000000000000000000000000006064820152608401620000aa565b604080516020810190915260008152604080516020810190915260008152604080516020810190915260008152600254620003a990600160a01b900460ff16600162000621565b600254909150620003c6908a90600160a01b900460ff1662000621565b51600b55600254620003e4908990600160a01b900460ff1662000621565b51600c5560025462000402908890600160a01b900460ff1662000621565b51600d5560025462000420908790600160a01b900460ff1662000621565b51600e556002546200043e908690600160a01b900460ff1662000621565b51600f556002546200045c908590600160a01b900460ff1662000621565b51601055600b546003819055600c54600455600f546008556040805160208082018352600d54825282519081019092529181526200049b91906200066d565b60408051602081019091526004548152909350620004bb908490620006a4565b51600555604080516020808201835260105482528251908101909252600d548252620004e7916200066d565b6040805160208082018352600f5482528251908101909252600c5482529194506200051391906200066d565b9150620005218383620006a4565b5160068190556040805160208082018352928152815192830190915260045482526200054d91620006ca565b6040805160208101909152600d5481529093506200056c90846200066d565b516007556040805160208082018352600e5482528251908101909252601054825262000598916200066d565b6040805160208101909152600f548152909350620005b89082906200066d565b9150620005c68383620006a4565b516009819055604080516020808201835292815281519283019091526008548252620005f291620006ca565b60408051602081019091526010548152909250620006129083906200066d565b51600a55505050505050505050565b604080516020810190915260008152600062000646670de0b6b3a764000085620007a2565b90506000620006568483620007c4565b604080516020810190915290815295945050505050565b604080516020810190915260008152815183516000916200068e91620007e7565b6040805160208101909152908152949350505050565b60408051602081019091526000815282518251620006c3919062000621565b9392505050565b60408051602081019091526000815281518351600091620006eb91620007a2565b9050600081620007056002670de0b6b3a7640000620007c4565b62000711919062000801565b9050600062000729670de0b6b3a764000083620007c4565b60408051602081019091529081529695505050505050565b60008060008060008060c087890312156200075b57600080fd5b865195506020870151945060408701519350606087015192506080870151915060a087015190509295509295509295565b634e487b7160e01b600052601160045260246000fd5b6000816000190483118215151615620007bf57620007bf6200078c565b500290565b600082620007e257634e487b7160e01b600052601260045260246000fd5b500490565b600082821015620007fc57620007fc6200078c565b500390565b600082198211156200081757620008176200078c565b500190565b610d4a806200082c6000396000f3fe608060405234801561001057600080fd5b50600436106100935760003560e01c8063a385fb9611610066578063a385fb9614610106578063d4ee1d901461010f578063e9d1f07e14610122578063ed2b5a3c14610135578063f2fde38b1461014857600080fd5b8063517cf73e14610098578063582f9deb146100be57806379ba5097146100d35780638da5cb5b146100db575b600080fd5b6100ab6100a6366004610bc1565b61015b565b6040519081526020015b60405180910390f35b6100d16100cc366004610bf4565b610248565b005b6100d1610653565b6001546100ee906001600160a01b031681565b6040516001600160a01b0390911681526020016100b5565b6100ab60005481565b6002546100ee906001600160a01b031681565b6100d1610130366004610c37565b610724565b6100ab610143366004610bc1565b610793565b6100d1610156366004610c50565b6107df565b600080806101698585610894565b600254919350915060009061018990600160a01b900460ff1660016109f0565b604080516020810190915260035481529091506000906101aa908390610a3a565b90506101e4846040518060200160405280600260149054906101000a900460ff1660ff1687600001516101dd9190610c81565b9052610a6f565b9150610217826040518060200160405280600260149054906101000a900460ff1660ff1685600001516101dd9190610c81565b91506000604051806020016040528060005485600001516102389190610c81565b9052519998505050505050505050565b6001546001600160a01b0316331461027b5760405162461bcd60e51b815260040161027290610ca3565b60405180910390fd5b8286106102e85760405162461bcd60e51b815260206004820152603560248201527f5b6368616e676552617465735d204d696e20526174652073686f756c64206265604482015274206c6573736572207468616e204d6178205261746560581b6064820152608401610272565b81851061034f5760405162461bcd60e51b815260206004820152602f60248201527f4865616c7468794d696e55522073686f756c64206265206c657373657220746860448201526e30b7102432b0b63a343ca6b0bc2aa960891b6064820152608401610272565b8084106103ba5760405162461bcd60e51b815260206004820152603360248201527f4865616c7468794d696e526174652073686f756c64206265206c6573736572206044820152727468616e204865616c7468794d61785261746560681b6064820152608401610272565b6040805160208101909152600081526040805160208101909152600081526040805160208101909152600081526002546103ff90600160a01b900460ff1660016109f0565b60025490915061041a908a90600160a01b900460ff166109f0565b51600b55600254610436908990600160a01b900460ff166109f0565b51600c55600254610452908890600160a01b900460ff166109f0565b51600d5560025461046e908790600160a01b900460ff166109f0565b51600e5560025461048a908690600160a01b900460ff166109f0565b51600f556002546104a6908590600160a01b900460ff166109f0565b51601055600b546003819055600c54600455600f546008556040805160208082018352600d54825282519081019092529181526104e39190610a3a565b60408051602081019091526004548152909350610501908490610ade565b51600555604080516020808201835260105482528251908101909252600d54825261052b91610a3a565b6040805160208082018352600f5482528251908101909252600c5482529194506105559190610a3a565b91506105618383610ade565b51600681905560408051602080820183529281528151928301909152600454825261058b91610a6f565b6040805160208101909152600d5481529093506105a89084610a3a565b516007556040805160208082018352600e548252825190810190925260105482526105d291610a3a565b6040805160208101909152600f5481529093506105f0908290610a3a565b91506105fc8383610ade565b51600981905560408051602080820183529281528151928301909152600854825261062691610a6f565b60408051602081019091526010548152909250610644908390610a3a565b51600a55505050505050505050565b6002546001600160a01b031633146106be5760405162461bcd60e51b815260206004820152602860248201527f4163636570744f776e6572736869703a206f6e6c79206e6577206f776e6572206044820152673237903a3434b99760c11b6064820152608401610272565b6002546001546040516001600160a01b0392831692909116907f343765429aea5a34b3ff6a3785a98a5abb2597aca87bfbb58632c173d585373a90600090a360028054600180546001600160a01b03199081166001600160a01b03841617909155169055565b6001546001600160a01b0316331461074e5760405162461bcd60e51b815260040161027290610ca3565b600080549082905560408051828152602081018490527f8c7fd4f5a8da5129991356074d02e5cac68dced1f3f0e2964e233fcf272398c2910160405180910390a15050565b6000806107a08484610894565b9150506000604051806020016040528060005484600001516107c29190610c81565b905280519091506107d590600590610c81565b9695505050505050565b6001546001600160a01b031633146108095760405162461bcd60e51b815260040161027290610ca3565b6001546001600160a01b03828116911614156108725760405162461bcd60e51b815260206004820152602260248201527f5472616e736665724f776e6572736869703a207468652073616d65206f776e65604482015261391760f11b6064820152608401610272565b600280546001600160a01b0319166001600160a01b0392909216919091179055565b60408051602081019091526000815260408051602081019091526000815260006108be8585610b02565b905060006108d86040518060200160405280600081525090565b60408051602081019091526000815260045484511015610936576040805160208101909152600554815261090d908590610a6f565b6040805160208101909152600354815290925061092b908390610b69565b8051935090506109d5565b6008548451111561097a576040805160208101909152600954815261095c908590610a6f565b6040805160208101909152600a54815290925061092b908390610a3a565b6004548451108015906109905750600854845111155b156109d557604080516020810190915260065481526109b0908590610a6f565b604080516020810190915260075481529092506109ce908390610b69565b8051935090505b50506040805160208101909152908152909590945092505050565b6040805160208101909152600081526000610a13670de0b6b3a764000085610cc6565b90506000610a218483610c81565b6040805160208101909152908152925050505b92915050565b60408051602081019091526000815281518351600091610a5991610ce5565b6040805160208101909152908152949350505050565b60408051602081019091526000815281518351600091610a8e91610cc6565b9050600081610aa66002670de0b6b3a7640000610c81565b610ab09190610cfc565b90506000610ac6670de0b6b3a764000083610c81565b60408051602081019091529081529695505050505050565b60408051602081019091526000815282518251610afb91906109f0565b9392505050565b60408051602081019091526000815281610b2b5750604080516020810190915260008152610a34565b6000610b378385610cfc565b90506000610b4584836109f0565b600254909150610b60908290600160a01b900460ff16610b88565b95945050505050565b60408051602081019091526000815281518351600091610a5991610cfc565b604080516020810190915260008082528351610a59908490610cc6565b80356001600160a01b0381168114610bbc57600080fd5b919050565b600080600060608486031215610bd657600080fd5b610bdf84610ba5565b95602085013595506040909401359392505050565b60008060008060008060c08789031215610c0d57600080fd5b505084359660208601359650604086013595606081013595506080810135945060a0013592509050565b600060208284031215610c4957600080fd5b5035919050565b600060208284031215610c6257600080fd5b610afb82610ba5565b634e487b7160e01b600052601160045260246000fd5b600082610c9e57634e487b7160e01b600052601260045260246000fd5b500490565b6020808252600990820152683737b716b7bbb732b960b91b604082015260600190565b6000816000190483118215151615610ce057610ce0610c6b565b500290565b600082821015610cf757610cf7610c6b565b500390565b60008219821115610d0f57610d0f610c6b565b50019056fea2646970667358221220c889a5c9bf65d525d19877f9d900d3bf135e68f620249e205c25c87346528ded64736f6c63430008090033",
  "linkReferences": {},
  "deployedLinkReferences": {}
}