{
  "_format": "hh-sol-artifact-1",
  "contractName": "RevenueTraderP1V2",
  "sourceName": "contracts/reserve/plugins/mocks/upgrades/RevenueTraderV2.sol",
  "abi": [
    {
      "inputs": [],
      "name": "UIntOutOfBounds",
      "type": "error"
    },
    {
      "anonymous": false,
      "inputs": [
        {
          "indexed": false,
          "internalType": "address",
          "name": "previousAdmin",
          "type": "address"
        },
        {
          "indexed": false,
          "internalType": "address",
          "name": "newAdmin",
          "type": "address"
        }
      ],
      "name": "AdminChanged",
      "type": "event"
    },
    {
      "anonymous": false,
      "inputs": [
        {
          "indexed": true,
          "internalType": "address",
          "name": "beacon",
          "type": "address"
        }
      ],
      "name": "BeaconUpgraded",
      "type": "event"
    },
    {
      "anonymous": false,
      "inputs": [
        {
          "indexed": false,
          "internalType": "uint8",
          "name": "version",
          "type": "uint8"
        }
      ],
      "name": "Initialized",
      "type": "event"
    },
    {
      "anonymous": false,
      "inputs": [
        {
          "indexed": true,
          "internalType": "uint192",
          "name": "oldVal",
          "type": "uint192"
        },
        {
          "indexed": true,
          "internalType": "uint192",
          "name": "newVal",
          "type": "uint192"
        }
      ],
      "name": "MaxTradeSlippageSet",
      "type": "event"
    },
    {
      "anonymous": false,
      "inputs": [
        {
          "indexed": true,
          "internalType": "uint192",
          "name": "oldVal",
          "type": "uint192"
        },
        {
          "indexed": true,
          "internalType": "uint192",
          "name": "newVal",
          "type": "uint192"
        }
      ],
      "name": "MinTradeVolumeSet",
      "type": "event"
    },
    {
      "anonymous": false,
      "inputs": [
        {
          "indexed": true,
          "internalType": "contract IERC20",
          "name": "erc20",
          "type": "address"
        },
        {
          "indexed": true,
          "internalType": "uint256",
          "name": "amount",
          "type": "uint256"
        }
      ],
      "name": "RewardsClaimed",
      "type": "event"
    },
    {
      "anonymous": false,
      "inputs": [
        {
          "indexed": true,
          "internalType": "contract ITrade",
          "name": "trade",
          "type": "address"
        },
        {
          "indexed": true,
          "internalType": "contract IERC20",
          "name": "sell",
          "type": "address"
        },
        {
          "indexed": true,
          "internalType": "contract IERC20",
          "name": "buy",
          "type": "address"
        },
        {
          "indexed": false,
          "internalType": "uint256",
          "name": "sellAmount",
          "type": "uint256"
        },
        {
          "indexed": false,
          "internalType": "uint256",
          "name": "buyAmount",
          "type": "uint256"
        }
      ],
      "name": "TradeSettled",
      "type": "event"
    },
    {
      "anonymous": false,
      "inputs": [
        {
          "indexed": true,
          "internalType": "contract ITrade",
          "name": "trade",
          "type": "address"
        },
        {
          "indexed": true,
          "internalType": "contract IERC20",
          "name": "sell",
          "type": "address"
        },
        {
          "indexed": true,
          "internalType": "contract IERC20",
          "name": "buy",
          "type": "address"
        },
        {
          "indexed": false,
          "internalType": "uint256",
          "name": "sellAmount",
          "type": "uint256"
        },
        {
          "indexed": false,
          "internalType": "uint256",
          "name": "minBuyAmount",
          "type": "uint256"
        }
      ],
      "name": "TradeStarted",
      "type": "event"
    },
    {
      "anonymous": false,
      "inputs": [
        {
          "indexed": true,
          "internalType": "address",
          "name": "implementation",
          "type": "address"
        }
      ],
      "name": "Upgraded",
      "type": "event"
    },
    {
      "inputs": [],
      "name": "MAX_TRADE_SLIPPAGE",
      "outputs": [
        {
          "internalType": "uint192",
          "name": "",
          "type": "uint192"
        }
      ],
      "stateMutability": "view",
      "type": "function"
    },
    {
      "inputs": [],
      "name": "MIN_TRADE_VOLUME",
      "outputs": [
        {
          "internalType": "uint192",
          "name": "",
          "type": "uint192"
        }
      ],
      "stateMutability": "view",
      "type": "function"
    },
    {
      "inputs": [],
      "name": "claimRewards",
      "outputs": [],
      "stateMutability": "nonpayable",
      "type": "function"
    },
    {
      "inputs": [
        {
          "internalType": "contract IERC20",
          "name": "erc20",
          "type": "address"
        }
      ],
      "name": "claimRewardsSingle",
      "outputs": [],
      "stateMutability": "nonpayable",
      "type": "function"
    },
    {
      "inputs": [
        {
          "internalType": "contract IMain",
          "name": "main_",
          "type": "address"
        },
        {
          "internalType": "contract IERC20",
          "name": "tokenToBuy_",
          "type": "address"
        },
        {
          "internalType": "uint192",
          "name": "maxTradeSlippage_",
          "type": "uint192"
        },
        {
          "internalType": "uint192",
          "name": "minTradeVolume_",
          "type": "uint192"
        }
      ],
      "name": "init",
      "outputs": [],
      "stateMutability": "nonpayable",
      "type": "function"
    },
    {
      "inputs": [],
      "name": "main",
      "outputs": [
        {
          "internalType": "contract IMain",
          "name": "",
          "type": "address"
        }
      ],
      "stateMutability": "view",
      "type": "function"
    },
    {
      "inputs": [
        {
          "internalType": "contract IERC20",
          "name": "erc20",
          "type": "address"
        }
      ],
      "name": "manageToken",
      "outputs": [],
      "stateMutability": "nonpayable",
      "type": "function"
    },
    {
      "inputs": [],
      "name": "maxTradeSlippage",
      "outputs": [
        {
          "internalType": "uint192",
          "name": "",
          "type": "uint192"
        }
      ],
      "stateMutability": "view",
      "type": "function"
    },
    {
      "inputs": [],
      "name": "minTradeVolume",
      "outputs": [
        {
          "internalType": "uint192",
          "name": "",
          "type": "uint192"
        }
      ],
      "stateMutability": "view",
      "type": "function"
    },
    {
      "inputs": [
        {
          "internalType": "bytes[]",
          "name": "data",
          "type": "bytes[]"
        }
      ],
      "name": "multicall",
      "outputs": [
        {
          "internalType": "bytes[]",
          "name": "results",
          "type": "bytes[]"
        }
      ],
      "stateMutability": "nonpayable",
      "type": "function"
    },
    {
      "inputs": [],
      "name": "newValue",
      "outputs": [
        {
          "internalType": "uint256",
          "name": "",
          "type": "uint256"
        }
      ],
      "stateMutability": "view",
      "type": "function"
    },
    {
      "inputs": [],
      "name": "proxiableUUID",
      "outputs": [
        {
          "internalType": "bytes32",
          "name": "",
          "type": "bytes32"
        }
      ],
      "stateMutability": "view",
      "type": "function"
    },
    {
      "inputs": [
        {
          "internalType": "uint192",
          "name": "val",
          "type": "uint192"
        }
      ],
      "name": "setMaxTradeSlippage",
      "outputs": [],
      "stateMutability": "nonpayable",
      "type": "function"
    },
    {
      "inputs": [
        {
          "internalType": "uint192",
          "name": "val",
          "type": "uint192"
        }
      ],
      "name": "setMinTradeVolume",
      "outputs": [],
      "stateMutability": "nonpayable",
      "type": "function"
    },
    {
      "inputs": [
        {
          "internalType": "uint256",
          "name": "newValue_",
          "type": "uint256"
        }
      ],
      "name": "setNewValue",
      "outputs": [],
      "stateMutability": "nonpayable",
      "type": "function"
    },
    {
      "inputs": [
        {
          "internalType": "contract IERC20",
          "name": "sell",
          "type": "address"
        }
      ],
      "name": "settleTrade",
      "outputs": [],
      "stateMutability": "nonpayable",
      "type": "function"
    },
    {
      "inputs": [],
      "name": "tokenToBuy",
      "outputs": [
        {
          "internalType": "contract IERC20",
          "name": "",
          "type": "address"
        }
      ],
      "stateMutability": "view",
      "type": "function"
    },
    {
      "inputs": [
        {
          "internalType": "contract IERC20",
          "name": "",
          "type": "address"
        }
      ],
      "name": "trades",
      "outputs": [
        {
          "internalType": "contract ITrade",
          "name": "",
          "type": "address"
        }
      ],
      "stateMutability": "view",
      "type": "function"
    },
    {
      "inputs": [],
      "name": "tradesOpen",
      "outputs": [
        {
          "internalType": "uint48",
          "name": "",
          "type": "uint48"
        }
      ],
      "stateMutability": "view",
      "type": "function"
    },
    {
      "inputs": [
        {
          "internalType": "address",
          "name": "newImplementation",
          "type": "address"
        }
      ],
      "name": "upgradeTo",
      "outputs": [],
      "stateMutability": "nonpayable",
      "type": "function"
    },
    {
      "inputs": [
        {
          "internalType": "address",
          "name": "newImplementation",
          "type": "address"
        },
        {
          "internalType": "bytes",
          "name": "data",
          "type": "bytes"
        }
      ],
      "name": "upgradeToAndCall",
      "outputs": [],
      "stateMutability": "payable",
      "type": "function"
    },
    {
      "inputs": [],
      "name": "version",
      "outputs": [
        {
          "internalType": "string",
          "name": "",
          "type": "string"
        }
      ],
      "stateMutability": "pure",
      "type": "function"
    }
  ],
  "bytecode": "0x60a0604052306080523480156200001557600080fd5b50600054610100900460ff1615808015620000375750600054600160ff909116105b8062000067575062000054306200014160201b62001b4e1760201c565b15801562000067575060005460ff166001145b620000cf5760405162461bcd60e51b815260206004820152602e60248201527f496e697469616c697a61626c653a20636f6e747261637420697320616c72656160448201526d191e481a5b9a5d1a585b1a5e995960921b606482015260840160405180910390fd5b6000805460ff191660011790558015620000f3576000805461ff0019166101001790555b80156200013a576000805461ff0019169055604051600181527f7f26b83ff96e1f2b6a682f133852f6798a09c465da95921460cefb38474024989060200160405180910390a15b5062000150565b6001600160a01b03163b151590565b608051613ac562000188600039600081816108240152818161086401528181610c2c01528181610c6c0152610cff0152613ac56000f3fe6080604052600436106101355760003560e01c80638b27c574116100ab578063adaef42c1161006f578063adaef42c14610392578063b9bebb04146103b2578063c76aeb12146103ce578063cb9414f814610404578063dd47cebf14610424578063dffeadd01461044557600080fd5b80638b27c574146102cf578063951c4077146102ef5780639b4ec8e91461030f578063a9f752e51461032f578063ac9650d81461036557600080fd5b8063372500ab116100fd578063372500ab146102195780634f1ef2861461022e57806352d1902d1461024157806354fd4d50146102645780637c65452c146102985780637cbf6db2146102af57600080fd5b80630db3d42c1461013a5780630e0264d11461017e57806319ca8d9d146101a05780633659cfe6146101d957806336a02f57146101f9575b600080fd5b34801561014657600080fd5b5060fd5461016190600160301b90046001600160c01b031681565b6040516001600160c01b0390911681526020015b60405180910390f35b34801561018a57600080fd5b5061019e6101993660046131fd565b610465565b005b3480156101ac57600080fd5b5061012d546101c1906001600160a01b031681565b6040516001600160a01b039091168152602001610175565b3480156101e557600080fd5b5061019e6101f43660046131fd565b610819565b34801561020557600080fd5b5061019e61021436600461322f565b6108f6565b34801561022557600080fd5b5061019e610a85565b61019e61023c366004613262565b610c21565b34801561024d57600080fd5b50610256610cf2565b604051908152602001610175565b34801561027057600080fd5b5060408051808201825260058152640322e302e360dc1b60208201529051610175919061337e565b3480156102a457600080fd5b5061025661015f5481565b3480156102bb57600080fd5b5060fe54610161906001600160c01b031681565b3480156102db57600080fd5b5061019e6102ea366004613391565b610da5565b3480156102fb57600080fd5b5061019e61030a3660046133ed565b61104e565b34801561031b57600080fd5b5061019e61032a3660046131fd565b611128565b34801561033b57600080fd5b506101c161034a3660046131fd565b60fc602052600090815260409020546001600160a01b031681565b34801561037157600080fd5b50610385610380366004613406565b6116a3565b604051610175919061347b565b34801561039e57600080fd5b5061019e6103ad3660046131fd565b611799565b3480156103be57600080fd5b50610161670de0b6b3a764000081565b3480156103da57600080fd5b5060fd546103ed9065ffffffffffff1681565b60405165ffffffffffff9091168152602001610175565b34801561041057600080fd5b5061019e61041f36600461322f565b6119aa565b34801561043057600080fd5b506101616c01431e0fae6d7217caa000000081565b34801561045157600080fd5b506097546101c1906001600160a01b031681565b609760009054906101000a90046001600160a01b03166001600160a01b031663f17063756040518163ffffffff1660e01b815260040160206040518083038186803b1580156104b357600080fd5b505afa1580156104c7573d6000803e3d6000fd5b505050506040513d601f19601f820116820180604052508101906104eb91906134dd565b156105115760405162461bcd60e51b8152600401610508906134ff565b60405180910390fd5b610519611b5d565b6001600160a01b03808216600090815260fc6020526040902054168061053f575061080c565b806001600160a01b031663faf7ba6a6040518163ffffffff1660e01b815260040160206040518083038186803b15801561057857600080fd5b505afa15801561058c573d6000803e3d6000fd5b505050506040513d601f19601f820116820180604052508101906105b091906134dd565b6105f05760405162461bcd60e51b815260206004820152601160248201527018d85b9b9bdd081cd95d1d1b19481e595d607a1b6044820152606401610508565b6001600160a01b038216600090815260fc6020526040812080546001600160a01b031916905560fd805465ffffffffffff169161062c8361353f565b91906101000a81548165ffffffffffff021916908365ffffffffffff16021790555050600080826001600160a01b03166311da60b46040518163ffffffff1660e01b81526004016040805180830381600087803b15801561068c57600080fd5b505af11580156106a0573d6000803e3d6000fd5b505050506040513d601f19601f820116820180604052508101906106c49190613561565b91509150826001600160a01b031663a6f2ae3a6040518163ffffffff1660e01b815260040160206040518083038186803b15801561070157600080fd5b505afa158015610715573d6000803e3d6000fd5b505050506040513d601f19601f820116820180604052508101906107399190613585565b6001600160a01b0316836001600160a01b031663457100746040518163ffffffff1660e01b815260040160206040518083038186803b15801561077b57600080fd5b505afa15801561078f573d6000803e3d6000fd5b505050506040513d601f19601f820116820180604052508101906107b39190613585565b6001600160a01b0316846001600160a01b03167f058fb1fa484531f400806f666315faf1a45941db93ba069405882b78ba40dc878585604051610800929190918252602082015260400190565b60405180910390a45050505b610816600160c955565b50565b306001600160a01b037f00000000000000000000000000000000000000000000000000000000000000001614156108625760405162461bcd60e51b8152600401610508906135a2565b7f00000000000000000000000000000000000000000000000000000000000000006001600160a01b03166108ab600080516020613a49833981519152546001600160a01b031690565b6001600160a01b0316146108d15760405162461bcd60e51b8152600401610508906135ee565b6108da81611bb7565b6040805160008082526020820190925261081691839190611c8b565b60975460408051808201909152600581526427aba722a960d91b60208201526001600160a01b03909116906391d14854906109309061363a565b336040516001600160e01b031960e085901b16815260048101929092526001600160a01b0316602482015260440160206040518083038186803b15801561097657600080fd5b505afa15801561098a573d6000803e3d6000fd5b505050506040513d601f19601f820116820180604052508101906109ae91906134dd565b6109ca5760405162461bcd60e51b815260040161050890613661565b6c01431e0fae6d7217caa00000006001600160c01b0382161115610a295760405162461bcd60e51b8152602060048201526016602482015275696e76616c6964206d696e5472616465566f6c756d6560501b6044820152606401610508565b60fe546040516001600160c01b038084169216907f1dec1ae9fd64ef0d8a6b130d853a8ab21d337625027cc60c63028f3d383495dc90600090a360fe80546001600160c01b0319166001600160c01b0392909216919091179055565b609760009054906101000a90046001600160a01b03166001600160a01b031663f17063756040518163ffffffff1660e01b815260040160206040518083038186803b158015610ad357600080fd5b505afa158015610ae7573d6000803e3d6000fd5b505050506040513d601f19601f82011682018060405250810190610b0b91906134dd565b15610b285760405162461bcd60e51b8152600401610508906134ff565b73__$08d36e59b955a5499e173aaa3c4eaafd65$__63d93888ad609760009054906101000a90046001600160a01b03166001600160a01b031663979d7e866040518163ffffffff1660e01b815260040160206040518083038186803b158015610b9057600080fd5b505afa158015610ba4573d6000803e3d6000fd5b505050506040513d601f19601f82011682018060405250810190610bc89190613585565b6040516001600160e01b031960e084901b1681526001600160a01b03909116600482015260240160006040518083038186803b158015610c0757600080fd5b505af4158015610c1b573d6000803e3d6000fd5b50505050565b306001600160a01b037f0000000000000000000000000000000000000000000000000000000000000000161415610c6a5760405162461bcd60e51b8152600401610508906135a2565b7f00000000000000000000000000000000000000000000000000000000000000006001600160a01b0316610cb3600080516020613a49833981519152546001600160a01b031690565b6001600160a01b031614610cd95760405162461bcd60e51b8152600401610508906135ee565b610ce282611bb7565b610cee82826001611c8b565b5050565b6000306001600160a01b037f00000000000000000000000000000000000000000000000000000000000000001614610d925760405162461bcd60e51b815260206004820152603860248201527f555550535570677261646561626c653a206d757374206e6f742062652063616c60448201527f6c6564207468726f7567682064656c656761746563616c6c00000000000000006064820152608401610508565b50600080516020613a4983398151915290565b600054610100900460ff1615808015610dc55750600054600160ff909116105b80610ddf5750303b158015610ddf575060005460ff166001145b610e425760405162461bcd60e51b815260206004820152602e60248201527f496e697469616c697a61626c653a20636f6e747261637420697320616c72656160448201526d191e481a5b9a5d1a585b1a5e995960921b6064820152608401610508565b6000805460ff191660011790558015610e65576000805461ff0019166101001790555b6001600160a01b038416610eb35760405162461bcd60e51b8152602060048201526015602482015274696e76616c696420746f6b656e206164647265737360581b6044820152606401610508565b610ebc85611e0a565b610ec7858484611ea8565b846001600160a01b031663979d7e866040518163ffffffff1660e01b815260040160206040518083038186803b158015610f0057600080fd5b505afa158015610f14573d6000803e3d6000fd5b505050506040513d601f19601f82011682018060405250810190610f389190613585565b61012e60006101000a8154816001600160a01b0302191690836001600160a01b03160217905550846001600160a01b031663bfe109286040518163ffffffff1660e01b815260040160206040518083038186803b158015610f9857600080fd5b505afa158015610fac573d6000803e3d6000fd5b505050506040513d601f19601f82011682018060405250810190610fd09190613585565b61012f80546001600160a01b03199081166001600160a01b039384161790915561012d80549091169186169190911790558015611047576000805461ff0019169055604051600181527f7f26b83ff96e1f2b6a682f133852f6798a09c465da95921460cefb38474024989060200160405180910390a15b5050505050565b60975460408051808201909152600581526427aba722a960d91b60208201526001600160a01b03909116906391d14854906110889061363a565b336040516001600160e01b031960e085901b16815260048101929092526001600160a01b0316602482015260440160206040518083038186803b1580156110ce57600080fd5b505afa1580156110e2573d6000803e3d6000fd5b505050506040513d601f19601f8201168201806040525081019061110691906134dd565b6111225760405162461bcd60e51b815260040161050890613661565b61015f55565b609760009054906101000a90046001600160a01b03166001600160a01b031663f17063756040518163ffffffff1660e01b815260040160206040518083038186803b15801561117657600080fd5b505afa15801561118a573d6000803e3d6000fd5b505050506040513d601f19601f820116820180604052508101906111ae91906134dd565b156111cb5760405162461bcd60e51b8152600401610508906134ff565b6001600160a01b03818116600090815260fc602052604090205416156111ee5750565b6040516370a0823160e01b81523060048201526000906001600160a01b038316906370a082319060240160206040518083038186803b15801561123057600080fd5b505afa158015611244573d6000803e3d6000fd5b505050506040513d601f19601f82011682018060405250810190611268919061368a565b905080611273575050565b61012d546001600160a01b03838116911614156113325761012f546112a6906001600160a01b0384811691166000611f72565b61012f546112c1906001600160a01b03848116911683611f72565b61012f5460405163a16a918360e01b81526001600160a01b038481166004830152306024830152604482018490529091169063a16a918390606401600060405180830381600087803b15801561131657600080fd5b505af115801561132a573d6000803e3d6000fd5b505050505050565b61012e546040516366f15f4560e11b81526001600160a01b038481166004830152600092169063cde2be8a9060240160206040518083038186803b15801561137957600080fd5b505afa15801561138d573d6000803e3d6000fd5b505050506040513d601f19601f820116820180604052508101906113b19190613585565b61012e5461012d546040516366f15f4560e11b81526001600160a01b03918216600482015292935060009291169063cde2be8a9060240160206040518083038186803b15801561140057600080fd5b505afa158015611414573d6000803e3d6000fd5b505050506040513d601f19601f820116820180604052508101906114389190613585565b90506000826001600160a01b031663a035b1fe6040518163ffffffff1660e01b8152600401604080518083038186803b15801561147457600080fd5b505afa158015611488573d6000803e3d6000fd5b505050506040513d601f19601f820116820180604052508101906114ac91906136a3565b5090506000826001600160a01b031663a035b1fe6040518163ffffffff1660e01b8152600401604080518083038186803b1580156114e957600080fd5b505afa1580156114fd573d6000803e3d6000fd5b505050506040513d601f19601f8201168201806040525081019061152191906136a3565b9150506000816001600160c01b031611801561154557506001600160c01b03818116105b6115915760405162461bcd60e51b815260206004820152601760248201527f62757920617373657420707269636520756e6b6e6f776e0000000000000000006044820152606401610508565b6040805160c0810182526001600160a01b0386811680835290861660208301528251632ac07b9560e11b815230600482015260009383019190635580f72a9060240160206040518083038186803b1580156115eb57600080fd5b505afa1580156115ff573d6000803e3d6000fd5b505050506040513d601f19601f8201168201806040525081019061162391906136dd565b6001600160c01b03908116825260006020808401829052878316604080860191909152878416606090950194909452835180850190945260fe548316845260fd54600160301b900490921691830191909152919250908061168484846120b8565b91509150811561169757611697816123d2565b50505050505050505050565b60608167ffffffffffffffff8111156116be576116be61324c565b6040519080825280602002602001820160405280156116f157816020015b60608152602001906001900390816116dc5790505b50905060005b828110156117915761176130858584818110611715576117156136fa565b90506020028101906117279190613710565b8080601f0160208091040260200160405190810160405280939291908181526020018383808284376000920191909152506126b292505050565b828281518110611773576117736136fa565b6020026020010181905250808061178990613757565b9150506116f7565b505b92915050565b609760009054906101000a90046001600160a01b03166001600160a01b031663f17063756040518163ffffffff1660e01b815260040160206040518083038186803b1580156117e757600080fd5b505afa1580156117fb573d6000803e3d6000fd5b505050506040513d601f19601f8201168201806040525081019061181f91906134dd565b1561183c5760405162461bcd60e51b8152600401610508906134ff565b73__$08d36e59b955a5499e173aaa3c4eaafd65$__63c944276c609760009054906101000a90046001600160a01b03166001600160a01b031663979d7e866040518163ffffffff1660e01b815260040160206040518083038186803b1580156118a457600080fd5b505afa1580156118b8573d6000803e3d6000fd5b505050506040513d601f19601f820116820180604052508101906118dc9190613585565b6040516366f15f4560e11b81526001600160a01b038581166004830152919091169063cde2be8a9060240160206040518083038186803b15801561191f57600080fd5b505afa158015611933573d6000803e3d6000fd5b505050506040513d601f19601f820116820180604052508101906119579190613585565b6040516001600160e01b031960e084901b1681526001600160a01b03909116600482015260240160006040518083038186803b15801561199657600080fd5b505af4158015611047573d6000803e3d6000fd5b60975460408051808201909152600581526427aba722a960d91b60208201526001600160a01b03909116906391d14854906119e49061363a565b336040516001600160e01b031960e085901b16815260048101929092526001600160a01b0316602482015260440160206040518083038186803b158015611a2a57600080fd5b505afa158015611a3e573d6000803e3d6000fd5b505050506040513d601f19601f82011682018060405250810190611a6291906134dd565b611a7e5760405162461bcd60e51b815260040161050890613661565b670de0b6b3a76400006001600160c01b03821610611ade5760405162461bcd60e51b815260206004820152601860248201527f696e76616c6964206d61785472616465536c69707061676500000000000000006044820152606401610508565b60fd546040516001600160c01b0380841692600160301b900416907f58d1f6b92b372d2913abb309ec9503acc2a53ed508ec34f478d7aeab07760f9990600090a360fd80546001600160c01b03909216600160301b026601000000000000600160f01b0319909216919091179055565b6001600160a01b03163b151590565b600260c9541415611bb05760405162461bcd60e51b815260206004820152601f60248201527f5265656e7472616e637947756172643a207265656e7472616e742063616c6c006044820152606401610508565b600260c955565b60975460408051808201909152600581526427aba722a960d91b60208201526001600160a01b03909116906391d1485490611bf19061363a565b336040516001600160e01b031960e085901b16815260048101929092526001600160a01b0316602482015260440160206040518083038186803b158015611c3757600080fd5b505afa158015611c4b573d6000803e3d6000fd5b505050506040513d601f19601f82011682018060405250810190611c6f91906134dd565b6108165760405162461bcd60e51b815260040161050890613661565b7f4910fdfa16fed3260ed0e7147f7cc6da11a60208b5b9406d12a635614ffd91435460ff1615611cc357611cbe836126de565b505050565b826001600160a01b03166352d1902d6040518163ffffffff1660e01b815260040160206040518083038186803b158015611cfc57600080fd5b505afa925050508015611d2c575060408051601f3d908101601f19168201909252611d299181019061368a565b60015b611d8f5760405162461bcd60e51b815260206004820152602e60248201527f45524331393637557067726164653a206e657720696d706c656d656e7461746960448201526d6f6e206973206e6f74205555505360901b6064820152608401610508565b600080516020613a498339815191528114611dfe5760405162461bcd60e51b815260206004820152602960248201527f45524331393637557067726164653a20756e737570706f727465642070726f786044820152681a58589b195555525160ba1b6064820152608401610508565b50611cbe83838361277a565b600054610100900460ff16611e315760405162461bcd60e51b815260040161050890613772565b6001600160a01b038116611e7e5760405162461bcd60e51b81526020600482015260146024820152736d61696e206973207a65726f206164647265737360601b6044820152606401610508565b611e8661279f565b609780546001600160a01b0319166001600160a01b0392909216919091179055565b600054610100900460ff16611ecf5760405162461bcd60e51b815260040161050890613772565b826001600160a01b031663abff01106040518163ffffffff1660e01b815260040160206040518083038186803b158015611f0857600080fd5b505afa158015611f1c573d6000803e3d6000fd5b505050506040513d601f19601f82011682018060405250810190611f409190613585565b60fb80546001600160a01b0319166001600160a01b0392909216919091179055611f69826119aa565b611cbe816108f6565b801580611ffb5750604051636eb1769f60e11b81523060048201526001600160a01b03838116602483015284169063dd62ed3e9060440160206040518083038186803b158015611fc157600080fd5b505afa158015611fd5573d6000803e3d6000fd5b505050506040513d601f19601f82011682018060405250810190611ff9919061368a565b155b6120665760405162461bcd60e51b815260206004820152603660248201527f5361666545524332303a20617070726f76652066726f6d206e6f6e2d7a65726f60448201527520746f206e6f6e2d7a65726f20616c6c6f77616e636560501b6064820152608401610508565b604080516001600160a01b038416602482015260448082018490528251808303909101815260649091019091526020810180516001600160e01b031663095ea7b360e01b179052611cbe9084906127c8565b604080516080810182526000808252602082018190529181018290526060810182905260008460a001516001600160c01b0316118015612105575060a08401516001600160c01b03908116105b801561211e575060808401516001600160c01b03908116105b61212a5761212a6137bd565b60006121ae85600001516001600160a01b031663e28a1b866040518163ffffffff1660e01b815260040160206040518083038186803b15801561216c57600080fd5b505afa158015612180573d6000803e3d6000fd5b505050506040513d601f19601f820116820180604052508101906121a491906136dd565b866080015161289a565b8551604087015186519293506121c59284906128c2565b6121d35760009250506123cb565b604085015160808601516000906001600160c01b03161561228b5760006122028860000151896080015161297e565b9050806001600160c01b0316836001600160c01b03161115612222578092505b61228788608001518960a0015160026122766122668c60200151670de0b6b3a764000067ffffffffffffffff166001600160c01b0316612a3f90919063ffffffff16565b6001600160c01b03891690612a4b565b6001600160c01b0316929190612a59565b9150505b86516001600160a01b039081168552602080890151821681870152885160408051633cb5d37960e01b8152905161232b949290921692633cb5d37992600480840193829003018186803b1580156122e157600080fd5b505afa1580156122f5573d6000803e3d6000fd5b505050506040513d601f19601f8201168201806040525081019061231991906137d3565b6001600160c01b038416906000612a8a565b8460400181815250506123be87602001516001600160a01b0316633cb5d3796040518163ffffffff1660e01b815260040160206040518083038186803b15801561237457600080fd5b505afa158015612388573d6000803e3d6000fd5b505050506040513d601f19601f820116820180604052508101906123ac91906137d3565b6001600160c01b038316906002612a8a565b6060850152506001935050505b9250929050565b6123da611b5d565b600081600001516001600160a01b031663785e9e866040518163ffffffff1660e01b815260040160206040518083038186803b15801561241957600080fd5b505afa15801561242d573d6000803e3d6000fd5b505050506040513d601f19601f820116820180604052508101906124519190613585565b6001600160a01b03808216600090815260fc6020526040902054919250161561247c5761247c6137bd565b60fb54612497906001600160a01b0383811691166000611f72565b60fb5460408301516124b7916001600160a01b0384811692911690611f72565b60fb546040805163542d5e2960e01b815284516001600160a01b03908116600483015260208601518116602483015291850151604482015260608501516064820152600092919091169063542d5e2990608401602060405180830381600087803b15801561252457600080fd5b505af1158015612538573d6000803e3d6000fd5b505050506040513d601f19601f8201168201806040525081019061255c9190613585565b6001600160a01b03838116600090815260fc6020526040812080546001600160a01b0319169284169290921790915560fd805492935065ffffffffffff90921691906125a7836137f6565b91906101000a81548165ffffffffffff021916908365ffffffffffff1602179055505082602001516001600160a01b031663785e9e866040518163ffffffff1660e01b815260040160206040518083038186803b15801561260757600080fd5b505afa15801561261b573d6000803e3d6000fd5b505050506040513d601f19601f8201168201806040525081019061263f9190613585565b6001600160a01b0316826001600160a01b0316826001600160a01b03167ff18b757d93c36d059284838a0328b06d8eb30d7214ffadde3266465a0006f6b38660400151876060015160405161269e929190918252602082015260400190565b60405180910390a45050610816600160c955565b60606126d78383604051806060016040528060278152602001613a6960279139612b68565b9392505050565b6001600160a01b0381163b61274b5760405162461bcd60e51b815260206004820152602d60248201527f455243313936373a206e657720696d706c656d656e746174696f6e206973206e60448201526c1bdd08184818dbdb9d1c9858dd609a1b6064820152608401610508565b600080516020613a4983398151915280546001600160a01b0319166001600160a01b0392909216919091179055565b61278383612be0565b6000825111806127905750805b15611cbe57610c1b8383612c20565b600054610100900460ff166127c65760405162461bcd60e51b815260040161050890613772565b565b600061281d826040518060400160405280602081526020017f5361666545524332303a206c6f772d6c6576656c2063616c6c206661696c6564815250856001600160a01b0316612d0b9092919063ffffffff16565b805190915015611cbe578080602001905181019061283b91906134dd565b611cbe5760405162461bcd60e51b815260206004820152602a60248201527f5361666545524332303a204552433230206f7065726174696f6e20646964206e6044820152691bdd081cdd58d8d9595960b21b6064820152608401610508565b6000816001600160c01b0316836001600160c01b0316116128bb57816126d7565b5090919050565b60006128e46128d18385612d1a565b6001600160c01b03908116908616101590565b801561297357506001612971866001600160a01b0316633cb5d3796040518163ffffffff1660e01b815260040160206040518083038186803b15801561292957600080fd5b505afa15801561293d573d6000803e3d6000fd5b505050506040513d601f19601f8201168201806040525081019061296191906137d3565b6001600160c01b03871690612d41565b115b90505b949350505050565b6000806001600160c01b03831615612a1c57612a17836001866001600160a01b03166395acc4ae6040518163ffffffff1660e01b815260040160206040518083038186803b1580156129cf57600080fd5b505afa1580156129e3573d6000803e3d6000fd5b505050506040513d601f19601f82011682018060405250810190612a0791906136dd565b6001600160c01b03169190612d4f565b612a25565b6001600160c01b035b90506000816001600160c01b0316116126d7576001612976565b60006126d7828461381c565b60006126d783836001612d82565b6000612973612a85866001600160c01b0316866001600160c01b0316866001600160c01b031686612daf565b612e5e565b60006001600160c01b038416612aa2575060006126d7565b6029198360000b13612adb576002826002811115612ac257612ac2613844565b14612ace576000612ad1565b60015b60ff1690506126d7565b8260000b606013612aff5760405163f44398f560e01b815260040160405180910390fd5b612b0a60128461385a565b92506000612b1a8460000b612e8c565b612b2590600a613977565b905060008460000b1215612b4c57612b47856001600160c01b03168285612ea4565b612b5f565b612b5f816001600160c01b038716613983565b95945050505050565b6060600080856001600160a01b031685604051612b8591906139a2565b600060405180830381855af49150503d8060008114612bc0576040519150601f19603f3d011682016040523d82523d6000602084013e612bc5565b606091505b5091509150612bd686838387612f44565b9695505050505050565b612be9816126de565b6040516001600160a01b038216907fbc7cd75a20ee27fd9adebab32041f755214dbc6bffa90cc0225b39da2e5c2d3b90600090a250565b60606001600160a01b0383163b612c885760405162461bcd60e51b815260206004820152602660248201527f416464726573733a2064656c65676174652063616c6c20746f206e6f6e2d636f6044820152651b9d1c9858dd60d21b6064820152608401610508565b600080846001600160a01b031684604051612ca391906139a2565b600060405180830381855af49150503d8060008114612cde576040519150601f19603f3d011682016040523d82523d6000602084013e612ce3565b606091505b5091509150612b5f8282604051806060016040528060278152602001613a6960279139612fba565b60606129768484600085612fd3565b6000806001600160c01b03831615612a1c57612a176001600160c01b038516846001612d4f565b60006126d783836000612a8a565b6000612976612a85612d72670de0b6b3a76400006001600160c01b038816613983565b856001600160c01b031685612ea4565b6000612976612a85612da06001600160c01b03808716908816613983565b670de0b6b3a764000085612ea4565b600080612dbd8686866130ae565b90506000836002811115612dd357612dd3613844565b1415612de0579050612976565b60008480612df057612df06139be565b86880990506002846002811115612e0957612e09613844565b1415612e28578015612e2357612e206001836139d4565b91505b612e54565b6002612e356001876139ec565b612e3f9190613a03565b811115612e5457612e516001836139d4565b91505b5095945050505050565b60006001600160c01b03821115612e885760405163f44398f560e01b815260040160405180910390fd5b5090565b6000808212612e9b5781611793565b61179382613a17565b600080612eb18486613a03565b90506000836002811115612ec757612ec7613844565b1415612ed45790506126d7565b6001836002811115612ee857612ee8613844565b1415612f28576002612efb6001866139ec565b612f059190613a03565b612f0f8587613a34565b1115612f235780612f1f81613757565b9150505b612976565b6000612f348587613a34565b11156129765780612bd681613757565b60608315612fb0578251612fa9576001600160a01b0385163b612fa95760405162461bcd60e51b815260206004820152601d60248201527f416464726573733a2063616c6c20746f206e6f6e2d636f6e74726163740000006044820152606401610508565b5081612976565b6129768383613191565b60608315612fc95750816126d7565b6126d78383613191565b6060824710156130345760405162461bcd60e51b815260206004820152602660248201527f416464726573733a20696e73756666696369656e742062616c616e636520666f6044820152651c8818d85b1b60d21b6064820152608401610508565b600080866001600160a01b0316858760405161305091906139a2565b60006040518083038185875af1925050503d806000811461308d576040519150601f19603f3d011682016040523d82523d6000602084013e613092565b606091505b50915091506130a387838387612f44565b979650505050505050565b60008060006130bd86866131bb565b915091508382106130e15760405163f44398f560e01b815260040160405180910390fd5b600084806130f1576130f16139be565b868809905081811115613105576001830392505b908190039060008590038516808681613120576131206139be565b049550808381613132576131326139be565b049250808160000381613147576131476139be565b046001019390930291909101600285810380870282030280870282030280870282030280870282030280870282030280870282030295860290039094029390930295945050505050565b8151156131a15781518083602001fd5b8060405162461bcd60e51b8152600401610508919061337e565b60008080600019848609905083850291508181039250818110156131e0576001830392505b509250929050565b6001600160a01b038116811461081657600080fd5b60006020828403121561320f57600080fd5b81356126d7816131e8565b6001600160c01b038116811461081657600080fd5b60006020828403121561324157600080fd5b81356126d78161321a565b634e487b7160e01b600052604160045260246000fd5b6000806040838503121561327557600080fd5b8235613280816131e8565b9150602083013567ffffffffffffffff8082111561329d57600080fd5b818501915085601f8301126132b157600080fd5b8135818111156132c3576132c361324c565b604051601f8201601f19908116603f011681019083821181831017156132eb576132eb61324c565b8160405282815288602084870101111561330457600080fd5b8260208601602083013760006020848301015280955050505050509250929050565b60005b83811015613341578181015183820152602001613329565b83811115610c1b5750506000910152565b6000815180845261336a816020860160208601613326565b601f01601f19169290920160200192915050565b6020815260006126d76020830184613352565b600080600080608085870312156133a757600080fd5b84356133b2816131e8565b935060208501356133c2816131e8565b925060408501356133d28161321a565b915060608501356133e28161321a565b939692955090935050565b6000602082840312156133ff57600080fd5b5035919050565b6000806020838503121561341957600080fd5b823567ffffffffffffffff8082111561343157600080fd5b818501915085601f83011261344557600080fd5b81358181111561345457600080fd5b8660208260051b850101111561346957600080fd5b60209290920196919550909350505050565b6000602080830181845280855180835260408601915060408160051b870101925083870160005b828110156134d057603f198886030184526134be858351613352565b945092850192908501906001016134a2565b5092979650505050505050565b6000602082840312156134ef57600080fd5b815180151581146126d757600080fd5b60208082526010908201526f3830bab9b2b21037b910333937bd32b760811b604082015260600190565b634e487b7160e01b600052601160045260246000fd5b600065ffffffffffff82168061355757613557613529565b6000190192915050565b6000806040838503121561357457600080fd5b505080516020909101519092909150565b60006020828403121561359757600080fd5b81516126d7816131e8565b6020808252602c908201527f46756e6374696f6e206d7573742062652063616c6c6564207468726f7567682060408201526b19195b1959d85d1958d85b1b60a21b606082015260800190565b6020808252602c908201527f46756e6374696f6e206d7573742062652063616c6c6564207468726f7567682060408201526b6163746976652070726f787960a01b606082015260800190565b8051602080830151919081101561365b576000198160200360031b1b821691505b50919050565b6020808252600f908201526e676f7665726e616e6365206f6e6c7960881b604082015260600190565b60006020828403121561369c57600080fd5b5051919050565b600080604083850312156136b657600080fd5b82516136c18161321a565b60208401519092506136d28161321a565b809150509250929050565b6000602082840312156136ef57600080fd5b81516126d78161321a565b634e487b7160e01b600052603260045260246000fd5b6000808335601e1984360301811261372757600080fd5b83018035915067ffffffffffffffff82111561374257600080fd5b6020019150368190038213156123cb57600080fd5b600060001982141561376b5761376b613529565b5060010190565b6020808252602b908201527f496e697469616c697a61626c653a20636f6e7472616374206973206e6f74206960408201526a6e697469616c697a696e6760a81b606082015260800190565b634e487b7160e01b600052600160045260246000fd5b6000602082840312156137e557600080fd5b815160ff811681146126d757600080fd5b600065ffffffffffff8083168181141561381257613812613529565b6001019392505050565b60006001600160c01b038381169083168181101561383c5761383c613529565b039392505050565b634e487b7160e01b600052602160045260246000fd5b600081810b83820b8281128015607f1983018412161561387c5761387c613529565b81607f01831381161561389157613891613529565b5090039392505050565b600181815b808511156131e05781600019048211156138bc576138bc613529565b808516156138c957918102915b93841c93908002906138a0565b6000826138e557506001611793565b816138f257506000611793565b816001811461390857600281146139125761392e565b6001915050611793565b60ff84111561392357613923613529565b50506001821b611793565b5060208310610133831016604e8410600b8410161715613951575081810a611793565b61395b838361389b565b806000190482111561396f5761396f613529565b029392505050565b60006126d783836138d6565b600081600019048311821515161561399d5761399d613529565b500290565b600082516139b4818460208701613326565b9190910192915050565b634e487b7160e01b600052601260045260246000fd5b600082198211156139e7576139e7613529565b500190565b6000828210156139fe576139fe613529565b500390565b600082613a1257613a126139be565b500490565b6000600160ff1b821415613a2d57613a2d613529565b5060000390565b600082613a4357613a436139be565b50069056fe360894a13ba1a3210667c828492db98dca3e2076cc3735a920a3ca505d382bbc416464726573733a206c6f772d6c6576656c2064656c65676174652063616c6c206661696c6564a264697066735822122039c4212b66f38cdc37e59b5e2f35a2853ee1d99f15ead821be0e5b4e7996b0ec64736f6c63430008090033",
  "linkReferences": {
    "contracts/reserve/p1/mixins/RewardableLib.sol": {
      "RewardableLibP1": [
        {
          "length": 20,
          "start": 3250
        },
        {
          "length": 20,
          "start": 6598
        }
      ]
    }
  },
  "deployedLinkReferences": {
    "contracts/reserve/p1/mixins/RewardableLib.sol": {
      "RewardableLibP1": [
        {
          "length": 20,
          "start": 2858
        },
        {
          "length": 20,
          "start": 6206
        }
      ]
    }
  }
}