{
  "_format": "hh-sol-artifact-1",
  "contractName": "MockICY",
  "sourceName": "contracts/mocks/MockICY.sol",
  "abi": [
    {
      "inputs": [],
      "stateMutability": "nonpayable",
      "type": "constructor"
    },
    {
      "inputs": [
        {
          "internalType": "address",
          "name": "asset",
          "type": "address"
        },
        {
          "internalType": "address",
          "name": "who",
          "type": "address"
        }
      ],
      "name": "balanceOf",
      "outputs": [
        {
          "internalType": "uint256",
          "name": "",
          "type": "uint256"
        }
      ],
      "stateMutability": "view",
      "type": "function"
    },
    {
      "inputs": [
        {
          "internalType": "address",
          "name": "asset",
          "type": "address"
        },
        {
          "internalType": "uint256",
          "name": "mintAmount",
          "type": "uint256"
        }
      ],
      "name": "mint",
      "outputs": [
        {
          "internalType": "uint256",
          "name": "",
          "type": "uint256"
        }
      ],
      "stateMutability": "nonpayable",
      "type": "function"
    },
    {
      "inputs": [
        {
          "internalType": "address",
          "name": "asset",
          "type": "address"
        },
        {
          "internalType": "uint256",
          "name": "redeemTokens",
          "type": "uint256"
        }
      ],
      "name": "redeem",
      "outputs": [
        {
          "internalType": "uint256",
          "name": "",
          "type": "uint256"
        }
      ],
      "stateMutability": "nonpayable",
      "type": "function"
    }
  ],
  "bytecode": "0x608060405234801561001057600080fd5b5061042a806100206000396000f3fe608060405234801561001057600080fd5b50600436106100415760003560e01c80631e9a69501461004657806340c10f191461006b578063f7888aec1461007e575b600080fd5b610059610054366004610310565b6100b5565b60405190815260200160405180910390f35b610059610079366004610310565b610239565b61005961008c36600461033a565b6001600160a01b0391821660009081526020818152604080832093909416825291909152205490565b6040516370a0823160e01b815230600482015260009082906001600160a01b038516906370a082319060240160206040518083038186803b1580156100f957600080fd5b505afa15801561010d573d6000803e3d6000fd5b505050506040513d601f19601f82011682018060405250810190610131919061036d565b10156101795760405162461bcd60e51b8152602060048201526013602482015272125b9cdd59999a58da595b9d08185b5bdd5b9d606a1b604482015260640160405180910390fd5b60405163a9059cbb60e01b8152336004820152602481018390526001600160a01b0384169063a9059cbb90604401602060405180830381600087803b1580156101c157600080fd5b505af11580156101d5573d6000803e3d6000fd5b505050506040513d601f19601f820116820180604052508101906101f99190610386565b506001600160a01b0383166000908152602081815260408083203384529091528120805484929061022b9084906103c5565b909155506000949350505050565b6040516323b872dd60e01b8152336004820152306024820152604481018290526000906001600160a01b038416906323b872dd90606401602060405180830381600087803b15801561028a57600080fd5b505af115801561029e573d6000803e3d6000fd5b505050506040513d601f19601f820116820180604052508101906102c29190610386565b506001600160a01b0383166000908152602081815260408083203384529091528120805484929061022b9084906103dc565b80356001600160a01b038116811461030b57600080fd5b919050565b6000806040838503121561032357600080fd5b61032c836102f4565b946020939093013593505050565b6000806040838503121561034d57600080fd5b610356836102f4565b9150610364602084016102f4565b90509250929050565b60006020828403121561037f57600080fd5b5051919050565b60006020828403121561039857600080fd5b815180151581146103a857600080fd5b9392505050565b634e487b7160e01b600052601160045260246000fd5b6000828210156103d7576103d76103af565b500390565b600082198211156103ef576103ef6103af565b50019056fea2646970667358221220bcadef90f39539dd44beb61af34d0e2fa85aa4f10cf118c16cd3b09ff06cb1e164736f6c63430008090033",
  "linkReferences": {},
  "deployedLinkReferences": {}
}