{
  "_format": "hh-sol-artifact-1",
  "contractName": "BackingManagerP0",
  "sourceName": "contracts/reserve/p0/BackingManager.sol",
  "abi": [
    {
      "inputs": [],
      "name": "UIntOutOfBounds",
      "type": "error"
    },
    {
      "anonymous": false,
      "inputs": [
        {
          "indexed": true,
          "internalType": "uint192",
          "name": "oldVal",
          "type": "uint192"
        },
        {
          "indexed": true,
          "internalType": "uint192",
          "name": "newVal",
          "type": "uint192"
        }
      ],
      "name": "BackingBufferSet",
      "type": "event"
    },
    {
      "anonymous": false,
      "inputs": [
        {
          "indexed": false,
          "internalType": "uint8",
          "name": "version",
          "type": "uint8"
        }
      ],
      "name": "Initialized",
      "type": "event"
    },
    {
      "anonymous": false,
      "inputs": [
        {
          "indexed": true,
          "internalType": "uint192",
          "name": "oldVal",
          "type": "uint192"
        },
        {
          "indexed": true,
          "internalType": "uint192",
          "name": "newVal",
          "type": "uint192"
        }
      ],
      "name": "MaxTradeSlippageSet",
      "type": "event"
    },
    {
      "anonymous": false,
      "inputs": [
        {
          "indexed": true,
          "internalType": "uint192",
          "name": "oldVal",
          "type": "uint192"
        },
        {
          "indexed": true,
          "internalType": "uint192",
          "name": "newVal",
          "type": "uint192"
        }
      ],
      "name": "MinTradeVolumeSet",
      "type": "event"
    },
    {
      "anonymous": false,
      "inputs": [
        {
          "indexed": true,
          "internalType": "contract IERC20",
          "name": "erc20",
          "type": "address"
        },
        {
          "indexed": true,
          "internalType": "uint256",
          "name": "amount",
          "type": "uint256"
        }
      ],
      "name": "RewardsClaimed",
      "type": "event"
    },
    {
      "anonymous": false,
      "inputs": [
        {
          "indexed": true,
          "internalType": "contract ITrade",
          "name": "trade",
          "type": "address"
        },
        {
          "indexed": true,
          "internalType": "contract IERC20",
          "name": "sell",
          "type": "address"
        },
        {
          "indexed": true,
          "internalType": "contract IERC20",
          "name": "buy",
          "type": "address"
        },
        {
          "indexed": false,
          "internalType": "uint256",
          "name": "sellAmount",
          "type": "uint256"
        },
        {
          "indexed": false,
          "internalType": "uint256",
          "name": "buyAmount",
          "type": "uint256"
        }
      ],
      "name": "TradeSettled",
      "type": "event"
    },
    {
      "anonymous": false,
      "inputs": [
        {
          "indexed": true,
          "internalType": "contract ITrade",
          "name": "trade",
          "type": "address"
        },
        {
          "indexed": true,
          "internalType": "contract IERC20",
          "name": "sell",
          "type": "address"
        },
        {
          "indexed": true,
          "internalType": "contract IERC20",
          "name": "buy",
          "type": "address"
        },
        {
          "indexed": false,
          "internalType": "uint256",
          "name": "sellAmount",
          "type": "uint256"
        },
        {
          "indexed": false,
          "internalType": "uint256",
          "name": "minBuyAmount",
          "type": "uint256"
        }
      ],
      "name": "TradeStarted",
      "type": "event"
    },
    {
      "anonymous": false,
      "inputs": [
        {
          "indexed": true,
          "internalType": "uint48",
          "name": "oldVal",
          "type": "uint48"
        },
        {
          "indexed": true,
          "internalType": "uint48",
          "name": "newVal",
          "type": "uint48"
        }
      ],
      "name": "TradingDelaySet",
      "type": "event"
    },
    {
      "inputs": [],
      "name": "MAX_BACKING_BUFFER",
      "outputs": [
        {
          "internalType": "uint192",
          "name": "",
          "type": "uint192"
        }
      ],
      "stateMutability": "view",
      "type": "function"
    },
    {
      "inputs": [],
      "name": "MAX_TRADE_SLIPPAGE",
      "outputs": [
        {
          "internalType": "uint192",
          "name": "",
          "type": "uint192"
        }
      ],
      "stateMutability": "view",
      "type": "function"
    },
    {
      "inputs": [],
      "name": "MAX_TRADE_VOLUME",
      "outputs": [
        {
          "internalType": "uint192",
          "name": "",
          "type": "uint192"
        }
      ],
      "stateMutability": "view",
      "type": "function"
    },
    {
      "inputs": [],
      "name": "MAX_TRADING_DELAY",
      "outputs": [
        {
          "internalType": "uint48",
          "name": "",
          "type": "uint48"
        }
      ],
      "stateMutability": "view",
      "type": "function"
    },
    {
      "inputs": [],
      "name": "backingBuffer",
      "outputs": [
        {
          "internalType": "uint192",
          "name": "",
          "type": "uint192"
        }
      ],
      "stateMutability": "view",
      "type": "function"
    },
    {
      "inputs": [],
      "name": "claimRewards",
      "outputs": [],
      "stateMutability": "nonpayable",
      "type": "function"
    },
    {
      "inputs": [
        {
          "internalType": "contract IERC20",
          "name": "erc20",
          "type": "address"
        }
      ],
      "name": "claimRewardsSingle",
      "outputs": [],
      "stateMutability": "nonpayable",
      "type": "function"
    },
    {
      "inputs": [
        {
          "internalType": "contract IERC20",
          "name": "erc20",
          "type": "address"
        }
      ],
      "name": "grantRTokenAllowance",
      "outputs": [],
      "stateMutability": "nonpayable",
      "type": "function"
    },
    {
      "inputs": [
        {
          "internalType": "contract IMain",
          "name": "main_",
          "type": "address"
        },
        {
          "internalType": "uint48",
          "name": "tradingDelay_",
          "type": "uint48"
        },
        {
          "internalType": "uint192",
          "name": "backingBuffer_",
          "type": "uint192"
        },
        {
          "internalType": "uint192",
          "name": "maxTradeSlippage_",
          "type": "uint192"
        },
        {
          "internalType": "uint192",
          "name": "maxTradeVolume_",
          "type": "uint192"
        }
      ],
      "name": "init",
      "outputs": [],
      "stateMutability": "nonpayable",
      "type": "function"
    },
    {
      "inputs": [],
      "name": "main",
      "outputs": [
        {
          "internalType": "contract IMain",
          "name": "",
          "type": "address"
        }
      ],
      "stateMutability": "view",
      "type": "function"
    },
    {
      "inputs": [
        {
          "internalType": "contract IERC20[]",
          "name": "erc20s",
          "type": "address[]"
        }
      ],
      "name": "manageTokens",
      "outputs": [],
      "stateMutability": "nonpayable",
      "type": "function"
    },
    {
      "inputs": [
        {
          "internalType": "contract IERC20[]",
          "name": "erc20s",
          "type": "address[]"
        }
      ],
      "name": "manageTokensSortedOrder",
      "outputs": [],
      "stateMutability": "nonpayable",
      "type": "function"
    },
    {
      "inputs": [],
      "name": "maxTradeSlippage",
      "outputs": [
        {
          "internalType": "uint192",
          "name": "",
          "type": "uint192"
        }
      ],
      "stateMutability": "view",
      "type": "function"
    },
    {
      "inputs": [],
      "name": "minTradeVolume",
      "outputs": [
        {
          "internalType": "uint192",
          "name": "",
          "type": "uint192"
        }
      ],
      "stateMutability": "view",
      "type": "function"
    },
    {
      "inputs": [
        {
          "internalType": "uint192",
          "name": "val",
          "type": "uint192"
        }
      ],
      "name": "setBackingBuffer",
      "outputs": [],
      "stateMutability": "nonpayable",
      "type": "function"
    },
    {
      "inputs": [
        {
          "internalType": "uint192",
          "name": "val",
          "type": "uint192"
        }
      ],
      "name": "setMaxTradeSlippage",
      "outputs": [],
      "stateMutability": "nonpayable",
      "type": "function"
    },
    {
      "inputs": [
        {
          "internalType": "uint192",
          "name": "val",
          "type": "uint192"
        }
      ],
      "name": "setMinTradeVolume",
      "outputs": [],
      "stateMutability": "nonpayable",
      "type": "function"
    },
    {
      "inputs": [
        {
          "internalType": "uint48",
          "name": "val",
          "type": "uint48"
        }
      ],
      "name": "setTradingDelay",
      "outputs": [],
      "stateMutability": "nonpayable",
      "type": "function"
    },
    {
      "inputs": [
        {
          "internalType": "contract IERC20",
          "name": "sell",
          "type": "address"
        }
      ],
      "name": "settleTrade",
      "outputs": [],
      "stateMutability": "nonpayable",
      "type": "function"
    },
    {
      "inputs": [
        {
          "internalType": "contract IERC20",
          "name": "",
          "type": "address"
        }
      ],
      "name": "trades",
      "outputs": [
        {
          "internalType": "contract ITrade",
          "name": "",
          "type": "address"
        }
      ],
      "stateMutability": "view",
      "type": "function"
    },
    {
      "inputs": [],
      "name": "tradesOpen",
      "outputs": [
        {
          "internalType": "uint48",
          "name": "",
          "type": "uint48"
        }
      ],
      "stateMutability": "view",
      "type": "function"
    },
    {
      "inputs": [],
      "name": "tradingDelay",
      "outputs": [
        {
          "internalType": "uint48",
          "name": "",
          "type": "uint48"
        }
      ],
      "stateMutability": "view",
      "type": "function"
    },
    {
      "inputs": [
        {
          "internalType": "uint256",
          "name": "x",
          "type": "uint256"
        },
        {
          "internalType": "uint256",
          "name": "y",
          "type": "uint256"
        },
        {
          "internalType": "uint256",
          "name": "z",
          "type": "uint256"
        }
      ],
      "name": "tryMulDiv256Ceil",
      "outputs": [
        {
          "internalType": "uint256",
          "name": "",
          "type": "uint256"
        }
      ],
      "stateMutability": "pure",
      "type": "function"
    },
    {
      "inputs": [],
      "name": "version",
      "outputs": [
        {
          "internalType": "string",
          "name": "",
          "type": "string"
        }
      ],
      "stateMutability": "pure",
      "type": "function"
    }
  ],
  "bytecode": "0x608060405234801561001057600080fd5b50614de5806100206000396000f3fe608060405234801561001057600080fd5b50600436106101585760003560e01c806398026d94116100c3578063bcaeb7b91161007c578063bcaeb7b91461032a578063c76aeb121461033d578063cb9414f81461034f578063d50e7a701461031b578063dffeadd014610362578063e7227de61461037557600080fd5b806398026d941461028d578063a8372fd8146102a0578063a9f752e5146102b3578063adaef42c146102f4578063b51f8f8814610307578063b9bebb041461031b57600080fd5b806336a02f571161011557806336a02f5714610212578063372500ab14610225578063386eafd91461022d5780633f0568531461024057806354fd4d50146102535780637cbf6db21461027a57600080fd5b80630db3d42c1461015d5780630e0264d11461019457806310e4d36b146101a957806312701397146101bc5780631e911a5c146101cf5780632bca33e9146101f0575b600080fd5b60355461017790600160301b90046001600160c01b031681565b6040516001600160c01b0390911681526020015b60405180910390f35b6101a76101a236600461444e565b61038e565b005b6101a76101b7366004614480565b61072e565b603754610177906001600160c01b031681565b6101e26101dd36600461449d565b6108b7565b60405190815260200161018b565b6101fb6301e1338081565b60405165ffffffffffff909116815260200161018b565b6101a7610220366004614480565b6108d0565b6101a7610a5f565b6101a761023b3660046144dd565b610da1565b6101a761024e3660046144fa565b610f32565b60408051808201825260058152640312e322e360dc1b6020820152905161018b919061459f565b603654610177906001600160c01b031681565b6101a761029b36600461444e565b61106b565b6101a76102ae3660046144fa565b611371565b6102dc6102c136600461444e565b6034602052600090815260409020546001600160a01b031681565b6040516001600160a01b03909116815260200161018b565b6101a761030236600461444e565b61148f565b6101776c01431e0fae6d7217caa000000081565b610177670de0b6b3a764000081565b6101a76103383660046145d2565b611692565b6035546101fb9065ffffffffffff1681565b6101a761035d366004614480565b6117c5565b6033546102dc906001600160a01b031681565b6036546101fb90600160c01b900465ffffffffffff1681565b603360009054906101000a90046001600160a01b03166001600160a01b031663f17063756040518163ffffffff1660e01b815260040160206040518083038186803b1580156103dc57600080fd5b505afa1580156103f0573d6000803e3d6000fd5b505050506040513d601f19601f820116820180604052508101906104149190614658565b1561043a5760405162461bcd60e51b815260040161043190614673565b60405180910390fd5b6001600160a01b03808216600090815260346020526040902054168061045e575050565b806001600160a01b031663faf7ba6a6040518163ffffffff1660e01b815260040160206040518083038186803b15801561049757600080fd5b505afa1580156104ab573d6000803e3d6000fd5b505050506040513d601f19601f820116820180604052508101906104cf9190614658565b61050f5760405162461bcd60e51b815260206004820152601160248201527018d85b9b9bdd081cd95d1d1b19481e595d607a1b6044820152606401610431565b6001600160a01b038216600090815260346020526040812080546001600160a01b03191690556035805465ffffffffffff169161054b836146b3565b91906101000a81548165ffffffffffff021916908365ffffffffffff16021790555050600080826001600160a01b03166311da60b46040518163ffffffff1660e01b81526004016040805180830381600087803b1580156105ab57600080fd5b505af11580156105bf573d6000803e3d6000fd5b505050506040513d601f19601f820116820180604052508101906105e391906146d5565b91509150826001600160a01b031663a6f2ae3a6040518163ffffffff1660e01b815260040160206040518083038186803b15801561062057600080fd5b505afa158015610634573d6000803e3d6000fd5b505050506040513d601f19601f8201168201806040525081019061065891906146f9565b6001600160a01b0316836001600160a01b031663457100746040518163ffffffff1660e01b815260040160206040518083038186803b15801561069a57600080fd5b505afa1580156106ae573d6000803e3d6000fd5b505050506040513d601f19601f820116820180604052508101906106d291906146f9565b6001600160a01b0316846001600160a01b03167f058fb1fa484531f400806f666315faf1a45941db93ba069405882b78ba40dc87858560405161071f929190918252602082015260400190565b60405180910390a45050505b50565b60335460408051808201909152600581526427aba722a960d91b60208201526001600160a01b03909116906391d148549061076890614716565b336040516001600160e01b031960e085901b16815260048101929092526001600160a01b0316602482015260440160206040518083038186803b1580156107ae57600080fd5b505afa1580156107c2573d6000803e3d6000fd5b505050506040513d601f19601f820116820180604052508101906107e69190614658565b6108025760405162461bcd60e51b81526004016104319061473d565b670de0b6b3a76400006001600160c01b038216111561085b5760405162461bcd60e51b815260206004820152601560248201527434b73b30b634b2103130b1b5b4b733a13ab33332b960591b6044820152606401610431565b6037546040516001600160c01b038084169216907f4ec8ac3ba3ecc0b9d7690e98f4bf8f5c70b8f2a9b4326c757b44ba3d19c1879690600090a3603780546001600160c01b0319166001600160c01b0392909216919091179055565b60006108c68484846002611969565b90505b9392505050565b60335460408051808201909152600581526427aba722a960d91b60208201526001600160a01b03909116906391d148549061090a90614716565b336040516001600160e01b031960e085901b16815260048101929092526001600160a01b0316602482015260440160206040518083038186803b15801561095057600080fd5b505afa158015610964573d6000803e3d6000fd5b505050506040513d601f19601f820116820180604052508101906109889190614658565b6109a45760405162461bcd60e51b81526004016104319061473d565b6c01431e0fae6d7217caa00000006001600160c01b0382161115610a035760405162461bcd60e51b8152602060048201526016602482015275696e76616c6964206d696e5472616465566f6c756d6560501b6044820152606401610431565b6036546040516001600160c01b038084169216907f1dec1ae9fd64ef0d8a6b130d853a8ab21d337625027cc60c63028f3d383495dc90600090a3603680546001600160c01b0319166001600160c01b0392909216919091179055565b603360009054906101000a90046001600160a01b03166001600160a01b031663f17063756040518163ffffffff1660e01b815260040160206040518083038186803b158015610aad57600080fd5b505afa158015610ac1573d6000803e3d6000fd5b505050506040513d601f19601f82011682018060405250810190610ae59190614658565b15610b025760405162461bcd60e51b815260040161043190614673565b603360009054906101000a90046001600160a01b03166001600160a01b031663181783586040518163ffffffff1660e01b8152600401600060405180830381600087803b158015610b5257600080fd5b505af1158015610b66573d6000803e3d6000fd5b505050506000603360009054906101000a90046001600160a01b03166001600160a01b031663979d7e866040518163ffffffff1660e01b815260040160206040518083038186803b158015610bba57600080fd5b505afa158015610bce573d6000803e3d6000fd5b505050506040513d601f19601f82011682018060405250810190610bf291906146f9565b90506000816001600160a01b0316632510a1d76040518163ffffffff1660e01b815260040160006040518083038186803b158015610c2f57600080fd5b505afa158015610c43573d6000803e3d6000fd5b505050506040513d6000823e601f3d908101601f19168201604052610c6b91908101906147ad565b905060005b8151811015610d9c576000836001600160a01b031663cde2be8a848481518110610c9c57610c9c61485f565b60200260200101516040518263ffffffff1660e01b8152600401610ccf91906001600160a01b0391909116815260200190565b60206040518083038186803b158015610ce757600080fd5b505afa158015610cfb573d6000803e3d6000fd5b505050506040513d601f19601f82011682018060405250810190610d1f91906146f9565b6040805160048152602481018252602080820180516001600160e01b031663372500ab60e01b179052825180840190935260148352731c995dd85c991cc818db185a5b4819985a5b195960621b90830152919250610d87916001600160a01b03841691611a1a565b50508080610d9490614875565b915050610c70565b505050565b60335460408051808201909152600581526427aba722a960d91b60208201526001600160a01b03909116906391d1485490610ddb90614716565b336040516001600160e01b031960e085901b16815260048101929092526001600160a01b0316602482015260440160206040518083038186803b158015610e2157600080fd5b505afa158015610e35573d6000803e3d6000fd5b505050506040513d601f19601f82011682018060405250810190610e599190614658565b610e755760405162461bcd60e51b81526004016104319061473d565b6301e1338065ffffffffffff82161115610ec85760405162461bcd60e51b8152602060048201526014602482015273696e76616c69642074726164696e6744656c617960601b6044820152606401610431565b60365460405165ffffffffffff80841692600160c01b900416907f4af929ab8885bbdcb8b01903439a99e3fb33354657d151119f731b01db793bdb90600090a36036805465ffffffffffff909216600160c01b0265ffffffffffff60c01b19909216919091179055565b603360009054906101000a90046001600160a01b03166001600160a01b031663f17063756040518163ffffffff1660e01b815260040160206040518083038186803b158015610f8057600080fd5b505afa158015610f94573d6000803e3d6000fd5b505050506040513d601f19601f82011682018060405250810190610fb89190614658565b15610fd55760405162461bcd60e51b815260040161043190614673565b611011828280806020026020016040519081016040528093929190818152602001838360200280828437600092019190915250611a9292505050565b61105d5760405162461bcd60e51b815260206004820152601960248201527f6475706c69636174652f756e736f7274656420746f6b656e73000000000000006044820152606401610431565b6110678282611b1b565b5050565b603360009054906101000a90046001600160a01b03166001600160a01b031663f17063756040518163ffffffff1660e01b815260040160206040518083038186803b1580156110b957600080fd5b505afa1580156110cd573d6000803e3d6000fd5b505050506040513d601f19601f820116820180604052508101906110f19190614658565b1561110e5760405162461bcd60e51b815260040161043190614673565b603360009054906101000a90046001600160a01b03166001600160a01b031663979d7e866040518163ffffffff1660e01b815260040160206040518083038186803b15801561115c57600080fd5b505afa158015611170573d6000803e3d6000fd5b505050506040513d601f19601f8201168201806040525081019061119491906146f9565b60405163c3c5a54760e01b81526001600160a01b038381166004830152919091169063c3c5a5479060240160206040518083038186803b1580156111d757600080fd5b505afa1580156111eb573d6000803e3d6000fd5b505050506040513d601f19601f8201168201806040525081019061120f9190614658565b6112505760405162461bcd60e51b8152602060048201526012602482015271195c98cc8c081d5b9c9959da5cdd195c995960721b6044820152606401610431565b603354604080516320632fb960e11b815290516112e0926001600160a01b0316916340c65f72916004808301926020929190829003018186803b15801561129657600080fd5b505afa1580156112aa573d6000803e3d6000fd5b505050506040513d601f19601f820116820180604052508101906112ce91906146f9565b6001600160a01b0383169060006122b2565b603354604080516320632fb960e11b8152905161072b926001600160a01b0316916340c65f72916004808301926020929190829003018186803b15801561132657600080fd5b505afa15801561133a573d6000803e3d6000fd5b505050506040513d601f19601f8201168201806040525081019061135e91906146f9565b6001600160a01b038316906000196122b2565b603360009054906101000a90046001600160a01b03166001600160a01b031663f17063756040518163ffffffff1660e01b815260040160206040518083038186803b1580156113bf57600080fd5b505afa1580156113d3573d6000803e3d6000fd5b505050506040513d601f19601f820116820180604052508101906113f79190614658565b156114145760405162461bcd60e51b815260040161043190614673565b61145082828080602002602001604051908101604052809392919081815260200183836020028082843760009201919091525061240992505050565b61105d5760405162461bcd60e51b815260206004820152601060248201526f6475706c696361746520746f6b656e7360801b6044820152606401610431565b603360009054906101000a90046001600160a01b03166001600160a01b031663f17063756040518163ffffffff1660e01b815260040160206040518083038186803b1580156114dd57600080fd5b505afa1580156114f1573d6000803e3d6000fd5b505050506040513d601f19601f820116820180604052508101906115159190614658565b156115325760405162461bcd60e51b815260040161043190614673565b60335460408051634bcebf4360e11b815290516000926001600160a01b03169163979d7e86916004808301926020929190829003018186803b15801561157757600080fd5b505afa15801561158b573d6000803e3d6000fd5b505050506040513d601f19601f820116820180604052508101906115af91906146f9565b6040516366f15f4560e11b81526001600160a01b038481166004830152919091169063cde2be8a9060240160206040518083038186803b1580156115f257600080fd5b505afa158015611606573d6000803e3d6000fd5b505050506040513d601f19601f8201168201806040525081019061162a91906146f9565b6040805160048152602481018252602080820180516001600160e01b031663372500ab60e01b179052825180840190935260148352731c995dd85c991cc818db185a5b4819985a5b195960621b90830152919250610d9c916001600160a01b03841691611a1a565b600054610100900460ff16158080156116b25750600054600160ff909116105b806116cc5750303b1580156116cc575060005460ff166001145b61172f5760405162461bcd60e51b815260206004820152602e60248201527f496e697469616c697a61626c653a20636f6e747261637420697320616c72656160448201526d191e481a5b9a5d1a585b1a5e995960921b6064820152608401610431565b6000805460ff191660011790558015611752576000805461ff0019166101001790555b61175b8661249c565b6117658383612532565b61176e85610da1565b6117778461072e565b80156117bd576000805461ff0019169055604051600181527f7f26b83ff96e1f2b6a682f133852f6798a09c465da95921460cefb38474024989060200160405180910390a15b505050505050565b60335460408051808201909152600581526427aba722a960d91b60208201526001600160a01b03909116906391d14854906117ff90614716565b336040516001600160e01b031960e085901b16815260048101929092526001600160a01b0316602482015260440160206040518083038186803b15801561184557600080fd5b505afa158015611859573d6000803e3d6000fd5b505050506040513d601f19601f8201168201806040525081019061187d9190614658565b6118995760405162461bcd60e51b81526004016104319061473d565b670de0b6b3a76400006001600160c01b038216106118f95760405162461bcd60e51b815260206004820152601860248201527f696e76616c6964206d61785472616465536c69707061676500000000000000006044820152606401610431565b6035546040516001600160c01b0380841692600160301b900416907f58d1f6b92b372d2913abb309ec9503acc2a53ed508ec34f478d7aeab07760f9990600090a3603580546001600160c01b03909216600160301b026601000000000000600160f01b0319909216919091179055565b60008061197786868661256b565b9050600083600281111561198d5761198d614890565b141561199a579050611a12565b600084806119aa576119aa6148a6565b868809905060028460028111156119c3576119c3614890565b14156119e25780156119dd576119da6001836148bc565b91505b611a0e565b60026119ef6001876148d4565b6119f991906148eb565b811115611a0e57611a0b6001836148bc565b91505b5090505b949350505050565b6060600080856001600160a01b031685604051611a3791906148ff565b600060405180830381855af49150503d8060008114611a72576040519150601f19603f3d011682016040523d82523d6000602084013e611a77565b606091505b5091509150611a888683838761264e565b9695505050505050565b805160009060015b81811015611b115783611aae6001836148d4565b81518110611abe57611abe61485f565b60200260200101516001600160a01b0316848281518110611ae157611ae161485f565b60200260200101516001600160a01b031611611b01575060009392505050565b611b0a81614875565b9050611a9a565b5060019392505050565b603360009054906101000a90046001600160a01b03166001600160a01b031663181783586040518163ffffffff1660e01b8152600401600060405180830381600087803b158015611b6b57600080fd5b505af1158015611b7f573d6000803e3d6000fd5b505060355465ffffffffffff16159150611b999050575050565b60335460408051632f2439b160e01b815290516000926001600160a01b031691632f2439b1916004808301926020929190829003018186803b158015611bde57600080fd5b505afa158015611bf2573d6000803e3d6000fd5b505050506040513d601f19601f82011682018060405250810190611c1691906146f9565b6001600160a01b031663200d2ed26040518163ffffffff1660e01b815260040160206040518083038186803b158015611c4e57600080fd5b505afa158015611c62573d6000803e3d6000fd5b505050506040513d601f19601f82011682018060405250810190611c86919061491b565b6002811115611c9757611c97614890565b14611cd75760405162461bcd60e51b815260206004820152601060248201526f18985cdad95d081b9bdd081cdbdd5b9960821b6044820152606401610431565b60335460408051632f2439b160e01b815290516000926001600160a01b031691632f2439b1916004808301926020929190829003018186803b158015611d1c57600080fd5b505afa158015611d30573d6000803e3d6000fd5b505050506040513d601f19601f82011682018060405250810190611d5491906146f9565b6001600160a01b031663b80777ea6040518163ffffffff1660e01b815260040160206040518083038186803b158015611d8c57600080fd5b505afa158015611da0573d6000803e3d6000fd5b505050506040513d601f19601f82011682018060405250810190611dc4919061493c565b603654909150611de390600160c01b900465ffffffffffff1682614959565b65ffffffffffff16421015611df757505050565b603360009054906101000a90046001600160a01b03166001600160a01b0316632f2439b16040518163ffffffff1660e01b815260040160206040518083038186803b158015611e4557600080fd5b505afa158015611e59573d6000803e3d6000fd5b505050506040513d601f19601f82011682018060405250810190611e7d91906146f9565b6001600160a01b031663e45a5b2d6040518163ffffffff1660e01b815260040160206040518083038186803b158015611eb557600080fd5b505afa158015611ec9573d6000803e3d6000fd5b505050506040513d601f19601f82011682018060405250810190611eed9190614658565b15611efc57610d9c83836126c4565b6040516330bc418760e11b8152306004820152600090819073__$7004c025fd4b58168fd7f336eb5efdb0d9$__90636178830e9060240160a06040518083038186803b158015611f4b57600080fd5b505af4158015611f5f573d6000803e3d6000fd5b505050506040513d601f19601f82011682018060405250810190611f839190614983565b9150915081156122a357603360009054906101000a90046001600160a01b03166001600160a01b031663c99dc3dd6040518163ffffffff1660e01b815260040160206040518083038186803b158015611fdb57600080fd5b505afa158015611fef573d6000803e3d6000fd5b505050506040513d601f19601f8201168201806040525081019061201391906146f9565b6001600160a01b031681600001516001600160a01b031663785e9e866040518163ffffffff1660e01b815260040160206040518083038186803b15801561205957600080fd5b505afa15801561206d573d6000803e3d6000fd5b505050506040513d601f19601f8201168201806040525081019061209191906146f9565b6001600160a01b0316141561229557600081600001516001600160a01b031663785e9e866040518163ffffffff1660e01b815260040160206040518083038186803b1580156120df57600080fd5b505afa1580156120f3573d6000803e3d6000fd5b505050506040513d601f19601f8201168201806040525081019061211791906146f9565b6040516370a0823160e01b81523060048201526001600160a01b0391909116906370a082319060240160206040518083038186803b15801561215857600080fd5b505afa15801561216c573d6000803e3d6000fd5b505050506040513d601f19601f820116820180604052508101906121909190614a1d565b9050808260400151111561229357603360009054906101000a90046001600160a01b03166001600160a01b0316634780a5e56040518163ffffffff1660e01b815260040160206040518083038186803b1580156121ec57600080fd5b505afa158015612200573d6000803e3d6000fd5b505050506040513d601f19601f8201168201806040525081019061222491906146f9565b6001600160a01b031663a439622f82846040015161224291906148d4565b6040518263ffffffff1660e01b815260040161226091815260200190565b600060405180830381600087803b15801561227a57600080fd5b505af115801561228e573d6000803e3d6000fd5b505050505b505b61229e8161353e565b6122ab565b6122ab613ac9565b5050505050565b80158061233b5750604051636eb1769f60e11b81523060048201526001600160a01b03838116602483015284169063dd62ed3e9060440160206040518083038186803b15801561230157600080fd5b505afa158015612315573d6000803e3d6000fd5b505050506040513d601f19601f820116820180604052508101906123399190614a1d565b155b6123a65760405162461bcd60e51b815260206004820152603660248201527f5361666545524332303a20617070726f76652066726f6d206e6f6e2d7a65726f60448201527520746f206e6f6e2d7a65726f20616c6c6f77616e636560501b6064820152608401610431565b6040516001600160a01b038316602482015260448101829052610d9c90849063095ea7b360e01b906064015b60408051601f198184030181529190526020810180516001600160e01b03166001600160e01b031990931692909217909152613ed0565b805160009060015b81811015611b115760005b8181101561248b578481815181106124365761243661485f565b60200260200101516001600160a01b03168583815181106124595761245961485f565b60200260200101516001600160a01b0316141561247b57506000949350505050565b61248481614875565b905061241c565b5061249581614875565b9050612411565b600054610100900460ff166124c35760405162461bcd60e51b815260040161043190614a36565b6001600160a01b0381166125105760405162461bcd60e51b81526020600482015260146024820152736d61696e206973207a65726f206164647265737360601b6044820152606401610431565b603380546001600160a01b0319166001600160a01b0392909216919091179055565b600054610100900460ff166125595760405162461bcd60e51b815260040161043190614a36565b612562826117c5565b611067816108d0565b600080600061257a8686613fa2565b9150915083821061259e5760405163f44398f560e01b815260040160405180910390fd5b600084806125ae576125ae6148a6565b8688099050818111156125c2576001830392505b9081900390600085900385168086816125dd576125dd6148a6565b0495508083816125ef576125ef6148a6565b049250808160000381612604576126046148a6565b046001019390930291909101600285810380870282030280870282030280870282030280870282030280870282030280870282030295860290039094029390930295945050505050565b606083156126ba5782516126b3576001600160a01b0385163b6126b35760405162461bcd60e51b815260206004820152601d60248201527f416464726573733a2063616c6c20746f206e6f6e2d636f6e74726163740000006044820152606401610431565b5081611a12565b611a128383613fcf565b60335460408051632f2439b160e01b815290516000926001600160a01b031691632f2439b1916004808301926020929190829003018186803b15801561270957600080fd5b505afa15801561271d573d6000803e3d6000fd5b505050506040513d601f19601f8201168201806040525081019061274191906146f9565b6001600160a01b031663200d2ed26040518163ffffffff1660e01b815260040160206040518083038186803b15801561277957600080fd5b505afa15801561278d573d6000803e3d6000fd5b505050506040513d601f19601f820116820180604052508101906127b1919061491b565b60028111156127c2576127c2614890565b146127cf576127cf614a81565b6033546040805163c99dc3dd60e01b815290516000926001600160a01b03169163c99dc3dd916004808301926020929190829003018186803b15801561281457600080fd5b505afa158015612828573d6000803e3d6000fd5b505050506040513d601f19601f8201168201806040525081019061284c91906146f9565b6040516370a0823160e01b81523060048201526001600160a01b0391909116906370a082319060240160206040518083038186803b15801561288d57600080fd5b505afa1580156128a1573d6000803e3d6000fd5b505050506040513d601f19601f820116820180604052508101906128c59190614a1d565b905080156129d75760335460408051635313676360e01b815290516129d7926001600160a01b0316916353136763916004808301926020929190829003018186803b15801561291357600080fd5b505afa158015612927573d6000803e3d6000fd5b505050506040513d601f19601f8201168201806040525081019061294b91906146f9565b6033546040805163c99dc3dd60e01b8152905185926001600160a01b03169163c99dc3dd916004808301926020929190829003018186803b15801561298f57600080fd5b505afa1580156129a3573d6000803e3d6000fd5b505050506040513d601f19601f820116820180604052508101906129c791906146f9565b6001600160a01b03169190613ff9565b600080603360009054906101000a90046001600160a01b03166001600160a01b03166340c65f726040518163ffffffff1660e01b815260040160206040518083038186803b158015612a2857600080fd5b505afa158015612a3c573d6000803e3d6000fd5b505050506040513d601f19601f82011682018060405250810190612a6091906146f9565b9050806001600160a01b0316637121c2736040518163ffffffff1660e01b815260040160206040518083038186803b158015612a9b57600080fd5b505afa158015612aaf573d6000803e3d6000fd5b505050506040513d601f19601f82011682018060405250810190612ad39190614a97565b91506000603360009054906101000a90046001600160a01b03166001600160a01b0316632f2439b16040518163ffffffff1660e01b815260040160206040518083038186803b158015612b2557600080fd5b505afa158015612b39573d6000803e3d6000fd5b505050506040513d601f19601f82011682018060405250810190612b5d91906146f9565b604051635523caaf60e11b81523060048201526001600160a01b03919091169063aa47955e9060240160206040518083038186803b158015612b9e57600080fd5b505afa158015612bb2573d6000803e3d6000fd5b505050506040513d601f19601f82011682018060405250810190612bd69190614a97565b9050612beb6001600160c01b03821684614029565b15612e00576000826001600160a01b031663313ce5676040518163ffffffff1660e01b815260040160206040518083038186803b158015612c2b57600080fd5b505afa158015612c3f573d6000803e3d6000fd5b505050506040513d601f19601f82011682018060405250810190612c639190614ab4565b90506000612ce9846001600160a01b03166318160ddd6040518163ffffffff1660e01b815260040160206040518083038186803b158015612ca357600080fd5b505afa158015612cb7573d6000803e3d6000fd5b505050506040513d601f19601f82011682018060405250810190612cdb9190614a1d565b612ce484614ad7565b61403f565b90506000612d006001600160c01b0385168761404d565b9050600080876001600160c01b031611612d1a5781612d2e565b612d2e6001600160c01b0383168489614059565b6040516340c10f1960e01b81523060048201526001600160c01b03821660248201529091506001600160a01b038716906340c10f1990604401600060405180830381600087803b158015612d8157600080fd5b505af1158015612d95573d6000803e3d6000fd5b5050604051636396544960e01b81526001600160c01b03881660048201526001600160a01b038916925063639654499150602401600060405180830381600087803b158015612de357600080fd5b505af1158015612df7573d6000803e3d6000fd5b50505050505050505b5050603754612f2a90612e2590670de0b6b3a7640000906001600160c01b0316614068565b603360009054906101000a90046001600160a01b03166001600160a01b03166340c65f726040518163ffffffff1660e01b815260040160206040518083038186803b158015612e7357600080fd5b505afa158015612e87573d6000803e3d6000fd5b505050506040513d601f19601f82011682018060405250810190612eab91906146f9565b6001600160a01b0316637121c2736040518163ffffffff1660e01b815260040160206040518083038186803b158015612ee357600080fd5b505afa158015612ef7573d6000803e3d6000fd5b505050506040513d601f19601f82011682018060405250810190612f1b9190614a97565b6001600160c01b031690614074565b90506000603360009054906101000a90046001600160a01b03166001600160a01b031663bfe109286040518163ffffffff1660e01b815260040160206040518083038186803b158015612f7c57600080fd5b505afa158015612f90573d6000803e3d6000fd5b505050506040513d601f19601f82011682018060405250810190612fb491906146f9565b6001600160a01b031663c038a38e6040518163ffffffff1660e01b8152600401604080518083038186803b158015612feb57600080fd5b505afa158015612fff573d6000803e3d6000fd5b505050506040513d601f19601f820116820180604052508101906130239190614b0a565b905060005b848110156117bd5760335460408051634bcebf4360e11b815290516000926001600160a01b03169163979d7e86916004808301926020929190829003018186803b15801561307557600080fd5b505afa158015613089573d6000803e3d6000fd5b505050506040513d601f19601f820116820180604052508101906130ad91906146f9565b6001600160a01b031663cde2be8a8888858181106130cd576130cd61485f565b90506020020160208101906130e2919061444e565b6040516001600160e01b031960e084901b1681526001600160a01b03909116600482015260240160206040518083038186803b15801561312157600080fd5b505afa158015613135573d6000803e3d6000fd5b505050506040513d601f19601f8201168201806040525081019061315991906146f9565b604051632ac07b9560e11b81523060048201529091506000906001600160a01b03831690635580f72a9060240160206040518083038186803b15801561319e57600080fd5b505afa1580156131b2573d6000803e3d6000fd5b505050506040513d601f19601f820116820180604052508101906131d69190614a97565b90506000613321603360009054906101000a90046001600160a01b03166001600160a01b0316632f2439b16040518163ffffffff1660e01b815260040160206040518083038186803b15801561322b57600080fd5b505afa15801561323f573d6000803e3d6000fd5b505050506040513d601f19601f8201168201806040525081019061326391906146f9565b6001600160a01b031663a5a5828c8b8b888181106132835761328361485f565b9050602002016020810190613298919061444e565b6040516001600160e01b031960e084901b1681526001600160a01b03909116600482015260240160206040518083038186803b1580156132d757600080fd5b505afa1580156132eb573d6000803e3d6000fd5b505050506040513d601f19601f8201168201806040525081019061330f9190614a97565b6001600160c01b03881690600261407e565b90506133366001600160c01b03831682614029565b156135285760006133d3846001600160a01b0316633cb5d3796040518163ffffffff1660e01b815260040160206040518083038186803b15801561337957600080fd5b505afa15801561338d573d6000803e3d6000fd5b505050506040513d601f19601f820116820180604052508101906133b19190614ab4565b6133c46001600160c01b0386168561404d565b6001600160c01b0316906140b0565b90506000866020015187600001516133eb9190614b65565b6133fa9062ffffff16836148eb565b90506000876020015162ffffff16826134139190614b83565b905080156134c15760335460408051635313676360e01b815290516134c1926001600160a01b0316916353136763916004808301926020929190829003018186803b15801561346157600080fd5b505afa158015613475573d6000803e3d6000fd5b505050506040513d601f19601f8201168201806040525081019061349991906146f9565b828e8e8b8181106134ac576134ac61485f565b90506020020160208101906129c7919061444e565b5086516000906134d69062ffffff1683614b83565b9050801561352457603354604080516320df862760e11b81529051613524926001600160a01b0316916341bf0c4e916004808301926020929190829003018186803b15801561346157600080fd5b5050505b505050808061353690614875565b915050613028565b60335460408051630abff01160e41b815290516000926001600160a01b03169163abff0110916004808301926020929190829003018186803b15801561358357600080fd5b505afa158015613597573d6000803e3d6000fd5b505050506040513d601f19601f820116820180604052508101906135bb91906146f9565b905060006001600160a01b03166034600084600001516001600160a01b031663785e9e866040518163ffffffff1660e01b815260040160206040518083038186803b15801561360957600080fd5b505afa15801561361d573d6000803e3d6000fd5b505050506040513d601f19601f8201168201806040525081019061364191906146f9565b6001600160a01b039081168252602082019290925260400160002054161461366b5761366b614a81565b806001600160a01b031663ee0708056040518163ffffffff1660e01b815260040160206040518083038186803b1580156136a457600080fd5b505afa1580156136b8573d6000803e3d6000fd5b505050506040513d601f19601f820116820180604052508101906136dc9190614658565b1561371b5760405162461bcd60e51b815260206004820152600f60248201526e189c9bdad95c88191a5cd8589b1959608a1b6044820152606401610431565b6137a681600084600001516001600160a01b031663785e9e866040518163ffffffff1660e01b815260040160206040518083038186803b15801561375e57600080fd5b505afa158015613772573d6000803e3d6000fd5b505050506040513d601f19601f8201168201806040525081019061379691906146f9565b6001600160a01b031691906122b2565b6137ec81836040015184600001516001600160a01b031663785e9e866040518163ffffffff1660e01b815260040160206040518083038186803b15801561375e57600080fd5b6040805163542d5e2960e01b815283516001600160a01b0390811660048301526020850151811660248301529184015160448201526060840151606482015260009183169063542d5e2990608401602060405180830381600087803b15801561385457600080fd5b505af1158015613868573d6000803e3d6000fd5b505050506040513d601f19601f8201168201806040525081019061388c91906146f9565b9050806034600085600001516001600160a01b031663785e9e866040518163ffffffff1660e01b815260040160206040518083038186803b1580156138d057600080fd5b505afa1580156138e4573d6000803e3d6000fd5b505050506040513d601f19601f8201168201806040525081019061390891906146f9565b6001600160a01b0390811682526020820192909252604001600090812080546001600160a01b031916939092169290921790556035805465ffffffffffff169161395183614ba2565b91906101000a81548165ffffffffffff021916908365ffffffffffff1602179055505082602001516001600160a01b031663785e9e866040518163ffffffff1660e01b815260040160206040518083038186803b1580156139b157600080fd5b505afa1580156139c5573d6000803e3d6000fd5b505050506040513d601f19601f820116820180604052508101906139e991906146f9565b6001600160a01b031683600001516001600160a01b031663785e9e866040518163ffffffff1660e01b815260040160206040518083038186803b158015613a2f57600080fd5b505afa158015613a43573d6000803e3d6000fd5b505050506040513d601f19601f82011682018060405250810190613a6791906146f9565b6001600160a01b0316826001600160a01b03167ff18b757d93c36d059284838a0328b06d8eb30d7214ffadde3266465a0006f6b386604001518760600151604051613abc929190918252602082015260400190565b60405180910390a4505050565b60355465ffffffffffff16158015613bd45750603360009054906101000a90046001600160a01b03166001600160a01b0316632f2439b16040518163ffffffff1660e01b815260040160206040518083038186803b158015613b2a57600080fd5b505afa158015613b3e573d6000803e3d6000fd5b505050506040513d601f19601f82011682018060405250810190613b6291906146f9565b6001600160a01b031663e45a5b2d6040518163ffffffff1660e01b815260040160206040518083038186803b158015613b9a57600080fd5b505afa158015613bae573d6000803e3d6000fd5b505050506040513d601f19601f82011682018060405250810190613bd29190614658565b155b613be057613be0614a81565b603360009054906101000a90046001600160a01b03166001600160a01b03166340c65f726040518163ffffffff1660e01b815260040160206040518083038186803b158015613c2e57600080fd5b505afa158015613c42573d6000803e3d6000fd5b505050506040513d601f19601f82011682018060405250810190613c6691906146f9565b6001600160a01b03166363965449603360009054906101000a90046001600160a01b03166001600160a01b0316632f2439b16040518163ffffffff1660e01b815260040160206040518083038186803b158015613cc257600080fd5b505afa158015613cd6573d6000803e3d6000fd5b505050506040513d601f19601f82011682018060405250810190613cfa91906146f9565b604051635523caaf60e11b81523060048201526001600160a01b03919091169063aa47955e9060240160206040518083038186803b158015613d3b57600080fd5b505afa158015613d4f573d6000803e3d6000fd5b505050506040513d601f19601f82011682018060405250810190613d739190614a97565b6040516001600160e01b031960e084901b1681526001600160c01b039091166004820152602401600060405180830381600087803b158015613db457600080fd5b505af1158015613dc8573d6000803e3d6000fd5b50505050603360009054906101000a90046001600160a01b03166001600160a01b0316632f2439b16040518163ffffffff1660e01b815260040160206040518083038186803b158015613e1a57600080fd5b505afa158015613e2e573d6000803e3d6000fd5b505050506040513d601f19601f82011682018060405250810190613e5291906146f9565b6001600160a01b031663e45a5b2d6040518163ffffffff1660e01b815260040160206040518083038186803b158015613e8a57600080fd5b505afa158015613e9e573d6000803e3d6000fd5b505050506040513d601f19601f82011682018060405250810190613ec29190614658565b613ece57613ece614a81565b565b6000613f25826040518060400160405280602081526020017f5361666545524332303a206c6f772d6c6576656c2063616c6c206661696c6564815250856001600160a01b03166140be9092919063ffffffff16565b805190915015610d9c5780806020019051810190613f439190614658565b610d9c5760405162461bcd60e51b815260206004820152602a60248201527f5361666545524332303a204552433230206f7065726174696f6e20646964206e6044820152691bdd081cdd58d8d9595960b21b6064820152608401610431565b6000808060001984860990508385029150818103925081811015613fc7576001830392505b509250929050565b815115613fdf5781518083602001fd5b8060405162461bcd60e51b8152600401610431919061459f565b6040516001600160a01b038316602482015260448101829052610d9c90849063a9059cbb60e01b906064016123d2565b6001600160c01b03808216908316115b92915050565b60006108c9838360006140cd565b60006108c98284614bc8565b60006108c68484846000614194565b60006108c98284614bf0565b60006108c9838360015b60006108c66140ab61409c6001600160c01b03808716908816614b83565b670de0b6b3a7640000856141c9565b614269565b60006108c983836000614297565b60606108c68484600085614346565b6000836140dc575060006108c9565b605f198360000b136141165760025b8260028111156140fd576140fd614890565b1461410957600061410c565b60015b60ff1690506108c9565b8260000b60281361413a5760405163f44398f560e01b815260040160405180910390fd5b614145601284614c12565b925060006141558460000b614421565b61416090600a614d31565b90506000808560000b121561417f5761417a8683866141c9565b614189565b6141898287614b83565b9050611a8881614269565b60006141c06140ab866001600160c01b0316866001600160c01b0316866001600160c01b031686611969565b95945050505050565b6000806141d684866148eb565b905060008360028111156141ec576141ec614890565b14156141f95790506108c9565b600183600281111561420d5761420d614890565b141561424d5760026142206001866148d4565b61422a91906148eb565b6142348587614d3d565b1115614248578061424481614875565b9150505b6108c6565b60006142598587614d3d565b11156108c65780611a8881614875565b60006001600160c01b038211156142935760405163f44398f560e01b815260040160405180910390fd5b5090565b60006001600160c01b0384166142af575060006108c9565b6029198360000b136142c25760026140eb565b8260000b6060136142e65760405163f44398f560e01b815260040160405180910390fd5b6142f1601284614d51565b925060006143018460000b614421565b61430c90600a614d31565b905060008460000b12156143335761432e856001600160c01b031682856141c9565b6141c0565b6141c0816001600160c01b038716614b83565b6060824710156143a75760405162461bcd60e51b815260206004820152602660248201527f416464726573733a20696e73756666696369656e742062616c616e636520666f6044820152651c8818d85b1b60d21b6064820152608401610431565b600080866001600160a01b031685876040516143c391906148ff565b60006040518083038185875af1925050503d8060008114614400576040519150601f19603f3d011682016040523d82523d6000602084013e614405565b606091505b50915091506144168783838761264e565b979650505050505050565b60008082126144305781614039565b61403982614d92565b6001600160a01b038116811461072b57600080fd5b60006020828403121561446057600080fd5b81356108c981614439565b6001600160c01b038116811461072b57600080fd5b60006020828403121561449257600080fd5b81356108c98161446b565b6000806000606084860312156144b257600080fd5b505081359360208301359350604090920135919050565b65ffffffffffff8116811461072b57600080fd5b6000602082840312156144ef57600080fd5b81356108c9816144c9565b6000806020838503121561450d57600080fd5b823567ffffffffffffffff8082111561452557600080fd5b818501915085601f83011261453957600080fd5b81358181111561454857600080fd5b8660208260051b850101111561455d57600080fd5b60209290920196919550909350505050565b60005b8381101561458a578181015183820152602001614572565b83811115614599576000848401525b50505050565b60208152600082518060208401526145be81604085016020870161456f565b601f01601f19169190910160400192915050565b600080600080600060a086880312156145ea57600080fd5b85356145f581614439565b94506020860135614605816144c9565b935060408601356146158161446b565b925060608601356146258161446b565b915060808601356146358161446b565b809150509295509295909350565b8051801515811461465357600080fd5b919050565b60006020828403121561466a57600080fd5b6108c982614643565b60208082526010908201526f3830bab9b2b21037b910333937bd32b760811b604082015260600190565b634e487b7160e01b600052601160045260246000fd5b600065ffffffffffff8216806146cb576146cb61469d565b6000190192915050565b600080604083850312156146e857600080fd5b505080516020909101519092909150565b60006020828403121561470b57600080fd5b81516108c981614439565b80516020808301519190811015614737576000198160200360031b1b821691505b50919050565b6020808252600f908201526e676f7665726e616e6365206f6e6c7960881b604082015260600190565b634e487b7160e01b600052604160045260246000fd5b604051601f8201601f1916810167ffffffffffffffff811182821017156147a5576147a5614766565b604052919050565b600060208083850312156147c057600080fd5b825167ffffffffffffffff808211156147d857600080fd5b818501915085601f8301126147ec57600080fd5b8151818111156147fe576147fe614766565b8060051b915061480f84830161477c565b818152918301840191848101908884111561482957600080fd5b938501935b83851015614853578451925061484383614439565b828252938501939085019061482e565b98975050505050505050565b634e487b7160e01b600052603260045260246000fd5b60006000198214156148895761488961469d565b5060010190565b634e487b7160e01b600052602160045260246000fd5b634e487b7160e01b600052601260045260246000fd5b600082198211156148cf576148cf61469d565b500190565b6000828210156148e6576148e661469d565b500390565b6000826148fa576148fa6148a6565b500490565b6000825161491181846020870161456f565b9190910192915050565b60006020828403121561492d57600080fd5b8151600381106108c957600080fd5b60006020828403121561494e57600080fd5b81516108c9816144c9565b600065ffffffffffff80831681851680830382111561497a5761497a61469d565b01949350505050565b60008082840360a081121561499757600080fd5b6149a084614643565b92506080601f19820112156149b457600080fd5b506040516080810181811067ffffffffffffffff821117156149d8576149d8614766565b60405260208401516149e981614439565b815260408401516149f981614439565b60208201526060848101516040830152608090940151938101939093525092909150565b600060208284031215614a2f57600080fd5b5051919050565b6020808252602b908201527f496e697469616c697a61626c653a20636f6e7472616374206973206e6f74206960408201526a6e697469616c697a696e6760a81b606082015260800190565b634e487b7160e01b600052600160045260246000fd5b600060208284031215614aa957600080fd5b81516108c98161446b565b600060208284031215614ac657600080fd5b815160ff811681146108c957600080fd5b600081810b607f19811415614aee57614aee61469d565b60000392915050565b805162ffffff8116811461465357600080fd5b600060408284031215614b1c57600080fd5b6040516040810181811067ffffffffffffffff82111715614b3f57614b3f614766565b604052614b4b83614af7565b8152614b5960208401614af7565b60208201529392505050565b600062ffffff80831681851680830382111561497a5761497a61469d565b6000816000190483118215151615614b9d57614b9d61469d565b500290565b600065ffffffffffff80831681811415614bbe57614bbe61469d565b6001019392505050565b60006001600160c01b0383811690831681811015614be857614be861469d565b039392505050565b60006001600160c01b0382811684821680830382111561497a5761497a61469d565b60008160000b8360000b6000821282607f03821381151615614c3657614c3661469d565b82607f19038212811615614c4c57614c4c61469d565b50019392505050565b600181815b80851115613fc7578160001904821115614c7657614c7661469d565b80851615614c8357918102915b93841c9390800290614c5a565b600082614c9f57506001614039565b81614cac57506000614039565b8160018114614cc25760028114614ccc57614ce8565b6001915050614039565b60ff841115614cdd57614cdd61469d565b50506001821b614039565b5060208310610133831016604e8410600b8410161715614d0b575081810a614039565b614d158383614c55565b8060001904821115614d2957614d2961469d565b029392505050565b60006108c98383614c90565b600082614d4c57614d4c6148a6565b500690565b600081810b83820b8281128015607f19830184121615614d7357614d7361469d565b81607f018313811615614d8857614d8861469d565b5090039392505050565b6000600160ff1b821415614da857614da861469d565b506000039056fea26469706673582212207e0e5b8bc91c28a8f606293d6ab9480281380a91f72910b44eebee139586bf8e64736f6c63430008090033",
  "linkReferences": {
    "contracts/reserve/p0/mixins/TradingLib.sol": {
      "TradingLibP0": [
        {
          "length": 20,
          "start": 7990
        }
      ]
    }
  },
  "deployedLinkReferences": {
    "contracts/reserve/p0/mixins/TradingLib.sol": {
      "TradingLibP0": [
        {
          "length": 20,
          "start": 7958
        }
      ]
    }
  }
}