{
  "_format": "hh-sol-artifact-1",
  "contractName": "DistributorP1",
  "sourceName": "contracts/reserve/p1/Distributor.sol",
  "abi": [
    {
      "anonymous": false,
      "inputs": [
        {
          "indexed": false,
          "internalType": "address",
          "name": "previousAdmin",
          "type": "address"
        },
        {
          "indexed": false,
          "internalType": "address",
          "name": "newAdmin",
          "type": "address"
        }
      ],
      "name": "AdminChanged",
      "type": "event"
    },
    {
      "anonymous": false,
      "inputs": [
        {
          "indexed": true,
          "internalType": "address",
          "name": "beacon",
          "type": "address"
        }
      ],
      "name": "BeaconUpgraded",
      "type": "event"
    },
    {
      "anonymous": false,
      "inputs": [
        {
          "indexed": false,
          "internalType": "address",
          "name": "dest",
          "type": "address"
        },
        {
          "indexed": false,
          "internalType": "uint16",
          "name": "rTokenDist",
          "type": "uint16"
        },
        {
          "indexed": false,
          "internalType": "uint16",
          "name": "rsrDist",
          "type": "uint16"
        }
      ],
      "name": "DistributionSet",
      "type": "event"
    },
    {
      "anonymous": false,
      "inputs": [
        {
          "indexed": false,
          "internalType": "uint8",
          "name": "version",
          "type": "uint8"
        }
      ],
      "name": "Initialized",
      "type": "event"
    },
    {
      "anonymous": false,
      "inputs": [
        {
          "indexed": true,
          "internalType": "contract IERC20",
          "name": "erc20",
          "type": "address"
        },
        {
          "indexed": true,
          "internalType": "address",
          "name": "source",
          "type": "address"
        },
        {
          "indexed": true,
          "internalType": "uint256",
          "name": "amount",
          "type": "uint256"
        }
      ],
      "name": "RevenueDistributed",
      "type": "event"
    },
    {
      "anonymous": false,
      "inputs": [
        {
          "indexed": true,
          "internalType": "address",
          "name": "implementation",
          "type": "address"
        }
      ],
      "name": "Upgraded",
      "type": "event"
    },
    {
      "inputs": [],
      "name": "FURNACE",
      "outputs": [
        {
          "internalType": "address",
          "name": "",
          "type": "address"
        }
      ],
      "stateMutability": "view",
      "type": "function"
    },
    {
      "inputs": [],
      "name": "MAX_DESTINATIONS_ALLOWED",
      "outputs": [
        {
          "internalType": "uint8",
          "name": "",
          "type": "uint8"
        }
      ],
      "stateMutability": "view",
      "type": "function"
    },
    {
      "inputs": [],
      "name": "ST_RSR",
      "outputs": [
        {
          "internalType": "address",
          "name": "",
          "type": "address"
        }
      ],
      "stateMutability": "view",
      "type": "function"
    },
    {
      "inputs": [
        {
          "internalType": "contract IERC20",
          "name": "erc20",
          "type": "address"
        },
        {
          "internalType": "address",
          "name": "from",
          "type": "address"
        },
        {
          "internalType": "uint256",
          "name": "amount",
          "type": "uint256"
        }
      ],
      "name": "distribute",
      "outputs": [],
      "stateMutability": "nonpayable",
      "type": "function"
    },
    {
      "inputs": [
        {
          "internalType": "address",
          "name": "",
          "type": "address"
        }
      ],
      "name": "distribution",
      "outputs": [
        {
          "internalType": "uint16",
          "name": "rTokenDist",
          "type": "uint16"
        },
        {
          "internalType": "uint16",
          "name": "rsrDist",
          "type": "uint16"
        }
      ],
      "stateMutability": "view",
      "type": "function"
    },
    {
      "inputs": [
        {
          "internalType": "contract IMain",
          "name": "main_",
          "type": "address"
        },
        {
          "components": [
            {
              "internalType": "uint16",
              "name": "rTokenDist",
              "type": "uint16"
            },
            {
              "internalType": "uint16",
              "name": "rsrDist",
              "type": "uint16"
            }
          ],
          "internalType": "struct RevenueShare",
          "name": "dist",
          "type": "tuple"
        }
      ],
      "name": "init",
      "outputs": [],
      "stateMutability": "nonpayable",
      "type": "function"
    },
    {
      "inputs": [],
      "name": "main",
      "outputs": [
        {
          "internalType": "contract IMain",
          "name": "",
          "type": "address"
        }
      ],
      "stateMutability": "view",
      "type": "function"
    },
    {
      "inputs": [],
      "name": "proxiableUUID",
      "outputs": [
        {
          "internalType": "bytes32",
          "name": "",
          "type": "bytes32"
        }
      ],
      "stateMutability": "view",
      "type": "function"
    },
    {
      "inputs": [
        {
          "internalType": "address",
          "name": "dest",
          "type": "address"
        },
        {
          "components": [
            {
              "internalType": "uint16",
              "name": "rTokenDist",
              "type": "uint16"
            },
            {
              "internalType": "uint16",
              "name": "rsrDist",
              "type": "uint16"
            }
          ],
          "internalType": "struct RevenueShare",
          "name": "share",
          "type": "tuple"
        }
      ],
      "name": "setDistribution",
      "outputs": [],
      "stateMutability": "nonpayable",
      "type": "function"
    },
    {
      "inputs": [],
      "name": "totals",
      "outputs": [
        {
          "components": [
            {
              "internalType": "uint24",
              "name": "rTokenTotal",
              "type": "uint24"
            },
            {
              "internalType": "uint24",
              "name": "rsrTotal",
              "type": "uint24"
            }
          ],
          "internalType": "struct RevenueTotals",
          "name": "revTotals",
          "type": "tuple"
        }
      ],
      "stateMutability": "view",
      "type": "function"
    },
    {
      "inputs": [
        {
          "internalType": "address",
          "name": "newImplementation",
          "type": "address"
        }
      ],
      "name": "upgradeTo",
      "outputs": [],
      "stateMutability": "nonpayable",
      "type": "function"
    },
    {
      "inputs": [
        {
          "internalType": "address",
          "name": "newImplementation",
          "type": "address"
        },
        {
          "internalType": "bytes",
          "name": "data",
          "type": "bytes"
        }
      ],
      "name": "upgradeToAndCall",
      "outputs": [],
      "stateMutability": "payable",
      "type": "function"
    },
    {
      "inputs": [],
      "name": "version",
      "outputs": [
        {
          "internalType": "string",
          "name": "",
          "type": "string"
        }
      ],
      "stateMutability": "pure",
      "type": "function"
    }
  ],
  "bytecode": "0x60a0604052306080523480156200001557600080fd5b50600054610100900460ff1615808015620000375750600054600160ff909116105b8062000067575062000054306200014160201b62000f381760201c565b15801562000067575060005460ff166001145b620000cf5760405162461bcd60e51b815260206004820152602e60248201527f496e697469616c697a61626c653a20636f6e747261637420697320616c72656160448201526d191e481a5b9a5d1a585b1a5e995960921b606482015260840160405180910390fd5b6000805460ff191660011790558015620000f3576000805461ff0019166101001790555b80156200013a576000805461ff0019169055604051600181527f7f26b83ff96e1f2b6a682f133852f6798a09c465da95921460cefb38474024989060200160405180910390a15b5062000150565b6001600160a01b03163b151590565b6080516121d962000188600039600081816102da01528181610323015281816103c301528181610403015261049601526121d96000f3fe6080604052600436106100c25760003560e01c806354fd4d501161007f578063a16a918311610059578063a16a918314610201578063c038a38e14610221578063c2db09c114610259578063dffeadd0146102af57600080fd5b806354fd4d501461018d57806388594437146101c157806399e6dda8146101e157600080fd5b80633659cfe6146100c75780633aab16f7146100e95780633c6e0dec1461011b5780634f1ef2861461013057806352d1902d1461014357806352dffcce14610166575b600080fd5b3480156100d357600080fd5b506100e76100e2366004611c5f565b6102cf565b005b3480156100f557600080fd5b506100fe600181565b6040516001600160a01b0390911681526020015b60405180910390f35b34801561012757600080fd5b506100fe600281565b6100e761013e366004611cc3565b6103b8565b34801561014f57600080fd5b50610158610489565b604051908152602001610112565b34801561017257600080fd5b5061017b606481565b60405160ff9091168152602001610112565b34801561019957600080fd5b5060408051808201825260058152640312e322e360dc1b602082015290516101129190611d97565b3480156101cd57600080fd5b506100e76101dc366004611de1565b61053c565b3480156101ed57600080fd5b506100e76101fc366004611e65565b61065f565b34801561020d57600080fd5b506100e761021c366004611ea6565b610a60565b34801561022d57600080fd5b50610236610e83565b60408051825162ffffff9081168252602093840151169281019290925201610112565b34801561026557600080fd5b50610294610274366004611c5f565b60cb6020526000908152604090205461ffff808216916201000090041682565b6040805161ffff938416815292909116602083015201610112565b3480156102bb57600080fd5b506097546100fe906001600160a01b031681565b306001600160a01b037f00000000000000000000000000000000000000000000000000000000000000001614156103215760405162461bcd60e51b815260040161031890611ee7565b60405180910390fd5b7f00000000000000000000000000000000000000000000000000000000000000006001600160a01b031661036a60008051602061215d833981519152546001600160a01b031690565b6001600160a01b0316146103905760405162461bcd60e51b815260040161031890611f33565b61039981610f47565b604080516000808252602082019092526103b59183919061103d565b50565b306001600160a01b037f00000000000000000000000000000000000000000000000000000000000000001614156104015760405162461bcd60e51b815260040161031890611ee7565b7f00000000000000000000000000000000000000000000000000000000000000006001600160a01b031661044a60008051602061215d833981519152546001600160a01b031690565b6001600160a01b0316146104705760405162461bcd60e51b815260040161031890611f33565b61047982610f47565b6104858282600161103d565b5050565b6000306001600160a01b037f000000000000000000000000000000000000000000000000000000000000000016146105295760405162461bcd60e51b815260206004820152603860248201527f555550535570677261646561626c653a206d757374206e6f742062652063616c60448201527f6c6564207468726f7567682064656c656761746563616c6c00000000000000006064820152608401610318565b5060008051602061215d83398151915290565b60975460408051808201909152600581526427aba722a960d91b60208201526001600160a01b03909116906391d148549061057690611f7f565b336040516001600160e01b031960e085901b16815260048101929092526001600160a01b0316602482015260440160206040518083038186803b1580156105bc57600080fd5b505afa1580156105d0573d6000803e3d6000fd5b505050506040513d601f19601f820116820180604052508101906105f49190611fa6565b6106325760405162461bcd60e51b815260206004820152600f60248201526e676f7665726e616e6365206f6e6c7960881b6044820152606401610318565b61063c82826111b7565b6000610646610e83565b905061065a81600001518260200151611493565b505050565b600054610100900460ff161580801561067f5750600054600160ff909116105b806106995750303b158015610699575060005460ff166001145b6106fc5760405162461bcd60e51b815260206004820152602e60248201527f496e697469616c697a61626c653a20636f6e747261637420697320616c72656160448201526d191e481a5b9a5d1a585b1a5e995960921b6064820152608401610318565b6000805460ff19166001179055801561071f576000805461ff0019166101001790555b610728836114f8565b826001600160a01b031663c99dc3dd6040518163ffffffff1660e01b815260040160206040518083038186803b15801561076157600080fd5b505afa158015610775573d6000803e3d6000fd5b505050506040513d601f19601f820116820180604052508101906107999190611fc8565b60cc60006101000a8154816001600160a01b0302191690836001600160a01b03160217905550826001600160a01b03166340c65f726040518163ffffffff1660e01b815260040160206040518083038186803b1580156107f857600080fd5b505afa15801561080c573d6000803e3d6000fd5b505050506040513d601f19601f820116820180604052508101906108309190611fc8565b60cd60006101000a8154816001600160a01b0302191690836001600160a01b03160217905550826001600160a01b031663656e96e16040518163ffffffff1660e01b815260040160206040518083038186803b15801561088f57600080fd5b505afa1580156108a3573d6000803e3d6000fd5b505050506040513d601f19601f820116820180604052508101906108c79190611fc8565b60ce60006101000a8154816001600160a01b0302191690836001600160a01b03160217905550826001600160a01b0316634780a5e56040518163ffffffff1660e01b815260040160206040518083038186803b15801561092657600080fd5b505afa15801561093a573d6000803e3d6000fd5b505050506040513d601f19601f8201168201806040525081019061095e9190611fc8565b60cf80546001600160a01b0319166001600160a01b03929092169190911790556109ab61098e6020840184611fe5565b61ffff166109a26040850160208601611fe5565b61ffff16611493565b604080518082019091526109dd90600190806109ca6020870187611fe5565b61ffff16815260006020909101526111b7565b610a1660026040518060400160405280600061ffff168152602001856020016020810190610a0b9190611fe5565b61ffff1690526111b7565b801561065a576000805461ff0019169055604051600181527f7f26b83ff96e1f2b6a682f133852f6798a09c465da95921460cefb38474024989060200160405180910390a1505050565b609760009054906101000a90046001600160a01b03166001600160a01b031663f17063756040518163ffffffff1660e01b815260040160206040518083038186803b158015610aae57600080fd5b505afa158015610ac2573d6000803e3d6000fd5b505050506040513d601f19601f82011682018060405250810190610ae69190611fa6565b15610b265760405162461bcd60e51b815260206004820152601060248201526f3830bab9b2b21037b910333937bd32b760811b6044820152606401610318565b60cc546001600160a01b0384811691161480610b4f575060cd546001600160a01b038481169116145b610b8b5760405162461bcd60e51b815260206004820152600d60248201526c2929a91037b910292a37b5b2b760991b6044820152606401610318565b60cc546001600160a01b03848116911614600080610ba7610e83565b9050600083610bb7578151610bbd565b81602001515b62ffffff16905060008111610c0c5760405162461bcd60e51b81526020600482015260156024820152746e6f7468696e6720746f206469737472696275746560581b6044820152606401610318565b610c168186612016565b925050506000610c2660c9611596565b67ffffffffffffffff811115610c3e57610c3e611c7c565b604051908082528060200260200182016040528015610c8957816020015b6040805160608101825260008082526020808301829052928201528252600019909201910181610c5c5790505b5090506000805b610c9a60c9611596565b811015610dcf576000610cae60c9836115a6565b9050600086610cd9576001600160a01b038216600090815260cb602052604090205461ffff16610cfd565b6001600160a01b038216600090815260cb602052604090205462010000900461ffff165b61ffff16905080610d0f575050610dbf565b6000610d1b8288612038565b90506001600160a01b03831660011415610d425760ce546001600160a01b03169250610d63565b6001600160a01b03831660021415610d635760cf546001600160a01b031692505b60405180606001604052808c6001600160a01b03168152602001846001600160a01b0316815260200182815250868681518110610da257610da2612057565b60200260200101819052508480610db89061206d565b9550505050505b610dc88161206d565b9050610c90565b5084866001600160a01b0316886001600160a01b03167fe892c32f65273e1958c615dd9fd0eaa040ab9a374d002866bbab6092954bbd2060405160405180910390a460005b81811015610e79576000838281518110610e3057610e30612057565b60200260200101519050610e66888260200151836040015184600001516001600160a01b03166115b9909392919063ffffffff16565b5080610e718161206d565b915050610e14565b5050505050505050565b60408051808201909152600080825260208201526000610ea360c9611596565b905060005b81811015610f3357600060cb81610ec060c9856115a6565b6001600160a01b0316815260208101919091526040016000208054855191925061ffff16908590610ef2908390612088565b62ffffff1690525080546020850180516201000090920461ffff1691610f19908390612088565b62ffffff16905250610f2c90508161206d565b9050610ea8565b505090565b6001600160a01b03163b151590565b60975460408051808201909152600581526427aba722a960d91b60208201526001600160a01b03909116906391d1485490610f8190611f7f565b336040516001600160e01b031960e085901b16815260048101929092526001600160a01b0316602482015260440160206040518083038186803b158015610fc757600080fd5b505afa158015610fdb573d6000803e3d6000fd5b505050506040513d601f19601f82011682018060405250810190610fff9190611fa6565b6103b55760405162461bcd60e51b815260206004820152600f60248201526e676f7665726e616e6365206f6e6c7960881b6044820152606401610318565b7f4910fdfa16fed3260ed0e7147f7cc6da11a60208b5b9406d12a635614ffd91435460ff16156110705761065a83611619565b826001600160a01b03166352d1902d6040518163ffffffff1660e01b815260040160206040518083038186803b1580156110a957600080fd5b505afa9250505080156110d9575060408051601f3d908101601f191682019092526110d6918101906120af565b60015b61113c5760405162461bcd60e51b815260206004820152602e60248201527f45524331393637557067726164653a206e657720696d706c656d656e7461746960448201526d6f6e206973206e6f74205555505360901b6064820152608401610318565b60008051602061215d83398151915281146111ab5760405162461bcd60e51b815260206004820152602960248201527f45524331393637557067726164653a20756e737570706f727465642070726f786044820152681a58589b195555525160ba1b6064820152608401610318565b5061065a8383836116b5565b6001600160a01b0382166112035760405162461bcd60e51b8152602060048201526013602482015272646573742063616e6e6f74206265207a65726f60681b6044820152606401610318565b6001600160a01b0382166001141561126b57602081015161ffff161561126b5760405162461bcd60e51b815260206004820152601a60248201527f4675726e616365206d75737420676574203025206f66205253520000000000006044820152606401610318565b6001600160a01b038216600214156112d057805161ffff16156112d05760405162461bcd60e51b815260206004820152601b60248201527f5374525352206d75737420676574203025206f662052546f6b656e00000000006044820152606401610318565b612710816020015161ffff16111561132a5760405162461bcd60e51b815260206004820152601960248201527f52535220646973747269627574696f6e20746f6f2068696768000000000000006044820152606401610318565b612710816000015161ffff1611156113845760405162461bcd60e51b815260206004820152601c60248201527f52546f6b656e20646973747269627574696f6e20746f6f2068696768000000006044820152606401610318565b602081015161ffff1615801561139d5750805161ffff16155b156113b3576113ad60c9836116da565b50611411565b6113be60c9836116ef565b5060646113cb60c9611596565b11156114115760405162461bcd60e51b8152602060048201526015602482015274546f6f206d616e792064657374696e6174696f6e7360581b6044820152606401610318565b6001600160a01b038216600081815260cb6020908152604091829020845181548684015161ffff92831663ffffffff199092168217620100009390911692830217909255835194855291840152908201527f3ee8237f3f4cb0108563a22b98236b44cee655fc708d3097420b4b9215dbbe5a9060600160405180910390a15050565b60008262ffffff1611806114ac575060008162ffffff16115b6104855760405162461bcd60e51b815260206004820152601760248201527f6e6f20646973747269627574696f6e20646566696e65640000000000000000006044820152606401610318565b600054610100900460ff1661151f5760405162461bcd60e51b8152600401610318906120c8565b6001600160a01b03811661156c5760405162461bcd60e51b81526020600482015260146024820152736d61696e206973207a65726f206164647265737360601b6044820152606401610318565b611574611704565b609780546001600160a01b0319166001600160a01b0392909216919091179055565b60006115a0825490565b92915050565b60006115b2838361172d565b9392505050565b604080516001600160a01b0385811660248301528416604482015260648082018490528251808303909101815260849091019091526020810180516001600160e01b03166323b872dd60e01b179052611613908590611757565b50505050565b6001600160a01b0381163b6116865760405162461bcd60e51b815260206004820152602d60248201527f455243313936373a206e657720696d706c656d656e746174696f6e206973206e60448201526c1bdd08184818dbdb9d1c9858dd609a1b6064820152608401610318565b60008051602061215d83398151915280546001600160a01b0319166001600160a01b0392909216919091179055565b6116be83611829565b6000825111806116cb5750805b1561065a576116138383611869565b60006115b2836001600160a01b03841661195d565b60006115b2836001600160a01b038416611a50565b600054610100900460ff1661172b5760405162461bcd60e51b8152600401610318906120c8565b565b600082600001828154811061174457611744612057565b9060005260206000200154905092915050565b60006117ac826040518060400160405280602081526020017f5361666545524332303a206c6f772d6c6576656c2063616c6c206661696c6564815250856001600160a01b0316611a9f9092919063ffffffff16565b80519091501561065a57808060200190518101906117ca9190611fa6565b61065a5760405162461bcd60e51b815260206004820152602a60248201527f5361666545524332303a204552433230206f7065726174696f6e20646964206e6044820152691bdd081cdd58d8d9595960b21b6064820152608401610318565b61183281611619565b6040516001600160a01b038216907fbc7cd75a20ee27fd9adebab32041f755214dbc6bffa90cc0225b39da2e5c2d3b90600090a250565b60606001600160a01b0383163b6118d15760405162461bcd60e51b815260206004820152602660248201527f416464726573733a2064656c65676174652063616c6c20746f206e6f6e2d636f6044820152651b9d1c9858dd60d21b6064820152608401610318565b600080846001600160a01b0316846040516118ec9190612113565b600060405180830381855af49150503d8060008114611927576040519150601f19603f3d011682016040523d82523d6000602084013e61192c565b606091505b5091509150611954828260405180606001604052806027815260200161217d60279139611ab6565b95945050505050565b60008181526001830160205260408120548015611a4657600061198160018361212f565b85549091506000906119959060019061212f565b90508181146119fa5760008660000182815481106119b5576119b5612057565b90600052602060002001549050808760000184815481106119d8576119d8612057565b6000918252602080832090910192909255918252600188019052604090208390555b8554869080611a0b57611a0b612146565b6001900381819060005260206000200160009055905585600101600086815260200190815260200160002060009055600193505050506115a0565b60009150506115a0565b6000818152600183016020526040812054611a97575081546001818101845560008481526020808220909301849055845484825282860190935260409020919091556115a0565b5060006115a0565b6060611aae8484600085611acf565b949350505050565b60608315611ac55750816115b2565b6115b28383611baa565b606082471015611b305760405162461bcd60e51b815260206004820152602660248201527f416464726573733a20696e73756666696369656e742062616c616e636520666f6044820152651c8818d85b1b60d21b6064820152608401610318565b600080866001600160a01b03168587604051611b4c9190612113565b60006040518083038185875af1925050503d8060008114611b89576040519150601f19603f3d011682016040523d82523d6000602084013e611b8e565b606091505b5091509150611b9f87838387611bd4565b979650505050505050565b815115611bba5781518083602001fd5b8060405162461bcd60e51b81526004016103189190611d97565b60608315611c40578251611c39576001600160a01b0385163b611c395760405162461bcd60e51b815260206004820152601d60248201527f416464726573733a2063616c6c20746f206e6f6e2d636f6e74726163740000006044820152606401610318565b5081611aae565b611aae8383611baa565b6001600160a01b03811681146103b557600080fd5b600060208284031215611c7157600080fd5b81356115b281611c4a565b634e487b7160e01b600052604160045260246000fd5b604051601f8201601f1916810167ffffffffffffffff81118282101715611cbb57611cbb611c7c565b604052919050565b60008060408385031215611cd657600080fd5b8235611ce181611c4a565b915060208381013567ffffffffffffffff80821115611cff57600080fd5b818601915086601f830112611d1357600080fd5b813581811115611d2557611d25611c7c565b611d37601f8201601f19168501611c92565b91508082528784828501011115611d4d57600080fd5b80848401858401376000848284010152508093505050509250929050565b60005b83811015611d86578181015183820152602001611d6e565b838111156116135750506000910152565b6020815260008251806020840152611db6816040850160208701611d6b565b601f01601f19169190910160400192915050565b803561ffff81168114611ddc57600080fd5b919050565b6000808284036060811215611df557600080fd5b8335611e0081611c4a565b92506040601f1982011215611e1457600080fd5b506040516040810181811067ffffffffffffffff82111715611e3857611e38611c7c565b604052611e4760208501611dca565b8152611e5560408501611dca565b6020820152809150509250929050565b6000808284036060811215611e7957600080fd5b8335611e8481611c4a565b92506040601f1982011215611e9857600080fd5b506020830190509250929050565b600080600060608486031215611ebb57600080fd5b8335611ec681611c4a565b92506020840135611ed681611c4a565b929592945050506040919091013590565b6020808252602c908201527f46756e6374696f6e206d7573742062652063616c6c6564207468726f7567682060408201526b19195b1959d85d1958d85b1b60a21b606082015260800190565b6020808252602c908201527f46756e6374696f6e206d7573742062652063616c6c6564207468726f7567682060408201526b6163746976652070726f787960a01b606082015260800190565b80516020808301519190811015611fa0576000198160200360031b1b821691505b50919050565b600060208284031215611fb857600080fd5b815180151581146115b257600080fd5b600060208284031215611fda57600080fd5b81516115b281611c4a565b600060208284031215611ff757600080fd5b6115b282611dca565b634e487b7160e01b600052601160045260246000fd5b60008261203357634e487b7160e01b600052601260045260246000fd5b500490565b600081600019048311821515161561205257612052612000565b500290565b634e487b7160e01b600052603260045260246000fd5b600060001982141561208157612081612000565b5060010190565b600062ffffff8083168185168083038211156120a6576120a6612000565b01949350505050565b6000602082840312156120c157600080fd5b5051919050565b6020808252602b908201527f496e697469616c697a61626c653a20636f6e7472616374206973206e6f74206960408201526a6e697469616c697a696e6760a81b606082015260800190565b60008251612125818460208701611d6b565b9190910192915050565b60008282101561214157612141612000565b500390565b634e487b7160e01b600052603160045260246000fdfe360894a13ba1a3210667c828492db98dca3e2076cc3735a920a3ca505d382bbc416464726573733a206c6f772d6c6576656c2064656c65676174652063616c6c206661696c6564a2646970667358221220037ab61bc192a87c7724ca526fec814453614adbf599b4735066be535e5b5faf64736f6c63430008090033",
  "linkReferences": {},
  "deployedLinkReferences": {}
}