{
  "_format": "hh-sol-artifact-1",
  "contractName": "BasketHandlerP1V2",
  "sourceName": "contracts/reserve/plugins/mocks/upgrades/BasketHandlerV2.sol",
  "abi": [
    {
      "inputs": [],
      "name": "UIntOutOfBounds",
      "type": "error"
    },
    {
      "anonymous": false,
      "inputs": [
        {
          "indexed": false,
          "internalType": "address",
          "name": "previousAdmin",
          "type": "address"
        },
        {
          "indexed": false,
          "internalType": "address",
          "name": "newAdmin",
          "type": "address"
        }
      ],
      "name": "AdminChanged",
      "type": "event"
    },
    {
      "anonymous": false,
      "inputs": [
        {
          "indexed": true,
          "internalType": "bytes32",
          "name": "targetName",
          "type": "bytes32"
        },
        {
          "indexed": true,
          "internalType": "uint256",
          "name": "max",
          "type": "uint256"
        },
        {
          "indexed": false,
          "internalType": "contract IERC20[]",
          "name": "erc20s",
          "type": "address[]"
        }
      ],
      "name": "BackupConfigSet",
      "type": "event"
    },
    {
      "anonymous": false,
      "inputs": [
        {
          "indexed": true,
          "internalType": "uint256",
          "name": "nonce",
          "type": "uint256"
        },
        {
          "indexed": false,
          "internalType": "contract IERC20[]",
          "name": "erc20s",
          "type": "address[]"
        },
        {
          "indexed": false,
          "internalType": "uint192[]",
          "name": "refAmts",
          "type": "uint192[]"
        },
        {
          "indexed": false,
          "internalType": "bool",
          "name": "disabled",
          "type": "bool"
        }
      ],
      "name": "BasketSet",
      "type": "event"
    },
    {
      "anonymous": false,
      "inputs": [
        {
          "indexed": true,
          "internalType": "address",
          "name": "beacon",
          "type": "address"
        }
      ],
      "name": "BeaconUpgraded",
      "type": "event"
    },
    {
      "anonymous": false,
      "inputs": [
        {
          "indexed": false,
          "internalType": "uint8",
          "name": "version",
          "type": "uint8"
        }
      ],
      "name": "Initialized",
      "type": "event"
    },
    {
      "anonymous": false,
      "inputs": [
        {
          "indexed": false,
          "internalType": "contract IERC20[]",
          "name": "erc20s",
          "type": "address[]"
        },
        {
          "indexed": false,
          "internalType": "uint192[]",
          "name": "targetAmts",
          "type": "uint192[]"
        },
        {
          "indexed": false,
          "internalType": "bytes32[]",
          "name": "targetNames",
          "type": "bytes32[]"
        }
      ],
      "name": "PrimeBasketSet",
      "type": "event"
    },
    {
      "anonymous": false,
      "inputs": [
        {
          "indexed": true,
          "internalType": "address",
          "name": "implementation",
          "type": "address"
        }
      ],
      "name": "Upgraded",
      "type": "event"
    },
    {
      "inputs": [],
      "name": "MAX_TARGET_AMT",
      "outputs": [
        {
          "internalType": "uint192",
          "name": "",
          "type": "uint192"
        }
      ],
      "stateMutability": "view",
      "type": "function"
    },
    {
      "inputs": [
        {
          "internalType": "address",
          "name": "account",
          "type": "address"
        }
      ],
      "name": "basketsHeldBy",
      "outputs": [
        {
          "internalType": "uint192",
          "name": "baskets",
          "type": "uint192"
        }
      ],
      "stateMutability": "view",
      "type": "function"
    },
    {
      "inputs": [],
      "name": "disableBasket",
      "outputs": [],
      "stateMutability": "nonpayable",
      "type": "function"
    },
    {
      "inputs": [],
      "name": "fallbackPrice",
      "outputs": [
        {
          "internalType": "uint192",
          "name": "p",
          "type": "uint192"
        }
      ],
      "stateMutability": "view",
      "type": "function"
    },
    {
      "inputs": [],
      "name": "fullyCollateralized",
      "outputs": [
        {
          "internalType": "bool",
          "name": "",
          "type": "bool"
        }
      ],
      "stateMutability": "view",
      "type": "function"
    },
    {
      "inputs": [
        {
          "internalType": "contract IMain",
          "name": "main_",
          "type": "address"
        }
      ],
      "name": "init",
      "outputs": [],
      "stateMutability": "nonpayable",
      "type": "function"
    },
    {
      "inputs": [],
      "name": "main",
      "outputs": [
        {
          "internalType": "contract IMain",
          "name": "",
          "type": "address"
        }
      ],
      "stateMutability": "view",
      "type": "function"
    },
    {
      "inputs": [],
      "name": "newValue",
      "outputs": [
        {
          "internalType": "uint256",
          "name": "",
          "type": "uint256"
        }
      ],
      "stateMutability": "view",
      "type": "function"
    },
    {
      "inputs": [],
      "name": "nonce",
      "outputs": [
        {
          "internalType": "uint48",
          "name": "",
          "type": "uint48"
        }
      ],
      "stateMutability": "view",
      "type": "function"
    },
    {
      "inputs": [],
      "name": "price",
      "outputs": [
        {
          "internalType": "uint192",
          "name": "low",
          "type": "uint192"
        },
        {
          "internalType": "uint192",
          "name": "high",
          "type": "uint192"
        }
      ],
      "stateMutability": "view",
      "type": "function"
    },
    {
      "inputs": [],
      "name": "proxiableUUID",
      "outputs": [
        {
          "internalType": "bytes32",
          "name": "",
          "type": "bytes32"
        }
      ],
      "stateMutability": "view",
      "type": "function"
    },
    {
      "inputs": [
        {
          "internalType": "contract IERC20",
          "name": "erc20",
          "type": "address"
        }
      ],
      "name": "quantity",
      "outputs": [
        {
          "internalType": "uint192",
          "name": "",
          "type": "uint192"
        }
      ],
      "stateMutability": "view",
      "type": "function"
    },
    {
      "inputs": [
        {
          "internalType": "uint192",
          "name": "amount",
          "type": "uint192"
        },
        {
          "internalType": "enum RoundingMode",
          "name": "rounding",
          "type": "uint8"
        }
      ],
      "name": "quote",
      "outputs": [
        {
          "internalType": "address[]",
          "name": "erc20s",
          "type": "address[]"
        },
        {
          "internalType": "uint256[]",
          "name": "quantities",
          "type": "uint256[]"
        }
      ],
      "stateMutability": "view",
      "type": "function"
    },
    {
      "inputs": [],
      "name": "refreshBasket",
      "outputs": [],
      "stateMutability": "nonpayable",
      "type": "function"
    },
    {
      "inputs": [
        {
          "internalType": "bytes32",
          "name": "targetName",
          "type": "bytes32"
        },
        {
          "internalType": "uint256",
          "name": "max",
          "type": "uint256"
        },
        {
          "internalType": "contract IERC20[]",
          "name": "erc20s",
          "type": "address[]"
        }
      ],
      "name": "setBackupConfig",
      "outputs": [],
      "stateMutability": "nonpayable",
      "type": "function"
    },
    {
      "inputs": [
        {
          "internalType": "uint256",
          "name": "newValue_",
          "type": "uint256"
        }
      ],
      "name": "setNewValue",
      "outputs": [],
      "stateMutability": "nonpayable",
      "type": "function"
    },
    {
      "inputs": [
        {
          "internalType": "contract IERC20[]",
          "name": "erc20s",
          "type": "address[]"
        },
        {
          "internalType": "uint192[]",
          "name": "targetAmts",
          "type": "uint192[]"
        }
      ],
      "name": "setPrimeBasket",
      "outputs": [],
      "stateMutability": "nonpayable",
      "type": "function"
    },
    {
      "inputs": [],
      "name": "status",
      "outputs": [
        {
          "internalType": "enum CollateralStatus",
          "name": "status_",
          "type": "uint8"
        }
      ],
      "stateMutability": "view",
      "type": "function"
    },
    {
      "inputs": [],
      "name": "timestamp",
      "outputs": [
        {
          "internalType": "uint48",
          "name": "",
          "type": "uint48"
        }
      ],
      "stateMutability": "view",
      "type": "function"
    },
    {
      "inputs": [
        {
          "internalType": "address",
          "name": "newImplementation",
          "type": "address"
        }
      ],
      "name": "upgradeTo",
      "outputs": [],
      "stateMutability": "nonpayable",
      "type": "function"
    },
    {
      "inputs": [
        {
          "internalType": "address",
          "name": "newImplementation",
          "type": "address"
        },
        {
          "internalType": "bytes",
          "name": "data",
          "type": "bytes"
        }
      ],
      "name": "upgradeToAndCall",
      "outputs": [],
      "stateMutability": "payable",
      "type": "function"
    },
    {
      "inputs": [],
      "name": "version",
      "outputs": [
        {
          "internalType": "string",
          "name": "",
          "type": "string"
        }
      ],
      "stateMutability": "pure",
      "type": "function"
    }
  ],
  "bytecode": "0x60a0604052306080523480156200001557600080fd5b50600054610100900460ff1615808015620000375750600054600160ff909116105b8062000067575062000054306200014160201b620026fb1760201c565b15801562000067575060005460ff166001145b620000cf5760405162461bcd60e51b815260206004820152602e60248201527f496e697469616c697a61626c653a20636f6e747261637420697320616c72656160448201526d191e481a5b9a5d1a585b1a5e995960921b606482015260840160405180910390fd5b6000805460ff191660011790558015620000f3576000805461ff0019166101001790555b80156200013a576000805461ff0019169055604051600181527f7f26b83ff96e1f2b6a682f133852f6798a09c465da95921460cefb38474024989060200160405180910390a15b5062000150565b6001600160a01b03163b151590565b608051614ee36200018860003960008181610a0701528181610a4701528181610ae701528181610b270152610bb60152614ee36000f3fe6080604052600436106101355760003560e01c8063a5a5828c116100ab578063dffeadd01161006f578063dffeadd01461038c578063e27f3bef146103c4578063e28a1b86146103d9578063e45a5b2d146103ee578063ef2b933714610413578063f11d46481461043357600080fd5b8063a5a5828c146102bf578063aa47955e146102df578063affed0e0146102ff578063b80777ea14610335578063c620f0fc1461035e57600080fd5b806354fd4d50116100fd57806354fd4d50146101dd5780637c65452c146102115780637e4e2d08146102285780638a55015b14610255578063951c40771461026a578063a035b1fe1461028a57600080fd5b806319ab453c1461013a578063200d2ed21461015c5780633659cfe6146101875780634f1ef286146101a757806352d1902d146101ba575b600080fd5b34801561014657600080fd5b5061015a610155366004614402565b610453565b005b34801561016857600080fd5b5061017161086d565b60405161017e9190614435565b60405180910390f35b34801561019357600080fd5b5061015a6101a2366004614402565b6109fc565b61015a6101b5366004614473565b610adc565b3480156101c657600080fd5b506101cf610ba9565b60405190815260200161017e565b3480156101e957600080fd5b5060408051808201825260058152640322e302e360dc1b6020820152905161017e9190614563565b34801561021d57600080fd5b506101cf6101035481565b34801561023457600080fd5b5061023d610c5c565b6040516001600160c01b03909116815260200161017e565b34801561026157600080fd5b5061015a610c73565b34801561027657600080fd5b5061015a610285366004614596565b610e91565b34801561029657600080fd5b5061029f610f6b565b604080516001600160c01b0393841681529290911660208301520161017e565b3480156102cb57600080fd5b5061023d6102da366004614402565b61118b565b3480156102eb57600080fd5b5061023d6102fa366004614402565b611371565b34801561030b57600080fd5b5060d45461031e9065ffffffffffff1681565b60405165ffffffffffff909116815260200161017e565b34801561034157600080fd5b5060d45461031e906601000000000000900465ffffffffffff1681565b34801561036a57600080fd5b5061037e6103793660046145d1565b611691565b60405161017e92919061460a565b34801561039857600080fd5b506097546103ac906001600160a01b031681565b6040516001600160a01b03909116815260200161017e565b3480156103d057600080fd5b5061015a6118a1565b3480156103e557600080fd5b5061023d6119a5565b3480156103fa57600080fd5b50610403611b5f565b604051901515815260200161017e565b34801561041f57600080fd5b5061015a61042e3660046146da565b611c0e565b34801561043f57600080fd5b5061015a61044e366004614746565b6123dd565b600054610100900460ff16158080156104735750600054600160ff909116105b8061048d5750303b15801561048d575060005460ff166001145b6104f55760405162461bcd60e51b815260206004820152602e60248201527f496e697469616c697a61626c653a20636f6e747261637420697320616c72656160448201526d191e481a5b9a5d1a585b1a5e995960921b60648201526084015b60405180910390fd5b6000805460ff191660011790558015610518576000805461ff0019166101001790555b6105218261270a565b816001600160a01b031663979d7e866040518163ffffffff1660e01b815260040160206040518083038186803b15801561055a57600080fd5b505afa15801561056e573d6000803e3d6000fd5b505050506040513d601f19601f82011682018060405250810190610592919061478d565b60c960006101000a8154816001600160a01b0302191690836001600160a01b03160217905550816001600160a01b031663dc8af5f66040518163ffffffff1660e01b815260040160206040518083038186803b1580156105f157600080fd5b505afa158015610605573d6000803e3d6000fd5b505050506040513d601f19601f82011682018060405250810190610629919061478d565b60ca60006101000a8154816001600160a01b0302191690836001600160a01b03160217905550816001600160a01b031663c99dc3dd6040518163ffffffff1660e01b815260040160206040518083038186803b15801561068857600080fd5b505afa15801561069c573d6000803e3d6000fd5b505050506040513d601f19601f820116820180604052508101906106c0919061478d565b60cb60006101000a8154816001600160a01b0302191690836001600160a01b03160217905550816001600160a01b03166340c65f726040518163ffffffff1660e01b815260040160206040518083038186803b15801561071f57600080fd5b505afa158015610733573d6000803e3d6000fd5b505050506040513d601f19601f82011682018060405250810190610757919061478d565b60cc60006101000a8154816001600160a01b0302191690836001600160a01b03160217905550816001600160a01b0316634780a5e56040518163ffffffff1660e01b815260040160206040518083038186803b1580156107b657600080fd5b505afa1580156107ca573d6000803e3d6000fd5b505050506040513d601f19601f820116820180604052508101906107ee919061478d565b60cd80546001600160a01b03929092166001600160a01b031990921691909117905560d4805460ff60601b1916600160601b1790558015610869576000805461ff0019169055604051600181527f7f26b83ff96e1f2b6a682f133852f6798a09c465da95921460cefb38474024989060200160405180910390a15b5050565b60d25460d45460009190600160601b900460ff168061088a575080155b1561089757600291505090565b60005b818110156109f75760c95460d280546000926001600160a01b0316916357a26a4091859081106108cc576108cc6147aa565b60009182526020909120015460405160e083901b6001600160e01b03191681526001600160a01b03909116600482015260240160206040518083038186803b15801561091757600080fd5b505afa15801561092b573d6000803e3d6000fd5b505050506040513d601f19601f8201168201806040525081019061094f919061478d565b6001600160a01b031663200d2ed26040518163ffffffff1660e01b815260040160206040518083038186803b15801561098757600080fd5b505afa15801561099b573d6000803e3d6000fd5b505050506040513d601f19601f820116820180604052508101906109bf91906147c0565b90506109dd848260028111156109d7576109d761441f565b906127a8565b156109e6578093505b506109f0816147f3565b905061089a565b505090565b306001600160a01b037f0000000000000000000000000000000000000000000000000000000000000000161415610a455760405162461bcd60e51b81526004016104ec9061480e565b7f00000000000000000000000000000000000000000000000000000000000000006001600160a01b0316610a8e600080516020614e67833981519152546001600160a01b031690565b6001600160a01b031614610ab45760405162461bcd60e51b81526004016104ec9061485a565b610abd816127d8565b60408051600080825260208201909252610ad9918391906128ac565b50565b306001600160a01b037f0000000000000000000000000000000000000000000000000000000000000000161415610b255760405162461bcd60e51b81526004016104ec9061480e565b7f00000000000000000000000000000000000000000000000000000000000000006001600160a01b0316610b6e600080516020614e67833981519152546001600160a01b031690565b6001600160a01b031614610b945760405162461bcd60e51b81526004016104ec9061485a565b610b9d826127d8565b610869828260016128ac565b6000306001600160a01b037f00000000000000000000000000000000000000000000000000000000000000001614610c495760405162461bcd60e51b815260206004820152603860248201527f555550535570677261646561626c653a206d757374206e6f742062652063616c60448201527f6c6564207468726f7567682064656c656761746563616c6c000000000000000060648201526084016104ec565b50600080516020614e6783398151915290565b610c70670de0b6b3a76400006103e86148a6565b81565b60c960009054906101000a90046001600160a01b03166001600160a01b031663f8ac93e86040518163ffffffff1660e01b8152600401600060405180830381600087803b158015610cc357600080fd5b505af1158015610cd7573d6000803e3d6000fd5b505060975460408051808201909152600581526427aba722a960d91b60208201526001600160a01b0390911692506391d148549150610d15906148d5565b336040516001600160e01b031960e085901b16815260048101929092526001600160a01b0316602482015260440160206040518083038186803b158015610d5b57600080fd5b505afa158015610d6f573d6000803e3d6000fd5b505050506040513d601f19601f82011682018060405250810190610d9391906148fc565b80610e4457506002610da361086d565b6002811115610db457610db461441f565b148015610e445750609760009054906101000a90046001600160a01b03166001600160a01b031663f17063756040518163ffffffff1660e01b815260040160206040518083038186803b158015610e0a57600080fd5b505afa158015610e1e573d6000803e3d6000fd5b505050506040513d601f19601f82011682018060405250810190610e4291906148fc565b155b610e875760405162461bcd60e51b81526020600482015260146024820152736261736b657420756e7265667265736861626c6560601b60448201526064016104ec565b610e8f612a2b565b565b60975460408051808201909152600581526427aba722a960d91b60208201526001600160a01b03909116906391d1485490610ecb906148d5565b336040516001600160e01b031960e085901b16815260048101929092526001600160a01b0316602482015260440160206040518083038186803b158015610f1157600080fd5b505afa158015610f25573d6000803e3d6000fd5b505050506040513d601f19601f82011682018060405250810190610f4991906148fc565b610f655760405162461bcd60e51b81526004016104ec9061491e565b61010355565b60d254600090819081908190815b81811015611143576000610fb660d26000018381548110610f9c57610f9c6147aa565b6000918252602090912001546001600160a01b031661118b565b90506001600160c01b038116610fcc5750611133565b60c95460d2805460009283926001600160a01b039091169163cde2be8a919087908110610ffb57610ffb6147aa565b60009182526020909120015460405160e083901b6001600160e01b03191681526001600160a01b03909116600482015260240160206040518083038186803b15801561104657600080fd5b505afa15801561105a573d6000803e3d6000fd5b505050506040513d601f19601f8201168201806040525081019061107e919061478d565b6001600160a01b031663a035b1fe6040518163ffffffff1660e01b8152600401604080518083038186803b1580156110b557600080fd5b505afa1580156110c9573d6000803e3d6000fd5b505050506040513d601f19601f820116820180604052508101906110ed9190614947565b915091506110fb8383613331565b61110e906001600160c01b031688614976565b965061111a8382613331565b61112d906001600160c01b031687614976565b95505050505b61113c816147f3565b9050610f79565b506001600160c01b038310156111595782611162565b6001600160c01b035b94506001600160c01b038210156111795781611182565b6001600160c01b035b93505050509091565b60c95460405163015e89a960e61b81526001600160a01b03838116600483015260009216906357a26a409060240160206040518083038186803b1580156111d157600080fd5b505afa925050508015611201575060408051601f3d908101601f191682019092526111fe9181019061478d565b60015b61120d57506000919050565b6002816001600160a01b031663200d2ed26040518163ffffffff1660e01b815260040160206040518083038186803b15801561124857600080fd5b505afa15801561125c573d6000803e3d6000fd5b505050506040513d601f19601f8201168201806040525081019061128091906147c0565b60028111156112915761129161441f565b14156112a05750600092915050565b6000816001600160a01b031663a7fa0faf6040518163ffffffff1660e01b815260040160206040518083038186803b1580156112db57600080fd5b505afa1580156112ef573d6000803e3d6000fd5b505050506040513d601f19601f82011682018060405250810190611313919061498e565b90506001600160c01b0381161561135a576001600160a01b038416600090815260d36020526040902054611352906001600160c01b03168260026133fc565b949350505050565b506001600160c01b039392505050565b5050919050565b60d25460009080158061138d575060d454600160601b900460ff165b1561139b5750600092915050565b6001600160c01b03915060005b8181101561136a5760c95460d280546000926001600160a01b0316916357a26a4091859081106113da576113da6147aa565b60009182526020909120015460405160e083901b6001600160e01b03191681526001600160a01b03909116600482015260240160206040518083038186803b15801561142557600080fd5b505afa158015611439573d6000803e3d6000fd5b505050506040513d601f19601f8201168201806040525081019061145d919061478d565b90506002816001600160a01b031663200d2ed26040518163ffffffff1660e01b815260040160206040518083038186803b15801561149a57600080fd5b505afa1580156114ae573d6000803e3d6000fd5b505050506040513d601f19601f820116820180604052508101906114d291906147c0565b60028111156114e3576114e361441f565b14156114f457506000949350505050565b6000816001600160a01b031663a7fa0faf6040518163ffffffff1660e01b815260040160206040518083038186803b15801561152f57600080fd5b505afa158015611543573d6000803e3d6000fd5b505050506040513d601f19601f82011682018060405250810190611567919061498e565b90506001600160c01b0381166115835750600095945050505050565b604051632ac07b9560e11b81526001600160a01b03878116600483015260009190841690635580f72a9060240160206040518083038186803b1580156115c857600080fd5b505afa1580156115dc573d6000803e3d6000fd5b505050506040513d601f19601f82011682018060405250810190611600919061498e565b9050600061165c83600260d2600101600060d26000018a81548110611627576116276147aa565b60009182526020808320909101546001600160a01b031683528201929092526040019020546001600160c01b031691906133fc565b905061167a876116756001600160c01b0385168461343e565b61344c565b9650505050508061168a906147f3565b90506113a8565b60d25460609081908067ffffffffffffffff8111156116b2576116b261445d565b6040519080825280602002602001820160405280156116db578160200160208202803683370190505b5092508067ffffffffffffffff8111156116f7576116f761445d565b604051908082528060200260200182016040528015611720578160200160208202803683370190505b50915060005b818110156118985760d2805482908110611742576117426147aa565b9060005260206000200160009054906101000a90046001600160a01b0316848281518110611772576117726147aa565b60200260200101906001600160a01b031690816001600160a01b03168152505061186b60d260000182815481106117ab576117ab6147aa565b600091825260209182902001546040805163313ce56760e01b815290516001600160a01b039092169263313ce56792600480840193829003018186803b1580156117f457600080fd5b505afa158015611808573d6000803e3d6000fd5b505050506040513d601f19601f8201168201806040525081019061182c91906149ab565b8661185b898961184b60d26000018881548110610f9c57610f9c6147aa565b6001600160c01b03169190613474565b6001600160c01b031691906134a1565b83828151811061187d5761187d6147aa565b6020908102919091010152611891816147f3565b9050611726565b50509250929050565b60c9546001600160a01b0316336001600160a01b0316146118fa5760405162461bcd60e51b81526020600482015260136024820152726173736574207265676973747279206f6e6c7960681b60448201526064016104ec565b60d25460009067ffffffffffffffff8111156119185761191861445d565b604051908082528060200260200182016040528015611941578160200160208202803683370190505b5060d45460405191925065ffffffffffff16907f96b0986d2e475227127142054ad0599449d839de95c18f73d7577f9af3c22f73906119879060d29085906001906149ce565b60405180910390a25060d4805460ff60601b1916600160601b179055565b60d2546000908190815b81811015611b395760006119d260d26000018381548110610f9c57610f9c6147aa565b90506001600160c01b0381166119e85750611b29565b60c95460d280546000926001600160a01b03169163cde2be8a9186908110611a1257611a126147aa565b60009182526020909120015460405160e083901b6001600160e01b03191681526001600160a01b03909116600482015260240160206040518083038186803b158015611a5d57600080fd5b505afa158015611a71573d6000803e3d6000fd5b505050506040513d601f19601f82011682018060405250810190611a95919061478d565b6001600160a01b031663e28a1b866040518163ffffffff1660e01b815260040160206040518083038186803b158015611acd57600080fd5b505afa158015611ae1573d6000803e3d6000fd5b505050506040513d601f19601f82011682018060405250810190611b05919061498e565b9050611b118282613331565b611b24906001600160c01b031686614976565b945050505b611b32816147f3565b90506119af565b506001600160c01b03821015611b4f5781611b58565b6001600160c01b035b9250505090565b60cc5460408051637121c27360e01b815290516000926001600160a01b031691637121c273916004808301926020929190829003018186803b158015611ba457600080fd5b505afa158015611bb8573d6000803e3d6000fd5b505050506040513d601f19601f82011682018060405250810190611bdc919061498e565b60ca546001600160c01b039190911690611bfe906001600160a01b0316611371565b6001600160c01b03161015905090565b60975460408051808201909152600581526427aba722a960d91b60208201526001600160a01b03909116906391d1485490611c48906148d5565b336040516001600160e01b031960e085901b16815260048101929092526001600160a01b0316602482015260440160206040518083038186803b158015611c8e57600080fd5b505afa158015611ca2573d6000803e3d6000fd5b505050506040513d601f19601f82011682018060405250810190611cc691906148fc565b611ce25760405162461bcd60e51b81526004016104ec9061491e565b82611d255760405162461bcd60e51b815260206004820152601360248201527218d85b9b9bdd08195b5c1d1e4818985cdad95d606a1b60448201526064016104ec565b828114611d6a5760405162461bcd60e51b81526020600482015260136024820152720daeae6e840c4ca40e6c2daca40d8cadccee8d606b1b60448201526064016104ec565b611d74848461357f565b60005b60ce54811015611e1b5760ce805460cf9160009184908110611d9b57611d9b6147aa565b60009182526020808320909101546001600160a01b03168352820192909252604001812080546001600160c01b031916905560ce805460d092919084908110611de657611de66147aa565b60009182526020808320909101546001600160a01b03168352820192909252604001812055611e14816147f3565b9050611d77565b50611e2860ce60006143bf565b60008367ffffffffffffffff811115611e4357611e4361445d565b604051908082528060200260200182016040528015611e6c578160200160208202803683370190505b50905060005b848110156123965760c9546001600160a01b031663cde2be8a878784818110611e9d57611e9d6147aa565b9050602002016020810190611eb29190614402565b6040516001600160e01b031960e084901b1681526001600160a01b03909116600482015260240160206040518083038186803b158015611ef157600080fd5b505afa158015611f05573d6000803e3d6000fd5b505050506040513d601f19601f82011682018060405250810190611f29919061478d565b6001600160a01b031663c59b3d636040518163ffffffff1660e01b815260040160206040518083038186803b158015611f6157600080fd5b505afa158015611f75573d6000803e3d6000fd5b505050506040513d601f19601f82011682018060405250810190611f9991906148fc565b611fdf5760405162461bcd60e51b81526020600482015260176024820152761d1bdad95b881a5cc81b9bdd0818dbdb1b185d195c985b604a1b60448201526064016104ec565b838382818110611ff157611ff16147aa565b90506020020160208101906120069190614a6c565b6001600160c01b031660001061206d5760405162461bcd60e51b815260206004820152602660248201527f696e76616c69642074617267657420616d6f756e743b206d757374206265206e6044820152656f6e7a65726f60d01b60648201526084016104ec565b612081670de0b6b3a76400006103e86148a6565b6001600160c01b031684848381811061209c5761209c6147aa565b90506020020160208101906120b19190614a6c565b6001600160c01b031611156121085760405162461bcd60e51b815260206004820181905260248201527f696e76616c69642074617267657420616d6f756e743b20746f6f206c6172676560448201526064016104ec565b60ce86868381811061211c5761211c6147aa565b90506020020160208101906121319190614402565b81546001810183556000928352602090922090910180546001600160a01b0319166001600160a01b03909216919091179055838382818110612175576121756147aa565b905060200201602081019061218a9190614a6c565b60cf60008888858181106121a0576121a06147aa565b90506020020160208101906121b59190614402565b6001600160a01b039081168252602082019290925260400160002080546001600160c01b0319166001600160c01b03939093169290921790915560c954166357a26a4087878481811061220a5761220a6147aa565b905060200201602081019061221f9190614402565b6040516001600160e01b031960e084901b1681526001600160a01b03909116600482015260240160206040518083038186803b15801561225e57600080fd5b505afa158015612272573d6000803e3d6000fd5b505050506040513d601f19601f82011682018060405250810190612296919061478d565b6001600160a01b031663fdfd59176040518163ffffffff1660e01b815260040160206040518083038186803b1580156122ce57600080fd5b505afa1580156122e2573d6000803e3d6000fd5b505050506040513d601f19601f820116820180604052508101906123069190614a89565b828281518110612318576123186147aa565b602002602001018181525050818181518110612336576123366147aa565b602002602001015160ce6002016000888885818110612357576123576147aa565b905060200201602081019061236c9190614402565b6001600160a01b0316815260208101919091526040016000205561238f816147f3565b9050611e72565b507f629da6921e2e606994411ee546db2cd47613a15eb48b5f4e474506e11349ab2085858585856040516123ce959493929190614aeb565b60405180910390a15050505050565b60975460408051808201909152600581526427aba722a960d91b60208201526001600160a01b03909116906391d1485490612417906148d5565b336040516001600160e01b031960e085901b16815260048101929092526001600160a01b0316602482015260440160206040518083038186803b15801561245d57600080fd5b505afa158015612471573d6000803e3d6000fd5b505050506040513d601f19601f8201168201806040525081019061249591906148fc565b6124b15760405162461bcd60e51b81526004016104ec9061491e565b6124bb828261357f565b600084815260d160205260408120848155906124db9060018301906143bf565b60005b828110156126b85760c9546001600160a01b031663cde2be8a858584818110612509576125096147aa565b905060200201602081019061251e9190614402565b6040516001600160e01b031960e084901b1681526001600160a01b03909116600482015260240160206040518083038186803b15801561255d57600080fd5b505afa158015612571573d6000803e3d6000fd5b505050506040513d601f19601f82011682018060405250810190612595919061478d565b6001600160a01b031663c59b3d636040518163ffffffff1660e01b815260040160206040518083038186803b1580156125cd57600080fd5b505afa1580156125e1573d6000803e3d6000fd5b505050506040513d601f19601f8201168201806040525081019061260591906148fc565b61264b5760405162461bcd60e51b81526020600482015260176024820152761d1bdad95b881a5cc81b9bdd0818dbdb1b185d195c985b604a1b60448201526064016104ec565b81600101848483818110612661576126616147aa565b90506020020160208101906126769190614402565b81546001810183556000928352602090922090910180546001600160a01b0319166001600160a01b039092169190911790556126b1816147f3565b90506124de565b5083857f5e4dc2c7b1c113b11b34cda7c3dad9d453b0288298f8c9e9dd8e91515f22819d85856040516126ec929190614b89565b60405180910390a35050505050565b6001600160a01b03163b151590565b600054610100900460ff166127315760405162461bcd60e51b81526004016104ec90614b9d565b6001600160a01b03811661277e5760405162461bcd60e51b81526020600482015260146024820152736d61696e206973207a65726f206164647265737360601b60448201526064016104ec565b61278661384e565b609780546001600160a01b0319166001600160a01b0392909216919091179055565b60008160028111156127bc576127bc61441f565b8360028111156127ce576127ce61441f565b1190505b92915050565b60975460408051808201909152600581526427aba722a960d91b60208201526001600160a01b03909116906391d1485490612812906148d5565b336040516001600160e01b031960e085901b16815260048101929092526001600160a01b0316602482015260440160206040518083038186803b15801561285857600080fd5b505afa15801561286c573d6000803e3d6000fd5b505050506040513d601f19601f8201168201806040525081019061289091906148fc565b610ad95760405162461bcd60e51b81526004016104ec9061491e565b7f4910fdfa16fed3260ed0e7147f7cc6da11a60208b5b9406d12a635614ffd91435460ff16156128e4576128df83613875565b505050565b826001600160a01b03166352d1902d6040518163ffffffff1660e01b815260040160206040518083038186803b15801561291d57600080fd5b505afa92505050801561294d575060408051601f3d908101601f1916820190925261294a91810190614a89565b60015b6129b05760405162461bcd60e51b815260206004820152602e60248201527f45524331393637557067726164653a206e657720696d706c656d656e7461746960448201526d6f6e206973206e6f74205555505360901b60648201526084016104ec565b600080516020614e678339815191528114612a1f5760405162461bcd60e51b815260206004820152602960248201527f45524331393637557067726164653a20756e737570706f727465642070726f786044820152681a58589b195555525160ba1b60648201526084016104ec565b506128df838383613911565b60d4805460ff60601b191690555b6000612a4560d561393c565b1115612a6857612a62612a5a60d56000613946565b60d590613952565b50612a39565b612a7260d761395e565b60ce5460005b81811015612ade57612acd60ce600201600060ce6000018481548110612aa057612aa06147aa565b60009182526020808320909101546001600160a01b0316835282019290925260400190205460d5906139e7565b50612ad7816147f3565b9050612a78565b506000612aeb60d561393c565b905060008167ffffffffffffffff811115612b0857612b0861445d565b604051908082528060200260200182016040528015612b31578160200160208202803683370190505b50905060008267ffffffffffffffff811115612b4f57612b4f61445d565b604051908082528060200260200182016040528015612b78578160200160208202803683370190505b50905060005b84811015612e3557600060ce6000018281548110612b9e57612b9e6147aa565b60009182526020822001546001600160a01b031691505b85811015612bfc576001600160a01b038216600090815260d06020526040902054612be160d583613946565b1415612bec57612bfc565b612bf5816147f3565b9050612bb5565b858110612c0b57612c0b614be8565b6001600160a01b038216600090815260cf602052604090205484516001600160c01b0390911690612c69908290879085908110612c4a57612c4a6147aa565b60200260200101516001600160c01b03166139f390919063ffffffff16565b858381518110612c7b57612c7b6147aa565b6001600160c01b039092166020928302919091018201526001600160a01b038416600090815260d09091526040902054612cb590846139ff565b8015612cc957506001600160c01b03811615155b15612e2157612ce481878481518110612c4a57612c4a6147aa565b868381518110612cf657612cf66147aa565b6001600160c01b03929092166020928302919091019091015260c95460405163015e89a960e61b81526001600160a01b038086166004830152612e21928692612e1892909116906357a26a409060240160206040518083038186803b158015612d5e57600080fd5b505afa158015612d72573d6000803e3d6000fd5b505050506040513d601f19601f82011682018060405250810190612d96919061478d565b6001600160a01b031663d9e8e6706040518163ffffffff1660e01b815260040160206040518083038186803b158015612dce57600080fd5b505afa158015612de2573d6000803e3d6000fd5b505050506040513d601f19601f82011682018060405250810190612e06919061498e565b6001600160c01b0385169060026133fc565b60d79190613d05565b50505080612e2e906147f3565b9050612b7e565b5060005b8381101561315757612e8f838281518110612e5657612e566147aa565b6020026020010151838381518110612e7057612e706147aa565b60200260200101516001600160c01b0316613e0990919063ffffffff16565b15612e9957613147565b60008060d181612eaa60d586613946565b8152602081019190915260400160009081206001810154909250905b8181108015612ed55750825484105b15612f3a57612f17612ee860d587613946565b846001018381548110612efd57612efd6147aa565b6000918252602090912001546001600160a01b03166139ff565b15612f2a5783612f26816147f3565b9450505b612f33816147f3565b9050612ec6565b5082612f545760d4805460ff60601b1916600160601b1790555b600080612fa5888781518110612f6c57612f6c6147aa565b6020026020010151888881518110612f8657612f866147aa565b60200260200101516001600160c01b0316613e1b90919063ffffffff16565b905060005b8381108015612fb857508583105b15613140576000856001018281548110612fd457612fd46147aa565b6000918252602090912001546001600160a01b03169050612fff612ff960d58a613946565b826139ff565b1561312f5760c95460405163015e89a960e61b81526001600160a01b038084166004830152613121928492612e189261310f928d929116906357a26a409060240160206040518083038186803b15801561305857600080fd5b505afa15801561306c573d6000803e3d6000fd5b505050506040513d601f19601f82011682018060405250810190613090919061478d565b6001600160a01b031663d9e8e6706040518163ffffffff1660e01b815260040160206040518083038186803b1580156130c857600080fd5b505afa1580156130dc573d6000803e3d6000fd5b505050506040513d601f19601f82011682018060405250810190613100919061498e565b6001600160c01b031690613e27565b6001600160c01b0387169060026133fc565b8361312b816147f3565b9450505b50613139816147f3565b9050612faa565b5050505050505b613150816147f3565b9050612e39565b5060d754806131745760d4805460ff60601b1916600160601b1790555b60d454600160601b900460ff166131f75761319160d260d7613e3f565b60d48054600191906000906131af90849065ffffffffffff16614bfe565b92506101000a81548165ffffffffffff021916908365ffffffffffff1602179055504260d460066101000a81548165ffffffffffff021916908365ffffffffffff1602179055505b60d254945060008567ffffffffffffffff8111156132175761321761445d565b604051908082528060200260200182016040528015613240578160200160208202803683370190505b50905060005b868110156132d55760d2805460d39160009184908110613268576132686147aa565b60009182526020808320909101546001600160a01b0316835282019290925260400190205482516001600160c01b03909116908390839081106132ad576132ad6147aa565b6001600160c01b03909216602092830291909101909101526132ce816147f3565b9050613246565b5060d45460405165ffffffffffff8216917f96b0986d2e475227127142054ad0599449d839de95c18f73d7577f9af3c22f73916133219160d2918691600160601b900460ff16906149ce565b60405180910390a2505050505050565b60006001600160c01b038316158061335057506001600160c01b038216155b1561335d575060006127d2565b6001600160c01b03838116148061337c57506001600160c01b03828116145b1561338f57506001600160c01b036127d2565b6001600160c01b038281169084168181029182816133af576133af614c28565b04146133c5576001600160c01b039150506127d2565b6706f05b59d3b200008101818110156133e9576001600160c01b03925050506127d2565b670de0b6b3a76400009004949350505050565b600061343461342f61341f670de0b6b3a76400006001600160c01b038816614c3e565b856001600160c01b031685613f5d565b614007565b90505b9392505050565b6000613437838360006133fc565b6000816001600160c01b0316836001600160c01b03161061346d5781613437565b5090919050565b600061343461342f6134926001600160c01b03808716908816614c3e565b670de0b6b3a764000085613f5d565b60006001600160c01b0384166134b957506000613437565b6029198360000b136134f25760028260028111156134d9576134d961441f565b146134e55760006134e8565b60015b60ff169050613437565b8260000b6060136135165760405163f44398f560e01b815260040160405180910390fd5b613521601284614c5d565b925060006135318460000b614035565b61353c90600a614d82565b905060008460000b12156135635761355e856001600160c01b03168285613f5d565b613576565b613576816001600160c01b038716614c3e565b95945050505050565b6000805b828110156137cf5760cb546001600160a01b03168484838181106135a9576135a96147aa565b90506020020160208101906135be9190614402565b6001600160a01b031614156136155760405162461bcd60e51b815260206004820152601b60248201527f525352206973206e6f742076616c696420636f6c6c61746572616c000000000060448201526064016104ec565b60cc546001600160a01b0316848483818110613633576136336147aa565b90506020020160208101906136489190614402565b6001600160a01b0316141561369f5760405162461bcd60e51b815260206004820152601e60248201527f52546f6b656e206973206e6f742076616c696420636f6c6c61746572616c000060448201526064016104ec565b60cd546001600160a01b03168484838181106136bd576136bd6147aa565b90506020020160208101906136d29190614402565b6001600160a01b031614156137295760405162461bcd60e51b815260206004820152601d60248201527f7374525352206973206e6f742076616c696420636f6c6c61746572616c00000060448201526064016104ec565b816001600160a01b0316848483818110613745576137456147aa565b905060200201602081019061375a9190614402565b6001600160a01b031614156137bd5760405162461bcd60e51b8152602060048201526024808201527f61646472657373207a65726f206973206e6f742076616c696420636f6c6c6174604482015263195c985b60e21b60648201526084016104ec565b806137c7816147f3565b915050613583565b5061380c83838080602002602001604051908101604052809392919081815260200183836020028082843760009201919091525061404d92505050565b6128df5760405162461bcd60e51b8152602060048201526013602482015272636f6e7461696e73206475706c69636174657360681b60448201526064016104ec565b600054610100900460ff16610e8f5760405162461bcd60e51b81526004016104ec90614b9d565b6001600160a01b0381163b6138e25760405162461bcd60e51b815260206004820152602d60248201527f455243313936373a206e657720696d706c656d656e746174696f6e206973206e60448201526c1bdd08184818dbdb9d1c9858dd609a1b60648201526084016104ec565b600080516020614e6783398151915280546001600160a01b0319166001600160a01b0392909216919091179055565b61391a836140ea565b6000825111806139275750805b156128df57613936838361412a565b50505050565b60006127d2825490565b60006134378383614215565b6000613437838361423f565b805460005b818110156139db576000836001016000856000018481548110613988576139886147aa565b6000918252602080832091909101546001600160a01b03168352820192909252604001902080546001600160c01b0319166001600160c01b03929092169190911790556139d4816147f3565b9050613963565b506108698260006143bf565b60006134378383614332565b60006134378284614d8e565b60006001600160a01b038216613a17575060006127d2565b60cb546001600160a01b0383811691161415613a35575060006127d2565b60cc546001600160a01b0383811691161415613a53575060006127d2565b60cd546001600160a01b0383811691161415613a71575060006127d2565b60c95460405163015e89a960e61b81526001600160a01b038481166004830152909116906357a26a409060240160206040518083038186803b158015613ab657600080fd5b505afa925050508015613ae6575060408051601f3d908101601f19168201909252613ae39181019061478d565b60015b613af2575060006127d2565b806001600160a01b031663fdfd59176040518163ffffffff1660e01b815260040160206040518083038186803b158015613b2b57600080fd5b505afa158015613b3f573d6000803e3d6000fd5b505050506040513d601f19601f82011682018060405250810190613b639190614a89565b84148015613bf357506002816001600160a01b031663200d2ed26040518163ffffffff1660e01b815260040160206040518083038186803b158015613ba757600080fd5b505afa158015613bbb573d6000803e3d6000fd5b505050506040513d601f19601f82011682018060405250810190613bdf91906147c0565b6002811115613bf057613bf061441f565b14155b8015613c7857506000816001600160a01b031663a7fa0faf6040518163ffffffff1660e01b815260040160206040518083038186803b158015613c3557600080fd5b505afa158015613c49573d6000803e3d6000fd5b505050506040513d601f19601f82011682018060405250810190613c6d919061498e565b6001600160c01b0316115b8015613cfd57506000816001600160a01b031663d9e8e6706040518163ffffffff1660e01b815260040160206040518083038186803b158015613cba57600080fd5b505afa158015613cce573d6000803e3d6000fd5b505050506040513d601f19601f82011682018060405250810190613cf2919061498e565b6001600160c01b0316115b9150506127d2565b6001600160c01b038116613d1857505050565b6001600160a01b03821660009081526001840160205260409020546001600160c01b0316613d9c578254600180820185556000858152602080822090930180546001600160a01b0319166001600160a01b03871690811790915581529085019091526040902080546001600160c01b0319166001600160c01b038316179055505050565b6001600160a01b0382166000908152600184016020526040902054613dca906001600160c01b0316826139f3565b6001600160a01b0383166000908152600185016020526040902080546001600160c01b03929092166001600160c01b0319909216919091179055505050565b6001600160c01b039081169116111590565b60006134378284614db0565b600061343761342f836001600160c01b038616614c3e565b613e488261395e565b805460005b818110156139365782548490849083908110613e6b57613e6b6147aa565b600091825260208083209091015483546001818101865594845291832090910180546001600160a01b0319166001600160a01b03909216919091179055845491850191859084908110613ec057613ec06147aa565b60009182526020808320909101546001600160a01b0316835282019290925260400181205484546001600160c01b03909116916001870191869085908110613f0a57613f0a6147aa565b6000918252602080832091909101546001600160a01b03168352820192909252604001902080546001600160c01b0319166001600160c01b0392909216919091179055613f56816147f3565b9050613e4d565b600080613f6a8486614dd8565b90506000836002811115613f8057613f8061441f565b1415613f8d579050613437565b6001836002811115613fa157613fa161441f565b1415613fe1576002613fb4600186614dec565b613fbe9190614dd8565b613fc88587614e03565b1115613fdc5780613fd8816147f3565b9150505b613434565b6000613fed8587614e03565b11156134345780613ffd816147f3565b9695505050505050565b60006001600160c01b038211156140315760405163f44398f560e01b815260040160405180910390fd5b5090565b600080821261404457816127d2565b6127d282614e17565b805160009060015b818110156140e05760005b818110156140cf5784818151811061407a5761407a6147aa565b60200260200101516001600160a01b031685838151811061409d5761409d6147aa565b60200260200101516001600160a01b031614156140bf57506000949350505050565b6140c8816147f3565b9050614060565b506140d9816147f3565b9050614055565b5060019392505050565b6140f381613875565b6040516001600160a01b038216907fbc7cd75a20ee27fd9adebab32041f755214dbc6bffa90cc0225b39da2e5c2d3b90600090a250565b60606001600160a01b0383163b6141925760405162461bcd60e51b815260206004820152602660248201527f416464726573733a2064656c65676174652063616c6c20746f206e6f6e2d636f6044820152651b9d1c9858dd60d21b60648201526084016104ec565b600080846001600160a01b0316846040516141ad9190614e34565b600060405180830381855af49150503d80600081146141e8576040519150601f19603f3d011682016040523d82523d6000602084013e6141ed565b606091505b50915091506135768282604051806060016040528060278152602001614e8760279139614381565b600082600001828154811061422c5761422c6147aa565b9060005260206000200154905092915050565b60008181526001830160205260408120548015614328576000614263600183614dec565b855490915060009061427790600190614dec565b90508181146142dc576000866000018281548110614297576142976147aa565b90600052602060002001549050808760000184815481106142ba576142ba6147aa565b6000918252602080832090910192909255918252600188019052604090208390555b85548690806142ed576142ed614e50565b6001900381819060005260206000200160009055905585600101600086815260200190815260200160002060009055600193505050506127d2565b60009150506127d2565b6000818152600183016020526040812054614379575081546001818101845560008481526020808220909301849055845484825282860190935260409020919091556127d2565b5060006127d2565b60608315614390575081613437565b61343783838151156143a55781518083602001fd5b8060405162461bcd60e51b81526004016104ec9190614563565b5080546000825590600052602060002090810190610ad991905b8082111561403157600081556001016143d9565b6001600160a01b0381168114610ad957600080fd5b60006020828403121561441457600080fd5b8135613437816143ed565b634e487b7160e01b600052602160045260246000fd5b602081016003831061445757634e487b7160e01b600052602160045260246000fd5b91905290565b634e487b7160e01b600052604160045260246000fd5b6000806040838503121561448657600080fd5b8235614491816143ed565b9150602083013567ffffffffffffffff808211156144ae57600080fd5b818501915085601f8301126144c257600080fd5b8135818111156144d4576144d461445d565b604051601f8201601f19908116603f011681019083821181831017156144fc576144fc61445d565b8160405282815288602084870101111561451557600080fd5b8260208601602083013760006020848301015280955050505050509250929050565b60005b8381101561455257818101518382015260200161453a565b838111156139365750506000910152565b6020815260008251806020840152614582816040850160208701614537565b601f01601f19169190910160400192915050565b6000602082840312156145a857600080fd5b5035919050565b6001600160c01b0381168114610ad957600080fd5b60038110610ad957600080fd5b600080604083850312156145e457600080fd5b82356145ef816145af565b915060208301356145ff816145c4565b809150509250929050565b604080825283519082018190526000906020906060840190828701845b8281101561464c5781516001600160a01b031684529284019290840190600101614627565b5050508381038285015284518082528583019183019060005b8181101561468157835183529284019291840191600101614665565b5090979650505050505050565b60008083601f8401126146a057600080fd5b50813567ffffffffffffffff8111156146b857600080fd5b6020830191508360208260051b85010111156146d357600080fd5b9250929050565b600080600080604085870312156146f057600080fd5b843567ffffffffffffffff8082111561470857600080fd5b6147148883890161468e565b9096509450602087013591508082111561472d57600080fd5b5061473a8782880161468e565b95989497509550505050565b6000806000806060858703121561475c57600080fd5b8435935060208501359250604085013567ffffffffffffffff81111561478157600080fd5b61473a8782880161468e565b60006020828403121561479f57600080fd5b8151613437816143ed565b634e487b7160e01b600052603260045260246000fd5b6000602082840312156147d257600080fd5b8151613437816145c4565b634e487b7160e01b600052601160045260246000fd5b6000600019821415614807576148076147dd565b5060010190565b6020808252602c908201527f46756e6374696f6e206d7573742062652063616c6c6564207468726f7567682060408201526b19195b1959d85d1958d85b1b60a21b606082015260800190565b6020808252602c908201527f46756e6374696f6e206d7573742062652063616c6c6564207468726f7567682060408201526b6163746976652070726f787960a01b606082015260800190565b60006001600160c01b03828116848216811515828404821116156148cc576148cc6147dd565b02949350505050565b805160208083015191908110156148f6576000198160200360031b1b821691505b50919050565b60006020828403121561490e57600080fd5b8151801515811461343757600080fd5b6020808252600f908201526e676f7665726e616e6365206f6e6c7960881b604082015260600190565b6000806040838503121561495a57600080fd5b8251614965816145af565b60208401519092506145ff816145af565b60008219821115614989576149896147dd565b500190565b6000602082840312156149a057600080fd5b8151613437816145af565b6000602082840312156149bd57600080fd5b815160ff8116811461343757600080fd5b6000606082016060835280865480835260808501915087600052602092508260002060005b82811015614a1a5781546001600160a01b03168452602084019350600191820191016149f3565b5050508381038285015285518082528683019183019060005b81811015614a585783516001600160c01b031683529284019291840191600101614a33565b505085151560408601529250611352915050565b600060208284031215614a7e57600080fd5b8135613437816145af565b600060208284031215614a9b57600080fd5b5051919050565b8183526000602080850194508260005b85811015614ae0578135614ac5816143ed565b6001600160a01b031687529582019590820190600101614ab2565b509495945050505050565b606081526000614aff606083018789614aa2565b8281036020848101919091528582528691810160005b87811015614b43578335614b28816145af565b6001600160c01b031682529282019290820190600101614b15565b508481036040860152855180825290820192508186019060005b81811015614b7957825185529383019391830191600101614b5d565b50929a9950505050505050505050565b602081526000613434602083018486614aa2565b6020808252602b908201527f496e697469616c697a61626c653a20636f6e7472616374206973206e6f74206960408201526a6e697469616c697a696e6760a81b606082015260800190565b634e487b7160e01b600052600160045260246000fd5b600065ffffffffffff808316818516808303821115614c1f57614c1f6147dd565b01949350505050565b634e487b7160e01b600052601260045260246000fd5b6000816000190483118215151615614c5857614c586147dd565b500290565b600081810b83820b8281128015607f19830184121615614c7f57614c7f6147dd565b81607f018313811615614c9457614c946147dd565b5090039392505050565b600181815b80851115614cd9578160001904821115614cbf57614cbf6147dd565b80851615614ccc57918102915b93841c9390800290614ca3565b509250929050565b600082614cf0575060016127d2565b81614cfd575060006127d2565b8160018114614d135760028114614d1d57614d39565b60019150506127d2565b60ff841115614d2e57614d2e6147dd565b50506001821b6127d2565b5060208310610133831016604e8410600b8410161715614d5c575081810a6127d2565b614d668383614c9e565b8060001904821115614d7a57614d7a6147dd565b029392505050565b60006134378383614ce1565b60006001600160c01b03828116848216808303821115614c1f57614c1f6147dd565b60006001600160c01b0383811690831681811015614dd057614dd06147dd565b039392505050565b600082614de757614de7614c28565b500490565b600082821015614dfe57614dfe6147dd565b500390565b600082614e1257614e12614c28565b500690565b6000600160ff1b821415614e2d57614e2d6147dd565b5060000390565b60008251614e46818460208701614537565b9190910192915050565b634e487b7160e01b600052603160045260246000fdfe360894a13ba1a3210667c828492db98dca3e2076cc3735a920a3ca505d382bbc416464726573733a206c6f772d6c6576656c2064656c65676174652063616c6c206661696c6564a264697066735822122084199e2ac317d6f47572fbf8cb12815df8713799fee5ea1b49783d06f505336264736f6c63430008090033",
  "linkReferences": {},
  "deployedLinkReferences": {}
}