{
  "_format": "hh-sol-artifact-1",
  "contractName": "RecollateralizationLibP1",
  "sourceName": "contracts/reserve/p1/mixins/RecollateralizationLib.sol",
  "abi": [
    {
      "inputs": [],
      "name": "UIntOutOfBounds",
      "type": "error"
    },
    {
      "inputs": [
        {
          "internalType": "contract IBackingManager",
          "name": "bm",
          "type": "IBackingManager"
        }
      ],
      "name": "prepareRecollateralizationTrade",
      "outputs": [
        {
          "internalType": "bool",
          "name": "doTrade",
          "type": "bool"
        },
        {
          "components": [
            {
              "internalType": "contract IAsset",
              "name": "sell",
              "type": "IAsset"
            },
            {
              "internalType": "contract IAsset",
              "name": "buy",
              "type": "IAsset"
            },
            {
              "internalType": "uint256",
              "name": "sellAmount",
              "type": "uint256"
            },
            {
              "internalType": "uint256",
              "name": "minBuyAmount",
              "type": "uint256"
            }
          ],
          "internalType": "struct TradeRequest",
          "name": "req",
          "type": "tuple"
        }
      ],
      "stateMutability": "view",
      "type": "function"
    }
  ],
  "bytecode": "0x612d3b61003a600b82828239805160001a60731461002d57634e487b7160e01b600052600060045260246000fd5b30600052607381538281f3fe73000000000000000000000000000000000000000030146080604052600436106100355760003560e01c80636178830e1461003a575b600080fd5b61004d610048366004612754565b610093565b60408051921515835281516001600160a01b0390811660208086019190915283015116838201528101516060808401919091520151608082015260a00160405180910390f35b600061009d612702565b6000836001600160a01b031663dffeadd06040518163ffffffff1660e01b815260040160206040518083038186803b1580156100d857600080fd5b505afa1580156100ec573d6000803e3d6000fd5b505050506040513d601f19601f820116820180604052508101906101109190612771565b905060006040518060c00160405280866001600160a01b03168152602001836001600160a01b0316632f2439b16040518163ffffffff1660e01b815260040160206040518083038186803b15801561016757600080fd5b505afa15801561017b573d6000803e3d6000fd5b505050506040513d601f19601f8201168201806040525081019061019f9190612771565b6001600160a01b03168152602001836001600160a01b031663979d7e866040518163ffffffff1660e01b815260040160206040518083038186803b1580156101e657600080fd5b505afa1580156101fa573d6000803e3d6000fd5b505050506040513d601f19601f8201168201806040525081019061021e9190612771565b6001600160a01b03168152602001836001600160a01b0316634780a5e56040518163ffffffff1660e01b815260040160206040518083038186803b15801561026557600080fd5b505afa158015610279573d6000803e3d6000fd5b505050506040513d601f19601f8201168201806040525081019061029d9190612771565b6001600160a01b03168152602001836001600160a01b031663c99dc3dd6040518163ffffffff1660e01b815260040160206040518083038186803b1580156102e457600080fd5b505afa1580156102f8573d6000803e3d6000fd5b505050506040513d601f19601f8201168201806040525081019061031c9190612771565b6001600160a01b03168152602001836001600160a01b03166340c65f726040518163ffffffff1660e01b815260040160206040518083038186803b15801561036357600080fd5b505afa158015610377573d6000803e3d6000fd5b505050506040513d601f19601f8201168201806040525081019061039b9190612771565b6001600160a01b0316815250905060006040518060400160405280876001600160a01b0316637cbf6db26040518163ffffffff1660e01b815260040160206040518083038186803b1580156103ef57600080fd5b505afa158015610403573d6000803e3d6000fd5b505050506040513d601f19601f8201168201806040525081019061042791906127aa565b6001600160c01b03168152602001876001600160a01b0316630db3d42c6040518163ffffffff1660e01b815260040160206040518083038186803b15801561046e57600080fd5b505afa158015610482573d6000803e3d6000fd5b505050506040513d601f19601f820116820180604052508101906104a691906127aa565b6001600160c01b03168152509050600082604001516001600160a01b0316635ab1bd536040518163ffffffff1660e01b815260040160006040518083038186803b1580156104f357600080fd5b505afa158015610507573d6000803e3d6000fd5b505050506040513d6000823e601f3d908101601f1916820160405261052f91908101906128cd565b9050600061053e8484846106e4565b9050600061054e858585856108ff565b80519091506001600160a01b03161580610573575060208101516001600160a01b0316155b156105875760009750505050505050915091565b60808101516001600160c01b031615806106a3575080600001516001600160a01b031663c59b3d636040518163ffffffff1660e01b815260040160206040518083038186803b1580156105d957600080fd5b505afa1580156105ed573d6000803e3d6000fd5b505050506040513d601f19601f8201168201806040525081019061061191906129bb565b80156106a35750600081600001516001600160a01b031663200d2ed26040518163ffffffff1660e01b815260040160206040518083038186803b15801561065757600080fd5b505afa15801561066b573d6000803e3d6000fd5b505050506040513d601f19601f8201168201806040525081019061068f91906129f3565b60028111156106a0576106a06129dd565b14155b156106bc576106b28185611371565b90985096506106cc565b6106c68185611672565b90985096505b876106d9576106d9612a14565b505050505050915091565b604080518082019091526000808252602082015260008085602001516001600160a01b031663a035b1fe6040518163ffffffff1660e01b8152600401604080518083038186803b15801561073757600080fd5b505afa15801561074b573d6000803e3d6000fd5b505050506040513d601f19601f8201168201806040525081019061076f9190612a2a565b91509150600080610781888888611796565b91509150600061081882610813868c60a001516001600160a01b0316637121c2736040518163ffffffff1660e01b815260040160206040518083038186803b1580156107cc57600080fd5b505afa1580156107e0573d6000803e3d6000fd5b505050506040513d601f19601f8201168201806040525081019061080491906127aa565b6001600160c01b031690611d4c565b611d63565b905060006108288a898488611d8b565b60208a01519091506000906108759061084a90670de0b6b3a764000090612026565b60208c0151600290610865906001600160c01b031686611d4c565b6001600160c01b03169190612032565b905060006001600160c01b03808316908716116108935760006108af565b6108af6108a96001600160c01b03881684612026565b85611d63565b90506108c66001600160c01b038516896002612032565b6001600160c01b039081168a526108e1908216886002612032565b6001600160c01b031660208a015250969a9950505050505050505050565b6040805160c0810182526000808252602080830182905282840182905260608084018390526080840183905260a084018390528451908101855282815290810182905292830152906001815260005b8451518110156110af5786608001516001600160a01b03168560000151828151811061097c5761097c612a5d565b60200260200101516001600160a01b031614156109985761109f565b6000856020015182815181106109b0576109b0612a5d565b60209081029190910101518851604051632ac07b9560e11b81526001600160a01b039182166004820152911690635580f72a9060240160206040518083038186803b1580156109fe57600080fd5b505afa158015610a12573d6000803e3d6000fd5b505050506040513d601f19601f82011682018060405250810190610a3691906127aa565b90506000610afc89602001516001600160a01b031663a5a5828c89600001518681518110610a6657610a66612a5d565b60200260200101516040518263ffffffff1660e01b8152600401610a9991906001600160a01b0391909116815260200190565b60206040518083038186803b158015610ab157600080fd5b505afa158015610ac5573d6000803e3d6000fd5b505050506040513d601f19601f82011682018060405250810190610ae991906127aa565b87516001600160c01b0316906002612085565b90506001600160c01b038082169083161115610e8657600087602001518481518110610b2a57610b2a612a5d565b60200260200101516001600160a01b031663a035b1fe6040518163ffffffff1660e01b8152600401604080518083038186803b158015610b6957600080fd5b505afa158015610b7d573d6000803e3d6000fd5b505050506040513d601f19601f82011682018060405250810190610ba19190612a2a565b5090506000610c3d89602001518681518110610bbf57610bbf612a5d565b60200260200101516001600160a01b031663e28a1b866040518163ffffffff1660e01b815260040160206040518083038186803b158015610bff57600080fd5b505afa158015610c13573d6000803e3d6000fd5b505050506040513d601f19601f82011682018060405250810190610c3791906127aa565b836120b2565b90506000610c698382610c596001600160c01b03891688612026565b6001600160c01b03169190612085565b905060008a602001518781518110610c8357610c83612a5d565b60200260200101516001600160a01b031663c59b3d636040518163ffffffff1660e01b815260040160206040518083038186803b158015610cc357600080fd5b505afa158015610cd7573d6000803e3d6000fd5b505050506040513d601f19601f82011682018060405250810190610cfb91906129bb565b15610d91578a602001518781518110610d1657610d16612a5d565b60200260200101516001600160a01b031663200d2ed26040518163ffffffff1660e01b815260040160206040518083038186803b158015610d5657600080fd5b505afa158015610d6a573d6000803e3d6000fd5b505050506040513d601f19601f82011682018060405250810190610d8e91906129f3565b90505b610d9c8882846120d3565b8015610de95750610de98b602001518881518110610dbc57610dbc612a5d565b6020026020010151610de087896001600160c01b031661202690919063ffffffff16565b8e51869061219b565b15610e7d578a602001518781518110610e0457610e04612a5d565b60209081029190910101516001600160a01b03168952610e2d6001600160c01b03871686612026565b6001600160c01b0390811660408b0152841660808a015287816002811115610e5757610e576129dd565b90816002811115610e6a57610e6a6129dd565b9052506001600160c01b03821660208901525b5050505061109c565b610f4b89602001516001600160a01b031663a5a5828c89600001518681518110610eb257610eb2612a5d565b60200260200101516040518263ffffffff1660e01b8152600401610ee591906001600160a01b0391909116815260200190565b60206040518083038186803b158015610efd57600080fd5b505afa158015610f11573d6000803e3d6000fd5b505050506040513d601f19601f82011682018060405250810190610f3591906127aa565b60208801516001600160c01b0316906002612085565b90506001600160c01b03808216908316101561109c576000610f766001600160c01b03831684612026565b9050600088602001518581518110610f9057610f90612a5d565b60200260200101516001600160a01b031663a035b1fe6040518163ffffffff1660e01b8152600401604080518083038186803b158015610fcf57600080fd5b505afa158015610fe3573d6000803e3d6000fd5b505050506040513d601f19601f820116820180604052508101906110079190612a2a565b9150600090506110226001600160c01b038416836002612085565b90506110448760400151826001600160c01b031661207490919063ffffffff16565b15611098578960200151868151811061105f5761105f612a5d565b6020908102919091018101516001600160a01b0316908901526001600160c01b0380841660608a015282811660a08a0152811660408801525b5050505b50505b6110a881612a89565b905061094e565b5081516001600160a01b03161580156110d4575060208201516001600160a01b031615155b1561136857604080870151608088015191516366f15f4560e11b81526001600160a01b0392831660048201526000929091169063cde2be8a9060240160206040518083038186803b15801561112857600080fd5b505afa15801561113c573d6000803e3d6000fd5b505050506040513d601f19601f820116820180604052508101906111609190612771565b6060880151604051632ac07b9560e11b81526001600160a01b03918216600482015291925060009161127391841690635580f72a9060240160206040518083038186803b1580156111b057600080fd5b505afa1580156111c4573d6000803e3d6000fd5b505050506040513d601f19601f820116820180604052508101906111e891906127aa565b8951604051632ac07b9560e11b81526001600160a01b03918216600482015290851690635580f72a9060240160206040518083038186803b15801561122c57600080fd5b505afa158015611240573d6000803e3d6000fd5b505050506040513d601f19601f8201168201806040525081019061126491906127aa565b6001600160c01b031690612257565b90506000826001600160a01b031663a035b1fe6040518163ffffffff1660e01b8152600401604080518083038186803b1580156112af57600080fd5b505afa1580156112c3573d6000803e3d6000fd5b505050506040513d601f19601f820116820180604052508101906112e79190612a2a565b5090506000611328846001600160a01b031663e28a1b866040518163ffffffff1660e01b815260040160206040518083038186803b158015610bff57600080fd5b905061133a8484838c6000015161219b565b15611363576001600160a01b03841686526001600160c01b038084166040880152821660808701525b505050505b50949350505050565b600061137b612702565b60008460a001516001600160c01b03161180156113a5575060a08401516001600160c01b03908116105b80156113be575060808401516001600160c01b03908116105b6113ca576113ca612a14565b600061144e85600001516001600160a01b031663e28a1b866040518163ffffffff1660e01b815260040160206040518083038186803b15801561140c57600080fd5b505afa158015611420573d6000803e3d6000fd5b505050506040513d601f19601f8201168201806040525081019061144491906127aa565b86608001516120b2565b85516040870151865192935061146592849061219b565b61147357600092505061166b565b604085015160808601516000906001600160c01b03161561152b5760006114a288600001518960800151612263565b9050806001600160c01b0316836001600160c01b031611156114c2578092505b61152788608001518960a0015160026115166115068c60200151670de0b6b3a764000067ffffffffffffffff166001600160c01b031661202690919063ffffffff16565b6001600160c01b03891690611d4c565b6001600160c01b0316929190612314565b9150505b86516001600160a01b039081168552602080890151821681870152885160408051633cb5d37960e01b815290516115cb949290921692633cb5d37992600480840193829003018186803b15801561158157600080fd5b505afa158015611595573d6000803e3d6000fd5b505050506040513d601f19601f820116820180604052508101906115b99190612aa4565b6001600160c01b038416906000612340565b84604001818152505061165e87602001516001600160a01b0316633cb5d3796040518163ffffffff1660e01b815260040160206040518083038186803b15801561161457600080fd5b505afa158015611628573d6000803e3d6000fd5b505050506040513d601f19601f8201168201806040525081019061164c9190612aa4565b6001600160c01b038316906002612340565b6060850152506001935050505b9250929050565b600061167c612702565b600084608001516001600160c01b03161180156116a6575060808401516001600160c01b03908116105b80156116bf575060008460a001516001600160c01b0316115b80156116d8575060a08401516001600160c01b03908116105b6116e4576116e4612a14565b61170384606001516116fe85600001518760a0015161241e565b6120b2565b6001600160c01b03166060850181905260a0850151608086015160009261172d9290916002612314565b60208501519091506000906117619061174f90670de0b6b3a764000090612026565b6001600160c01b038416906002612032565b9050611771818760400151611d63565b6001600160c01b031660408701526117898686611371565b9350935050509250929050565b60008080805b845151811015611d13578660a001516001600160a01b0316856000015182815181106117ca576117ca612a5d565b60200260200101516001600160a01b031614156117e657611d03565b6000856020015182815181106117fe576117fe612a5d565b60209081029190910101518851604051632ac07b9560e11b81526001600160a01b039182166004820152911690635580f72a9060240160206040518083038186803b15801561184c57600080fd5b505afa158015611860573d6000803e3d6000fd5b505050506040513d601f19601f8201168201806040525081019061188491906127aa565b905087608001516001600160a01b0316866000015183815181106118aa576118aa612a5d565b60200260200101516001600160a01b0316141561197657611973866020015183815181106118da576118da612a5d565b602090810291909101015160608a0151604051632ac07b9560e11b81526001600160a01b039182166004820152911690635580f72a9060240160206040518083038186803b15801561192b57600080fd5b505afa15801561193f573d6000803e3d6000fd5b505050506040513d601f19601f8201168201806040525081019061196391906127aa565b6001600160c01b03831690612257565b90505b6000808760200151848151811061198f5761198f612a5d565b60200260200101516001600160a01b031663a035b1fe6040518163ffffffff1660e01b8152600401604080518083038186803b1580156119ce57600080fd5b505afa1580156119e2573d6000803e3d6000fd5b505050506040513d601f19601f82011682018060405250810190611a069190612a2a565b915091506000611aa389602001518681518110611a2557611a25612a5d565b60200260200101516001600160a01b031663e28a1b866040518163ffffffff1660e01b815260040160206040518083038186803b158015611a6557600080fd5b505afa158015611a79573d6000803e3d6000fd5b505050506040513d601f19601f82011682018060405250810190611a9d91906127aa565b846120b2565b905060008b602001516001600160a01b031663a5a5828c8b600001518881518110611ad057611ad0612a5d565b60200260200101516040518263ffffffff1660e01b8152600401611b0391906001600160a01b0391909116815260200190565b60206040518083038186803b158015611b1b57600080fd5b505afa158015611b2f573d6000803e3d6000fd5b505050506040513d601f19601f82011682018060405250810190611b5391906127aa565b90506001600160c01b038116158015611b965750611b948a602001518781518110611b8057611b80612a5d565b602002602001015186848e6000015161219b565b155b15611ba5575050505050611d03565b611bba6001600160c01b038516866000612085565b611bc4908a612ac7565b8c516040516307a4469760e21b81526001600160c01b03808716600483015288166024820152670de0b6b3a76400006044820152919a506001600160a01b031690631e911a5c9060640160206040518083038186803b158015611c2657600080fd5b505afa925050508015611c56575060408051601f3d908101601f19168201909252611c5391810190612af2565b60015b611ca5573d808015611c84576040519150601f19603f3d011682016040523d82523d6000602084013e611c89565b606091505b508051611c9557600080fd5b6001600160c01b03985050611ce5565b6001600160c01b03611cb9828b8316612b0b565b10611ccd576001600160c01b039850611ce3565b611cd681612445565b611ce0908a612ac7565b98505b505b8a51611cfb906001600160c01b03891690612257565b965050505050505b611d0c81612a89565b905061179c565b506001600160c01b0381811690841611611d2e576000611d41565b611d416001600160c01b03841682612026565b925050935093915050565b6000611d5a83836001612085565b90505b92915050565b6000816001600160c01b0316836001600160c01b031610611d845781611d5a565b5090919050565b600080826001600160c01b031611611da557611da5612a14565b83515160005b8181101561201c57600087602001516001600160a01b031663a5a5828c88600001518481518110611dde57611dde612a5d565b60200260200101516040518263ffffffff1660e01b8152600401611e1191906001600160a01b0391909116815260200190565b60206040518083038186803b158015611e2957600080fd5b505afa158015611e3d573d6000803e3d6000fd5b505050506040513d601f19601f82011682018060405250810190611e6191906127aa565b90506001600160c01b038116611e77575061200c565b6000611e8f6001600160c01b03881683886002612314565b9050600088602001518481518110611ea957611ea9612a5d565b60209081029190910101518a51604051632ac07b9560e11b81526001600160a01b039182166004820152911690635580f72a9060240160206040518083038186803b158015611ef757600080fd5b505afa158015611f0b573d6000803e3d6000fd5b505050506040513d601f19601f82011682018060405250810190611f2f91906127aa565b90506001600160c01b03828116908216101561200857600089602001518581518110611f5d57611f5d612a5d565b60200260200101516001600160a01b031663a035b1fe6040518163ffffffff1660e01b8152600401604080518083038186803b158015611f9c57600080fd5b505afa158015611fb0573d6000803e3d6000fd5b505050506040513d601f19601f82011682018060405250810190611fd49190612a2a565b91506120049050611ff4826000610c596001600160c01b03881687612026565b6001600160c01b03891690612257565b9650505b5050505b61201581612a89565b9050611dab565b5050949350505050565b6000611d5a8284612b23565b600061206a612065612055670de0b6b3a76400006001600160c01b038816612b4b565b856001600160c01b031685612473565b612445565b90505b9392505050565b6001600160c01b0390811691161190565b600061206a6120656120a36001600160c01b03808716908816612b4b565b670de0b6b3a764000085612473565b6000816001600160c01b0316836001600160c01b031611611d845781611d5a565b60006002845160028111156120ea576120ea6129dd565b14156121295760025b836002811115612105576121056129dd565b148015612122575060208401516001600160c01b03908116908316115b905061206d565b60008451600281111561213e5761213e6129dd565b1415612166576002836002811115612158576121586129dd565b1480612122575060006120f3565b600183600281111561217a5761217a6129dd565b141580612122575060208401516001600160c01b0390811690831611612122565b60006121bd6121aa838561241e565b6001600160c01b03908116908616101590565b801561224c5750600161224a866001600160a01b0316633cb5d3796040518163ffffffff1660e01b815260040160206040518083038186803b15801561220257600080fd5b505afa158015612216573d6000803e3d6000fd5b505050506040513d601f19601f8201168201806040525081019061223a9190612aa4565b6001600160c01b0387169061251d565b115b90505b949350505050565b6000611d5a8284612ac7565b6000806001600160c01b038316156122f1576122ec836001866001600160a01b03166395acc4ae6040518163ffffffff1660e01b815260040160206040518083038186803b1580156122b457600080fd5b505afa1580156122c8573d6000803e3d6000fd5b505050506040513d601f19601f8201168201806040525081019061086591906127aa565b6122fa565b6001600160c01b035b90506000816001600160c01b03161161206d57600161224f565b600061224c612065866001600160c01b0316866001600160c01b0316866001600160c01b03168661252b565b60006001600160c01b0384166123585750600061206d565b6029198360000b13612391576002826002811115612378576123786129dd565b14612384576000612387565b60015b60ff16905061206d565b8260000b6060136123b55760405163f44398f560e01b815260040160405180910390fd5b6123c0601284612b6a565b925060006123d08460000b6125da565b6123db90600a612c87565b905060008460000b1215612402576123fd856001600160c01b03168285612473565b612415565b612415816001600160c01b038716612b4b565b95945050505050565b6000806001600160c01b038316156122f1576122ec6001600160c01b038516846001612032565b60006001600160c01b0382111561246f5760405163f44398f560e01b815260040160405180910390fd5b5090565b6000806124808486612ca9565b90506000836002811115612496576124966129dd565b14156124a357905061206d565b60018360028111156124b7576124b76129dd565b14156124f75760026124ca600186612cbd565b6124d49190612ca9565b6124de8587612cd4565b11156124f257806124ee81612a89565b9150505b61206a565b60006125038587612cd4565b111561206a578061251381612a89565b9695505050505050565b6000611d5a83836000612340565b6000806125398686866125f2565b9050600083600281111561254f5761254f6129dd565b141561255c57905061224f565b6000848061256c5761256c612c93565b86880990506002846002811115612585576125856129dd565b14156125a457801561259f5761259c600183612b0b565b91505b6125d0565b60026125b1600187612cbd565b6125bb9190612ca9565b8111156125d0576125cd600183612b0b565b91505b5095945050505050565b60008082126125e95781611d5d565b611d5d82612ce8565b600080600061260186866126d5565b915091508382106126255760405163f44398f560e01b815260040160405180910390fd5b6000848061263557612635612c93565b868809905081811115612649576001830392505b90819003906000859003851680868161266457612664612c93565b04955080838161267657612676612c93565b04925080816000038161268b5761268b612c93565b046001019390930291909101600285810380870282030280870282030280870282030280870282030280870282030280870282030295860290039094029390930295945050505050565b60008080600019848609905083850291508181039250818110156126fa576001830392505b509250929050565b604051806080016040528060006001600160a01b0316815260200160006001600160a01b0316815260200160008152602001600081525090565b6001600160a01b038116811461275157600080fd5b50565b60006020828403121561276657600080fd5b813561206d8161273c565b60006020828403121561278357600080fd5b815161206d8161273c565b80516001600160c01b03811681146127a557600080fd5b919050565b6000602082840312156127bc57600080fd5b611d5a8261278e565b634e487b7160e01b600052604160045260246000fd5b6040805190810167ffffffffffffffff811182821017156127fe576127fe6127c5565b60405290565b604051601f8201601f1916810167ffffffffffffffff8111828210171561282d5761282d6127c5565b604052919050565b600067ffffffffffffffff82111561284f5761284f6127c5565b5060051b60200190565b600082601f83011261286a57600080fd5b8151602061287f61287a83612835565b612804565b82815260059290921b8401810191818101908684111561289e57600080fd5b8286015b848110156128c25780516128b58161273c565b83529183019183016128a2565b509695505050505050565b600060208083850312156128e057600080fd5b825167ffffffffffffffff808211156128f857600080fd5b908401906040828703121561290c57600080fd5b6129146127db565b82518281111561292357600080fd5b8301601f8101881361293457600080fd5b805161294261287a82612835565b81815260059190911b8201860190868101908a83111561296157600080fd5b928701925b828410156129885783516129798161273c565b82529287019290870190612966565b8452505050828401518281111561299e57600080fd5b6129aa88828601612859565b948201949094529695505050505050565b6000602082840312156129cd57600080fd5b8151801515811461206d57600080fd5b634e487b7160e01b600052602160045260246000fd5b600060208284031215612a0557600080fd5b81516003811061206d57600080fd5b634e487b7160e01b600052600160045260246000fd5b60008060408385031215612a3d57600080fd5b612a468361278e565b9150612a546020840161278e565b90509250929050565b634e487b7160e01b600052603260045260246000fd5b634e487b7160e01b600052601160045260246000fd5b6000600019821415612a9d57612a9d612a73565b5060010190565b600060208284031215612ab657600080fd5b815160ff8116811461206d57600080fd5b60006001600160c01b03828116848216808303821115612ae957612ae9612a73565b01949350505050565b600060208284031215612b0457600080fd5b5051919050565b60008219821115612b1e57612b1e612a73565b500190565b60006001600160c01b0383811690831681811015612b4357612b43612a73565b039392505050565b6000816000190483118215151615612b6557612b65612a73565b500290565b600081810b83820b8281128015607f19830184121615612b8c57612b8c612a73565b81607f018313811615612ba157612ba1612a73565b5090039392505050565b600181815b808511156126fa578160001904821115612bcc57612bcc612a73565b80851615612bd957918102915b93841c9390800290612bb0565b600082612bf557506001611d5d565b81612c0257506000611d5d565b8160018114612c185760028114612c2257612c3e565b6001915050611d5d565b60ff841115612c3357612c33612a73565b50506001821b611d5d565b5060208310610133831016604e8410600b8410161715612c61575081810a611d5d565b612c6b8383612bab565b8060001904821115612c7f57612c7f612a73565b029392505050565b6000611d5a8383612be6565b634e487b7160e01b600052601260045260246000fd5b600082612cb857612cb8612c93565b500490565b600082821015612ccf57612ccf612a73565b500390565b600082612ce357612ce3612c93565b500690565b6000600160ff1b821415612cfe57612cfe612a73565b506000039056fea26469706673582212201c286045b8c33945e9b03f25250517539b165159924e9cd802cca304f047f20664736f6c63430008090033",
  "linkReferences": {},
  "deployedLinkReferences": {}
}