{
  "_format": "hh-sol-artifact-1",
  "contractName": "BasketHandlerP0",
  "sourceName": "contracts/reserve/p0/BasketHandler.sol",
  "abi": [
    {
      "inputs": [],
      "name": "UIntOutOfBounds",
      "type": "error"
    },
    {
      "anonymous": false,
      "inputs": [
        {
          "indexed": true,
          "internalType": "bytes32",
          "name": "targetName",
          "type": "bytes32"
        },
        {
          "indexed": true,
          "internalType": "uint256",
          "name": "max",
          "type": "uint256"
        },
        {
          "indexed": false,
          "internalType": "contract IERC20[]",
          "name": "erc20s",
          "type": "address[]"
        }
      ],
      "name": "BackupConfigSet",
      "type": "event"
    },
    {
      "anonymous": false,
      "inputs": [
        {
          "indexed": true,
          "internalType": "uint256",
          "name": "nonce",
          "type": "uint256"
        },
        {
          "indexed": false,
          "internalType": "contract IERC20[]",
          "name": "erc20s",
          "type": "address[]"
        },
        {
          "indexed": false,
          "internalType": "uint192[]",
          "name": "refAmts",
          "type": "uint192[]"
        },
        {
          "indexed": false,
          "internalType": "bool",
          "name": "disabled",
          "type": "bool"
        }
      ],
      "name": "BasketSet",
      "type": "event"
    },
    {
      "anonymous": false,
      "inputs": [
        {
          "indexed": false,
          "internalType": "uint8",
          "name": "version",
          "type": "uint8"
        }
      ],
      "name": "Initialized",
      "type": "event"
    },
    {
      "anonymous": false,
      "inputs": [
        {
          "indexed": false,
          "internalType": "contract IERC20[]",
          "name": "erc20s",
          "type": "address[]"
        },
        {
          "indexed": false,
          "internalType": "uint192[]",
          "name": "targetAmts",
          "type": "uint192[]"
        },
        {
          "indexed": false,
          "internalType": "bytes32[]",
          "name": "targetNames",
          "type": "bytes32[]"
        }
      ],
      "name": "PrimeBasketSet",
      "type": "event"
    },
    {
      "inputs": [],
      "name": "MAX_TARGET_AMT",
      "outputs": [
        {
          "internalType": "uint192",
          "name": "",
          "type": "uint192"
        }
      ],
      "stateMutability": "view",
      "type": "function"
    },
    {
      "inputs": [
        {
          "internalType": "address",
          "name": "account",
          "type": "address"
        }
      ],
      "name": "basketsHeldBy",
      "outputs": [
        {
          "internalType": "uint192",
          "name": "baskets",
          "type": "uint192"
        }
      ],
      "stateMutability": "view",
      "type": "function"
    },
    {
      "inputs": [],
      "name": "disableBasket",
      "outputs": [],
      "stateMutability": "nonpayable",
      "type": "function"
    },
    {
      "inputs": [],
      "name": "fallbackPrice",
      "outputs": [
        {
          "internalType": "uint192",
          "name": "p",
          "type": "uint192"
        }
      ],
      "stateMutability": "view",
      "type": "function"
    },
    {
      "inputs": [],
      "name": "fullyCollateralized",
      "outputs": [
        {
          "internalType": "bool",
          "name": "",
          "type": "bool"
        }
      ],
      "stateMutability": "view",
      "type": "function"
    },
    {
      "inputs": [
        {
          "internalType": "contract IMain",
          "name": "main_",
          "type": "address"
        }
      ],
      "name": "init",
      "outputs": [],
      "stateMutability": "nonpayable",
      "type": "function"
    },
    {
      "inputs": [],
      "name": "main",
      "outputs": [
        {
          "internalType": "contract IMain",
          "name": "",
          "type": "address"
        }
      ],
      "stateMutability": "view",
      "type": "function"
    },
    {
      "inputs": [],
      "name": "nonce",
      "outputs": [
        {
          "internalType": "uint48",
          "name": "",
          "type": "uint48"
        }
      ],
      "stateMutability": "view",
      "type": "function"
    },
    {
      "inputs": [],
      "name": "price",
      "outputs": [
        {
          "internalType": "uint192",
          "name": "low",
          "type": "uint192"
        },
        {
          "internalType": "uint192",
          "name": "high",
          "type": "uint192"
        }
      ],
      "stateMutability": "view",
      "type": "function"
    },
    {
      "inputs": [
        {
          "internalType": "contract IERC20",
          "name": "erc20",
          "type": "address"
        }
      ],
      "name": "quantity",
      "outputs": [
        {
          "internalType": "uint192",
          "name": "",
          "type": "uint192"
        }
      ],
      "stateMutability": "view",
      "type": "function"
    },
    {
      "inputs": [
        {
          "internalType": "uint192",
          "name": "amount",
          "type": "uint192"
        },
        {
          "internalType": "enum RoundingMode",
          "name": "rounding",
          "type": "uint8"
        }
      ],
      "name": "quote",
      "outputs": [
        {
          "internalType": "address[]",
          "name": "erc20s",
          "type": "address[]"
        },
        {
          "internalType": "uint256[]",
          "name": "quantities",
          "type": "uint256[]"
        }
      ],
      "stateMutability": "view",
      "type": "function"
    },
    {
      "inputs": [],
      "name": "refreshBasket",
      "outputs": [],
      "stateMutability": "nonpayable",
      "type": "function"
    },
    {
      "inputs": [
        {
          "internalType": "bytes32",
          "name": "targetName",
          "type": "bytes32"
        },
        {
          "internalType": "uint256",
          "name": "max",
          "type": "uint256"
        },
        {
          "internalType": "contract IERC20[]",
          "name": "erc20s",
          "type": "address[]"
        }
      ],
      "name": "setBackupConfig",
      "outputs": [],
      "stateMutability": "nonpayable",
      "type": "function"
    },
    {
      "inputs": [
        {
          "internalType": "contract IERC20[]",
          "name": "erc20s",
          "type": "address[]"
        },
        {
          "internalType": "uint192[]",
          "name": "targetAmts",
          "type": "uint192[]"
        }
      ],
      "name": "setPrimeBasket",
      "outputs": [],
      "stateMutability": "nonpayable",
      "type": "function"
    },
    {
      "inputs": [],
      "name": "status",
      "outputs": [
        {
          "internalType": "enum CollateralStatus",
          "name": "status_",
          "type": "uint8"
        }
      ],
      "stateMutability": "view",
      "type": "function"
    },
    {
      "inputs": [],
      "name": "timestamp",
      "outputs": [
        {
          "internalType": "uint48",
          "name": "",
          "type": "uint48"
        }
      ],
      "stateMutability": "view",
      "type": "function"
    },
    {
      "inputs": [],
      "name": "version",
      "outputs": [
        {
          "internalType": "string",
          "name": "",
          "type": "string"
        }
      ],
      "stateMutability": "pure",
      "type": "function"
    }
  ],
  "bytecode": "0x608060405234801561001057600080fd5b50614a4e806100206000396000f3fe608060405234801561001057600080fd5b506004361061010b5760003560e01c8063affed0e0116100a2578063e27f3bef11610071578063e27f3bef14610271578063e28a1b8614610279578063e45a5b2d14610281578063ef2b933714610299578063f11d4648146102ac57600080fd5b8063affed0e0146101e0578063b80777ea14610209578063c620f0fc14610225578063dffeadd01461024657600080fd5b80638a55015b116100de5780638a55015b1461018a578063a035b1fe14610192578063a5a5828c146101ba578063aa47955e146101cd57600080fd5b806319ab453c14610110578063200d2ed21461012557806354fd4d50146101435780637e4e2d081461016a575b600080fd5b61012361011e3660046141c3565b6102bf565b005b61012d6103ea565b60405161013a91906141f6565b60405180910390f35b60408051808201825260058152640312e322e360dc1b6020820152905161013a919061421e565b6101726105f0565b6040516001600160c01b03909116815260200161013a565b610123610607565b61019a610895565b604080516001600160c01b0393841681529290911660208301520161013a565b6101726101c83660046141c3565b610b39565b6101726101db3660046141c3565b610d91565b603a546101f29065ffffffffffff1681565b60405165ffffffffffff909116815260200161013a565b603a546101f2906601000000000000900465ffffffffffff1681565b610238610233366004614295565b61112f565b60405161013a9291906142ce565b603354610259906001600160a01b031681565b6040516001600160a01b03909116815260200161013a565b61012361133f565b6101726114c6565b610289611708565b604051901515815260200161013a565b6101236102a736600461439e565b611897565b6101236102ba36600461440a565b612116565b600054610100900460ff16158080156102df5750600054600160ff909116105b806102f95750303b1580156102f9575060005460ff166001145b6103615760405162461bcd60e51b815260206004820152602e60248201527f496e697469616c697a61626c653a20636f6e747261637420697320616c72656160448201526d191e481a5b9a5d1a585b1a5e995960921b60648201526084015b60405180910390fd5b6000805460ff191660011790558015610384576000805461ff0019166101001790555b61038d826124d4565b603a805460ff60601b1916600160601b17905580156103e6576000805461ff0019169055604051600181527f7f26b83ff96e1f2b6a682f133852f6798a09c465da95921460cefb38474024989060200160405180910390a15b5050565b603854603a5460009190600160601b900460ff1680610407575080155b1561041457600291505090565b60005b818110156105eb5760335460408051634bcebf4360e11b815290516000926001600160a01b03169163979d7e86916004808301926020929190829003018186803b15801561046457600080fd5b505afa158015610478573d6000803e3d6000fd5b505050506040513d601f19601f8201168201806040525081019061049c9190614451565b6001600160a01b03166357a26a40603860000184815481106104c0576104c061446e565b60009182526020909120015460405160e083901b6001600160e01b03191681526001600160a01b03909116600482015260240160206040518083038186803b15801561050b57600080fd5b505afa15801561051f573d6000803e3d6000fd5b505050506040513d601f19601f820116820180604052508101906105439190614451565b6001600160a01b031663200d2ed26040518163ffffffff1660e01b815260040160206040518083038186803b15801561057b57600080fd5b505afa15801561058f573d6000803e3d6000fd5b505050506040513d601f19601f820116820180604052508101906105b39190614484565b90506105d1848260028111156105cb576105cb6141e0565b906125ae565b156105da578093505b506105e4816144b7565b9050610417565b505090565b610604670de0b6b3a76400006103e86144d2565b81565b603360009054906101000a90046001600160a01b03166001600160a01b031663979d7e866040518163ffffffff1660e01b815260040160206040518083038186803b15801561065557600080fd5b505afa158015610669573d6000803e3d6000fd5b505050506040513d601f19601f8201168201806040525081019061068d9190614451565b6001600160a01b031663f8ac93e86040518163ffffffff1660e01b8152600401600060405180830381600087803b1580156106c757600080fd5b505af11580156106db573d6000803e3d6000fd5b505060335460408051808201909152600581526427aba722a960d91b60208201526001600160a01b0390911692506391d14854915061071990614501565b336040516001600160e01b031960e085901b16815260048101929092526001600160a01b0316602482015260440160206040518083038186803b15801561075f57600080fd5b505afa158015610773573d6000803e3d6000fd5b505050506040513d601f19601f820116820180604052508101906107979190614528565b80610848575060026107a76103ea565b60028111156107b8576107b86141e0565b1480156108485750603360009054906101000a90046001600160a01b03166001600160a01b031663f17063756040518163ffffffff1660e01b815260040160206040518083038186803b15801561080e57600080fd5b505afa158015610822573d6000803e3d6000fd5b505050506040513d601f19601f820116820180604052508101906108469190614528565b155b61088b5760405162461bcd60e51b81526020600482015260146024820152736261736b657420756e7265667265736861626c6560601b6044820152606401610358565b6108936125de565b565b6000806000603360009054906101000a90046001600160a01b03166001600160a01b031663979d7e866040518163ffffffff1660e01b815260040160206040518083038186803b1580156108e857600080fd5b505afa1580156108fc573d6000803e3d6000fd5b505050506040513d601f19601f820116820180604052508101906109209190614451565b6038549091506000908190815b81811015610af057600061096a603860000183815481106109505761095061446e565b6000918252602090912001546001600160a01b0316610b39565b90506001600160c01b0381166109805750610ae0565b600080876001600160a01b031663cde2be8a603860000186815481106109a8576109a861446e565b60009182526020909120015460405160e083901b6001600160e01b03191681526001600160a01b03909116600482015260240160206040518083038186803b1580156109f357600080fd5b505afa158015610a07573d6000803e3d6000fd5b505050506040513d601f19601f82011682018060405250810190610a2b9190614451565b6001600160a01b031663a035b1fe6040518163ffffffff1660e01b8152600401604080518083038186803b158015610a6257600080fd5b505afa158015610a76573d6000803e3d6000fd5b505050506040513d601f19601f82011682018060405250810190610a9a919061454a565b91509150610aa88383612f84565b610abb906001600160c01b031688614579565b9650610ac78382612f84565b610ada906001600160c01b031687614579565b95505050505b610ae9816144b7565b905061092d565b506001600160c01b03831015610b065782610b0f565b6001600160c01b035b95506001600160c01b03821015610b265781610b2f565b6001600160c01b035b9450505050509091565b60335460408051634bcebf4360e11b815290516000926001600160a01b03169163979d7e86916004808301926020929190829003018186803b158015610b7e57600080fd5b505afa158015610b92573d6000803e3d6000fd5b505050506040513d601f19601f82011682018060405250810190610bb69190614451565b60405163015e89a960e61b81526001600160a01b03848116600483015291909116906357a26a409060240160206040518083038186803b158015610bf957600080fd5b505afa925050508015610c29575060408051601f3d908101601f19168201909252610c2691810190614451565b60015b610c3557506000919050565b6002816001600160a01b031663200d2ed26040518163ffffffff1660e01b815260040160206040518083038186803b158015610c7057600080fd5b505afa158015610c84573d6000803e3d6000fd5b505050506040513d601f19601f82011682018060405250810190610ca89190614484565b6002811115610cb957610cb96141e0565b1415610cc85750600092915050565b6000816001600160a01b031663a7fa0faf6040518163ffffffff1660e01b815260040160206040518083038186803b158015610d0357600080fd5b505afa158015610d17573d6000803e3d6000fd5b505050506040513d601f19601f82011682018060405250810190610d3b9190614591565b90506001600160c01b038116610d5b57506001600160c01b039392505050565b6001600160a01b038416600090815260396020526040902054610d89906001600160c01b031682600261304f565b949350505050565b603854600090801580610dad5750603a54600160601b900460ff165b15610dbb5750600092915050565b6001600160c01b03915060005b818110156111285760335460408051634bcebf4360e11b815290516000926001600160a01b03169163979d7e86916004808301926020929190829003018186803b158015610e1557600080fd5b505afa158015610e29573d6000803e3d6000fd5b505050506040513d601f19601f82011682018060405250810190610e4d9190614451565b6001600160a01b03166357a26a4060386000018481548110610e7157610e7161446e565b60009182526020909120015460405160e083901b6001600160e01b03191681526001600160a01b03909116600482015260240160206040518083038186803b158015610ebc57600080fd5b505afa158015610ed0573d6000803e3d6000fd5b505050506040513d601f19601f82011682018060405250810190610ef49190614451565b90506002816001600160a01b031663200d2ed26040518163ffffffff1660e01b815260040160206040518083038186803b158015610f3157600080fd5b505afa158015610f45573d6000803e3d6000fd5b505050506040513d601f19601f82011682018060405250810190610f699190614484565b6002811115610f7a57610f7a6141e0565b1415610f8b57506000949350505050565b6000816001600160a01b031663a7fa0faf6040518163ffffffff1660e01b815260040160206040518083038186803b158015610fc657600080fd5b505afa158015610fda573d6000803e3d6000fd5b505050506040513d601f19601f82011682018060405250810190610ffe9190614591565b90506001600160c01b03811661101a5750600095945050505050565b604051632ac07b9560e11b81526001600160a01b03878116600483015260009190841690635580f72a9060240160206040518083038186803b15801561105f57600080fd5b505afa158015611073573d6000803e3d6000fd5b505050506040513d601f19601f820116820180604052508101906110979190614591565b905060006110f38360026038600101600060386000018a815481106110be576110be61446e565b60009182526020808320909101546001600160a01b031683528201929092526040019020546001600160c01b0316919061304f565b90506111118761110c6001600160c01b03851684613091565b61309f565b96505050505080611121906144b7565b9050610dc8565b5050919050565b60385460609081908067ffffffffffffffff811115611150576111506145ae565b604051908082528060200260200182016040528015611179578160200160208202803683370190505b5092508067ffffffffffffffff811115611195576111956145ae565b6040519080825280602002602001820160405280156111be578160200160208202803683370190505b50915060005b818110156113365760388054829081106111e0576111e061446e565b9060005260206000200160009054906101000a90046001600160a01b03168482815181106112105761121061446e565b60200260200101906001600160a01b031690816001600160a01b031681525050611309603860000182815481106112495761124961446e565b600091825260209182902001546040805163313ce56760e01b815290516001600160a01b039092169263313ce56792600480840193829003018186803b15801561129257600080fd5b505afa1580156112a6573d6000803e3d6000fd5b505050506040513d601f19601f820116820180604052508101906112ca91906145c4565b866112f989896112e9603860000188815481106109505761095061446e565b6001600160c01b031691906130c7565b6001600160c01b031691906130f4565b83828151811061131b5761131b61446e565b602090810291909101015261132f816144b7565b90506111c4565b50509250929050565b603360009054906101000a90046001600160a01b03166001600160a01b031663979d7e866040518163ffffffff1660e01b815260040160206040518083038186803b15801561138d57600080fd5b505afa1580156113a1573d6000803e3d6000fd5b505050506040513d601f19601f820116820180604052508101906113c59190614451565b6001600160a01b0316336001600160a01b03161461141b5760405162461bcd60e51b81526020600482015260136024820152726173736574207265676973747279206f6e6c7960681b6044820152606401610358565b60385460009067ffffffffffffffff811115611439576114396145ae565b604051908082528060200260200182016040528015611462578160200160208202803683370190505b50603a5460405191925065ffffffffffff16907f96b0986d2e475227127142054ad0599449d839de95c18f73d7577f9af3c22f73906114a89060389085906001906145e7565b60405180910390a250603a805460ff60601b1916600160601b179055565b600080603360009054906101000a90046001600160a01b03166001600160a01b031663979d7e866040518163ffffffff1660e01b815260040160206040518083038186803b15801561151757600080fd5b505afa15801561152b573d6000803e3d6000fd5b505050506040513d601f19601f8201168201806040525081019061154f9190614451565b603854909150600090815b818110156116e157600061157d603860000183815481106109505761095061446e565b90506001600160c01b03811661159357506116d1565b6000856001600160a01b031663cde2be8a603860000185815481106115ba576115ba61446e565b60009182526020909120015460405160e083901b6001600160e01b03191681526001600160a01b03909116600482015260240160206040518083038186803b15801561160557600080fd5b505afa158015611619573d6000803e3d6000fd5b505050506040513d601f19601f8201168201806040525081019061163d9190614451565b6001600160a01b031663e28a1b866040518163ffffffff1660e01b815260040160206040518083038186803b15801561167557600080fd5b505afa158015611689573d6000803e3d6000fd5b505050506040513d601f19601f820116820180604052508101906116ad9190614591565b90506116b98282612f84565b6116cc906001600160c01b031686614579565b945050505b6116da816144b7565b905061155a565b506001600160c01b038210156116f75781611700565b6001600160c01b035b935050505090565b603354604080516320632fb960e11b815290516000926001600160a01b0316916340c65f72916004808301926020929190829003018186803b15801561174d57600080fd5b505afa158015611761573d6000803e3d6000fd5b505050506040513d601f19601f820116820180604052508101906117859190614451565b6001600160a01b0316637121c2736040518163ffffffff1660e01b815260040160206040518083038186803b1580156117bd57600080fd5b505afa1580156117d1573d6000803e3d6000fd5b505050506040513d601f19601f820116820180604052508101906117f59190614591565b6001600160c01b0316611887603360009054906101000a90046001600160a01b03166001600160a01b031663dc8af5f66040518163ffffffff1660e01b815260040160206040518083038186803b15801561184f57600080fd5b505afa158015611863573d6000803e3d6000fd5b505050506040513d601f19601f820116820180604052508101906101db9190614451565b6001600160c01b03161015905090565b60335460408051808201909152600581526427aba722a960d91b60208201526001600160a01b03909116906391d14854906118d190614501565b336040516001600160e01b031960e085901b16815260048101929092526001600160a01b0316602482015260440160206040518083038186803b15801561191757600080fd5b505afa15801561192b573d6000803e3d6000fd5b505050506040513d601f19601f8201168201806040525081019061194f9190614528565b61198d5760405162461bcd60e51b815260206004820152600f60248201526e676f7665726e616e6365206f6e6c7960881b6044820152606401610358565b826119d05760405162461bcd60e51b815260206004820152601360248201527218d85b9b9bdd08195b5c1d1e4818985cdad95d606a1b6044820152606401610358565b828114611a155760405162461bcd60e51b81526020600482015260136024820152720daeae6e840c4ca40e6c2daca40d8cadccee8d606b1b6044820152606401610358565b611a1f84846131d2565b60005b603454811015611ac6576034805460359160009184908110611a4657611a4661446e565b60009182526020808320909101546001600160a01b03168352820192909252604001812080546001600160c01b031916905560348054603692919084908110611a9157611a9161446e565b60009182526020808320909101546001600160a01b03168352820192909252604001812055611abf816144b7565b9050611a22565b50611ad360346000614178565b60335460408051634bcebf4360e11b815290516000926001600160a01b03169163979d7e86916004808301926020929190829003018186803b158015611b1857600080fd5b505afa158015611b2c573d6000803e3d6000fd5b505050506040513d601f19601f82011682018060405250810190611b509190614451565b905060008467ffffffffffffffff811115611b6d57611b6d6145ae565b604051908082528060200260200182016040528015611b96578160200160208202803683370190505b50905060005b858110156120ce57826001600160a01b031663cde2be8a888884818110611bc557611bc561446e565b9050602002016020810190611bda91906141c3565b6040516001600160e01b031960e084901b1681526001600160a01b03909116600482015260240160206040518083038186803b158015611c1957600080fd5b505afa158015611c2d573d6000803e3d6000fd5b505050506040513d601f19601f82011682018060405250810190611c519190614451565b6001600160a01b031663c59b3d636040518163ffffffff1660e01b815260040160206040518083038186803b158015611c8957600080fd5b505afa158015611c9d573d6000803e3d6000fd5b505050506040513d601f19601f82011682018060405250810190611cc19190614528565b611d075760405162461bcd60e51b81526020600482015260176024820152761d1bdad95b881a5cc81b9bdd0818dbdb1b185d195c985b604a1b6044820152606401610358565b848482818110611d1957611d1961446e565b9050602002016020810190611d2e9190614685565b6001600160c01b0316600010611d955760405162461bcd60e51b815260206004820152602660248201527f696e76616c69642074617267657420616d6f756e743b206d757374206265206e6044820152656f6e7a65726f60d01b6064820152608401610358565b611da9670de0b6b3a76400006103e86144d2565b6001600160c01b0316858583818110611dc457611dc461446e565b9050602002016020810190611dd99190614685565b6001600160c01b03161115611e305760405162461bcd60e51b815260206004820181905260248201527f696e76616c69642074617267657420616d6f756e743b20746f6f206c617267656044820152606401610358565b6034878783818110611e4457611e4461446e565b9050602002016020810190611e5991906141c3565b81546001810183556000928352602090922090910180546001600160a01b0319166001600160a01b03909216919091179055848482818110611e9d57611e9d61446e565b9050602002016020810190611eb29190614685565b60356000898985818110611ec857611ec861446e565b9050602002016020810190611edd91906141c3565b6001600160a01b03166001600160a01b0316815260200190815260200160002060006101000a8154816001600160c01b0302191690836001600160c01b03160217905550826001600160a01b03166357a26a40888884818110611f4257611f4261446e565b9050602002016020810190611f5791906141c3565b6040516001600160e01b031960e084901b1681526001600160a01b03909116600482015260240160206040518083038186803b158015611f9657600080fd5b505afa158015611faa573d6000803e3d6000fd5b505050506040513d601f19601f82011682018060405250810190611fce9190614451565b6001600160a01b031663fdfd59176040518163ffffffff1660e01b815260040160206040518083038186803b15801561200657600080fd5b505afa15801561201a573d6000803e3d6000fd5b505050506040513d601f19601f8201168201806040525081019061203e91906146a2565b8282815181106120505761205061446e565b60200260200101818152505081818151811061206e5761206e61446e565b60200260200101516034600201600089898581811061208f5761208f61446e565b90506020020160208101906120a491906141c3565b6001600160a01b031681526020810191909152604001600020556120c7816144b7565b9050611b9c565b507f629da6921e2e606994411ee546db2cd47613a15eb48b5f4e474506e11349ab208686868685604051612106959493929190614704565b60405180910390a1505050505050565b60335460408051808201909152600581526427aba722a960d91b60208201526001600160a01b03909116906391d148549061215090614501565b336040516001600160e01b031960e085901b16815260048101929092526001600160a01b0316602482015260440160206040518083038186803b15801561219657600080fd5b505afa1580156121aa573d6000803e3d6000fd5b505050506040513d601f19601f820116820180604052508101906121ce9190614528565b61220c5760405162461bcd60e51b815260206004820152600f60248201526e676f7665726e616e6365206f6e6c7960881b6044820152606401610358565b61221682826131d2565b600084815260376020526040812084815590612236906001830190614178565b60335460408051634bcebf4360e11b815290516000926001600160a01b03169163979d7e86916004808301926020929190829003018186803b15801561227b57600080fd5b505afa15801561228f573d6000803e3d6000fd5b505050506040513d601f19601f820116820180604052508101906122b39190614451565b905060005b8381101561249057816001600160a01b031663cde2be8a8686848181106122e1576122e161446e565b90506020020160208101906122f691906141c3565b6040516001600160e01b031960e084901b1681526001600160a01b03909116600482015260240160206040518083038186803b15801561233557600080fd5b505afa158015612349573d6000803e3d6000fd5b505050506040513d601f19601f8201168201806040525081019061236d9190614451565b6001600160a01b031663c59b3d636040518163ffffffff1660e01b815260040160206040518083038186803b1580156123a557600080fd5b505afa1580156123b9573d6000803e3d6000fd5b505050506040513d601f19601f820116820180604052508101906123dd9190614528565b6124235760405162461bcd60e51b81526020600482015260176024820152761d1bdad95b881a5cc81b9bdd0818dbdb1b185d195c985b604a1b6044820152606401610358565b826001018585838181106124395761243961446e565b905060200201602081019061244e91906141c3565b81546001810183556000928352602090922090910180546001600160a01b0319166001600160a01b03909216919091179055612489816144b7565b90506122b8565b5084867f5e4dc2c7b1c113b11b34cda7c3dad9d453b0288298f8c9e9dd8e91515f22819d86866040516124c49291906147a2565b60405180910390a3505050505050565b600054610100900460ff1661253f5760405162461bcd60e51b815260206004820152602b60248201527f496e697469616c697a61626c653a20636f6e7472616374206973206e6f74206960448201526a6e697469616c697a696e6760a81b6064820152608401610358565b6001600160a01b03811661258c5760405162461bcd60e51b81526020600482015260146024820152736d61696e206973207a65726f206164647265737360601b6044820152606401610358565b603380546001600160a01b0319166001600160a01b0392909216919091179055565b60008160028111156125c2576125c26141e0565b8360028111156125d4576125d46141e0565b1190505b92915050565b60335460408051634bcebf4360e11b815290516000926001600160a01b03169163979d7e86916004808301926020929190829003018186803b15801561262357600080fd5b505afa158015612637573d6000803e3d6000fd5b505050506040513d601f19601f8201168201806040525081019061265b9190614451565b603a805460ff60601b1916905590505b6000612677603b613636565b111561269a5761269461268c603b6000613640565b603b9061364c565b5061266b565b6126a4603d613658565b60005b60345481101561270f576126fe60346002016000603460000184815481106126d1576126d161446e565b60009182526020808320909101546001600160a01b03168352820192909252604001902054603b906136e1565b50612708816144b7565b90506126a7565b50600061271c603b613636565b67ffffffffffffffff811115612734576127346145ae565b60405190808252806020026020018201604052801561275d578160200160208202803683370190505b509050600061276c603b613636565b67ffffffffffffffff811115612784576127846145ae565b6040519080825280602002602001820160405280156127ad578160200160208202803683370190505b50905060005b603454811015612a7a576000603460000182815481106127d5576127d561446e565b60009182526020822001546001600160a01b031691505b6127f6603b613636565b81101561283c576001600160a01b038216600090815260366020526040902054612821603b83613640565b141561282c5761283c565b612835816144b7565b90506127ec565b612846603b613636565b8110612854576128546147b6565b6001600160a01b03821660009081526035602052604090205484516001600160c01b03909116906128b29082908790859081106128935761289361446e565b60200260200101516001600160c01b03166136ed90919063ffffffff16565b8583815181106128c4576128c461446e565b6001600160c01b039092166020928302919091018201526001600160a01b0384166000908152603690915260409020546128fe90846136f9565b801561291257506001600160c01b03811615155b15612a665761292d818784815181106128935761289361446e565b86838151811061293f5761293f61446e565b6001600160c01b039092166020928302919091019091015260405163015e89a960e61b81526001600160a01b038085166004830152612a66918591612a5d91908b16906357a26a409060240160206040518083038186803b1580156129a357600080fd5b505afa1580156129b7573d6000803e3d6000fd5b505050506040513d601f19601f820116820180604052508101906129db9190614451565b6001600160a01b031663d9e8e6706040518163ffffffff1660e01b815260040160206040518083038186803b158015612a1357600080fd5b505afa158015612a27573d6000803e3d6000fd5b505050506040513d601f19601f82011682018060405250810190612a4b9190614591565b6001600160c01b03851690600261304f565b603d9190613c1e565b50505080612a73906144b7565b90506127b3565b5060005b612a88603b613636565b811015612dad57612add838281518110612aa457612aa461446e565b6020026020010151838381518110612abe57612abe61446e565b60200260200101516001600160c01b0316613d2590919063ffffffff16565b15612ae757612d9d565b600080603781612af8603b86613640565b8152602001908152602001600020905060005b600182015481108015612b1e5750815483105b15612b8357612b60612b31603b86613640565b836001018381548110612b4657612b4661446e565b6000918252602090912001546001600160a01b03166136f9565b15612b735782612b6f816144b7565b9350505b612b7c816144b7565b9050612b0b565b5081612b9d57603a805460ff60601b1916600160601b1790555b600080612bee878681518110612bb557612bb561446e565b6020026020010151878781518110612bcf57612bcf61446e565b60200260200101516001600160c01b0316613d3790919063ffffffff16565b905060005b600184015481108015612c0557508483105b15612d97576000846001018281548110612c2157612c2161446e565b6000918252602090912001546001600160a01b03169050612c4c612c46603b89613640565b826136f9565b15612d8657612d7881612a5d612d66898e6001600160a01b03166357a26a40876040518263ffffffff1660e01b8152600401612c9791906001600160a01b0391909116815260200190565b60206040518083038186803b158015612caf57600080fd5b505afa158015612cc3573d6000803e3d6000fd5b505050506040513d601f19601f82011682018060405250810190612ce79190614451565b6001600160a01b031663d9e8e6706040518163ffffffff1660e01b815260040160206040518083038186803b158015612d1f57600080fd5b505afa158015612d33573d6000803e3d6000fd5b505050506040513d601f19601f82011682018060405250810190612d579190614591565b6001600160c01b031690613d43565b6001600160c01b03871690600261304f565b83612d82816144b7565b9450505b50612d90816144b7565b9050612bf3565b50505050505b612da6816144b7565b9050612a7e565b50603d54612dc957603a805460ff60601b1916600160601b1790555b603a54600160601b900460ff16612e4c57612de66038603d613d5b565b603a805460019190600090612e0490849065ffffffffffff166147cc565b92506101000a81548165ffffffffffff021916908365ffffffffffff16021790555042603a60066101000a81548165ffffffffffff021916908365ffffffffffff1602179055505b60385460009067ffffffffffffffff811115612e6a57612e6a6145ae565b604051908082528060200260200182016040528015612e93578160200160208202803683370190505b50905060005b603854811015612f2a576038805460399160009184908110612ebd57612ebd61446e565b60009182526020808320909101546001600160a01b0316835282019290925260400190205482516001600160c01b0390911690839083908110612f0257612f0261446e565b6001600160c01b0390921660209283029190910190910152612f23816144b7565b9050612e99565b50603a5460405165ffffffffffff8216917f96b0986d2e475227127142054ad0599449d839de95c18f73d7577f9af3c22f7391612f76916038918691600160601b900460ff16906145e7565b60405180910390a250505050565b60006001600160c01b0383161580612fa357506001600160c01b038216155b15612fb0575060006125d8565b6001600160c01b038381161480612fcf57506001600160c01b03828116145b15612fe257506001600160c01b036125d8565b6001600160c01b03828116908416818102918281613002576130026147f6565b0414613018576001600160c01b039150506125d8565b6706f05b59d3b2000081018181101561303c576001600160c01b03925050506125d8565b670de0b6b3a76400009004949350505050565b6000613087613082613072670de0b6b3a76400006001600160c01b03881661480c565b856001600160c01b031685613e7f565b613f29565b90505b9392505050565b600061308a8383600061304f565b6000816001600160c01b0316836001600160c01b0316106130c0578161308a565b5090919050565b60006130876130826130e56001600160c01b0380871690881661480c565b670de0b6b3a764000085613e7f565b60006001600160c01b03841661310c5750600061308a565b6029198360000b1361314557600282600281111561312c5761312c6141e0565b1461313857600061313b565b60015b60ff16905061308a565b8260000b6060136131695760405163f44398f560e01b815260040160405180910390fd5b61317460128461482b565b925060006131848460000b613f57565b61318f90600a614950565b905060008460000b12156131b6576131b1856001600160c01b03168285613e7f565b6131c9565b6131c9816001600160c01b03871661480c565b95945050505050565b6033546040805163c99dc3dd60e01b815290516000926001600160a01b03169163c99dc3dd916004808301926020929190829003018186803b15801561321757600080fd5b505afa15801561322b573d6000803e3d6000fd5b505050506040513d601f19601f8201168201806040525081019061324f9190614451565b90506000603360009054906101000a90046001600160a01b03166001600160a01b03166340c65f726040518163ffffffff1660e01b815260040160206040518083038186803b1580156132a157600080fd5b505afa1580156132b5573d6000803e3d6000fd5b505050506040513d601f19601f820116820180604052508101906132d99190614451565b90506000603360009054906101000a90046001600160a01b03166001600160a01b0316634780a5e56040518163ffffffff1660e01b815260040160206040518083038186803b15801561332b57600080fd5b505afa15801561333f573d6000803e3d6000fd5b505050506040513d601f19601f820116820180604052508101906133639190614451565b90506000805b858110156135af57846001600160a01b031687878381811061338d5761338d61446e565b90506020020160208101906133a291906141c3565b6001600160a01b031614156133f95760405162461bcd60e51b815260206004820152601b60248201527f525352206973206e6f742076616c696420636f6c6c61746572616c00000000006044820152606401610358565b836001600160a01b03168787838181106134155761341561446e565b905060200201602081019061342a91906141c3565b6001600160a01b031614156134815760405162461bcd60e51b815260206004820152601e60248201527f52546f6b656e206973206e6f742076616c696420636f6c6c61746572616c00006044820152606401610358565b826001600160a01b031687878381811061349d5761349d61446e565b90506020020160208101906134b291906141c3565b6001600160a01b031614156135095760405162461bcd60e51b815260206004820152601d60248201527f7374525352206973206e6f742076616c696420636f6c6c61746572616c0000006044820152606401610358565b816001600160a01b03168787838181106135255761352561446e565b905060200201602081019061353a91906141c3565b6001600160a01b0316141561359d5760405162461bcd60e51b8152602060048201526024808201527f61646472657373207a65726f206973206e6f742076616c696420636f6c6c6174604482015263195c985b60e21b6064820152608401610358565b806135a7816144b7565b915050613369565b506135ec868680806020026020016040519081016040528093929190818152602001838360200280828437600092019190915250613f6f92505050565b61362e5760405162461bcd60e51b8152602060048201526013602482015272636f6e7461696e73206475706c69636174657360681b6044820152606401610358565b505050505050565b60006125d8825490565b600061308a838361400c565b600061308a8383614036565b805460005b818110156136d55760008360010160008560000184815481106136825761368261446e565b6000918252602080832091909101546001600160a01b03168352820192909252604001902080546001600160c01b0319166001600160c01b03929092169190911790556136ce816144b7565b905061365d565b506103e6826000614178565b600061308a8383614129565b600061308a828461495c565b60006001600160a01b038216613711575060006125d8565b603360009054906101000a90046001600160a01b03166001600160a01b031663c99dc3dd6040518163ffffffff1660e01b815260040160206040518083038186803b15801561375f57600080fd5b505afa158015613773573d6000803e3d6000fd5b505050506040513d601f19601f820116820180604052508101906137979190614451565b6001600160a01b0316826001600160a01b031614156137b8575060006125d8565b603360009054906101000a90046001600160a01b03166001600160a01b03166340c65f726040518163ffffffff1660e01b815260040160206040518083038186803b15801561380657600080fd5b505afa15801561381a573d6000803e3d6000fd5b505050506040513d601f19601f8201168201806040525081019061383e9190614451565b6001600160a01b0316826001600160a01b0316141561385f575060006125d8565b603360009054906101000a90046001600160a01b03166001600160a01b0316634780a5e56040518163ffffffff1660e01b815260040160206040518083038186803b1580156138ad57600080fd5b505afa1580156138c1573d6000803e3d6000fd5b505050506040513d601f19601f820116820180604052508101906138e59190614451565b6001600160a01b0316826001600160a01b03161415613906575060006125d8565b603360009054906101000a90046001600160a01b03166001600160a01b031663979d7e866040518163ffffffff1660e01b815260040160206040518083038186803b15801561395457600080fd5b505afa158015613968573d6000803e3d6000fd5b505050506040513d601f19601f8201168201806040525081019061398c9190614451565b60405163015e89a960e61b81526001600160a01b03848116600483015291909116906357a26a409060240160206040518083038186803b1580156139cf57600080fd5b505afa9250505080156139ff575060408051601f3d908101601f191682019092526139fc91810190614451565b60015b613a0b575060006125d8565b806001600160a01b031663fdfd59176040518163ffffffff1660e01b815260040160206040518083038186803b158015613a4457600080fd5b505afa158015613a58573d6000803e3d6000fd5b505050506040513d601f19601f82011682018060405250810190613a7c91906146a2565b84148015613b0c57506002816001600160a01b031663200d2ed26040518163ffffffff1660e01b815260040160206040518083038186803b158015613ac057600080fd5b505afa158015613ad4573d6000803e3d6000fd5b505050506040513d601f19601f82011682018060405250810190613af89190614484565b6002811115613b0957613b096141e0565b14155b8015613b9157506000816001600160a01b031663a7fa0faf6040518163ffffffff1660e01b815260040160206040518083038186803b158015613b4e57600080fd5b505afa158015613b62573d6000803e3d6000fd5b505050506040513d601f19601f82011682018060405250810190613b869190614591565b6001600160c01b0316115b8015613c1657506000816001600160a01b031663d9e8e6706040518163ffffffff1660e01b815260040160206040518083038186803b158015613bd357600080fd5b505afa158015613be7573d6000803e3d6000fd5b505050506040513d601f19601f82011682018060405250810190613c0b9190614591565b6001600160c01b0316115b9150506125d8565b6001600160c01b038116613c3157505050565b6001600160a01b03821660009081526001840160205260409020546001600160c01b0316613cb8578254600181810185556000858152602080822090930180546001600160a01b0387166001600160a01b0319909116811790915581529085019091526040902080546001600160c01b0383166001600160c01b0319909116179055505050565b6001600160a01b0382166000908152600184016020526040902054613ce6906001600160c01b0316826136ed565b6001600160a01b0383166000908152600185016020526040902080546001600160c01b03929092166001600160c01b0319909216919091179055505050565b6001600160c01b039081169116111590565b600061308a828461497e565b600061308a613082836001600160c01b03861661480c565b613d6482613658565b805460005b81811015613e795782548490849083908110613d8757613d8761446e565b600091825260208083209091015483546001818101865594845291832090910180546001600160a01b0319166001600160a01b03909216919091179055845491850191859084908110613ddc57613ddc61446e565b60009182526020808320909101546001600160a01b0316835282019290925260400181205484546001600160c01b03909116916001870191869085908110613e2657613e2661446e565b6000918252602080832091909101546001600160a01b03168352820192909252604001902080546001600160c01b0319166001600160c01b0392909216919091179055613e72816144b7565b9050613d69565b50505050565b600080613e8c84866149a6565b90506000836002811115613ea257613ea26141e0565b1415613eaf57905061308a565b6001836002811115613ec357613ec36141e0565b1415613f03576002613ed66001866149ba565b613ee091906149a6565b613eea85876149d1565b1115613efe5780613efa816144b7565b9150505b613087565b6000613f0f85876149d1565b11156130875780613f1f816144b7565b9695505050505050565b60006001600160c01b03821115613f535760405163f44398f560e01b815260040160405180910390fd5b5090565b6000808212613f6657816125d8565b6125d8826149e5565b805160009060015b818110156140025760005b81811015613ff157848181518110613f9c57613f9c61446e565b60200260200101516001600160a01b0316858381518110613fbf57613fbf61446e565b60200260200101516001600160a01b03161415613fe157506000949350505050565b613fea816144b7565b9050613f82565b50613ffb816144b7565b9050613f77565b5060019392505050565b60008260000182815481106140235761402361446e565b9060005260206000200154905092915050565b6000818152600183016020526040812054801561411f57600061405a6001836149ba565b855490915060009061406e906001906149ba565b90508181146140d357600086600001828154811061408e5761408e61446e565b90600052602060002001549050808760000184815481106140b1576140b161446e565b6000918252602080832090910192909255918252600188019052604090208390555b85548690806140e4576140e4614a02565b6001900381819060005260206000200160009055905585600101600086815260200190815260200160002060009055600193505050506125d8565b60009150506125d8565b6000818152600183016020526040812054614170575081546001818101845560008481526020808220909301849055845484825282860190935260409020919091556125d8565b5060006125d8565b50805460008255906000526020600020908101906141969190614199565b50565b5b80821115613f53576000815560010161419a565b6001600160a01b038116811461419657600080fd5b6000602082840312156141d557600080fd5b813561308a816141ae565b634e487b7160e01b600052602160045260246000fd5b602081016003831061421857634e487b7160e01b600052602160045260246000fd5b91905290565b600060208083528351808285015260005b8181101561424b5785810183015185820160400152820161422f565b8181111561425d576000604083870101525b50601f01601f1916929092016040019392505050565b6001600160c01b038116811461419657600080fd5b6003811061419657600080fd5b600080604083850312156142a857600080fd5b82356142b381614273565b915060208301356142c381614288565b809150509250929050565b604080825283519082018190526000906020906060840190828701845b828110156143105781516001600160a01b0316845292840192908401906001016142eb565b5050508381038285015284518082528583019183019060005b8181101561434557835183529284019291840191600101614329565b5090979650505050505050565b60008083601f84011261436457600080fd5b50813567ffffffffffffffff81111561437c57600080fd5b6020830191508360208260051b850101111561439757600080fd5b9250929050565b600080600080604085870312156143b457600080fd5b843567ffffffffffffffff808211156143cc57600080fd5b6143d888838901614352565b909650945060208701359150808211156143f157600080fd5b506143fe87828801614352565b95989497509550505050565b6000806000806060858703121561442057600080fd5b8435935060208501359250604085013567ffffffffffffffff81111561444557600080fd5b6143fe87828801614352565b60006020828403121561446357600080fd5b815161308a816141ae565b634e487b7160e01b600052603260045260246000fd5b60006020828403121561449657600080fd5b815161308a81614288565b634e487b7160e01b600052601160045260246000fd5b60006000198214156144cb576144cb6144a1565b5060010190565b60006001600160c01b03828116848216811515828404821116156144f8576144f86144a1565b02949350505050565b80516020808301519190811015614522576000198160200360031b1b821691505b50919050565b60006020828403121561453a57600080fd5b8151801515811461308a57600080fd5b6000806040838503121561455d57600080fd5b825161456881614273565b60208401519092506142c381614273565b6000821982111561458c5761458c6144a1565b500190565b6000602082840312156145a357600080fd5b815161308a81614273565b634e487b7160e01b600052604160045260246000fd5b6000602082840312156145d657600080fd5b815160ff8116811461308a57600080fd5b6000606082016060835280865480835260808501915087600052602092508260002060005b828110156146335781546001600160a01b031684526020840193506001918201910161460c565b5050508381038285015285518082528683019183019060005b818110156146715783516001600160c01b03168352928401929184019160010161464c565b505085151560408601529250610d89915050565b60006020828403121561469757600080fd5b813561308a81614273565b6000602082840312156146b457600080fd5b5051919050565b8183526000602080850194508260005b858110156146f95781356146de816141ae565b6001600160a01b0316875295820195908201906001016146cb565b509495945050505050565b6060815260006147186060830187896146bb565b8281036020848101919091528582528691810160005b8781101561475c57833561474181614273565b6001600160c01b03168252928201929082019060010161472e565b508481036040860152855180825290820192508186019060005b8181101561479257825185529383019391830191600101614776565b50929a9950505050505050505050565b6020815260006130876020830184866146bb565b634e487b7160e01b600052600160045260246000fd5b600065ffffffffffff8083168185168083038211156147ed576147ed6144a1565b01949350505050565b634e487b7160e01b600052601260045260246000fd5b6000816000190483118215151615614826576148266144a1565b500290565b600081810b83820b8281128015607f1983018412161561484d5761484d6144a1565b81607f018313811615614862576148626144a1565b5090039392505050565b600181815b808511156148a757816000190482111561488d5761488d6144a1565b8085161561489a57918102915b93841c9390800290614871565b509250929050565b6000826148be575060016125d8565b816148cb575060006125d8565b81600181146148e157600281146148eb57614907565b60019150506125d8565b60ff8411156148fc576148fc6144a1565b50506001821b6125d8565b5060208310610133831016604e8410600b841016171561492a575081810a6125d8565b614934838361486c565b8060001904821115614948576149486144a1565b029392505050565b600061308a83836148af565b60006001600160c01b038281168482168083038211156147ed576147ed6144a1565b60006001600160c01b038381169083168181101561499e5761499e6144a1565b039392505050565b6000826149b5576149b56147f6565b500490565b6000828210156149cc576149cc6144a1565b500390565b6000826149e0576149e06147f6565b500690565b6000600160ff1b8214156149fb576149fb6144a1565b5060000390565b634e487b7160e01b600052603160045260246000fdfea264697066735822122065aa9bcc4e2382e6084747d7d94c591b6d105cfe139029aba91b98cf4300711864736f6c63430008090033",
  "linkReferences": {},
  "deployedLinkReferences": {}
}