{
  "_format": "hh-sol-artifact-1",
  "contractName": "FurnaceP1",
  "sourceName": "contracts/reserve/p1/Furnace.sol",
  "abi": [
    {
      "inputs": [],
      "name": "UIntOutOfBounds",
      "type": "error"
    },
    {
      "anonymous": false,
      "inputs": [
        {
          "indexed": false,
          "internalType": "address",
          "name": "previousAdmin",
          "type": "address"
        },
        {
          "indexed": false,
          "internalType": "address",
          "name": "newAdmin",
          "type": "address"
        }
      ],
      "name": "AdminChanged",
      "type": "event"
    },
    {
      "anonymous": false,
      "inputs": [
        {
          "indexed": true,
          "internalType": "address",
          "name": "beacon",
          "type": "address"
        }
      ],
      "name": "BeaconUpgraded",
      "type": "event"
    },
    {
      "anonymous": false,
      "inputs": [
        {
          "indexed": false,
          "internalType": "uint8",
          "name": "version",
          "type": "uint8"
        }
      ],
      "name": "Initialized",
      "type": "event"
    },
    {
      "anonymous": false,
      "inputs": [
        {
          "indexed": true,
          "internalType": "uint48",
          "name": "oldPeriod",
          "type": "uint48"
        },
        {
          "indexed": true,
          "internalType": "uint48",
          "name": "newPeriod",
          "type": "uint48"
        }
      ],
      "name": "PeriodSet",
      "type": "event"
    },
    {
      "anonymous": false,
      "inputs": [
        {
          "indexed": true,
          "internalType": "uint192",
          "name": "oldRatio",
          "type": "uint192"
        },
        {
          "indexed": true,
          "internalType": "uint192",
          "name": "newRatio",
          "type": "uint192"
        }
      ],
      "name": "RatioSet",
      "type": "event"
    },
    {
      "anonymous": false,
      "inputs": [
        {
          "indexed": true,
          "internalType": "address",
          "name": "implementation",
          "type": "address"
        }
      ],
      "name": "Upgraded",
      "type": "event"
    },
    {
      "inputs": [],
      "name": "MAX_PERIOD",
      "outputs": [
        {
          "internalType": "uint48",
          "name": "",
          "type": "uint48"
        }
      ],
      "stateMutability": "view",
      "type": "function"
    },
    {
      "inputs": [],
      "name": "MAX_RATIO",
      "outputs": [
        {
          "internalType": "uint192",
          "name": "",
          "type": "uint192"
        }
      ],
      "stateMutability": "view",
      "type": "function"
    },
    {
      "inputs": [
        {
          "internalType": "contract IMain",
          "name": "main_",
          "type": "address"
        },
        {
          "internalType": "uint48",
          "name": "period_",
          "type": "uint48"
        },
        {
          "internalType": "uint192",
          "name": "ratio_",
          "type": "uint192"
        }
      ],
      "name": "init",
      "outputs": [],
      "stateMutability": "nonpayable",
      "type": "function"
    },
    {
      "inputs": [],
      "name": "lastPayout",
      "outputs": [
        {
          "internalType": "uint48",
          "name": "",
          "type": "uint48"
        }
      ],
      "stateMutability": "view",
      "type": "function"
    },
    {
      "inputs": [],
      "name": "lastPayoutBal",
      "outputs": [
        {
          "internalType": "uint256",
          "name": "",
          "type": "uint256"
        }
      ],
      "stateMutability": "view",
      "type": "function"
    },
    {
      "inputs": [],
      "name": "main",
      "outputs": [
        {
          "internalType": "contract IMain",
          "name": "",
          "type": "address"
        }
      ],
      "stateMutability": "view",
      "type": "function"
    },
    {
      "inputs": [],
      "name": "melt",
      "outputs": [],
      "stateMutability": "nonpayable",
      "type": "function"
    },
    {
      "inputs": [],
      "name": "period",
      "outputs": [
        {
          "internalType": "uint48",
          "name": "",
          "type": "uint48"
        }
      ],
      "stateMutability": "view",
      "type": "function"
    },
    {
      "inputs": [],
      "name": "proxiableUUID",
      "outputs": [
        {
          "internalType": "bytes32",
          "name": "",
          "type": "bytes32"
        }
      ],
      "stateMutability": "view",
      "type": "function"
    },
    {
      "inputs": [],
      "name": "ratio",
      "outputs": [
        {
          "internalType": "uint192",
          "name": "",
          "type": "uint192"
        }
      ],
      "stateMutability": "view",
      "type": "function"
    },
    {
      "inputs": [
        {
          "internalType": "uint48",
          "name": "period_",
          "type": "uint48"
        }
      ],
      "name": "setPeriod",
      "outputs": [],
      "stateMutability": "nonpayable",
      "type": "function"
    },
    {
      "inputs": [
        {
          "internalType": "uint192",
          "name": "ratio_",
          "type": "uint192"
        }
      ],
      "name": "setRatio",
      "outputs": [],
      "stateMutability": "nonpayable",
      "type": "function"
    },
    {
      "inputs": [
        {
          "internalType": "address",
          "name": "newImplementation",
          "type": "address"
        }
      ],
      "name": "upgradeTo",
      "outputs": [],
      "stateMutability": "nonpayable",
      "type": "function"
    },
    {
      "inputs": [
        {
          "internalType": "address",
          "name": "newImplementation",
          "type": "address"
        },
        {
          "internalType": "bytes",
          "name": "data",
          "type": "bytes"
        }
      ],
      "name": "upgradeToAndCall",
      "outputs": [],
      "stateMutability": "payable",
      "type": "function"
    },
    {
      "inputs": [],
      "name": "version",
      "outputs": [
        {
          "internalType": "string",
          "name": "",
          "type": "string"
        }
      ],
      "stateMutability": "pure",
      "type": "function"
    }
  ],
  "bytecode": "0x60a0604052306080523480156200001557600080fd5b50600054610100900460ff1615808015620000375750600054600160ff909116105b8062000067575062000054306200014160201b62000dee1760201c565b15801562000067575060005460ff166001145b620000cf5760405162461bcd60e51b815260206004820152602e60248201527f496e697469616c697a61626c653a20636f6e747261637420697320616c72656160448201526d191e481a5b9a5d1a585b1a5e995960921b606482015260840160405180910390fd5b6000805460ff191660011790558015620000f3576000805461ff0019166101001790555b80156200013a576000805461ff0019169055604051600181527f7f26b83ff96e1f2b6a682f133852f6798a09c465da95921460cefb38474024989060200160405180910390a15b5062000150565b6001600160a01b03163b151590565b608051611be962000188600039600081816104bc015281816104fc0152818161059c015281816105dc0152610aee0152611be96000f3fe6080604052600436106100e85760003560e01c806354fd4d501161008a578063b9db102a11610059578063b9db102a1461025d578063c810b7fe14610293578063dffeadd0146102ab578063ef78d4fd146102e357600080fd5b806354fd4d50146101b5578063630eb8ab146101e957806371ca337d1461021d57806391163fec1461023d57600080fd5b80634f1ef286116100c65780634f1ef286146101585780634f533b231461016b5780635220f5101461018b57806352d1902d146101a057600080fd5b80632212965c146100ed5780632b8869fb146101165780633659cfe614610138575b600080fd5b3480156100f957600080fd5b5061010360ca5481565b6040519081526020015b60405180910390f35b34801561012257600080fd5b50610136610131366004611658565b610309565b005b34801561014457600080fd5b50610136610153366004611688565b6104b1565b6101366101663660046116bb565b610591565b34801561017757600080fd5b50610136610186366004611796565b610662565b34801561019757600080fd5b506101366107e3565b3480156101ac57600080fd5b50610103610ae1565b3480156101c157600080fd5b5060408051808201825260058152640312e322e360dc1b6020820152905161010d91906117dd565b3480156101f557600080fd5b50610205670de0b6b3a764000081565b6040516001600160c01b03909116815260200161010d565b34801561022957600080fd5b5060c954610205906001600160c01b031681565b34801561024957600080fd5b50610136610258366004611810565b610b94565b34801561026957600080fd5b5060cb5461027c9065ffffffffffff1681565b60405165ffffffffffff909116815260200161010d565b34801561029f57600080fd5b5061027c6301e1338081565b3480156102b757600080fd5b506097546102cb906001600160a01b031681565b6040516001600160a01b03909116815260200161010d565b3480156102ef57600080fd5b5060c95461027c90600160c01b900465ffffffffffff1681565b60975460408051808201909152600581526427aba722a960d91b60208201526001600160a01b03909116906391d148549061034390611855565b336040516001600160e01b031960e085901b16815260048101929092526001600160a01b0316602482015260440160206040518083038186803b15801561038957600080fd5b505afa15801561039d573d6000803e3d6000fd5b505050506040513d601f19601f820116820180604052508101906103c1919061187c565b6103e65760405162461bcd60e51b81526004016103dd9061189e565b60405180910390fd5b60008165ffffffffffff1611801561040a57506301e1338065ffffffffffff821611155b6104475760405162461bcd60e51b815260206004820152600e60248201526d1a5b9d985b1a59081c195c9a5bd960921b60448201526064016103dd565b60c95460405165ffffffffffff80841692600160c01b900416907fbe247d2a99b68d117449399fce980543968aadb8ebfc20d43fed0b4a9529dc7b90600090a360c9805465ffffffffffff909216600160c01b0265ffffffffffff60c01b19909216919091179055565b306001600160a01b037f00000000000000000000000000000000000000000000000000000000000000001614156104fa5760405162461bcd60e51b81526004016103dd906118c7565b7f00000000000000000000000000000000000000000000000000000000000000006001600160a01b0316610543600080516020611b6d833981519152546001600160a01b031690565b6001600160a01b0316146105695760405162461bcd60e51b81526004016103dd90611913565b61057281610dfd565b6040805160008082526020820190925261058e91839190610ed1565b50565b306001600160a01b037f00000000000000000000000000000000000000000000000000000000000000001614156105da5760405162461bcd60e51b81526004016103dd906118c7565b7f00000000000000000000000000000000000000000000000000000000000000006001600160a01b0316610623600080516020611b6d833981519152546001600160a01b031690565b6001600160a01b0316146106495760405162461bcd60e51b81526004016103dd90611913565b61065282610dfd565b61065e82826001610ed1565b5050565b60975460408051808201909152600581526427aba722a960d91b60208201526001600160a01b03909116906391d148549061069c90611855565b336040516001600160e01b031960e085901b16815260048101929092526001600160a01b0316602482015260440160206040518083038186803b1580156106e257600080fd5b505afa1580156106f6573d6000803e3d6000fd5b505050506040513d601f19601f8201168201806040525081019061071a919061187c565b6107365760405162461bcd60e51b81526004016103dd9061189e565b670de0b6b3a76400006001600160c01b03821611156107875760405162461bcd60e51b815260206004820152600d60248201526c696e76616c696420726174696f60981b60448201526064016103dd565b60c9546040516001600160c01b038084169216907fe4370d9c0bc402ac3265a919b985d9e114b75512ced35b436883c18c84284ccb90600090a360c980546001600160c01b0319166001600160c01b0392909216919091179055565b609760009054906101000a90046001600160a01b03166001600160a01b031663f17063756040518163ffffffff1660e01b815260040160206040518083038186803b15801561083157600080fd5b505afa158015610845573d6000803e3d6000fd5b505050506040513d601f19601f82011682018060405250810190610869919061187c565b156108a95760405162461bcd60e51b815260206004820152601060248201526f3830bab9b2b21037b910333937bd32b760811b60448201526064016103dd565b60c95460cb546108cb9165ffffffffffff600160c01b90910481169116611975565b67ffffffffffffffff164265ffffffffffff1610156108e657565b60c95460cb5460009165ffffffffffff600160c01b90910481169161090c9116426119a1565b61091691906119ce565b60c9549091506000906109639061095490849061094590670de0b6b3a7640000906001600160c01b0316611050565b6001600160c01b031690611065565b670de0b6b3a764000090611050565b9050600061098560ca54836001600160c01b03166111e690919063ffffffff16565b60c9549091506109a490600160c01b900465ffffffffffff16846119f3565b60cb80546000906109be90849065ffffffffffff16611a21565b825465ffffffffffff9182166101009390930a92830291909202199091161790555060cb546040516370a0823160e01b815230600482015282916001600160a01b03600160301b90910416906370a082319060240160206040518083038186803b158015610a2b57600080fd5b505afa158015610a3f573d6000803e3d6000fd5b505050506040513d601f19601f82011682018060405250810190610a639190611a42565b610a6d91906119a1565b60ca558015610adb5760cb54604051638c83ed3360e01b815260048101839052600160301b9091046001600160a01b031690638c83ed3390602401600060405180830381600087803b158015610ac257600080fd5b505af1158015610ad6573d6000803e3d6000fd5b505050505b5050505b565b6000306001600160a01b037f00000000000000000000000000000000000000000000000000000000000000001614610b815760405162461bcd60e51b815260206004820152603860248201527f555550535570677261646561626c653a206d757374206e6f742062652063616c60448201527f6c6564207468726f7567682064656c656761746563616c6c000000000000000060648201526084016103dd565b50600080516020611b6d83398151915290565b600054610100900460ff1615808015610bb45750600054600160ff909116105b80610bce5750303b158015610bce575060005460ff166001145b610c315760405162461bcd60e51b815260206004820152602e60248201527f496e697469616c697a61626c653a20636f6e747261637420697320616c72656160448201526d191e481a5b9a5d1a585b1a5e995960921b60648201526084016103dd565b6000805460ff191660011790558015610c54576000805461ff0019166101001790555b610c5d84611204565b836001600160a01b03166340c65f726040518163ffffffff1660e01b815260040160206040518083038186803b158015610c9657600080fd5b505afa158015610caa573d6000803e3d6000fd5b505050506040513d601f19601f82011682018060405250810190610cce9190611a5b565b60cb60066101000a8154816001600160a01b0302191690836001600160a01b03160217905550610cfd83610309565b610d0682610662565b60cb805465ffffffffffff19164265ffffffffffff1617908190556040516370a0823160e01b8152306004820152600160301b9091046001600160a01b0316906370a082319060240160206040518083038186803b158015610d6757600080fd5b505afa158015610d7b573d6000803e3d6000fd5b505050506040513d601f19601f82011682018060405250810190610d9f9190611a42565b60ca558015610de8576000805461ff0019169055604051600181527f7f26b83ff96e1f2b6a682f133852f6798a09c465da95921460cefb38474024989060200160405180910390a15b50505050565b6001600160a01b03163b151590565b60975460408051808201909152600581526427aba722a960d91b60208201526001600160a01b03909116906391d1485490610e3790611855565b336040516001600160e01b031960e085901b16815260048101929092526001600160a01b0316602482015260440160206040518083038186803b158015610e7d57600080fd5b505afa158015610e91573d6000803e3d6000fd5b505050506040513d601f19601f82011682018060405250810190610eb5919061187c565b61058e5760405162461bcd60e51b81526004016103dd9061189e565b7f4910fdfa16fed3260ed0e7147f7cc6da11a60208b5b9406d12a635614ffd91435460ff1615610f0957610f04836112a2565b610adb565b826001600160a01b03166352d1902d6040518163ffffffff1660e01b815260040160206040518083038186803b158015610f4257600080fd5b505afa925050508015610f72575060408051601f3d908101601f19168201909252610f6f91810190611a42565b60015b610fd55760405162461bcd60e51b815260206004820152602e60248201527f45524331393637557067726164653a206e657720696d706c656d656e7461746960448201526d6f6e206973206e6f74205555505360901b60648201526084016103dd565b600080516020611b6d83398151915281146110445760405162461bcd60e51b815260206004820152602960248201527f45524331393637557067726164653a20756e737570706f727465642070726f786044820152681a58589b195555525160ba1b60648201526084016103dd565b50610adb83838361133e565b600061105c8284611a78565b90505b92915050565b6000670de0b6b3a76400006001600160c01b038416111561108557600080fd5b8165ffffffffffff166001141561109d57508161105f565b6001600160c01b038316670de0b6b3a764000014806110c2575065ffffffffffff8216155b156110d65750670de0b6b3a764000061105f565b60006110f3670de0b6b3a76400006001600160c01b038616611aa0565b90506ec097ce7bc90715b34b9f10000000005b60018085161415611156576ec097ce7bc90715b34b9f100000000061112c600282611abf565b6001600160801b031661113f8484611aa0565b6111499190611ad9565b6111539190611af1565b90505b60018465ffffffffffff161161116b576111c3565b60019390931c657fffffffffff16926ec097ce7bc90715b34b9f1000000000611195600282611abf565b6001600160801b03166111a88480611aa0565b6111b29190611ad9565b6111bc9190611af1565b9150611106565b6111dd6111d8670de0b6b3a764000083611af1565b611363565b95945050505050565b600061105c6001600160c01b03841683670de0b6b3a7640000611391565b600054610100900460ff1661122b5760405162461bcd60e51b81526004016103dd90611b05565b6001600160a01b0381166112785760405162461bcd60e51b81526020600482015260146024820152736d61696e206973207a65726f206164647265737360601b60448201526064016103dd565b611280611474565b609780546001600160a01b0319166001600160a01b0392909216919091179055565b6001600160a01b0381163b61130f5760405162461bcd60e51b815260206004820152602d60248201527f455243313936373a206e657720696d706c656d656e746174696f6e206973206e60448201526c1bdd08184818dbdb9d1c9858dd609a1b60648201526084016103dd565b600080516020611b6d83398151915280546001600160a01b0319166001600160a01b0392909216919091179055565b6113478361149b565b6000825111806113545750805b15610adb57610de883836114db565b60006001600160c01b0382111561138d5760405163f44398f560e01b815260040160405180910390fd5b5090565b60008060006113a086866115c6565b915091508382106113c45760405163f44398f560e01b815260040160405180910390fd5b600084806113d4576113d46119b8565b8688099050818111156113e8576001830392505b908190039060008590038516808681611403576114036119b8565b049550808381611415576114156119b8565b04925080816000038161142a5761142a6119b8565b046001019390930291909101600285810380870282030280870282030280870282030280870282030280870282030280870282030295860290039094029390930295945050505050565b600054610100900460ff16610adf5760405162461bcd60e51b81526004016103dd90611b05565b6114a4816112a2565b6040516001600160a01b038216907fbc7cd75a20ee27fd9adebab32041f755214dbc6bffa90cc0225b39da2e5c2d3b90600090a250565b60606001600160a01b0383163b6115435760405162461bcd60e51b815260206004820152602660248201527f416464726573733a2064656c65676174652063616c6c20746f206e6f6e2d636f6044820152651b9d1c9858dd60d21b60648201526084016103dd565b600080846001600160a01b03168460405161155e9190611b50565b600060405180830381855af49150503d8060008114611599576040519150601f19603f3d011682016040523d82523d6000602084013e61159e565b606091505b50915091506111dd8282604051806060016040528060278152602001611b8d602791396115f3565b60008080600019848609905083850291508181039250818110156115eb576001830392505b509250929050565b6060831561160257508161160c565b61160c8383611613565b9392505050565b8151156116235781518083602001fd5b8060405162461bcd60e51b81526004016103dd91906117dd565b803565ffffffffffff8116811461165357600080fd5b919050565b60006020828403121561166a57600080fd5b61105c8261163d565b6001600160a01b038116811461058e57600080fd5b60006020828403121561169a57600080fd5b813561160c81611673565b634e487b7160e01b600052604160045260246000fd5b600080604083850312156116ce57600080fd5b82356116d981611673565b9150602083013567ffffffffffffffff808211156116f657600080fd5b818501915085601f83011261170a57600080fd5b81358181111561171c5761171c6116a5565b604051601f8201601f19908116603f01168101908382118183101715611744576117446116a5565b8160405282815288602084870101111561175d57600080fd5b8260208601602083013760006020848301015280955050505050509250929050565b80356001600160c01b038116811461165357600080fd5b6000602082840312156117a857600080fd5b61105c8261177f565b60005b838110156117cc5781810151838201526020016117b4565b83811115610de85750506000910152565b60208152600082518060208401526117fc8160408501602087016117b1565b601f01601f19169190910160400192915050565b60008060006060848603121561182557600080fd5b833561183081611673565b925061183e6020850161163d565b915061184c6040850161177f565b90509250925092565b80516020808301519190811015611876576000198160200360031b1b821691505b50919050565b60006020828403121561188e57600080fd5b8151801515811461160c57600080fd5b6020808252600f908201526e676f7665726e616e6365206f6e6c7960881b604082015260600190565b6020808252602c908201527f46756e6374696f6e206d7573742062652063616c6c6564207468726f7567682060408201526b19195b1959d85d1958d85b1b60a21b606082015260800190565b6020808252602c908201527f46756e6374696f6e206d7573742062652063616c6c6564207468726f7567682060408201526b6163746976652070726f787960a01b606082015260800190565b634e487b7160e01b600052601160045260246000fd5b600067ffffffffffffffff8083168185168083038211156119985761199861195f565b01949350505050565b6000828210156119b3576119b361195f565b500390565b634e487b7160e01b600052601260045260246000fd5b600065ffffffffffff808416806119e7576119e76119b8565b92169190910492915050565b600065ffffffffffff80831681851681830481118215151615611a1857611a1861195f565b02949350505050565b600065ffffffffffff8083168185168083038211156119985761199861195f565b600060208284031215611a5457600080fd5b5051919050565b600060208284031215611a6d57600080fd5b815161160c81611673565b60006001600160c01b0383811690831681811015611a9857611a9861195f565b039392505050565b6000816000190483118215151615611aba57611aba61195f565b500290565b60006001600160801b03808416806119e7576119e76119b8565b60008219821115611aec57611aec61195f565b500190565b600082611b0057611b006119b8565b500490565b6020808252602b908201527f496e697469616c697a61626c653a20636f6e7472616374206973206e6f74206960408201526a6e697469616c697a696e6760a81b606082015260800190565b60008251611b628184602087016117b1565b919091019291505056fe360894a13ba1a3210667c828492db98dca3e2076cc3735a920a3ca505d382bbc416464726573733a206c6f772d6c6576656c2064656c65676174652063616c6c206661696c6564a264697066735822122007261ba3ddc2e9209305dc9af6d4b2c878f843bdedf4754a5c2bdcfecff9574f64736f6c63430008090033",
  "linkReferences": {},
  "deployedLinkReferences": {}
}