{
  "_format": "hh-sol-artifact-1",
  "contractName": "StaticATokenErrors",
  "sourceName": "contracts/reserve/plugins/aave/StaticATokenErrors.sol",
  "abi": [
    {
      "inputs": [],
      "name": "INVALID_CLAIMER",
      "outputs": [
        {
          "internalType": "string",
          "name": "",
          "type": "string"
        }
      ],
      "stateMutability": "view",
      "type": "function"
    },
    {
      "inputs": [],
      "name": "INVALID_DEPOSITOR",
      "outputs": [
        {
          "internalType": "string",
          "name": "",
          "type": "string"
        }
      ],
      "stateMutability": "view",
      "type": "function"
    },
    {
      "inputs": [],
      "name": "INVALID_EXPIRATION",
      "outputs": [
        {
          "internalType": "string",
          "name": "",
          "type": "string"
        }
      ],
      "stateMutability": "view",
      "type": "function"
    },
    {
      "inputs": [],
      "name": "INVALID_OWNER",
      "outputs": [
        {
          "internalType": "string",
          "name": "",
          "type": "string"
        }
      ],
      "stateMutability": "view",
      "type": "function"
    },
    {
      "inputs": [],
      "name": "INVALID_RECIPIENT",
      "outputs": [
        {
          "internalType": "string",
          "name": "",
          "type": "string"
        }
      ],
      "stateMutability": "view",
      "type": "function"
    },
    {
      "inputs": [],
      "name": "INVALID_SIGNATURE",
      "outputs": [
        {
          "internalType": "string",
          "name": "",
          "type": "string"
        }
      ],
      "stateMutability": "view",
      "type": "function"
    },
    {
      "inputs": [],
      "name": "ONLY_ONE_AMOUNT_FORMAT_ALLOWED",
      "outputs": [
        {
          "internalType": "string",
          "name": "",
          "type": "string"
        }
      ],
      "stateMutability": "view",
      "type": "function"
    }
  ],
  "bytecode": "0x6105e6610026600b82828239805160001a60731461001957fe5b30600052607381538281f3fe73000000000000000000000000000000000000000030146080604052600436106100875760003560e01c80639d2d2731116100655780639d2d273114610215578063a3402a3814610298578063c08a11461461031b578063f74366121461039e57610087565b806310325cb31461008c57806318ce14851461010f578063521005a614610192575b600080fd5b610094610421565b6040518080602001828103825283818151815260200191508051906020019080838360005b838110156100d45780820151818401526020810190506100b9565b50505050905090810190601f1680156101015780820380516001836020036101000a031916815260200191505b509250505060405180910390f35b61011761045a565b6040518080602001828103825283818151815260200191508051906020019080838360005b8381101561015757808201518184015260208101905061013c565b50505050905090810190601f1680156101845780820380516001836020036101000a031916815260200191505b509250505060405180910390f35b61019a610493565b6040518080602001828103825283818151815260200191508051906020019080838360005b838110156101da5780820151818401526020810190506101bf565b50505050905090810190601f1680156102075780820380516001836020036101000a031916815260200191505b509250505060405180910390f35b61021d6104cc565b6040518080602001828103825283818151815260200191508051906020019080838360005b8381101561025d578082015181840152602081019050610242565b50505050905090810190601f16801561028a5780820380516001836020036101000a031916815260200191505b509250505060405180910390f35b6102a0610505565b6040518080602001828103825283818151815260200191508051906020019080838360005b838110156102e05780820151818401526020810190506102c5565b50505050905090810190601f16801561030d5780820380516001836020036101000a031916815260200191505b509250505060405180910390f35b61032361053e565b6040518080602001828103825283818151815260200191508051906020019080838360005b83811015610363578082015181840152602081019050610348565b50505050905090810190601f1680156103905780820380516001836020036101000a031916815260200191505b509250505060405180910390f35b6103a6610577565b6040518080602001828103825283818151815260200191508051906020019080838360005b838110156103e65780820151818401526020810190506103cb565b50505050905090810190601f1680156104135780820380516001836020036101000a031916815260200191505b509250505060405180910390f35b6040518060400160405280600181526020017f340000000000000000000000000000000000000000000000000000000000000081525081565b6040518060400160405280600181526020017f360000000000000000000000000000000000000000000000000000000000000081525081565b6040518060400160405280600181526020017f350000000000000000000000000000000000000000000000000000000000000081525081565b6040518060400160405280600181526020017f310000000000000000000000000000000000000000000000000000000000000081525081565b6040518060400160405280600181526020017f330000000000000000000000000000000000000000000000000000000000000081525081565b6040518060400160405280600181526020017f320000000000000000000000000000000000000000000000000000000000000081525081565b6040518060400160405280600181526020017f37000000000000000000000000000000000000000000000000000000000000008152508156fea26469706673582212208afbc7a7ebc1e766148d5030b7f65f8ab0a13c6cfbd11bd133a0febfbcffff2a64736f6c634300060c0033",
  "linkReferences": {},
  "deployedLinkReferences": {}
}