{
  "_format": "hh-sol-artifact-1",
  "contractName": "GnosisTrade",
  "sourceName": "contracts/reserve/plugins/trading/GnosisTrade.sol",
  "abi": [
    {
      "inputs": [],
      "name": "UIntOutOfBounds",
      "type": "error"
    },
    {
      "inputs": [],
      "name": "DEFAULT_MIN_BID",
      "outputs": [
        {
          "internalType": "uint192",
          "name": "",
          "type": "uint192"
        }
      ],
      "stateMutability": "view",
      "type": "function"
    },
    {
      "inputs": [],
      "name": "FEE_DENOMINATOR",
      "outputs": [
        {
          "internalType": "uint256",
          "name": "",
          "type": "uint256"
        }
      ],
      "stateMutability": "view",
      "type": "function"
    },
    {
      "inputs": [],
      "name": "MAX_ORDERS",
      "outputs": [
        {
          "internalType": "uint96",
          "name": "",
          "type": "uint96"
        }
      ],
      "stateMutability": "view",
      "type": "function"
    },
    {
      "inputs": [],
      "name": "auctionId",
      "outputs": [
        {
          "internalType": "uint256",
          "name": "",
          "type": "uint256"
        }
      ],
      "stateMutability": "view",
      "type": "function"
    },
    {
      "inputs": [],
      "name": "broker",
      "outputs": [
        {
          "internalType": "contract IBroker",
          "name": "",
          "type": "address"
        }
      ],
      "stateMutability": "view",
      "type": "function"
    },
    {
      "inputs": [],
      "name": "buy",
      "outputs": [
        {
          "internalType": "contract IERC20Metadata",
          "name": "",
          "type": "address"
        }
      ],
      "stateMutability": "view",
      "type": "function"
    },
    {
      "inputs": [],
      "name": "canSettle",
      "outputs": [
        {
          "internalType": "bool",
          "name": "",
          "type": "bool"
        }
      ],
      "stateMutability": "view",
      "type": "function"
    },
    {
      "inputs": [],
      "name": "endTime",
      "outputs": [
        {
          "internalType": "uint48",
          "name": "",
          "type": "uint48"
        }
      ],
      "stateMutability": "view",
      "type": "function"
    },
    {
      "inputs": [],
      "name": "gnosis",
      "outputs": [
        {
          "internalType": "contract IGnosis",
          "name": "",
          "type": "address"
        }
      ],
      "stateMutability": "view",
      "type": "function"
    },
    {
      "inputs": [
        {
          "internalType": "contract IBroker",
          "name": "broker_",
          "type": "address"
        },
        {
          "internalType": "address",
          "name": "origin_",
          "type": "address"
        },
        {
          "internalType": "contract IGnosis",
          "name": "gnosis_",
          "type": "address"
        },
        {
          "internalType": "uint48",
          "name": "auctionLength",
          "type": "uint48"
        },
        {
          "components": [
            {
              "internalType": "contract IAsset",
              "name": "sell",
              "type": "address"
            },
            {
              "internalType": "contract IAsset",
              "name": "buy",
              "type": "address"
            },
            {
              "internalType": "uint256",
              "name": "sellAmount",
              "type": "uint256"
            },
            {
              "internalType": "uint256",
              "name": "minBuyAmount",
              "type": "uint256"
            }
          ],
          "internalType": "struct TradeRequest",
          "name": "req",
          "type": "tuple"
        }
      ],
      "name": "init",
      "outputs": [],
      "stateMutability": "nonpayable",
      "type": "function"
    },
    {
      "inputs": [],
      "name": "initBal",
      "outputs": [
        {
          "internalType": "uint256",
          "name": "",
          "type": "uint256"
        }
      ],
      "stateMutability": "view",
      "type": "function"
    },
    {
      "inputs": [],
      "name": "origin",
      "outputs": [
        {
          "internalType": "address",
          "name": "",
          "type": "address"
        }
      ],
      "stateMutability": "view",
      "type": "function"
    },
    {
      "inputs": [],
      "name": "sell",
      "outputs": [
        {
          "internalType": "contract IERC20Metadata",
          "name": "",
          "type": "address"
        }
      ],
      "stateMutability": "view",
      "type": "function"
    },
    {
      "inputs": [],
      "name": "settle",
      "outputs": [
        {
          "internalType": "uint256",
          "name": "soldAmt",
          "type": "uint256"
        },
        {
          "internalType": "uint256",
          "name": "boughtAmt",
          "type": "uint256"
        }
      ],
      "stateMutability": "nonpayable",
      "type": "function"
    },
    {
      "inputs": [],
      "name": "status",
      "outputs": [
        {
          "internalType": "enum TradeStatus",
          "name": "",
          "type": "uint8"
        }
      ],
      "stateMutability": "view",
      "type": "function"
    },
    {
      "inputs": [
        {
          "internalType": "contract IERC20",
          "name": "erc20",
          "type": "address"
        }
      ],
      "name": "transferToOriginAfterTradeComplete",
      "outputs": [],
      "stateMutability": "nonpayable",
      "type": "function"
    },
    {
      "inputs": [],
      "name": "worstCasePrice",
      "outputs": [
        {
          "internalType": "uint192",
          "name": "",
          "type": "uint192"
        }
      ],
      "stateMutability": "view",
      "type": "function"
    }
  ],
  "bytecode": "0x608060405234801561001057600080fd5b50611ed0806100206000396000f3fe608060405234801561001057600080fd5b506004361061010b5760003560e01c806393254b0e116100a2578063abff011011610071578063abff011014610255578063b909a6e914610268578063d73792a914610282578063e5a1b81a1461028b578063faf7ba6a1461029e57600080fd5b806393254b0e14610204578063938b5f3214610226578063a6f2ae3a14610239578063abdf2f9d1461024c57600080fd5b806326b1988c116100de57806326b1988c146101935780633197cbb6146101b357806345710074146101dc57806376c6f5ec146101ef57600080fd5b806310782f8f1461011057806311da60b41461012c578063200d2ed214610149578063238c8aad14610163575b600080fd5b61011960015481565b6040519081526020015b60405180910390f35b6101346102b6565b60408051928352602083019190915201610123565b6000546101569060ff1681565b60405161012391906117fe565b60005461017b9061010090046001600160a01b031681565b6040516001600160a01b039091168152602001610123565b61019b61077a565b6040516001600160c01b039091168152602001610123565b6007546101c59065ffffffffffff1681565b60405165ffffffffffff9091168152602001610123565b60045461017b906001600160a01b031681565b6102026101fd36600461183b565b610790565b005b61020e620186a081565b6040516001600160601b039091168152602001610123565b60035461017b906001600160a01b031681565b60055461017b906001600160a01b031681565b61011960065481565b60025461017b906001600160a01b031681565b60075461019b90600160301b90046001600160c01b031681565b6101196103e881565b610202610299366004611858565b61088d565b6102a661103d565b6040519015158152602001610123565b600080600160028160005460ff1660038111156102d5576102d56117e8565b1461031d5760405162461bcd60e51b8152602060048201526013602482015272496e76616c696420747261646520737461746560681b60448201526064015b60405180910390fd5b60008054600360ff199091168117909155546001600160a01b0316331461037f5760405162461bcd60e51b81526020600482015260166024820152756f6e6c79206f726967696e2063616e20736574746c6560501b6044820152606401610314565b610387611076565b61042657600054600154604051632e99361160e01b815260048101919091526101009091046001600160a01b031690632e99361190602401602060405180830381600087803b1580156103d957600080fd5b505af11580156103ed573d6000803e3d6000fd5b505050506040513d601f19601f8201168201806040525081019061041191906118dd565b5061041a611076565b610426576104266118f6565b600480546040516370a0823160e01b815230928101929092526000916001600160a01b03909116906370a082319060240160206040518083038186803b15801561046f57600080fd5b505afa158015610483573d6000803e3d6000fd5b505050506040513d601f19601f820116820180604052508101906104a791906118dd565b6005546040516370a0823160e01b81523060048201529192506001600160a01b0316906370a082319060240160206040518083038186803b1580156104eb57600080fd5b505afa1580156104ff573d6000803e3d6000fd5b505050506040513d601f19601f8201168201806040525081019061052391906118dd565b9350801561054857600354600454610548916001600160a01b0391821691168361110a565b831561056b5760035460055461056b916001600160a01b0391821691168661110a565b60065481101561072957806006546105839190611922565b9450600061059c610595600188611922565b6001611172565b9050600061069c61063b83600460009054906101000a90046001600160a01b03166001600160a01b031663313ce5676040518163ffffffff1660e01b815260040160206040518083038186803b1580156105f557600080fd5b505afa158015610609573d6000803e3d6000fd5b505050506040513d601f19601f8201168201806040525081019061062d9190611939565b6106369061195c565b61118c565b61068d88600560009054906101000a90046001600160a01b03166001600160a01b031663313ce5676040518163ffffffff1660e01b815260040160206040518083038186803b1580156105f557600080fd5b6001600160c01b03169061119a565b600754909150600160301b90046001600160c01b03908116908216101561072657600260009054906101000a90046001600160a01b03166001600160a01b03166393574b1e6040518163ffffffff1660e01b8152600401600060405180830381600087803b15801561070d57600080fd5b505af1158015610721573d6000803e3d6000fd5b505050505b50505b50600360005460ff166003811115610743576107436117e8565b14610750576107506118f6565b6000805482919060ff1916600183600381111561076f5761076f6117e8565b021790555050509091565b61078d6064670de0b6b3a7640000611992565b81565b600260005460ff1660038111156107a9576107a96117e8565b146107f65760405162461bcd60e51b815260206004820152601a60248201527f6f6e6c7920616674657220747261646520697320636c6f7365640000000000006044820152606401610314565b6003546040516370a0823160e01b815230600482015261088a916001600160a01b0390811691908416906370a082319060240160206040518083038186803b15801561084157600080fd5b505afa158015610855573d6000803e3d6000fd5b505050506040513d601f19601f8201168201806040525081019061087991906118dd565b6001600160a01b038416919061110a565b50565b600060018160005460ff1660038111156108a9576108a96117e8565b146108ec5760405162461bcd60e51b8152602060048201526013602482015272496e76616c696420747261646520737461746560681b6044820152606401610314565b6000805460ff191660031790556001600160601b036040840135111561094b5760405162461bcd60e51b815260206004820152601460248201527373656c6c416d6f756e7420746f6f206c6172676560601b6044820152606401610314565b6001600160601b036060840135111561099f5760405162461bcd60e51b81526020600482015260166024820152756d696e427579416d6f756e7420746f6f206c6172676560501b6044820152606401610314565b6109ac602084018461183b565b6001600160a01b031663785e9e866040518163ffffffff1660e01b815260040160206040518083038186803b1580156109e457600080fd5b505afa1580156109f8573d6000803e3d6000fd5b505050506040513d601f19601f82011682018060405250810190610a1c91906119b8565b600480546001600160a01b0319166001600160a01b0392909216919091179055610a4c604084016020850161183b565b6001600160a01b031663785e9e866040518163ffffffff1660e01b815260040160206040518083038186803b158015610a8457600080fd5b505afa158015610a98573d6000803e3d6000fd5b505050506040513d601f19601f82011682018060405250810190610abc91906119b8565b600580546001600160a01b0319166001600160a01b03928316179055600480546040516370a0823160e01b81523092810192909252909116906370a082319060240160206040518083038186803b158015610b1657600080fd5b505afa158015610b2a573d6000803e3d6000fd5b505050506040513d601f19601f82011682018060405250810190610b4e91906118dd565b60068190556001600160601b031015610b9d5760405162461bcd60e51b8152602060048201526011602482015270696e697442616c20746f6f206c6172676560781b6044820152606401610314565b82604001356006541015610be45760405162461bcd60e51b815260206004820152600e60248201526d756e66756e64656420747261646560901b6044820152606401610314565b6001600160a01b038616610bfa57610bfa6118f6565b600280546001600160a01b03808a166001600160a01b0319928316179092556003805489841692169190911790556000805491871661010002610100600160a81b0319909216919091179055610c5084426119d5565b6007805465ffffffffffff191665ffffffffffff92909216919091179055600480546040805163313ce56760e01b81528151610d1094610cba9493890135936001600160a01b03169263313ce5679281830192602092829003018186803b1580156105f557600080fd5b61068d8560600135600560009054906101000a90046001600160a01b03166001600160a01b031663313ce5676040518163ffffffff1660e01b815260040160206040518083038186803b1580156105f557600080fd5b600780546001600160c01b0392909216600160301b026601000000000000600160f01b03199092169190911790556000610dee610d536103e860408701356119ff565b600060019054906101000a90046001600160a01b03166001600160a01b031663e86dea4a6040518163ffffffff1660e01b8152600401602060405180830381600087803b158015610da357600080fd5b505af1158015610db7573d6000803e3d6000fd5b505050506040513d601f19601f82011682018060405250810190610ddb91906118dd565b610de7906103e8611a1e565b60006111a8565b90506000610e0160018660600135611172565b90506000610ece610e15620186a084611a36565b6001600160601b0316610ec9600560009054906101000a90046001600160a01b03166001600160a01b031663313ce5676040518163ffffffff1660e01b815260040160206040518083038186803b158015610e6f57600080fd5b505afa158015610e83573d6000803e3d6000fd5b505050506040513d601f19601f82011682018060405250810190610ea79190611939565b610eba6064670de0b6b3a7640000611992565b6001600160c01b031690611256565b611172565b905080610ed9575060015b60008054600454610efe926001600160a01b0391821692610100900490911690611264565b600054600654600454610f26926001600160a01b039182169261010090910490911690611264565b60008054600454600554600754604080518681526020810191829052630a4cd6c960e01b9091526001600160a01b03610100909504851695630a4cd6c995610f8b95811694169265ffffffffffff169182918b918b918b918190819060248101611aac565b602060405180830381600087803b158015610fa557600080fd5b505af1158015610fb9573d6000803e3d6000fd5b505050506040513d601f19601f82011682018060405250810190610fdd91906118dd565b6001555060039150610fec9050565b60005460ff166003811115611003576110036117e8565b14611010576110106118f6565b6000805482919060ff1916600183600381111561102f5761102f6117e8565b021790555050505050505050565b6000600160005460ff166003811115611058576110586117e8565b14801561107157506007544265ffffffffffff90911611155b905090565b60008054600154604051632afe316960e11b81526004810191909152829161010090046001600160a01b0316906355fc62d2906024016101c06040518083038186803b1580156110c557600080fd5b505afa1580156110d9573d6000803e3d6000fd5b505050506040513d601f19601f820116820180604052508101906110fd9190611ba8565b6101000151151592915050565b6040516001600160a01b03831660248201526044810182905261116d90849063a9059cbb60e01b906064015b60408051601f198184030181529190526020810180516001600160e01b03166001600160e01b031990931692909217909152611388565b505050565b60008183116111815781611183565b825b90505b92915050565b60006111838383600061145a565b60006111838383600061152b565b6000806111b58486611c7c565b905060008360028111156111cb576111cb6117e8565b14156111d857905061124f565b60018360028111156111ec576111ec6117e8565b141561122c5760026111ff600186611922565b6112099190611c7c565b6112138587611c90565b1115611227578061122381611ca4565b9150505b61124c565b60006112388587611c90565b111561124c578061124881611ca4565b9150505b90505b9392505050565b600061118383836000611563565b8015806112ed5750604051636eb1769f60e11b81523060048201526001600160a01b03838116602483015284169063dd62ed3e9060440160206040518083038186803b1580156112b357600080fd5b505afa1580156112c7573d6000803e3d6000fd5b505050506040513d601f19601f820116820180604052508101906112eb91906118dd565b155b6113585760405162461bcd60e51b815260206004820152603660248201527f5361666545524332303a20617070726f76652066726f6d206e6f6e2d7a65726f60448201527520746f206e6f6e2d7a65726f20616c6c6f77616e636560501b6064820152608401610314565b6040516001600160a01b03831660248201526044810182905261116d90849063095ea7b360e01b90606401611136565b60006113dd826040518060400160405280602081526020017f5361666545524332303a206c6f772d6c6576656c2063616c6c206661696c6564815250856001600160a01b031661161b9092919063ffffffff16565b80519091501561116d57808060200190518101906113fb9190611cbf565b61116d5760405162461bcd60e51b815260206004820152602a60248201527f5361666545524332303a204552433230206f7065726174696f6e20646964206e6044820152691bdd081cdd58d8d9595960b21b6064820152608401610314565b6000836114695750600061124f565b605f198360000b136114a35760025b82600281111561148a5761148a6117e8565b14611496576000611499565b60015b60ff16905061124f565b8260000b6028136114c75760405163f44398f560e01b815260040160405180910390fd5b6114d2601284611cda565b925060006114e28460000b61162a565b6114ed90600a611e01565b90506000808560000b121561150c576115078683866111a8565b611516565b61151682876119ff565b905061152181611642565b9695505050505050565b600061124c61155e61154e670de0b6b3a76400006001600160c01b0388166119ff565b856001600160c01b0316856111a8565b611642565b60006001600160c01b03841661157b5750600061124f565b6029198360000b1361158e576002611478565b8260000b6060136115b25760405163f44398f560e01b815260040160405180910390fd5b6115bd601284611e0d565b925060006115cd8460000b61162a565b6115d890600a611e01565b905060008460000b12156115ff576115fa856001600160c01b031682856111a8565b611612565b611612816001600160c01b0387166119ff565b95945050505050565b606061124c8484600085611670565b60008082126116395781611186565b61118682611e4e565b60006001600160c01b0382111561166c5760405163f44398f560e01b815260040160405180910390fd5b5090565b6060824710156116d15760405162461bcd60e51b815260206004820152602660248201527f416464726573733a20696e73756666696369656e742062616c616e636520666f6044820152651c8818d85b1b60d21b6064820152608401610314565b600080866001600160a01b031685876040516116ed9190611e6b565b60006040518083038185875af1925050503d806000811461172a576040519150601f19603f3d011682016040523d82523d6000602084013e61172f565b606091505b50915091506117408783838761174d565b925050505b949350505050565b606083156117b95782516117b2576001600160a01b0385163b6117b25760405162461bcd60e51b815260206004820152601d60248201527f416464726573733a2063616c6c20746f206e6f6e2d636f6e74726163740000006044820152606401610314565b5081611745565b61174583838151156117ce5781518083602001fd5b8060405162461bcd60e51b81526004016103149190611e87565b634e487b7160e01b600052602160045260246000fd5b602081016004831061182057634e487b7160e01b600052602160045260246000fd5b91905290565b6001600160a01b038116811461088a57600080fd5b60006020828403121561184d57600080fd5b813561124f81611826565b600080600080600085870361010081121561187257600080fd5b863561187d81611826565b9550602087013561188d81611826565b9450604087013561189d81611826565b9350606087013565ffffffffffff811681146118b857600080fd5b92506080607f19820112156118cc57600080fd5b506080860190509295509295909350565b6000602082840312156118ef57600080fd5b5051919050565b634e487b7160e01b600052600160045260246000fd5b634e487b7160e01b600052601160045260246000fd5b6000828210156119345761193461190c565b500390565b60006020828403121561194b57600080fd5b815160ff8116811461124f57600080fd5b600081810b607f198114156119735761197361190c565b60000392915050565b634e487b7160e01b600052601260045260246000fd5b60006001600160c01b03838116806119ac576119ac61197c565b92169190910492915050565b6000602082840312156119ca57600080fd5b815161124f81611826565b600065ffffffffffff8083168185168083038211156119f6576119f661190c565b01949350505050565b6000816000190483118215151615611a1957611a1961190c565b500290565b60008219821115611a3157611a3161190c565b500190565b60006001600160601b03808416806119ac576119ac61197c565b60005b83811015611a6b578181015183820152602001611a53565b83811115611a7a576000848401525b50505050565b60008151808452611a98816020860160208601611a50565b601f01601f19169290920160200192915050565b6001600160a01b038c811682528b8116602083015265ffffffffffff8b811660408401528a1660608301526001600160601b038981166080840152881660a083015260c0820187905260e0820186905284151561010083015283166101208201526101606101408201819052600090611b2783820185611a80565b9e9d5050505050505050505050505050565b6040516101c0810167ffffffffffffffff81118282101715611b6b57634e487b7160e01b600052604160045260246000fd5b60405290565b8051611b7c81611826565b919050565b80516001600160601b0381168114611b7c57600080fd5b80518015158114611b7c57600080fd5b60006101c08284031215611bbb57600080fd5b611bc3611b39565b611bcc83611b71565b8152611bda60208401611b71565b602082015260408301516040820152606083015160608201526080830151608082015260a083015160a082015260c083015160c082015260e083015160e0820152610100808401518183015250610120611c35818501611b81565b90820152610140611c47848201611b98565b90820152610160611c59848201611b98565b9082015261018083810151908201526101a0928301519281019290925250919050565b600082611c8b57611c8b61197c565b500490565b600082611c9f57611c9f61197c565b500690565b6000600019821415611cb857611cb861190c565b5060010190565b600060208284031215611cd157600080fd5b61118382611b98565b60008160000b8360000b6000821282607f03821381151615611cfe57611cfe61190c565b82607f19038212811615611d1457611d1461190c565b50019392505050565b600181815b80851115611d58578160001904821115611d3e57611d3e61190c565b80851615611d4b57918102915b93841c9390800290611d22565b509250929050565b600082611d6f57506001611186565b81611d7c57506000611186565b8160018114611d925760028114611d9c57611db8565b6001915050611186565b60ff841115611dad57611dad61190c565b50506001821b611186565b5060208310610133831016604e8410600b8410161715611ddb575081810a611186565b611de58383611d1d565b8060001904821115611df957611df961190c565b029392505050565b60006111838383611d60565b600081810b83820b8281128015607f19830184121615611e2f57611e2f61190c565b81607f018313811615611e4457611e4461190c565b5090039392505050565b6000600160ff1b821415611e6457611e6461190c565b5060000390565b60008251611e7d818460208701611a50565b9190910192915050565b6020815260006111836020830184611a8056fea2646970667358221220730909c8af4d003a73bcfaa853b9d2d4a4223ca2f75b6b69a3cc76aca8216af064736f6c63430008090033",
  "linkReferences": {},
  "deployedLinkReferences": {}
}