{
  "_format": "hh-sol-artifact-1",
  "contractName": "DeployerP0",
  "sourceName": "contracts/reserve/p0/Deployer.sol",
  "abi": [
    {
      "inputs": [
        {
          "internalType": "contract IERC20Metadata",
          "name": "rsr_",
          "type": "address"
        },
        {
          "internalType": "contract IGnosis",
          "name": "gnosis_",
          "type": "address"
        },
        {
          "internalType": "contract IAsset",
          "name": "rsrAsset_",
          "type": "address"
        }
      ],
      "stateMutability": "nonpayable",
      "type": "constructor"
    },
    {
      "anonymous": false,
      "inputs": [
        {
          "indexed": true,
          "internalType": "contract IMain",
          "name": "main",
          "type": "address"
        },
        {
          "indexed": true,
          "internalType": "contract IRToken",
          "name": "rToken",
          "type": "address"
        },
        {
          "indexed": false,
          "internalType": "contract IStRSR",
          "name": "stRSR",
          "type": "address"
        },
        {
          "indexed": true,
          "internalType": "address",
          "name": "owner",
          "type": "address"
        },
        {
          "indexed": false,
          "internalType": "string",
          "name": "version",
          "type": "string"
        }
      ],
      "name": "RTokenCreated",
      "type": "event"
    },
    {
      "inputs": [],
      "name": "ENS",
      "outputs": [
        {
          "internalType": "string",
          "name": "",
          "type": "string"
        }
      ],
      "stateMutability": "view",
      "type": "function"
    },
    {
      "inputs": [
        {
          "internalType": "string",
          "name": "name",
          "type": "string"
        },
        {
          "internalType": "string",
          "name": "symbol",
          "type": "string"
        },
        {
          "internalType": "string",
          "name": "mandate",
          "type": "string"
        },
        {
          "internalType": "address",
          "name": "owner",
          "type": "address"
        },
        {
          "components": [
            {
              "components": [
                {
                  "internalType": "uint16",
                  "name": "rTokenDist",
                  "type": "uint16"
                },
                {
                  "internalType": "uint16",
                  "name": "rsrDist",
                  "type": "uint16"
                }
              ],
              "internalType": "struct RevenueShare",
              "name": "dist",
              "type": "tuple"
            },
            {
              "internalType": "uint192",
              "name": "minTradeVolume",
              "type": "uint192"
            },
            {
              "internalType": "uint192",
              "name": "rTokenMaxTradeVolume",
              "type": "uint192"
            },
            {
              "internalType": "uint48",
              "name": "shortFreeze",
              "type": "uint48"
            },
            {
              "internalType": "uint48",
              "name": "longFreeze",
              "type": "uint48"
            },
            {
              "internalType": "uint192",
              "name": "rewardRatio",
              "type": "uint192"
            },
            {
              "internalType": "uint48",
              "name": "rewardPeriod",
              "type": "uint48"
            },
            {
              "internalType": "uint48",
              "name": "unstakingDelay",
              "type": "uint48"
            },
            {
              "internalType": "uint48",
              "name": "tradingDelay",
              "type": "uint48"
            },
            {
              "internalType": "uint48",
              "name": "auctionLength",
              "type": "uint48"
            },
            {
              "internalType": "uint192",
              "name": "backingBuffer",
              "type": "uint192"
            },
            {
              "internalType": "uint192",
              "name": "maxTradeSlippage",
              "type": "uint192"
            },
            {
              "internalType": "uint192",
              "name": "issuanceRate",
              "type": "uint192"
            },
            {
              "internalType": "uint192",
              "name": "scalingRedemptionRate",
              "type": "uint192"
            },
            {
              "internalType": "uint256",
              "name": "redemptionRateFloor",
              "type": "uint256"
            }
          ],
          "internalType": "struct DeploymentParams",
          "name": "params",
          "type": "tuple"
        }
      ],
      "name": "deploy",
      "outputs": [
        {
          "internalType": "address",
          "name": "",
          "type": "address"
        }
      ],
      "stateMutability": "nonpayable",
      "type": "function"
    },
    {
      "inputs": [],
      "name": "gnosis",
      "outputs": [
        {
          "internalType": "contract IGnosis",
          "name": "",
          "type": "address"
        }
      ],
      "stateMutability": "view",
      "type": "function"
    },
    {
      "inputs": [],
      "name": "rsr",
      "outputs": [
        {
          "internalType": "contract IERC20Metadata",
          "name": "",
          "type": "address"
        }
      ],
      "stateMutability": "view",
      "type": "function"
    },
    {
      "inputs": [],
      "name": "rsrAsset",
      "outputs": [
        {
          "internalType": "contract IAsset",
          "name": "",
          "type": "address"
        }
      ],
      "stateMutability": "view",
      "type": "function"
    },
    {
      "inputs": [],
      "name": "version",
      "outputs": [
        {
          "internalType": "string",
          "name": "",
          "type": "string"
        }
      ],
      "stateMutability": "pure",
      "type": "function"
    }
  ],
  "bytecode": "0x60e06040523480156200001157600080fd5b5060405162025eda38038062025eda8339810160408190526200003491620000e4565b6001600160a01b038316158015906200005557506001600160a01b03821615155b80156200006a57506001600160a01b03811615155b620000ad5760405162461bcd60e51b815260206004820152600f60248201526e696e76616c6964206164647265737360881b604482015260640160405180910390fd5b6001600160a01b0392831660805290821660a0521660c05262000138565b6001600160a01b0381168114620000e157600080fd5b50565b600080600060608486031215620000fa57600080fd5b83516200010781620000cb565b60208501519093506200011a81620000cb565b60408501519092506200012d81620000cb565b809150509250925092565b60805160a05160c05162025d5562000185600039600081816101230152610ece01526000818160c00152610b5501526000818161014b0152818161047c015261076d015262025d556000f3fe60806040523480156200001157600080fd5b50600436106200006a5760003560e01c80631d2e2cc4146200006f578063238c8aad14620000ba57806354fd4d5014620000fb578063929832ef146200011d578063c99dc3dd1462000145578063db0a0369146200016d575b600080fd5b620000a2604051806040016040528060138152602001720e4cae6cae4eccae0e4dee8dec6ded85ccae8d606b1b81525081565b604051620000b19190620017d6565b60405180910390f35b620000e27f000000000000000000000000000000000000000000000000000000000000000081565b6040516001600160a01b039091168152602001620000b1565b6040805180820190915260058152640312e322e360dc1b6020820152620000a2565b620000e27f000000000000000000000000000000000000000000000000000000000000000081565b620000e27f000000000000000000000000000000000000000000000000000000000000000081565b620000e26200017e36600462001ae2565b60006001600160a01b03831615801590620001a257506001600160a01b0383163014155b620001e35760405162461bcd60e51b815260206004820152600d60248201526c34b73b30b634b21037bbb732b960991b604482015260640160405180910390fd5b6000604051620001f390620016db565b604051809103906000f08015801562000210573d6000803e3d6000fd5b50905060006040516200022390620016e9565b604051809103906000f08015801562000240573d6000803e3d6000fd5b5090506000604051806101400160405280836001600160a01b031681526020016040516200026e90620016f7565b604051809103906000f0801580156200028b573d6000803e3d6000fd5b506001600160a01b03168152602001604051620002a89062001705565b604051809103906000f080158015620002c5573d6000803e3d6000fd5b506001600160a01b03168152602001604051620002e29062001713565b604051809103906000f080158015620002ff573d6000803e3d6000fd5b506001600160a01b031681526020016040516200031c9062001721565b604051809103906000f08015801562000339573d6000803e3d6000fd5b506001600160a01b0316815260200160405162000356906200172f565b604051809103906000f08015801562000373573d6000803e3d6000fd5b506001600160a01b0316815260200160405162000390906200173d565b604051809103906000f080158015620003ad573d6000803e3d6000fd5b506001600160a01b03168152602001604051620003ca906200174b565b604051809103906000f080158015620003e7573d6000803e3d6000fd5b506001600160a01b03168152602001604051620004049062001759565b604051809103906000f08015801562000421573d6000803e3d6000fd5b506001600160a01b031681526020016040516200043e9062001759565b604051809103906000f0801580156200045b573d6000803e3d6000fd5b506001600160a01b03168152509050826001600160a01b031663992e1d6a827f0000000000000000000000000000000000000000000000000000000000000000886060015189608001516040518563ffffffff1660e01b8152600401620004c6949392919062001bcf565b600060405180830381600087803b158015620004e157600080fd5b505af1158015620004f6573d6000803e3d6000fd5b50505050826001600160a01b031663dc8af5f66040518163ffffffff1660e01b815260040160206040518083038186803b1580156200053457600080fd5b505afa15801562000549573d6000803e3d6000fd5b505050506040513d601f19601f820116820180604052508101906200056f919062001d0a565b610100860151610140870151610160880151602089015160405163bcaeb7b960e01b81526001600160a01b03898116600483015265ffffffffffff90951660248201526001600160c01b039384166044820152918316606483015291909116608482015291169063bcaeb7b99060a401600060405180830381600087803b158015620005fa57600080fd5b505af11580156200060f573d6000803e3d6000fd5b50505050826001600160a01b0316632f2439b16040518163ffffffff1660e01b815260040160206040518083038186803b1580156200064d57600080fd5b505afa15801562000662573d6000803e3d6000fd5b505050506040513d601f19601f8201168201806040525081019062000688919062001d0a565b60405163066ad14f60e21b81526001600160a01b03858116600483015291909116906319ab453c90602401600060405180830381600087803b158015620006ce57600080fd5b505af1158015620006e3573d6000803e3d6000fd5b50505050826001600160a01b031663531367636040518163ffffffff1660e01b815260040160206040518083038186803b1580156200072157600080fd5b505afa15801562000736573d6000803e3d6000fd5b505050506040513d601f19601f820116820180604052508101906200075c919062001d0a565b6001600160a01b0316638b27c574847f000000000000000000000000000000000000000000000000000000000000000088610160015189602001516040518563ffffffff1660e01b8152600401620007b8949392919062001d2a565b600060405180830381600087803b158015620007d357600080fd5b505af1158015620007e8573d6000803e3d6000fd5b50505050826001600160a01b03166341bf0c4e6040518163ffffffff1660e01b815260040160206040518083038186803b1580156200082657600080fd5b505afa1580156200083b573d6000803e3d6000fd5b505050506040513d601f19601f8201168201806040525081019062000861919062001d0a565b6001600160a01b0316638b27c574848488610160015189602001516040518563ffffffff1660e01b81526004016200089d949392919062001d2a565b600060405180830381600087803b158015620008b857600080fd5b505af1158015620008cd573d6000803e3d6000fd5b50505050826001600160a01b031663bfe109286040518163ffffffff1660e01b815260040160206040518083038186803b1580156200090b57600080fd5b505afa15801562000920573d6000803e3d6000fd5b505050506040513d601f19601f8201168201806040525081019062000946919062001d0a565b855160405163133cdbb560e31b81526001600160a01b038681166004830152825161ffff908116602484015260209093015190921660448201529116906399e6dda890606401600060405180830381600087803b158015620009a757600080fd5b505af1158015620009bc573d6000803e3d6000fd5b50505050826001600160a01b031663656e96e16040518163ffffffff1660e01b815260040160206040518083038186803b158015620009fa57600080fd5b505afa15801562000a0f573d6000803e3d6000fd5b505050506040513d601f19601f8201168201806040525081019062000a35919062001d0a565b60c086015160a08701516040516324458ffb60e21b81526001600160a01b03878116600483015265ffffffffffff90931660248201526001600160c01b0390911660448201529116906391163fec90606401600060405180830381600087803b15801562000aa257600080fd5b505af115801562000ab7573d6000803e3d6000fd5b50505050826001600160a01b031663abff01106040518163ffffffff1660e01b815260040160206040518083038186803b15801562000af557600080fd5b505afa15801562000b0a573d6000803e3d6000fd5b505050506040513d601f19601f8201168201806040525081019062000b30919062001d0a565b61012086015160405163642606a760e01b81526001600160a01b0386811660048301527f0000000000000000000000000000000000000000000000000000000000000000811660248301526001604483015265ffffffffffff909216606482015291169063642606a790608401600060405180830381600087803b15801562000bb857600080fd5b505af115801562000bcd573d6000803e3d6000fd5b50505050600062000bde8a62001559565b60405160200162000bf0919062001d5e565b604051602081830303815290604052905060008160405160200162000c16919062001d87565b6040516020818303038152906040529050846001600160a01b0316634780a5e56040518163ffffffff1660e01b815260040160206040518083038186803b15801562000c6157600080fd5b505afa15801562000c76573d6000803e3d6000fd5b505050506040513d601f19601f8201168201806040525081019062000c9c919062001d0a565b6001600160a01b0316634ea4b8438683858b60e001518c60c001518d60a001516040518763ffffffff1660e01b815260040162000cdf9695949392919062001db3565b600060405180830381600087803b15801562000cfa57600080fd5b505af115801562000d0f573d6000803e3d6000fd5b505050505050826001600160a01b03166340c65f726040518163ffffffff1660e01b815260040160206040518083038186803b15801562000d4f57600080fd5b505afa15801562000d64573d6000803e3d6000fd5b505050506040513d601f19601f8201168201806040525081019062000d8a919062001d0a565b6001600160a01b0316631a14663c848c8c8c8c8b61018001518c6101a001518d6101c001516040518963ffffffff1660e01b815260040162000dd498979695949392919062001e20565b600060405180830381600087803b15801562000def57600080fd5b505af115801562000e04573d6000803e3d6000fd5b50600092506002915062000e159050565b60405190808252806020026020018201604052801562000e3f578160200160208202803683370190505b5090508160000151866040015160405162000e5a9062001767565b6001600160a01b0390921682526001600160c01b03166020820152604001604051809103906000f08015801562000e95573d6000803e3d6000fd5b508160008151811062000eac5762000eac62001eac565b60200260200101906001600160a01b031690816001600160a01b0316815250507f00000000000000000000000000000000000000000000000000000000000000008160018151811062000f035762000f0362001eac565b60200260200101906001600160a01b031690816001600160a01b031681525050836001600160a01b031663979d7e866040518163ffffffff1660e01b815260040160206040518083038186803b15801562000f5d57600080fd5b505afa15801562000f72573d6000803e3d6000fd5b505050506040513d601f19601f8201168201806040525081019062000f98919062001d0a565b6001600160a01b0316633c5a3cea85836040518363ffffffff1660e01b815260040162000fc792919062001ec2565b600060405180830381600087803b15801562000fe257600080fd5b505af115801562000ff7573d6000803e3d6000fd5b50505050836001600160a01b0316632f2ff15d6040518060400160405280600581526020016427aba722a960d91b815250620010339062001f20565b6040516001600160e01b031960e084901b16815260048101919091526001600160a01b038a166024820152604401600060405180830381600087803b1580156200107c57600080fd5b505af115801562001091573d6000803e3d6000fd5b50505050836001600160a01b0316632f2ff15d6040518060400160405280600d81526020016c29a427a92a2fa32922a2ad22a960991b815250620010d59062001f20565b6040516001600160e01b031960e084901b16815260048101919091526001600160a01b038a166024820152604401600060405180830381600087803b1580156200111e57600080fd5b505af115801562001133573d6000803e3d6000fd5b50505050836001600160a01b0316632f2ff15d6040518060400160405280600c81526020016b2627a723afa32922a2ad22a960a11b815250620011769062001f20565b6040516001600160e01b031960e084901b16815260048101919091526001600160a01b038a166024820152604401600060405180830381600087803b158015620011bf57600080fd5b505af1158015620011d4573d6000803e3d6000fd5b50505050836001600160a01b0316632f2ff15d604051806040016040528060068152602001652820aaa9a2a960d11b815250620012119062001f20565b6040516001600160e01b031960e084901b16815260048101919091526001600160a01b038a166024820152604401600060405180830381600087803b1580156200125a57600080fd5b505af11580156200126f573d6000803e3d6000fd5b50505050836001600160a01b03166336568abe6040518060400160405280600581526020016427aba722a960d91b815250620012ab9062001f20565b6040516001600160e01b031960e084901b1681526004810191909152306024820152604401600060405180830381600087803b158015620012eb57600080fd5b505af115801562001300573d6000803e3d6000fd5b50505050836001600160a01b03166336568abe6040518060400160405280600d81526020016c29a427a92a2fa32922a2ad22a960991b815250620013449062001f20565b6040516001600160e01b031960e084901b1681526004810191909152306024820152604401600060405180830381600087803b1580156200138457600080fd5b505af115801562001399573d6000803e3d6000fd5b50505050836001600160a01b03166336568abe6040518060400160405280600c81526020016b2627a723afa32922a2ad22a960a11b815250620013dc9062001f20565b6040516001600160e01b031960e084901b1681526004810191909152306024820152604401600060405180830381600087803b1580156200141c57600080fd5b505af115801562001431573d6000803e3d6000fd5b50505050836001600160a01b03166336568abe604051806040016040528060068152602001652820aaa9a2a960d11b8152506200146e9062001f20565b6040516001600160e01b031960e084901b1681526004810191909152306024820152604401600060405180830381600087803b158015620014ae57600080fd5b505af1158015620014c3573d6000803e3d6000fd5b50505050866001600160a01b031682600001516001600160a01b0316856001600160a01b03167f27a62b7d4a7ee7a705ae91fe5a3ad74f32fc3d14e82eb82c3730630601ce9ae68560200151620015326040805180820190915260058152640312e322e360dc1b602082015290565b6040516200154292919062001f48565b60405180910390a450519998505050505050505050565b606060008290506000815167ffffffffffffffff8111156200157f576200157f620017f2565b6040519080825280601f01601f191660200182016040528015620015aa576020820181803683370190505b50905060005b8251811015620016d3576041838281518110620015d157620015d162001eac565b016020015160f81c10801590620016055750605a838281518110620015fa57620015fa62001eac565b016020015160f81c11155b15620016715782818151811062001620576200162062001eac565b602001015160f81c60f81b60f81c60206200163c919062001f8c565b60f81b82828151811062001654576200165462001eac565b60200101906001600160f81b031916908160001a905350620016be565b82818151811062001686576200168662001eac565b602001015160f81c60f81b828281518110620016a657620016a662001eac565b60200101906001600160f81b031916908160001a9053505b80620016ca8162001fb4565b915050620015b0565b509392505050565b6122988062001fd383390190565b6168ee806200426b83390190565b613f5b806200ab5983390190565b612253806200eab483390190565b614a6e8062010d0783390190565b614e05806201577583390190565b611606806201a57a83390190565b611233806201bb8083390190565b613546806201cdb383390190565b61325780620202f983390190565b6127d0806202355083390190565b60005b838110156200179257818101518382015260200162001778565b83811115620017a2576000848401525b50505050565b60008151808452620017c281602086016020860162001775565b601f01601f19169290920160200192915050565b602081526000620017eb6020830184620017a8565b9392505050565b634e487b7160e01b600052604160045260246000fd5b6040516101e0810167ffffffffffffffff811182821017156200182f576200182f620017f2565b60405290565b600082601f8301126200184757600080fd5b813567ffffffffffffffff80821115620018655762001865620017f2565b604051601f8301601f19908116603f01168101908282118183101715620018905762001890620017f2565b81604052838152866020858801011115620018aa57600080fd5b836020870160208301376000602085830101528094505050505092915050565b6001600160a01b0381168114620018e057600080fd5b50565b8035620018f081620018ca565b919050565b803561ffff81168114620018f057600080fd5b6000604082840312156200191b57600080fd5b6040516040810181811067ffffffffffffffff82111715620019415762001941620017f2565b6040529050806200195283620018f5565b81526200196260208401620018f5565b60208201525092915050565b80356001600160c01b0381168114620018f057600080fd5b803565ffffffffffff81168114620018f057600080fd5b60006102008284031215620019b157600080fd5b620019bb62001808565b9050620019c9838362001908565b8152620019d9604083016200196e565b6020820152620019ec606083016200196e565b6040820152620019ff6080830162001986565b606082015262001a1260a0830162001986565b608082015262001a2560c083016200196e565b60a082015262001a3860e0830162001986565b60c082015261010062001a4d81840162001986565b60e083015261012062001a6281850162001986565b82840152610140915062001a7882850162001986565b9083015261016062001a8c8482016200196e565b82840152610180915062001aa28285016200196e565b908301526101a062001ab68482016200196e565b828401526101c0915062001acc8285016200196e565b81840152506101e0830135818301525092915050565b600080600080600080610280878903121562001afd57600080fd5b863567ffffffffffffffff8082111562001b1657600080fd5b62001b248a838b0162001835565b9750602089013591508082111562001b3b57600080fd5b62001b498a838b0162001835565b9650604089013591508082111562001b6057600080fd5b818901915089601f83011262001b7557600080fd5b81358181111562001b8557600080fd5b8a602082850101111562001b9857600080fd5b60208301965080955050505062001bb260608801620018e3565b915062001bc388608089016200199d565b90509295509295509295565b84516001600160a01b031681526101a08101602086015162001bfc60208401826001600160a01b03169052565b50604086015162001c1860408401826001600160a01b03169052565b50606086015162001c3460608401826001600160a01b03169052565b50608086015162001c5060808401826001600160a01b03169052565b5060a086015162001c6c60a08401826001600160a01b03169052565b5060c086015162001c8860c08401826001600160a01b03169052565b5060e086015162001ca460e08401826001600160a01b03169052565b50610100868101516001600160a01b038116848301525050610120868101516001600160a01b0381168483015250506001600160a01b03851661014083015265ffffffffffff841661016083015265ffffffffffff831661018083015295945050505050565b60006020828403121562001d1d57600080fd5b8151620017eb81620018ca565b6001600160a01b0394851681529290931660208301526001600160c01b039081166040830152909116606082015260800190565b6000825162001d7281846020870162001775565b622929a960e91b920191825250600301919050565b6000825162001d9b81846020870162001775565b65102a37b5b2b760d11b920191825250600601919050565b6001600160a01b038716815260c06020820181905260009062001dd990830188620017a8565b828103604084015262001ded8188620017a8565b65ffffffffffff9687166060850152949095166080830152506001600160c01b039190911660a090910152949350505050565b6001600160a01b038916815260e06020820181905260009062001e469083018a620017a8565b828103604084015262001e5a818a620017a8565b9050828103606084015286815286886020830137600060208883018101919091526001600160c01b0396871660808501529490951660a08301525060c00152601f909201601f19160101949350505050565b634e487b7160e01b600052603260045260246000fd5b6001600160a01b038381168252604060208084018290528451918401829052600092858201929091906060860190855b8181101562001f1257855185168352948301949183019160010162001ef2565b509098975050505050505050565b8051602080830151919081101562001f42576000198160200360031b1b821691505b50919050565b6001600160a01b038316815260406020820181905260009062001f6e90830184620017a8565b949350505050565b634e487b7160e01b600052601160045260246000fd5b600060ff821660ff84168060ff0382111562001fac5762001fac62001f76565b019392505050565b600060001982141562001fcb5762001fcb62001f76565b506001019056fe608060405234801561001057600080fd5b50612278806100206000396000f3fe608060405234801561001057600080fd5b50600436106102485760003560e01c80636a28f0001161013b578063c99dc3dd116100b8578063e58378bb1161007c578063e58378bb1461050d578063e63ab1e914610515578063f17063751461051d578063f8aa0c4e14610525578063fe8aa12a1461053e57600080fd5b8063c99dc3dd146104a1578063d547741f146104b4578063dc8af5f6146104c7578063de1611cf146104da578063e083b5e6146104ed57600080fd5b8063979d7e86116100ff578063979d7e861461044d578063992e1d6a14610460578063a217fddf14610473578063abff01101461047b578063bfe109281461048e57600080fd5b80636a28f00014610410578063705a6618146104185780638456cb591461042a57806391d148541461043257806394c7f2991461044557600080fd5b80633f4ba83a116101c9578063531367631161018d57806353136763146103a757806354fd4d50146103ba578063590f6b1a146103e15780635c975abb146103e9578063656e96e1146103fd57600080fd5b80633f4ba83a1461035357806340c65f721461035b57806341bf0c4e1461036e5780634780a5e5146103815780635187ae681461039457600080fd5b80632b56d18a116102105780632b56d18a146102ca5780632d870960146102fa5780632f2439b1146103025780632f2ff15d1461032d57806336568abe1461034057600080fd5b806301ffc9a71461024d578063054f7d9c146102755780630f702ed3146102875780631817835814610291578063248a9ca314610299575b600080fd5b61026061025b366004611dfb565b610546565b60405190151581526020015b60405180910390f35b60985465ffffffffffff164210610260565b61028f61057d565b005b61028f610615565b6102bc6102a7366004611e25565b60009081526065602052604090206001015490565b60405190815260200161026c565b6098546102e390600160301b900465ffffffffffff1681565b60405165ffffffffffff909116815260200161026c565b6102bc61079c565b60cc54610315906001600160a01b031681565b6040516001600160a01b03909116815260200161026c565b61028f61033b366004611e53565b6107cd565b61028f61034e366004611e53565b61089f565b61028f61091d565b60c954610315906001600160a01b031681565b60d054610315906001600160a01b031681565b60ca54610315906001600160a01b031681565b61028f6103a2366004611e9e565b610999565b60cf54610315906001600160a01b031681565b60408051808201825260058152640312e322e360dc1b6020820152905161026c9190611ee5565b6102bc610aa4565b60985461026090600160901b900460ff1681565b60d154610315906001600160a01b031681565b61028f610ad3565b6098546102e39065ffffffffffff1681565b61028f610b58565b610260610440366004611e53565b610bdb565b61028f610c09565b60cb54610315906001600160a01b031681565b61028f61046e366004611f71565b610c48565b6102bc600081565b60d254610315906001600160a01b031681565b60ce54610315906001600160a01b031681565b60fb54610315906001600160a01b031681565b61028f6104c2366004611e53565b610df8565b60cd54610315906001600160a01b031681565b61028f6104e8366004611e9e565b610e1d565b6102bc6104fb366004612083565b60976020526000908152604090205481565b6102bc610f2a565b6102bc610f51565b610260610f79565b6098546102e390600160601b900465ffffffffffff1681565b61028f610fa2565b60006001600160e01b03198216637965db0b60e01b148061057757506301ffc9a760e01b6001600160e01b03198316145b92915050565b6040518060400160405280600d81526020016c29a427a92a2fa32922a2ad22a960991b8152506105ac906120a0565b6105b581611063565b6105ed6040518060400160405280600d81526020016c29a427a92a2fa32922a2ad22a960991b8152506105e7906120a0565b3361106d565b6098546106129061060d90600160301b900465ffffffffffff16426120dd565b6110d4565b50565b61061d610f79565b156106625760405162461bcd60e51b815260206004820152601060248201526f3830bab9b2b21037b910333937bd32b760811b60448201526064015b60405180910390fd5b60cb60009054906101000a90046001600160a01b03166001600160a01b031663f8ac93e86040518163ffffffff1660e01b8152600401600060405180830381600087803b1580156106b257600080fd5b505af11580156106c6573d6000803e3d6000fd5b5050505060d160009054906101000a90046001600160a01b03166001600160a01b0316635220f5106040518163ffffffff1660e01b8152600401600060405180830381600087803b15801561071a57600080fd5b505af115801561072e573d6000803e3d6000fd5b5050505060ca60009054906101000a90046001600160a01b03166001600160a01b031663296130866040518163ffffffff1660e01b8152600401600060405180830381600087803b15801561078257600080fd5b505af1158015610796573d6000803e3d6000fd5b50505050565b6040518060400160405280600c81526020016b2627a723afa32922a2ad22a960a11b8152506107ca906120a0565b81565b6000828152606560205260409020600101546107e881611063565b6001600160a01b03821661083e5760405162461bcd60e51b815260206004820152601e60248201527f63616e6e6f74206772616e7420726f6c6520746f2061646472657373203000006044820152606401610659565b6040518060400160405280600c81526020016b2627a723afa32922a2ad22a960a11b81525061086c906120a0565b831415610890576001600160a01b0382166000908152609760205260409020600690555b61089a8383611173565b505050565b6001600160a01b038116331461090f5760405162461bcd60e51b815260206004820152602f60248201527f416363657373436f6e74726f6c3a2063616e206f6e6c792072656e6f756e636560448201526e103937b632b9903337b91039b2b63360891b6064820152608401610659565b610919828261106d565b5050565b604051806040016040528060068152602001652820aaa9a2a960d11b815250610945906120a0565b61094e81611063565b609854604051600091600160901b900460ff161515907f8a03df86592b6c04a66160b441f1d7282689edca334882d14f468dc60352b0ff908390a3506098805460ff60901b19169055565b6040518060400160405280600581526020016427aba722a960d91b8152506109c0906120a0565b6109c981611063565b60008265ffffffffffff161180156109ed57506301e1338065ffffffffffff831611155b610a395760405162461bcd60e51b815260206004820152601860248201527f6c6f6e6720667265657a65206f7574206f662072616e676500000000000000006044820152606401610659565b60985460405165ffffffffffff80851692600160601b900416907f2b855a9093ce8fb8bd37179aa306b424a5008d3a000751f4c2e721c51b89f9a290600090a3506098805465ffffffffffff909216600160601b0265ffffffffffff60601b19909216919091179055565b6040518060400160405280600d81526020016c29a427a92a2fa32922a2ad22a960991b8152506107ca906120a0565b6040518060400160405280600581526020016427aba722a960d91b815250610afa906120a0565b610b0381611063565b60985460405165ffffffffffff4281169216907f4fd793fe252ef26ede0a814ca52971990ff5ade10f86376fb1914bfb17c57e0890600090a3506098805465ffffffffffff19164265ffffffffffff16179055565b604051806040016040528060068152602001652820aaa9a2a960d11b815250610b80906120a0565b610b8981611063565b609854604051600191600160901b900460ff161515907f8a03df86592b6c04a66160b441f1d7282689edca334882d14f468dc60352b0ff90600090a3506098805460ff60901b1916600160901b179055565b60008281526065602090815260408083206001600160a01b038516845290915281205460ff165b9392505050565b6040518060400160405280600581526020016427aba722a960d91b815250610c30906120a0565b610c3981611063565b61061265ffffffffffff6110d4565b600054610100900460ff1615808015610c685750600054600160ff909116105b80610c825750303b158015610c82575060005460ff166001145b610ce55760405162461bcd60e51b815260206004820152602e60248201527f496e697469616c697a61626c653a20636f6e747261637420697320616c72656160448201526d191e481a5b9a5d1a585b1a5e995960921b6064820152608401610659565b6000805460ff191660011790558015610d08576000805461ff0019166101001790555b6001600160a01b038416610d545760405162461bcd60e51b8152602060048201526013602482015272696e76616c696420525352206164647265737360681b6044820152606401610659565b610d5e83836111f9565b610d67856113f9565b60fb80546001600160a01b0319166001600160a01b0386161790556040517fb3d8a26384852953cab1d93ea954a4ac74e1dc9f5c29576d4a4f45cdb230130e90600090a18015610df1576000805461ff0019169055604051600181527f7f26b83ff96e1f2b6a682f133852f6798a09c465da95921460cefb38474024989060200160405180910390a15b5050505050565b600082815260656020526040902060010154610e1381611063565b61089a838361106d565b6040518060400160405280600581526020016427aba722a960d91b815250610e44906120a0565b610e4d81611063565b60008265ffffffffffff16118015610e70575062278d0065ffffffffffff831611155b610ebc5760405162461bcd60e51b815260206004820152601960248201527f73686f727420667265657a65206f7574206f662072616e6765000000000000006044820152606401610659565b60985460405165ffffffffffff80851692600160301b900416907f84af4c1855ea2ef70449c6ae7119d367873ea35277b9681e0e47898900266f9490600090a3506098805465ffffffffffff909216600160301b026bffffffffffff00000000000019909216919091179055565b6040518060400160405280600581526020016427aba722a960d91b8152506107ca906120a0565b604051806040016040528060068152602001652820aaa9a2a960d11b8152506107ca906120a0565b609854600090600160901b900460ff1680610f9d575060985465ffffffffffff1642105b905090565b6040518060400160405280600c81526020016b2627a723afa32922a2ad22a960a11b815250610fd0906120a0565b610fd981611063565b336000908152609760205260408120805460019290610ff9908490612107565b909155505033600090815260976020526040902054611043576110436040518060400160405280600c81526020016b2627a723afa32922a2ad22a960a11b8152506105e7906120a0565b6098546106129061060d90600160601b900465ffffffffffff16426120dd565b61061281336114a2565b6110778282610bdb565b156109195760008281526065602090815260408083206001600160a01b0385168085529252808320805460ff1916905551339285917ff6391f5c32d9c69d2a47ea670b442974b53935d1edc7fd64eb21e047a839171b9190a45050565b60985465ffffffffffff9081169082161161111a5760405162461bcd60e51b8152602060048201526006602482015265333937bd32b760d11b6044820152606401610659565b60985460405165ffffffffffff8084169216907f4fd793fe252ef26ede0a814ca52971990ff5ade10f86376fb1914bfb17c57e0890600090a36098805465ffffffffffff191665ffffffffffff92909216919091179055565b61117d8282610bdb565b6109195760008281526065602090815260408083206001600160a01b03851684529091529020805460ff191660011790556111b53390565b6001600160a01b0316816001600160a01b0316837f2f8788117e7eff1d82e926ec794901d17c78024a50270940304540a733656f0d60405160405180910390a45050565b600054610100900460ff166112205760405162461bcd60e51b81526004016106599061211e565b6112286114fb565b61127e6040518060400160405280600581526020016427aba722a960d91b815250611252906120a0565b6040518060400160405280600581526020016427aba722a960d91b815250611279906120a0565b611524565b6112b06040518060400160405280600d81526020016c29a427a92a2fa32922a2ad22a960991b815250611252906120a0565b6112e16040518060400160405280600c81526020016b2627a723afa32922a2ad22a960a11b815250611252906120a0565b61130c604051806040016040528060068152602001652820aaa9a2a960d11b815250611252906120a0565b60408051808201909152600581526427aba722a960d91b6020820152339061133d90611337906120a0565b82611173565b61136f6040518060400160405280600d81526020016c29a427a92a2fa32922a2ad22a960991b815250611337906120a0565b6113a06040518060400160405280600c81526020016b2627a723afa32922a2ad22a960a11b815250611337906120a0565b6113cb604051806040016040528060068152602001652820aaa9a2a960d11b815250611337906120a0565b6001600160a01b0381166000908152609760205260409020600690556113f083610e1d565b61089a82610999565b600054610100900460ff166114205760405162461bcd60e51b81526004016106599061211e565b61142d816080015161156f565b61143a8160600151611621565b6114488161010001516116d3565b611456816101200151611785565b6114638160400151611837565b6114708160a001516118e9565b61147d8160c0015161199b565b61148a8160e00151611a4d565b6114978160200151611af8565b805161061290611ba2565b6114ac8282610bdb565b610919576114b981611c4d565b6114c4836020611c5f565b6040516020016114d5929190612169565b60408051601f198184030181529082905262461bcd60e51b825261065991600401611ee5565b600054610100900460ff166115225760405162461bcd60e51b81526004016106599061211e565b565b600082815260656020526040808220600101805490849055905190918391839186917fbd79b86ffe0ab8e8776151514217cd7cacd52c909f66475c3af44e129f0b00ff9190a4505050565b6001600160a01b0381166115c55760405162461bcd60e51b815260206004820152601e60248201527f696e76616c6964204261636b696e674d616e61676572206164647265737300006044820152606401610659565b60cd546040516001600160a01b038084169216907fd4ec685c4e7367fc82d24a1c90d8c91c07a0e204b5b4655fc1a6d5b6b9d9eeb790600090a360cd80546001600160a01b0319166001600160a01b0392909216919091179055565b6001600160a01b0381166116775760405162461bcd60e51b815260206004820152601d60248201527f696e76616c6964204261736b657448616e646c657220616464726573730000006044820152606401610659565b60cc546040516001600160a01b038084169216907fa41efa7d680b9ae9379ca75b956c50587b28ed07453f7d19388c7199397a1e8e90600090a360cc80546001600160a01b0319166001600160a01b0392909216919091179055565b6001600160a01b0381166117295760405162461bcd60e51b815260206004820152601960248201527f696e76616c6964205253525472616465722061646472657373000000000000006044820152606401610659565b60cf546040516001600160a01b038084169216907f2fa6596476f0ebdb5fef9a37bedb7ef956e0e1c4e094464cbf49c38f44f7e8d190600090a360cf80546001600160a01b0319166001600160a01b0392909216919091179055565b6001600160a01b0381166117db5760405162461bcd60e51b815260206004820152601c60248201527f696e76616c69642052546f6b656e5472616465722061646472657373000000006044820152606401610659565b60d0546040516001600160a01b038084169216907f0d76a5d5849780e9a81127e61df7ee55bf3f766bc326510d3a52ede3caea168f90600090a360d080546001600160a01b0319166001600160a01b0392909216919091179055565b6001600160a01b03811661188d5760405162461bcd60e51b815260206004820152601d60248201527f696e76616c6964204173736574526567697374727920616464726573730000006044820152606401610659565b60cb546040516001600160a01b038084169216907f5c69d378772ea2f02015deabd3b7ee1db0851dba819e216585de7a155d22a14890600090a360cb80546001600160a01b0319166001600160a01b0392909216919091179055565b6001600160a01b03811661193f5760405162461bcd60e51b815260206004820152601b60248201527f696e76616c6964204469737472696275746f72206164647265737300000000006044820152606401610659565b60ce546040516001600160a01b038084169216907f8c6eabd1db7fe5a1951a7c78767c0e3633c5352578d15d45f99aa4c4db01c55a90600090a360ce80546001600160a01b0319166001600160a01b0392909216919091179055565b6001600160a01b0381166119f15760405162461bcd60e51b815260206004820152601760248201527f696e76616c6964204675726e61636520616464726573730000000000000000006044820152606401610659565b60d1546040516001600160a01b038084169216907fe0c9d7fae2ccca1a3980ce26aada40d9f7fc84406cdb3adbdcfb8f9dd21c9b5390600090a360d180546001600160a01b0319166001600160a01b0392909216919091179055565b6001600160a01b038116611a9c5760405162461bcd60e51b8152602060048201526016602482015275696e76616c69642042726f6b6572206164647265737360501b6044820152606401610659565b60d2546040516001600160a01b038084169216907fc29cab4074359a76aba74458623910a8b95269ded89ad9f98cd2db1de3ead35690600090a360d280546001600160a01b0319166001600160a01b0392909216919091179055565b6001600160a01b038116611b465760405162461bcd60e51b8152602060048201526015602482015274696e76616c6964205374525352206164647265737360581b6044820152606401610659565b60ca546040516001600160a01b038084169216907f1b29dc90e15d6ade122a9e27d886b4a077e66131c7e0cc805fc303e49690c9fc90600090a360ca80546001600160a01b0319166001600160a01b0392909216919091179055565b6001600160a01b038116611bf15760405162461bcd60e51b8152602060048201526016602482015275696e76616c69642052546f6b656e206164647265737360501b6044820152606401610659565b60c9546040516001600160a01b038084169216907f2d2909c1d06afe38080a70d63a8793874674efb0fdf3b3bf3fd046056688b3ea90600090a360c980546001600160a01b0319166001600160a01b0392909216919091179055565b60606105776001600160a01b03831660145b60606000611c6e8360026121de565b611c799060026121fd565b67ffffffffffffffff811115611c9157611c91611f18565b6040519080825280601f01601f191660200182016040528015611cbb576020820181803683370190505b509050600360fc1b81600081518110611cd657611cd6612215565b60200101906001600160f81b031916908160001a905350600f60fb1b81600181518110611d0557611d05612215565b60200101906001600160f81b031916908160001a9053506000611d298460026121de565b611d349060016121fd565b90505b6001811115611dac576f181899199a1a9b1b9c1cb0b131b232b360811b85600f1660108110611d6857611d68612215565b1a60f81b828281518110611d7e57611d7e612215565b60200101906001600160f81b031916908160001a90535060049490941c93611da58161222b565b9050611d37565b508315610c025760405162461bcd60e51b815260206004820181905260248201527f537472696e67733a20686578206c656e67746820696e73756666696369656e746044820152606401610659565b600060208284031215611e0d57600080fd5b81356001600160e01b031981168114610c0257600080fd5b600060208284031215611e3757600080fd5b5035919050565b6001600160a01b038116811461061257600080fd5b60008060408385031215611e6657600080fd5b823591506020830135611e7881611e3e565b809150509250929050565b803565ffffffffffff81168114611e9957600080fd5b919050565b600060208284031215611eb057600080fd5b610c0282611e83565b60005b83811015611ed4578181015183820152602001611ebc565b838111156107965750506000910152565b6020815260008251806020840152611f04816040850160208701611eb9565b601f01601f19169190910160400192915050565b634e487b7160e01b600052604160045260246000fd5b604051610140810167ffffffffffffffff81118282101715611f6057634e487b7160e01b600052604160045260246000fd5b60405290565b8035611e9981611e3e565b6000806000808486036101a0811215611f8957600080fd5b61014080821215611f9957600080fd5b611fa1611f2e565b9150611fac87611f66565b8252611fba60208801611f66565b6020830152611fcb60408801611f66565b6040830152611fdc60608801611f66565b6060830152611fed60808801611f66565b6080830152611ffe60a08801611f66565b60a083015261200f60c08801611f66565b60c083015261202060e08801611f66565b60e0830152610100612033818901611f66565b90830152610120612045888201611f66565b8184015250819550612058818801611f66565b945050506120696101608601611e83565b91506120786101808601611e83565b905092959194509250565b60006020828403121561209557600080fd5b8135610c0281611e3e565b805160208083015191908110156120c1576000198160200360031b1b821691505b50919050565b634e487b7160e01b600052601160045260246000fd5b600065ffffffffffff8083168185168083038211156120fe576120fe6120c7565b01949350505050565b600082821015612119576121196120c7565b500390565b6020808252602b908201527f496e697469616c697a61626c653a20636f6e7472616374206973206e6f74206960408201526a6e697469616c697a696e6760a81b606082015260800190565b7f416363657373436f6e74726f6c3a206163636f756e74200000000000000000008152600083516121a1816017850160208801611eb9565b7001034b99036b4b9b9b4b733903937b6329607d1b60179184019182015283516121d2816028840160208801611eb9565b01602801949350505050565b60008160001904831182151516156121f8576121f86120c7565b500290565b60008219821115612210576122106120c7565b500190565b634e487b7160e01b600052603260045260246000fd5b60008161223a5761223a6120c7565b50600019019056fea26469706673582212206b97da2d27deaa42cc9e7877d5e13408acf22d7c17c8ee1e0cdb14164c97731564736f6c63430008090033608060405234801561001057600080fd5b506168cd80620000216000396000f3fe608060405234801561001057600080fd5b50600436106102695760003560e01c80636a63f1a711610151578063a9059cbb116100c3578063d505accf11610087578063d505accf1461056d578063db006a7514610580578063dd62ed3e14610593578063dffeadd0146105a6578063ee5eef9f146105d1578063f646e597146105e257600080fd5b8063a9059cbb14610524578063ac9da58314610537578063adaef42c1461053f578063c1e4d03414610552578063cc872b661461055a57600080fd5b8063838a0d3c11610115578063838a0d3c146104755780638c83ed331461048857806395d89b411461049b578063a0d9aa17146104a3578063a457c2d7146104fe578063a51720d91461051157600080fd5b80636a63f1a71461040057806370a08231146104135780637121c2731461043c57806373d16dd71461044f5780637ecebe001461046257600080fd5b8063372500ab116101ea57806340c10f19116101ae57806340c10f191461038b578063455312ee1461039e5780634ba38de4146103b157806354fd4d50146103c45780635a941ea2146103e557806363965449146103ed57600080fd5b8063372500ab1461034257806337dc31911461034a578063395093511461035d57806339b1b96d146103705780633c9ae2ba1461037857600080fd5b80632797c6c8116102315780632797c6c8146102e95780632a7b01e9146102fc57806331051d5214610323578063313ce5671461032b5780633644e5151461033a57600080fd5b806306fdde031461026e578063095ea7b31461028c57806318160ddd146102af5780631a14663c146102c157806323b872dd146102d6575b600080fd5b6102766105f5565b6040516102839190615ccd565b60405180910390f35b61029f61029a366004615d15565b610687565b6040519015158152602001610283565b6036545b604051908152602001610283565b6102d46102cf366004615e14565b6106a1565b005b61029f6102e4366004615f0d565b6108b6565b6102d46102f7366004615d15565b6108dc565b61030b670de0b6b3a764000081565b6040516001600160c01b039091168152602001610283565b6102b3610d7f565b60405160128152602001610283565b6102b3610d9f565b6102d4610dae565b6102d4610358366004615f5c565b6110f0565b61029f61036b366004615d15565b6116c4565b6102766116e6565b60d35461030b906001600160c01b031681565b6102d4610399366004615d15565b611774565b6102d46103ac366004615f8c565b611905565b6102d46103bf366004615fa5565b611a0d565b6040805180820190915260058152640312e322e360dc1b6020820152610276565b6102b3611b91565b6102d46103fb366004615fa5565b611ba7565b60d15461030b906001600160c01b031681565b6102b3610421366004615fc0565b6001600160a01b031660009081526034602052604090205490565b60d25461030b906001600160c01b031681565b6102b361045d366004615fc0565b611d93565b6102b3610470366004615fc0565b611e2f565b61029f610483366004615d15565b611e4d565b6102d4610496366004615f8c565b611e74565b610276611f5c565b6104b66104b1366004615d15565b611f6b565b604080516001600160a01b03909716875260208701959095526001600160c01b03938416948601949094526060850191909152166080830152151560a082015260c001610283565b61029f61050c366004615d15565b611fdc565b6102d461051f366004615fa5565b612062565b61029f610532366004615d15565b6121ff565b60d4546102b3565b6102d461054d366004615fc0565b61220d565b6102d4612410565b6102d4610568366004615f8c565b61276c565b6102d461057b366004615fdd565b613063565b6102d461058e366004615f8c565b6131de565b6102b36105a1366004616054565b613a23565b6033546105b9906001600160a01b031681565b6040516001600160a01b039091168152602001610283565b60d5546001600160c01b031661030b565b6102d46105f0366004615fc0565b613a4e565b60606037805461060490616082565b80601f016020809104026020016040519081016040528092919081815260200182805461063090616082565b801561067d5780601f106106525761010080835404028352916020019161067d565b820191906000526020600020905b81548152906001019060200180831161066057829003601f168201915b5050505050905090565b600033610695818585613df4565b60019150505b92915050565b600054610100900460ff16158080156106c15750600054600160ff909116105b806106db5750303b1580156106db575060005460ff166001145b6107435760405162461bcd60e51b815260206004820152602e60248201527f496e697469616c697a61626c653a20636f6e747261637420697320616c72656160448201526d191e481a5b9a5d1a585b1a5e995960921b60648201526084015b60405180910390fd5b6000805460ff191660011790558015610766576000805461ff0019166101001790555b60008851116107a45760405162461bcd60e51b815260206004820152600a6024820152696e616d6520656d70747960b01b604482015260640161073a565b60008751116107e45760405162461bcd60e51b815260206004820152600c60248201526b73796d626f6c20656d70747960a01b604482015260640161073a565b846108215760405162461bcd60e51b815260206004820152600d60248201526c6d616e6461746520656d70747960981b604482015260640161073a565b61082a89613f18565b6108348888613fae565b61083d88613fdf565b61084960cc8787615aeb565b5061085384612062565b61085c83611a0d565b61086582611905565b80156108ab576000805461ff0019169055604051600181527f7f26b83ff96e1f2b6a682f133852f6798a09c465da95921460cefb38474024989060200160405180910390a15b505050505050505050565b6000336108c4858285614029565b6108cf8585856140a3565b60019150505b9392505050565b603360009054906101000a90046001600160a01b03166001600160a01b031663f17063756040518163ffffffff1660e01b815260040160206040518083038186803b15801561092a57600080fd5b505afa15801561093e573d6000803e3d6000fd5b505050506040513d601f19601f8201168201806040525081019061096291906160b7565b1561097f5760405162461bcd60e51b815260040161073a906160d4565b603360009054906101000a90046001600160a01b03166001600160a01b031663181783586040518163ffffffff1660e01b8152600401600060405180830381600087803b1580156109cf57600080fd5b505af11580156109e3573d6000803e3d6000fd5b50600092506109f0915050565b603360009054906101000a90046001600160a01b03166001600160a01b0316632f2439b16040518163ffffffff1660e01b815260040160206040518083038186803b158015610a3e57600080fd5b505afa158015610a52573d6000803e3d6000fd5b505050506040513d601f19601f82011682018060405250810190610a769190616114565b6001600160a01b031663200d2ed26040518163ffffffff1660e01b815260040160206040518083038186803b158015610aae57600080fd5b505afa158015610ac2573d6000803e3d6000fd5b505050506040513d601f19601f82011682018060405250810190610ae69190616131565b6002811115610af757610af76160fe565b14610b355760405162461bcd60e51b815260206004820152600e60248201526d18985cdad95d081d5b9cdbdd5b9960921b604482015260640161073a565b80610b3f83614259565b1415610b49575050565b80610b5383614259565b11158015610b695750610b65826142e6565b8111155b610ba45760405162461bcd60e51b815260206004820152600c60248201526b6f7574206f662072616e676560a01b604482015260640161073a565b6000610baf83614370565b90508015610bbc57505050565b6001600160a01b038316600090815260d0602052604081209080805b8581108015610be75750835481105b15610c30576000610bf888836146ce565b9050610c048184616168565b925083158015610c145750600081115b15610c1d578193505b5080610c2881616180565b915050610bd8565b508015610c7d578482876001600160a01b03167f576b8228616b6d68b15aa60bbd34bb40a88ae5f2dc97c20db2b35f3ef6c353f984604051610c7491815260200190565b60405180910390a45b8254851415610d76578254600090610c979060019061619b565b90505b60008112610d7457838181548110610cb457610cb46161da565b906000526020600020906007020160060160189054906101000a900460ff16610cdf57610cdf6161f0565b83805480610cef57610cef616206565b60008281526020812060076000199093019283020180546001600160a01b0319168155600181018290556002810180546001600160c01b031916905590610d396003830182615b6b565b610d47600483016000615b6b565b506000600582015560060180546001600160c81b0319169055905580610d6c8161621c565b915050610c9a565b505b505050505b5050565b610d93670de0b6b3a764000061271061623a565b6001600160c01b031681565b6000610da9614b03565b905090565b603360009054906101000a90046001600160a01b03166001600160a01b031663f17063756040518163ffffffff1660e01b815260040160206040518083038186803b158015610dfc57600080fd5b505afa158015610e10573d6000803e3d6000fd5b505050506040513d601f19601f82011682018060405250810190610e3491906160b7565b15610e515760405162461bcd60e51b815260040161073a906160d4565b603360009054906101000a90046001600160a01b03166001600160a01b031663181783586040518163ffffffff1660e01b8152600401600060405180830381600087803b158015610ea157600080fd5b505af1158015610eb5573d6000803e3d6000fd5b505050506000603360009054906101000a90046001600160a01b03166001600160a01b031663979d7e866040518163ffffffff1660e01b815260040160206040518083038186803b158015610f0957600080fd5b505afa158015610f1d573d6000803e3d6000fd5b505050506040513d601f19601f82011682018060405250810190610f419190616114565b90506000816001600160a01b0316632510a1d76040518163ffffffff1660e01b815260040160006040518083038186803b158015610f7e57600080fd5b505afa158015610f92573d6000803e3d6000fd5b505050506040513d6000823e601f3d908101601f19168201604052610fba919081019061628d565b905060005b81518110156110eb576000836001600160a01b031663cde2be8a848481518110610feb57610feb6161da565b60200260200101516040518263ffffffff1660e01b815260040161101e91906001600160a01b0391909116815260200190565b60206040518083038186803b15801561103657600080fd5b505afa15801561104a573d6000803e3d6000fd5b505050506040513d601f19601f8201168201806040525081019061106e9190616114565b6040805160048152602481018252602080820180516001600160e01b031663372500ab60e01b179052825180840190935260148352731c995dd85c991cc818db185a5b4819985a5b195960621b908301529192506110d6916001600160a01b03841691614b7e565b505080806110e390616180565b915050610fbf565b505050565b603360009054906101000a90046001600160a01b03166001600160a01b031663054f7d9c6040518163ffffffff1660e01b815260040160206040518083038186803b15801561113e57600080fd5b505afa158015611152573d6000803e3d6000fd5b505050506040513d601f19601f8201168201806040525081019061117691906160b7565b156111ac5760405162461bcd60e51b8152602060048201526006602482015265333937bd32b760d11b604482015260640161073a565b603360009054906101000a90046001600160a01b03166001600160a01b031663979d7e866040518163ffffffff1660e01b815260040160206040518083038186803b1580156111fa57600080fd5b505afa15801561120e573d6000803e3d6000fd5b505050506040513d601f19601f820116820180604052508101906112329190616114565b6001600160a01b031663f8ac93e86040518163ffffffff1660e01b8152600401600060405180830381600087803b15801561126c57600080fd5b505af1158015611280573d6000803e3d6000fd5b50505050603360009054906101000a90046001600160a01b03166001600160a01b031663656e96e16040518163ffffffff1660e01b815260040160206040518083038186803b1580156112d257600080fd5b505afa1580156112e6573d6000803e3d6000fd5b505050506040513d601f19601f8201168201806040525081019061130a9190616114565b6001600160a01b0316635220f5106040518163ffffffff1660e01b8152600401600060405180830381600087803b15801561134457600080fd5b505af1925050508015611355575060015b50338261136182614259565b111580156113775750611373816142e6565b8311155b6113b25760405162461bcd60e51b815260206004820152600c60248201526b6f7574206f662072616e676560a01b604482015260640161073a565b6001600160a01b038116600090815260d0602052604081209080808080876113dd57855489906113e1565b6000895b9092509050815b81811080156113f75750865481105b15611580576000878281548110611410576114106161da565b906000526020600020906007020190508060060160189054906101000a900460ff1661156d5760005b600382015481101561152c5781600401818154811061145a5761145a6161da565b906000526020600020015460d7600084600301848154811061147e5761147e6161da565b60009182526020808320909101546001600160a01b03168352820192909252604001812080549091906114b2908490616321565b9091555050815460048301805461151a926001600160a01b03169190849081106114de576114de6161da565b90600052602060002001548460030184815481106114fe576114fe6161da565b6000918252602090912001546001600160a01b03169190614bf6565b8061152481616180565b915050611439565b50600181015461153c9088616168565b60068201805460ff60c01b1916600160c01b17905596508561155d81616180565b965050856001141561156d578194505b508061157881616180565b9150506113e8565b5083156115cd578083886001600160a01b03167f8d02f355336bad9d0d69b8a6a40a439e836b5ef070029ea58da8e474b237b5f2886040516115c491815260200190565b60405180910390a45b85546000906115de9060019061619b565b90505b600081126116b8578681815481106115fb576115fb6161da565b906000526020600020906007020160060160189054906101000a900460ff16611623576116b8565b8680548061163357611633616206565b60008281526020812060076000199093019283020180546001600160a01b0319168155600181018290556002810180546001600160c01b03191690559061167d6003830182615b6b565b61168b600483016000615b6b565b506000600582015560060180546001600160c81b03191690559055806116b08161621c565b9150506115e1565b50505050505050505050565b6000336106958185856116d78383613a23565b6116e19190616168565b613df4565b60cc80546116f390616082565b80601f016020809104026020016040519081016040528092919081815260200182805461171f90616082565b801561176c5780601f106117415761010080835404028352916020019161176c565b820191906000526020600020905b81548152906001019060200180831161174f57829003601f168201915b505050505081565b603360009054906101000a90046001600160a01b03166001600160a01b031663f17063756040518163ffffffff1660e01b815260040160206040518083038186803b1580156117c257600080fd5b505afa1580156117d6573d6000803e3d6000fd5b505050506040513d601f19601f820116820180604052508101906117fa91906160b7565b156118175760405162461bcd60e51b815260040161073a906160d4565b603360009054906101000a90046001600160a01b03166001600160a01b031663dc8af5f66040518163ffffffff1660e01b815260040160206040518083038186803b15801561186557600080fd5b505afa158015611879573d6000803e3d6000fd5b505050506040513d601f19601f8201168201806040525081019061189d9190616114565b6001600160a01b0316336001600160a01b0316146118f35760405162461bcd60e51b81526020600482015260136024820152723737ba103130b1b5b4b7339036b0b730b3b2b960691b604482015260640161073a565b6118fd8282614c59565b610d7b614d26565b60335460408051808201909152600581526427aba722a960d91b60208201526001600160a01b03909116906391d148549061193f90616338565b336040516001600160e01b031960e085901b16815260048101929092526001600160a01b0316602482015260440160206040518083038186803b15801561198557600080fd5b505afa158015611999573d6000803e3d6000fd5b505050506040513d601f19601f820116820180604052508101906119bd91906160b7565b6119d95760405162461bcd60e51b815260040161073a9061635c565b60d4546040518291907f3e4252e7751ab9d091c55f72f757aeebe5acbc8c4859ecdf6eb602db902dcd2890600090a360d455565b60335460408051808201909152600581526427aba722a960d91b60208201526001600160a01b03909116906391d1485490611a4790616338565b336040516001600160e01b031960e085901b16815260048101929092526001600160a01b0316602482015260440160206040518083038186803b158015611a8d57600080fd5b505afa158015611aa1573d6000803e3d6000fd5b505050506040513d601f19601f82011682018060405250810190611ac591906160b7565b611ae15760405162461bcd60e51b815260040161073a9061635c565b670de0b6b3a76400006001600160c01b0382161115611b355760405162461bcd60e51b815260206004820152601060248201526f34b73b30b634b210333930b1ba34b7b760811b604482015260640161073a565b60d5546040516001600160c01b038084169216907f538a1900e0a4d6ba9cba8557189d22a09addb52da0c23fffc68d8cbe1badc38490600090a360d580546001600160c01b0319166001600160c01b0392909216919091179055565b6000610da9611b9f60365490565b60d490614e73565b603360009054906101000a90046001600160a01b03166001600160a01b031663f17063756040518163ffffffff1660e01b815260040160206040518083038186803b158015611bf557600080fd5b505afa158015611c09573d6000803e3d6000fd5b505050506040513d601f19601f82011682018060405250810190611c2d91906160b7565b15611c4a5760405162461bcd60e51b815260040161073a906160d4565b603360009054906101000a90046001600160a01b03166001600160a01b031663dc8af5f66040518163ffffffff1660e01b815260040160206040518083038186803b158015611c9857600080fd5b505afa158015611cac573d6000803e3d6000fd5b505050506040513d601f19601f82011682018060405250810190611cd09190616114565b6001600160a01b0316336001600160a01b031614611d265760405162461bcd60e51b81526020600482015260136024820152723737ba103130b1b5b4b7339036b0b730b3b2b960691b604482015260640161073a565b60d254604080516001600160c01b03928316815291831660208301527f0b0ca69be72e0611a1f79eedf91aece404ff14cb8fcfd0c997a72b68d4fdd478910160405180910390a160d280546001600160c01b0319166001600160c01b038316179055611d90614d26565b50565b600080611d9f83614259565b90506000611dac43614f31565b6001600160a01b038516600090815260d0602052604090209091505b805483108015611e0f5750611e0f82828581548110611de957611de96161da565b60009182526020909120600790910201600601546001600160c01b039182169116111590565b15611e265782611e1e81616180565b935050611dc8565b50909392505050565b6001600160a01b0381166000908152609a602052604081205461069b565b600081611e5984614259565b101580156108d55750611e6b836142e6565b82109392505050565b603360009054906101000a90046001600160a01b03166001600160a01b031663f17063756040518163ffffffff1660e01b815260040160206040518083038186803b158015611ec257600080fd5b505afa158015611ed6573d6000803e3d6000fd5b505050506040513d601f19601f82011682018060405250810190611efa91906160b7565b15611f175760405162461bcd60e51b815260040161073a906160d4565b611f213382614f4d565b6040518181527f12b02b431a920654430b36652724950afbd1e5279648b404790dbd036b1a58a79060200160405180910390a1611d90614d26565b60606038805461060490616082565b60d06020528160005260406000208181548110611f8757600080fd5b6000918252602090912060079091020180546001820154600283015460058401546006909401546001600160a01b0390931695509093506001600160c01b03908116929190811690600160c01b900460ff1686565b60003381611fea8286613a23565b90508381101561204a5760405162461bcd60e51b815260206004820152602560248201527f45524332303a2064656372656173656420616c6c6f77616e63652062656c6f77604482015264207a65726f60d81b606482015260840161073a565b6120578286868403613df4565b506001949350505050565b60335460408051808201909152600581526427aba722a960d91b60208201526001600160a01b03909116906391d148549061209c90616338565b336040516001600160e01b031960e085901b16815260048101929092526001600160a01b0316602482015260440160206040518083038186803b1580156120e257600080fd5b505afa1580156120f6573d6000803e3d6000fd5b505050506040513d601f19601f8201168201806040525081019061211a91906160b7565b6121365760405162461bcd60e51b815260040161073a9061635c565b6000816001600160c01b03161180156121605750670de0b6b3a76400006001600160c01b03821611155b6121a35760405162461bcd60e51b8152602060048201526014602482015273696e76616c69642069737375616e63655261746560601b604482015260640161073a565b60d3546040516001600160c01b038084169216907f730a1a6c7a5c39e09096376bae04892ba49664ed38cce3e9608a119449f47bc090600090a360d380546001600160c01b0319166001600160c01b0392909216919091179055565b6000336106958185856140a3565b603360009054906101000a90046001600160a01b03166001600160a01b031663f17063756040518163ffffffff1660e01b815260040160206040518083038186803b15801561225b57600080fd5b505afa15801561226f573d6000803e3d6000fd5b505050506040513d601f19601f8201168201806040525081019061229391906160b7565b156122b05760405162461bcd60e51b815260040161073a906160d4565b60335460408051634bcebf4360e11b815290516000926001600160a01b03169163979d7e86916004808301926020929190829003018186803b1580156122f557600080fd5b505afa158015612309573d6000803e3d6000fd5b505050506040513d601f19601f8201168201806040525081019061232d9190616114565b6040516366f15f4560e11b81526001600160a01b038481166004830152919091169063cde2be8a9060240160206040518083038186803b15801561237057600080fd5b505afa158015612384573d6000803e3d6000fd5b505050506040513d601f19601f820116820180604052508101906123a89190616114565b6040805160048152602481018252602080820180516001600160e01b031663372500ab60e01b179052825180840190935260148352731c995dd85c991cc818db185a5b4819985a5b195960621b908301529192506110eb916001600160a01b03841691614b7e565b603360009054906101000a90046001600160a01b03166001600160a01b031663f17063756040518163ffffffff1660e01b815260040160206040518083038186803b15801561245e57600080fd5b505afa158015612472573d6000803e3d6000fd5b505050506040513d601f19601f8201168201806040525081019061249691906160b7565b156124b35760405162461bcd60e51b815260040161073a906160d4565b60335460408051634bcebf4360e11b815290516000926001600160a01b03169163979d7e86916004808301926020929190829003018186803b1580156124f857600080fd5b505afa15801561250c573d6000803e3d6000fd5b505050506040513d601f19601f820116820180604052508101906125309190616114565b6001600160a01b0316632510a1d76040518163ffffffff1660e01b815260040160006040518083038186803b15801561256857600080fd5b505afa15801561257c573d6000803e3d6000fd5b505050506040513d6000823e601f3d908101601f191682016040526125a4919081019061628d565b90506000603360009054906101000a90046001600160a01b03166001600160a01b031663dc8af5f66040518163ffffffff1660e01b815260040160206040518083038186803b1580156125f657600080fd5b505afa15801561260a573d6000803e3d6000fd5b505050506040513d601f19601f8201168201806040525081019061262e9190616114565b905060005b82518110156110eb57600060d76000858481518110612654576126546161da565b60200260200101516001600160a01b03166001600160a01b031681526020019081526020016000205484838151811061268f5761268f6161da565b60209081029190910101516040516370a0823160e01b81523060048201526001600160a01b03909116906370a082319060240160206040518083038186803b1580156126da57600080fd5b505afa1580156126ee573d6000803e3d6000fd5b505050506040513d601f19601f820116820180604052508101906127129190616385565b61271c9190616321565b9050801561275b5761275b838286858151811061273b5761273b6161da565b60200260200101516001600160a01b0316614bf69092919063ffffffff16565b5061276581616180565b9050612633565b603360009054906101000a90046001600160a01b03166001600160a01b031663f17063756040518163ffffffff1660e01b815260040160206040518083038186803b1580156127ba57600080fd5b505afa1580156127ce573d6000803e3d6000fd5b505050506040513d601f19601f820116820180604052508101906127f291906160b7565b1561280f5760405162461bcd60e51b815260040161073a906160d4565b600081116128535760405162461bcd60e51b815260206004820152601160248201527043616e6e6f74206973737565207a65726f60781b604482015260640161073a565b603360009054906101000a90046001600160a01b03166001600160a01b031663181783586040518163ffffffff1660e01b8152600401600060405180830381600087803b1580156128a357600080fd5b505af11580156128b7573d6000803e3d6000fd5b505050506000603360009054906101000a90046001600160a01b03166001600160a01b0316632f2439b16040518163ffffffff1660e01b815260040160206040518083038186803b15801561290b57600080fd5b505afa15801561291f573d6000803e3d6000fd5b505050506040513d601f19601f820116820180604052508101906129439190616114565b90506000816001600160a01b031663200d2ed26040518163ffffffff1660e01b815260040160206040518083038186803b15801561298057600080fd5b505afa158015612994573d6000803e3d6000fd5b505050506040513d601f19601f820116820180604052508101906129b89190616131565b60028111156129c9576129c96160fe565b14612a075760405162461bcd60e51b815260206004820152600e60248201526d18985cdad95d081d5b9cdbdd5b9960921b604482015260640161073a565b33612a1181614370565b50600080612a1e60365490565b11612a3b57612a3684612a31601261639e565b61508d565b612a5b565b612a5b84612a4860365490565b60d2546001600160c01b0316919061509b565b9050600080846001600160a01b031663c620f0fc8460026040518363ffffffff1660e01b8152600401612a8f9291906163be565b60006040518083038186803b158015612aa757600080fd5b505afa158015612abb573d6000803e3d6000fd5b505050506040513d6000823e601f3d908101601f19168201604052612ae3919081019061645f565b9150915060005b8251811015612bc557818181518110612b0557612b056161da565b602002602001015160d76000858481518110612b2357612b236161da565b60200260200101516001600160a01b03166001600160a01b031681526020019081526020016000206000828254612b5a9190616168565b92505081905550612bb38530848481518110612b7857612b786161da565b6020026020010151868581518110612b9257612b926161da565b60200260200101516001600160a01b03166150b2909392919063ffffffff16565b80612bbd81616180565b915050612aea565b5060335460408051632f2439b160e01b815290516000926001600160a01b031691632f2439b1916004808301926020929190829003018186803b158015612c0b57600080fd5b505afa158015612c1f573d6000803e3d6000fd5b505050506040513d601f19601f82011682018060405250810190612c439190616114565b6001600160a01b031663affed0e06040518163ffffffff1660e01b815260040160206040518083038186803b158015612c7b57600080fd5b505afa158015612c8f573d6000803e3d6000fd5b505050506040513d601f19601f82011682018060405250810190612cb39190616524565b90506000604051806101000160405280876001600160a01b03168152602001898152602001866001600160c01b031681526020018581526020018481526020018365ffffffffffff168152602001612d0a8a6150ea565b6001600160c01b039081168252600060209283018190526001600160a01b038a8116825260d08452604080832080546001808201835591855293869020875160079095020180546001600160a01b031916949093169390931782558585015192820192909255908401516002820180546001600160c01b03191691909316179091556060830151805193945084939192612dac92600385019290910190615b89565b5060808201518051612dc8916004840191602090910190615bde565b5060a0820151600582015560c08201516006909101805460e0909301511515600160c01b026001600160c81b03199093166001600160c01b0390921691909117919091179055612e1960ce876151de565b506001600160a01b038616600090815260d06020526040812054612e3f90600190616321565b905081602001518183600001516001600160a01b03167f686c6d27990d6139603e98d659f15b28e1d6ec26618cde97d822c5ed8fe5f08d8560400151866060015187608001518860c00151604051612e9a949392919061654c565b60405180910390a4612ec5612eae43614f31565b60c08401516001600160c01b039182169116111590565b8015612f5257506000886001600160a01b031663200d2ed26040518163ffffffff1660e01b815260040160206040518083038186803b158015612f0757600080fd5b505afa158015612f1b573d6000803e3d6000fd5b505050506040513d601f19601f82011682018060405250810190612f3f9190616131565b6002811115612f5057612f506160fe565b145b156108ab576000612f6388836146ce565b90508182896001600160a01b03167f576b8228616b6d68b15aa60bbd34bb40a88ae5f2dc97c20db2b35f3ef6c353f984604051612fa291815260200190565b60405180910390a482602001518114612fbd57612fbd6161f0565b6001600160a01b038816600090815260d060205260409020805480612fe457612fe4616206565b60008281526020812060076000199093019283020180546001600160a01b0319168155600181018290556002810180546001600160c01b03191690559061302e6003830182615b6b565b61303c600483016000615b6b565b506000600582015560060180546001600160c81b0319169055905550505050505050505050565b834211156130b35760405162461bcd60e51b815260206004820152601d60248201527f45524332305065726d69743a206578706972656420646561646c696e65000000604482015260640161073a565b60007f6e71edae12b1b97f4d1f60370fef10105fa2faae0126114a169c64845d6126c98888886130e28c6151f3565b6040805160208101969096526001600160a01b0394851690860152929091166060840152608083015260a082015260c0810186905260e00160405160208183030381529060405280519060200120905073__$2d1f1df91c509134c97a9b37f5a8e18539$__634a42ee80896131568461521b565b6040516001600160e01b031960e085901b1681526001600160a01b039092166004830152602482015260ff87166044820152606481018690526084810185905260a40160006040518083038186803b1580156131b157600080fd5b505af41580156131c5573d6000803e3d6000fd5b505050506131d4888888613df4565b5050505050505050565b603360009054906101000a90046001600160a01b03166001600160a01b031663054f7d9c6040518163ffffffff1660e01b815260040160206040518083038186803b15801561322c57600080fd5b505afa158015613240573d6000803e3d6000fd5b505050506040513d601f19601f8201168201806040525081019061326491906160b7565b1561329a5760405162461bcd60e51b8152602060048201526006602482015265333937bd32b760d11b604482015260640161073a565b600081116132df5760405162461bcd60e51b815260206004820152601260248201527143616e6e6f742072656465656d207a65726f60701b604482015260640161073a565b806132e933610421565b101561332b5760405162461bcd60e51b81526020600482015260116024820152703737ba1032b737bab3b410292a37b5b2b760791b604482015260640161073a565b603360009054906101000a90046001600160a01b03166001600160a01b031663979d7e866040518163ffffffff1660e01b815260040160206040518083038186803b15801561337957600080fd5b505afa15801561338d573d6000803e3d6000fd5b505050506040513d601f19601f820116820180604052508101906133b19190616114565b6001600160a01b031663f8ac93e86040518163ffffffff1660e01b8152600401600060405180830381600087803b1580156133eb57600080fd5b505af11580156133ff573d6000803e3d6000fd5b50505050603360009054906101000a90046001600160a01b03166001600160a01b031663656e96e16040518163ffffffff1660e01b815260040160206040518083038186803b15801561345157600080fd5b505afa158015613465573d6000803e3d6000fd5b505050506040513d601f19601f820116820180604052508101906134899190616114565b6001600160a01b0316635220f5106040518163ffffffff1660e01b8152600401600060405180830381600087803b1580156134c357600080fd5b505af19250505080156134d4575060015b5060335460408051632f2439b160e01b815290516000926001600160a01b031691632f2439b1916004808301926020929190829003018186803b15801561351a57600080fd5b505afa15801561352e573d6000803e3d6000fd5b505050506040513d601f19601f820116820180604052508101906135529190616114565b90506002816001600160a01b031663200d2ed26040518163ffffffff1660e01b815260040160206040518083038186803b15801561358f57600080fd5b505afa1580156135a3573d6000803e3d6000fd5b505050506040513d601f19601f820116820180604052508101906135c79190616131565b60028111156135d8576135d86160fe565b141561361b5760405162461bcd60e51b815260206004820152601260248201527118dbdb1b185d195c985b08191959985d5b1d60721b604482015260640161073a565b600061362a83612a4860365490565b60d2549091506001600160c01b03908116908216111561364c5761364c6161f0565b604080516001600160c01b03831681529051849133917f669d5d69fbac2341ef767e638892e6bc8f663ef889d9e82933a66e70d24389789181900360200190a3600080836001600160a01b031663c620f0fc8460006040518363ffffffff1660e01b81526004016136be9291906163be565b60006040518083038186803b1580156136d657600080fd5b505afa1580156136ea573d6000803e3d6000fd5b505050506040513d6000823e601f3d908101601f19168201604052613712919081019061645f565b91509150600061373c61372460365490565b61372d88614f31565b6001600160c01b031690615269565b905061375361374a60365490565b60d49088615277565b61375d3387614f4d565b60d2547f0b0ca69be72e0611a1f79eedf91aece404ff14cb8fcfd0c997a72b68d4fdd478906001600160c01b03166137958187615335565b604080516001600160c01b0393841681529290911660208301520160405180910390a160d2546137ce906001600160c01b031685615335565b60d280546001600160c01b0319166001600160c01b039290921691909117905560335460408051636e457afb60e11b815290516000926001600160a01b03169163dc8af5f6916004808301926020929190829003018186803b15801561383357600080fd5b505afa158015613847573d6000803e3d6000fd5b505050506040513d601f19601f8201168201806040525081019061386b9190616114565b9050600160005b85518110156139e157600086828151811061388f5761388f6161da565b60209081029190910101516040516370a0823160e01b81526001600160a01b038681166004830152909116906370a082319060240160206040518083038186803b1580156138dc57600080fd5b505afa1580156138f0573d6000803e3d6000fd5b505050506040513d601f19601f820116820180604052508101906139149190616385565b9050600061392b6001600160c01b03871683615341565b9050613950878481518110613942576139426161da565b60200260200101518261535f565b878481518110613962576139626161da565b6020026020010181815250506000878481518110613982576139826161da565b602002602001015111156139cc576139c185338986815181106139a7576139a76161da565b60200260200101518b8781518110612b9257612b926161da565b83156139cc57600093505b505080806139d990616180565b915050613872565b5080156131d45760405162461bcd60e51b815260206004820152601060248201526f22b6b83a3c903932b232b6b83a34b7b760811b604482015260640161073a565b6001600160a01b03918216600090815260356020908152604080832093909416825291909152205490565b603360009054906101000a90046001600160a01b03166001600160a01b031663f17063756040518163ffffffff1660e01b815260040160206040518083038186803b158015613a9c57600080fd5b505afa158015613ab0573d6000803e3d6000fd5b505050506040513d601f19601f82011682018060405250810190613ad491906160b7565b15613af15760405162461bcd60e51b815260040161073a906160d4565b603360009054906101000a90046001600160a01b03166001600160a01b031663979d7e866040518163ffffffff1660e01b815260040160206040518083038186803b158015613b3f57600080fd5b505afa158015613b53573d6000803e3d6000fd5b505050506040513d601f19601f82011682018060405250810190613b779190616114565b60405163c3c5a54760e01b81526001600160a01b038381166004830152919091169063c3c5a5479060240160206040518083038186803b158015613bba57600080fd5b505afa158015613bce573d6000803e3d6000fd5b505050506040513d601f19601f82011682018060405250810190613bf291906160b7565b613c335760405162461bcd60e51b8152602060048201526012602482015271195c98cc8c081d5b9c9959da5cdd195c995960721b604482015260640161073a565b6001600160a01b038116600081815260d760205260408082205490516370a0823160e01b8152306004820152919290916370a082319060240160206040518083038186803b158015613c8457600080fd5b505afa158015613c98573d6000803e3d6000fd5b505050506040513d601f19601f82011682018060405250810190613cbc9190616385565b613cc69190616321565b90508015610d7b5760335460408051636e457afb60e11b81529051613d5d926001600160a01b03169163dc8af5f6916004808301926020929190829003018186803b158015613d1457600080fd5b505afa158015613d28573d6000803e3d6000fd5b505050506040513d601f19601f82011682018060405250810190613d4c9190616114565b6001600160a01b0384169083614bf6565b6001600160a01b038216600081815260d76020526040908190205490516370a0823160e01b81523060048201529091906370a082319060240160206040518083038186803b158015613dae57600080fd5b505afa158015613dc2573d6000803e3d6000fd5b505050506040513d601f19601f82011682018060405250810190613de69190616385565b1015610d7b57610d7b6161f0565b6001600160a01b038316613e565760405162461bcd60e51b8152602060048201526024808201527f45524332303a20617070726f76652066726f6d20746865207a65726f206164646044820152637265737360e01b606482015260840161073a565b6001600160a01b038216613eb75760405162461bcd60e51b815260206004820152602260248201527f45524332303a20617070726f766520746f20746865207a65726f206164647265604482015261737360f01b606482015260840161073a565b6001600160a01b0383811660008181526035602090815260408083209487168084529482529182902085905590518481527f8c5be1e5ebec7d5bd14f71427d1e84f3dd0314c0f7b2291e5b200ac8c7c3b925910160405180910390a3505050565b600054610100900460ff16613f3f5760405162461bcd60e51b815260040161073a906165f3565b6001600160a01b038116613f8c5760405162461bcd60e51b81526020600482015260146024820152736d61696e206973207a65726f206164647265737360601b604482015260640161073a565b603380546001600160a01b0319166001600160a01b0392909216919091179055565b600054610100900460ff16613fd55760405162461bcd60e51b815260040161073a906165f3565b610d7b8282615375565b600054610100900460ff166140065760405162461bcd60e51b815260040161073a906165f3565b611d9081604051806040016040528060018152602001603160f81b8152506153c3565b60006140358484613a23565b9050600019811461409d57818110156140905760405162461bcd60e51b815260206004820152601d60248201527f45524332303a20696e73756666696369656e7420616c6c6f77616e6365000000604482015260640161073a565b61409d8484848403613df4565b50505050565b6001600160a01b0383166141075760405162461bcd60e51b815260206004820152602560248201527f45524332303a207472616e736665722066726f6d20746865207a65726f206164604482015264647265737360d81b606482015260840161073a565b6001600160a01b0382166141695760405162461bcd60e51b815260206004820152602360248201527f45524332303a207472616e7366657220746f20746865207a65726f206164647260448201526265737360e81b606482015260840161073a565b614174838383615404565b6001600160a01b038316600090815260346020526040902054818110156141ec5760405162461bcd60e51b815260206004820152602660248201527f45524332303a207472616e7366657220616d6f756e7420657863656564732062604482015265616c616e636560d01b606482015260840161073a565b6001600160a01b0380851660008181526034602052604080822086860390559286168082529083902080548601905591517fddf252ad1be2c89b69c2b068fc378daa952ba7f163c4a11628f55a4df523b3ef9061424c9086815260200190565b60405180910390a361409d565b6001600160a01b038116600090815260d06020526040812081805b82548110156142de576000838281548110614291576142916161da565b906000526020600020906007020190508060060160189054906101000a900460ff166142bd57506142de565b826142c781616180565b9350505080806142d690616180565b915050614274565b509392505050565b6001600160a01b038116600090815260d0602052604081208161430884614259565b9050805b82548110156142de576000838281548110614329576143296161da565b906000526020600020906007020190508060060160189054906101000a900460ff1661435d578261435981616180565b9350505b508061436881616180565b91505061430c565b600080603360009054906101000a90046001600160a01b03166001600160a01b0316632f2439b16040518163ffffffff1660e01b815260040160206040518083038186803b1580156143c157600080fd5b505afa1580156143d5573d6000803e3d6000fd5b505050506040513d601f19601f820116820180604052508101906143f99190616114565b6001600160a01b031663affed0e06040518163ffffffff1660e01b815260040160206040518083038186803b15801561443157600080fd5b505afa158015614445573d6000803e3d6000fd5b505050506040513d601f19601f820116820180604052508101906144699190616524565b90506000808080805b6001600160a01b038816600090815260d06020526040902054811015614599576001600160a01b038816600090815260d0602052604081208054839081106144bc576144bc6161da565b906000526020600020906007020190508060060160189054906101000a900460ff161580156144f757508665ffffffffffff16816005015414155b1561458657600181015461450b9086616168565b945085614516578193505b6001955060005b6003820154811015614562578154600483018054614550926001600160a01b03169190849081106114de576114de6161da565b8061455a81616180565b91505061451d565b5060068101805460ff60c01b1916600160c01b179055614583826001616168565b92505b508061459181616180565b915050614472565b5083156146c3578082886001600160a01b03167f8d02f355336bad9d0d69b8a6a40a439e836b5ef070029ea58da8e474b237b5f2866040516145dd91815260200190565b60405180910390a46001600160a01b038716600090815260d0602052604081205461460a9060019061619b565b90505b600081126146c1576001600160a01b038816600090815260d06020526040902080548061463c5761463c616206565b60008281526020812060076000199093019283020180546001600160a01b0319168155600181018290556002810180546001600160c01b0319169055906146866003830182615b6b565b614694600483016000615b6b565b506000600582015560060180546001600160c81b03191690559055806146b98161621c565b91505061460d565b505b509195945050505050565b6001600160a01b038216600090815260d0602052604081208054829190849081106146fb576146fb6161da565b906000526020600020906007020190506000603360009054906101000a90046001600160a01b03166001600160a01b0316632f2439b16040518163ffffffff1660e01b815260040160206040518083038186803b15801561475b57600080fd5b505afa15801561476f573d6000803e3d6000fd5b505050506040513d601f19601f820116820180604052508101906147939190616114565b6001600160a01b031663affed0e06040518163ffffffff1660e01b815260040160206040518083038186803b1580156147cb57600080fd5b505afa1580156147df573d6000803e3d6000fd5b505050506040513d601f19601f820116820180604052508101906148039190616524565b905061482861481143614f31565b60068401546001600160c01b039182169116111590565b6148695760405162461bcd60e51b815260206004820152601260248201527169737375616e6365206e6f7420726561647960701b604482015260640161073a565b8065ffffffffffff16826005015414614884576148846161f0565b6006820154600160c01b900460ff16614afb5760005b60038301548110156149dd578260040181815481106148bb576148bb6161da565b906000526020600020015460d760008560030184815481106148df576148df6161da565b60009182526020808320909101546001600160a01b0316835282019290925260400181208054909190614913908490616321565b909155505060335460408051636e457afb60e11b815290516149cb926001600160a01b03169163dc8af5f6916004808301926020929190829003018186803b15801561495e57600080fd5b505afa158015614972573d6000803e3d6000fd5b505050506040513d601f19601f820116820180604052508101906149969190616114565b8460040183815481106149ab576149ab6161da565b90600052602060002001548560030184815481106114fe576114fe6161da565b806149d581616180565b91505061489a565b50815460018301546149f8916001600160a01b031690614c59565b600182015460d25460028401549194507f0b0ca69be72e0611a1f79eedf91aece404ff14cb8fcfd0c997a72b68d4fdd478916001600160c01b0391821691614a429183911661545d565b604080516001600160c01b0393841681529290911660208301520160405180910390a1600282015460d254614a83916001600160c01b03918216911661545d565b60d280546001600160c01b039283166001600160c01b031990911617905560068301805460ff60c01b1916600160c01b179055600283015460018401546040519190921691906001600160a01b038816907f641331aa871befdfc51e26035df6c966f4b582230d04abe254f92f16f4b8184b90600090a45b505092915050565b6000610da97f8b73c3c69bb8fe3d512ecc4cf759cc79239f7b179b0ffacaa9a75d522b39400f614b3260665490565b6067546040805160208101859052908101839052606081018290524660808201523060a082015260009060c0016040516020818303038152906040528051906020012090509392505050565b6060600080856001600160a01b031685604051614b9b919061663e565b600060405180830381855af49150503d8060008114614bd6576040519150601f19603f3d011682016040523d82523d6000602084013e614bdb565b606091505b5091509150614bec86838387615469565b9695505050505050565b6040516001600160a01b0383166024820152604481018290526110eb90849063a9059cbb60e01b906064015b60408051601f198184030181529190526020810180516001600160e01b03166001600160e01b0319909316929092179091526154df565b6001600160a01b038216614caf5760405162461bcd60e51b815260206004820152601f60248201527f45524332303a206d696e7420746f20746865207a65726f206164647265737300604482015260640161073a565b614cbb60008383615404565b8060366000828254614ccd9190616168565b90915550506001600160a01b0382166000818152603460209081526040808320805486019055518481527fddf252ad1be2c89b69c2b068fc378daa952ba7f163c4a11628f55a4df523b3ef910160405180910390a35050565b6000614d3160365490565b905080614d3b5750565b60d2546000908290614d5e906001600160c01b0316670de0b6b3a764000061665a565b614d68919061668f565b9050600082614d78600182616321565b60d254614d96906001600160c01b0316670de0b6b3a764000061665a565b614da09190616168565b614daa919061668f565b90506001600160c01b038211801590614dca57506001600160c01b038111155b8015614dfd5750614de7633b9aca00670de0b6b3a76400006166a3565b6001600160c01b0316826001600160c01b031610155b8015614e305750614e1a670de0b6b3a7640000633b9aca0061623a565b6001600160c01b0316816001600160c01b031611155b6110eb5760405162461bcd60e51b815260206004820152601460248201527342552072617465206f7574206f662072616e676560601b604482015260640161073a565b60018201546000908190670de0b6b3a764000090614e9a906001600160c01b03168561665a565b614ea4919061668f565b90508084600001541115614eb6575082545b6001840154600090614ed790600160c01b900465ffffffffffff16436166c9565b905061012c614eee65ffffffffffff83168461665a565b614ef8919061668f565b8560020154614f079190616168565b92506000848311614f185782614f1a565b845b905080841115614f28578093505b50505092915050565b600061069b614f48670de0b6b3a76400008461665a565b6155b1565b6001600160a01b038216614fad5760405162461bcd60e51b815260206004820152602160248201527f45524332303a206275726e2066726f6d20746865207a65726f206164647265736044820152607360f81b606482015260840161073a565b614fb982600083615404565b6001600160a01b0382166000908152603460205260409020548181101561502d5760405162461bcd60e51b815260206004820152602260248201527f45524332303a206275726e20616d6f756e7420657863656564732062616c616e604482015261636560f01b606482015260840161073a565b6001600160a01b03831660008181526034602090815260408083208686039055603680548790039055518581529192917fddf252ad1be2c89b69c2b068fc378daa952ba7f163c4a11628f55a4df523b3ef910160405180910390a3505050565b60006108d5838360006155df565b60006150aa84848460006156a5565b949350505050565b6040516001600160a01b038085166024830152831660448201526064810182905261409d9085906323b872dd60e01b90608401614c22565b6000806151146151036150fe600143616321565b614f31565b60d1546001600160c01b03166156c8565b43600090815260cd602052604090205490915061517f5761516e615142670de0b6b3a764000061271061623a565b6001600160c01b031661516961515760365490565b60d3546001600160c01b031690615341565b6156e9565b43600090815260cd60205260409020555b43600090815260cd60205260409020546151b76151a7670de0b6b3a7640000868460026156a5565b6001600160c01b0384169061545d565b60d180546001600160c01b0319166001600160c01b03929092169182179055949350505050565b60006108d5836001600160a01b0384166156f8565b6001600160a01b0381166000908152609a602052604090208054600181018255905b50919050565b600061069b615228614b03565b8360405161190160f01b6020820152602281018390526042810182905260009060620160405160208183030381529060405280519060200120905092915050565b60006108d583836000615747565b8254158015615291575060018301546001600160c01b0316155b1561529b57505050565b60006152a78484614e73565b9050808211156152f95760405162461bcd60e51b815260206004820152601f60248201527f726564656d7074696f6e206261747465727920696e73756666696369656e7400604482015260640161073a565b60018401805465ffffffffffff60c01b1916600160c01b4365ffffffffffff16021790556153278282616321565b846002018190555050505050565b60006108d582846166f0565b60006108d56001600160c01b03841683670de0b6b3a7640000615760565b600081831061536e57816108d5565b5090919050565b600054610100900460ff1661539c5760405162461bcd60e51b815260040161073a906165f3565b81516153af906037906020850190615c19565b5080516110eb906038906020840190615c19565b600054610100900460ff166153ea5760405162461bcd60e51b815260040161073a906165f3565b815160209283012081519190920120606691909155606755565b6001600160a01b0382163014156110eb5760405162461bcd60e51b815260206004820152601760248201527f52546f6b656e207472616e7366657220746f2073656c66000000000000000000604482015260640161073a565b60006108d58284616710565b606083156154d55782516154ce576001600160a01b0385163b6154ce5760405162461bcd60e51b815260206004820152601d60248201527f416464726573733a2063616c6c20746f206e6f6e2d636f6e7472616374000000604482015260640161073a565b50816150aa565b6150aa8383615843565b6000615534826040518060400160405280602081526020017f5361666545524332303a206c6f772d6c6576656c2063616c6c206661696c6564815250856001600160a01b031661586d9092919063ffffffff16565b8051909150156110eb578080602001905181019061555291906160b7565b6110eb5760405162461bcd60e51b815260206004820152602a60248201527f5361666545524332303a204552433230206f7065726174696f6e20646964206e6044820152691bdd081cdd58d8d9595960b21b606482015260840161073a565b60006001600160c01b038211156155db5760405163f44398f560e01b815260040160405180910390fd5b5090565b6000836155ee575060006108d5565b605f198360000b1361562757600282600281111561560e5761560e6160fe565b1461561a57600061561d565b60015b60ff1690506108d5565b8260000b60281361564b5760405163f44398f560e01b815260040160405180910390fd5b61565660128461673b565b925060006156668460000b61587c565b61567190600a61685a565b90506000808560000b12156156905761568b868386615894565b61569a565b61569a828761665a565b9050614bec816155b1565b60006156bf614f48866001600160c01b0316868686615934565b95945050505050565b6000816001600160c01b0316836001600160c01b03161161536e57816108d5565b600081831161536e57816108d5565b600081815260018301602052604081205461573f5750815460018181018455600084815260208082209093018490558454848252828601909352604090209190915561069b565b50600061069b565b60006150aa614f48856001600160c01b03168585615894565b600080600061576f86866159e3565b915091508382106157935760405163f44398f560e01b815260040160405180910390fd5b600084806157a3576157a3616679565b8688099050818111156157b7576001830392505b9081900390600085900385168086816157d2576157d2616679565b0495508083816157e4576157e4616679565b0492508081600003816157f9576157f9616679565b046001019390930291909101600285810380870282030280870282030280870282030280870282030280870282030280870282030295860290039094029390930295945050505050565b8151156158535781518083602001fd5b8060405162461bcd60e51b815260040161073a9190615ccd565b60606150aa8484600085615a10565b600080821261588b578161069b565b61069b82616866565b6000806158a1848661668f565b905060008360028111156158b7576158b76160fe565b14156158c45790506108d5565b60018360028111156158d8576158d86160fe565b14156159185760026158eb600186616321565b6158f5919061668f565b6158ff8587616883565b1115615913578061590f81616180565b9150505b6150aa565b60006159248587616883565b11156150aa5780614bec81616180565b600080615942868686615760565b90506000836002811115615958576159586160fe565b14156159655790506150aa565b6000848061597557615975616679565b8688099050600284600281111561598e5761598e6160fe565b14156159ad5780156159a8576159a5600183616168565b91505b6159d9565b60026159ba600187616321565b6159c4919061668f565b8111156159d9576159d6600183616168565b91505b5095945050505050565b6000808060001984860990508385029150818103925081811015615a08576001830392505b509250929050565b606082471015615a715760405162461bcd60e51b815260206004820152602660248201527f416464726573733a20696e73756666696369656e742062616c616e636520666f6044820152651c8818d85b1b60d21b606482015260840161073a565b600080866001600160a01b03168587604051615a8d919061663e565b60006040518083038185875af1925050503d8060008114615aca576040519150601f19603f3d011682016040523d82523d6000602084013e615acf565b606091505b5091509150615ae087838387615469565b979650505050505050565b828054615af790616082565b90600052602060002090601f016020900481019282615b195760008555615b5f565b82601f10615b325782800160ff19823516178555615b5f565b82800160010185558215615b5f579182015b82811115615b5f578235825591602001919060010190615b44565b506155db929150615c8c565b5080546000825590600052602060002090810190611d909190615c8c565b828054828255906000526020600020908101928215615b5f579160200282015b82811115615b5f57825182546001600160a01b0319166001600160a01b03909116178255602090920191600190910190615ba9565b828054828255906000526020600020908101928215615b5f579160200282015b82811115615b5f578251825591602001919060010190615bfe565b828054615c2590616082565b90600052602060002090601f016020900481019282615c475760008555615b5f565b82601f10615c6057805160ff1916838001178555615b5f565b82800160010185558215615b5f5791820182811115615b5f578251825591602001919060010190615bfe565b5b808211156155db5760008155600101615c8d565b60005b83811015615cbc578181015183820152602001615ca4565b8381111561409d5750506000910152565b6020815260008251806020840152615cec816040850160208701615ca1565b601f01601f19169190910160400192915050565b6001600160a01b0381168114611d9057600080fd5b60008060408385031215615d2857600080fd5b8235615d3381615d00565b946020939093013593505050565b634e487b7160e01b600052604160045260246000fd5b604051601f8201601f1916810167ffffffffffffffff81118282101715615d8057615d80615d41565b604052919050565b600082601f830112615d9957600080fd5b813567ffffffffffffffff811115615db357615db3615d41565b615dc6601f8201601f1916602001615d57565b818152846020838601011115615ddb57600080fd5b816020850160208301376000918101602001919091529392505050565b80356001600160c01b0381168114615e0f57600080fd5b919050565b60008060008060008060008060e0898b031215615e3057600080fd5b8835615e3b81615d00565b9750602089013567ffffffffffffffff80821115615e5857600080fd5b615e648c838d01615d88565b985060408b0135915080821115615e7a57600080fd5b615e868c838d01615d88565b975060608b0135915080821115615e9c57600080fd5b818b0191508b601f830112615eb057600080fd5b813581811115615ebf57600080fd5b8c6020828501011115615ed157600080fd5b602083019750809650505050615ee960808a01615df8565b9250615ef760a08a01615df8565b915060c089013590509295985092959890939650565b600080600060608486031215615f2257600080fd5b8335615f2d81615d00565b92506020840135615f3d81615d00565b929592945050506040919091013590565b8015158114611d9057600080fd5b60008060408385031215615f6f57600080fd5b823591506020830135615f8181615f4e565b809150509250929050565b600060208284031215615f9e57600080fd5b5035919050565b600060208284031215615fb757600080fd5b6108d582615df8565b600060208284031215615fd257600080fd5b81356108d581615d00565b600080600080600080600060e0888a031215615ff857600080fd5b873561600381615d00565b9650602088013561601381615d00565b95506040880135945060608801359350608088013560ff8116811461603757600080fd5b9699959850939692959460a0840135945060c09093013592915050565b6000806040838503121561606757600080fd5b823561607281615d00565b91506020830135615f8181615d00565b600181811c9082168061609657607f821691505b6020821081141561521557634e487b7160e01b600052602260045260246000fd5b6000602082840312156160c957600080fd5b81516108d581615f4e565b60208082526010908201526f3830bab9b2b21037b910333937bd32b760811b604082015260600190565b634e487b7160e01b600052602160045260246000fd5b60006020828403121561612657600080fd5b81516108d581615d00565b60006020828403121561614357600080fd5b8151600381106108d557600080fd5b634e487b7160e01b600052601160045260246000fd5b6000821982111561617b5761617b616152565b500190565b600060001982141561619457616194616152565b5060010190565b60008083128015600160ff1b8501841216156161b9576161b9616152565b6001600160ff1b03840183138116156161d4576161d4616152565b50500390565b634e487b7160e01b600052603260045260246000fd5b634e487b7160e01b600052600160045260246000fd5b634e487b7160e01b600052603160045260246000fd5b6000600160ff1b82141561623257616232616152565b506000190190565b60006001600160c01b038281168482168115158284048211161561626057616260616152565b02949350505050565b600067ffffffffffffffff82111561628357616283615d41565b5060051b60200190565b600060208083850312156162a057600080fd5b825167ffffffffffffffff8111156162b757600080fd5b8301601f810185136162c857600080fd5b80516162db6162d682616269565b615d57565b81815260059190911b820183019083810190878311156162fa57600080fd5b928401925b82841015615ae057835161631281615d00565b825292840192908401906162ff565b60008282101561633357616333616152565b500390565b805160208083015191908110156152155760001960209190910360031b1b16919050565b6020808252600f908201526e676f7665726e616e6365206f6e6c7960881b604082015260600190565b60006020828403121561639757600080fd5b5051919050565b600081810b607f198114156163b5576163b5616152565b60000392915050565b6001600160c01b038316815260408101600383106163ec57634e487b7160e01b600052602160045260246000fd5b8260208301529392505050565b600082601f83011261640a57600080fd5b8151602061641a6162d683616269565b82815260059290921b8401810191818101908684111561643957600080fd5b8286015b84811015616454578051835291830191830161643d565b509695505050505050565b6000806040838503121561647257600080fd5b825167ffffffffffffffff8082111561648a57600080fd5b818501915085601f83011261649e57600080fd5b815160206164ae6162d683616269565b82815260059290921b840181019181810190898411156164cd57600080fd5b948201945b838610156164f45785516164e581615d00565b825294820194908201906164d2565b9188015191965090935050508082111561650d57600080fd5b5061651a858286016163f9565b9150509250929050565b60006020828403121561653657600080fd5b815165ffffffffffff811681146108d557600080fd5b6001600160c01b0385168152608060208083018290528551918301829052600091868201919060a0850190845b8181101561659e5784516001600160a01b031683529383019391830191600101616579565b50508481036040860152865180825290820192508187019060005b818110156165d5578251855293830193918301916001016165b9565b5050506001600160c01b038516606085015250905095945050505050565b6020808252602b908201527f496e697469616c697a61626c653a20636f6e7472616374206973206e6f74206960408201526a6e697469616c697a696e6760a81b606082015260800190565b60008251616650818460208701615ca1565b9190910192915050565b600081600019048311821515161561667457616674616152565b500290565b634e487b7160e01b600052601260045260246000fd5b60008261669e5761669e616679565b500490565b60006001600160c01b03838116806166bd576166bd616679565b92169190910492915050565b600065ffffffffffff838116908316818110156166e8576166e8616152565b039392505050565b60006001600160c01b03838116908316818110156166e8576166e8616152565b60006001600160c01b0382811684821680830382111561673257616732616152565b01949350505050565b60008160000b8360000b6000821282607f0382138115161561675f5761675f616152565b82607f1903821281161561677557616775616152565b50019392505050565b600181815b80851115615a0857816000190482111561679f5761679f616152565b808516156167ac57918102915b93841c9390800290616783565b6000826167c85750600161069b565b816167d55750600061069b565b81600181146167eb57600281146167f557616811565b600191505061069b565b60ff84111561680657616806616152565b50506001821b61069b565b5060208310610133831016604e8410600b8410161715616834575081810a61069b565b61683e838361677e565b806000190482111561685257616852616152565b029392505050565b60006108d583836167b9565b6000600160ff1b82141561687c5761687c616152565b5060000390565b60008261689257616892616679565b50069056fea2646970667358221220ff010c55bf7d57856854b2b7ceebeeb2c92e8886d7703e830df3a27a5f94529264736f6c6343000809003360a06040527f6e71edae12b1b97f4d1f60370fef10105fa2faae0126114a169c64845d6126c960805234801561003457600080fd5b50608051613f0b6100506000396000611b7e0152613f0b6000f3fe608060405234801561001057600080fd5b50600436106102065760003560e01c806371664e491161011a578063cf9649e1116100ad578063dd62ed3e1161007c578063dd62ed3e1461047b578063dffeadd0146104b4578063e88dc5b7146104df578063eb58a8a8146104f8578063f3fef3a31461050b57600080fd5b8063cf9649e11461033e578063d505accf14610446578063d591101f14610459578063d7ccc2751461046857600080fd5b8063a457c2d7116100e9578063a457c2d7146103fa578063a694fc3a1461040d578063a9059cbb14610420578063b555450d1461043357600080fd5b806371664e49146103b95780637ecebe00146103cc57806395d89b41146103df578063a439622f146103e757600080fd5b80633644e5151161019d57806349018e411161016c57806349018e411461033e5780634ea4b8431461034957806354fd4d501461035c578063646033bc1461037d57806370a082311461039057600080fd5b80633644e515146102c657806339509351146102ce5780633ba0b9a9146102e1578063422b10771461030157600080fd5b806323b872dd116101d957806323b872dd14610287578063296130861461029a5780632e17de78146102a4578063313ce567146102b757600080fd5b806306fdde031461020b5780630708924614610229578063095ea7b31461025257806318160ddd14610275575b600080fd5b61021361051e565b604051610220919061385d565b60405180910390f35b60755461023b9065ffffffffffff1681565b60405165ffffffffffff9091168152602001610220565b6102656102603660046138a5565b6105b0565b6040519015158152602001610220565b606f545b604051908152602001610220565b6102656102953660046138d1565b6105c7565b6102a26105e9565b005b6102a26102b2366004613912565b61069f565b60405160128152602001610220565b610279610a31565b6102656102dc3660046138a5565b610a40565b6102e9610a7f565b6040516001600160c01b039091168152602001610220565b61031461030f3660046138a5565b610ab1565b604080516001600160a01b0390951685526020850193909352918301526060820152608001610220565b61023b6301e1338081565b6102a2610357366004613a00565b610b01565b6040805180820190915260058152640312e322e360dc1b6020820152610213565b6076546102e9906001600160c01b031681565b61027961039e366004613aa7565b6001600160a01b03166000908152606b602052604090205490565b6102a26103c7366004613ac4565b610df6565b6102796103da366004613aa7565b61101f565b61021361103d565b6102a26103f5366004613912565b61104c565b6102656104083660046138a5565b6116d4565b6102a261041b366004613912565b611771565b61026561042e3660046138a5565b611ab2565b610279610441366004613aa7565b611abf565b6102a2610454366004613adf565b611b2a565b6102e9670de0b6b3a764000081565b6102a2610476366004613b56565b611c9b565b610279610489366004613b71565b6001600160a01b039182166000908152606c6020908152604080832093909416825291909152205490565b6033546104c7906001600160a01b031681565b6040516001600160a01b039091168152602001610220565b60755461023b90600160301b900465ffffffffffff1681565b6102a2610506366004613ac4565b611e22565b6102a26105193660046138a5565b611fcc565b60606069805461052d90613baa565b80601f016020809104026020016040519081016040528092919081815260200182805461055990613baa565b80156105a65780601f1061057b576101008083540402835291602001916105a6565b820191906000526020600020905b81548152906001019060200180831161058957829003601f168201915b5050505050905090565b60006105bd33848461259f565b5060015b92915050565b60006105d48433846126c3565b6105df848484612755565b5060019392505050565b603360009054906101000a90046001600160a01b03166001600160a01b031663f17063756040518163ffffffff1660e01b815260040160206040518083038186803b15801561063757600080fd5b505afa15801561064b573d6000803e3d6000fd5b505050506040513d601f19601f8201168201806040525081019061066f9190613bdf565b156106955760405162461bcd60e51b815260040161068c90613c01565b60405180910390fd5b61069d612934565b565b603360009054906101000a90046001600160a01b03166001600160a01b031663f17063756040518163ffffffff1660e01b815260040160206040518083038186803b1580156106ed57600080fd5b505afa158015610701573d6000803e3d6000fd5b505050506040513d601f19601f820116820180604052508101906107259190613bdf565b156107425760405162461bcd60e51b815260040161068c90613c01565b33816107875760405162461bcd60e51b815260206004820152601460248201527343616e6e6f74207769746864726177207a65726f60601b604482015260640161068c565b6001600160a01b0381166000908152606b60205260409020548211156107e45760405162461bcd60e51b81526020600482015260126024820152714e6f7420656e6f7567682062616c616e636560701b604482015260640161068c565b603360009054906101000a90046001600160a01b03166001600160a01b031663181783586040518163ffffffff1660e01b8152600401600060405180830381600087803b15801561083457600080fd5b505af1158015610848573d6000803e3d6000fd5b505050506000606f546070548461085f9190613c41565b6108699190613c76565b6001600160a01b0383166000908152606b6020526040812080549293508592909190610896908490613c8a565b9250508190555082606f60008282546108af9190613c8a565b9250508190555080607060008282546108c89190613c8a565b90915550506001600160a01b03821660009081526074602052604081205490816108f3576000610939565b6001600160a01b0384166000908152607460205260409020610916600184613c8a565b8154811061092657610926613ca1565b9060005260206000209060040201600301545b60755490915060009061095e906109589065ffffffffffff1642613cb7565b83612add565b6001600160a01b03868116600081815260746020908152604080832081516080810183528581528084018c81528184018f815260608084018b8152855460018082018855968a52988890209451600490990290940180546001600160a01b03191698909a16979097178955905192880192909255905160028701555160039095019490945560735484518a81529182018c9052938101859052939450909286917f1a9484bd0ef282a993728aef393a723fbc6fdc06f16c98befba1b4e3a8a7a3f8910160405180910390a4505050505050565b6000610a3b612af3565b905090565b336000818152606c602090815260408083206001600160a01b03871684529091528120549091906105df9082908690610a7a908790613cb7565b61259f565b600060705460001480610a925750606f54155b610aa457610a3b607054606f54612b6e565b50670de0b6b3a764000090565b60746020528160005260406000208181548110610acd57600080fd5b600091825260209091206004909102018054600182015460028301546003909301546001600160a01b039092169450925084565b600054610100900460ff1615808015610b215750600054600160ff909116105b80610b3b5750303b158015610b3b575060005460ff166001145b610b9e5760405162461bcd60e51b815260206004820152602e60248201527f496e697469616c697a61626c653a20636f6e747261637420697320616c72656160448201526d191e481a5b9a5d1a585b1a5e995960921b606482015260840161068c565b6000805460ff191660011790558015610bc1576000805461ff0019166101001790555b6000865111610bff5760405162461bcd60e51b815260206004820152600a6024820152696e616d6520656d70747960b01b604482015260640161068c565b6000855111610c3f5760405162461bcd60e51b815260206004820152600c60248201526b73796d626f6c20656d70747960a01b604482015260640161068c565b610c4887612b8b565b610c6b86604051806040016040528060018152602001603160f81b815250612c21565b8551610c7e906069906020890190613747565b508451610c9290606a906020880190613747565b5042607181905550866001600160a01b031663c99dc3dd6040518163ffffffff1660e01b815260040160206040518083038186803b158015610cd357600080fd5b505afa158015610ce7573d6000803e3d6000fd5b505050506040513d601f19601f82011682018060405250810190610d0b9190613ccf565b6040516370a0823160e01b81523060048201526001600160a01b0391909116906370a082319060240160206040518083038186803b158015610d4c57600080fd5b505afa158015610d60573d6000803e3d6000fd5b505050506040513d601f19601f82011682018060405250810190610d849190613cec565b607255610d9084611e22565b610d9983610df6565b610da282611c9b565b60016073558015610ded576000805461ff0019169055604051600181527f7f26b83ff96e1f2b6a682f133852f6798a09c465da95921460cefb38474024989060200160405180910390a15b50505050505050565b60335460408051808201909152600581526427aba722a960d91b60208201526001600160a01b03909116906391d1485490610e3090613d05565b336040516001600160e01b031960e085901b16815260048101929092526001600160a01b0316602482015260440160206040518083038186803b158015610e7657600080fd5b505afa158015610e8a573d6000803e3d6000fd5b505050506040513d601f19601f82011682018060405250810190610eae9190613bdf565b610eca5760405162461bcd60e51b815260040161068c90613d29565b60008165ffffffffffff16118015610eee57506301e1338065ffffffffffff821611155b610f315760405162461bcd60e51b81526020600482015260146024820152731a5b9d985b1a59081c995dd85c9914195c9a5bd960621b604482015260640161068c565b60755460405165ffffffffffff80841692600160301b900416907f2b9667710e15f72935a45635aaac962ed42250b852cb7e5a5b30dc5a9a9bef2a90600090a36075805465ffffffffffff808416600160301b9081026bffffffffffff00000000000019841681179485905582169282169290921792610fb5929004166002613d52565b65ffffffffffff16111561101c5760405162461bcd60e51b815260206004820152602860248201527f756e7374616b696e6744656c61792f726577617264506572696f6420696e636f6044820152676d70617469626c6560c01b606482015260840161068c565b50565b6001600160a01b0381166000908152606860205260408120546105c1565b6060606a805461052d90613baa565b603360009054906101000a90046001600160a01b03166001600160a01b031663f17063756040518163ffffffff1660e01b815260040160206040518083038186803b15801561109a57600080fd5b505afa1580156110ae573d6000803e3d6000fd5b505050506040513d601f19601f820116820180604052508101906110d29190613bdf565b156110ef5760405162461bcd60e51b815260040161068c90613c01565b603360009054906101000a90046001600160a01b03166001600160a01b031663dc8af5f66040518163ffffffff1660e01b815260040160206040518083038186803b15801561113d57600080fd5b505afa158015611151573d6000803e3d6000fd5b505050506040513d601f19601f820116820180604052508101906111759190613ccf565b6001600160a01b0316336001600160a01b0316146111cb5760405162461bcd60e51b81526020600482015260136024820152723737ba103130b1b5b4b7339036b0b730b3b2b960691b604482015260640161068c565b600081116112135760405162461bcd60e51b8152602060048201526015602482015274416d6f756e742063616e6e6f74206265207a65726f60581b604482015260640161068c565b600061121d610a7f565b90506000611229612c52565b90506000603360009054906101000a90046001600160a01b03166001600160a01b031663c99dc3dd6040518163ffffffff1660e01b815260040160206040518083038186803b15801561127b57600080fd5b505afa15801561128f573d6000803e3d6000fd5b505050506040513d601f19601f820116820180604052508101906112b39190613ccf565b6040516370a0823160e01b81523060048201526001600160a01b0391909116906370a082319060240160206040518083038186803b1580156112f457600080fd5b505afa158015611308573d6000803e3d6000fd5b505050506040513d601f19601f8201168201806040525081019061132c9190613cec565b9050808411156113895760405162461bcd60e51b815260206004820152602260248201527f43616e6e6f74207365697a65206d6f726520525352207468616e20776520686f6044820152611b1960f21b606482015260840161068c565b60008082611398600182613c8a565b876070546113a69190613c41565b6113b09190613cb7565b6113ba9190613c76565b606f549091506113cf90633b9aca0090612d72565b816070546113dd9190613c8a565b10156113f2576113eb612d90565b915061140f565b80607060008282546114049190613c8a565b925050819055508091505b60008361141d600182613c8a565b88611426612e2f565b6114309190613c41565b61143a9190613cb7565b6114449190613c76565b905061145c611451612eff565b633b9aca0090612d72565b81611465612e2f565b61146f9190613c8a565b101561148e5761147d612fcb565b6114879084613cb7565b92506115a9565b60005b61149b606d613030565b8110156115a75760006074816114b2606d8561303a565b6001600160a01b03166001600160a01b03168152602001908152602001600020905060005b81548110156115925760008282815481106114f4576114f4613ca1565b906000526020600020906004020160010154905060008860018a6115189190613c8a565b6115228e85613c41565b61152c9190613cb7565b6115369190613c76565b90508084848154811061154b5761154b613ca1565b9060005260206000209060040201600101600082825461156b9190613c8a565b9091555061157b90508189613cb7565b97505050808061158a90613d80565b9150506114d7565b5050808061159f90613d80565b915050611491565b505b6000846115b7600182613c8a565b6115c18a89613c41565b6115cb9190613cb7565b6115d59190613c76565b90506115e18185613cb7565b9350838811156115f3576115f3613d9b565b6115fb610a7f565b6001600160c01b0316876001600160c01b03167fa960008f17c9b70495943fe5e4a3c8aed709c7dcafe762f7a89e64743669404360405160405180910390a36116ca336033546040805163c99dc3dd60e01b8152905188926001600160a01b03169163c99dc3dd916004808301926020929190829003018186803b15801561168257600080fd5b505afa158015611696573d6000803e3d6000fd5b505050506040513d601f19601f820116820180604052508101906116ba9190613ccf565b6001600160a01b03169190613046565b5050505050505050565b336000818152606c602090815260408083206001600160a01b0387168452909152812054909190838110156117595760405162461bcd60e51b815260206004820152602560248201527f45524332303a2064656372656173656420616c6c6f77616e63652062656c6f77604482015264207a65726f60d81b606482015260840161068c565b611766828686840361259f565b506001949350505050565b33816117b35760405162461bcd60e51b815260206004820152601160248201527043616e6e6f74207374616b65207a65726f60781b604482015260640161068c565b603360009054906101000a90046001600160a01b03166001600160a01b031663979d7e866040518163ffffffff1660e01b815260040160206040518083038186803b15801561180157600080fd5b505afa158015611815573d6000803e3d6000fd5b505050506040513d601f19601f820116820180604052508101906118399190613ccf565b6001600160a01b031663f8ac93e86040518163ffffffff1660e01b8152600401600060405180830381600087803b15801561187357600080fd5b505af1158015611887573d6000803e3d6000fd5b50505050603360009054906101000a90046001600160a01b03166001600160a01b031663f17063756040518163ffffffff1660e01b815260040160206040518083038186803b1580156118d957600080fd5b505afa1580156118ed573d6000803e3d6000fd5b505050506040513d601f19601f820116820180604052508101906119119190613bdf565b61191d5761191d612934565b606f5482901561194457607054606f546119379085613c41565b6119419190613c76565b90505b6001600160a01b0382166000908152606b602052604090205461196e5761196c606d836130a9565b505b6001600160a01b0382166000908152606b602052604081208054839290611996908490613cb7565b9250508190555080606f60008282546119af9190613cb7565b9250508190555082607060008282546119c89190613cb7565b909155505060735460405184815282916001600160a01b038516917f17700ceb1658b18206f427c1578048e87504106b14ec69e9b4586d9a95174a329060200160405180910390a4611aad823085603360009054906101000a90046001600160a01b03166001600160a01b031663c99dc3dd6040518163ffffffff1660e01b815260040160206040518083038186803b158015611a6457600080fd5b505afa158015611a78573d6000803e3d6000fd5b505050506040513d601f19601f82011682018060405250810190611a9c9190613ccf565b6001600160a01b03169291906130be565b505050565b60006105bd338484612755565b6001600160a01b0381166000908152607460205260408120815b815481108015611b0c575042828281548110611af757611af7613ca1565b90600052602060002090600402016003015411155b15611b235780611b1b81613d80565b915050611ad9565b9392505050565b83421115611b7a5760405162461bcd60e51b815260206004820152601d60248201527f45524332305065726d69743a206578706972656420646561646c696e65000000604482015260640161068c565b60007f0000000000000000000000000000000000000000000000000000000000000000888888611ba98c6130f6565b6040805160208101969096526001600160a01b0394851690860152929091166060840152608083015260a082015260c0810186905260e00160405160208183030381529060405280519060200120905073__$2d1f1df91c509134c97a9b37f5a8e18539$__634a42ee8089611c1d8461311e565b6040516001600160e01b031960e085901b1681526001600160a01b039092166004830152602482015260ff87166044820152606481018690526084810185905260a40160006040518083038186803b158015611c7857600080fd5b505af4158015611c8c573d6000803e3d6000fd5b505050506116ca88888861259f565b60335460408051808201909152600581526427aba722a960d91b60208201526001600160a01b03909116906391d1485490611cd590613d05565b336040516001600160e01b031960e085901b16815260048101929092526001600160a01b0316602482015260440160206040518083038186803b158015611d1b57600080fd5b505afa158015611d2f573d6000803e3d6000fd5b505050506040513d601f19601f82011682018060405250810190611d539190613bdf565b611d6f5760405162461bcd60e51b815260040161068c90613d29565b670de0b6b3a76400006001600160c01b0382161115611dc65760405162461bcd60e51b8152602060048201526013602482015272696e76616c696420726577617264526174696f60681b604482015260640161068c565b6076546040516001600160c01b038084169216907fb118098f66750616290767b73d61ab7f4de09e99e97505e256e70c3b10782e7690600090a3607680546001600160c01b0319166001600160c01b0392909216919091179055565b60335460408051808201909152600581526427aba722a960d91b60208201526001600160a01b03909116906391d1485490611e5c90613d05565b336040516001600160e01b031960e085901b16815260048101929092526001600160a01b0316602482015260440160206040518083038186803b158015611ea257600080fd5b505afa158015611eb6573d6000803e3d6000fd5b505050506040513d601f19601f82011682018060405250810190611eda9190613bdf565b611ef65760405162461bcd60e51b815260040161068c90613d29565b60008165ffffffffffff16118015611f1a57506301e1338065ffffffffffff821611155b611f5f5760405162461bcd60e51b8152602060048201526016602482015275696e76616c696420756e7374616b696e6744656c617960501b604482015260640161068c565b60755460405165ffffffffffff8084169216907f93159285ad2cef1861fdef1d2ca04162b2eff9aa5c08324f599d3aa0e04b223a90600090a36075805465ffffffffffff191665ffffffffffff838116918217928390559091610fb591600160301b909104166002613d52565b603360009054906101000a90046001600160a01b03166001600160a01b031663f17063756040518163ffffffff1660e01b815260040160206040518083038186803b15801561201a57600080fd5b505afa15801561202e573d6000803e3d6000fd5b505050506040513d601f19601f820116820180604052508101906120529190613bdf565b1561206f5760405162461bcd60e51b815260040161068c90613c01565b60335460408051632f2439b160e01b815290516000926001600160a01b031691632f2439b1916004808301926020929190829003018186803b1580156120b457600080fd5b505afa1580156120c8573d6000803e3d6000fd5b505050506040513d601f19601f820116820180604052508101906120ec9190613ccf565b9050806001600160a01b031663e45a5b2d6040518163ffffffff1660e01b815260040160206040518083038186803b15801561212757600080fd5b505afa15801561213b573d6000803e3d6000fd5b505050506040513d601f19601f8201168201806040525081019061215f9190613bdf565b6121a25760405162461bcd60e51b815260206004820152601460248201527314951bdad95b881d5b98d85c1a5d185b1a5e995960621b604482015260640161068c565b6000816001600160a01b031663200d2ed26040518163ffffffff1660e01b815260040160206040518083038186803b1580156121dd57600080fd5b505afa1580156121f1573d6000803e3d6000fd5b505050506040513d601f19601f820116820180604052508101906122159190613dc7565b600281111561222657612226613db1565b146122665760405162461bcd60e51b815260206004820152601060248201526f18985cdad95d08191959985d5b1d195960821b604482015260640161068c565b6001600160a01b0383166000908152607460205260409020826122895750505050565b80548311156122d05760405162461bcd60e51b8152602060048201526013602482015272696e646578206f75742d6f662d626f756e647360681b604482015260640161068c565b42816122dd600186613c8a565b815481106122ed576122ed613ca1565b90600052602060002090600402016003015411156123465760405162461bcd60e51b81526020600482015260166024820152757769746864726177616c20756e617661696c61626c6560501b604482015260640161068c565b603360009054906101000a90046001600160a01b03166001600160a01b031663181783586040518163ffffffff1660e01b8152600401600060405180830381600087803b15801561239657600080fd5b505af11580156123aa573d6000803e3d6000fd5b5050505060005b8181815481106123c3576123c3613ca1565b906000526020600020906004020160010154600014801561240757508181815481106123f1576123f1613ca1565b9060005260206000209060040201600201546000145b801561241257508381105b15612429578061242181613d80565b9150506123b1565b6000815b858110801561245f57504284828154811061244a5761244a613ca1565b90600052602060002090600402016003015411155b156124f85783818154811061247657612476613ca1565b906000526020600020906004020160010154826124939190613cb7565b915060008482815481106124a9576124a9613ca1565b90600052602060002090600402016001018190555060008482815481106124d2576124d2613ca1565b6000918252602090912060026004909202010155806124f081613d80565b91505061242d565b866001600160a01b031681847fd42f64bbf441b944cb3b10d82058ccb2b527d393e6c6c96346d5dc540957d19260735486604051612540929190918252602082015260400190565b60405180910390a4610ded8783603360009054906101000a90046001600160a01b03166001600160a01b031663c99dc3dd6040518163ffffffff1660e01b815260040160206040518083038186803b15801561168257600080fd5b5050565b6001600160a01b0383166126015760405162461bcd60e51b8152602060048201526024808201527f45524332303a20617070726f76652066726f6d20746865207a65726f206164646044820152637265737360e01b606482015260840161068c565b6001600160a01b0382166126625760405162461bcd60e51b815260206004820152602260248201527f45524332303a20617070726f766520746f20746865207a65726f206164647265604482015261737360f01b606482015260840161068c565b6001600160a01b038381166000818152606c602090815260408083209487168084529482529182902085905590518481527f8c5be1e5ebec7d5bd14f71427d1e84f3dd0314c0f7b2291e5b200ac8c7c3b925910160405180910390a3505050565b6001600160a01b038381166000908152606c6020908152604080832093861683529290522054600019811461274f57818110156127425760405162461bcd60e51b815260206004820152601d60248201527f45524332303a20696e73756666696369656e7420616c6c6f77616e6365000000604482015260640161068c565b61274f848484840361259f565b50505050565b6001600160a01b0383166127b95760405162461bcd60e51b815260206004820152602560248201527f45524332303a207472616e736665722066726f6d20746865207a65726f206164604482015264647265737360d81b606482015260840161068c565b6001600160a01b03821661281b5760405162461bcd60e51b815260206004820152602360248201527f45524332303a207472616e7366657220746f20746865207a65726f206164647260448201526265737360e81b606482015260840161068c565b6001600160a01b03821630141561286d5760405162461bcd60e51b815260206004820152601660248201527529ba2929a9103a3930b739b332b9103a379039b2b63360511b604482015260640161068c565b6001600160a01b0383166000908152606b6020526040902054818110156128e55760405162461bcd60e51b815260206004820152602660248201527f45524332303a207472616e7366657220616d6f756e7420657863656564732062604482015265616c616e636560d01b606482015260840161068c565b6001600160a01b038085166000908152606b602052604080822085850390559185168152908120805484929061291c908490613cb7565b9091555061292d9050606d846130a9565b5050505050565b60755460715461295391600160301b900465ffffffffffff1690613cb7565b42101561295c57565b6000612966610a7f565b90506000607560069054906101000a900465ffffffffffff166071544261298d9190613de8565b6129979190613e0f565b6076549091506000906129e4906129d59084906129c690670de0b6b3a7640000906001600160c01b031661316c565b6001600160c01b031690613178565b670de0b6b3a76400009061316c565b90506000612a06607254836001600160c01b0316612d7290919063ffffffff16565b90508060706000828254612a1a9190613cb7565b9091555050607554612a3b90600160301b900465ffffffffffff1684613d52565b65ffffffffffff1660716000828254612a549190613cb7565b90915550612a629050612c52565b60725560405181907fb0c65a5b323022d926c456e1564d86f0bda40160a781c820f571d7635b34880190600090a2612a98610a7f565b6001600160c01b0316846001600160c01b03167fa960008f17c9b70495943fe5e4a3c8aed709c7dcafe762f7a89e64743669404360405160405180910390a350505050565b6000818311612aec5781611b23565b5090919050565b6000610a3b7f8b73c3c69bb8fe3d512ecc4cf759cc79239f7b179b0ffacaa9a75d522b39400f612b2260345490565b6035546040805160208101859052908101839052606081018290524660808201523060a082015260009060c0016040516020818303038152906040528051906020012090509392505050565b6000611b23612b86670de0b6b3a764000085856132f4565b6133d7565b600054610100900460ff16612bb25760405162461bcd60e51b815260040161068c90613e34565b6001600160a01b038116612bff5760405162461bcd60e51b81526020600482015260146024820152736d61696e206973207a65726f206164647265737360601b604482015260640161068c565b603380546001600160a01b0319166001600160a01b0392909216919091179055565b600054610100900460ff16612c485760405162461bcd60e51b815260040161068c90613e34565b61259b8282613401565b6000612c5c612e2f565b607054603360009054906101000a90046001600160a01b03166001600160a01b031663c99dc3dd6040518163ffffffff1660e01b815260040160206040518083038186803b158015612cad57600080fd5b505afa158015612cc1573d6000803e3d6000fd5b505050506040513d601f19601f82011682018060405250810190612ce59190613ccf565b6040516370a0823160e01b81523060048201526001600160a01b0391909116906370a082319060240160206040518083038186803b158015612d2657600080fd5b505afa158015612d3a573d6000803e3d6000fd5b505050506040513d601f19601f82011682018060405250810190612d5e9190613cec565b612d689190613c8a565b610a3b9190613c8a565b6000611b236001600160c01b03841683670de0b6b3a76400006132f4565b60708054600091829055606f829055607380549192612dae83613d80565b919050555060005b612dc0606d613030565b811015612dff576000612dd4606d8361303a565b6001600160a01b03166000908152606b60205260408120555080612df781613d80565b915050612db6565b506073546040517fdeba711e99fd7b5e4c3791cdf72d3b4af968d7bff093b505fba2ab5a967bc49390600090a290565b6000805b612e3d606d613030565b811015612efb5760005b60746000612e56606d8561303a565b6001600160a01b03168152602081019190915260400160002054811015612ee85760746000612e86606d8561303a565b6001600160a01b03166001600160a01b031681526020019081526020016000208181548110612eb757612eb7613ca1565b90600052602060002090600402016001015483612ed49190613cb7565b925080612ee081613d80565b915050612e47565b5080612ef381613d80565b915050612e33565b5090565b6000805b612f0d606d613030565b811015612efb5760005b60746000612f26606d8561303a565b6001600160a01b03168152602081019190915260400160002054811015612fb85760746000612f56606d8561303a565b6001600160a01b03166001600160a01b031681526020019081526020016000208181548110612f8757612f87613ca1565b90600052602060002090600402016002015483612fa49190613cb7565b925080612fb081613d80565b915050612f17565b5080612fc381613d80565b915050612f03565b6000612fd5612e2f565b905060005b612fe4606d613030565b811015612efb576000612ff8606d8361303a565b6001600160a01b038116600090815260746020526040812091925061301d91906137c7565b508061302881613d80565b915050612fda565b60006105c1825490565b6000611b238383613442565b6040516001600160a01b038316602482015260448101829052611aad90849063a9059cbb60e01b906064015b60408051601f198184030181529190526020810180516001600160e01b03166001600160e01b03199093169290921790915261346c565b6000611b23836001600160a01b03841661353e565b6040516001600160a01b038085166024830152831660448201526064810182905261274f9085906323b872dd60e01b90608401613072565b6001600160a01b03811660009081526068602052604090208054600181018255905b50919050565b60006105c161312b612af3565b8360405161190160f01b6020820152602281018390526042810182905260009060620160405160208183030381529060405280519060200120905092915050565b6000611b238284613e7f565b6000670de0b6b3a76400006001600160c01b038416111561319857600080fd5b8165ffffffffffff16600114156131b05750816105c1565b6001600160c01b038316670de0b6b3a764000014806131d5575065ffffffffffff8216155b156131e95750670de0b6b3a76400006105c1565b6000613206670de0b6b3a76400006001600160c01b038616613c41565b90506ec097ce7bc90715b34b9f10000000005b60018085161415613269576ec097ce7bc90715b34b9f100000000061323f600282613e9f565b6001600160801b03166132528484613c41565b61325c9190613cb7565b6132669190613c76565b90505b60018465ffffffffffff161161327e576132d6565b60019390931c657fffffffffff16926ec097ce7bc90715b34b9f10000000006132a8600282613e9f565b6001600160801b03166132bb8480613c41565b6132c59190613cb7565b6132cf9190613c76565b9150613219565b6132eb612b86670de0b6b3a764000083613c76565b95945050505050565b6000806000613303868661358d565b915091508382106133275760405163f44398f560e01b815260040160405180910390fd5b6000848061333757613337613c60565b86880990508181111561334b576001830392505b90819003906000859003851680868161336657613366613c60565b04955080838161337857613378613c60565b04925080816000038161338d5761338d613c60565b046001019390930291909101600285810380870282030280870282030280870282030280870282030280870282030280870282030295860290039094029390930295945050505050565b60006001600160c01b03821115612efb5760405163f44398f560e01b815260040160405180910390fd5b600054610100900460ff166134285760405162461bcd60e51b815260040161068c90613e34565b815160209283012081519190920120603491909155603555565b600082600001828154811061345957613459613ca1565b9060005260206000200154905092915050565b60006134c1826040518060400160405280602081526020017f5361666545524332303a206c6f772d6c6576656c2063616c6c206661696c6564815250856001600160a01b03166135ba9092919063ffffffff16565b805190915015611aad57808060200190518101906134df9190613bdf565b611aad5760405162461bcd60e51b815260206004820152602a60248201527f5361666545524332303a204552433230206f7065726174696f6e20646964206e6044820152691bdd081cdd58d8d9595960b21b606482015260840161068c565b6000818152600183016020526040812054613585575081546001818101845560008481526020808220909301849055845484825282860190935260409020919091556105c1565b5060006105c1565b60008080600019848609905083850291508181039250818110156135b2576001830392505b509250929050565b60606135c984846000856135d1565b949350505050565b6060824710156136325760405162461bcd60e51b815260206004820152602660248201527f416464726573733a20696e73756666696369656e742062616c616e636520666f6044820152651c8818d85b1b60d21b606482015260840161068c565b600080866001600160a01b0316858760405161364e9190613eb9565b60006040518083038185875af1925050503d806000811461368b576040519150601f19603f3d011682016040523d82523d6000602084013e613690565b606091505b50915091506136a1878383876136ac565b979650505050505050565b60608315613718578251613711576001600160a01b0385163b6137115760405162461bcd60e51b815260206004820152601d60248201527f416464726573733a2063616c6c20746f206e6f6e2d636f6e7472616374000000604482015260640161068c565b50816135c9565b6135c9838381511561372d5781518083602001fd5b8060405162461bcd60e51b815260040161068c919061385d565b82805461375390613baa565b90600052602060002090601f01602090048101928261377557600085556137bb565b82601f1061378e57805160ff19168380011785556137bb565b828001600101855582156137bb579182015b828111156137bb5782518255916020019190600101906137a0565b50612efb9291506137e8565b508054600082556004029060005260206000209081019061101c91906137fd565b5b80821115612efb57600081556001016137e9565b5b80821115612efb5780546001600160a01b03191681556000600182018190556002820181905560038201556004016137fe565b60005b8381101561384c578181015183820152602001613834565b8381111561274f5750506000910152565b602081526000825180602084015261387c816040850160208701613831565b601f01601f19169190910160400192915050565b6001600160a01b038116811461101c57600080fd5b600080604083850312156138b857600080fd5b82356138c381613890565b946020939093013593505050565b6000806000606084860312156138e657600080fd5b83356138f181613890565b9250602084013561390181613890565b929592945050506040919091013590565b60006020828403121561392457600080fd5b5035919050565b634e487b7160e01b600052604160045260246000fd5b600082601f83011261395257600080fd5b813567ffffffffffffffff8082111561396d5761396d61392b565b604051601f8301601f19908116603f011681019082821181831017156139955761399561392b565b816040528381528660208588010111156139ae57600080fd5b836020870160208301376000602085830101528094505050505092915050565b803565ffffffffffff811681146139e457600080fd5b919050565b80356001600160c01b03811681146139e457600080fd5b60008060008060008060c08789031215613a1957600080fd5b8635613a2481613890565b9550602087013567ffffffffffffffff80821115613a4157600080fd5b613a4d8a838b01613941565b96506040890135915080821115613a6357600080fd5b50613a7089828a01613941565b945050613a7f606088016139ce565b9250613a8d608088016139ce565b9150613a9b60a088016139e9565b90509295509295509295565b600060208284031215613ab957600080fd5b8135611b2381613890565b600060208284031215613ad657600080fd5b611b23826139ce565b600080600080600080600060e0888a031215613afa57600080fd5b8735613b0581613890565b96506020880135613b1581613890565b95506040880135945060608801359350608088013560ff81168114613b3957600080fd5b9699959850939692959460a0840135945060c09093013592915050565b600060208284031215613b6857600080fd5b611b23826139e9565b60008060408385031215613b8457600080fd5b8235613b8f81613890565b91506020830135613b9f81613890565b809150509250929050565b600181811c90821680613bbe57607f821691505b6020821081141561311857634e487b7160e01b600052602260045260246000fd5b600060208284031215613bf157600080fd5b81518015158114611b2357600080fd5b60208082526010908201526f3830bab9b2b21037b910333937bd32b760811b604082015260600190565b634e487b7160e01b600052601160045260246000fd5b6000816000190483118215151615613c5b57613c5b613c2b565b500290565b634e487b7160e01b600052601260045260246000fd5b600082613c8557613c85613c60565b500490565b600082821015613c9c57613c9c613c2b565b500390565b634e487b7160e01b600052603260045260246000fd5b60008219821115613cca57613cca613c2b565b500190565b600060208284031215613ce157600080fd5b8151611b2381613890565b600060208284031215613cfe57600080fd5b5051919050565b805160208083015191908110156131185760001960209190910360031b1b16919050565b6020808252600f908201526e676f7665726e616e6365206f6e6c7960881b604082015260600190565b600065ffffffffffff80831681851681830481118215151615613d7757613d77613c2b565b02949350505050565b6000600019821415613d9457613d94613c2b565b5060010190565b634e487b7160e01b600052600160045260246000fd5b634e487b7160e01b600052602160045260246000fd5b600060208284031215613dd957600080fd5b815160038110611b2357600080fd5b600065ffffffffffff83811690831681811015613e0757613e07613c2b565b039392505050565b600065ffffffffffff80841680613e2857613e28613c60565b92169190910492915050565b6020808252602b908201527f496e697469616c697a61626c653a20636f6e7472616374206973206e6f74206960408201526a6e697469616c697a696e6760a81b606082015260800190565b60006001600160c01b0383811690831681811015613e0757613e07613c2b565b60006001600160801b0380841680613e2857613e28613c60565b60008251613ecb818460208701613831565b919091019291505056fea2646970667358221220cc37439f7077db4eb94dd912cbfca9deac3ac3bef8ec8fe41649cd63bca65c5b64736f6c63430008090033608060405234801561001057600080fd5b50612233806100206000396000f3fe608060405234801561001057600080fd5b50600436106100b45760003560e01c806357a26a401161007157806357a26a401461015c5780635ab1bd5314610187578063c3c5a5471461019c578063cde2be8a146101af578063dffeadd0146101c2578063f8ac93e8146101d557600080fd5b80632510a1d7146100b95780632ec2c246146100d75780633ba3712a146100ec5780633c5a3cea1461010f5780634420e4861461012257806354fd4d5014610135575b600080fd5b6100c16101dd565b6040516100ce9190611e4b565b60405180910390f35b6100ea6100e5366004611eb8565b61028c565b005b6100ff6100fa366004611eb8565b61094e565b60405190151581526020016100ce565b6100ea61011d366004611ef2565b610db9565b6100ff610130366004611eb8565b610f0f565b60408051808201825260058152640312e322e360dc1b602082015290516100ce9190611fcc565b61016f61016a366004611eb8565b610ff5565b6040516001600160a01b0390911681526020016100ce565b61018f61115e565b6040516100ce9190612021565b6100ff6101aa366004611eb8565b61135e565b61016f6101bd366004611eb8565b61136b565b60335461016f906001600160a01b031681565b6100ea6113e0565b60606101e960346114ff565b67ffffffffffffffff81111561020157610201611edc565b60405190808252806020026020018201604052801561022a578160200160208202803683370190505b50905060005b61023a60346114ff565b8110156102885761024c603482611509565b82828151811061025e5761025e6120be565b6001600160a01b039092166020928302919091019091015280610280816120ea565b915050610230565b5090565b60335460408051808201909152600581526427aba722a960d91b60208201526001600160a01b03909116906391d14854906102c690612105565b336040516001600160e01b031960e085901b16815260048101929092526001600160a01b0316602482015260440160206040518083038186803b15801561030c57600080fd5b505afa158015610320573d6000803e3d6000fd5b505050506040513d601f19601f820116820180604052508101906103449190612129565b6103695760405162461bcd60e51b81526004016103609061214b565b60405180910390fd5b6103e5816001600160a01b031663785e9e866040518163ffffffff1660e01b815260040160206040518083038186803b1580156103a557600080fd5b505afa1580156103b9573d6000803e3d6000fd5b505050506040513d601f19601f820116820180604052508101906103dd9190612174565b60349061151e565b61042a5760405162461bcd60e51b815260206004820152601660248201527537379030b9b9b2ba103a37903ab73932b3b4b9ba32b960511b6044820152606401610360565b806001600160a01b031660366000836001600160a01b031663785e9e866040518163ffffffff1660e01b815260040160206040518083038186803b15801561047157600080fd5b505afa158015610485573d6000803e3d6000fd5b505050506040513d601f19601f820116820180604052508101906104a99190612174565b6001600160a01b03908116825260208201929092526040016000205416146105055760405162461bcd60e51b815260206004820152600f60248201526e185cdcd95d081b9bdd08199bdd5b99608a1b6044820152606401610360565b60335460408051632f2439b160e01b815290516000926001600160a01b031691632f2439b1916004808301926020929190829003018186803b15801561054a57600080fd5b505afa15801561055e573d6000803e3d6000fd5b505050506040513d601f19601f820116820180604052508101906105829190612174565b6001600160a01b031663a5a5828c836001600160a01b031663785e9e866040518163ffffffff1660e01b815260040160206040518083038186803b1580156105c957600080fd5b505afa1580156105dd573d6000803e3d6000fd5b505050506040513d601f19601f820116820180604052508101906106019190612174565b6040516001600160e01b031960e084901b1681526001600160a01b03909116600482015260240160206040518083038186803b15801561064057600080fd5b505afa158015610654573d6000803e3d6000fd5b505050506040513d601f19601f820116820180604052508101906106789190612191565b90506106f6826001600160a01b031663785e9e866040518163ffffffff1660e01b815260040160206040518083038186803b1580156106b657600080fd5b505afa1580156106ca573d6000803e3d6000fd5b505050506040513d601f19601f820116820180604052508101906106ee9190612174565b603490611540565b50600060366000846001600160a01b031663785e9e866040518163ffffffff1660e01b815260040160206040518083038186803b15801561073657600080fd5b505afa15801561074a573d6000803e3d6000fd5b505050506040513d601f19601f8201168201806040525081019061076e9190612174565b6001600160a01b03166001600160a01b0316815260200190815260200160002060006101000a8154816001600160a01b0302191690836001600160a01b03160217905550816001600160a01b0316826001600160a01b031663785e9e866040518163ffffffff1660e01b815260040160206040518083038186803b1580156107f557600080fd5b505afa158015610809573d6000803e3d6000fd5b505050506040513d601f19601f8201168201806040525081019061082d9190612174565b6001600160a01b03167f817f216d12af1855f1b81f88dc6421e26ebc7fa7eca01c58fd1035dd655b3d5460405160405180910390a36001600160c01b0381161561094a57603360009054906101000a90046001600160a01b03166001600160a01b0316632f2439b16040518163ffffffff1660e01b815260040160206040518083038186803b1580156108bf57600080fd5b505afa1580156108d3573d6000803e3d6000fd5b505050506040513d601f19601f820116820180604052508101906108f79190612174565b6001600160a01b031663e27f3bef6040518163ffffffff1660e01b8152600401600060405180830381600087803b15801561093157600080fd5b505af1158015610945573d6000803e3d6000fd5b505050505b5050565b60335460408051808201909152600581526427aba722a960d91b60208201526000916001600160a01b0316906391d148549061098990612105565b336040516001600160e01b031960e085901b16815260048101929092526001600160a01b0316602482015260440160206040518083038186803b1580156109cf57600080fd5b505afa1580156109e3573d6000803e3d6000fd5b505050506040513d601f19601f82011682018060405250810190610a079190612129565b610a235760405162461bcd60e51b81526004016103609061214b565b610a5f826001600160a01b031663785e9e866040518163ffffffff1660e01b815260040160206040518083038186803b1580156103a557600080fd5b610aa05760405162461bcd60e51b815260206004820152601260248201527137379022a92199181031b7b63634b9b4b7b760711b6044820152606401610360565b60006001600160a01b031660366000846001600160a01b031663785e9e866040518163ffffffff1660e01b815260040160206040518083038186803b158015610ae857600080fd5b505afa158015610afc573d6000803e3d6000fd5b505050506040513d601f19601f82011682018060405250810190610b209190612174565b6001600160a01b039081168252602082019290925260400160002054161415610b4b57610b4b6121ba565b60335460408051632f2439b160e01b815290516000926001600160a01b031691632f2439b1916004808301926020929190829003018186803b158015610b9057600080fd5b505afa158015610ba4573d6000803e3d6000fd5b505050506040513d601f19601f82011682018060405250810190610bc89190612174565b6001600160a01b031663a5a5828c846001600160a01b031663785e9e866040518163ffffffff1660e01b815260040160206040518083038186803b158015610c0f57600080fd5b505afa158015610c23573d6000803e3d6000fd5b505050506040513d601f19601f82011682018060405250810190610c479190612174565b6040516001600160e01b031960e084901b1681526001600160a01b03909116600482015260240160206040518083038186803b158015610c8657600080fd5b505afa158015610c9a573d6000803e3d6000fd5b505050506040513d601f19601f82011682018060405250810190610cbe9190612191565b9050610cc983611555565b91506001600160c01b03811615610db357603360009054906101000a90046001600160a01b03166001600160a01b0316632f2439b16040518163ffffffff1660e01b815260040160206040518083038186803b158015610d2857600080fd5b505afa158015610d3c573d6000803e3d6000fd5b505050506040513d601f19601f82011682018060405250810190610d609190612174565b6001600160a01b031663e27f3bef6040518163ffffffff1660e01b8152600401600060405180830381600087803b158015610d9a57600080fd5b505af1158015610dae573d6000803e3d6000fd5b505050505b50919050565b600054610100900460ff1615808015610dd95750600054600160ff909116105b80610df35750303b158015610df3575060005460ff166001145b610e565760405162461bcd60e51b815260206004820152602e60248201527f496e697469616c697a61626c653a20636f6e747261637420697320616c72656160448201526d191e481a5b9a5d1a585b1a5e995960921b6064820152608401610360565b6000805460ff191660011790558015610e79576000805461ff0019166101001790555b610e8283611aaf565b60005b8251811015610ec357610eb0838281518110610ea357610ea36120be565b6020026020010151611b89565b5080610ebb816120ea565b915050610e85565b508015610f0a576000805461ff0019169055604051600181527f7f26b83ff96e1f2b6a682f133852f6798a09c465da95921460cefb38474024989060200160405180910390a15b505050565b60335460408051808201909152600581526427aba722a960d91b60208201526000916001600160a01b0316906391d1485490610f4a90612105565b336040516001600160e01b031960e085901b16815260048101929092526001600160a01b0316602482015260440160206040518083038186803b158015610f9057600080fd5b505afa158015610fa4573d6000803e3d6000fd5b505050506040513d601f19601f82011682018060405250810190610fc89190612129565b610fe45760405162461bcd60e51b81526004016103609061214b565b610fed82611b89565b90505b919050565b600061100260348361151e565b6110435760405162461bcd60e51b8152602060048201526012602482015271195c98cc8c081d5b9c9959da5cdd195c995960721b6044820152606401610360565b6001600160a01b038281166000908152603660205260409020541661106a5761106a6121ba565b6001600160a01b0380831660009081526036602090815260409182902054825163c59b3d6360e01b8152925193169263c59b3d63926004808201939291829003018186803b1580156110bb57600080fd5b505afa1580156110cf573d6000803e3d6000fd5b505050506040513d601f19601f820116820180604052508101906110f39190612129565b61113f5760405162461bcd60e51b815260206004820152601760248201527f6572633230206973206e6f7420636f6c6c61746572616c0000000000000000006044820152606401610360565b506001600160a01b039081166000908152603660205260409020541690565b6040805180820190915260608082526020820152600061117e60346114ff565b90508067ffffffffffffffff81111561119957611199611edc565b6040519080825280602002602001820160405280156111c2578160200160208202803683370190505b5082528067ffffffffffffffff8111156111de576111de611edc565b604051908082528060200260200182016040528015611207578160200160208202803683370190505b50602083015260005b8181101561134757611223603482611509565b8351805183908110611237576112376120be565b6001600160a01b03909216602092830291909101909101526036600061125e603484611509565b6001600160a01b03166001600160a01b0316815260200190815260200160002060009054906101000a90046001600160a01b0316836020015182815181106112a8576112a86120be565b6001600160a01b03909216602092830291909101909101528251805160009190839081106112d8576112d86120be565b60200260200101516001600160a01b031614156112f7576112f76121ba565b60006001600160a01b031683602001518281518110611318576113186120be565b60200260200101516001600160a01b03161415611337576113376121ba565b611340816120ea565b9050611210565b5060208201515182515114610288576102886121ba565b6000610fed60348361151e565b600061137860348361151e565b6113b95760405162461bcd60e51b8152602060048201526012602482015271195c98cc8c081d5b9c9959da5cdd195c995960721b6044820152606401610360565b6001600160a01b038281166000908152603660205260409020541661113f5761113f6121ba565b60005b6113ed60346114ff565b8110156114fc576000603681611404603485611509565b6001600160a01b039081168252602080830193909352604091820160002054825163c59b3d6360e01b8152925191169350839263c59b3d639260048082019391829003018186803b15801561145857600080fd5b505afa15801561146c573d6000803e3d6000fd5b505050506040513d601f19601f820116820180604052508101906114909190612129565b156114e957806001600160a01b031663f8ac93e86040518163ffffffff1660e01b8152600401600060405180830381600087803b1580156114d057600080fd5b505af11580156114e4573d6000803e3d6000fd5b505050505b50806114f4816120ea565b9150506113e3565b50565b6000610fed825490565b60006115158383611cc1565b90505b92915050565b6001600160a01b03811660009081526001830160205260408120541515611515565b6000611515836001600160a01b038416611ceb565b6000611593826001600160a01b031663785e9e866040518163ffffffff1660e01b815260040160206040518083038186803b1580156103a557600080fd5b80156116385750816001600160a01b031660366000846001600160a01b031663785e9e866040518163ffffffff1660e01b815260040160206040518083038186803b1580156115e157600080fd5b505afa1580156115f5573d6000803e3d6000fd5b505050506040513d601f19601f820116820180604052508101906116199190612174565b6001600160a01b03908116825260208201929092526040016000205416145b1561164557506000919050565b611681826001600160a01b031663785e9e866040518163ffffffff1660e01b815260040160206040518083038186803b1580156103a557600080fd5b80156117275750816001600160a01b031660366000846001600160a01b031663785e9e866040518163ffffffff1660e01b815260040160206040518083038186803b1580156116cf57600080fd5b505afa1580156116e3573d6000803e3d6000fd5b505050506040513d601f19601f820116820180604052508101906117079190612174565b6001600160a01b0390811682526020820192909252604001600020541614155b156118c257611768826001600160a01b031663785e9e866040518163ffffffff1660e01b815260040160206040518083038186803b1580156106b657600080fd5b5060366000836001600160a01b031663785e9e866040518163ffffffff1660e01b815260040160206040518083038186803b1580156117a657600080fd5b505afa1580156117ba573d6000803e3d6000fd5b505050506040513d601f19601f820116820180604052508101906117de9190612174565b6001600160a01b03166001600160a01b0316815260200190815260200160002060009054906101000a90046001600160a01b03166001600160a01b0316826001600160a01b031663785e9e866040518163ffffffff1660e01b815260040160206040518083038186803b15801561185457600080fd5b505afa158015611868573d6000803e3d6000fd5b505050506040513d601f19601f8201168201806040525081019061188c9190612174565b6001600160a01b03167f817f216d12af1855f1b81f88dc6421e26ebc7fa7eca01c58fd1035dd655b3d5460405160405180910390a35b61193e826001600160a01b031663785e9e866040518163ffffffff1660e01b815260040160206040518083038186803b1580156118fe57600080fd5b505afa158015611912573d6000803e3d6000fd5b505050506040513d601f19601f820116820180604052508101906119369190612174565b603490611dde565b90508160366000846001600160a01b031663785e9e866040518163ffffffff1660e01b815260040160206040518083038186803b15801561197e57600080fd5b505afa158015611992573d6000803e3d6000fd5b505050506040513d601f19601f820116820180604052508101906119b69190612174565b6001600160a01b03166001600160a01b0316815260200190815260200160002060006101000a8154816001600160a01b0302191690836001600160a01b03160217905550816001600160a01b0316826001600160a01b031663785e9e866040518163ffffffff1660e01b815260040160206040518083038186803b158015611a3d57600080fd5b505afa158015611a51573d6000803e3d6000fd5b505050506040513d601f19601f82011682018060405250810190611a759190612174565b6001600160a01b03167f7beb5803e95d997a3a41bdd114aad49420e9b4ee9fd80c96b9acb7a8bf9ee07760405160405180910390a3919050565b600054610100900460ff16611b1a5760405162461bcd60e51b815260206004820152602b60248201527f496e697469616c697a61626c653a20636f6e7472616374206973206e6f74206960448201526a6e697469616c697a696e6760a81b6064820152608401610360565b6001600160a01b038116611b675760405162461bcd60e51b81526020600482015260146024820152736d61696e206973207a65726f206164647265737360601b6044820152606401610360565b603380546001600160a01b0319166001600160a01b0392909216919091179055565b6000611bc7826001600160a01b031663785e9e866040518163ffffffff1660e01b815260040160206040518083038186803b1580156103a557600080fd5b1580611c6c5750816001600160a01b031660366000846001600160a01b031663785e9e866040518163ffffffff1660e01b815260040160206040518083038186803b158015611c1557600080fd5b505afa158015611c29573d6000803e3d6000fd5b505050506040513d601f19601f82011682018060405250810190611c4d9190612174565b6001600160a01b03908116825260208201929092526040016000205416145b611cb85760405162461bcd60e51b815260206004820152601860248201527f6475706c696361746520455243323020646574656374656400000000000000006044820152606401610360565b610fed82611555565b6000826000018281548110611cd857611cd86120be565b9060005260206000200154905092915050565b60008181526001830160205260408120548015611dd4576000611d0f6001836121d0565b8554909150600090611d23906001906121d0565b9050818114611d88576000866000018281548110611d4357611d436120be565b9060005260206000200154905080876000018481548110611d6657611d666120be565b6000918252602080832090910192909255918252600188019052604090208390555b8554869080611d9957611d996121e7565b600190038181906000526020600020016000905590558560010160008681526020019081526020016000206000905560019350505050611518565b6000915050611518565b6000611515836001600160a01b0384166000611e0d838360009081526001919091016020526040902054151590565b611e4357508154600181810184556000848152602080822090930184905584548482528286019093526040902091909155611518565b506000611518565b6020808252825182820181905260009190848201906040850190845b81811015611e8c5783516001600160a01b031683529284019291840191600101611e67565b50909695505050505050565b6001600160a01b03811681146114fc57600080fd5b8035610ff081611e98565b600060208284031215611eca57600080fd5b8135611ed581611e98565b9392505050565b634e487b7160e01b600052604160045260246000fd5b60008060408385031215611f0557600080fd5b8235611f1081611e98565b915060208381013567ffffffffffffffff80821115611f2e57600080fd5b818601915086601f830112611f4257600080fd5b813581811115611f5457611f54611edc565b8060051b604051601f19603f83011681018181108582111715611f7957611f79611edc565b604052918252848201925083810185019189831115611f9757600080fd5b938501935b82851015611fbc57611fad85611ead565b84529385019392850192611f9c565b8096505050505050509250929050565b600060208083528351808285015260005b81811015611ff957858101830151858201604001528201611fdd565b8181111561200b576000604083870101525b50601f01601f1916929092016040019392505050565b6020808252825160408383015280516060840181905260009291820190839060808601905b808310156120715783516001600160a01b031682526020820191508484019350600183019250612046565b5086840151868203601f190160408801528051808352908501935090840191506000905b80821015611e8c5783516001600160a01b03168352928401929184019160019190910190612095565b634e487b7160e01b600052603260045260246000fd5b634e487b7160e01b600052601160045260246000fd5b60006000198214156120fe576120fe6120d4565b5060010190565b80516020808301519190811015610db35760001960209190910360031b1b16919050565b60006020828403121561213b57600080fd5b81518015158114611ed557600080fd5b6020808252600f908201526e676f7665726e616e6365206f6e6c7960881b604082015260600190565b60006020828403121561218657600080fd5b8151611ed581611e98565b6000602082840312156121a357600080fd5b81516001600160c01b0381168114611ed557600080fd5b634e487b7160e01b600052600160045260246000fd5b6000828210156121e2576121e26120d4565b500390565b634e487b7160e01b600052603160045260246000fdfea264697066735822122026fe3ab72a22c6a0de756998a27482cb7a779c5cc040a881ac4071894092f47764736f6c63430008090033608060405234801561001057600080fd5b50614a4e806100206000396000f3fe608060405234801561001057600080fd5b506004361061010b5760003560e01c8063affed0e0116100a2578063e27f3bef11610071578063e27f3bef14610271578063e28a1b8614610279578063e45a5b2d14610281578063ef2b933714610299578063f11d4648146102ac57600080fd5b8063affed0e0146101e0578063b80777ea14610209578063c620f0fc14610225578063dffeadd01461024657600080fd5b80638a55015b116100de5780638a55015b1461018a578063a035b1fe14610192578063a5a5828c146101ba578063aa47955e146101cd57600080fd5b806319ab453c14610110578063200d2ed21461012557806354fd4d50146101435780637e4e2d081461016a575b600080fd5b61012361011e3660046141c3565b6102bf565b005b61012d6103ea565b60405161013a91906141f6565b60405180910390f35b60408051808201825260058152640312e322e360dc1b6020820152905161013a919061421e565b6101726105f0565b6040516001600160c01b03909116815260200161013a565b610123610607565b61019a610895565b604080516001600160c01b0393841681529290911660208301520161013a565b6101726101c83660046141c3565b610b39565b6101726101db3660046141c3565b610d91565b603a546101f29065ffffffffffff1681565b60405165ffffffffffff909116815260200161013a565b603a546101f2906601000000000000900465ffffffffffff1681565b610238610233366004614295565b61112f565b60405161013a9291906142ce565b603354610259906001600160a01b031681565b6040516001600160a01b03909116815260200161013a565b61012361133f565b6101726114c6565b610289611708565b604051901515815260200161013a565b6101236102a736600461439e565b611897565b6101236102ba36600461440a565b612116565b600054610100900460ff16158080156102df5750600054600160ff909116105b806102f95750303b1580156102f9575060005460ff166001145b6103615760405162461bcd60e51b815260206004820152602e60248201527f496e697469616c697a61626c653a20636f6e747261637420697320616c72656160448201526d191e481a5b9a5d1a585b1a5e995960921b60648201526084015b60405180910390fd5b6000805460ff191660011790558015610384576000805461ff0019166101001790555b61038d826124d4565b603a805460ff60601b1916600160601b17905580156103e6576000805461ff0019169055604051600181527f7f26b83ff96e1f2b6a682f133852f6798a09c465da95921460cefb38474024989060200160405180910390a15b5050565b603854603a5460009190600160601b900460ff1680610407575080155b1561041457600291505090565b60005b818110156105eb5760335460408051634bcebf4360e11b815290516000926001600160a01b03169163979d7e86916004808301926020929190829003018186803b15801561046457600080fd5b505afa158015610478573d6000803e3d6000fd5b505050506040513d601f19601f8201168201806040525081019061049c9190614451565b6001600160a01b03166357a26a40603860000184815481106104c0576104c061446e565b60009182526020909120015460405160e083901b6001600160e01b03191681526001600160a01b03909116600482015260240160206040518083038186803b15801561050b57600080fd5b505afa15801561051f573d6000803e3d6000fd5b505050506040513d601f19601f820116820180604052508101906105439190614451565b6001600160a01b031663200d2ed26040518163ffffffff1660e01b815260040160206040518083038186803b15801561057b57600080fd5b505afa15801561058f573d6000803e3d6000fd5b505050506040513d601f19601f820116820180604052508101906105b39190614484565b90506105d1848260028111156105cb576105cb6141e0565b906125ae565b156105da578093505b506105e4816144b7565b9050610417565b505090565b610604670de0b6b3a76400006103e86144d2565b81565b603360009054906101000a90046001600160a01b03166001600160a01b031663979d7e866040518163ffffffff1660e01b815260040160206040518083038186803b15801561065557600080fd5b505afa158015610669573d6000803e3d6000fd5b505050506040513d601f19601f8201168201806040525081019061068d9190614451565b6001600160a01b031663f8ac93e86040518163ffffffff1660e01b8152600401600060405180830381600087803b1580156106c757600080fd5b505af11580156106db573d6000803e3d6000fd5b505060335460408051808201909152600581526427aba722a960d91b60208201526001600160a01b0390911692506391d14854915061071990614501565b336040516001600160e01b031960e085901b16815260048101929092526001600160a01b0316602482015260440160206040518083038186803b15801561075f57600080fd5b505afa158015610773573d6000803e3d6000fd5b505050506040513d601f19601f820116820180604052508101906107979190614528565b80610848575060026107a76103ea565b60028111156107b8576107b86141e0565b1480156108485750603360009054906101000a90046001600160a01b03166001600160a01b031663f17063756040518163ffffffff1660e01b815260040160206040518083038186803b15801561080e57600080fd5b505afa158015610822573d6000803e3d6000fd5b505050506040513d601f19601f820116820180604052508101906108469190614528565b155b61088b5760405162461bcd60e51b81526020600482015260146024820152736261736b657420756e7265667265736861626c6560601b6044820152606401610358565b6108936125de565b565b6000806000603360009054906101000a90046001600160a01b03166001600160a01b031663979d7e866040518163ffffffff1660e01b815260040160206040518083038186803b1580156108e857600080fd5b505afa1580156108fc573d6000803e3d6000fd5b505050506040513d601f19601f820116820180604052508101906109209190614451565b6038549091506000908190815b81811015610af057600061096a603860000183815481106109505761095061446e565b6000918252602090912001546001600160a01b0316610b39565b90506001600160c01b0381166109805750610ae0565b600080876001600160a01b031663cde2be8a603860000186815481106109a8576109a861446e565b60009182526020909120015460405160e083901b6001600160e01b03191681526001600160a01b03909116600482015260240160206040518083038186803b1580156109f357600080fd5b505afa158015610a07573d6000803e3d6000fd5b505050506040513d601f19601f82011682018060405250810190610a2b9190614451565b6001600160a01b031663a035b1fe6040518163ffffffff1660e01b8152600401604080518083038186803b158015610a6257600080fd5b505afa158015610a76573d6000803e3d6000fd5b505050506040513d601f19601f82011682018060405250810190610a9a919061454a565b91509150610aa88383612f84565b610abb906001600160c01b031688614579565b9650610ac78382612f84565b610ada906001600160c01b031687614579565b95505050505b610ae9816144b7565b905061092d565b506001600160c01b03831015610b065782610b0f565b6001600160c01b035b95506001600160c01b03821015610b265781610b2f565b6001600160c01b035b9450505050509091565b60335460408051634bcebf4360e11b815290516000926001600160a01b03169163979d7e86916004808301926020929190829003018186803b158015610b7e57600080fd5b505afa158015610b92573d6000803e3d6000fd5b505050506040513d601f19601f82011682018060405250810190610bb69190614451565b60405163015e89a960e61b81526001600160a01b03848116600483015291909116906357a26a409060240160206040518083038186803b158015610bf957600080fd5b505afa925050508015610c29575060408051601f3d908101601f19168201909252610c2691810190614451565b60015b610c3557506000919050565b6002816001600160a01b031663200d2ed26040518163ffffffff1660e01b815260040160206040518083038186803b158015610c7057600080fd5b505afa158015610c84573d6000803e3d6000fd5b505050506040513d601f19601f82011682018060405250810190610ca89190614484565b6002811115610cb957610cb96141e0565b1415610cc85750600092915050565b6000816001600160a01b031663a7fa0faf6040518163ffffffff1660e01b815260040160206040518083038186803b158015610d0357600080fd5b505afa158015610d17573d6000803e3d6000fd5b505050506040513d601f19601f82011682018060405250810190610d3b9190614591565b90506001600160c01b038116610d5b57506001600160c01b039392505050565b6001600160a01b038416600090815260396020526040902054610d89906001600160c01b031682600261304f565b949350505050565b603854600090801580610dad5750603a54600160601b900460ff165b15610dbb5750600092915050565b6001600160c01b03915060005b818110156111285760335460408051634bcebf4360e11b815290516000926001600160a01b03169163979d7e86916004808301926020929190829003018186803b158015610e1557600080fd5b505afa158015610e29573d6000803e3d6000fd5b505050506040513d601f19601f82011682018060405250810190610e4d9190614451565b6001600160a01b03166357a26a4060386000018481548110610e7157610e7161446e565b60009182526020909120015460405160e083901b6001600160e01b03191681526001600160a01b03909116600482015260240160206040518083038186803b158015610ebc57600080fd5b505afa158015610ed0573d6000803e3d6000fd5b505050506040513d601f19601f82011682018060405250810190610ef49190614451565b90506002816001600160a01b031663200d2ed26040518163ffffffff1660e01b815260040160206040518083038186803b158015610f3157600080fd5b505afa158015610f45573d6000803e3d6000fd5b505050506040513d601f19601f82011682018060405250810190610f699190614484565b6002811115610f7a57610f7a6141e0565b1415610f8b57506000949350505050565b6000816001600160a01b031663a7fa0faf6040518163ffffffff1660e01b815260040160206040518083038186803b158015610fc657600080fd5b505afa158015610fda573d6000803e3d6000fd5b505050506040513d601f19601f82011682018060405250810190610ffe9190614591565b90506001600160c01b03811661101a5750600095945050505050565b604051632ac07b9560e11b81526001600160a01b03878116600483015260009190841690635580f72a9060240160206040518083038186803b15801561105f57600080fd5b505afa158015611073573d6000803e3d6000fd5b505050506040513d601f19601f820116820180604052508101906110979190614591565b905060006110f38360026038600101600060386000018a815481106110be576110be61446e565b60009182526020808320909101546001600160a01b031683528201929092526040019020546001600160c01b0316919061304f565b90506111118761110c6001600160c01b03851684613091565b61309f565b96505050505080611121906144b7565b9050610dc8565b5050919050565b60385460609081908067ffffffffffffffff811115611150576111506145ae565b604051908082528060200260200182016040528015611179578160200160208202803683370190505b5092508067ffffffffffffffff811115611195576111956145ae565b6040519080825280602002602001820160405280156111be578160200160208202803683370190505b50915060005b818110156113365760388054829081106111e0576111e061446e565b9060005260206000200160009054906101000a90046001600160a01b03168482815181106112105761121061446e565b60200260200101906001600160a01b031690816001600160a01b031681525050611309603860000182815481106112495761124961446e565b600091825260209182902001546040805163313ce56760e01b815290516001600160a01b039092169263313ce56792600480840193829003018186803b15801561129257600080fd5b505afa1580156112a6573d6000803e3d6000fd5b505050506040513d601f19601f820116820180604052508101906112ca91906145c4565b866112f989896112e9603860000188815481106109505761095061446e565b6001600160c01b031691906130c7565b6001600160c01b031691906130f4565b83828151811061131b5761131b61446e565b602090810291909101015261132f816144b7565b90506111c4565b50509250929050565b603360009054906101000a90046001600160a01b03166001600160a01b031663979d7e866040518163ffffffff1660e01b815260040160206040518083038186803b15801561138d57600080fd5b505afa1580156113a1573d6000803e3d6000fd5b505050506040513d601f19601f820116820180604052508101906113c59190614451565b6001600160a01b0316336001600160a01b03161461141b5760405162461bcd60e51b81526020600482015260136024820152726173736574207265676973747279206f6e6c7960681b6044820152606401610358565b60385460009067ffffffffffffffff811115611439576114396145ae565b604051908082528060200260200182016040528015611462578160200160208202803683370190505b50603a5460405191925065ffffffffffff16907f96b0986d2e475227127142054ad0599449d839de95c18f73d7577f9af3c22f73906114a89060389085906001906145e7565b60405180910390a250603a805460ff60601b1916600160601b179055565b600080603360009054906101000a90046001600160a01b03166001600160a01b031663979d7e866040518163ffffffff1660e01b815260040160206040518083038186803b15801561151757600080fd5b505afa15801561152b573d6000803e3d6000fd5b505050506040513d601f19601f8201168201806040525081019061154f9190614451565b603854909150600090815b818110156116e157600061157d603860000183815481106109505761095061446e565b90506001600160c01b03811661159357506116d1565b6000856001600160a01b031663cde2be8a603860000185815481106115ba576115ba61446e565b60009182526020909120015460405160e083901b6001600160e01b03191681526001600160a01b03909116600482015260240160206040518083038186803b15801561160557600080fd5b505afa158015611619573d6000803e3d6000fd5b505050506040513d601f19601f8201168201806040525081019061163d9190614451565b6001600160a01b031663e28a1b866040518163ffffffff1660e01b815260040160206040518083038186803b15801561167557600080fd5b505afa158015611689573d6000803e3d6000fd5b505050506040513d601f19601f820116820180604052508101906116ad9190614591565b90506116b98282612f84565b6116cc906001600160c01b031686614579565b945050505b6116da816144b7565b905061155a565b506001600160c01b038210156116f75781611700565b6001600160c01b035b935050505090565b603354604080516320632fb960e11b815290516000926001600160a01b0316916340c65f72916004808301926020929190829003018186803b15801561174d57600080fd5b505afa158015611761573d6000803e3d6000fd5b505050506040513d601f19601f820116820180604052508101906117859190614451565b6001600160a01b0316637121c2736040518163ffffffff1660e01b815260040160206040518083038186803b1580156117bd57600080fd5b505afa1580156117d1573d6000803e3d6000fd5b505050506040513d601f19601f820116820180604052508101906117f59190614591565b6001600160c01b0316611887603360009054906101000a90046001600160a01b03166001600160a01b031663dc8af5f66040518163ffffffff1660e01b815260040160206040518083038186803b15801561184f57600080fd5b505afa158015611863573d6000803e3d6000fd5b505050506040513d601f19601f820116820180604052508101906101db9190614451565b6001600160c01b03161015905090565b60335460408051808201909152600581526427aba722a960d91b60208201526001600160a01b03909116906391d14854906118d190614501565b336040516001600160e01b031960e085901b16815260048101929092526001600160a01b0316602482015260440160206040518083038186803b15801561191757600080fd5b505afa15801561192b573d6000803e3d6000fd5b505050506040513d601f19601f8201168201806040525081019061194f9190614528565b61198d5760405162461bcd60e51b815260206004820152600f60248201526e676f7665726e616e6365206f6e6c7960881b6044820152606401610358565b826119d05760405162461bcd60e51b815260206004820152601360248201527218d85b9b9bdd08195b5c1d1e4818985cdad95d606a1b6044820152606401610358565b828114611a155760405162461bcd60e51b81526020600482015260136024820152720daeae6e840c4ca40e6c2daca40d8cadccee8d606b1b6044820152606401610358565b611a1f84846131d2565b60005b603454811015611ac6576034805460359160009184908110611a4657611a4661446e565b60009182526020808320909101546001600160a01b03168352820192909252604001812080546001600160c01b031916905560348054603692919084908110611a9157611a9161446e565b60009182526020808320909101546001600160a01b03168352820192909252604001812055611abf816144b7565b9050611a22565b50611ad360346000614178565b60335460408051634bcebf4360e11b815290516000926001600160a01b03169163979d7e86916004808301926020929190829003018186803b158015611b1857600080fd5b505afa158015611b2c573d6000803e3d6000fd5b505050506040513d601f19601f82011682018060405250810190611b509190614451565b905060008467ffffffffffffffff811115611b6d57611b6d6145ae565b604051908082528060200260200182016040528015611b96578160200160208202803683370190505b50905060005b858110156120ce57826001600160a01b031663cde2be8a888884818110611bc557611bc561446e565b9050602002016020810190611bda91906141c3565b6040516001600160e01b031960e084901b1681526001600160a01b03909116600482015260240160206040518083038186803b158015611c1957600080fd5b505afa158015611c2d573d6000803e3d6000fd5b505050506040513d601f19601f82011682018060405250810190611c519190614451565b6001600160a01b031663c59b3d636040518163ffffffff1660e01b815260040160206040518083038186803b158015611c8957600080fd5b505afa158015611c9d573d6000803e3d6000fd5b505050506040513d601f19601f82011682018060405250810190611cc19190614528565b611d075760405162461bcd60e51b81526020600482015260176024820152761d1bdad95b881a5cc81b9bdd0818dbdb1b185d195c985b604a1b6044820152606401610358565b848482818110611d1957611d1961446e565b9050602002016020810190611d2e9190614685565b6001600160c01b0316600010611d955760405162461bcd60e51b815260206004820152602660248201527f696e76616c69642074617267657420616d6f756e743b206d757374206265206e6044820152656f6e7a65726f60d01b6064820152608401610358565b611da9670de0b6b3a76400006103e86144d2565b6001600160c01b0316858583818110611dc457611dc461446e565b9050602002016020810190611dd99190614685565b6001600160c01b03161115611e305760405162461bcd60e51b815260206004820181905260248201527f696e76616c69642074617267657420616d6f756e743b20746f6f206c617267656044820152606401610358565b6034878783818110611e4457611e4461446e565b9050602002016020810190611e5991906141c3565b81546001810183556000928352602090922090910180546001600160a01b0319166001600160a01b03909216919091179055848482818110611e9d57611e9d61446e565b9050602002016020810190611eb29190614685565b60356000898985818110611ec857611ec861446e565b9050602002016020810190611edd91906141c3565b6001600160a01b03166001600160a01b0316815260200190815260200160002060006101000a8154816001600160c01b0302191690836001600160c01b03160217905550826001600160a01b03166357a26a40888884818110611f4257611f4261446e565b9050602002016020810190611f5791906141c3565b6040516001600160e01b031960e084901b1681526001600160a01b03909116600482015260240160206040518083038186803b158015611f9657600080fd5b505afa158015611faa573d6000803e3d6000fd5b505050506040513d601f19601f82011682018060405250810190611fce9190614451565b6001600160a01b031663fdfd59176040518163ffffffff1660e01b815260040160206040518083038186803b15801561200657600080fd5b505afa15801561201a573d6000803e3d6000fd5b505050506040513d601f19601f8201168201806040525081019061203e91906146a2565b8282815181106120505761205061446e565b60200260200101818152505081818151811061206e5761206e61446e565b60200260200101516034600201600089898581811061208f5761208f61446e565b90506020020160208101906120a491906141c3565b6001600160a01b031681526020810191909152604001600020556120c7816144b7565b9050611b9c565b507f629da6921e2e606994411ee546db2cd47613a15eb48b5f4e474506e11349ab208686868685604051612106959493929190614704565b60405180910390a1505050505050565b60335460408051808201909152600581526427aba722a960d91b60208201526001600160a01b03909116906391d148549061215090614501565b336040516001600160e01b031960e085901b16815260048101929092526001600160a01b0316602482015260440160206040518083038186803b15801561219657600080fd5b505afa1580156121aa573d6000803e3d6000fd5b505050506040513d601f19601f820116820180604052508101906121ce9190614528565b61220c5760405162461bcd60e51b815260206004820152600f60248201526e676f7665726e616e6365206f6e6c7960881b6044820152606401610358565b61221682826131d2565b600084815260376020526040812084815590612236906001830190614178565b60335460408051634bcebf4360e11b815290516000926001600160a01b03169163979d7e86916004808301926020929190829003018186803b15801561227b57600080fd5b505afa15801561228f573d6000803e3d6000fd5b505050506040513d601f19601f820116820180604052508101906122b39190614451565b905060005b8381101561249057816001600160a01b031663cde2be8a8686848181106122e1576122e161446e565b90506020020160208101906122f691906141c3565b6040516001600160e01b031960e084901b1681526001600160a01b03909116600482015260240160206040518083038186803b15801561233557600080fd5b505afa158015612349573d6000803e3d6000fd5b505050506040513d601f19601f8201168201806040525081019061236d9190614451565b6001600160a01b031663c59b3d636040518163ffffffff1660e01b815260040160206040518083038186803b1580156123a557600080fd5b505afa1580156123b9573d6000803e3d6000fd5b505050506040513d601f19601f820116820180604052508101906123dd9190614528565b6124235760405162461bcd60e51b81526020600482015260176024820152761d1bdad95b881a5cc81b9bdd0818dbdb1b185d195c985b604a1b6044820152606401610358565b826001018585838181106124395761243961446e565b905060200201602081019061244e91906141c3565b81546001810183556000928352602090922090910180546001600160a01b0319166001600160a01b03909216919091179055612489816144b7565b90506122b8565b5084867f5e4dc2c7b1c113b11b34cda7c3dad9d453b0288298f8c9e9dd8e91515f22819d86866040516124c49291906147a2565b60405180910390a3505050505050565b600054610100900460ff1661253f5760405162461bcd60e51b815260206004820152602b60248201527f496e697469616c697a61626c653a20636f6e7472616374206973206e6f74206960448201526a6e697469616c697a696e6760a81b6064820152608401610358565b6001600160a01b03811661258c5760405162461bcd60e51b81526020600482015260146024820152736d61696e206973207a65726f206164647265737360601b6044820152606401610358565b603380546001600160a01b0319166001600160a01b0392909216919091179055565b60008160028111156125c2576125c26141e0565b8360028111156125d4576125d46141e0565b1190505b92915050565b60335460408051634bcebf4360e11b815290516000926001600160a01b03169163979d7e86916004808301926020929190829003018186803b15801561262357600080fd5b505afa158015612637573d6000803e3d6000fd5b505050506040513d601f19601f8201168201806040525081019061265b9190614451565b603a805460ff60601b1916905590505b6000612677603b613636565b111561269a5761269461268c603b6000613640565b603b9061364c565b5061266b565b6126a4603d613658565b60005b60345481101561270f576126fe60346002016000603460000184815481106126d1576126d161446e565b60009182526020808320909101546001600160a01b03168352820192909252604001902054603b906136e1565b50612708816144b7565b90506126a7565b50600061271c603b613636565b67ffffffffffffffff811115612734576127346145ae565b60405190808252806020026020018201604052801561275d578160200160208202803683370190505b509050600061276c603b613636565b67ffffffffffffffff811115612784576127846145ae565b6040519080825280602002602001820160405280156127ad578160200160208202803683370190505b50905060005b603454811015612a7a576000603460000182815481106127d5576127d561446e565b60009182526020822001546001600160a01b031691505b6127f6603b613636565b81101561283c576001600160a01b038216600090815260366020526040902054612821603b83613640565b141561282c5761283c565b612835816144b7565b90506127ec565b612846603b613636565b8110612854576128546147b6565b6001600160a01b03821660009081526035602052604090205484516001600160c01b03909116906128b29082908790859081106128935761289361446e565b60200260200101516001600160c01b03166136ed90919063ffffffff16565b8583815181106128c4576128c461446e565b6001600160c01b039092166020928302919091018201526001600160a01b0384166000908152603690915260409020546128fe90846136f9565b801561291257506001600160c01b03811615155b15612a665761292d818784815181106128935761289361446e565b86838151811061293f5761293f61446e565b6001600160c01b039092166020928302919091019091015260405163015e89a960e61b81526001600160a01b038085166004830152612a66918591612a5d91908b16906357a26a409060240160206040518083038186803b1580156129a357600080fd5b505afa1580156129b7573d6000803e3d6000fd5b505050506040513d601f19601f820116820180604052508101906129db9190614451565b6001600160a01b031663d9e8e6706040518163ffffffff1660e01b815260040160206040518083038186803b158015612a1357600080fd5b505afa158015612a27573d6000803e3d6000fd5b505050506040513d601f19601f82011682018060405250810190612a4b9190614591565b6001600160c01b03851690600261304f565b603d9190613c1e565b50505080612a73906144b7565b90506127b3565b5060005b612a88603b613636565b811015612dad57612add838281518110612aa457612aa461446e565b6020026020010151838381518110612abe57612abe61446e565b60200260200101516001600160c01b0316613d2590919063ffffffff16565b15612ae757612d9d565b600080603781612af8603b86613640565b8152602001908152602001600020905060005b600182015481108015612b1e5750815483105b15612b8357612b60612b31603b86613640565b836001018381548110612b4657612b4661446e565b6000918252602090912001546001600160a01b03166136f9565b15612b735782612b6f816144b7565b9350505b612b7c816144b7565b9050612b0b565b5081612b9d57603a805460ff60601b1916600160601b1790555b600080612bee878681518110612bb557612bb561446e565b6020026020010151878781518110612bcf57612bcf61446e565b60200260200101516001600160c01b0316613d3790919063ffffffff16565b905060005b600184015481108015612c0557508483105b15612d97576000846001018281548110612c2157612c2161446e565b6000918252602090912001546001600160a01b03169050612c4c612c46603b89613640565b826136f9565b15612d8657612d7881612a5d612d66898e6001600160a01b03166357a26a40876040518263ffffffff1660e01b8152600401612c9791906001600160a01b0391909116815260200190565b60206040518083038186803b158015612caf57600080fd5b505afa158015612cc3573d6000803e3d6000fd5b505050506040513d601f19601f82011682018060405250810190612ce79190614451565b6001600160a01b031663d9e8e6706040518163ffffffff1660e01b815260040160206040518083038186803b158015612d1f57600080fd5b505afa158015612d33573d6000803e3d6000fd5b505050506040513d601f19601f82011682018060405250810190612d579190614591565b6001600160c01b031690613d43565b6001600160c01b03871690600261304f565b83612d82816144b7565b9450505b50612d90816144b7565b9050612bf3565b50505050505b612da6816144b7565b9050612a7e565b50603d54612dc957603a805460ff60601b1916600160601b1790555b603a54600160601b900460ff16612e4c57612de66038603d613d5b565b603a805460019190600090612e0490849065ffffffffffff166147cc565b92506101000a81548165ffffffffffff021916908365ffffffffffff16021790555042603a60066101000a81548165ffffffffffff021916908365ffffffffffff1602179055505b60385460009067ffffffffffffffff811115612e6a57612e6a6145ae565b604051908082528060200260200182016040528015612e93578160200160208202803683370190505b50905060005b603854811015612f2a576038805460399160009184908110612ebd57612ebd61446e565b60009182526020808320909101546001600160a01b0316835282019290925260400190205482516001600160c01b0390911690839083908110612f0257612f0261446e565b6001600160c01b0390921660209283029190910190910152612f23816144b7565b9050612e99565b50603a5460405165ffffffffffff8216917f96b0986d2e475227127142054ad0599449d839de95c18f73d7577f9af3c22f7391612f76916038918691600160601b900460ff16906145e7565b60405180910390a250505050565b60006001600160c01b0383161580612fa357506001600160c01b038216155b15612fb0575060006125d8565b6001600160c01b038381161480612fcf57506001600160c01b03828116145b15612fe257506001600160c01b036125d8565b6001600160c01b03828116908416818102918281613002576130026147f6565b0414613018576001600160c01b039150506125d8565b6706f05b59d3b2000081018181101561303c576001600160c01b03925050506125d8565b670de0b6b3a76400009004949350505050565b6000613087613082613072670de0b6b3a76400006001600160c01b03881661480c565b856001600160c01b031685613e7f565b613f29565b90505b9392505050565b600061308a8383600061304f565b6000816001600160c01b0316836001600160c01b0316106130c0578161308a565b5090919050565b60006130876130826130e56001600160c01b0380871690881661480c565b670de0b6b3a764000085613e7f565b60006001600160c01b03841661310c5750600061308a565b6029198360000b1361314557600282600281111561312c5761312c6141e0565b1461313857600061313b565b60015b60ff16905061308a565b8260000b6060136131695760405163f44398f560e01b815260040160405180910390fd5b61317460128461482b565b925060006131848460000b613f57565b61318f90600a614950565b905060008460000b12156131b6576131b1856001600160c01b03168285613e7f565b6131c9565b6131c9816001600160c01b03871661480c565b95945050505050565b6033546040805163c99dc3dd60e01b815290516000926001600160a01b03169163c99dc3dd916004808301926020929190829003018186803b15801561321757600080fd5b505afa15801561322b573d6000803e3d6000fd5b505050506040513d601f19601f8201168201806040525081019061324f9190614451565b90506000603360009054906101000a90046001600160a01b03166001600160a01b03166340c65f726040518163ffffffff1660e01b815260040160206040518083038186803b1580156132a157600080fd5b505afa1580156132b5573d6000803e3d6000fd5b505050506040513d601f19601f820116820180604052508101906132d99190614451565b90506000603360009054906101000a90046001600160a01b03166001600160a01b0316634780a5e56040518163ffffffff1660e01b815260040160206040518083038186803b15801561332b57600080fd5b505afa15801561333f573d6000803e3d6000fd5b505050506040513d601f19601f820116820180604052508101906133639190614451565b90506000805b858110156135af57846001600160a01b031687878381811061338d5761338d61446e565b90506020020160208101906133a291906141c3565b6001600160a01b031614156133f95760405162461bcd60e51b815260206004820152601b60248201527f525352206973206e6f742076616c696420636f6c6c61746572616c00000000006044820152606401610358565b836001600160a01b03168787838181106134155761341561446e565b905060200201602081019061342a91906141c3565b6001600160a01b031614156134815760405162461bcd60e51b815260206004820152601e60248201527f52546f6b656e206973206e6f742076616c696420636f6c6c61746572616c00006044820152606401610358565b826001600160a01b031687878381811061349d5761349d61446e565b90506020020160208101906134b291906141c3565b6001600160a01b031614156135095760405162461bcd60e51b815260206004820152601d60248201527f7374525352206973206e6f742076616c696420636f6c6c61746572616c0000006044820152606401610358565b816001600160a01b03168787838181106135255761352561446e565b905060200201602081019061353a91906141c3565b6001600160a01b0316141561359d5760405162461bcd60e51b8152602060048201526024808201527f61646472657373207a65726f206973206e6f742076616c696420636f6c6c6174604482015263195c985b60e21b6064820152608401610358565b806135a7816144b7565b915050613369565b506135ec868680806020026020016040519081016040528093929190818152602001838360200280828437600092019190915250613f6f92505050565b61362e5760405162461bcd60e51b8152602060048201526013602482015272636f6e7461696e73206475706c69636174657360681b6044820152606401610358565b505050505050565b60006125d8825490565b600061308a838361400c565b600061308a8383614036565b805460005b818110156136d55760008360010160008560000184815481106136825761368261446e565b6000918252602080832091909101546001600160a01b03168352820192909252604001902080546001600160c01b0319166001600160c01b03929092169190911790556136ce816144b7565b905061365d565b506103e6826000614178565b600061308a8383614129565b600061308a828461495c565b60006001600160a01b038216613711575060006125d8565b603360009054906101000a90046001600160a01b03166001600160a01b031663c99dc3dd6040518163ffffffff1660e01b815260040160206040518083038186803b15801561375f57600080fd5b505afa158015613773573d6000803e3d6000fd5b505050506040513d601f19601f820116820180604052508101906137979190614451565b6001600160a01b0316826001600160a01b031614156137b8575060006125d8565b603360009054906101000a90046001600160a01b03166001600160a01b03166340c65f726040518163ffffffff1660e01b815260040160206040518083038186803b15801561380657600080fd5b505afa15801561381a573d6000803e3d6000fd5b505050506040513d601f19601f8201168201806040525081019061383e9190614451565b6001600160a01b0316826001600160a01b0316141561385f575060006125d8565b603360009054906101000a90046001600160a01b03166001600160a01b0316634780a5e56040518163ffffffff1660e01b815260040160206040518083038186803b1580156138ad57600080fd5b505afa1580156138c1573d6000803e3d6000fd5b505050506040513d601f19601f820116820180604052508101906138e59190614451565b6001600160a01b0316826001600160a01b03161415613906575060006125d8565b603360009054906101000a90046001600160a01b03166001600160a01b031663979d7e866040518163ffffffff1660e01b815260040160206040518083038186803b15801561395457600080fd5b505afa158015613968573d6000803e3d6000fd5b505050506040513d601f19601f8201168201806040525081019061398c9190614451565b60405163015e89a960e61b81526001600160a01b03848116600483015291909116906357a26a409060240160206040518083038186803b1580156139cf57600080fd5b505afa9250505080156139ff575060408051601f3d908101601f191682019092526139fc91810190614451565b60015b613a0b575060006125d8565b806001600160a01b031663fdfd59176040518163ffffffff1660e01b815260040160206040518083038186803b158015613a4457600080fd5b505afa158015613a58573d6000803e3d6000fd5b505050506040513d601f19601f82011682018060405250810190613a7c91906146a2565b84148015613b0c57506002816001600160a01b031663200d2ed26040518163ffffffff1660e01b815260040160206040518083038186803b158015613ac057600080fd5b505afa158015613ad4573d6000803e3d6000fd5b505050506040513d601f19601f82011682018060405250810190613af89190614484565b6002811115613b0957613b096141e0565b14155b8015613b9157506000816001600160a01b031663a7fa0faf6040518163ffffffff1660e01b815260040160206040518083038186803b158015613b4e57600080fd5b505afa158015613b62573d6000803e3d6000fd5b505050506040513d601f19601f82011682018060405250810190613b869190614591565b6001600160c01b0316115b8015613c1657506000816001600160a01b031663d9e8e6706040518163ffffffff1660e01b815260040160206040518083038186803b158015613bd357600080fd5b505afa158015613be7573d6000803e3d6000fd5b505050506040513d601f19601f82011682018060405250810190613c0b9190614591565b6001600160c01b0316115b9150506125d8565b6001600160c01b038116613c3157505050565b6001600160a01b03821660009081526001840160205260409020546001600160c01b0316613cb8578254600181810185556000858152602080822090930180546001600160a01b0387166001600160a01b0319909116811790915581529085019091526040902080546001600160c01b0383166001600160c01b0319909116179055505050565b6001600160a01b0382166000908152600184016020526040902054613ce6906001600160c01b0316826136ed565b6001600160a01b0383166000908152600185016020526040902080546001600160c01b03929092166001600160c01b0319909216919091179055505050565b6001600160c01b039081169116111590565b600061308a828461497e565b600061308a613082836001600160c01b03861661480c565b613d6482613658565b805460005b81811015613e795782548490849083908110613d8757613d8761446e565b600091825260208083209091015483546001818101865594845291832090910180546001600160a01b0319166001600160a01b03909216919091179055845491850191859084908110613ddc57613ddc61446e565b60009182526020808320909101546001600160a01b0316835282019290925260400181205484546001600160c01b03909116916001870191869085908110613e2657613e2661446e565b6000918252602080832091909101546001600160a01b03168352820192909252604001902080546001600160c01b0319166001600160c01b0392909216919091179055613e72816144b7565b9050613d69565b50505050565b600080613e8c84866149a6565b90506000836002811115613ea257613ea26141e0565b1415613eaf57905061308a565b6001836002811115613ec357613ec36141e0565b1415613f03576002613ed66001866149ba565b613ee091906149a6565b613eea85876149d1565b1115613efe5780613efa816144b7565b9150505b613087565b6000613f0f85876149d1565b11156130875780613f1f816144b7565b9695505050505050565b60006001600160c01b03821115613f535760405163f44398f560e01b815260040160405180910390fd5b5090565b6000808212613f6657816125d8565b6125d8826149e5565b805160009060015b818110156140025760005b81811015613ff157848181518110613f9c57613f9c61446e565b60200260200101516001600160a01b0316858381518110613fbf57613fbf61446e565b60200260200101516001600160a01b03161415613fe157506000949350505050565b613fea816144b7565b9050613f82565b50613ffb816144b7565b9050613f77565b5060019392505050565b60008260000182815481106140235761402361446e565b9060005260206000200154905092915050565b6000818152600183016020526040812054801561411f57600061405a6001836149ba565b855490915060009061406e906001906149ba565b90508181146140d357600086600001828154811061408e5761408e61446e565b90600052602060002001549050808760000184815481106140b1576140b161446e565b6000918252602080832090910192909255918252600188019052604090208390555b85548690806140e4576140e4614a02565b6001900381819060005260206000200160009055905585600101600086815260200190815260200160002060009055600193505050506125d8565b60009150506125d8565b6000818152600183016020526040812054614170575081546001818101845560008481526020808220909301849055845484825282860190935260409020919091556125d8565b5060006125d8565b50805460008255906000526020600020908101906141969190614199565b50565b5b80821115613f53576000815560010161419a565b6001600160a01b038116811461419657600080fd5b6000602082840312156141d557600080fd5b813561308a816141ae565b634e487b7160e01b600052602160045260246000fd5b602081016003831061421857634e487b7160e01b600052602160045260246000fd5b91905290565b600060208083528351808285015260005b8181101561424b5785810183015185820160400152820161422f565b8181111561425d576000604083870101525b50601f01601f1916929092016040019392505050565b6001600160c01b038116811461419657600080fd5b6003811061419657600080fd5b600080604083850312156142a857600080fd5b82356142b381614273565b915060208301356142c381614288565b809150509250929050565b604080825283519082018190526000906020906060840190828701845b828110156143105781516001600160a01b0316845292840192908401906001016142eb565b5050508381038285015284518082528583019183019060005b8181101561434557835183529284019291840191600101614329565b5090979650505050505050565b60008083601f84011261436457600080fd5b50813567ffffffffffffffff81111561437c57600080fd5b6020830191508360208260051b850101111561439757600080fd5b9250929050565b600080600080604085870312156143b457600080fd5b843567ffffffffffffffff808211156143cc57600080fd5b6143d888838901614352565b909650945060208701359150808211156143f157600080fd5b506143fe87828801614352565b95989497509550505050565b6000806000806060858703121561442057600080fd5b8435935060208501359250604085013567ffffffffffffffff81111561444557600080fd5b6143fe87828801614352565b60006020828403121561446357600080fd5b815161308a816141ae565b634e487b7160e01b600052603260045260246000fd5b60006020828403121561449657600080fd5b815161308a81614288565b634e487b7160e01b600052601160045260246000fd5b60006000198214156144cb576144cb6144a1565b5060010190565b60006001600160c01b03828116848216811515828404821116156144f8576144f86144a1565b02949350505050565b80516020808301519190811015614522576000198160200360031b1b821691505b50919050565b60006020828403121561453a57600080fd5b8151801515811461308a57600080fd5b6000806040838503121561455d57600080fd5b825161456881614273565b60208401519092506142c381614273565b6000821982111561458c5761458c6144a1565b500190565b6000602082840312156145a357600080fd5b815161308a81614273565b634e487b7160e01b600052604160045260246000fd5b6000602082840312156145d657600080fd5b815160ff8116811461308a57600080fd5b6000606082016060835280865480835260808501915087600052602092508260002060005b828110156146335781546001600160a01b031684526020840193506001918201910161460c565b5050508381038285015285518082528683019183019060005b818110156146715783516001600160c01b03168352928401929184019160010161464c565b505085151560408601529250610d89915050565b60006020828403121561469757600080fd5b813561308a81614273565b6000602082840312156146b457600080fd5b5051919050565b8183526000602080850194508260005b858110156146f95781356146de816141ae565b6001600160a01b0316875295820195908201906001016146cb565b509495945050505050565b6060815260006147186060830187896146bb565b8281036020848101919091528582528691810160005b8781101561475c57833561474181614273565b6001600160c01b03168252928201929082019060010161472e565b508481036040860152855180825290820192508186019060005b8181101561479257825185529383019391830191600101614776565b50929a9950505050505050505050565b6020815260006130876020830184866146bb565b634e487b7160e01b600052600160045260246000fd5b600065ffffffffffff8083168185168083038211156147ed576147ed6144a1565b01949350505050565b634e487b7160e01b600052601260045260246000fd5b6000816000190483118215151615614826576148266144a1565b500290565b600081810b83820b8281128015607f1983018412161561484d5761484d6144a1565b81607f018313811615614862576148626144a1565b5090039392505050565b600181815b808511156148a757816000190482111561488d5761488d6144a1565b8085161561489a57918102915b93841c9390800290614871565b509250929050565b6000826148be575060016125d8565b816148cb575060006125d8565b81600181146148e157600281146148eb57614907565b60019150506125d8565b60ff8411156148fc576148fc6144a1565b50506001821b6125d8565b5060208310610133831016604e8410600b841016171561492a575081810a6125d8565b614934838361486c565b8060001904821115614948576149486144a1565b029392505050565b600061308a83836148af565b60006001600160c01b038281168482168083038211156147ed576147ed6144a1565b60006001600160c01b038381169083168181101561499e5761499e6144a1565b039392505050565b6000826149b5576149b56147f6565b500490565b6000828210156149cc576149cc6144a1565b500390565b6000826149e0576149e06147f6565b500690565b6000600160ff1b8214156149fb576149fb6144a1565b5060000390565b634e487b7160e01b600052603160045260246000fdfea264697066735822122065aa9bcc4e2382e6084747d7d94c591b6d105cfe139029aba91b98cf4300711864736f6c63430008090033608060405234801561001057600080fd5b50614de5806100206000396000f3fe608060405234801561001057600080fd5b50600436106101585760003560e01c806398026d94116100c3578063bcaeb7b91161007c578063bcaeb7b91461032a578063c76aeb121461033d578063cb9414f81461034f578063d50e7a701461031b578063dffeadd014610362578063e7227de61461037557600080fd5b806398026d941461028d578063a8372fd8146102a0578063a9f752e5146102b3578063adaef42c146102f4578063b51f8f8814610307578063b9bebb041461031b57600080fd5b806336a02f571161011557806336a02f5714610212578063372500ab14610225578063386eafd91461022d5780633f0568531461024057806354fd4d50146102535780637cbf6db21461027a57600080fd5b80630db3d42c1461015d5780630e0264d11461019457806310e4d36b146101a957806312701397146101bc5780631e911a5c146101cf5780632bca33e9146101f0575b600080fd5b60355461017790600160301b90046001600160c01b031681565b6040516001600160c01b0390911681526020015b60405180910390f35b6101a76101a236600461444e565b61038e565b005b6101a76101b7366004614480565b61072e565b603754610177906001600160c01b031681565b6101e26101dd36600461449d565b6108b7565b60405190815260200161018b565b6101fb6301e1338081565b60405165ffffffffffff909116815260200161018b565b6101a7610220366004614480565b6108d0565b6101a7610a5f565b6101a761023b3660046144dd565b610da1565b6101a761024e3660046144fa565b610f32565b60408051808201825260058152640312e322e360dc1b6020820152905161018b919061459f565b603654610177906001600160c01b031681565b6101a761029b36600461444e565b61106b565b6101a76102ae3660046144fa565b611371565b6102dc6102c136600461444e565b6034602052600090815260409020546001600160a01b031681565b6040516001600160a01b03909116815260200161018b565b6101a761030236600461444e565b61148f565b6101776c01431e0fae6d7217caa000000081565b610177670de0b6b3a764000081565b6101a76103383660046145d2565b611692565b6035546101fb9065ffffffffffff1681565b6101a761035d366004614480565b6117c5565b6033546102dc906001600160a01b031681565b6036546101fb90600160c01b900465ffffffffffff1681565b603360009054906101000a90046001600160a01b03166001600160a01b031663f17063756040518163ffffffff1660e01b815260040160206040518083038186803b1580156103dc57600080fd5b505afa1580156103f0573d6000803e3d6000fd5b505050506040513d601f19601f820116820180604052508101906104149190614658565b1561043a5760405162461bcd60e51b815260040161043190614673565b60405180910390fd5b6001600160a01b03808216600090815260346020526040902054168061045e575050565b806001600160a01b031663faf7ba6a6040518163ffffffff1660e01b815260040160206040518083038186803b15801561049757600080fd5b505afa1580156104ab573d6000803e3d6000fd5b505050506040513d601f19601f820116820180604052508101906104cf9190614658565b61050f5760405162461bcd60e51b815260206004820152601160248201527018d85b9b9bdd081cd95d1d1b19481e595d607a1b6044820152606401610431565b6001600160a01b038216600090815260346020526040812080546001600160a01b03191690556035805465ffffffffffff169161054b836146b3565b91906101000a81548165ffffffffffff021916908365ffffffffffff16021790555050600080826001600160a01b03166311da60b46040518163ffffffff1660e01b81526004016040805180830381600087803b1580156105ab57600080fd5b505af11580156105bf573d6000803e3d6000fd5b505050506040513d601f19601f820116820180604052508101906105e391906146d5565b91509150826001600160a01b031663a6f2ae3a6040518163ffffffff1660e01b815260040160206040518083038186803b15801561062057600080fd5b505afa158015610634573d6000803e3d6000fd5b505050506040513d601f19601f8201168201806040525081019061065891906146f9565b6001600160a01b0316836001600160a01b031663457100746040518163ffffffff1660e01b815260040160206040518083038186803b15801561069a57600080fd5b505afa1580156106ae573d6000803e3d6000fd5b505050506040513d601f19601f820116820180604052508101906106d291906146f9565b6001600160a01b0316846001600160a01b03167f058fb1fa484531f400806f666315faf1a45941db93ba069405882b78ba40dc87858560405161071f929190918252602082015260400190565b60405180910390a45050505b50565b60335460408051808201909152600581526427aba722a960d91b60208201526001600160a01b03909116906391d148549061076890614716565b336040516001600160e01b031960e085901b16815260048101929092526001600160a01b0316602482015260440160206040518083038186803b1580156107ae57600080fd5b505afa1580156107c2573d6000803e3d6000fd5b505050506040513d601f19601f820116820180604052508101906107e69190614658565b6108025760405162461bcd60e51b81526004016104319061473d565b670de0b6b3a76400006001600160c01b038216111561085b5760405162461bcd60e51b815260206004820152601560248201527434b73b30b634b2103130b1b5b4b733a13ab33332b960591b6044820152606401610431565b6037546040516001600160c01b038084169216907f4ec8ac3ba3ecc0b9d7690e98f4bf8f5c70b8f2a9b4326c757b44ba3d19c1879690600090a3603780546001600160c01b0319166001600160c01b0392909216919091179055565b60006108c68484846002611969565b90505b9392505050565b60335460408051808201909152600581526427aba722a960d91b60208201526001600160a01b03909116906391d148549061090a90614716565b336040516001600160e01b031960e085901b16815260048101929092526001600160a01b0316602482015260440160206040518083038186803b15801561095057600080fd5b505afa158015610964573d6000803e3d6000fd5b505050506040513d601f19601f820116820180604052508101906109889190614658565b6109a45760405162461bcd60e51b81526004016104319061473d565b6c01431e0fae6d7217caa00000006001600160c01b0382161115610a035760405162461bcd60e51b8152602060048201526016602482015275696e76616c6964206d696e5472616465566f6c756d6560501b6044820152606401610431565b6036546040516001600160c01b038084169216907f1dec1ae9fd64ef0d8a6b130d853a8ab21d337625027cc60c63028f3d383495dc90600090a3603680546001600160c01b0319166001600160c01b0392909216919091179055565b603360009054906101000a90046001600160a01b03166001600160a01b031663f17063756040518163ffffffff1660e01b815260040160206040518083038186803b158015610aad57600080fd5b505afa158015610ac1573d6000803e3d6000fd5b505050506040513d601f19601f82011682018060405250810190610ae59190614658565b15610b025760405162461bcd60e51b815260040161043190614673565b603360009054906101000a90046001600160a01b03166001600160a01b031663181783586040518163ffffffff1660e01b8152600401600060405180830381600087803b158015610b5257600080fd5b505af1158015610b66573d6000803e3d6000fd5b505050506000603360009054906101000a90046001600160a01b03166001600160a01b031663979d7e866040518163ffffffff1660e01b815260040160206040518083038186803b158015610bba57600080fd5b505afa158015610bce573d6000803e3d6000fd5b505050506040513d601f19601f82011682018060405250810190610bf291906146f9565b90506000816001600160a01b0316632510a1d76040518163ffffffff1660e01b815260040160006040518083038186803b158015610c2f57600080fd5b505afa158015610c43573d6000803e3d6000fd5b505050506040513d6000823e601f3d908101601f19168201604052610c6b91908101906147ad565b905060005b8151811015610d9c576000836001600160a01b031663cde2be8a848481518110610c9c57610c9c61485f565b60200260200101516040518263ffffffff1660e01b8152600401610ccf91906001600160a01b0391909116815260200190565b60206040518083038186803b158015610ce757600080fd5b505afa158015610cfb573d6000803e3d6000fd5b505050506040513d601f19601f82011682018060405250810190610d1f91906146f9565b6040805160048152602481018252602080820180516001600160e01b031663372500ab60e01b179052825180840190935260148352731c995dd85c991cc818db185a5b4819985a5b195960621b90830152919250610d87916001600160a01b03841691611a1a565b50508080610d9490614875565b915050610c70565b505050565b60335460408051808201909152600581526427aba722a960d91b60208201526001600160a01b03909116906391d1485490610ddb90614716565b336040516001600160e01b031960e085901b16815260048101929092526001600160a01b0316602482015260440160206040518083038186803b158015610e2157600080fd5b505afa158015610e35573d6000803e3d6000fd5b505050506040513d601f19601f82011682018060405250810190610e599190614658565b610e755760405162461bcd60e51b81526004016104319061473d565b6301e1338065ffffffffffff82161115610ec85760405162461bcd60e51b8152602060048201526014602482015273696e76616c69642074726164696e6744656c617960601b6044820152606401610431565b60365460405165ffffffffffff80841692600160c01b900416907f4af929ab8885bbdcb8b01903439a99e3fb33354657d151119f731b01db793bdb90600090a36036805465ffffffffffff909216600160c01b0265ffffffffffff60c01b19909216919091179055565b603360009054906101000a90046001600160a01b03166001600160a01b031663f17063756040518163ffffffff1660e01b815260040160206040518083038186803b158015610f8057600080fd5b505afa158015610f94573d6000803e3d6000fd5b505050506040513d601f19601f82011682018060405250810190610fb89190614658565b15610fd55760405162461bcd60e51b815260040161043190614673565b611011828280806020026020016040519081016040528093929190818152602001838360200280828437600092019190915250611a9292505050565b61105d5760405162461bcd60e51b815260206004820152601960248201527f6475706c69636174652f756e736f7274656420746f6b656e73000000000000006044820152606401610431565b6110678282611b1b565b5050565b603360009054906101000a90046001600160a01b03166001600160a01b031663f17063756040518163ffffffff1660e01b815260040160206040518083038186803b1580156110b957600080fd5b505afa1580156110cd573d6000803e3d6000fd5b505050506040513d601f19601f820116820180604052508101906110f19190614658565b1561110e5760405162461bcd60e51b815260040161043190614673565b603360009054906101000a90046001600160a01b03166001600160a01b031663979d7e866040518163ffffffff1660e01b815260040160206040518083038186803b15801561115c57600080fd5b505afa158015611170573d6000803e3d6000fd5b505050506040513d601f19601f8201168201806040525081019061119491906146f9565b60405163c3c5a54760e01b81526001600160a01b038381166004830152919091169063c3c5a5479060240160206040518083038186803b1580156111d757600080fd5b505afa1580156111eb573d6000803e3d6000fd5b505050506040513d601f19601f8201168201806040525081019061120f9190614658565b6112505760405162461bcd60e51b8152602060048201526012602482015271195c98cc8c081d5b9c9959da5cdd195c995960721b6044820152606401610431565b603354604080516320632fb960e11b815290516112e0926001600160a01b0316916340c65f72916004808301926020929190829003018186803b15801561129657600080fd5b505afa1580156112aa573d6000803e3d6000fd5b505050506040513d601f19601f820116820180604052508101906112ce91906146f9565b6001600160a01b0383169060006122b2565b603354604080516320632fb960e11b8152905161072b926001600160a01b0316916340c65f72916004808301926020929190829003018186803b15801561132657600080fd5b505afa15801561133a573d6000803e3d6000fd5b505050506040513d601f19601f8201168201806040525081019061135e91906146f9565b6001600160a01b038316906000196122b2565b603360009054906101000a90046001600160a01b03166001600160a01b031663f17063756040518163ffffffff1660e01b815260040160206040518083038186803b1580156113bf57600080fd5b505afa1580156113d3573d6000803e3d6000fd5b505050506040513d601f19601f820116820180604052508101906113f79190614658565b156114145760405162461bcd60e51b815260040161043190614673565b61145082828080602002602001604051908101604052809392919081815260200183836020028082843760009201919091525061240992505050565b61105d5760405162461bcd60e51b815260206004820152601060248201526f6475706c696361746520746f6b656e7360801b6044820152606401610431565b603360009054906101000a90046001600160a01b03166001600160a01b031663f17063756040518163ffffffff1660e01b815260040160206040518083038186803b1580156114dd57600080fd5b505afa1580156114f1573d6000803e3d6000fd5b505050506040513d601f19601f820116820180604052508101906115159190614658565b156115325760405162461bcd60e51b815260040161043190614673565b60335460408051634bcebf4360e11b815290516000926001600160a01b03169163979d7e86916004808301926020929190829003018186803b15801561157757600080fd5b505afa15801561158b573d6000803e3d6000fd5b505050506040513d601f19601f820116820180604052508101906115af91906146f9565b6040516366f15f4560e11b81526001600160a01b038481166004830152919091169063cde2be8a9060240160206040518083038186803b1580156115f257600080fd5b505afa158015611606573d6000803e3d6000fd5b505050506040513d601f19601f8201168201806040525081019061162a91906146f9565b6040805160048152602481018252602080820180516001600160e01b031663372500ab60e01b179052825180840190935260148352731c995dd85c991cc818db185a5b4819985a5b195960621b90830152919250610d9c916001600160a01b03841691611a1a565b600054610100900460ff16158080156116b25750600054600160ff909116105b806116cc5750303b1580156116cc575060005460ff166001145b61172f5760405162461bcd60e51b815260206004820152602e60248201527f496e697469616c697a61626c653a20636f6e747261637420697320616c72656160448201526d191e481a5b9a5d1a585b1a5e995960921b6064820152608401610431565b6000805460ff191660011790558015611752576000805461ff0019166101001790555b61175b8661249c565b6117658383612532565b61176e85610da1565b6117778461072e565b80156117bd576000805461ff0019169055604051600181527f7f26b83ff96e1f2b6a682f133852f6798a09c465da95921460cefb38474024989060200160405180910390a15b505050505050565b60335460408051808201909152600581526427aba722a960d91b60208201526001600160a01b03909116906391d14854906117ff90614716565b336040516001600160e01b031960e085901b16815260048101929092526001600160a01b0316602482015260440160206040518083038186803b15801561184557600080fd5b505afa158015611859573d6000803e3d6000fd5b505050506040513d601f19601f8201168201806040525081019061187d9190614658565b6118995760405162461bcd60e51b81526004016104319061473d565b670de0b6b3a76400006001600160c01b038216106118f95760405162461bcd60e51b815260206004820152601860248201527f696e76616c6964206d61785472616465536c69707061676500000000000000006044820152606401610431565b6035546040516001600160c01b0380841692600160301b900416907f58d1f6b92b372d2913abb309ec9503acc2a53ed508ec34f478d7aeab07760f9990600090a3603580546001600160c01b03909216600160301b026601000000000000600160f01b0319909216919091179055565b60008061197786868661256b565b9050600083600281111561198d5761198d614890565b141561199a579050611a12565b600084806119aa576119aa6148a6565b868809905060028460028111156119c3576119c3614890565b14156119e25780156119dd576119da6001836148bc565b91505b611a0e565b60026119ef6001876148d4565b6119f991906148eb565b811115611a0e57611a0b6001836148bc565b91505b5090505b949350505050565b6060600080856001600160a01b031685604051611a3791906148ff565b600060405180830381855af49150503d8060008114611a72576040519150601f19603f3d011682016040523d82523d6000602084013e611a77565b606091505b5091509150611a888683838761264e565b9695505050505050565b805160009060015b81811015611b115783611aae6001836148d4565b81518110611abe57611abe61485f565b60200260200101516001600160a01b0316848281518110611ae157611ae161485f565b60200260200101516001600160a01b031611611b01575060009392505050565b611b0a81614875565b9050611a9a565b5060019392505050565b603360009054906101000a90046001600160a01b03166001600160a01b031663181783586040518163ffffffff1660e01b8152600401600060405180830381600087803b158015611b6b57600080fd5b505af1158015611b7f573d6000803e3d6000fd5b505060355465ffffffffffff16159150611b999050575050565b60335460408051632f2439b160e01b815290516000926001600160a01b031691632f2439b1916004808301926020929190829003018186803b158015611bde57600080fd5b505afa158015611bf2573d6000803e3d6000fd5b505050506040513d601f19601f82011682018060405250810190611c1691906146f9565b6001600160a01b031663200d2ed26040518163ffffffff1660e01b815260040160206040518083038186803b158015611c4e57600080fd5b505afa158015611c62573d6000803e3d6000fd5b505050506040513d601f19601f82011682018060405250810190611c86919061491b565b6002811115611c9757611c97614890565b14611cd75760405162461bcd60e51b815260206004820152601060248201526f18985cdad95d081b9bdd081cdbdd5b9960821b6044820152606401610431565b60335460408051632f2439b160e01b815290516000926001600160a01b031691632f2439b1916004808301926020929190829003018186803b158015611d1c57600080fd5b505afa158015611d30573d6000803e3d6000fd5b505050506040513d601f19601f82011682018060405250810190611d5491906146f9565b6001600160a01b031663b80777ea6040518163ffffffff1660e01b815260040160206040518083038186803b158015611d8c57600080fd5b505afa158015611da0573d6000803e3d6000fd5b505050506040513d601f19601f82011682018060405250810190611dc4919061493c565b603654909150611de390600160c01b900465ffffffffffff1682614959565b65ffffffffffff16421015611df757505050565b603360009054906101000a90046001600160a01b03166001600160a01b0316632f2439b16040518163ffffffff1660e01b815260040160206040518083038186803b158015611e4557600080fd5b505afa158015611e59573d6000803e3d6000fd5b505050506040513d601f19601f82011682018060405250810190611e7d91906146f9565b6001600160a01b031663e45a5b2d6040518163ffffffff1660e01b815260040160206040518083038186803b158015611eb557600080fd5b505afa158015611ec9573d6000803e3d6000fd5b505050506040513d601f19601f82011682018060405250810190611eed9190614658565b15611efc57610d9c83836126c4565b6040516330bc418760e11b8152306004820152600090819073__$7004c025fd4b58168fd7f336eb5efdb0d9$__90636178830e9060240160a06040518083038186803b158015611f4b57600080fd5b505af4158015611f5f573d6000803e3d6000fd5b505050506040513d601f19601f82011682018060405250810190611f839190614983565b9150915081156122a357603360009054906101000a90046001600160a01b03166001600160a01b031663c99dc3dd6040518163ffffffff1660e01b815260040160206040518083038186803b158015611fdb57600080fd5b505afa158015611fef573d6000803e3d6000fd5b505050506040513d601f19601f8201168201806040525081019061201391906146f9565b6001600160a01b031681600001516001600160a01b031663785e9e866040518163ffffffff1660e01b815260040160206040518083038186803b15801561205957600080fd5b505afa15801561206d573d6000803e3d6000fd5b505050506040513d601f19601f8201168201806040525081019061209191906146f9565b6001600160a01b0316141561229557600081600001516001600160a01b031663785e9e866040518163ffffffff1660e01b815260040160206040518083038186803b1580156120df57600080fd5b505afa1580156120f3573d6000803e3d6000fd5b505050506040513d601f19601f8201168201806040525081019061211791906146f9565b6040516370a0823160e01b81523060048201526001600160a01b0391909116906370a082319060240160206040518083038186803b15801561215857600080fd5b505afa15801561216c573d6000803e3d6000fd5b505050506040513d601f19601f820116820180604052508101906121909190614a1d565b9050808260400151111561229357603360009054906101000a90046001600160a01b03166001600160a01b0316634780a5e56040518163ffffffff1660e01b815260040160206040518083038186803b1580156121ec57600080fd5b505afa158015612200573d6000803e3d6000fd5b505050506040513d601f19601f8201168201806040525081019061222491906146f9565b6001600160a01b031663a439622f82846040015161224291906148d4565b6040518263ffffffff1660e01b815260040161226091815260200190565b600060405180830381600087803b15801561227a57600080fd5b505af115801561228e573d6000803e3d6000fd5b505050505b505b61229e8161353e565b6122ab565b6122ab613ac9565b5050505050565b80158061233b5750604051636eb1769f60e11b81523060048201526001600160a01b03838116602483015284169063dd62ed3e9060440160206040518083038186803b15801561230157600080fd5b505afa158015612315573d6000803e3d6000fd5b505050506040513d601f19601f820116820180604052508101906123399190614a1d565b155b6123a65760405162461bcd60e51b815260206004820152603660248201527f5361666545524332303a20617070726f76652066726f6d206e6f6e2d7a65726f60448201527520746f206e6f6e2d7a65726f20616c6c6f77616e636560501b6064820152608401610431565b6040516001600160a01b038316602482015260448101829052610d9c90849063095ea7b360e01b906064015b60408051601f198184030181529190526020810180516001600160e01b03166001600160e01b031990931692909217909152613ed0565b805160009060015b81811015611b115760005b8181101561248b578481815181106124365761243661485f565b60200260200101516001600160a01b03168583815181106124595761245961485f565b60200260200101516001600160a01b0316141561247b57506000949350505050565b61248481614875565b905061241c565b5061249581614875565b9050612411565b600054610100900460ff166124c35760405162461bcd60e51b815260040161043190614a36565b6001600160a01b0381166125105760405162461bcd60e51b81526020600482015260146024820152736d61696e206973207a65726f206164647265737360601b6044820152606401610431565b603380546001600160a01b0319166001600160a01b0392909216919091179055565b600054610100900460ff166125595760405162461bcd60e51b815260040161043190614a36565b612562826117c5565b611067816108d0565b600080600061257a8686613fa2565b9150915083821061259e5760405163f44398f560e01b815260040160405180910390fd5b600084806125ae576125ae6148a6565b8688099050818111156125c2576001830392505b9081900390600085900385168086816125dd576125dd6148a6565b0495508083816125ef576125ef6148a6565b049250808160000381612604576126046148a6565b046001019390930291909101600285810380870282030280870282030280870282030280870282030280870282030280870282030295860290039094029390930295945050505050565b606083156126ba5782516126b3576001600160a01b0385163b6126b35760405162461bcd60e51b815260206004820152601d60248201527f416464726573733a2063616c6c20746f206e6f6e2d636f6e74726163740000006044820152606401610431565b5081611a12565b611a128383613fcf565b60335460408051632f2439b160e01b815290516000926001600160a01b031691632f2439b1916004808301926020929190829003018186803b15801561270957600080fd5b505afa15801561271d573d6000803e3d6000fd5b505050506040513d601f19601f8201168201806040525081019061274191906146f9565b6001600160a01b031663200d2ed26040518163ffffffff1660e01b815260040160206040518083038186803b15801561277957600080fd5b505afa15801561278d573d6000803e3d6000fd5b505050506040513d601f19601f820116820180604052508101906127b1919061491b565b60028111156127c2576127c2614890565b146127cf576127cf614a81565b6033546040805163c99dc3dd60e01b815290516000926001600160a01b03169163c99dc3dd916004808301926020929190829003018186803b15801561281457600080fd5b505afa158015612828573d6000803e3d6000fd5b505050506040513d601f19601f8201168201806040525081019061284c91906146f9565b6040516370a0823160e01b81523060048201526001600160a01b0391909116906370a082319060240160206040518083038186803b15801561288d57600080fd5b505afa1580156128a1573d6000803e3d6000fd5b505050506040513d601f19601f820116820180604052508101906128c59190614a1d565b905080156129d75760335460408051635313676360e01b815290516129d7926001600160a01b0316916353136763916004808301926020929190829003018186803b15801561291357600080fd5b505afa158015612927573d6000803e3d6000fd5b505050506040513d601f19601f8201168201806040525081019061294b91906146f9565b6033546040805163c99dc3dd60e01b8152905185926001600160a01b03169163c99dc3dd916004808301926020929190829003018186803b15801561298f57600080fd5b505afa1580156129a3573d6000803e3d6000fd5b505050506040513d601f19601f820116820180604052508101906129c791906146f9565b6001600160a01b03169190613ff9565b600080603360009054906101000a90046001600160a01b03166001600160a01b03166340c65f726040518163ffffffff1660e01b815260040160206040518083038186803b158015612a2857600080fd5b505afa158015612a3c573d6000803e3d6000fd5b505050506040513d601f19601f82011682018060405250810190612a6091906146f9565b9050806001600160a01b0316637121c2736040518163ffffffff1660e01b815260040160206040518083038186803b158015612a9b57600080fd5b505afa158015612aaf573d6000803e3d6000fd5b505050506040513d601f19601f82011682018060405250810190612ad39190614a97565b91506000603360009054906101000a90046001600160a01b03166001600160a01b0316632f2439b16040518163ffffffff1660e01b815260040160206040518083038186803b158015612b2557600080fd5b505afa158015612b39573d6000803e3d6000fd5b505050506040513d601f19601f82011682018060405250810190612b5d91906146f9565b604051635523caaf60e11b81523060048201526001600160a01b03919091169063aa47955e9060240160206040518083038186803b158015612b9e57600080fd5b505afa158015612bb2573d6000803e3d6000fd5b505050506040513d601f19601f82011682018060405250810190612bd69190614a97565b9050612beb6001600160c01b03821684614029565b15612e00576000826001600160a01b031663313ce5676040518163ffffffff1660e01b815260040160206040518083038186803b158015612c2b57600080fd5b505afa158015612c3f573d6000803e3d6000fd5b505050506040513d601f19601f82011682018060405250810190612c639190614ab4565b90506000612ce9846001600160a01b03166318160ddd6040518163ffffffff1660e01b815260040160206040518083038186803b158015612ca357600080fd5b505afa158015612cb7573d6000803e3d6000fd5b505050506040513d601f19601f82011682018060405250810190612cdb9190614a1d565b612ce484614ad7565b61403f565b90506000612d006001600160c01b0385168761404d565b9050600080876001600160c01b031611612d1a5781612d2e565b612d2e6001600160c01b0383168489614059565b6040516340c10f1960e01b81523060048201526001600160c01b03821660248201529091506001600160a01b038716906340c10f1990604401600060405180830381600087803b158015612d8157600080fd5b505af1158015612d95573d6000803e3d6000fd5b5050604051636396544960e01b81526001600160c01b03881660048201526001600160a01b038916925063639654499150602401600060405180830381600087803b158015612de357600080fd5b505af1158015612df7573d6000803e3d6000fd5b50505050505050505b5050603754612f2a90612e2590670de0b6b3a7640000906001600160c01b0316614068565b603360009054906101000a90046001600160a01b03166001600160a01b03166340c65f726040518163ffffffff1660e01b815260040160206040518083038186803b158015612e7357600080fd5b505afa158015612e87573d6000803e3d6000fd5b505050506040513d601f19601f82011682018060405250810190612eab91906146f9565b6001600160a01b0316637121c2736040518163ffffffff1660e01b815260040160206040518083038186803b158015612ee357600080fd5b505afa158015612ef7573d6000803e3d6000fd5b505050506040513d601f19601f82011682018060405250810190612f1b9190614a97565b6001600160c01b031690614074565b90506000603360009054906101000a90046001600160a01b03166001600160a01b031663bfe109286040518163ffffffff1660e01b815260040160206040518083038186803b158015612f7c57600080fd5b505afa158015612f90573d6000803e3d6000fd5b505050506040513d601f19601f82011682018060405250810190612fb491906146f9565b6001600160a01b031663c038a38e6040518163ffffffff1660e01b8152600401604080518083038186803b158015612feb57600080fd5b505afa158015612fff573d6000803e3d6000fd5b505050506040513d601f19601f820116820180604052508101906130239190614b0a565b905060005b848110156117bd5760335460408051634bcebf4360e11b815290516000926001600160a01b03169163979d7e86916004808301926020929190829003018186803b15801561307557600080fd5b505afa158015613089573d6000803e3d6000fd5b505050506040513d601f19601f820116820180604052508101906130ad91906146f9565b6001600160a01b031663cde2be8a8888858181106130cd576130cd61485f565b90506020020160208101906130e2919061444e565b6040516001600160e01b031960e084901b1681526001600160a01b03909116600482015260240160206040518083038186803b15801561312157600080fd5b505afa158015613135573d6000803e3d6000fd5b505050506040513d601f19601f8201168201806040525081019061315991906146f9565b604051632ac07b9560e11b81523060048201529091506000906001600160a01b03831690635580f72a9060240160206040518083038186803b15801561319e57600080fd5b505afa1580156131b2573d6000803e3d6000fd5b505050506040513d601f19601f820116820180604052508101906131d69190614a97565b90506000613321603360009054906101000a90046001600160a01b03166001600160a01b0316632f2439b16040518163ffffffff1660e01b815260040160206040518083038186803b15801561322b57600080fd5b505afa15801561323f573d6000803e3d6000fd5b505050506040513d601f19601f8201168201806040525081019061326391906146f9565b6001600160a01b031663a5a5828c8b8b888181106132835761328361485f565b9050602002016020810190613298919061444e565b6040516001600160e01b031960e084901b1681526001600160a01b03909116600482015260240160206040518083038186803b1580156132d757600080fd5b505afa1580156132eb573d6000803e3d6000fd5b505050506040513d601f19601f8201168201806040525081019061330f9190614a97565b6001600160c01b03881690600261407e565b90506133366001600160c01b03831682614029565b156135285760006133d3846001600160a01b0316633cb5d3796040518163ffffffff1660e01b815260040160206040518083038186803b15801561337957600080fd5b505afa15801561338d573d6000803e3d6000fd5b505050506040513d601f19601f820116820180604052508101906133b19190614ab4565b6133c46001600160c01b0386168561404d565b6001600160c01b0316906140b0565b90506000866020015187600001516133eb9190614b65565b6133fa9062ffffff16836148eb565b90506000876020015162ffffff16826134139190614b83565b905080156134c15760335460408051635313676360e01b815290516134c1926001600160a01b0316916353136763916004808301926020929190829003018186803b15801561346157600080fd5b505afa158015613475573d6000803e3d6000fd5b505050506040513d601f19601f8201168201806040525081019061349991906146f9565b828e8e8b8181106134ac576134ac61485f565b90506020020160208101906129c7919061444e565b5086516000906134d69062ffffff1683614b83565b9050801561352457603354604080516320df862760e11b81529051613524926001600160a01b0316916341bf0c4e916004808301926020929190829003018186803b15801561346157600080fd5b5050505b505050808061353690614875565b915050613028565b60335460408051630abff01160e41b815290516000926001600160a01b03169163abff0110916004808301926020929190829003018186803b15801561358357600080fd5b505afa158015613597573d6000803e3d6000fd5b505050506040513d601f19601f820116820180604052508101906135bb91906146f9565b905060006001600160a01b03166034600084600001516001600160a01b031663785e9e866040518163ffffffff1660e01b815260040160206040518083038186803b15801561360957600080fd5b505afa15801561361d573d6000803e3d6000fd5b505050506040513d601f19601f8201168201806040525081019061364191906146f9565b6001600160a01b039081168252602082019290925260400160002054161461366b5761366b614a81565b806001600160a01b031663ee0708056040518163ffffffff1660e01b815260040160206040518083038186803b1580156136a457600080fd5b505afa1580156136b8573d6000803e3d6000fd5b505050506040513d601f19601f820116820180604052508101906136dc9190614658565b1561371b5760405162461bcd60e51b815260206004820152600f60248201526e189c9bdad95c88191a5cd8589b1959608a1b6044820152606401610431565b6137a681600084600001516001600160a01b031663785e9e866040518163ffffffff1660e01b815260040160206040518083038186803b15801561375e57600080fd5b505afa158015613772573d6000803e3d6000fd5b505050506040513d601f19601f8201168201806040525081019061379691906146f9565b6001600160a01b031691906122b2565b6137ec81836040015184600001516001600160a01b031663785e9e866040518163ffffffff1660e01b815260040160206040518083038186803b15801561375e57600080fd5b6040805163542d5e2960e01b815283516001600160a01b0390811660048301526020850151811660248301529184015160448201526060840151606482015260009183169063542d5e2990608401602060405180830381600087803b15801561385457600080fd5b505af1158015613868573d6000803e3d6000fd5b505050506040513d601f19601f8201168201806040525081019061388c91906146f9565b9050806034600085600001516001600160a01b031663785e9e866040518163ffffffff1660e01b815260040160206040518083038186803b1580156138d057600080fd5b505afa1580156138e4573d6000803e3d6000fd5b505050506040513d601f19601f8201168201806040525081019061390891906146f9565b6001600160a01b0390811682526020820192909252604001600090812080546001600160a01b031916939092169290921790556035805465ffffffffffff169161395183614ba2565b91906101000a81548165ffffffffffff021916908365ffffffffffff1602179055505082602001516001600160a01b031663785e9e866040518163ffffffff1660e01b815260040160206040518083038186803b1580156139b157600080fd5b505afa1580156139c5573d6000803e3d6000fd5b505050506040513d601f19601f820116820180604052508101906139e991906146f9565b6001600160a01b031683600001516001600160a01b031663785e9e866040518163ffffffff1660e01b815260040160206040518083038186803b158015613a2f57600080fd5b505afa158015613a43573d6000803e3d6000fd5b505050506040513d601f19601f82011682018060405250810190613a6791906146f9565b6001600160a01b0316826001600160a01b03167ff18b757d93c36d059284838a0328b06d8eb30d7214ffadde3266465a0006f6b386604001518760600151604051613abc929190918252602082015260400190565b60405180910390a4505050565b60355465ffffffffffff16158015613bd45750603360009054906101000a90046001600160a01b03166001600160a01b0316632f2439b16040518163ffffffff1660e01b815260040160206040518083038186803b158015613b2a57600080fd5b505afa158015613b3e573d6000803e3d6000fd5b505050506040513d601f19601f82011682018060405250810190613b6291906146f9565b6001600160a01b031663e45a5b2d6040518163ffffffff1660e01b815260040160206040518083038186803b158015613b9a57600080fd5b505afa158015613bae573d6000803e3d6000fd5b505050506040513d601f19601f82011682018060405250810190613bd29190614658565b155b613be057613be0614a81565b603360009054906101000a90046001600160a01b03166001600160a01b03166340c65f726040518163ffffffff1660e01b815260040160206040518083038186803b158015613c2e57600080fd5b505afa158015613c42573d6000803e3d6000fd5b505050506040513d601f19601f82011682018060405250810190613c6691906146f9565b6001600160a01b03166363965449603360009054906101000a90046001600160a01b03166001600160a01b0316632f2439b16040518163ffffffff1660e01b815260040160206040518083038186803b158015613cc257600080fd5b505afa158015613cd6573d6000803e3d6000fd5b505050506040513d601f19601f82011682018060405250810190613cfa91906146f9565b604051635523caaf60e11b81523060048201526001600160a01b03919091169063aa47955e9060240160206040518083038186803b158015613d3b57600080fd5b505afa158015613d4f573d6000803e3d6000fd5b505050506040513d601f19601f82011682018060405250810190613d739190614a97565b6040516001600160e01b031960e084901b1681526001600160c01b039091166004820152602401600060405180830381600087803b158015613db457600080fd5b505af1158015613dc8573d6000803e3d6000fd5b50505050603360009054906101000a90046001600160a01b03166001600160a01b0316632f2439b16040518163ffffffff1660e01b815260040160206040518083038186803b158015613e1a57600080fd5b505afa158015613e2e573d6000803e3d6000fd5b505050506040513d601f19601f82011682018060405250810190613e5291906146f9565b6001600160a01b031663e45a5b2d6040518163ffffffff1660e01b815260040160206040518083038186803b158015613e8a57600080fd5b505afa158015613e9e573d6000803e3d6000fd5b505050506040513d601f19601f82011682018060405250810190613ec29190614658565b613ece57613ece614a81565b565b6000613f25826040518060400160405280602081526020017f5361666545524332303a206c6f772d6c6576656c2063616c6c206661696c6564815250856001600160a01b03166140be9092919063ffffffff16565b805190915015610d9c5780806020019051810190613f439190614658565b610d9c5760405162461bcd60e51b815260206004820152602a60248201527f5361666545524332303a204552433230206f7065726174696f6e20646964206e6044820152691bdd081cdd58d8d9595960b21b6064820152608401610431565b6000808060001984860990508385029150818103925081811015613fc7576001830392505b509250929050565b815115613fdf5781518083602001fd5b8060405162461bcd60e51b8152600401610431919061459f565b6040516001600160a01b038316602482015260448101829052610d9c90849063a9059cbb60e01b906064016123d2565b6001600160c01b03808216908316115b92915050565b60006108c9838360006140cd565b60006108c98284614bc8565b60006108c68484846000614194565b60006108c98284614bf0565b60006108c9838360015b60006108c66140ab61409c6001600160c01b03808716908816614b83565b670de0b6b3a7640000856141c9565b614269565b60006108c983836000614297565b60606108c68484600085614346565b6000836140dc575060006108c9565b605f198360000b136141165760025b8260028111156140fd576140fd614890565b1461410957600061410c565b60015b60ff1690506108c9565b8260000b60281361413a5760405163f44398f560e01b815260040160405180910390fd5b614145601284614c12565b925060006141558460000b614421565b61416090600a614d31565b90506000808560000b121561417f5761417a8683866141c9565b614189565b6141898287614b83565b9050611a8881614269565b60006141c06140ab866001600160c01b0316866001600160c01b0316866001600160c01b031686611969565b95945050505050565b6000806141d684866148eb565b905060008360028111156141ec576141ec614890565b14156141f95790506108c9565b600183600281111561420d5761420d614890565b141561424d5760026142206001866148d4565b61422a91906148eb565b6142348587614d3d565b1115614248578061424481614875565b9150505b6108c6565b60006142598587614d3d565b11156108c65780611a8881614875565b60006001600160c01b038211156142935760405163f44398f560e01b815260040160405180910390fd5b5090565b60006001600160c01b0384166142af575060006108c9565b6029198360000b136142c25760026140eb565b8260000b6060136142e65760405163f44398f560e01b815260040160405180910390fd5b6142f1601284614d51565b925060006143018460000b614421565b61430c90600a614d31565b905060008460000b12156143335761432e856001600160c01b031682856141c9565b6141c0565b6141c0816001600160c01b038716614b83565b6060824710156143a75760405162461bcd60e51b815260206004820152602660248201527f416464726573733a20696e73756666696369656e742062616c616e636520666f6044820152651c8818d85b1b60d21b6064820152608401610431565b600080866001600160a01b031685876040516143c391906148ff565b60006040518083038185875af1925050503d8060008114614400576040519150601f19603f3d011682016040523d82523d6000602084013e614405565b606091505b50915091506144168783838761264e565b979650505050505050565b60008082126144305781614039565b61403982614d92565b6001600160a01b038116811461072b57600080fd5b60006020828403121561446057600080fd5b81356108c981614439565b6001600160c01b038116811461072b57600080fd5b60006020828403121561449257600080fd5b81356108c98161446b565b6000806000606084860312156144b257600080fd5b505081359360208301359350604090920135919050565b65ffffffffffff8116811461072b57600080fd5b6000602082840312156144ef57600080fd5b81356108c9816144c9565b6000806020838503121561450d57600080fd5b823567ffffffffffffffff8082111561452557600080fd5b818501915085601f83011261453957600080fd5b81358181111561454857600080fd5b8660208260051b850101111561455d57600080fd5b60209290920196919550909350505050565b60005b8381101561458a578181015183820152602001614572565b83811115614599576000848401525b50505050565b60208152600082518060208401526145be81604085016020870161456f565b601f01601f19169190910160400192915050565b600080600080600060a086880312156145ea57600080fd5b85356145f581614439565b94506020860135614605816144c9565b935060408601356146158161446b565b925060608601356146258161446b565b915060808601356146358161446b565b809150509295509295909350565b8051801515811461465357600080fd5b919050565b60006020828403121561466a57600080fd5b6108c982614643565b60208082526010908201526f3830bab9b2b21037b910333937bd32b760811b604082015260600190565b634e487b7160e01b600052601160045260246000fd5b600065ffffffffffff8216806146cb576146cb61469d565b6000190192915050565b600080604083850312156146e857600080fd5b505080516020909101519092909150565b60006020828403121561470b57600080fd5b81516108c981614439565b80516020808301519190811015614737576000198160200360031b1b821691505b50919050565b6020808252600f908201526e676f7665726e616e6365206f6e6c7960881b604082015260600190565b634e487b7160e01b600052604160045260246000fd5b604051601f8201601f1916810167ffffffffffffffff811182821017156147a5576147a5614766565b604052919050565b600060208083850312156147c057600080fd5b825167ffffffffffffffff808211156147d857600080fd5b818501915085601f8301126147ec57600080fd5b8151818111156147fe576147fe614766565b8060051b915061480f84830161477c565b818152918301840191848101908884111561482957600080fd5b938501935b83851015614853578451925061484383614439565b828252938501939085019061482e565b98975050505050505050565b634e487b7160e01b600052603260045260246000fd5b60006000198214156148895761488961469d565b5060010190565b634e487b7160e01b600052602160045260246000fd5b634e487b7160e01b600052601260045260246000fd5b600082198211156148cf576148cf61469d565b500190565b6000828210156148e6576148e661469d565b500390565b6000826148fa576148fa6148a6565b500490565b6000825161491181846020870161456f565b9190910192915050565b60006020828403121561492d57600080fd5b8151600381106108c957600080fd5b60006020828403121561494e57600080fd5b81516108c9816144c9565b600065ffffffffffff80831681851680830382111561497a5761497a61469d565b01949350505050565b60008082840360a081121561499757600080fd5b6149a084614643565b92506080601f19820112156149b457600080fd5b506040516080810181811067ffffffffffffffff821117156149d8576149d8614766565b60405260208401516149e981614439565b815260408401516149f981614439565b60208201526060848101516040830152608090940151938101939093525092909150565b600060208284031215614a2f57600080fd5b5051919050565b6020808252602b908201527f496e697469616c697a61626c653a20636f6e7472616374206973206e6f74206960408201526a6e697469616c697a696e6760a81b606082015260800190565b634e487b7160e01b600052600160045260246000fd5b600060208284031215614aa957600080fd5b81516108c98161446b565b600060208284031215614ac657600080fd5b815160ff811681146108c957600080fd5b600081810b607f19811415614aee57614aee61469d565b60000392915050565b805162ffffff8116811461465357600080fd5b600060408284031215614b1c57600080fd5b6040516040810181811067ffffffffffffffff82111715614b3f57614b3f614766565b604052614b4b83614af7565b8152614b5960208401614af7565b60208201529392505050565b600062ffffff80831681851680830382111561497a5761497a61469d565b6000816000190483118215151615614b9d57614b9d61469d565b500290565b600065ffffffffffff80831681811415614bbe57614bbe61469d565b6001019392505050565b60006001600160c01b0383811690831681811015614be857614be861469d565b039392505050565b60006001600160c01b0382811684821680830382111561497a5761497a61469d565b60008160000b8360000b6000821282607f03821381151615614c3657614c3661469d565b82607f19038212811615614c4c57614c4c61469d565b50019392505050565b600181815b80851115613fc7578160001904821115614c7657614c7661469d565b80851615614c8357918102915b93841c9390800290614c5a565b600082614c9f57506001614039565b81614cac57506000614039565b8160018114614cc25760028114614ccc57614ce8565b6001915050614039565b60ff841115614cdd57614cdd61469d565b50506001821b614039565b5060208310610133831016604e8410600b8410161715614d0b575081810a614039565b614d158383614c55565b8060001904821115614d2957614d2961469d565b029392505050565b60006108c98383614c90565b600082614d4c57614d4c6148a6565b500690565b600081810b83820b8281128015607f19830184121615614d7357614d7361469d565b81607f018313811615614d8857614d8861469d565b5090039392505050565b6000600160ff1b821415614da857614da861469d565b506000039056fea26469706673582212207e0e5b8bc91c28a8f606293d6ab9480281380a91f72910b44eebee139586bf8e64736f6c63430008090033608060405234801561001057600080fd5b506115e6806100206000396000f3fe608060405234801561001057600080fd5b506004361061009e5760003560e01c806399e6dda81161006657806399e6dda814610126578063a16a918314610139578063c038a38e1461014c578063c2db09c114610177578063dffeadd0146101c057600080fd5b80633aab16f7146100a35780633c6e0dec146100c857806352dffcce146100d057806354fd4d50146100ea5780638859443714610111575b600080fd5b6100ab600181565b6040516001600160a01b0390911681526020015b60405180910390f35b6100ab600281565b6100d8606481565b60405160ff90911681526020016100bf565b60408051808201825260058152640312e322e360dc1b602082015290516100bf91906112f0565b61012461011f3660046113be565b6101d3565b005b6101246101343660046113be565b6102fb565b6101246101473660046113f4565b610479565b61015461097c565b60408051825162ffffff90811682526020938401511692810192909252016100bf565b6101a5610185366004611435565b60366020526000908152604090205461ffff808216916201000090041682565b6040805161ffff9384168152929091166020830152016100bf565b6033546100ab906001600160a01b031681565b60335460408051808201909152600581526427aba722a960d91b60208201526001600160a01b03909116906391d148549061020d90611452565b336040516001600160e01b031960e085901b16815260048101929092526001600160a01b0316602482015260440160206040518083038186803b15801561025357600080fd5b505afa158015610267573d6000803e3d6000fd5b505050506040513d601f19601f8201168201806040525081019061028b9190611479565b6102ce5760405162461bcd60e51b815260206004820152600f60248201526e676f7665726e616e6365206f6e6c7960881b60448201526064015b60405180910390fd5b6102d88282610a2d565b60006102e261097c565b90506102f681600001518260200151610d09565b505050565b600054610100900460ff161580801561031b5750600054600160ff909116105b806103355750303b158015610335575060005460ff166001145b6103985760405162461bcd60e51b815260206004820152602e60248201527f496e697469616c697a61626c653a20636f6e747261637420697320616c72656160448201526d191e481a5b9a5d1a585b1a5e995960921b60648201526084016102c5565b6000805460ff1916600117905580156103bb576000805461ff0019166101001790555b6103c483610d72565b6103de826000015161ffff16836020015161ffff16610d09565b60408051808201909152825161ffff1681526000602082015261040390600190610a2d565b61042f60026040518060400160405280600061ffff168152602001856020015161ffff16815250610a2d565b80156102f6576000805461ff0019169055604051600181527f7f26b83ff96e1f2b6a682f133852f6798a09c465da95921460cefb38474024989060200160405180910390a1505050565b603360009054906101000a90046001600160a01b03166001600160a01b031663f17063756040518163ffffffff1660e01b815260040160206040518083038186803b1580156104c757600080fd5b505afa1580156104db573d6000803e3d6000fd5b505050506040513d601f19601f820116820180604052508101906104ff9190611479565b1561053f5760405162461bcd60e51b815260206004820152601060248201526f3830bab9b2b21037b910333937bd32b760811b60448201526064016102c5565b6033546040805163c99dc3dd60e01b815290516000926001600160a01b03169163c99dc3dd916004808301926020929190829003018186803b15801561058457600080fd5b505afa158015610598573d6000803e3d6000fd5b505050506040513d601f19601f820116820180604052508101906105bc919061149b565b9050806001600160a01b0316846001600160a01b031614806106745750603360009054906101000a90046001600160a01b03166001600160a01b03166340c65f726040518163ffffffff1660e01b815260040160206040518083038186803b15801561062757600080fd5b505afa15801561063b573d6000803e3d6000fd5b505050506040513d601f19601f8201168201806040525081019061065f919061149b565b6001600160a01b0316846001600160a01b0316145b6106b05760405162461bcd60e51b815260206004820152600d60248201526c2929a91037b910292a37b5b2b760991b60448201526064016102c5565b6001600160a01b03848116908216146000806106ca61097c565b90506000836106da5781516106e0565b81602001515b62ffffff1690506000811161072f5760405162461bcd60e51b81526020600482015260156024820152746e6f7468696e6720746f206469737472696275746560581b60448201526064016102c5565b61073981876114ce565b9250505060005b61074a6034610e4c565b81101561093257600061075e603483610e5c565b9050600084610789576001600160a01b03821660009081526036602052604090205461ffff166107ad565b6001600160a01b03821660009081526036602052604090205462010000900461ffff165b61ffff169050806107bf575050610920565b60006107cb82866114f0565b90506001600160a01b0383166001141561086c57603360009054906101000a90046001600160a01b03166001600160a01b031663656e96e16040518163ffffffff1660e01b815260040160206040518083038186803b15801561082d57600080fd5b505afa158015610841573d6000803e3d6000fd5b505050506040513d601f19601f82011682018060405250810190610865919061149b565b9250610907565b6001600160a01b0383166002141561090757603360009054906101000a90046001600160a01b03166001600160a01b0316634780a5e56040518163ffffffff1660e01b815260040160206040518083038186803b1580156108cc57600080fd5b505afa1580156108e0573d6000803e3d6000fd5b505050506040513d601f19601f82011682018060405250810190610904919061149b565b92505b61091c6001600160a01b038b168a8584610e6f565b5050505b8061092a8161150f565b915050610740565b5083856001600160a01b0316876001600160a01b03167fe892c32f65273e1958c615dd9fd0eaa040ab9a374d002866bbab6092954bbd2060405160405180910390a4505050505050565b604080518082019091526000808252602082015260005b61099d6034610e4c565b811015610a295760006036816109b4603485610e5c565b6001600160a01b0316815260208101919091526040016000208054845191925061ffff169084906109e690839061152a565b62ffffff1690525080546020840180516201000090920461ffff1691610a0d90839061152a565b62ffffff16905250819050610a218161150f565b915050610993565b5090565b6001600160a01b038216610a795760405162461bcd60e51b8152602060048201526013602482015272646573742063616e6e6f74206265207a65726f60681b60448201526064016102c5565b6001600160a01b03821660011415610ae157602081015161ffff1615610ae15760405162461bcd60e51b815260206004820152601a60248201527f4675726e616365206d75737420676574203025206f662052535200000000000060448201526064016102c5565b6001600160a01b03821660021415610b4657805161ffff1615610b465760405162461bcd60e51b815260206004820152601b60248201527f5374525352206d75737420676574203025206f662052546f6b656e000000000060448201526064016102c5565b612710816020015161ffff161115610ba05760405162461bcd60e51b815260206004820152601960248201527f52535220646973747269627574696f6e20746f6f20686967680000000000000060448201526064016102c5565b612710816000015161ffff161115610bfa5760405162461bcd60e51b815260206004820152601c60248201527f52546f6b656e20646973747269627574696f6e20746f6f20686967680000000060448201526064016102c5565b602081015161ffff16158015610c135750805161ffff16155b15610c2957610c23603483610ecf565b50610c87565b610c34603483610ee4565b506064610c416034610e4c565b1115610c875760405162461bcd60e51b8152602060048201526015602482015274546f6f206d616e792064657374696e6174696f6e7360581b60448201526064016102c5565b6001600160a01b038216600081815260366020908152604091829020845181548684015161ffff92831663ffffffff199092168217620100009390911692830217909255835194855291840152908201527f3ee8237f3f4cb0108563a22b98236b44cee655fc708d3097420b4b9215dbbe5a9060600160405180910390a15050565b60008262ffffff161180610d22575060008162ffffff16115b610d6e5760405162461bcd60e51b815260206004820152601760248201527f6e6f20646973747269627574696f6e20646566696e656400000000000000000060448201526064016102c5565b5050565b600054610100900460ff16610ddd5760405162461bcd60e51b815260206004820152602b60248201527f496e697469616c697a61626c653a20636f6e7472616374206973206e6f74206960448201526a6e697469616c697a696e6760a81b60648201526084016102c5565b6001600160a01b038116610e2a5760405162461bcd60e51b81526020600482015260146024820152736d61696e206973207a65726f206164647265737360601b60448201526064016102c5565b603380546001600160a01b0319166001600160a01b0392909216919091179055565b6000610e56825490565b92915050565b6000610e688383610ef9565b9392505050565b604080516001600160a01b0385811660248301528416604482015260648082018490528251808303909101815260849091019091526020810180516001600160e01b03166323b872dd60e01b179052610ec9908590610f23565b50505050565b6000610e68836001600160a01b038416610ff5565b6000610e68836001600160a01b0384166110e8565b6000826000018281548110610f1057610f10611551565b9060005260206000200154905092915050565b6000610f78826040518060400160405280602081526020017f5361666545524332303a206c6f772d6c6576656c2063616c6c206661696c6564815250856001600160a01b03166111379092919063ffffffff16565b8051909150156102f65780806020019051810190610f969190611479565b6102f65760405162461bcd60e51b815260206004820152602a60248201527f5361666545524332303a204552433230206f7065726174696f6e20646964206e6044820152691bdd081cdd58d8d9595960b21b60648201526084016102c5565b600081815260018301602052604081205480156110de576000611019600183611567565b855490915060009061102d90600190611567565b905081811461109257600086600001828154811061104d5761104d611551565b906000526020600020015490508087600001848154811061107057611070611551565b6000918252602080832090910192909255918252600188019052604090208390555b85548690806110a3576110a361157e565b600190038181906000526020600020016000905590558560010160008681526020019081526020016000206000905560019350505050610e56565b6000915050610e56565b600081815260018301602052604081205461112f57508154600181810184556000848152602080822090930184905584548482528286019093526040902091909155610e56565b506000610e56565b6060611146848460008561114e565b949350505050565b6060824710156111af5760405162461bcd60e51b815260206004820152602660248201527f416464726573733a20696e73756666696369656e742062616c616e636520666f6044820152651c8818d85b1b60d21b60648201526084016102c5565b600080866001600160a01b031685876040516111cb9190611594565b60006040518083038185875af1925050503d8060008114611208576040519150601f19603f3d011682016040523d82523d6000602084013e61120d565b606091505b509150915061121e87838387611229565b979650505050505050565b6060831561129557825161128e576001600160a01b0385163b61128e5760405162461bcd60e51b815260206004820152601d60248201527f416464726573733a2063616c6c20746f206e6f6e2d636f6e747261637400000060448201526064016102c5565b5081611146565b61114683838151156112aa5781518083602001fd5b8060405162461bcd60e51b81526004016102c591906112f0565b60005b838110156112df5781810151838201526020016112c7565b83811115610ec95750506000910152565b602081526000825180602084015261130f8160408501602087016112c4565b601f01601f19169190910160400192915050565b6001600160a01b038116811461133857600080fd5b50565b803561ffff8116811461134d57600080fd5b919050565b60006040828403121561136457600080fd5b6040516040810181811067ffffffffffffffff8211171561139557634e487b7160e01b600052604160045260246000fd5b6040529050806113a48361133b565b81526113b26020840161133b565b60208201525092915050565b600080606083850312156113d157600080fd5b82356113dc81611323565b91506113eb8460208501611352565b90509250929050565b60008060006060848603121561140957600080fd5b833561141481611323565b9250602084013561142481611323565b929592945050506040919091013590565b60006020828403121561144757600080fd5b8135610e6881611323565b80516020808301519190811015611473576000198160200360031b1b821691505b50919050565b60006020828403121561148b57600080fd5b81518015158114610e6857600080fd5b6000602082840312156114ad57600080fd5b8151610e6881611323565b634e487b7160e01b600052601160045260246000fd5b6000826114eb57634e487b7160e01b600052601260045260246000fd5b500490565b600081600019048311821515161561150a5761150a6114b8565b500290565b6000600019821415611523576115236114b8565b5060010190565b600062ffffff808316818516808303821115611548576115486114b8565b01949350505050565b634e487b7160e01b600052603260045260246000fd5b600082821015611579576115796114b8565b500390565b634e487b7160e01b600052603160045260246000fd5b600082516115a68184602087016112c4565b919091019291505056fea2646970667358221220f29cd28eba44fe851eafc7df9cf2be0c6c71c7dcc874f6c26df823b9bac678c264736f6c63430008090033608060405234801561001057600080fd5b50611213806100206000396000f3fe608060405234801561001057600080fd5b50600436106100b45760003560e01c806371ca337d1161007157806371ca337d1461015357806391163fec14610166578063b9db102a14610179578063c810b7fe146101a2578063dffeadd0146101ad578063ef78d4fd146101d857600080fd5b80632212965c146100b95780632b8869fb146100d55780634f533b23146100ea5780635220f510146100fd57806354fd4d5014610105578063630eb8ab1461012c575b600080fd5b6100c260365481565b6040519081526020015b60405180910390f35b6100e86100e3366004610ee0565b6101f1565b005b6100e86100f8366004610f12565b6103b7565b6100e861055a565b60408051808201825260058152640312e322e360dc1b602082015290516100cc9190610f2d565b61013b670de0b6b3a764000081565b6040516001600160c01b0390911681526020016100cc565b60345461013b906001600160c01b031681565b6100e8610174366004610f9a565b6108c5565b60355461018b9065ffffffffffff1681565b60405165ffffffffffff90911681526020016100cc565b61018b6301e1338081565b6033546101c0906001600160a01b031681565b6040516001600160a01b0390911681526020016100cc565b60345461018b90600160c01b900465ffffffffffff1681565b60335460408051808201909152600581526427aba722a960d91b60208201526001600160a01b03909116906391d148549061022b90610fdf565b336040516001600160e01b031960e085901b16815260048101929092526001600160a01b0316602482015260440160206040518083038186803b15801561027157600080fd5b505afa158015610285573d6000803e3d6000fd5b505050506040513d601f19601f820116820180604052508101906102a99190611006565b6102ec5760405162461bcd60e51b815260206004820152600f60248201526e676f7665726e616e6365206f6e6c7960881b60448201526064015b60405180910390fd5b60008165ffffffffffff1611801561031057506301e1338065ffffffffffff821611155b61034d5760405162461bcd60e51b815260206004820152600e60248201526d1a5b9d985b1a59081c195c9a5bd960921b60448201526064016102e3565b60345460405165ffffffffffff80841692600160c01b900416907fbe247d2a99b68d117449399fce980543968aadb8ebfc20d43fed0b4a9529dc7b90600090a36034805465ffffffffffff909216600160c01b0265ffffffffffff60c01b19909216919091179055565b60335460408051808201909152600581526427aba722a960d91b60208201526001600160a01b03909116906391d14854906103f190610fdf565b336040516001600160e01b031960e085901b16815260048101929092526001600160a01b0316602482015260440160206040518083038186803b15801561043757600080fd5b505afa15801561044b573d6000803e3d6000fd5b505050506040513d601f19601f8201168201806040525081019061046f9190611006565b6104ad5760405162461bcd60e51b815260206004820152600f60248201526e676f7665726e616e6365206f6e6c7960881b60448201526064016102e3565b670de0b6b3a76400006001600160c01b03821611156104fe5760405162461bcd60e51b815260206004820152600d60248201526c696e76616c696420726174696f60981b60448201526064016102e3565b6034546040516001600160c01b038084169216907fe4370d9c0bc402ac3265a919b985d9e114b75512ced35b436883c18c84284ccb90600090a3603480546001600160c01b0319166001600160c01b0392909216919091179055565b603360009054906101000a90046001600160a01b03166001600160a01b031663f17063756040518163ffffffff1660e01b815260040160206040518083038186803b1580156105a857600080fd5b505afa1580156105bc573d6000803e3d6000fd5b505050506040513d601f19601f820116820180604052508101906105e09190611006565b156106205760405162461bcd60e51b815260206004820152601060248201526f3830bab9b2b21037b910333937bd32b760811b60448201526064016102e3565b6034546035546106429165ffffffffffff600160c01b90910481169116611045565b67ffffffffffffffff164265ffffffffffff16101561065d57565b60345460355460009165ffffffffffff600160c01b909104811691610683911642611071565b61068d91906110ae565b6034549091506000906106da906106cb9084906106bc90670de0b6b3a7640000906001600160c01b0316610af9565b6001600160c01b031690610b0e565b670de0b6b3a764000090610af9565b90506000603360009054906101000a90046001600160a01b03166001600160a01b03166340c65f726040518163ffffffff1660e01b815260040160206040518083038186803b15801561072c57600080fd5b505afa158015610740573d6000803e3d6000fd5b505050506040513d601f19601f8201168201806040525081019061076491906110d3565b90506000610786603654846001600160c01b0316610c8f90919063ffffffff16565b6034549091506107a590600160c01b900465ffffffffffff16856110f0565b603580546000906107bf90849065ffffffffffff1661111e565b92506101000a81548165ffffffffffff021916908365ffffffffffff160217905550600081111561084557604051638c83ed3360e01b8152600481018290526001600160a01b03831690638c83ed3390602401600060405180830381600087803b15801561082c57600080fd5b505af1158015610840573d6000803e3d6000fd5b505050505b6040516370a0823160e01b81523060048201526001600160a01b038316906370a082319060240160206040518083038186803b15801561088457600080fd5b505afa158015610898573d6000803e3d6000fd5b505050506040513d601f19601f820116820180604052508101906108bc919061113f565b60365550505050565b600054610100900460ff16158080156108e55750600054600160ff909116105b806108ff5750303b1580156108ff575060005460ff166001145b6109625760405162461bcd60e51b815260206004820152602e60248201527f496e697469616c697a61626c653a20636f6e747261637420697320616c72656160448201526d191e481a5b9a5d1a585b1a5e995960921b60648201526084016102e3565b6000805460ff191660011790558015610985576000805461ff0019166101001790555b61098e84610cad565b610997836101f1565b6109a0826103b7565b6035805465ffffffffffff19164265ffffffffffff16179055604080516320632fb960e11b815290516001600160a01b038616916340c65f72916004808301926020929190829003018186803b1580156109f957600080fd5b505afa158015610a0d573d6000803e3d6000fd5b505050506040513d601f19601f82011682018060405250810190610a3191906110d3565b6040516370a0823160e01b81523060048201526001600160a01b0391909116906370a082319060240160206040518083038186803b158015610a7257600080fd5b505afa158015610a86573d6000803e3d6000fd5b505050506040513d601f19601f82011682018060405250810190610aaa919061113f565b6036558015610af3576000805461ff0019169055604051600181527f7f26b83ff96e1f2b6a682f133852f6798a09c465da95921460cefb38474024989060200160405180910390a15b50505050565b6000610b058284611158565b90505b92915050565b6000670de0b6b3a76400006001600160c01b0384161115610b2e57600080fd5b8165ffffffffffff1660011415610b46575081610b08565b6001600160c01b038316670de0b6b3a76400001480610b6b575065ffffffffffff8216155b15610b7f5750670de0b6b3a7640000610b08565b6000610b9c670de0b6b3a76400006001600160c01b038616611178565b90506ec097ce7bc90715b34b9f10000000005b60018085161415610bff576ec097ce7bc90715b34b9f1000000000610bd5600282611197565b6001600160801b0316610be88484611178565b610bf291906111b1565b610bfc91906111c9565b90505b60018465ffffffffffff1611610c1457610c6c565b60019390931c657fffffffffff16926ec097ce7bc90715b34b9f1000000000610c3e600282611197565b6001600160801b0316610c518480611178565b610c5b91906111b1565b610c6591906111c9565b9150610baf565b610c86610c81670de0b6b3a7640000836111c9565b610d87565b95945050505050565b6000610b056001600160c01b03841683670de0b6b3a7640000610db5565b600054610100900460ff16610d185760405162461bcd60e51b815260206004820152602b60248201527f496e697469616c697a61626c653a20636f6e7472616374206973206e6f74206960448201526a6e697469616c697a696e6760a81b60648201526084016102e3565b6001600160a01b038116610d655760405162461bcd60e51b81526020600482015260146024820152736d61696e206973207a65726f206164647265737360601b60448201526064016102e3565b603380546001600160a01b0319166001600160a01b0392909216919091179055565b60006001600160c01b03821115610db15760405163f44398f560e01b815260040160405180910390fd5b5090565b6000806000610dc48686610e98565b91509150838210610de85760405163f44398f560e01b815260040160405180910390fd5b60008480610df857610df8611098565b868809905081811115610e0c576001830392505b908190039060008590038516808681610e2757610e27611098565b049550808381610e3957610e39611098565b049250808160000381610e4e57610e4e611098565b046001019390930291909101600285810380870282030280870282030280870282030280870282030280870282030280870282030295860290039094029390930295945050505050565b6000808060001984860990508385029150818103925081811015610ebd576001830392505b509250929050565b803565ffffffffffff81168114610edb57600080fd5b919050565b600060208284031215610ef257600080fd5b610b0582610ec5565b80356001600160c01b0381168114610edb57600080fd5b600060208284031215610f2457600080fd5b610b0582610efb565b600060208083528351808285015260005b81811015610f5a57858101830151858201604001528201610f3e565b81811115610f6c576000604083870101525b50601f01601f1916929092016040019392505050565b6001600160a01b0381168114610f9757600080fd5b50565b600080600060608486031215610faf57600080fd5b8335610fba81610f82565b9250610fc860208501610ec5565b9150610fd660408501610efb565b90509250925092565b80516020808301519190811015611000576000198160200360031b1b821691505b50919050565b60006020828403121561101857600080fd5b8151801515811461102857600080fd5b9392505050565b634e487b7160e01b600052601160045260246000fd5b600067ffffffffffffffff8083168185168083038211156110685761106861102f565b01949350505050565b600065ffffffffffff838116908316818110156110905761109061102f565b039392505050565b634e487b7160e01b600052601260045260246000fd5b600065ffffffffffff808416806110c7576110c7611098565b92169190910492915050565b6000602082840312156110e557600080fd5b815161102881610f82565b600065ffffffffffff808316818516818304811182151516156111155761111561102f565b02949350505050565b600065ffffffffffff8083168185168083038211156110685761106861102f565b60006020828403121561115157600080fd5b5051919050565b60006001600160c01b03838116908316818110156110905761109061102f565b60008160001904831182151516156111925761119261102f565b500290565b60006001600160801b03808416806110c7576110c7611098565b600082198211156111c4576111c461102f565b500190565b6000826111d8576111d8611098565b50049056fea26469706673582212205c7b2c82ac5db99ca2e9aa09db4438777320ceaf94f079750297b94619c2864a64736f6c63430008090033608060405234801561001057600080fd5b50613526806100206000396000f3fe608060405234801561001057600080fd5b50600436106100b45760003560e01c80636c5a7d1e116100715780636c5a7d1e1461016b57806393574b1e1461017e578063af1ebc2414610186578063dd59833214610199578063dffeadd0146101bc578063ee070805146101cf57600080fd5b80630891f601146100b9578063238c8aad146100df578063325c25a21461010a578063542d5e291461011c57806354fd4d501461012f578063642606a714610156575b600080fd5b6100c362093a8081565b60405165ffffffffffff90911681526020015b60405180910390f35b6034546100f2906001600160a01b031681565b6040516001600160a01b0390911681526020016100d6565b6036546100c39065ffffffffffff1681565b6100f261012a36600461133b565b6101f3565b60408051808201825260058152640312e322e360dc1b602082015290516100d691906113ea565b610169610164366004611433565b6106cc565b005b61016961017936600461149b565b6108b7565b610169610a0b565b6101696101943660046114bf565b610b84565b6101a4633b9aca0081565b6040516001600160c01b0390911681526020016100d6565b6033546100f2906001600160a01b031681565b6036546101e390600160301b900460ff1681565b60405190151581526020016100d6565b6033546040805163f170637560e01b815290516000926001600160a01b03169163f1706375916004808301926020929190829003018186803b15801561023857600080fd5b505afa15801561024c573d6000803e3d6000fd5b505050506040513d601f19601f8201168201806040525081019061027091906114da565b156102b55760405162461bcd60e51b815260206004820152601060248201526f3830bab9b2b21037b910333937bd32b760811b60448201526064015b60405180910390fd5b603654600160301b900460ff16156103015760405162461bcd60e51b815260206004820152600f60248201526e189c9bdad95c88191a5cd8589b1959608a1b60448201526064016102ac565b6000826040015111610315576103156114f7565b60335460408051636e457afb60e11b8152905133926001600160a01b03169163dc8af5f6916004808301926020929190829003018186803b15801561035957600080fd5b505afa15801561036d573d6000803e3d6000fd5b505050506040513d601f19601f82011682018060405250810190610391919061150d565b6001600160a01b0316816001600160a01b031614806104465750603360009054906101000a90046001600160a01b03166001600160a01b031663531367636040518163ffffffff1660e01b815260040160206040518083038186803b1580156103f957600080fd5b505afa15801561040d573d6000803e3d6000fd5b505050506040513d601f19601f82011682018060405250810190610431919061150d565b6001600160a01b0316816001600160a01b0316145b806104e75750603360009054906101000a90046001600160a01b03166001600160a01b03166341bf0c4e6040518163ffffffff1660e01b815260040160206040518083038186803b15801561049a57600080fd5b505afa1580156104ae573d6000803e3d6000fd5b505050506040513d601f19601f820116820180604052508101906104d2919061150d565b6001600160a01b0316816001600160a01b0316145b6105225760405162461bcd60e51b815260206004820152600c60248201526b6f6e6c79207472616465727360a01b60448201526064016102ac565b600060405161053090611316565b604051809103906000f08015801561054c573d6000803e3d6000fd5b506001600160a01b0381166000908152603560205260409020805460ff191660011790559050610588846be22ea493b30310a770000000610d3a565b935061061a8282866040015187600001516001600160a01b031663785e9e866040518163ffffffff1660e01b815260040160206040518083038186803b1580156105d157600080fd5b505afa1580156105e5573d6000803e3d6000fd5b505050506040513d601f19601f82011682018060405250810190610609919061150d565b6001600160a01b0316929190610dbf565b603454603654604080516372d0dc0d60e11b81523060048201526001600160a01b038681166024830152938416604482015265ffffffffffff90921660648301528651831660848301526020870151831660a483015286015160c4820152606086015160e48201529082169063e5a1b81a9061010401600060405180830381600087803b1580156106aa57600080fd5b505af11580156106be573d6000803e3d6000fd5b50929450505050505b919050565b600054610100900460ff16158080156106ec5750600054600160ff909116105b806107065750303b158015610706575060005460ff166001145b6107695760405162461bcd60e51b815260206004820152602e60248201527f496e697469616c697a61626c653a20636f6e747261637420697320616c72656160448201526d191e481a5b9a5d1a585b1a5e995960921b60648201526084016102ac565b6000805460ff19166001179055801561078c576000805461ff0019166101001790555b6001600160a01b0384166107db5760405162461bcd60e51b8152602060048201526016602482015275696e76616c696420476e6f736973206164647265737360501b60448201526064016102ac565b6001600160a01b03831661083d5760405162461bcd60e51b8152602060048201526024808201527f696e76616c696420547261646520496d706c656d656e746174696f6e206164646044820152637265737360e01b60648201526084016102ac565b61084685610e1f565b603480546001600160a01b0319166001600160a01b03861617905561086a82610b84565b80156108b0576000805461ff0019169055604051600181527f7f26b83ff96e1f2b6a682f133852f6798a09c465da95921460cefb38474024989060200160405180910390a15b5050505050565b60335460408051808201909152600581526427aba722a960d91b60208201526001600160a01b03909116906391d14854906108f19061152a565b336040516001600160e01b031960e085901b16815260048101929092526001600160a01b0316602482015260440160206040518083038186803b15801561093757600080fd5b505afa15801561094b573d6000803e3d6000fd5b505050506040513d601f19601f8201168201806040525081019061096f91906114da565b6109ad5760405162461bcd60e51b815260206004820152600f60248201526e676f7665726e616e6365206f6e6c7960881b60448201526064016102ac565b60365460405182151591600160301b900460ff161515907f50ad88f2d352cfe099dff651bce69b227cf4a4fa1eefde42cbd9ee52e671e12790600090a360368054911515600160301b0266ff00000000000019909216919091179055565b603360009054906101000a90046001600160a01b03166001600160a01b031663f17063756040518163ffffffff1660e01b815260040160206040518083038186803b158015610a5957600080fd5b505afa158015610a6d573d6000803e3d6000fd5b505050506040513d601f19601f82011682018060405250810190610a9191906114da565b15610ad15760405162461bcd60e51b815260206004820152601060248201526f3830bab9b2b21037b910333937bd32b760811b60448201526064016102ac565b3360009081526035602052604090205460ff16610b305760405162461bcd60e51b815260206004820152601b60248201527f756e7265636f676e697a656420747261646520636f6e7472616374000000000060448201526064016102ac565b603654604051600191600160301b900460ff161515907f50ad88f2d352cfe099dff651bce69b227cf4a4fa1eefde42cbd9ee52e671e12790600090a36036805466ff0000000000001916600160301b179055565b60335460408051808201909152600581526427aba722a960d91b60208201526001600160a01b03909116906391d1485490610bbe9061152a565b336040516001600160e01b031960e085901b16815260048101929092526001600160a01b0316602482015260440160206040518083038186803b158015610c0457600080fd5b505afa158015610c18573d6000803e3d6000fd5b505050506040513d601f19601f82011682018060405250810190610c3c91906114da565b610c7a5760405162461bcd60e51b815260206004820152600f60248201526e676f7665726e616e6365206f6e6c7960881b60448201526064016102ac565b60008165ffffffffffff16118015610c9d575062093a8065ffffffffffff821611155b610ce15760405162461bcd60e51b81526020600482015260156024820152740d2dcecc2d8d2c840c2eac6e8d2dedc98cadccee8d605b1b60448201526064016102ac565b60365460405165ffffffffffff8084169216907f5367084e5526b7d5d8fcbd6a0e50fe9db6e3dc2a20c54c9820dcb0089728c85790600090a36036805465ffffffffffff191665ffffffffffff92909216919091179055565b60408051608081018252600080825260208201819052918101829052606081019190915260008360400151846060015111610d79578360400151610d7f565b83606001515b905082811115610db757610d9a846040015184836002610ef9565b60408501526060840151610db19084836000610ef9565b60608501525b509192915050565b604080516001600160a01b0385811660248301528416604482015260648082018490528251808303909101815260849091019091526020810180516001600160e01b03166323b872dd60e01b179052610e19908590610faa565b50505050565b600054610100900460ff16610e8a5760405162461bcd60e51b815260206004820152602b60248201527f496e697469616c697a61626c653a20636f6e7472616374206973206e6f74206960448201526a6e697469616c697a696e6760a81b60648201526084016102ac565b6001600160a01b038116610ed75760405162461bcd60e51b81526020600482015260146024820152736d61696e206973207a65726f206164647265737360601b60448201526064016102ac565b603380546001600160a01b0319166001600160a01b0392909216919091179055565b600080610f07868686611081565b90506000836002811115610f1d57610f1d611551565b1415610f2a579050610fa2565b60008480610f3a57610f3a611567565b86880990506002846002811115610f5357610f53611551565b1415610f72578015610f6d57610f6a600183611593565b91505b610f9e565b6002610f7f6001876115ab565b610f8991906115c2565b811115610f9e57610f9b600183611593565b91505b5090505b949350505050565b6000610fff826040518060400160405280602081526020017f5361666545524332303a206c6f772d6c6576656c2063616c6c206661696c6564815250856001600160a01b03166111649092919063ffffffff16565b80519091501561107c578080602001905181019061101d91906114da565b61107c5760405162461bcd60e51b815260206004820152602a60248201527f5361666545524332303a204552433230206f7065726174696f6e20646964206e6044820152691bdd081cdd58d8d9595960b21b60648201526084016102ac565b505050565b60008060006110908686611173565b915091508382106110b45760405163f44398f560e01b815260040160405180910390fd5b600084806110c4576110c4611567565b8688099050818111156110d8576001830392505b9081900390600085900385168086816110f3576110f3611567565b04955080838161110557611105611567565b04925080816000038161111a5761111a611567565b046001019390930291909101600285810380870282030280870282030280870282030280870282030280870282030280870282030295860290039094029390930295945050505050565b6060610fa284846000856111a0565b6000808060001984860990508385029150818103925081811015611198576001830392505b509250929050565b6060824710156112015760405162461bcd60e51b815260206004820152602660248201527f416464726573733a20696e73756666696369656e742062616c616e636520666f6044820152651c8818d85b1b60d21b60648201526084016102ac565b600080866001600160a01b0316858760405161121d91906115e4565b60006040518083038185875af1925050503d806000811461125a576040519150601f19603f3d011682016040523d82523d6000602084013e61125f565b606091505b50915091506112708783838761127b565b979650505050505050565b606083156112e75782516112e0576001600160a01b0385163b6112e05760405162461bcd60e51b815260206004820152601d60248201527f416464726573733a2063616c6c20746f206e6f6e2d636f6e747261637400000060448201526064016102ac565b5081610fa2565b610fa283838151156112fc5781518083602001fd5b8060405162461bcd60e51b81526004016102ac91906113ea565b611ef08061160183390190565b6001600160a01b038116811461133857600080fd5b50565b60006080828403121561134d57600080fd5b6040516080810181811067ffffffffffffffff8211171561137e57634e487b7160e01b600052604160045260246000fd5b604052823561138c81611323565b8152602083013561139c81611323565b6020820152604083810135908201526060928301359281019290925250919050565b60005b838110156113d95781810151838201526020016113c1565b83811115610e195750506000910152565b60208152600082518060208401526114098160408501602087016113be565b601f01601f19169190910160400192915050565b803565ffffffffffff811681146106c757600080fd5b6000806000806080858703121561144957600080fd5b843561145481611323565b9350602085013561146481611323565b9250604085013561147481611323565b91506114826060860161141d565b905092959194509250565b801515811461133857600080fd5b6000602082840312156114ad57600080fd5b81356114b88161148d565b9392505050565b6000602082840312156114d157600080fd5b6114b88261141d565b6000602082840312156114ec57600080fd5b81516114b88161148d565b634e487b7160e01b600052600160045260246000fd5b60006020828403121561151f57600080fd5b81516114b881611323565b8051602080830151919081101561154b576000198160200360031b1b821691505b50919050565b634e487b7160e01b600052602160045260246000fd5b634e487b7160e01b600052601260045260246000fd5b634e487b7160e01b600052601160045260246000fd5b600082198211156115a6576115a661157d565b500190565b6000828210156115bd576115bd61157d565b500390565b6000826115df57634e487b7160e01b600052601260045260246000fd5b500490565b600082516115f68184602087016113be565b919091019291505056fe608060405234801561001057600080fd5b50611ed0806100206000396000f3fe608060405234801561001057600080fd5b506004361061010b5760003560e01c806393254b0e116100a2578063abff011011610071578063abff011014610255578063b909a6e914610268578063d73792a914610282578063e5a1b81a1461028b578063faf7ba6a1461029e57600080fd5b806393254b0e14610204578063938b5f3214610226578063a6f2ae3a14610239578063abdf2f9d1461024c57600080fd5b806326b1988c116100de57806326b1988c146101935780633197cbb6146101b357806345710074146101dc57806376c6f5ec146101ef57600080fd5b806310782f8f1461011057806311da60b41461012c578063200d2ed214610149578063238c8aad14610163575b600080fd5b61011960015481565b6040519081526020015b60405180910390f35b6101346102b6565b60408051928352602083019190915201610123565b6000546101569060ff1681565b60405161012391906117fe565b60005461017b9061010090046001600160a01b031681565b6040516001600160a01b039091168152602001610123565b61019b61077a565b6040516001600160c01b039091168152602001610123565b6007546101c59065ffffffffffff1681565b60405165ffffffffffff9091168152602001610123565b60045461017b906001600160a01b031681565b6102026101fd36600461183b565b610790565b005b61020e620186a081565b6040516001600160601b039091168152602001610123565b60035461017b906001600160a01b031681565b60055461017b906001600160a01b031681565b61011960065481565b60025461017b906001600160a01b031681565b60075461019b90600160301b90046001600160c01b031681565b6101196103e881565b610202610299366004611858565b61088d565b6102a661103d565b6040519015158152602001610123565b600080600160028160005460ff1660038111156102d5576102d56117e8565b1461031d5760405162461bcd60e51b8152602060048201526013602482015272496e76616c696420747261646520737461746560681b60448201526064015b60405180910390fd5b60008054600360ff199091168117909155546001600160a01b0316331461037f5760405162461bcd60e51b81526020600482015260166024820152756f6e6c79206f726967696e2063616e20736574746c6560501b6044820152606401610314565b610387611076565b61042657600054600154604051632e99361160e01b815260048101919091526101009091046001600160a01b031690632e99361190602401602060405180830381600087803b1580156103d957600080fd5b505af11580156103ed573d6000803e3d6000fd5b505050506040513d601f19601f8201168201806040525081019061041191906118dd565b5061041a611076565b610426576104266118f6565b600480546040516370a0823160e01b815230928101929092526000916001600160a01b03909116906370a082319060240160206040518083038186803b15801561046f57600080fd5b505afa158015610483573d6000803e3d6000fd5b505050506040513d601f19601f820116820180604052508101906104a791906118dd565b6005546040516370a0823160e01b81523060048201529192506001600160a01b0316906370a082319060240160206040518083038186803b1580156104eb57600080fd5b505afa1580156104ff573d6000803e3d6000fd5b505050506040513d601f19601f8201168201806040525081019061052391906118dd565b9350801561054857600354600454610548916001600160a01b0391821691168361110a565b831561056b5760035460055461056b916001600160a01b0391821691168661110a565b60065481101561072957806006546105839190611922565b9450600061059c610595600188611922565b6001611172565b9050600061069c61063b83600460009054906101000a90046001600160a01b03166001600160a01b031663313ce5676040518163ffffffff1660e01b815260040160206040518083038186803b1580156105f557600080fd5b505afa158015610609573d6000803e3d6000fd5b505050506040513d601f19601f8201168201806040525081019061062d9190611939565b6106369061195c565b61118c565b61068d88600560009054906101000a90046001600160a01b03166001600160a01b031663313ce5676040518163ffffffff1660e01b815260040160206040518083038186803b1580156105f557600080fd5b6001600160c01b03169061119a565b600754909150600160301b90046001600160c01b03908116908216101561072657600260009054906101000a90046001600160a01b03166001600160a01b03166393574b1e6040518163ffffffff1660e01b8152600401600060405180830381600087803b15801561070d57600080fd5b505af1158015610721573d6000803e3d6000fd5b505050505b50505b50600360005460ff166003811115610743576107436117e8565b14610750576107506118f6565b6000805482919060ff1916600183600381111561076f5761076f6117e8565b021790555050509091565b61078d6064670de0b6b3a7640000611992565b81565b600260005460ff1660038111156107a9576107a96117e8565b146107f65760405162461bcd60e51b815260206004820152601a60248201527f6f6e6c7920616674657220747261646520697320636c6f7365640000000000006044820152606401610314565b6003546040516370a0823160e01b815230600482015261088a916001600160a01b0390811691908416906370a082319060240160206040518083038186803b15801561084157600080fd5b505afa158015610855573d6000803e3d6000fd5b505050506040513d601f19601f8201168201806040525081019061087991906118dd565b6001600160a01b038416919061110a565b50565b600060018160005460ff1660038111156108a9576108a96117e8565b146108ec5760405162461bcd60e51b8152602060048201526013602482015272496e76616c696420747261646520737461746560681b6044820152606401610314565b6000805460ff191660031790556001600160601b036040840135111561094b5760405162461bcd60e51b815260206004820152601460248201527373656c6c416d6f756e7420746f6f206c6172676560601b6044820152606401610314565b6001600160601b036060840135111561099f5760405162461bcd60e51b81526020600482015260166024820152756d696e427579416d6f756e7420746f6f206c6172676560501b6044820152606401610314565b6109ac602084018461183b565b6001600160a01b031663785e9e866040518163ffffffff1660e01b815260040160206040518083038186803b1580156109e457600080fd5b505afa1580156109f8573d6000803e3d6000fd5b505050506040513d601f19601f82011682018060405250810190610a1c91906119b8565b600480546001600160a01b0319166001600160a01b0392909216919091179055610a4c604084016020850161183b565b6001600160a01b031663785e9e866040518163ffffffff1660e01b815260040160206040518083038186803b158015610a8457600080fd5b505afa158015610a98573d6000803e3d6000fd5b505050506040513d601f19601f82011682018060405250810190610abc91906119b8565b600580546001600160a01b0319166001600160a01b03928316179055600480546040516370a0823160e01b81523092810192909252909116906370a082319060240160206040518083038186803b158015610b1657600080fd5b505afa158015610b2a573d6000803e3d6000fd5b505050506040513d601f19601f82011682018060405250810190610b4e91906118dd565b60068190556001600160601b031015610b9d5760405162461bcd60e51b8152602060048201526011602482015270696e697442616c20746f6f206c6172676560781b6044820152606401610314565b82604001356006541015610be45760405162461bcd60e51b815260206004820152600e60248201526d756e66756e64656420747261646560901b6044820152606401610314565b6001600160a01b038616610bfa57610bfa6118f6565b600280546001600160a01b03808a166001600160a01b0319928316179092556003805489841692169190911790556000805491871661010002610100600160a81b0319909216919091179055610c5084426119d5565b6007805465ffffffffffff191665ffffffffffff92909216919091179055600480546040805163313ce56760e01b81528151610d1094610cba9493890135936001600160a01b03169263313ce5679281830192602092829003018186803b1580156105f557600080fd5b61068d8560600135600560009054906101000a90046001600160a01b03166001600160a01b031663313ce5676040518163ffffffff1660e01b815260040160206040518083038186803b1580156105f557600080fd5b600780546001600160c01b0392909216600160301b026601000000000000600160f01b03199092169190911790556000610dee610d536103e860408701356119ff565b600060019054906101000a90046001600160a01b03166001600160a01b031663e86dea4a6040518163ffffffff1660e01b8152600401602060405180830381600087803b158015610da357600080fd5b505af1158015610db7573d6000803e3d6000fd5b505050506040513d601f19601f82011682018060405250810190610ddb91906118dd565b610de7906103e8611a1e565b60006111a8565b90506000610e0160018660600135611172565b90506000610ece610e15620186a084611a36565b6001600160601b0316610ec9600560009054906101000a90046001600160a01b03166001600160a01b031663313ce5676040518163ffffffff1660e01b815260040160206040518083038186803b158015610e6f57600080fd5b505afa158015610e83573d6000803e3d6000fd5b505050506040513d601f19601f82011682018060405250810190610ea79190611939565b610eba6064670de0b6b3a7640000611992565b6001600160c01b031690611256565b611172565b905080610ed9575060015b60008054600454610efe926001600160a01b0391821692610100900490911690611264565b600054600654600454610f26926001600160a01b039182169261010090910490911690611264565b60008054600454600554600754604080518681526020810191829052630a4cd6c960e01b9091526001600160a01b03610100909504851695630a4cd6c995610f8b95811694169265ffffffffffff169182918b918b918b918190819060248101611aac565b602060405180830381600087803b158015610fa557600080fd5b505af1158015610fb9573d6000803e3d6000fd5b505050506040513d601f19601f82011682018060405250810190610fdd91906118dd565b6001555060039150610fec9050565b60005460ff166003811115611003576110036117e8565b14611010576110106118f6565b6000805482919060ff1916600183600381111561102f5761102f6117e8565b021790555050505050505050565b6000600160005460ff166003811115611058576110586117e8565b14801561107157506007544265ffffffffffff90911611155b905090565b60008054600154604051632afe316960e11b81526004810191909152829161010090046001600160a01b0316906355fc62d2906024016101c06040518083038186803b1580156110c557600080fd5b505afa1580156110d9573d6000803e3d6000fd5b505050506040513d601f19601f820116820180604052508101906110fd9190611ba8565b6101000151151592915050565b6040516001600160a01b03831660248201526044810182905261116d90849063a9059cbb60e01b906064015b60408051601f198184030181529190526020810180516001600160e01b03166001600160e01b031990931692909217909152611388565b505050565b60008183116111815781611183565b825b90505b92915050565b60006111838383600061145a565b60006111838383600061152b565b6000806111b58486611c7c565b905060008360028111156111cb576111cb6117e8565b14156111d857905061124f565b60018360028111156111ec576111ec6117e8565b141561122c5760026111ff600186611922565b6112099190611c7c565b6112138587611c90565b1115611227578061122381611ca4565b9150505b61124c565b60006112388587611c90565b111561124c578061124881611ca4565b9150505b90505b9392505050565b600061118383836000611563565b8015806112ed5750604051636eb1769f60e11b81523060048201526001600160a01b03838116602483015284169063dd62ed3e9060440160206040518083038186803b1580156112b357600080fd5b505afa1580156112c7573d6000803e3d6000fd5b505050506040513d601f19601f820116820180604052508101906112eb91906118dd565b155b6113585760405162461bcd60e51b815260206004820152603660248201527f5361666545524332303a20617070726f76652066726f6d206e6f6e2d7a65726f60448201527520746f206e6f6e2d7a65726f20616c6c6f77616e636560501b6064820152608401610314565b6040516001600160a01b03831660248201526044810182905261116d90849063095ea7b360e01b90606401611136565b60006113dd826040518060400160405280602081526020017f5361666545524332303a206c6f772d6c6576656c2063616c6c206661696c6564815250856001600160a01b031661161b9092919063ffffffff16565b80519091501561116d57808060200190518101906113fb9190611cbf565b61116d5760405162461bcd60e51b815260206004820152602a60248201527f5361666545524332303a204552433230206f7065726174696f6e20646964206e6044820152691bdd081cdd58d8d9595960b21b6064820152608401610314565b6000836114695750600061124f565b605f198360000b136114a35760025b82600281111561148a5761148a6117e8565b14611496576000611499565b60015b60ff16905061124f565b8260000b6028136114c75760405163f44398f560e01b815260040160405180910390fd5b6114d2601284611cda565b925060006114e28460000b61162a565b6114ed90600a611e01565b90506000808560000b121561150c576115078683866111a8565b611516565b61151682876119ff565b905061152181611642565b9695505050505050565b600061124c61155e61154e670de0b6b3a76400006001600160c01b0388166119ff565b856001600160c01b0316856111a8565b611642565b60006001600160c01b03841661157b5750600061124f565b6029198360000b1361158e576002611478565b8260000b6060136115b25760405163f44398f560e01b815260040160405180910390fd5b6115bd601284611e0d565b925060006115cd8460000b61162a565b6115d890600a611e01565b905060008460000b12156115ff576115fa856001600160c01b031682856111a8565b611612565b611612816001600160c01b0387166119ff565b95945050505050565b606061124c8484600085611670565b60008082126116395781611186565b61118682611e4e565b60006001600160c01b0382111561166c5760405163f44398f560e01b815260040160405180910390fd5b5090565b6060824710156116d15760405162461bcd60e51b815260206004820152602660248201527f416464726573733a20696e73756666696369656e742062616c616e636520666f6044820152651c8818d85b1b60d21b6064820152608401610314565b600080866001600160a01b031685876040516116ed9190611e6b565b60006040518083038185875af1925050503d806000811461172a576040519150601f19603f3d011682016040523d82523d6000602084013e61172f565b606091505b50915091506117408783838761174d565b925050505b949350505050565b606083156117b95782516117b2576001600160a01b0385163b6117b25760405162461bcd60e51b815260206004820152601d60248201527f416464726573733a2063616c6c20746f206e6f6e2d636f6e74726163740000006044820152606401610314565b5081611745565b61174583838151156117ce5781518083602001fd5b8060405162461bcd60e51b81526004016103149190611e87565b634e487b7160e01b600052602160045260246000fd5b602081016004831061182057634e487b7160e01b600052602160045260246000fd5b91905290565b6001600160a01b038116811461088a57600080fd5b60006020828403121561184d57600080fd5b813561124f81611826565b600080600080600085870361010081121561187257600080fd5b863561187d81611826565b9550602087013561188d81611826565b9450604087013561189d81611826565b9350606087013565ffffffffffff811681146118b857600080fd5b92506080607f19820112156118cc57600080fd5b506080860190509295509295909350565b6000602082840312156118ef57600080fd5b5051919050565b634e487b7160e01b600052600160045260246000fd5b634e487b7160e01b600052601160045260246000fd5b6000828210156119345761193461190c565b500390565b60006020828403121561194b57600080fd5b815160ff8116811461124f57600080fd5b600081810b607f198114156119735761197361190c565b60000392915050565b634e487b7160e01b600052601260045260246000fd5b60006001600160c01b03838116806119ac576119ac61197c565b92169190910492915050565b6000602082840312156119ca57600080fd5b815161124f81611826565b600065ffffffffffff8083168185168083038211156119f6576119f661190c565b01949350505050565b6000816000190483118215151615611a1957611a1961190c565b500290565b60008219821115611a3157611a3161190c565b500190565b60006001600160601b03808416806119ac576119ac61197c565b60005b83811015611a6b578181015183820152602001611a53565b83811115611a7a576000848401525b50505050565b60008151808452611a98816020860160208601611a50565b601f01601f19169290920160200192915050565b6001600160a01b038c811682528b8116602083015265ffffffffffff8b811660408401528a1660608301526001600160601b038981166080840152881660a083015260c0820187905260e0820186905284151561010083015283166101208201526101606101408201819052600090611b2783820185611a80565b9e9d5050505050505050505050505050565b6040516101c0810167ffffffffffffffff81118282101715611b6b57634e487b7160e01b600052604160045260246000fd5b60405290565b8051611b7c81611826565b919050565b80516001600160601b0381168114611b7c57600080fd5b80518015158114611b7c57600080fd5b60006101c08284031215611bbb57600080fd5b611bc3611b39565b611bcc83611b71565b8152611bda60208401611b71565b602082015260408301516040820152606083015160608201526080830151608082015260a083015160a082015260c083015160c082015260e083015160e0820152610100808401518183015250610120611c35818501611b81565b90820152610140611c47848201611b98565b90820152610160611c59848201611b98565b9082015261018083810151908201526101a0928301519281019290925250919050565b600082611c8b57611c8b61197c565b500490565b600082611c9f57611c9f61197c565b500690565b6000600019821415611cb857611cb861190c565b5060010190565b600060208284031215611cd157600080fd5b61118382611b98565b60008160000b8360000b6000821282607f03821381151615611cfe57611cfe61190c565b82607f19038212811615611d1457611d1461190c565b50019392505050565b600181815b80851115611d58578160001904821115611d3e57611d3e61190c565b80851615611d4b57918102915b93841c9390800290611d22565b509250929050565b600082611d6f57506001611186565b81611d7c57506000611186565b8160018114611d925760028114611d9c57611db8565b6001915050611186565b60ff841115611dad57611dad61190c565b50506001821b611186565b5060208310610133831016604e8410600b8410161715611ddb575081810a611186565b611de58383611d1d565b8060001904821115611df957611df961190c565b029392505050565b60006111838383611d60565b600081810b83820b8281128015607f19830184121615611e2f57611e2f61190c565b81607f018313811615611e4457611e4461190c565b5090039392505050565b6000600160ff1b821415611e6457611e6461190c565b5060000390565b60008251611e7d818460208701611a50565b9190910192915050565b6020815260006111836020830184611a8056fea2646970667358221220730909c8af4d003a73bcfaa853b9d2d4a4223ca2f75b6b69a3cc76aca8216af064736f6c63430008090033a264697066735822122044d17d4ea686d9a7d35a0257130a5dc0eea883f83664bf83acddab70b075accc64736f6c63430008090033608060405234801561001057600080fd5b50613237806100206000396000f3fe608060405234801561001057600080fd5b50600436106101005760003560e01c80639b4ec8e911610097578063b9bebb0411610066578063b9bebb0414610247578063c76aeb1214610256578063cb9414f81461027f578063dffeadd01461029257600080fd5b80639b4ec8e9146101e4578063a9f752e5146101f7578063adaef42c14610220578063b51f8f881461023357600080fd5b8063372500ab116100d3578063372500ab1461018f57806354fd4d50146101975780637cbf6db2146101be5780638b27c574146101d157600080fd5b80630db3d42c146101055780630e0264d11461013c57806319ca8d9d1461015157806336a02f571461017c575b600080fd5b60355461011f90600160301b90046001600160c01b031681565b6040516001600160c01b0390911681526020015b60405180910390f35b61014f61014a366004612ba5565b6102a5565b005b603754610164906001600160a01b031681565b6040516001600160a01b039091168152602001610133565b61014f61018a366004612bd7565b610645565b61014f6107f6565b60408051808201825260058152640312e322e360dc1b602082015290516101339190612c24565b60365461011f906001600160c01b031681565b61014f6101df366004612c57565b610b38565b61014f6101f2366004612ba5565b610cc1565b610164610205366004612ba5565b6034602052600090815260409020546001600160a01b031681565b61014f61022e366004612ba5565b611420565b61011f6c01431e0fae6d7217caa000000081565b61011f670de0b6b3a764000081565b6035546102689065ffffffffffff1681565b60405165ffffffffffff9091168152602001610133565b61014f61028d366004612bd7565b611623565b603354610164906001600160a01b031681565b603360009054906101000a90046001600160a01b03166001600160a01b031663f17063756040518163ffffffff1660e01b815260040160206040518083038186803b1580156102f357600080fd5b505afa158015610307573d6000803e3d6000fd5b505050506040513d601f19601f8201168201806040525081019061032b9190612cb3565b156103515760405162461bcd60e51b815260040161034890612cd5565b60405180910390fd5b6001600160a01b038082166000908152603460205260409020541680610375575050565b806001600160a01b031663faf7ba6a6040518163ffffffff1660e01b815260040160206040518083038186803b1580156103ae57600080fd5b505afa1580156103c2573d6000803e3d6000fd5b505050506040513d601f19601f820116820180604052508101906103e69190612cb3565b6104265760405162461bcd60e51b815260206004820152601160248201527018d85b9b9bdd081cd95d1d1b19481e595d607a1b6044820152606401610348565b6001600160a01b038216600090815260346020526040812080546001600160a01b03191690556035805465ffffffffffff169161046283612d15565b91906101000a81548165ffffffffffff021916908365ffffffffffff16021790555050600080826001600160a01b03166311da60b46040518163ffffffff1660e01b81526004016040805180830381600087803b1580156104c257600080fd5b505af11580156104d6573d6000803e3d6000fd5b505050506040513d601f19601f820116820180604052508101906104fa9190612d37565b91509150826001600160a01b031663a6f2ae3a6040518163ffffffff1660e01b815260040160206040518083038186803b15801561053757600080fd5b505afa15801561054b573d6000803e3d6000fd5b505050506040513d601f19601f8201168201806040525081019061056f9190612d5b565b6001600160a01b0316836001600160a01b031663457100746040518163ffffffff1660e01b815260040160206040518083038186803b1580156105b157600080fd5b505afa1580156105c5573d6000803e3d6000fd5b505050506040513d601f19601f820116820180604052508101906105e99190612d5b565b6001600160a01b0316846001600160a01b03167f058fb1fa484531f400806f666315faf1a45941db93ba069405882b78ba40dc878585604051610636929190918252602082015260400190565b60405180910390a45050505b50565b60335460408051808201909152600581526427aba722a960d91b60208201526001600160a01b03909116906391d148549061067f90612d78565b336040516001600160e01b031960e085901b16815260048101929092526001600160a01b0316602482015260440160206040518083038186803b1580156106c557600080fd5b505afa1580156106d9573d6000803e3d6000fd5b505050506040513d601f19601f820116820180604052508101906106fd9190612cb3565b61073b5760405162461bcd60e51b815260206004820152600f60248201526e676f7665726e616e6365206f6e6c7960881b6044820152606401610348565b6c01431e0fae6d7217caa00000006001600160c01b038216111561079a5760405162461bcd60e51b8152602060048201526016602482015275696e76616c6964206d696e5472616465566f6c756d6560501b6044820152606401610348565b6036546040516001600160c01b038084169216907f1dec1ae9fd64ef0d8a6b130d853a8ab21d337625027cc60c63028f3d383495dc90600090a3603680546001600160c01b0319166001600160c01b0392909216919091179055565b603360009054906101000a90046001600160a01b03166001600160a01b031663f17063756040518163ffffffff1660e01b815260040160206040518083038186803b15801561084457600080fd5b505afa158015610858573d6000803e3d6000fd5b505050506040513d601f19601f8201168201806040525081019061087c9190612cb3565b156108995760405162461bcd60e51b815260040161034890612cd5565b603360009054906101000a90046001600160a01b03166001600160a01b031663181783586040518163ffffffff1660e01b8152600401600060405180830381600087803b1580156108e957600080fd5b505af11580156108fd573d6000803e3d6000fd5b505050506000603360009054906101000a90046001600160a01b03166001600160a01b031663979d7e866040518163ffffffff1660e01b815260040160206040518083038186803b15801561095157600080fd5b505afa158015610965573d6000803e3d6000fd5b505050506040513d601f19601f820116820180604052508101906109899190612d5b565b90506000816001600160a01b0316632510a1d76040518163ffffffff1660e01b815260040160006040518083038186803b1580156109c657600080fd5b505afa1580156109da573d6000803e3d6000fd5b505050506040513d6000823e601f3d908101601f19168201604052610a029190810190612dc5565b905060005b8151811015610b33576000836001600160a01b031663cde2be8a848481518110610a3357610a33612e8a565b60200260200101516040518263ffffffff1660e01b8152600401610a6691906001600160a01b0391909116815260200190565b60206040518083038186803b158015610a7e57600080fd5b505afa158015610a92573d6000803e3d6000fd5b505050506040513d601f19601f82011682018060405250810190610ab69190612d5b565b6040805160048152602481018252602080820180516001600160e01b031663372500ab60e01b179052825180840190935260148352731c995dd85c991cc818db185a5b4819985a5b195960621b90830152919250610b1e916001600160a01b038416916117e9565b50508080610b2b90612ea0565b915050610a07565b505050565b600054610100900460ff1615808015610b585750600054600160ff909116105b80610b725750303b158015610b72575060005460ff166001145b610bd55760405162461bcd60e51b815260206004820152602e60248201527f496e697469616c697a61626c653a20636f6e747261637420697320616c72656160448201526d191e481a5b9a5d1a585b1a5e995960921b6064820152608401610348565b6000805460ff191660011790558015610bf8576000805461ff0019166101001790555b6001600160a01b038416610c465760405162461bcd60e51b8152602060048201526015602482015274696e76616c696420746f6b656e206164647265737360581b6044820152606401610348565b610c4f85611863565b610c5983836118f9565b603780546001600160a01b0319166001600160a01b0386161790558015610cba576000805461ff0019169055604051600181527f7f26b83ff96e1f2b6a682f133852f6798a09c465da95921460cefb38474024989060200160405180910390a15b5050505050565b603360009054906101000a90046001600160a01b03166001600160a01b031663f17063756040518163ffffffff1660e01b815260040160206040518083038186803b158015610d0f57600080fd5b505afa158015610d23573d6000803e3d6000fd5b505050506040513d601f19601f82011682018060405250810190610d479190612cb3565b15610d645760405162461bcd60e51b815260040161034890612cd5565b6001600160a01b038181166000908152603460205260409020541615610d875750565b6040516370a0823160e01b81523060048201526000906001600160a01b038316906370a082319060240160206040518083038186803b158015610dc957600080fd5b505afa158015610ddd573d6000803e3d6000fd5b505050506040513d601f19601f82011682018060405250810190610e019190612ebb565b905080610e0c575050565b6037546001600160a01b038381169116141561103557603354604080516317fc212560e31b81529051610eb2926001600160a01b03169163bfe10928916004808301926020929190829003018186803b158015610e6857600080fd5b505afa158015610e7c573d6000803e3d6000fd5b505050506040513d601f19601f82011682018060405250810190610ea09190612d5b565b6001600160a01b038416906000611936565b603354604080516317fc212560e31b81529051610f41926001600160a01b03169163bfe10928916004808301926020929190829003018186803b158015610ef857600080fd5b505afa158015610f0c573d6000803e3d6000fd5b505050506040513d601f19601f82011682018060405250810190610f309190612d5b565b6001600160a01b0384169083611936565b603360009054906101000a90046001600160a01b03166001600160a01b031663bfe109286040518163ffffffff1660e01b815260040160206040518083038186803b158015610f8f57600080fd5b505afa158015610fa3573d6000803e3d6000fd5b505050506040513d601f19601f82011682018060405250810190610fc79190612d5b565b60405163a16a918360e01b81526001600160a01b03848116600483015230602483015260448201849052919091169063a16a918390606401600060405180830381600087803b15801561101957600080fd5b505af115801561102d573d6000803e3d6000fd5b505050505050565b60335460408051634bcebf4360e11b815290516000926001600160a01b03169163979d7e86916004808301926020929190829003018186803b15801561107a57600080fd5b505afa15801561108e573d6000803e3d6000fd5b505050506040513d601f19601f820116820180604052508101906110b29190612d5b565b6040516366f15f4560e11b81526001600160a01b03858116600483015291925060009183169063cde2be8a9060240160206040518083038186803b1580156110f957600080fd5b505afa15801561110d573d6000803e3d6000fd5b505050506040513d601f19601f820116820180604052508101906111319190612d5b565b6037546040516366f15f4560e11b81526001600160a01b0391821660048201529192506000919084169063cde2be8a9060240160206040518083038186803b15801561117c57600080fd5b505afa158015611190573d6000803e3d6000fd5b505050506040513d601f19601f820116820180604052508101906111b49190612d5b565b90506000826001600160a01b031663a035b1fe6040518163ffffffff1660e01b8152600401604080518083038186803b1580156111f057600080fd5b505afa158015611204573d6000803e3d6000fd5b505050506040513d601f19601f820116820180604052508101906112289190612ed4565b5090506000826001600160a01b031663a035b1fe6040518163ffffffff1660e01b8152600401604080518083038186803b15801561126557600080fd5b505afa158015611279573d6000803e3d6000fd5b505050506040513d601f19601f8201168201806040525081019061129d9190612ed4565b9150506000816001600160c01b03161180156112c157506001600160c01b03818116105b61130d5760405162461bcd60e51b815260206004820152601760248201527f62757920617373657420707269636520756e6b6e6f776e0000000000000000006044820152606401610348565b6040805160c0810182526001600160a01b0386811680835290861660208301528251632ac07b9560e11b815230600482015260009383019190635580f72a9060240160206040518083038186803b15801561136757600080fd5b505afa15801561137b573d6000803e3d6000fd5b505050506040513d601f19601f8201168201806040525081019061139f9190612f0e565b6001600160c01b03908116825260006020808401829052878316604080860191909152878416606090950194909452835180850190945260365483168452603554600160301b90049092169183019190915291925090806114008484611a7c565b9150915081156114135761141381611d96565b5050505050505050505050565b603360009054906101000a90046001600160a01b03166001600160a01b031663f17063756040518163ffffffff1660e01b815260040160206040518083038186803b15801561146e57600080fd5b505afa158015611482573d6000803e3d6000fd5b505050506040513d601f19601f820116820180604052508101906114a69190612cb3565b156114c35760405162461bcd60e51b815260040161034890612cd5565b60335460408051634bcebf4360e11b815290516000926001600160a01b03169163979d7e86916004808301926020929190829003018186803b15801561150857600080fd5b505afa15801561151c573d6000803e3d6000fd5b505050506040513d601f19601f820116820180604052508101906115409190612d5b565b6040516366f15f4560e11b81526001600160a01b038481166004830152919091169063cde2be8a9060240160206040518083038186803b15801561158357600080fd5b505afa158015611597573d6000803e3d6000fd5b505050506040513d601f19601f820116820180604052508101906115bb9190612d5b565b6040805160048152602481018252602080820180516001600160e01b031663372500ab60e01b179052825180840190935260148352731c995dd85c991cc818db185a5b4819985a5b195960621b90830152919250610b33916001600160a01b038416916117e9565b60335460408051808201909152600581526427aba722a960d91b60208201526001600160a01b03909116906391d148549061165d90612d78565b336040516001600160e01b031960e085901b16815260048101929092526001600160a01b0316602482015260440160206040518083038186803b1580156116a357600080fd5b505afa1580156116b7573d6000803e3d6000fd5b505050506040513d601f19601f820116820180604052508101906116db9190612cb3565b6117195760405162461bcd60e51b815260206004820152600f60248201526e676f7665726e616e6365206f6e6c7960881b6044820152606401610348565b670de0b6b3a76400006001600160c01b038216106117795760405162461bcd60e51b815260206004820152601860248201527f696e76616c6964206d61785472616465536c69707061676500000000000000006044820152606401610348565b6035546040516001600160c01b0380841692600160301b900416907f58d1f6b92b372d2913abb309ec9503acc2a53ed508ec34f478d7aeab07760f9990600090a3603580546001600160c01b03909216600160301b026601000000000000600160f01b0319909216919091179055565b6060600080856001600160a01b0316856040516118069190612f2b565b600060405180830381855af49150503d8060008114611841576040519150601f19603f3d011682016040523d82523d6000602084013e611846565b606091505b509150915061185786838387612321565b925050505b9392505050565b600054610100900460ff1661188a5760405162461bcd60e51b815260040161034890612f47565b6001600160a01b0381166118d75760405162461bcd60e51b81526020600482015260146024820152736d61696e206973207a65726f206164647265737360601b6044820152606401610348565b603380546001600160a01b0319166001600160a01b0392909216919091179055565b600054610100900460ff166119205760405162461bcd60e51b815260040161034890612f47565b61192982611623565b61193281610645565b5050565b8015806119bf5750604051636eb1769f60e11b81523060048201526001600160a01b03838116602483015284169063dd62ed3e9060440160206040518083038186803b15801561198557600080fd5b505afa158015611999573d6000803e3d6000fd5b505050506040513d601f19601f820116820180604052508101906119bd9190612ebb565b155b611a2a5760405162461bcd60e51b815260206004820152603660248201527f5361666545524332303a20617070726f76652066726f6d206e6f6e2d7a65726f60448201527520746f206e6f6e2d7a65726f20616c6c6f77616e636560501b6064820152608401610348565b604080516001600160a01b038416602482015260448082018490528251808303909101815260649091019091526020810180516001600160e01b031663095ea7b360e01b179052610b3390849061239f565b604080516080810182526000808252602082018190529181018290526060810182905260008460a001516001600160c01b0316118015611ac9575060a08401516001600160c01b03908116105b8015611ae2575060808401516001600160c01b03908116105b611aee57611aee612f92565b6000611b7285600001516001600160a01b031663e28a1b866040518163ffffffff1660e01b815260040160206040518083038186803b158015611b3057600080fd5b505afa158015611b44573d6000803e3d6000fd5b505050506040513d601f19601f82011682018060405250810190611b689190612f0e565b8660800151612471565b855160408701518651929350611b8992849061249d565b611b97576000925050611d8f565b604085015160808601516000906001600160c01b031615611c4f576000611bc688600001518960800151612557565b9050806001600160c01b0316836001600160c01b03161115611be6578092505b611c4b88608001518960a001516002611c3a611c2a8c60200151670de0b6b3a764000067ffffffffffffffff166001600160c01b031661261890919063ffffffff16565b6001600160c01b03891690612624565b6001600160c01b0316929190612632565b9150505b86516001600160a01b039081168552602080890151821681870152885160408051633cb5d37960e01b81529051611cef949290921692633cb5d37992600480840193829003018186803b158015611ca557600080fd5b505afa158015611cb9573d6000803e3d6000fd5b505050506040513d601f19601f82011682018060405250810190611cdd9190612fa8565b6001600160c01b038416906000612663565b846040018181525050611d8287602001516001600160a01b0316633cb5d3796040518163ffffffff1660e01b815260040160206040518083038186803b158015611d3857600080fd5b505afa158015611d4c573d6000803e3d6000fd5b505050506040513d601f19601f82011682018060405250810190611d709190612fa8565b6001600160c01b038316906002612663565b6060850152506001935050505b9250929050565b60335460408051630abff01160e41b815290516000926001600160a01b03169163abff0110916004808301926020929190829003018186803b158015611ddb57600080fd5b505afa158015611def573d6000803e3d6000fd5b505050506040513d601f19601f82011682018060405250810190611e139190612d5b565b905060006001600160a01b03166034600084600001516001600160a01b031663785e9e866040518163ffffffff1660e01b815260040160206040518083038186803b158015611e6157600080fd5b505afa158015611e75573d6000803e3d6000fd5b505050506040513d601f19601f82011682018060405250810190611e999190612d5b565b6001600160a01b0390811682526020820192909252604001600020541614611ec357611ec3612f92565b806001600160a01b031663ee0708056040518163ffffffff1660e01b815260040160206040518083038186803b158015611efc57600080fd5b505afa158015611f10573d6000803e3d6000fd5b505050506040513d601f19601f82011682018060405250810190611f349190612cb3565b15611f735760405162461bcd60e51b815260206004820152600f60248201526e189c9bdad95c88191a5cd8589b1959608a1b6044820152606401610348565b611ffe81600084600001516001600160a01b031663785e9e866040518163ffffffff1660e01b815260040160206040518083038186803b158015611fb657600080fd5b505afa158015611fca573d6000803e3d6000fd5b505050506040513d601f19601f82011682018060405250810190611fee9190612d5b565b6001600160a01b03169190611936565b61204481836040015184600001516001600160a01b031663785e9e866040518163ffffffff1660e01b815260040160206040518083038186803b158015611fb657600080fd5b6040805163542d5e2960e01b815283516001600160a01b0390811660048301526020850151811660248301529184015160448201526060840151606482015260009183169063542d5e2990608401602060405180830381600087803b1580156120ac57600080fd5b505af11580156120c0573d6000803e3d6000fd5b505050506040513d601f19601f820116820180604052508101906120e49190612d5b565b9050806034600085600001516001600160a01b031663785e9e866040518163ffffffff1660e01b815260040160206040518083038186803b15801561212857600080fd5b505afa15801561213c573d6000803e3d6000fd5b505050506040513d601f19601f820116820180604052508101906121609190612d5b565b6001600160a01b0390811682526020820192909252604001600090812080546001600160a01b031916939092169290921790556035805465ffffffffffff16916121a983612fcb565b91906101000a81548165ffffffffffff021916908365ffffffffffff1602179055505082602001516001600160a01b031663785e9e866040518163ffffffff1660e01b815260040160206040518083038186803b15801561220957600080fd5b505afa15801561221d573d6000803e3d6000fd5b505050506040513d601f19601f820116820180604052508101906122419190612d5b565b6001600160a01b031683600001516001600160a01b031663785e9e866040518163ffffffff1660e01b815260040160206040518083038186803b15801561228757600080fd5b505afa15801561229b573d6000803e3d6000fd5b505050506040513d601f19601f820116820180604052508101906122bf9190612d5b565b6001600160a01b0316826001600160a01b03167ff18b757d93c36d059284838a0328b06d8eb30d7214ffadde3266465a0006f6b386604001518760600151604051612314929190918252602082015260400190565b60405180910390a4505050565b6060831561238d578251612386576001600160a01b0385163b6123865760405162461bcd60e51b815260206004820152601d60248201527f416464726573733a2063616c6c20746f206e6f6e2d636f6e74726163740000006044820152606401610348565b5081612397565b6123978383612738565b949350505050565b60006123f4826040518060400160405280602081526020017f5361666545524332303a206c6f772d6c6576656c2063616c6c206661696c6564815250856001600160a01b03166127629092919063ffffffff16565b805190915015610b3357808060200190518101906124129190612cb3565b610b335760405162461bcd60e51b815260206004820152602a60248201527f5361666545524332303a204552433230206f7065726174696f6e20646964206e6044820152691bdd081cdd58d8d9595960b21b6064820152608401610348565b6000816001600160c01b0316836001600160c01b0316116124925781612494565b825b90505b92915050565b60006124bf6124ac8385612771565b6001600160c01b03908116908616101590565b801561254e5750600161254c866001600160a01b0316633cb5d3796040518163ffffffff1660e01b815260040160206040518083038186803b15801561250457600080fd5b505afa158015612518573d6000803e3d6000fd5b505050506040513d601f19601f8201168201806040525081019061253c9190612fa8565b6001600160c01b03871690612798565b115b95945050505050565b6000806001600160c01b038316156125f5576125f0836001866001600160a01b03166395acc4ae6040518163ffffffff1660e01b815260040160206040518083038186803b1580156125a857600080fd5b505afa1580156125bc573d6000803e3d6000fd5b505050506040513d601f19601f820116820180604052508101906125e09190612f0e565b6001600160c01b031691906127a6565b6125fe565b6001600160c01b035b90506000816001600160c01b03161161185c576001612397565b60006124948284612ff1565b6000612494838360016127d9565b600061254e61265e866001600160c01b0316866001600160c01b0316866001600160c01b031686612806565b6128b5565b60006001600160c01b03841661267b5750600061185c565b6029198360000b136126b457600282600281111561269b5761269b613019565b146126a75760006126aa565b60015b60ff16905061185c565b8260000b6060136126d85760405163f44398f560e01b815260040160405180910390fd5b6126e360128461302f565b925060006126f38460000b6128e3565b6126fe90600a61314c565b905060008460000b121561272557612720856001600160c01b031682856128fb565b61254e565b61254e816001600160c01b038716613158565b8151156127485781518083602001fd5b8060405162461bcd60e51b81526004016103489190612c24565b606061239784846000856129a5565b6000806001600160c01b038316156125f5576125f06001600160c01b0385168460016127a6565b600061249483836000612663565b600061239761265e6127c9670de0b6b3a76400006001600160c01b038816613158565b856001600160c01b0316856128fb565b600061239761265e6127f76001600160c01b03808716908816613158565b670de0b6b3a7640000856128fb565b600080612814868686612a80565b9050600083600281111561282a5761282a613019565b1415612837579050612397565b6000848061284757612847613177565b8688099050600284600281111561286057612860613019565b141561287f57801561287a5761287760018361318d565b91505b6128ab565b600261288c6001876131a5565b61289691906131bc565b8111156128ab576128a860018361318d565b91505b5095945050505050565b60006001600160c01b038211156128df5760405163f44398f560e01b815260040160405180910390fd5b5090565b60008082126128f25781612497565b612497826131d0565b60008061290884866131bc565b9050600083600281111561291e5761291e613019565b141561292b57905061185c565b600183600281111561293f5761293f613019565b141561297f5760026129526001866131a5565b61295c91906131bc565b61296685876131ed565b111561297a578061297681612ea0565b9150505b612397565b600061298b85876131ed565b1115612397578061299b81612ea0565b9695505050505050565b606082471015612a065760405162461bcd60e51b815260206004820152602660248201527f416464726573733a20696e73756666696369656e742062616c616e636520666f6044820152651c8818d85b1b60d21b6064820152608401610348565b600080866001600160a01b03168587604051612a229190612f2b565b60006040518083038185875af1925050503d8060008114612a5f576040519150601f19603f3d011682016040523d82523d6000602084013e612a64565b606091505b5091509150612a7587838387612321565b979650505050505050565b6000806000612a8f8686612b63565b91509150838210612ab35760405163f44398f560e01b815260040160405180910390fd5b60008480612ac357612ac3613177565b868809905081811115612ad7576001830392505b908190039060008590038516808681612af257612af2613177565b049550808381612b0457612b04613177565b049250808160000381612b1957612b19613177565b046001019390930291909101600285810380870282030280870282030280870282030280870282030280870282030280870282030295860290039094029390930295945050505050565b6000808060001984860990508385029150818103925081811015612b88576001830392505b509250929050565b6001600160a01b038116811461064257600080fd5b600060208284031215612bb757600080fd5b813561185c81612b90565b6001600160c01b038116811461064257600080fd5b600060208284031215612be957600080fd5b813561185c81612bc2565b60005b83811015612c0f578181015183820152602001612bf7565b83811115612c1e576000848401525b50505050565b6020815260008251806020840152612c43816040850160208701612bf4565b601f01601f19169190910160400192915050565b60008060008060808587031215612c6d57600080fd5b8435612c7881612b90565b93506020850135612c8881612b90565b92506040850135612c9881612bc2565b91506060850135612ca881612bc2565b939692955090935050565b600060208284031215612cc557600080fd5b8151801515811461185c57600080fd5b60208082526010908201526f3830bab9b2b21037b910333937bd32b760811b604082015260600190565b634e487b7160e01b600052601160045260246000fd5b600065ffffffffffff821680612d2d57612d2d612cff565b6000190192915050565b60008060408385031215612d4a57600080fd5b505080516020909101519092909150565b600060208284031215612d6d57600080fd5b815161185c81612b90565b80516020808301519190811015612d99576000198160200360031b1b821691505b50919050565b634e487b7160e01b600052604160045260246000fd5b8051612dc081612b90565b919050565b60006020808385031215612dd857600080fd5b825167ffffffffffffffff80821115612df057600080fd5b818501915085601f830112612e0457600080fd5b815181811115612e1657612e16612d9f565b8060051b604051601f19603f83011681018181108582111715612e3b57612e3b612d9f565b604052918252848201925083810185019188831115612e5957600080fd5b938501935b82851015612e7e57612e6f85612db5565b84529385019392850192612e5e565b98975050505050505050565b634e487b7160e01b600052603260045260246000fd5b6000600019821415612eb457612eb4612cff565b5060010190565b600060208284031215612ecd57600080fd5b5051919050565b60008060408385031215612ee757600080fd5b8251612ef281612bc2565b6020840151909250612f0381612bc2565b809150509250929050565b600060208284031215612f2057600080fd5b815161185c81612bc2565b60008251612f3d818460208701612bf4565b9190910192915050565b6020808252602b908201527f496e697469616c697a61626c653a20636f6e7472616374206973206e6f74206960408201526a6e697469616c697a696e6760a81b606082015260800190565b634e487b7160e01b600052600160045260246000fd5b600060208284031215612fba57600080fd5b815160ff8116811461185c57600080fd5b600065ffffffffffff80831681811415612fe757612fe7612cff565b6001019392505050565b60006001600160c01b038381169083168181101561301157613011612cff565b039392505050565b634e487b7160e01b600052602160045260246000fd5b600081810b83820b8281128015607f1983018412161561305157613051612cff565b81607f01831381161561306657613066612cff565b5090039392505050565b600181815b80851115612b8857816000190482111561309157613091612cff565b8085161561309e57918102915b93841c9390800290613075565b6000826130ba57506001612497565b816130c757506000612497565b81600181146130dd57600281146130e757613103565b6001915050612497565b60ff8411156130f8576130f8612cff565b50506001821b612497565b5060208310610133831016604e8410600b8410161715613126575081810a612497565b6131308383613070565b806000190482111561314457613144612cff565b029392505050565b600061249483836130ab565b600081600019048311821515161561317257613172612cff565b500290565b634e487b7160e01b600052601260045260246000fd5b600082198211156131a0576131a0612cff565b500190565b6000828210156131b7576131b7612cff565b500390565b6000826131cb576131cb613177565b500490565b6000600160ff1b8214156131e6576131e6612cff565b5060000390565b6000826131fc576131fc613177565b50069056fea264697066735822122064c147f634a082418f8798b635671642a4a942b972d7428921d385dd1ee68ce264736f6c634300080900336101406040523480156200001257600080fd5b50604051620027d0380380620027d08339810160408190526200003591620003a2565b6001600160a01b038216620000815760405162461bcd60e51b815260206004820152600d60248201526c06d697373696e6720657263323609c1b60448201526064015b60405180910390fd5b6000816001600160c01b031611620000dc5760405162461bcd60e51b815260206004820152601860248201527f696e76616c6964206d617820747261646520766f6c756d650000000000000000604482015260640162000078565b6000826001600160a01b031663dffeadd06040518163ffffffff1660e01b815260040160206040518083038186803b1580156200011857600080fd5b505afa1580156200012d573d6000803e3d6000fd5b505050506040513d601f19601f82011682018060405250810190620001539190620003ec565b9050806001600160a01b0316632f2439b16040518163ffffffff1660e01b815260040160206040518083038186803b1580156200018f57600080fd5b505afa158015620001a4573d6000803e3d6000fd5b505050506040513d601f19601f82011682018060405250810190620001ca9190620003ec565b6001600160a01b03166080816001600160a01b031681525050806001600160a01b031663979d7e866040518163ffffffff1660e01b815260040160206040518083038186803b1580156200021d57600080fd5b505afa15801562000232573d6000803e3d6000fd5b505050506040513d601f19601f82011682018060405250810190620002589190620003ec565b6001600160a01b031660a0816001600160a01b031681525050806001600160a01b031663dc8af5f66040518163ffffffff1660e01b815260040160206040518083038186803b158015620002ab57600080fd5b505afa158015620002c0573d6000803e3d6000fd5b505050506040513d601f19601f82011682018060405250810190620002e69190620003ec565b6001600160a01b0390811660c052831660e08190526040805163313ce56760e01b8152905163313ce56791600480820192602092909190829003018186803b1580156200033257600080fd5b505afa15801562000347573d6000803e3d6000fd5b505050506040513d601f19601f820116820180604052508101906200036d919062000413565b60ff1661010052506001600160c01b0316610120525062000438565b6001600160a01b03811681146200039f57600080fd5b50565b60008060408385031215620003b657600080fd5b8251620003c38162000389565b60208401519092506001600160c01b0381168114620003e157600080fd5b809150509250929050565b600060208284031215620003ff57600080fd5b81516200040c8162000389565b9392505050565b6000602082840312156200042657600080fd5b815160ff811681146200040c57600080fd5b60805160a05160c05160e05161010051610120516122f5620004db60003960006101b7015260006101040152600081816101680152818161026c01528181610392015281816105ae015261072301526000818161021c015281816107cb0152818161086b01528181610b220152610bc10152600081816101de0152610c6201526000818160be015281816102f901528181610516015261068d01526122f56000f3fe608060405234801561001057600080fd5b50600436106100b45760003560e01c806395acc4ae1161007157806395acc4ae146101b2578063979d7e86146101d9578063a035b1fe14610200578063c59b3d6314610208578063dc8af5f614610217578063e28a1b861461023e57600080fd5b80632f2439b1146100b9578063372500ab146100fd5780633cb5d379146100ff5780635580f72a14610138578063785e9e86146101635780637d1ea1371461018a575b600080fd5b6100e07f000000000000000000000000000000000000000000000000000000000000000081565b6040516001600160a01b0390911681526020015b60405180910390f35b005b6101267f000000000000000000000000000000000000000000000000000000000000000081565b60405160ff90911681526020016100f4565b61014b610146366004611d2f565b610246565b6040516001600160c01b0390911681526020016100f4565b6100e07f000000000000000000000000000000000000000000000000000000000000000081565b6101926102f1565b604080516001600160c01b039384168152929091166020830152016100f4565b61014b7f000000000000000000000000000000000000000000000000000000000000000081565b6100e07f000000000000000000000000000000000000000000000000000000000000000081565b61019261044c565b604051600081526020016100f4565b6100e07f000000000000000000000000000000000000000000000000000000000000000081565b61014b610511565b6040516370a0823160e01b81526001600160a01b0382811660048301526000916102eb917f000000000000000000000000000000000000000000000000000000000000000016906370a082319060240160206040518083038186803b1580156102ae57600080fd5b505afa1580156102c2573d6000803e3d6000fd5b505050506040513d601f19601f820116820180604052508101906102e69190611d4c565b610649565b92915050565b6000806000807f00000000000000000000000000000000000000000000000000000000000000006001600160a01b031663a035b1fe6040518163ffffffff1660e01b8152600401604080518083038186803b15801561034f57600080fd5b505afa158015610363573d6000803e3d6000fd5b505050506040513d601f19601f820116820180604052508101906103879190611d81565b9150915060006103e97f00000000000000000000000000000000000000000000000000000000000000006001600160a01b03166318160ddd6040518163ffffffff1660e01b815260040160206040518083038186803b1580156102ae57600080fd5b90506001600160c01b038116610403575090939092509050565b600061040d610677565b6020810151909150610429906001600160c01b03168584610d0b565b8151909650610442906001600160c01b03168484610d0b565b9450505050509091565b600080306001600160a01b0316637d1ea1376040518163ffffffff1660e01b8152600401604080518083038186803b15801561048757600080fd5b505afa9250505080156104b7575060408051601f3d908101601f191682019092526104b491810190611d81565b60015b610508573d8080156104e5576040519150601f19603f3d011682016040523d82523d6000602084013e6104ea565b606091505b5080516104f657600080fd5b506000926001600160c01b0392509050565b90939092509050565b6000807f00000000000000000000000000000000000000000000000000000000000000006001600160a01b031663e28a1b866040518163ffffffff1660e01b815260040160206040518083038186803b15801561056d57600080fd5b505afa158015610581573d6000803e3d6000fd5b505050506040513d601f19601f820116820180604052508101906105a59190611db4565b905060006106057f00000000000000000000000000000000000000000000000000000000000000006001600160a01b03166318160ddd6040518163ffffffff1660e01b815260040160206040518083038186803b1580156102ae57600080fd5b90506001600160c01b03811661061b5750919050565b6000610625610677565b6020810151909150610641906001600160c01b03168484610d0b565b935050505090565b60006001600160c01b038211156106735760405163f44398f560e01b815260040160405180910390fd5b5090565b60408051808201909152600080825260208201527f00000000000000000000000000000000000000000000000000000000000000006001600160a01b031663e45a5b2d6040518163ffffffff1660e01b815260040160206040518083038186803b1580156106e457600080fd5b505afa1580156106f8573d6000803e3d6000fd5b505050506040513d601f19601f8201168201806040525081019061071c9190611dcf565b156107c7577f00000000000000000000000000000000000000000000000000000000000000006001600160a01b0316637121c2736040518163ffffffff1660e01b815260040160206040518083038186803b15801561077a57600080fd5b505afa15801561078e573d6000803e3d6000fd5b505050506040513d601f19601f820116820180604052508101906107b29190611db4565b6001600160c01b031660208201819052815290565b60007f00000000000000000000000000000000000000000000000000000000000000006001600160a01b031663dffeadd06040518163ffffffff1660e01b815260040160206040518083038186803b15801561082257600080fd5b505afa158015610836573d6000803e3d6000fd5b505050506040513d601f19601f8201168201806040525081019061085a9190611df1565b905060006040518060c001604052807f00000000000000000000000000000000000000000000000000000000000000006001600160a01b03168152602001836001600160a01b0316632f2439b16040518163ffffffff1660e01b815260040160206040518083038186803b1580156108d157600080fd5b505afa1580156108e5573d6000803e3d6000fd5b505050506040513d601f19601f820116820180604052508101906109099190611df1565b6001600160a01b03168152602001836001600160a01b031663979d7e866040518163ffffffff1660e01b815260040160206040518083038186803b15801561095057600080fd5b505afa158015610964573d6000803e3d6000fd5b505050506040513d601f19601f820116820180604052508101906109889190611df1565b6001600160a01b03168152602001836001600160a01b0316634780a5e56040518163ffffffff1660e01b815260040160206040518083038186803b1580156109cf57600080fd5b505afa1580156109e3573d6000803e3d6000fd5b505050506040513d601f19601f82011682018060405250810190610a079190611df1565b6001600160a01b03168152602001836001600160a01b031663c99dc3dd6040518163ffffffff1660e01b815260040160206040518083038186803b158015610a4e57600080fd5b505afa158015610a62573d6000803e3d6000fd5b505050506040513d601f19601f82011682018060405250810190610a869190611df1565b6001600160a01b03168152602001836001600160a01b03166340c65f726040518163ffffffff1660e01b815260040160206040518083038186803b158015610acd57600080fd5b505afa158015610ae1573d6000803e3d6000fd5b505050506040513d601f19601f82011682018060405250810190610b059190611df1565b6001600160a01b03168152509050600060405180604001604052807f00000000000000000000000000000000000000000000000000000000000000006001600160a01b0316637cbf6db26040518163ffffffff1660e01b815260040160206040518083038186803b158015610b7957600080fd5b505afa158015610b8d573d6000803e3d6000fd5b505050506040513d601f19601f82011682018060405250810190610bb19190611db4565b6001600160c01b031681526020017f00000000000000000000000000000000000000000000000000000000000000006001600160a01b0316630db3d42c6040518163ffffffff1660e01b815260040160206040518083038186803b158015610c1857600080fd5b505afa158015610c2c573d6000803e3d6000fd5b505050506040513d601f19601f82011682018060405250810190610c509190611db4565b6001600160c01b0316815250905060007f00000000000000000000000000000000000000000000000000000000000000006001600160a01b0316635ab1bd536040518163ffffffff1660e01b815260040160006040518083038186803b158015610cb957600080fd5b505afa158015610ccd573d6000803e3d6000fd5b505050506040513d6000823e601f3d908101601f19168201604052610cf59190810190611f16565b9050610d02838383610d24565b94505050505090565b6000610d1a8484846000610f3f565b90505b9392505050565b604080518082019091526000808252602082015260008085602001516001600160a01b031663a035b1fe6040518163ffffffff1660e01b8152600401604080518083038186803b158015610d7757600080fd5b505afa158015610d8b573d6000803e3d6000fd5b505050506040513d601f19601f82011682018060405250810190610daf9190611d81565b91509150600080610dc1888888610f76565b915091506000610e5882610e53868c60a001516001600160a01b0316637121c2736040518163ffffffff1660e01b815260040160206040518083038186803b158015610e0c57600080fd5b505afa158015610e20573d6000803e3d6000fd5b505050506040513d601f19601f82011682018060405250810190610e449190611db4565b6001600160c01b03169061152c565b61153a565b90506000610e688a898488611562565b60208a0151909150600090610eb590610e8a90670de0b6b3a76400009061180d565b60208c0151600290610ea5906001600160c01b03168661152c565b6001600160c01b03169190611819565b905060006001600160c01b0380831690871611610ed3576000610eef565b610eef610ee96001600160c01b0388168461180d565b8561153a565b9050610f066001600160c01b038516896002611819565b6001600160c01b039081168a52610f21908216886002611819565b6001600160c01b031660208a015250969a9950505050505050505050565b6000610f6b6102e6866001600160c01b0316866001600160c01b0316866001600160c01b03168661184c565b90505b949350505050565b60008080805b8451518110156114f3578660a001516001600160a01b031685600001518281518110610faa57610faa612004565b60200260200101516001600160a01b03161415610fc6576114e3565b600085602001518281518110610fde57610fde612004565b60209081029190910101518851604051632ac07b9560e11b81526001600160a01b039182166004820152911690635580f72a9060240160206040518083038186803b15801561102c57600080fd5b505afa158015611040573d6000803e3d6000fd5b505050506040513d601f19601f820116820180604052508101906110649190611db4565b905087608001516001600160a01b03168660000151838151811061108a5761108a612004565b60200260200101516001600160a01b0316141561115657611153866020015183815181106110ba576110ba612004565b602090810291909101015160608a0151604051632ac07b9560e11b81526001600160a01b039182166004820152911690635580f72a9060240160206040518083038186803b15801561110b57600080fd5b505afa15801561111f573d6000803e3d6000fd5b505050506040513d601f19601f820116820180604052508101906111439190611db4565b6001600160c01b038316906118fb565b90505b6000808760200151848151811061116f5761116f612004565b60200260200101516001600160a01b031663a035b1fe6040518163ffffffff1660e01b8152600401604080518083038186803b1580156111ae57600080fd5b505afa1580156111c2573d6000803e3d6000fd5b505050506040513d601f19601f820116820180604052508101906111e69190611d81565b9150915060006112838960200151868151811061120557611205612004565b60200260200101516001600160a01b031663e28a1b866040518163ffffffff1660e01b815260040160206040518083038186803b15801561124557600080fd5b505afa158015611259573d6000803e3d6000fd5b505050506040513d601f19601f8201168201806040525081019061127d9190611db4565b84611907565b905060008b602001516001600160a01b031663a5a5828c8b6000015188815181106112b0576112b0612004565b60200260200101516040518263ffffffff1660e01b81526004016112e391906001600160a01b0391909116815260200190565b60206040518083038186803b1580156112fb57600080fd5b505afa15801561130f573d6000803e3d6000fd5b505050506040513d601f19601f820116820180604052508101906113339190611db4565b90506001600160c01b03811615801561137657506113748a60200151878151811061136057611360612004565b602002602001015186848e60000151611928565b155b156113855750505050506114e3565b61139a6001600160c01b0385168660006119e1565b6113a4908a612030565b8c516040516307a4469760e21b81526001600160c01b03808716600483015288166024820152670de0b6b3a76400006044820152919a506001600160a01b031690631e911a5c9060640160206040518083038186803b15801561140657600080fd5b505afa925050508015611436575060408051601f3d908101601f1916820190925261143391810190611d4c565b60015b611485573d808015611464576040519150601f19603f3d011682016040523d82523d6000602084013e611469565b606091505b50805161147557600080fd5b6001600160c01b039850506114c5565b6001600160c01b03611499828b831661205b565b106114ad576001600160c01b0398506114c3565b6114b681610649565b6114c0908a612030565b98505b505b8a516114db906001600160c01b038916906118fb565b965050505050505b6114ec81612073565b9050610f7c565b506001600160c01b038181169084161161150e576000611521565b6115216001600160c01b0384168261180d565b925050935093915050565b6000610d1d838360016119e1565b6000816001600160c01b0316836001600160c01b03161061155b5781610d1d565b5090919050565b600080826001600160c01b03161161157c5761157c61208e565b83515160005b8181101561180357600087602001516001600160a01b031663a5a5828c886000015184815181106115b5576115b5612004565b60200260200101516040518263ffffffff1660e01b81526004016115e891906001600160a01b0391909116815260200190565b60206040518083038186803b15801561160057600080fd5b505afa158015611614573d6000803e3d6000fd5b505050506040513d601f19601f820116820180604052508101906116389190611db4565b90506001600160c01b03811661164e57506117f3565b60006116666001600160c01b03881683886002610f3f565b905060008860200151848151811061168057611680612004565b60209081029190910101518a51604051632ac07b9560e11b81526001600160a01b039182166004820152911690635580f72a9060240160206040518083038186803b1580156116ce57600080fd5b505afa1580156116e2573d6000803e3d6000fd5b505050506040513d601f19601f820116820180604052508101906117069190611db4565b90506001600160c01b0382811690821610156117ef5760008960200151858151811061173457611734612004565b60200260200101516001600160a01b031663a035b1fe6040518163ffffffff1660e01b8152600401604080518083038186803b15801561177357600080fd5b505afa158015611787573d6000803e3d6000fd5b505050506040513d601f19601f820116820180604052508101906117ab9190611d81565b91506117eb90506117db8260006117cb6001600160c01b0388168761180d565b6001600160c01b031691906119e1565b6001600160c01b038916906118fb565b9650505b5050505b6117fc81612073565b9050611582565b5050949350505050565b6000610d1d82846120a4565b6000610d1a6102e661183c670de0b6b3a76400006001600160c01b0388166120cc565b856001600160c01b031685611a0a565b60008061185a868686611ab4565b90506000836002811115611870576118706120eb565b141561187d579050610f6e565b6000848061188d5761188d612101565b868809905060028460028111156118a6576118a66120eb565b14156118c55780156118c0576118bd60018361205b565b91505b6118f1565b60026118d2600187612117565b6118dc919061212e565b8111156118f1576118ee60018361205b565b91505b5095945050505050565b6000610d1d8284612030565b6000816001600160c01b0316836001600160c01b03161161155b5781610d1d565b600061194a6119378385611b97565b6001600160c01b03908116908616101590565b8015610f6b575060016119d7866001600160a01b0316633cb5d3796040518163ffffffff1660e01b815260040160206040518083038186803b15801561198f57600080fd5b505afa1580156119a3573d6000803e3d6000fd5b505050506040513d601f19601f820116820180604052508101906119c79190612142565b6001600160c01b03871690611be6565b1195945050505050565b6000610d1a6102e66119ff6001600160c01b038087169088166120cc565b670de0b6b3a7640000855b600080611a17848661212e565b90506000836002811115611a2d57611a2d6120eb565b1415611a3a579050610d1d565b6001836002811115611a4e57611a4e6120eb565b1415611a8e576002611a61600186612117565b611a6b919061212e565b611a758587612165565b1115611a895780611a8581612073565b9150505b610d1a565b6000611a9a8587612165565b1115610d1a5780611aaa81612073565b9695505050505050565b6000806000611ac38686611bf4565b91509150838210611ae75760405163f44398f560e01b815260040160405180910390fd5b60008480611af757611af7612101565b868809905081811115611b0b576001830392505b908190039060008590038516808681611b2657611b26612101565b049550808381611b3857611b38612101565b049250808160000381611b4d57611b4d612101565b046001019390930291909101600285810380870282030280870282030280870282030280870282030280870282030280870282030295860290039094029390930295945050505050565b6000806001600160c01b03831615611bc357611bbe6001600160c01b038516846001611819565b611bcc565b6001600160c01b035b90506000816001600160c01b031611610d1d576001610f6e565b6000610d1d83836000611c21565b6000808060001984860990508385029150818103925081811015611c19576001830392505b509250929050565b60006001600160c01b038416611c3957506000610d1d565b6029198360000b13611c72576002826002811115611c5957611c596120eb565b14611c65576000611c68565b60015b60ff169050610d1d565b8260000b606013611c965760405163f44398f560e01b815260040160405180910390fd5b611ca1601284612179565b92506000611cb18460000b611cff565b611cbc90600a612296565b905060008460000b1215611ce357611cde856001600160c01b03168285611a0a565b611cf6565b611cf6816001600160c01b0387166120cc565b95945050505050565b6000808212611d0e57816102eb565b6102eb826122a2565b6001600160a01b0381168114611d2c57600080fd5b50565b600060208284031215611d4157600080fd5b8135610d1d81611d17565b600060208284031215611d5e57600080fd5b5051919050565b80516001600160c01b0381168114611d7c57600080fd5b919050565b60008060408385031215611d9457600080fd5b611d9d83611d65565b9150611dab60208401611d65565b90509250929050565b600060208284031215611dc657600080fd5b610d1d82611d65565b600060208284031215611de157600080fd5b81518015158114610d1d57600080fd5b600060208284031215611e0357600080fd5b8151610d1d81611d17565b634e487b7160e01b600052604160045260246000fd5b6040805190810167ffffffffffffffff81118282101715611e4757611e47611e0e565b60405290565b604051601f8201601f1916810167ffffffffffffffff81118282101715611e7657611e76611e0e565b604052919050565b600067ffffffffffffffff821115611e9857611e98611e0e565b5060051b60200190565b600082601f830112611eb357600080fd5b81516020611ec8611ec383611e7e565b611e4d565b82815260059290921b84018101918181019086841115611ee757600080fd5b8286015b84811015611f0b578051611efe81611d17565b8352918301918301611eeb565b509695505050505050565b60006020808385031215611f2957600080fd5b825167ffffffffffffffff80821115611f4157600080fd5b9084019060408287031215611f5557600080fd5b611f5d611e24565b825182811115611f6c57600080fd5b8301601f81018813611f7d57600080fd5b8051611f8b611ec382611e7e565b81815260059190911b8201860190868101908a831115611faa57600080fd5b928701925b82841015611fd1578351611fc281611d17565b82529287019290870190611faf565b84525050508284015182811115611fe757600080fd5b611ff388828601611ea2565b948201949094529695505050505050565b634e487b7160e01b600052603260045260246000fd5b634e487b7160e01b600052601160045260246000fd5b60006001600160c01b038281168482168083038211156120525761205261201a565b01949350505050565b6000821982111561206e5761206e61201a565b500190565b60006000198214156120875761208761201a565b5060010190565b634e487b7160e01b600052600160045260246000fd5b60006001600160c01b03838116908316818110156120c4576120c461201a565b039392505050565b60008160001904831182151516156120e6576120e661201a565b500290565b634e487b7160e01b600052602160045260246000fd5b634e487b7160e01b600052601260045260246000fd5b6000828210156121295761212961201a565b500390565b60008261213d5761213d612101565b500490565b60006020828403121561215457600080fd5b815160ff81168114610d1d57600080fd5b60008261217457612174612101565b500690565b600081810b83820b8281128015607f1983018412161561219b5761219b61201a565b81607f0183138116156121b0576121b061201a565b5090039392505050565b600181815b80851115611c195781600019048211156121db576121db61201a565b808516156121e857918102915b93841c93908002906121bf565b600082612204575060016102eb565b81612211575060006102eb565b816001811461222757600281146122315761224d565b60019150506102eb565b60ff8411156122425761224261201a565b50506001821b6102eb565b5060208310610133831016604e8410600b8410161715612270575081810a6102eb565b61227a83836121ba565b806000190482111561228e5761228e61201a565b029392505050565b6000610d1d83836121f5565b6000600160ff1b8214156122b8576122b861201a565b506000039056fea26469706673582212209c7c24beb698b11e3b54968ffec4bc202152b66d5e4241eaa76ad152a587ee8a64736f6c63430008090033a2646970667358221220ec6a2ea8a15f121dbe189f32e7243d824b5485165083fb6fc98c158d7658f94164736f6c63430008090033",
  "linkReferences": {
    "contracts/reserve/libraries/Permit.sol": {
      "PermitLib": [
        {
          "length": 20,
          "start": 30021
        },
        {
          "length": 20,
          "start": 51497
        }
      ]
    },
    "contracts/reserve/p0/mixins/TradingLib.sol": {
      "TradingLibP0": [
        {
          "length": 20,
          "start": 96304
        }
      ]
    }
  },
  "deployedLinkReferences": {
    "contracts/reserve/libraries/Permit.sol": {
      "PermitLib": [
        {
          "length": 20,
          "start": 29632
        },
        {
          "length": 20,
          "start": 51108
        }
      ]
    },
    "contracts/reserve/p0/mixins/TradingLib.sol": {
      "TradingLibP0": [
        {
          "length": 20,
          "start": 95915
        }
      ]
    }
  }
}