{
  "_format": "hh-sol-artifact-1",
  "contractName": "NonFiatCollateral",
  "sourceName": "contracts/reserve/plugins/assets/NonFiatCollateral.sol",
  "abi": [
    {
      "inputs": [
        {
          "components": [
            {
              "internalType": "uint192",
              "name": "fallbackPrice",
              "type": "uint192"
            },
            {
              "internalType": "contract AggregatorV3Interface",
              "name": "chainlinkFeed",
              "type": "address"
            },
            {
              "internalType": "uint192",
              "name": "oracleError",
              "type": "uint192"
            },
            {
              "internalType": "contract IERC20Metadata",
              "name": "erc20",
              "type": "address"
            },
            {
              "internalType": "uint192",
              "name": "maxTradeVolume",
              "type": "uint192"
            },
            {
              "internalType": "uint48",
              "name": "oracleTimeout",
              "type": "uint48"
            },
            {
              "internalType": "bytes32",
              "name": "targetName",
              "type": "bytes32"
            },
            {
              "internalType": "uint192",
              "name": "defaultThreshold",
              "type": "uint192"
            },
            {
              "internalType": "uint256",
              "name": "delayUntilDefault",
              "type": "uint256"
            }
          ],
          "internalType": "struct CollateralConfig",
          "name": "config",
          "type": "tuple"
        },
        {
          "internalType": "contract AggregatorV3Interface",
          "name": "uoaPerTargetFeed_",
          "type": "address"
        }
      ],
      "stateMutability": "nonpayable",
      "type": "constructor"
    },
    {
      "inputs": [],
      "name": "StalePrice",
      "type": "error"
    },
    {
      "inputs": [],
      "name": "UIntOutOfBounds",
      "type": "error"
    },
    {
      "anonymous": false,
      "inputs": [
        {
          "indexed": true,
          "internalType": "enum CollateralStatus",
          "name": "oldStatus",
          "type": "uint8"
        },
        {
          "indexed": true,
          "internalType": "enum CollateralStatus",
          "name": "newStatus",
          "type": "uint8"
        }
      ],
      "name": "CollateralStatusChanged",
      "type": "event"
    },
    {
      "anonymous": false,
      "inputs": [
        {
          "indexed": true,
          "internalType": "contract IERC20",
          "name": "erc20",
          "type": "address"
        },
        {
          "indexed": true,
          "internalType": "uint256",
          "name": "amount",
          "type": "uint256"
        }
      ],
      "name": "RewardsClaimed",
      "type": "event"
    },
    {
      "inputs": [
        {
          "internalType": "address",
          "name": "account",
          "type": "address"
        }
      ],
      "name": "bal",
      "outputs": [
        {
          "internalType": "uint192",
          "name": "",
          "type": "uint192"
        }
      ],
      "stateMutability": "view",
      "type": "function"
    },
    {
      "inputs": [],
      "name": "chainlinkFeed",
      "outputs": [
        {
          "internalType": "contract AggregatorV3Interface",
          "name": "",
          "type": "address"
        }
      ],
      "stateMutability": "view",
      "type": "function"
    },
    {
      "inputs": [],
      "name": "claimRewards",
      "outputs": [],
      "stateMutability": "nonpayable",
      "type": "function"
    },
    {
      "inputs": [],
      "name": "delayUntilDefault",
      "outputs": [
        {
          "internalType": "uint256",
          "name": "",
          "type": "uint256"
        }
      ],
      "stateMutability": "view",
      "type": "function"
    },
    {
      "inputs": [],
      "name": "erc20",
      "outputs": [
        {
          "internalType": "contract IERC20Metadata",
          "name": "",
          "type": "address"
        }
      ],
      "stateMutability": "view",
      "type": "function"
    },
    {
      "inputs": [],
      "name": "erc20Decimals",
      "outputs": [
        {
          "internalType": "uint8",
          "name": "",
          "type": "uint8"
        }
      ],
      "stateMutability": "view",
      "type": "function"
    },
    {
      "inputs": [],
      "name": "fallbackPrice",
      "outputs": [
        {
          "internalType": "uint192",
          "name": "",
          "type": "uint192"
        }
      ],
      "stateMutability": "view",
      "type": "function"
    },
    {
      "inputs": [],
      "name": "isCollateral",
      "outputs": [
        {
          "internalType": "bool",
          "name": "",
          "type": "bool"
        }
      ],
      "stateMutability": "pure",
      "type": "function"
    },
    {
      "inputs": [],
      "name": "maxTradeVolume",
      "outputs": [
        {
          "internalType": "uint192",
          "name": "",
          "type": "uint192"
        }
      ],
      "stateMutability": "view",
      "type": "function"
    },
    {
      "inputs": [],
      "name": "oracleError",
      "outputs": [
        {
          "internalType": "uint192",
          "name": "",
          "type": "uint192"
        }
      ],
      "stateMutability": "view",
      "type": "function"
    },
    {
      "inputs": [],
      "name": "oracleTimeout",
      "outputs": [
        {
          "internalType": "uint48",
          "name": "",
          "type": "uint48"
        }
      ],
      "stateMutability": "view",
      "type": "function"
    },
    {
      "inputs": [],
      "name": "pegBottom",
      "outputs": [
        {
          "internalType": "uint192",
          "name": "",
          "type": "uint192"
        }
      ],
      "stateMutability": "view",
      "type": "function"
    },
    {
      "inputs": [],
      "name": "pegTop",
      "outputs": [
        {
          "internalType": "uint192",
          "name": "",
          "type": "uint192"
        }
      ],
      "stateMutability": "view",
      "type": "function"
    },
    {
      "inputs": [],
      "name": "prevReferencePrice",
      "outputs": [
        {
          "internalType": "uint192",
          "name": "",
          "type": "uint192"
        }
      ],
      "stateMutability": "view",
      "type": "function"
    },
    {
      "inputs": [],
      "name": "price",
      "outputs": [
        {
          "internalType": "uint192",
          "name": "",
          "type": "uint192"
        },
        {
          "internalType": "uint192",
          "name": "",
          "type": "uint192"
        }
      ],
      "stateMutability": "view",
      "type": "function"
    },
    {
      "inputs": [],
      "name": "refPerTok",
      "outputs": [
        {
          "internalType": "uint192",
          "name": "",
          "type": "uint192"
        }
      ],
      "stateMutability": "view",
      "type": "function"
    },
    {
      "inputs": [],
      "name": "refresh",
      "outputs": [],
      "stateMutability": "nonpayable",
      "type": "function"
    },
    {
      "inputs": [],
      "name": "status",
      "outputs": [
        {
          "internalType": "enum CollateralStatus",
          "name": "",
          "type": "uint8"
        }
      ],
      "stateMutability": "view",
      "type": "function"
    },
    {
      "inputs": [],
      "name": "targetName",
      "outputs": [
        {
          "internalType": "bytes32",
          "name": "",
          "type": "bytes32"
        }
      ],
      "stateMutability": "view",
      "type": "function"
    },
    {
      "inputs": [],
      "name": "targetPerRef",
      "outputs": [
        {
          "internalType": "uint192",
          "name": "",
          "type": "uint192"
        }
      ],
      "stateMutability": "view",
      "type": "function"
    },
    {
      "inputs": [],
      "name": "tryPrice",
      "outputs": [
        {
          "internalType": "uint192",
          "name": "low",
          "type": "uint192"
        },
        {
          "internalType": "uint192",
          "name": "high",
          "type": "uint192"
        },
        {
          "internalType": "uint192",
          "name": "pegPrice",
          "type": "uint192"
        }
      ],
      "stateMutability": "view",
      "type": "function"
    },
    {
      "inputs": [],
      "name": "uoaPerTargetFeed",
      "outputs": [
        {
          "internalType": "contract AggregatorV3Interface",
          "name": "",
          "type": "address"
        }
      ],
      "stateMutability": "view",
      "type": "function"
    },
    {
      "inputs": [],
      "name": "whenDefault",
      "outputs": [
        {
          "internalType": "uint256",
          "name": "",
          "type": "uint256"
        }
      ],
      "stateMutability": "view",
      "type": "function"
    }
  ],
  "bytecode": "0x6101e06040526000196001553480156200001857600080fd5b5060405162001c6e38038062001c6e8339810160408190526200003b91620006be565b81806000015181602001518260400151836060015184608001518560a001516000866001600160c01b031611620000b95760405162461bcd60e51b815260206004820152601360248201527f66616c6c6261636b207072696365207a65726f0000000000000000000000000060448201526064015b60405180910390fd5b6001600160a01b038516620001115760405162461bcd60e51b815260206004820152601660248201527f6d697373696e6720636861696e6c696e6b2066656564000000000000000000006044820152606401620000b0565b6000846001600160c01b03161180156200013b5750670de0b6b3a76400006001600160c01b038516105b620001895760405162461bcd60e51b815260206004820152601960248201527f6f7261636c65206572726f72206f7574206f662072616e6765000000000000006044820152606401620000b0565b6001600160a01b038316620001d15760405162461bcd60e51b815260206004820152600d60248201526c06d697373696e6720657263323609c1b6044820152606401620000b0565b6000826001600160c01b0316116200022c5760405162461bcd60e51b815260206004820152601860248201527f696e76616c6964206d617820747261646520766f6c756d6500000000000000006044820152606401620000b0565b60008165ffffffffffff16116200027b5760405162461bcd60e51b81526020600482015260126024820152716f7261636c6554696d656f7574207a65726f60701b6044820152606401620000b0565b600080546001600160c01b0319166001600160c01b03888116919091179091556001600160a01b0386811660805290851661010052831660a08190526040805163313ce56760e01b8152905163313ce56791600480820192602092909190829003018186803b158015620002ee57600080fd5b505afa15801562000303573d6000803e3d6000fd5b505050506040513d601f19601f82011682018060405250810190620003299190620007a1565b60ff1660c09081526001600160c01b0390921660e05265ffffffffffff16610120528501511515935062000399925050505760405162461bcd60e51b81526020600482015260126024820152717461726765744e616d65206d697373696e6760701b6044820152606401620000b0565b60e08101516001600160c01b0316156200040457600081610100015111620004045760405162461bcd60e51b815260206004820152601660248201527f64656c6179556e74696c44656661756c74207a65726f000000000000000000006044820152606401620000b0565b60c081015161016052610100810151610140526000670de0b6b3a7640000905060006200044d8360e00151836001600160c01b0316620004f060201b620009d81790919060201c565b90506200045b8183620007dc565b6001600160c01b03166101805262000474818362000807565b6001600160c01b03166101a0525050506001600160a01b038116620004dc5760405162461bcd60e51b815260206004820152601960248201527f6d697373696e6720756f615065725461726765742066656564000000000000006044820152606401620000b0565b6001600160a01b03166101c05250620008e9565b6000620005008383600162000507565b9392505050565b60006200053f62000539620005296001600160c01b0380871690881662000835565b670de0b6b3a76400008562000547565b6200060b565b949350505050565b6000806200055684866200086d565b905060008360028111156200056f576200056f62000884565b14156200057e57905062000500565b600183600281111562000595576200059562000884565b1415620005e0576002620005ab6001866200089a565b620005b791906200086d565b620005c38587620008b4565b1115620005da5780620005d681620008cb565b9150505b6200053f565b6000620005ee8587620008b4565b11156200053f57806200060181620008cb565b9695505050505050565b60006001600160c01b03821115620006365760405163f44398f560e01b815260040160405180910390fd5b5090565b60405161012081016001600160401b03811182821017156200066c57634e487b7160e01b600052604160045260246000fd5b60405290565b80516001600160c01b03811681146200068a57600080fd5b919050565b80516001600160a01b03811681146200068a57600080fd5b805165ffffffffffff811681146200068a57600080fd5b600080828403610140811215620006d457600080fd5b61012080821215620006e557600080fd5b620006ef6200063a565b9150620006fc8562000672565b82526200070c602086016200068f565b60208301526200071f6040860162000672565b604083015262000732606086016200068f565b6060830152620007456080860162000672565b60808301526200075860a08601620006a7565b60a083015260c085015160c08301526200077560e0860162000672565b60e0830152610100808601518184015250819350620007968186016200068f565b925050509250929050565b600060208284031215620007b457600080fd5b815160ff811681146200050057600080fd5b634e487b7160e01b600052601160045260246000fd5b60006001600160c01b0383811690831681811015620007ff57620007ff620007c6565b039392505050565b60006001600160c01b038281168482168083038211156200082c576200082c620007c6565b01949350505050565b6000816000190483118215151615620008525762000852620007c6565b500290565b634e487b7160e01b600052601260045260246000fd5b6000826200087f576200087f62000857565b500490565b634e487b7160e01b600052602160045260246000fd5b600082821015620008af57620008af620007c6565b500390565b600082620008c657620008c662000857565b500690565b6000600019821415620008e257620008e2620007c6565b5060010190565b60805160a05160c05160e05161010051610120516101405161016051610180516101a0516101c0516112b1620009bd600039600081816101c201526105a801526000818161035a015261089e0152600081816103810152610862015260006104200152600081816103f10152610c4101526000818161031c0152818161057301526105ca0152600081816103a801528181610633015261067a015260006102bf015260008181610189015261051101526000818161022c0152610492015260008181610285015261055101526112b16000f3fe608060405234801561001057600080fd5b506004361061014d5760003560e01c8063a035b1fe116100c3578063c59b3d631161007c578063c59b3d63146103ca578063d9e8e67014610309578063e28a1b86146103d9578063e6a15053146103ec578063f8ac93e814610413578063fdfd59171461041b57600080fd5b8063a035b1fe146102e1578063a7fa0faf14610309578063abfeece514610317578063ae4e187514610355578063b94d87391461037c578063c55f29d1146103a357600080fd5b80635580f72a116101155780635580f72a146101fc578063785e9e86146102275780637d1ea1371461024e5780637dbdf1f5146102805780638b382ee7146102a757806395acc4ae146102ba57600080fd5b8063200d2ed2146101525780632dc8662414610170578063372500ab146101825780633cb5d3791461018457806354ee969b146101bd575b600080fd5b61015a610442565b6040516101679190610ea5565b60405180910390f35b6001545b604051908152602001610167565b005b6101ab7f000000000000000000000000000000000000000000000000000000000000000081565b60405160ff9091168152602001610167565b6101e47f000000000000000000000000000000000000000000000000000000000000000081565b6040516001600160a01b039091168152602001610167565b61020f61020a366004610ecd565b61046c565b6040516001600160c01b039091168152602001610167565b6101e47f000000000000000000000000000000000000000000000000000000000000000081565b610256610540565b604080516001600160c01b0394851681529284166020840152921691810191909152606001610167565b6101e47f000000000000000000000000000000000000000000000000000000000000000081565b60025461020f906001600160c01b031681565b61020f7f000000000000000000000000000000000000000000000000000000000000000081565b6102e96106b9565b604080516001600160c01b03938416815292909116602083015201610167565b670de0b6b3a764000061020f565b61033e7f000000000000000000000000000000000000000000000000000000000000000081565b60405165ffffffffffff9091168152602001610167565b61020f7f000000000000000000000000000000000000000000000000000000000000000081565b61020f7f000000000000000000000000000000000000000000000000000000000000000081565b61020f7f000000000000000000000000000000000000000000000000000000000000000081565b60405160018152602001610167565b60005461020f906001600160c01b031681565b6101747f000000000000000000000000000000000000000000000000000000000000000081565b610182610780565b6101747f000000000000000000000000000000000000000000000000000000000000000081565b600060001960015414156104565750600090565b4260015411156104665750600190565b50600290565b6040516370a0823160e01b81526001600160a01b03828116600483015260009161053a917f000000000000000000000000000000000000000000000000000000000000000016906370a082319060240160206040518083038186803b1580156104d457600080fd5b505afa1580156104e8573d6000803e3d6000fd5b505050506040513d601f19601f8201168201806040525081019061050c9190610ef6565b6105357f0000000000000000000000000000000000000000000000000000000000000000610f25565b6109ed565b92915050565b600080806105976001600160a01b037f0000000000000000000000000000000000000000000000000000000000000000167f00000000000000000000000000000000000000000000000000000000000000006109fb565b905060006105ee6001600160a01b037f0000000000000000000000000000000000000000000000000000000000000000167f00000000000000000000000000000000000000000000000000000000000000006109fb565b90506000610620670de0b6b3a76400006106116001600160c01b038516866109d8565b6001600160c01b0316906109d8565b9050610667610657670de0b6b3a76400007f0000000000000000000000000000000000000000000000000000000000000000610b8a565b6001600160c01b03831690610b96565b94506106b061069e670de0b6b3a76400007f0000000000000000000000000000000000000000000000000000000000000000610ba4565b6001600160c01b038316906002610bb0565b93505050909192565b600080306001600160a01b0316637d1ea1376040518163ffffffff1660e01b815260040160606040518083038186803b1580156106f557600080fd5b505afa925050508015610725575060408051601f3d908101601f1916820190925261072291810190610f61565b60015b610776573d808015610753576040519150601f19603f3d011682016040523d82523d6000602084013e610758565b606091505b50805161076457600080fd5b506000926001600160c01b0392509050565b5090939092509050565b600154421061078b57565b6000610795610442565b9050306001600160a01b0316637d1ea1376040518163ffffffff1660e01b815260040160606040518083038186803b1580156107d057600080fd5b505afa925050508015610800575060408051601f3d908101601f191682019092526107fd91810190610f61565b60015b61084f573d80801561082e576040519150601f19603f3d011682016040523d82523d6000602084013e610833565b606091505b50805161083f57600080fd5b6108496001610bf0565b5061090e565b6001600160c01b038316158061089657507f00000000000000000000000000000000000000000000000000000000000000006001600160c01b0316816001600160c01b0316105b806108d257507f00000000000000000000000000000000000000000000000000000000000000006001600160c01b0316816001600160c01b0316115b156108e6576108e16001610bf0565b61090a565b600080546001600160c01b0319166001600160c01b03851617815561090a90610bf0565b5050505b600254670de0b6b3a7640000906001600160c01b0316811015610935576109356002610bf0565b600280546001600160c01b0319166001600160c01b038316179055600061095a610442565b905080600281111561096e5761096e610e8f565b83600281111561098057610980610e8f565b146109d35780600281111561099757610997610e8f565b8360028111156109a9576109a9610e8f565b6040517f99cada7141db4d51b602b2e469ec310c78ffbba0eb05bc3e3e633f30672dea0290600090a35b505050565b60006109e683836001610c96565b9392505050565b60006109e683836000610cc3565b6000806000806000866001600160a01b031663feaf968c6040518163ffffffff1660e01b815260040160a06040518083038186803b158015610a3c57600080fd5b505afa158015610a50573d6000803e3d6000fd5b505050506040513d601f19601f82011682018060405250810190610a749190610fbe565b9450945050935093508160001480610aa357508369ffffffffffffffffffff168169ffffffffffffffffffff16105b15610ac157604051630cd5fa0760e11b815260040160405180910390fd5b6000610acd834261100e565b90508665ffffffffffff168165ffffffffffff161115610b0057604051630cd5fa0760e11b815260040160405180910390fd5b610b7e84896001600160a01b031663313ce5676040518163ffffffff1660e01b815260040160206040518083038186803b158015610b3d57600080fd5b505afa158015610b51573d6000803e3d6000fd5b505050506040513d601f19601f82011682018060405250810190610b759190611025565b61053590610f25565b98975050505050505050565b60006109e68284611048565b60006109e683836000610bb0565b60006109e68284611073565b6000610be8610be3610bd3670de0b6b3a76400006001600160c01b03881661109b565b856001600160c01b031685610d93565b610e33565b949350505050565b4260015411610bfc5750565b6000816002811115610c1057610c10610e8f565b1415610c1f5760001960015550565b6001816002811115610c3357610c33610e8f565b1415610c7457610c6e610c667f0000000000000000000000000000000000000000000000000000000000000000426110ba565b600154610e61565b60015550565b6002816002811115610c8857610c88610e8f565b1415610c9357426001555b50565b6000610be8610be3610cb46001600160c01b0380871690881661109b565b670de0b6b3a764000085610d93565b600083610cd2575060006109e6565b605f198360000b13610d0b576002826002811115610cf257610cf2610e8f565b14610cfe576000610d01565b60015b60ff1690506109e6565b8260000b602813610d2f5760405163f44398f560e01b815260040160405180910390fd5b610d3a6012846110d2565b92506000610d4a8460000b610e77565b610d5590600a6111f9565b90506000808560000b1215610d7457610d6f868386610d93565b610d7e565b610d7e828761109b565b9050610d8981610e33565b9695505050505050565b600080610da0848661121b565b90506000836002811115610db657610db6610e8f565b1415610dc35790506109e6565b6001836002811115610dd757610dd7610e8f565b1415610e17576002610dea60018661100e565b610df4919061121b565b610dfe858761122f565b1115610e125780610e0e81611243565b9150505b610be8565b6000610e23858761122f565b1115610be85780610d8981611243565b60006001600160c01b03821115610e5d5760405163f44398f560e01b815260040160405180910390fd5b5090565b6000818310610e7057816109e6565b5090919050565b6000808212610e86578161053a565b61053a8261125e565b634e487b7160e01b600052602160045260246000fd5b6020810160038310610ec757634e487b7160e01b600052602160045260246000fd5b91905290565b600060208284031215610edf57600080fd5b81356001600160a01b03811681146109e657600080fd5b600060208284031215610f0857600080fd5b5051919050565b634e487b7160e01b600052601160045260246000fd5b600081810b607f19811415610f3c57610f3c610f0f565b60000392915050565b80516001600160c01b0381168114610f5c57600080fd5b919050565b600080600060608486031215610f7657600080fd5b610f7f84610f45565b9250610f8d60208501610f45565b9150610f9b60408501610f45565b90509250925092565b805169ffffffffffffffffffff81168114610f5c57600080fd5b600080600080600060a08688031215610fd657600080fd5b610fdf86610fa4565b945060208601519350604086015192506060860151915061100260808701610fa4565b90509295509295909350565b60008282101561102057611020610f0f565b500390565b60006020828403121561103757600080fd5b815160ff811681146109e657600080fd5b60006001600160c01b0382811684821680830382111561106a5761106a610f0f565b01949350505050565b60006001600160c01b038381169083168181101561109357611093610f0f565b039392505050565b60008160001904831182151516156110b5576110b5610f0f565b500290565b600082198211156110cd576110cd610f0f565b500190565b60008160000b8360000b6000821282607f038213811516156110f6576110f6610f0f565b82607f1903821281161561110c5761110c610f0f565b50019392505050565b600181815b8085111561115057816000190482111561113657611136610f0f565b8085161561114357918102915b93841c939080029061111a565b509250929050565b6000826111675750600161053a565b816111745750600061053a565b816001811461118a5760028114611194576111b0565b600191505061053a565b60ff8411156111a5576111a5610f0f565b50506001821b61053a565b5060208310610133831016604e8410600b84101617156111d3575081810a61053a565b6111dd8383611115565b80600019048211156111f1576111f1610f0f565b029392505050565b60006109e68383611158565b634e487b7160e01b600052601260045260246000fd5b60008261122a5761122a611205565b500490565b60008261123e5761123e611205565b500690565b600060001982141561125757611257610f0f565b5060010190565b6000600160ff1b82141561127457611274610f0f565b506000039056fea2646970667358221220bfded8a10ac6992fcb3495bc676738dc481fc6a77d316365ff8599dd678fcff164736f6c63430008090033",
  "linkReferences": {},
  "deployedLinkReferences": {}
}