{
  "_format": "hh-sol-artifact-1",
  "contractName": "ATokenFiatCollateral",
  "sourceName": "contracts/reserve/plugins/assets/ATokenFiatCollateral.sol",
  "abi": [
    {
      "inputs": [
        {
          "components": [
            {
              "internalType": "uint192",
              "name": "fallbackPrice",
              "type": "uint192"
            },
            {
              "internalType": "contract AggregatorV3Interface",
              "name": "chainlinkFeed",
              "type": "address"
            },
            {
              "internalType": "uint192",
              "name": "oracleError",
              "type": "uint192"
            },
            {
              "internalType": "contract IERC20Metadata",
              "name": "erc20",
              "type": "address"
            },
            {
              "internalType": "uint192",
              "name": "maxTradeVolume",
              "type": "uint192"
            },
            {
              "internalType": "uint48",
              "name": "oracleTimeout",
              "type": "uint48"
            },
            {
              "internalType": "bytes32",
              "name": "targetName",
              "type": "bytes32"
            },
            {
              "internalType": "uint192",
              "name": "defaultThreshold",
              "type": "uint192"
            },
            {
              "internalType": "uint256",
              "name": "delayUntilDefault",
              "type": "uint256"
            }
          ],
          "internalType": "struct CollateralConfig",
          "name": "config",
          "type": "tuple"
        }
      ],
      "stateMutability": "nonpayable",
      "type": "constructor"
    },
    {
      "inputs": [],
      "name": "StalePrice",
      "type": "error"
    },
    {
      "inputs": [],
      "name": "UIntOutOfBounds",
      "type": "error"
    },
    {
      "anonymous": false,
      "inputs": [
        {
          "indexed": true,
          "internalType": "enum CollateralStatus",
          "name": "oldStatus",
          "type": "uint8"
        },
        {
          "indexed": true,
          "internalType": "enum CollateralStatus",
          "name": "newStatus",
          "type": "uint8"
        }
      ],
      "name": "CollateralStatusChanged",
      "type": "event"
    },
    {
      "anonymous": false,
      "inputs": [
        {
          "indexed": true,
          "internalType": "contract IERC20",
          "name": "erc20",
          "type": "address"
        },
        {
          "indexed": true,
          "internalType": "uint256",
          "name": "amount",
          "type": "uint256"
        }
      ],
      "name": "RewardsClaimed",
      "type": "event"
    },
    {
      "inputs": [
        {
          "internalType": "address",
          "name": "account",
          "type": "address"
        }
      ],
      "name": "bal",
      "outputs": [
        {
          "internalType": "uint192",
          "name": "",
          "type": "uint192"
        }
      ],
      "stateMutability": "view",
      "type": "function"
    },
    {
      "inputs": [],
      "name": "chainlinkFeed",
      "outputs": [
        {
          "internalType": "contract AggregatorV3Interface",
          "name": "",
          "type": "address"
        }
      ],
      "stateMutability": "view",
      "type": "function"
    },
    {
      "inputs": [],
      "name": "claimRewards",
      "outputs": [],
      "stateMutability": "nonpayable",
      "type": "function"
    },
    {
      "inputs": [],
      "name": "delayUntilDefault",
      "outputs": [
        {
          "internalType": "uint256",
          "name": "",
          "type": "uint256"
        }
      ],
      "stateMutability": "view",
      "type": "function"
    },
    {
      "inputs": [],
      "name": "erc20",
      "outputs": [
        {
          "internalType": "contract IERC20Metadata",
          "name": "",
          "type": "address"
        }
      ],
      "stateMutability": "view",
      "type": "function"
    },
    {
      "inputs": [],
      "name": "erc20Decimals",
      "outputs": [
        {
          "internalType": "uint8",
          "name": "",
          "type": "uint8"
        }
      ],
      "stateMutability": "view",
      "type": "function"
    },
    {
      "inputs": [],
      "name": "fallbackPrice",
      "outputs": [
        {
          "internalType": "uint192",
          "name": "",
          "type": "uint192"
        }
      ],
      "stateMutability": "view",
      "type": "function"
    },
    {
      "inputs": [],
      "name": "isCollateral",
      "outputs": [
        {
          "internalType": "bool",
          "name": "",
          "type": "bool"
        }
      ],
      "stateMutability": "pure",
      "type": "function"
    },
    {
      "inputs": [],
      "name": "maxTradeVolume",
      "outputs": [
        {
          "internalType": "uint192",
          "name": "",
          "type": "uint192"
        }
      ],
      "stateMutability": "view",
      "type": "function"
    },
    {
      "inputs": [],
      "name": "oracleError",
      "outputs": [
        {
          "internalType": "uint192",
          "name": "",
          "type": "uint192"
        }
      ],
      "stateMutability": "view",
      "type": "function"
    },
    {
      "inputs": [],
      "name": "oracleTimeout",
      "outputs": [
        {
          "internalType": "uint48",
          "name": "",
          "type": "uint48"
        }
      ],
      "stateMutability": "view",
      "type": "function"
    },
    {
      "inputs": [],
      "name": "pegBottom",
      "outputs": [
        {
          "internalType": "uint192",
          "name": "",
          "type": "uint192"
        }
      ],
      "stateMutability": "view",
      "type": "function"
    },
    {
      "inputs": [],
      "name": "pegTop",
      "outputs": [
        {
          "internalType": "uint192",
          "name": "",
          "type": "uint192"
        }
      ],
      "stateMutability": "view",
      "type": "function"
    },
    {
      "inputs": [],
      "name": "prevReferencePrice",
      "outputs": [
        {
          "internalType": "uint192",
          "name": "",
          "type": "uint192"
        }
      ],
      "stateMutability": "view",
      "type": "function"
    },
    {
      "inputs": [],
      "name": "price",
      "outputs": [
        {
          "internalType": "uint192",
          "name": "",
          "type": "uint192"
        },
        {
          "internalType": "uint192",
          "name": "",
          "type": "uint192"
        }
      ],
      "stateMutability": "view",
      "type": "function"
    },
    {
      "inputs": [],
      "name": "refPerTok",
      "outputs": [
        {
          "internalType": "uint192",
          "name": "",
          "type": "uint192"
        }
      ],
      "stateMutability": "view",
      "type": "function"
    },
    {
      "inputs": [],
      "name": "refresh",
      "outputs": [],
      "stateMutability": "nonpayable",
      "type": "function"
    },
    {
      "inputs": [],
      "name": "status",
      "outputs": [
        {
          "internalType": "enum CollateralStatus",
          "name": "",
          "type": "uint8"
        }
      ],
      "stateMutability": "view",
      "type": "function"
    },
    {
      "inputs": [],
      "name": "targetName",
      "outputs": [
        {
          "internalType": "bytes32",
          "name": "",
          "type": "bytes32"
        }
      ],
      "stateMutability": "view",
      "type": "function"
    },
    {
      "inputs": [],
      "name": "targetPerRef",
      "outputs": [
        {
          "internalType": "uint192",
          "name": "",
          "type": "uint192"
        }
      ],
      "stateMutability": "view",
      "type": "function"
    },
    {
      "inputs": [],
      "name": "tryPrice",
      "outputs": [
        {
          "internalType": "uint192",
          "name": "low",
          "type": "uint192"
        },
        {
          "internalType": "uint192",
          "name": "high",
          "type": "uint192"
        },
        {
          "internalType": "uint192",
          "name": "pegPrice",
          "type": "uint192"
        }
      ],
      "stateMutability": "view",
      "type": "function"
    },
    {
      "inputs": [],
      "name": "whenDefault",
      "outputs": [
        {
          "internalType": "uint256",
          "name": "",
          "type": "uint256"
        }
      ],
      "stateMutability": "view",
      "type": "function"
    }
  ],
  "bytecode": "0x6101c06040526000196001553480156200001857600080fd5b50604051620021c2380380620021c28339810160408190526200003b9162000820565b80806000015181602001518260400151836060015184608001518560a001516000866001600160c01b031611620000b95760405162461bcd60e51b815260206004820152601360248201527f66616c6c6261636b207072696365207a65726f0000000000000000000000000060448201526064015b60405180910390fd5b6001600160a01b038516620001115760405162461bcd60e51b815260206004820152601660248201527f6d697373696e6720636861696e6c696e6b2066656564000000000000000000006044820152606401620000b0565b6000846001600160c01b03161180156200013b5750670de0b6b3a76400006001600160c01b038516105b620001895760405162461bcd60e51b815260206004820152601960248201527f6f7261636c65206572726f72206f7574206f662072616e6765000000000000006044820152606401620000b0565b6001600160a01b038316620001d15760405162461bcd60e51b815260206004820152600d60248201526c06d697373696e6720657263323609c1b6044820152606401620000b0565b6000826001600160c01b0316116200022c5760405162461bcd60e51b815260206004820152601860248201527f696e76616c6964206d617820747261646520766f6c756d6500000000000000006044820152606401620000b0565b60008165ffffffffffff16116200027b5760405162461bcd60e51b81526020600482015260126024820152716f7261636c6554696d656f7574207a65726f60701b6044820152606401620000b0565b600080546001600160c01b0319166001600160c01b03888116919091179091556001600160a01b0386811660805290851661010052831660a08190526040805163313ce56760e01b8152905163313ce56791600480820192602092909190829003018186803b158015620002ee57600080fd5b505afa15801562000303573d6000803e3d6000fd5b505050506040513d601f19601f82011682018060405250810190620003299190620008db565b60ff1660c09081526001600160c01b0390921660e05265ffffffffffff16610120528501511515935062000399925050505760405162461bcd60e51b81526020600482015260126024820152717461726765744e616d65206d697373696e6760701b6044820152606401620000b0565b60e08101516001600160c01b0316156200040457600081610100015111620004045760405162461bcd60e51b815260206004820152601660248201527f64656c6179556e74696c44656661756c74207a65726f000000000000000000006044820152606401620000b0565b60c081015161016052610100810151610140526000670de0b6b3a7640000905060006200044d8360e00151836001600160c01b0316620004b660201b62000c421790919060201c565b90506200045b818362000916565b6001600160c01b03166101805262000474818362000941565b6001600160c01b03166101a052506200048f915050620004cf565b600280546001600160c01b0319166001600160c01b03929092169190911790555062000bb1565b6000620004c6838360016200055f565b90505b92915050565b60008060a0516001600160a01b0316632c4e722e6040518163ffffffff1660e01b815260040160206040518083038186803b1580156200050e57600080fd5b505afa15801562000523573d6000803e3d6000fd5b505050506040513d601f19601f820116820180604052508101906200054991906200096f565b90506200055981601a19620005a1565b91505090565b60006200059762000591620005816001600160c01b0380871690881662000989565b670de0b6b3a764000085620005b0565b62000674565b90505b9392505050565b6000620004c6838383620006a3565b600080620005bf8486620009c1565b90506000836002811115620005d857620005d8620009d8565b1415620005e75790506200059a565b6001836002811115620005fe57620005fe620009d8565b14156200064957600262000614600186620009ee565b620006209190620009c1565b6200062c858762000a08565b11156200064357806200063f8162000a1f565b9150505b62000597565b600062000657858762000a08565b11156200059757806200066a8162000a1f565b9695505050505050565b60006001600160c01b038211156200069f5760405163f44398f560e01b815260040160405180910390fd5b5090565b600083620006b4575060006200059a565b605f198360000b13620006f4576002826002811115620006d857620006d8620009d8565b14620006e6576000620006e9565b60015b60ff1690506200059a565b8260000b602813620007195760405163f44398f560e01b815260040160405180910390fd5b6200072660128462000a3d565b925060006200073784820b62000780565b6200074490600a62000b83565b90506000808560000b1215620007675762000761868386620005b0565b62000773565b62000773828762000989565b90506200066a8162000674565b6000808212620007915781620004c9565b620004c98262000b91565b60405161012081016001600160401b0381118282101715620007ce57634e487b7160e01b600052604160045260246000fd5b60405290565b80516001600160c01b0381168114620007ec57600080fd5b919050565b80516001600160a01b0381168114620007ec57600080fd5b805165ffffffffffff81168114620007ec57600080fd5b600061012082840312156200083457600080fd5b6200083e6200079c565b6200084983620007d4565b81526200085960208401620007f1565b60208201526200086c60408401620007d4565b60408201526200087f60608401620007f1565b60608201526200089260808401620007d4565b6080820152620008a560a0840162000809565b60a082015260c083015160c0820152620008c260e08401620007d4565b60e0820152610100928301519281019290925250919050565b600060208284031215620008ee57600080fd5b815160ff811681146200059a57600080fd5b634e487b7160e01b600052601160045260246000fd5b60006001600160c01b038381169083168181101562000939576200093962000900565b039392505050565b60006001600160c01b0382811684821680830382111562000966576200096662000900565b01949350505050565b6000602082840312156200098257600080fd5b5051919050565b6000816000190483118215151615620009a657620009a662000900565b500290565b634e487b7160e01b600052601260045260246000fd5b600082620009d357620009d3620009ab565b500490565b634e487b7160e01b600052602160045260246000fd5b60008282101562000a035762000a0362000900565b500390565b60008262000a1a5762000a1a620009ab565b500690565b600060001982141562000a365762000a3662000900565b5060010190565b60008160000b8360000b6000821282607f0382138115161562000a645762000a6462000900565b82607f1903821281161562000a7d5762000a7d62000900565b50019392505050565b600181815b8085111562000ac757816000190482111562000aab5762000aab62000900565b8085161562000ab957918102915b93841c939080029062000a8b565b509250929050565b60008262000ae057506001620004c9565b8162000aef57506000620004c9565b816001811462000b08576002811462000b135762000b33565b6001915050620004c9565b60ff84111562000b275762000b2762000900565b50506001821b620004c9565b5060208310610133831016604e8410600b841016171562000b58575081810a620004c9565b62000b64838362000a86565b806000190482111562000b7b5762000b7b62000900565b029392505050565b6000620004c6838362000acf565b6000600160ff1b82141562000baa5762000baa62000900565b5060000390565b60805160a05160c05160e05161010051610120516101405161016051610180516101a05161154162000c816000396000818161032a0152610b010152600081816103510152610ac5015260006103fe0152600081816103cf0152610eab0152600081816102ec0152610799015260008181610378015281816107ef01526108360152600061029501526000818161018601526107370152600081816101ea0152818161044e01528181610573015281816106b8015261094001526000818161025b015261077701526115416000f3fe608060405234801561001057600080fd5b50600436106101425760003560e01c8063a7fa0faf116100b8578063c59b3d631161007c578063c59b3d631461039a578063d9e8e670146103a9578063e28a1b86146103b7578063e6a15053146103ca578063f8ac93e8146103f1578063fdfd5917146103f957600080fd5b8063a7fa0faf146102df578063abfeece5146102e7578063ae4e187514610325578063b94d87391461034c578063c55f29d11461037357600080fd5b8063785e9e861161010a578063785e9e86146101e55780637d1ea137146102245780637dbdf1f5146102565780638b382ee71461027d57806395acc4ae14610290578063a035b1fe146102b757600080fd5b8063200d2ed2146101475780632dc8662414610165578063372500ab146101775780633cb5d379146101815780635580f72a146101ba575b600080fd5b61014f610420565b60405161015c919061110f565b60405180910390f35b6001545b60405190815260200161015c565b61017f61044a565b005b6101a87f000000000000000000000000000000000000000000000000000000000000000081565b60405160ff909116815260200161015c565b6101cd6101c836600461114c565b610692565b6040516001600160c01b03909116815260200161015c565b61020c7f000000000000000000000000000000000000000000000000000000000000000081565b6040516001600160a01b03909116815260200161015c565b61022c610766565b604080516001600160c01b039485168152928416602084015292169181019190915260600161015c565b61020c7f000000000000000000000000000000000000000000000000000000000000000081565b6002546101cd906001600160c01b031681565b6101cd7f000000000000000000000000000000000000000000000000000000000000000081565b6102bf610874565b604080516001600160c01b0393841681529290911660208301520161015c565b6101cd61093b565b61030e7f000000000000000000000000000000000000000000000000000000000000000081565b60405165ffffffffffff909116815260200161015c565b6101cd7f000000000000000000000000000000000000000000000000000000000000000081565b6101cd7f000000000000000000000000000000000000000000000000000000000000000081565b6101cd7f000000000000000000000000000000000000000000000000000000000000000081565b6040516001815260200161015c565b670de0b6b3a76400006101cd565b6000546101cd906001600160c01b031681565b6101697f000000000000000000000000000000000000000000000000000000000000000081565b61017f6109e3565b6101697f000000000000000000000000000000000000000000000000000000000000000081565b600060001960015414156104345750600090565b4260015411156104445750600190565b50600290565b60007f00000000000000000000000000000000000000000000000000000000000000006001600160a01b03166399248ea76040518163ffffffff1660e01b815260040160206040518083038186803b1580156104a557600080fd5b505afa1580156104b9573d6000803e3d6000fd5b505050506040513d601f19601f820116820180604052508101906104dd9190611169565b6040516370a0823160e01b81523060048201529091506000906001600160a01b038316906370a082319060240160206040518083038186803b15801561052257600080fd5b505afa158015610536573d6000803e3d6000fd5b505050506040513d601f19601f8201168201806040525081019061055a9190611186565b6040516345c1ace760e01b8152600160048201529091507f00000000000000000000000000000000000000000000000000000000000000006001600160a01b0316906345c1ace790602401600060405180830381600087803b1580156105bf57600080fd5b505af11580156105d3573d6000803e3d6000fd5b50506040516370a0823160e01b81523060048201528392506001600160a01b03851691506370a082319060240160206040518083038186803b15801561061857600080fd5b505afa15801561062c573d6000803e3d6000fd5b505050506040513d601f19601f820116820180604052508101906106509190611186565b61065a91906111b5565b6040516001600160a01b038416907ffc30cddea38e2bf4d6ea7d3f9ed3b6ad7f176419f4963bd81318067a4aee73fe90600090a35050565b6040516370a0823160e01b81526001600160a01b038281166004830152600091610760917f000000000000000000000000000000000000000000000000000000000000000016906370a082319060240160206040518083038186803b1580156106fa57600080fd5b505afa15801561070e573d6000803e3d6000fd5b505050506040513d601f19601f820116820180604052508101906107329190611186565b61075b7f00000000000000000000000000000000000000000000000000000000000000006111cc565b610c57565b92915050565b600080806107bd6001600160a01b037f0000000000000000000000000000000000000000000000000000000000000000167f0000000000000000000000000000000000000000000000000000000000000000610c65565b905060006107dc6107cc61093b565b6001600160c01b03841690610c42565b9050610823610813670de0b6b3a76400007f0000000000000000000000000000000000000000000000000000000000000000610df4565b6001600160c01b03831690610e00565b935061086c61085a670de0b6b3a76400007f0000000000000000000000000000000000000000000000000000000000000000610e0e565b6001600160c01b038316906002610e1a565b925050909192565b600080306001600160a01b0316637d1ea1376040518163ffffffff1660e01b815260040160606040518083038186803b1580156108b057600080fd5b505afa9250505080156108e0575060408051601f3d908101601f191682019092526108dd91810190611208565b60015b610931573d80801561090e576040519150601f19603f3d011682016040523d82523d6000602084013e610913565b606091505b50805161091f57600080fd5b506000926001600160c01b0392509050565b5090939092509050565b6000807f00000000000000000000000000000000000000000000000000000000000000006001600160a01b0316632c4e722e6040518163ffffffff1660e01b815260040160206040518083038186803b15801561099757600080fd5b505afa1580156109ab573d6000803e3d6000fd5b505050506040513d601f19601f820116820180604052508101906109cf9190611186565b90506109dd81601a19610c57565b91505090565b60015442106109ee57565b60006109f8610420565b9050306001600160a01b0316637d1ea1376040518163ffffffff1660e01b815260040160606040518083038186803b158015610a3357600080fd5b505afa925050508015610a63575060408051601f3d908101601f19168201909252610a6091810190611208565b60015b610ab2573d808015610a91576040519150601f19603f3d011682016040523d82523d6000602084013e610a96565b606091505b508051610aa257600080fd5b610aac6001610e5a565b50610b71565b6001600160c01b0383161580610af957507f00000000000000000000000000000000000000000000000000000000000000006001600160c01b0316816001600160c01b0316105b80610b3557507f00000000000000000000000000000000000000000000000000000000000000006001600160c01b0316816001600160c01b0316115b15610b4957610b446001610e5a565b610b6d565b600080546001600160c01b0319166001600160c01b038516178155610b6d90610e5a565b5050505b6000610b7b61093b565b6002549091506001600160c01b039081169082161015610b9f57610b9f6002610e5a565b600280546001600160c01b0319166001600160c01b0383161790556000610bc4610420565b9050806002811115610bd857610bd86110f9565b836002811115610bea57610bea6110f9565b14610c3d57806002811115610c0157610c016110f9565b836002811115610c1357610c136110f9565b6040517f99cada7141db4d51b602b2e469ec310c78ffbba0eb05bc3e3e633f30672dea0290600090a35b505050565b6000610c5083836001610f00565b9392505050565b6000610c5083836000610f2d565b6000806000806000866001600160a01b031663feaf968c6040518163ffffffff1660e01b815260040160a06040518083038186803b158015610ca657600080fd5b505afa158015610cba573d6000803e3d6000fd5b505050506040513d601f19601f82011682018060405250810190610cde9190611265565b9450945050935093508160001480610d0d57508369ffffffffffffffffffff168169ffffffffffffffffffff16105b15610d2b57604051630cd5fa0760e11b815260040160405180910390fd5b6000610d3783426111b5565b90508665ffffffffffff168165ffffffffffff161115610d6a57604051630cd5fa0760e11b815260040160405180910390fd5b610de884896001600160a01b031663313ce5676040518163ffffffff1660e01b815260040160206040518083038186803b158015610da757600080fd5b505afa158015610dbb573d6000803e3d6000fd5b505050506040513d601f19601f82011682018060405250810190610ddf91906112b5565b61075b906111cc565b98975050505050505050565b6000610c5082846112d8565b6000610c5083836000610e1a565b6000610c508284611303565b6000610e52610e4d610e3d670de0b6b3a76400006001600160c01b03881661132b565b856001600160c01b031685610ffd565b61109d565b949350505050565b4260015411610e665750565b6000816002811115610e7a57610e7a6110f9565b1415610e895760001960015550565b6001816002811115610e9d57610e9d6110f9565b1415610ede57610ed8610ed07f00000000000000000000000000000000000000000000000000000000000000004261134a565b6001546110cb565b60015550565b6002816002811115610ef257610ef26110f9565b1415610efd57426001555b50565b6000610e52610e4d610f1e6001600160c01b0380871690881661132b565b670de0b6b3a764000085610ffd565b600083610f3c57506000610c50565b605f198360000b13610f75576002826002811115610f5c57610f5c6110f9565b14610f68576000610f6b565b60015b60ff169050610c50565b8260000b602813610f995760405163f44398f560e01b815260040160405180910390fd5b610fa4601284611362565b92506000610fb48460000b6110e1565b610fbf90600a611489565b90506000808560000b1215610fde57610fd9868386610ffd565b610fe8565b610fe8828761132b565b9050610ff38161109d565b9695505050505050565b60008061100a84866114ab565b90506000836002811115611020576110206110f9565b141561102d579050610c50565b6001836002811115611041576110416110f9565b14156110815760026110546001866111b5565b61105e91906114ab565b61106885876114bf565b111561107c5780611078816114d3565b9150505b610e52565b600061108d85876114bf565b1115610e525780610ff3816114d3565b60006001600160c01b038211156110c75760405163f44398f560e01b815260040160405180910390fd5b5090565b60008183106110da5781610c50565b5090919050565b60008082126110f05781610760565b610760826114ee565b634e487b7160e01b600052602160045260246000fd5b602081016003831061113157634e487b7160e01b600052602160045260246000fd5b91905290565b6001600160a01b0381168114610efd57600080fd5b60006020828403121561115e57600080fd5b8135610c5081611137565b60006020828403121561117b57600080fd5b8151610c5081611137565b60006020828403121561119857600080fd5b5051919050565b634e487b7160e01b600052601160045260246000fd5b6000828210156111c7576111c761119f565b500390565b600081810b607f198114156111e3576111e361119f565b60000392915050565b80516001600160c01b038116811461120357600080fd5b919050565b60008060006060848603121561121d57600080fd5b611226846111ec565b9250611234602085016111ec565b9150611242604085016111ec565b90509250925092565b805169ffffffffffffffffffff8116811461120357600080fd5b600080600080600060a0868803121561127d57600080fd5b6112868661124b565b94506020860151935060408601519250606086015191506112a96080870161124b565b90509295509295909350565b6000602082840312156112c757600080fd5b815160ff81168114610c5057600080fd5b60006001600160c01b038281168482168083038211156112fa576112fa61119f565b01949350505050565b60006001600160c01b03838116908316818110156113235761132361119f565b039392505050565b60008160001904831182151516156113455761134561119f565b500290565b6000821982111561135d5761135d61119f565b500190565b60008160000b8360000b6000821282607f038213811516156113865761138661119f565b82607f1903821281161561139c5761139c61119f565b50019392505050565b600181815b808511156113e05781600019048211156113c6576113c661119f565b808516156113d357918102915b93841c93908002906113aa565b509250929050565b6000826113f757506001610760565b8161140457506000610760565b816001811461141a576002811461142457611440565b6001915050610760565b60ff8411156114355761143561119f565b50506001821b610760565b5060208310610133831016604e8410600b8410161715611463575081810a610760565b61146d83836113a5565b80600019048211156114815761148161119f565b029392505050565b6000610c5083836113e8565b634e487b7160e01b600052601260045260246000fd5b6000826114ba576114ba611495565b500490565b6000826114ce576114ce611495565b500690565b60006000198214156114e7576114e761119f565b5060010190565b6000600160ff1b8214156115045761150461119f565b506000039056fea264697066735822122053f3acf7cd44b0cdb3e62b5db632285d19fea1177507a2c934c23789e67a47cc64736f6c63430008090033",
  "linkReferences": {},
  "deployedLinkReferences": {}
}