{
  "_format": "hh-sol-artifact-1",
  "contractName": "DistributorP1V2",
  "sourceName": "contracts/reserve/plugins/mocks/upgrades/DistributorV2.sol",
  "abi": [
    {
      "anonymous": false,
      "inputs": [
        {
          "indexed": false,
          "internalType": "address",
          "name": "previousAdmin",
          "type": "address"
        },
        {
          "indexed": false,
          "internalType": "address",
          "name": "newAdmin",
          "type": "address"
        }
      ],
      "name": "AdminChanged",
      "type": "event"
    },
    {
      "anonymous": false,
      "inputs": [
        {
          "indexed": true,
          "internalType": "address",
          "name": "beacon",
          "type": "address"
        }
      ],
      "name": "BeaconUpgraded",
      "type": "event"
    },
    {
      "anonymous": false,
      "inputs": [
        {
          "indexed": false,
          "internalType": "address",
          "name": "dest",
          "type": "address"
        },
        {
          "indexed": false,
          "internalType": "uint16",
          "name": "rTokenDist",
          "type": "uint16"
        },
        {
          "indexed": false,
          "internalType": "uint16",
          "name": "rsrDist",
          "type": "uint16"
        }
      ],
      "name": "DistributionSet",
      "type": "event"
    },
    {
      "anonymous": false,
      "inputs": [
        {
          "indexed": false,
          "internalType": "uint8",
          "name": "version",
          "type": "uint8"
        }
      ],
      "name": "Initialized",
      "type": "event"
    },
    {
      "anonymous": false,
      "inputs": [
        {
          "indexed": true,
          "internalType": "contract IERC20",
          "name": "erc20",
          "type": "address"
        },
        {
          "indexed": true,
          "internalType": "address",
          "name": "source",
          "type": "address"
        },
        {
          "indexed": true,
          "internalType": "uint256",
          "name": "amount",
          "type": "uint256"
        }
      ],
      "name": "RevenueDistributed",
      "type": "event"
    },
    {
      "anonymous": false,
      "inputs": [
        {
          "indexed": true,
          "internalType": "address",
          "name": "implementation",
          "type": "address"
        }
      ],
      "name": "Upgraded",
      "type": "event"
    },
    {
      "inputs": [],
      "name": "FURNACE",
      "outputs": [
        {
          "internalType": "address",
          "name": "",
          "type": "address"
        }
      ],
      "stateMutability": "view",
      "type": "function"
    },
    {
      "inputs": [],
      "name": "MAX_DESTINATIONS_ALLOWED",
      "outputs": [
        {
          "internalType": "uint8",
          "name": "",
          "type": "uint8"
        }
      ],
      "stateMutability": "view",
      "type": "function"
    },
    {
      "inputs": [],
      "name": "ST_RSR",
      "outputs": [
        {
          "internalType": "address",
          "name": "",
          "type": "address"
        }
      ],
      "stateMutability": "view",
      "type": "function"
    },
    {
      "inputs": [
        {
          "internalType": "contract IERC20",
          "name": "erc20",
          "type": "address"
        },
        {
          "internalType": "address",
          "name": "from",
          "type": "address"
        },
        {
          "internalType": "uint256",
          "name": "amount",
          "type": "uint256"
        }
      ],
      "name": "distribute",
      "outputs": [],
      "stateMutability": "nonpayable",
      "type": "function"
    },
    {
      "inputs": [
        {
          "internalType": "address",
          "name": "",
          "type": "address"
        }
      ],
      "name": "distribution",
      "outputs": [
        {
          "internalType": "uint16",
          "name": "rTokenDist",
          "type": "uint16"
        },
        {
          "internalType": "uint16",
          "name": "rsrDist",
          "type": "uint16"
        }
      ],
      "stateMutability": "view",
      "type": "function"
    },
    {
      "inputs": [
        {
          "internalType": "contract IMain",
          "name": "main_",
          "type": "address"
        },
        {
          "components": [
            {
              "internalType": "uint16",
              "name": "rTokenDist",
              "type": "uint16"
            },
            {
              "internalType": "uint16",
              "name": "rsrDist",
              "type": "uint16"
            }
          ],
          "internalType": "struct RevenueShare",
          "name": "dist",
          "type": "tuple"
        }
      ],
      "name": "init",
      "outputs": [],
      "stateMutability": "nonpayable",
      "type": "function"
    },
    {
      "inputs": [],
      "name": "main",
      "outputs": [
        {
          "internalType": "contract IMain",
          "name": "",
          "type": "address"
        }
      ],
      "stateMutability": "view",
      "type": "function"
    },
    {
      "inputs": [],
      "name": "newValue",
      "outputs": [
        {
          "internalType": "uint256",
          "name": "",
          "type": "uint256"
        }
      ],
      "stateMutability": "view",
      "type": "function"
    },
    {
      "inputs": [],
      "name": "proxiableUUID",
      "outputs": [
        {
          "internalType": "bytes32",
          "name": "",
          "type": "bytes32"
        }
      ],
      "stateMutability": "view",
      "type": "function"
    },
    {
      "inputs": [
        {
          "internalType": "address",
          "name": "dest",
          "type": "address"
        },
        {
          "components": [
            {
              "internalType": "uint16",
              "name": "rTokenDist",
              "type": "uint16"
            },
            {
              "internalType": "uint16",
              "name": "rsrDist",
              "type": "uint16"
            }
          ],
          "internalType": "struct RevenueShare",
          "name": "share",
          "type": "tuple"
        }
      ],
      "name": "setDistribution",
      "outputs": [],
      "stateMutability": "nonpayable",
      "type": "function"
    },
    {
      "inputs": [
        {
          "internalType": "uint256",
          "name": "newValue_",
          "type": "uint256"
        }
      ],
      "name": "setNewValue",
      "outputs": [],
      "stateMutability": "nonpayable",
      "type": "function"
    },
    {
      "inputs": [],
      "name": "totals",
      "outputs": [
        {
          "components": [
            {
              "internalType": "uint24",
              "name": "rTokenTotal",
              "type": "uint24"
            },
            {
              "internalType": "uint24",
              "name": "rsrTotal",
              "type": "uint24"
            }
          ],
          "internalType": "struct RevenueTotals",
          "name": "revTotals",
          "type": "tuple"
        }
      ],
      "stateMutability": "view",
      "type": "function"
    },
    {
      "inputs": [
        {
          "internalType": "address",
          "name": "newImplementation",
          "type": "address"
        }
      ],
      "name": "upgradeTo",
      "outputs": [],
      "stateMutability": "nonpayable",
      "type": "function"
    },
    {
      "inputs": [
        {
          "internalType": "address",
          "name": "newImplementation",
          "type": "address"
        },
        {
          "internalType": "bytes",
          "name": "data",
          "type": "bytes"
        }
      ],
      "name": "upgradeToAndCall",
      "outputs": [],
      "stateMutability": "payable",
      "type": "function"
    },
    {
      "inputs": [],
      "name": "version",
      "outputs": [
        {
          "internalType": "string",
          "name": "",
          "type": "string"
        }
      ],
      "stateMutability": "pure",
      "type": "function"
    }
  ],
  "bytecode": "0x60a0604052306080523480156200001557600080fd5b50600054610100900460ff1615808015620000375750600054600160ff909116105b8062000067575062000054306200014160201b6200104b1760201c565b15801562000067575060005460ff166001145b620000cf5760405162461bcd60e51b815260206004820152602e60248201527f496e697469616c697a61626c653a20636f6e747261637420697320616c72656160448201526d191e481a5b9a5d1a585b1a5e995960921b606482015260840160405180910390fd5b6000805460ff191660011790558015620000f3576000805461ff0019166101001790555b80156200013a576000805461ff0019169055604051600181527f7f26b83ff96e1f2b6a682f133852f6798a09c465da95921460cefb38474024989060200160405180910390a15b5062000150565b6001600160a01b03163b151590565b60805161230c62000188600039600081816103360152818161037f0152818161041f0152818161045f01526104f2015261230c6000f3fe6080604052600436106100e85760003560e01c80637c65452c1161008a578063a16a918311610059578063a16a91831461025d578063c038a38e1461027d578063c2db09c1146102b5578063dffeadd01461030b57600080fd5b80637c65452c146101e757806388594437146101fd578063951c40771461021d57806399e6dda81461023d57600080fd5b80634f1ef286116100c65780634f1ef2861461015657806352d1902d1461016957806352dffcce1461018c57806354fd4d50146101b357600080fd5b80633659cfe6146100ed5780633aab16f71461010f5780633c6e0dec14610141575b600080fd5b3480156100f957600080fd5b5061010d610108366004611d50565b61032b565b005b34801561011b57600080fd5b50610124600181565b6040516001600160a01b0390911681526020015b60405180910390f35b34801561014d57600080fd5b50610124600281565b61010d610164366004611db4565b610414565b34801561017557600080fd5b5061017e6104e5565b604051908152602001610138565b34801561019857600080fd5b506101a1606481565b60405160ff9091168152602001610138565b3480156101bf57600080fd5b5060408051808201825260058152640322e302e360dc1b602082015290516101389190611e88565b3480156101f357600080fd5b5061017e60fe5481565b34801561020957600080fd5b5061010d610218366004611ed2565b610598565b34801561022957600080fd5b5061010d610238366004611f56565b610699565b34801561024957600080fd5b5061010d610258366004611f6f565b610772565b34801561026957600080fd5b5061010d610278366004611fb0565b610b73565b34801561028957600080fd5b50610292610f96565b60408051825162ffffff9081168252602093840151169281019290925201610138565b3480156102c157600080fd5b506102f06102d0366004611d50565b60cb6020526000908152604090205461ffff808216916201000090041682565b6040805161ffff938416815292909116602083015201610138565b34801561031757600080fd5b50609754610124906001600160a01b031681565b306001600160a01b037f000000000000000000000000000000000000000000000000000000000000000016141561037d5760405162461bcd60e51b815260040161037490611ff1565b60405180910390fd5b7f00000000000000000000000000000000000000000000000000000000000000006001600160a01b03166103c6600080516020612290833981519152546001600160a01b031690565b6001600160a01b0316146103ec5760405162461bcd60e51b81526004016103749061203d565b6103f58161105a565b604080516000808252602082019092526104119183919061112e565b50565b306001600160a01b037f000000000000000000000000000000000000000000000000000000000000000016141561045d5760405162461bcd60e51b815260040161037490611ff1565b7f00000000000000000000000000000000000000000000000000000000000000006001600160a01b03166104a6600080516020612290833981519152546001600160a01b031690565b6001600160a01b0316146104cc5760405162461bcd60e51b81526004016103749061203d565b6104d58261105a565b6104e18282600161112e565b5050565b6000306001600160a01b037f000000000000000000000000000000000000000000000000000000000000000016146105855760405162461bcd60e51b815260206004820152603860248201527f555550535570677261646561626c653a206d757374206e6f742062652063616c60448201527f6c6564207468726f7567682064656c656761746563616c6c00000000000000006064820152608401610374565b5060008051602061229083398151915290565b60975460408051808201909152600581526427aba722a960d91b60208201526001600160a01b03909116906391d14854906105d290612089565b336040516001600160e01b031960e085901b16815260048101929092526001600160a01b0316602482015260440160206040518083038186803b15801561061857600080fd5b505afa15801561062c573d6000803e3d6000fd5b505050506040513d601f19601f8201168201806040525081019061065091906120b0565b61066c5760405162461bcd60e51b8152600401610374906120d2565b61067682826112a8565b6000610680610f96565b905061069481600001518260200151611584565b505050565b60975460408051808201909152600581526427aba722a960d91b60208201526001600160a01b03909116906391d14854906106d390612089565b336040516001600160e01b031960e085901b16815260048101929092526001600160a01b0316602482015260440160206040518083038186803b15801561071957600080fd5b505afa15801561072d573d6000803e3d6000fd5b505050506040513d601f19601f8201168201806040525081019061075191906120b0565b61076d5760405162461bcd60e51b8152600401610374906120d2565b60fe55565b600054610100900460ff16158080156107925750600054600160ff909116105b806107ac5750303b1580156107ac575060005460ff166001145b61080f5760405162461bcd60e51b815260206004820152602e60248201527f496e697469616c697a61626c653a20636f6e747261637420697320616c72656160448201526d191e481a5b9a5d1a585b1a5e995960921b6064820152608401610374565b6000805460ff191660011790558015610832576000805461ff0019166101001790555b61083b836115e9565b826001600160a01b031663c99dc3dd6040518163ffffffff1660e01b815260040160206040518083038186803b15801561087457600080fd5b505afa158015610888573d6000803e3d6000fd5b505050506040513d601f19601f820116820180604052508101906108ac91906120fb565b60cc60006101000a8154816001600160a01b0302191690836001600160a01b03160217905550826001600160a01b03166340c65f726040518163ffffffff1660e01b815260040160206040518083038186803b15801561090b57600080fd5b505afa15801561091f573d6000803e3d6000fd5b505050506040513d601f19601f8201168201806040525081019061094391906120fb565b60cd60006101000a8154816001600160a01b0302191690836001600160a01b03160217905550826001600160a01b031663656e96e16040518163ffffffff1660e01b815260040160206040518083038186803b1580156109a257600080fd5b505afa1580156109b6573d6000803e3d6000fd5b505050506040513d601f19601f820116820180604052508101906109da91906120fb565b60ce60006101000a8154816001600160a01b0302191690836001600160a01b03160217905550826001600160a01b0316634780a5e56040518163ffffffff1660e01b815260040160206040518083038186803b158015610a3957600080fd5b505afa158015610a4d573d6000803e3d6000fd5b505050506040513d601f19601f82011682018060405250810190610a7191906120fb565b60cf80546001600160a01b0319166001600160a01b0392909216919091179055610abe610aa16020840184612118565b61ffff16610ab56040850160208601612118565b61ffff16611584565b60408051808201909152610af09060019080610add6020870187612118565b61ffff16815260006020909101526112a8565b610b2960026040518060400160405280600061ffff168152602001856020016020810190610b1e9190612118565b61ffff1690526112a8565b8015610694576000805461ff0019169055604051600181527f7f26b83ff96e1f2b6a682f133852f6798a09c465da95921460cefb38474024989060200160405180910390a1505050565b609760009054906101000a90046001600160a01b03166001600160a01b031663f17063756040518163ffffffff1660e01b815260040160206040518083038186803b158015610bc157600080fd5b505afa158015610bd5573d6000803e3d6000fd5b505050506040513d601f19601f82011682018060405250810190610bf991906120b0565b15610c395760405162461bcd60e51b815260206004820152601060248201526f3830bab9b2b21037b910333937bd32b760811b6044820152606401610374565b60cc546001600160a01b0384811691161480610c62575060cd546001600160a01b038481169116145b610c9e5760405162461bcd60e51b815260206004820152600d60248201526c2929a91037b910292a37b5b2b760991b6044820152606401610374565b60cc546001600160a01b03848116911614600080610cba610f96565b9050600083610cca578151610cd0565b81602001515b62ffffff16905060008111610d1f5760405162461bcd60e51b81526020600482015260156024820152746e6f7468696e6720746f206469737472696275746560581b6044820152606401610374565b610d298186612149565b925050506000610d3960c9611687565b67ffffffffffffffff811115610d5157610d51611d6d565b604051908082528060200260200182016040528015610d9c57816020015b6040805160608101825260008082526020808301829052928201528252600019909201910181610d6f5790505b5090506000805b610dad60c9611687565b811015610ee2576000610dc160c983611697565b9050600086610dec576001600160a01b038216600090815260cb602052604090205461ffff16610e10565b6001600160a01b038216600090815260cb602052604090205462010000900461ffff165b61ffff16905080610e22575050610ed2565b6000610e2e828861216b565b90506001600160a01b03831660011415610e555760ce546001600160a01b03169250610e76565b6001600160a01b03831660021415610e765760cf546001600160a01b031692505b60405180606001604052808c6001600160a01b03168152602001846001600160a01b0316815260200182815250868681518110610eb557610eb561218a565b60200260200101819052508480610ecb906121a0565b9550505050505b610edb816121a0565b9050610da3565b5084866001600160a01b0316886001600160a01b03167fe892c32f65273e1958c615dd9fd0eaa040ab9a374d002866bbab6092954bbd2060405160405180910390a460005b81811015610f8c576000838281518110610f4357610f4361218a565b60200260200101519050610f79888260200151836040015184600001516001600160a01b03166116aa909392919063ffffffff16565b5080610f84816121a0565b915050610f27565b5050505050505050565b60408051808201909152600080825260208201526000610fb660c9611687565b905060005b8181101561104657600060cb81610fd360c985611697565b6001600160a01b0316815260208101919091526040016000208054855191925061ffff169085906110059083906121bb565b62ffffff1690525080546020850180516201000090920461ffff169161102c9083906121bb565b62ffffff1690525061103f9050816121a0565b9050610fbb565b505090565b6001600160a01b03163b151590565b60975460408051808201909152600581526427aba722a960d91b60208201526001600160a01b03909116906391d148549061109490612089565b336040516001600160e01b031960e085901b16815260048101929092526001600160a01b0316602482015260440160206040518083038186803b1580156110da57600080fd5b505afa1580156110ee573d6000803e3d6000fd5b505050506040513d601f19601f8201168201806040525081019061111291906120b0565b6104115760405162461bcd60e51b8152600401610374906120d2565b7f4910fdfa16fed3260ed0e7147f7cc6da11a60208b5b9406d12a635614ffd91435460ff1615611161576106948361170a565b826001600160a01b03166352d1902d6040518163ffffffff1660e01b815260040160206040518083038186803b15801561119a57600080fd5b505afa9250505080156111ca575060408051601f3d908101601f191682019092526111c7918101906121e2565b60015b61122d5760405162461bcd60e51b815260206004820152602e60248201527f45524331393637557067726164653a206e657720696d706c656d656e7461746960448201526d6f6e206973206e6f74205555505360901b6064820152608401610374565b600080516020612290833981519152811461129c5760405162461bcd60e51b815260206004820152602960248201527f45524331393637557067726164653a20756e737570706f727465642070726f786044820152681a58589b195555525160ba1b6064820152608401610374565b506106948383836117a6565b6001600160a01b0382166112f45760405162461bcd60e51b8152602060048201526013602482015272646573742063616e6e6f74206265207a65726f60681b6044820152606401610374565b6001600160a01b0382166001141561135c57602081015161ffff161561135c5760405162461bcd60e51b815260206004820152601a60248201527f4675726e616365206d75737420676574203025206f66205253520000000000006044820152606401610374565b6001600160a01b038216600214156113c157805161ffff16156113c15760405162461bcd60e51b815260206004820152601b60248201527f5374525352206d75737420676574203025206f662052546f6b656e00000000006044820152606401610374565b612710816020015161ffff16111561141b5760405162461bcd60e51b815260206004820152601960248201527f52535220646973747269627574696f6e20746f6f2068696768000000000000006044820152606401610374565b612710816000015161ffff1611156114755760405162461bcd60e51b815260206004820152601c60248201527f52546f6b656e20646973747269627574696f6e20746f6f2068696768000000006044820152606401610374565b602081015161ffff1615801561148e5750805161ffff16155b156114a45761149e60c9836117cb565b50611502565b6114af60c9836117e0565b5060646114bc60c9611687565b11156115025760405162461bcd60e51b8152602060048201526015602482015274546f6f206d616e792064657374696e6174696f6e7360581b6044820152606401610374565b6001600160a01b038216600081815260cb6020908152604091829020845181548684015161ffff92831663ffffffff199092168217620100009390911692830217909255835194855291840152908201527f3ee8237f3f4cb0108563a22b98236b44cee655fc708d3097420b4b9215dbbe5a9060600160405180910390a15050565b60008262ffffff16118061159d575060008162ffffff16115b6104e15760405162461bcd60e51b815260206004820152601760248201527f6e6f20646973747269627574696f6e20646566696e65640000000000000000006044820152606401610374565b600054610100900460ff166116105760405162461bcd60e51b8152600401610374906121fb565b6001600160a01b03811661165d5760405162461bcd60e51b81526020600482015260146024820152736d61696e206973207a65726f206164647265737360601b6044820152606401610374565b6116656117f5565b609780546001600160a01b0319166001600160a01b0392909216919091179055565b6000611691825490565b92915050565b60006116a3838361181e565b9392505050565b604080516001600160a01b0385811660248301528416604482015260648082018490528251808303909101815260849091019091526020810180516001600160e01b03166323b872dd60e01b179052611704908590611848565b50505050565b6001600160a01b0381163b6117775760405162461bcd60e51b815260206004820152602d60248201527f455243313936373a206e657720696d706c656d656e746174696f6e206973206e60448201526c1bdd08184818dbdb9d1c9858dd609a1b6064820152608401610374565b60008051602061229083398151915280546001600160a01b0319166001600160a01b0392909216919091179055565b6117af8361191a565b6000825111806117bc5750805b1561069457611704838361195a565b60006116a3836001600160a01b038416611a4e565b60006116a3836001600160a01b038416611b41565b600054610100900460ff1661181c5760405162461bcd60e51b8152600401610374906121fb565b565b60008260000182815481106118355761183561218a565b9060005260206000200154905092915050565b600061189d826040518060400160405280602081526020017f5361666545524332303a206c6f772d6c6576656c2063616c6c206661696c6564815250856001600160a01b0316611b909092919063ffffffff16565b80519091501561069457808060200190518101906118bb91906120b0565b6106945760405162461bcd60e51b815260206004820152602a60248201527f5361666545524332303a204552433230206f7065726174696f6e20646964206e6044820152691bdd081cdd58d8d9595960b21b6064820152608401610374565b6119238161170a565b6040516001600160a01b038216907fbc7cd75a20ee27fd9adebab32041f755214dbc6bffa90cc0225b39da2e5c2d3b90600090a250565b60606001600160a01b0383163b6119c25760405162461bcd60e51b815260206004820152602660248201527f416464726573733a2064656c65676174652063616c6c20746f206e6f6e2d636f6044820152651b9d1c9858dd60d21b6064820152608401610374565b600080846001600160a01b0316846040516119dd9190612246565b600060405180830381855af49150503d8060008114611a18576040519150601f19603f3d011682016040523d82523d6000602084013e611a1d565b606091505b5091509150611a4582826040518060600160405280602781526020016122b060279139611ba7565b95945050505050565b60008181526001830160205260408120548015611b37576000611a72600183612262565b8554909150600090611a8690600190612262565b9050818114611aeb576000866000018281548110611aa657611aa661218a565b9060005260206000200154905080876000018481548110611ac957611ac961218a565b6000918252602080832090910192909255918252600188019052604090208390555b8554869080611afc57611afc612279565b600190038181906000526020600020016000905590558560010160008681526020019081526020016000206000905560019350505050611691565b6000915050611691565b6000818152600183016020526040812054611b8857508154600181810184556000848152602080822090930184905584548482528286019093526040902091909155611691565b506000611691565b6060611b9f8484600085611bc0565b949350505050565b60608315611bb65750816116a3565b6116a38383611c9b565b606082471015611c215760405162461bcd60e51b815260206004820152602660248201527f416464726573733a20696e73756666696369656e742062616c616e636520666f6044820152651c8818d85b1b60d21b6064820152608401610374565b600080866001600160a01b03168587604051611c3d9190612246565b60006040518083038185875af1925050503d8060008114611c7a576040519150601f19603f3d011682016040523d82523d6000602084013e611c7f565b606091505b5091509150611c9087838387611cc5565b979650505050505050565b815115611cab5781518083602001fd5b8060405162461bcd60e51b81526004016103749190611e88565b60608315611d31578251611d2a576001600160a01b0385163b611d2a5760405162461bcd60e51b815260206004820152601d60248201527f416464726573733a2063616c6c20746f206e6f6e2d636f6e74726163740000006044820152606401610374565b5081611b9f565b611b9f8383611c9b565b6001600160a01b038116811461041157600080fd5b600060208284031215611d6257600080fd5b81356116a381611d3b565b634e487b7160e01b600052604160045260246000fd5b604051601f8201601f1916810167ffffffffffffffff81118282101715611dac57611dac611d6d565b604052919050565b60008060408385031215611dc757600080fd5b8235611dd281611d3b565b915060208381013567ffffffffffffffff80821115611df057600080fd5b818601915086601f830112611e0457600080fd5b813581811115611e1657611e16611d6d565b611e28601f8201601f19168501611d83565b91508082528784828501011115611e3e57600080fd5b80848401858401376000848284010152508093505050509250929050565b60005b83811015611e77578181015183820152602001611e5f565b838111156117045750506000910152565b6020815260008251806020840152611ea7816040850160208701611e5c565b601f01601f19169190910160400192915050565b803561ffff81168114611ecd57600080fd5b919050565b6000808284036060811215611ee657600080fd5b8335611ef181611d3b565b92506040601f1982011215611f0557600080fd5b506040516040810181811067ffffffffffffffff82111715611f2957611f29611d6d565b604052611f3860208501611ebb565b8152611f4660408501611ebb565b6020820152809150509250929050565b600060208284031215611f6857600080fd5b5035919050565b6000808284036060811215611f8357600080fd5b8335611f8e81611d3b565b92506040601f1982011215611fa257600080fd5b506020830190509250929050565b600080600060608486031215611fc557600080fd5b8335611fd081611d3b565b92506020840135611fe081611d3b565b929592945050506040919091013590565b6020808252602c908201527f46756e6374696f6e206d7573742062652063616c6c6564207468726f7567682060408201526b19195b1959d85d1958d85b1b60a21b606082015260800190565b6020808252602c908201527f46756e6374696f6e206d7573742062652063616c6c6564207468726f7567682060408201526b6163746976652070726f787960a01b606082015260800190565b805160208083015191908110156120aa576000198160200360031b1b821691505b50919050565b6000602082840312156120c257600080fd5b815180151581146116a357600080fd5b6020808252600f908201526e676f7665726e616e6365206f6e6c7960881b604082015260600190565b60006020828403121561210d57600080fd5b81516116a381611d3b565b60006020828403121561212a57600080fd5b6116a382611ebb565b634e487b7160e01b600052601160045260246000fd5b60008261216657634e487b7160e01b600052601260045260246000fd5b500490565b600081600019048311821515161561218557612185612133565b500290565b634e487b7160e01b600052603260045260246000fd5b60006000198214156121b4576121b4612133565b5060010190565b600062ffffff8083168185168083038211156121d9576121d9612133565b01949350505050565b6000602082840312156121f457600080fd5b5051919050565b6020808252602b908201527f496e697469616c697a61626c653a20636f6e7472616374206973206e6f74206960408201526a6e697469616c697a696e6760a81b606082015260800190565b60008251612258818460208701611e5c565b9190910192915050565b60008282101561227457612274612133565b500390565b634e487b7160e01b600052603160045260246000fdfe360894a13ba1a3210667c828492db98dca3e2076cc3735a920a3ca505d382bbc416464726573733a206c6f772d6c6576656c2064656c65676174652063616c6c206661696c6564a26469706673582212202c537cd1a1626e0e010c63aad3ac7753bc38610a77bc0988fafd8e4965c01a4164736f6c63430008090033",
  "linkReferences": {},
  "deployedLinkReferences": {}
}