{
  "_format": "hh-sol-artifact-1",
  "contractName": "DeployerP1",
  "sourceName": "contracts/reserve/p1/Deployer.sol",
  "abi": [
    {
      "inputs": [
        {
          "internalType": "contract IERC20Metadata",
          "name": "rsr_",
          "type": "address"
        },
        {
          "internalType": "contract IGnosis",
          "name": "gnosis_",
          "type": "address"
        },
        {
          "internalType": "contract IAsset",
          "name": "rsrAsset_",
          "type": "address"
        },
        {
          "components": [
            {
              "internalType": "contract IMain",
              "name": "main",
              "type": "address"
            },
            {
              "components": [
                {
                  "internalType": "contract IRToken",
                  "name": "rToken",
                  "type": "address"
                },
                {
                  "internalType": "contract IStRSR",
                  "name": "stRSR",
                  "type": "address"
                },
                {
                  "internalType": "contract IAssetRegistry",
                  "name": "assetRegistry",
                  "type": "address"
                },
                {
                  "internalType": "contract IBasketHandler",
                  "name": "basketHandler",
                  "type": "address"
                },
                {
                  "internalType": "contract IBackingManager",
                  "name": "backingManager",
                  "type": "address"
                },
                {
                  "internalType": "contract IDistributor",
                  "name": "distributor",
                  "type": "address"
                },
                {
                  "internalType": "contract IFurnace",
                  "name": "furnace",
                  "type": "address"
                },
                {
                  "internalType": "contract IBroker",
                  "name": "broker",
                  "type": "address"
                },
                {
                  "internalType": "contract IRevenueTrader",
                  "name": "rsrTrader",
                  "type": "address"
                },
                {
                  "internalType": "contract IRevenueTrader",
                  "name": "rTokenTrader",
                  "type": "address"
                }
              ],
              "internalType": "struct Components",
              "name": "components",
              "type": "tuple"
            },
            {
              "internalType": "contract ITrade",
              "name": "trade",
              "type": "address"
            }
          ],
          "internalType": "struct Implementations",
          "name": "implementations_",
          "type": "tuple"
        }
      ],
      "stateMutability": "nonpayable",
      "type": "constructor"
    },
    {
      "anonymous": false,
      "inputs": [
        {
          "indexed": true,
          "internalType": "contract IMain",
          "name": "main",
          "type": "address"
        },
        {
          "indexed": true,
          "internalType": "contract IRToken",
          "name": "rToken",
          "type": "address"
        },
        {
          "indexed": false,
          "internalType": "contract IStRSR",
          "name": "stRSR",
          "type": "address"
        },
        {
          "indexed": true,
          "internalType": "address",
          "name": "owner",
          "type": "address"
        },
        {
          "indexed": false,
          "internalType": "string",
          "name": "version",
          "type": "string"
        }
      ],
      "name": "RTokenCreated",
      "type": "event"
    },
    {
      "inputs": [],
      "name": "ENS",
      "outputs": [
        {
          "internalType": "string",
          "name": "",
          "type": "string"
        }
      ],
      "stateMutability": "view",
      "type": "function"
    },
    {
      "inputs": [
        {
          "internalType": "string",
          "name": "name",
          "type": "string"
        },
        {
          "internalType": "string",
          "name": "symbol",
          "type": "string"
        },
        {
          "internalType": "string",
          "name": "mandate",
          "type": "string"
        },
        {
          "internalType": "address",
          "name": "owner",
          "type": "address"
        },
        {
          "components": [
            {
              "components": [
                {
                  "internalType": "uint16",
                  "name": "rTokenDist",
                  "type": "uint16"
                },
                {
                  "internalType": "uint16",
                  "name": "rsrDist",
                  "type": "uint16"
                }
              ],
              "internalType": "struct RevenueShare",
              "name": "dist",
              "type": "tuple"
            },
            {
              "internalType": "uint192",
              "name": "minTradeVolume",
              "type": "uint192"
            },
            {
              "internalType": "uint192",
              "name": "rTokenMaxTradeVolume",
              "type": "uint192"
            },
            {
              "internalType": "uint48",
              "name": "shortFreeze",
              "type": "uint48"
            },
            {
              "internalType": "uint48",
              "name": "longFreeze",
              "type": "uint48"
            },
            {
              "internalType": "uint192",
              "name": "rewardRatio",
              "type": "uint192"
            },
            {
              "internalType": "uint48",
              "name": "rewardPeriod",
              "type": "uint48"
            },
            {
              "internalType": "uint48",
              "name": "unstakingDelay",
              "type": "uint48"
            },
            {
              "internalType": "uint48",
              "name": "tradingDelay",
              "type": "uint48"
            },
            {
              "internalType": "uint48",
              "name": "auctionLength",
              "type": "uint48"
            },
            {
              "internalType": "uint192",
              "name": "backingBuffer",
              "type": "uint192"
            },
            {
              "internalType": "uint192",
              "name": "maxTradeSlippage",
              "type": "uint192"
            },
            {
              "internalType": "uint192",
              "name": "issuanceRate",
              "type": "uint192"
            },
            {
              "internalType": "uint192",
              "name": "scalingRedemptionRate",
              "type": "uint192"
            },
            {
              "internalType": "uint256",
              "name": "redemptionRateFloor",
              "type": "uint256"
            }
          ],
          "internalType": "struct DeploymentParams",
          "name": "params",
          "type": "tuple"
        }
      ],
      "name": "deploy",
      "outputs": [
        {
          "internalType": "address",
          "name": "",
          "type": "address"
        }
      ],
      "stateMutability": "nonpayable",
      "type": "function"
    },
    {
      "inputs": [],
      "name": "gnosis",
      "outputs": [
        {
          "internalType": "contract IGnosis",
          "name": "",
          "type": "address"
        }
      ],
      "stateMutability": "view",
      "type": "function"
    },
    {
      "inputs": [],
      "name": "implementations",
      "outputs": [
        {
          "internalType": "contract IMain",
          "name": "main",
          "type": "address"
        },
        {
          "components": [
            {
              "internalType": "contract IRToken",
              "name": "rToken",
              "type": "address"
            },
            {
              "internalType": "contract IStRSR",
              "name": "stRSR",
              "type": "address"
            },
            {
              "internalType": "contract IAssetRegistry",
              "name": "assetRegistry",
              "type": "address"
            },
            {
              "internalType": "contract IBasketHandler",
              "name": "basketHandler",
              "type": "address"
            },
            {
              "internalType": "contract IBackingManager",
              "name": "backingManager",
              "type": "address"
            },
            {
              "internalType": "contract IDistributor",
              "name": "distributor",
              "type": "address"
            },
            {
              "internalType": "contract IFurnace",
              "name": "furnace",
              "type": "address"
            },
            {
              "internalType": "contract IBroker",
              "name": "broker",
              "type": "address"
            },
            {
              "internalType": "contract IRevenueTrader",
              "name": "rsrTrader",
              "type": "address"
            },
            {
              "internalType": "contract IRevenueTrader",
              "name": "rTokenTrader",
              "type": "address"
            }
          ],
          "internalType": "struct Components",
          "name": "components",
          "type": "tuple"
        },
        {
          "internalType": "contract ITrade",
          "name": "trade",
          "type": "address"
        }
      ],
      "stateMutability": "view",
      "type": "function"
    },
    {
      "inputs": [],
      "name": "rsr",
      "outputs": [
        {
          "internalType": "contract IERC20Metadata",
          "name": "",
          "type": "address"
        }
      ],
      "stateMutability": "view",
      "type": "function"
    },
    {
      "inputs": [],
      "name": "rsrAsset",
      "outputs": [
        {
          "internalType": "contract IAsset",
          "name": "",
          "type": "address"
        }
      ],
      "stateMutability": "view",
      "type": "function"
    },
    {
      "inputs": [],
      "name": "version",
      "outputs": [
        {
          "internalType": "string",
          "name": "",
          "type": "string"
        }
      ],
      "stateMutability": "pure",
      "type": "function"
    }
  ],
  "bytecode": "0x60e06040523480156200001157600080fd5b50604051620052b1380380620052b18339810160408190526200003491620003b0565b6001600160a01b038416158015906200005557506001600160a01b03831615155b80156200006a57506001600160a01b03821615155b801562000080575080516001600160a01b031615155b801562000099575060408101516001600160a01b031615155b8015620000b657506020810151604001516001600160a01b031615155b8015620000d357506020810151608001516001600160a01b031615155b8015620000f057506020810151606001516001600160a01b031615155b80156200010d5750602081015160e001516001600160a01b031615155b80156200012a5750602081015160a001516001600160a01b031615155b8015620001475750602081015160c001516001600160a01b031615155b8015620001655750602081015161010001516001600160a01b031615155b8015620001835750602081015161012001516001600160a01b031615155b80156200019d57506020810151516001600160a01b031615155b8015620001b9575060208082015101516001600160a01b031615155b620001fc5760405162461bcd60e51b815260206004820152600f60248201526e696e76616c6964206164647265737360881b604482015260640160405180910390fd5b6001600160a01b03938416608090815292841660a090815291841660c09081528151600080546001600160a01b03199081169288169290921790556020808401518051600180548516918a1691909117905590810151600280548416918916919091179055604080820151600380548516918a169190911790556060820151600480548516918a1691909117905595810151600580548416918916919091179055938401516006805483169188169190911790559083015160078054831691871691909117905560e083015160088054831691871691909117905561010083015160098054831691871691909117905561012090920151600a805484169186169190911790559190910151600b8054909216921691909117905562000537565b6001600160a01b03811681146200033257600080fd5b50565b604051606081016001600160401b03811182821017156200036657634e487b7160e01b600052604160045260246000fd5b60405290565b60405161014081016001600160401b03811182821017156200036657634e487b7160e01b600052604160045260246000fd5b8051620003ab816200031c565b919050565b6000806000808486036101e0811215620003c957600080fd5b8551620003d6816200031c565b6020870151909550620003e9816200031c565b6040870151909450620003fc816200031c565b9250610180605f1982018113156200041357600080fd5b6200041d62000335565b60608801516200042d816200031c565b8152610140607f1984018113156200044457600080fd5b6200044e6200036c565b93506200045e60808a016200039e565b84526200046e60a08a016200039e565b60208501526200048160c08a016200039e565b60408501526200049460e08a016200039e565b6060850152610100620004a9818b016200039e565b6080860152610120620004be818c016200039e565b60a0870152620004d0838c016200039e565b60c0870152620004e46101608c016200039e565b60e0870152620004f6858c016200039e565b82870152620005096101a08c016200039e565b81870152505050826020820152620005256101c089016200039e565b60408201529598949750929550505050565b60805160a05160c051614d2f62000582600039600081816101dc0152610db201526000818160dd0152610aa8015260008181610204015281816106db015261089e0152614d2f6000f3fe60806040523480156200001157600080fd5b5060043610620000875760003560e01c806354fd4d50116200006257806354fd4d5014620001b4578063929832ef14620001d6578063c99dc3dd14620001fe578063db0a0369146200022657600080fd5b80631d2e2cc4146200008c578063238c8aad14620000d757806330e9012c1462000118575b600080fd5b620000bf604051806040016040528060138152602001720e4cae6cae4eccae0e4dee8dec6ded85ccae8d606b1b81525081565b604051620000ce9190620015bb565b60405180910390f35b620000ff7f000000000000000000000000000000000000000000000000000000000000000081565b6040516001600160a01b039091168152602001620000ce565b60005460408051610140810182526001546001600160a01b039081168252600254811660208301526003548116928201929092526004548216606082015260055482166080820152600654821660a0820152600754821660c0820152600854821660e08201526009548216610100820152600a548216610120820152600b54620001a3938316921683565b604051620000ce93929190620016da565b6040805180820190915260058152640312e322e360dc1b6020820152620000bf565b620000ff7f000000000000000000000000000000000000000000000000000000000000000081565b620000ff7f000000000000000000000000000000000000000000000000000000000000000081565b620000ff62000237366004620019fe565b60006001600160a01b038316158015906200025b57506001600160a01b0383163014155b6200029c5760405162461bcd60e51b815260206004820152600d60248201526c34b73b30b634b21037bbb732b960991b604482015260640160405180910390fd5b6000805460408051838152602081019091526001600160a01b0390911690604051620002c8906200153e565b620002d592919062001aeb565b604051809103906000f080158015620002f2573d6000803e3d6000fd5b5060015460408051600080825260208201928390529394506001600160a01b03909216919062000322906200153e565b6200032f92919062001aeb565b604051809103906000f0801580156200034c573d6000803e3d6000fd5b5060408051610140810182526001600160a01b038381168252600254835160008082526020828101909652959650929384019291169060405162000390906200153e565b6200039d92919062001aeb565b604051809103906000f080158015620003ba573d6000803e3d6000fd5b506001600160a01b0390811682526003546040805160008152602080820192839052909401939190921691620003f0906200153e565b620003fd92919062001aeb565b604051809103906000f0801580156200041a573d6000803e3d6000fd5b506001600160a01b039081168252600454604080516000815260208082019283905290940193919092169162000450906200153e565b6200045d92919062001aeb565b604051809103906000f0801580156200047a573d6000803e3d6000fd5b506001600160a01b0390811682526005546040805160008152602080820192839052909401939190921691620004b0906200153e565b620004bd92919062001aeb565b604051809103906000f080158015620004da573d6000803e3d6000fd5b506001600160a01b039081168252600654604080516000815260208082019283905290940193919092169162000510906200153e565b6200051d92919062001aeb565b604051809103906000f0801580156200053a573d6000803e3d6000fd5b506001600160a01b039081168252600754604080516000815260208082019283905290940193919092169162000570906200153e565b6200057d92919062001aeb565b604051809103906000f0801580156200059a573d6000803e3d6000fd5b506001600160a01b0390811682526008546040805160008152602080820192839052909401939190921691620005d0906200153e565b620005dd92919062001aeb565b604051809103906000f080158015620005fa573d6000803e3d6000fd5b506001600160a01b039081168252600954604080516000815260208082019283905290940193919092169162000630906200153e565b6200063d92919062001aeb565b604051809103906000f0801580156200065a573d6000803e3d6000fd5b506001600160a01b039081168252600a54604080516000815260208082019283905290940193919092169162000690906200153e565b6200069d92919062001aeb565b604051809103906000f080158015620006ba573d6000803e3d6000fd5b506001600160a01b03168152509050826001600160a01b031663992e1d6a827f0000000000000000000000000000000000000000000000000000000000000000886060015189608001516040518563ffffffff1660e01b815260040162000725949392919062001b19565b600060405180830381600087803b1580156200074057600080fd5b505af115801562000755573d6000803e3d6000fd5b505050608082015161010087015161014088015161016089015160208a015160405163bcaeb7b960e01b81526001600160a01b038a8116600483015265ffffffffffff90951660248201526001600160c01b03938416604482015291831660648301529190911660848201529116915063bcaeb7b99060a401600060405180830381600087803b158015620007e957600080fd5b505af1158015620007fe573d6000803e3d6000fd5b505050606082015160405163066ad14f60e21b81526001600160a01b03868116600483015290911691506319ab453c90602401600060405180830381600087803b1580156200084c57600080fd5b505af115801562000861573d6000803e3d6000fd5b50505061010082015161016087015160208801516040516322c9f15d60e21b81526001600160a01b039093169350638b27c57492620008c79288927f00000000000000000000000000000000000000000000000000000000000000009260040162001b5a565b600060405180830381600087803b158015620008e257600080fd5b505af1158015620008f7573d6000803e3d6000fd5b50505061012082015161016087015160208801516040516322c9f15d60e21b81526001600160a01b039093169350638b27c574926200093d928892889260040162001b5a565b600060405180830381600087803b1580156200095857600080fd5b505af11580156200096d573d6000803e3d6000fd5b5050505060a0810151855160405163133cdbb560e31b81526001600160a01b038681166004830152825161ffff908116602484015260209093015190921660448201529116906399e6dda890606401600060405180830381600087803b158015620009d757600080fd5b505af1158015620009ec573d6000803e3d6000fd5b50505060c0808301519087015160a08801516040516324458ffb60e21b81526001600160a01b03888116600483015265ffffffffffff90931660248201526001600160c01b039091166044820152911691506391163fec90606401600060405180830381600087803b15801562000a6257600080fd5b505af115801562000a77573d6000803e3d6000fd5b5050505060e0810151600b5461012087015160405163642606a760e01b81526001600160a01b0387811660048301527f000000000000000000000000000000000000000000000000000000000000000081166024830152928316604482015265ffffffffffff909116606482015291169063642606a790608401600060405180830381600087803b15801562000b0c57600080fd5b505af115801562000b21573d6000803e3d6000fd5b50505050600062000b328a620013bc565b60405160200162000b44919062001b8e565b604051602081830303815290604052905060008160405160200162000b6a919062001bb7565b6040516020818303038152906040529050846001600160a01b0316634780a5e56040518163ffffffff1660e01b815260040160206040518083038186803b15801562000bb557600080fd5b505afa15801562000bca573d6000803e3d6000fd5b505050506040513d601f19601f8201168201806040525081019062000bf0919062001be3565b6001600160a01b0316634ea4b8438683858b60e001518c60c001518d60a001516040518763ffffffff1660e01b815260040162000c339695949392919062001c03565b600060405180830381600087803b15801562000c4e57600080fd5b505af115801562000c63573d6000803e3d6000fd5b50505050505080600001516001600160a01b0316631a14663c848c8c8c8c8b61018001518c6101a001518d6101c001516040518963ffffffff1660e01b815260040162000cb898979695949392919062001c70565b600060405180830381600087803b15801562000cd357600080fd5b505af115801562000ce8573d6000803e3d6000fd5b50600092506002915062000cf99050565b60405190808252806020026020018201604052801562000d23578160200160208202803683370190505b5090508160000151866040015160405162000d3e906200154c565b6001600160a01b0390921682526001600160c01b03166020820152604001604051809103906000f08015801562000d79573d6000803e3d6000fd5b508160008151811062000d905762000d9062001cfc565b60200260200101906001600160a01b031690816001600160a01b0316815250507f00000000000000000000000000000000000000000000000000000000000000008160018151811062000de75762000de762001cfc565b6001600160a01b0392831660209182029290920101526040808401519051631e2d1e7560e11b8152911690633c5a3cea9062000e2a908790859060040162001d12565b600060405180830381600087803b15801562000e4557600080fd5b505af115801562000e5a573d6000803e3d6000fd5b50505050836001600160a01b0316632f2ff15d6040518060400160405280600581526020016427aba722a960d91b81525062000e969062001d70565b6040516001600160e01b031960e084901b16815260048101919091526001600160a01b038a166024820152604401600060405180830381600087803b15801562000edf57600080fd5b505af115801562000ef4573d6000803e3d6000fd5b50505050836001600160a01b0316632f2ff15d6040518060400160405280600d81526020016c29a427a92a2fa32922a2ad22a960991b81525062000f389062001d70565b6040516001600160e01b031960e084901b16815260048101919091526001600160a01b038a166024820152604401600060405180830381600087803b15801562000f8157600080fd5b505af115801562000f96573d6000803e3d6000fd5b50505050836001600160a01b0316632f2ff15d6040518060400160405280600c81526020016b2627a723afa32922a2ad22a960a11b81525062000fd99062001d70565b6040516001600160e01b031960e084901b16815260048101919091526001600160a01b038a166024820152604401600060405180830381600087803b1580156200102257600080fd5b505af115801562001037573d6000803e3d6000fd5b50505050836001600160a01b0316632f2ff15d604051806040016040528060068152602001652820aaa9a2a960d11b815250620010749062001d70565b6040516001600160e01b031960e084901b16815260048101919091526001600160a01b038a166024820152604401600060405180830381600087803b158015620010bd57600080fd5b505af1158015620010d2573d6000803e3d6000fd5b50505050836001600160a01b03166336568abe6040518060400160405280600581526020016427aba722a960d91b8152506200110e9062001d70565b6040516001600160e01b031960e084901b1681526004810191909152306024820152604401600060405180830381600087803b1580156200114e57600080fd5b505af115801562001163573d6000803e3d6000fd5b50505050836001600160a01b03166336568abe6040518060400160405280600d81526020016c29a427a92a2fa32922a2ad22a960991b815250620011a79062001d70565b6040516001600160e01b031960e084901b1681526004810191909152306024820152604401600060405180830381600087803b158015620011e757600080fd5b505af1158015620011fc573d6000803e3d6000fd5b50505050836001600160a01b03166336568abe6040518060400160405280600c81526020016b2627a723afa32922a2ad22a960a11b8152506200123f9062001d70565b6040516001600160e01b031960e084901b1681526004810191909152306024820152604401600060405180830381600087803b1580156200127f57600080fd5b505af115801562001294573d6000803e3d6000fd5b50505050836001600160a01b03166336568abe604051806040016040528060068152602001652820aaa9a2a960d11b815250620012d19062001d70565b6040516001600160e01b031960e084901b1681526004810191909152306024820152604401600060405180830381600087803b1580156200131157600080fd5b505af115801562001326573d6000803e3d6000fd5b50505050866001600160a01b031682600001516001600160a01b0316856001600160a01b03167f27a62b7d4a7ee7a705ae91fe5a3ad74f32fc3d14e82eb82c3730630601ce9ae68560200151620013956040805180820190915260058152640312e322e360dc1b602082015290565b604051620013a592919062001aeb565b60405180910390a450519998505050505050505050565b606060008290506000815167ffffffffffffffff811115620013e257620013e26200170e565b6040519080825280601f01601f1916602001820160405280156200140d576020820181803683370190505b50905060005b82518110156200153657604183828151811062001434576200143462001cfc565b016020015160f81c10801590620014685750605a8382815181106200145d576200145d62001cfc565b016020015160f81c11155b15620014d45782818151811062001483576200148362001cfc565b602001015160f81c60f81b60f81c60206200149f919062001dae565b60f81b828281518110620014b757620014b762001cfc565b60200101906001600160f81b031916908160001a90535062001521565b828181518110620014e957620014e962001cfc565b602001015160f81c60f81b82828151811062001509576200150962001cfc565b60200101906001600160f81b031916908160001a9053505b806200152d8162001dd6565b91505062001413565b509392505050565b6107358062001df583390190565b6127d0806200252a83390190565b60005b83811015620015775781810151838201526020016200155d565b8381111562001587576000848401525b50505050565b60008151808452620015a78160208601602086016200155a565b601f01601f19169290920160200192915050565b602081526000620015d060208301846200158d565b9392505050565b80516001600160a01b031682526020810151620015ff60208401826001600160a01b03169052565b5060408101516200161b60408401826001600160a01b03169052565b5060608101516200163760608401826001600160a01b03169052565b5060808101516200165360808401826001600160a01b03169052565b5060a08101516200166f60a08401826001600160a01b03169052565b5060c08101516200168b60c08401826001600160a01b03169052565b5060e0810151620016a760e08401826001600160a01b03169052565b50610100818101516001600160a01b038116848301525050610120818101516001600160a01b0381168483015262001587565b6001600160a01b038481168252610180820190620016fc6020840186620015d7565b80841661016084015250949350505050565b634e487b7160e01b600052604160045260246000fd5b6040516101e0810167ffffffffffffffff811182821017156200174b576200174b6200170e565b60405290565b600082601f8301126200176357600080fd5b813567ffffffffffffffff808211156200178157620017816200170e565b604051601f8301601f19908116603f01168101908282118183101715620017ac57620017ac6200170e565b81604052838152866020858801011115620017c657600080fd5b836020870160208301376000602085830101528094505050505092915050565b6001600160a01b0381168114620017fc57600080fd5b50565b80356200180c81620017e6565b919050565b803561ffff811681146200180c57600080fd5b6000604082840312156200183757600080fd5b6040516040810181811067ffffffffffffffff821117156200185d576200185d6200170e565b6040529050806200186e8362001811565b81526200187e6020840162001811565b60208201525092915050565b80356001600160c01b03811681146200180c57600080fd5b803565ffffffffffff811681146200180c57600080fd5b60006102008284031215620018cd57600080fd5b620018d762001724565b9050620018e5838362001824565b8152620018f5604083016200188a565b602082015262001908606083016200188a565b60408201526200191b60808301620018a2565b60608201526200192e60a08301620018a2565b60808201526200194160c083016200188a565b60a08201526200195460e08301620018a2565b60c082015261010062001969818401620018a2565b60e08301526101206200197e818501620018a2565b82840152610140915062001994828501620018a2565b90830152610160620019a88482016200188a565b828401526101809150620019be8285016200188a565b908301526101a0620019d28482016200188a565b828401526101c09150620019e88285016200188a565b81840152506101e0830135818301525092915050565b600080600080600080610280878903121562001a1957600080fd5b863567ffffffffffffffff8082111562001a3257600080fd5b62001a408a838b0162001751565b9750602089013591508082111562001a5757600080fd5b62001a658a838b0162001751565b9650604089013591508082111562001a7c57600080fd5b818901915089601f83011262001a9157600080fd5b81358181111562001aa157600080fd5b8a602082850101111562001ab457600080fd5b60208301965080955050505062001ace60608801620017ff565b915062001adf8860808901620018b9565b90509295509295509295565b6001600160a01b038316815260406020820181905260009062001b11908301846200158d565b949350505050565b6101a0810162001b2a8287620015d7565b6001600160a01b039490941661014082015265ffffffffffff928316610160820152911661018090910152919050565b6001600160a01b0394851681529290931660208301526001600160c01b039081166040830152909116606082015260800190565b6000825162001ba28184602087016200155a565b622929a960e91b920191825250600301919050565b6000825162001bcb8184602087016200155a565b65102a37b5b2b760d11b920191825250600601919050565b60006020828403121562001bf657600080fd5b8151620015d081620017e6565b6001600160a01b038716815260c06020820181905260009062001c29908301886200158d565b828103604084015262001c3d81886200158d565b65ffffffffffff9687166060850152949095166080830152506001600160c01b039190911660a090910152949350505050565b6001600160a01b038916815260e06020820181905260009062001c969083018a6200158d565b828103604084015262001caa818a6200158d565b9050828103606084015286815286886020830137600060208883018101919091526001600160c01b0396871660808501529490951660a08301525060c00152601f909201601f19160101949350505050565b634e487b7160e01b600052603260045260246000fd5b6001600160a01b038381168252604060208084018290528451918401829052600092858201929091906060860190855b8181101562001d6257855185168352948301949183019160010162001d42565b509098975050505050505050565b8051602080830151919081101562001d92576000198160200360031b1b821691505b50919050565b634e487b7160e01b600052601160045260246000fd5b600060ff821660ff84168060ff0382111562001dce5762001dce62001d98565b019392505050565b600060001982141562001ded5762001ded62001d98565b506001019056fe60806040526040516107353803806107358339810160408190526100229161031e565b61002e82826000610035565b505061043b565b61003e8361006b565b60008251118061004b5750805b156100665761006483836100ab60201b6100291760201c565b505b505050565b610074816100d7565b6040516001600160a01b038216907fbc7cd75a20ee27fd9adebab32041f755214dbc6bffa90cc0225b39da2e5c2d3b90600090a250565b60606100d0838360405180606001604052806027815260200161070e602791396101a9565b9392505050565b6100ea8161022260201b6100551760201c565b6101515760405162461bcd60e51b815260206004820152602d60248201527f455243313936373a206e657720696d706c656d656e746174696f6e206973206e60448201526c1bdd08184818dbdb9d1c9858dd609a1b60648201526084015b60405180910390fd5b806101887f360894a13ba1a3210667c828492db98dca3e2076cc3735a920a3ca505d382bbc60001b61023160201b6100641760201c565b80546001600160a01b0319166001600160a01b039290921691909117905550565b6060600080856001600160a01b0316856040516101c691906103ec565b600060405180830381855af49150503d8060008114610201576040519150601f19603f3d011682016040523d82523d6000602084013e610206565b606091505b50909250905061021886838387610234565b9695505050505050565b6001600160a01b03163b151590565b90565b606083156102a0578251610299576001600160a01b0385163b6102995760405162461bcd60e51b815260206004820152601d60248201527f416464726573733a2063616c6c20746f206e6f6e2d636f6e74726163740000006044820152606401610148565b50816102aa565b6102aa83836102b2565b949350505050565b8151156102c25781518083602001fd5b8060405162461bcd60e51b81526004016101489190610408565b634e487b7160e01b600052604160045260246000fd5b60005b8381101561030d5781810151838201526020016102f5565b838111156100645750506000910152565b6000806040838503121561033157600080fd5b82516001600160a01b038116811461034857600080fd5b60208401519092506001600160401b038082111561036557600080fd5b818501915085601f83011261037957600080fd5b81518181111561038b5761038b6102dc565b604051601f8201601f19908116603f011681019083821181831017156103b3576103b36102dc565b816040528281528860208487010111156103cc57600080fd5b6103dd8360208301602088016102f2565b80955050505050509250929050565b600082516103fe8184602087016102f2565b9190910192915050565b60208152600082518060208401526104278160408501602087016102f2565b601f01601f19169190910160400192915050565b6102c48061044a6000396000f3fe60806040523661001357610011610017565b005b6100115b610027610022610067565b61009f565b565b606061004e8383604051806060016040528060278152602001610268602791396100c3565b9392505050565b6001600160a01b03163b151590565b90565b600061009a7f360894a13ba1a3210667c828492db98dca3e2076cc3735a920a3ca505d382bbc546001600160a01b031690565b905090565b3660008037600080366000845af43d6000803e8080156100be573d6000f35b3d6000fd5b6060600080856001600160a01b0316856040516100e09190610218565b600060405180830381855af49150503d806000811461011b576040519150601f19603f3d011682016040523d82523d6000602084013e610120565b606091505b50915091506101318683838761013b565b9695505050505050565b606083156101ac5782516101a5576001600160a01b0385163b6101a55760405162461bcd60e51b815260206004820152601d60248201527f416464726573733a2063616c6c20746f206e6f6e2d636f6e747261637400000060448201526064015b60405180910390fd5b50816101b6565b6101b683836101be565b949350505050565b8151156101ce5781518083602001fd5b8060405162461bcd60e51b815260040161019c9190610234565b60005b838110156102035781810151838201526020016101eb565b83811115610212576000848401525b50505050565b6000825161022a8184602087016101e8565b9190910192915050565b60208152600082518060208401526102538160408501602087016101e8565b601f01601f1916919091016040019291505056fe416464726573733a206c6f772d6c6576656c2064656c65676174652063616c6c206661696c6564a264697066735822122036b1106537c4c74c30e7a44342f60e21a76feb96c16c29845e2099e8acba4b7c64736f6c63430008090033416464726573733a206c6f772d6c6576656c2064656c65676174652063616c6c206661696c65646101406040523480156200001257600080fd5b50604051620027d0380380620027d08339810160408190526200003591620003a2565b6001600160a01b038216620000815760405162461bcd60e51b815260206004820152600d60248201526c06d697373696e6720657263323609c1b60448201526064015b60405180910390fd5b6000816001600160c01b031611620000dc5760405162461bcd60e51b815260206004820152601860248201527f696e76616c6964206d617820747261646520766f6c756d650000000000000000604482015260640162000078565b6000826001600160a01b031663dffeadd06040518163ffffffff1660e01b815260040160206040518083038186803b1580156200011857600080fd5b505afa1580156200012d573d6000803e3d6000fd5b505050506040513d601f19601f82011682018060405250810190620001539190620003ec565b9050806001600160a01b0316632f2439b16040518163ffffffff1660e01b815260040160206040518083038186803b1580156200018f57600080fd5b505afa158015620001a4573d6000803e3d6000fd5b505050506040513d601f19601f82011682018060405250810190620001ca9190620003ec565b6001600160a01b03166080816001600160a01b031681525050806001600160a01b031663979d7e866040518163ffffffff1660e01b815260040160206040518083038186803b1580156200021d57600080fd5b505afa15801562000232573d6000803e3d6000fd5b505050506040513d601f19601f82011682018060405250810190620002589190620003ec565b6001600160a01b031660a0816001600160a01b031681525050806001600160a01b031663dc8af5f66040518163ffffffff1660e01b815260040160206040518083038186803b158015620002ab57600080fd5b505afa158015620002c0573d6000803e3d6000fd5b505050506040513d601f19601f82011682018060405250810190620002e69190620003ec565b6001600160a01b0390811660c052831660e08190526040805163313ce56760e01b8152905163313ce56791600480820192602092909190829003018186803b1580156200033257600080fd5b505afa15801562000347573d6000803e3d6000fd5b505050506040513d601f19601f820116820180604052508101906200036d919062000413565b60ff1661010052506001600160c01b0316610120525062000438565b6001600160a01b03811681146200039f57600080fd5b50565b60008060408385031215620003b657600080fd5b8251620003c38162000389565b60208401519092506001600160c01b0381168114620003e157600080fd5b809150509250929050565b600060208284031215620003ff57600080fd5b81516200040c8162000389565b9392505050565b6000602082840312156200042657600080fd5b815160ff811681146200040c57600080fd5b60805160a05160c05160e05161010051610120516122f5620004db60003960006101b7015260006101040152600081816101680152818161026c01528181610392015281816105ae015261072301526000818161021c015281816107cb0152818161086b01528181610b220152610bc10152600081816101de0152610c6201526000818160be015281816102f901528181610516015261068d01526122f56000f3fe608060405234801561001057600080fd5b50600436106100b45760003560e01c806395acc4ae1161007157806395acc4ae146101b2578063979d7e86146101d9578063a035b1fe14610200578063c59b3d6314610208578063dc8af5f614610217578063e28a1b861461023e57600080fd5b80632f2439b1146100b9578063372500ab146100fd5780633cb5d379146100ff5780635580f72a14610138578063785e9e86146101635780637d1ea1371461018a575b600080fd5b6100e07f000000000000000000000000000000000000000000000000000000000000000081565b6040516001600160a01b0390911681526020015b60405180910390f35b005b6101267f000000000000000000000000000000000000000000000000000000000000000081565b60405160ff90911681526020016100f4565b61014b610146366004611d2f565b610246565b6040516001600160c01b0390911681526020016100f4565b6100e07f000000000000000000000000000000000000000000000000000000000000000081565b6101926102f1565b604080516001600160c01b039384168152929091166020830152016100f4565b61014b7f000000000000000000000000000000000000000000000000000000000000000081565b6100e07f000000000000000000000000000000000000000000000000000000000000000081565b61019261044c565b604051600081526020016100f4565b6100e07f000000000000000000000000000000000000000000000000000000000000000081565b61014b610511565b6040516370a0823160e01b81526001600160a01b0382811660048301526000916102eb917f000000000000000000000000000000000000000000000000000000000000000016906370a082319060240160206040518083038186803b1580156102ae57600080fd5b505afa1580156102c2573d6000803e3d6000fd5b505050506040513d601f19601f820116820180604052508101906102e69190611d4c565b610649565b92915050565b6000806000807f00000000000000000000000000000000000000000000000000000000000000006001600160a01b031663a035b1fe6040518163ffffffff1660e01b8152600401604080518083038186803b15801561034f57600080fd5b505afa158015610363573d6000803e3d6000fd5b505050506040513d601f19601f820116820180604052508101906103879190611d81565b9150915060006103e97f00000000000000000000000000000000000000000000000000000000000000006001600160a01b03166318160ddd6040518163ffffffff1660e01b815260040160206040518083038186803b1580156102ae57600080fd5b90506001600160c01b038116610403575090939092509050565b600061040d610677565b6020810151909150610429906001600160c01b03168584610d0b565b8151909650610442906001600160c01b03168484610d0b565b9450505050509091565b600080306001600160a01b0316637d1ea1376040518163ffffffff1660e01b8152600401604080518083038186803b15801561048757600080fd5b505afa9250505080156104b7575060408051601f3d908101601f191682019092526104b491810190611d81565b60015b610508573d8080156104e5576040519150601f19603f3d011682016040523d82523d6000602084013e6104ea565b606091505b5080516104f657600080fd5b506000926001600160c01b0392509050565b90939092509050565b6000807f00000000000000000000000000000000000000000000000000000000000000006001600160a01b031663e28a1b866040518163ffffffff1660e01b815260040160206040518083038186803b15801561056d57600080fd5b505afa158015610581573d6000803e3d6000fd5b505050506040513d601f19601f820116820180604052508101906105a59190611db4565b905060006106057f00000000000000000000000000000000000000000000000000000000000000006001600160a01b03166318160ddd6040518163ffffffff1660e01b815260040160206040518083038186803b1580156102ae57600080fd5b90506001600160c01b03811661061b5750919050565b6000610625610677565b6020810151909150610641906001600160c01b03168484610d0b565b935050505090565b60006001600160c01b038211156106735760405163f44398f560e01b815260040160405180910390fd5b5090565b60408051808201909152600080825260208201527f00000000000000000000000000000000000000000000000000000000000000006001600160a01b031663e45a5b2d6040518163ffffffff1660e01b815260040160206040518083038186803b1580156106e457600080fd5b505afa1580156106f8573d6000803e3d6000fd5b505050506040513d601f19601f8201168201806040525081019061071c9190611dcf565b156107c7577f00000000000000000000000000000000000000000000000000000000000000006001600160a01b0316637121c2736040518163ffffffff1660e01b815260040160206040518083038186803b15801561077a57600080fd5b505afa15801561078e573d6000803e3d6000fd5b505050506040513d601f19601f820116820180604052508101906107b29190611db4565b6001600160c01b031660208201819052815290565b60007f00000000000000000000000000000000000000000000000000000000000000006001600160a01b031663dffeadd06040518163ffffffff1660e01b815260040160206040518083038186803b15801561082257600080fd5b505afa158015610836573d6000803e3d6000fd5b505050506040513d601f19601f8201168201806040525081019061085a9190611df1565b905060006040518060c001604052807f00000000000000000000000000000000000000000000000000000000000000006001600160a01b03168152602001836001600160a01b0316632f2439b16040518163ffffffff1660e01b815260040160206040518083038186803b1580156108d157600080fd5b505afa1580156108e5573d6000803e3d6000fd5b505050506040513d601f19601f820116820180604052508101906109099190611df1565b6001600160a01b03168152602001836001600160a01b031663979d7e866040518163ffffffff1660e01b815260040160206040518083038186803b15801561095057600080fd5b505afa158015610964573d6000803e3d6000fd5b505050506040513d601f19601f820116820180604052508101906109889190611df1565b6001600160a01b03168152602001836001600160a01b0316634780a5e56040518163ffffffff1660e01b815260040160206040518083038186803b1580156109cf57600080fd5b505afa1580156109e3573d6000803e3d6000fd5b505050506040513d601f19601f82011682018060405250810190610a079190611df1565b6001600160a01b03168152602001836001600160a01b031663c99dc3dd6040518163ffffffff1660e01b815260040160206040518083038186803b158015610a4e57600080fd5b505afa158015610a62573d6000803e3d6000fd5b505050506040513d601f19601f82011682018060405250810190610a869190611df1565b6001600160a01b03168152602001836001600160a01b03166340c65f726040518163ffffffff1660e01b815260040160206040518083038186803b158015610acd57600080fd5b505afa158015610ae1573d6000803e3d6000fd5b505050506040513d601f19601f82011682018060405250810190610b059190611df1565b6001600160a01b03168152509050600060405180604001604052807f00000000000000000000000000000000000000000000000000000000000000006001600160a01b0316637cbf6db26040518163ffffffff1660e01b815260040160206040518083038186803b158015610b7957600080fd5b505afa158015610b8d573d6000803e3d6000fd5b505050506040513d601f19601f82011682018060405250810190610bb19190611db4565b6001600160c01b031681526020017f00000000000000000000000000000000000000000000000000000000000000006001600160a01b0316630db3d42c6040518163ffffffff1660e01b815260040160206040518083038186803b158015610c1857600080fd5b505afa158015610c2c573d6000803e3d6000fd5b505050506040513d601f19601f82011682018060405250810190610c509190611db4565b6001600160c01b0316815250905060007f00000000000000000000000000000000000000000000000000000000000000006001600160a01b0316635ab1bd536040518163ffffffff1660e01b815260040160006040518083038186803b158015610cb957600080fd5b505afa158015610ccd573d6000803e3d6000fd5b505050506040513d6000823e601f3d908101601f19168201604052610cf59190810190611f16565b9050610d02838383610d24565b94505050505090565b6000610d1a8484846000610f3f565b90505b9392505050565b604080518082019091526000808252602082015260008085602001516001600160a01b031663a035b1fe6040518163ffffffff1660e01b8152600401604080518083038186803b158015610d7757600080fd5b505afa158015610d8b573d6000803e3d6000fd5b505050506040513d601f19601f82011682018060405250810190610daf9190611d81565b91509150600080610dc1888888610f76565b915091506000610e5882610e53868c60a001516001600160a01b0316637121c2736040518163ffffffff1660e01b815260040160206040518083038186803b158015610e0c57600080fd5b505afa158015610e20573d6000803e3d6000fd5b505050506040513d601f19601f82011682018060405250810190610e449190611db4565b6001600160c01b03169061152c565b61153a565b90506000610e688a898488611562565b60208a0151909150600090610eb590610e8a90670de0b6b3a76400009061180d565b60208c0151600290610ea5906001600160c01b03168661152c565b6001600160c01b03169190611819565b905060006001600160c01b0380831690871611610ed3576000610eef565b610eef610ee96001600160c01b0388168461180d565b8561153a565b9050610f066001600160c01b038516896002611819565b6001600160c01b039081168a52610f21908216886002611819565b6001600160c01b031660208a015250969a9950505050505050505050565b6000610f6b6102e6866001600160c01b0316866001600160c01b0316866001600160c01b03168661184c565b90505b949350505050565b60008080805b8451518110156114f3578660a001516001600160a01b031685600001518281518110610faa57610faa612004565b60200260200101516001600160a01b03161415610fc6576114e3565b600085602001518281518110610fde57610fde612004565b60209081029190910101518851604051632ac07b9560e11b81526001600160a01b039182166004820152911690635580f72a9060240160206040518083038186803b15801561102c57600080fd5b505afa158015611040573d6000803e3d6000fd5b505050506040513d601f19601f820116820180604052508101906110649190611db4565b905087608001516001600160a01b03168660000151838151811061108a5761108a612004565b60200260200101516001600160a01b0316141561115657611153866020015183815181106110ba576110ba612004565b602090810291909101015160608a0151604051632ac07b9560e11b81526001600160a01b039182166004820152911690635580f72a9060240160206040518083038186803b15801561110b57600080fd5b505afa15801561111f573d6000803e3d6000fd5b505050506040513d601f19601f820116820180604052508101906111439190611db4565b6001600160c01b038316906118fb565b90505b6000808760200151848151811061116f5761116f612004565b60200260200101516001600160a01b031663a035b1fe6040518163ffffffff1660e01b8152600401604080518083038186803b1580156111ae57600080fd5b505afa1580156111c2573d6000803e3d6000fd5b505050506040513d601f19601f820116820180604052508101906111e69190611d81565b9150915060006112838960200151868151811061120557611205612004565b60200260200101516001600160a01b031663e28a1b866040518163ffffffff1660e01b815260040160206040518083038186803b15801561124557600080fd5b505afa158015611259573d6000803e3d6000fd5b505050506040513d601f19601f8201168201806040525081019061127d9190611db4565b84611907565b905060008b602001516001600160a01b031663a5a5828c8b6000015188815181106112b0576112b0612004565b60200260200101516040518263ffffffff1660e01b81526004016112e391906001600160a01b0391909116815260200190565b60206040518083038186803b1580156112fb57600080fd5b505afa15801561130f573d6000803e3d6000fd5b505050506040513d601f19601f820116820180604052508101906113339190611db4565b90506001600160c01b03811615801561137657506113748a60200151878151811061136057611360612004565b602002602001015186848e60000151611928565b155b156113855750505050506114e3565b61139a6001600160c01b0385168660006119e1565b6113a4908a612030565b8c516040516307a4469760e21b81526001600160c01b03808716600483015288166024820152670de0b6b3a76400006044820152919a506001600160a01b031690631e911a5c9060640160206040518083038186803b15801561140657600080fd5b505afa925050508015611436575060408051601f3d908101601f1916820190925261143391810190611d4c565b60015b611485573d808015611464576040519150601f19603f3d011682016040523d82523d6000602084013e611469565b606091505b50805161147557600080fd5b6001600160c01b039850506114c5565b6001600160c01b03611499828b831661205b565b106114ad576001600160c01b0398506114c3565b6114b681610649565b6114c0908a612030565b98505b505b8a516114db906001600160c01b038916906118fb565b965050505050505b6114ec81612073565b9050610f7c565b506001600160c01b038181169084161161150e576000611521565b6115216001600160c01b0384168261180d565b925050935093915050565b6000610d1d838360016119e1565b6000816001600160c01b0316836001600160c01b03161061155b5781610d1d565b5090919050565b600080826001600160c01b03161161157c5761157c61208e565b83515160005b8181101561180357600087602001516001600160a01b031663a5a5828c886000015184815181106115b5576115b5612004565b60200260200101516040518263ffffffff1660e01b81526004016115e891906001600160a01b0391909116815260200190565b60206040518083038186803b15801561160057600080fd5b505afa158015611614573d6000803e3d6000fd5b505050506040513d601f19601f820116820180604052508101906116389190611db4565b90506001600160c01b03811661164e57506117f3565b60006116666001600160c01b03881683886002610f3f565b905060008860200151848151811061168057611680612004565b60209081029190910101518a51604051632ac07b9560e11b81526001600160a01b039182166004820152911690635580f72a9060240160206040518083038186803b1580156116ce57600080fd5b505afa1580156116e2573d6000803e3d6000fd5b505050506040513d601f19601f820116820180604052508101906117069190611db4565b90506001600160c01b0382811690821610156117ef5760008960200151858151811061173457611734612004565b60200260200101516001600160a01b031663a035b1fe6040518163ffffffff1660e01b8152600401604080518083038186803b15801561177357600080fd5b505afa158015611787573d6000803e3d6000fd5b505050506040513d601f19601f820116820180604052508101906117ab9190611d81565b91506117eb90506117db8260006117cb6001600160c01b0388168761180d565b6001600160c01b031691906119e1565b6001600160c01b038916906118fb565b9650505b5050505b6117fc81612073565b9050611582565b5050949350505050565b6000610d1d82846120a4565b6000610d1a6102e661183c670de0b6b3a76400006001600160c01b0388166120cc565b856001600160c01b031685611a0a565b60008061185a868686611ab4565b90506000836002811115611870576118706120eb565b141561187d579050610f6e565b6000848061188d5761188d612101565b868809905060028460028111156118a6576118a66120eb565b14156118c55780156118c0576118bd60018361205b565b91505b6118f1565b60026118d2600187612117565b6118dc919061212e565b8111156118f1576118ee60018361205b565b91505b5095945050505050565b6000610d1d8284612030565b6000816001600160c01b0316836001600160c01b03161161155b5781610d1d565b600061194a6119378385611b97565b6001600160c01b03908116908616101590565b8015610f6b575060016119d7866001600160a01b0316633cb5d3796040518163ffffffff1660e01b815260040160206040518083038186803b15801561198f57600080fd5b505afa1580156119a3573d6000803e3d6000fd5b505050506040513d601f19601f820116820180604052508101906119c79190612142565b6001600160c01b03871690611be6565b1195945050505050565b6000610d1a6102e66119ff6001600160c01b038087169088166120cc565b670de0b6b3a7640000855b600080611a17848661212e565b90506000836002811115611a2d57611a2d6120eb565b1415611a3a579050610d1d565b6001836002811115611a4e57611a4e6120eb565b1415611a8e576002611a61600186612117565b611a6b919061212e565b611a758587612165565b1115611a895780611a8581612073565b9150505b610d1a565b6000611a9a8587612165565b1115610d1a5780611aaa81612073565b9695505050505050565b6000806000611ac38686611bf4565b91509150838210611ae75760405163f44398f560e01b815260040160405180910390fd5b60008480611af757611af7612101565b868809905081811115611b0b576001830392505b908190039060008590038516808681611b2657611b26612101565b049550808381611b3857611b38612101565b049250808160000381611b4d57611b4d612101565b046001019390930291909101600285810380870282030280870282030280870282030280870282030280870282030280870282030295860290039094029390930295945050505050565b6000806001600160c01b03831615611bc357611bbe6001600160c01b038516846001611819565b611bcc565b6001600160c01b035b90506000816001600160c01b031611610d1d576001610f6e565b6000610d1d83836000611c21565b6000808060001984860990508385029150818103925081811015611c19576001830392505b509250929050565b60006001600160c01b038416611c3957506000610d1d565b6029198360000b13611c72576002826002811115611c5957611c596120eb565b14611c65576000611c68565b60015b60ff169050610d1d565b8260000b606013611c965760405163f44398f560e01b815260040160405180910390fd5b611ca1601284612179565b92506000611cb18460000b611cff565b611cbc90600a612296565b905060008460000b1215611ce357611cde856001600160c01b03168285611a0a565b611cf6565b611cf6816001600160c01b0387166120cc565b95945050505050565b6000808212611d0e57816102eb565b6102eb826122a2565b6001600160a01b0381168114611d2c57600080fd5b50565b600060208284031215611d4157600080fd5b8135610d1d81611d17565b600060208284031215611d5e57600080fd5b5051919050565b80516001600160c01b0381168114611d7c57600080fd5b919050565b60008060408385031215611d9457600080fd5b611d9d83611d65565b9150611dab60208401611d65565b90509250929050565b600060208284031215611dc657600080fd5b610d1d82611d65565b600060208284031215611de157600080fd5b81518015158114610d1d57600080fd5b600060208284031215611e0357600080fd5b8151610d1d81611d17565b634e487b7160e01b600052604160045260246000fd5b6040805190810167ffffffffffffffff81118282101715611e4757611e47611e0e565b60405290565b604051601f8201601f1916810167ffffffffffffffff81118282101715611e7657611e76611e0e565b604052919050565b600067ffffffffffffffff821115611e9857611e98611e0e565b5060051b60200190565b600082601f830112611eb357600080fd5b81516020611ec8611ec383611e7e565b611e4d565b82815260059290921b84018101918181019086841115611ee757600080fd5b8286015b84811015611f0b578051611efe81611d17565b8352918301918301611eeb565b509695505050505050565b60006020808385031215611f2957600080fd5b825167ffffffffffffffff80821115611f4157600080fd5b9084019060408287031215611f5557600080fd5b611f5d611e24565b825182811115611f6c57600080fd5b8301601f81018813611f7d57600080fd5b8051611f8b611ec382611e7e565b81815260059190911b8201860190868101908a831115611faa57600080fd5b928701925b82841015611fd1578351611fc281611d17565b82529287019290870190611faf565b84525050508284015182811115611fe757600080fd5b611ff388828601611ea2565b948201949094529695505050505050565b634e487b7160e01b600052603260045260246000fd5b634e487b7160e01b600052601160045260246000fd5b60006001600160c01b038281168482168083038211156120525761205261201a565b01949350505050565b6000821982111561206e5761206e61201a565b500190565b60006000198214156120875761208761201a565b5060010190565b634e487b7160e01b600052600160045260246000fd5b60006001600160c01b03838116908316818110156120c4576120c461201a565b039392505050565b60008160001904831182151516156120e6576120e661201a565b500290565b634e487b7160e01b600052602160045260246000fd5b634e487b7160e01b600052601260045260246000fd5b6000828210156121295761212961201a565b500390565b60008261213d5761213d612101565b500490565b60006020828403121561215457600080fd5b815160ff81168114610d1d57600080fd5b60008261217457612174612101565b500690565b600081810b83820b8281128015607f1983018412161561219b5761219b61201a565b81607f0183138116156121b0576121b061201a565b5090039392505050565b600181815b80851115611c195781600019048211156121db576121db61201a565b808516156121e857918102915b93841c93908002906121bf565b600082612204575060016102eb565b81612211575060006102eb565b816001811461222757600281146122315761224d565b60019150506102eb565b60ff8411156122425761224261201a565b50506001821b6102eb565b5060208310610133831016604e8410600b8410161715612270575081810a6102eb565b61227a83836121ba565b806000190482111561228e5761228e61201a565b029392505050565b6000610d1d83836121f5565b6000600160ff1b8214156122b8576122b861201a565b506000039056fea26469706673582212209c7c24beb698b11e3b54968ffec4bc202152b66d5e4241eaa76ad152a587ee8a64736f6c63430008090033a26469706673582212201146f9ea730f1dbdd4cfb3a9dc6112477bf14ae13ba5afbe5eeeca17d6034fea64736f6c63430008090033",
  "linkReferences": {},
  "deployedLinkReferences": {}
}