{
  "_format": "hh-sol-artifact-1",
  "contractName": "StaticATokenLM",
  "sourceName": "contracts/reserve/plugins/aave/StaticATokenLM.sol",
  "abi": [
    {
      "inputs": [
        {
          "internalType": "contract ILendingPool",
          "name": "pool",
          "type": "address"
        },
        {
          "internalType": "address",
          "name": "aToken",
          "type": "address"
        },
        {
          "internalType": "string",
          "name": "staticATokenName",
          "type": "string"
        },
        {
          "internalType": "string",
          "name": "staticATokenSymbol",
          "type": "string"
        }
      ],
      "stateMutability": "nonpayable",
      "type": "constructor"
    },
    {
      "anonymous": false,
      "inputs": [
        {
          "indexed": true,
          "internalType": "address",
          "name": "owner",
          "type": "address"
        },
        {
          "indexed": true,
          "internalType": "address",
          "name": "spender",
          "type": "address"
        },
        {
          "indexed": false,
          "internalType": "uint256",
          "name": "value",
          "type": "uint256"
        }
      ],
      "name": "Approval",
      "type": "event"
    },
    {
      "anonymous": false,
      "inputs": [
        {
          "indexed": true,
          "internalType": "address",
          "name": "from",
          "type": "address"
        },
        {
          "indexed": true,
          "internalType": "address",
          "name": "to",
          "type": "address"
        },
        {
          "indexed": false,
          "internalType": "uint256",
          "name": "value",
          "type": "uint256"
        }
      ],
      "name": "Transfer",
      "type": "event"
    },
    {
      "inputs": [],
      "name": "ASSET",
      "outputs": [
        {
          "internalType": "contract IERC20",
          "name": "",
          "type": "address"
        }
      ],
      "stateMutability": "view",
      "type": "function"
    },
    {
      "inputs": [],
      "name": "ATOKEN",
      "outputs": [
        {
          "internalType": "contract IERC20",
          "name": "",
          "type": "address"
        }
      ],
      "stateMutability": "view",
      "type": "function"
    },
    {
      "inputs": [],
      "name": "EIP712_REVISION",
      "outputs": [
        {
          "internalType": "bytes",
          "name": "",
          "type": "bytes"
        }
      ],
      "stateMutability": "view",
      "type": "function"
    },
    {
      "inputs": [],
      "name": "INCENTIVES_CONTROLLER",
      "outputs": [
        {
          "internalType": "contract IAaveIncentivesController",
          "name": "",
          "type": "address"
        }
      ],
      "stateMutability": "view",
      "type": "function"
    },
    {
      "inputs": [],
      "name": "LENDING_POOL",
      "outputs": [
        {
          "internalType": "contract ILendingPool",
          "name": "",
          "type": "address"
        }
      ],
      "stateMutability": "view",
      "type": "function"
    },
    {
      "inputs": [],
      "name": "METADEPOSIT_TYPEHASH",
      "outputs": [
        {
          "internalType": "bytes32",
          "name": "",
          "type": "bytes32"
        }
      ],
      "stateMutability": "view",
      "type": "function"
    },
    {
      "inputs": [],
      "name": "METAWITHDRAWAL_TYPEHASH",
      "outputs": [
        {
          "internalType": "bytes32",
          "name": "",
          "type": "bytes32"
        }
      ],
      "stateMutability": "view",
      "type": "function"
    },
    {
      "inputs": [],
      "name": "PERMIT_TYPEHASH",
      "outputs": [
        {
          "internalType": "bytes32",
          "name": "",
          "type": "bytes32"
        }
      ],
      "stateMutability": "view",
      "type": "function"
    },
    {
      "inputs": [],
      "name": "REWARD_TOKEN",
      "outputs": [
        {
          "internalType": "contract IERC20",
          "name": "",
          "type": "address"
        }
      ],
      "stateMutability": "view",
      "type": "function"
    },
    {
      "inputs": [],
      "name": "STATIC_ATOKEN_LM_REVISION",
      "outputs": [
        {
          "internalType": "uint256",
          "name": "",
          "type": "uint256"
        }
      ],
      "stateMutability": "view",
      "type": "function"
    },
    {
      "inputs": [],
      "name": "UNDERLYING_ASSET_ADDRESS",
      "outputs": [
        {
          "internalType": "address",
          "name": "",
          "type": "address"
        }
      ],
      "stateMutability": "view",
      "type": "function"
    },
    {
      "inputs": [
        {
          "internalType": "address",
          "name": "",
          "type": "address"
        }
      ],
      "name": "_nonces",
      "outputs": [
        {
          "internalType": "uint256",
          "name": "",
          "type": "uint256"
        }
      ],
      "stateMutability": "view",
      "type": "function"
    },
    {
      "inputs": [
        {
          "internalType": "address",
          "name": "owner",
          "type": "address"
        },
        {
          "internalType": "address",
          "name": "spender",
          "type": "address"
        }
      ],
      "name": "allowance",
      "outputs": [
        {
          "internalType": "uint256",
          "name": "",
          "type": "uint256"
        }
      ],
      "stateMutability": "view",
      "type": "function"
    },
    {
      "inputs": [
        {
          "internalType": "address",
          "name": "spender",
          "type": "address"
        },
        {
          "internalType": "uint256",
          "name": "amount",
          "type": "uint256"
        }
      ],
      "name": "approve",
      "outputs": [
        {
          "internalType": "bool",
          "name": "",
          "type": "bool"
        }
      ],
      "stateMutability": "nonpayable",
      "type": "function"
    },
    {
      "inputs": [
        {
          "internalType": "address",
          "name": "account",
          "type": "address"
        }
      ],
      "name": "balanceOf",
      "outputs": [
        {
          "internalType": "uint256",
          "name": "",
          "type": "uint256"
        }
      ],
      "stateMutability": "view",
      "type": "function"
    },
    {
      "inputs": [
        {
          "internalType": "address",
          "name": "receiver",
          "type": "address"
        },
        {
          "internalType": "bool",
          "name": "forceUpdate",
          "type": "bool"
        }
      ],
      "name": "claimRewards",
      "outputs": [],
      "stateMutability": "nonpayable",
      "type": "function"
    },
    {
      "inputs": [
        {
          "internalType": "address",
          "name": "onBehalfOf",
          "type": "address"
        },
        {
          "internalType": "address",
          "name": "receiver",
          "type": "address"
        },
        {
          "internalType": "bool",
          "name": "forceUpdate",
          "type": "bool"
        }
      ],
      "name": "claimRewardsOnBehalf",
      "outputs": [],
      "stateMutability": "nonpayable",
      "type": "function"
    },
    {
      "inputs": [
        {
          "internalType": "bool",
          "name": "forceUpdate",
          "type": "bool"
        }
      ],
      "name": "claimRewardsToSelf",
      "outputs": [],
      "stateMutability": "nonpayable",
      "type": "function"
    },
    {
      "inputs": [],
      "name": "collectAndUpdateRewards",
      "outputs": [],
      "stateMutability": "nonpayable",
      "type": "function"
    },
    {
      "inputs": [],
      "name": "decimals",
      "outputs": [
        {
          "internalType": "uint8",
          "name": "",
          "type": "uint8"
        }
      ],
      "stateMutability": "view",
      "type": "function"
    },
    {
      "inputs": [
        {
          "internalType": "address",
          "name": "spender",
          "type": "address"
        },
        {
          "internalType": "uint256",
          "name": "subtractedValue",
          "type": "uint256"
        }
      ],
      "name": "decreaseAllowance",
      "outputs": [
        {
          "internalType": "bool",
          "name": "",
          "type": "bool"
        }
      ],
      "stateMutability": "nonpayable",
      "type": "function"
    },
    {
      "inputs": [
        {
          "internalType": "address",
          "name": "recipient",
          "type": "address"
        },
        {
          "internalType": "uint256",
          "name": "amount",
          "type": "uint256"
        },
        {
          "internalType": "uint16",
          "name": "referralCode",
          "type": "uint16"
        },
        {
          "internalType": "bool",
          "name": "fromUnderlying",
          "type": "bool"
        }
      ],
      "name": "deposit",
      "outputs": [
        {
          "internalType": "uint256",
          "name": "",
          "type": "uint256"
        }
      ],
      "stateMutability": "nonpayable",
      "type": "function"
    },
    {
      "inputs": [
        {
          "internalType": "address",
          "name": "account",
          "type": "address"
        }
      ],
      "name": "dynamicBalanceOf",
      "outputs": [
        {
          "internalType": "uint256",
          "name": "",
          "type": "uint256"
        }
      ],
      "stateMutability": "view",
      "type": "function"
    },
    {
      "inputs": [
        {
          "internalType": "uint256",
          "name": "amount",
          "type": "uint256"
        }
      ],
      "name": "dynamicToStaticAmount",
      "outputs": [
        {
          "internalType": "uint256",
          "name": "",
          "type": "uint256"
        }
      ],
      "stateMutability": "view",
      "type": "function"
    },
    {
      "inputs": [],
      "name": "getAccRewardsPerToken",
      "outputs": [
        {
          "internalType": "uint256",
          "name": "",
          "type": "uint256"
        }
      ],
      "stateMutability": "view",
      "type": "function"
    },
    {
      "inputs": [
        {
          "internalType": "address",
          "name": "user",
          "type": "address"
        }
      ],
      "name": "getClaimableRewards",
      "outputs": [
        {
          "internalType": "uint256",
          "name": "",
          "type": "uint256"
        }
      ],
      "stateMutability": "view",
      "type": "function"
    },
    {
      "inputs": [],
      "name": "getDomainSeparator",
      "outputs": [
        {
          "internalType": "bytes32",
          "name": "",
          "type": "bytes32"
        }
      ],
      "stateMutability": "view",
      "type": "function"
    },
    {
      "inputs": [],
      "name": "getIncentivesController",
      "outputs": [
        {
          "internalType": "contract IAaveIncentivesController",
          "name": "",
          "type": "address"
        }
      ],
      "stateMutability": "view",
      "type": "function"
    },
    {
      "inputs": [],
      "name": "getLastRewardBlock",
      "outputs": [
        {
          "internalType": "uint256",
          "name": "",
          "type": "uint256"
        }
      ],
      "stateMutability": "view",
      "type": "function"
    },
    {
      "inputs": [],
      "name": "getLifetimeRewards",
      "outputs": [
        {
          "internalType": "uint256",
          "name": "",
          "type": "uint256"
        }
      ],
      "stateMutability": "view",
      "type": "function"
    },
    {
      "inputs": [],
      "name": "getLifetimeRewardsClaimed",
      "outputs": [
        {
          "internalType": "uint256",
          "name": "",
          "type": "uint256"
        }
      ],
      "stateMutability": "view",
      "type": "function"
    },
    {
      "inputs": [],
      "name": "getTotalClaimableRewards",
      "outputs": [
        {
          "internalType": "uint256",
          "name": "",
          "type": "uint256"
        }
      ],
      "stateMutability": "view",
      "type": "function"
    },
    {
      "inputs": [
        {
          "internalType": "address",
          "name": "user",
          "type": "address"
        }
      ],
      "name": "getUnclaimedRewards",
      "outputs": [
        {
          "internalType": "uint256",
          "name": "",
          "type": "uint256"
        }
      ],
      "stateMutability": "view",
      "type": "function"
    },
    {
      "inputs": [
        {
          "internalType": "address",
          "name": "spender",
          "type": "address"
        },
        {
          "internalType": "uint256",
          "name": "addedValue",
          "type": "uint256"
        }
      ],
      "name": "increaseAllowance",
      "outputs": [
        {
          "internalType": "bool",
          "name": "",
          "type": "bool"
        }
      ],
      "stateMutability": "nonpayable",
      "type": "function"
    },
    {
      "inputs": [
        {
          "internalType": "address",
          "name": "depositor",
          "type": "address"
        },
        {
          "internalType": "address",
          "name": "recipient",
          "type": "address"
        },
        {
          "internalType": "uint256",
          "name": "value",
          "type": "uint256"
        },
        {
          "internalType": "uint16",
          "name": "referralCode",
          "type": "uint16"
        },
        {
          "internalType": "bool",
          "name": "fromUnderlying",
          "type": "bool"
        },
        {
          "internalType": "uint256",
          "name": "deadline",
          "type": "uint256"
        },
        {
          "components": [
            {
              "internalType": "uint8",
              "name": "v",
              "type": "uint8"
            },
            {
              "internalType": "bytes32",
              "name": "r",
              "type": "bytes32"
            },
            {
              "internalType": "bytes32",
              "name": "s",
              "type": "bytes32"
            }
          ],
          "internalType": "struct IStaticATokenLM.SignatureParams",
          "name": "sigParams",
          "type": "tuple"
        }
      ],
      "name": "metaDeposit",
      "outputs": [
        {
          "internalType": "uint256",
          "name": "",
          "type": "uint256"
        }
      ],
      "stateMutability": "nonpayable",
      "type": "function"
    },
    {
      "inputs": [
        {
          "internalType": "address",
          "name": "owner",
          "type": "address"
        },
        {
          "internalType": "address",
          "name": "recipient",
          "type": "address"
        },
        {
          "internalType": "uint256",
          "name": "staticAmount",
          "type": "uint256"
        },
        {
          "internalType": "uint256",
          "name": "dynamicAmount",
          "type": "uint256"
        },
        {
          "internalType": "bool",
          "name": "toUnderlying",
          "type": "bool"
        },
        {
          "internalType": "uint256",
          "name": "deadline",
          "type": "uint256"
        },
        {
          "components": [
            {
              "internalType": "uint8",
              "name": "v",
              "type": "uint8"
            },
            {
              "internalType": "bytes32",
              "name": "r",
              "type": "bytes32"
            },
            {
              "internalType": "bytes32",
              "name": "s",
              "type": "bytes32"
            }
          ],
          "internalType": "struct IStaticATokenLM.SignatureParams",
          "name": "sigParams",
          "type": "tuple"
        }
      ],
      "name": "metaWithdraw",
      "outputs": [
        {
          "internalType": "uint256",
          "name": "",
          "type": "uint256"
        },
        {
          "internalType": "uint256",
          "name": "",
          "type": "uint256"
        }
      ],
      "stateMutability": "nonpayable",
      "type": "function"
    },
    {
      "inputs": [],
      "name": "name",
      "outputs": [
        {
          "internalType": "string",
          "name": "",
          "type": "string"
        }
      ],
      "stateMutability": "view",
      "type": "function"
    },
    {
      "inputs": [
        {
          "internalType": "address",
          "name": "owner",
          "type": "address"
        },
        {
          "internalType": "address",
          "name": "spender",
          "type": "address"
        },
        {
          "internalType": "uint256",
          "name": "value",
          "type": "uint256"
        },
        {
          "internalType": "uint256",
          "name": "deadline",
          "type": "uint256"
        },
        {
          "internalType": "uint8",
          "name": "v",
          "type": "uint8"
        },
        {
          "internalType": "bytes32",
          "name": "r",
          "type": "bytes32"
        },
        {
          "internalType": "bytes32",
          "name": "s",
          "type": "bytes32"
        }
      ],
      "name": "permit",
      "outputs": [],
      "stateMutability": "nonpayable",
      "type": "function"
    },
    {
      "inputs": [],
      "name": "rate",
      "outputs": [
        {
          "internalType": "uint256",
          "name": "",
          "type": "uint256"
        }
      ],
      "stateMutability": "view",
      "type": "function"
    },
    {
      "inputs": [
        {
          "internalType": "uint256",
          "name": "amount",
          "type": "uint256"
        }
      ],
      "name": "staticToDynamicAmount",
      "outputs": [
        {
          "internalType": "uint256",
          "name": "",
          "type": "uint256"
        }
      ],
      "stateMutability": "view",
      "type": "function"
    },
    {
      "inputs": [],
      "name": "symbol",
      "outputs": [
        {
          "internalType": "string",
          "name": "",
          "type": "string"
        }
      ],
      "stateMutability": "view",
      "type": "function"
    },
    {
      "inputs": [],
      "name": "totalSupply",
      "outputs": [
        {
          "internalType": "uint256",
          "name": "",
          "type": "uint256"
        }
      ],
      "stateMutability": "view",
      "type": "function"
    },
    {
      "inputs": [
        {
          "internalType": "address",
          "name": "recipient",
          "type": "address"
        },
        {
          "internalType": "uint256",
          "name": "amount",
          "type": "uint256"
        }
      ],
      "name": "transfer",
      "outputs": [
        {
          "internalType": "bool",
          "name": "",
          "type": "bool"
        }
      ],
      "stateMutability": "nonpayable",
      "type": "function"
    },
    {
      "inputs": [
        {
          "internalType": "address",
          "name": "sender",
          "type": "address"
        },
        {
          "internalType": "address",
          "name": "recipient",
          "type": "address"
        },
        {
          "internalType": "uint256",
          "name": "amount",
          "type": "uint256"
        }
      ],
      "name": "transferFrom",
      "outputs": [
        {
          "internalType": "bool",
          "name": "",
          "type": "bool"
        }
      ],
      "stateMutability": "nonpayable",
      "type": "function"
    },
    {
      "inputs": [
        {
          "internalType": "address",
          "name": "recipient",
          "type": "address"
        },
        {
          "internalType": "uint256",
          "name": "amount",
          "type": "uint256"
        },
        {
          "internalType": "bool",
          "name": "toUnderlying",
          "type": "bool"
        }
      ],
      "name": "withdraw",
      "outputs": [
        {
          "internalType": "uint256",
          "name": "",
          "type": "uint256"
        },
        {
          "internalType": "uint256",
          "name": "",
          "type": "uint256"
        }
      ],
      "stateMutability": "nonpayable",
      "type": "function"
    },
    {
      "inputs": [
        {
          "internalType": "address",
          "name": "recipient",
          "type": "address"
        },
        {
          "internalType": "uint256",
          "name": "amount",
          "type": "uint256"
        },
        {
          "internalType": "bool",
          "name": "toUnderlying",
          "type": "bool"
        }
      ],
      "name": "withdrawDynamicAmount",
      "outputs": [
        {
          "internalType": "uint256",
          "name": "",
          "type": "uint256"
        },
        {
          "internalType": "uint256",
          "name": "",
          "type": "uint256"
        }
      ],
      "stateMutability": "nonpayable",
      "type": "function"
    }
  ],
  "bytecode": "0x60806040523480156200001157600080fd5b5060405162006e8238038062006e82833981810160405281019062000037919062000adf565b6040518060400160405280601281526020017f5354415449435f41544f4b454e5f494d504c00000000000000000000000000008152506040518060400160405280601281526020017f5354415449435f41544f4b454e5f494d504c000000000000000000000000000081525060016000819055508160049080519060200190620000c3929190620008cf565b508060059080519060200190620000dc929190620008cf565b506012600660006101000a81548160ff021916908360ff160217905550505083600660016101000a81548173ffffffffffffffffffffffffffffffffffffffff021916908373ffffffffffffffffffffffffffffffffffffffff16021790555082600860006101000a81548173ffffffffffffffffffffffffffffffffffffffff021916908373ffffffffffffffffffffffffffffffffffffffff160217905550816004908051906020019062000195929190620008cf565b508060059080519060200190620001ae929190620008cf565b50620002418373ffffffffffffffffffffffffffffffffffffffff1663313ce5676040518163ffffffff1660e01b815260040160206040518083038186803b158015620001fa57600080fd5b505afa1580156200020f573d6000803e3d6000fd5b505050506040513d601f19601f8201168201806040525081019062000235919062000ba9565b6200056460201b60201c565b8273ffffffffffffffffffffffffffffffffffffffff166375d264136040518163ffffffff1660e01b815260040160206040518083038186803b1580156200028857600080fd5b505afa925050508015620002bc57506040513d601f19601f82011682018060405250810190620002b9919062000ab3565b60015b620002c75762000424565b600073ffffffffffffffffffffffffffffffffffffffff168173ffffffffffffffffffffffffffffffffffffffff1614620004225780600760006101000a81548173ffffffffffffffffffffffffffffffffffffffff021916908373ffffffffffffffffffffffffffffffffffffffff160217905550600760009054906101000a900473ffffffffffffffffffffffffffffffffffffffff1673ffffffffffffffffffffffffffffffffffffffff166399248ea76040518163ffffffff1660e01b815260040160206040518083038186803b158015620003a657600080fd5b505afa158015620003bb573d6000803e3d6000fd5b505050506040513d601f19601f82011682018060405250810190620003e1919062000a5b565b600a60006101000a81548173ffffffffffffffffffffffffffffffffffffffff021916908373ffffffffffffffffffffffffffffffffffffffff1602179055505b505b8273ffffffffffffffffffffffffffffffffffffffff1663b16a19de6040518163ffffffff1660e01b815260040160206040518083038186803b1580156200046b57600080fd5b505afa15801562000480573d6000803e3d6000fd5b505050506040513d601f19601f82011682018060405250810190620004a6919062000a5b565b600960006101000a81548173ffffffffffffffffffffffffffffffffffffffff021916908373ffffffffffffffffffffffffffffffffffffffff1602179055506200055a847fffffffffffffffffffffffffffffffffffffffffffffffffffffffffffffffff600960009054906101000a900473ffffffffffffffffffffffffffffffffffffffff1673ffffffffffffffffffffffffffffffffffffffff166200058260201b62002519179092919060201c565b5050505062001050565b80600660006101000a81548160ff021916908360ff16021790555050565b600081148062000622575060008373ffffffffffffffffffffffffffffffffffffffff1663dd62ed3e30856040518363ffffffff1660e01b8152600401620005cc92919062000d9b565b60206040518083038186803b158015620005e557600080fd5b505afa158015620005fa573d6000803e3d6000fd5b505050506040513d601f19601f8201168201806040525081019062000620919062000b7d565b145b62000664576040517f08c379a00000000000000000000000000000000000000000000000000000000081526004016200065b9062000e39565b60405180910390fd5b620006ef8363095ea7b360e01b84846040516024016200068692919062000dc8565b604051602081830303815290604052907bffffffffffffffffffffffffffffffffffffffffffffffffffffffff19166020820180517bffffffffffffffffffffffffffffffffffffffffffffffffffffffff8381831617835250505050620006f460201b60201c565b505050565b620007208273ffffffffffffffffffffffffffffffffffffffff166200088360201b620026771760201c565b62000762576040517f08c379a0000000000000000000000000000000000000000000000000000000008152600401620007599062000e5b565b60405180910390fd5b600060608373ffffffffffffffffffffffffffffffffffffffff16836040516200078d919062000d82565b6000604051808303816000865af19150503d8060008114620007cc576040519150601f19603f3d011682016040523d82523d6000602084013e620007d1565b606091505b50915091508162000819576040517f08c379a0000000000000000000000000000000000000000000000000000000008152600401620008109062000df5565b60405180910390fd5b6000815111156200087d57808060200190518101906200083a919062000a87565b6200087c576040517f08c379a0000000000000000000000000000000000000000000000000000000008152600401620008739062000e17565b60405180910390fd5b5b50505050565b60008060007fc5d2460186f7233c927e7db2dcc703c0e500b653ca82273b7bfad8045d85a47060001b9050833f9150808214158015620008c657506000801b8214155b92505050919050565b828054600181600116156101000203166002900490600052602060002090601f016020900481019282601f106200091257805160ff191683800117855562000943565b8280016001018555821562000943579182015b828111156200094257825182559160200191906001019062000925565b5b50905062000952919062000956565b5090565b5b808211156200097157600081600090555060010162000957565b5090565b600081519050620009868162000fb4565b92915050565b6000815190506200099d8162000fce565b92915050565b600081519050620009b48162000fe8565b92915050565b600081519050620009cb8162001002565b92915050565b600082601f830112620009e357600080fd5b8151620009fa620009f48262000eab565b62000e7d565b9150808252602083016020830185838301111562000a1757600080fd5b62000a2483828462000f7e565b50505092915050565b60008151905062000a3e816200101c565b92915050565b60008151905062000a558162001036565b92915050565b60006020828403121562000a6e57600080fd5b600062000a7e8482850162000975565b91505092915050565b60006020828403121562000a9a57600080fd5b600062000aaa848285016200098c565b91505092915050565b60006020828403121562000ac657600080fd5b600062000ad684828501620009a3565b91505092915050565b6000806000806080858703121562000af657600080fd5b600062000b0687828801620009ba565b945050602062000b198782880162000975565b935050604085015167ffffffffffffffff81111562000b3757600080fd5b62000b4587828801620009d1565b925050606085015167ffffffffffffffff81111562000b6357600080fd5b62000b7187828801620009d1565b91505092959194509250565b60006020828403121562000b9057600080fd5b600062000ba08482850162000a2d565b91505092915050565b60006020828403121562000bbc57600080fd5b600062000bcc8482850162000a44565b91505092915050565b62000be08162000eff565b82525050565b600062000bf38262000ed8565b62000bff818562000ee3565b935062000c1181856020860162000f7e565b80840191505092915050565b600062000c2c60208362000eee565b91507f5361666545524332303a206c6f772d6c6576656c2063616c6c206661696c65646000830152602082019050919050565b600062000c6e602a8362000eee565b91507f5361666545524332303a204552433230206f7065726174696f6e20646964206e60008301527f6f742073756363656564000000000000000000000000000000000000000000006020830152604082019050919050565b600062000cd660368362000eee565b91507f5361666545524332303a20617070726f76652066726f6d206e6f6e2d7a65726f60008301527f20746f206e6f6e2d7a65726f20616c6c6f77616e6365000000000000000000006020830152604082019050919050565b600062000d3e601f8362000eee565b91507f5361666545524332303a2063616c6c20746f206e6f6e2d636f6e7472616374006000830152602082019050919050565b62000d7c8162000f67565b82525050565b600062000d90828462000be6565b915081905092915050565b600060408201905062000db2600083018562000bd5565b62000dc1602083018462000bd5565b9392505050565b600060408201905062000ddf600083018562000bd5565b62000dee602083018462000d71565b9392505050565b6000602082019050818103600083015262000e108162000c1d565b9050919050565b6000602082019050818103600083015262000e328162000c5f565b9050919050565b6000602082019050818103600083015262000e548162000cc7565b9050919050565b6000602082019050818103600083015262000e768162000d2f565b9050919050565b6000604051905081810181811067ffffffffffffffff8211171562000ea157600080fd5b8060405250919050565b600067ffffffffffffffff82111562000ec357600080fd5b601f19601f8301169050602081019050919050565b600081519050919050565b600081905092915050565b600082825260208201905092915050565b600062000f0c8262000f47565b9050919050565b60008115159050919050565b600062000f2c8262000eff565b9050919050565b600062000f408262000eff565b9050919050565b600073ffffffffffffffffffffffffffffffffffffffff82169050919050565b6000819050919050565b600060ff82169050919050565b60005b8381101562000f9e57808201518184015260208101905062000f81565b8381111562000fae576000848401525b50505050565b62000fbf8162000eff565b811462000fcb57600080fd5b50565b62000fd98162000f13565b811462000fe557600080fd5b50565b62000ff38162000f1f565b811462000fff57600080fd5b50565b6200100d8162000f33565b81146200101957600080fd5b50565b620010278162000f67565b81146200103357600080fd5b50565b620010418162000f71565b81146200104d57600080fd5b50565b615e2280620010606000396000f3fe608060405234801561001057600080fd5b506004361061028a5760003560e01c806369a69e291161015c578063b16a19de116100ce578063d505accf11610087578063d505accf14610837578063dd05aa1214610853578063dd62ed3e1461086f578063ead5d3591461089f578063ed24911d146108d0578063f57d0b40146108ee5761028a565b8063b16a19de1461075f578063b3a590221461077d578063b4dcfc771461079b578063b9844d8d146107b9578063bf62bee6146107e9578063c485852b146108075761028a565b80638d948415116101205780638d9484151461068757806395d89b41146106a557806399248ea7146106c3578063a135a55e146106e1578063a457c2d7146106ff578063a9059cbb1461072f5761028a565b806369a69e29146105cd57806370a08231146105fd57806375d264131461062d578063781603761461064b5780637f372cff146106695761028a565b806331a5cfa4116102005780634800d97f116101b95780634800d97f14610508578063491c011a1461052657806351c0e06114610542578063602665571461056057806361d0494d1461059157806363210537146105af5761028a565b806331a5cfa41461043457806336a5a6d61461045257806339509351146104825780633eb2eba6146104b257806344b68c3f146104bc57806345c1ace7146104ec5761028a565b8063288587ce11610252578063288587ce146103495780632c4e722e1461037a5780632f2cab8714610398578063308e401e146103c857806330adf81f146103f8578063313ce567146104165761028a565b806306fdde031461028f578063095ea7b3146102ad57806310d0ab22146102dd57806318160ddd146102fb57806323b872dd14610319575b600080fd5b61029761091e565b6040516102a4919061591e565b60405180910390f35b6102c760048036038101906102c29190614cd9565b6109c0565b6040516102d49190615680565b60405180910390f35b6102e56109de565b6040516102f291906158cd565b60405180910390f35b610303610a04565b6040516103109190615ac0565b60405180910390f35b610333600480360381019061032e9190614a72565b610a0e565b6040516103409190615680565b60405180910390f35b610363600480360381019061035e9190614d15565b610ae7565b604051610371929190615adb565b60405180910390f35b610382610b5a565b60405161038f9190615ac0565b60405180910390f35b6103b260048036038101906103ad9190614d64565b610c2e565b6040516103bf9190615ac0565b60405180910390f35b6103e260048036038101906103dd9190614995565b610c9d565b6040516103ef9190615ac0565b60405180910390f35b610400610cba565b60405161040d919061569b565b60405180910390f35b61041e610cde565b60405161042b9190615b04565b60405180910390f35b61043c610cf5565b6040516104499190615ac0565b60405180910390f35b61046c60048036038101906104679190614e19565b610cff565b6040516104799190615ac0565b60405180910390f35b61049c60048036038101906104979190614cd9565b610d19565b6040516104a99190615680565b60405180910390f35b6104ba610dcc565b005b6104d660048036038101906104d19190614995565b610e2c565b6040516104e39190615ac0565b60405180910390f35b61050660048036038101906105019190614dc7565b610e4e565b005b610510610f0f565b60405161051d91906158e8565b60405180910390f35b610540600480360381019061053b9190614c9d565b610f35565b005b61054a610ff7565b60405161055791906158e8565b60405180910390f35b61057a60048036038101906105759190614b60565b61101d565b604051610588929190615adb565b60405180910390f35b6105996113ec565b6040516105a69190615ac0565b60405180910390f35b6105b76113f1565b6040516105c4919061569b565b60405180910390f35b6105e760048036038101906105e29190614995565b611415565b6040516105f49190615ac0565b60405180910390f35b61061760048036038101906106129190614995565b611466565b6040516106249190615ac0565b60405180910390f35b6106356114af565b60405161064291906158cd565b60405180910390f35b6106536114d9565b60405161066091906158ab565b60405180910390f35b610671611512565b60405161067e9190615ac0565b60405180910390f35b61068f61179f565b60405161069c919061569b565b60405180910390f35b6106ad6117c3565b6040516106ba919061591e565b60405180910390f35b6106cb611865565b6040516106d891906158e8565b60405180910390f35b6106e961188b565b6040516106f69190615ac0565b60405180910390f35b61071960048036038101906107149190614cd9565b611895565b6040516107269190615680565b60405180910390f35b61074960048036038101906107449190614cd9565b611962565b6040516107569190615680565b60405180910390f35b610767611980565b60405161077491906154f2565b60405180910390f35b6107856119aa565b6040516107929190615ac0565b60405180910390f35b6107a36119b4565b6040516107b09190615903565b60405180910390f35b6107d360048036038101906107ce9190614995565b6119da565b6040516107e09190615ac0565b60405180910390f35b6107f16119f2565b6040516107fe9190615ac0565b60405180910390f35b610821600480360381019061081c9190614ac1565b6119fc565b60405161082e9190615ac0565b60405180910390f35b610851600480360381019061084c9190614bff565b611dc7565b005b61086d60048036038101906108689190614a23565b612116565b005b610889600480360381019061088491906149e7565b612360565b6040516108969190615ac0565b60405180910390f35b6108b960048036038101906108b49190614d15565b6123e7565b6040516108c7929190615adb565b60405180910390f35b6108d861245a565b6040516108e5919061569b565b60405180910390f35b61090860048036038101906109039190614e19565b6124ff565b6040516109159190615ac0565b60405180910390f35b606060048054600181600116156101000203166002900480601f0160208091040260200160405190810160405280929190818152602001828054600181600116156101000203166002900480156109b65780601f1061098b576101008083540402835291602001916109b6565b820191906000526020600020905b81548152906001019060200180831161099957829003601f168201915b5050505050905090565b60006109d46109cd6126c2565b84846126ca565b6001905092915050565b600760009054906101000a900473ffffffffffffffffffffffffffffffffffffffff1681565b6000600354905090565b6000610a1b848484612895565b610adc84610a276126c2565b610ad785604051806060016040528060288152602001615da060289139600260008b73ffffffffffffffffffffffffffffffffffffffff1673ffffffffffffffffffffffffffffffffffffffff1681526020019081526020016000206000610a8d6126c2565b73ffffffffffffffffffffffffffffffffffffffff1673ffffffffffffffffffffffffffffffffffffffff16815260200190815260200160002054612b2e9092919063ffffffff16565b6126ca565b600190509392505050565b60008060026000541415610b30576040517f08c379a0000000000000000000000000000000000000000000000000000000008152600401610b2790615a40565b60405180910390fd5b6002600081905550610b46338660008787612b89565b915091506001600081905550935093915050565b6000600660019054906101000a900473ffffffffffffffffffffffffffffffffffffffff1673ffffffffffffffffffffffffffffffffffffffff1663d15e0053600960009054906101000a900473ffffffffffffffffffffffffffffffffffffffff166040518263ffffffff1660e01b8152600401610bd991906154f2565b60206040518083038186803b158015610bf157600080fd5b505afa158015610c05573d6000803e3d6000fd5b505050506040513d601f19601f82011682018060405250810190610c299190614e42565b905090565b600060026000541415610c76576040517f08c379a0000000000000000000000000000000000000000000000000000000008152600401610c6d90615a40565b60405180910390fd5b6002600081905550610c8b3386868686612e90565b90506001600081905550949350505050565b6000610cb382610cac84611466565b60016130cd565b9050919050565b7f6e71edae12b1b97f4d1f60370fef10105fa2faae0126114a169c64845d6126c981565b6000600660009054906101000a900460ff16905090565b6000600d54905090565b6000610d1282610d0d610b5a565b613141565b9050919050565b6000610dc2610d266126c2565b84610dbd8560026000610d376126c2565b73ffffffffffffffffffffffffffffffffffffffff1673ffffffffffffffffffffffffffffffffffffffff16815260200190815260200160002060008973ffffffffffffffffffffffffffffffffffffffff1673ffffffffffffffffffffffffffffffffffffffff1681526020019081526020016000205461315e90919063ffffffff16565b6126ca565b6001905092915050565b60026000541415610e12576040517f08c379a0000000000000000000000000000000000000000000000000000000008152600401610e0990615a40565b60405180910390fd5b6002600081905550610e226131b3565b6001600081905550565b6000610e47610e3a83611466565b610e42610b5a565b613452565b9050919050565b60026000541415610e94576040517f08c379a0000000000000000000000000000000000000000000000000000000008152600401610e8b90615a40565b60405180910390fd5b6002600081905550600073ffffffffffffffffffffffffffffffffffffffff16600760009054906101000a900473ffffffffffffffffffffffffffffffffffffffff1673ffffffffffffffffffffffffffffffffffffffff161415610ef857610f04565b610f0333338361346f565b5b600160008190555050565b600960009054906101000a900473ffffffffffffffffffffffffffffffffffffffff1681565b60026000541415610f7b576040517f08c379a0000000000000000000000000000000000000000000000000000000008152600401610f7290615a40565b60405180910390fd5b6002600081905550600073ffffffffffffffffffffffffffffffffffffffff16600760009054906101000a900473ffffffffffffffffffffffffffffffffffffffff1673ffffffffffffffffffffffffffffffffffffffff161415610fdf57610feb565b610fea33838361346f565b5b60016000819055505050565b600860009054906101000a900473ffffffffffffffffffffffffffffffffffffffff1681565b60008060026000541415611066576040517f08c379a000000000000000000000000000000000000000000000000000000000815260040161105d90615a40565b60405180910390fd5b6002600081905550600073ffffffffffffffffffffffffffffffffffffffff168973ffffffffffffffffffffffffffffffffffffffff1614156040518060400160405280600181526020017f310000000000000000000000000000000000000000000000000000000000000081525090611116576040517f08c379a000000000000000000000000000000000000000000000000000000000815260040161110d919061591e565b60405180910390fd5b50834211156040518060400160405280600181526020017f320000000000000000000000000000000000000000000000000000000000000081525090611192576040517f08c379a0000000000000000000000000000000000000000000000000000000008152600401611189919061591e565b60405180910390fd5b506000600b60008b73ffffffffffffffffffffffffffffffffffffffff1673ffffffffffffffffffffffffffffffffffffffff16815260200190815260200160002054905060006111e161245a565b7fce21806401473655533a882461ca5036529d194f238d3c1793817a552bd133a58c8c8c8c8c888d604051602001611220989796959493929190615734565b604051602081830303815290604052805190602001206040516020016112479291906154bb565b6040516020818303038152906040528051906020012090506001818660000160208101906112759190614e6b565b876020013588604001356040516000815260200160405260405161129c9493929190615866565b6020604051602081039080840390855afa1580156112be573d6000803e3d6000fd5b5050506020604051035173ffffffffffffffffffffffffffffffffffffffff168b73ffffffffffffffffffffffffffffffffffffffff16146040518060400160405280600181526020017f33000000000000000000000000000000000000000000000000000000000000008152509061136d576040517f08c379a0000000000000000000000000000000000000000000000000000000008152600401611364919061591e565b60405180910390fd5b5061138260018361315e90919063ffffffff16565b600b60008d73ffffffffffffffffffffffffffffffffffffffff1673ffffffffffffffffffffffffffffffffffffffff168152602001908152602001600020819055506113d28b8b8b8b8b612b89565b935093505050600160008190555097509795505050505050565b600181565b7f4dab0a5e832f103ac80c9c3e51e5742f8a24aa0a3d941fe91c64e1e3db50c74381565b600061145f601160008473ffffffffffffffffffffffffffffffffffffffff1673ffffffffffffffffffffffffffffffffffffffff16815260200190815260200160002054613603565b9050919050565b6000600160008373ffffffffffffffffffffffffffffffffffffffff1673ffffffffffffffffffffffffffffffffffffffff168152602001908152602001600020549050919050565b6000600760009054906101000a900473ffffffffffffffffffffffffffffffffffffffff16905090565b6040518060400160405280600181526020017f310000000000000000000000000000000000000000000000000000000000000081525081565b60008073ffffffffffffffffffffffffffffffffffffffff16600760009054906101000a900473ffffffffffffffffffffffffffffffffffffffff1673ffffffffffffffffffffffffffffffffffffffff161415611573576000905061179c565b6060600167ffffffffffffffff8111801561158d57600080fd5b506040519080825280602002602001820160405280156115bc5781602001602082028036833780820191505090505b509050600860009054906101000a900473ffffffffffffffffffffffffffffffffffffffff16816000815181106115ef57fe5b602002602001019073ffffffffffffffffffffffffffffffffffffffff16908173ffffffffffffffffffffffffffffffffffffffff16815250506000600760009054906101000a900473ffffffffffffffffffffffffffffffffffffffff1673ffffffffffffffffffffffffffffffffffffffff16638b599f2683306040518363ffffffff1660e01b8152600401611688929190615612565b60206040518083038186803b1580156116a057600080fd5b505afa1580156116b4573d6000803e3d6000fd5b505050506040513d601f19601f820116820180604052508101906116d89190614e42565b905061179781600a60009054906101000a900473ffffffffffffffffffffffffffffffffffffffff1673ffffffffffffffffffffffffffffffffffffffff166370a08231306040518263ffffffff1660e01b815260040161173991906154f2565b60206040518083038186803b15801561175157600080fd5b505afa158015611765573d6000803e3d6000fd5b505050506040513d601f19601f820116820180604052508101906117899190614e42565b61315e90919063ffffffff16565b925050505b90565b7fce21806401473655533a882461ca5036529d194f238d3c1793817a552bd133a581565b606060058054600181600116156101000203166002900480601f01602080910402602001604051908101604052809291908181526020018280546001816001161561010002031660029004801561185b5780601f106118305761010080835404028352916020019161185b565b820191906000526020600020905b81548152906001019060200180831161183e57829003601f168201915b5050505050905090565b600a60009054906101000a900473ffffffffffffffffffffffffffffffffffffffff1681565b6000600c54905090565b60006119586118a26126c2565b8461195385604051806060016040528060258152602001615dc860259139600260006118cc6126c2565b73ffffffffffffffffffffffffffffffffffffffff1673ffffffffffffffffffffffffffffffffffffffff16815260200190815260200160002060008a73ffffffffffffffffffffffffffffffffffffffff1673ffffffffffffffffffffffffffffffffffffffff16815260200190815260200160002054612b2e9092919063ffffffff16565b6126ca565b6001905092915050565b600061197661196f6126c2565b8484612895565b6001905092915050565b6000600960009054906101000a900473ffffffffffffffffffffffffffffffffffffffff16905090565b6000600e54905090565b600660019054906101000a900473ffffffffffffffffffffffffffffffffffffffff1681565b600b6020528060005260406000206000915090505481565b6000600f54905090565b600060026000541415611a44576040517f08c379a0000000000000000000000000000000000000000000000000000000008152600401611a3b90615a40565b60405180910390fd5b6002600081905550600073ffffffffffffffffffffffffffffffffffffffff168873ffffffffffffffffffffffffffffffffffffffff1614156040518060400160405280600181526020017f340000000000000000000000000000000000000000000000000000000000000081525090611af4576040517f08c379a0000000000000000000000000000000000000000000000000000000008152600401611aeb919061591e565b60405180910390fd5b50824211156040518060400160405280600181526020017f320000000000000000000000000000000000000000000000000000000000000081525090611b70576040517f08c379a0000000000000000000000000000000000000000000000000000000008152600401611b67919061591e565b60405180910390fd5b506000600b60008a73ffffffffffffffffffffffffffffffffffffffff1673ffffffffffffffffffffffffffffffffffffffff1681526020019081526020016000205490506000611bbf61245a565b7f4dab0a5e832f103ac80c9c3e51e5742f8a24aa0a3d941fe91c64e1e3db50c7438b8b8b8b8b888c604051602001611bfe9897969594939291906156b6565b60405160208183030381529060405280519060200120604051602001611c259291906154bb565b604051602081830303815290604052805190602001209050600181856000016020810190611c539190614e6b565b8660200135876040013560405160008152602001604052604051611c7a9493929190615866565b6020604051602081039080840390855afa158015611c9c573d6000803e3d6000fd5b5050506020604051035173ffffffffffffffffffffffffffffffffffffffff168a73ffffffffffffffffffffffffffffffffffffffff16146040518060400160405280600181526020017f330000000000000000000000000000000000000000000000000000000000000081525090611d4b576040517f08c379a0000000000000000000000000000000000000000000000000000000008152600401611d42919061591e565b60405180910390fd5b50611d6060018361315e90919063ffffffff16565b600b60008c73ffffffffffffffffffffffffffffffffffffffff1673ffffffffffffffffffffffffffffffffffffffff16815260200190815260200160002081905550611db08a8a8a8a8a612e90565b925050506001600081905550979650505050505050565b600073ffffffffffffffffffffffffffffffffffffffff168773ffffffffffffffffffffffffffffffffffffffff1614156040518060400160405280600181526020017f310000000000000000000000000000000000000000000000000000000000000081525090611e6f576040517f08c379a0000000000000000000000000000000000000000000000000000000008152600401611e66919061591e565b60405180910390fd5b50834211156040518060400160405280600181526020017f320000000000000000000000000000000000000000000000000000000000000081525090611eeb576040517f08c379a0000000000000000000000000000000000000000000000000000000008152600401611ee2919061591e565b60405180910390fd5b506000600b60008973ffffffffffffffffffffffffffffffffffffffff1673ffffffffffffffffffffffffffffffffffffffff1681526020019081526020016000205490506000611f3a61245a565b7f6e71edae12b1b97f4d1f60370fef10105fa2faae0126114a169c64845d6126c98a8a8a868b604051602001611f75969594939291906157b2565b60405160208183030381529060405280519060200120604051602001611f9c9291906154bb565b60405160208183030381529060405280519060200120905060018186868660405160008152602001604052604051611fd79493929190615866565b6020604051602081039080840390855afa158015611ff9573d6000803e3d6000fd5b5050506020604051035173ffffffffffffffffffffffffffffffffffffffff168973ffffffffffffffffffffffffffffffffffffffff16146040518060400160405280600181526020017f3300000000000000000000000000000000000000000000000000000000000000815250906120a8576040517f08c379a000000000000000000000000000000000000000000000000000000000815260040161209f919061591e565b60405180910390fd5b506120bd60018361315e90919063ffffffff16565b600b60008b73ffffffffffffffffffffffffffffffffffffffff1673ffffffffffffffffffffffffffffffffffffffff1681526020019081526020016000208190555061210b8989896126ca565b505050505050505050565b6002600054141561215c576040517f08c379a000000000000000000000000000000000000000000000000000000000815260040161215390615a40565b60405180910390fd5b6002600081905550600073ffffffffffffffffffffffffffffffffffffffff16600760009054906101000a900473ffffffffffffffffffffffffffffffffffffffff1673ffffffffffffffffffffffffffffffffffffffff1614156121c057612353565b8273ffffffffffffffffffffffffffffffffffffffff163373ffffffffffffffffffffffffffffffffffffffff1614806122cf5750600760009054906101000a900473ffffffffffffffffffffffffffffffffffffffff1673ffffffffffffffffffffffffffffffffffffffff166374d945ec846040518263ffffffff1660e01b815260040161225091906154f2565b60206040518083038186803b15801561226857600080fd5b505afa15801561227c573d6000803e3d6000fd5b505050506040513d601f19601f820116820180604052508101906122a091906149be565b73ffffffffffffffffffffffffffffffffffffffff163373ffffffffffffffffffffffffffffffffffffffff16145b6040518060400160405280600181526020017f360000000000000000000000000000000000000000000000000000000000000081525090612346576040517f08c379a000000000000000000000000000000000000000000000000000000000815260040161233d919061591e565b60405180910390fd5b5061235283838361346f565b5b6001600081905550505050565b6000600260008473ffffffffffffffffffffffffffffffffffffffff1673ffffffffffffffffffffffffffffffffffffffff16815260200190815260200160002060008373ffffffffffffffffffffffffffffffffffffffff1673ffffffffffffffffffffffffffffffffffffffff16815260200190815260200160002054905092915050565b60008060026000541415612430576040517f08c379a000000000000000000000000000000000000000000000000000000000815260040161242790615a40565b60405180910390fd5b6002600081905550612446338686600087612b89565b915091506001600081905550935093915050565b6000804690507f8b73c3c69bb8fe3d512ecc4cf759cc79239f7b179b0ffacaa9a75d522b39400f61248961091e565b805190602001206040518060400160405280600181526020017f31000000000000000000000000000000000000000000000000000000000000008152508051906020012083306040516020016124e3959493929190615813565b6040516020818303038152906040528051906020012091505090565b60006125128261250d610b5a565b613452565b9050919050565b60008114806125b2575060008373ffffffffffffffffffffffffffffffffffffffff1663dd62ed3e30856040518363ffffffff1660e01b815260040161256092919061550d565b60206040518083038186803b15801561257857600080fd5b505afa15801561258c573d6000803e3d6000fd5b505050506040513d601f19601f820116820180604052508101906125b09190614e42565b145b6125f1576040517f08c379a00000000000000000000000000000000000000000000000000000000081526004016125e890615a60565b60405180910390fd5b6126728363095ea7b360e01b848460405160240161261092919061556d565b604051602081830303815290604052907bffffffffffffffffffffffffffffffffffffffffffffffffffffffff19166020820180517bffffffffffffffffffffffffffffffffffffffffffffffffffffffff838183161783525050505061361a565b505050565b60008060007fc5d2460186f7233c927e7db2dcc703c0e500b653ca82273b7bfad8045d85a47060001b9050833f91508082141580156126b957506000801b8214155b92505050919050565b600033905090565b600073ffffffffffffffffffffffffffffffffffffffff168373ffffffffffffffffffffffffffffffffffffffff16141561273a576040517f08c379a000000000000000000000000000000000000000000000000000000000815260040161273190615a00565b60405180910390fd5b600073ffffffffffffffffffffffffffffffffffffffff168273ffffffffffffffffffffffffffffffffffffffff1614156127aa576040517f08c379a00000000000000000000000000000000000000000000000000000000081526004016127a190615960565b60405180910390fd5b80600260008573ffffffffffffffffffffffffffffffffffffffff1673ffffffffffffffffffffffffffffffffffffffff16815260200190815260200160002060008473ffffffffffffffffffffffffffffffffffffffff1673ffffffffffffffffffffffffffffffffffffffff168152602001908152602001600020819055508173ffffffffffffffffffffffffffffffffffffffff168373ffffffffffffffffffffffffffffffffffffffff167f8c5be1e5ebec7d5bd14f71427d1e84f3dd0314c0f7b2291e5b200ac8c7c3b925836040516128889190615ac0565b60405180910390a3505050565b600073ffffffffffffffffffffffffffffffffffffffff168373ffffffffffffffffffffffffffffffffffffffff161415612905576040517f08c379a00000000000000000000000000000000000000000000000000000000081526004016128fc906159e0565b60405180910390fd5b600073ffffffffffffffffffffffffffffffffffffffff168273ffffffffffffffffffffffffffffffffffffffff161415612975576040517f08c379a000000000000000000000000000000000000000000000000000000000815260040161296c90615940565b60405180910390fd5b61298083838361378c565b6129ec81604051806060016040528060268152602001615d7a60269139600160008773ffffffffffffffffffffffffffffffffffffffff1673ffffffffffffffffffffffffffffffffffffffff16815260200190815260200160002054612b2e9092919063ffffffff16565b600160008573ffffffffffffffffffffffffffffffffffffffff1673ffffffffffffffffffffffffffffffffffffffff16815260200190815260200160002081905550612a8181600160008573ffffffffffffffffffffffffffffffffffffffff1673ffffffffffffffffffffffffffffffffffffffff1681526020019081526020016000205461315e90919063ffffffff16565b600160008473ffffffffffffffffffffffffffffffffffffffff1673ffffffffffffffffffffffffffffffffffffffff168152602001908152602001600020819055508173ffffffffffffffffffffffffffffffffffffffff168373ffffffffffffffffffffffffffffffffffffffff167fddf252ad1be2c89b69c2b068fc378daa952ba7f163c4a11628f55a4df523b3ef83604051612b219190615ac0565b60405180910390a3505050565b6000838311158290612b76576040517f08c379a0000000000000000000000000000000000000000000000000000000008152600401612b6d919061591e565b60405180910390fd5b5060008385039050809150509392505050565b600080600073ffffffffffffffffffffffffffffffffffffffff168673ffffffffffffffffffffffffffffffffffffffff1614156040518060400160405280600181526020017f350000000000000000000000000000000000000000000000000000000000000081525090612c34576040517f08c379a0000000000000000000000000000000000000000000000000000000008152600401612c2b919061591e565b60405180910390fd5b506000851480612c445750600084145b6040518060400160405280600181526020017f370000000000000000000000000000000000000000000000000000000000000081525090612cbb576040517f08c379a0000000000000000000000000000000000000000000000000000000008152600401612cb2919061591e565b60405180910390fd5b50612cc461386a565b6000612ccf88611466565b90506000806000612cde610b5a565b90506000891115612d0b57838911612cf65788612cf8565b835b9150612d048282613452565b9250612d38565b6000612d178583613452565b9050808911612d265788612d28565b805b9350612d348483613141565b9250505b612d428b83613ad8565b8615612e2e576000600660019054906101000a900473ffffffffffffffffffffffffffffffffffffffff1673ffffffffffffffffffffffffffffffffffffffff166369328dec600960009054906101000a900473ffffffffffffffffffffffffffffffffffffffff16868e6040518463ffffffff1660e01b8152600401612dcb93929190615596565b602060405180830381600087803b158015612de557600080fd5b505af1158015612df9573d6000803e3d6000fd5b505050506040513d601f19601f82011682018060405250810190612e1d9190614e42565b9050838114612e2857fe5b50612e7c565b612e7b8a84600860009054906101000a900473ffffffffffffffffffffffffffffffffffffffff1673ffffffffffffffffffffffffffffffffffffffff16613c889092919063ffffffff16565b5b818395509550505050509550959350505050565b60008073ffffffffffffffffffffffffffffffffffffffff168573ffffffffffffffffffffffffffffffffffffffff1614156040518060400160405280600181526020017f350000000000000000000000000000000000000000000000000000000000000081525090612f39576040517f08c379a0000000000000000000000000000000000000000000000000000000008152600401612f30919061591e565b60405180910390fd5b50612f4261386a565b811561305157612f97863086600960009054906101000a900473ffffffffffffffffffffffffffffffffffffffff1673ffffffffffffffffffffffffffffffffffffffff16613d0e909392919063ffffffff16565b600660019054906101000a900473ffffffffffffffffffffffffffffffffffffffff1673ffffffffffffffffffffffffffffffffffffffff1663e8eda9df600960009054906101000a900473ffffffffffffffffffffffffffffffffffffffff168630876040518563ffffffff1660e01b815260040161301a94939291906155cd565b600060405180830381600087803b15801561303457600080fd5b505af1158015613048573d6000803e3d6000fd5b505050506130a1565b6130a0863086600860009054906101000a900473ffffffffffffffffffffffffffffffffffffffff1673ffffffffffffffffffffffffffffffffffffffff16613d0e909392919063ffffffff16565b5b60006130b4856130af610b5a565b613141565b90506130c08682613d97565b8091505095945050505050565b60008061312c6130de868686613f2d565b601160008873ffffffffffffffffffffffffffffffffffffffff1673ffffffffffffffffffffffffffffffffffffffff1681526020019081526020016000205461315e90919063ffffffff16565b905061313781613603565b9150509392505050565b6000613156828461421990919063ffffffff16565b905092915050565b6000808284019050838110156131a9576040517f08c379a00000000000000000000000000000000000000000000000000000000081526004016131a090615980565b60405180910390fd5b8091505092915050565b600073ffffffffffffffffffffffffffffffffffffffff16600760009054906101000a900473ffffffffffffffffffffffffffffffffffffffff1673ffffffffffffffffffffffffffffffffffffffff16141561320f57613450565b43600f819055506000613220610a04565b90506060600167ffffffffffffffff8111801561323c57600080fd5b5060405190808252806020026020018201604052801561326b5781602001602082028036833780820191505090505b509050600860009054906101000a900473ffffffffffffffffffffffffffffffffffffffff168160008151811061329e57fe5b602002602001019073ffffffffffffffffffffffffffffffffffffffff16908173ffffffffffffffffffffffffffffffffffffffff16815250506000600760009054906101000a900473ffffffffffffffffffffffffffffffffffffffff1673ffffffffffffffffffffffffffffffffffffffff16633111e7b3837fffffffffffffffffffffffffffffffffffffffffffffffffffffffffffffffff306040518463ffffffff1660e01b815260040161335993929190615642565b602060405180830381600087803b15801561337357600080fd5b505af1158015613387573d6000803e3d6000fd5b505050506040513d601f19601f820116820180604052508101906133ab9190614e42565b905060006133c482600d5461315e90919063ffffffff16565b905060006133e56133e0600e548461437c90919063ffffffff16565b6143c6565b90506000851180156133f75750600081115b156134325761342b61341a61340b876143c6565b8361446390919063ffffffff16565b600c5461315e90919063ffffffff16565b600c819055505b60008111156134435781600e819055505b81600d8190555050505050505b565b600061346782846145b290919063ffffffff16565b905092915050565b801561347e5761347d6131b3565b5b600061348984611466565b90506000613499858360006130cd565b90506000600a60009054906101000a900473ffffffffffffffffffffffffffffffffffffffff1673ffffffffffffffffffffffffffffffffffffffff166370a08231306040518263ffffffff1660e01b81526004016134f891906154f2565b60206040518083038186803b15801561351057600080fd5b505afa158015613524573d6000803e3d6000fd5b505050506040513d601f19601f820116820180604052508101906135489190614e42565b905080821115613556578091505b60008211156135fb576000601160008873ffffffffffffffffffffffffffffffffffffffff1673ffffffffffffffffffffffffffffffffffffffff168152602001908152602001600020819055506135ad866146c6565b6135fa8583600a60009054906101000a900473ffffffffffffffffffffffffffffffffffffffff1673ffffffffffffffffffffffffffffffffffffffff16613c889092919063ffffffff16565b5b505050505050565b6000633b9aca00828161361257fe5b049050919050565b6136398273ffffffffffffffffffffffffffffffffffffffff16612677565b613678576040517f08c379a000000000000000000000000000000000000000000000000000000000815260040161366f90615a80565b60405180910390fd5b600060608373ffffffffffffffffffffffffffffffffffffffff16836040516136a191906154a4565b6000604051808303816000865af19150503d80600081146136de576040519150601f19603f3d011682016040523d82523d6000602084013e6136e3565b606091505b509150915081613728576040517f08c379a000000000000000000000000000000000000000000000000000000000815260040161371f906159a0565b60405180910390fd5b60008151111561378657808060200190518101906137469190614df0565b613785576040517f08c379a000000000000000000000000000000000000000000000000000000000815260040161377c90615a20565b60405180910390fd5b5b50505050565b600073ffffffffffffffffffffffffffffffffffffffff16600760009054906101000a900473ffffffffffffffffffffffffffffffffffffffff1673ffffffffffffffffffffffffffffffffffffffff1614156137e857613865565b600073ffffffffffffffffffffffffffffffffffffffff168373ffffffffffffffffffffffffffffffffffffffff1614613826576138258361470f565b5b600073ffffffffffffffffffffffffffffffffffffffff168273ffffffffffffffffffffffffffffffffffffffff1614613864576138638261470f565b5b5b505050565b600073ffffffffffffffffffffffffffffffffffffffff16600760009054906101000a900473ffffffffffffffffffffffffffffffffffffffff1673ffffffffffffffffffffffffffffffffffffffff1614156138c657613ad6565b600f54431115613ad55743600f8190555060006138e1610a04565b905060008114156138f25750613ad6565b6060600167ffffffffffffffff8111801561390c57600080fd5b5060405190808252806020026020018201604052801561393b5781602001602082028036833780820191505090505b509050600860009054906101000a900473ffffffffffffffffffffffffffffffffffffffff168160008151811061396e57fe5b602002602001019073ffffffffffffffffffffffffffffffffffffffff16908173ffffffffffffffffffffffffffffffffffffffff16815250506000600760009054906101000a900473ffffffffffffffffffffffffffffffffffffffff1673ffffffffffffffffffffffffffffffffffffffff16638b599f2683306040518363ffffffff1660e01b8152600401613a07929190615612565b60206040518083038186803b158015613a1f57600080fd5b505afa158015613a33573d6000803e3d6000fd5b505050506040513d601f19601f82011682018060405250810190613a579190614e42565b90506000613a7082600d5461315e90919063ffffffff16565b90506000613a91613a8c600e548461437c90919063ffffffff16565b6143c6565b9050613ac2613ab1613aa2876143c6565b8361446390919063ffffffff16565b600c5461315e90919063ffffffff16565b600c8190555081600e8190555050505050505b5b565b600073ffffffffffffffffffffffffffffffffffffffff168273ffffffffffffffffffffffffffffffffffffffff161415613b48576040517f08c379a0000000000000000000000000000000000000000000000000000000008152600401613b3f906159c0565b60405180910390fd5b613b548260008361378c565b613bc081604051806060016040528060228152602001615d5860229139600160008673ffffffffffffffffffffffffffffffffffffffff1673ffffffffffffffffffffffffffffffffffffffff16815260200190815260200160002054612b2e9092919063ffffffff16565b600160008473ffffffffffffffffffffffffffffffffffffffff1673ffffffffffffffffffffffffffffffffffffffff16815260200190815260200160002081905550613c188160035461437c90919063ffffffff16565b600381905550600073ffffffffffffffffffffffffffffffffffffffff168273ffffffffffffffffffffffffffffffffffffffff167fddf252ad1be2c89b69c2b068fc378daa952ba7f163c4a11628f55a4df523b3ef83604051613c7c9190615ac0565b60405180910390a35050565b613d098363a9059cbb60e01b8484604051602401613ca792919061556d565b604051602081830303815290604052907bffffffffffffffffffffffffffffffffffffffffffffffffffffffff19166020820180517bffffffffffffffffffffffffffffffffffffffffffffffffffffffff838183161783525050505061361a565b505050565b613d91846323b872dd60e01b858585604051602401613d2f93929190615536565b604051602081830303815290604052907bffffffffffffffffffffffffffffffffffffffffffffffffffffffff19166020820180517bffffffffffffffffffffffffffffffffffffffffffffffffffffffff838183161783525050505061361a565b50505050565b600073ffffffffffffffffffffffffffffffffffffffff168273ffffffffffffffffffffffffffffffffffffffff161415613e07576040517f08c379a0000000000000000000000000000000000000000000000000000000008152600401613dfe90615aa0565b60405180910390fd5b613e136000838361378c565b613e288160035461315e90919063ffffffff16565b600381905550613e8081600160008573ffffffffffffffffffffffffffffffffffffffff1673ffffffffffffffffffffffffffffffffffffffff1681526020019081526020016000205461315e90919063ffffffff16565b600160008473ffffffffffffffffffffffffffffffffffffffff1673ffffffffffffffffffffffffffffffffffffffff168152602001908152602001600020819055508173ffffffffffffffffffffffffffffffffffffffff16600073ffffffffffffffffffffffffffffffffffffffff167fddf252ad1be2c89b69c2b068fc378daa952ba7f163c4a11628f55a4df523b3ef83604051613f219190615ac0565b60405180910390a35050565b60008073ffffffffffffffffffffffffffffffffffffffff16600760009054906101000a900473ffffffffffffffffffffffffffffffffffffffff1673ffffffffffffffffffffffffffffffffffffffff161415613f8e5760009050614212565b6000831415613fa05760009050614212565b6000613fab846143c6565b90506000613fb7610a04565b90506000600c54905060008214158015613fce5750845b156141a8576060600167ffffffffffffffff81118015613fed57600080fd5b5060405190808252806020026020018201604052801561401c5781602001602082028036833780820191505090505b509050600860009054906101000a900473ffffffffffffffffffffffffffffffffffffffff168160008151811061404f57fe5b602002602001019073ffffffffffffffffffffffffffffffffffffffff16908173ffffffffffffffffffffffffffffffffffffffff16815250506000600760009054906101000a900473ffffffffffffffffffffffffffffffffffffffff1673ffffffffffffffffffffffffffffffffffffffff16638b599f2683306040518363ffffffff1660e01b81526004016140e8929190615612565b60206040518083038186803b15801561410057600080fd5b505afa158015614114573d6000803e3d6000fd5b505050506040513d601f19601f820116820180604052508101906141389190614e42565b9050600061415182600d5461315e90919063ffffffff16565b9050600061417261416d600e548461437c90919063ffffffff16565b6143c6565b90506141a1614192614183886143c6565b8361446390919063ffffffff16565b8661315e90919063ffffffff16565b9450505050505b61420c6141fd601060008a73ffffffffffffffffffffffffffffffffffffffff1673ffffffffffffffffffffffffffffffffffffffff168152602001908152602001600020548361437c90919063ffffffff16565b846147d990919063ffffffff16565b93505050505b9392505050565b6000808214156040518060400160405280600281526020017f353000000000000000000000000000000000000000000000000000000000000081525090614296576040517f08c379a000000000000000000000000000000000000000000000000000000000815260040161428d919061591e565b60405180910390fd5b506000600283816142a357fe5b0490506b033b2e3c9fd0803ce8000000817fffffffffffffffffffffffffffffffffffffffffffffffffffffffffffffffff03816142dd57fe5b048411156040518060400160405280600281526020017f343800000000000000000000000000000000000000000000000000000000000081525090614358576040517f08c379a000000000000000000000000000000000000000000000000000000000815260040161434f919061591e565b60405180910390fd5b5082816b033b2e3c9fd0803ce80000008602018161437257fe5b0491505092915050565b60006143be83836040518060400160405280601e81526020017f536166654d6174683a207375627472616374696f6e206f766572666c6f770000815250612b2e565b905092915050565b600080633b9aca008302905082633b9aca0082816143e057fe5b04146040518060400160405280600281526020017f343800000000000000000000000000000000000000000000000000000000000081525090614459576040517f08c379a0000000000000000000000000000000000000000000000000000000008152600401614450919061591e565b60405180910390fd5b5080915050919050565b6000808214156040518060400160405280600281526020017f3530000000000000000000000000000000000000000000000000000000000000815250906144e0576040517f08c379a00000000000000000000000000000000000000000000000000000000081526004016144d7919061591e565b60405180910390fd5b506b033b2e3c9fd0803ce80000007fffffffffffffffffffffffffffffffffffffffffffffffffffffffffffffffff8161451657fe5b048311156040518060400160405280600281526020017f343800000000000000000000000000000000000000000000000000000000000081525090614591576040517f08c379a0000000000000000000000000000000000000000000000000000000008152600401614588919061591e565b60405180910390fd5b50816b033b2e3c9fd0803ce80000008402816145a957fe5b04905092915050565b6000808314806145c25750600082145b156145d057600090506146c0565b8160026b033b2e3c9fd0803ce8000000816145e757fe5b047fffffffffffffffffffffffffffffffffffffffffffffffffffffffffffffffff038161461157fe5b048311156040518060400160405280600281526020017f34380000000000000000000000000000000000000000000000000000000000008152509061468c576040517f08c379a0000000000000000000000000000000000000000000000000000000008152600401614683919061591e565b60405180910390fd5b506b033b2e3c9fd0803ce800000060026b033b2e3c9fd0803ce8000000816146b057fe5b0483850201816146bc57fe5b0490505b92915050565b600c54601060008373ffffffffffffffffffffffffffffffffffffffff1673ffffffffffffffffffffffffffffffffffffffff1681526020019081526020016000208190555050565b600061471a82611466565b905060008111156147cc57600061473383836000613f2d565b905061478781601160008673ffffffffffffffffffffffffffffffffffffffff1673ffffffffffffffffffffffffffffffffffffffff1681526020019081526020016000205461315e90919063ffffffff16565b601160008573ffffffffffffffffffffffffffffffffffffffff1673ffffffffffffffffffffffffffffffffffffffff16815260200190815260200160002081905550505b6147d5826146c6565b5050565b6000808314806147e95750600082145b156147f757600090506148b7565b817fffffffffffffffffffffffffffffffffffffffffffffffffffffffffffffffff8161482057fe5b048311156040518060400160405280600281526020017f34380000000000000000000000000000000000000000000000000000000000008152509061489b576040517f08c379a0000000000000000000000000000000000000000000000000000000008152600401614892919061591e565b60405180910390fd5b506b033b2e3c9fd0803ce8000000828402816148b357fe5b0490505b92915050565b6000813590506148cc81615ccd565b92915050565b6000815190506148e181615ccd565b92915050565b6000813590506148f681615ce4565b92915050565b60008151905061490b81615ce4565b92915050565b60008135905061492081615cfb565b92915050565b60006060828403121561493857600080fd5b81905092915050565b60008135905061495081615d12565b92915050565b60008135905061496581615d29565b92915050565b60008151905061497a81615d29565b92915050565b60008135905061498f81615d40565b92915050565b6000602082840312156149a757600080fd5b60006149b5848285016148bd565b91505092915050565b6000602082840312156149d057600080fd5b60006149de848285016148d2565b91505092915050565b600080604083850312156149fa57600080fd5b6000614a08858286016148bd565b9250506020614a19858286016148bd565b9150509250929050565b600080600060608486031215614a3857600080fd5b6000614a46868287016148bd565b9350506020614a57868287016148bd565b9250506040614a68868287016148e7565b9150509250925092565b600080600060608486031215614a8757600080fd5b6000614a95868287016148bd565b9350506020614aa6868287016148bd565b9250506040614ab786828701614956565b9150509250925092565b6000806000806000806000610120888a031215614add57600080fd5b6000614aeb8a828b016148bd565b9750506020614afc8a828b016148bd565b9650506040614b0d8a828b01614956565b9550506060614b1e8a828b01614941565b9450506080614b2f8a828b016148e7565b93505060a0614b408a828b01614956565b92505060c0614b518a828b01614926565b91505092959891949750929550565b6000806000806000806000610120888a031215614b7c57600080fd5b6000614b8a8a828b016148bd565b9750506020614b9b8a828b016148bd565b9650506040614bac8a828b01614956565b9550506060614bbd8a828b01614956565b9450506080614bce8a828b016148e7565b93505060a0614bdf8a828b01614956565b92505060c0614bf08a828b01614926565b91505092959891949750929550565b600080600080600080600060e0888a031215614c1a57600080fd5b6000614c288a828b016148bd565b9750506020614c398a828b016148bd565b9650506040614c4a8a828b01614956565b9550506060614c5b8a828b01614956565b9450506080614c6c8a828b01614980565b93505060a0614c7d8a828b01614911565b92505060c0614c8e8a828b01614911565b91505092959891949750929550565b60008060408385031215614cb057600080fd5b6000614cbe858286016148bd565b9250506020614ccf858286016148e7565b9150509250929050565b60008060408385031215614cec57600080fd5b6000614cfa858286016148bd565b9250506020614d0b85828601614956565b9150509250929050565b600080600060608486031215614d2a57600080fd5b6000614d38868287016148bd565b9350506020614d4986828701614956565b9250506040614d5a868287016148e7565b9150509250925092565b60008060008060808587031215614d7a57600080fd5b6000614d88878288016148bd565b9450506020614d9987828801614956565b9350506040614daa87828801614941565b9250506060614dbb878288016148e7565b91505092959194509250565b600060208284031215614dd957600080fd5b6000614de7848285016148e7565b91505092915050565b600060208284031215614e0257600080fd5b6000614e10848285016148fc565b91505092915050565b600060208284031215614e2b57600080fd5b6000614e3984828501614956565b91505092915050565b600060208284031215614e5457600080fd5b6000614e628482850161496b565b91505092915050565b600060208284031215614e7d57600080fd5b6000614e8b84828501614980565b91505092915050565b6000614ea08383614eac565b60208301905092915050565b614eb581615ba6565b82525050565b614ec481615ba6565b82525050565b6000614ed582615b2f565b614edf8185615b5d565b9350614eea83615b1f565b8060005b83811015614f1b578151614f028882614e94565b9750614f0d83615b50565b925050600181019050614eee565b5085935050505092915050565b614f3181615bb8565b82525050565b614f4081615bc4565b82525050565b614f57614f5282615bc4565b615cb2565b82525050565b6000614f6882615b3a565b614f728185615b6e565b9350614f82818560208601615c7f565b614f8b81615cbc565b840191505092915050565b6000614fa182615b3a565b614fab8185615b7f565b9350614fbb818560208601615c7f565b80840191505092915050565b614fd081615c13565b82525050565b614fdf81615c37565b82525050565b614fee81615c5b565b82525050565b6000614fff82615b45565b6150098185615b8a565b9350615019818560208601615c7f565b61502281615cbc565b840191505092915050565b600061503a602383615b8a565b91507f45524332303a207472616e7366657220746f20746865207a65726f206164647260008301527f65737300000000000000000000000000000000000000000000000000000000006020830152604082019050919050565b60006150a0602283615b8a565b91507f45524332303a20617070726f766520746f20746865207a65726f20616464726560008301527f73730000000000000000000000000000000000000000000000000000000000006020830152604082019050919050565b6000615106600283615b9b565b91507f19010000000000000000000000000000000000000000000000000000000000006000830152600282019050919050565b6000615146601b83615b8a565b91507f536166654d6174683a206164646974696f6e206f766572666c6f7700000000006000830152602082019050919050565b6000615186602083615b8a565b91507f5361666545524332303a206c6f772d6c6576656c2063616c6c206661696c65646000830152602082019050919050565b60006151c6602183615b8a565b91507f45524332303a206275726e2066726f6d20746865207a65726f2061646472657360008301527f73000000000000000000000000000000000000000000000000000000000000006020830152604082019050919050565b600061522c602583615b8a565b91507f45524332303a207472616e736665722066726f6d20746865207a65726f20616460008301527f64726573730000000000000000000000000000000000000000000000000000006020830152604082019050919050565b6000615292602483615b8a565b91507f45524332303a20617070726f76652066726f6d20746865207a65726f2061646460008301527f72657373000000000000000000000000000000000000000000000000000000006020830152604082019050919050565b60006152f8602a83615b8a565b91507f5361666545524332303a204552433230206f7065726174696f6e20646964206e60008301527f6f742073756363656564000000000000000000000000000000000000000000006020830152604082019050919050565b600061535e601f83615b8a565b91507f5265656e7472616e637947756172643a207265656e7472616e742063616c6c006000830152602082019050919050565b600061539e603683615b8a565b91507f5361666545524332303a20617070726f76652066726f6d206e6f6e2d7a65726f60008301527f20746f206e6f6e2d7a65726f20616c6c6f77616e6365000000000000000000006020830152604082019050919050565b6000615404601f83615b8a565b91507f5361666545524332303a2063616c6c20746f206e6f6e2d636f6e7472616374006000830152602082019050919050565b6000615444601f83615b8a565b91507f45524332303a206d696e7420746f20746865207a65726f2061646472657373006000830152602082019050919050565b61548081615bce565b82525050565b61548f81615bfc565b82525050565b61549e81615c06565b82525050565b60006154b08284614f96565b915081905092915050565b60006154c6826150f9565b91506154d28285614f46565b6020820191506154e28284614f46565b6020820191508190509392505050565b60006020820190506155076000830184614ebb565b92915050565b60006040820190506155226000830185614ebb565b61552f6020830184614ebb565b9392505050565b600060608201905061554b6000830186614ebb565b6155586020830185614ebb565b6155656040830184615486565b949350505050565b60006040820190506155826000830185614ebb565b61558f6020830184615486565b9392505050565b60006060820190506155ab6000830186614ebb565b6155b86020830185615486565b6155c56040830184614ebb565b949350505050565b60006080820190506155e26000830187614ebb565b6155ef6020830186615486565b6155fc6040830185614ebb565b6156096060830184615477565b95945050505050565b6000604082019050818103600083015261562c8185614eca565b905061563b6020830184614ebb565b9392505050565b6000606082019050818103600083015261565c8186614eca565b905061566b6020830185615486565b6156786040830184614ebb565b949350505050565b60006020820190506156956000830184614f28565b92915050565b60006020820190506156b06000830184614f37565b92915050565b6000610100820190506156cc600083018b614f37565b6156d9602083018a614ebb565b6156e66040830189614ebb565b6156f36060830188615486565b6157006080830187615477565b61570d60a0830186614f28565b61571a60c0830185615486565b61572760e0830184615486565b9998505050505050505050565b60006101008201905061574a600083018b614f37565b615757602083018a614ebb565b6157646040830189614ebb565b6157716060830188615486565b61577e6080830187615486565b61578b60a0830186614f28565b61579860c0830185615486565b6157a560e0830184615486565b9998505050505050505050565b600060c0820190506157c76000830189614f37565b6157d46020830188614ebb565b6157e16040830187614ebb565b6157ee6060830186615486565b6157fb6080830185615486565b61580860a0830184615486565b979650505050505050565b600060a0820190506158286000830188614f37565b6158356020830187614f37565b6158426040830186614f37565b61584f6060830185615486565b61585c6080830184614ebb565b9695505050505050565b600060808201905061587b6000830187614f37565b6158886020830186615495565b6158956040830185614f37565b6158a26060830184614f37565b95945050505050565b600060208201905081810360008301526158c58184614f5d565b905092915050565b60006020820190506158e26000830184614fc7565b92915050565b60006020820190506158fd6000830184614fd6565b92915050565b60006020820190506159186000830184614fe5565b92915050565b600060208201905081810360008301526159388184614ff4565b905092915050565b600060208201905081810360008301526159598161502d565b9050919050565b6000602082019050818103600083015261597981615093565b9050919050565b6000602082019050818103600083015261599981615139565b9050919050565b600060208201905081810360008301526159b981615179565b9050919050565b600060208201905081810360008301526159d9816151b9565b9050919050565b600060208201905081810360008301526159f98161521f565b9050919050565b60006020820190508181036000830152615a1981615285565b9050919050565b60006020820190508181036000830152615a39816152eb565b9050919050565b60006020820190508181036000830152615a5981615351565b9050919050565b60006020820190508181036000830152615a7981615391565b9050919050565b60006020820190508181036000830152615a99816153f7565b9050919050565b60006020820190508181036000830152615ab981615437565b9050919050565b6000602082019050615ad56000830184615486565b92915050565b6000604082019050615af06000830185615486565b615afd6020830184615486565b9392505050565b6000602082019050615b196000830184615495565b92915050565b6000819050602082019050919050565b600081519050919050565b600081519050919050565b600081519050919050565b6000602082019050919050565b600082825260208201905092915050565b600082825260208201905092915050565b600081905092915050565b600082825260208201905092915050565b600081905092915050565b6000615bb182615bdc565b9050919050565b60008115159050919050565b6000819050919050565b600061ffff82169050919050565b600073ffffffffffffffffffffffffffffffffffffffff82169050919050565b6000819050919050565b600060ff82169050919050565b6000615c1e82615c25565b9050919050565b6000615c3082615bdc565b9050919050565b6000615c4282615c49565b9050919050565b6000615c5482615bdc565b9050919050565b6000615c6682615c6d565b9050919050565b6000615c7882615bdc565b9050919050565b60005b83811015615c9d578082015181840152602081019050615c82565b83811115615cac576000848401525b50505050565b6000819050919050565b6000601f19601f8301169050919050565b615cd681615ba6565b8114615ce157600080fd5b50565b615ced81615bb8565b8114615cf857600080fd5b50565b615d0481615bc4565b8114615d0f57600080fd5b50565b615d1b81615bce565b8114615d2657600080fd5b50565b615d3281615bfc565b8114615d3d57600080fd5b50565b615d4981615c06565b8114615d5457600080fd5b5056fe45524332303a206275726e20616d6f756e7420657863656564732062616c616e636545524332303a207472616e7366657220616d6f756e7420657863656564732062616c616e636545524332303a207472616e7366657220616d6f756e74206578636565647320616c6c6f77616e636545524332303a2064656372656173656420616c6c6f77616e63652062656c6f77207a65726fa26469706673582212209c591fe700c437a175b0f10f69f0a6734c079eb08e28f3d8e9fa640185697d1064736f6c634300060c0033",
  "linkReferences": {},
  "deployedLinkReferences": {}
}