{
  "_format": "hh-sol-artifact-1",
  "contractName": "ChainLink",
  "sourceName": "contracts/ChainLink.sol",
  "abi": [
    {
      "inputs": [],
      "stateMutability": "nonpayable",
      "type": "constructor"
    },
    {
      "anonymous": false,
      "inputs": [
        {
          "indexed": true,
          "internalType": "address",
          "name": "oldAdmin",
          "type": "address"
        },
        {
          "indexed": true,
          "internalType": "address",
          "name": "newAdmin",
          "type": "address"
        }
      ],
      "name": "AdminChanged",
      "type": "event"
    },
    {
      "anonymous": false,
      "inputs": [
        {
          "indexed": true,
          "internalType": "address",
          "name": "assetAddress",
          "type": "address"
        },
        {
          "indexed": true,
          "internalType": "address",
          "name": "priceFeedContract",
          "type": "address"
        }
      ],
      "name": "AssetAdded",
      "type": "event"
    },
    {
      "anonymous": false,
      "inputs": [
        {
          "indexed": true,
          "internalType": "address",
          "name": "assetAddress",
          "type": "address"
        }
      ],
      "name": "AssetRemoved",
      "type": "event"
    },
    {
      "anonymous": false,
      "inputs": [
        {
          "indexed": false,
          "internalType": "bool",
          "name": "currentStatus",
          "type": "bool"
        }
      ],
      "name": "ContractPausedOrUnpaused",
      "type": "event"
    },
    {
      "inputs": [
        {
          "internalType": "address",
          "name": "assetAddress",
          "type": "address"
        },
        {
          "internalType": "address",
          "name": "priceFeedContract",
          "type": "address"
        }
      ],
      "name": "addAsset",
      "outputs": [],
      "stateMutability": "nonpayable",
      "type": "function"
    },
    {
      "inputs": [],
      "name": "admin",
      "outputs": [
        {
          "internalType": "address",
          "name": "",
          "type": "address"
        }
      ],
      "stateMutability": "view",
      "type": "function"
    },
    {
      "inputs": [
        {
          "internalType": "address",
          "name": "newAdmin",
          "type": "address"
        }
      ],
      "name": "changeAdmin",
      "outputs": [],
      "stateMutability": "nonpayable",
      "type": "function"
    },
    {
      "inputs": [
        {
          "internalType": "address",
          "name": "asset",
          "type": "address"
        }
      ],
      "name": "getAssetPrice",
      "outputs": [
        {
          "internalType": "uint256",
          "name": "",
          "type": "uint256"
        },
        {
          "internalType": "uint8",
          "name": "",
          "type": "uint8"
        }
      ],
      "stateMutability": "view",
      "type": "function"
    },
    {
      "inputs": [],
      "name": "paused",
      "outputs": [
        {
          "internalType": "bool",
          "name": "",
          "type": "bool"
        }
      ],
      "stateMutability": "view",
      "type": "function"
    },
    {
      "inputs": [
        {
          "internalType": "address",
          "name": "assetAddress",
          "type": "address"
        }
      ],
      "name": "removeAsset",
      "outputs": [],
      "stateMutability": "nonpayable",
      "type": "function"
    },
    {
      "inputs": [],
      "name": "togglePause",
      "outputs": [],
      "stateMutability": "nonpayable",
      "type": "function"
    }
  ],
  "bytecode": "0x60806040526001805460ff60a01b1916905534801561001d57600080fd5b50600180546001600160a01b031916331790556107f18061003f6000396000f3fe608060405234801561001057600080fd5b506004361061007d5760003560e01c8063b3596f071161005b578063b3596f07146100d3578063c4ae3168146100fd578063da48999714610105578063f851a4401461011857600080fd5b80634a5e42b1146100825780635c975abb146100975780638f283970146100c0575b600080fd5b610095610090366004610621565b610143565b005b6001546100ab90600160a01b900460ff1681565b60405190151581526020015b60405180910390f35b6100956100ce366004610621565b6101eb565b6100e66100e1366004610621565b610297565b6040805192835260ff9091166020830152016100b7565b6100956104b8565b610095610113366004610643565b610548565b60015461012b906001600160a01b031681565b6040516001600160a01b0390911681526020016100b7565b6001546001600160a01b031633146101765760405162461bcd60e51b815260040161016d90610676565b60405180910390fd5b6001600160a01b03811661019c5760405162461bcd60e51b815260040161016d906106bf565b6001600160a01b03811660008181526020819052604080822080546001600160a01b0319169055517f37803e2125c48ee96c38ddf04e826daf335b0e1603579040fd275aba6d06b6fc9190a250565b6001546001600160a01b031633146102155760405162461bcd60e51b815260040161016d90610676565b6001600160a01b03811661023b5760405162461bcd60e51b815260040161016d906106bf565b6001546040516001600160a01b038084169216907f7e644d79422f17c01e4894b5f4f588d331ebfa28653d42ae832dc59e38c9798f90600090a3600180546001600160a01b0319166001600160a01b0392909216919091179055565b6000806000836001600160a01b031663313ce5676040518163ffffffff1660e01b815260040160206040518083038186803b1580156102d557600080fd5b505afa1580156102e9573d6000803e3d6000fd5b505050506040513d601f19601f8201168201806040525081019061030d9190610709565b600154909150600160a01b900460ff1615801561034357506001600160a01b038481166000908152602081905260409020541615155b156104ad576001600160a01b03808516600090815260208190526040808220548151633fabe5a360e21b8152915192938493849384938493169163feaf968c9160048082019260a092909190829003018186803b1580156103a357600080fd5b505afa1580156103b7573d6000803e3d6000fd5b505050506040513d601f19601f820116820180604052508101906103db9190610746565b94509450945094509450620151e4426103f49190610796565b821161042f5760405162461bcd60e51b815260206004820152600a6024820152695374616c65206461746160b01b604482015260640161016d565b8469ffffffffffffffffffff168169ffffffffffffffffffff1610156104845760405162461bcd60e51b815260206004820152600a6024820152695374616c65204461746160b01b604482015260640161016d565b600084131561049c5750919793965092945050505050565b506000989497509395505050505050565b600094909350915050565b6001546001600160a01b031633146104e25760405162461bcd60e51b815260040161016d90610676565b6001805460ff600160a01b808304821615810260ff60a01b1990931692909217928390556040517fa9e5183118bdddbf7f4ee6ff0e1449dbd554da04ba2fa6cbd50e230993e7a0cc9361053e9390049091161515815260200190565b60405180910390a1565b6001546001600160a01b031633146105725760405162461bcd60e51b815260040161016d90610676565b6001600160a01b0382161580159061059257506001600160a01b03811615155b6105ae5760405162461bcd60e51b815260040161016d906106bf565b6001600160a01b0382811660008181526020819052604080822080546001600160a01b0319169486169485179055517f0bb5715f0f217c2fe9a0c877ea87d474380c641102f3440ee2a4c8b9d97909189190a35050565b80356001600160a01b038116811461061c57600080fd5b919050565b60006020828403121561063357600080fd5b61063c82610605565b9392505050565b6000806040838503121561065657600080fd5b61065f83610605565b915061066d60208401610605565b90509250929050565b60208082526029908201527f4f6e6c79207468652041646d696e2063616e20706572666f726d20746869732060408201526837b832b930ba34b7b760b91b606082015260800190565b6020808252602a908201527f4173736574206f72205072696365204665656420616464726573732063616e6e60408201526906f7420626520307830360b41b606082015260800190565b60006020828403121561071b57600080fd5b815160ff8116811461063c57600080fd5b805169ffffffffffffffffffff8116811461061c57600080fd5b600080600080600060a0868803121561075e57600080fd5b6107678661072c565b945060208601519350604086015192506060860151915061078a6080870161072c565b90509295509295909350565b6000828210156107b657634e487b7160e01b600052601160045260246000fd5b50039056fea264697066735822122028a4aafff7581f9b9f2ce545967a7114ee623c5e141e52ce77bd9a5cf5551f8064736f6c63430008090033",
  "linkReferences": {},
  "deployedLinkReferences": {}
}