{
  "_format": "hh-sol-artifact-1",
  "contractName": "NontrivialPegCollateral",
  "sourceName": "contracts/reserve/plugins/mocks/NontrivialPegCollateral.sol",
  "abi": [
    {
      "inputs": [
        {
          "components": [
            {
              "internalType": "uint192",
              "name": "fallbackPrice",
              "type": "uint192"
            },
            {
              "internalType": "contract AggregatorV3Interface",
              "name": "chainlinkFeed",
              "type": "address"
            },
            {
              "internalType": "uint192",
              "name": "oracleError",
              "type": "uint192"
            },
            {
              "internalType": "contract IERC20Metadata",
              "name": "erc20",
              "type": "address"
            },
            {
              "internalType": "uint192",
              "name": "maxTradeVolume",
              "type": "uint192"
            },
            {
              "internalType": "uint48",
              "name": "oracleTimeout",
              "type": "uint48"
            },
            {
              "internalType": "bytes32",
              "name": "targetName",
              "type": "bytes32"
            },
            {
              "internalType": "uint192",
              "name": "defaultThreshold",
              "type": "uint192"
            },
            {
              "internalType": "uint256",
              "name": "delayUntilDefault",
              "type": "uint256"
            }
          ],
          "internalType": "struct CollateralConfig",
          "name": "config",
          "type": "tuple"
        }
      ],
      "stateMutability": "nonpayable",
      "type": "constructor"
    },
    {
      "inputs": [],
      "name": "StalePrice",
      "type": "error"
    },
    {
      "inputs": [],
      "name": "UIntOutOfBounds",
      "type": "error"
    },
    {
      "anonymous": false,
      "inputs": [
        {
          "indexed": true,
          "internalType": "enum CollateralStatus",
          "name": "oldStatus",
          "type": "uint8"
        },
        {
          "indexed": true,
          "internalType": "enum CollateralStatus",
          "name": "newStatus",
          "type": "uint8"
        }
      ],
      "name": "CollateralStatusChanged",
      "type": "event"
    },
    {
      "anonymous": false,
      "inputs": [
        {
          "indexed": true,
          "internalType": "contract IERC20",
          "name": "erc20",
          "type": "address"
        },
        {
          "indexed": true,
          "internalType": "uint256",
          "name": "amount",
          "type": "uint256"
        }
      ],
      "name": "RewardsClaimed",
      "type": "event"
    },
    {
      "inputs": [
        {
          "internalType": "address",
          "name": "account",
          "type": "address"
        }
      ],
      "name": "bal",
      "outputs": [
        {
          "internalType": "uint192",
          "name": "",
          "type": "uint192"
        }
      ],
      "stateMutability": "view",
      "type": "function"
    },
    {
      "inputs": [],
      "name": "chainlinkFeed",
      "outputs": [
        {
          "internalType": "contract AggregatorV3Interface",
          "name": "",
          "type": "address"
        }
      ],
      "stateMutability": "view",
      "type": "function"
    },
    {
      "inputs": [],
      "name": "claimRewards",
      "outputs": [],
      "stateMutability": "nonpayable",
      "type": "function"
    },
    {
      "inputs": [],
      "name": "delayUntilDefault",
      "outputs": [
        {
          "internalType": "uint256",
          "name": "",
          "type": "uint256"
        }
      ],
      "stateMutability": "view",
      "type": "function"
    },
    {
      "inputs": [],
      "name": "erc20",
      "outputs": [
        {
          "internalType": "contract IERC20Metadata",
          "name": "",
          "type": "address"
        }
      ],
      "stateMutability": "view",
      "type": "function"
    },
    {
      "inputs": [],
      "name": "erc20Decimals",
      "outputs": [
        {
          "internalType": "uint8",
          "name": "",
          "type": "uint8"
        }
      ],
      "stateMutability": "view",
      "type": "function"
    },
    {
      "inputs": [],
      "name": "fallbackPrice",
      "outputs": [
        {
          "internalType": "uint192",
          "name": "",
          "type": "uint192"
        }
      ],
      "stateMutability": "view",
      "type": "function"
    },
    {
      "inputs": [],
      "name": "isCollateral",
      "outputs": [
        {
          "internalType": "bool",
          "name": "",
          "type": "bool"
        }
      ],
      "stateMutability": "pure",
      "type": "function"
    },
    {
      "inputs": [],
      "name": "maxTradeVolume",
      "outputs": [
        {
          "internalType": "uint192",
          "name": "",
          "type": "uint192"
        }
      ],
      "stateMutability": "view",
      "type": "function"
    },
    {
      "inputs": [],
      "name": "oracleError",
      "outputs": [
        {
          "internalType": "uint192",
          "name": "",
          "type": "uint192"
        }
      ],
      "stateMutability": "view",
      "type": "function"
    },
    {
      "inputs": [],
      "name": "oracleTimeout",
      "outputs": [
        {
          "internalType": "uint48",
          "name": "",
          "type": "uint48"
        }
      ],
      "stateMutability": "view",
      "type": "function"
    },
    {
      "inputs": [],
      "name": "pegBottom",
      "outputs": [
        {
          "internalType": "uint192",
          "name": "",
          "type": "uint192"
        }
      ],
      "stateMutability": "view",
      "type": "function"
    },
    {
      "inputs": [],
      "name": "pegTop",
      "outputs": [
        {
          "internalType": "uint192",
          "name": "",
          "type": "uint192"
        }
      ],
      "stateMutability": "view",
      "type": "function"
    },
    {
      "inputs": [],
      "name": "prevReferencePrice",
      "outputs": [
        {
          "internalType": "uint192",
          "name": "",
          "type": "uint192"
        }
      ],
      "stateMutability": "view",
      "type": "function"
    },
    {
      "inputs": [],
      "name": "price",
      "outputs": [
        {
          "internalType": "uint192",
          "name": "",
          "type": "uint192"
        },
        {
          "internalType": "uint192",
          "name": "",
          "type": "uint192"
        }
      ],
      "stateMutability": "view",
      "type": "function"
    },
    {
      "inputs": [],
      "name": "refPerTok",
      "outputs": [
        {
          "internalType": "uint192",
          "name": "",
          "type": "uint192"
        }
      ],
      "stateMutability": "view",
      "type": "function"
    },
    {
      "inputs": [],
      "name": "refresh",
      "outputs": [],
      "stateMutability": "nonpayable",
      "type": "function"
    },
    {
      "inputs": [
        {
          "internalType": "uint192",
          "name": "newPeg",
          "type": "uint192"
        }
      ],
      "name": "setPeg",
      "outputs": [],
      "stateMutability": "nonpayable",
      "type": "function"
    },
    {
      "inputs": [],
      "name": "status",
      "outputs": [
        {
          "internalType": "enum CollateralStatus",
          "name": "",
          "type": "uint8"
        }
      ],
      "stateMutability": "view",
      "type": "function"
    },
    {
      "inputs": [],
      "name": "targetName",
      "outputs": [
        {
          "internalType": "bytes32",
          "name": "",
          "type": "bytes32"
        }
      ],
      "stateMutability": "view",
      "type": "function"
    },
    {
      "inputs": [],
      "name": "targetPerRef",
      "outputs": [
        {
          "internalType": "uint192",
          "name": "",
          "type": "uint192"
        }
      ],
      "stateMutability": "view",
      "type": "function"
    },
    {
      "inputs": [],
      "name": "tryPrice",
      "outputs": [
        {
          "internalType": "uint192",
          "name": "low",
          "type": "uint192"
        },
        {
          "internalType": "uint192",
          "name": "high",
          "type": "uint192"
        },
        {
          "internalType": "uint192",
          "name": "pegPrice",
          "type": "uint192"
        }
      ],
      "stateMutability": "view",
      "type": "function"
    },
    {
      "inputs": [],
      "name": "whenDefault",
      "outputs": [
        {
          "internalType": "uint256",
          "name": "",
          "type": "uint256"
        }
      ],
      "stateMutability": "view",
      "type": "function"
    }
  ],
  "bytecode": "0x6101c0604052600019600155600380546001600160c01b031916670de0b6b3a76400001790553480156200003257600080fd5b5060405162001bc138038062001bc183398101604081905262000055916200067e565b80806000015181602001518260400151836060015184608001518560a001516000866001600160c01b031611620000d35760405162461bcd60e51b815260206004820152601360248201527f66616c6c6261636b207072696365207a65726f0000000000000000000000000060448201526064015b60405180910390fd5b6001600160a01b0385166200012b5760405162461bcd60e51b815260206004820152601660248201527f6d697373696e6720636861696e6c696e6b2066656564000000000000000000006044820152606401620000ca565b6000846001600160c01b0316118015620001555750670de0b6b3a76400006001600160c01b038516105b620001a35760405162461bcd60e51b815260206004820152601960248201527f6f7261636c65206572726f72206f7574206f662072616e6765000000000000006044820152606401620000ca565b6001600160a01b038316620001eb5760405162461bcd60e51b815260206004820152600d60248201526c06d697373696e6720657263323609c1b6044820152606401620000ca565b6000826001600160c01b031611620002465760405162461bcd60e51b815260206004820152601860248201527f696e76616c6964206d617820747261646520766f6c756d6500000000000000006044820152606401620000ca565b60008165ffffffffffff1611620002955760405162461bcd60e51b81526020600482015260126024820152716f7261636c6554696d656f7574207a65726f60701b6044820152606401620000ca565b600080546001600160c01b0319166001600160c01b03888116919091179091556001600160a01b0386811660805290851661010052831660a08190526040805163313ce56760e01b8152905163313ce56791600480820192602092909190829003018186803b1580156200030857600080fd5b505afa1580156200031d573d6000803e3d6000fd5b505050506040513d601f19601f8201168201806040525081019062000343919062000739565b60ff1660c09081526001600160c01b0390921660e05265ffffffffffff166101205285015115159350620003b3925050505760405162461bcd60e51b81526020600482015260126024820152717461726765744e616d65206d697373696e6760701b6044820152606401620000ca565b60e08101516001600160c01b0316156200041e576000816101000151116200041e5760405162461bcd60e51b815260206004820152601660248201527f64656c6179556e74696c44656661756c74207a65726f000000000000000000006044820152606401620000ca565b60c081015161016052610100810151610140526000620004466003546001600160c01b031690565b90506000620004718360e00151836001600160c01b0316620004b060201b620009871790919060201c565b90506200047f818362000774565b6001600160c01b0316610180526200049881836200079f565b6001600160c01b03166101a052506200088192505050565b6000620004c083836001620004c7565b9392505050565b6000620004ff620004f9620004e96001600160c01b03808716908816620007cd565b670de0b6b3a76400008562000507565b620005cb565b949350505050565b60008062000516848662000805565b905060008360028111156200052f576200052f6200081c565b14156200053e579050620004c0565b60018360028111156200055557620005556200081c565b1415620005a05760026200056b60018662000832565b62000577919062000805565b6200058385876200084c565b11156200059a5780620005968162000863565b9150505b620004ff565b6000620005ae85876200084c565b1115620004ff5780620005c18162000863565b9695505050505050565b60006001600160c01b03821115620005f65760405163f44398f560e01b815260040160405180910390fd5b5090565b60405161012081016001600160401b03811182821017156200062c57634e487b7160e01b600052604160045260246000fd5b60405290565b80516001600160c01b03811681146200064a57600080fd5b919050565b80516001600160a01b03811681146200064a57600080fd5b805165ffffffffffff811681146200064a57600080fd5b600061012082840312156200069257600080fd5b6200069c620005fa565b620006a78362000632565b8152620006b7602084016200064f565b6020820152620006ca6040840162000632565b6040820152620006dd606084016200064f565b6060820152620006f06080840162000632565b60808201526200070360a0840162000667565b60a082015260c083015160c08201526200072060e0840162000632565b60e0820152610100928301519281019290925250919050565b6000602082840312156200074c57600080fd5b815160ff81168114620004c057600080fd5b634e487b7160e01b600052601160045260246000fd5b60006001600160c01b03838116908316818110156200079757620007976200075e565b039392505050565b60006001600160c01b03828116848216808303821115620007c457620007c46200075e565b01949350505050565b6000816000190483118215151615620007ea57620007ea6200075e565b500290565b634e487b7160e01b600052601260045260246000fd5b600082620008175762000817620007ef565b500490565b634e487b7160e01b600052602160045260246000fd5b6000828210156200084757620008476200075e565b500390565b6000826200085e576200085e620007ef565b500690565b60006000198214156200087a576200087a6200075e565b5060010190565b60805160a05160c05160e05161010051610120516101405161016051610180516101a0516112856200093c60003960008181610333015261084d01526000818161035a01526108110152600061043a0152600081816103db0152610bf00152600081816102f5015261058d015260008181610381015281816105e3015261062a01526000610298015260008181610189015261052b0152600081816101ed01526104ac01526000818161025e015261056b01526112856000f3fe608060405234801561001057600080fd5b506004361061014d5760003560e01c8063a7fa0faf116100c3578063d9e8e6701161007c578063d9e8e670146103b2578063e28a1b86146103c3578063e6a15053146103d6578063e6c83413146103fd578063f8ac93e81461042d578063fdfd59171461043557600080fd5b8063a7fa0faf146102e2578063abfeece5146102f0578063ae4e18751461032e578063b94d873914610355578063c55f29d11461037c578063c59b3d63146103a357600080fd5b8063785e9e8611610115578063785e9e86146101e85780637d1ea137146102275780637dbdf1f5146102595780638b382ee71461028057806395acc4ae14610293578063a035b1fe146102ba57600080fd5b8063200d2ed2146101525780632dc8662414610170578063372500ab146101825780633cb5d379146101845780635580f72a146101bd575b600080fd5b61015a61045c565b6040516101679190610e54565b60405180910390f35b6001545b604051908152602001610167565b005b6101ab7f000000000000000000000000000000000000000000000000000000000000000081565b60405160ff9091168152602001610167565b6101d06101cb366004610e7c565b610486565b6040516001600160c01b039091168152602001610167565b61020f7f000000000000000000000000000000000000000000000000000000000000000081565b6040516001600160a01b039091168152602001610167565b61022f61055a565b604080516001600160c01b0394851681529284166020840152921691810191909152606001610167565b61020f7f000000000000000000000000000000000000000000000000000000000000000081565b6002546101d0906001600160c01b031681565b6101d07f000000000000000000000000000000000000000000000000000000000000000081565b6102c2610668565b604080516001600160c01b03938416815292909116602083015201610167565b670de0b6b3a76400006101d0565b6103177f000000000000000000000000000000000000000000000000000000000000000081565b60405165ffffffffffff9091168152602001610167565b6101d07f000000000000000000000000000000000000000000000000000000000000000081565b6101d07f000000000000000000000000000000000000000000000000000000000000000081565b6101d07f000000000000000000000000000000000000000000000000000000000000000081565b60405160018152602001610167565b6003546001600160c01b03166101d0565b6000546101d0906001600160c01b031681565b6101747f000000000000000000000000000000000000000000000000000000000000000081565b61018261040b366004610eba565b600380546001600160c01b0319166001600160c01b0392909216919091179055565b61018261072f565b6101747f000000000000000000000000000000000000000000000000000000000000000081565b600060001960015414156104705750600090565b4260015411156104805750600190565b50600290565b6040516370a0823160e01b81526001600160a01b038281166004830152600091610554917f000000000000000000000000000000000000000000000000000000000000000016906370a082319060240160206040518083038186803b1580156104ee57600080fd5b505afa158015610502573d6000803e3d6000fd5b505050506040513d601f19601f820116820180604052508101906105269190610ed7565b61054f7f0000000000000000000000000000000000000000000000000000000000000000610f06565b61099c565b92915050565b600080806105b16001600160a01b037f0000000000000000000000000000000000000000000000000000000000000000167f00000000000000000000000000000000000000000000000000000000000000006109aa565b905060006105d06001600160c01b038316670de0b6b3a7640000610987565b9050610617610607670de0b6b3a76400007f0000000000000000000000000000000000000000000000000000000000000000610b39565b6001600160c01b03831690610b45565b935061066061064e670de0b6b3a76400007f0000000000000000000000000000000000000000000000000000000000000000610b53565b6001600160c01b038316906002610b5f565b925050909192565b600080306001600160a01b0316637d1ea1376040518163ffffffff1660e01b815260040160606040518083038186803b1580156106a457600080fd5b505afa9250505080156106d4575060408051601f3d908101601f191682019092526106d191810190610f26565b60015b610725573d808015610702576040519150601f19603f3d011682016040523d82523d6000602084013e610707565b606091505b50805161071357600080fd5b506000926001600160c01b0392509050565b5090939092509050565b600154421061073a57565b600061074461045c565b9050306001600160a01b0316637d1ea1376040518163ffffffff1660e01b815260040160606040518083038186803b15801561077f57600080fd5b505afa9250505080156107af575060408051601f3d908101601f191682019092526107ac91810190610f26565b60015b6107fe573d8080156107dd576040519150601f19603f3d011682016040523d82523d6000602084013e6107e2565b606091505b5080516107ee57600080fd5b6107f86001610b9f565b506108bd565b6001600160c01b038316158061084557507f00000000000000000000000000000000000000000000000000000000000000006001600160c01b0316816001600160c01b0316105b8061088157507f00000000000000000000000000000000000000000000000000000000000000006001600160c01b0316816001600160c01b0316115b15610895576108906001610b9f565b6108b9565b600080546001600160c01b0319166001600160c01b0385161781556108b990610b9f565b5050505b600254670de0b6b3a7640000906001600160c01b03168110156108e4576108e46002610b9f565b600280546001600160c01b0319166001600160c01b038316179055600061090961045c565b905080600281111561091d5761091d610e3e565b83600281111561092f5761092f610e3e565b146109825780600281111561094657610946610e3e565b83600281111561095857610958610e3e565b6040517f99cada7141db4d51b602b2e469ec310c78ffbba0eb05bc3e3e633f30672dea0290600090a35b505050565b600061099583836001610c45565b9392505050565b600061099583836000610c72565b6000806000806000866001600160a01b031663feaf968c6040518163ffffffff1660e01b815260040160a06040518083038186803b1580156109eb57600080fd5b505afa1580156109ff573d6000803e3d6000fd5b505050506040513d601f19601f82011682018060405250810190610a239190610f92565b9450945050935093508160001480610a5257508369ffffffffffffffffffff168169ffffffffffffffffffff16105b15610a7057604051630cd5fa0760e11b815260040160405180910390fd5b6000610a7c8342610fe2565b90508665ffffffffffff168165ffffffffffff161115610aaf57604051630cd5fa0760e11b815260040160405180910390fd5b610b2d84896001600160a01b031663313ce5676040518163ffffffff1660e01b815260040160206040518083038186803b158015610aec57600080fd5b505afa158015610b00573d6000803e3d6000fd5b505050506040513d601f19601f82011682018060405250810190610b249190610ff9565b61054f90610f06565b98975050505050505050565b6000610995828461101c565b600061099583836000610b5f565b60006109958284611047565b6000610b97610b92610b82670de0b6b3a76400006001600160c01b03881661106f565b856001600160c01b031685610d42565b610de2565b949350505050565b4260015411610bab5750565b6000816002811115610bbf57610bbf610e3e565b1415610bce5760001960015550565b6001816002811115610be257610be2610e3e565b1415610c2357610c1d610c157f00000000000000000000000000000000000000000000000000000000000000004261108e565b600154610e10565b60015550565b6002816002811115610c3757610c37610e3e565b1415610c4257426001555b50565b6000610b97610b92610c636001600160c01b0380871690881661106f565b670de0b6b3a764000085610d42565b600083610c8157506000610995565b605f198360000b13610cba576002826002811115610ca157610ca1610e3e565b14610cad576000610cb0565b60015b60ff169050610995565b8260000b602813610cde5760405163f44398f560e01b815260040160405180910390fd5b610ce96012846110a6565b92506000610cf98460000b610e26565b610d0490600a6111cd565b90506000808560000b1215610d2357610d1e868386610d42565b610d2d565b610d2d828761106f565b9050610d3881610de2565b9695505050505050565b600080610d4f84866111ef565b90506000836002811115610d6557610d65610e3e565b1415610d72579050610995565b6001836002811115610d8657610d86610e3e565b1415610dc6576002610d99600186610fe2565b610da391906111ef565b610dad8587611203565b1115610dc15780610dbd81611217565b9150505b610b97565b6000610dd28587611203565b1115610b975780610d3881611217565b60006001600160c01b03821115610e0c5760405163f44398f560e01b815260040160405180910390fd5b5090565b6000818310610e1f5781610995565b5090919050565b6000808212610e355781610554565b61055482611232565b634e487b7160e01b600052602160045260246000fd5b6020810160038310610e7657634e487b7160e01b600052602160045260246000fd5b91905290565b600060208284031215610e8e57600080fd5b81356001600160a01b038116811461099557600080fd5b6001600160c01b0381168114610c4257600080fd5b600060208284031215610ecc57600080fd5b813561099581610ea5565b600060208284031215610ee957600080fd5b5051919050565b634e487b7160e01b600052601160045260246000fd5b600081810b607f19811415610f1d57610f1d610ef0565b60000392915050565b600080600060608486031215610f3b57600080fd5b8351610f4681610ea5565b6020850151909350610f5781610ea5565b6040850151909250610f6881610ea5565b809150509250925092565b805169ffffffffffffffffffff81168114610f8d57600080fd5b919050565b600080600080600060a08688031215610faa57600080fd5b610fb386610f73565b9450602086015193506040860151925060608601519150610fd660808701610f73565b90509295509295909350565b600082821015610ff457610ff4610ef0565b500390565b60006020828403121561100b57600080fd5b815160ff8116811461099557600080fd5b60006001600160c01b0382811684821680830382111561103e5761103e610ef0565b01949350505050565b60006001600160c01b038381169083168181101561106757611067610ef0565b039392505050565b600081600019048311821515161561108957611089610ef0565b500290565b600082198211156110a1576110a1610ef0565b500190565b60008160000b8360000b6000821282607f038213811516156110ca576110ca610ef0565b82607f190382128116156110e0576110e0610ef0565b50019392505050565b600181815b8085111561112457816000190482111561110a5761110a610ef0565b8085161561111757918102915b93841c93908002906110ee565b509250929050565b60008261113b57506001610554565b8161114857506000610554565b816001811461115e576002811461116857611184565b6001915050610554565b60ff84111561117957611179610ef0565b50506001821b610554565b5060208310610133831016604e8410600b84101617156111a7575081810a610554565b6111b183836110e9565b80600019048211156111c5576111c5610ef0565b029392505050565b6000610995838361112c565b634e487b7160e01b600052601260045260246000fd5b6000826111fe576111fe6111d9565b500490565b600082611212576112126111d9565b500690565b600060001982141561122b5761122b610ef0565b5060010190565b6000600160ff1b82141561124857611248610ef0565b506000039056fea264697066735822122045ef0d52728d384c6605cee5587df7ebe17e07b579e3c23dce39226c55c67ea364736f6c63430008090033",
  "linkReferences": {},
  "deployedLinkReferences": {}
}