{
  "_format": "hh-sol-artifact-1",
  "contractName": "AssetRegistryP1V2",
  "sourceName": "contracts/reserve/plugins/mocks/upgrades/AssetRegistryV2.sol",
  "abi": [
    {
      "anonymous": false,
      "inputs": [
        {
          "indexed": false,
          "internalType": "address",
          "name": "previousAdmin",
          "type": "address"
        },
        {
          "indexed": false,
          "internalType": "address",
          "name": "newAdmin",
          "type": "address"
        }
      ],
      "name": "AdminChanged",
      "type": "event"
    },
    {
      "anonymous": false,
      "inputs": [
        {
          "indexed": true,
          "internalType": "contract IERC20",
          "name": "erc20",
          "type": "address"
        },
        {
          "indexed": true,
          "internalType": "contract IAsset",
          "name": "asset",
          "type": "address"
        }
      ],
      "name": "AssetRegistered",
      "type": "event"
    },
    {
      "anonymous": false,
      "inputs": [
        {
          "indexed": true,
          "internalType": "contract IERC20",
          "name": "erc20",
          "type": "address"
        },
        {
          "indexed": true,
          "internalType": "contract IAsset",
          "name": "asset",
          "type": "address"
        }
      ],
      "name": "AssetUnregistered",
      "type": "event"
    },
    {
      "anonymous": false,
      "inputs": [
        {
          "indexed": true,
          "internalType": "address",
          "name": "beacon",
          "type": "address"
        }
      ],
      "name": "BeaconUpgraded",
      "type": "event"
    },
    {
      "anonymous": false,
      "inputs": [
        {
          "indexed": false,
          "internalType": "uint8",
          "name": "version",
          "type": "uint8"
        }
      ],
      "name": "Initialized",
      "type": "event"
    },
    {
      "anonymous": false,
      "inputs": [
        {
          "indexed": true,
          "internalType": "address",
          "name": "implementation",
          "type": "address"
        }
      ],
      "name": "Upgraded",
      "type": "event"
    },
    {
      "inputs": [],
      "name": "erc20s",
      "outputs": [
        {
          "internalType": "contract IERC20[]",
          "name": "erc20s_",
          "type": "address[]"
        }
      ],
      "stateMutability": "view",
      "type": "function"
    },
    {
      "inputs": [],
      "name": "getRegistry",
      "outputs": [
        {
          "components": [
            {
              "internalType": "contract IERC20[]",
              "name": "erc20s",
              "type": "address[]"
            },
            {
              "internalType": "contract IAsset[]",
              "name": "assets",
              "type": "address[]"
            }
          ],
          "internalType": "struct Registry",
          "name": "reg",
          "type": "tuple"
        }
      ],
      "stateMutability": "view",
      "type": "function"
    },
    {
      "inputs": [
        {
          "internalType": "contract IMain",
          "name": "main_",
          "type": "address"
        },
        {
          "internalType": "contract IAsset[]",
          "name": "assets_",
          "type": "address[]"
        }
      ],
      "name": "init",
      "outputs": [],
      "stateMutability": "nonpayable",
      "type": "function"
    },
    {
      "inputs": [
        {
          "internalType": "contract IERC20",
          "name": "erc20",
          "type": "address"
        }
      ],
      "name": "isRegistered",
      "outputs": [
        {
          "internalType": "bool",
          "name": "",
          "type": "bool"
        }
      ],
      "stateMutability": "view",
      "type": "function"
    },
    {
      "inputs": [],
      "name": "main",
      "outputs": [
        {
          "internalType": "contract IMain",
          "name": "",
          "type": "address"
        }
      ],
      "stateMutability": "view",
      "type": "function"
    },
    {
      "inputs": [],
      "name": "newValue",
      "outputs": [
        {
          "internalType": "uint256",
          "name": "",
          "type": "uint256"
        }
      ],
      "stateMutability": "view",
      "type": "function"
    },
    {
      "inputs": [],
      "name": "proxiableUUID",
      "outputs": [
        {
          "internalType": "bytes32",
          "name": "",
          "type": "bytes32"
        }
      ],
      "stateMutability": "view",
      "type": "function"
    },
    {
      "inputs": [],
      "name": "refresh",
      "outputs": [],
      "stateMutability": "nonpayable",
      "type": "function"
    },
    {
      "inputs": [
        {
          "internalType": "contract IAsset",
          "name": "asset",
          "type": "address"
        }
      ],
      "name": "register",
      "outputs": [
        {
          "internalType": "bool",
          "name": "",
          "type": "bool"
        }
      ],
      "stateMutability": "nonpayable",
      "type": "function"
    },
    {
      "inputs": [
        {
          "internalType": "uint256",
          "name": "newValue_",
          "type": "uint256"
        }
      ],
      "name": "setNewValue",
      "outputs": [],
      "stateMutability": "nonpayable",
      "type": "function"
    },
    {
      "inputs": [
        {
          "internalType": "contract IAsset",
          "name": "asset",
          "type": "address"
        }
      ],
      "name": "swapRegistered",
      "outputs": [
        {
          "internalType": "bool",
          "name": "swapped",
          "type": "bool"
        }
      ],
      "stateMutability": "nonpayable",
      "type": "function"
    },
    {
      "inputs": [
        {
          "internalType": "contract IERC20",
          "name": "erc20",
          "type": "address"
        }
      ],
      "name": "toAsset",
      "outputs": [
        {
          "internalType": "contract IAsset",
          "name": "",
          "type": "address"
        }
      ],
      "stateMutability": "view",
      "type": "function"
    },
    {
      "inputs": [
        {
          "internalType": "contract IERC20",
          "name": "erc20",
          "type": "address"
        }
      ],
      "name": "toColl",
      "outputs": [
        {
          "internalType": "contract ICollateral",
          "name": "",
          "type": "address"
        }
      ],
      "stateMutability": "view",
      "type": "function"
    },
    {
      "inputs": [
        {
          "internalType": "contract IAsset",
          "name": "asset",
          "type": "address"
        }
      ],
      "name": "unregister",
      "outputs": [],
      "stateMutability": "nonpayable",
      "type": "function"
    },
    {
      "inputs": [
        {
          "internalType": "address",
          "name": "newImplementation",
          "type": "address"
        }
      ],
      "name": "upgradeTo",
      "outputs": [],
      "stateMutability": "nonpayable",
      "type": "function"
    },
    {
      "inputs": [
        {
          "internalType": "address",
          "name": "newImplementation",
          "type": "address"
        },
        {
          "internalType": "bytes",
          "name": "data",
          "type": "bytes"
        }
      ],
      "name": "upgradeToAndCall",
      "outputs": [],
      "stateMutability": "payable",
      "type": "function"
    },
    {
      "inputs": [],
      "name": "version",
      "outputs": [
        {
          "internalType": "string",
          "name": "",
          "type": "string"
        }
      ],
      "stateMutability": "pure",
      "type": "function"
    }
  ],
  "bytecode": "0x60a0604052306080523480156200001557600080fd5b50600054610100900460ff1615808015620000375750600054600160ff909116105b8062000067575062000054306200014160201b620017101760201c565b15801562000067575060005460ff166001145b620000cf5760405162461bcd60e51b815260206004820152602e60248201527f496e697469616c697a61626c653a20636f6e747261637420697320616c72656160448201526d191e481a5b9a5d1a585b1a5e995960921b606482015260840160405180910390fd5b6000805460ff191660011790558015620000f3576000805461ff0019166101001790555b80156200013a576000805461ff0019169055604051600181527f7f26b83ff96e1f2b6a682f133852f6798a09c465da95921460cefb38474024989060200160405180910390a15b5062000150565b6001600160a01b03163b151590565b60805161269362000188600039600081816109f101528181610a3101528181611094015281816110d4015261116301526126936000f3fe6080604052600436106100fe5760003560e01c806354fd4d5011610095578063951c407711610064578063951c4077146102ba578063c3c5a547146102da578063cde2be8a146102fa578063dffeadd01461031a578063f8ac93e81461033a57600080fd5b806354fd4d501461021657806357a26a401461024a5780635ab1bd53146102825780637c65452c146102a457600080fd5b80633c5a3cea116100d15780633c5a3cea146101a05780634420e486146101c05780634f1ef286146101e057806352d1902d146101f357600080fd5b80632510a1d7146101035780632ec2c2461461012e5780633659cfe6146101505780633ba3712a14610170575b600080fd5b34801561010f57600080fd5b5061011861034f565b60405161012591906120df565b60405180910390f35b34801561013a57600080fd5b5061014e610149366004612141565b6103f9565b005b34801561015c57600080fd5b5061014e61016b366004612141565b6109e6565b34801561017c57600080fd5b5061019061018b366004612141565b610ac6565b6040519015158152602001610125565b3480156101ac57600080fd5b5061014e6101bb36600461215e565b610db1565b3480156101cc57600080fd5b506101906101db366004612141565b610fa5565b61014e6101ee3660046121fc565b611089565b3480156101ff57600080fd5b50610208611156565b604051908152602001610125565b34801561022257600080fd5b5060408051808201825260058152640322e302e360dc1b6020820152905161012591906122ec565b34801561025657600080fd5b5061026a610265366004612141565b611209565b6040516001600160a01b039091168152602001610125565b34801561028e57600080fd5b5061029761134b565b604051610125919061231f565b3480156102b057600080fd5b5061020860fc5481565b3480156102c657600080fd5b5061014e6102d53660046123bc565b6114bd565b3480156102e657600080fd5b506101906102f5366004612141565b611596565b34801561030657600080fd5b5061026a610315366004612141565b6115a3565b34801561032657600080fd5b5060975461026a906001600160a01b031681565b34801561034657600080fd5b5061014e6115f1565b6060600061035d60ca61171f565b90508067ffffffffffffffff811115610378576103786121e6565b6040519080825280602002602001820160405280156103a1578160200160208202803683370190505b50915060005b818110156103f4576103ba60ca82611729565b8382815181106103cc576103cc6123d5565b6001600160a01b03909216602092830291909101909101526103ed81612401565b90506103a7565b505090565b60975460408051808201909152600581526427aba722a960d91b60208201526001600160a01b03909116906391d14854906104339061241c565b336040516001600160e01b031960e085901b16815260048101929092526001600160a01b0316602482015260440160206040518083038186803b15801561047957600080fd5b505afa15801561048d573d6000803e3d6000fd5b505050506040513d601f19601f820116820180604052508101906104b19190612440565b6104d65760405162461bcd60e51b81526004016104cd90612462565b60405180910390fd5b610552816001600160a01b031663785e9e866040518163ffffffff1660e01b815260040160206040518083038186803b15801561051257600080fd5b505afa158015610526573d6000803e3d6000fd5b505050506040513d601f19601f8201168201806040525081019061054a919061248b565b60ca9061173c565b6105975760405162461bcd60e51b815260206004820152601660248201527537379030b9b9b2ba103a37903ab73932b3b4b9ba32b960511b60448201526064016104cd565b806001600160a01b031660cc6000836001600160a01b031663785e9e866040518163ffffffff1660e01b815260040160206040518083038186803b1580156105de57600080fd5b505afa1580156105f2573d6000803e3d6000fd5b505050506040513d601f19601f82011682018060405250810190610616919061248b565b6001600160a01b03908116825260208201929092526040016000205416146106725760405162461bcd60e51b815260206004820152600f60248201526e185cdcd95d081b9bdd08199bdd5b99608a1b60448201526064016104cd565b600060c960009054906101000a90046001600160a01b03166001600160a01b031663a5a5828c836001600160a01b031663785e9e866040518163ffffffff1660e01b815260040160206040518083038186803b1580156106d157600080fd5b505afa1580156106e5573d6000803e3d6000fd5b505050506040513d601f19601f82011682018060405250810190610709919061248b565b6040516001600160e01b031960e084901b1681526001600160a01b03909116600482015260240160206040518083038186803b15801561074857600080fd5b505afa15801561075c573d6000803e3d6000fd5b505050506040513d601f19601f8201168201806040525081019061078091906124a8565b90506107fe826001600160a01b031663785e9e866040518163ffffffff1660e01b815260040160206040518083038186803b1580156107be57600080fd5b505afa1580156107d2573d6000803e3d6000fd5b505050506040513d601f19601f820116820180604052508101906107f6919061248b565b60ca9061175e565b50600060cc6000846001600160a01b031663785e9e866040518163ffffffff1660e01b815260040160206040518083038186803b15801561083e57600080fd5b505afa158015610852573d6000803e3d6000fd5b505050506040513d601f19601f82011682018060405250810190610876919061248b565b6001600160a01b03166001600160a01b0316815260200190815260200160002060006101000a8154816001600160a01b0302191690836001600160a01b03160217905550816001600160a01b0316826001600160a01b031663785e9e866040518163ffffffff1660e01b815260040160206040518083038186803b1580156108fd57600080fd5b505afa158015610911573d6000803e3d6000fd5b505050506040513d601f19601f82011682018060405250810190610935919061248b565b6001600160a01b03167f817f216d12af1855f1b81f88dc6421e26ebc7fa7eca01c58fd1035dd655b3d5460405160405180910390a36001600160c01b038116156109e25760c960009054906101000a90046001600160a01b03166001600160a01b031663e27f3bef6040518163ffffffff1660e01b8152600401600060405180830381600087803b1580156109c957600080fd5b505af11580156109dd573d6000803e3d6000fd5b505050505b5050565b306001600160a01b037f0000000000000000000000000000000000000000000000000000000000000000161415610a2f5760405162461bcd60e51b81526004016104cd906124d1565b7f00000000000000000000000000000000000000000000000000000000000000006001600160a01b0316610a78600080516020612617833981519152546001600160a01b031690565b6001600160a01b031614610a9e5760405162461bcd60e51b81526004016104cd9061251d565b610aa781611773565b60408051600080825260208201909252610ac391839190611847565b50565b60975460408051808201909152600581526427aba722a960d91b60208201526000916001600160a01b0316906391d1485490610b019061241c565b336040516001600160e01b031960e085901b16815260048101929092526001600160a01b0316602482015260440160206040518083038186803b158015610b4757600080fd5b505afa158015610b5b573d6000803e3d6000fd5b505050506040513d601f19601f82011682018060405250810190610b7f9190612440565b610b9b5760405162461bcd60e51b81526004016104cd90612462565b610bd7826001600160a01b031663785e9e866040518163ffffffff1660e01b815260040160206040518083038186803b15801561051257600080fd5b610c185760405162461bcd60e51b815260206004820152601260248201527137379022a92199181031b7b63634b9b4b7b760711b60448201526064016104cd565b600060c960009054906101000a90046001600160a01b03166001600160a01b031663a5a5828c846001600160a01b031663785e9e866040518163ffffffff1660e01b815260040160206040518083038186803b158015610c7757600080fd5b505afa158015610c8b573d6000803e3d6000fd5b505050506040513d601f19601f82011682018060405250810190610caf919061248b565b6040516001600160e01b031960e084901b1681526001600160a01b03909116600482015260240160206040518083038186803b158015610cee57600080fd5b505afa158015610d02573d6000803e3d6000fd5b505050506040513d601f19601f82011682018060405250810190610d2691906124a8565b9050610d31836119c6565b91506001600160c01b03811615610dab5760c960009054906101000a90046001600160a01b03166001600160a01b031663e27f3bef6040518163ffffffff1660e01b8152600401600060405180830381600087803b158015610d9257600080fd5b505af1158015610da6573d6000803e3d6000fd5b505050505b50919050565b600054610100900460ff1615808015610dd15750600054600160ff909116105b80610deb5750303b158015610deb575060005460ff166001145b610e4e5760405162461bcd60e51b815260206004820152602e60248201527f496e697469616c697a61626c653a20636f6e747261637420697320616c72656160448201526d191e481a5b9a5d1a585b1a5e995960921b60648201526084016104cd565b6000805460ff191660011790558015610e71576000805461ff0019166101001790555b610e7a84611b2c565b836001600160a01b0316632f2439b16040518163ffffffff1660e01b815260040160206040518083038186803b158015610eb357600080fd5b505afa158015610ec7573d6000803e3d6000fd5b505050506040513d601f19601f82011682018060405250810190610eeb919061248b565b60c980546001600160a01b0319166001600160a01b03929092169190911790558160005b81811015610f5757610f46858583818110610f2c57610f2c6123d5565b9050602002016020810190610f419190612141565b611bca565b50610f5081612401565b9050610f0f565b50508015610f9f576000805461ff0019169055604051600181527f7f26b83ff96e1f2b6a682f133852f6798a09c465da95921460cefb38474024989060200160405180910390a15b50505050565b60975460408051808201909152600581526427aba722a960d91b60208201526000916001600160a01b0316906391d1485490610fe09061241c565b336040516001600160e01b031960e085901b16815260048101929092526001600160a01b0316602482015260440160206040518083038186803b15801561102657600080fd5b505afa15801561103a573d6000803e3d6000fd5b505050506040513d601f19601f8201168201806040525081019061105e9190612440565b61107a5760405162461bcd60e51b81526004016104cd90612462565b61108382611bca565b92915050565b306001600160a01b037f00000000000000000000000000000000000000000000000000000000000000001614156110d25760405162461bcd60e51b81526004016104cd906124d1565b7f00000000000000000000000000000000000000000000000000000000000000006001600160a01b031661111b600080516020612617833981519152546001600160a01b031690565b6001600160a01b0316146111415760405162461bcd60e51b81526004016104cd9061251d565b61114a82611773565b6109e282826001611847565b6000306001600160a01b037f000000000000000000000000000000000000000000000000000000000000000016146111f65760405162461bcd60e51b815260206004820152603860248201527f555550535570677261646561626c653a206d757374206e6f742062652063616c60448201527f6c6564207468726f7567682064656c656761746563616c6c000000000000000060648201526084016104cd565b5060008051602061261783398151915290565b600061121660ca8361173c565b6112575760405162461bcd60e51b8152602060048201526012602482015271195c98cc8c081d5b9c9959da5cdd195c995960721b60448201526064016104cd565b6001600160a01b03808316600090815260cc602090815260409182902054825163c59b3d6360e01b8152925193169263c59b3d63926004808201939291829003018186803b1580156112a857600080fd5b505afa1580156112bc573d6000803e3d6000fd5b505050506040513d601f19601f820116820180604052508101906112e09190612440565b61132c5760405162461bcd60e51b815260206004820152601760248201527f6572633230206973206e6f7420636f6c6c61746572616c00000000000000000060448201526064016104cd565b506001600160a01b03908116600090815260cc60205260409020541690565b6040805180820190915260608082526020820152600061136b60ca61171f565b90508067ffffffffffffffff811115611386576113866121e6565b6040519080825280602002602001820160405280156113af578160200160208202803683370190505b5082528067ffffffffffffffff8111156113cb576113cb6121e6565b6040519080825280602002602001820160405280156113f4578160200160208202803683370190505b50602083015260005b818110156103f45761141060ca82611729565b8351805183908110611424576114246123d5565b6001600160a01b039092166020928302919091019091015260cc600061144b60ca84611729565b6001600160a01b03166001600160a01b0316815260200190815260200160002060009054906101000a90046001600160a01b031683602001518281518110611495576114956123d5565b6001600160a01b03909216602092830291909101909101526114b681612401565b90506113fd565b60975460408051808201909152600581526427aba722a960d91b60208201526001600160a01b03909116906391d14854906114f79061241c565b336040516001600160e01b031960e085901b16815260048101929092526001600160a01b0316602482015260440160206040518083038186803b15801561153d57600080fd5b505afa158015611551573d6000803e3d6000fd5b505050506040513d601f19601f820116820180604052508101906115759190612440565b6115915760405162461bcd60e51b81526004016104cd90612462565b60fc55565b600061108360ca8361173c565b60006115b060ca8361173c565b61132c5760405162461bcd60e51b8152602060048201526012602482015271195c98cc8c081d5b9c9959da5cdd195c995960721b60448201526064016104cd565b60006115fd60ca61171f565b905060005b818110156109e257600060cc8161161a60ca85611729565b6001600160a01b039081168252602080830193909352604091820160002054825163c59b3d6360e01b8152925191169350839263c59b3d639260048082019391829003018186803b15801561166e57600080fd5b505afa158015611682573d6000803e3d6000fd5b505050506040513d601f19601f820116820180604052508101906116a69190612440565b156116ff57806001600160a01b031663f8ac93e86040518163ffffffff1660e01b8152600401600060405180830381600087803b1580156116e657600080fd5b505af11580156116fa573d6000803e3d6000fd5b505050505b5061170981612401565b9050611602565b6001600160a01b03163b151590565b6000611083825490565b60006117358383611d02565b9392505050565b6001600160a01b03811660009081526001830160205260408120541515611735565b6000611735836001600160a01b038416611d2c565b60975460408051808201909152600581526427aba722a960d91b60208201526001600160a01b03909116906391d14854906117ad9061241c565b336040516001600160e01b031960e085901b16815260048101929092526001600160a01b0316602482015260440160206040518083038186803b1580156117f357600080fd5b505afa158015611807573d6000803e3d6000fd5b505050506040513d601f19601f8201168201806040525081019061182b9190612440565b610ac35760405162461bcd60e51b81526004016104cd90612462565b7f4910fdfa16fed3260ed0e7147f7cc6da11a60208b5b9406d12a635614ffd91435460ff161561187f5761187a83611e1f565b505050565b826001600160a01b03166352d1902d6040518163ffffffff1660e01b815260040160206040518083038186803b1580156118b857600080fd5b505afa9250505080156118e8575060408051601f3d908101601f191682019092526118e591810190612569565b60015b61194b5760405162461bcd60e51b815260206004820152602e60248201527f45524331393637557067726164653a206e657720696d706c656d656e7461746960448201526d6f6e206973206e6f74205555505360901b60648201526084016104cd565b60008051602061261783398151915281146119ba5760405162461bcd60e51b815260206004820152602960248201527f45524331393637557067726164653a20756e737570706f727465642070726f786044820152681a58589b195555525160ba1b60648201526084016104cd565b5061187a838383611ebb565b600080826001600160a01b031663785e9e866040518163ffffffff1660e01b815260040160206040518083038186803b158015611a0257600080fd5b505afa158015611a16573d6000803e3d6000fd5b505050506040513d601f19601f82011682018060405250810190611a3a919061248b565b9050611a4760ca8261173c565b15611ac3576001600160a01b03818116600090815260cc602052604090205481169084161415611a7a5750600092915050565b6001600160a01b03808216600081815260cc60205260408082205490519316927f817f216d12af1855f1b81f88dc6421e26ebc7fa7eca01c58fd1035dd655b3d549190a3611ad0565b611ace60ca82611ee0565b505b6001600160a01b03818116600081815260cc602052604080822080546001600160a01b0319169488169485179055517f7beb5803e95d997a3a41bdd114aad49420e9b4ee9fd80c96b9acb7a8bf9ee0779190a350600192915050565b600054610100900460ff16611b535760405162461bcd60e51b81526004016104cd90612582565b6001600160a01b038116611ba05760405162461bcd60e51b81526020600482015260146024820152736d61696e206973207a65726f206164647265737360601b60448201526064016104cd565b611ba8611ef5565b609780546001600160a01b0319166001600160a01b0392909216919091179055565b6000611c08826001600160a01b031663785e9e866040518163ffffffff1660e01b815260040160206040518083038186803b15801561051257600080fd5b1580611cad5750816001600160a01b031660cc6000846001600160a01b031663785e9e866040518163ffffffff1660e01b815260040160206040518083038186803b158015611c5657600080fd5b505afa158015611c6a573d6000803e3d6000fd5b505050506040513d601f19601f82011682018060405250810190611c8e919061248b565b6001600160a01b03908116825260208201929092526040016000205416145b611cf95760405162461bcd60e51b815260206004820152601860248201527f6475706c6963617465204552433230206465746563746564000000000000000060448201526064016104cd565b611083826119c6565b6000826000018281548110611d1957611d196123d5565b9060005260206000200154905092915050565b60008181526001830160205260408120548015611e15576000611d506001836125cd565b8554909150600090611d64906001906125cd565b9050818114611dc9576000866000018281548110611d8457611d846123d5565b9060005260206000200154905080876000018481548110611da757611da76123d5565b6000918252602080832090910192909255918252600188019052604090208390555b8554869080611dda57611dda6125e4565b600190038181906000526020600020016000905590558560010160008681526020019081526020016000206000905560019350505050611083565b6000915050611083565b6001600160a01b0381163b611e8c5760405162461bcd60e51b815260206004820152602d60248201527f455243313936373a206e657720696d706c656d656e746174696f6e206973206e60448201526c1bdd08184818dbdb9d1c9858dd609a1b60648201526084016104cd565b60008051602061261783398151915280546001600160a01b0319166001600160a01b0392909216919091179055565b611ec483611f1e565b600082511180611ed15750805b1561187a57610f9f8383611f5e565b6000611735836001600160a01b038416612052565b600054610100900460ff16611f1c5760405162461bcd60e51b81526004016104cd90612582565b565b611f2781611e1f565b6040516001600160a01b038216907fbc7cd75a20ee27fd9adebab32041f755214dbc6bffa90cc0225b39da2e5c2d3b90600090a250565b60606001600160a01b0383163b611fc65760405162461bcd60e51b815260206004820152602660248201527f416464726573733a2064656c65676174652063616c6c20746f206e6f6e2d636f6044820152651b9d1c9858dd60d21b60648201526084016104cd565b600080846001600160a01b031684604051611fe191906125fa565b600060405180830381855af49150503d806000811461201c576040519150601f19603f3d011682016040523d82523d6000602084013e612021565b606091505b50915091506120498282604051806060016040528060278152602001612637602791396120a1565b95945050505050565b600081815260018301602052604081205461209957508154600181810184556000848152602080822090930184905584548482528286019093526040902091909155611083565b506000611083565b606083156120b0575081611735565b61173583838151156120c55781518083602001fd5b8060405162461bcd60e51b81526004016104cd91906122ec565b6020808252825182820181905260009190848201906040850190845b818110156121205783516001600160a01b0316835292840192918401916001016120fb565b50909695505050505050565b6001600160a01b0381168114610ac357600080fd5b60006020828403121561215357600080fd5b81356117358161212c565b60008060006040848603121561217357600080fd5b833561217e8161212c565b9250602084013567ffffffffffffffff8082111561219b57600080fd5b818601915086601f8301126121af57600080fd5b8135818111156121be57600080fd5b8760208260051b85010111156121d357600080fd5b6020830194508093505050509250925092565b634e487b7160e01b600052604160045260246000fd5b6000806040838503121561220f57600080fd5b823561221a8161212c565b9150602083013567ffffffffffffffff8082111561223757600080fd5b818501915085601f83011261224b57600080fd5b81358181111561225d5761225d6121e6565b604051601f8201601f19908116603f01168101908382118183101715612285576122856121e6565b8160405282815288602084870101111561229e57600080fd5b8260208601602083013760006020848301015280955050505050509250929050565b60005b838110156122db5781810151838201526020016122c3565b83811115610f9f5750506000910152565b602081526000825180602084015261230b8160408501602087016122c0565b601f01601f19169190910160400192915050565b6020808252825160408383015280516060840181905260009291820190839060808601905b8083101561236f5783516001600160a01b031682526020820191508484019350600183019250612344565b5086840151868203601f190160408801528051808352908501935090840191506000905b808210156121205783516001600160a01b03168352928401929184019160019190910190612393565b6000602082840312156123ce57600080fd5b5035919050565b634e487b7160e01b600052603260045260246000fd5b634e487b7160e01b600052601160045260246000fd5b6000600019821415612415576124156123eb565b5060010190565b80516020808301519190811015610dab5760001960209190910360031b1b16919050565b60006020828403121561245257600080fd5b8151801515811461173557600080fd5b6020808252600f908201526e676f7665726e616e6365206f6e6c7960881b604082015260600190565b60006020828403121561249d57600080fd5b81516117358161212c565b6000602082840312156124ba57600080fd5b81516001600160c01b038116811461173557600080fd5b6020808252602c908201527f46756e6374696f6e206d7573742062652063616c6c6564207468726f7567682060408201526b19195b1959d85d1958d85b1b60a21b606082015260800190565b6020808252602c908201527f46756e6374696f6e206d7573742062652063616c6c6564207468726f7567682060408201526b6163746976652070726f787960a01b606082015260800190565b60006020828403121561257b57600080fd5b5051919050565b6020808252602b908201527f496e697469616c697a61626c653a20636f6e7472616374206973206e6f74206960408201526a6e697469616c697a696e6760a81b606082015260800190565b6000828210156125df576125df6123eb565b500390565b634e487b7160e01b600052603160045260246000fd5b6000825161260c8184602087016122c0565b919091019291505056fe360894a13ba1a3210667c828492db98dca3e2076cc3735a920a3ca505d382bbc416464726573733a206c6f772d6c6576656c2064656c65676174652063616c6c206661696c6564a26469706673582212208ac9024414921a932b81bbe258175daa0a9ff2c662a87dc18af229847181484b64736f6c63430008090033",
  "linkReferences": {},
  "deployedLinkReferences": {}
}