{
  "_format": "hh-sol-artifact-1",
  "contractName": "RTokenP1V2",
  "sourceName": "contracts/reserve/plugins/mocks/upgrades/RTokenV2.sol",
  "abi": [
    {
      "inputs": [],
      "name": "UIntOutOfBounds",
      "type": "error"
    },
    {
      "anonymous": false,
      "inputs": [
        {
          "indexed": false,
          "internalType": "address",
          "name": "previousAdmin",
          "type": "address"
        },
        {
          "indexed": false,
          "internalType": "address",
          "name": "newAdmin",
          "type": "address"
        }
      ],
      "name": "AdminChanged",
      "type": "event"
    },
    {
      "anonymous": false,
      "inputs": [
        {
          "indexed": true,
          "internalType": "address",
          "name": "owner",
          "type": "address"
        },
        {
          "indexed": true,
          "internalType": "address",
          "name": "spender",
          "type": "address"
        },
        {
          "indexed": false,
          "internalType": "uint256",
          "name": "value",
          "type": "uint256"
        }
      ],
      "name": "Approval",
      "type": "event"
    },
    {
      "anonymous": false,
      "inputs": [
        {
          "indexed": false,
          "internalType": "uint192",
          "name": "oldBasketsNeeded",
          "type": "uint192"
        },
        {
          "indexed": false,
          "internalType": "uint192",
          "name": "newBasketsNeeded",
          "type": "uint192"
        }
      ],
      "name": "BasketsNeededChanged",
      "type": "event"
    },
    {
      "anonymous": false,
      "inputs": [
        {
          "indexed": true,
          "internalType": "address",
          "name": "beacon",
          "type": "address"
        }
      ],
      "name": "BeaconUpgraded",
      "type": "event"
    },
    {
      "anonymous": false,
      "inputs": [
        {
          "indexed": false,
          "internalType": "uint8",
          "name": "version",
          "type": "uint8"
        }
      ],
      "name": "Initialized",
      "type": "event"
    },
    {
      "anonymous": false,
      "inputs": [
        {
          "indexed": true,
          "internalType": "address",
          "name": "issuer",
          "type": "address"
        },
        {
          "indexed": true,
          "internalType": "uint256",
          "name": "amount",
          "type": "uint256"
        },
        {
          "indexed": true,
          "internalType": "uint192",
          "name": "baskets",
          "type": "uint192"
        }
      ],
      "name": "Issuance",
      "type": "event"
    },
    {
      "anonymous": false,
      "inputs": [
        {
          "indexed": true,
          "internalType": "uint192",
          "name": "oldVal",
          "type": "uint192"
        },
        {
          "indexed": true,
          "internalType": "uint192",
          "name": "newVal",
          "type": "uint192"
        }
      ],
      "name": "IssuanceRateSet",
      "type": "event"
    },
    {
      "anonymous": false,
      "inputs": [
        {
          "indexed": true,
          "internalType": "address",
          "name": "issuer",
          "type": "address"
        },
        {
          "indexed": true,
          "internalType": "uint256",
          "name": "index",
          "type": "uint256"
        },
        {
          "indexed": true,
          "internalType": "uint256",
          "name": "amount",
          "type": "uint256"
        },
        {
          "indexed": false,
          "internalType": "uint192",
          "name": "baskets",
          "type": "uint192"
        },
        {
          "indexed": false,
          "internalType": "address[]",
          "name": "erc20s",
          "type": "address[]"
        },
        {
          "indexed": false,
          "internalType": "uint256[]",
          "name": "quantities",
          "type": "uint256[]"
        },
        {
          "indexed": false,
          "internalType": "uint192",
          "name": "blockAvailableAt",
          "type": "uint192"
        }
      ],
      "name": "IssuanceStarted",
      "type": "event"
    },
    {
      "anonymous": false,
      "inputs": [
        {
          "indexed": true,
          "internalType": "address",
          "name": "issuer",
          "type": "address"
        },
        {
          "indexed": true,
          "internalType": "uint256",
          "name": "firstId",
          "type": "uint256"
        },
        {
          "indexed": true,
          "internalType": "uint256",
          "name": "endId",
          "type": "uint256"
        },
        {
          "indexed": false,
          "internalType": "uint256",
          "name": "amount",
          "type": "uint256"
        }
      ],
      "name": "IssuancesCanceled",
      "type": "event"
    },
    {
      "anonymous": false,
      "inputs": [
        {
          "indexed": true,
          "internalType": "address",
          "name": "issuer",
          "type": "address"
        },
        {
          "indexed": true,
          "internalType": "uint256",
          "name": "firstId",
          "type": "uint256"
        },
        {
          "indexed": true,
          "internalType": "uint256",
          "name": "endId",
          "type": "uint256"
        },
        {
          "indexed": false,
          "internalType": "uint256",
          "name": "amount",
          "type": "uint256"
        }
      ],
      "name": "IssuancesCompleted",
      "type": "event"
    },
    {
      "anonymous": false,
      "inputs": [
        {
          "indexed": false,
          "internalType": "uint256",
          "name": "amount",
          "type": "uint256"
        }
      ],
      "name": "Melted",
      "type": "event"
    },
    {
      "anonymous": false,
      "inputs": [
        {
          "indexed": true,
          "internalType": "address",
          "name": "redeemer",
          "type": "address"
        },
        {
          "indexed": true,
          "internalType": "uint256",
          "name": "amount",
          "type": "uint256"
        },
        {
          "indexed": false,
          "internalType": "uint192",
          "name": "baskets",
          "type": "uint192"
        }
      ],
      "name": "Redemption",
      "type": "event"
    },
    {
      "anonymous": false,
      "inputs": [
        {
          "indexed": true,
          "internalType": "uint256",
          "name": "oldVal",
          "type": "uint256"
        },
        {
          "indexed": true,
          "internalType": "uint256",
          "name": "newVal",
          "type": "uint256"
        }
      ],
      "name": "RedemptionRateFloorSet",
      "type": "event"
    },
    {
      "anonymous": false,
      "inputs": [
        {
          "indexed": true,
          "internalType": "contract IERC20",
          "name": "erc20",
          "type": "address"
        },
        {
          "indexed": true,
          "internalType": "uint256",
          "name": "amount",
          "type": "uint256"
        }
      ],
      "name": "RewardsClaimed",
      "type": "event"
    },
    {
      "anonymous": false,
      "inputs": [
        {
          "indexed": true,
          "internalType": "uint192",
          "name": "oldVal",
          "type": "uint192"
        },
        {
          "indexed": true,
          "internalType": "uint192",
          "name": "newVal",
          "type": "uint192"
        }
      ],
      "name": "ScalingRedemptionRateSet",
      "type": "event"
    },
    {
      "anonymous": false,
      "inputs": [
        {
          "indexed": true,
          "internalType": "address",
          "name": "from",
          "type": "address"
        },
        {
          "indexed": true,
          "internalType": "address",
          "name": "to",
          "type": "address"
        },
        {
          "indexed": false,
          "internalType": "uint256",
          "name": "value",
          "type": "uint256"
        }
      ],
      "name": "Transfer",
      "type": "event"
    },
    {
      "anonymous": false,
      "inputs": [
        {
          "indexed": true,
          "internalType": "address",
          "name": "implementation",
          "type": "address"
        }
      ],
      "name": "Upgraded",
      "type": "event"
    },
    {
      "inputs": [],
      "name": "DOMAIN_SEPARATOR",
      "outputs": [
        {
          "internalType": "bytes32",
          "name": "",
          "type": "bytes32"
        }
      ],
      "stateMutability": "view",
      "type": "function"
    },
    {
      "inputs": [
        {
          "internalType": "address",
          "name": "owner",
          "type": "address"
        },
        {
          "internalType": "address",
          "name": "spender",
          "type": "address"
        }
      ],
      "name": "allowance",
      "outputs": [
        {
          "internalType": "uint256",
          "name": "",
          "type": "uint256"
        }
      ],
      "stateMutability": "view",
      "type": "function"
    },
    {
      "inputs": [
        {
          "internalType": "address",
          "name": "spender",
          "type": "address"
        },
        {
          "internalType": "uint256",
          "name": "amount",
          "type": "uint256"
        }
      ],
      "name": "approve",
      "outputs": [
        {
          "internalType": "bool",
          "name": "",
          "type": "bool"
        }
      ],
      "stateMutability": "nonpayable",
      "type": "function"
    },
    {
      "inputs": [
        {
          "internalType": "address",
          "name": "account",
          "type": "address"
        }
      ],
      "name": "balanceOf",
      "outputs": [
        {
          "internalType": "uint256",
          "name": "",
          "type": "uint256"
        }
      ],
      "stateMutability": "view",
      "type": "function"
    },
    {
      "inputs": [],
      "name": "basketsNeeded",
      "outputs": [
        {
          "internalType": "uint192",
          "name": "",
          "type": "uint192"
        }
      ],
      "stateMutability": "view",
      "type": "function"
    },
    {
      "inputs": [
        {
          "internalType": "uint256",
          "name": "endId",
          "type": "uint256"
        },
        {
          "internalType": "bool",
          "name": "earliest",
          "type": "bool"
        }
      ],
      "name": "cancel",
      "outputs": [],
      "stateMutability": "nonpayable",
      "type": "function"
    },
    {
      "inputs": [],
      "name": "claimRewards",
      "outputs": [],
      "stateMutability": "nonpayable",
      "type": "function"
    },
    {
      "inputs": [
        {
          "internalType": "contract IERC20",
          "name": "erc20",
          "type": "address"
        }
      ],
      "name": "claimRewardsSingle",
      "outputs": [],
      "stateMutability": "nonpayable",
      "type": "function"
    },
    {
      "inputs": [],
      "name": "decimals",
      "outputs": [
        {
          "internalType": "uint8",
          "name": "",
          "type": "uint8"
        }
      ],
      "stateMutability": "view",
      "type": "function"
    },
    {
      "inputs": [
        {
          "internalType": "address",
          "name": "spender",
          "type": "address"
        },
        {
          "internalType": "uint256",
          "name": "subtractedValue",
          "type": "uint256"
        }
      ],
      "name": "decreaseAllowance",
      "outputs": [
        {
          "internalType": "bool",
          "name": "",
          "type": "bool"
        }
      ],
      "stateMutability": "nonpayable",
      "type": "function"
    },
    {
      "inputs": [
        {
          "internalType": "address",
          "name": "spender",
          "type": "address"
        },
        {
          "internalType": "uint256",
          "name": "addedValue",
          "type": "uint256"
        }
      ],
      "name": "increaseAllowance",
      "outputs": [
        {
          "internalType": "bool",
          "name": "",
          "type": "bool"
        }
      ],
      "stateMutability": "nonpayable",
      "type": "function"
    },
    {
      "inputs": [
        {
          "internalType": "contract IMain",
          "name": "main_",
          "type": "address"
        },
        {
          "internalType": "string",
          "name": "name_",
          "type": "string"
        },
        {
          "internalType": "string",
          "name": "symbol_",
          "type": "string"
        },
        {
          "internalType": "string",
          "name": "mandate_",
          "type": "string"
        },
        {
          "internalType": "uint192",
          "name": "issuanceRate_",
          "type": "uint192"
        },
        {
          "internalType": "uint192",
          "name": "scalingRedemptionRate_",
          "type": "uint192"
        },
        {
          "internalType": "uint256",
          "name": "redemptionRateFloor_",
          "type": "uint256"
        }
      ],
      "name": "init",
      "outputs": [],
      "stateMutability": "nonpayable",
      "type": "function"
    },
    {
      "inputs": [],
      "name": "issuanceRate",
      "outputs": [
        {
          "internalType": "uint192",
          "name": "",
          "type": "uint192"
        }
      ],
      "stateMutability": "view",
      "type": "function"
    },
    {
      "inputs": [
        {
          "internalType": "uint256",
          "name": "amtRToken",
          "type": "uint256"
        }
      ],
      "name": "issue",
      "outputs": [],
      "stateMutability": "nonpayable",
      "type": "function"
    },
    {
      "inputs": [
        {
          "internalType": "address",
          "name": "account",
          "type": "address"
        },
        {
          "internalType": "uint256",
          "name": "index",
          "type": "uint256"
        }
      ],
      "name": "issueItem",
      "outputs": [
        {
          "components": [
            {
              "internalType": "uint192",
              "name": "when",
              "type": "uint192"
            },
            {
              "internalType": "uint256",
              "name": "amtRToken",
              "type": "uint256"
            },
            {
              "internalType": "uint192",
              "name": "amtBaskets",
              "type": "uint192"
            },
            {
              "internalType": "uint256[]",
              "name": "deposits",
              "type": "uint256[]"
            }
          ],
          "internalType": "struct RTokenP1.IssueItem",
          "name": "",
          "type": "tuple"
        }
      ],
      "stateMutability": "view",
      "type": "function"
    },
    {
      "inputs": [
        {
          "internalType": "address",
          "name": "",
          "type": "address"
        }
      ],
      "name": "issueQueues",
      "outputs": [
        {
          "internalType": "uint256",
          "name": "basketNonce",
          "type": "uint256"
        },
        {
          "internalType": "uint256",
          "name": "left",
          "type": "uint256"
        },
        {
          "internalType": "uint256",
          "name": "right",
          "type": "uint256"
        }
      ],
      "stateMutability": "view",
      "type": "function"
    },
    {
      "inputs": [],
      "name": "main",
      "outputs": [
        {
          "internalType": "contract IMain",
          "name": "",
          "type": "address"
        }
      ],
      "stateMutability": "view",
      "type": "function"
    },
    {
      "inputs": [],
      "name": "mandate",
      "outputs": [
        {
          "internalType": "string",
          "name": "",
          "type": "string"
        }
      ],
      "stateMutability": "view",
      "type": "function"
    },
    {
      "inputs": [
        {
          "internalType": "uint256",
          "name": "amtRToken",
          "type": "uint256"
        }
      ],
      "name": "melt",
      "outputs": [],
      "stateMutability": "nonpayable",
      "type": "function"
    },
    {
      "inputs": [
        {
          "internalType": "address",
          "name": "recipient",
          "type": "address"
        },
        {
          "internalType": "uint256",
          "name": "amtRToken",
          "type": "uint256"
        }
      ],
      "name": "mint",
      "outputs": [],
      "stateMutability": "nonpayable",
      "type": "function"
    },
    {
      "inputs": [],
      "name": "name",
      "outputs": [
        {
          "internalType": "string",
          "name": "",
          "type": "string"
        }
      ],
      "stateMutability": "view",
      "type": "function"
    },
    {
      "inputs": [],
      "name": "newValue",
      "outputs": [
        {
          "internalType": "uint256",
          "name": "",
          "type": "uint256"
        }
      ],
      "stateMutability": "view",
      "type": "function"
    },
    {
      "inputs": [
        {
          "internalType": "address",
          "name": "owner",
          "type": "address"
        }
      ],
      "name": "nonces",
      "outputs": [
        {
          "internalType": "uint256",
          "name": "",
          "type": "uint256"
        }
      ],
      "stateMutability": "view",
      "type": "function"
    },
    {
      "inputs": [
        {
          "internalType": "address",
          "name": "owner",
          "type": "address"
        },
        {
          "internalType": "address",
          "name": "spender",
          "type": "address"
        },
        {
          "internalType": "uint256",
          "name": "value",
          "type": "uint256"
        },
        {
          "internalType": "uint256",
          "name": "deadline",
          "type": "uint256"
        },
        {
          "internalType": "uint8",
          "name": "v",
          "type": "uint8"
        },
        {
          "internalType": "bytes32",
          "name": "r",
          "type": "bytes32"
        },
        {
          "internalType": "bytes32",
          "name": "s",
          "type": "bytes32"
        }
      ],
      "name": "permit",
      "outputs": [],
      "stateMutability": "nonpayable",
      "type": "function"
    },
    {
      "inputs": [],
      "name": "proxiableUUID",
      "outputs": [
        {
          "internalType": "bytes32",
          "name": "",
          "type": "bytes32"
        }
      ],
      "stateMutability": "view",
      "type": "function"
    },
    {
      "inputs": [
        {
          "internalType": "address",
          "name": "account",
          "type": "address"
        }
      ],
      "name": "queueBounds",
      "outputs": [
        {
          "internalType": "uint256",
          "name": "left",
          "type": "uint256"
        },
        {
          "internalType": "uint256",
          "name": "right",
          "type": "uint256"
        }
      ],
      "stateMutability": "view",
      "type": "function"
    },
    {
      "inputs": [
        {
          "internalType": "uint256",
          "name": "amount",
          "type": "uint256"
        }
      ],
      "name": "redeem",
      "outputs": [],
      "stateMutability": "nonpayable",
      "type": "function"
    },
    {
      "inputs": [],
      "name": "redemptionLimit",
      "outputs": [
        {
          "internalType": "uint256",
          "name": "",
          "type": "uint256"
        }
      ],
      "stateMutability": "view",
      "type": "function"
    },
    {
      "inputs": [],
      "name": "redemptionRateFloor",
      "outputs": [
        {
          "internalType": "uint256",
          "name": "",
          "type": "uint256"
        }
      ],
      "stateMutability": "view",
      "type": "function"
    },
    {
      "inputs": [],
      "name": "scalingRedemptionRate",
      "outputs": [
        {
          "internalType": "uint192",
          "name": "",
          "type": "uint192"
        }
      ],
      "stateMutability": "view",
      "type": "function"
    },
    {
      "inputs": [
        {
          "internalType": "uint192",
          "name": "basketsNeeded_",
          "type": "uint192"
        }
      ],
      "name": "setBasketsNeeded",
      "outputs": [],
      "stateMutability": "nonpayable",
      "type": "function"
    },
    {
      "inputs": [
        {
          "internalType": "uint192",
          "name": "val",
          "type": "uint192"
        }
      ],
      "name": "setIssuanceRate",
      "outputs": [],
      "stateMutability": "nonpayable",
      "type": "function"
    },
    {
      "inputs": [
        {
          "internalType": "uint256",
          "name": "newValue_",
          "type": "uint256"
        }
      ],
      "name": "setNewValue",
      "outputs": [],
      "stateMutability": "nonpayable",
      "type": "function"
    },
    {
      "inputs": [
        {
          "internalType": "uint256",
          "name": "val",
          "type": "uint256"
        }
      ],
      "name": "setRedemptionRateFloor",
      "outputs": [],
      "stateMutability": "nonpayable",
      "type": "function"
    },
    {
      "inputs": [
        {
          "internalType": "uint192",
          "name": "val",
          "type": "uint192"
        }
      ],
      "name": "setScalingRedemptionRate",
      "outputs": [],
      "stateMutability": "nonpayable",
      "type": "function"
    },
    {
      "inputs": [],
      "name": "sweepRewards",
      "outputs": [],
      "stateMutability": "nonpayable",
      "type": "function"
    },
    {
      "inputs": [
        {
          "internalType": "contract IERC20",
          "name": "erc20",
          "type": "address"
        }
      ],
      "name": "sweepRewardsSingle",
      "outputs": [],
      "stateMutability": "nonpayable",
      "type": "function"
    },
    {
      "inputs": [],
      "name": "symbol",
      "outputs": [
        {
          "internalType": "string",
          "name": "",
          "type": "string"
        }
      ],
      "stateMutability": "view",
      "type": "function"
    },
    {
      "inputs": [],
      "name": "totalSupply",
      "outputs": [
        {
          "internalType": "uint256",
          "name": "",
          "type": "uint256"
        }
      ],
      "stateMutability": "view",
      "type": "function"
    },
    {
      "inputs": [
        {
          "internalType": "address",
          "name": "to",
          "type": "address"
        },
        {
          "internalType": "uint256",
          "name": "amount",
          "type": "uint256"
        }
      ],
      "name": "transfer",
      "outputs": [
        {
          "internalType": "bool",
          "name": "",
          "type": "bool"
        }
      ],
      "stateMutability": "nonpayable",
      "type": "function"
    },
    {
      "inputs": [
        {
          "internalType": "address",
          "name": "from",
          "type": "address"
        },
        {
          "internalType": "address",
          "name": "to",
          "type": "address"
        },
        {
          "internalType": "uint256",
          "name": "amount",
          "type": "uint256"
        }
      ],
      "name": "transferFrom",
      "outputs": [
        {
          "internalType": "bool",
          "name": "",
          "type": "bool"
        }
      ],
      "stateMutability": "nonpayable",
      "type": "function"
    },
    {
      "inputs": [
        {
          "internalType": "address",
          "name": "newImplementation",
          "type": "address"
        }
      ],
      "name": "upgradeTo",
      "outputs": [],
      "stateMutability": "nonpayable",
      "type": "function"
    },
    {
      "inputs": [
        {
          "internalType": "address",
          "name": "newImplementation",
          "type": "address"
        },
        {
          "internalType": "bytes",
          "name": "data",
          "type": "bytes"
        }
      ],
      "name": "upgradeToAndCall",
      "outputs": [],
      "stateMutability": "payable",
      "type": "function"
    },
    {
      "inputs": [],
      "name": "version",
      "outputs": [
        {
          "internalType": "string",
          "name": "",
          "type": "string"
        }
      ],
      "stateMutability": "pure",
      "type": "function"
    },
    {
      "inputs": [
        {
          "internalType": "address",
          "name": "account",
          "type": "address"
        },
        {
          "internalType": "uint256",
          "name": "endId",
          "type": "uint256"
        }
      ],
      "name": "vest",
      "outputs": [],
      "stateMutability": "nonpayable",
      "type": "function"
    }
  ],
  "bytecode": "0x60a0604052306080523480156200001557600080fd5b50600054610100900460ff1615808015620000375750600054600160ff909116105b8062000067575062000054306200014160201b620034ce1760201c565b15801562000067575060005460ff166001145b620000cf5760405162461bcd60e51b815260206004820152602e60248201527f496e697469616c697a61626c653a20636f6e747261637420697320616c72656160448201526d191e481a5b9a5d1a585b1a5e995960921b606482015260840160405180910390fd5b6000805460ff191660011790558015620000f3576000805461ff0019166101001790555b80156200013a576000805461ff0019169055604051600181527f7f26b83ff96e1f2b6a682f133852f6798a09c465da95921460cefb38474024989060200160405180910390a15b5062000150565b6001600160a01b03163b151590565b6080516160b562000188600039600081816111a6015281816111e6015281816117e30152818161182301526118b201526160b56000f3fe6080604052600436106102725760003560e01c8063639654491161014f578063ac9da583116100c1578063d505accf1161007a578063d505accf146107bc578063db006a75146107dc578063dd62ed3e146107fc578063dffeadd01461081c578063ee5eef9f14610854578063f646e5971461087357600080fd5b8063ac9da583146106cd578063acda2a9d146106e3578063adaef42c14610710578063c1e4d03414610730578063c9d6bb7914610745578063cc872b661461079c57600080fd5b80638c83ed33116101135780638c83ed3314610618578063951c40771461063857806395d89b4114610658578063a457c2d71461066d578063a51720d91461068d578063a9059cbb146106ad57600080fd5b8063639654491461056a57806370a082311461058a5780637121c273146105c05780637c65452c146105e15780637ecebe00146105f857600080fd5b806339509351116101e857806347039848116101ac57806347039848146104875780634ba38de4146104df5780634f1ef286146104ff57806352d1902d1461051257806354fd4d50146105275780635a941ea21461055557600080fd5b806339509351146103d957806339b1b96d146103f95780633c9ae2ba1461040e57806340c10f1914610447578063455312ee1461046757600080fd5b80632797c6c81161023a5780632797c6c814610333578063313ce567146103535780633644e5151461036f5780633659cfe614610384578063372500ab146103a457806337dc3191146103b957600080fd5b806306fdde0314610277578063095ea7b3146102a257806318160ddd146102d25780631a14663c146102f157806323b872dd14610313575b600080fd5b34801561028357600080fd5b5061028c610893565b6040516102999190615584565b60405180910390f35b3480156102ae57600080fd5b506102c26102bd3660046155cc565b610925565b6040519015158152602001610299565b3480156102de57600080fd5b5060cb545b604051908152602001610299565b3480156102fd57600080fd5b5061031161030c36600461565d565b61093d565b005b34801561031f57600080fd5b506102c261032e366004615734565b610e46565b34801561033f57600080fd5b5061031161034e3660046155cc565b610e6c565b34801561035f57600080fd5b5060405160128152602001610299565b34801561037b57600080fd5b506102e361118c565b34801561039057600080fd5b5061031161039f366004615775565b61119b565b3480156103b057600080fd5b5061031161127b565b3480156103c557600080fd5b506103116103d43660046157a0565b6112f6565b3480156103e557600080fd5b506102c26103f43660046155cc565b61141f565b34801561040557600080fd5b5061028c611441565b34801561041a57600080fd5b506101625461042f906001600160c01b031681565b6040516001600160c01b039091168152602001610299565b34801561045357600080fd5b506103116104623660046155cc565b6114d0565b34801561047357600080fd5b506103116104823660046157d0565b611548565b34801561049357600080fd5b506104c46104a2366004615775565b61016b6020526000908152604090208054600282015460039092015490919083565b60408051938452602084019290925290820152606001610299565b3480156104eb57600080fd5b506103116104fa3660046157e9565b611652565b61031161050d36600461584b565b6117d8565b34801561051e57600080fd5b506102e36118a5565b34801561053357600080fd5b506040805180820190915260058152640322e302e360dc1b602082015261028c565b34801561056157600080fd5b506102e3611958565b34801561057657600080fd5b506103116105853660046157e9565b61196f565b34801561059657600080fd5b506102e36105a5366004615775565b6001600160a01b0316600090815260c9602052604090205490565b3480156105cc57600080fd5b506101675461042f906001600160c01b031681565b3480156105ed57600080fd5b506102e36101955481565b34801561060457600080fd5b506102e3610613366004615775565b611a2b565b34801561062457600080fd5b506103116106333660046157d0565b611a4c565b34801561064457600080fd5b506103116106533660046157d0565b611b34565b34801561066457600080fd5b5061028c611c0e565b34801561067957600080fd5b506102c26106883660046155cc565b611c1d565b34801561069957600080fd5b506103116106a83660046157e9565b611ca3565b3480156106b957600080fd5b506102c26106c83660046155cc565b611e42565b3480156106d957600080fd5b5061016c546102e3565b3480156106ef57600080fd5b506107036106fe3660046155cc565b611e50565b604051610299919061592e565b34801561071c57600080fd5b5061031161072b366004615775565b611f6f565b34801561073c57600080fd5b50610311612064565b34801561075157600080fd5b50610787610760366004615775565b6001600160a01b0316600090815261016b6020526040902060028101546003909101549091565b60408051928352602083019190915201610299565b3480156107a857600080fd5b506103116107b73660046157d0565b6120c4565b3480156107c857600080fd5b506103116107d7366004615973565b612b41565b3480156107e857600080fd5b506103116107f73660046157d0565b612cbc565b34801561080857600080fd5b506102e36108173660046159ea565b61343b565b34801561082857600080fd5b5060975461083c906001600160a01b031681565b6040516001600160a01b039091168152602001610299565b34801561086057600080fd5b5061016d546001600160c01b031661042f565b34801561087f57600080fd5b5061031161088e366004615775565b613466565b606060cc80546108a290615a18565b80601f01602080910402602001604051908101604052809291908181526020018280546108ce90615a18565b801561091b5780601f106108f05761010080835404028352916020019161091b565b820191906000526020600020905b8154815290600101906020018083116108fe57829003601f168201915b5050505050905090565b6000336109338185856134dd565b5060019392505050565b600054610100900460ff161580801561095d5750600054600160ff909116105b806109775750303b158015610977575060005460ff166001145b6109df5760405162461bcd60e51b815260206004820152602e60248201527f496e697469616c697a61626c653a20636f6e747261637420697320616c72656160448201526d191e481a5b9a5d1a585b1a5e995960921b60648201526084015b60405180910390fd5b6000805460ff191660011790558015610a02576000805461ff0019166101001790555b88610a3c5760405162461bcd60e51b815260206004820152600a6024820152696e616d6520656d70747960b01b60448201526064016109d6565b86610a785760405162461bcd60e51b815260206004820152600c60248201526b73796d626f6c20656d70747960a01b60448201526064016109d6565b84610ab55760405162461bcd60e51b815260206004820152600d60248201526c6d616e6461746520656d70747960981b60448201526064016109d6565b610abe8b613601565b610b318a8a8080601f01602080910402602001604051908101604052809392919081815260200183838082843760009201919091525050604080516020601f8e018190048102820181019092528c815292508c91508b908190840183828082843760009201919091525061369f92505050565b610b708a8a8080601f0160208091040260200160405190810160405280939291908181526020018383808284376000920191909152506136d092505050565b8a6001600160a01b031663979d7e866040518163ffffffff1660e01b815260040160206040518083038186803b158015610ba957600080fd5b505afa158015610bbd573d6000803e3d6000fd5b505050506040513d601f19601f82011682018060405250810190610be19190615a4d565b61016360006101000a8154816001600160a01b0302191690836001600160a01b031602179055508a6001600160a01b0316632f2439b16040518163ffffffff1660e01b815260040160206040518083038186803b158015610c4157600080fd5b505afa158015610c55573d6000803e3d6000fd5b505050506040513d601f19601f82011682018060405250810190610c799190615a4d565b61016460006101000a8154816001600160a01b0302191690836001600160a01b031602179055508a6001600160a01b031663dc8af5f66040518163ffffffff1660e01b815260040160206040518083038186803b158015610cd957600080fd5b505afa158015610ced573d6000803e3d6000fd5b505050506040513d601f19601f82011682018060405250810190610d119190615a4d565b61016560006101000a8154816001600160a01b0302191690836001600160a01b031602179055508a6001600160a01b031663656e96e16040518163ffffffff1660e01b815260040160206040518083038186803b158015610d7157600080fd5b505afa158015610d85573d6000803e3d6000fd5b505050506040513d601f19601f82011682018060405250810190610da99190615a4d565b61016680546001600160a01b0319166001600160a01b0392909216919091179055610dd761016187876153bc565b50610de184611ca3565b610dea83611652565b610df382611548565b8015610e39576000805461ff0019169055604051600181527f7f26b83ff96e1f2b6a682f133852f6798a09c465da95921460cefb38474024989060200160405180910390a15b5050505050505050505050565b600033610e5485828561371a565b610e5f85858561378e565b60019150505b9392505050565b609760009054906101000a90046001600160a01b03166001600160a01b031663f17063756040518163ffffffff1660e01b815260040160206040518083038186803b158015610eba57600080fd5b505afa158015610ece573d6000803e3d6000fd5b505050506040513d601f19601f82011682018060405250810190610ef29190615a6a565b15610f0f5760405162461bcd60e51b81526004016109d690615a87565b609760009054906101000a90046001600160a01b03166001600160a01b031663979d7e866040518163ffffffff1660e01b815260040160206040518083038186803b158015610f5d57600080fd5b505afa158015610f71573d6000803e3d6000fd5b505050506040513d601f19601f82011682018060405250810190610f959190615a4d565b6001600160a01b031663f8ac93e86040518163ffffffff1660e01b8152600401600060405180830381600087803b158015610fcf57600080fd5b505af1158015610fe3573d6000803e3d6000fd5b50505050600061016460009054906101000a90046001600160a01b03166001600160a01b031663200d2ed26040518163ffffffff1660e01b815260040160206040518083038186803b15801561103857600080fd5b505afa15801561104c573d6000803e3d6000fd5b505050506040513d601f19601f820116820180604052508101906110709190615ab1565b9050600081600281111561108657611086615ad2565b146110c45760405162461bcd60e51b815260206004820152600e60248201526d18985cdad95d081d5b9cdbdd5b9960921b60448201526064016109d6565b6001600160a01b03808416600090815261016b6020908152604080832061016454825163057ff68760e51b815292519195169263affed0e09260048082019391829003018186803b15801561111857600080fd5b505afa15801561112c573d6000803e3d6000fd5b505050506040513d601f19601f820116820180604052508101906111509190615ae8565b825490915065ffffffffffff82161461117b576111768583600201548460030154613944565b611185565b6111858585613d72565b5050505050565b6000611196614298565b905090565b306001600160a01b037f00000000000000000000000000000000000000000000000000000000000000001614156111e45760405162461bcd60e51b81526004016109d690615b10565b7f00000000000000000000000000000000000000000000000000000000000000006001600160a01b031661122d600080516020616039833981519152546001600160a01b031690565b6001600160a01b0316146112535760405162461bcd60e51b81526004016109d690615b5c565b61125c81614313565b60408051600080825260208201909252611278918391906143e7565b50565b611283614566565b6101635460405163d93888ad60e01b81526001600160a01b03909116600482015273__$08d36e59b955a5499e173aaa3c4eaafd65$__9063d93888ad906024015b60006040518083038186803b1580156112dc57600080fd5b505af41580156112f0573d6000803e3d6000fd5b50505050565b609760009054906101000a90046001600160a01b03166001600160a01b031663054f7d9c6040518163ffffffff1660e01b815260040160206040518083038186803b15801561134457600080fd5b505afa158015611358573d6000803e3d6000fd5b505050506040513d601f19601f8201168201806040525081019061137c9190615a6a565b156113b25760405162461bcd60e51b8152602060048201526006602482015265333937bd32b760d11b60448201526064016109d6565b33600081815261016b60205260409020600281015484108015906113da575080600301548411155b6113f65760405162461bcd60e51b81526004016109d690615ba8565b82156114105761140b82826002015486613944565b6112f0565b6112f082858360030154613944565b600033610933818585611432838361343b565b61143c9190615be4565b6134dd565b610161805461144f90615a18565b80601f016020809104026020016040519081016040528092919081815260200182805461147b90615a18565b80156114c85780601f1061149d576101008083540402835291602001916114c8565b820191906000526020600020905b8154815290600101906020018083116114ab57829003601f168201915b505050505081565b6114d8614566565b610165546001600160a01b0316336001600160a01b0316146115325760405162461bcd60e51b81526020600482015260136024820152723737ba103130b1b5b4b7339036b0b730b3b2b960691b60448201526064016109d6565b61153c828261460b565b6115446146d8565b5050565b60975460408051808201909152600581526427aba722a960d91b60208201526001600160a01b03909116906391d148549061158290615bfc565b336040516001600160e01b031960e085901b16815260048101929092526001600160a01b0316602482015260440160206040518083038186803b1580156115c857600080fd5b505afa1580156115dc573d6000803e3d6000fd5b505050506040513d601f19601f820116820180604052508101906116009190615a6a565b61161c5760405162461bcd60e51b81526004016109d690615c20565b61016c546040518291907f3e4252e7751ab9d091c55f72f757aeebe5acbc8c4859ecdf6eb602db902dcd2890600090a361016c55565b60975460408051808201909152600581526427aba722a960d91b60208201526001600160a01b03909116906391d148549061168c90615bfc565b336040516001600160e01b031960e085901b16815260048101929092526001600160a01b0316602482015260440160206040518083038186803b1580156116d257600080fd5b505afa1580156116e6573d6000803e3d6000fd5b505050506040513d601f19601f8201168201806040525081019061170a9190615a6a565b6117265760405162461bcd60e51b81526004016109d690615c20565b670de0b6b3a76400006001600160c01b038216111561177a5760405162461bcd60e51b815260206004820152601060248201526f34b73b30b634b210333930b1ba34b7b760811b60448201526064016109d6565b61016d546040516001600160c01b038084169216907f538a1900e0a4d6ba9cba8557189d22a09addb52da0c23fffc68d8cbe1badc38490600090a361016d80546001600160c01b0319166001600160c01b0392909216919091179055565b306001600160a01b037f00000000000000000000000000000000000000000000000000000000000000001614156118215760405162461bcd60e51b81526004016109d690615b10565b7f00000000000000000000000000000000000000000000000000000000000000006001600160a01b031661186a600080516020616039833981519152546001600160a01b031690565b6001600160a01b0316146118905760405162461bcd60e51b81526004016109d690615b5c565b61189982614313565b611544828260016143e7565b6000306001600160a01b037f000000000000000000000000000000000000000000000000000000000000000016146119455760405162461bcd60e51b815260206004820152603860248201527f555550535570677261646561626c653a206d757374206e6f742062652063616c60448201527f6c6564207468726f7567682064656c656761746563616c6c000000000000000060648201526084016109d6565b5060008051602061603983398151915290565b600061119661196660cb5490565b61016c906147d5565b611977614566565b610165546001600160a01b0316336001600160a01b0316146119d15760405162461bcd60e51b81526020600482015260136024820152723737ba103130b1b5b4b7339036b0b730b3b2b960691b60448201526064016109d6565b61016754604080516001600160c01b0392831681529183166020830152600080516020616019833981519152910160405180910390a161016780546001600160c01b0319166001600160c01b0383161790556112786146d8565b6001600160a01b038116600090815261012f60205260408120545b92915050565b609760009054906101000a90046001600160a01b03166001600160a01b031663f17063756040518163ffffffff1660e01b815260040160206040518083038186803b158015611a9a57600080fd5b505afa158015611aae573d6000803e3d6000fd5b505050506040513d601f19601f82011682018060405250810190611ad29190615a6a565b15611aef5760405162461bcd60e51b81526004016109d690615a87565b611af93382614893565b6040518181527f12b02b431a920654430b36652724950afbd1e5279648b404790dbd036b1a58a79060200160405180910390a16112786146d8565b60975460408051808201909152600581526427aba722a960d91b60208201526001600160a01b03909116906391d1485490611b6e90615bfc565b336040516001600160e01b031960e085901b16815260048101929092526001600160a01b0316602482015260440160206040518083038186803b158015611bb457600080fd5b505afa158015611bc8573d6000803e3d6000fd5b505050506040513d601f19601f82011682018060405250810190611bec9190615a6a565b611c085760405162461bcd60e51b81526004016109d690615c20565b61019555565b606060cd80546108a290615a18565b60003381611c2b828661343b565b905083811015611c8b5760405162461bcd60e51b815260206004820152602560248201527f45524332303a2064656372656173656420616c6c6f77616e63652062656c6f77604482015264207a65726f60d81b60648201526084016109d6565b611c9882868684036134dd565b506001949350505050565b60975460408051808201909152600581526427aba722a960d91b60208201526001600160a01b03909116906391d1485490611cdd90615bfc565b336040516001600160e01b031960e085901b16815260048101929092526001600160a01b0316602482015260440160206040518083038186803b158015611d2357600080fd5b505afa158015611d37573d6000803e3d6000fd5b505050506040513d601f19601f82011682018060405250810190611d5b9190615a6a565b611d775760405162461bcd60e51b81526004016109d690615c20565b6000816001600160c01b0316118015611da15750670de0b6b3a76400006001600160c01b03821611155b611de45760405162461bcd60e51b8152602060048201526014602482015273696e76616c69642069737375616e63655261746560601b60448201526064016109d6565b610162546040516001600160c01b038084169216907f730a1a6c7a5c39e09096376bae04892ba49664ed38cce3e9608a119449f47bc090600090a361016280546001600160c01b0319166001600160c01b0392909216919091179055565b60003361093381858561378e565b60408051608081018252600080825260208083018290528284018290526060808401526001600160a01b038616825261016b90529190912060028101548310801590611e9f5750806003015483105b611ebb5760405162461bcd60e51b81526004016109d690615ba8565b806004018381548110611ed057611ed0615c49565b600091825260209182902060408051608081018252600490930290910180546001600160c01b0390811684526001820154848601526002820154168383015260038101805483518187028101870190945280845293949193606086019392830182828015611f5d57602002820191906000526020600020905b815481526020019060010190808311611f49575b50505050508152505091505092915050565b611f77614566565b610163546040516366f15f4560e11b81526001600160a01b03838116600483015273__$08d36e59b955a5499e173aaa3c4eaafd65$__9263c944276c9291169063cde2be8a9060240160206040518083038186803b158015611fd857600080fd5b505afa158015611fec573d6000803e3d6000fd5b505050506040513d601f19601f820116820180604052508101906120109190615a4d565b6040516001600160e01b031960e084901b1681526001600160a01b0390911660048201526024015b60006040518083038186803b15801561205057600080fd5b505af4158015611185573d6000803e3d6000fd5b61206c614566565b61016354610165546040516302ffa6e160e01b815261016f60048201526001600160a01b0392831660248201529116604482015273__$08d36e59b955a5499e173aaa3c4eaafd65$__906302ffa6e1906064016112c4565b609760009054906101000a90046001600160a01b03166001600160a01b031663f17063756040518163ffffffff1660e01b815260040160206040518083038186803b15801561211257600080fd5b505afa158015612126573d6000803e3d6000fd5b505050506040513d601f19601f8201168201806040525081019061214a9190615a6a565b156121675760405162461bcd60e51b81526004016109d690615a87565b600081116121ab5760405162461bcd60e51b815260206004820152601160248201527043616e6e6f74206973737565207a65726f60781b60448201526064016109d6565b61016360009054906101000a90046001600160a01b03166001600160a01b031663f8ac93e86040518163ffffffff1660e01b8152600401600060405180830381600087803b1580156121fc57600080fd5b505af1158015612210573d6000803e3d6000fd5b50505050600061221d3390565b9050600061016460009054906101000a90046001600160a01b03166001600160a01b031663affed0e06040518163ffffffff1660e01b815260040160206040518083038186803b15801561227057600080fd5b505afa158015612284573d6000803e3d6000fd5b505050506040513d601f19601f820116820180604052508101906122a89190615ae8565b6001600160a01b038316600090815261016b60205260409020805491925090158015906122de5750805465ffffffffffff831614155b15612405576122f68382600201548360030154613944565b61016360009054906101000a90046001600160a01b03166001600160a01b031663f8ac93e86040518163ffffffff1660e01b8152600401600060405180830381600087803b15801561234757600080fd5b505af115801561235b573d6000803e3d6000fd5b5050505061016460009054906101000a90046001600160a01b03166001600160a01b031663affed0e06040518163ffffffff1660e01b815260040160206040518083038186803b1580156123ae57600080fd5b505afa1580156123c2573d6000803e3d6000fd5b505050506040513d601f19601f820116820180604052508101906123e69190615ae8565b6001600160a01b038416600090815261016b6020526040902090925090505b6101645460408051631006976960e11b815290516000926001600160a01b03169163200d2ed2916004808301926020929190829003018186803b15801561244b57600080fd5b505afa15801561245f573d6000803e3d6000fd5b505050506040513d601f19601f820116820180604052508101906124839190615ab1565b9050600081600281111561249957612499615ad2565b146124d75760405162461bcd60e51b815260206004820152600e60248201526d18985cdad95d081d5b9cdbdd5b9960921b60448201526064016109d6565b61016660009054906101000a90046001600160a01b03166001600160a01b0316635220f5106040518163ffffffff1660e01b8152600401600060405180830381600087803b15801561252857600080fd5b505af115801561253c573d6000803e3d6000fd5b5050505060008061254c60cb5490565b116125575785612577565b61016754612577906001600160c01b03168761257260cb5490565b6149d3565b610164546040516331883c3f60e21b815291925060009182916001600160a01b03169063c620f0fc906125b1908690600290600401615c5f565b60006040518083038186803b1580156125c957600080fd5b505afa1580156125dd573d6000803e3d6000fd5b505050506040513d6000823e601f3d908101601f191682016040526126059190810190615d29565b91509150600061261489614ab6565b905061262843670de0b6b3a7640000615dee565b816001600160c01b031611158015612647575085600301548660020154145b80156126645750600085600281111561266257612662615ad2565b145b156127a657610167546000906126849086906001600160c01b0316615e0d565b61016754604080516001600160c01b0392831681529183166020830152919250600080516020616019833981519152910160405180910390a161016780546001600160c01b0319166001600160c01b0383811691909117909155604051908616908b906001600160a01b038c16907f641331aa871befdfc51e26035df6c966f4b582230d04abe254f92f16f4b8184b90600090a4612722898b61460b565b60005b8451811015610e39576127968a61016560009054906101000a90046001600160a01b031686848151811061275b5761275b615c49565b602002602001015188858151811061277557612775615c49565b60200260200101516001600160a01b0316614c3e909392919063ffffffff16565b61279f81615e38565b9050612725565b60048601546003870154600091116127d75760048088018054600181018255600091825260209091209102016127ff565b866004018760030154815481106127f0576127f0615c49565b90600052602060002090600402015b80546001600160c01b0319166001600160c01b0384161781558451600389015491925090156129915760008860040160018a6003015461283f9190615e53565b8154811061284f5761284f615c49565b906000526020600020906004020190508b816001015461286f9190615be4565b6001840155600281015461288d9088906001600160c01b0316615e0d565b6002840180546001600160c01b0319166001600160c01b0392909216919091179055845167ffffffffffffffff8111156128c9576128c9615804565b6040519080825280602002602001820160405280156128f2578160200160208202803683370190505b508051612909916003860191602090910190615440565b5060005b8281101561298a5785818151811061292757612927615c49565b602002602001015182600301828154811061294457612944615c49565b90600052602060002001546129599190615be4565b84600301828154811061296e5761296e615c49565b60009182526020909120015561298381615e38565b905061290d565b50506129cc565b600182018b90556002820180546001600160c01b0319166001600160c01b03881617905583516129ca9060038401906020870190615440565b505b65ffffffffffff8916885584516129ec9060018a0190602088019061547b565b506003880180549060006129ff83615e38565b91905055508a60018960030154612a169190615e53565b8b6001600160a01b03167f686c6d27990d6139603e98d659f15b28e1d6ec26618cde97d822c5ed8fe5f08d89898989604051612a559493929190615e6a565b60405180910390a460005b81811015612ae657848181518110612a7a57612a7a615c49565b602002602001015161016f6000888481518110612a9957612a99615c49565b60200260200101516001600160a01b03166001600160a01b031681526020019081526020016000206000828254612ad09190615be4565b90915550612adf905081615e38565b9050612a60565b5060005b81811015612b3357612b238b30878481518110612b0957612b09615c49565b602002602001015189858151811061277557612775615c49565b612b2c81615e38565b9050612aea565b505050505050505050505050565b83421115612b915760405162461bcd60e51b815260206004820152601d60248201527f45524332305065726d69743a206578706972656420646561646c696e6500000060448201526064016109d6565b60007f6e71edae12b1b97f4d1f60370fef10105fa2faae0126114a169c64845d6126c9888888612bc08c614ca9565b6040805160208101969096526001600160a01b0394851690860152929091166060840152608083015260a082015260c0810186905260e00160405160208183030381529060405280519060200120905073__$2d1f1df91c509134c97a9b37f5a8e18539$__634a42ee8089612c3484614cd2565b6040516001600160e01b031960e085901b1681526001600160a01b039092166004830152602482015260ff87166044820152606481018690526084810185905260a40160006040518083038186803b158015612c8f57600080fd5b505af4158015612ca3573d6000803e3d6000fd5b50505050612cb28888886134dd565b5050505050505050565b609760009054906101000a90046001600160a01b03166001600160a01b031663054f7d9c6040518163ffffffff1660e01b815260040160206040518083038186803b158015612d0a57600080fd5b505afa158015612d1e573d6000803e3d6000fd5b505050506040513d601f19601f82011682018060405250810190612d429190615a6a565b15612d785760405162461bcd60e51b8152602060048201526006602482015265333937bd32b760d11b60448201526064016109d6565b60008111612dbd5760405162461bcd60e51b815260206004820152601260248201527143616e6e6f742072656465656d207a65726f60701b60448201526064016109d6565b609760009054906101000a90046001600160a01b03166001600160a01b031663979d7e866040518163ffffffff1660e01b815260040160206040518083038186803b158015612e0b57600080fd5b505afa158015612e1f573d6000803e3d6000fd5b505050506040513d601f19601f82011682018060405250810190612e439190615a4d565b6001600160a01b031663f8ac93e86040518163ffffffff1660e01b8152600401600060405180830381600087803b158015612e7d57600080fd5b505af1158015612e91573d6000803e3d6000fd5b505050506000612e9e3390565b905081612ec0826001600160a01b0316600090815260c9602052604090205490565b1015612f025760405162461bcd60e51b81526020600482015260116024820152703737ba1032b737bab3b410292a37b5b2b760791b60448201526064016109d6565b6101645460408051631006976960e11b815290516002926001600160a01b03169163200d2ed2916004808301926020929190829003018186803b158015612f4857600080fd5b505afa158015612f5c573d6000803e3d6000fd5b505050506040513d601f19601f82011682018060405250810190612f809190615ab1565b6002811115612f9157612f91615ad2565b1415612fd45760405162461bcd60e51b815260206004820152601260248201527118dbdb1b185d195c985b08191959985d5b1d60721b60448201526064016109d6565b609760009054906101000a90046001600160a01b03166001600160a01b031663656e96e16040518163ffffffff1660e01b815260040160206040518083038186803b15801561302257600080fd5b505afa158015613036573d6000803e3d6000fd5b505050506040513d601f19601f8201168201806040525081019061305a9190615a4d565b6001600160a01b0316635220f5106040518163ffffffff1660e01b8152600401600060405180830381600087803b15801561309457600080fd5b505af19250505080156130a5575060015b50610167546001600160c01b031660006130be60cb5490565b905060006130d6836001600160c01b031686846149d3565b6040516001600160c01b038216815290915085906001600160a01b038616907f669d5d69fbac2341ef767e638892e6bc8f663ef889d9e82933a66e70d24389789060200160405180910390a3610164546040516331883c3f60e21b815260009182916001600160a01b039091169063c620f0fc9061315a9086908590600401615c5f565b60006040518083038186803b15801561317257600080fd5b505afa158015613186573d6000803e3d6000fd5b505050506040513d6000823e601f3d908101601f191682016040526131ae9190810190615d29565b815191935091506000856131ca8a670de0b6b3a7640000615dee565b6131d49190615f00565b905060005b8281101561330a576000670de0b6b3a764000067ffffffffffffffff166001600160c01b031686838151811061321157613211615c49565b6020908102919091010151610165546040516370a0823160e01b81526001600160a01b0391821660048201529116906370a082319060240160206040518083038186803b15801561326157600080fd5b505afa158015613275573d6000803e3d6000fd5b505050506040513d601f19601f820116820180604052508101906132999190615f22565b6132ac906001600160c01b038616615dee565b6132b69190615f00565b90508482815181106132ca576132ca615c49565b60200260200101518110156132f957808583815181106132ec576132ec615c49565b6020026020010181815250505b5061330381615e38565b90506131d9565b5061331861016c878b614d20565b6133228588615f3b565b61016780546001600160c01b0319166001600160c01b0392831690811790915560408051928a1683526020830191909152600080516020616019833981519152910160405180910390a1613376888a614893565b600160005b838110156133ed5784818151811061339557613395615c49565b6020026020010151600014156133aa576133dd565b81156133b557600091505b6101655485516133dd916001600160a01b0316908c90889085908110612b0957612b09615c49565b6133e681615e38565b905061337b565b50801561342f5760405162461bcd60e51b815260206004820152601060248201526f22b6b83a3c903932b232b6b83a34b7b760811b60448201526064016109d6565b50505050505050505050565b6001600160a01b03918216600090815260ca6020908152604080832093909416825291909152205490565b61346e614566565b610163546101655460405163e9bc733f60e01b815261016f60048201526001600160a01b03808516602483015292831660448201529116606482015273__$08d36e59b955a5499e173aaa3c4eaafd65$__9063e9bc733f90608401612038565b6001600160a01b03163b151590565b6001600160a01b03831661353f5760405162461bcd60e51b8152602060048201526024808201527f45524332303a20617070726f76652066726f6d20746865207a65726f206164646044820152637265737360e01b60648201526084016109d6565b6001600160a01b0382166135a05760405162461bcd60e51b815260206004820152602260248201527f45524332303a20617070726f766520746f20746865207a65726f206164647265604482015261737360f01b60648201526084016109d6565b6001600160a01b03838116600081815260ca602090815260408083209487168084529482529182902085905590518481527f8c5be1e5ebec7d5bd14f71427d1e84f3dd0314c0f7b2291e5b200ac8c7c3b925910160405180910390a3505050565b600054610100900460ff166136285760405162461bcd60e51b81526004016109d690615f63565b6001600160a01b0381166136755760405162461bcd60e51b81526020600482015260146024820152736d61696e206973207a65726f206164647265737360601b60448201526064016109d6565b61367d614dde565b609780546001600160a01b0319166001600160a01b0392909216919091179055565b600054610100900460ff166136c65760405162461bcd60e51b81526004016109d690615f63565b6115448282614e05565b600054610100900460ff166136f75760405162461bcd60e51b81526004016109d690615f63565b61127881604051806040016040528060018152602001603160f81b815250614e53565b6000613726848461343b565b905060001981146112f057818110156137815760405162461bcd60e51b815260206004820152601d60248201527f45524332303a20696e73756666696369656e7420616c6c6f77616e636500000060448201526064016109d6565b6112f084848484036134dd565b6001600160a01b0383166137f25760405162461bcd60e51b815260206004820152602560248201527f45524332303a207472616e736665722066726f6d20746865207a65726f206164604482015264647265737360d81b60648201526084016109d6565b6001600160a01b0382166138545760405162461bcd60e51b815260206004820152602360248201527f45524332303a207472616e7366657220746f20746865207a65726f206164647260448201526265737360e81b60648201526084016109d6565b61385f838383614e94565b6001600160a01b038316600090815260c96020526040902054818110156138d75760405162461bcd60e51b815260206004820152602660248201527f45524332303a207472616e7366657220616d6f756e7420657863656564732062604482015265616c616e636560d01b60648201526084016109d6565b6001600160a01b03808516600081815260c9602052604080822086860390559286168082529083902080548601905591517fddf252ad1be2c89b69c2b068fc378daa952ba7f163c4a11628f55a4df523b3ef906139379086815260200190565b60405180910390a36112f0565b80821061395057505050565b6001600160a01b038316600090815261016b60205260408120600181015490918167ffffffffffffffff81111561398957613989615804565b6040519080825280602002602001820160405280156139b2578160200160208202803683370190505b509050600080600485016139c7600188615e53565b815481106139d7576139d7615c49565b906000526020600020906004020190508660001415613ac4578060010154915060005b84811015613abe57816003018181548110613a1757613a17615c49565b9060005260206000200154848281518110613a3457613a34615c49565b602002602001018181525050838181518110613a5257613a52615c49565b602002602001015161016f6000886001018481548110613a7457613a74615c49565b60009182526020808320909101546001600160a01b0316835282019290925260400181208054909190613aa8908490615e53565b90915550613ab7905081615e38565b90506139fa565b50613bff565b600060048601613ad560018a615e53565b81548110613ae557613ae5615c49565b9060005260206000209060040201905080600101548260010154613b099190615e53565b925060005b85811015613bfc57816003018181548110613b2b57613b2b615c49565b9060005260206000200154836003018281548110613b4b57613b4b615c49565b9060005260206000200154613b609190615e53565b858281518110613b7257613b72615c49565b602002602001018181525050848181518110613b9057613b90615c49565b602002602001015161016f6000896001018481548110613bb257613bb2615c49565b60009182526020808320909101546001600160a01b0316835282019290925260400181208054909190613be6908490615e53565b90915550613bf5905081615e38565b9050613b0e565b50505b868560020154148015613c155750846003015486145b15613c2d576000600286018190556003860155613cb4565b868560020154148015613c435750846003015486105b15613c545760028501869055613cb4565b868560020154108015613c6a5750846003015486145b15613c7b5760038501879055613cb4565b60405162461bcd60e51b815260206004820152600e60248201526d2130b2103932b33ab73229b830b760911b60448201526064016109d6565b8587896001600160a01b03167f8d02f355336bad9d0d69b8a6a40a439e836b5ef070029ea58da8e474b237b5f285604051613cf191815260200190565b60405180910390a460005b6001860154811015613d6757613d5789858381518110613d1e57613d1e615c49565b6020026020010151886001018481548110613d3b57613d3b615c49565b6000918252602090912001546001600160a01b03169190614eed565b613d6081615e38565b9050613cfc565b505050505050505050565b6001600160a01b038216600090815261016b602052604090206002810154821415613d9c57505050565b81816002015411158015613db4575080600301548211155b613dd05760405162461bcd60e51b81526004016109d690615ba8565b6000808060048401613de3600187615e53565b81548110613df357613df3615c49565b9060005260206000209060040201905043670de0b6b3a7640000613e179190615dee565b81546001600160c01b03161115613e655760405162461bcd60e51b815260206004820152601260248201527169737375616e6365206e6f7420726561647960701b60448201526064016109d6565b600184015460008167ffffffffffffffff811115613e8557613e85615804565b604051908082528060200260200182016040528015613eae578160200160208202803683370190505b509050856002015460001415613fa357600183015460028401549095506001600160c01b0316935060005b82811015613f9d57836003018181548110613ef657613ef6615c49565b9060005260206000200154828281518110613f1357613f13615c49565b602002602001018181525050818181518110613f3157613f31615c49565b602002602001015161016f6000896001018481548110613f5357613f53615c49565b60009182526020808320909101546001600160a01b0316835282019290925260400181208054909190613f87908490615e53565b90915550613f96905081615e38565b9050613ed9565b50614107565b60008660040160018860020154613fba9190615e53565b81548110613fca57613fca615c49565b9060005260206000209060040201905080600101548460010154613fee9190615e53565b60028083015490860154919750614011916001600160c01b039182169116615f3b565b945060005b838110156141045781600301818154811061403357614033615c49565b906000526020600020015485600301828154811061405357614053615c49565b90600052602060002001546140689190615e53565b83828151811061407a5761407a615c49565b60200260200101818152505082818151811061409857614098615c49565b602002602001015161016f60008a60010184815481106140ba576140ba615c49565b60009182526020808320909101546001600160a01b03168352820192909252604001812080549091906140ee908490615e53565b909155506140fd905081615e38565b9050614016565b50505b61016754600080516020616019833981519152906001600160c01b031661412e8682615e0d565b604080516001600160c01b0393841681529290911660208301520160405180910390a1610167546141699085906001600160c01b0316615e0d565b61016780546001600160c01b0319166001600160c01b039283161790556040519085169086906001600160a01b038b16907f641331aa871befdfc51e26035df6c966f4b582230d04abe254f92f16f4b8184b90600090a4868660020154896001600160a01b03167f576b8228616b6d68b15aa60bbd34bb40a88ae5f2dc97c20db2b35f3ef6c353f98860405161420191815260200190565b60405180910390a48560030154871415614228576000600287018190556003870155614230565b600286018790555b61423a888661460b565b60005b82811015613d6757610165548251614288916001600160a01b03169084908490811061426b5761426b615c49565b6020026020010151896001018481548110613d3b57613d3b615c49565b61429181615e38565b905061423d565b60006111967f8b73c3c69bb8fe3d512ecc4cf759cc79239f7b179b0ffacaa9a75d522b39400f6142c760fb5490565b60fc546040805160208101859052908101839052606081018290524660808201523060a082015260009060c0016040516020818303038152906040528051906020012090509392505050565b60975460408051808201909152600581526427aba722a960d91b60208201526001600160a01b03909116906391d148549061434d90615bfc565b336040516001600160e01b031960e085901b16815260048101929092526001600160a01b0316602482015260440160206040518083038186803b15801561439357600080fd5b505afa1580156143a7573d6000803e3d6000fd5b505050506040513d601f19601f820116820180604052508101906143cb9190615a6a565b6112785760405162461bcd60e51b81526004016109d690615c20565b7f4910fdfa16fed3260ed0e7147f7cc6da11a60208b5b9406d12a635614ffd91435460ff161561441f5761441a83614f1d565b505050565b826001600160a01b03166352d1902d6040518163ffffffff1660e01b815260040160206040518083038186803b15801561445857600080fd5b505afa925050508015614488575060408051601f3d908101601f1916820190925261448591810190615f22565b60015b6144eb5760405162461bcd60e51b815260206004820152602e60248201527f45524331393637557067726164653a206e657720696d706c656d656e7461746960448201526d6f6e206973206e6f74205555505360901b60648201526084016109d6565b600080516020616039833981519152811461455a5760405162461bcd60e51b815260206004820152602960248201527f45524331393637557067726164653a20756e737570706f727465642070726f786044820152681a58589b195555525160ba1b60648201526084016109d6565b5061441a838383614fb9565b609760009054906101000a90046001600160a01b03166001600160a01b031663f17063756040518163ffffffff1660e01b815260040160206040518083038186803b1580156145b457600080fd5b505afa1580156145c8573d6000803e3d6000fd5b505050506040513d601f19601f820116820180604052508101906145ec9190615a6a565b156146095760405162461bcd60e51b81526004016109d690615a87565b565b6001600160a01b0382166146615760405162461bcd60e51b815260206004820152601f60248201527f45524332303a206d696e7420746f20746865207a65726f20616464726573730060448201526064016109d6565b61466d60008383614e94565b8060cb600082825461467f9190615be4565b90915550506001600160a01b038216600081815260c960209081526040808320805486019055518481527fddf252ad1be2c89b69c2b068fc378daa952ba7f163c4a11628f55a4df523b3ef910160405180910390a35050565b60006146e360cb5490565b9050806146ed5750565b610167546000908290614711906001600160c01b0316670de0b6b3a7640000615dee565b61471b9190615f00565b905060008261472b600182615e53565b6101675461474a906001600160c01b0316670de0b6b3a7640000615dee565b6147549190615be4565b61475e9190615f00565b9050633b9aca00826001600160c01b03161015801561479257506b033b2e3c9fd0803ce8000000816001600160c01b031611155b61441a5760405162461bcd60e51b815260206004820152601460248201527342552072617465206f7574206f662072616e676560601b60448201526064016109d6565b60018201546000908190670de0b6b3a7640000906147fc906001600160c01b031685615dee565b6148069190615f00565b90508084600001541115614818575082545b600184015460009061483990600160c01b900465ffffffffffff1643615fae565b905061012c61485065ffffffffffff831684615dee565b61485a9190615f00565b85600201546148699190615be4565b9250600084831161487a578261487c565b845b90508084111561488a578093505b50505092915050565b6001600160a01b0382166148f35760405162461bcd60e51b815260206004820152602160248201527f45524332303a206275726e2066726f6d20746865207a65726f206164647265736044820152607360f81b60648201526084016109d6565b6148ff82600083614e94565b6001600160a01b038216600090815260c96020526040902054818110156149735760405162461bcd60e51b815260206004820152602260248201527f45524332303a206275726e20616d6f756e7420657863656564732062616c616e604482015261636560f01b60648201526084016109d6565b6001600160a01b038316600081815260c960209081526040808320868603905560cb80548790039055518581529192917fddf252ad1be2c89b69c2b068fc378daa952ba7f163c4a11628f55a4df523b3ef910160405180910390a3505050565b60008060006149e28686614fde565b91509150838210614a065760405163f44398f560e01b815260040160405180910390fd5b60008480614a1657614a16615eea565b868809905081811115614a2a576001830392505b908190039060008590038516808681614a4557614a45615eea565b049550808381614a5757614a57615eea565b049250808160000381614a6c57614a6c615eea565b046001019390930291909101600285810380870282030280870282030280870282030280870282030280870282030280870282030295860290039094029390930295945050505050565b60004361016a541015614b7d574361016a55670de0b6b3a7640000614ada60cb5490565b61016254614af191906001600160c01b0316615dee565b614afb9190615f00565b61016980546001600160c01b0319166001600160c01b0392909216919091179055614b30670de0b6b3a7640000612710615fcd565b610169546001600160c01b0391821691161015614b7d57614b5b670de0b6b3a7640000612710615fcd565b61016980546001600160c01b0319166001600160c01b03929092169190911790555b610168546001600160c01b03166000614b97600143615e53565b614ba990670de0b6b3a7640000615dee565b9050816001600160c01b0316816001600160c01b03161115614bc9578091505b610169546001600160c01b0316614be1600182615f3b565b6001600160c01b0316614bfc86670de0b6b3a7640000615dee565b614c069190615be4565b614c109190615f00565b614c1a9083615e0d565b61016880546001600160c01b0319166001600160c01b038316179055949350505050565b6040516001600160a01b03808516602483015283166044820152606481018290526112f09085906323b872dd60e01b906084015b60408051601f198184030181529190526020810180516001600160e01b03166001600160e01b03199093169290921790915261500b565b6001600160a01b038116600090815261012f602052604090208054600181018255905b50919050565b6000611a46614cdf614298565b8360405161190160f01b6020820152602281018390526042810182905260009060620160405160208183030381529060405280519060200120905092915050565b8254158015614d3a575060018301546001600160c01b0316155b15614d4457505050565b6000614d5084846147d5565b905080821115614da25760405162461bcd60e51b815260206004820152601f60248201527f726564656d7074696f6e206261747465727920696e73756666696369656e740060448201526064016109d6565b60018401805465ffffffffffff60c01b1916600160c01b4365ffffffffffff1602179055614dd08282615e53565b846002018190555050505050565b600054610100900460ff166146095760405162461bcd60e51b81526004016109d690615f63565b600054610100900460ff16614e2c5760405162461bcd60e51b81526004016109d690615f63565b8151614e3f9060cc9060208501906154d0565b50805161441a9060cd9060208401906154d0565b600054610100900460ff16614e7a5760405162461bcd60e51b81526004016109d690615f63565b81516020928301208151919092012060fb9190915560fc55565b6001600160a01b03821630141561441a5760405162461bcd60e51b815260206004820152601760248201527f52546f6b656e207472616e7366657220746f2073656c6600000000000000000060448201526064016109d6565b6040516001600160a01b03831660248201526044810182905261441a90849063a9059cbb60e01b90606401614c72565b6001600160a01b0381163b614f8a5760405162461bcd60e51b815260206004820152602d60248201527f455243313936373a206e657720696d706c656d656e746174696f6e206973206e60448201526c1bdd08184818dbdb9d1c9858dd609a1b60648201526084016109d6565b60008051602061603983398151915280546001600160a01b0319166001600160a01b0392909216919091179055565b614fc2836150dd565b600082511180614fcf5750805b1561441a576112f0838361511d565b6000808060001984860990508385029150818103925081811015615003576001830392505b509250929050565b6000615060826040518060400160405280602081526020017f5361666545524332303a206c6f772d6c6576656c2063616c6c206661696c6564815250856001600160a01b03166152119092919063ffffffff16565b80519091501561441a578080602001905181019061507e9190615a6a565b61441a5760405162461bcd60e51b815260206004820152602a60248201527f5361666545524332303a204552433230206f7065726174696f6e20646964206e6044820152691bdd081cdd58d8d9595960b21b60648201526084016109d6565b6150e681614f1d565b6040516001600160a01b038216907fbc7cd75a20ee27fd9adebab32041f755214dbc6bffa90cc0225b39da2e5c2d3b90600090a250565b60606001600160a01b0383163b6151855760405162461bcd60e51b815260206004820152602660248201527f416464726573733a2064656c65676174652063616c6c20746f206e6f6e2d636f6044820152651b9d1c9858dd60d21b60648201526084016109d6565b600080846001600160a01b0316846040516151a09190615ffc565b600060405180830381855af49150503d80600081146151db576040519150601f19603f3d011682016040523d82523d6000602084013e6151e0565b606091505b5091509150615208828260405180606001604052806027815260200161605960279139615228565b95945050505050565b60606152208484600085615241565b949350505050565b60608315615237575081610e65565b610e65838361531c565b6060824710156152a25760405162461bcd60e51b815260206004820152602660248201527f416464726573733a20696e73756666696369656e742062616c616e636520666f6044820152651c8818d85b1b60d21b60648201526084016109d6565b600080866001600160a01b031685876040516152be9190615ffc565b60006040518083038185875af1925050503d80600081146152fb576040519150601f19603f3d011682016040523d82523d6000602084013e615300565b606091505b509150915061531187838387615346565b979650505050505050565b81511561532c5781518083602001fd5b8060405162461bcd60e51b81526004016109d69190615584565b606083156153b25782516153ab576001600160a01b0385163b6153ab5760405162461bcd60e51b815260206004820152601d60248201527f416464726573733a2063616c6c20746f206e6f6e2d636f6e747261637400000060448201526064016109d6565b5081615220565b615220838361531c565b8280546153c890615a18565b90600052602060002090601f0160209004810192826153ea5760008555615430565b82601f106154035782800160ff19823516178555615430565b82800160010185558215615430579182015b82811115615430578235825591602001919060010190615415565b5061543c929150615543565b5090565b828054828255906000526020600020908101928215615430579160200282015b82811115615430578251825591602001919060010190615460565b828054828255906000526020600020908101928215615430579160200282015b8281111561543057825182546001600160a01b0319166001600160a01b0390911617825560209092019160019091019061549b565b8280546154dc90615a18565b90600052602060002090601f0160209004810192826154fe5760008555615430565b82601f1061551757805160ff1916838001178555615430565b828001600101855582156154305791820182811115615430578251825591602001919060010190615460565b5b8082111561543c5760008155600101615544565b60005b8381101561557357818101518382015260200161555b565b838111156112f05750506000910152565b60208152600082518060208401526155a3816040850160208701615558565b601f01601f19169190910160400192915050565b6001600160a01b038116811461127857600080fd5b600080604083850312156155df57600080fd5b82356155ea816155b7565b946020939093013593505050565b60008083601f84011261560a57600080fd5b50813567ffffffffffffffff81111561562257600080fd5b60208301915083602082850101111561563a57600080fd5b9250929050565b80356001600160c01b038116811461565857600080fd5b919050565b60008060008060008060008060008060e08b8d03121561567c57600080fd5b8a35615687816155b7565b995060208b013567ffffffffffffffff808211156156a457600080fd5b6156b08e838f016155f8565b909b50995060408d01359150808211156156c957600080fd5b6156d58e838f016155f8565b909950975060608d01359150808211156156ee57600080fd5b506156fb8d828e016155f8565b909650945061570e905060808c01615641565b925061571c60a08c01615641565b915060c08b013590509295989b9194979a5092959850565b60008060006060848603121561574957600080fd5b8335615754816155b7565b92506020840135615764816155b7565b929592945050506040919091013590565b60006020828403121561578757600080fd5b8135610e65816155b7565b801515811461127857600080fd5b600080604083850312156157b357600080fd5b8235915060208301356157c581615792565b809150509250929050565b6000602082840312156157e257600080fd5b5035919050565b6000602082840312156157fb57600080fd5b610e6582615641565b634e487b7160e01b600052604160045260246000fd5b604051601f8201601f1916810167ffffffffffffffff8111828210171561584357615843615804565b604052919050565b6000806040838503121561585e57600080fd5b8235615869816155b7565b915060208381013567ffffffffffffffff8082111561588757600080fd5b818601915086601f83011261589b57600080fd5b8135818111156158ad576158ad615804565b6158bf601f8201601f1916850161581a565b915080825287848285010111156158d557600080fd5b80848401858401376000848284010152508093505050509250929050565b600081518084526020808501945080840160005b8381101561592357815187529582019590820190600101615907565b509495945050505050565b60208152600060018060c01b038084511660208401526020840151604084015280604085015116606084015250606083015160808084015261522060a08401826158f3565b600080600080600080600060e0888a03121561598e57600080fd5b8735615999816155b7565b965060208801356159a9816155b7565b95506040880135945060608801359350608088013560ff811681146159cd57600080fd5b9699959850939692959460a0840135945060c09093013592915050565b600080604083850312156159fd57600080fd5b8235615a08816155b7565b915060208301356157c5816155b7565b600181811c90821680615a2c57607f821691505b60208210811415614ccc57634e487b7160e01b600052602260045260246000fd5b600060208284031215615a5f57600080fd5b8151610e65816155b7565b600060208284031215615a7c57600080fd5b8151610e6581615792565b60208082526010908201526f3830bab9b2b21037b910333937bd32b760811b604082015260600190565b600060208284031215615ac357600080fd5b815160038110610e6557600080fd5b634e487b7160e01b600052602160045260246000fd5b600060208284031215615afa57600080fd5b815165ffffffffffff81168114610e6557600080fd5b6020808252602c908201527f46756e6374696f6e206d7573742062652063616c6c6564207468726f7567682060408201526b19195b1959d85d1958d85b1b60a21b606082015260800190565b6020808252602c908201527f46756e6374696f6e206d7573742062652063616c6c6564207468726f7567682060408201526b6163746976652070726f787960a01b606082015260800190565b6020808252600c908201526b6f7574206f662072616e676560a01b604082015260600190565b634e487b7160e01b600052601160045260246000fd5b60008219821115615bf757615bf7615bce565b500190565b80516020808301519190811015614ccc5760001960209190910360031b1b16919050565b6020808252600f908201526e676f7665726e616e6365206f6e6c7960881b604082015260600190565b634e487b7160e01b600052603260045260246000fd5b6001600160c01b03831681526040810160038310615c8d57634e487b7160e01b600052602160045260246000fd5b8260208301529392505050565b600067ffffffffffffffff821115615cb457615cb4615804565b5060051b60200190565b600082601f830112615ccf57600080fd5b81516020615ce4615cdf83615c9a565b61581a565b82815260059290921b84018101918181019086841115615d0357600080fd5b8286015b84811015615d1e5780518352918301918301615d07565b509695505050505050565b60008060408385031215615d3c57600080fd5b825167ffffffffffffffff80821115615d5457600080fd5b818501915085601f830112615d6857600080fd5b81516020615d78615cdf83615c9a565b82815260059290921b84018101918181019089841115615d9757600080fd5b948201945b83861015615dbe578551615daf816155b7565b82529482019490820190615d9c565b91880151919650909350505080821115615dd757600080fd5b50615de485828601615cbe565b9150509250929050565b6000816000190483118215151615615e0857615e08615bce565b500290565b60006001600160c01b03828116848216808303821115615e2f57615e2f615bce565b01949350505050565b6000600019821415615e4c57615e4c615bce565b5060010190565b600082821015615e6557615e65615bce565b500390565b6001600160c01b0385811682526080602080840182905286519184018290526000928782019290919060a0860190855b81811015615ebf5785516001600160a01b031683529483019491830191600101615e9a565b50508581036040870152615ed381896158f3565b945050508085166060850152505095945050505050565b634e487b7160e01b600052601260045260246000fd5b600082615f1d57634e487b7160e01b600052601260045260246000fd5b500490565b600060208284031215615f3457600080fd5b5051919050565b60006001600160c01b0383811690831681811015615f5b57615f5b615bce565b039392505050565b6020808252602b908201527f496e697469616c697a61626c653a20636f6e7472616374206973206e6f74206960408201526a6e697469616c697a696e6760a81b606082015260800190565b600065ffffffffffff83811690831681811015615f5b57615f5b615bce565b60006001600160c01b0382811684821681151582840482111615615ff357615ff3615bce565b02949350505050565b6000825161600e818460208701615558565b919091019291505056fe0b0ca69be72e0611a1f79eedf91aece404ff14cb8fcfd0c997a72b68d4fdd478360894a13ba1a3210667c828492db98dca3e2076cc3735a920a3ca505d382bbc416464726573733a206c6f772d6c6576656c2064656c65676174652063616c6c206661696c6564a264697066735822122065ae35c2224b85e02753f691c437db5ae270251aa7c0852c47d3efb0fb962baa64736f6c63430008090033",
  "linkReferences": {
    "contracts/reserve/libraries/Permit.sol": {
      "PermitLib": [
        {
          "length": 20,
          "start": 11674
        }
      ]
    },
    "contracts/reserve/p1/mixins/RewardableLib.sol": {
      "RewardableLibP1": [
        {
          "length": 20,
          "start": 5166
        },
        {
          "length": 20,
          "start": 8482
        },
        {
          "length": 20,
          "start": 8746
        },
        {
          "length": 20,
          "start": 13876
        }
      ]
    }
  },
  "deployedLinkReferences": {
    "contracts/reserve/libraries/Permit.sol": {
      "PermitLib": [
        {
          "length": 20,
          "start": 11282
        }
      ]
    },
    "contracts/reserve/p1/mixins/RewardableLib.sol": {
      "RewardableLibP1": [
        {
          "length": 20,
          "start": 4774
        },
        {
          "length": 20,
          "start": 8090
        },
        {
          "length": 20,
          "start": 8354
        },
        {
          "length": 20,
          "start": 13484
        }
      ]
    }
  }
}