{
  "_format": "hh-sol-artifact-1",
  "contractName": "StRSRP1Votes",
  "sourceName": "contracts/reserve/p1/StRSRVotes.sol",
  "abi": [
    {
      "inputs": [],
      "name": "UIntOutOfBounds",
      "type": "error"
    },
    {
      "anonymous": false,
      "inputs": [
        {
          "indexed": false,
          "internalType": "address",
          "name": "previousAdmin",
          "type": "address"
        },
        {
          "indexed": false,
          "internalType": "address",
          "name": "newAdmin",
          "type": "address"
        }
      ],
      "name": "AdminChanged",
      "type": "event"
    },
    {
      "anonymous": false,
      "inputs": [
        {
          "indexed": true,
          "internalType": "uint256",
          "name": "newEra",
          "type": "uint256"
        }
      ],
      "name": "AllBalancesReset",
      "type": "event"
    },
    {
      "anonymous": false,
      "inputs": [
        {
          "indexed": true,
          "internalType": "uint256",
          "name": "newEra",
          "type": "uint256"
        }
      ],
      "name": "AllUnstakingReset",
      "type": "event"
    },
    {
      "anonymous": false,
      "inputs": [
        {
          "indexed": true,
          "internalType": "address",
          "name": "owner",
          "type": "address"
        },
        {
          "indexed": true,
          "internalType": "address",
          "name": "spender",
          "type": "address"
        },
        {
          "indexed": false,
          "internalType": "uint256",
          "name": "value",
          "type": "uint256"
        }
      ],
      "name": "Approval",
      "type": "event"
    },
    {
      "anonymous": false,
      "inputs": [
        {
          "indexed": true,
          "internalType": "address",
          "name": "beacon",
          "type": "address"
        }
      ],
      "name": "BeaconUpgraded",
      "type": "event"
    },
    {
      "anonymous": false,
      "inputs": [
        {
          "indexed": true,
          "internalType": "address",
          "name": "delegator",
          "type": "address"
        },
        {
          "indexed": true,
          "internalType": "address",
          "name": "fromDelegate",
          "type": "address"
        },
        {
          "indexed": true,
          "internalType": "address",
          "name": "toDelegate",
          "type": "address"
        }
      ],
      "name": "DelegateChanged",
      "type": "event"
    },
    {
      "anonymous": false,
      "inputs": [
        {
          "indexed": true,
          "internalType": "address",
          "name": "delegate",
          "type": "address"
        },
        {
          "indexed": false,
          "internalType": "uint256",
          "name": "previousBalance",
          "type": "uint256"
        },
        {
          "indexed": false,
          "internalType": "uint256",
          "name": "newBalance",
          "type": "uint256"
        }
      ],
      "name": "DelegateVotesChanged",
      "type": "event"
    },
    {
      "anonymous": false,
      "inputs": [
        {
          "indexed": true,
          "internalType": "uint192",
          "name": "oldVal",
          "type": "uint192"
        },
        {
          "indexed": true,
          "internalType": "uint192",
          "name": "newVal",
          "type": "uint192"
        }
      ],
      "name": "ExchangeRateSet",
      "type": "event"
    },
    {
      "anonymous": false,
      "inputs": [
        {
          "indexed": false,
          "internalType": "uint8",
          "name": "version",
          "type": "uint8"
        }
      ],
      "name": "Initialized",
      "type": "event"
    },
    {
      "anonymous": false,
      "inputs": [
        {
          "indexed": true,
          "internalType": "uint48",
          "name": "oldVal",
          "type": "uint48"
        },
        {
          "indexed": true,
          "internalType": "uint48",
          "name": "newVal",
          "type": "uint48"
        }
      ],
      "name": "RewardPeriodSet",
      "type": "event"
    },
    {
      "anonymous": false,
      "inputs": [
        {
          "indexed": true,
          "internalType": "uint192",
          "name": "oldVal",
          "type": "uint192"
        },
        {
          "indexed": true,
          "internalType": "uint192",
          "name": "newVal",
          "type": "uint192"
        }
      ],
      "name": "RewardRatioSet",
      "type": "event"
    },
    {
      "anonymous": false,
      "inputs": [
        {
          "indexed": true,
          "internalType": "uint256",
          "name": "rsrAmt",
          "type": "uint256"
        }
      ],
      "name": "RewardsPaid",
      "type": "event"
    },
    {
      "anonymous": false,
      "inputs": [
        {
          "indexed": true,
          "internalType": "uint256",
          "name": "era",
          "type": "uint256"
        },
        {
          "indexed": true,
          "internalType": "address",
          "name": "staker",
          "type": "address"
        },
        {
          "indexed": false,
          "internalType": "uint256",
          "name": "rsrAmount",
          "type": "uint256"
        },
        {
          "indexed": true,
          "internalType": "uint256",
          "name": "stRSRAmount",
          "type": "uint256"
        }
      ],
      "name": "Staked",
      "type": "event"
    },
    {
      "anonymous": false,
      "inputs": [
        {
          "indexed": true,
          "internalType": "address",
          "name": "from",
          "type": "address"
        },
        {
          "indexed": true,
          "internalType": "address",
          "name": "to",
          "type": "address"
        },
        {
          "indexed": false,
          "internalType": "uint256",
          "name": "value",
          "type": "uint256"
        }
      ],
      "name": "Transfer",
      "type": "event"
    },
    {
      "anonymous": false,
      "inputs": [
        {
          "indexed": true,
          "internalType": "uint256",
          "name": "firstId",
          "type": "uint256"
        },
        {
          "indexed": true,
          "internalType": "uint256",
          "name": "endId",
          "type": "uint256"
        },
        {
          "indexed": false,
          "internalType": "uint256",
          "name": "draftEra",
          "type": "uint256"
        },
        {
          "indexed": true,
          "internalType": "address",
          "name": "staker",
          "type": "address"
        },
        {
          "indexed": false,
          "internalType": "uint256",
          "name": "rsrAmount",
          "type": "uint256"
        }
      ],
      "name": "UnstakingCompleted",
      "type": "event"
    },
    {
      "anonymous": false,
      "inputs": [
        {
          "indexed": true,
          "internalType": "uint48",
          "name": "oldVal",
          "type": "uint48"
        },
        {
          "indexed": true,
          "internalType": "uint48",
          "name": "newVal",
          "type": "uint48"
        }
      ],
      "name": "UnstakingDelaySet",
      "type": "event"
    },
    {
      "anonymous": false,
      "inputs": [
        {
          "indexed": true,
          "internalType": "uint256",
          "name": "draftId",
          "type": "uint256"
        },
        {
          "indexed": true,
          "internalType": "uint256",
          "name": "draftEra",
          "type": "uint256"
        },
        {
          "indexed": true,
          "internalType": "address",
          "name": "staker",
          "type": "address"
        },
        {
          "indexed": false,
          "internalType": "uint256",
          "name": "rsrAmount",
          "type": "uint256"
        },
        {
          "indexed": false,
          "internalType": "uint256",
          "name": "stRSRAmount",
          "type": "uint256"
        },
        {
          "indexed": false,
          "internalType": "uint256",
          "name": "availableAt",
          "type": "uint256"
        }
      ],
      "name": "UnstakingStarted",
      "type": "event"
    },
    {
      "anonymous": false,
      "inputs": [
        {
          "indexed": true,
          "internalType": "address",
          "name": "implementation",
          "type": "address"
        }
      ],
      "name": "Upgraded",
      "type": "event"
    },
    {
      "inputs": [],
      "name": "DOMAIN_SEPARATOR",
      "outputs": [
        {
          "internalType": "bytes32",
          "name": "",
          "type": "bytes32"
        }
      ],
      "stateMutability": "view",
      "type": "function"
    },
    {
      "inputs": [],
      "name": "MAX_REWARD_PERIOD",
      "outputs": [
        {
          "internalType": "uint48",
          "name": "",
          "type": "uint48"
        }
      ],
      "stateMutability": "view",
      "type": "function"
    },
    {
      "inputs": [],
      "name": "MAX_REWARD_RATIO",
      "outputs": [
        {
          "internalType": "uint192",
          "name": "",
          "type": "uint192"
        }
      ],
      "stateMutability": "view",
      "type": "function"
    },
    {
      "inputs": [],
      "name": "MAX_UNSTAKING_DELAY",
      "outputs": [
        {
          "internalType": "uint48",
          "name": "",
          "type": "uint48"
        }
      ],
      "stateMutability": "view",
      "type": "function"
    },
    {
      "inputs": [
        {
          "internalType": "address",
          "name": "owner",
          "type": "address"
        },
        {
          "internalType": "address",
          "name": "spender",
          "type": "address"
        }
      ],
      "name": "allowance",
      "outputs": [
        {
          "internalType": "uint256",
          "name": "",
          "type": "uint256"
        }
      ],
      "stateMutability": "view",
      "type": "function"
    },
    {
      "inputs": [
        {
          "internalType": "address",
          "name": "spender",
          "type": "address"
        },
        {
          "internalType": "uint256",
          "name": "amount",
          "type": "uint256"
        }
      ],
      "name": "approve",
      "outputs": [
        {
          "internalType": "bool",
          "name": "",
          "type": "bool"
        }
      ],
      "stateMutability": "nonpayable",
      "type": "function"
    },
    {
      "inputs": [
        {
          "internalType": "address",
          "name": "account",
          "type": "address"
        }
      ],
      "name": "balanceOf",
      "outputs": [
        {
          "internalType": "uint256",
          "name": "",
          "type": "uint256"
        }
      ],
      "stateMutability": "view",
      "type": "function"
    },
    {
      "inputs": [
        {
          "internalType": "address",
          "name": "account",
          "type": "address"
        },
        {
          "internalType": "uint48",
          "name": "pos",
          "type": "uint48"
        }
      ],
      "name": "checkpoints",
      "outputs": [
        {
          "components": [
            {
              "internalType": "uint48",
              "name": "fromBlock",
              "type": "uint48"
            },
            {
              "internalType": "uint224",
              "name": "val",
              "type": "uint224"
            }
          ],
          "internalType": "struct StRSRP1Votes.Checkpoint",
          "name": "",
          "type": "tuple"
        }
      ],
      "stateMutability": "view",
      "type": "function"
    },
    {
      "inputs": [],
      "name": "currentEra",
      "outputs": [
        {
          "internalType": "uint256",
          "name": "",
          "type": "uint256"
        }
      ],
      "stateMutability": "view",
      "type": "function"
    },
    {
      "inputs": [],
      "name": "decimals",
      "outputs": [
        {
          "internalType": "uint8",
          "name": "",
          "type": "uint8"
        }
      ],
      "stateMutability": "view",
      "type": "function"
    },
    {
      "inputs": [
        {
          "internalType": "address",
          "name": "spender",
          "type": "address"
        },
        {
          "internalType": "uint256",
          "name": "subtractedValue",
          "type": "uint256"
        }
      ],
      "name": "decreaseAllowance",
      "outputs": [
        {
          "internalType": "bool",
          "name": "",
          "type": "bool"
        }
      ],
      "stateMutability": "nonpayable",
      "type": "function"
    },
    {
      "inputs": [
        {
          "internalType": "address",
          "name": "delegatee",
          "type": "address"
        }
      ],
      "name": "delegate",
      "outputs": [],
      "stateMutability": "nonpayable",
      "type": "function"
    },
    {
      "inputs": [
        {
          "internalType": "address",
          "name": "delegatee",
          "type": "address"
        },
        {
          "internalType": "uint256",
          "name": "nonce",
          "type": "uint256"
        },
        {
          "internalType": "uint256",
          "name": "expiry",
          "type": "uint256"
        },
        {
          "internalType": "uint8",
          "name": "v",
          "type": "uint8"
        },
        {
          "internalType": "bytes32",
          "name": "r",
          "type": "bytes32"
        },
        {
          "internalType": "bytes32",
          "name": "s",
          "type": "bytes32"
        }
      ],
      "name": "delegateBySig",
      "outputs": [],
      "stateMutability": "nonpayable",
      "type": "function"
    },
    {
      "inputs": [
        {
          "internalType": "address",
          "name": "account",
          "type": "address"
        }
      ],
      "name": "delegates",
      "outputs": [
        {
          "internalType": "address",
          "name": "",
          "type": "address"
        }
      ],
      "stateMutability": "view",
      "type": "function"
    },
    {
      "inputs": [
        {
          "internalType": "uint256",
          "name": "era_",
          "type": "uint256"
        },
        {
          "internalType": "address",
          "name": "account",
          "type": "address"
        }
      ],
      "name": "draftQueueLen",
      "outputs": [
        {
          "internalType": "uint256",
          "name": "",
          "type": "uint256"
        }
      ],
      "stateMutability": "view",
      "type": "function"
    },
    {
      "inputs": [
        {
          "internalType": "uint256",
          "name": "",
          "type": "uint256"
        },
        {
          "internalType": "address",
          "name": "",
          "type": "address"
        },
        {
          "internalType": "uint256",
          "name": "",
          "type": "uint256"
        }
      ],
      "name": "draftQueues",
      "outputs": [
        {
          "internalType": "uint176",
          "name": "drafts",
          "type": "uint176"
        },
        {
          "internalType": "uint64",
          "name": "availableAt",
          "type": "uint64"
        }
      ],
      "stateMutability": "view",
      "type": "function"
    },
    {
      "inputs": [],
      "name": "draftRate",
      "outputs": [
        {
          "internalType": "uint192",
          "name": "",
          "type": "uint192"
        }
      ],
      "stateMutability": "view",
      "type": "function"
    },
    {
      "inputs": [
        {
          "internalType": "address",
          "name": "account",
          "type": "address"
        }
      ],
      "name": "endIdForWithdraw",
      "outputs": [
        {
          "internalType": "uint256",
          "name": "",
          "type": "uint256"
        }
      ],
      "stateMutability": "view",
      "type": "function"
    },
    {
      "inputs": [],
      "name": "exchangeRate",
      "outputs": [
        {
          "internalType": "uint192",
          "name": "",
          "type": "uint192"
        }
      ],
      "stateMutability": "view",
      "type": "function"
    },
    {
      "inputs": [
        {
          "internalType": "uint256",
          "name": "",
          "type": "uint256"
        },
        {
          "internalType": "address",
          "name": "",
          "type": "address"
        }
      ],
      "name": "firstRemainingDraft",
      "outputs": [
        {
          "internalType": "uint256",
          "name": "",
          "type": "uint256"
        }
      ],
      "stateMutability": "view",
      "type": "function"
    },
    {
      "inputs": [
        {
          "internalType": "uint256",
          "name": "blockNumber",
          "type": "uint256"
        }
      ],
      "name": "getPastEra",
      "outputs": [
        {
          "internalType": "uint256",
          "name": "",
          "type": "uint256"
        }
      ],
      "stateMutability": "view",
      "type": "function"
    },
    {
      "inputs": [
        {
          "internalType": "uint256",
          "name": "blockNumber",
          "type": "uint256"
        }
      ],
      "name": "getPastTotalSupply",
      "outputs": [
        {
          "internalType": "uint256",
          "name": "",
          "type": "uint256"
        }
      ],
      "stateMutability": "view",
      "type": "function"
    },
    {
      "inputs": [
        {
          "internalType": "address",
          "name": "account",
          "type": "address"
        },
        {
          "internalType": "uint256",
          "name": "blockNumber",
          "type": "uint256"
        }
      ],
      "name": "getPastVotes",
      "outputs": [
        {
          "internalType": "uint256",
          "name": "",
          "type": "uint256"
        }
      ],
      "stateMutability": "view",
      "type": "function"
    },
    {
      "inputs": [
        {
          "internalType": "address",
          "name": "account",
          "type": "address"
        }
      ],
      "name": "getVotes",
      "outputs": [
        {
          "internalType": "uint256",
          "name": "",
          "type": "uint256"
        }
      ],
      "stateMutability": "view",
      "type": "function"
    },
    {
      "inputs": [
        {
          "internalType": "address",
          "name": "spender",
          "type": "address"
        },
        {
          "internalType": "uint256",
          "name": "addedValue",
          "type": "uint256"
        }
      ],
      "name": "increaseAllowance",
      "outputs": [
        {
          "internalType": "bool",
          "name": "",
          "type": "bool"
        }
      ],
      "stateMutability": "nonpayable",
      "type": "function"
    },
    {
      "inputs": [
        {
          "internalType": "contract IMain",
          "name": "main_",
          "type": "address"
        },
        {
          "internalType": "string",
          "name": "name_",
          "type": "string"
        },
        {
          "internalType": "string",
          "name": "symbol_",
          "type": "string"
        },
        {
          "internalType": "uint48",
          "name": "unstakingDelay_",
          "type": "uint48"
        },
        {
          "internalType": "uint48",
          "name": "rewardPeriod_",
          "type": "uint48"
        },
        {
          "internalType": "uint192",
          "name": "rewardRatio_",
          "type": "uint192"
        }
      ],
      "name": "init",
      "outputs": [],
      "stateMutability": "nonpayable",
      "type": "function"
    },
    {
      "inputs": [],
      "name": "main",
      "outputs": [
        {
          "internalType": "contract IMain",
          "name": "",
          "type": "address"
        }
      ],
      "stateMutability": "view",
      "type": "function"
    },
    {
      "inputs": [],
      "name": "name",
      "outputs": [
        {
          "internalType": "string",
          "name": "",
          "type": "string"
        }
      ],
      "stateMutability": "view",
      "type": "function"
    },
    {
      "inputs": [
        {
          "internalType": "address",
          "name": "owner",
          "type": "address"
        }
      ],
      "name": "nonces",
      "outputs": [
        {
          "internalType": "uint256",
          "name": "",
          "type": "uint256"
        }
      ],
      "stateMutability": "view",
      "type": "function"
    },
    {
      "inputs": [
        {
          "internalType": "address",
          "name": "account",
          "type": "address"
        }
      ],
      "name": "numCheckpoints",
      "outputs": [
        {
          "internalType": "uint48",
          "name": "",
          "type": "uint48"
        }
      ],
      "stateMutability": "view",
      "type": "function"
    },
    {
      "inputs": [],
      "name": "payoutLastPaid",
      "outputs": [
        {
          "internalType": "uint48",
          "name": "",
          "type": "uint48"
        }
      ],
      "stateMutability": "view",
      "type": "function"
    },
    {
      "inputs": [],
      "name": "payoutRewards",
      "outputs": [],
      "stateMutability": "nonpayable",
      "type": "function"
    },
    {
      "inputs": [
        {
          "internalType": "address",
          "name": "owner",
          "type": "address"
        },
        {
          "internalType": "address",
          "name": "spender",
          "type": "address"
        },
        {
          "internalType": "uint256",
          "name": "value",
          "type": "uint256"
        },
        {
          "internalType": "uint256",
          "name": "deadline",
          "type": "uint256"
        },
        {
          "internalType": "uint8",
          "name": "v",
          "type": "uint8"
        },
        {
          "internalType": "bytes32",
          "name": "r",
          "type": "bytes32"
        },
        {
          "internalType": "bytes32",
          "name": "s",
          "type": "bytes32"
        }
      ],
      "name": "permit",
      "outputs": [],
      "stateMutability": "nonpayable",
      "type": "function"
    },
    {
      "inputs": [],
      "name": "proxiableUUID",
      "outputs": [
        {
          "internalType": "bytes32",
          "name": "",
          "type": "bytes32"
        }
      ],
      "stateMutability": "view",
      "type": "function"
    },
    {
      "inputs": [],
      "name": "rewardPeriod",
      "outputs": [
        {
          "internalType": "uint48",
          "name": "",
          "type": "uint48"
        }
      ],
      "stateMutability": "view",
      "type": "function"
    },
    {
      "inputs": [],
      "name": "rewardRatio",
      "outputs": [
        {
          "internalType": "uint192",
          "name": "",
          "type": "uint192"
        }
      ],
      "stateMutability": "view",
      "type": "function"
    },
    {
      "inputs": [
        {
          "internalType": "uint256",
          "name": "rsrAmount",
          "type": "uint256"
        }
      ],
      "name": "seizeRSR",
      "outputs": [],
      "stateMutability": "nonpayable",
      "type": "function"
    },
    {
      "inputs": [
        {
          "internalType": "string",
          "name": "name_",
          "type": "string"
        }
      ],
      "name": "setName",
      "outputs": [],
      "stateMutability": "nonpayable",
      "type": "function"
    },
    {
      "inputs": [
        {
          "internalType": "uint48",
          "name": "val",
          "type": "uint48"
        }
      ],
      "name": "setRewardPeriod",
      "outputs": [],
      "stateMutability": "nonpayable",
      "type": "function"
    },
    {
      "inputs": [
        {
          "internalType": "uint192",
          "name": "val",
          "type": "uint192"
        }
      ],
      "name": "setRewardRatio",
      "outputs": [],
      "stateMutability": "nonpayable",
      "type": "function"
    },
    {
      "inputs": [
        {
          "internalType": "string",
          "name": "symbol_",
          "type": "string"
        }
      ],
      "name": "setSymbol",
      "outputs": [],
      "stateMutability": "nonpayable",
      "type": "function"
    },
    {
      "inputs": [
        {
          "internalType": "uint48",
          "name": "val",
          "type": "uint48"
        }
      ],
      "name": "setUnstakingDelay",
      "outputs": [],
      "stateMutability": "nonpayable",
      "type": "function"
    },
    {
      "inputs": [
        {
          "internalType": "uint256",
          "name": "rsrAmount",
          "type": "uint256"
        }
      ],
      "name": "stake",
      "outputs": [],
      "stateMutability": "nonpayable",
      "type": "function"
    },
    {
      "inputs": [],
      "name": "stakeRate",
      "outputs": [
        {
          "internalType": "uint192",
          "name": "",
          "type": "uint192"
        }
      ],
      "stateMutability": "view",
      "type": "function"
    },
    {
      "inputs": [],
      "name": "symbol",
      "outputs": [
        {
          "internalType": "string",
          "name": "",
          "type": "string"
        }
      ],
      "stateMutability": "view",
      "type": "function"
    },
    {
      "inputs": [],
      "name": "totalSupply",
      "outputs": [
        {
          "internalType": "uint256",
          "name": "",
          "type": "uint256"
        }
      ],
      "stateMutability": "view",
      "type": "function"
    },
    {
      "inputs": [
        {
          "internalType": "address",
          "name": "to",
          "type": "address"
        },
        {
          "internalType": "uint256",
          "name": "amount",
          "type": "uint256"
        }
      ],
      "name": "transfer",
      "outputs": [
        {
          "internalType": "bool",
          "name": "",
          "type": "bool"
        }
      ],
      "stateMutability": "nonpayable",
      "type": "function"
    },
    {
      "inputs": [
        {
          "internalType": "address",
          "name": "from",
          "type": "address"
        },
        {
          "internalType": "address",
          "name": "to",
          "type": "address"
        },
        {
          "internalType": "uint256",
          "name": "amount",
          "type": "uint256"
        }
      ],
      "name": "transferFrom",
      "outputs": [
        {
          "internalType": "bool",
          "name": "",
          "type": "bool"
        }
      ],
      "stateMutability": "nonpayable",
      "type": "function"
    },
    {
      "inputs": [
        {
          "internalType": "uint256",
          "name": "stakeAmount",
          "type": "uint256"
        }
      ],
      "name": "unstake",
      "outputs": [],
      "stateMutability": "nonpayable",
      "type": "function"
    },
    {
      "inputs": [],
      "name": "unstakingDelay",
      "outputs": [
        {
          "internalType": "uint48",
          "name": "",
          "type": "uint48"
        }
      ],
      "stateMutability": "view",
      "type": "function"
    },
    {
      "inputs": [
        {
          "internalType": "address",
          "name": "newImplementation",
          "type": "address"
        }
      ],
      "name": "upgradeTo",
      "outputs": [],
      "stateMutability": "nonpayable",
      "type": "function"
    },
    {
      "inputs": [
        {
          "internalType": "address",
          "name": "newImplementation",
          "type": "address"
        },
        {
          "internalType": "bytes",
          "name": "data",
          "type": "bytes"
        }
      ],
      "name": "upgradeToAndCall",
      "outputs": [],
      "stateMutability": "payable",
      "type": "function"
    },
    {
      "inputs": [],
      "name": "version",
      "outputs": [
        {
          "internalType": "string",
          "name": "",
          "type": "string"
        }
      ],
      "stateMutability": "pure",
      "type": "function"
    },
    {
      "inputs": [
        {
          "internalType": "address",
          "name": "account",
          "type": "address"
        },
        {
          "internalType": "uint256",
          "name": "endId",
          "type": "uint256"
        }
      ],
      "name": "withdraw",
      "outputs": [],
      "stateMutability": "nonpayable",
      "type": "function"
    }
  ],
  "bytecode": "0x60a0604052306080523480156200001557600080fd5b50600054610100900460ff1615808015620000375750600054600160ff909116105b8062000067575062000054306200014160201b620031d21760201c565b15801562000067575060005460ff166001145b620000cf5760405162461bcd60e51b815260206004820152602e60248201527f496e697469616c697a61626c653a20636f6e747261637420697320616c72656160448201526d191e481a5b9a5d1a585b1a5e995960921b606482015260840160405180910390fd5b6000805460ff191660011790558015620000f3576000805461ff0019166101001790555b80156200013a576000805461ff0019169055604051600181527f7f26b83ff96e1f2b6a682f133852f6798a09c465da95921460cefb38474024989060200160405180910390a15b5062000150565b6001600160a01b03163b151590565b608051615c426200018860003960008181610ef101528181610f31015281816116540152818161169401526117270152615c426000f3fe6080604052600436106103355760003560e01c80637ecebe00116101ab578063c3cda520116100f7578063dffeadd011610095578063eb58a8a81161006f578063eb58a8a814610a84578063edc26eaf14610aa4578063f3a6bcbe14610ac5578063f3fef3a314610aec57600080fd5b8063dffeadd014610a04578063e88dc5b714610a24578063e96bfb2114610a4b57600080fd5b8063d505accf116100d1578063d505accf14610956578063d591101f14610976578063d7ccc27514610992578063dd62ed3e146109b257600080fd5b8063c3cda52014610916578063c47f002714610936578063cf9649e11461050c57600080fd5b8063a439622f11610164578063a694fc3a1161013e578063a694fc3a14610896578063a9059cbb146108b6578063b555450d146108d6578063b84c8246146108f657600080fd5b8063a439622f14610836578063a457c2d714610856578063a4ba1f4d1461087657600080fd5b80637ecebe001461078a57806381160fe3146107aa5780638e539e8c146107cb57806395d89b41146107eb578063973628f6146108005780639ab24eb01461081657600080fd5b806349018e4111610285578063646033bc116102235780636fcfff45116101fd5780636fcfff45146106b857806370a08231146106d857806371664e491461071e5780637ddb74881461073e57600080fd5b8063646033bc1461060c5780636c3db9791461062d5780636f94d10a1461067157600080fd5b806352d1902d1161025f57806352d1902d1461055757806354fd4d501461056c578063587cde1e1461059a5780635c19a95c146105ec57600080fd5b806349018e411461050c5780634ea4b843146105245780634f1ef2861461054457600080fd5b80632e17de78116102f25780633659cfe6116102cc5780633659cfe61461047f578063395093511461049f5780633a46b1a8146104bf5780633ba0b9a9146104df57600080fd5b80632e17de7814610423578063313ce567146104435780633644e5151461046a57600080fd5b806306fdde031461033a5780630708924614610365578063095ea7b31461039c57806318160ddd146103cc57806323b872dd146103ec578063296130861461040c575b600080fd5b34801561034657600080fd5b5061034f610b0c565b60405161035c9190615248565b60405180910390f35b34801561037157600080fd5b50610110546103859065ffffffffffff1681565b60405165ffffffffffff909116815260200161035c565b3480156103a857600080fd5b506103bc6103b7366004615290565b610b9a565b604051901515815260200161035c565b3480156103d857600080fd5b50610105545b60405190815260200161035c565b3480156103f857600080fd5b506103bc6104073660046152bc565b610bb1565b34801561041857600080fd5b50610421610bd4565b005b34801561042f57600080fd5b5061042161043e3660046152fd565b610c8a565b34801561044f57600080fd5b50610458601281565b60405160ff909116815260200161035c565b34801561047657600080fd5b506103de610ed7565b34801561048b57600080fd5b5061042161049a366004615316565b610ee6565b3480156104ab57600080fd5b506103bc6104ba366004615290565b610fc6565b3480156104cb57600080fd5b506103de6104da366004615290565b611010565b3480156104eb57600080fd5b506104f4611077565b6040516001600160c01b03909116815260200161035c565b34801561051857600080fd5b506103856301e1338081565b34801561053057600080fd5b5061042161053f3660046153ad565b6110b5565b610421610552366004615476565b611649565b34801561056357600080fd5b506103de61171a565b34801561057857600080fd5b506040805180820190915260058152640312e322e360dc1b602082015261034f565b3480156105a657600080fd5b506105d46105b5366004615316565b6001600160a01b03908116600090815261013160205260409020541690565b6040516001600160a01b03909116815260200161035c565b3480156105f857600080fd5b50610421610607366004615316565b6117cd565b34801561061857600080fd5b50610111546104f4906001600160c01b031681565b34801561063957600080fd5b506103de610648366004615539565b600091825261010a602090815260408084206001600160a01b0393909316845291905290205490565b34801561067d57600080fd5b5061069161068c366004615569565b6117d7565b604080516001600160b01b0390931683526001600160401b0390911660208301520161035c565b3480156106c457600080fd5b506103856106d3366004615316565b61182f565b3480156106e457600080fd5b506103de6106f3366004615316565b610103546000908152610104602090815260408083206001600160a01b039094168352929052205490565b34801561072a57600080fd5b50610421610739366004615590565b611860565b34801561074a57600080fd5b5061075e6107593660046155ab565b611a88565b60408051825165ffffffffffff1681526020928301516001600160e01b0316928101929092520161035c565b34801561079657600080fd5b506103de6107a5366004615316565b611b1b565b3480156107b657600080fd5b50610107546104f4906001600160c01b031681565b3480156107d757600080fd5b506103de6107e63660046152fd565b611b3a565b3480156107f757600080fd5b5061034f611b85565b34801561080c57600080fd5b50610103546103de565b34801561082257600080fd5b506103de610831366004615316565b611b92565b34801561084257600080fd5b506104216108513660046152fd565b611c37565b34801561086257600080fd5b506103bc610871366004615290565b61210d565b34801561088257600080fd5b506103de6108913660046152fd565b6121b5565b3480156108a257600080fd5b506104216108b13660046152fd565b6121e2565b3480156108c257600080fd5b506103bc6108d1366004615290565b6123a0565b3480156108e257600080fd5b506103de6108f1366004615316565b6123ae565b34801561090257600080fd5b506104216109113660046155e0565b6124bd565b34801561092257600080fd5b50610421610931366004615632565b6125a2565b34801561094257600080fd5b506104216109513660046155e0565b6126cf565b34801561096257600080fd5b5061042161097136600461568c565b6127af565b34801561098257600080fd5b506104f4670de0b6b3a764000081565b34801561099e57600080fd5b506104216109ad3660046156fa565b61292a565b3480156109be57600080fd5b506103de6109cd366004615715565b610103546000908152610108602090815260408083206001600160a01b039586168452825280832093909416825291909152205490565b348015610a1057600080fd5b506097546105d4906001600160a01b031681565b348015610a3057600080fd5b506101105461038590600160301b900465ffffffffffff1681565b348015610a5757600080fd5b506103de610a66366004615539565b61010b60209081526000928352604080842090915290825290205481565b348015610a9057600080fd5b50610421610a9f366004615590565b612ab3565b348015610ab057600080fd5b5061010e546104f4906001600160c01b031681565b348015610ad157600080fd5b506101115461038590600160c01b900465ffffffffffff1681565b348015610af857600080fd5b50610421610b07366004615290565b612c5f565b60fd8054610b1990615743565b80601f0160208091040260200160405190810160405280929190818152602001828054610b4590615743565b8015610b925780601f10610b6757610100808354040283529160200191610b92565b820191906000526020600020905b815481529060010190602001808311610b7557829003601f168201915b505050505081565b6000610ba73384846131e1565b5060015b92915050565b6000610bbe843384613315565b610bc98484846133b5565b5060015b9392505050565b609760009054906101000a90046001600160a01b03166001600160a01b031663f17063756040518163ffffffff1660e01b815260040160206040518083038186803b158015610c2257600080fd5b505afa158015610c36573d6000803e3d6000fd5b505050506040513d601f19601f82011682018060405250810190610c5a9190615778565b15610c805760405162461bcd60e51b8152600401610c779061579a565b60405180910390fd5b610c8861359a565b565b609760009054906101000a90046001600160a01b03166001600160a01b031663f17063756040518163ffffffff1660e01b815260040160206040518083038186803b158015610cd857600080fd5b505afa158015610cec573d6000803e3d6000fd5b505050506040513d601f19601f82011682018060405250810190610d109190615778565b15610d2d5760405162461bcd60e51b8152600401610c779061579a565b3381610d725760405162461bcd60e51b815260206004820152601460248201527343616e6e6f74207769746864726177207a65726f60601b6044820152606401610c77565b610103546000908152610104602090815260408083206001600160a01b0385168452909152902054821115610dde5760405162461bcd60e51b81526020600482015260126024820152714e6f7420656e6f7567682062616c616e636560701b6044820152606401610c77565b610de661359a565b610df0818361380c565b610107546000906001600160c01b0316610e0b6001826157da565b6001600160c01b031661010554670de0b6b3a7640000610e2b9190615802565b610e359190615821565b610e3f919061584f565b905060008161010654610e529190615863565b6101068390559050600080610e678584613836565b91509150846001600160a01b031661010354837f1a9484bd0ef282a993728aef393a723fbc6fdc06f16c98befba1b4e3a8a7a3f8868a86604051610ec79392919092835260208301919091526001600160401b0316604082015260600190565b60405180910390a4505050505050565b6000610ee1613a1b565b905090565b306001600160a01b037f0000000000000000000000000000000000000000000000000000000000000000161415610f2f5760405162461bcd60e51b8152600401610c779061587a565b7f00000000000000000000000000000000000000000000000000000000000000006001600160a01b0316610f78600080516020615bc6833981519152546001600160a01b031690565b6001600160a01b031614610f9e5760405162461bcd60e51b8152600401610c77906158c6565b610fa781613a96565b60408051600080825260208201909252610fc391839190613b6a565b50565b61010354600090815261010860209081526040808320338085529083528184206001600160a01b0387168552909252822054610bc9908290869061100b908790615821565b6131e1565b60004382106110315760405162461bcd60e51b8152600401610c7790615912565b600061103f61013284613ce4565b6000818152610133602090815260408083206001600160a01b0389168452909152902090915061106f9084613ce4565b949350505050565b610107546000906001600160c01b0316611092600282615949565b6110ab906ec097ce7bc90715b34b9f100000000061596f565b610ee19190615949565b600054610100900460ff16158080156110d55750600054600160ff909116105b806110ef5750303b1580156110ef575060005460ff166001145b6111525760405162461bcd60e51b815260206004820152602e60248201527f496e697469616c697a61626c653a20636f6e747261637420697320616c72656160448201526d191e481a5b9a5d1a585b1a5e995960921b6064820152608401610c77565b6000805460ff191660011790558015611175576000805461ff0019166101001790555b866111af5760405162461bcd60e51b815260206004820152600a6024820152696e616d6520656d70747960b01b6044820152606401610c77565b846111eb5760405162461bcd60e51b815260206004820152600c60248201526b73796d626f6c20656d70747960a01b6044820152606401610c77565b6111f489613da8565b61124c88888080601f016020809104026020016040519081016040528093929190818152602001838380828437600092019190915250506040805180820190915260018152603160f81b60208201529150613e469050565b61125860fd898961518c565b5061126560fe878761518c565b50886001600160a01b031663979d7e866040518163ffffffff1660e01b815260040160206040518083038186803b15801561129f57600080fd5b505afa1580156112b3573d6000803e3d6000fd5b505050506040513d601f19601f820116820180604052508101906112d7919061599a565b60ff60006101000a8154816001600160a01b0302191690836001600160a01b03160217905550886001600160a01b031663dc8af5f66040518163ffffffff1660e01b815260040160206040518083038186803b15801561133657600080fd5b505afa15801561134a573d6000803e3d6000fd5b505050506040513d601f19601f8201168201806040525081019061136e919061599a565b61010060006101000a8154816001600160a01b0302191690836001600160a01b03160217905550886001600160a01b0316632f2439b16040518163ffffffff1660e01b815260040160206040518083038186803b1580156113ce57600080fd5b505afa1580156113e2573d6000803e3d6000fd5b505050506040513d601f19601f82011682018060405250810190611406919061599a565b61010160006101000a8154816001600160a01b0302191690836001600160a01b03160217905550886001600160a01b031663c99dc3dd6040518163ffffffff1660e01b815260040160206040518083038186803b15801561146657600080fd5b505afa15801561147a573d6000803e3d6000fd5b505050506040513d601f19601f8201168201806040525081019061149e919061599a565b61010280546001600160a01b0319166001600160a01b03928316179055610111805465ffffffffffff60c01b1916600160c01b4265ffffffffffff16021790556040805163c99dc3dd60e01b81529051918b169163c99dc3dd91600480820192602092909190829003018186803b15801561151857600080fd5b505afa15801561152c573d6000803e3d6000fd5b505050506040513d601f19601f82011682018060405250810190611550919061599a565b6040516370a0823160e01b81523060048201526001600160a01b0391909116906370a082319060240160206040518083038186803b15801561159157600080fd5b505afa1580156115a5573d6000803e3d6000fd5b505050506040513d601f19601f820116820180604052508101906115c991906159b7565b610112556115d684612ab3565b6115df83611860565b6115e88261292a565b6115f0613e77565b6115f8613e8f565b801561163e576000805461ff0019169055604051600181527f7f26b83ff96e1f2b6a682f133852f6798a09c465da95921460cefb38474024989060200160405180910390a15b505050505050505050565b306001600160a01b037f00000000000000000000000000000000000000000000000000000000000000001614156116925760405162461bcd60e51b8152600401610c779061587a565b7f00000000000000000000000000000000000000000000000000000000000000006001600160a01b03166116db600080516020615bc6833981519152546001600160a01b031690565b6001600160a01b0316146117015760405162461bcd60e51b8152600401610c77906158c6565b61170a82613a96565b61171682826001613b6a565b5050565b6000306001600160a01b037f000000000000000000000000000000000000000000000000000000000000000016146117ba5760405162461bcd60e51b815260206004820152603860248201527f555550535570677261646561626c653a206d757374206e6f742062652063616c60448201527f6c6564207468726f7567682064656c656761746563616c6c00000000000000006064820152608401610c77565b50600080516020615bc683398151915290565b610fc33382613efb565b61010a602052826000526040600020602052816000526040600020818154811061180057600080fd5b6000918252602090912001546001600160b01b0381169350600160b01b90046001600160401b03169150839050565b610103546000908152610133602090815260408083206001600160a01b0385168452909152812054610bab90613f85565b60975460408051808201909152600581526427aba722a960d91b60208201526001600160a01b03909116906391d148549061189a906159d0565b336040516001600160e01b031960e085901b16815260048101929092526001600160a01b0316602482015260440160206040518083038186803b1580156118e057600080fd5b505afa1580156118f4573d6000803e3d6000fd5b505050506040513d601f19601f820116820180604052508101906119189190615778565b6119345760405162461bcd60e51b8152600401610c77906159f4565b60008165ffffffffffff1611801561195857506301e1338065ffffffffffff821611155b61199b5760405162461bcd60e51b81526020600482015260146024820152731a5b9d985b1a59081c995dd85c9914195c9a5bd960621b6044820152606401610c77565b6101105460405165ffffffffffff80841692600160301b900416907f2b9667710e15f72935a45635aaac962ed42250b852cb7e5a5b30dc5a9a9bef2a90600090a3610110805465ffffffffffff808416600160301b9081026bffffffffffff00000000000019841681179485905582169282169290921792611a21929004166002615a1d565b65ffffffffffff161115610fc35760405162461bcd60e51b815260206004820152602860248201527f756e7374616b696e6744656c61792f726577617264506572696f6420696e636f6044820152676d70617469626c6560c01b6064820152608401610c77565b6040805180820182526000808252602080830182905261010354825261013381528382206001600160a01b0387168352905291909120805465ffffffffffff8416908110611ad857611ad8615a4b565b600091825260209182902060408051808201909152600290920201805465ffffffffffff168252600101546001600160e01b031691810191909152905092915050565b6001600160a01b038116600090815261010f6020526040812054610bab565b6000438210611b5b5760405162461bcd60e51b8152600401610c7790615912565b6000611b6961013284613ce4565b600081815261013460205260409020909150610bcd9084613ce4565b60fe8054610b1990615743565b610103546000908152610133602090815260408083206001600160a01b03851684529091528120548015611c2457610103546000908152610133602090815260408083206001600160a01b03871684529091529020611bf2600183615863565b81548110611c0257611c02615a4b565b60009182526020909120600160029092020101546001600160e01b0316611c27565b60005b6001600160e01b03169392505050565b609760009054906101000a90046001600160a01b03166001600160a01b031663f17063756040518163ffffffff1660e01b815260040160206040518083038186803b158015611c8557600080fd5b505afa158015611c99573d6000803e3d6000fd5b505050506040513d601f19601f82011682018060405250810190611cbd9190615778565b15611cda5760405162461bcd60e51b8152600401610c779061579a565b610100546001600160a01b0316336001600160a01b031614611d345760405162461bcd60e51b81526020600482015260136024820152723737ba103130b1b5b4b7339036b0b730b3b2b960691b6044820152606401610c77565b60008111611d7c5760405162461bcd60e51b8152602060048201526015602482015274416d6f756e742063616e6e6f74206265207a65726f60581b6044820152606401610c77565b6000611d86611077565b610102546040516370a0823160e01b81523060048201529192506000916001600160a01b03909116906370a082319060240160206040518083038186803b158015611dd057600080fd5b505afa158015611de4573d6000803e3d6000fd5b505050506040513d601f19601f82011682018060405250810190611e0891906159b7565b905080831115611e655760405162461bcd60e51b815260206004820152602260248201527f43616e6e6f74207365697a65206d6f726520525352207468616e20776520686f6044820152611b1960f21b6064820152608401610c77565b600080611e70613ff0565b9050600083611e80600182615863565b8761010654611e8f9190615802565b611e999190615821565b611ea3919061584f565b9050806101066000828254611eb89190615863565b909155505061010654909250829015611f265761010654611eda600182615863565b61010554611ef090670de0b6b3a7640000615802565b611efa9190615821565b611f04919061584f565b61010780546001600160c01b0319166001600160c01b03929092169190911790555b610106541580611f4f5750610107546b033b2e3c9fd0803ce80000006001600160c01b03909116115b15611f6c5761010654611f629084615821565b9250611f6c613e77565b600084611f7a600182615863565b8861010d54611f899190615802565b611f939190615821565b611f9d919061584f565b90508061010d6000828254611fb29190615863565b90915550611fc290508185615821565b61010d54909450156120295761010d54611fdd600182615863565b61010c54611ff390670de0b6b3a7640000615802565b611ffd9190615821565b612007919061584f565b61010e80546001600160c01b0319166001600160c01b03929092169190911790555b61010d541580612052575061010e546b033b2e3c9fd0803ce80000006001600160c01b03909116115b1561206f5761010d546120659085615821565b935061206f613e8f565b8461207b600182615863565b6120858986615802565b61208f9190615821565b612099919061584f565b6120a39085615821565b93506120ad611077565b6001600160c01b0316866001600160c01b03167fa960008f17c9b70495943fe5e4a3c8aed709c7dcafe762f7a89e64743669404360405160405180910390a361210433610102546001600160a01b0316908661408b565b50505050505050565b61010354600090815261010860209081526040808320338085529083528184206001600160a01b03871685529092528220548381101561219d5760405162461bcd60e51b815260206004820152602560248201527f45524332303a2064656372656173656420616c6c6f77616e63652062656c6f77604482015264207a65726f60d81b6064820152608401610c77565b6121aa82868684036131e1565b506001949350505050565b60004382106121d65760405162461bcd60e51b8152600401610c7790615912565b610bab61013283613ce4565b600081116122265760405162461bcd60e51b815260206004820152601160248201527043616e6e6f74207374616b65207a65726f60781b6044820152606401610c77565b609760009054906101000a90046001600160a01b03166001600160a01b031663f17063756040518163ffffffff1660e01b815260040160206040518083038186803b15801561227457600080fd5b505afa158015612288573d6000803e3d6000fd5b505050506040513d601f19601f820116820180604052508101906122ac9190615778565b6122b8576122b861359a565b600081610106546122c99190615821565b61010754909150600090670de0b6b3a7640000906122f19084906001600160c01b0316615802565b6122fb919061584f565b90506000610105548261230e9190615863565b905060003390508461010660008282546123289190615821565b90915550612338905081836140ee565b81816001600160a01b0316610103547f17700ceb1658b18206f427c1578048e87504106b14ec69e9b4586d9a95174a328860405161237891815260200190565b60405180910390a461010254612399906001600160a01b0316823088614118565b5050505050565b600033610bc98185856133b5565b61010954600081815261010a602090815260408083206001600160a01b03861680855290835281842094845261010b83528184209084529091528120548254919242929091908082106124045795945050505050565b8383838154811061241757612417615a4b565b600091825260209091200154600160b01b90046001600160401b031611156124425750949350505050565b60005b612450600183615863565b8310156124b35760026124638385615821565b61246d919061584f565b90508484828154811061248257612482615a4b565b600091825260209091200154600160b01b90046001600160401b0316116124ab57809250612445565b809150612445565b5095945050505050565b60975460408051808201909152600581526427aba722a960d91b60208201526001600160a01b03909116906391d14854906124f7906159d0565b336040516001600160e01b031960e085901b16815260048101929092526001600160a01b0316602482015260440160206040518083038186803b15801561253d57600080fd5b505afa158015612551573d6000803e3d6000fd5b505050506040513d601f19601f820116820180604052508101906125759190615778565b6125915760405162461bcd60e51b8152600401610c77906159f4565b61259d60fe838361518c565b505050565b834211156125f25760405162461bcd60e51b815260206004820152601d60248201527f4552433230566f7465733a207369676e617475726520657870697265640000006044820152606401610c77565b604080517fe48329057bfd03d55e49b547132e39cffd9c1820ad7b9d4c5307691425d15adf60208201526001600160a01b03881691810191909152606081018690526080810185905260009061266c906126649060a00160405160208183030381529060405280519060200120614150565b85858561419e565b9050612677816141bc565b86146126c55760405162461bcd60e51b815260206004820152601960248201527f4552433230566f7465733a20696e76616c6964206e6f6e6365000000000000006044820152606401610c77565b6121048188613efb565b60975460408051808201909152600581526427aba722a960d91b60208201526001600160a01b03909116906391d1485490612709906159d0565b336040516001600160e01b031960e085901b16815260048101929092526001600160a01b0316602482015260440160206040518083038186803b15801561274f57600080fd5b505afa158015612763573d6000803e3d6000fd5b505050506040513d601f19601f820116820180604052508101906127879190615778565b6127a35760405162461bcd60e51b8152600401610c77906159f4565b61259d60fd838361518c565b834211156127ff5760405162461bcd60e51b815260206004820152601d60248201527f45524332305065726d69743a206578706972656420646561646c696e650000006044820152606401610c77565b60007f6e71edae12b1b97f4d1f60370fef10105fa2faae0126114a169c64845d6126c988888861282e8c6141bc565b6040805160208101969096526001600160a01b0394851690860152929091166060840152608083015260a082015260c0810186905260e00160405160208183030381529060405280519060200120905073__$2d1f1df91c509134c97a9b37f5a8e18539$__634a42ee80896128a284614150565b6040516001600160e01b031960e085901b1681526001600160a01b039092166004830152602482015260ff87166044820152606481018690526084810185905260a40160006040518083038186803b1580156128fd57600080fd5b505af4158015612911573d6000803e3d6000fd5b505050506129208888886131e1565b5050505050505050565b60975460408051808201909152600581526427aba722a960d91b60208201526001600160a01b03909116906391d1485490612964906159d0565b336040516001600160e01b031960e085901b16815260048101929092526001600160a01b0316602482015260440160206040518083038186803b1580156129aa57600080fd5b505afa1580156129be573d6000803e3d6000fd5b505050506040513d601f19601f820116820180604052508101906129e29190615778565b6129fe5760405162461bcd60e51b8152600401610c77906159f4565b670de0b6b3a76400006001600160c01b0382161115612a555760405162461bcd60e51b8152602060048201526013602482015272696e76616c696420726577617264526174696f60681b6044820152606401610c77565b610111546040516001600160c01b038084169216907fb118098f66750616290767b73d61ab7f4de09e99e97505e256e70c3b10782e7690600090a361011180546001600160c01b0319166001600160c01b0392909216919091179055565b60975460408051808201909152600581526427aba722a960d91b60208201526001600160a01b03909116906391d1485490612aed906159d0565b336040516001600160e01b031960e085901b16815260048101929092526001600160a01b0316602482015260440160206040518083038186803b158015612b3357600080fd5b505afa158015612b47573d6000803e3d6000fd5b505050506040513d601f19601f82011682018060405250810190612b6b9190615778565b612b875760405162461bcd60e51b8152600401610c77906159f4565b60008165ffffffffffff16118015612bab57506301e1338065ffffffffffff821611155b612bf05760405162461bcd60e51b8152602060048201526016602482015275696e76616c696420756e7374616b696e6744656c617960501b6044820152606401610c77565b6101105460405165ffffffffffff8084169216907f93159285ad2cef1861fdef1d2ca04162b2eff9aa5c08324f599d3aa0e04b223a90600090a3610110805465ffffffffffff191665ffffffffffff838116918217928390559091611a2191600160301b909104166002615a1d565b609760009054906101000a90046001600160a01b03166001600160a01b031663f17063756040518163ffffffff1660e01b815260040160206040518083038186803b158015612cad57600080fd5b505afa158015612cc1573d6000803e3d6000fd5b505050506040513d601f19601f82011682018060405250810190612ce59190615778565b15612d025760405162461bcd60e51b8152600401610c779061579a565b60ff60009054906101000a90046001600160a01b03166001600160a01b031663f8ac93e86040518163ffffffff1660e01b8152600401600060405180830381600087803b158015612d5257600080fd5b505af1158015612d66573d6000803e3d6000fd5b5050505061010160009054906101000a90046001600160a01b03166001600160a01b031663e45a5b2d6040518163ffffffff1660e01b815260040160206040518083038186803b158015612db957600080fd5b505afa158015612dcd573d6000803e3d6000fd5b505050506040513d601f19601f82011682018060405250810190612df19190615778565b612e345760405162461bcd60e51b815260206004820152601460248201527314951bdad95b881d5b98d85c1a5d185b1a5e995960621b6044820152606401610c77565b6101015460408051631006976960e11b815290516000926001600160a01b03169163200d2ed2916004808301926020929190829003018186803b158015612e7a57600080fd5b505afa158015612e8e573d6000803e3d6000fd5b505050506040513d601f19601f82011682018060405250810190612eb29190615a77565b6002811115612ec357612ec3615a61565b14612f035760405162461bcd60e51b815260206004820152601060248201526f18985cdad95d08191959985d5b1d195960821b6044820152606401610c77565b61010954600081815261010b602090815260408083206001600160a01b0387168085529083528184205494845261010a83528184209084529091529020821580612f4d5750828210155b15612f585750505050565b8054831115612f9f5760405162461bcd60e51b8152602060048201526013602482015272696e646578206f75742d6f662d626f756e647360681b6044820152606401610c77565b4281612fac600186615863565b81548110612fbc57612fbc615a4b565b600091825260209091200154600160b01b90046001600160401b0316111561301f5760405162461bcd60e51b81526020600482015260166024820152757769746864726177616c20756e617661696c61626c6560501b6044820152606401610c77565b600080831161302f576000613061565b8161303b600185615863565b8154811061304b5761304b615a4b565b6000918252602090912001546001600160b01b03165b6001600160b01b031690506000818361307b600188615863565b8154811061308b5761308b615a4b565b6000918252602090912001546130aa91906001600160b01b03166157da565b61010954600090815261010b602090815260408083206001600160a01b038b168452909152812087905561010c54919250906130f0906001600160c01b03841690615863565b61010e549091506000906001600160c01b031661310e6001826157da565b6001600160c01b0316613129670de0b6b3a764000085615802565b6131339190615821565b61313d919061584f565b905060008161010d546131509190615863565b90508061316257505050505050505050565b61010c83905561010d8290556101095460408051918252602082018390526001600160a01b038b16918a918a917fd42f64bbf441b944cb3b10d82058ccb2b527d393e6c6c96346d5dc540957d192910160405180910390a46101025461163e906001600160a01b03168a8361408b565b6001600160a01b03163b151590565b6001600160a01b0383166132435760405162461bcd60e51b8152602060048201526024808201527f45524332303a20617070726f76652066726f6d20746865207a65726f206164646044820152637265737360e01b6064820152608401610c77565b6001600160a01b0382166132a45760405162461bcd60e51b815260206004820152602260248201527f45524332303a20617070726f766520746f20746865207a65726f206164647265604482015261737360f01b6064820152608401610c77565b610103546000908152610108602090815260408083206001600160a01b0387811680865291845282852090871680865290845293829020859055905184815290917f8c5be1e5ebec7d5bd14f71427d1e84f3dd0314c0f7b2291e5b200ac8c7c3b925910160405180910390a3505050565b610103546000908152610108602090815260408083206001600160a01b038088168552908352818420908616845290915290205460001981146133af57818110156133a25760405162461bcd60e51b815260206004820152601d60248201527f45524332303a20696e73756666696369656e7420616c6c6f77616e63650000006044820152606401610c77565b6133af84848484036131e1565b50505050565b6001600160a01b0383166134195760405162461bcd60e51b815260206004820152602560248201527f45524332303a207472616e736665722066726f6d20746865207a65726f206164604482015264647265737360d81b6064820152608401610c77565b6001600160a01b03821661347b5760405162461bcd60e51b815260206004820152602360248201527f45524332303a207472616e7366657220746f20746865207a65726f206164647260448201526265737360e81b6064820152608401610c77565b610103546000908152610104602090815260408083206001600160a01b03871684529182905290912054828110156135045760405162461bcd60e51b815260206004820152602660248201527f45524332303a207472616e7366657220616d6f756e7420657863656564732062604482015265616c616e636560d01b6064820152608401610c77565b6001600160a01b0380861660009081526020849052604080822086850390559186168152908120805485929061353b908490615821565b92505081905550836001600160a01b0316856001600160a01b03167fddf252ad1be2c89b69c2b068fc378daa952ba7f163c4a11628f55a4df523b3ef8560405161358791815260200190565b60405180910390a36123998585856141e5565b61011054610111546135c59165ffffffffffff600160301b909104811691600160c01b900416615a98565b65ffffffffffff164210156135d657565b610110546101115460009165ffffffffffff600160301b90910481169161360691600160c01b9091041642615ab9565b6136109190615ad8565b9050600061361c611077565b6101115490915060009061364b90613645906001600160c01b0316670de0b6b3a76400006157da565b84614223565b61365d90670de0b6b3a76400006157da565b61011254909150600090670de0b6b3a764000090613684906001600160c01b038516615802565b61368e919061584f565b90508061010660008282546136a39190615821565b9091555050610110546136c590600160301b900465ffffffffffff1685615a1d565b61011180546018906136e7908490600160c01b900465ffffffffffff16615a98565b92506101000a81548165ffffffffffff021916908365ffffffffffff160217905550613711613ff0565b61011255610106541580613726575061010554155b6137695761010654613739600182615863565b670de0b6b3a7640000610105546137509190615802565b61375a9190615821565b613764919061584f565b613773565b670de0b6b3a76400005b61010780546001600160c01b0319166001600160c01b039290921691909117905560405181907fb0c65a5b323022d926c456e1564d86f0bda40160a781c820f571d7635b34880190600090a26137c7611077565b6001600160c01b0316836001600160c01b03167fa960008f17c9b70495943fe5e4a3c8aed709c7dcafe762f7a89e64743669404360405160405180910390a350505050565b61381682826143a4565b610103546000908152610134602052604090206133af9061450b83614517565b6000808261010d600082825461384c9190615821565b909155505061010d5461010e54600091670de0b6b3a76400009161387991906001600160c01b0316615802565b613883919061584f565b9050600061010c54826138969190615863565b61010c83905561010954600090815261010a602090815260408083206001600160a01b038b168452909152812080549650919250856138d6576000613908565b816138e2600188615863565b815481106138f2576138f2615a4b565b6000918252602090912001546001600160b01b03165b6001600160b01b03169050600080871161392357600061395c565b8261392f600189615863565b8154811061393f5761393f615a4b565b600091825260209091200154600160b01b90046001600160401b03165b610110549091506139759065ffffffffffff1642615af1565b9550856001600160401b0316816001600160401b03161115613995578095505b82604051806040016040528086856001600160c01b03166139b69190615821565b6001600160b01b0390811682526001600160401b03808b166020938401528454600181018655600095865294839020845195018054949093015116600160b01b026001600160f01b031990931693169290921717905550949793965092945050505050565b6000610ee17f8b73c3c69bb8fe3d512ecc4cf759cc79239f7b179b0ffacaa9a75d522b39400f613a4a60c95490565b60ca546040805160208101859052908101839052606081018290524660808201523060a082015260009060c0016040516020818303038152906040528051906020012090509392505050565b60975460408051808201909152600581526427aba722a960d91b60208201526001600160a01b03909116906391d1485490613ad0906159d0565b336040516001600160e01b031960e085901b16815260048101929092526001600160a01b0316602482015260440160206040518083038186803b158015613b1657600080fd5b505afa158015613b2a573d6000803e3d6000fd5b505050506040513d601f19601f82011682018060405250810190613b4e9190615778565b610fc35760405162461bcd60e51b8152600401610c77906159f4565b7f4910fdfa16fed3260ed0e7147f7cc6da11a60208b5b9406d12a635614ffd91435460ff1615613b9d5761259d836146c0565b826001600160a01b03166352d1902d6040518163ffffffff1660e01b815260040160206040518083038186803b158015613bd657600080fd5b505afa925050508015613c06575060408051601f3d908101601f19168201909252613c03918101906159b7565b60015b613c695760405162461bcd60e51b815260206004820152602e60248201527f45524331393637557067726164653a206e657720696d706c656d656e7461746960448201526d6f6e206973206e6f74205555505360901b6064820152608401610c77565b600080516020615bc68339815191528114613cd85760405162461bcd60e51b815260206004820152602960248201527f45524331393637557067726164653a20756e737570706f727465642070726f786044820152681a58589b195555525160ba1b6064820152608401610c77565b5061259d83838361475c565b8154600090815b81811015613d4f576000613cff8284614781565b905084868281548110613d1457613d14615a4b565b600091825260209091206002909102015465ffffffffffff161115613d3b57809250613d49565b613d46816001615821565b91505b50613ceb565b8115613d935784613d61600184615863565b81548110613d7157613d71615a4b565b60009182526020909120600160029092020101546001600160e01b0316613d96565b60005b6001600160e01b031695945050505050565b600054610100900460ff16613dcf5760405162461bcd60e51b8152600401610c7790615b13565b6001600160a01b038116613e1c5760405162461bcd60e51b81526020600482015260146024820152736d61696e206973207a65726f206164647265737360601b6044820152606401610c77565b613e2461479c565b609780546001600160a01b0319166001600160a01b0392909216919091179055565b600054610100900460ff16613e6d5760405162461bcd60e51b8152600401610c7790615b13565b61171682826147c3565b613e7f614804565b6117166101326148706001614517565b600061010d81905561010c81905561010e80546001600160c01b031916670de0b6b3a7640000179055610109805491613ec783615b5e565b9091555050610109546040517ff5696d9c0450397a3ed4f9ee6c8999f155174d2d0621d8d3fd16ae67b2384e6b90600090a2565b6001600160a01b0382811660008181526101316020818152604080842080546101035486526101048452828620878752845282862054949093528787166001600160a01b03198416811790915590519190951694919391928592917f3134e8a2e6d97e929a7e54011ea5485d7d196dd5f0ba4d4ef95803e8e3fc257f9190a46133af82848361487c565b600065ffffffffffff821115613fec5760405162461bcd60e51b815260206004820152602660248201527f53616665436173743a2076616c756520646f65736e27742066697420696e203460448201526538206269747360d01b6064820152608401610c77565b5090565b61010d5461010654610102546040516370a0823160e01b815230600482015260009392916001600160a01b0316906370a082319060240160206040518083038186803b15801561403f57600080fd5b505afa158015614053573d6000803e3d6000fd5b505050506040513d601f19601f8201168201806040525081019061407791906159b7565b6140819190615863565b610ee19190615863565b6040516001600160a01b03831660248201526044810182905261259d90849063a9059cbb60e01b906064015b60408051601f198184030181529190526020810180516001600160e01b03166001600160e01b0319909316929092179091526149d7565b6140f88282614aa9565b610103546000908152610134602052604090206133af9061487083614517565b6040516001600160a01b03808516602483015283166044820152606481018290526133af9085906323b872dd60e01b906084016140b7565b6000610bab61415d613a1b565b8360405161190160f01b6020820152602281018390526042810182905260009060620160405160208183030381529060405280519060200120905092915050565b60008060006141af87878787614bc7565b915091506124b381614c8b565b6001600160a01b038116600090815261010f602052604090208054600181018255905b50919050565b6141f0838383614dd9565b6001600160a01b038381166000908152610131602052604080822054858416835291205461259d9291821691168361487c565b6000670de0b6b3a76400006001600160c01b038416111561424357600080fd5b8165ffffffffffff166001141561425b575081610bab565b6001600160c01b038316670de0b6b3a76400001480614280575065ffffffffffff8216155b156142945750670de0b6b3a7640000610bab565b60006142b1670de0b6b3a76400006001600160c01b038616615802565b90506ec097ce7bc90715b34b9f10000000005b60018085161415614314576ec097ce7bc90715b34b9f10000000006142ea600282615b79565b6001600160801b03166142fd8484615802565b6143079190615821565b614311919061584f565b90505b60018465ffffffffffff161161432957614381565b60019390931c657fffffffffff16926ec097ce7bc90715b34b9f1000000000614353600282615b79565b6001600160801b03166143668480615802565b6143709190615821565b61437a919061584f565b91506142c4565b61439b614396670de0b6b3a76400008361584f565b614e2b565b95945050505050565b6001600160a01b0382166144045760405162461bcd60e51b815260206004820152602160248201527f45524332303a206275726e2066726f6d20746865207a65726f206164647265736044820152607360f81b6064820152608401610c77565b610103546000908152610104602090815260408083206001600160a01b03861684529182905290912054828110156144895760405162461bcd60e51b815260206004820152602260248201527f45524332303a206275726e20616d6f756e7420657863656564732062616c616e604482015261636560f01b6064820152608401610c77565b6001600160a01b0384166000908152602083905260408120848303905561010580548592906144b9908490615863565b90915550506040518381526000906001600160a01b038616907fddf252ad1be2c89b69c2b068fc378daa952ba7f163c4a11628f55a4df523b3ef9060200160405180910390a36133af846000856141e5565b6000610bcd8284615863565b8254600090819080156145625785614530600183615863565b8154811061454057614540615a4b565b60009182526020909120600160029092020101546001600160e01b0316614565565b60005b6001600160e01b0316925061457e83858763ffffffff16565b91506000811180156145c357504386614598600184615863565b815481106145a8576145a8615a4b565b600091825260209091206002909102015465ffffffffffff16145b15614627576145d182614e55565b866145dd600184615863565b815481106145ed576145ed615a4b565b906000526020600020906002020160010160006101000a8154816001600160e01b0302191690836001600160e01b031602179055506146b7565b85604051806040016040528061463c43613f85565b65ffffffffffff16815260200161465285614e55565b6001600160e01b0390811690915282546001808201855560009485526020948590208451600290930201805465ffffffffffff191665ffffffffffff90931692909217825592909301519290910180546001600160e01b031916929091169190911790555b50935093915050565b6001600160a01b0381163b61472d5760405162461bcd60e51b815260206004820152602d60248201527f455243313936373a206e657720696d706c656d656e746174696f6e206973206e60448201526c1bdd08184818dbdb9d1c9858dd609a1b6064820152608401610c77565b600080516020615bc683398151915280546001600160a01b0319166001600160a01b0392909216919091179055565b61476583614ebe565b6000825111806147725750805b1561259d576133af8383614efe565b6000614790600284841861584f565b610bcd90848416615821565b600054610100900460ff16610c885760405162461bcd60e51b8152600401610c7790615b13565b600054610100900460ff166147ea5760405162461bcd60e51b8152600401610c7790615b13565b81516020928301208151919092012060c99190915560ca55565b600061010681905561010581905561010780546001600160c01b031916670de0b6b3a764000017905561010380549161483c83615b5e565b9091555050610103546040517fdeba711e99fd7b5e4c3791cdf72d3b4af968d7bff093b505fba2ab5a967bc49390600090a2565b6000610bcd8284615821565b816001600160a01b0316836001600160a01b03161415801561489e5750600081115b1561259d576001600160a01b0383161561493b57610103546000908152610133602090815260408083206001600160a01b0387168452909152812081906148e89061450b85614517565b91509150846001600160a01b03167fdec2bacdd2f05b59de34da9b523dff8be42e5e38e818c82fdb0bae774387a7248383604051614930929190918252602082015260400190565b60405180910390a250505b6001600160a01b0382161561259d57610103546000908152610133602090815260408083206001600160a01b0386168452909152812081906149809061487085614517565b91509150836001600160a01b03167fdec2bacdd2f05b59de34da9b523dff8be42e5e38e818c82fdb0bae774387a72483836040516149c8929190918252602082015260400190565b60405180910390a25050505050565b6000614a2c826040518060400160405280602081526020017f5361666545524332303a206c6f772d6c6576656c2063616c6c206661696c6564815250856001600160a01b0316614fe99092919063ffffffff16565b80519091501561259d5780806020019051810190614a4a9190615778565b61259d5760405162461bcd60e51b815260206004820152602a60248201527f5361666545524332303a204552433230206f7065726174696f6e20646964206e6044820152691bdd081cdd58d8d9595960b21b6064820152608401610c77565b6001600160a01b038216614aff5760405162461bcd60e51b815260206004820152601f60248201527f45524332303a206d696e7420746f20746865207a65726f2061646472657373006044820152606401610c77565b610105546001600160e01b0390614b17908390615821565b10614b2457614b24615b93565b610103546000908152610104602090815260408083206001600160a01b038616845290915281208054839290614b5b908490615821565b92505081905550806101056000828254614b759190615821565b90915550506040518181526001600160a01b038316906000907fddf252ad1be2c89b69c2b068fc378daa952ba7f163c4a11628f55a4df523b3ef9060200160405180910390a3611716600083836141e5565b6000807f7fffffffffffffffffffffffffffffff5d576e7357a4501ddfe92f46681b20a0831115614bfe5750600090506003614c82565b6040805160008082526020820180845289905260ff881692820192909252606081018690526080810185905260019060a0016020604051602081039080840390855afa158015614c52573d6000803e3d6000fd5b5050604051601f1901519150506001600160a01b038116614c7b57600060019250925050614c82565b9150600090505b94509492505050565b6000816004811115614c9f57614c9f615a61565b1415614ca85750565b6001816004811115614cbc57614cbc615a61565b1415614d0a5760405162461bcd60e51b815260206004820152601860248201527f45434453413a20696e76616c6964207369676e617475726500000000000000006044820152606401610c77565b6002816004811115614d1e57614d1e615a61565b1415614d6c5760405162461bcd60e51b815260206004820152601f60248201527f45434453413a20696e76616c6964207369676e6174757265206c656e677468006044820152606401610c77565b6003816004811115614d8057614d80615a61565b1415610fc35760405162461bcd60e51b815260206004820152602260248201527f45434453413a20696e76616c6964207369676e6174757265202773272076616c604482015261756560f01b6064820152608401610c77565b6001600160a01b03821630141561259d5760405162461bcd60e51b815260206004820152601660248201527529ba2929a9103a3930b739b332b9103a379039b2b63360511b6044820152606401610c77565b60006001600160c01b03821115613fec5760405163f44398f560e01b815260040160405180910390fd5b60006001600160e01b03821115613fec5760405162461bcd60e51b815260206004820152602760248201527f53616665436173743a2076616c756520646f65736e27742066697420696e20326044820152663234206269747360c81b6064820152608401610c77565b614ec7816146c0565b6040516001600160a01b038216907fbc7cd75a20ee27fd9adebab32041f755214dbc6bffa90cc0225b39da2e5c2d3b90600090a250565b60606001600160a01b0383163b614f665760405162461bcd60e51b815260206004820152602660248201527f416464726573733a2064656c65676174652063616c6c20746f206e6f6e2d636f6044820152651b9d1c9858dd60d21b6064820152608401610c77565b600080846001600160a01b031684604051614f819190615ba9565b600060405180830381855af49150503d8060008114614fbc576040519150601f19603f3d011682016040523d82523d6000602084013e614fc1565b606091505b509150915061439b8282604051806060016040528060278152602001615be660279139614ff8565b606061106f8484600085615011565b60608315615007575081610bcd565b610bcd83836150ec565b6060824710156150725760405162461bcd60e51b815260206004820152602660248201527f416464726573733a20696e73756666696369656e742062616c616e636520666f6044820152651c8818d85b1b60d21b6064820152608401610c77565b600080866001600160a01b0316858760405161508e9190615ba9565b60006040518083038185875af1925050503d80600081146150cb576040519150601f19603f3d011682016040523d82523d6000602084013e6150d0565b606091505b50915091506150e187838387615116565b979650505050505050565b8151156150fc5781518083602001fd5b8060405162461bcd60e51b8152600401610c779190615248565b6060831561518257825161517b576001600160a01b0385163b61517b5760405162461bcd60e51b815260206004820152601d60248201527f416464726573733a2063616c6c20746f206e6f6e2d636f6e74726163740000006044820152606401610c77565b508161106f565b61106f83836150ec565b82805461519890615743565b90600052602060002090601f0160209004810192826151ba5760008555615200565b82601f106151d35782800160ff19823516178555615200565b82800160010185558215615200579182015b828111156152005782358255916020019190600101906151e5565b50613fec9291505b80821115613fec5760008155600101615208565b60005b8381101561523757818101518382015260200161521f565b838111156133af5750506000910152565b602081526000825180602084015261526781604085016020870161521c565b601f01601f19169190910160400192915050565b6001600160a01b0381168114610fc357600080fd5b600080604083850312156152a357600080fd5b82356152ae8161527b565b946020939093013593505050565b6000806000606084860312156152d157600080fd5b83356152dc8161527b565b925060208401356152ec8161527b565b929592945050506040919091013590565b60006020828403121561530f57600080fd5b5035919050565b60006020828403121561532857600080fd5b8135610bcd8161527b565b60008083601f84011261534557600080fd5b5081356001600160401b0381111561535c57600080fd5b60208301915083602082850101111561537457600080fd5b9250929050565b803565ffffffffffff8116811461539157600080fd5b919050565b80356001600160c01b038116811461539157600080fd5b60008060008060008060008060c0898b0312156153c957600080fd5b88356153d48161527b565b975060208901356001600160401b03808211156153f057600080fd5b6153fc8c838d01615333565b909950975060408b013591508082111561541557600080fd5b506154228b828c01615333565b9096509450615435905060608a0161537b565b925061544360808a0161537b565b915061545160a08a01615396565b90509295985092959890939650565b634e487b7160e01b600052604160045260246000fd5b6000806040838503121561548957600080fd5b82356154948161527b565b915060208301356001600160401b03808211156154b057600080fd5b818501915085601f8301126154c457600080fd5b8135818111156154d6576154d6615460565b604051601f8201601f19908116603f011681019083821181831017156154fe576154fe615460565b8160405282815288602084870101111561551757600080fd5b8260208601602083013760006020848301015280955050505050509250929050565b6000806040838503121561554c57600080fd5b82359150602083013561555e8161527b565b809150509250929050565b60008060006060848603121561557e57600080fd5b8335925060208401356152ec8161527b565b6000602082840312156155a257600080fd5b610bcd8261537b565b600080604083850312156155be57600080fd5b82356155c98161527b565b91506155d76020840161537b565b90509250929050565b600080602083850312156155f357600080fd5b82356001600160401b0381111561560957600080fd5b61561585828601615333565b90969095509350505050565b803560ff8116811461539157600080fd5b60008060008060008060c0878903121561564b57600080fd5b86356156568161527b565b9550602087013594506040870135935061567260608801615621565b92506080870135915060a087013590509295509295509295565b600080600080600080600060e0888a0312156156a757600080fd5b87356156b28161527b565b965060208801356156c28161527b565b955060408801359450606088013593506156de60808901615621565b925060a0880135915060c0880135905092959891949750929550565b60006020828403121561570c57600080fd5b610bcd82615396565b6000806040838503121561572857600080fd5b82356157338161527b565b9150602083013561555e8161527b565b600181811c9082168061575757607f821691505b602082108114156141df57634e487b7160e01b600052602260045260246000fd5b60006020828403121561578a57600080fd5b81518015158114610bcd57600080fd5b60208082526010908201526f3830bab9b2b21037b910333937bd32b760811b604082015260600190565b634e487b7160e01b600052601160045260246000fd5b60006001600160c01b03838116908316818110156157fa576157fa6157c4565b039392505050565b600081600019048311821515161561581c5761581c6157c4565b500290565b60008219821115615834576158346157c4565b500190565b634e487b7160e01b600052601260045260246000fd5b60008261585e5761585e615839565b500490565b600082821015615875576158756157c4565b500390565b6020808252602c908201527f46756e6374696f6e206d7573742062652063616c6c6564207468726f7567682060408201526b19195b1959d85d1958d85b1b60a21b606082015260800190565b6020808252602c908201527f46756e6374696f6e206d7573742062652063616c6c6564207468726f7567682060408201526b6163746976652070726f787960a01b606082015260800190565b6020808252601f908201527f4552433230566f7465733a20626c6f636b206e6f7420796574206d696e656400604082015260600190565b60006001600160c01b038381168061596357615963615839565b92169190910492915050565b60006001600160c01b03828116848216808303821115615991576159916157c4565b01949350505050565b6000602082840312156159ac57600080fd5b8151610bcd8161527b565b6000602082840312156159c957600080fd5b5051919050565b805160208083015191908110156141df5760001960209190910360031b1b16919050565b6020808252600f908201526e676f7665726e616e6365206f6e6c7960881b604082015260600190565b600065ffffffffffff80831681851681830481118215151615615a4257615a426157c4565b02949350505050565b634e487b7160e01b600052603260045260246000fd5b634e487b7160e01b600052602160045260246000fd5b600060208284031215615a8957600080fd5b815160038110610bcd57600080fd5b600065ffffffffffff808316818516808303821115615991576159916157c4565b600065ffffffffffff838116908316818110156157fa576157fa6157c4565b600065ffffffffffff8084168061596357615963615839565b60006001600160401b03808316818516808303821115615991576159916157c4565b6020808252602b908201527f496e697469616c697a61626c653a20636f6e7472616374206973206e6f74206960408201526a6e697469616c697a696e6760a81b606082015260800190565b6000600019821415615b7257615b726157c4565b5060010190565b60006001600160801b038084168061596357615963615839565b634e487b7160e01b600052600160045260246000fd5b60008251615bbb81846020870161521c565b919091019291505056fe360894a13ba1a3210667c828492db98dca3e2076cc3735a920a3ca505d382bbc416464726573733a206c6f772d6c6576656c2064656c65676174652063616c6c206661696c6564a2646970667358221220d087e3c99a6b0c28f4e36ffdf1d4890f10ebba5dfef1185ac03e50a3c225e0e264736f6c63430008090033",
  "linkReferences": {
    "contracts/reserve/libraries/Permit.sol": {
      "PermitLib": [
        {
          "length": 20,
          "start": 10760
        }
      ]
    }
  },
  "deployedLinkReferences": {
    "contracts/reserve/libraries/Permit.sol": {
      "PermitLib": [
        {
          "length": 20,
          "start": 10368
        }
      ]
    }
  }
}