{
  "_format": "hh-sol-artifact-1",
  "contractName": "FiatCollateral",
  "sourceName": "contracts/reserve/plugins/assets/FiatCollateral.sol",
  "abi": [
    {
      "inputs": [
        {
          "components": [
            {
              "internalType": "uint192",
              "name": "fallbackPrice",
              "type": "uint192"
            },
            {
              "internalType": "contract AggregatorV3Interface",
              "name": "chainlinkFeed",
              "type": "address"
            },
            {
              "internalType": "uint192",
              "name": "oracleError",
              "type": "uint192"
            },
            {
              "internalType": "contract IERC20Metadata",
              "name": "erc20",
              "type": "address"
            },
            {
              "internalType": "uint192",
              "name": "maxTradeVolume",
              "type": "uint192"
            },
            {
              "internalType": "uint48",
              "name": "oracleTimeout",
              "type": "uint48"
            },
            {
              "internalType": "bytes32",
              "name": "targetName",
              "type": "bytes32"
            },
            {
              "internalType": "uint192",
              "name": "defaultThreshold",
              "type": "uint192"
            },
            {
              "internalType": "uint256",
              "name": "delayUntilDefault",
              "type": "uint256"
            }
          ],
          "internalType": "struct CollateralConfig",
          "name": "config",
          "type": "tuple"
        }
      ],
      "stateMutability": "nonpayable",
      "type": "constructor"
    },
    {
      "inputs": [],
      "name": "StalePrice",
      "type": "error"
    },
    {
      "inputs": [],
      "name": "UIntOutOfBounds",
      "type": "error"
    },
    {
      "anonymous": false,
      "inputs": [
        {
          "indexed": true,
          "internalType": "enum CollateralStatus",
          "name": "oldStatus",
          "type": "uint8"
        },
        {
          "indexed": true,
          "internalType": "enum CollateralStatus",
          "name": "newStatus",
          "type": "uint8"
        }
      ],
      "name": "CollateralStatusChanged",
      "type": "event"
    },
    {
      "anonymous": false,
      "inputs": [
        {
          "indexed": true,
          "internalType": "contract IERC20",
          "name": "erc20",
          "type": "address"
        },
        {
          "indexed": true,
          "internalType": "uint256",
          "name": "amount",
          "type": "uint256"
        }
      ],
      "name": "RewardsClaimed",
      "type": "event"
    },
    {
      "inputs": [
        {
          "internalType": "address",
          "name": "account",
          "type": "address"
        }
      ],
      "name": "bal",
      "outputs": [
        {
          "internalType": "uint192",
          "name": "",
          "type": "uint192"
        }
      ],
      "stateMutability": "view",
      "type": "function"
    },
    {
      "inputs": [],
      "name": "chainlinkFeed",
      "outputs": [
        {
          "internalType": "contract AggregatorV3Interface",
          "name": "",
          "type": "address"
        }
      ],
      "stateMutability": "view",
      "type": "function"
    },
    {
      "inputs": [],
      "name": "claimRewards",
      "outputs": [],
      "stateMutability": "nonpayable",
      "type": "function"
    },
    {
      "inputs": [],
      "name": "delayUntilDefault",
      "outputs": [
        {
          "internalType": "uint256",
          "name": "",
          "type": "uint256"
        }
      ],
      "stateMutability": "view",
      "type": "function"
    },
    {
      "inputs": [],
      "name": "erc20",
      "outputs": [
        {
          "internalType": "contract IERC20Metadata",
          "name": "",
          "type": "address"
        }
      ],
      "stateMutability": "view",
      "type": "function"
    },
    {
      "inputs": [],
      "name": "erc20Decimals",
      "outputs": [
        {
          "internalType": "uint8",
          "name": "",
          "type": "uint8"
        }
      ],
      "stateMutability": "view",
      "type": "function"
    },
    {
      "inputs": [],
      "name": "fallbackPrice",
      "outputs": [
        {
          "internalType": "uint192",
          "name": "",
          "type": "uint192"
        }
      ],
      "stateMutability": "view",
      "type": "function"
    },
    {
      "inputs": [],
      "name": "isCollateral",
      "outputs": [
        {
          "internalType": "bool",
          "name": "",
          "type": "bool"
        }
      ],
      "stateMutability": "pure",
      "type": "function"
    },
    {
      "inputs": [],
      "name": "maxTradeVolume",
      "outputs": [
        {
          "internalType": "uint192",
          "name": "",
          "type": "uint192"
        }
      ],
      "stateMutability": "view",
      "type": "function"
    },
    {
      "inputs": [],
      "name": "oracleError",
      "outputs": [
        {
          "internalType": "uint192",
          "name": "",
          "type": "uint192"
        }
      ],
      "stateMutability": "view",
      "type": "function"
    },
    {
      "inputs": [],
      "name": "oracleTimeout",
      "outputs": [
        {
          "internalType": "uint48",
          "name": "",
          "type": "uint48"
        }
      ],
      "stateMutability": "view",
      "type": "function"
    },
    {
      "inputs": [],
      "name": "pegBottom",
      "outputs": [
        {
          "internalType": "uint192",
          "name": "",
          "type": "uint192"
        }
      ],
      "stateMutability": "view",
      "type": "function"
    },
    {
      "inputs": [],
      "name": "pegTop",
      "outputs": [
        {
          "internalType": "uint192",
          "name": "",
          "type": "uint192"
        }
      ],
      "stateMutability": "view",
      "type": "function"
    },
    {
      "inputs": [],
      "name": "prevReferencePrice",
      "outputs": [
        {
          "internalType": "uint192",
          "name": "",
          "type": "uint192"
        }
      ],
      "stateMutability": "view",
      "type": "function"
    },
    {
      "inputs": [],
      "name": "price",
      "outputs": [
        {
          "internalType": "uint192",
          "name": "",
          "type": "uint192"
        },
        {
          "internalType": "uint192",
          "name": "",
          "type": "uint192"
        }
      ],
      "stateMutability": "view",
      "type": "function"
    },
    {
      "inputs": [],
      "name": "refPerTok",
      "outputs": [
        {
          "internalType": "uint192",
          "name": "",
          "type": "uint192"
        }
      ],
      "stateMutability": "view",
      "type": "function"
    },
    {
      "inputs": [],
      "name": "refresh",
      "outputs": [],
      "stateMutability": "nonpayable",
      "type": "function"
    },
    {
      "inputs": [],
      "name": "status",
      "outputs": [
        {
          "internalType": "enum CollateralStatus",
          "name": "",
          "type": "uint8"
        }
      ],
      "stateMutability": "view",
      "type": "function"
    },
    {
      "inputs": [],
      "name": "targetName",
      "outputs": [
        {
          "internalType": "bytes32",
          "name": "",
          "type": "bytes32"
        }
      ],
      "stateMutability": "view",
      "type": "function"
    },
    {
      "inputs": [],
      "name": "targetPerRef",
      "outputs": [
        {
          "internalType": "uint192",
          "name": "",
          "type": "uint192"
        }
      ],
      "stateMutability": "view",
      "type": "function"
    },
    {
      "inputs": [],
      "name": "tryPrice",
      "outputs": [
        {
          "internalType": "uint192",
          "name": "low",
          "type": "uint192"
        },
        {
          "internalType": "uint192",
          "name": "high",
          "type": "uint192"
        },
        {
          "internalType": "uint192",
          "name": "pegPrice",
          "type": "uint192"
        }
      ],
      "stateMutability": "view",
      "type": "function"
    },
    {
      "inputs": [],
      "name": "whenDefault",
      "outputs": [
        {
          "internalType": "uint256",
          "name": "",
          "type": "uint256"
        }
      ],
      "stateMutability": "view",
      "type": "function"
    }
  ],
  "bytecode": "0x6101c06040526000196001553480156200001857600080fd5b5060405162001b2438038062001b248339810160408190526200003b9162000652565b8051602082015160408301516060840151608085015160a08601516001600160c01b038616620000b25760405162461bcd60e51b815260206004820152601360248201527f66616c6c6261636b207072696365207a65726f0000000000000000000000000060448201526064015b60405180910390fd5b6001600160a01b0385166200010a5760405162461bcd60e51b815260206004820152601660248201527f6d697373696e6720636861696e6c696e6b2066656564000000000000000000006044820152606401620000a9565b6000846001600160c01b0316118015620001345750670de0b6b3a76400006001600160c01b038516105b620001825760405162461bcd60e51b815260206004820152601960248201527f6f7261636c65206572726f72206f7574206f662072616e6765000000000000006044820152606401620000a9565b6001600160a01b038316620001ca5760405162461bcd60e51b815260206004820152600d60248201526c06d697373696e6720657263323609c1b6044820152606401620000a9565b6000826001600160c01b031611620002255760405162461bcd60e51b815260206004820152601860248201527f696e76616c6964206d617820747261646520766f6c756d6500000000000000006044820152606401620000a9565b60008165ffffffffffff1611620002745760405162461bcd60e51b81526020600482015260126024820152716f7261636c6554696d656f7574207a65726f60701b6044820152606401620000a9565b600080546001600160c01b0319166001600160c01b03888116919091179091556001600160a01b0386811660805290851661010052831660a08190526040805163313ce56760e01b8152905163313ce56791600480820192602092909190829003018186803b158015620002e757600080fd5b505afa158015620002fc573d6000803e3d6000fd5b505050506040513d601f19601f820116820180604052508101906200032291906200070d565b60ff1660c09081526001600160c01b0390921660e05265ffffffffffff16610120528501511515935062000392925050505760405162461bcd60e51b81526020600482015260126024820152717461726765744e616d65206d697373696e6760701b6044820152606401620000a9565b60e08101516001600160c01b031615620003fd57600081610100015111620003fd5760405162461bcd60e51b815260206004820152601660248201527f64656c6179556e74696c44656661756c74207a65726f000000000000000000006044820152606401620000a9565b60c081015161016052610100810151610140526000670de0b6b3a764000090506000620004468360e00151836001600160c01b03166200048460201b6200093b1790919060201c565b905062000454818362000748565b6001600160c01b0316610180526200046d818362000773565b6001600160c01b03166101a0525062000855915050565b600062000494838360016200049b565b9392505050565b6000620004d3620004cd620004bd6001600160c01b03808716908816620007a1565b670de0b6b3a764000085620004db565b6200059f565b949350505050565b600080620004ea8486620007d9565b90506000836002811115620005035762000503620007f0565b14156200051257905062000494565b6001836002811115620005295762000529620007f0565b1415620005745760026200053f60018662000806565b6200054b9190620007d9565b62000557858762000820565b11156200056e57806200056a8162000837565b9150505b620004d3565b600062000582858762000820565b1115620004d35780620005958162000837565b9695505050505050565b60006001600160c01b03821115620005ca5760405163f44398f560e01b815260040160405180910390fd5b5090565b60405161012081016001600160401b03811182821017156200060057634e487b7160e01b600052604160045260246000fd5b60405290565b80516001600160c01b03811681146200061e57600080fd5b919050565b80516001600160a01b03811681146200061e57600080fd5b805165ffffffffffff811681146200061e57600080fd5b600061012082840312156200066657600080fd5b62000670620005ce565b6200067b8362000606565b81526200068b6020840162000623565b60208201526200069e6040840162000606565b6040820152620006b16060840162000623565b6060820152620006c46080840162000606565b6080820152620006d760a084016200063b565b60a082015260c083015160c0820152620006f460e0840162000606565b60e0820152610100928301519281019290925250919050565b6000602082840312156200072057600080fd5b815160ff811681146200049457600080fd5b634e487b7160e01b600052601160045260246000fd5b60006001600160c01b03838116908316818110156200076b576200076b62000732565b039392505050565b60006001600160c01b0382811684821680830382111562000798576200079862000732565b01949350505050565b6000816000190483118215151615620007be57620007be62000732565b500290565b634e487b7160e01b600052601260045260246000fd5b600082620007eb57620007eb620007c3565b500490565b634e487b7160e01b600052602160045260246000fd5b6000828210156200081b576200081b62000732565b500390565b600082620008325762000832620007c3565b500690565b60006000198214156200084e576200084e62000732565b5060010190565b60805160a05160c05160e05161010051610120516101405161016051610180516101a0516112146200091060003960008181610328015261080101526000818161034f01526107c5015260006103ee0152600081816103bf0152610ba40152600081816102ea01526105410152600081816103760152818161059701526105de0152600061028d01526000818161017e01526104df0152600081816101e20152610460015260008181610253015261051f01526112146000f3fe608060405234801561001057600080fd5b50600436106101425760003560e01c8063a7fa0faf116100b8578063c59b3d631161007c578063c59b3d6314610398578063d9e8e670146102d7578063e28a1b86146103a7578063e6a15053146103ba578063f8ac93e8146103e1578063fdfd5917146103e957600080fd5b8063a7fa0faf146102d7578063abfeece5146102e5578063ae4e187514610323578063b94d87391461034a578063c55f29d11461037157600080fd5b8063785e9e861161010a578063785e9e86146101dd5780637d1ea1371461021c5780637dbdf1f51461024e5780638b382ee71461027557806395acc4ae14610288578063a035b1fe146102af57600080fd5b8063200d2ed2146101475780632dc8662414610165578063372500ab146101775780633cb5d379146101795780635580f72a146101b2575b600080fd5b61014f610410565b60405161015c9190610e08565b60405180910390f35b6001545b60405190815260200161015c565b005b6101a07f000000000000000000000000000000000000000000000000000000000000000081565b60405160ff909116815260200161015c565b6101c56101c0366004610e30565b61043a565b6040516001600160c01b03909116815260200161015c565b6102047f000000000000000000000000000000000000000000000000000000000000000081565b6040516001600160a01b03909116815260200161015c565b61022461050e565b604080516001600160c01b039485168152928416602084015292169181019190915260600161015c565b6102047f000000000000000000000000000000000000000000000000000000000000000081565b6002546101c5906001600160c01b031681565b6101c57f000000000000000000000000000000000000000000000000000000000000000081565b6102b761061c565b604080516001600160c01b0393841681529290911660208301520161015c565b670de0b6b3a76400006101c5565b61030c7f000000000000000000000000000000000000000000000000000000000000000081565b60405165ffffffffffff909116815260200161015c565b6101c57f000000000000000000000000000000000000000000000000000000000000000081565b6101c57f000000000000000000000000000000000000000000000000000000000000000081565b6101c57f000000000000000000000000000000000000000000000000000000000000000081565b6040516001815260200161015c565b6000546101c5906001600160c01b031681565b6101697f000000000000000000000000000000000000000000000000000000000000000081565b6101776106e3565b6101697f000000000000000000000000000000000000000000000000000000000000000081565b600060001960015414156104245750600090565b4260015411156104345750600190565b50600290565b6040516370a0823160e01b81526001600160a01b038281166004830152600091610508917f000000000000000000000000000000000000000000000000000000000000000016906370a082319060240160206040518083038186803b1580156104a257600080fd5b505afa1580156104b6573d6000803e3d6000fd5b505050506040513d601f19601f820116820180604052508101906104da9190610e59565b6105037f0000000000000000000000000000000000000000000000000000000000000000610e88565b610950565b92915050565b600080806105656001600160a01b037f0000000000000000000000000000000000000000000000000000000000000000167f000000000000000000000000000000000000000000000000000000000000000061095e565b905060006105846001600160c01b038316670de0b6b3a764000061093b565b90506105cb6105bb670de0b6b3a76400007f0000000000000000000000000000000000000000000000000000000000000000610aed565b6001600160c01b03831690610af9565b9350610614610602670de0b6b3a76400007f0000000000000000000000000000000000000000000000000000000000000000610b07565b6001600160c01b038316906002610b13565b925050909192565b600080306001600160a01b0316637d1ea1376040518163ffffffff1660e01b815260040160606040518083038186803b15801561065857600080fd5b505afa925050508015610688575060408051601f3d908101601f1916820190925261068591810190610ec4565b60015b6106d9573d8080156106b6576040519150601f19603f3d011682016040523d82523d6000602084013e6106bb565b606091505b5080516106c757600080fd5b506000926001600160c01b0392509050565b5090939092509050565b60015442106106ee57565b60006106f8610410565b9050306001600160a01b0316637d1ea1376040518163ffffffff1660e01b815260040160606040518083038186803b15801561073357600080fd5b505afa925050508015610763575060408051601f3d908101601f1916820190925261076091810190610ec4565b60015b6107b2573d808015610791576040519150601f19603f3d011682016040523d82523d6000602084013e610796565b606091505b5080516107a257600080fd5b6107ac6001610b53565b50610871565b6001600160c01b03831615806107f957507f00000000000000000000000000000000000000000000000000000000000000006001600160c01b0316816001600160c01b0316105b8061083557507f00000000000000000000000000000000000000000000000000000000000000006001600160c01b0316816001600160c01b0316115b15610849576108446001610b53565b61086d565b600080546001600160c01b0319166001600160c01b03851617815561086d90610b53565b5050505b600254670de0b6b3a7640000906001600160c01b0316811015610898576108986002610b53565b600280546001600160c01b0319166001600160c01b03831617905560006108bd610410565b90508060028111156108d1576108d1610df2565b8360028111156108e3576108e3610df2565b14610936578060028111156108fa576108fa610df2565b83600281111561090c5761090c610df2565b6040517f99cada7141db4d51b602b2e469ec310c78ffbba0eb05bc3e3e633f30672dea0290600090a35b505050565b600061094983836001610bf9565b9392505050565b600061094983836000610c26565b6000806000806000866001600160a01b031663feaf968c6040518163ffffffff1660e01b815260040160a06040518083038186803b15801561099f57600080fd5b505afa1580156109b3573d6000803e3d6000fd5b505050506040513d601f19601f820116820180604052508101906109d79190610f21565b9450945050935093508160001480610a0657508369ffffffffffffffffffff168169ffffffffffffffffffff16105b15610a2457604051630cd5fa0760e11b815260040160405180910390fd5b6000610a308342610f71565b90508665ffffffffffff168165ffffffffffff161115610a6357604051630cd5fa0760e11b815260040160405180910390fd5b610ae184896001600160a01b031663313ce5676040518163ffffffff1660e01b815260040160206040518083038186803b158015610aa057600080fd5b505afa158015610ab4573d6000803e3d6000fd5b505050506040513d601f19601f82011682018060405250810190610ad89190610f88565b61050390610e88565b98975050505050505050565b60006109498284610fab565b600061094983836000610b13565b60006109498284610fd6565b6000610b4b610b46610b36670de0b6b3a76400006001600160c01b038816610ffe565b856001600160c01b031685610cf6565b610d96565b949350505050565b4260015411610b5f5750565b6000816002811115610b7357610b73610df2565b1415610b825760001960015550565b6001816002811115610b9657610b96610df2565b1415610bd757610bd1610bc97f00000000000000000000000000000000000000000000000000000000000000004261101d565b600154610dc4565b60015550565b6002816002811115610beb57610beb610df2565b1415610bf657426001555b50565b6000610b4b610b46610c176001600160c01b03808716908816610ffe565b670de0b6b3a764000085610cf6565b600083610c3557506000610949565b605f198360000b13610c6e576002826002811115610c5557610c55610df2565b14610c61576000610c64565b60015b60ff169050610949565b8260000b602813610c925760405163f44398f560e01b815260040160405180910390fd5b610c9d601284611035565b92506000610cad8460000b610dda565b610cb890600a61115c565b90506000808560000b1215610cd757610cd2868386610cf6565b610ce1565b610ce18287610ffe565b9050610cec81610d96565b9695505050505050565b600080610d03848661117e565b90506000836002811115610d1957610d19610df2565b1415610d26579050610949565b6001836002811115610d3a57610d3a610df2565b1415610d7a576002610d4d600186610f71565b610d57919061117e565b610d618587611192565b1115610d755780610d71816111a6565b9150505b610b4b565b6000610d868587611192565b1115610b4b5780610cec816111a6565b60006001600160c01b03821115610dc05760405163f44398f560e01b815260040160405180910390fd5b5090565b6000818310610dd35781610949565b5090919050565b6000808212610de95781610508565b610508826111c1565b634e487b7160e01b600052602160045260246000fd5b6020810160038310610e2a57634e487b7160e01b600052602160045260246000fd5b91905290565b600060208284031215610e4257600080fd5b81356001600160a01b038116811461094957600080fd5b600060208284031215610e6b57600080fd5b5051919050565b634e487b7160e01b600052601160045260246000fd5b600081810b607f19811415610e9f57610e9f610e72565b60000392915050565b80516001600160c01b0381168114610ebf57600080fd5b919050565b600080600060608486031215610ed957600080fd5b610ee284610ea8565b9250610ef060208501610ea8565b9150610efe60408501610ea8565b90509250925092565b805169ffffffffffffffffffff81168114610ebf57600080fd5b600080600080600060a08688031215610f3957600080fd5b610f4286610f07565b9450602086015193506040860151925060608601519150610f6560808701610f07565b90509295509295909350565b600082821015610f8357610f83610e72565b500390565b600060208284031215610f9a57600080fd5b815160ff8116811461094957600080fd5b60006001600160c01b03828116848216808303821115610fcd57610fcd610e72565b01949350505050565b60006001600160c01b0383811690831681811015610ff657610ff6610e72565b039392505050565b600081600019048311821515161561101857611018610e72565b500290565b6000821982111561103057611030610e72565b500190565b60008160000b8360000b6000821282607f0382138115161561105957611059610e72565b82607f1903821281161561106f5761106f610e72565b50019392505050565b600181815b808511156110b357816000190482111561109957611099610e72565b808516156110a657918102915b93841c939080029061107d565b509250929050565b6000826110ca57506001610508565b816110d757506000610508565b81600181146110ed57600281146110f757611113565b6001915050610508565b60ff84111561110857611108610e72565b50506001821b610508565b5060208310610133831016604e8410600b8410161715611136575081810a610508565b6111408383611078565b806000190482111561115457611154610e72565b029392505050565b600061094983836110bb565b634e487b7160e01b600052601260045260246000fd5b60008261118d5761118d611168565b500490565b6000826111a1576111a1611168565b500690565b60006000198214156111ba576111ba610e72565b5060010190565b6000600160ff1b8214156111d7576111d7610e72565b506000039056fea2646970667358221220347dde67c965772ba8d0ace10bf4803a5e8690f7dec11d26cd18c526a6ef183364736f6c63430008090033",
  "linkReferences": {},
  "deployedLinkReferences": {}
}