{
  "_format": "hh-sol-artifact-1",
  "contractName": "DeltaInsurance",
  "sourceName": "contracts/insurance/DeltaInsurance.sol",
  "abi": [
    {
      "inputs": [
        {
          "internalType": "address",
          "name": "aaveV2LendingPool_",
          "type": "address"
        },
        {
          "internalType": "address",
          "name": "aaveADai_",
          "type": "address"
        },
        {
          "internalType": "address",
          "name": "compoundCDai_",
          "type": "address"
        }
      ],
      "stateMutability": "nonpayable",
      "type": "constructor"
    },
    {
      "anonymous": false,
      "inputs": [
        {
          "indexed": true,
          "internalType": "address",
          "name": "claimant",
          "type": "address"
        },
        {
          "indexed": false,
          "internalType": "uint256",
          "name": "amount_A",
          "type": "uint256"
        },
        {
          "indexed": false,
          "internalType": "uint256",
          "name": "amount_B",
          "type": "uint256"
        },
        {
          "indexed": false,
          "internalType": "uint256",
          "name": "amount_c",
          "type": "uint256"
        },
        {
          "indexed": false,
          "internalType": "uint256",
          "name": "amount_cx",
          "type": "uint256"
        },
        {
          "indexed": false,
          "internalType": "uint256",
          "name": "amount_cy",
          "type": "uint256"
        }
      ],
      "name": "Claim",
      "type": "event"
    },
    {
      "anonymous": false,
      "inputs": [
        {
          "indexed": false,
          "internalType": "uint256",
          "name": "amount_c",
          "type": "uint256"
        },
        {
          "indexed": false,
          "internalType": "uint256",
          "name": "amount_cx",
          "type": "uint256"
        },
        {
          "indexed": false,
          "internalType": "uint256",
          "name": "amount_cy",
          "type": "uint256"
        },
        {
          "indexed": false,
          "internalType": "uint256",
          "name": "amount_c_incentive",
          "type": "uint256"
        }
      ],
      "name": "Divest",
      "type": "event"
    },
    {
      "anonymous": false,
      "inputs": [
        {
          "indexed": false,
          "internalType": "uint256",
          "name": "amount_c",
          "type": "uint256"
        },
        {
          "indexed": false,
          "internalType": "uint256",
          "name": "amount_cx",
          "type": "uint256"
        },
        {
          "indexed": false,
          "internalType": "uint256",
          "name": "amount_cy",
          "type": "uint256"
        },
        {
          "indexed": false,
          "internalType": "uint256",
          "name": "amount_c_incentive",
          "type": "uint256"
        }
      ],
      "name": "Invest",
      "type": "event"
    },
    {
      "anonymous": false,
      "inputs": [
        {
          "indexed": true,
          "internalType": "address",
          "name": "splitter",
          "type": "address"
        },
        {
          "indexed": false,
          "internalType": "uint256",
          "name": "amount_c",
          "type": "uint256"
        }
      ],
      "name": "RiskSplit",
      "type": "event"
    },
    {
      "inputs": [
        {
          "internalType": "address",
          "name": "asset",
          "type": "address"
        },
        {
          "internalType": "uint256",
          "name": "amount_A",
          "type": "uint256"
        },
        {
          "internalType": "uint256",
          "name": "amount_B",
          "type": "uint256"
        }
      ],
      "name": "claim",
      "outputs": [],
      "stateMutability": "nonpayable",
      "type": "function"
    },
    {
      "inputs": [
        {
          "internalType": "address",
          "name": "asset",
          "type": "address"
        },
        {
          "internalType": "uint256",
          "name": "tranches_to_cx",
          "type": "uint256"
        },
        {
          "internalType": "uint256",
          "name": "tranches_to_cy",
          "type": "uint256"
        }
      ],
      "name": "claimA",
      "outputs": [],
      "stateMutability": "nonpayable",
      "type": "function"
    },
    {
      "inputs": [
        {
          "internalType": "address",
          "name": "asset",
          "type": "address"
        }
      ],
      "name": "claimAll",
      "outputs": [],
      "stateMutability": "nonpayable",
      "type": "function"
    },
    {
      "inputs": [
        {
          "internalType": "address",
          "name": "asset",
          "type": "address"
        },
        {
          "internalType": "uint256",
          "name": "tranches_to_cx",
          "type": "uint256"
        },
        {
          "internalType": "uint256",
          "name": "tranches_to_cy",
          "type": "uint256"
        }
      ],
      "name": "claimB",
      "outputs": [],
      "stateMutability": "nonpayable",
      "type": "function"
    },
    {
      "inputs": [
        {
          "internalType": "address",
          "name": "asset",
          "type": "address"
        }
      ],
      "name": "divest",
      "outputs": [],
      "stateMutability": "nonpayable",
      "type": "function"
    },
    {
      "inputs": [
        {
          "internalType": "address",
          "name": "sender",
          "type": "address"
        }
      ],
      "name": "getInsuranceBalances",
      "outputs": [
        {
          "internalType": "uint256",
          "name": "",
          "type": "uint256"
        },
        {
          "internalType": "uint256",
          "name": "",
          "type": "uint256"
        }
      ],
      "stateMutability": "view",
      "type": "function"
    },
    {
      "inputs": [
        {
          "internalType": "address",
          "name": "asset",
          "type": "address"
        }
      ],
      "name": "invest",
      "outputs": [],
      "stateMutability": "nonpayable",
      "type": "function"
    },
    {
      "inputs": [
        {
          "internalType": "address",
          "name": "asset",
          "type": "address"
        },
        {
          "internalType": "uint256",
          "name": "amount",
          "type": "uint256"
        }
      ],
      "name": "splitRisk",
      "outputs": [],
      "stateMutability": "nonpayable",
      "type": "function"
    }
  ],
  "bytecode": "0x6101006040523480156200001257600080fd5b50604051620022ec380380620022ec8339810160408190526200003591620001e9565b6040516200004390620001be565b6040808252600990820152685472616e636865204160b81b6060820152608060208201819052600190820152604160f81b60a082015260c001604051809103906000f08015801562000099573d6000803e3d6000fd5b50600080546001600160a01b0319166001600160a01b0392909216919091179055604051620000c890620001be565b6040808252600990820152682a3930b731b432902160b91b6060820152608060208201819052600190820152602160f91b60a082015260c001604051809103906000f0801580156200011e573d6000803e3d6000fd5b50600180546001600160a01b03199081166001600160a01b039384161790915560028054821686841617905560038054821685841617905560048054909116918316919091179055620001754262093a8062000233565b608081905262000189906224ea0062000233565b60a08190526200019d906201518062000233565b60c0819052620001b1906203f48062000233565b60e052506200025a915050565b610f65806200138783390190565b80516001600160a01b0381168114620001e457600080fd5b919050565b600080600060608486031215620001ff57600080fd5b6200020a84620001cc565b92506200021a60208501620001cc565b91506200022a60408501620001cc565b90509250925092565b600082198211156200025557634e487b7160e01b600052601160045260246000fd5b500190565b60805160a05160c05160e0516110ff62000288600039600050506000505060005050600050506110ff6000f3fe608060405234801561001057600080fd5b50600436106100885760003560e01c8063746a36181161005b578063746a3618146100c657806377329f351461008d578063869cdd08146100d9578063947d71f41461010557600080fd5b806303f9c7931461008d57806311af3c681461008d5780632bc43fd9146100a057806335294e5b146100b3575b600080fd5b61009e61009b366004610f6d565b50565b005b61009e6100ae366004610f8f565b610118565b61009e6100c1366004610f8f565b610571565b61009e6100d4366004610f8f565b6105c1565b6100ec6100e7366004610f6d565b610607565b6040805192835260208301919091520160405180910390f35b61009e610113366004610fc2565b61070b565b60008211806101275750600081115b61019e5760405162461bcd60e51b815260206004820152603b60248201527f5b496e737572616e63655d3a20616d6f756e745f41206f7220616d6f756e745f60448201527f42206d7573742062652067726561746572207468616e207a65726f000000000060648201526084015b60405180910390fd5b60008215610319576000546040516370a0823160e01b81523360048201526001600160a01b0390911690849082906370a082319060240160206040518083038186803b1580156101ed57600080fd5b505afa158015610201573d6000803e3d6000fd5b505050506040513d601f19601f820116820180604052508101906102259190610fec565b10156102865760405162461bcd60e51b815260206004820152602a60248201527f5b496e737572616e63655d3a20696e73756666696369656e74207472616e636860448201526965204120746f6b656e7360b01b6064820152608401610195565b604051632770a7eb60e21b8152336004820152602481018590526001600160a01b03821690639dc29fac90604401600060405180830381600087803b1580156102ce57600080fd5b505af11580156102e2573d6000803e3d6000fd5b505050506b033b2e3c9fd0803ce800000084600754610301919061101b565b61030b9190611050565b6103159083611064565b9150505b8115610492576001546040516370a0823160e01b81523360048201526001600160a01b0390911690839082906370a082319060240160206040518083038186803b15801561036657600080fd5b505afa15801561037a573d6000803e3d6000fd5b505050506040513d601f19601f8201168201806040525081019061039e9190610fec565b10156103ff5760405162461bcd60e51b815260206004820152602a60248201527f5b496e737572616e63655d3a20696e73756666696369656e74207472616e636860448201526965204220746f6b656e7360b01b6064820152608401610195565b604051632770a7eb60e21b8152336004820152602481018490526001600160a01b03821690639dc29fac90604401600060405180830381600087803b15801561044757600080fd5b505af115801561045b573d6000803e3d6000fd5b505050506b033b2e3c9fd0803ce80000008360085461047a919061101b565b6104849190611050565b61048e9083611064565b9150505b801561051a5760405163a9059cbb60e01b8152336004820152602481018290526001600160a01b0385169063a9059cbb90604401602060405180830381600087803b1580156104e057600080fd5b505af11580156104f4573d6000803e3d6000fd5b505050506040513d601f19601f82011682018060405250810190610518919061107c565b505b6040805184815260208101849052908101829052600060608201819052608082015233907f21280d282ce6aa29c649fd1825373d7c77892fac3f1958fd98d5ca52dd82a1979060a00160405180910390a250505050565b6006805461ff00191661010090811791829055900460ff16156105a8576105a38361059c8385611064565b6000610118565b505050565b6000546105a390839083906001600160a01b0316610991565b6006805461ff00191661010090811791829055900460ff16156105ee576105a38360006100ae8486611064565b6001546105a390839083906001600160a01b0316610991565b600080546040516370a0823160e01b81526001600160a01b038481166004830152839216906370a082319060240160206040518083038186803b15801561064d57600080fd5b505afa158015610661573d6000803e3d6000fd5b505050506040513d601f19601f820116820180604052508101906106859190610fec565b6001546040516370a0823160e01b81526001600160a01b038681166004830152909116906370a082319060240160206040518083038186803b1580156106ca57600080fd5b505afa1580156106de573d6000803e3d6000fd5b505050506040513d601f19601f820116820180604052508101906107029190610fec565b91509150915091565b6001811161075b5760405162461bcd60e51b815260206004820152601b60248201527f5b496e737572616e63655d3a20616d6f756e7420746f6f206c6f7700000000006044820152606401610195565b61076660028261109e565b15610779576107766001826110b2565b90505b6040516323b872dd60e01b8152336004820152306024820152604481018290526001600160a01b038316906323b872dd90606401602060405180830381600087803b1580156107c757600080fd5b505af11580156107db573d6000803e3d6000fd5b505050506040513d601f19601f820116820180604052508101906107ff919061107c565b6108605760405162461bcd60e51b815260206004820152602c60248201527f5b496e737572616e63655d3a206661696c656420746f207472616e736665722060448201526b617373657420746f6b656e7360a01b6064820152608401610195565b6000546001600160a01b03166340c10f193361087d600285611050565b6040516001600160e01b031960e085901b1681526001600160a01b0390921660048301526024820152604401600060405180830381600087803b1580156108c357600080fd5b505af11580156108d7573d6000803e3d6000fd5b50506001546001600160a01b031691506340c10f199050336108fa600285611050565b6040516001600160e01b031960e085901b1681526001600160a01b0390921660048301526024820152604401600060405180830381600087803b15801561094057600080fd5b505af1158015610954573d6000803e3d6000fd5b50506040518381523392507fd2563f3d9bdc391ff8de3d837375e67243b3e64aa9f4be4c1942109cab5c2bb9915060200160405180910390a25050565b60008311806109a05750600082115b610a0a5760405162461bcd60e51b815260206004820152603560248201527f5b496e737572616e63655d3a20746f5f6378206f7220746f5f6379206d7573746044820152742062652067726561746572207468616e207a65726f60581b6064820152608401610195565b80610a158385611064565b6040516370a0823160e01b81523360048201526001600160a01b038316906370a082319060240160206040518083038186803b158015610a5457600080fd5b505afa158015610a68573d6000803e3d6000fd5b505050506040513d601f19601f82011682018060405250810190610a8c9190610fec565b1015610b005760405162461bcd60e51b815260206004820152603760248201527f5b496e737572616e63655d3a2073656e64657220646f6573206e6f7420686f6c60448201527f6420656e6f756768207472616e63686520746f6b656e730000000000000000006064820152608401610195565b6000805481906001600160a01b0385811691161415610b2a57610b238587611064565b9150610b4d565b6001546001600160a01b0385811691161415610b4d57610b4a8587611064565b90505b6000808715610d23576003546009546001600160a01b0390911690610c18576005546040516370a0823160e01b8152306004820152600291906001600160a01b038416906370a082319060240160206040518083038186803b158015610bb257600080fd5b505afa158015610bc6573d6000803e3d6000fd5b505050506040513d601f19601f82011682018060405250810190610bea9190610fec565b610c00906b033b2e3c9fd0803ce800000061101b565b610c0a9190611050565b610c149190611050565b6009555b604051632770a7eb60e21b8152336004820152602481018a90526001600160a01b03871690639dc29fac90604401600060405180830381600087803b158015610c6057600080fd5b505af1158015610c74573d6000803e3d6000fd5b505050506b033b2e3c9fd0803ce80000006009548a610c93919061101b565b610c9d9190611050565b60405163a9059cbb60e01b8152336004820152602481018290529093506001600160a01b0382169063a9059cbb90604401602060405180830381600087803b158015610ce857600080fd5b505af1158015610cfc573d6000803e3d6000fd5b505050506040513d601f19601f82011682018060405250810190610d20919061107c565b50505b8615610ef657600454600a546001600160a01b0390911690610deb576005546040516370a0823160e01b8152306004820152600291906001600160a01b038416906370a082319060240160206040518083038186803b158015610d8557600080fd5b505afa158015610d99573d6000803e3d6000fd5b505050506040513d601f19601f82011682018060405250810190610dbd9190610fec565b610dd3906b033b2e3c9fd0803ce800000061101b565b610ddd9190611050565b610de79190611050565b600a555b604051632770a7eb60e21b8152336004820152602481018990526001600160a01b03871690639dc29fac90604401600060405180830381600087803b158015610e3357600080fd5b505af1158015610e47573d6000803e3d6000fd5b505050506b033b2e3c9fd0803ce8000000600a5489610e66919061101b565b610e709190611050565b60405163a9059cbb60e01b8152336004820152602481018290529092506001600160a01b0382169063a9059cbb90604401602060405180830381600087803b158015610ebb57600080fd5b505af1158015610ecf573d6000803e3d6000fd5b505050506040513d601f19601f82011682018060405250810190610ef3919061107c565b50505b60408051858152602081018590526000818301526060810184905260808101839052905133917f21280d282ce6aa29c649fd1825373d7c77892fac3f1958fd98d5ca52dd82a197919081900360a00190a25050505050505050565b80356001600160a01b0381168114610f6857600080fd5b919050565b600060208284031215610f7f57600080fd5b610f8882610f51565b9392505050565b600080600060608486031215610fa457600080fd5b610fad84610f51565b95602085013595506040909401359392505050565b60008060408385031215610fd557600080fd5b610fde83610f51565b946020939093013593505050565b600060208284031215610ffe57600080fd5b5051919050565b634e487b7160e01b600052601160045260246000fd5b600081600019048311821515161561103557611035611005565b500290565b634e487b7160e01b600052601260045260246000fd5b60008261105f5761105f61103a565b500490565b6000821982111561107757611077611005565b500190565b60006020828403121561108e57600080fd5b81518015158114610f8857600080fd5b6000826110ad576110ad61103a565b500690565b6000828210156110c4576110c4611005565b50039056fea2646970667358221220f11f2ed79ed5563bebb8929fe487ff9d89e66ce04aa5b5d9998cb756ce4b459c64736f6c6343000809003360806040523480156200001157600080fd5b5060405162000f6538038062000f65833981016040819052620000349162000251565b8151829082906200004d906003906020850190620000de565b50805162000063906004906020840190620000de565b505050620000806200007a6200008860201b60201c565b6200008c565b5050620002f8565b3390565b600580546001600160a01b038381166001600160a01b0319831681179093556040519116919082907f8be0079c531659141344cd1fd0a4f28419497f9722a3daafe3b4186f6b6457e090600090a35050565b828054620000ec90620002bb565b90600052602060002090601f0160209004810192826200011057600085556200015b565b82601f106200012b57805160ff19168380011785556200015b565b828001600101855582156200015b579182015b828111156200015b5782518255916020019190600101906200013e565b50620001699291506200016d565b5090565b5b808211156200016957600081556001016200016e565b634e487b7160e01b600052604160045260246000fd5b600082601f830112620001ac57600080fd5b81516001600160401b0380821115620001c957620001c962000184565b604051601f8301601f19908116603f01168101908282118183101715620001f457620001f462000184565b816040528381526020925086838588010111156200021157600080fd5b600091505b8382101562000235578582018301518183018401529082019062000216565b83821115620002475760008385830101525b9695505050505050565b600080604083850312156200026557600080fd5b82516001600160401b03808211156200027d57600080fd5b6200028b868387016200019a565b93506020850151915080821115620002a257600080fd5b50620002b1858286016200019a565b9150509250929050565b600181811c90821680620002d057607f821691505b60208210811415620002f257634e487b7160e01b600052602260045260246000fd5b50919050565b610c5d80620003086000396000f3fe608060405234801561001057600080fd5b50600436106101005760003560e01c8063715018a611610097578063a457c2d711610066578063a457c2d714610209578063a9059cbb1461021c578063dd62ed3e1461022f578063f2fde38b1461024257600080fd5b8063715018a6146101cb5780638da5cb5b146101d357806395d89b41146101ee5780639dc29fac146101f657600080fd5b8063313ce567116100d3578063313ce5671461016b578063395093511461017a57806340c10f191461018d57806370a08231146101a257600080fd5b806306fdde0314610105578063095ea7b31461012357806318160ddd1461014657806323b872dd14610158575b600080fd5b61010d610255565b60405161011a9190610a9a565b60405180910390f35b610136610131366004610b0b565b6102e7565b604051901515815260200161011a565b6002545b60405190815260200161011a565b610136610166366004610b35565b6102ff565b6040516012815260200161011a565b610136610188366004610b0b565b610323565b6101a061019b366004610b0b565b610345565b005b61014a6101b0366004610b71565b6001600160a01b031660009081526020819052604090205490565b6101a061035b565b6005546040516001600160a01b03909116815260200161011a565b61010d61036f565b6101a0610204366004610b0b565b61037e565b610136610217366004610b0b565b610390565b61013661022a366004610b0b565b610410565b61014a61023d366004610b93565b61041e565b6101a0610250366004610b71565b610449565b60606003805461026490610bc6565b80601f016020809104026020016040519081016040528092919081815260200182805461029090610bc6565b80156102dd5780601f106102b2576101008083540402835291602001916102dd565b820191906000526020600020905b8154815290600101906020018083116102c057829003601f168201915b5050505050905090565b6000336102f58185856104c2565b5060019392505050565b60003361030d8582856105e7565b610318858585610661565b506001949350505050565b6000336102f5818585610336838361041e565b6103409190610c01565b6104c2565b61034d610805565b610357828261085f565b5050565b610363610805565b61036d600061091e565b565b60606004805461026490610bc6565b610386610805565b6103578282610970565b6000338161039e828661041e565b9050838110156104035760405162461bcd60e51b815260206004820152602560248201527f45524332303a2064656372656173656420616c6c6f77616e63652062656c6f77604482015264207a65726f60d81b60648201526084015b60405180910390fd5b61031882868684036104c2565b6000336102f5818585610661565b6001600160a01b03918216600090815260016020908152604080832093909416825291909152205490565b610451610805565b6001600160a01b0381166104b65760405162461bcd60e51b815260206004820152602660248201527f4f776e61626c653a206e6577206f776e657220697320746865207a65726f206160448201526564647265737360d01b60648201526084016103fa565b6104bf8161091e565b50565b6001600160a01b0383166105245760405162461bcd60e51b8152602060048201526024808201527f45524332303a20617070726f76652066726f6d20746865207a65726f206164646044820152637265737360e01b60648201526084016103fa565b6001600160a01b0382166105855760405162461bcd60e51b815260206004820152602260248201527f45524332303a20617070726f766520746f20746865207a65726f206164647265604482015261737360f01b60648201526084016103fa565b6001600160a01b0383811660008181526001602090815260408083209487168084529482529182902085905590518481527f8c5be1e5ebec7d5bd14f71427d1e84f3dd0314c0f7b2291e5b200ac8c7c3b92591015b60405180910390a3505050565b60006105f3848461041e565b9050600019811461065b578181101561064e5760405162461bcd60e51b815260206004820152601d60248201527f45524332303a20696e73756666696369656e7420616c6c6f77616e636500000060448201526064016103fa565b61065b84848484036104c2565b50505050565b6001600160a01b0383166106c55760405162461bcd60e51b815260206004820152602560248201527f45524332303a207472616e736665722066726f6d20746865207a65726f206164604482015264647265737360d81b60648201526084016103fa565b6001600160a01b0382166107275760405162461bcd60e51b815260206004820152602360248201527f45524332303a207472616e7366657220746f20746865207a65726f206164647260448201526265737360e81b60648201526084016103fa565b6001600160a01b0383166000908152602081905260409020548181101561079f5760405162461bcd60e51b815260206004820152602660248201527f45524332303a207472616e7366657220616d6f756e7420657863656564732062604482015265616c616e636560d01b60648201526084016103fa565b6001600160a01b03848116600081815260208181526040808320878703905593871680835291849020805487019055925185815290927fddf252ad1be2c89b69c2b068fc378daa952ba7f163c4a11628f55a4df523b3ef910160405180910390a361065b565b6005546001600160a01b0316331461036d5760405162461bcd60e51b815260206004820181905260248201527f4f776e61626c653a2063616c6c6572206973206e6f7420746865206f776e657260448201526064016103fa565b6001600160a01b0382166108b55760405162461bcd60e51b815260206004820152601f60248201527f45524332303a206d696e7420746f20746865207a65726f20616464726573730060448201526064016103fa565b80600260008282546108c79190610c01565b90915550506001600160a01b038216600081815260208181526040808320805486019055518481527fddf252ad1be2c89b69c2b068fc378daa952ba7f163c4a11628f55a4df523b3ef910160405180910390a35050565b600580546001600160a01b038381166001600160a01b0319831681179093556040519116919082907f8be0079c531659141344cd1fd0a4f28419497f9722a3daafe3b4186f6b6457e090600090a35050565b6001600160a01b0382166109d05760405162461bcd60e51b815260206004820152602160248201527f45524332303a206275726e2066726f6d20746865207a65726f206164647265736044820152607360f81b60648201526084016103fa565b6001600160a01b03821660009081526020819052604090205481811015610a445760405162461bcd60e51b815260206004820152602260248201527f45524332303a206275726e20616d6f756e7420657863656564732062616c616e604482015261636560f01b60648201526084016103fa565b6001600160a01b0383166000818152602081815260408083208686039055600280548790039055518581529192917fddf252ad1be2c89b69c2b068fc378daa952ba7f163c4a11628f55a4df523b3ef91016105da565b600060208083528351808285015260005b81811015610ac757858101830151858201604001528201610aab565b81811115610ad9576000604083870101525b50601f01601f1916929092016040019392505050565b80356001600160a01b0381168114610b0657600080fd5b919050565b60008060408385031215610b1e57600080fd5b610b2783610aef565b946020939093013593505050565b600080600060608486031215610b4a57600080fd5b610b5384610aef565b9250610b6160208501610aef565b9150604084013590509250925092565b600060208284031215610b8357600080fd5b610b8c82610aef565b9392505050565b60008060408385031215610ba657600080fd5b610baf83610aef565b9150610bbd60208401610aef565b90509250929050565b600181811c90821680610bda57607f821691505b60208210811415610bfb57634e487b7160e01b600052602260045260246000fd5b50919050565b60008219821115610c2257634e487b7160e01b600052601160045260246000fd5b50019056fea26469706673582212201fa2d56791abffe6f26b62e142ff5bbc4c7352ed986c59551e19270b2d22d87b64736f6c63430008090033",
  "linkReferences": {},
  "deployedLinkReferences": {}
}