{
  "_format": "hh-sol-artifact-1",
  "contractName": "BackingManagerP1",
  "sourceName": "contracts/reserve/p1/BackingManager.sol",
  "abi": [
    {
      "inputs": [],
      "name": "UIntOutOfBounds",
      "type": "error"
    },
    {
      "anonymous": false,
      "inputs": [
        {
          "indexed": false,
          "internalType": "address",
          "name": "previousAdmin",
          "type": "address"
        },
        {
          "indexed": false,
          "internalType": "address",
          "name": "newAdmin",
          "type": "address"
        }
      ],
      "name": "AdminChanged",
      "type": "event"
    },
    {
      "anonymous": false,
      "inputs": [
        {
          "indexed": true,
          "internalType": "uint192",
          "name": "oldVal",
          "type": "uint192"
        },
        {
          "indexed": true,
          "internalType": "uint192",
          "name": "newVal",
          "type": "uint192"
        }
      ],
      "name": "BackingBufferSet",
      "type": "event"
    },
    {
      "anonymous": false,
      "inputs": [
        {
          "indexed": true,
          "internalType": "address",
          "name": "beacon",
          "type": "address"
        }
      ],
      "name": "BeaconUpgraded",
      "type": "event"
    },
    {
      "anonymous": false,
      "inputs": [
        {
          "indexed": false,
          "internalType": "uint8",
          "name": "version",
          "type": "uint8"
        }
      ],
      "name": "Initialized",
      "type": "event"
    },
    {
      "anonymous": false,
      "inputs": [
        {
          "indexed": true,
          "internalType": "uint192",
          "name": "oldVal",
          "type": "uint192"
        },
        {
          "indexed": true,
          "internalType": "uint192",
          "name": "newVal",
          "type": "uint192"
        }
      ],
      "name": "MaxTradeSlippageSet",
      "type": "event"
    },
    {
      "anonymous": false,
      "inputs": [
        {
          "indexed": true,
          "internalType": "uint192",
          "name": "oldVal",
          "type": "uint192"
        },
        {
          "indexed": true,
          "internalType": "uint192",
          "name": "newVal",
          "type": "uint192"
        }
      ],
      "name": "MinTradeVolumeSet",
      "type": "event"
    },
    {
      "anonymous": false,
      "inputs": [
        {
          "indexed": true,
          "internalType": "contract IERC20",
          "name": "erc20",
          "type": "address"
        },
        {
          "indexed": true,
          "internalType": "uint256",
          "name": "amount",
          "type": "uint256"
        }
      ],
      "name": "RewardsClaimed",
      "type": "event"
    },
    {
      "anonymous": false,
      "inputs": [
        {
          "indexed": true,
          "internalType": "contract ITrade",
          "name": "trade",
          "type": "address"
        },
        {
          "indexed": true,
          "internalType": "contract IERC20",
          "name": "sell",
          "type": "address"
        },
        {
          "indexed": true,
          "internalType": "contract IERC20",
          "name": "buy",
          "type": "address"
        },
        {
          "indexed": false,
          "internalType": "uint256",
          "name": "sellAmount",
          "type": "uint256"
        },
        {
          "indexed": false,
          "internalType": "uint256",
          "name": "buyAmount",
          "type": "uint256"
        }
      ],
      "name": "TradeSettled",
      "type": "event"
    },
    {
      "anonymous": false,
      "inputs": [
        {
          "indexed": true,
          "internalType": "contract ITrade",
          "name": "trade",
          "type": "address"
        },
        {
          "indexed": true,
          "internalType": "contract IERC20",
          "name": "sell",
          "type": "address"
        },
        {
          "indexed": true,
          "internalType": "contract IERC20",
          "name": "buy",
          "type": "address"
        },
        {
          "indexed": false,
          "internalType": "uint256",
          "name": "sellAmount",
          "type": "uint256"
        },
        {
          "indexed": false,
          "internalType": "uint256",
          "name": "minBuyAmount",
          "type": "uint256"
        }
      ],
      "name": "TradeStarted",
      "type": "event"
    },
    {
      "anonymous": false,
      "inputs": [
        {
          "indexed": true,
          "internalType": "uint48",
          "name": "oldVal",
          "type": "uint48"
        },
        {
          "indexed": true,
          "internalType": "uint48",
          "name": "newVal",
          "type": "uint48"
        }
      ],
      "name": "TradingDelaySet",
      "type": "event"
    },
    {
      "anonymous": false,
      "inputs": [
        {
          "indexed": true,
          "internalType": "address",
          "name": "implementation",
          "type": "address"
        }
      ],
      "name": "Upgraded",
      "type": "event"
    },
    {
      "inputs": [],
      "name": "MAX_BACKING_BUFFER",
      "outputs": [
        {
          "internalType": "uint192",
          "name": "",
          "type": "uint192"
        }
      ],
      "stateMutability": "view",
      "type": "function"
    },
    {
      "inputs": [],
      "name": "MAX_TRADE_SLIPPAGE",
      "outputs": [
        {
          "internalType": "uint192",
          "name": "",
          "type": "uint192"
        }
      ],
      "stateMutability": "view",
      "type": "function"
    },
    {
      "inputs": [],
      "name": "MAX_TRADING_DELAY",
      "outputs": [
        {
          "internalType": "uint48",
          "name": "",
          "type": "uint48"
        }
      ],
      "stateMutability": "view",
      "type": "function"
    },
    {
      "inputs": [],
      "name": "MIN_TRADE_VOLUME",
      "outputs": [
        {
          "internalType": "uint192",
          "name": "",
          "type": "uint192"
        }
      ],
      "stateMutability": "view",
      "type": "function"
    },
    {
      "inputs": [],
      "name": "backingBuffer",
      "outputs": [
        {
          "internalType": "uint192",
          "name": "",
          "type": "uint192"
        }
      ],
      "stateMutability": "view",
      "type": "function"
    },
    {
      "inputs": [],
      "name": "claimRewards",
      "outputs": [],
      "stateMutability": "nonpayable",
      "type": "function"
    },
    {
      "inputs": [
        {
          "internalType": "contract IERC20",
          "name": "erc20",
          "type": "address"
        }
      ],
      "name": "claimRewardsSingle",
      "outputs": [],
      "stateMutability": "nonpayable",
      "type": "function"
    },
    {
      "inputs": [
        {
          "internalType": "contract IERC20",
          "name": "erc20",
          "type": "address"
        }
      ],
      "name": "grantRTokenAllowance",
      "outputs": [],
      "stateMutability": "nonpayable",
      "type": "function"
    },
    {
      "inputs": [
        {
          "internalType": "contract IMain",
          "name": "main_",
          "type": "address"
        },
        {
          "internalType": "uint48",
          "name": "tradingDelay_",
          "type": "uint48"
        },
        {
          "internalType": "uint192",
          "name": "backingBuffer_",
          "type": "uint192"
        },
        {
          "internalType": "uint192",
          "name": "maxTradeSlippage_",
          "type": "uint192"
        },
        {
          "internalType": "uint192",
          "name": "minTradeVolume_",
          "type": "uint192"
        }
      ],
      "name": "init",
      "outputs": [],
      "stateMutability": "nonpayable",
      "type": "function"
    },
    {
      "inputs": [],
      "name": "main",
      "outputs": [
        {
          "internalType": "contract IMain",
          "name": "",
          "type": "address"
        }
      ],
      "stateMutability": "view",
      "type": "function"
    },
    {
      "inputs": [
        {
          "internalType": "contract IERC20[]",
          "name": "erc20s",
          "type": "address[]"
        }
      ],
      "name": "manageTokens",
      "outputs": [],
      "stateMutability": "nonpayable",
      "type": "function"
    },
    {
      "inputs": [
        {
          "internalType": "contract IERC20[]",
          "name": "erc20s",
          "type": "address[]"
        }
      ],
      "name": "manageTokensSortedOrder",
      "outputs": [],
      "stateMutability": "nonpayable",
      "type": "function"
    },
    {
      "inputs": [],
      "name": "maxTradeSlippage",
      "outputs": [
        {
          "internalType": "uint192",
          "name": "",
          "type": "uint192"
        }
      ],
      "stateMutability": "view",
      "type": "function"
    },
    {
      "inputs": [],
      "name": "minTradeVolume",
      "outputs": [
        {
          "internalType": "uint192",
          "name": "",
          "type": "uint192"
        }
      ],
      "stateMutability": "view",
      "type": "function"
    },
    {
      "inputs": [
        {
          "internalType": "bytes[]",
          "name": "data",
          "type": "bytes[]"
        }
      ],
      "name": "multicall",
      "outputs": [
        {
          "internalType": "bytes[]",
          "name": "results",
          "type": "bytes[]"
        }
      ],
      "stateMutability": "nonpayable",
      "type": "function"
    },
    {
      "inputs": [],
      "name": "proxiableUUID",
      "outputs": [
        {
          "internalType": "bytes32",
          "name": "",
          "type": "bytes32"
        }
      ],
      "stateMutability": "view",
      "type": "function"
    },
    {
      "inputs": [
        {
          "internalType": "uint192",
          "name": "val",
          "type": "uint192"
        }
      ],
      "name": "setBackingBuffer",
      "outputs": [],
      "stateMutability": "nonpayable",
      "type": "function"
    },
    {
      "inputs": [
        {
          "internalType": "uint192",
          "name": "val",
          "type": "uint192"
        }
      ],
      "name": "setMaxTradeSlippage",
      "outputs": [],
      "stateMutability": "nonpayable",
      "type": "function"
    },
    {
      "inputs": [
        {
          "internalType": "uint192",
          "name": "val",
          "type": "uint192"
        }
      ],
      "name": "setMinTradeVolume",
      "outputs": [],
      "stateMutability": "nonpayable",
      "type": "function"
    },
    {
      "inputs": [
        {
          "internalType": "uint48",
          "name": "val",
          "type": "uint48"
        }
      ],
      "name": "setTradingDelay",
      "outputs": [],
      "stateMutability": "nonpayable",
      "type": "function"
    },
    {
      "inputs": [
        {
          "internalType": "contract IERC20",
          "name": "sell",
          "type": "address"
        }
      ],
      "name": "settleTrade",
      "outputs": [],
      "stateMutability": "nonpayable",
      "type": "function"
    },
    {
      "inputs": [
        {
          "internalType": "contract IERC20",
          "name": "",
          "type": "address"
        }
      ],
      "name": "trades",
      "outputs": [
        {
          "internalType": "contract ITrade",
          "name": "",
          "type": "address"
        }
      ],
      "stateMutability": "view",
      "type": "function"
    },
    {
      "inputs": [],
      "name": "tradesOpen",
      "outputs": [
        {
          "internalType": "uint48",
          "name": "",
          "type": "uint48"
        }
      ],
      "stateMutability": "view",
      "type": "function"
    },
    {
      "inputs": [],
      "name": "tradingDelay",
      "outputs": [
        {
          "internalType": "uint48",
          "name": "",
          "type": "uint48"
        }
      ],
      "stateMutability": "view",
      "type": "function"
    },
    {
      "inputs": [
        {
          "internalType": "uint256",
          "name": "x",
          "type": "uint256"
        },
        {
          "internalType": "uint256",
          "name": "y",
          "type": "uint256"
        },
        {
          "internalType": "uint256",
          "name": "z",
          "type": "uint256"
        }
      ],
      "name": "tryMulDiv256Ceil",
      "outputs": [
        {
          "internalType": "uint256",
          "name": "",
          "type": "uint256"
        }
      ],
      "stateMutability": "pure",
      "type": "function"
    },
    {
      "inputs": [
        {
          "internalType": "address",
          "name": "newImplementation",
          "type": "address"
        }
      ],
      "name": "upgradeTo",
      "outputs": [],
      "stateMutability": "nonpayable",
      "type": "function"
    },
    {
      "inputs": [
        {
          "internalType": "address",
          "name": "newImplementation",
          "type": "address"
        },
        {
          "internalType": "bytes",
          "name": "data",
          "type": "bytes"
        }
      ],
      "name": "upgradeToAndCall",
      "outputs": [],
      "stateMutability": "payable",
      "type": "function"
    },
    {
      "inputs": [],
      "name": "version",
      "outputs": [
        {
          "internalType": "string",
          "name": "",
          "type": "string"
        }
      ],
      "stateMutability": "pure",
      "type": "function"
    }
  ],
  "bytecode": "0x60a0604052306080523480156200001557600080fd5b50600054610100900460ff1615808015620000375750600054600160ff909116105b8062000067575062000054306200014160201b6200217c1760201c565b15801562000067575060005460ff166001145b620000cf5760405162461bcd60e51b815260206004820152602e60248201527f496e697469616c697a61626c653a20636f6e747261637420697320616c72656160448201526d191e481a5b9a5d1a585b1a5e995960921b606482015260840160405180910390fd5b6000805460ff191660011790558015620000f3576000805461ff0019166101001790555b80156200013a576000805461ff0019169055604051600181527f7f26b83ff96e1f2b6a682f133852f6798a09c465da95921460cefb38474024989060200160405180910390a15b5062000150565b6001600160a01b03163b151590565b6080516152256200018860003960008181610af201528181610b32015281816111c601528181611206015261129501526152256000f3fe6080604052600436106101b75760003560e01c80637cbf6db2116100ec578063bcaeb7b91161008a578063d50e7a7011610064578063d50e7a70146104ac578063dd47cebf14610527578063dffeadd014610548578063e7227de61461056857600080fd5b8063bcaeb7b9146104c8578063c76aeb12146104e8578063cb9414f81461050757600080fd5b8063a9f752e5116100c6578063a9f752e514610411578063ac9650d81461045f578063adaef42c1461048c578063b9bebb04146104ac57600080fd5b80637cbf6db2146103b157806398026d94146103d1578063a8372fd8146103f157600080fd5b806336a02f57116101595780633f056853116101335780633f056853146103355780634f1ef2861461035557806352d1902d1461036857806354fd4d501461037d57600080fd5b806336a02f57146102e0578063372500ab14610300578063386eafd91461031557600080fd5b8063127013971161019557806312701397146102425780631e911a5c146102635780632bca33e9146102915780633659cfe6146102c057600080fd5b80630db3d42c146101bc5780630e0264d11461020057806310e4d36b14610222575b600080fd5b3480156101c857600080fd5b5060fd546101e390600160301b90046001600160c01b031681565b6040516001600160c01b0390911681526020015b60405180910390f35b34801561020c57600080fd5b5061022061021b3660046146ef565b61058f565b005b34801561022e57600080fd5b5061022061023d366004614721565b610943565b34801561024e57600080fd5b50610135546101e3906001600160c01b031681565b34801561026f57600080fd5b5061028361027e36600461473e565b610ace565b6040519081526020016101f7565b34801561029d57600080fd5b506102a96301e1338081565b60405165ffffffffffff90911681526020016101f7565b3480156102cc57600080fd5b506102206102db3660046146ef565b610ae7565b3480156102ec57600080fd5b506102206102fb366004614721565b610bc4565b34801561030c57600080fd5b50610220610d53565b34801561032157600080fd5b5061022061033036600461477e565b610eef565b34801561034157600080fd5b506102206103503660046147e7565b611082565b610220610363366004614870565b6111bb565b34801561037457600080fd5b50610283611288565b34801561038957600080fd5b5060408051808201825260058152640312e322e360dc1b602082015290516101f79190614970565b3480156103bd57600080fd5b5060fe546101e3906001600160c01b031681565b3480156103dd57600080fd5b506102206103ec3660046146ef565b61133b565b3480156103fd57600080fd5b5061022061040c3660046147e7565b6115be565b34801561041d57600080fd5b5061044761042c3660046146ef565b60fc602052600090815260409020546001600160a01b031681565b6040516001600160a01b0390911681526020016101f7565b34801561046b57600080fd5b5061047f61047a3660046147e7565b6116dc565b6040516101f79190614983565b34801561049857600080fd5b506102206104a73660046146ef565b6117d2565b3480156104b857600080fd5b506101e3670de0b6b3a764000081565b3480156104d457600080fd5b506102206104e33660046149e5565b6119ea565b3480156104f457600080fd5b5060fd546102a99065ffffffffffff1681565b34801561051357600080fd5b50610220610522366004614721565b611fd8565b34801561053357600080fd5b506101e36c01431e0fae6d7217caa000000081565b34801561055457600080fd5b50609754610447906001600160a01b031681565b34801561057457600080fd5b50610134546102a990600160a01b900465ffffffffffff1681565b609760009054906101000a90046001600160a01b03166001600160a01b031663f17063756040518163ffffffff1660e01b815260040160206040518083038186803b1580156105dd57600080fd5b505afa1580156105f1573d6000803e3d6000fd5b505050506040513d601f19601f820116820180604052508101906106159190614a6b565b1561063b5760405162461bcd60e51b815260040161063290614a86565b60405180910390fd5b61064361218b565b6001600160a01b03808216600090815260fc602052604090205416806106695750610936565b806001600160a01b031663faf7ba6a6040518163ffffffff1660e01b815260040160206040518083038186803b1580156106a257600080fd5b505afa1580156106b6573d6000803e3d6000fd5b505050506040513d601f19601f820116820180604052508101906106da9190614a6b565b61071a5760405162461bcd60e51b815260206004820152601160248201527018d85b9b9bdd081cd95d1d1b19481e595d607a1b6044820152606401610632565b6001600160a01b038216600090815260fc6020526040812080546001600160a01b031916905560fd805465ffffffffffff169161075683614ac6565b91906101000a81548165ffffffffffff021916908365ffffffffffff16021790555050600080826001600160a01b03166311da60b46040518163ffffffff1660e01b81526004016040805180830381600087803b1580156107b657600080fd5b505af11580156107ca573d6000803e3d6000fd5b505050506040513d601f19601f820116820180604052508101906107ee9190614ae8565b91509150826001600160a01b031663a6f2ae3a6040518163ffffffff1660e01b815260040160206040518083038186803b15801561082b57600080fd5b505afa15801561083f573d6000803e3d6000fd5b505050506040513d601f19601f820116820180604052508101906108639190614b0c565b6001600160a01b0316836001600160a01b031663457100746040518163ffffffff1660e01b815260040160206040518083038186803b1580156108a557600080fd5b505afa1580156108b9573d6000803e3d6000fd5b505050506040513d601f19601f820116820180604052508101906108dd9190614b0c565b6001600160a01b0316846001600160a01b03167f058fb1fa484531f400806f666315faf1a45941db93ba069405882b78ba40dc87858560405161092a929190918252602082015260400190565b60405180910390a45050505b610940600160c955565b50565b60975460408051808201909152600581526427aba722a960d91b60208201526001600160a01b03909116906391d148549061097d90614b29565b336040516001600160e01b031960e085901b16815260048101929092526001600160a01b0316602482015260440160206040518083038186803b1580156109c357600080fd5b505afa1580156109d7573d6000803e3d6000fd5b505050506040513d601f19601f820116820180604052508101906109fb9190614a6b565b610a175760405162461bcd60e51b815260040161063290614b50565b670de0b6b3a76400006001600160c01b0382161115610a705760405162461bcd60e51b815260206004820152601560248201527434b73b30b634b2103130b1b5b4b733a13ab33332b960591b6044820152606401610632565b610135546040516001600160c01b038084169216907f4ec8ac3ba3ecc0b9d7690e98f4bf8f5c70b8f2a9b4326c757b44ba3d19c1879690600090a361013580546001600160c01b0319166001600160c01b0392909216919091179055565b6000610add84848460026121e5565b90505b9392505050565b306001600160a01b037f0000000000000000000000000000000000000000000000000000000000000000161415610b305760405162461bcd60e51b815260040161063290614b79565b7f00000000000000000000000000000000000000000000000000000000000000006001600160a01b0316610b796000805160206151a9833981519152546001600160a01b031690565b6001600160a01b031614610b9f5760405162461bcd60e51b815260040161063290614bc5565b610ba881612296565b604080516000808252602082019092526109409183919061236a565b60975460408051808201909152600581526427aba722a960d91b60208201526001600160a01b03909116906391d1485490610bfe90614b29565b336040516001600160e01b031960e085901b16815260048101929092526001600160a01b0316602482015260440160206040518083038186803b158015610c4457600080fd5b505afa158015610c58573d6000803e3d6000fd5b505050506040513d601f19601f82011682018060405250810190610c7c9190614a6b565b610c985760405162461bcd60e51b815260040161063290614b50565b6c01431e0fae6d7217caa00000006001600160c01b0382161115610cf75760405162461bcd60e51b8152602060048201526016602482015275696e76616c6964206d696e5472616465566f6c756d6560501b6044820152606401610632565b60fe546040516001600160c01b038084169216907f1dec1ae9fd64ef0d8a6b130d853a8ab21d337625027cc60c63028f3d383495dc90600090a360fe80546001600160c01b0319166001600160c01b0392909216919091179055565b609760009054906101000a90046001600160a01b03166001600160a01b031663f17063756040518163ffffffff1660e01b815260040160206040518083038186803b158015610da157600080fd5b505afa158015610db5573d6000803e3d6000fd5b505050506040513d601f19601f82011682018060405250810190610dd99190614a6b565b15610df65760405162461bcd60e51b815260040161063290614a86565b73__$08d36e59b955a5499e173aaa3c4eaafd65$__63d93888ad609760009054906101000a90046001600160a01b03166001600160a01b031663979d7e866040518163ffffffff1660e01b815260040160206040518083038186803b158015610e5e57600080fd5b505afa158015610e72573d6000803e3d6000fd5b505050506040513d601f19601f82011682018060405250810190610e969190614b0c565b6040516001600160e01b031960e084901b1681526001600160a01b03909116600482015260240160006040518083038186803b158015610ed557600080fd5b505af4158015610ee9573d6000803e3d6000fd5b50505050565b60975460408051808201909152600581526427aba722a960d91b60208201526001600160a01b03909116906391d1485490610f2990614b29565b336040516001600160e01b031960e085901b16815260048101929092526001600160a01b0316602482015260440160206040518083038186803b158015610f6f57600080fd5b505afa158015610f83573d6000803e3d6000fd5b505050506040513d601f19601f82011682018060405250810190610fa79190614a6b565b610fc35760405162461bcd60e51b815260040161063290614b50565b6301e1338065ffffffffffff821611156110165760405162461bcd60e51b8152602060048201526014602482015273696e76616c69642074726164696e6744656c617960601b6044820152606401610632565b6101345460405165ffffffffffff80841692600160a01b900416907f4af929ab8885bbdcb8b01903439a99e3fb33354657d151119f731b01db793bdb90600090a3610134805465ffffffffffff909216600160a01b0265ffffffffffff60a01b19909216919091179055565b609760009054906101000a90046001600160a01b03166001600160a01b031663f17063756040518163ffffffff1660e01b815260040160206040518083038186803b1580156110d057600080fd5b505afa1580156110e4573d6000803e3d6000fd5b505050506040513d601f19601f820116820180604052508101906111089190614a6b565b156111255760405162461bcd60e51b815260040161063290614a86565b6111618282808060200260200160405190810160405280939291908181526020018383602002808284376000920191909152506124e992505050565b6111ad5760405162461bcd60e51b815260206004820152601960248201527f6475706c69636174652f756e736f7274656420746f6b656e73000000000000006044820152606401610632565b6111b78282612572565b5050565b306001600160a01b037f00000000000000000000000000000000000000000000000000000000000000001614156112045760405162461bcd60e51b815260040161063290614b79565b7f00000000000000000000000000000000000000000000000000000000000000006001600160a01b031661124d6000805160206151a9833981519152546001600160a01b031690565b6001600160a01b0316146112735760405162461bcd60e51b815260040161063290614bc5565b61127c82612296565b6111b78282600161236a565b6000306001600160a01b037f000000000000000000000000000000000000000000000000000000000000000016146113285760405162461bcd60e51b815260206004820152603860248201527f555550535570677261646561626c653a206d757374206e6f742062652063616c60448201527f6c6564207468726f7567682064656c656761746563616c6c00000000000000006064820152608401610632565b506000805160206151a983398151915290565b609760009054906101000a90046001600160a01b03166001600160a01b031663f17063756040518163ffffffff1660e01b815260040160206040518083038186803b15801561138957600080fd5b505afa15801561139d573d6000803e3d6000fd5b505050506040513d601f19601f820116820180604052508101906113c19190614a6b565b156113de5760405162461bcd60e51b815260040161063290614a86565b61012d5460405163c3c5a54760e01b81526001600160a01b0383811660048301529091169063c3c5a5479060240160206040518083038186803b15801561142457600080fd5b505afa158015611438573d6000803e3d6000fd5b505050506040513d601f19601f8201168201806040525081019061145c9190614a6b565b61149d5760405162461bcd60e51b8152602060048201526012602482015271195c98cc8c081d5b9c9959da5cdd195c995960721b6044820152606401610632565b609754604080516320632fb960e11b8152905161152d926001600160a01b0316916340c65f72916004808301926020929190829003018186803b1580156114e357600080fd5b505afa1580156114f7573d6000803e3d6000fd5b505050506040513d601f19601f8201168201806040525081019061151b9190614b0c565b6001600160a01b038316906000612aca565b609754604080516320632fb960e11b81529051610940926001600160a01b0316916340c65f72916004808301926020929190829003018186803b15801561157357600080fd5b505afa158015611587573d6000803e3d6000fd5b505050506040513d601f19601f820116820180604052508101906115ab9190614b0c565b6001600160a01b03831690600019612aca565b609760009054906101000a90046001600160a01b03166001600160a01b031663f17063756040518163ffffffff1660e01b815260040160206040518083038186803b15801561160c57600080fd5b505afa158015611620573d6000803e3d6000fd5b505050506040513d601f19601f820116820180604052508101906116449190614a6b565b156116615760405162461bcd60e51b815260040161063290614a86565b61169d828280806020026020016040519081016040528093929190818152602001838360200280828437600092019190915250612c2192505050565b6111ad5760405162461bcd60e51b815260206004820152601060248201526f6475706c696361746520746f6b656e7360801b6044820152606401610632565b60608167ffffffffffffffff8111156116f7576116f7614829565b60405190808252806020026020018201604052801561172a57816020015b60608152602001906001900390816117155790505b50905060005b828110156117ca5761179a3085858481811061174e5761174e614c11565b90506020028101906117609190614c27565b8080601f016020809104026020016040519081016040528093929190818152602001838380828437600092019190915250612cb492505050565b8282815181106117ac576117ac614c11565b602002602001018190525080806117c290614c6e565b915050611730565b505b92915050565b609760009054906101000a90046001600160a01b03166001600160a01b031663f17063756040518163ffffffff1660e01b815260040160206040518083038186803b15801561182057600080fd5b505afa158015611834573d6000803e3d6000fd5b505050506040513d601f19601f820116820180604052508101906118589190614a6b565b156118755760405162461bcd60e51b815260040161063290614a86565b73__$08d36e59b955a5499e173aaa3c4eaafd65$__63c944276c609760009054906101000a90046001600160a01b03166001600160a01b031663979d7e866040518163ffffffff1660e01b815260040160206040518083038186803b1580156118dd57600080fd5b505afa1580156118f1573d6000803e3d6000fd5b505050506040513d601f19601f820116820180604052508101906119159190614b0c565b6040516366f15f4560e11b81526001600160a01b038581166004830152919091169063cde2be8a9060240160206040518083038186803b15801561195857600080fd5b505afa15801561196c573d6000803e3d6000fd5b505050506040513d601f19601f820116820180604052508101906119909190614b0c565b6040516001600160e01b031960e084901b1681526001600160a01b03909116600482015260240160006040518083038186803b1580156119cf57600080fd5b505af41580156119e3573d6000803e3d6000fd5b5050505050565b600054610100900460ff1615808015611a0a5750600054600160ff909116105b80611a245750303b158015611a24575060005460ff166001145b611a875760405162461bcd60e51b815260206004820152602e60248201527f496e697469616c697a61626c653a20636f6e747261637420697320616c72656160448201526d191e481a5b9a5d1a585b1a5e995960921b6064820152608401610632565b6000805460ff191660011790558015611aaa576000805461ff0019166101001790555b611ab386612cd9565b611abe868484612d77565b856001600160a01b031663979d7e866040518163ffffffff1660e01b815260040160206040518083038186803b158015611af757600080fd5b505afa158015611b0b573d6000803e3d6000fd5b505050506040513d601f19601f82011682018060405250810190611b2f9190614b0c565b61012d60006101000a8154816001600160a01b0302191690836001600160a01b03160217905550856001600160a01b0316632f2439b16040518163ffffffff1660e01b815260040160206040518083038186803b158015611b8f57600080fd5b505afa158015611ba3573d6000803e3d6000fd5b505050506040513d601f19601f82011682018060405250810190611bc79190614b0c565b61012e60006101000a8154816001600160a01b0302191690836001600160a01b03160217905550856001600160a01b031663bfe109286040518163ffffffff1660e01b815260040160206040518083038186803b158015611c2757600080fd5b505afa158015611c3b573d6000803e3d6000fd5b505050506040513d601f19601f82011682018060405250810190611c5f9190614b0c565b61012f60006101000a8154816001600160a01b0302191690836001600160a01b03160217905550856001600160a01b031663c99dc3dd6040518163ffffffff1660e01b815260040160206040518083038186803b158015611cbf57600080fd5b505afa158015611cd3573d6000803e3d6000fd5b505050506040513d601f19601f82011682018060405250810190611cf79190614b0c565b61013160006101000a8154816001600160a01b0302191690836001600160a01b03160217905550856001600160a01b031663531367636040518163ffffffff1660e01b815260040160206040518083038186803b158015611d5757600080fd5b505afa158015611d6b573d6000803e3d6000fd5b505050506040513d601f19601f82011682018060405250810190611d8f9190614b0c565b61013360006101000a8154816001600160a01b0302191690836001600160a01b03160217905550856001600160a01b03166341bf0c4e6040518163ffffffff1660e01b815260040160206040518083038186803b158015611def57600080fd5b505afa158015611e03573d6000803e3d6000fd5b505050506040513d601f19601f82011682018060405250810190611e279190614b0c565b61013460006101000a8154816001600160a01b0302191690836001600160a01b03160217905550856001600160a01b03166340c65f726040518163ffffffff1660e01b815260040160206040518083038186803b158015611e8757600080fd5b505afa158015611e9b573d6000803e3d6000fd5b505050506040513d601f19601f82011682018060405250810190611ebf9190614b0c565b61013060006101000a8154816001600160a01b0302191690836001600160a01b03160217905550856001600160a01b0316634780a5e56040518163ffffffff1660e01b815260040160206040518083038186803b158015611f1f57600080fd5b505afa158015611f33573d6000803e3d6000fd5b505050506040513d601f19601f82011682018060405250810190611f579190614b0c565b61013280546001600160a01b0319166001600160a01b0392909216919091179055611f8185610eef565b611f8a84610943565b8015611fd0576000805461ff0019169055604051600181527f7f26b83ff96e1f2b6a682f133852f6798a09c465da95921460cefb38474024989060200160405180910390a15b505050505050565b60975460408051808201909152600581526427aba722a960d91b60208201526001600160a01b03909116906391d148549061201290614b29565b336040516001600160e01b031960e085901b16815260048101929092526001600160a01b0316602482015260440160206040518083038186803b15801561205857600080fd5b505afa15801561206c573d6000803e3d6000fd5b505050506040513d601f19601f820116820180604052508101906120909190614a6b565b6120ac5760405162461bcd60e51b815260040161063290614b50565b670de0b6b3a76400006001600160c01b0382161061210c5760405162461bcd60e51b815260206004820152601860248201527f696e76616c6964206d61785472616465536c69707061676500000000000000006044820152606401610632565b60fd546040516001600160c01b0380841692600160301b900416907f58d1f6b92b372d2913abb309ec9503acc2a53ed508ec34f478d7aeab07760f9990600090a360fd80546001600160c01b03909216600160301b026601000000000000600160f01b0319909216919091179055565b6001600160a01b03163b151590565b600260c95414156121de5760405162461bcd60e51b815260206004820152601f60248201527f5265656e7472616e637947756172643a207265656e7472616e742063616c6c006044820152606401610632565b600260c955565b6000806121f3868686612e41565b9050600083600281111561220957612209614c89565b141561221657905061228e565b6000848061222657612226614c9f565b8688099050600284600281111561223f5761223f614c89565b141561225e57801561225957612256600183614cb5565b91505b61228a565b600261226b600187614ccd565b6122759190614ce4565b81111561228a57612287600183614cb5565b91505b5090505b949350505050565b60975460408051808201909152600581526427aba722a960d91b60208201526001600160a01b03909116906391d14854906122d090614b29565b336040516001600160e01b031960e085901b16815260048101929092526001600160a01b0316602482015260440160206040518083038186803b15801561231657600080fd5b505afa15801561232a573d6000803e3d6000fd5b505050506040513d601f19601f8201168201806040525081019061234e9190614a6b565b6109405760405162461bcd60e51b815260040161063290614b50565b7f4910fdfa16fed3260ed0e7147f7cc6da11a60208b5b9406d12a635614ffd91435460ff16156123a25761239d83612f24565b505050565b826001600160a01b03166352d1902d6040518163ffffffff1660e01b815260040160206040518083038186803b1580156123db57600080fd5b505afa92505050801561240b575060408051601f3d908101601f1916820190925261240891810190614cf8565b60015b61246e5760405162461bcd60e51b815260206004820152602e60248201527f45524331393637557067726164653a206e657720696d706c656d656e7461746960448201526d6f6e206973206e6f74205555505360901b6064820152608401610632565b6000805160206151a983398151915281146124dd5760405162461bcd60e51b815260206004820152602960248201527f45524331393637557067726164653a20756e737570706f727465642070726f786044820152681a58589b195555525160ba1b6064820152608401610632565b5061239d838383612fc0565b805160009060015b818110156125685783612505600183614ccd565b8151811061251557612515614c11565b60200260200101516001600160a01b031684828151811061253857612538614c11565b60200260200101516001600160a01b031611612558575060009392505050565b61256181614c6e565b90506124f1565b5060019392505050565b61012d60009054906101000a90046001600160a01b03166001600160a01b031663f8ac93e86040518163ffffffff1660e01b8152600401600060405180830381600087803b1580156125c357600080fd5b505af11580156125d7573d6000803e3d6000fd5b505060fd5465ffffffffffff161591506125f19050575050565b61012e5460408051631006976960e11b815290516000926001600160a01b03169163200d2ed2916004808301926020929190829003018186803b15801561263757600080fd5b505afa15801561264b573d6000803e3d6000fd5b505050506040513d601f19601f8201168201806040525081019061266f9190614d11565b600281111561268057612680614c89565b146126c05760405162461bcd60e51b815260206004820152601060248201526f18985cdad95d081b9bdd081cdbdd5b9960821b6044820152606401610632565b61012e5460408051635c03bbf560e11b815290516000926001600160a01b03169163b80777ea916004808301926020929190829003018186803b15801561270657600080fd5b505afa15801561271a573d6000803e3d6000fd5b505050506040513d601f19601f8201168201806040525081019061273e9190614d32565b6101345490915061275e90600160a01b900465ffffffffffff1682614d4f565b65ffffffffffff1642101561277257505050565b61012e60009054906101000a90046001600160a01b03166001600160a01b031663e45a5b2d6040518163ffffffff1660e01b815260040160206040518083038186803b1580156127c157600080fd5b505afa1580156127d5573d6000803e3d6000fd5b505050506040513d601f19601f820116820180604052508101906127f99190614a6b565b156128085761239d8383612fe5565b6040516330bc418760e11b8152306004820152600090819073__$4ebac6caf5da0c5bb537df39309a96f92b$__90636178830e9060240160a06040518083038186803b15801561285757600080fd5b505af415801561286b573d6000803e3d6000fd5b505050506040513d601f19601f8201168201806040525081019061288f9190614d79565b915091508115612ac25761013160009054906101000a90046001600160a01b03166001600160a01b031681600001516001600160a01b031663785e9e866040518163ffffffff1660e01b815260040160206040518083038186803b1580156128f657600080fd5b505afa15801561290a573d6000803e3d6000fd5b505050506040513d601f19601f8201168201806040525081019061292e9190614b0c565b6001600160a01b03161415612ab457600081600001516001600160a01b031663785e9e866040518163ffffffff1660e01b815260040160206040518083038186803b15801561297c57600080fd5b505afa158015612990573d6000803e3d6000fd5b505050506040513d601f19601f820116820180604052508101906129b49190614b0c565b6040516370a0823160e01b81523060048201526001600160a01b0391909116906370a082319060240160206040518083038186803b1580156129f557600080fd5b505afa158015612a09573d6000803e3d6000fd5b505050506040513d601f19601f82011682018060405250810190612a2d9190614cf8565b90508082604001511115612ab2576101325460408301516001600160a01b039091169063a439622f90612a61908490614ccd565b6040518263ffffffff1660e01b8152600401612a7f91815260200190565b600060405180830381600087803b158015612a9957600080fd5b505af1158015612aad573d6000803e3d6000fd5b505050505b505b612abd81613ac7565b6119e3565b6119e3613da7565b801580612b535750604051636eb1769f60e11b81523060048201526001600160a01b03838116602483015284169063dd62ed3e9060440160206040518083038186803b158015612b1957600080fd5b505afa158015612b2d573d6000803e3d6000fd5b505050506040513d601f19601f82011682018060405250810190612b519190614cf8565b155b612bbe5760405162461bcd60e51b815260206004820152603660248201527f5361666545524332303a20617070726f76652066726f6d206e6f6e2d7a65726f60448201527520746f206e6f6e2d7a65726f20616c6c6f77616e636560501b6064820152608401610632565b6040516001600160a01b03831660248201526044810182905261239d90849063095ea7b360e01b906064015b60408051601f198184030181529190526020810180516001600160e01b03166001600160e01b031990931692909217909152613f2c565b805160009060015b818110156125685760005b81811015612ca357848181518110612c4e57612c4e614c11565b60200260200101516001600160a01b0316858381518110612c7157612c71614c11565b60200260200101516001600160a01b03161415612c9357506000949350505050565b612c9c81614c6e565b9050612c34565b50612cad81614c6e565b9050612c29565b6060610ae083836040518060600160405280602781526020016151c960279139613ffe565b600054610100900460ff16612d005760405162461bcd60e51b815260040161063290614e13565b6001600160a01b038116612d4d5760405162461bcd60e51b81526020600482015260146024820152736d61696e206973207a65726f206164647265737360601b6044820152606401610632565b612d55614076565b609780546001600160a01b0319166001600160a01b0392909216919091179055565b600054610100900460ff16612d9e5760405162461bcd60e51b815260040161063290614e13565b826001600160a01b031663abff01106040518163ffffffff1660e01b815260040160206040518083038186803b158015612dd757600080fd5b505afa158015612deb573d6000803e3d6000fd5b505050506040513d601f19601f82011682018060405250810190612e0f9190614b0c565b60fb80546001600160a01b0319166001600160a01b0392909216919091179055612e3882611fd8565b61239d81610bc4565b6000806000612e50868661409f565b91509150838210612e745760405163f44398f560e01b815260040160405180910390fd5b60008480612e8457612e84614c9f565b868809905081811115612e98576001830392505b908190039060008590038516808681612eb357612eb3614c9f565b049550808381612ec557612ec5614c9f565b049250808160000381612eda57612eda614c9f565b046001019390930291909101600285810380870282030280870282030280870282030280870282030280870282030280870282030295860290039094029390930295945050505050565b6001600160a01b0381163b612f915760405162461bcd60e51b815260206004820152602d60248201527f455243313936373a206e657720696d706c656d656e746174696f6e206973206e60448201526c1bdd08184818dbdb9d1c9858dd609a1b6064820152608401610632565b6000805160206151a983398151915280546001600160a01b0319166001600160a01b0392909216919091179055565b612fc9836140cc565b600082511180612fd65750805b1561239d57610ee9838361410c565b610131546040516370a0823160e01b81523060048201526000916001600160a01b0316906370a082319060240160206040518083038186803b15801561302a57600080fd5b505afa15801561303e573d6000803e3d6000fd5b505050506040513d601f19601f820116820180604052508101906130629190614cf8565b11156131025761013354610131546040516370a0823160e01b8152306004820152613102926001600160a01b039081169216906370a082319060240160206040518083038186803b1580156130b657600080fd5b505afa1580156130ca573d6000803e3d6000fd5b505050506040513d601f19601f820116820180604052508101906130ee9190614cf8565b610131546001600160a01b03169190614200565b6101305460408051637121c27360e01b815290516000926001600160a01b031691637121c273916004808301926020929190829003018186803b15801561314857600080fd5b505afa15801561315c573d6000803e3d6000fd5b505050506040513d601f19601f820116820180604052508101906131809190614e5e565b61012e54604051635523caaf60e11b81523060048201529192506000916001600160a01b039091169063aa47955e9060240160206040518083038186803b1580156131ca57600080fd5b505afa1580156131de573d6000803e3d6000fd5b505050506040513d601f19601f820116820180604052508101906132029190614e5e565b90506001600160c01b03828116908216111561346d57610130546040805163313ce56760e01b815290516000926001600160a01b03169163313ce567916004808301926020929190829003018186803b15801561325e57600080fd5b505afa158015613272573d6000803e3d6000fd5b505050506040513d601f19601f820116820180604052508101906132969190614e7b565b9050600061333261013060009054906101000a90046001600160a01b03166001600160a01b03166318160ddd6040518163ffffffff1660e01b815260040160206040518083038186803b1580156132ec57600080fd5b505afa158015613300573d6000803e3d6000fd5b505050506040513d601f19601f820116820180604052508101906133249190614cf8565b61332d84614e9e565b614230565b905060006133496001600160c01b0385168661423e565b9050600080866001600160c01b0316116133635781613377565b6133776001600160c01b038316848861424a565b610130549091506001600160a01b03166340c10f19306133a06001600160c01b03851688614259565b6040516001600160e01b031960e085901b1681526001600160a01b0390921660048301526024820152604401600060405180830381600087803b1580156133e657600080fd5b505af11580156133fa573d6000803e3d6000fd5b505061013054604051636396544960e01b81526001600160c01b03891660048201526001600160a01b03909116925063639654499150602401600060405180830381600087803b15801561344d57600080fd5b505af1158015613461573d6000803e3d6000fd5b50505050849550505050505b50610135546134a29061349290670de0b6b3a7640000906001600160c01b0316614267565b6001600160c01b03831690614273565b61012f546040805163601c51c760e11b8152815193945085936000936001600160a01b03169263c038a38e9260048082019391829003018186803b1580156134e957600080fd5b505afa1580156134fd573d6000803e3d6000fd5b505050506040513d601f19601f820116820180604052508101906135219190614ed1565b905060008267ffffffffffffffff81111561353e5761353e614829565b604051908082528060200260200182016040528015613567578160200160208202803683370190505b50905060008367ffffffffffffffff81111561358557613585614829565b6040519080825280602002602001820160405280156135ae578160200160208202803683370190505b50905060005b848110156139c45761012d546000906001600160a01b031663cde2be8a8a8a858181106135e3576135e3614c11565b90506020020160208101906135f891906146ef565b6040516001600160e01b031960e084901b1681526001600160a01b03909116600482015260240160206040518083038186803b15801561363757600080fd5b505afa15801561364b573d6000803e3d6000fd5b505050506040513d601f19601f8201168201806040525081019061366f9190614b0c565b61012e5490915060009061373b906001600160a01b031663a5a5828c8c8c8781811061369d5761369d614c11565b90506020020160208101906136b291906146ef565b6040516001600160e01b031960e084901b1681526001600160a01b03909116600482015260240160206040518083038186803b1580156136f157600080fd5b505afa158015613705573d6000803e3d6000fd5b505050506040513d601f19601f820116820180604052508101906137299190614e5e565b6001600160c01b038a1690600261427d565b604051632ac07b9560e11b81523060048201529091506137cc9082906001600160a01b03851690635580f72a9060240160206040518083038186803b15801561378357600080fd5b505afa158015613797573d6000803e3d6000fd5b505050506040513d601f19601f820116820180604052508101906137bb9190614e5e565b6001600160c01b0391821691161190565b156139b15760006139088b8b868181106137e8576137e8614c11565b90506020020160208101906137fd91906146ef565b6001600160a01b031663313ce5676040518163ffffffff1660e01b815260040160206040518083038186803b15801561383557600080fd5b505afa158015613849573d6000803e3d6000fd5b505050506040513d601f19601f8201168201806040525081019061386d9190614e7b565b604051632ac07b9560e11b81523060048201526138f99085906001600160a01b03881690635580f72a9060240160206040518083038186803b1580156138b257600080fd5b505afa1580156138c6573d6000803e3d6000fd5b505050506040513d601f19601f820116820180604052508101906138ea9190614e5e565b6001600160c01b03169061423e565b6001600160c01b031690614259565b6020880151885191925062ffffff8116916139239190614f2c565b6139329062ffffff1683614ce4565b61393c9190614f4a565b86858151811061394e5761394e614c11565b602002602001018181525050866000015162ffffff16876020015188600001516139789190614f2c565b6139879062ffffff1683614ce4565b6139919190614f4a565b8585815181106139a3576139a3614c11565b602002602001018181525050505b5050806139bd90614c6e565b90506135b4565b5060005b84811015613abd5760008888838181106139e4576139e4614c11565b90506020020160208101906139f991906146ef565b90506000838381518110613a0f57613a0f614c11565b60200260200101511115613a6457610134548351613a64916001600160a01b031690859085908110613a4357613a43614c11565b6020026020010151836001600160a01b03166142009092919063ffffffff16565b6000848381518110613a7857613a78614c11565b60200260200101511115613aac57610133548451613aac916001600160a01b031690869085908110613a4357613a43614c11565b50613ab681614c6e565b90506139c8565b5050505050505050565b613acf61218b565b600081600001516001600160a01b031663785e9e866040518163ffffffff1660e01b815260040160206040518083038186803b158015613b0e57600080fd5b505afa158015613b22573d6000803e3d6000fd5b505050506040513d601f19601f82011682018060405250810190613b469190614b0c565b6001600160a01b03808216600090815260fc60205260409020549192501615613b7157613b71614f69565b60fb54613b8c906001600160a01b0383811691166000612aca565b60fb546040830151613bac916001600160a01b0384811692911690612aca565b60fb546040805163542d5e2960e01b815284516001600160a01b03908116600483015260208601518116602483015291850151604482015260608501516064820152600092919091169063542d5e2990608401602060405180830381600087803b158015613c1957600080fd5b505af1158015613c2d573d6000803e3d6000fd5b505050506040513d601f19601f82011682018060405250810190613c519190614b0c565b6001600160a01b03838116600090815260fc6020526040812080546001600160a01b0319169284169290921790915560fd805492935065ffffffffffff9092169190613c9c83614f7f565b91906101000a81548165ffffffffffff021916908365ffffffffffff1602179055505082602001516001600160a01b031663785e9e866040518163ffffffff1660e01b815260040160206040518083038186803b158015613cfc57600080fd5b505afa158015613d10573d6000803e3d6000fd5b505050506040513d601f19601f82011682018060405250810190613d349190614b0c565b6001600160a01b0316826001600160a01b0316826001600160a01b03167ff18b757d93c36d059284838a0328b06d8eb30d7214ffadde3266465a0006f6b386604001518760600151604051613d93929190918252602082015260400190565b60405180910390a45050610940600160c955565b60fd5465ffffffffffff16158015613e43575061012e60009054906101000a90046001600160a01b03166001600160a01b031663e45a5b2d6040518163ffffffff1660e01b815260040160206040518083038186803b158015613e0957600080fd5b505afa158015613e1d573d6000803e3d6000fd5b505050506040513d601f19601f82011682018060405250810190613e419190614a6b565b155b613e4f57613e4f614f69565b6101305461012e54604051635523caaf60e11b81523060048201526001600160a01b0392831692636396544992169063aa47955e9060240160206040518083038186803b158015613e9f57600080fd5b505afa158015613eb3573d6000803e3d6000fd5b505050506040513d601f19601f82011682018060405250810190613ed79190614e5e565b6040516001600160e01b031960e084901b1681526001600160c01b039091166004820152602401600060405180830381600087803b158015613f1857600080fd5b505af1158015610ee9573d6000803e3d6000fd5b6000613f81826040518060400160405280602081526020017f5361666545524332303a206c6f772d6c6576656c2063616c6c206661696c6564815250856001600160a01b03166142af9092919063ffffffff16565b80519091501561239d5780806020019051810190613f9f9190614a6b565b61239d5760405162461bcd60e51b815260206004820152602a60248201527f5361666545524332303a204552433230206f7065726174696f6e20646964206e6044820152691bdd081cdd58d8d9595960b21b6064820152608401610632565b6060600080856001600160a01b03168560405161401b9190614fa5565b600060405180830381855af49150503d8060008114614056576040519150601f19603f3d011682016040523d82523d6000602084013e61405b565b606091505b509150915061406c868383876142be565b9695505050505050565b600054610100900460ff1661409d5760405162461bcd60e51b815260040161063290614e13565b565b60008080600019848609905083850291508181039250818110156140c4576001830392505b509250929050565b6140d581612f24565b6040516001600160a01b038216907fbc7cd75a20ee27fd9adebab32041f755214dbc6bffa90cc0225b39da2e5c2d3b90600090a250565b60606001600160a01b0383163b6141745760405162461bcd60e51b815260206004820152602660248201527f416464726573733a2064656c65676174652063616c6c20746f206e6f6e2d636f6044820152651b9d1c9858dd60d21b6064820152608401610632565b600080846001600160a01b03168460405161418f9190614fa5565b600060405180830381855af49150503d80600081146141ca576040519150601f19603f3d011682016040523d82523d6000602084013e6141cf565b606091505b50915091506141f782826040518060600160405280602781526020016151c960279139614334565b95945050505050565b6040516001600160a01b03831660248201526044810182905261239d90849063a9059cbb60e01b90606401612bea565b6000610ae08383600061434d565b6000610ae08284614fc1565b6000610add8484846000614414565b6000610ae083836000614440565b6000610ae08284614fe9565b6000610ae0838360015b6000610add6142aa61429b6001600160c01b03808716908816614f4a565b670de0b6b3a7640000856144ef565b61458f565b6060610add84846000856145bd565b6060831561432a578251614323576001600160a01b0385163b6143235760405162461bcd60e51b815260206004820152601d60248201527f416464726573733a2063616c6c20746f206e6f6e2d636f6e74726163740000006044820152606401610632565b508161228e565b61228e8383614698565b60608315614343575081610ae0565b610ae08383614698565b60008361435c57506000610ae0565b605f198360000b136143965760025b82600281111561437d5761437d614c89565b1461438957600061438c565b60015b60ff169050610ae0565b8260000b6028136143ba5760405163f44398f560e01b815260040160405180910390fd5b6143c560128461500b565b925060006143d58460000b6146c2565b6143e090600a61512a565b90506000808560000b12156143ff576143fa8683866144ef565b614409565b6144098287614f4a565b905061406c8161458f565b60006141f76142aa866001600160c01b0316866001600160c01b0316866001600160c01b0316866121e5565b60006001600160c01b03841661445857506000610ae0565b6029198360000b1361446b57600261436b565b8260000b60601361448f5760405163f44398f560e01b815260040160405180910390fd5b61449a601284615136565b925060006144aa8460000b6146c2565b6144b590600a61512a565b905060008460000b12156144dc576144d7856001600160c01b031682856144ef565b6141f7565b6141f7816001600160c01b038716614f4a565b6000806144fc8486614ce4565b9050600083600281111561451257614512614c89565b141561451f579050610ae0565b600183600281111561453357614533614c89565b1415614573576002614546600186614ccd565b6145509190614ce4565b61455a8587615177565b111561456e578061456a81614c6e565b9150505b610add565b600061457f8587615177565b1115610add578061406c81614c6e565b60006001600160c01b038211156145b95760405163f44398f560e01b815260040160405180910390fd5b5090565b60608247101561461e5760405162461bcd60e51b815260206004820152602660248201527f416464726573733a20696e73756666696369656e742062616c616e636520666f6044820152651c8818d85b1b60d21b6064820152608401610632565b600080866001600160a01b0316858760405161463a9190614fa5565b60006040518083038185875af1925050503d8060008114614677576040519150601f19603f3d011682016040523d82523d6000602084013e61467c565b606091505b509150915061468d878383876142be565b979650505050505050565b8151156146a85781518083602001fd5b8060405162461bcd60e51b81526004016106329190614970565b60008082126146d157816117cc565b6117cc8261518b565b6001600160a01b038116811461094057600080fd5b60006020828403121561470157600080fd5b8135610ae0816146da565b6001600160c01b038116811461094057600080fd5b60006020828403121561473357600080fd5b8135610ae08161470c565b60008060006060848603121561475357600080fd5b505081359360208301359350604090920135919050565b65ffffffffffff8116811461094057600080fd5b60006020828403121561479057600080fd5b8135610ae08161476a565b60008083601f8401126147ad57600080fd5b50813567ffffffffffffffff8111156147c557600080fd5b6020830191508360208260051b85010111156147e057600080fd5b9250929050565b600080602083850312156147fa57600080fd5b823567ffffffffffffffff81111561481157600080fd5b61481d8582860161479b565b90969095509350505050565b634e487b7160e01b600052604160045260246000fd5b604051601f8201601f1916810167ffffffffffffffff8111828210171561486857614868614829565b604052919050565b6000806040838503121561488357600080fd5b823561488e816146da565b915060208381013567ffffffffffffffff808211156148ac57600080fd5b818601915086601f8301126148c057600080fd5b8135818111156148d2576148d2614829565b6148e4601f8201601f1916850161483f565b915080825287848285010111156148fa57600080fd5b80848401858401376000848284010152508093505050509250929050565b60005b8381101561493357818101518382015260200161491b565b83811115610ee95750506000910152565b6000815180845261495c816020860160208601614918565b601f01601f19169290920160200192915050565b602081526000610ae06020830184614944565b6000602080830181845280855180835260408601915060408160051b870101925083870160005b828110156149d857603f198886030184526149c6858351614944565b945092850192908501906001016149aa565b5092979650505050505050565b600080600080600060a086880312156149fd57600080fd5b8535614a08816146da565b94506020860135614a188161476a565b93506040860135614a288161470c565b92506060860135614a388161470c565b91506080860135614a488161470c565b809150509295509295909350565b80518015158114614a6657600080fd5b919050565b600060208284031215614a7d57600080fd5b610ae082614a56565b60208082526010908201526f3830bab9b2b21037b910333937bd32b760811b604082015260600190565b634e487b7160e01b600052601160045260246000fd5b600065ffffffffffff821680614ade57614ade614ab0565b6000190192915050565b60008060408385031215614afb57600080fd5b505080516020909101519092909150565b600060208284031215614b1e57600080fd5b8151610ae0816146da565b80516020808301519190811015614b4a576000198160200360031b1b821691505b50919050565b6020808252600f908201526e676f7665726e616e6365206f6e6c7960881b604082015260600190565b6020808252602c908201527f46756e6374696f6e206d7573742062652063616c6c6564207468726f7567682060408201526b19195b1959d85d1958d85b1b60a21b606082015260800190565b6020808252602c908201527f46756e6374696f6e206d7573742062652063616c6c6564207468726f7567682060408201526b6163746976652070726f787960a01b606082015260800190565b634e487b7160e01b600052603260045260246000fd5b6000808335601e19843603018112614c3e57600080fd5b83018035915067ffffffffffffffff821115614c5957600080fd5b6020019150368190038213156147e057600080fd5b6000600019821415614c8257614c82614ab0565b5060010190565b634e487b7160e01b600052602160045260246000fd5b634e487b7160e01b600052601260045260246000fd5b60008219821115614cc857614cc8614ab0565b500190565b600082821015614cdf57614cdf614ab0565b500390565b600082614cf357614cf3614c9f565b500490565b600060208284031215614d0a57600080fd5b5051919050565b600060208284031215614d2357600080fd5b815160038110610ae057600080fd5b600060208284031215614d4457600080fd5b8151610ae08161476a565b600065ffffffffffff808316818516808303821115614d7057614d70614ab0565b01949350505050565b60008082840360a0811215614d8d57600080fd5b614d9684614a56565b92506080601f1982011215614daa57600080fd5b506040516080810181811067ffffffffffffffff82111715614dce57614dce614829565b6040526020840151614ddf816146da565b81526040840151614def816146da565b60208201526060848101516040830152608090940151938101939093525092909150565b6020808252602b908201527f496e697469616c697a61626c653a20636f6e7472616374206973206e6f74206960408201526a6e697469616c697a696e6760a81b606082015260800190565b600060208284031215614e7057600080fd5b8151610ae08161470c565b600060208284031215614e8d57600080fd5b815160ff81168114610ae057600080fd5b600081810b607f19811415614eb557614eb5614ab0565b60000392915050565b805162ffffff81168114614a6657600080fd5b600060408284031215614ee357600080fd5b6040516040810181811067ffffffffffffffff82111715614f0657614f06614829565b604052614f1283614ebe565b8152614f2060208401614ebe565b60208201529392505050565b600062ffffff808316818516808303821115614d7057614d70614ab0565b6000816000190483118215151615614f6457614f64614ab0565b500290565b634e487b7160e01b600052600160045260246000fd5b600065ffffffffffff80831681811415614f9b57614f9b614ab0565b6001019392505050565b60008251614fb7818460208701614918565b9190910192915050565b60006001600160c01b0383811690831681811015614fe157614fe1614ab0565b039392505050565b60006001600160c01b03828116848216808303821115614d7057614d70614ab0565b60008160000b8360000b6000821282607f0382138115161561502f5761502f614ab0565b82607f1903821281161561504557615045614ab0565b50019392505050565b600181815b808511156140c457816000190482111561506f5761506f614ab0565b8085161561507c57918102915b93841c9390800290615053565b600082615098575060016117cc565b816150a5575060006117cc565b81600181146150bb57600281146150c5576150e1565b60019150506117cc565b60ff8411156150d6576150d6614ab0565b50506001821b6117cc565b5060208310610133831016604e8410600b8410161715615104575081810a6117cc565b61510e838361504e565b806000190482111561512257615122614ab0565b029392505050565b6000610ae08383615089565b600081810b83820b8281128015607f1983018412161561515857615158614ab0565b81607f01831381161561516d5761516d614ab0565b5090039392505050565b60008261518657615186614c9f565b500690565b6000600160ff1b8214156151a1576151a1614ab0565b506000039056fe360894a13ba1a3210667c828492db98dca3e2076cc3735a920a3ca505d382bbc416464726573733a206c6f772d6c6576656c2064656c65676174652063616c6c206661696c6564a26469706673582212203bdd4bd1e7be729e92364f63b1e511f33967e3b97e20eb343fc73f9b045d22d564736f6c63430008090033",
  "linkReferences": {
    "contracts/reserve/p1/mixins/RecollateralizationLib.sol": {
      "RecollateralizationLibP1": [
        {
          "length": 20,
          "start": 10666
        }
      ]
    },
    "contracts/reserve/p1/mixins/RewardableLib.sol": {
      "RewardableLibP1": [
        {
          "length": 20,
          "start": 3968
        },
        {
          "length": 20,
          "start": 6655
        }
      ]
    }
  },
  "deployedLinkReferences": {
    "contracts/reserve/p1/mixins/RecollateralizationLib.sol": {
      "RecollateralizationLibP1": [
        {
          "length": 20,
          "start": 10274
        }
      ]
    },
    "contracts/reserve/p1/mixins/RewardableLib.sol": {
      "RewardableLibP1": [
        {
          "length": 20,
          "start": 3576
        },
        {
          "length": 20,
          "start": 6263
        }
      ]
    }
  }
}