{
  "_format": "hh-sol-artifact-1",
  "contractName": "BrokerP0",
  "sourceName": "contracts/reserve/p0/Broker.sol",
  "abi": [
    {
      "inputs": [],
      "name": "UIntOutOfBounds",
      "type": "error"
    },
    {
      "anonymous": false,
      "inputs": [
        {
          "indexed": true,
          "internalType": "uint48",
          "name": "oldVal",
          "type": "uint48"
        },
        {
          "indexed": true,
          "internalType": "uint48",
          "name": "newVal",
          "type": "uint48"
        }
      ],
      "name": "AuctionLengthSet",
      "type": "event"
    },
    {
      "anonymous": false,
      "inputs": [
        {
          "indexed": true,
          "internalType": "bool",
          "name": "prevVal",
          "type": "bool"
        },
        {
          "indexed": true,
          "internalType": "bool",
          "name": "newVal",
          "type": "bool"
        }
      ],
      "name": "DisabledSet",
      "type": "event"
    },
    {
      "anonymous": false,
      "inputs": [
        {
          "indexed": false,
          "internalType": "uint8",
          "name": "version",
          "type": "uint8"
        }
      ],
      "name": "Initialized",
      "type": "event"
    },
    {
      "inputs": [],
      "name": "MAX_AUCTION_LENGTH",
      "outputs": [
        {
          "internalType": "uint48",
          "name": "",
          "type": "uint48"
        }
      ],
      "stateMutability": "view",
      "type": "function"
    },
    {
      "inputs": [],
      "name": "MIN_BID_SHARE_OF_TOTAL_SUPPLY",
      "outputs": [
        {
          "internalType": "uint192",
          "name": "",
          "type": "uint192"
        }
      ],
      "stateMutability": "view",
      "type": "function"
    },
    {
      "inputs": [],
      "name": "auctionLength",
      "outputs": [
        {
          "internalType": "uint48",
          "name": "",
          "type": "uint48"
        }
      ],
      "stateMutability": "view",
      "type": "function"
    },
    {
      "inputs": [],
      "name": "disabled",
      "outputs": [
        {
          "internalType": "bool",
          "name": "",
          "type": "bool"
        }
      ],
      "stateMutability": "view",
      "type": "function"
    },
    {
      "inputs": [],
      "name": "gnosis",
      "outputs": [
        {
          "internalType": "contract IGnosis",
          "name": "",
          "type": "address"
        }
      ],
      "stateMutability": "view",
      "type": "function"
    },
    {
      "inputs": [
        {
          "internalType": "contract IMain",
          "name": "main_",
          "type": "address"
        },
        {
          "internalType": "contract IGnosis",
          "name": "gnosis_",
          "type": "address"
        },
        {
          "internalType": "contract ITrade",
          "name": "tradeImplementation_",
          "type": "address"
        },
        {
          "internalType": "uint48",
          "name": "auctionLength_",
          "type": "uint48"
        }
      ],
      "name": "init",
      "outputs": [],
      "stateMutability": "nonpayable",
      "type": "function"
    },
    {
      "inputs": [],
      "name": "main",
      "outputs": [
        {
          "internalType": "contract IMain",
          "name": "",
          "type": "address"
        }
      ],
      "stateMutability": "view",
      "type": "function"
    },
    {
      "inputs": [
        {
          "components": [
            {
              "internalType": "contract IAsset",
              "name": "sell",
              "type": "address"
            },
            {
              "internalType": "contract IAsset",
              "name": "buy",
              "type": "address"
            },
            {
              "internalType": "uint256",
              "name": "sellAmount",
              "type": "uint256"
            },
            {
              "internalType": "uint256",
              "name": "minBuyAmount",
              "type": "uint256"
            }
          ],
          "internalType": "struct TradeRequest",
          "name": "req",
          "type": "tuple"
        }
      ],
      "name": "openTrade",
      "outputs": [
        {
          "internalType": "contract ITrade",
          "name": "",
          "type": "address"
        }
      ],
      "stateMutability": "nonpayable",
      "type": "function"
    },
    {
      "inputs": [],
      "name": "reportViolation",
      "outputs": [],
      "stateMutability": "nonpayable",
      "type": "function"
    },
    {
      "inputs": [
        {
          "internalType": "uint48",
          "name": "newAuctionLength",
          "type": "uint48"
        }
      ],
      "name": "setAuctionLength",
      "outputs": [],
      "stateMutability": "nonpayable",
      "type": "function"
    },
    {
      "inputs": [
        {
          "internalType": "bool",
          "name": "disabled_",
          "type": "bool"
        }
      ],
      "name": "setDisabled",
      "outputs": [],
      "stateMutability": "nonpayable",
      "type": "function"
    },
    {
      "inputs": [],
      "name": "version",
      "outputs": [
        {
          "internalType": "string",
          "name": "",
          "type": "string"
        }
      ],
      "stateMutability": "pure",
      "type": "function"
    }
  ],
  "bytecode": "0x608060405234801561001057600080fd5b50613526806100206000396000f3fe608060405234801561001057600080fd5b50600436106100b45760003560e01c80636c5a7d1e116100715780636c5a7d1e1461016b57806393574b1e1461017e578063af1ebc2414610186578063dd59833214610199578063dffeadd0146101bc578063ee070805146101cf57600080fd5b80630891f601146100b9578063238c8aad146100df578063325c25a21461010a578063542d5e291461011c57806354fd4d501461012f578063642606a714610156575b600080fd5b6100c362093a8081565b60405165ffffffffffff90911681526020015b60405180910390f35b6034546100f2906001600160a01b031681565b6040516001600160a01b0390911681526020016100d6565b6036546100c39065ffffffffffff1681565b6100f261012a36600461133b565b6101f3565b60408051808201825260058152640312e322e360dc1b602082015290516100d691906113ea565b610169610164366004611433565b6106cc565b005b61016961017936600461149b565b6108b7565b610169610a0b565b6101696101943660046114bf565b610b84565b6101a4633b9aca0081565b6040516001600160c01b0390911681526020016100d6565b6033546100f2906001600160a01b031681565b6036546101e390600160301b900460ff1681565b60405190151581526020016100d6565b6033546040805163f170637560e01b815290516000926001600160a01b03169163f1706375916004808301926020929190829003018186803b15801561023857600080fd5b505afa15801561024c573d6000803e3d6000fd5b505050506040513d601f19601f8201168201806040525081019061027091906114da565b156102b55760405162461bcd60e51b815260206004820152601060248201526f3830bab9b2b21037b910333937bd32b760811b60448201526064015b60405180910390fd5b603654600160301b900460ff16156103015760405162461bcd60e51b815260206004820152600f60248201526e189c9bdad95c88191a5cd8589b1959608a1b60448201526064016102ac565b6000826040015111610315576103156114f7565b60335460408051636e457afb60e11b8152905133926001600160a01b03169163dc8af5f6916004808301926020929190829003018186803b15801561035957600080fd5b505afa15801561036d573d6000803e3d6000fd5b505050506040513d601f19601f82011682018060405250810190610391919061150d565b6001600160a01b0316816001600160a01b031614806104465750603360009054906101000a90046001600160a01b03166001600160a01b031663531367636040518163ffffffff1660e01b815260040160206040518083038186803b1580156103f957600080fd5b505afa15801561040d573d6000803e3d6000fd5b505050506040513d601f19601f82011682018060405250810190610431919061150d565b6001600160a01b0316816001600160a01b0316145b806104e75750603360009054906101000a90046001600160a01b03166001600160a01b03166341bf0c4e6040518163ffffffff1660e01b815260040160206040518083038186803b15801561049a57600080fd5b505afa1580156104ae573d6000803e3d6000fd5b505050506040513d601f19601f820116820180604052508101906104d2919061150d565b6001600160a01b0316816001600160a01b0316145b6105225760405162461bcd60e51b815260206004820152600c60248201526b6f6e6c79207472616465727360a01b60448201526064016102ac565b600060405161053090611316565b604051809103906000f08015801561054c573d6000803e3d6000fd5b506001600160a01b0381166000908152603560205260409020805460ff191660011790559050610588846be22ea493b30310a770000000610d3a565b935061061a8282866040015187600001516001600160a01b031663785e9e866040518163ffffffff1660e01b815260040160206040518083038186803b1580156105d157600080fd5b505afa1580156105e5573d6000803e3d6000fd5b505050506040513d601f19601f82011682018060405250810190610609919061150d565b6001600160a01b0316929190610dbf565b603454603654604080516372d0dc0d60e11b81523060048201526001600160a01b038681166024830152938416604482015265ffffffffffff90921660648301528651831660848301526020870151831660a483015286015160c4820152606086015160e48201529082169063e5a1b81a9061010401600060405180830381600087803b1580156106aa57600080fd5b505af11580156106be573d6000803e3d6000fd5b50929450505050505b919050565b600054610100900460ff16158080156106ec5750600054600160ff909116105b806107065750303b158015610706575060005460ff166001145b6107695760405162461bcd60e51b815260206004820152602e60248201527f496e697469616c697a61626c653a20636f6e747261637420697320616c72656160448201526d191e481a5b9a5d1a585b1a5e995960921b60648201526084016102ac565b6000805460ff19166001179055801561078c576000805461ff0019166101001790555b6001600160a01b0384166107db5760405162461bcd60e51b8152602060048201526016602482015275696e76616c696420476e6f736973206164647265737360501b60448201526064016102ac565b6001600160a01b03831661083d5760405162461bcd60e51b8152602060048201526024808201527f696e76616c696420547261646520496d706c656d656e746174696f6e206164646044820152637265737360e01b60648201526084016102ac565b61084685610e1f565b603480546001600160a01b0319166001600160a01b03861617905561086a82610b84565b80156108b0576000805461ff0019169055604051600181527f7f26b83ff96e1f2b6a682f133852f6798a09c465da95921460cefb38474024989060200160405180910390a15b5050505050565b60335460408051808201909152600581526427aba722a960d91b60208201526001600160a01b03909116906391d14854906108f19061152a565b336040516001600160e01b031960e085901b16815260048101929092526001600160a01b0316602482015260440160206040518083038186803b15801561093757600080fd5b505afa15801561094b573d6000803e3d6000fd5b505050506040513d601f19601f8201168201806040525081019061096f91906114da565b6109ad5760405162461bcd60e51b815260206004820152600f60248201526e676f7665726e616e6365206f6e6c7960881b60448201526064016102ac565b60365460405182151591600160301b900460ff161515907f50ad88f2d352cfe099dff651bce69b227cf4a4fa1eefde42cbd9ee52e671e12790600090a360368054911515600160301b0266ff00000000000019909216919091179055565b603360009054906101000a90046001600160a01b03166001600160a01b031663f17063756040518163ffffffff1660e01b815260040160206040518083038186803b158015610a5957600080fd5b505afa158015610a6d573d6000803e3d6000fd5b505050506040513d601f19601f82011682018060405250810190610a9191906114da565b15610ad15760405162461bcd60e51b815260206004820152601060248201526f3830bab9b2b21037b910333937bd32b760811b60448201526064016102ac565b3360009081526035602052604090205460ff16610b305760405162461bcd60e51b815260206004820152601b60248201527f756e7265636f676e697a656420747261646520636f6e7472616374000000000060448201526064016102ac565b603654604051600191600160301b900460ff161515907f50ad88f2d352cfe099dff651bce69b227cf4a4fa1eefde42cbd9ee52e671e12790600090a36036805466ff0000000000001916600160301b179055565b60335460408051808201909152600581526427aba722a960d91b60208201526001600160a01b03909116906391d1485490610bbe9061152a565b336040516001600160e01b031960e085901b16815260048101929092526001600160a01b0316602482015260440160206040518083038186803b158015610c0457600080fd5b505afa158015610c18573d6000803e3d6000fd5b505050506040513d601f19601f82011682018060405250810190610c3c91906114da565b610c7a5760405162461bcd60e51b815260206004820152600f60248201526e676f7665726e616e6365206f6e6c7960881b60448201526064016102ac565b60008165ffffffffffff16118015610c9d575062093a8065ffffffffffff821611155b610ce15760405162461bcd60e51b81526020600482015260156024820152740d2dcecc2d8d2c840c2eac6e8d2dedc98cadccee8d605b1b60448201526064016102ac565b60365460405165ffffffffffff8084169216907f5367084e5526b7d5d8fcbd6a0e50fe9db6e3dc2a20c54c9820dcb0089728c85790600090a36036805465ffffffffffff191665ffffffffffff92909216919091179055565b60408051608081018252600080825260208201819052918101829052606081019190915260008360400151846060015111610d79578360400151610d7f565b83606001515b905082811115610db757610d9a846040015184836002610ef9565b60408501526060840151610db19084836000610ef9565b60608501525b509192915050565b604080516001600160a01b0385811660248301528416604482015260648082018490528251808303909101815260849091019091526020810180516001600160e01b03166323b872dd60e01b179052610e19908590610faa565b50505050565b600054610100900460ff16610e8a5760405162461bcd60e51b815260206004820152602b60248201527f496e697469616c697a61626c653a20636f6e7472616374206973206e6f74206960448201526a6e697469616c697a696e6760a81b60648201526084016102ac565b6001600160a01b038116610ed75760405162461bcd60e51b81526020600482015260146024820152736d61696e206973207a65726f206164647265737360601b60448201526064016102ac565b603380546001600160a01b0319166001600160a01b0392909216919091179055565b600080610f07868686611081565b90506000836002811115610f1d57610f1d611551565b1415610f2a579050610fa2565b60008480610f3a57610f3a611567565b86880990506002846002811115610f5357610f53611551565b1415610f72578015610f6d57610f6a600183611593565b91505b610f9e565b6002610f7f6001876115ab565b610f8991906115c2565b811115610f9e57610f9b600183611593565b91505b5090505b949350505050565b6000610fff826040518060400160405280602081526020017f5361666545524332303a206c6f772d6c6576656c2063616c6c206661696c6564815250856001600160a01b03166111649092919063ffffffff16565b80519091501561107c578080602001905181019061101d91906114da565b61107c5760405162461bcd60e51b815260206004820152602a60248201527f5361666545524332303a204552433230206f7065726174696f6e20646964206e6044820152691bdd081cdd58d8d9595960b21b60648201526084016102ac565b505050565b60008060006110908686611173565b915091508382106110b45760405163f44398f560e01b815260040160405180910390fd5b600084806110c4576110c4611567565b8688099050818111156110d8576001830392505b9081900390600085900385168086816110f3576110f3611567565b04955080838161110557611105611567565b04925080816000038161111a5761111a611567565b046001019390930291909101600285810380870282030280870282030280870282030280870282030280870282030280870282030295860290039094029390930295945050505050565b6060610fa284846000856111a0565b6000808060001984860990508385029150818103925081811015611198576001830392505b509250929050565b6060824710156112015760405162461bcd60e51b815260206004820152602660248201527f416464726573733a20696e73756666696369656e742062616c616e636520666f6044820152651c8818d85b1b60d21b60648201526084016102ac565b600080866001600160a01b0316858760405161121d91906115e4565b60006040518083038185875af1925050503d806000811461125a576040519150601f19603f3d011682016040523d82523d6000602084013e61125f565b606091505b50915091506112708783838761127b565b979650505050505050565b606083156112e75782516112e0576001600160a01b0385163b6112e05760405162461bcd60e51b815260206004820152601d60248201527f416464726573733a2063616c6c20746f206e6f6e2d636f6e747261637400000060448201526064016102ac565b5081610fa2565b610fa283838151156112fc5781518083602001fd5b8060405162461bcd60e51b81526004016102ac91906113ea565b611ef08061160183390190565b6001600160a01b038116811461133857600080fd5b50565b60006080828403121561134d57600080fd5b6040516080810181811067ffffffffffffffff8211171561137e57634e487b7160e01b600052604160045260246000fd5b604052823561138c81611323565b8152602083013561139c81611323565b6020820152604083810135908201526060928301359281019290925250919050565b60005b838110156113d95781810151838201526020016113c1565b83811115610e195750506000910152565b60208152600082518060208401526114098160408501602087016113be565b601f01601f19169190910160400192915050565b803565ffffffffffff811681146106c757600080fd5b6000806000806080858703121561144957600080fd5b843561145481611323565b9350602085013561146481611323565b9250604085013561147481611323565b91506114826060860161141d565b905092959194509250565b801515811461133857600080fd5b6000602082840312156114ad57600080fd5b81356114b88161148d565b9392505050565b6000602082840312156114d157600080fd5b6114b88261141d565b6000602082840312156114ec57600080fd5b81516114b88161148d565b634e487b7160e01b600052600160045260246000fd5b60006020828403121561151f57600080fd5b81516114b881611323565b8051602080830151919081101561154b576000198160200360031b1b821691505b50919050565b634e487b7160e01b600052602160045260246000fd5b634e487b7160e01b600052601260045260246000fd5b634e487b7160e01b600052601160045260246000fd5b600082198211156115a6576115a661157d565b500190565b6000828210156115bd576115bd61157d565b500390565b6000826115df57634e487b7160e01b600052601260045260246000fd5b500490565b600082516115f68184602087016113be565b919091019291505056fe608060405234801561001057600080fd5b50611ed0806100206000396000f3fe608060405234801561001057600080fd5b506004361061010b5760003560e01c806393254b0e116100a2578063abff011011610071578063abff011014610255578063b909a6e914610268578063d73792a914610282578063e5a1b81a1461028b578063faf7ba6a1461029e57600080fd5b806393254b0e14610204578063938b5f3214610226578063a6f2ae3a14610239578063abdf2f9d1461024c57600080fd5b806326b1988c116100de57806326b1988c146101935780633197cbb6146101b357806345710074146101dc57806376c6f5ec146101ef57600080fd5b806310782f8f1461011057806311da60b41461012c578063200d2ed214610149578063238c8aad14610163575b600080fd5b61011960015481565b6040519081526020015b60405180910390f35b6101346102b6565b60408051928352602083019190915201610123565b6000546101569060ff1681565b60405161012391906117fe565b60005461017b9061010090046001600160a01b031681565b6040516001600160a01b039091168152602001610123565b61019b61077a565b6040516001600160c01b039091168152602001610123565b6007546101c59065ffffffffffff1681565b60405165ffffffffffff9091168152602001610123565b60045461017b906001600160a01b031681565b6102026101fd36600461183b565b610790565b005b61020e620186a081565b6040516001600160601b039091168152602001610123565b60035461017b906001600160a01b031681565b60055461017b906001600160a01b031681565b61011960065481565b60025461017b906001600160a01b031681565b60075461019b90600160301b90046001600160c01b031681565b6101196103e881565b610202610299366004611858565b61088d565b6102a661103d565b6040519015158152602001610123565b600080600160028160005460ff1660038111156102d5576102d56117e8565b1461031d5760405162461bcd60e51b8152602060048201526013602482015272496e76616c696420747261646520737461746560681b60448201526064015b60405180910390fd5b60008054600360ff199091168117909155546001600160a01b0316331461037f5760405162461bcd60e51b81526020600482015260166024820152756f6e6c79206f726967696e2063616e20736574746c6560501b6044820152606401610314565b610387611076565b61042657600054600154604051632e99361160e01b815260048101919091526101009091046001600160a01b031690632e99361190602401602060405180830381600087803b1580156103d957600080fd5b505af11580156103ed573d6000803e3d6000fd5b505050506040513d601f19601f8201168201806040525081019061041191906118dd565b5061041a611076565b610426576104266118f6565b600480546040516370a0823160e01b815230928101929092526000916001600160a01b03909116906370a082319060240160206040518083038186803b15801561046f57600080fd5b505afa158015610483573d6000803e3d6000fd5b505050506040513d601f19601f820116820180604052508101906104a791906118dd565b6005546040516370a0823160e01b81523060048201529192506001600160a01b0316906370a082319060240160206040518083038186803b1580156104eb57600080fd5b505afa1580156104ff573d6000803e3d6000fd5b505050506040513d601f19601f8201168201806040525081019061052391906118dd565b9350801561054857600354600454610548916001600160a01b0391821691168361110a565b831561056b5760035460055461056b916001600160a01b0391821691168661110a565b60065481101561072957806006546105839190611922565b9450600061059c610595600188611922565b6001611172565b9050600061069c61063b83600460009054906101000a90046001600160a01b03166001600160a01b031663313ce5676040518163ffffffff1660e01b815260040160206040518083038186803b1580156105f557600080fd5b505afa158015610609573d6000803e3d6000fd5b505050506040513d601f19601f8201168201806040525081019061062d9190611939565b6106369061195c565b61118c565b61068d88600560009054906101000a90046001600160a01b03166001600160a01b031663313ce5676040518163ffffffff1660e01b815260040160206040518083038186803b1580156105f557600080fd5b6001600160c01b03169061119a565b600754909150600160301b90046001600160c01b03908116908216101561072657600260009054906101000a90046001600160a01b03166001600160a01b03166393574b1e6040518163ffffffff1660e01b8152600401600060405180830381600087803b15801561070d57600080fd5b505af1158015610721573d6000803e3d6000fd5b505050505b50505b50600360005460ff166003811115610743576107436117e8565b14610750576107506118f6565b6000805482919060ff1916600183600381111561076f5761076f6117e8565b021790555050509091565b61078d6064670de0b6b3a7640000611992565b81565b600260005460ff1660038111156107a9576107a96117e8565b146107f65760405162461bcd60e51b815260206004820152601a60248201527f6f6e6c7920616674657220747261646520697320636c6f7365640000000000006044820152606401610314565b6003546040516370a0823160e01b815230600482015261088a916001600160a01b0390811691908416906370a082319060240160206040518083038186803b15801561084157600080fd5b505afa158015610855573d6000803e3d6000fd5b505050506040513d601f19601f8201168201806040525081019061087991906118dd565b6001600160a01b038416919061110a565b50565b600060018160005460ff1660038111156108a9576108a96117e8565b146108ec5760405162461bcd60e51b8152602060048201526013602482015272496e76616c696420747261646520737461746560681b6044820152606401610314565b6000805460ff191660031790556001600160601b036040840135111561094b5760405162461bcd60e51b815260206004820152601460248201527373656c6c416d6f756e7420746f6f206c6172676560601b6044820152606401610314565b6001600160601b036060840135111561099f5760405162461bcd60e51b81526020600482015260166024820152756d696e427579416d6f756e7420746f6f206c6172676560501b6044820152606401610314565b6109ac602084018461183b565b6001600160a01b031663785e9e866040518163ffffffff1660e01b815260040160206040518083038186803b1580156109e457600080fd5b505afa1580156109f8573d6000803e3d6000fd5b505050506040513d601f19601f82011682018060405250810190610a1c91906119b8565b600480546001600160a01b0319166001600160a01b0392909216919091179055610a4c604084016020850161183b565b6001600160a01b031663785e9e866040518163ffffffff1660e01b815260040160206040518083038186803b158015610a8457600080fd5b505afa158015610a98573d6000803e3d6000fd5b505050506040513d601f19601f82011682018060405250810190610abc91906119b8565b600580546001600160a01b0319166001600160a01b03928316179055600480546040516370a0823160e01b81523092810192909252909116906370a082319060240160206040518083038186803b158015610b1657600080fd5b505afa158015610b2a573d6000803e3d6000fd5b505050506040513d601f19601f82011682018060405250810190610b4e91906118dd565b60068190556001600160601b031015610b9d5760405162461bcd60e51b8152602060048201526011602482015270696e697442616c20746f6f206c6172676560781b6044820152606401610314565b82604001356006541015610be45760405162461bcd60e51b815260206004820152600e60248201526d756e66756e64656420747261646560901b6044820152606401610314565b6001600160a01b038616610bfa57610bfa6118f6565b600280546001600160a01b03808a166001600160a01b0319928316179092556003805489841692169190911790556000805491871661010002610100600160a81b0319909216919091179055610c5084426119d5565b6007805465ffffffffffff191665ffffffffffff92909216919091179055600480546040805163313ce56760e01b81528151610d1094610cba9493890135936001600160a01b03169263313ce5679281830192602092829003018186803b1580156105f557600080fd5b61068d8560600135600560009054906101000a90046001600160a01b03166001600160a01b031663313ce5676040518163ffffffff1660e01b815260040160206040518083038186803b1580156105f557600080fd5b600780546001600160c01b0392909216600160301b026601000000000000600160f01b03199092169190911790556000610dee610d536103e860408701356119ff565b600060019054906101000a90046001600160a01b03166001600160a01b031663e86dea4a6040518163ffffffff1660e01b8152600401602060405180830381600087803b158015610da357600080fd5b505af1158015610db7573d6000803e3d6000fd5b505050506040513d601f19601f82011682018060405250810190610ddb91906118dd565b610de7906103e8611a1e565b60006111a8565b90506000610e0160018660600135611172565b90506000610ece610e15620186a084611a36565b6001600160601b0316610ec9600560009054906101000a90046001600160a01b03166001600160a01b031663313ce5676040518163ffffffff1660e01b815260040160206040518083038186803b158015610e6f57600080fd5b505afa158015610e83573d6000803e3d6000fd5b505050506040513d601f19601f82011682018060405250810190610ea79190611939565b610eba6064670de0b6b3a7640000611992565b6001600160c01b031690611256565b611172565b905080610ed9575060015b60008054600454610efe926001600160a01b0391821692610100900490911690611264565b600054600654600454610f26926001600160a01b039182169261010090910490911690611264565b60008054600454600554600754604080518681526020810191829052630a4cd6c960e01b9091526001600160a01b03610100909504851695630a4cd6c995610f8b95811694169265ffffffffffff169182918b918b918b918190819060248101611aac565b602060405180830381600087803b158015610fa557600080fd5b505af1158015610fb9573d6000803e3d6000fd5b505050506040513d601f19601f82011682018060405250810190610fdd91906118dd565b6001555060039150610fec9050565b60005460ff166003811115611003576110036117e8565b14611010576110106118f6565b6000805482919060ff1916600183600381111561102f5761102f6117e8565b021790555050505050505050565b6000600160005460ff166003811115611058576110586117e8565b14801561107157506007544265ffffffffffff90911611155b905090565b60008054600154604051632afe316960e11b81526004810191909152829161010090046001600160a01b0316906355fc62d2906024016101c06040518083038186803b1580156110c557600080fd5b505afa1580156110d9573d6000803e3d6000fd5b505050506040513d601f19601f820116820180604052508101906110fd9190611ba8565b6101000151151592915050565b6040516001600160a01b03831660248201526044810182905261116d90849063a9059cbb60e01b906064015b60408051601f198184030181529190526020810180516001600160e01b03166001600160e01b031990931692909217909152611388565b505050565b60008183116111815781611183565b825b90505b92915050565b60006111838383600061145a565b60006111838383600061152b565b6000806111b58486611c7c565b905060008360028111156111cb576111cb6117e8565b14156111d857905061124f565b60018360028111156111ec576111ec6117e8565b141561122c5760026111ff600186611922565b6112099190611c7c565b6112138587611c90565b1115611227578061122381611ca4565b9150505b61124c565b60006112388587611c90565b111561124c578061124881611ca4565b9150505b90505b9392505050565b600061118383836000611563565b8015806112ed5750604051636eb1769f60e11b81523060048201526001600160a01b03838116602483015284169063dd62ed3e9060440160206040518083038186803b1580156112b357600080fd5b505afa1580156112c7573d6000803e3d6000fd5b505050506040513d601f19601f820116820180604052508101906112eb91906118dd565b155b6113585760405162461bcd60e51b815260206004820152603660248201527f5361666545524332303a20617070726f76652066726f6d206e6f6e2d7a65726f60448201527520746f206e6f6e2d7a65726f20616c6c6f77616e636560501b6064820152608401610314565b6040516001600160a01b03831660248201526044810182905261116d90849063095ea7b360e01b90606401611136565b60006113dd826040518060400160405280602081526020017f5361666545524332303a206c6f772d6c6576656c2063616c6c206661696c6564815250856001600160a01b031661161b9092919063ffffffff16565b80519091501561116d57808060200190518101906113fb9190611cbf565b61116d5760405162461bcd60e51b815260206004820152602a60248201527f5361666545524332303a204552433230206f7065726174696f6e20646964206e6044820152691bdd081cdd58d8d9595960b21b6064820152608401610314565b6000836114695750600061124f565b605f198360000b136114a35760025b82600281111561148a5761148a6117e8565b14611496576000611499565b60015b60ff16905061124f565b8260000b6028136114c75760405163f44398f560e01b815260040160405180910390fd5b6114d2601284611cda565b925060006114e28460000b61162a565b6114ed90600a611e01565b90506000808560000b121561150c576115078683866111a8565b611516565b61151682876119ff565b905061152181611642565b9695505050505050565b600061124c61155e61154e670de0b6b3a76400006001600160c01b0388166119ff565b856001600160c01b0316856111a8565b611642565b60006001600160c01b03841661157b5750600061124f565b6029198360000b1361158e576002611478565b8260000b6060136115b25760405163f44398f560e01b815260040160405180910390fd5b6115bd601284611e0d565b925060006115cd8460000b61162a565b6115d890600a611e01565b905060008460000b12156115ff576115fa856001600160c01b031682856111a8565b611612565b611612816001600160c01b0387166119ff565b95945050505050565b606061124c8484600085611670565b60008082126116395781611186565b61118682611e4e565b60006001600160c01b0382111561166c5760405163f44398f560e01b815260040160405180910390fd5b5090565b6060824710156116d15760405162461bcd60e51b815260206004820152602660248201527f416464726573733a20696e73756666696369656e742062616c616e636520666f6044820152651c8818d85b1b60d21b6064820152608401610314565b600080866001600160a01b031685876040516116ed9190611e6b565b60006040518083038185875af1925050503d806000811461172a576040519150601f19603f3d011682016040523d82523d6000602084013e61172f565b606091505b50915091506117408783838761174d565b925050505b949350505050565b606083156117b95782516117b2576001600160a01b0385163b6117b25760405162461bcd60e51b815260206004820152601d60248201527f416464726573733a2063616c6c20746f206e6f6e2d636f6e74726163740000006044820152606401610314565b5081611745565b61174583838151156117ce5781518083602001fd5b8060405162461bcd60e51b81526004016103149190611e87565b634e487b7160e01b600052602160045260246000fd5b602081016004831061182057634e487b7160e01b600052602160045260246000fd5b91905290565b6001600160a01b038116811461088a57600080fd5b60006020828403121561184d57600080fd5b813561124f81611826565b600080600080600085870361010081121561187257600080fd5b863561187d81611826565b9550602087013561188d81611826565b9450604087013561189d81611826565b9350606087013565ffffffffffff811681146118b857600080fd5b92506080607f19820112156118cc57600080fd5b506080860190509295509295909350565b6000602082840312156118ef57600080fd5b5051919050565b634e487b7160e01b600052600160045260246000fd5b634e487b7160e01b600052601160045260246000fd5b6000828210156119345761193461190c565b500390565b60006020828403121561194b57600080fd5b815160ff8116811461124f57600080fd5b600081810b607f198114156119735761197361190c565b60000392915050565b634e487b7160e01b600052601260045260246000fd5b60006001600160c01b03838116806119ac576119ac61197c565b92169190910492915050565b6000602082840312156119ca57600080fd5b815161124f81611826565b600065ffffffffffff8083168185168083038211156119f6576119f661190c565b01949350505050565b6000816000190483118215151615611a1957611a1961190c565b500290565b60008219821115611a3157611a3161190c565b500190565b60006001600160601b03808416806119ac576119ac61197c565b60005b83811015611a6b578181015183820152602001611a53565b83811115611a7a576000848401525b50505050565b60008151808452611a98816020860160208601611a50565b601f01601f19169290920160200192915050565b6001600160a01b038c811682528b8116602083015265ffffffffffff8b811660408401528a1660608301526001600160601b038981166080840152881660a083015260c0820187905260e0820186905284151561010083015283166101208201526101606101408201819052600090611b2783820185611a80565b9e9d5050505050505050505050505050565b6040516101c0810167ffffffffffffffff81118282101715611b6b57634e487b7160e01b600052604160045260246000fd5b60405290565b8051611b7c81611826565b919050565b80516001600160601b0381168114611b7c57600080fd5b80518015158114611b7c57600080fd5b60006101c08284031215611bbb57600080fd5b611bc3611b39565b611bcc83611b71565b8152611bda60208401611b71565b602082015260408301516040820152606083015160608201526080830151608082015260a083015160a082015260c083015160c082015260e083015160e0820152610100808401518183015250610120611c35818501611b81565b90820152610140611c47848201611b98565b90820152610160611c59848201611b98565b9082015261018083810151908201526101a0928301519281019290925250919050565b600082611c8b57611c8b61197c565b500490565b600082611c9f57611c9f61197c565b500690565b6000600019821415611cb857611cb861190c565b5060010190565b600060208284031215611cd157600080fd5b61118382611b98565b60008160000b8360000b6000821282607f03821381151615611cfe57611cfe61190c565b82607f19038212811615611d1457611d1461190c565b50019392505050565b600181815b80851115611d58578160001904821115611d3e57611d3e61190c565b80851615611d4b57918102915b93841c9390800290611d22565b509250929050565b600082611d6f57506001611186565b81611d7c57506000611186565b8160018114611d925760028114611d9c57611db8565b6001915050611186565b60ff841115611dad57611dad61190c565b50506001821b611186565b5060208310610133831016604e8410600b8410161715611ddb575081810a611186565b611de58383611d1d565b8060001904821115611df957611df961190c565b029392505050565b60006111838383611d60565b600081810b83820b8281128015607f19830184121615611e2f57611e2f61190c565b81607f018313811615611e4457611e4461190c565b5090039392505050565b6000600160ff1b821415611e6457611e6461190c565b5060000390565b60008251611e7d818460208701611a50565b9190910192915050565b6020815260006111836020830184611a8056fea2646970667358221220730909c8af4d003a73bcfaa853b9d2d4a4223ca2f75b6b69a3cc76aca8216af064736f6c63430008090033a264697066735822122044d17d4ea686d9a7d35a0257130a5dc0eea883f83664bf83acddab70b075accc64736f6c63430008090033",
  "linkReferences": {},
  "deployedLinkReferences": {}
}