{
  "_format": "hh-sol-artifact-1",
  "contractName": "MainP1V2",
  "sourceName": "contracts/reserve/plugins/mocks/upgrades/MainV2.sol",
  "abi": [
    {
      "anonymous": false,
      "inputs": [
        {
          "indexed": false,
          "internalType": "address",
          "name": "previousAdmin",
          "type": "address"
        },
        {
          "indexed": false,
          "internalType": "address",
          "name": "newAdmin",
          "type": "address"
        }
      ],
      "name": "AdminChanged",
      "type": "event"
    },
    {
      "anonymous": false,
      "inputs": [
        {
          "indexed": true,
          "internalType": "contract IAssetRegistry",
          "name": "oldVal",
          "type": "address"
        },
        {
          "indexed": true,
          "internalType": "contract IAssetRegistry",
          "name": "newVal",
          "type": "address"
        }
      ],
      "name": "AssetRegistrySet",
      "type": "event"
    },
    {
      "anonymous": false,
      "inputs": [
        {
          "indexed": true,
          "internalType": "contract IBackingManager",
          "name": "oldVal",
          "type": "address"
        },
        {
          "indexed": true,
          "internalType": "contract IBackingManager",
          "name": "newVal",
          "type": "address"
        }
      ],
      "name": "BackingManagerSet",
      "type": "event"
    },
    {
      "anonymous": false,
      "inputs": [
        {
          "indexed": true,
          "internalType": "contract IBasketHandler",
          "name": "oldVal",
          "type": "address"
        },
        {
          "indexed": true,
          "internalType": "contract IBasketHandler",
          "name": "newVal",
          "type": "address"
        }
      ],
      "name": "BasketHandlerSet",
      "type": "event"
    },
    {
      "anonymous": false,
      "inputs": [
        {
          "indexed": true,
          "internalType": "address",
          "name": "beacon",
          "type": "address"
        }
      ],
      "name": "BeaconUpgraded",
      "type": "event"
    },
    {
      "anonymous": false,
      "inputs": [
        {
          "indexed": true,
          "internalType": "contract IBroker",
          "name": "oldVal",
          "type": "address"
        },
        {
          "indexed": true,
          "internalType": "contract IBroker",
          "name": "newVal",
          "type": "address"
        }
      ],
      "name": "BrokerSet",
      "type": "event"
    },
    {
      "anonymous": false,
      "inputs": [
        {
          "indexed": true,
          "internalType": "contract IDistributor",
          "name": "oldVal",
          "type": "address"
        },
        {
          "indexed": true,
          "internalType": "contract IDistributor",
          "name": "newVal",
          "type": "address"
        }
      ],
      "name": "DistributorSet",
      "type": "event"
    },
    {
      "anonymous": false,
      "inputs": [
        {
          "indexed": true,
          "internalType": "contract IFurnace",
          "name": "oldVal",
          "type": "address"
        },
        {
          "indexed": true,
          "internalType": "contract IFurnace",
          "name": "newVal",
          "type": "address"
        }
      ],
      "name": "FurnaceSet",
      "type": "event"
    },
    {
      "anonymous": false,
      "inputs": [
        {
          "indexed": false,
          "internalType": "uint8",
          "name": "version",
          "type": "uint8"
        }
      ],
      "name": "Initialized",
      "type": "event"
    },
    {
      "anonymous": false,
      "inputs": [
        {
          "indexed": true,
          "internalType": "uint48",
          "name": "oldDuration",
          "type": "uint48"
        },
        {
          "indexed": true,
          "internalType": "uint48",
          "name": "newDuration",
          "type": "uint48"
        }
      ],
      "name": "LongFreezeDurationSet",
      "type": "event"
    },
    {
      "anonymous": false,
      "inputs": [],
      "name": "MainInitialized",
      "type": "event"
    },
    {
      "anonymous": false,
      "inputs": [
        {
          "indexed": true,
          "internalType": "bool",
          "name": "oldVal",
          "type": "bool"
        },
        {
          "indexed": true,
          "internalType": "bool",
          "name": "newVal",
          "type": "bool"
        }
      ],
      "name": "PausedSet",
      "type": "event"
    },
    {
      "anonymous": false,
      "inputs": [
        {
          "indexed": true,
          "internalType": "contract IRevenueTrader",
          "name": "oldVal",
          "type": "address"
        },
        {
          "indexed": true,
          "internalType": "contract IRevenueTrader",
          "name": "newVal",
          "type": "address"
        }
      ],
      "name": "RSRTraderSet",
      "type": "event"
    },
    {
      "anonymous": false,
      "inputs": [
        {
          "indexed": true,
          "internalType": "contract IRToken",
          "name": "oldVal",
          "type": "address"
        },
        {
          "indexed": true,
          "internalType": "contract IRToken",
          "name": "newVal",
          "type": "address"
        }
      ],
      "name": "RTokenSet",
      "type": "event"
    },
    {
      "anonymous": false,
      "inputs": [
        {
          "indexed": true,
          "internalType": "contract IRevenueTrader",
          "name": "oldVal",
          "type": "address"
        },
        {
          "indexed": true,
          "internalType": "contract IRevenueTrader",
          "name": "newVal",
          "type": "address"
        }
      ],
      "name": "RTokenTraderSet",
      "type": "event"
    },
    {
      "anonymous": false,
      "inputs": [
        {
          "indexed": true,
          "internalType": "bytes32",
          "name": "role",
          "type": "bytes32"
        },
        {
          "indexed": true,
          "internalType": "bytes32",
          "name": "previousAdminRole",
          "type": "bytes32"
        },
        {
          "indexed": true,
          "internalType": "bytes32",
          "name": "newAdminRole",
          "type": "bytes32"
        }
      ],
      "name": "RoleAdminChanged",
      "type": "event"
    },
    {
      "anonymous": false,
      "inputs": [
        {
          "indexed": true,
          "internalType": "bytes32",
          "name": "role",
          "type": "bytes32"
        },
        {
          "indexed": true,
          "internalType": "address",
          "name": "account",
          "type": "address"
        },
        {
          "indexed": true,
          "internalType": "address",
          "name": "sender",
          "type": "address"
        }
      ],
      "name": "RoleGranted",
      "type": "event"
    },
    {
      "anonymous": false,
      "inputs": [
        {
          "indexed": true,
          "internalType": "bytes32",
          "name": "role",
          "type": "bytes32"
        },
        {
          "indexed": true,
          "internalType": "address",
          "name": "account",
          "type": "address"
        },
        {
          "indexed": true,
          "internalType": "address",
          "name": "sender",
          "type": "address"
        }
      ],
      "name": "RoleRevoked",
      "type": "event"
    },
    {
      "anonymous": false,
      "inputs": [
        {
          "indexed": true,
          "internalType": "uint48",
          "name": "oldDuration",
          "type": "uint48"
        },
        {
          "indexed": true,
          "internalType": "uint48",
          "name": "newDuration",
          "type": "uint48"
        }
      ],
      "name": "ShortFreezeDurationSet",
      "type": "event"
    },
    {
      "anonymous": false,
      "inputs": [
        {
          "indexed": true,
          "internalType": "contract IStRSR",
          "name": "oldVal",
          "type": "address"
        },
        {
          "indexed": true,
          "internalType": "contract IStRSR",
          "name": "newVal",
          "type": "address"
        }
      ],
      "name": "StRSRSet",
      "type": "event"
    },
    {
      "anonymous": false,
      "inputs": [
        {
          "indexed": true,
          "internalType": "uint48",
          "name": "oldVal",
          "type": "uint48"
        },
        {
          "indexed": true,
          "internalType": "uint48",
          "name": "newVal",
          "type": "uint48"
        }
      ],
      "name": "UnfreezeAtSet",
      "type": "event"
    },
    {
      "anonymous": false,
      "inputs": [
        {
          "indexed": true,
          "internalType": "address",
          "name": "implementation",
          "type": "address"
        }
      ],
      "name": "Upgraded",
      "type": "event"
    },
    {
      "inputs": [],
      "name": "DEFAULT_ADMIN_ROLE",
      "outputs": [
        {
          "internalType": "bytes32",
          "name": "",
          "type": "bytes32"
        }
      ],
      "stateMutability": "view",
      "type": "function"
    },
    {
      "inputs": [],
      "name": "LONG_FREEZER_ROLE",
      "outputs": [
        {
          "internalType": "bytes32",
          "name": "",
          "type": "bytes32"
        }
      ],
      "stateMutability": "view",
      "type": "function"
    },
    {
      "inputs": [],
      "name": "OWNER_ROLE",
      "outputs": [
        {
          "internalType": "bytes32",
          "name": "",
          "type": "bytes32"
        }
      ],
      "stateMutability": "view",
      "type": "function"
    },
    {
      "inputs": [],
      "name": "PAUSER_ROLE",
      "outputs": [
        {
          "internalType": "bytes32",
          "name": "",
          "type": "bytes32"
        }
      ],
      "stateMutability": "view",
      "type": "function"
    },
    {
      "inputs": [],
      "name": "SHORT_FREEZER_ROLE",
      "outputs": [
        {
          "internalType": "bytes32",
          "name": "",
          "type": "bytes32"
        }
      ],
      "stateMutability": "view",
      "type": "function"
    },
    {
      "inputs": [],
      "name": "assetRegistry",
      "outputs": [
        {
          "internalType": "contract IAssetRegistry",
          "name": "",
          "type": "address"
        }
      ],
      "stateMutability": "view",
      "type": "function"
    },
    {
      "inputs": [],
      "name": "backingManager",
      "outputs": [
        {
          "internalType": "contract IBackingManager",
          "name": "",
          "type": "address"
        }
      ],
      "stateMutability": "view",
      "type": "function"
    },
    {
      "inputs": [],
      "name": "basketHandler",
      "outputs": [
        {
          "internalType": "contract IBasketHandler",
          "name": "",
          "type": "address"
        }
      ],
      "stateMutability": "view",
      "type": "function"
    },
    {
      "inputs": [],
      "name": "broker",
      "outputs": [
        {
          "internalType": "contract IBroker",
          "name": "",
          "type": "address"
        }
      ],
      "stateMutability": "view",
      "type": "function"
    },
    {
      "inputs": [],
      "name": "distributor",
      "outputs": [
        {
          "internalType": "contract IDistributor",
          "name": "",
          "type": "address"
        }
      ],
      "stateMutability": "view",
      "type": "function"
    },
    {
      "inputs": [],
      "name": "freezeForever",
      "outputs": [],
      "stateMutability": "nonpayable",
      "type": "function"
    },
    {
      "inputs": [],
      "name": "freezeLong",
      "outputs": [],
      "stateMutability": "nonpayable",
      "type": "function"
    },
    {
      "inputs": [],
      "name": "freezeShort",
      "outputs": [],
      "stateMutability": "nonpayable",
      "type": "function"
    },
    {
      "inputs": [],
      "name": "frozen",
      "outputs": [
        {
          "internalType": "bool",
          "name": "",
          "type": "bool"
        }
      ],
      "stateMutability": "view",
      "type": "function"
    },
    {
      "inputs": [],
      "name": "furnace",
      "outputs": [
        {
          "internalType": "contract IFurnace",
          "name": "",
          "type": "address"
        }
      ],
      "stateMutability": "view",
      "type": "function"
    },
    {
      "inputs": [
        {
          "internalType": "bytes32",
          "name": "role",
          "type": "bytes32"
        }
      ],
      "name": "getRoleAdmin",
      "outputs": [
        {
          "internalType": "bytes32",
          "name": "",
          "type": "bytes32"
        }
      ],
      "stateMutability": "view",
      "type": "function"
    },
    {
      "inputs": [
        {
          "internalType": "bytes32",
          "name": "role",
          "type": "bytes32"
        },
        {
          "internalType": "address",
          "name": "account",
          "type": "address"
        }
      ],
      "name": "grantRole",
      "outputs": [],
      "stateMutability": "nonpayable",
      "type": "function"
    },
    {
      "inputs": [
        {
          "internalType": "bytes32",
          "name": "role",
          "type": "bytes32"
        },
        {
          "internalType": "address",
          "name": "account",
          "type": "address"
        }
      ],
      "name": "hasRole",
      "outputs": [
        {
          "internalType": "bool",
          "name": "",
          "type": "bool"
        }
      ],
      "stateMutability": "view",
      "type": "function"
    },
    {
      "inputs": [
        {
          "components": [
            {
              "internalType": "contract IRToken",
              "name": "rToken",
              "type": "address"
            },
            {
              "internalType": "contract IStRSR",
              "name": "stRSR",
              "type": "address"
            },
            {
              "internalType": "contract IAssetRegistry",
              "name": "assetRegistry",
              "type": "address"
            },
            {
              "internalType": "contract IBasketHandler",
              "name": "basketHandler",
              "type": "address"
            },
            {
              "internalType": "contract IBackingManager",
              "name": "backingManager",
              "type": "address"
            },
            {
              "internalType": "contract IDistributor",
              "name": "distributor",
              "type": "address"
            },
            {
              "internalType": "contract IFurnace",
              "name": "furnace",
              "type": "address"
            },
            {
              "internalType": "contract IBroker",
              "name": "broker",
              "type": "address"
            },
            {
              "internalType": "contract IRevenueTrader",
              "name": "rsrTrader",
              "type": "address"
            },
            {
              "internalType": "contract IRevenueTrader",
              "name": "rTokenTrader",
              "type": "address"
            }
          ],
          "internalType": "struct Components",
          "name": "components",
          "type": "tuple"
        },
        {
          "internalType": "contract IERC20",
          "name": "rsr_",
          "type": "address"
        },
        {
          "internalType": "uint48",
          "name": "shortFreeze_",
          "type": "uint48"
        },
        {
          "internalType": "uint48",
          "name": "longFreeze_",
          "type": "uint48"
        }
      ],
      "name": "init",
      "outputs": [],
      "stateMutability": "nonpayable",
      "type": "function"
    },
    {
      "inputs": [],
      "name": "longFreeze",
      "outputs": [
        {
          "internalType": "uint48",
          "name": "",
          "type": "uint48"
        }
      ],
      "stateMutability": "view",
      "type": "function"
    },
    {
      "inputs": [
        {
          "internalType": "address",
          "name": "",
          "type": "address"
        }
      ],
      "name": "longFreezes",
      "outputs": [
        {
          "internalType": "uint256",
          "name": "",
          "type": "uint256"
        }
      ],
      "stateMutability": "view",
      "type": "function"
    },
    {
      "inputs": [],
      "name": "newValue",
      "outputs": [
        {
          "internalType": "uint256",
          "name": "",
          "type": "uint256"
        }
      ],
      "stateMutability": "view",
      "type": "function"
    },
    {
      "inputs": [],
      "name": "pause",
      "outputs": [],
      "stateMutability": "nonpayable",
      "type": "function"
    },
    {
      "inputs": [],
      "name": "paused",
      "outputs": [
        {
          "internalType": "bool",
          "name": "",
          "type": "bool"
        }
      ],
      "stateMutability": "view",
      "type": "function"
    },
    {
      "inputs": [],
      "name": "pausedOrFrozen",
      "outputs": [
        {
          "internalType": "bool",
          "name": "",
          "type": "bool"
        }
      ],
      "stateMutability": "view",
      "type": "function"
    },
    {
      "inputs": [],
      "name": "poke",
      "outputs": [],
      "stateMutability": "nonpayable",
      "type": "function"
    },
    {
      "inputs": [],
      "name": "proxiableUUID",
      "outputs": [
        {
          "internalType": "bytes32",
          "name": "",
          "type": "bytes32"
        }
      ],
      "stateMutability": "view",
      "type": "function"
    },
    {
      "inputs": [],
      "name": "rToken",
      "outputs": [
        {
          "internalType": "contract IRToken",
          "name": "",
          "type": "address"
        }
      ],
      "stateMutability": "view",
      "type": "function"
    },
    {
      "inputs": [],
      "name": "rTokenTrader",
      "outputs": [
        {
          "internalType": "contract IRevenueTrader",
          "name": "",
          "type": "address"
        }
      ],
      "stateMutability": "view",
      "type": "function"
    },
    {
      "inputs": [
        {
          "internalType": "bytes32",
          "name": "role",
          "type": "bytes32"
        },
        {
          "internalType": "address",
          "name": "account",
          "type": "address"
        }
      ],
      "name": "renounceRole",
      "outputs": [],
      "stateMutability": "nonpayable",
      "type": "function"
    },
    {
      "inputs": [
        {
          "internalType": "bytes32",
          "name": "role",
          "type": "bytes32"
        },
        {
          "internalType": "address",
          "name": "account",
          "type": "address"
        }
      ],
      "name": "revokeRole",
      "outputs": [],
      "stateMutability": "nonpayable",
      "type": "function"
    },
    {
      "inputs": [],
      "name": "rsr",
      "outputs": [
        {
          "internalType": "contract IERC20",
          "name": "",
          "type": "address"
        }
      ],
      "stateMutability": "view",
      "type": "function"
    },
    {
      "inputs": [],
      "name": "rsrTrader",
      "outputs": [
        {
          "internalType": "contract IRevenueTrader",
          "name": "",
          "type": "address"
        }
      ],
      "stateMutability": "view",
      "type": "function"
    },
    {
      "inputs": [
        {
          "internalType": "uint48",
          "name": "longFreeze_",
          "type": "uint48"
        }
      ],
      "name": "setLongFreeze",
      "outputs": [],
      "stateMutability": "nonpayable",
      "type": "function"
    },
    {
      "inputs": [
        {
          "internalType": "uint256",
          "name": "newValue_",
          "type": "uint256"
        }
      ],
      "name": "setNewValue",
      "outputs": [],
      "stateMutability": "nonpayable",
      "type": "function"
    },
    {
      "inputs": [
        {
          "internalType": "uint48",
          "name": "shortFreeze_",
          "type": "uint48"
        }
      ],
      "name": "setShortFreeze",
      "outputs": [],
      "stateMutability": "nonpayable",
      "type": "function"
    },
    {
      "inputs": [],
      "name": "shortFreeze",
      "outputs": [
        {
          "internalType": "uint48",
          "name": "",
          "type": "uint48"
        }
      ],
      "stateMutability": "view",
      "type": "function"
    },
    {
      "inputs": [],
      "name": "stRSR",
      "outputs": [
        {
          "internalType": "contract IStRSR",
          "name": "",
          "type": "address"
        }
      ],
      "stateMutability": "view",
      "type": "function"
    },
    {
      "inputs": [
        {
          "internalType": "bytes4",
          "name": "interfaceId",
          "type": "bytes4"
        }
      ],
      "name": "supportsInterface",
      "outputs": [
        {
          "internalType": "bool",
          "name": "",
          "type": "bool"
        }
      ],
      "stateMutability": "view",
      "type": "function"
    },
    {
      "inputs": [],
      "name": "unfreeze",
      "outputs": [],
      "stateMutability": "nonpayable",
      "type": "function"
    },
    {
      "inputs": [],
      "name": "unfreezeAt",
      "outputs": [
        {
          "internalType": "uint48",
          "name": "",
          "type": "uint48"
        }
      ],
      "stateMutability": "view",
      "type": "function"
    },
    {
      "inputs": [],
      "name": "unpause",
      "outputs": [],
      "stateMutability": "nonpayable",
      "type": "function"
    },
    {
      "inputs": [
        {
          "internalType": "address",
          "name": "newImplementation",
          "type": "address"
        }
      ],
      "name": "upgradeTo",
      "outputs": [],
      "stateMutability": "nonpayable",
      "type": "function"
    },
    {
      "inputs": [
        {
          "internalType": "address",
          "name": "newImplementation",
          "type": "address"
        },
        {
          "internalType": "bytes",
          "name": "data",
          "type": "bytes"
        }
      ],
      "name": "upgradeToAndCall",
      "outputs": [],
      "stateMutability": "payable",
      "type": "function"
    },
    {
      "inputs": [],
      "name": "version",
      "outputs": [
        {
          "internalType": "string",
          "name": "",
          "type": "string"
        }
      ],
      "stateMutability": "pure",
      "type": "function"
    }
  ],
  "bytecode": "0x60a0604052306080523480156200001557600080fd5b50600054610100900460ff1615808015620000375750600054600160ff909116105b8062000067575062000054306200014160201b620015c91760201c565b15801562000067575060005460ff166001145b620000cf5760405162461bcd60e51b815260206004820152602e60248201527f496e697469616c697a61626c653a20636f6e747261637420697320616c72656160448201526d191e481a5b9a5d1a585b1a5e995960921b606482015260840160405180910390fd5b6000805460ff191660011790558015620000f3576000805461ff0019166101001790555b80156200013a576000805461ff0019169055604051600181527f7f26b83ff96e1f2b6a682f133852f6798a09c465da95921460cefb38474024989060200160405180910390a15b5062000150565b6001600160a01b03163b151590565b608051612da96200018860003960008181610bda01528181610c1a01528181610d3301528181610d730152610f0d0152612da96000f3fe6080604052600436106102725760003560e01c8063656e96e11161014f578063abff0110116100c1578063e083b5e61161007a578063e083b5e614610751578063e58378bb1461077e578063e63ab1e914610793578063f1706375146107a8578063f8aa0c4e146107bd578063fe8aa12a146107e357600080fd5b8063abff011014610690578063bfe10928146106b0578063c99dc3dd146106d0578063d547741f146106f1578063dc8af5f614610711578063de1611cf1461073157600080fd5b806391d148541161011357806391d14854146105e657806394c7f29914610606578063951c40771461061b578063979d7e861461063b578063992e1d6a1461065b578063a217fddf1461067b57600080fd5b8063656e96e1146105665780636a28f00014610586578063705a66181461059b5780637c65452c146105ba5780638456cb59146105d157600080fd5b80633f4ba83a116101e85780635187ae68116101ac5780635187ae68146104a757806352d1902d146104c757806353136763146104dc57806354fd4d50146104fc578063590f6b1a146105305780635c975abb1461054557600080fd5b80633f4ba83a1461041f57806340c65f721461043457806341bf0c4e146104545780634780a5e5146104745780634f1ef2861461049457600080fd5b80632b56d18a1161023a5780632b56d18a146103355780632d870960146103725780632f2439b1146103875780632f2ff15d146103bf57806336568abe146103df5780633659cfe6146103ff57600080fd5b806301ffc9a714610277578063054f7d9c146102ac5780630f702ed3146102cb57806318178358146102e2578063248a9ca3146102f7575b600080fd5b34801561028357600080fd5b5061029761029236600461274d565b6107f8565b60405190151581526020015b60405180910390f35b3480156102b857600080fd5b5060985465ffffffffffff164210610297565b3480156102d757600080fd5b506102e061082f565b005b3480156102ee57600080fd5b506102e06108c7565b34801561030357600080fd5b50610327610312366004612777565b60009081526065602052604090206001015490565b6040519081526020016102a3565b34801561034157600080fd5b5060985461035b90600160301b900465ffffffffffff1681565b60405165ffffffffffff90911681526020016102a3565b34801561037e57600080fd5b50610327610a4e565b34801561039357600080fd5b5060cc546103a7906001600160a01b031681565b6040516001600160a01b0390911681526020016102a3565b3480156103cb57600080fd5b506102e06103da3660046127a5565b610a7f565b3480156103eb57600080fd5b506102e06103fa3660046127a5565b610b51565b34801561040b57600080fd5b506102e061041a3660046127d5565b610bcf565b34801561042b57600080fd5b506102e0610cac565b34801561044057600080fd5b5060c9546103a7906001600160a01b031681565b34801561046057600080fd5b5060d0546103a7906001600160a01b031681565b34801561048057600080fd5b5060ca546103a7906001600160a01b031681565b6102e06104a2366004612863565b610d28565b3480156104b357600080fd5b506102e06104c2366004612926565b610df5565b3480156104d357600080fd5b50610327610f00565b3480156104e857600080fd5b5060cf546103a7906001600160a01b031681565b34801561050857600080fd5b5060408051808201825260058152640322e302e360dc1b602082015290516102a3919061296d565b34801561053c57600080fd5b50610327610fb3565b34801561055157600080fd5b5060985461029790600160901b900460ff1681565b34801561057257600080fd5b5060d1546103a7906001600160a01b031681565b34801561059257600080fd5b506102e0610fe2565b3480156105a757600080fd5b5060985461035b9065ffffffffffff1681565b3480156105c657600080fd5b506103276101915481565b3480156105dd57600080fd5b506102e0611067565b3480156105f257600080fd5b506102976106013660046127a5565b6110ea565b34801561061257600080fd5b506102e0611118565b34801561062757600080fd5b506102e0610636366004612777565b611157565b34801561064757600080fd5b5060cb546103a7906001600160a01b031681565b34801561066757600080fd5b506102e06106763660046129ab565b6111a5565b34801561068757600080fd5b50610327600081565b34801561069c57600080fd5b5060d2546103a7906001600160a01b031681565b3480156106bc57600080fd5b5060ce546103a7906001600160a01b031681565b3480156106dc57600080fd5b5061015f546103a7906001600160a01b031681565b3480156106fd57600080fd5b506102e061070c3660046127a5565b61135e565b34801561071d57600080fd5b5060cd546103a7906001600160a01b031681565b34801561073d57600080fd5b506102e061074c366004612926565b611383565b34801561075d57600080fd5b5061032761076c3660046127d5565b60976020526000908152604090205481565b34801561078a57600080fd5b50610327611490565b34801561079f57600080fd5b506103276114b7565b3480156107b457600080fd5b506102976114df565b3480156107c957600080fd5b5060985461035b90600160601b900465ffffffffffff1681565b3480156107ef57600080fd5b506102e0611508565b60006001600160e01b03198216637965db0b60e01b148061082957506301ffc9a760e01b6001600160e01b03198316145b92915050565b6040518060400160405280600d81526020016c29a427a92a2fa32922a2ad22a960991b81525061085e90612abd565b610867816115d8565b61089f6040518060400160405280600d81526020016c29a427a92a2fa32922a2ad22a960991b81525061089990612abd565b336115e2565b6098546108c4906108bf90600160301b900465ffffffffffff1642612afa565b611649565b50565b60cb60009054906101000a90046001600160a01b03166001600160a01b031663f8ac93e86040518163ffffffff1660e01b8152600401600060405180830381600087803b15801561091757600080fd5b505af115801561092b573d6000803e3d6000fd5b505050506109376114df565b1561097c5760405162461bcd60e51b815260206004820152601060248201526f3830bab9b2b21037b910333937bd32b760811b60448201526064015b60405180910390fd5b60d160009054906101000a90046001600160a01b03166001600160a01b0316635220f5106040518163ffffffff1660e01b8152600401600060405180830381600087803b1580156109cc57600080fd5b505af11580156109e0573d6000803e3d6000fd5b5050505060ca60009054906101000a90046001600160a01b03166001600160a01b031663296130866040518163ffffffff1660e01b8152600401600060405180830381600087803b158015610a3457600080fd5b505af1158015610a48573d6000803e3d6000fd5b50505050565b6040518060400160405280600c81526020016b2627a723afa32922a2ad22a960a11b815250610a7c90612abd565b81565b600082815260656020526040902060010154610a9a816115d8565b6001600160a01b038216610af05760405162461bcd60e51b815260206004820152601e60248201527f63616e6e6f74206772616e7420726f6c6520746f2061646472657373203000006044820152606401610973565b6040518060400160405280600c81526020016b2627a723afa32922a2ad22a960a11b815250610b1e90612abd565b831415610b42576001600160a01b0382166000908152609760205260409020600690555b610b4c83836116e8565b505050565b6001600160a01b0381163314610bc15760405162461bcd60e51b815260206004820152602f60248201527f416363657373436f6e74726f6c3a2063616e206f6e6c792072656e6f756e636560448201526e103937b632b9903337b91039b2b63360891b6064820152608401610973565b610bcb82826115e2565b5050565b306001600160a01b037f0000000000000000000000000000000000000000000000000000000000000000161415610c185760405162461bcd60e51b815260040161097390612b24565b7f00000000000000000000000000000000000000000000000000000000000000006001600160a01b0316610c61600080516020612d2d833981519152546001600160a01b031690565b6001600160a01b031614610c875760405162461bcd60e51b815260040161097390612b70565b610c908161176e565b604080516000808252602082019092526108c49183919061179e565b604051806040016040528060068152602001652820aaa9a2a960d11b815250610cd490612abd565b610cdd816115d8565b609854604051600091600160901b900460ff161515907f8a03df86592b6c04a66160b441f1d7282689edca334882d14f468dc60352b0ff908390a3506098805460ff60901b19169055565b306001600160a01b037f0000000000000000000000000000000000000000000000000000000000000000161415610d715760405162461bcd60e51b815260040161097390612b24565b7f00000000000000000000000000000000000000000000000000000000000000006001600160a01b0316610dba600080516020612d2d833981519152546001600160a01b031690565b6001600160a01b031614610de05760405162461bcd60e51b815260040161097390612b70565b610de98261176e565b610bcb8282600161179e565b6040518060400160405280600581526020016427aba722a960d91b815250610e1c90612abd565b610e25816115d8565b60008265ffffffffffff16118015610e4957506301e1338065ffffffffffff831611155b610e955760405162461bcd60e51b815260206004820152601860248201527f6c6f6e6720667265657a65206f7574206f662072616e676500000000000000006044820152606401610973565b60985460405165ffffffffffff80851692600160601b900416907f2b855a9093ce8fb8bd37179aa306b424a5008d3a000751f4c2e721c51b89f9a290600090a3506098805465ffffffffffff909216600160601b0265ffffffffffff60601b19909216919091179055565b6000306001600160a01b037f00000000000000000000000000000000000000000000000000000000000000001614610fa05760405162461bcd60e51b815260206004820152603860248201527f555550535570677261646561626c653a206d757374206e6f742062652063616c60448201527f6c6564207468726f7567682064656c656761746563616c6c00000000000000006064820152608401610973565b50600080516020612d2d83398151915290565b6040518060400160405280600d81526020016c29a427a92a2fa32922a2ad22a960991b815250610a7c90612abd565b6040518060400160405280600581526020016427aba722a960d91b81525061100990612abd565b611012816115d8565b60985460405165ffffffffffff4281169216907f4fd793fe252ef26ede0a814ca52971990ff5ade10f86376fb1914bfb17c57e0890600090a3506098805465ffffffffffff19164265ffffffffffff16179055565b604051806040016040528060068152602001652820aaa9a2a960d11b81525061108f90612abd565b611098816115d8565b609854604051600191600160901b900460ff161515907f8a03df86592b6c04a66160b441f1d7282689edca334882d14f468dc60352b0ff90600090a3506098805460ff60901b1916600160901b179055565b60008281526065602090815260408083206001600160a01b038516845290915281205460ff165b9392505050565b6040518060400160405280600581526020016427aba722a960d91b81525061113f90612abd565b611148816115d8565b6108c465ffffffffffff611649565b61115f6114df565b1561119f5760405162461bcd60e51b815260206004820152601060248201526f3830bab9b2b21037b910333937bd32b760811b6044820152606401610973565b61019155565b600054610100900460ff16158080156111c55750600054600160ff909116105b806111df5750303b1580156111df575060005460ff166001145b6112425760405162461bcd60e51b815260206004820152602e60248201527f496e697469616c697a61626c653a20636f6e747261637420697320616c72656160448201526d191e481a5b9a5d1a585b1a5e995960921b6064820152608401610973565b6000805460ff191660011790558015611265576000805461ff0019166101001790555b6001600160a01b0384166112b15760405162461bcd60e51b8152602060048201526013602482015272696e76616c696420525352206164647265737360681b6044820152606401610973565b6112bb8383611918565b6112c485611b18565b6112cc611bc1565b61015f80546001600160a01b0319166001600160a01b0386161790556040517fb3d8a26384852953cab1d93ea954a4ac74e1dc9f5c29576d4a4f45cdb230130e90600090a18015611357576000805461ff0019169055604051600181527f7f26b83ff96e1f2b6a682f133852f6798a09c465da95921460cefb38474024989060200160405180910390a15b5050505050565b600082815260656020526040902060010154611379816115d8565b610b4c83836115e2565b6040518060400160405280600581526020016427aba722a960d91b8152506113aa90612abd565b6113b3816115d8565b60008265ffffffffffff161180156113d6575062278d0065ffffffffffff831611155b6114225760405162461bcd60e51b815260206004820152601960248201527f73686f727420667265657a65206f7574206f662072616e6765000000000000006044820152606401610973565b60985460405165ffffffffffff80851692600160301b900416907f84af4c1855ea2ef70449c6ae7119d367873ea35277b9681e0e47898900266f9490600090a3506098805465ffffffffffff909216600160301b026bffffffffffff00000000000019909216919091179055565b6040518060400160405280600581526020016427aba722a960d91b815250610a7c90612abd565b604051806040016040528060068152602001652820aaa9a2a960d11b815250610a7c90612abd565b609854600090600160901b900460ff1680611503575060985465ffffffffffff1642105b905090565b6040518060400160405280600c81526020016b2627a723afa32922a2ad22a960a11b81525061153690612abd565b61153f816115d8565b33600090815260976020526040812080546001929061155f908490612bbc565b9091555050336000908152609760205260409020546115a9576115a96040518060400160405280600c81526020016b2627a723afa32922a2ad22a960a11b81525061089990612abd565b6098546108c4906108bf90600160601b900465ffffffffffff1642612afa565b6001600160a01b03163b151590565b6108c48133611bea565b6115ec82826110ea565b15610bcb5760008281526065602090815260408083206001600160a01b0385168085529252808320805460ff1916905551339285917ff6391f5c32d9c69d2a47ea670b442974b53935d1edc7fd64eb21e047a839171b9190a45050565b60985465ffffffffffff9081169082161161168f5760405162461bcd60e51b8152602060048201526006602482015265333937bd32b760d11b6044820152606401610973565b60985460405165ffffffffffff8084169216907f4fd793fe252ef26ede0a814ca52971990ff5ade10f86376fb1914bfb17c57e0890600090a36098805465ffffffffffff191665ffffffffffff92909216919091179055565b6116f282826110ea565b610bcb5760008281526065602090815260408083206001600160a01b03851684529091529020805460ff1916600117905561172a3390565b6001600160a01b0316816001600160a01b0316837f2f8788117e7eff1d82e926ec794901d17c78024a50270940304540a733656f0d60405160405180910390a45050565b6040518060400160405280600581526020016427aba722a960d91b81525061179590612abd565b610bcb816115d8565b7f4910fdfa16fed3260ed0e7147f7cc6da11a60208b5b9406d12a635614ffd91435460ff16156117d157610b4c83611c43565b826001600160a01b03166352d1902d6040518163ffffffff1660e01b815260040160206040518083038186803b15801561180a57600080fd5b505afa92505050801561183a575060408051601f3d908101601f1916820190925261183791810190612bd3565b60015b61189d5760405162461bcd60e51b815260206004820152602e60248201527f45524331393637557067726164653a206e657720696d706c656d656e7461746960448201526d6f6e206973206e6f74205555505360901b6064820152608401610973565b600080516020612d2d833981519152811461190c5760405162461bcd60e51b815260206004820152602960248201527f45524331393637557067726164653a20756e737570706f727465642070726f786044820152681a58589b195555525160ba1b6064820152608401610973565b50610b4c838383611cdf565b600054610100900460ff1661193f5760405162461bcd60e51b815260040161097390612bec565b611947611bc1565b61199d6040518060400160405280600581526020016427aba722a960d91b81525061197190612abd565b6040518060400160405280600581526020016427aba722a960d91b81525061199890612abd565b611d04565b6119cf6040518060400160405280600d81526020016c29a427a92a2fa32922a2ad22a960991b81525061197190612abd565b611a006040518060400160405280600c81526020016b2627a723afa32922a2ad22a960a11b81525061197190612abd565b611a2b604051806040016040528060068152602001652820aaa9a2a960d11b81525061197190612abd565b60408051808201909152600581526427aba722a960d91b60208201523390611a5c90611a5690612abd565b826116e8565b611a8e6040518060400160405280600d81526020016c29a427a92a2fa32922a2ad22a960991b815250611a5690612abd565b611abf6040518060400160405280600c81526020016b2627a723afa32922a2ad22a960a11b815250611a5690612abd565b611aea604051806040016040528060068152602001652820aaa9a2a960d11b815250611a5690612abd565b6001600160a01b038116600090815260976020526040902060069055611b0f83611383565b610b4c82610df5565b600054610100900460ff16611b3f5760405162461bcd60e51b815260040161097390612bec565b611b4c8160800151611d4f565b611b598160600151611e01565b611b67816101000151611eb3565b611b75816101200151611f65565b611b828160400151612017565b611b8f8160a001516120c9565b611b9c8160c0015161217b565b611ba98160e0015161222d565b611bb681602001516122d8565b80516108c490612382565b600054610100900460ff16611be85760405162461bcd60e51b815260040161097390612bec565b565b611bf482826110ea565b610bcb57611c018161242d565b611c0c83602061243f565b604051602001611c1d929190612c37565b60408051601f198184030181529082905262461bcd60e51b82526109739160040161296d565b6001600160a01b0381163b611cb05760405162461bcd60e51b815260206004820152602d60248201527f455243313936373a206e657720696d706c656d656e746174696f6e206973206e60448201526c1bdd08184818dbdb9d1c9858dd609a1b6064820152608401610973565b600080516020612d2d83398151915280546001600160a01b0319166001600160a01b0392909216919091179055565b611ce8836125db565b600082511180611cf55750805b15610b4c57610a48838361261b565b600082815260656020526040808220600101805490849055905190918391839186917fbd79b86ffe0ab8e8776151514217cd7cacd52c909f66475c3af44e129f0b00ff9190a4505050565b6001600160a01b038116611da55760405162461bcd60e51b815260206004820152601e60248201527f696e76616c6964204261636b696e674d616e61676572206164647265737300006044820152606401610973565b60cd546040516001600160a01b038084169216907fd4ec685c4e7367fc82d24a1c90d8c91c07a0e204b5b4655fc1a6d5b6b9d9eeb790600090a360cd80546001600160a01b0319166001600160a01b0392909216919091179055565b6001600160a01b038116611e575760405162461bcd60e51b815260206004820152601d60248201527f696e76616c6964204261736b657448616e646c657220616464726573730000006044820152606401610973565b60cc546040516001600160a01b038084169216907fa41efa7d680b9ae9379ca75b956c50587b28ed07453f7d19388c7199397a1e8e90600090a360cc80546001600160a01b0319166001600160a01b0392909216919091179055565b6001600160a01b038116611f095760405162461bcd60e51b815260206004820152601960248201527f696e76616c6964205253525472616465722061646472657373000000000000006044820152606401610973565b60cf546040516001600160a01b038084169216907f2fa6596476f0ebdb5fef9a37bedb7ef956e0e1c4e094464cbf49c38f44f7e8d190600090a360cf80546001600160a01b0319166001600160a01b0392909216919091179055565b6001600160a01b038116611fbb5760405162461bcd60e51b815260206004820152601c60248201527f696e76616c69642052546f6b656e5472616465722061646472657373000000006044820152606401610973565b60d0546040516001600160a01b038084169216907f0d76a5d5849780e9a81127e61df7ee55bf3f766bc326510d3a52ede3caea168f90600090a360d080546001600160a01b0319166001600160a01b0392909216919091179055565b6001600160a01b03811661206d5760405162461bcd60e51b815260206004820152601d60248201527f696e76616c6964204173736574526567697374727920616464726573730000006044820152606401610973565b60cb546040516001600160a01b038084169216907f5c69d378772ea2f02015deabd3b7ee1db0851dba819e216585de7a155d22a14890600090a360cb80546001600160a01b0319166001600160a01b0392909216919091179055565b6001600160a01b03811661211f5760405162461bcd60e51b815260206004820152601b60248201527f696e76616c6964204469737472696275746f72206164647265737300000000006044820152606401610973565b60ce546040516001600160a01b038084169216907f8c6eabd1db7fe5a1951a7c78767c0e3633c5352578d15d45f99aa4c4db01c55a90600090a360ce80546001600160a01b0319166001600160a01b0392909216919091179055565b6001600160a01b0381166121d15760405162461bcd60e51b815260206004820152601760248201527f696e76616c6964204675726e61636520616464726573730000000000000000006044820152606401610973565b60d1546040516001600160a01b038084169216907fe0c9d7fae2ccca1a3980ce26aada40d9f7fc84406cdb3adbdcfb8f9dd21c9b5390600090a360d180546001600160a01b0319166001600160a01b0392909216919091179055565b6001600160a01b03811661227c5760405162461bcd60e51b8152602060048201526016602482015275696e76616c69642042726f6b6572206164647265737360501b6044820152606401610973565b60d2546040516001600160a01b038084169216907fc29cab4074359a76aba74458623910a8b95269ded89ad9f98cd2db1de3ead35690600090a360d280546001600160a01b0319166001600160a01b0392909216919091179055565b6001600160a01b0381166123265760405162461bcd60e51b8152602060048201526015602482015274696e76616c6964205374525352206164647265737360581b6044820152606401610973565b60ca546040516001600160a01b038084169216907f1b29dc90e15d6ade122a9e27d886b4a077e66131c7e0cc805fc303e49690c9fc90600090a360ca80546001600160a01b0319166001600160a01b0392909216919091179055565b6001600160a01b0381166123d15760405162461bcd60e51b8152602060048201526016602482015275696e76616c69642052546f6b656e206164647265737360501b6044820152606401610973565b60c9546040516001600160a01b038084169216907f2d2909c1d06afe38080a70d63a8793874674efb0fdf3b3bf3fd046056688b3ea90600090a360c980546001600160a01b0319166001600160a01b0392909216919091179055565b60606108296001600160a01b03831660145b6060600061244e836002612cac565b612459906002612ccb565b67ffffffffffffffff811115612471576124716127f2565b6040519080825280601f01601f19166020018201604052801561249b576020820181803683370190505b509050600360fc1b816000815181106124b6576124b6612ce3565b60200101906001600160f81b031916908160001a905350600f60fb1b816001815181106124e5576124e5612ce3565b60200101906001600160f81b031916908160001a9053506000612509846002612cac565b612514906001612ccb565b90505b600181111561258c576f181899199a1a9b1b9c1cb0b131b232b360811b85600f166010811061254857612548612ce3565b1a60f81b82828151811061255e5761255e612ce3565b60200101906001600160f81b031916908160001a90535060049490941c9361258581612cf9565b9050612517565b5083156111115760405162461bcd60e51b815260206004820181905260248201527f537472696e67733a20686578206c656e67746820696e73756666696369656e746044820152606401610973565b6125e481611c43565b6040516001600160a01b038216907fbc7cd75a20ee27fd9adebab32041f755214dbc6bffa90cc0225b39da2e5c2d3b90600090a250565b60606001600160a01b0383163b6126835760405162461bcd60e51b815260206004820152602660248201527f416464726573733a2064656c65676174652063616c6c20746f206e6f6e2d636f6044820152651b9d1c9858dd60d21b6064820152608401610973565b600080846001600160a01b03168460405161269e9190612d10565b600060405180830381855af49150503d80600081146126d9576040519150601f19603f3d011682016040523d82523d6000602084013e6126de565b606091505b50915091506127068282604051806060016040528060278152602001612d4d6027913961270f565b95945050505050565b6060831561271e575081611111565b61111183838151156127335781518083602001fd5b8060405162461bcd60e51b8152600401610973919061296d565b60006020828403121561275f57600080fd5b81356001600160e01b03198116811461111157600080fd5b60006020828403121561278957600080fd5b5035919050565b6001600160a01b03811681146108c457600080fd5b600080604083850312156127b857600080fd5b8235915060208301356127ca81612790565b809150509250929050565b6000602082840312156127e757600080fd5b813561111181612790565b634e487b7160e01b600052604160045260246000fd5b604051610140810167ffffffffffffffff8111828210171561282c5761282c6127f2565b60405290565b604051601f8201601f1916810167ffffffffffffffff8111828210171561285b5761285b6127f2565b604052919050565b6000806040838503121561287657600080fd5b823561288181612790565b915060208381013567ffffffffffffffff8082111561289f57600080fd5b818601915086601f8301126128b357600080fd5b8135818111156128c5576128c56127f2565b6128d7601f8201601f19168501612832565b915080825287848285010111156128ed57600080fd5b80848401858401376000848284010152508093505050509250929050565b803565ffffffffffff8116811461292157600080fd5b919050565b60006020828403121561293857600080fd5b6111118261290b565b60005b8381101561295c578181015183820152602001612944565b83811115610a485750506000910152565b602081526000825180602084015261298c816040850160208701612941565b601f01601f19169190910160400192915050565b803561292181612790565b6000806000808486036101a08112156129c357600080fd5b610140808212156129d357600080fd5b6129db612808565b91506129e6876129a0565b82526129f4602088016129a0565b6020830152612a05604088016129a0565b6040830152612a16606088016129a0565b6060830152612a27608088016129a0565b6080830152612a3860a088016129a0565b60a0830152612a4960c088016129a0565b60c0830152612a5a60e088016129a0565b60e0830152610100612a6d8189016129a0565b90830152610120612a7f8882016129a0565b8184015250819550612a928188016129a0565b94505050612aa3610160860161290b565b9150612ab2610180860161290b565b905092959194509250565b80516020808301519190811015612ade576000198160200360031b1b821691505b50919050565b634e487b7160e01b600052601160045260246000fd5b600065ffffffffffff808316818516808303821115612b1b57612b1b612ae4565b01949350505050565b6020808252602c908201527f46756e6374696f6e206d7573742062652063616c6c6564207468726f7567682060408201526b19195b1959d85d1958d85b1b60a21b606082015260800190565b6020808252602c908201527f46756e6374696f6e206d7573742062652063616c6c6564207468726f7567682060408201526b6163746976652070726f787960a01b606082015260800190565b600082821015612bce57612bce612ae4565b500390565b600060208284031215612be557600080fd5b5051919050565b6020808252602b908201527f496e697469616c697a61626c653a20636f6e7472616374206973206e6f74206960408201526a6e697469616c697a696e6760a81b606082015260800190565b7f416363657373436f6e74726f6c3a206163636f756e7420000000000000000000815260008351612c6f816017850160208801612941565b7001034b99036b4b9b9b4b733903937b6329607d1b6017918401918201528351612ca0816028840160208801612941565b01602801949350505050565b6000816000190483118215151615612cc657612cc6612ae4565b500290565b60008219821115612cde57612cde612ae4565b500190565b634e487b7160e01b600052603260045260246000fd5b600081612d0857612d08612ae4565b506000190190565b60008251612d22818460208701612941565b919091019291505056fe360894a13ba1a3210667c828492db98dca3e2076cc3735a920a3ca505d382bbc416464726573733a206c6f772d6c6576656c2064656c65676174652063616c6c206661696c6564a26469706673582212207d29e2035a096d441511cdc0524881b3cc83f0bff65fefcefc942942751151c364736f6c63430008090033",
  "linkReferences": {},
  "deployedLinkReferences": {}
}