{
  "_format": "hh-sol-artifact-1",
  "contractName": "RewardControl",
  "sourceName": "contracts/RewardControl.sol",
  "abi": [
    {
      "inputs": [
        {
          "internalType": "address",
          "name": "deltaVerified_",
          "type": "address"
        },
        {
          "internalType": "address",
          "name": "deltaOpen_",
          "type": "address"
        },
        {
          "internalType": "address",
          "name": "dltAddress_",
          "type": "address"
        }
      ],
      "stateMutability": "nonpayable",
      "type": "constructor"
    },
    {
      "anonymous": false,
      "inputs": [
        {
          "indexed": true,
          "internalType": "address",
          "name": "market",
          "type": "address"
        },
        {
          "indexed": true,
          "internalType": "address",
          "name": "borrower",
          "type": "address"
        },
        {
          "indexed": false,
          "internalType": "uint256",
          "name": "borrowerDelta",
          "type": "uint256"
        },
        {
          "indexed": false,
          "internalType": "uint256",
          "name": "borrowerAccruedDlt",
          "type": "uint256"
        },
        {
          "indexed": false,
          "internalType": "uint256",
          "name": "borrowIndexMantissa",
          "type": "uint256"
        },
        {
          "indexed": false,
          "internalType": "bool",
          "name": "isVerified",
          "type": "bool"
        }
      ],
      "name": "DistributedBorrowerDlt",
      "type": "event"
    },
    {
      "anonymous": false,
      "inputs": [
        {
          "indexed": true,
          "internalType": "address",
          "name": "market",
          "type": "address"
        },
        {
          "indexed": true,
          "internalType": "address",
          "name": "supplier",
          "type": "address"
        },
        {
          "indexed": false,
          "internalType": "uint256",
          "name": "supplierDelta",
          "type": "uint256"
        },
        {
          "indexed": false,
          "internalType": "uint256",
          "name": "supplierAccruedDlt",
          "type": "uint256"
        },
        {
          "indexed": false,
          "internalType": "uint256",
          "name": "supplyIndexMantissa",
          "type": "uint256"
        },
        {
          "indexed": false,
          "internalType": "bool",
          "name": "isVerified",
          "type": "bool"
        }
      ],
      "name": "DistributedSupplierDlt",
      "type": "event"
    },
    {
      "anonymous": false,
      "inputs": [
        {
          "indexed": true,
          "internalType": "address",
          "name": "market",
          "type": "address"
        },
        {
          "indexed": false,
          "internalType": "uint256",
          "name": "newSpeed",
          "type": "uint256"
        },
        {
          "indexed": false,
          "internalType": "bool",
          "name": "isVerified",
          "type": "bool"
        }
      ],
      "name": "DltSpeedUpdated",
      "type": "event"
    },
    {
      "anonymous": false,
      "inputs": [
        {
          "indexed": true,
          "internalType": "address",
          "name": "market",
          "type": "address"
        },
        {
          "indexed": false,
          "internalType": "uint256",
          "name": "numberOfMarkets",
          "type": "uint256"
        },
        {
          "indexed": false,
          "internalType": "bool",
          "name": "isVerified",
          "type": "bool"
        }
      ],
      "name": "MarketAdded",
      "type": "event"
    },
    {
      "anonymous": false,
      "inputs": [
        {
          "indexed": true,
          "internalType": "address",
          "name": "market",
          "type": "address"
        },
        {
          "indexed": false,
          "internalType": "uint256",
          "name": "numberOfMarkets",
          "type": "uint256"
        },
        {
          "indexed": false,
          "internalType": "bool",
          "name": "isVerified",
          "type": "bool"
        }
      ],
      "name": "MarketRemoved",
      "type": "event"
    },
    {
      "anonymous": false,
      "inputs": [
        {
          "indexed": true,
          "internalType": "address",
          "name": "owner",
          "type": "address"
        },
        {
          "indexed": true,
          "internalType": "address",
          "name": "newOwner",
          "type": "address"
        }
      ],
      "name": "OwnerUpdate",
      "type": "event"
    },
    {
      "anonymous": false,
      "inputs": [
        {
          "indexed": true,
          "internalType": "address",
          "name": "participant",
          "type": "address"
        },
        {
          "indexed": false,
          "internalType": "uint256",
          "name": "participantAccrued",
          "type": "uint256"
        },
        {
          "indexed": false,
          "internalType": "address",
          "name": "market",
          "type": "address"
        },
        {
          "indexed": false,
          "internalType": "bool",
          "name": "isVerified",
          "type": "bool"
        }
      ],
      "name": "TransferredDlt",
      "type": "event"
    },
    {
      "inputs": [],
      "name": "MAXIMUM_NUMBER_OF_MARKETS",
      "outputs": [
        {
          "internalType": "uint8",
          "name": "",
          "type": "uint8"
        }
      ],
      "stateMutability": "view",
      "type": "function"
    },
    {
      "inputs": [
        {
          "internalType": "address",
          "name": "market",
          "type": "address"
        },
        {
          "internalType": "bool",
          "name": "isVerified",
          "type": "bool"
        }
      ],
      "name": "addMarket",
      "outputs": [],
      "stateMutability": "nonpayable",
      "type": "function"
    },
    {
      "inputs": [
        {
          "internalType": "bool",
          "name": "",
          "type": "bool"
        },
        {
          "internalType": "uint256",
          "name": "",
          "type": "uint256"
        }
      ],
      "name": "allMarkets",
      "outputs": [
        {
          "internalType": "address",
          "name": "",
          "type": "address"
        }
      ],
      "stateMutability": "view",
      "type": "function"
    },
    {
      "inputs": [
        {
          "internalType": "bool",
          "name": "",
          "type": "bool"
        },
        {
          "internalType": "address",
          "name": "",
          "type": "address"
        }
      ],
      "name": "allMarketsIndex",
      "outputs": [
        {
          "internalType": "bool",
          "name": "",
          "type": "bool"
        }
      ],
      "stateMutability": "view",
      "type": "function"
    },
    {
      "inputs": [
        {
          "internalType": "address",
          "name": "holder",
          "type": "address"
        }
      ],
      "name": "claimDlt",
      "outputs": [],
      "stateMutability": "nonpayable",
      "type": "function"
    },
    {
      "inputs": [
        {
          "internalType": "address",
          "name": "holder",
          "type": "address"
        },
        {
          "internalType": "address",
          "name": "market",
          "type": "address"
        },
        {
          "internalType": "bool",
          "name": "isVerified",
          "type": "bool"
        }
      ],
      "name": "claimDlt",
      "outputs": [],
      "stateMutability": "nonpayable",
      "type": "function"
    },
    {
      "inputs": [],
      "name": "deltaOpen",
      "outputs": [
        {
          "internalType": "contract DeltaOpen",
          "name": "",
          "type": "address"
        }
      ],
      "stateMutability": "view",
      "type": "function"
    },
    {
      "inputs": [],
      "name": "deltaVerified",
      "outputs": [
        {
          "internalType": "contract DeltaVerified",
          "name": "",
          "type": "address"
        }
      ],
      "stateMutability": "view",
      "type": "function"
    },
    {
      "inputs": [
        {
          "internalType": "address",
          "name": "market",
          "type": "address"
        },
        {
          "internalType": "address",
          "name": "borrower",
          "type": "address"
        },
        {
          "internalType": "bool",
          "name": "isVerified",
          "type": "bool"
        }
      ],
      "name": "distributeBorrowerDlt",
      "outputs": [],
      "stateMutability": "nonpayable",
      "type": "function"
    },
    {
      "inputs": [
        {
          "internalType": "address",
          "name": "market",
          "type": "address"
        },
        {
          "internalType": "address",
          "name": "supplier",
          "type": "address"
        },
        {
          "internalType": "bool",
          "name": "isVerified",
          "type": "bool"
        }
      ],
      "name": "distributeSupplierDlt",
      "outputs": [],
      "stateMutability": "nonpayable",
      "type": "function"
    },
    {
      "inputs": [
        {
          "internalType": "address",
          "name": "",
          "type": "address"
        }
      ],
      "name": "dltAccrued",
      "outputs": [
        {
          "internalType": "uint256",
          "name": "",
          "type": "uint256"
        }
      ],
      "stateMutability": "view",
      "type": "function"
    },
    {
      "inputs": [],
      "name": "dltAddress",
      "outputs": [
        {
          "internalType": "address",
          "name": "",
          "type": "address"
        }
      ],
      "stateMutability": "view",
      "type": "function"
    },
    {
      "inputs": [
        {
          "internalType": "bool",
          "name": "",
          "type": "bool"
        },
        {
          "internalType": "address",
          "name": "",
          "type": "address"
        }
      ],
      "name": "dltBorrowState",
      "outputs": [
        {
          "internalType": "uint224",
          "name": "index",
          "type": "uint224"
        },
        {
          "internalType": "uint32",
          "name": "block",
          "type": "uint32"
        }
      ],
      "stateMutability": "view",
      "type": "function"
    },
    {
      "inputs": [
        {
          "internalType": "bool",
          "name": "",
          "type": "bool"
        },
        {
          "internalType": "address",
          "name": "",
          "type": "address"
        },
        {
          "internalType": "address",
          "name": "",
          "type": "address"
        }
      ],
      "name": "dltBorrowerIndex",
      "outputs": [
        {
          "internalType": "uint256",
          "name": "",
          "type": "uint256"
        }
      ],
      "stateMutability": "view",
      "type": "function"
    },
    {
      "inputs": [],
      "name": "dltRate",
      "outputs": [
        {
          "internalType": "uint256",
          "name": "",
          "type": "uint256"
        }
      ],
      "stateMutability": "view",
      "type": "function"
    },
    {
      "inputs": [
        {
          "internalType": "bool",
          "name": "",
          "type": "bool"
        },
        {
          "internalType": "address",
          "name": "",
          "type": "address"
        }
      ],
      "name": "dltSpeeds",
      "outputs": [
        {
          "internalType": "uint256",
          "name": "",
          "type": "uint256"
        }
      ],
      "stateMutability": "view",
      "type": "function"
    },
    {
      "inputs": [
        {
          "internalType": "bool",
          "name": "",
          "type": "bool"
        },
        {
          "internalType": "address",
          "name": "",
          "type": "address"
        },
        {
          "internalType": "address",
          "name": "",
          "type": "address"
        }
      ],
      "name": "dltSupplierIndex",
      "outputs": [
        {
          "internalType": "uint256",
          "name": "",
          "type": "uint256"
        }
      ],
      "stateMutability": "view",
      "type": "function"
    },
    {
      "inputs": [
        {
          "internalType": "bool",
          "name": "",
          "type": "bool"
        },
        {
          "internalType": "address",
          "name": "",
          "type": "address"
        }
      ],
      "name": "dltSupplyState",
      "outputs": [
        {
          "internalType": "uint224",
          "name": "index",
          "type": "uint224"
        },
        {
          "internalType": "uint32",
          "name": "block",
          "type": "uint32"
        }
      ],
      "stateMutability": "view",
      "type": "function"
    },
    {
      "inputs": [
        {
          "internalType": "address",
          "name": "market",
          "type": "address"
        },
        {
          "internalType": "address",
          "name": "borrower",
          "type": "address"
        },
        {
          "internalType": "bool",
          "name": "isVerified",
          "type": "bool"
        }
      ],
      "name": "getBorrowBalanceWithInterest",
      "outputs": [
        {
          "internalType": "uint256",
          "name": "",
          "type": "uint256"
        }
      ],
      "stateMutability": "view",
      "type": "function"
    },
    {
      "inputs": [],
      "name": "getDeltaAddresses",
      "outputs": [
        {
          "internalType": "address",
          "name": "",
          "type": "address"
        },
        {
          "internalType": "address",
          "name": "",
          "type": "address"
        }
      ],
      "stateMutability": "view",
      "type": "function"
    },
    {
      "inputs": [
        {
          "internalType": "address",
          "name": "participant",
          "type": "address"
        }
      ],
      "name": "getDltAccrued",
      "outputs": [
        {
          "internalType": "uint256",
          "name": "",
          "type": "uint256"
        }
      ],
      "stateMutability": "view",
      "type": "function"
    },
    {
      "inputs": [
        {
          "internalType": "address",
          "name": "user",
          "type": "address"
        }
      ],
      "name": "getDltRewards",
      "outputs": [
        {
          "internalType": "uint256",
          "name": "",
          "type": "uint256"
        }
      ],
      "stateMutability": "view",
      "type": "function"
    },
    {
      "inputs": [
        {
          "internalType": "address",
          "name": "market",
          "type": "address"
        },
        {
          "internalType": "bool",
          "name": "isVerified",
          "type": "bool"
        }
      ],
      "name": "getMarketStats",
      "outputs": [
        {
          "internalType": "bool",
          "name": "isSupported",
          "type": "bool"
        },
        {
          "internalType": "uint256",
          "name": "blockNumber",
          "type": "uint256"
        },
        {
          "internalType": "address",
          "name": "interestRateModel",
          "type": "address"
        },
        {
          "internalType": "uint256",
          "name": "totalSupply",
          "type": "uint256"
        },
        {
          "internalType": "uint256",
          "name": "supplyRateMantissa",
          "type": "uint256"
        },
        {
          "internalType": "uint256",
          "name": "supplyIndex",
          "type": "uint256"
        },
        {
          "internalType": "uint256",
          "name": "totalBorrows",
          "type": "uint256"
        },
        {
          "internalType": "uint256",
          "name": "borrowRateMantissa",
          "type": "uint256"
        },
        {
          "internalType": "uint256",
          "name": "borrowIndex",
          "type": "uint256"
        }
      ],
      "stateMutability": "view",
      "type": "function"
    },
    {
      "inputs": [
        {
          "internalType": "address",
          "name": "market",
          "type": "address"
        },
        {
          "internalType": "bool",
          "name": "isVerified",
          "type": "bool"
        }
      ],
      "name": "getMarketTotalBorrows",
      "outputs": [
        {
          "internalType": "uint256",
          "name": "",
          "type": "uint256"
        }
      ],
      "stateMutability": "view",
      "type": "function"
    },
    {
      "inputs": [
        {
          "internalType": "address",
          "name": "market",
          "type": "address"
        },
        {
          "internalType": "bool",
          "name": "isVerified",
          "type": "bool"
        }
      ],
      "name": "getMarketTotalSupply",
      "outputs": [
        {
          "internalType": "uint256",
          "name": "",
          "type": "uint256"
        }
      ],
      "stateMutability": "view",
      "type": "function"
    },
    {
      "inputs": [
        {
          "internalType": "address",
          "name": "market",
          "type": "address"
        },
        {
          "internalType": "address",
          "name": "supplier",
          "type": "address"
        },
        {
          "internalType": "bool",
          "name": "isVerified",
          "type": "bool"
        }
      ],
      "name": "getSupplyBalanceWithInterest",
      "outputs": [
        {
          "internalType": "uint256",
          "name": "",
          "type": "uint256"
        }
      ],
      "stateMutability": "view",
      "type": "function"
    },
    {
      "inputs": [],
      "name": "initializationDone",
      "outputs": [
        {
          "internalType": "bool",
          "name": "",
          "type": "bool"
        }
      ],
      "stateMutability": "view",
      "type": "function"
    },
    {
      "inputs": [],
      "name": "owner",
      "outputs": [
        {
          "internalType": "address",
          "name": "",
          "type": "address"
        }
      ],
      "stateMutability": "view",
      "type": "function"
    },
    {
      "inputs": [
        {
          "internalType": "address",
          "name": "market",
          "type": "address"
        },
        {
          "internalType": "address",
          "name": "borrower",
          "type": "address"
        },
        {
          "internalType": "bool",
          "name": "isVerified",
          "type": "bool"
        }
      ],
      "name": "refreshDltBorrowIndex",
      "outputs": [],
      "stateMutability": "nonpayable",
      "type": "function"
    },
    {
      "inputs": [],
      "name": "refreshDltSpeeds",
      "outputs": [],
      "stateMutability": "nonpayable",
      "type": "function"
    },
    {
      "inputs": [
        {
          "internalType": "address",
          "name": "market",
          "type": "address"
        },
        {
          "internalType": "address",
          "name": "supplier",
          "type": "address"
        },
        {
          "internalType": "bool",
          "name": "isVerified",
          "type": "bool"
        }
      ],
      "name": "refreshDltSupplyIndex",
      "outputs": [],
      "stateMutability": "nonpayable",
      "type": "function"
    },
    {
      "inputs": [
        {
          "internalType": "uint256",
          "name": "id",
          "type": "uint256"
        },
        {
          "internalType": "bool",
          "name": "isVerified",
          "type": "bool"
        }
      ],
      "name": "removeMarket",
      "outputs": [],
      "stateMutability": "nonpayable",
      "type": "function"
    },
    {
      "inputs": [
        {
          "internalType": "address",
          "name": "deltaOpen_",
          "type": "address"
        }
      ],
      "name": "setDeltaOpen",
      "outputs": [],
      "stateMutability": "nonpayable",
      "type": "function"
    },
    {
      "inputs": [
        {
          "internalType": "address",
          "name": "deltaVerified_",
          "type": "address"
        }
      ],
      "name": "setDeltaVerified",
      "outputs": [],
      "stateMutability": "nonpayable",
      "type": "function"
    },
    {
      "inputs": [
        {
          "internalType": "address",
          "name": "dltAddress_",
          "type": "address"
        }
      ],
      "name": "setDltAddress",
      "outputs": [],
      "stateMutability": "nonpayable",
      "type": "function"
    },
    {
      "inputs": [
        {
          "internalType": "uint256",
          "name": "_dltRate",
          "type": "uint256"
        }
      ],
      "name": "setDltRate",
      "outputs": [],
      "stateMutability": "nonpayable",
      "type": "function"
    },
    {
      "inputs": [
        {
          "internalType": "address",
          "name": "newOwner_",
          "type": "address"
        }
      ],
      "name": "transferOwnership",
      "outputs": [],
      "stateMutability": "nonpayable",
      "type": "function"
    },
    {
      "inputs": [
        {
          "internalType": "address",
          "name": "market",
          "type": "address"
        },
        {
          "internalType": "bool",
          "name": "isVerified",
          "type": "bool"
        }
      ],
      "name": "updateDltBorrowIndex",
      "outputs": [],
      "stateMutability": "nonpayable",
      "type": "function"
    },
    {
      "inputs": [
        {
          "internalType": "address",
          "name": "market",
          "type": "address"
        },
        {
          "internalType": "bool",
          "name": "isVerified",
          "type": "bool"
        }
      ],
      "name": "updateDltSupplyIndex",
      "outputs": [],
      "stateMutability": "nonpayable",
      "type": "function"
    }
  ],
  "bytecode": "0x60806040523480156200001157600080fd5b506040516200369a3803806200369a833981016040819052620000349162000306565b6001600160a01b038316158015906200005557506001600160a01b03821615155b80156200006a57506001600160a01b03811615155b620000bc5760405162461bcd60e51b815260206004820152601560248201527f496e707574732063616e6e6f742062652030783030000000000000000000000060448201526064015b60405180910390fd5b60098054610100600160a81b0319163361010002179055620000de8262000123565b620000e98362000123565b620000f481620001dd565b6200010767333651b00e394b7062000297565b5050600c805460ff60a01b1916600160a41b1790555062000350565b60095461010090046001600160a01b03163314620001705760405162461bcd60e51b81526020600482015260096024820152683737b716b7bbb732b960b91b6044820152606401620000b3565b6001600160a01b038116620001bb5760405162461bcd60e51b815260206004820152601060248201526f4164647265737320697320656d70747960801b6044820152606401620000b3565b600b80546001600160a01b0319166001600160a01b0392909216919091179055565b60095461010090046001600160a01b031633146200022a5760405162461bcd60e51b81526020600482015260096024820152683737b716b7bbb732b960b91b6044820152606401620000b3565b6001600160a01b038116620002755760405162461bcd60e51b815260206004820152601060248201526f4164647265737320697320656d70747960801b6044820152606401620000b3565b600c80546001600160a01b0319166001600160a01b0392909216919091179055565b60095461010090046001600160a01b03163314620002e45760405162461bcd60e51b81526020600482015260096024820152683737b716b7bbb732b960b91b6044820152606401620000b3565b600255565b80516001600160a01b03811681146200030157600080fd5b919050565b6000806000606084860312156200031c57600080fd5b6200032784620002e9565b92506200033760208501620002e9565b91506200034760408501620002e9565b90509250925092565b61333a80620003606000396000f3fe608060405234801561001057600080fd5b506004361061023d5760003560e01c80639e5d7e421161013b578063cbb40ff7116100b8578063deb66f0a1161007c578063deb66f0a1461066d578063e776827214610680578063f2fde38b14610693578063fd778df5146106a6578063fe655382146106d157600080fd5b8063cbb40ff714610606578063d35369d91461062c578063d511e08914610634578063d7981a3314610647578063db57d0c71461065a57600080fd5b8063b49fa28d116100ff578063b49fa28d14610589578063b57221be146105ba578063bcc3d51f146105cd578063bf98d051146105e0578063bfa4cc15146105f357600080fd5b80639e5d7e42146104a6578063a55b34b4146104b9578063a638980c146104cc578063aa4e5dfa146104df578063b03c7d6e1461054657600080fd5b806361e6d67b116101c957806386036b041161018d57806386036b041461042a5780638da5cb5b146104555780638f6c03c11461046d57806398411f6c146104805780639a9eaed41461049357600080fd5b806361e6d67b1461038257806362bedfd014610395578063797f29f1146103a85780637c218448146103bb578063836c41b8146103ec57600080fd5b80633a43a74a116102105780633a43a74a146103155780633c7692751461032a5780633e2a499a1461033d57806351c829651461035057806356baa2b71461035957600080fd5b8063022a218614610242578063084b713e146102685780630e954d011461028e5780632281b33b146102ae575b600080fd5b610255610250366004612ef2565b6106de565b6040519081526020015b60405180910390f35b600a54600b54604080516001600160a01b0393841681529290911660208301520161025f565b61025561029c366004612f3d565b60086020526000908152604090205481565b6102f16102bc366004612f5a565b60056020908152600092835260408084209091529082529020546001600160e01b03811690600160e01b900463ffffffff1682565b604080516001600160e01b03909316835263ffffffff90911660208301520161025f565b610328610323366004612f93565b6107b4565b005b610328610338366004612f3d565b610a48565b61032861034b366004612fb8565b610b41565b61025560025481565b610255610367366004612f3d565b6001600160a01b031660009081526008602052604090205490565b610328610390366004612fb8565b610da2565b6103286103a3366004612f3d565b610fa8565b6103286103b6366004612ef2565b61101f565b6102556103c9366004612fe6565b600660209081526000938452604080852082529284528284209052825290205481565b61041a6103fa366004612f5a565b600160209081526000928352604080842090915290825290205460ff1681565b604051901515815260200161025f565b600b5461043d906001600160a01b031681565b6040516001600160a01b03909116815260200161025f565b60095461043d9061010090046001600160a01b031681565b61032861047b366004612f3d565b6110f3565b61032861048e366004613026565b61116a565b600a5461043d906001600160a01b031681565b6103286104b4366004612ef2565b61119e565b6102556104c7366004612ef2565b6112e2565b6103286104da366004612fb8565b61135e565b6104f26104ed366004612fb8565b611528565b604080519915158a5260208a01989098526001600160a01b03909616968801969096526060870193909352608086019190915260a085015260c084015260e08301919091526101008201526101200161025f565b6102f1610554366004612f5a565b60046020908152600092835260408084209091529082529020546001600160e01b03811690600160e01b900463ffffffff1682565b610255610597366004612fe6565b600760209081526000938452604080852082529284528284209052825290205481565b6102556105c8366004612fb8565b611611565b6103286105db366004612f3d565b61162f565b6102556105ee366004612f3d565b6116a6565b61043d61060136600461303f565b6117c2565b600c5461061a90600160a01b900460ff1681565b60405160ff909116815260200161025f565b6103286117fa565b610328610642366004612ef2565b611a7c565b610255610655366004612fb8565b611ad0565b610328610668366004612ef2565b611aee565b600c5461043d906001600160a01b031681565b61032861068e366004612ef2565b611b39565b6103286106a1366004612f3d565b611c6e565b6102556106b4366004612f5a565b600360209081526000928352604080842090915290825290205481565b60095461041a9060ff1681565b6000811561077357600a546040516303763f9b60e21b81526001600160a01b038581166004830152868116602483015290911690630dd8fe6c906044015b60206040518083038186803b15801561073457600080fd5b505afa158015610748573d6000803e3d6000fd5b505050506040513d601f19601f8201168201806040525081019061076c919061306b565b90506107ad565b600b546040516303763f9b60e21b81526001600160a01b038581166004830152868116602483015290911690630dd8fe6c9060440161071c565b9392505050565b60095461010090046001600160a01b031633146107ec5760405162461bcd60e51b81526004016107e390613084565b60405180910390fd5b8015156000908152602081905260409020548210610808575050565b8015156000908152600160209081526040808320918390528220805483919086908110610837576108376130a7565b6000918252602080832091909101546001600160a01b031683528281019390935260409182018120805460ff191694151594909417909355831515835290829052812080548490811061088c5761088c6130a7565b6000918252602090912001546001600160a01b03169050825b8215156000908152602081905260409020546108c3906001906130d3565b81101561096b5782151560009081526020819052604090206108e68260016130ea565b815481106108f6576108f66130a7565b6000918252602080832090910154851515835290829052604090912080546001600160a01b039092169183908110610930576109306130a7565b600091825260209091200180546001600160a01b0319166001600160a01b03929092169190911790558061096381613102565b9150506108a5565b50811515600090815260208190526040902080548061098c5761098c61311d565b60008281526020808220830160001990810180546001600160a01b031916905590920190925583151582526003815260408083206001600160a01b03851684529091528120556109da6117fa565b81158015600090815260208190526040808220549282529020546001600160a01b038316917f139636d17ea1ec27949b774fe60dce0d127166fd163c5af4e5f0f4b056427f8491610a2b9190611d33565b6040805191825285151560208301520160405180910390a2505050565b6001600090815260209081526000805160206132a583398151915280546040805182850281018501909152818152610ac4938593919290830182828015610ab857602002820191906000526020600020905b81546001600160a01b03168152600190910190602001808311610a9a575b50505050506001611d69565b600080805260209081526000805160206132e583398151915280546040805182850281018501909152818152610b3e938593919290830182828015610b3257602002820191906000526020600020905b81546001600160a01b03168152600190910190602001808311610b14575b50505050506000611d69565b50565b80151560008181526004602090815260408083206001600160a01b03871680855290835281842094845260038352818420908452909152812054825490914391610b99908390600160e01b900463ffffffff16611e0f565b9050600081118015610bab5750600083115b15610d47576000610bbc8787611611565b90506000610bca8386611e49565b90506000808311610bea5760405180602001604052806000815250610bf4565b610bf48284611e8b565b604080516020810190915288546001600160e01b03168152909150600090610c1c9083611ed0565b90506040518060400160405280610c6983600001516040518060400160405280601a8152602001796e657720696e646578206578636565647320323234206269747360301b815250611efc565b6001600160e01b03168152602001610ca4886040518060400160405280601c81526020016000805160206132c5833981519152815250611f2b565b63ffffffff16815250600460008b15151515815260200190815260200160002060008c6001600160a01b03166001600160a01b0316815260200190815260200160002060008201518160000160006101000a8154816001600160e01b0302191690836001600160e01b03160217905550602082015181600001601c6101000a81548163ffffffff021916908363ffffffff16021790555090505050505050610d9a565b8015610d9a57610d7a826040518060400160405280601c81526020016000805160206132c5833981519152815250611f2b565b845463ffffffff91909116600160e01b026001600160e01b039091161784555b505050505050565b80151560008181526005602090815260408083206001600160a01b03871680855290835281842094845260038352818420908452909152812054825490914391610dfa908390600160e01b900463ffffffff16611e0f565b9050600081118015610e0c5750600083115b15610d47576000610e1d8787611ad0565b90506000610e2b8386611e49565b90506000808311610e4b5760405180602001604052806000815250610e55565b610e558284611e8b565b604080516020810190915288546001600160e01b03168152909150600090610e7d9083611ed0565b90506040518060400160405280610eca83600001516040518060400160405280601a8152602001796e657720696e646578206578636565647320323234206269747360301b815250611efc565b6001600160e01b03168152602001610f05886040518060400160405280601c81526020016000805160206132c5833981519152815250611f2b565b63ffffffff16815250600560008b15151515815260200190815260200160002060008c6001600160a01b03166001600160a01b0316815260200190815260200160002060008201518160000160006101000a8154816001600160e01b0302191690836001600160e01b03160217905550602082015181600001601c6101000a81548163ffffffff021916908363ffffffff16021790555090505050505050610d9a565b60095461010090046001600160a01b03163314610fd75760405162461bcd60e51b81526004016107e390613084565b6001600160a01b038116610ffd5760405162461bcd60e51b81526004016107e390613133565b600c80546001600160a01b0319166001600160a01b0392909216919091179055565b80151560009081526001602090815260408083206001600160a01b038616845290915290205460ff1661108c5760405162461bcd60e51b815260206004820152601560248201527413585c9ad95d08191bd95cc81b9bdd08195e1a5cdd605a1b60448201526064016107e3565b6040805160018082528183019092526000916020808301908036833701905050905082816000815181106110c2576110c26130a7565b60200260200101906001600160a01b031690816001600160a01b0316815250506110ed848284611d69565b50505050565b60095461010090046001600160a01b031633146111225760405162461bcd60e51b81526004016107e390613084565b6001600160a01b0381166111485760405162461bcd60e51b81526004016107e390613133565b600a80546001600160a01b0319166001600160a01b0392909216919091179055565b60095461010090046001600160a01b031633146111995760405162461bcd60e51b81526004016107e390613084565b600255565b80151560008181526004602090815260408083206001600160a01b038089168086529184528285208351808601855281546001600160e01b0316815284518087018652978752600686528487209387529285528386209189168087528286529386208054885283519490965293529255825190929015610d9a5760006112248383611f53565b905060006112338888886112e2565b905060006112418284611f7f565b6001600160a01b0389166000908152600860205260409020549091506112679082611d33565b6001600160a01b03898116600081815260086020908152604091829020859055895182518781529182019590955290810193909352891515606084015291908b16907fe98b5934d0b4071502db90472d1b9edf6ee2503d04dc5d45abb866e73d4d49d6906080015b60405180910390a3505050505050505050565b6000811561132457600a5460405163343caa1d60e01b81526001600160a01b03858116600483015286811660248301529091169063343caa1d9060440161071c565b600b5460405163343caa1d60e01b81526001600160a01b03858116600483015286811660248301529091169063343caa1d9060440161071c565b60095461010090046001600160a01b0316331461138d5760405162461bcd60e51b81526004016107e390613084565b80151560009081526001602090815260408083206001600160a01b038616845290915290205460ff16156113fb5760405162461bcd60e51b81526020600482015260156024820152744d61726b657420616c72656164792065786973747360581b60448201526064016107e3565b600c54811515600090815260208190526040902054600160a01b90910460ff161161147c5760405162461bcd60e51b815260206004820152602b60248201527f457863656564696e6720746865206d6178206e756d626572206f66206d61726b60448201526a195d1cc8185b1b1bddd95960aa1b60648201526084016107e3565b8015801560008181526001602081815260408084206001600160a01b038916808652908352818520805460ff1916851790559484528382528084208054938401815580855291842090920180546001600160a01b031916851790555493825290205490917f853501741cbb96ce9d9e735733b1c84178f3871c61e6841c44852e3b91ba54629161150c9190611d33565b6040805191825284151560208301520160405180910390a25050565b600080600080600080600080600089156115d257600a54604051638e8f294b60e01b81526001600160a01b038d8116600483015290911690638e8f294b906024015b6101206040518083038186803b15801561158357600080fd5b505afa158015611597573d6000803e3d6000fd5b505050506040513d601f19601f820116820180604052508101906115bb9190613173565b985098509850985098509850985098509850611604565b600b54604051638e8f294b60e01b81526001600160a01b038d8116600483015290911690638e8f294b9060240161156a565b9295985092959850929598565b60008061161e8484611528565b50939b9a5050505050505050505050565b60095461010090046001600160a01b0316331461165e5760405162461bcd60e51b81526004016107e390613084565b6001600160a01b0381166116845760405162461bcd60e51b81526004016107e390613133565b600b80546001600160a01b0319166001600160a01b0392909216919091179055565b6001600160a01b03811660009081526008602052604081205481806116c9611fa9565b6001600090815260208190526000805160206132a5833981519152549294509092505b600160009081526020526000805160206132a58339815191525481101561174b576117378561173261172386888c87886001612265565b61173287898d8889600161277c565b611d33565b94508061174381613102565b9150506116ec565b5060005b60008080526020526000805160206132e5833981519152548110156117b757600061177a82846130ea565b90506117a18661173261179287898d87896000612265565b611732888a8e888a600061277c565b95505080806117af90613102565b91505061174f565b509295945050505050565b600060205281600052604060002081815481106117de57600080fd5b6000918252602090912001546001600160a01b03169150829050565b6000806000611807611fa9565b6001600090815260208190526000805160206132a58339815191525492945090925090815b600160009081526020526000805160206132a58339815191525481101561195a57600160009081526020526000805160206132a5833981519152805482908110611878576118786130a7565b60009182526020909120015484516001600160a01b03909116965061189e5760006118cc565b6118cc6002546118c78784815181106118b9576118b96130a7565b602002602001015187612beb565b612c25565b6001600160a01b03871660008181527fa15bc60c955c405d20d9149c709e2460f1c2d9a497496a7f46004d1772c3054c6020908152604091829020849055815184815260019181019190915292955090917fc0f1102f4f816e62a7257be6202209cfe6108245a3c9ec280aace2a6e0311ef1910160405180910390a28061195281613102565b91505061182c565b5060005b60008080526020526000805160206132e583398151915254811015610d9a5760008080526020526000805160206132e58339815191528054829081106119a6576119a66130a7565b60009182526020909120015484516001600160a01b0390911696506119cc5760006119f1565b6002546119f1906118c7876119e185876130ea565b815181106118b9576118b96130a7565b6001600160a01b03871660008181527f3617319a054d772f909f7c479a2cebe5066e836a939412e32403c99029b92eff6020908152604080832085905580518581529182019290925292955090917fc0f1102f4f816e62a7257be6202209cfe6108245a3c9ec280aace2a6e0311ef1910160405180910390a280611a7481613102565b91505061195e565b80151560009081526001602090815260408083206001600160a01b038716845290915290205460ff16611aae57505050565b611ab66117fa565b611ac08382610b41565b611acb83838361119e565b505050565b600080611add8484611528565b50909b9a5050505050505050505050565b80151560009081526001602090815260408083206001600160a01b038716845290915290205460ff16611b2057505050565b611b286117fa565b611b328382610da2565b611acb8383835b80151560008181526005602090815260408083206001600160a01b038089168086529184528285208351808601855281546001600160e01b0316815284518087018652978752600786528487209387529285528386209189168087528286529386208054885283519490965293529255825190929015610d9a576000611bbf8383611f53565b90506000611bce8888886106de565b90506000611bdc8284611f7f565b6001600160a01b038916600090815260086020526040902054909150611c029082611d33565b6001600160a01b03898116600081815260086020908152604091829020859055895182518781529182019590955290810193909352891515606084015291908b16907f304b2e8eeed8ba837ce7cff1d7963fb186494a03cea4d06d5d4a5c54864aec33906080016112cf565b60095461010090046001600160a01b03163314611c9d5760405162461bcd60e51b81526004016107e390613084565b6009546001600160a01b03828116610100909204161415611d0b5760405162461bcd60e51b815260206004820152602260248201527f5472616e736665724f776e6572736869703a207468652073616d65206f776e65604482015261391760f11b60648201526084016107e3565b600980546001600160a01b0390921661010002610100600160a81b0319909216919091179055565b60006107ad8383604051806040016040528060118152602001706164646974696f6e206f766572666c6f7760781b815250612c3e565b60005b82518110156110ed576000838281518110611d8957611d896130a7565b60200260200101519050611d9d8184610b41565b611da881868561119e565b611db28184610da2565b611dbd818685611b39565b6001600160a01b038516600090815260086020526040902054611de39086908386612c78565b6001600160a01b0386166000908152600860205260409020555080611e0781613102565b915050611d6c565b60006107ad8383604051806040016040528060158152602001747375627472616374696f6e20756e646572666c6f7760581b815250612df3565b60006107ad83836040518060400160405280601781526020017f6d756c7469706c69636174696f6e206f766572666c6f77000000000000000000815250612e22565b6040805160208101909152600081526040518060200160405280611ec7611ec1866ec097ce7bc90715b34b9f1000000000611e49565b85612e75565b90529392505050565b6040805160208101909152600081526040518060200160405280611ec785600001518560000151611d33565b600081600160e01b8410611f235760405162461bcd60e51b81526004016107e391906131f1565b509192915050565b6000816401000000008410611f235760405162461bcd60e51b81526004016107e391906131f1565b6040805160208101909152600081526040518060200160405280611ec785600001518560000151611e0f565b60006ec097ce7bc90715b34b9f1000000000611f9f848460000151611e49565b6107ad9190613246565b6060611fc16040518060200160405280600081525090565b6040805160208082019092526000808252918290526000805160206132a5833981519152548280526000805160206132e5833981519152549192916120069190611d33565b67ffffffffffffffff81111561201e5761201e61315d565b60405190808252806020026020018201604052801561205e57816020015b60408051602081019091526000815281526020019060019003908161203c5790505b506001600090815260208181526000805160206132a5833981519152546040805192830190528282529293509091908290819060005b600160009081526020526000805160206132a58339815191525481101561217457600160009081526020526000805160206132a58339815191528054829081106120e0576120e06130a7565b6000918252602090912001546001600160a01b0316955061210c612105876001611611565b6000611e49565b935061211c612105876001611ad0565b925060405180602001604052806121338686611d33565b81525091508187828151811061214b5761214b6130a7565b60200260200101819052506121608883611ed0565b97508061216c81613102565b915050612094565b5060005b60008080526020526000805160206132e5833981519152548110156122555760008080526020526000805160206132e58339815191528054829081106121c0576121c06130a7565b60009182526020822001546001600160a01b031696506121e590612105908890611611565b93506121f5612105876000611ad0565b9250604051806020016040528061220c8686611d33565b90529150818761221c83886130ea565b8151811061222c5761222c6130a7565b60200260200101819052506122418883611ed0565b97508061224d81613102565b915050612178565b5094989597509495505050505050565b600080600088600001511161227b5760006122a4565b6122a46002546118c7898881518110612296576122966130a7565b60200260200101518b612beb565b83151560009081526004602090815260408083209183905282208054939450919290918391889081106122d9576122d96130a7565b60009182526020808320909101546001600160a01b0316835282810193909352604091820181208251808401909352546001600160e01b038116835263ffffffff600160e01b9091041692820183905290925090612338904390611e0f565b1180156123455750600082115b156124ca57604080516020808201835283516001600160e01b031682528615156000908152908190529182208054612431929184916123aa91908b90811061238f5761238f6130a7565b6000918252602090912001546001600160a01b031689611611565b116123c45760405180602001604052806000815250611ed0565b61242c6123e46123de43876020015163ffffffff16611e0f565b87611e49565b8815156000908152602081905260409020805461242791908c90811061240c5761240c6130a7565b6000918252602090912001546001600160a01b03168a611611565b611e8b565b611ed0565b9050604051806040016040528061247e83600001516040518060400160405280601a8152602001796e657720696e646578206578636565647320323234206269747360301b815250611efc565b6001600160e01b031681526020016124b9436040518060400160405280601c81526020016000805160206132c5833981519152815250611f2b565b63ffffffff1681525091505061251f565b60006124e043836020015163ffffffff16611e0f565b111561251f57612513436040518060400160405280601c81526020016000805160206132c5833981519152815250611f2b565b63ffffffff1660208201525b604080516020808201835286151560009081526006825283812091819052928320805483929185918b908110612557576125576130a7565b60009182526020808320909101546001600160a01b0390811684528382019490945260409283018220938e16825292909252902054905251111561276b57831561273157600a548415156000908152602081905260408120805491926001600160a01b03169163343caa1d918b918a9081106125d5576125d56130a7565b60009182526020909120015460405160e084901b6001600160e01b03191681526001600160a01b0392831660048201529116602482015260440160206040518083038186803b15801561262757600080fd5b505afa15801561263b573d6000803e3d6000fd5b505050506040513d601f19601f8201168201806040525081019061265f919061306b565b604080516020808201835285516001600160e01b03168252825180820184528915156000908152600683528481209281905293842080549596506127279587956127229594849390928f9081106126b8576126b86130a7565b9060005260206000200160009054906101000a90046001600160a01b03166001600160a01b03166001600160a01b0316815260200190815260200160002060008f6001600160a01b03166001600160a01b0316815260200190815260200160002054815250611f53565b611f7f565b9350505050612772565b600b548415156000908152602081905260408120805491926001600160a01b03169163343caa1d918b918a9081106125d5576125d56130a7565b6000925050505b9695505050505050565b60008060008860000151116127925760006127ad565b6127ad6002546118c7898881518110612296576122966130a7565b83151560009081526005602090815260408083209183905282208054939450919290918391889081106127e2576127e26130a7565b60009182526020808320909101546001600160a01b0316835282810193909352604091820181208251808401909352546001600160e01b038116835263ffffffff600160e01b9091041692820183905290925090612841904390611e0f565b11801561284e5750600082115b156129c357604080516020808201835283516001600160e01b03168252861515600090815290819052918220805461292a929184916128b391908b908110612898576128986130a7565b6000918252602090912001546001600160a01b031689611ad0565b116128cd5760405180602001604052806000815250611ed0565b61242c6128e76123de43876020015163ffffffff16611e0f565b8815156000908152602081905260409020805461242791908c90811061290f5761290f6130a7565b6000918252602090912001546001600160a01b03168a611ad0565b9050604051806040016040528061297783600001516040518060400160405280601a8152602001796e657720696e646578206578636565647320323234206269747360301b815250611efc565b6001600160e01b031681526020016129b2436040518060400160405280601c81526020016000805160206132c5833981519152815250611f2b565b63ffffffff16815250915050612a18565b60006129d943836020015163ffffffff16611e0f565b1115612a1857612a0c436040518060400160405280601c81526020016000805160206132c5833981519152815250611f2b565b63ffffffff1660208201525b604080516020808201835286151560009081526007825283812091819052928320805483929185918b908110612a5057612a506130a7565b60009182526020808320909101546001600160a01b0390811684528382019490945260409283018220938e16825292909252902054905251111561276b578315612bb157600a548415156000908152602081905260408120805491926001600160a01b031691630dd8fe6c918b918a908110612ace57612ace6130a7565b60009182526020909120015460405160e084901b6001600160e01b03191681526001600160a01b0392831660048201529116602482015260440160206040518083038186803b158015612b2057600080fd5b505afa158015612b34573d6000803e3d6000fd5b505050506040513d601f19601f82011682018060405250810190612b58919061306b565b604080516020808201835285516001600160e01b03168252825180820184528915156000908152600783528481209281905293842080549596506127279587956127229594849390928f9081106126b8576126b86130a7565b600b548415156000908152602081905260408120805491926001600160a01b031691630dd8fe6c918b918a908110612ace57612ace6130a7565b6040805160208101909152600081526040518060200160405280611ec7612c1e8660000151670de0b6b3a7640000611e49565b8551612e75565b6000670de0b6b3a7640000611f9f848460000151611e49565b600080612c4b84866130ea565b90508285821015612c6f5760405162461bcd60e51b81526004016107e391906131f1565b50949350505050565b60008315612de857600c546040516370a0823160e01b81523060048201526001600160a01b039091169060009082906370a082319060240160206040518083038186803b158015612cc857600080fd5b505afa158015612cdc573d6000803e3d6000fd5b505050506040513d601f19601f82011682018060405250810190612d00919061306b565b9050808611612de55760405163a9059cbb60e01b81526001600160a01b0388811660048301526024820188905283169063a9059cbb90604401602060405180830381600087803b158015612d5357600080fd5b505af1158015612d67573d6000803e3d6000fd5b505050506040513d601f19601f82011682018060405250810190612d8b9190613268565b50604080518781526001600160a01b038781166020830152861515828401529151918916917f719d6e848fb50293d9c4d506d6e2378a6a8dbe7a4b5eb9a313470eb5367f3d999181900360600190a2600092505050612deb565b50505b50825b949350505050565b60008184841115612e175760405162461bcd60e51b81526004016107e391906131f1565b50612deb83856130d3565b6000831580612e2f575082155b15612e3c575060006107ad565b6000612e488486613285565b905083612e558683613246565b148390612c6f5760405162461bcd60e51b81526004016107e391906131f1565b60006107ad83836040518060400160405280600e81526020016d646976696465206279207a65726f60901b81525060008183612ec45760405162461bcd60e51b81526004016107e391906131f1565b50612deb8385613246565b6001600160a01b0381168114610b3e57600080fd5b8015158114610b3e57600080fd5b600080600060608486031215612f0757600080fd5b8335612f1281612ecf565b92506020840135612f2281612ecf565b91506040840135612f3281612ee4565b809150509250925092565b600060208284031215612f4f57600080fd5b81356107ad81612ecf565b60008060408385031215612f6d57600080fd5b8235612f7881612ee4565b91506020830135612f8881612ecf565b809150509250929050565b60008060408385031215612fa657600080fd5b823591506020830135612f8881612ee4565b60008060408385031215612fcb57600080fd5b8235612fd681612ecf565b91506020830135612f8881612ee4565b600080600060608486031215612ffb57600080fd5b833561300681612ee4565b9250602084013561301681612ecf565b91506040840135612f3281612ecf565b60006020828403121561303857600080fd5b5035919050565b6000806040838503121561305257600080fd5b823561305d81612ee4565b946020939093013593505050565b60006020828403121561307d57600080fd5b5051919050565b6020808252600990820152683737b716b7bbb732b960b91b604082015260600190565b634e487b7160e01b600052603260045260246000fd5b634e487b7160e01b600052601160045260246000fd5b6000828210156130e5576130e56130bd565b500390565b600082198211156130fd576130fd6130bd565b500190565b6000600019821415613116576131166130bd565b5060010190565b634e487b7160e01b600052603160045260246000fd5b60208082526010908201526f4164647265737320697320656d70747960801b604082015260600190565b634e487b7160e01b600052604160045260246000fd5b60008060008060008060008060006101208a8c03121561319257600080fd5b895161319d81612ee4565b60208b015160408c0151919a5098506131b581612ecf565b8097505060608a0151955060808a0151945060a08a0151935060c08a0151925060e08a015191506101008a015190509295985092959850929598565b600060208083528351808285015260005b8181101561321e57858101830151858201604001528201613202565b81811115613230576000604083870101525b50601f01601f1916929092016040019392505050565b60008261326357634e487b7160e01b600052601260045260246000fd5b500490565b60006020828403121561327a57600080fd5b81516107ad81612ee4565b600081600019048311821515161561329f5761329f6130bd565b50029056feada5013122d395ba3c54772283fb069b10426056ef8ca54750cb9bb552a59e7d626c6f636b206e756d6265722065786365656473203332206269747300000000ad3228b676f7d3cd4284a5443f17f1962b36e491b30a40b2405849e597ba5fb5a26469706673582212204ab66d05064a283d1a16bea2ac92845b3c5d0cfa6f649bc43f982adc2cc2217164736f6c63430008090033",
  "linkReferences": {},
  "deployedLinkReferences": {}
}