{
  "_format": "hh-sol-artifact-1",
  "contractName": "Asset",
  "sourceName": "contracts/reserve/plugins/assets/Asset.sol",
  "abi": [
    {
      "inputs": [
        {
          "internalType": "uint192",
          "name": "fallbackPrice_",
          "type": "uint192"
        },
        {
          "internalType": "contract AggregatorV3Interface",
          "name": "chainlinkFeed_",
          "type": "address"
        },
        {
          "internalType": "uint192",
          "name": "oracleError_",
          "type": "uint192"
        },
        {
          "internalType": "contract IERC20Metadata",
          "name": "erc20_",
          "type": "address"
        },
        {
          "internalType": "uint192",
          "name": "maxTradeVolume_",
          "type": "uint192"
        },
        {
          "internalType": "uint48",
          "name": "oracleTimeout_",
          "type": "uint48"
        }
      ],
      "stateMutability": "nonpayable",
      "type": "constructor"
    },
    {
      "inputs": [],
      "name": "StalePrice",
      "type": "error"
    },
    {
      "inputs": [],
      "name": "UIntOutOfBounds",
      "type": "error"
    },
    {
      "anonymous": false,
      "inputs": [
        {
          "indexed": true,
          "internalType": "contract IERC20",
          "name": "erc20",
          "type": "address"
        },
        {
          "indexed": true,
          "internalType": "uint256",
          "name": "amount",
          "type": "uint256"
        }
      ],
      "name": "RewardsClaimed",
      "type": "event"
    },
    {
      "inputs": [
        {
          "internalType": "address",
          "name": "account",
          "type": "address"
        }
      ],
      "name": "bal",
      "outputs": [
        {
          "internalType": "uint192",
          "name": "",
          "type": "uint192"
        }
      ],
      "stateMutability": "view",
      "type": "function"
    },
    {
      "inputs": [],
      "name": "chainlinkFeed",
      "outputs": [
        {
          "internalType": "contract AggregatorV3Interface",
          "name": "",
          "type": "address"
        }
      ],
      "stateMutability": "view",
      "type": "function"
    },
    {
      "inputs": [],
      "name": "claimRewards",
      "outputs": [],
      "stateMutability": "nonpayable",
      "type": "function"
    },
    {
      "inputs": [],
      "name": "erc20",
      "outputs": [
        {
          "internalType": "contract IERC20Metadata",
          "name": "",
          "type": "address"
        }
      ],
      "stateMutability": "view",
      "type": "function"
    },
    {
      "inputs": [],
      "name": "erc20Decimals",
      "outputs": [
        {
          "internalType": "uint8",
          "name": "",
          "type": "uint8"
        }
      ],
      "stateMutability": "view",
      "type": "function"
    },
    {
      "inputs": [],
      "name": "fallbackPrice",
      "outputs": [
        {
          "internalType": "uint192",
          "name": "",
          "type": "uint192"
        }
      ],
      "stateMutability": "view",
      "type": "function"
    },
    {
      "inputs": [],
      "name": "isCollateral",
      "outputs": [
        {
          "internalType": "bool",
          "name": "",
          "type": "bool"
        }
      ],
      "stateMutability": "pure",
      "type": "function"
    },
    {
      "inputs": [],
      "name": "maxTradeVolume",
      "outputs": [
        {
          "internalType": "uint192",
          "name": "",
          "type": "uint192"
        }
      ],
      "stateMutability": "view",
      "type": "function"
    },
    {
      "inputs": [],
      "name": "oracleError",
      "outputs": [
        {
          "internalType": "uint192",
          "name": "",
          "type": "uint192"
        }
      ],
      "stateMutability": "view",
      "type": "function"
    },
    {
      "inputs": [],
      "name": "oracleTimeout",
      "outputs": [
        {
          "internalType": "uint48",
          "name": "",
          "type": "uint48"
        }
      ],
      "stateMutability": "view",
      "type": "function"
    },
    {
      "inputs": [],
      "name": "price",
      "outputs": [
        {
          "internalType": "uint192",
          "name": "",
          "type": "uint192"
        },
        {
          "internalType": "uint192",
          "name": "",
          "type": "uint192"
        }
      ],
      "stateMutability": "view",
      "type": "function"
    },
    {
      "inputs": [],
      "name": "tryPrice",
      "outputs": [
        {
          "internalType": "uint192",
          "name": "low",
          "type": "uint192"
        },
        {
          "internalType": "uint192",
          "name": "high",
          "type": "uint192"
        },
        {
          "internalType": "uint192",
          "name": "",
          "type": "uint192"
        }
      ],
      "stateMutability": "view",
      "type": "function"
    }
  ],
  "bytecode": "0x6101406040523480156200001257600080fd5b506040516200116038038062001160833981016040819052620000359162000365565b6000866001600160c01b031611620000945760405162461bcd60e51b815260206004820152601360248201527f66616c6c6261636b207072696365207a65726f0000000000000000000000000060448201526064015b60405180910390fd5b6001600160a01b038516620000ec5760405162461bcd60e51b815260206004820152601660248201527f6d697373696e6720636861696e6c696e6b20666565640000000000000000000060448201526064016200008b565b6000846001600160c01b0316118015620001165750670de0b6b3a76400006001600160c01b038516105b620001645760405162461bcd60e51b815260206004820152601960248201527f6f7261636c65206572726f72206f7574206f662072616e67650000000000000060448201526064016200008b565b6001600160a01b038316620001ac5760405162461bcd60e51b815260206004820152600d60248201526c06d697373696e6720657263323609c1b60448201526064016200008b565b6000826001600160c01b031611620002075760405162461bcd60e51b815260206004820152601860248201527f696e76616c6964206d617820747261646520766f6c756d65000000000000000060448201526064016200008b565b60008165ffffffffffff1611620002565760405162461bcd60e51b81526020600482015260126024820152716f7261636c6554696d656f7574207a65726f60701b60448201526064016200008b565b600080546001600160c01b0319166001600160c01b03888116919091179091556001600160a01b0386811660805290851661010052831660a08190526040805163313ce56760e01b8152905163313ce56791600480820192602092909190829003018186803b158015620002c957600080fd5b505afa158015620002de573d6000803e3d6000fd5b505050506040513d601f19601f82011682018060405250810190620003049190620003f8565b60ff1660c0526001600160c01b0390911660e05265ffffffffffff1661012052506200042492505050565b80516001600160c01b03811681146200034757600080fd5b919050565b6001600160a01b03811681146200036257600080fd5b50565b60008060008060008060c087890312156200037f57600080fd5b6200038a876200032f565b955060208701516200039c816200034c565b9450620003ac604088016200032f565b93506060870151620003be816200034c565b9250620003ce608088016200032f565b915060a087015165ffffffffffff81168114620003ea57600080fd5b809150509295509295509295565b6000602082840312156200040b57600080fd5b815160ff811681146200041d57600080fd5b9392505050565b60805160a05160c05160e0516101005161012051610cc36200049d60003960008181610210015261039a01526000818161024e015281816103d10152610416015260006101c101526000818160c0015261033701526000818161012901526102b801526000818161019a01526103780152610cc36000f3fe608060405234801561001057600080fd5b50600436106100b45760003560e01c806395acc4ae1161007157806395acc4ae146101bc578063a035b1fe146101e3578063abfeece51461020b578063c55f29d114610249578063c59b3d6314610270578063e28a1b861461027f57600080fd5b8063372500ab146100b95780633cb5d379146100bb5780635580f72a146100f9578063785e9e86146101245780637d1ea137146101635780637dbdf1f514610195575b600080fd5b005b6100e27f000000000000000000000000000000000000000000000000000000000000000081565b60405160ff90911681526020015b60405180910390f35b61010c6101073660046108e1565b610292565b6040516001600160c01b0390911681526020016100f0565b61014b7f000000000000000000000000000000000000000000000000000000000000000081565b6040516001600160a01b0390911681526020016100f0565b61016b610366565b604080516001600160c01b03948516815292841660208401529216918101919091526060016100f0565b61014b7f000000000000000000000000000000000000000000000000000000000000000081565b61010c7f000000000000000000000000000000000000000000000000000000000000000081565b6101eb61045a565b604080516001600160c01b039384168152929091166020830152016100f0565b6102327f000000000000000000000000000000000000000000000000000000000000000081565b60405165ffffffffffff90911681526020016100f0565b61010c7f000000000000000000000000000000000000000000000000000000000000000081565b604051600081526020016100f0565b60005461010c906001600160c01b031681565b6040516370a0823160e01b81526001600160a01b038281166004830152600091610360917f000000000000000000000000000000000000000000000000000000000000000016906370a082319060240160206040518083038186803b1580156102fa57600080fd5b505afa15801561030e573d6000803e3d6000fd5b505050506040513d601f19601f82011682018060405250810190610332919061090a565b61035b7f0000000000000000000000000000000000000000000000000000000000000000610939565b610521565b92915050565b60008080806103be6001600160a01b037f0000000000000000000000000000000000000000000000000000000000000000167f0000000000000000000000000000000000000000000000000000000000000000610536565b90506104056103f5670de0b6b3a76400007f00000000000000000000000000000000000000000000000000000000000000006106c5565b6001600160c01b038316906106d1565b61044c61043a670de0b6b3a76400007f00000000000000000000000000000000000000000000000000000000000000006106df565b6001600160c01b0384169060026106eb565b600093509350935050909192565b600080306001600160a01b0316637d1ea1376040518163ffffffff1660e01b815260040160606040518083038186803b15801561049657600080fd5b505afa9250505080156104c6575060408051601f3d908101601f191682019092526104c391810190610975565b60015b610517573d8080156104f4576040519150601f19603f3d011682016040523d82523d6000602084013e6104f9565b606091505b50805161050557600080fd5b506000926001600160c01b0392509050565b5090939092509050565b600061052f8383600061072b565b9392505050565b6000806000806000866001600160a01b031663feaf968c6040518163ffffffff1660e01b815260040160a06040518083038186803b15801561057757600080fd5b505afa15801561058b573d6000803e3d6000fd5b505050506040513d601f19601f820116820180604052508101906105af91906109d2565b94509450509350935081600014806105de57508369ffffffffffffffffffff168169ffffffffffffffffffff16105b156105fc57604051630cd5fa0760e11b815260040160405180910390fd5b60006106088342610a22565b90508665ffffffffffff168165ffffffffffff16111561063b57604051630cd5fa0760e11b815260040160405180910390fd5b6106b984896001600160a01b031663313ce5676040518163ffffffff1660e01b815260040160206040518083038186803b15801561067857600080fd5b505afa15801561068c573d6000803e3d6000fd5b505050506040513d601f19601f820116820180604052508101906106b09190610a39565b61035b90610939565b98975050505050505050565b600061052f8284610a5c565b600061052f838360006106eb565b600061052f8284610a87565b600061072361071e61070e670de0b6b3a76400006001600160c01b038816610aaf565b856001600160c01b0316856107fb565b61089b565b949350505050565b60008361073a5750600061052f565b605f198360000b1361077357600282600281111561075a5761075a610ace565b14610766576000610769565b60015b60ff16905061052f565b8260000b6028136107975760405163f44398f560e01b815260040160405180910390fd5b6107a2601284610ae4565b925060006107b28460000b6108c9565b6107bd90600a610c0b565b90506000808560000b12156107dc576107d78683866107fb565b6107e6565b6107e68287610aaf565b90506107f18161089b565b9695505050505050565b6000806108088486610c2d565b9050600083600281111561081e5761081e610ace565b141561082b57905061052f565b600183600281111561083f5761083f610ace565b141561087f576002610852600186610a22565b61085c9190610c2d565b6108668587610c41565b111561087a578061087681610c55565b9150505b610723565b600061088b8587610c41565b111561072357806107f181610c55565b60006001600160c01b038211156108c55760405163f44398f560e01b815260040160405180910390fd5b5090565b60008082126108d85781610360565b61036082610c70565b6000602082840312156108f357600080fd5b81356001600160a01b038116811461052f57600080fd5b60006020828403121561091c57600080fd5b5051919050565b634e487b7160e01b600052601160045260246000fd5b600081810b607f1981141561095057610950610923565b60000392915050565b80516001600160c01b038116811461097057600080fd5b919050565b60008060006060848603121561098a57600080fd5b61099384610959565b92506109a160208501610959565b91506109af60408501610959565b90509250925092565b805169ffffffffffffffffffff8116811461097057600080fd5b600080600080600060a086880312156109ea57600080fd5b6109f3866109b8565b9450602086015193506040860151925060608601519150610a16608087016109b8565b90509295509295909350565b600082821015610a3457610a34610923565b500390565b600060208284031215610a4b57600080fd5b815160ff8116811461052f57600080fd5b60006001600160c01b03828116848216808303821115610a7e57610a7e610923565b01949350505050565b60006001600160c01b0383811690831681811015610aa757610aa7610923565b039392505050565b6000816000190483118215151615610ac957610ac9610923565b500290565b634e487b7160e01b600052602160045260246000fd5b60008160000b8360000b6000821282607f03821381151615610b0857610b08610923565b82607f19038212811615610b1e57610b1e610923565b50019392505050565b600181815b80851115610b62578160001904821115610b4857610b48610923565b80851615610b5557918102915b93841c9390800290610b2c565b509250929050565b600082610b7957506001610360565b81610b8657506000610360565b8160018114610b9c5760028114610ba657610bc2565b6001915050610360565b60ff841115610bb757610bb7610923565b50506001821b610360565b5060208310610133831016604e8410600b8410161715610be5575081810a610360565b610bef8383610b27565b8060001904821115610c0357610c03610923565b029392505050565b600061052f8383610b6a565b634e487b7160e01b600052601260045260246000fd5b600082610c3c57610c3c610c17565b500490565b600082610c5057610c50610c17565b500690565b6000600019821415610c6957610c69610923565b5060010190565b6000600160ff1b821415610c8657610c86610923565b506000039056fea26469706673582212201df755aede2d8d4d0bc5087c677bfbe9a05c092f846cd331c27cfe0c90ce976d64736f6c63430008090033",
  "linkReferences": {},
  "deployedLinkReferences": {}
}