{
  "_format": "hh-sol-artifact-1",
  "contractName": "DeployerRegistry",
  "sourceName": "contracts/reserve/facade/DeployerRegistry.sol",
  "abi": [
    {
      "inputs": [
        {
          "internalType": "address",
          "name": "owner_",
          "type": "address"
        }
      ],
      "stateMutability": "nonpayable",
      "type": "constructor"
    },
    {
      "anonymous": false,
      "inputs": [
        {
          "indexed": false,
          "internalType": "string",
          "name": "version",
          "type": "string"
        },
        {
          "indexed": false,
          "internalType": "contract IDeployer",
          "name": "deployer",
          "type": "address"
        }
      ],
      "name": "DeploymentRegistered",
      "type": "event"
    },
    {
      "anonymous": false,
      "inputs": [
        {
          "indexed": false,
          "internalType": "string",
          "name": "version",
          "type": "string"
        },
        {
          "indexed": false,
          "internalType": "contract IDeployer",
          "name": "deployer",
          "type": "address"
        }
      ],
      "name": "DeploymentUnregistered",
      "type": "event"
    },
    {
      "anonymous": false,
      "inputs": [
        {
          "indexed": false,
          "internalType": "string",
          "name": "version",
          "type": "string"
        },
        {
          "indexed": false,
          "internalType": "contract IDeployer",
          "name": "deployer",
          "type": "address"
        }
      ],
      "name": "LatestChanged",
      "type": "event"
    },
    {
      "anonymous": false,
      "inputs": [
        {
          "indexed": true,
          "internalType": "address",
          "name": "previousOwner",
          "type": "address"
        },
        {
          "indexed": true,
          "internalType": "address",
          "name": "newOwner",
          "type": "address"
        }
      ],
      "name": "OwnershipTransferred",
      "type": "event"
    },
    {
      "inputs": [],
      "name": "ENS",
      "outputs": [
        {
          "internalType": "string",
          "name": "",
          "type": "string"
        }
      ],
      "stateMutability": "view",
      "type": "function"
    },
    {
      "inputs": [
        {
          "internalType": "string",
          "name": "",
          "type": "string"
        }
      ],
      "name": "deployments",
      "outputs": [
        {
          "internalType": "contract IDeployer",
          "name": "",
          "type": "address"
        }
      ],
      "stateMutability": "view",
      "type": "function"
    },
    {
      "inputs": [],
      "name": "latestDeployment",
      "outputs": [
        {
          "internalType": "contract IDeployer",
          "name": "",
          "type": "address"
        }
      ],
      "stateMutability": "view",
      "type": "function"
    },
    {
      "inputs": [],
      "name": "owner",
      "outputs": [
        {
          "internalType": "address",
          "name": "",
          "type": "address"
        }
      ],
      "stateMutability": "view",
      "type": "function"
    },
    {
      "inputs": [
        {
          "internalType": "string",
          "name": "version",
          "type": "string"
        },
        {
          "internalType": "contract IDeployer",
          "name": "deployer",
          "type": "address"
        },
        {
          "internalType": "bool",
          "name": "makeLatest",
          "type": "bool"
        }
      ],
      "name": "register",
      "outputs": [],
      "stateMutability": "nonpayable",
      "type": "function"
    },
    {
      "inputs": [],
      "name": "renounceOwnership",
      "outputs": [],
      "stateMutability": "nonpayable",
      "type": "function"
    },
    {
      "inputs": [
        {
          "internalType": "address",
          "name": "newOwner",
          "type": "address"
        }
      ],
      "name": "transferOwnership",
      "outputs": [],
      "stateMutability": "nonpayable",
      "type": "function"
    },
    {
      "inputs": [
        {
          "internalType": "string",
          "name": "version",
          "type": "string"
        }
      ],
      "name": "unregister",
      "outputs": [],
      "stateMutability": "nonpayable",
      "type": "function"
    }
  ],
  "bytecode": "0x608060405234801561001057600080fd5b506040516108cd3803806108cd83398101604081905261002f91610097565b61003833610047565b61004181610047565b506100c7565b600080546001600160a01b038381166001600160a01b0319831681178455604051919092169283917f8be0079c531659141344cd1fd0a4f28419497f9722a3daafe3b4186f6b6457e09190a35050565b6000602082840312156100a957600080fd5b81516001600160a01b03811681146100c057600080fd5b9392505050565b6107f7806100d66000396000f3fe608060405234801561001057600080fd5b50600436106100885760003560e01c8063715018a61161005b578063715018a6146101495780638da5cb5b146101515780639f4fb5b714610162578063f2fde38b1461017557600080fd5b80631d2e2cc41461008d5780635ad3d872146100d557806360d7a278146101215780636598a1ae14610136575b600080fd5b6100bf604051806040016040528060138152602001720e4cae6cae4eccae0e4dee8dec6ded85ccae8d606b1b81525081565b6040516100cc9190610523565b60405180910390f35b6101096100e336600461058e565b80516020818301810180516001825292820191909301209152546001600160a01b031681565b6040516001600160a01b0390911681526020016100cc565b61013461012f36600461069d565b610188565b005b61013461014436600461070a565b610339565b6101346103ec565b6000546001600160a01b0316610109565b600254610109906001600160a01b031681565b61013461018336600461074c565b610400565b610190610479565b6001600160a01b0382166101e35760405162461bcd60e51b81526020600482015260156024820152743232b83637bcb2b91034b9903d32b9379030b2323960591b60448201526064015b60405180910390fd5b60006001600160a01b031660018585604051610200929190610770565b908152604051908190036020019020546001600160a01b0316146102595760405162461bcd60e51b815260206004820152601060248201526f63616e6e6f74206f766572777269746560801b60448201526064016101da565b7f494f3cbaf5dd660af57268030d95c8e7281d226faf5f3ae4bb1829ff27a86d3784848460405161028c93929190610780565b60405180910390a181600185856040516102a7929190610770565b90815260405190819003602001902080546001600160a01b03929092166001600160a01b03199092169190911790558015610333577f56fd93c9511ac775659e67bfb6a59822777edb24384f38cf714ee23efc47d6c384848460405161030f93929190610780565b60405180910390a1600280546001600160a01b0319166001600160a01b0384161790555b50505050565b610341610479565b7f546a7780f3c91abe806ff20321f4bb9559e6d491cbc7d3482d19cf7dd6d19c48828260018585604051610376929190610770565b9081526040519081900360200181205461039d9392916001600160a01b0390911690610780565b60405180910390a16000600183836040516103b9929190610770565b90815260405190819003602001902080546001600160a01b03929092166001600160a01b03199092169190911790555050565b6103f4610479565b6103fe60006104d3565b565b610408610479565b6001600160a01b03811661046d5760405162461bcd60e51b815260206004820152602660248201527f4f776e61626c653a206e6577206f776e657220697320746865207a65726f206160448201526564647265737360d01b60648201526084016101da565b610476816104d3565b50565b6000546001600160a01b031633146103fe5760405162461bcd60e51b815260206004820181905260248201527f4f776e61626c653a2063616c6c6572206973206e6f7420746865206f776e657260448201526064016101da565b600080546001600160a01b038381166001600160a01b0319831681178455604051919092169283917f8be0079c531659141344cd1fd0a4f28419497f9722a3daafe3b4186f6b6457e09190a35050565b600060208083528351808285015260005b8181101561055057858101830151858201604001528201610534565b81811115610562576000604083870101525b50601f01601f1916929092016040019392505050565b634e487b7160e01b600052604160045260246000fd5b6000602082840312156105a057600080fd5b813567ffffffffffffffff808211156105b857600080fd5b818401915084601f8301126105cc57600080fd5b8135818111156105de576105de610578565b604051601f8201601f19908116603f0116810190838211818310171561060657610606610578565b8160405282815287602084870101111561061f57600080fd5b826020860160208301376000928101602001929092525095945050505050565b60008083601f84011261065157600080fd5b50813567ffffffffffffffff81111561066957600080fd5b60208301915083602082850101111561068157600080fd5b9250929050565b6001600160a01b038116811461047657600080fd5b600080600080606085870312156106b357600080fd5b843567ffffffffffffffff8111156106ca57600080fd5b6106d68782880161063f565b90955093505060208501356106ea81610688565b9150604085013580151581146106ff57600080fd5b939692955090935050565b6000806020838503121561071d57600080fd5b823567ffffffffffffffff81111561073457600080fd5b6107408582860161063f565b90969095509350505050565b60006020828403121561075e57600080fd5b813561076981610688565b9392505050565b8183823760009101908152919050565b6040815282604082015282846060830137600060608483018101919091526001600160a01b03929092166020820152601f909201601f19169091010191905056fea26469706673582212200ec73a38544604a7937e8b7017dba728a644b6d3d1160754da6eb30b87443cbc64736f6c63430008090033",
  "linkReferences": {},
  "deployedLinkReferences": {}
}