{
  "_format": "hh-sol-artifact-1",
  "contractName": "FacadeTest",
  "sourceName": "contracts/reserve/facade/FacadeTest.sol",
  "abi": [
    {
      "inputs": [],
      "name": "UIntOutOfBounds",
      "type": "error"
    },
    {
      "inputs": [
        {
          "internalType": "contract IRToken",
          "name": "rToken",
          "type": "address"
        }
      ],
      "name": "claimAndSweepRewards",
      "outputs": [],
      "stateMutability": "nonpayable",
      "type": "function"
    },
    {
      "inputs": [
        {
          "internalType": "contract IRToken",
          "name": "rToken",
          "type": "address"
        }
      ],
      "name": "runAuctionsForAllTraders",
      "outputs": [],
      "stateMutability": "nonpayable",
      "type": "function"
    },
    {
      "inputs": [
        {
          "internalType": "contract IRToken",
          "name": "rToken",
          "type": "address"
        }
      ],
      "name": "totalAssetValue",
      "outputs": [
        {
          "internalType": "uint192",
          "name": "total",
          "type": "uint192"
        }
      ],
      "stateMutability": "nonpayable",
      "type": "function"
    }
  ],
  "bytecode": "0x608060405234801561001057600080fd5b5061184f806100206000396000f3fe608060405234801561001057600080fd5b50600436106100415760003560e01c80634cdd578a1461004657806398d2a73014610075578063e050ae5a1461008a575b600080fd5b6100596100543660046114fc565b61009d565b6040516001600160c01b03909116815260200160405180910390f35b6100886100833660046114fc565b610607565b005b6100886100983660046114fc565b61096f565b600080826001600160a01b031663dffeadd06040518163ffffffff1660e01b815260040160206040518083038186803b1580156100d957600080fd5b505afa1580156100ed573d6000803e3d6000fd5b505050506040513d601f19601f820116820180604052508101906101119190611519565b9050806001600160a01b031663181783586040518163ffffffff1660e01b8152600401600060405180830381600087803b15801561014e57600080fd5b505af1158015610162573d6000803e3d6000fd5b505050506000816001600160a01b031663979d7e866040518163ffffffff1660e01b815260040160206040518083038186803b1580156101a157600080fd5b505afa1580156101b5573d6000803e3d6000fd5b505050506040513d601f19601f820116820180604052508101906101d99190611519565b90506000826001600160a01b031663dc8af5f66040518163ffffffff1660e01b815260040160206040518083038186803b15801561021657600080fd5b505afa15801561022a573d6000803e3d6000fd5b505050506040513d601f19601f8201168201806040525081019061024e9190611519565b90506000836001600160a01b031663c99dc3dd6040518163ffffffff1660e01b815260040160206040518083038186803b15801561028b57600080fd5b505afa15801561029f573d6000803e3d6000fd5b505050506040513d601f19601f820116820180604052508101906102c39190611519565b90506000836001600160a01b0316632510a1d76040518163ffffffff1660e01b815260040160006040518083038186803b15801561030057600080fd5b505afa158015610314573d6000803e3d6000fd5b505050506040513d6000823e601f3d908101601f1916820160405261033c919081019061155c565b905060005b81518110156105fc57826001600160a01b031682828151811061036657610366611621565b60200260200101516001600160a01b031614806103ad5750876001600160a01b031682828151811061039a5761039a611621565b60200260200101516001600160a01b0316145b156103b7576105ea565b6000856001600160a01b031663cde2be8a8484815181106103da576103da611621565b60200260200101516040518263ffffffff1660e01b815260040161040d91906001600160a01b0391909116815260200190565b60206040518083038186803b15801561042557600080fd5b505afa158015610439573d6000803e3d6000fd5b505050506040513d601f19601f8201168201806040525081019061045d9190611519565b9050600080826001600160a01b031663a035b1fe6040518163ffffffff1660e01b8152600401604080518083038186803b15801561049a57600080fd5b505afa1580156104ae573d6000803e3d6000fd5b505050506040513d601f19601f820116820180604052508101906104d2919061164e565b909250905060006105146104ef6001600160c01b03851684611372565b60016105046001600160c01b03861687611385565b6001600160c01b03169190611391565b9050600061053d61052d670de0b6b3a764000084611372565b6001600160c01b038616906113d1565b604051632ac07b9560e11b81526001600160a01b038b811660048301529192506105e2916105d2918491891690635580f72a9060240160206040518083038186803b15801561058b57600080fd5b505afa15801561059f573d6000803e3d6000fd5b505050506040513d601f19601f820116820180604052508101906105c39190611681565b6001600160c01b0316906113d1565b6001600160c01b038e1690611372565b9b5050505050505b806105f4816116b2565b915050610341565b505050505050919050565b6000816001600160a01b031663dffeadd06040518163ffffffff1660e01b815260040160206040518083038186803b15801561064257600080fd5b505afa158015610656573d6000803e3d6000fd5b505050506040513d601f19601f8201168201806040525081019061067a9190611519565b9050806001600160a01b031663dc8af5f66040518163ffffffff1660e01b815260040160206040518083038186803b1580156106b557600080fd5b505afa1580156106c9573d6000803e3d6000fd5b505050506040513d601f19601f820116820180604052508101906106ed9190611519565b6001600160a01b031663372500ab6040518163ffffffff1660e01b8152600401600060405180830381600087803b15801561072757600080fd5b505af115801561073b573d6000803e3d6000fd5b50505050806001600160a01b031663531367636040518163ffffffff1660e01b815260040160206040518083038186803b15801561077857600080fd5b505afa15801561078c573d6000803e3d6000fd5b505050506040513d601f19601f820116820180604052508101906107b09190611519565b6001600160a01b031663372500ab6040518163ffffffff1660e01b8152600401600060405180830381600087803b1580156107ea57600080fd5b505af11580156107fe573d6000803e3d6000fd5b50505050806001600160a01b03166341bf0c4e6040518163ffffffff1660e01b815260040160206040518083038186803b15801561083b57600080fd5b505afa15801561084f573d6000803e3d6000fd5b505050506040513d601f19601f820116820180604052508101906108739190611519565b6001600160a01b031663372500ab6040518163ffffffff1660e01b8152600401600060405180830381600087803b1580156108ad57600080fd5b505af11580156108c1573d6000803e3d6000fd5b50505050816001600160a01b031663372500ab6040518163ffffffff1660e01b8152600401600060405180830381600087803b15801561090057600080fd5b505af1158015610914573d6000803e3d6000fd5b50505050816001600160a01b031663c1e4d0346040518163ffffffff1660e01b8152600401600060405180830381600087803b15801561095357600080fd5b505af1158015610967573d6000803e3d6000fd5b505050505050565b6000816001600160a01b031663dffeadd06040518163ffffffff1660e01b815260040160206040518083038186803b1580156109aa57600080fd5b505afa1580156109be573d6000803e3d6000fd5b505050506040513d601f19601f820116820180604052508101906109e29190611519565b90506000816001600160a01b031663dc8af5f66040518163ffffffff1660e01b815260040160206040518083038186803b158015610a1f57600080fd5b505afa158015610a33573d6000803e3d6000fd5b505050506040513d601f19601f82011682018060405250810190610a579190611519565b90506000826001600160a01b031663531367636040518163ffffffff1660e01b815260040160206040518083038186803b158015610a9457600080fd5b505afa158015610aa8573d6000803e3d6000fd5b505050506040513d601f19601f82011682018060405250810190610acc9190611519565b90506000836001600160a01b03166341bf0c4e6040518163ffffffff1660e01b815260040160206040518083038186803b158015610b0957600080fd5b505afa158015610b1d573d6000803e3d6000fd5b505050506040513d601f19601f82011682018060405250810190610b419190611519565b90506000846001600160a01b031663979d7e866040518163ffffffff1660e01b815260040160206040518083038186803b158015610b7e57600080fd5b505afa158015610b92573d6000803e3d6000fd5b505050506040513d601f19601f82011682018060405250810190610bb69190611519565b6001600160a01b0316632510a1d76040518163ffffffff1660e01b815260040160006040518083038186803b158015610bee57600080fd5b505afa158015610c02573d6000803e3d6000fd5b505050506040513d6000823e601f3d908101601f19168201604052610c2a919081019061155c565b905060005b815181101561116f576000856001600160a01b031663a9f752e5848481518110610c5b57610c5b611621565b60200260200101516040518263ffffffff1660e01b8152600401610c8e91906001600160a01b0391909116815260200190565b60206040518083038186803b158015610ca657600080fd5b505afa158015610cba573d6000803e3d6000fd5b505050506040513d601f19601f82011682018060405250810190610cde9190611519565b90506001600160a01b03811615801590610d645750806001600160a01b031663faf7ba6a6040518163ffffffff1660e01b815260040160206040518083038186803b158015610d2c57600080fd5b505afa158015610d40573d6000803e3d6000fd5b505050506040513d601f19601f82011682018060405250810190610d6491906116cd565b15610df057856001600160a01b0316630e0264d1848481518110610d8a57610d8a611621565b60200260200101516040518263ffffffff1660e01b8152600401610dbd91906001600160a01b0391909116815260200190565b600060405180830381600087803b158015610dd757600080fd5b505af1158015610deb573d6000803e3d6000fd5b505050505b846001600160a01b031663a9f752e5848481518110610e1157610e11611621565b60200260200101516040518263ffffffff1660e01b8152600401610e4491906001600160a01b0391909116815260200190565b60206040518083038186803b158015610e5c57600080fd5b505afa158015610e70573d6000803e3d6000fd5b505050506040513d601f19601f82011682018060405250810190610e949190611519565b90506001600160a01b03811615801590610f1a5750806001600160a01b031663faf7ba6a6040518163ffffffff1660e01b815260040160206040518083038186803b158015610ee257600080fd5b505afa158015610ef6573d6000803e3d6000fd5b505050506040513d601f19601f82011682018060405250810190610f1a91906116cd565b15610fa657846001600160a01b0316630e0264d1848481518110610f4057610f40611621565b60200260200101516040518263ffffffff1660e01b8152600401610f7391906001600160a01b0391909116815260200190565b600060405180830381600087803b158015610f8d57600080fd5b505af1158015610fa1573d6000803e3d6000fd5b505050505b836001600160a01b031663a9f752e5848481518110610fc757610fc7611621565b60200260200101516040518263ffffffff1660e01b8152600401610ffa91906001600160a01b0391909116815260200190565b60206040518083038186803b15801561101257600080fd5b505afa158015611026573d6000803e3d6000fd5b505050506040513d601f19601f8201168201806040525081019061104a9190611519565b90506001600160a01b038116158015906110d05750806001600160a01b031663faf7ba6a6040518163ffffffff1660e01b815260040160206040518083038186803b15801561109857600080fd5b505afa1580156110ac573d6000803e3d6000fd5b505050506040513d601f19601f820116820180604052508101906110d091906116cd565b1561115c57836001600160a01b0316630e0264d18484815181106110f6576110f6611621565b60200260200101516040518263ffffffff1660e01b815260040161112991906001600160a01b0391909116815260200190565b600060405180830381600087803b15801561114357600080fd5b505af1158015611157573d6000803e3d6000fd5b505050505b5080611167816116b2565b915050610c2f565b50846001600160a01b031663dc8af5f66040518163ffffffff1660e01b815260040160206040518083038186803b1580156111a957600080fd5b505afa1580156111bd573d6000803e3d6000fd5b505050506040513d601f19601f820116820180604052508101906111e19190611519565b6001600160a01b031663a8372fd8826040518263ffffffff1660e01b815260040161120c91906116ef565b600060405180830381600087803b15801561122657600080fd5b505af115801561123a573d6000803e3d6000fd5b5050505060005b815181101561136957836001600160a01b0316639b4ec8e983838151811061126b5761126b611621565b60200260200101516040518263ffffffff1660e01b815260040161129e91906001600160a01b0391909116815260200190565b600060405180830381600087803b1580156112b857600080fd5b505af11580156112cc573d6000803e3d6000fd5b50505050826001600160a01b0316639b4ec8e98383815181106112f1576112f1611621565b60200260200101516040518263ffffffff1660e01b815260040161132491906001600160a01b0391909116815260200190565b600060405180830381600087803b15801561133e57600080fd5b505af1158015611352573d6000803e3d6000fd5b505050508080611361906116b2565b915050611241565b50505050505050565b600061137e828461173c565b9392505050565b600061137e8284611767565b60006113c96113c46113b4670de0b6b3a76400006001600160c01b03881661178f565b856001600160c01b0316856113df565b611489565b949350505050565b600061137e838360016114b7565b6000806113ec84866117c4565b90506000836002811115611402576114026117d8565b141561140f57905061137e565b6001836002811115611423576114236117d8565b14156114635760026114366001866117ee565b61144091906117c4565b61144a8587611805565b111561145e578061145a816116b2565b9150505b6113c9565b600061146f8587611805565b11156113c9578061147f816116b2565b9695505050505050565b60006001600160c01b038211156114b35760405163f44398f560e01b815260040160405180910390fd5b5090565b60006113c96113c46114d56001600160c01b0380871690881661178f565b670de0b6b3a7640000856113df565b6001600160a01b03811681146114f957600080fd5b50565b60006020828403121561150e57600080fd5b813561137e816114e4565b60006020828403121561152b57600080fd5b815161137e816114e4565b8051611541816114e4565b919050565b634e487b7160e01b600052604160045260246000fd5b6000602080838503121561156f57600080fd5b825167ffffffffffffffff8082111561158757600080fd5b818501915085601f83011261159b57600080fd5b8151818111156115ad576115ad611546565b8060051b604051601f19603f830116810181811085821117156115d2576115d2611546565b6040529182528482019250838101850191888311156115f057600080fd5b938501935b828510156116155761160685611536565b845293850193928501926115f5565b98975050505050505050565b634e487b7160e01b600052603260045260246000fd5b80516001600160c01b038116811461154157600080fd5b6000806040838503121561166157600080fd5b61166a83611637565b915061167860208401611637565b90509250929050565b60006020828403121561169357600080fd5b61137e82611637565b634e487b7160e01b600052601160045260246000fd5b60006000198214156116c6576116c661169c565b5060010190565b6000602082840312156116df57600080fd5b8151801515811461137e57600080fd5b6020808252825182820181905260009190848201906040850190845b818110156117305783516001600160a01b03168352928401929184019160010161170b565b50909695505050505050565b60006001600160c01b0382811684821680830382111561175e5761175e61169c565b01949350505050565b60006001600160c01b03838116908316818110156117875761178761169c565b039392505050565b60008160001904831182151516156117a9576117a961169c565b500290565b634e487b7160e01b600052601260045260246000fd5b6000826117d3576117d36117ae565b500490565b634e487b7160e01b600052602160045260246000fd5b6000828210156118005761180061169c565b500390565b600082611814576118146117ae565b50069056fea26469706673582212201ef02703cfb51b3c54476da1fb8268fd9f2d2f48b5a6ac1c93096823001b244864736f6c63430008090033",
  "linkReferences": {},
  "deployedLinkReferences": {}
}