{
  "_format": "hh-sol-artifact-1",
  "contractName": "BackingManagerP1V2",
  "sourceName": "contracts/reserve/plugins/mocks/upgrades/BackingManagerV2.sol",
  "abi": [
    {
      "inputs": [],
      "name": "UIntOutOfBounds",
      "type": "error"
    },
    {
      "anonymous": false,
      "inputs": [
        {
          "indexed": false,
          "internalType": "address",
          "name": "previousAdmin",
          "type": "address"
        },
        {
          "indexed": false,
          "internalType": "address",
          "name": "newAdmin",
          "type": "address"
        }
      ],
      "name": "AdminChanged",
      "type": "event"
    },
    {
      "anonymous": false,
      "inputs": [
        {
          "indexed": true,
          "internalType": "uint192",
          "name": "oldVal",
          "type": "uint192"
        },
        {
          "indexed": true,
          "internalType": "uint192",
          "name": "newVal",
          "type": "uint192"
        }
      ],
      "name": "BackingBufferSet",
      "type": "event"
    },
    {
      "anonymous": false,
      "inputs": [
        {
          "indexed": true,
          "internalType": "address",
          "name": "beacon",
          "type": "address"
        }
      ],
      "name": "BeaconUpgraded",
      "type": "event"
    },
    {
      "anonymous": false,
      "inputs": [
        {
          "indexed": false,
          "internalType": "uint8",
          "name": "version",
          "type": "uint8"
        }
      ],
      "name": "Initialized",
      "type": "event"
    },
    {
      "anonymous": false,
      "inputs": [
        {
          "indexed": true,
          "internalType": "uint192",
          "name": "oldVal",
          "type": "uint192"
        },
        {
          "indexed": true,
          "internalType": "uint192",
          "name": "newVal",
          "type": "uint192"
        }
      ],
      "name": "MaxTradeSlippageSet",
      "type": "event"
    },
    {
      "anonymous": false,
      "inputs": [
        {
          "indexed": true,
          "internalType": "uint192",
          "name": "oldVal",
          "type": "uint192"
        },
        {
          "indexed": true,
          "internalType": "uint192",
          "name": "newVal",
          "type": "uint192"
        }
      ],
      "name": "MinTradeVolumeSet",
      "type": "event"
    },
    {
      "anonymous": false,
      "inputs": [
        {
          "indexed": true,
          "internalType": "contract IERC20",
          "name": "erc20",
          "type": "address"
        },
        {
          "indexed": true,
          "internalType": "uint256",
          "name": "amount",
          "type": "uint256"
        }
      ],
      "name": "RewardsClaimed",
      "type": "event"
    },
    {
      "anonymous": false,
      "inputs": [
        {
          "indexed": true,
          "internalType": "contract ITrade",
          "name": "trade",
          "type": "address"
        },
        {
          "indexed": true,
          "internalType": "contract IERC20",
          "name": "sell",
          "type": "address"
        },
        {
          "indexed": true,
          "internalType": "contract IERC20",
          "name": "buy",
          "type": "address"
        },
        {
          "indexed": false,
          "internalType": "uint256",
          "name": "sellAmount",
          "type": "uint256"
        },
        {
          "indexed": false,
          "internalType": "uint256",
          "name": "buyAmount",
          "type": "uint256"
        }
      ],
      "name": "TradeSettled",
      "type": "event"
    },
    {
      "anonymous": false,
      "inputs": [
        {
          "indexed": true,
          "internalType": "contract ITrade",
          "name": "trade",
          "type": "address"
        },
        {
          "indexed": true,
          "internalType": "contract IERC20",
          "name": "sell",
          "type": "address"
        },
        {
          "indexed": true,
          "internalType": "contract IERC20",
          "name": "buy",
          "type": "address"
        },
        {
          "indexed": false,
          "internalType": "uint256",
          "name": "sellAmount",
          "type": "uint256"
        },
        {
          "indexed": false,
          "internalType": "uint256",
          "name": "minBuyAmount",
          "type": "uint256"
        }
      ],
      "name": "TradeStarted",
      "type": "event"
    },
    {
      "anonymous": false,
      "inputs": [
        {
          "indexed": true,
          "internalType": "uint48",
          "name": "oldVal",
          "type": "uint48"
        },
        {
          "indexed": true,
          "internalType": "uint48",
          "name": "newVal",
          "type": "uint48"
        }
      ],
      "name": "TradingDelaySet",
      "type": "event"
    },
    {
      "anonymous": false,
      "inputs": [
        {
          "indexed": true,
          "internalType": "address",
          "name": "implementation",
          "type": "address"
        }
      ],
      "name": "Upgraded",
      "type": "event"
    },
    {
      "inputs": [],
      "name": "MAX_BACKING_BUFFER",
      "outputs": [
        {
          "internalType": "uint192",
          "name": "",
          "type": "uint192"
        }
      ],
      "stateMutability": "view",
      "type": "function"
    },
    {
      "inputs": [],
      "name": "MAX_TRADE_SLIPPAGE",
      "outputs": [
        {
          "internalType": "uint192",
          "name": "",
          "type": "uint192"
        }
      ],
      "stateMutability": "view",
      "type": "function"
    },
    {
      "inputs": [],
      "name": "MAX_TRADING_DELAY",
      "outputs": [
        {
          "internalType": "uint48",
          "name": "",
          "type": "uint48"
        }
      ],
      "stateMutability": "view",
      "type": "function"
    },
    {
      "inputs": [],
      "name": "MIN_TRADE_VOLUME",
      "outputs": [
        {
          "internalType": "uint192",
          "name": "",
          "type": "uint192"
        }
      ],
      "stateMutability": "view",
      "type": "function"
    },
    {
      "inputs": [],
      "name": "backingBuffer",
      "outputs": [
        {
          "internalType": "uint192",
          "name": "",
          "type": "uint192"
        }
      ],
      "stateMutability": "view",
      "type": "function"
    },
    {
      "inputs": [],
      "name": "claimRewards",
      "outputs": [],
      "stateMutability": "nonpayable",
      "type": "function"
    },
    {
      "inputs": [
        {
          "internalType": "contract IERC20",
          "name": "erc20",
          "type": "address"
        }
      ],
      "name": "claimRewardsSingle",
      "outputs": [],
      "stateMutability": "nonpayable",
      "type": "function"
    },
    {
      "inputs": [
        {
          "internalType": "contract IERC20",
          "name": "erc20",
          "type": "address"
        }
      ],
      "name": "grantRTokenAllowance",
      "outputs": [],
      "stateMutability": "nonpayable",
      "type": "function"
    },
    {
      "inputs": [
        {
          "internalType": "contract IMain",
          "name": "main_",
          "type": "address"
        },
        {
          "internalType": "uint48",
          "name": "tradingDelay_",
          "type": "uint48"
        },
        {
          "internalType": "uint192",
          "name": "backingBuffer_",
          "type": "uint192"
        },
        {
          "internalType": "uint192",
          "name": "maxTradeSlippage_",
          "type": "uint192"
        },
        {
          "internalType": "uint192",
          "name": "minTradeVolume_",
          "type": "uint192"
        }
      ],
      "name": "init",
      "outputs": [],
      "stateMutability": "nonpayable",
      "type": "function"
    },
    {
      "inputs": [],
      "name": "main",
      "outputs": [
        {
          "internalType": "contract IMain",
          "name": "",
          "type": "address"
        }
      ],
      "stateMutability": "view",
      "type": "function"
    },
    {
      "inputs": [
        {
          "internalType": "contract IERC20[]",
          "name": "erc20s",
          "type": "address[]"
        }
      ],
      "name": "manageTokens",
      "outputs": [],
      "stateMutability": "nonpayable",
      "type": "function"
    },
    {
      "inputs": [
        {
          "internalType": "contract IERC20[]",
          "name": "erc20s",
          "type": "address[]"
        }
      ],
      "name": "manageTokensSortedOrder",
      "outputs": [],
      "stateMutability": "nonpayable",
      "type": "function"
    },
    {
      "inputs": [],
      "name": "maxTradeSlippage",
      "outputs": [
        {
          "internalType": "uint192",
          "name": "",
          "type": "uint192"
        }
      ],
      "stateMutability": "view",
      "type": "function"
    },
    {
      "inputs": [],
      "name": "minTradeVolume",
      "outputs": [
        {
          "internalType": "uint192",
          "name": "",
          "type": "uint192"
        }
      ],
      "stateMutability": "view",
      "type": "function"
    },
    {
      "inputs": [
        {
          "internalType": "bytes[]",
          "name": "data",
          "type": "bytes[]"
        }
      ],
      "name": "multicall",
      "outputs": [
        {
          "internalType": "bytes[]",
          "name": "results",
          "type": "bytes[]"
        }
      ],
      "stateMutability": "nonpayable",
      "type": "function"
    },
    {
      "inputs": [],
      "name": "newValue",
      "outputs": [
        {
          "internalType": "uint256",
          "name": "",
          "type": "uint256"
        }
      ],
      "stateMutability": "view",
      "type": "function"
    },
    {
      "inputs": [],
      "name": "proxiableUUID",
      "outputs": [
        {
          "internalType": "bytes32",
          "name": "",
          "type": "bytes32"
        }
      ],
      "stateMutability": "view",
      "type": "function"
    },
    {
      "inputs": [
        {
          "internalType": "uint192",
          "name": "val",
          "type": "uint192"
        }
      ],
      "name": "setBackingBuffer",
      "outputs": [],
      "stateMutability": "nonpayable",
      "type": "function"
    },
    {
      "inputs": [
        {
          "internalType": "uint192",
          "name": "val",
          "type": "uint192"
        }
      ],
      "name": "setMaxTradeSlippage",
      "outputs": [],
      "stateMutability": "nonpayable",
      "type": "function"
    },
    {
      "inputs": [
        {
          "internalType": "uint192",
          "name": "val",
          "type": "uint192"
        }
      ],
      "name": "setMinTradeVolume",
      "outputs": [],
      "stateMutability": "nonpayable",
      "type": "function"
    },
    {
      "inputs": [
        {
          "internalType": "uint256",
          "name": "newValue_",
          "type": "uint256"
        }
      ],
      "name": "setNewValue",
      "outputs": [],
      "stateMutability": "nonpayable",
      "type": "function"
    },
    {
      "inputs": [
        {
          "internalType": "uint48",
          "name": "val",
          "type": "uint48"
        }
      ],
      "name": "setTradingDelay",
      "outputs": [],
      "stateMutability": "nonpayable",
      "type": "function"
    },
    {
      "inputs": [
        {
          "internalType": "contract IERC20",
          "name": "sell",
          "type": "address"
        }
      ],
      "name": "settleTrade",
      "outputs": [],
      "stateMutability": "nonpayable",
      "type": "function"
    },
    {
      "inputs": [
        {
          "internalType": "contract IERC20",
          "name": "",
          "type": "address"
        }
      ],
      "name": "trades",
      "outputs": [
        {
          "internalType": "contract ITrade",
          "name": "",
          "type": "address"
        }
      ],
      "stateMutability": "view",
      "type": "function"
    },
    {
      "inputs": [],
      "name": "tradesOpen",
      "outputs": [
        {
          "internalType": "uint48",
          "name": "",
          "type": "uint48"
        }
      ],
      "stateMutability": "view",
      "type": "function"
    },
    {
      "inputs": [],
      "name": "tradingDelay",
      "outputs": [
        {
          "internalType": "uint48",
          "name": "",
          "type": "uint48"
        }
      ],
      "stateMutability": "view",
      "type": "function"
    },
    {
      "inputs": [
        {
          "internalType": "uint256",
          "name": "x",
          "type": "uint256"
        },
        {
          "internalType": "uint256",
          "name": "y",
          "type": "uint256"
        },
        {
          "internalType": "uint256",
          "name": "z",
          "type": "uint256"
        }
      ],
      "name": "tryMulDiv256Ceil",
      "outputs": [
        {
          "internalType": "uint256",
          "name": "",
          "type": "uint256"
        }
      ],
      "stateMutability": "pure",
      "type": "function"
    },
    {
      "inputs": [
        {
          "internalType": "address",
          "name": "newImplementation",
          "type": "address"
        }
      ],
      "name": "upgradeTo",
      "outputs": [],
      "stateMutability": "nonpayable",
      "type": "function"
    },
    {
      "inputs": [
        {
          "internalType": "address",
          "name": "newImplementation",
          "type": "address"
        },
        {
          "internalType": "bytes",
          "name": "data",
          "type": "bytes"
        }
      ],
      "name": "upgradeToAndCall",
      "outputs": [],
      "stateMutability": "payable",
      "type": "function"
    },
    {
      "inputs": [],
      "name": "version",
      "outputs": [
        {
          "internalType": "string",
          "name": "",
          "type": "string"
        }
      ],
      "stateMutability": "pure",
      "type": "function"
    }
  ],
  "bytecode": "0x60a0604052306080523480156200001557600080fd5b50600054610100900460ff1615808015620000375750600054600160ff909116105b8062000067575062000054306200014160201b620022a31760201c565b15801562000067575060005460ff166001145b620000cf5760405162461bcd60e51b815260206004820152602e60248201527f496e697469616c697a61626c653a20636f6e747261637420697320616c72656160448201526d191e481a5b9a5d1a585b1a5e995960921b606482015260840160405180910390fd5b6000805460ff191660011790558015620000f3576000805461ff0019166101001790555b80156200013a576000805461ff0019169055604051600181527f7f26b83ff96e1f2b6a682f133852f6798a09c465da95921460cefb38474024989060200160405180910390a15b5062000150565b6001600160a01b03163b151590565b6080516153656200018860003960008181610b3f01528181610b7f015281816112130152818161125301526112e201526153656000f3fe6080604052600436106101cd5760003560e01c80637cbf6db2116100f7578063b9bebb0411610095578063d50e7a7011610064578063d50e7a70146104f9578063dd47cebf14610574578063dffeadd014610595578063e7227de6146105b557600080fd5b8063b9bebb04146104f9578063bcaeb7b914610515578063c76aeb1214610535578063cb9414f81461055457600080fd5b8063a8372fd8116100d1578063a8372fd81461043e578063a9f752e51461045e578063ac9650d8146104ac578063adaef42c146104d957600080fd5b80637cbf6db2146103de578063951c4077146103fe57806398026d941461041e57600080fd5b806336a02f571161016f5780634f1ef2861161013e5780634f1ef2861461036b57806352d1902d1461037e57806354fd4d50146103935780637c65452c146103c757600080fd5b806336a02f57146102f6578063372500ab14610316578063386eafd91461032b5780633f0568531461034b57600080fd5b806312701397116101ab57806312701397146102585780631e911a5c146102795780632bca33e9146102a75780633659cfe6146102d657600080fd5b80630db3d42c146101d25780630e0264d11461021657806310e4d36b14610238575b600080fd5b3480156101de57600080fd5b5060fd546101f990600160301b90046001600160c01b031681565b6040516001600160c01b0390911681526020015b60405180910390f35b34801561022257600080fd5b50610236610231366004614816565b6105dc565b005b34801561024457600080fd5b50610236610253366004614848565b610990565b34801561026457600080fd5b50610135546101f9906001600160c01b031681565b34801561028557600080fd5b50610299610294366004614865565b610b1b565b60405190815260200161020d565b3480156102b357600080fd5b506102bf6301e1338081565b60405165ffffffffffff909116815260200161020d565b3480156102e257600080fd5b506102366102f1366004614816565b610b34565b34801561030257600080fd5b50610236610311366004614848565b610c11565b34801561032257600080fd5b50610236610da0565b34801561033757600080fd5b506102366103463660046148a5565b610f3c565b34801561035757600080fd5b5061023661036636600461490e565b6110cf565b610236610379366004614997565b611208565b34801561038a57600080fd5b506102996112d5565b34801561039f57600080fd5b5060408051808201825260058152640322e302e360dc1b6020820152905161020d9190614a97565b3480156103d357600080fd5b5061029961015f5481565b3480156103ea57600080fd5b5060fe546101f9906001600160c01b031681565b34801561040a57600080fd5b50610236610419366004614aaa565b611388565b34801561042a57600080fd5b50610236610439366004614816565b611462565b34801561044a57600080fd5b5061023661045936600461490e565b6116e5565b34801561046a57600080fd5b50610494610479366004614816565b60fc602052600090815260409020546001600160a01b031681565b6040516001600160a01b03909116815260200161020d565b3480156104b857600080fd5b506104cc6104c736600461490e565b611803565b60405161020d9190614ac3565b3480156104e557600080fd5b506102366104f4366004614816565b6118f9565b34801561050557600080fd5b506101f9670de0b6b3a764000081565b34801561052157600080fd5b50610236610530366004614b25565b611b11565b34801561054157600080fd5b5060fd546102bf9065ffffffffffff1681565b34801561056057600080fd5b5061023661056f366004614848565b6120ff565b34801561058057600080fd5b506101f96c01431e0fae6d7217caa000000081565b3480156105a157600080fd5b50609754610494906001600160a01b031681565b3480156105c157600080fd5b50610134546102bf90600160a01b900465ffffffffffff1681565b609760009054906101000a90046001600160a01b03166001600160a01b031663f17063756040518163ffffffff1660e01b815260040160206040518083038186803b15801561062a57600080fd5b505afa15801561063e573d6000803e3d6000fd5b505050506040513d601f19601f820116820180604052508101906106629190614bab565b156106885760405162461bcd60e51b815260040161067f90614bc6565b60405180910390fd5b6106906122b2565b6001600160a01b03808216600090815260fc602052604090205416806106b65750610983565b806001600160a01b031663faf7ba6a6040518163ffffffff1660e01b815260040160206040518083038186803b1580156106ef57600080fd5b505afa158015610703573d6000803e3d6000fd5b505050506040513d601f19601f820116820180604052508101906107279190614bab565b6107675760405162461bcd60e51b815260206004820152601160248201527018d85b9b9bdd081cd95d1d1b19481e595d607a1b604482015260640161067f565b6001600160a01b038216600090815260fc6020526040812080546001600160a01b031916905560fd805465ffffffffffff16916107a383614c06565b91906101000a81548165ffffffffffff021916908365ffffffffffff16021790555050600080826001600160a01b03166311da60b46040518163ffffffff1660e01b81526004016040805180830381600087803b15801561080357600080fd5b505af1158015610817573d6000803e3d6000fd5b505050506040513d601f19601f8201168201806040525081019061083b9190614c28565b91509150826001600160a01b031663a6f2ae3a6040518163ffffffff1660e01b815260040160206040518083038186803b15801561087857600080fd5b505afa15801561088c573d6000803e3d6000fd5b505050506040513d601f19601f820116820180604052508101906108b09190614c4c565b6001600160a01b0316836001600160a01b031663457100746040518163ffffffff1660e01b815260040160206040518083038186803b1580156108f257600080fd5b505afa158015610906573d6000803e3d6000fd5b505050506040513d601f19601f8201168201806040525081019061092a9190614c4c565b6001600160a01b0316846001600160a01b03167f058fb1fa484531f400806f666315faf1a45941db93ba069405882b78ba40dc878585604051610977929190918252602082015260400190565b60405180910390a45050505b61098d600160c955565b50565b60975460408051808201909152600581526427aba722a960d91b60208201526001600160a01b03909116906391d14854906109ca90614c69565b336040516001600160e01b031960e085901b16815260048101929092526001600160a01b0316602482015260440160206040518083038186803b158015610a1057600080fd5b505afa158015610a24573d6000803e3d6000fd5b505050506040513d601f19601f82011682018060405250810190610a489190614bab565b610a645760405162461bcd60e51b815260040161067f90614c90565b670de0b6b3a76400006001600160c01b0382161115610abd5760405162461bcd60e51b815260206004820152601560248201527434b73b30b634b2103130b1b5b4b733a13ab33332b960591b604482015260640161067f565b610135546040516001600160c01b038084169216907f4ec8ac3ba3ecc0b9d7690e98f4bf8f5c70b8f2a9b4326c757b44ba3d19c1879690600090a361013580546001600160c01b0319166001600160c01b0392909216919091179055565b6000610b2a848484600261230c565b90505b9392505050565b306001600160a01b037f0000000000000000000000000000000000000000000000000000000000000000161415610b7d5760405162461bcd60e51b815260040161067f90614cb9565b7f00000000000000000000000000000000000000000000000000000000000000006001600160a01b0316610bc66000805160206152e9833981519152546001600160a01b031690565b6001600160a01b031614610bec5760405162461bcd60e51b815260040161067f90614d05565b610bf5816123bd565b6040805160008082526020820190925261098d91839190612491565b60975460408051808201909152600581526427aba722a960d91b60208201526001600160a01b03909116906391d1485490610c4b90614c69565b336040516001600160e01b031960e085901b16815260048101929092526001600160a01b0316602482015260440160206040518083038186803b158015610c9157600080fd5b505afa158015610ca5573d6000803e3d6000fd5b505050506040513d601f19601f82011682018060405250810190610cc99190614bab565b610ce55760405162461bcd60e51b815260040161067f90614c90565b6c01431e0fae6d7217caa00000006001600160c01b0382161115610d445760405162461bcd60e51b8152602060048201526016602482015275696e76616c6964206d696e5472616465566f6c756d6560501b604482015260640161067f565b60fe546040516001600160c01b038084169216907f1dec1ae9fd64ef0d8a6b130d853a8ab21d337625027cc60c63028f3d383495dc90600090a360fe80546001600160c01b0319166001600160c01b0392909216919091179055565b609760009054906101000a90046001600160a01b03166001600160a01b031663f17063756040518163ffffffff1660e01b815260040160206040518083038186803b158015610dee57600080fd5b505afa158015610e02573d6000803e3d6000fd5b505050506040513d601f19601f82011682018060405250810190610e269190614bab565b15610e435760405162461bcd60e51b815260040161067f90614bc6565b73__$08d36e59b955a5499e173aaa3c4eaafd65$__63d93888ad609760009054906101000a90046001600160a01b03166001600160a01b031663979d7e866040518163ffffffff1660e01b815260040160206040518083038186803b158015610eab57600080fd5b505afa158015610ebf573d6000803e3d6000fd5b505050506040513d601f19601f82011682018060405250810190610ee39190614c4c565b6040516001600160e01b031960e084901b1681526001600160a01b03909116600482015260240160006040518083038186803b158015610f2257600080fd5b505af4158015610f36573d6000803e3d6000fd5b50505050565b60975460408051808201909152600581526427aba722a960d91b60208201526001600160a01b03909116906391d1485490610f7690614c69565b336040516001600160e01b031960e085901b16815260048101929092526001600160a01b0316602482015260440160206040518083038186803b158015610fbc57600080fd5b505afa158015610fd0573d6000803e3d6000fd5b505050506040513d601f19601f82011682018060405250810190610ff49190614bab565b6110105760405162461bcd60e51b815260040161067f90614c90565b6301e1338065ffffffffffff821611156110635760405162461bcd60e51b8152602060048201526014602482015273696e76616c69642074726164696e6744656c617960601b604482015260640161067f565b6101345460405165ffffffffffff80841692600160a01b900416907f4af929ab8885bbdcb8b01903439a99e3fb33354657d151119f731b01db793bdb90600090a3610134805465ffffffffffff909216600160a01b0265ffffffffffff60a01b19909216919091179055565b609760009054906101000a90046001600160a01b03166001600160a01b031663f17063756040518163ffffffff1660e01b815260040160206040518083038186803b15801561111d57600080fd5b505afa158015611131573d6000803e3d6000fd5b505050506040513d601f19601f820116820180604052508101906111559190614bab565b156111725760405162461bcd60e51b815260040161067f90614bc6565b6111ae82828080602002602001604051908101604052809392919081815260200183836020028082843760009201919091525061261092505050565b6111fa5760405162461bcd60e51b815260206004820152601960248201527f6475706c69636174652f756e736f7274656420746f6b656e7300000000000000604482015260640161067f565b6112048282612699565b5050565b306001600160a01b037f00000000000000000000000000000000000000000000000000000000000000001614156112515760405162461bcd60e51b815260040161067f90614cb9565b7f00000000000000000000000000000000000000000000000000000000000000006001600160a01b031661129a6000805160206152e9833981519152546001600160a01b031690565b6001600160a01b0316146112c05760405162461bcd60e51b815260040161067f90614d05565b6112c9826123bd565b61120482826001612491565b6000306001600160a01b037f000000000000000000000000000000000000000000000000000000000000000016146113755760405162461bcd60e51b815260206004820152603860248201527f555550535570677261646561626c653a206d757374206e6f742062652063616c60448201527f6c6564207468726f7567682064656c656761746563616c6c0000000000000000606482015260840161067f565b506000805160206152e983398151915290565b60975460408051808201909152600581526427aba722a960d91b60208201526001600160a01b03909116906391d14854906113c290614c69565b336040516001600160e01b031960e085901b16815260048101929092526001600160a01b0316602482015260440160206040518083038186803b15801561140857600080fd5b505afa15801561141c573d6000803e3d6000fd5b505050506040513d601f19601f820116820180604052508101906114409190614bab565b61145c5760405162461bcd60e51b815260040161067f90614c90565b61015f55565b609760009054906101000a90046001600160a01b03166001600160a01b031663f17063756040518163ffffffff1660e01b815260040160206040518083038186803b1580156114b057600080fd5b505afa1580156114c4573d6000803e3d6000fd5b505050506040513d601f19601f820116820180604052508101906114e89190614bab565b156115055760405162461bcd60e51b815260040161067f90614bc6565b61012d5460405163c3c5a54760e01b81526001600160a01b0383811660048301529091169063c3c5a5479060240160206040518083038186803b15801561154b57600080fd5b505afa15801561155f573d6000803e3d6000fd5b505050506040513d601f19601f820116820180604052508101906115839190614bab565b6115c45760405162461bcd60e51b8152602060048201526012602482015271195c98cc8c081d5b9c9959da5cdd195c995960721b604482015260640161067f565b609754604080516320632fb960e11b81529051611654926001600160a01b0316916340c65f72916004808301926020929190829003018186803b15801561160a57600080fd5b505afa15801561161e573d6000803e3d6000fd5b505050506040513d601f19601f820116820180604052508101906116429190614c4c565b6001600160a01b038316906000612bf1565b609754604080516320632fb960e11b8152905161098d926001600160a01b0316916340c65f72916004808301926020929190829003018186803b15801561169a57600080fd5b505afa1580156116ae573d6000803e3d6000fd5b505050506040513d601f19601f820116820180604052508101906116d29190614c4c565b6001600160a01b03831690600019612bf1565b609760009054906101000a90046001600160a01b03166001600160a01b031663f17063756040518163ffffffff1660e01b815260040160206040518083038186803b15801561173357600080fd5b505afa158015611747573d6000803e3d6000fd5b505050506040513d601f19601f8201168201806040525081019061176b9190614bab565b156117885760405162461bcd60e51b815260040161067f90614bc6565b6117c4828280806020026020016040519081016040528093929190818152602001838360200280828437600092019190915250612d4892505050565b6111fa5760405162461bcd60e51b815260206004820152601060248201526f6475706c696361746520746f6b656e7360801b604482015260640161067f565b60608167ffffffffffffffff81111561181e5761181e614950565b60405190808252806020026020018201604052801561185157816020015b606081526020019060019003908161183c5790505b50905060005b828110156118f1576118c13085858481811061187557611875614d51565b90506020028101906118879190614d67565b8080601f016020809104026020016040519081016040528093929190818152602001838380828437600092019190915250612ddb92505050565b8282815181106118d3576118d3614d51565b602002602001018190525080806118e990614dae565b915050611857565b505b92915050565b609760009054906101000a90046001600160a01b03166001600160a01b031663f17063756040518163ffffffff1660e01b815260040160206040518083038186803b15801561194757600080fd5b505afa15801561195b573d6000803e3d6000fd5b505050506040513d601f19601f8201168201806040525081019061197f9190614bab565b1561199c5760405162461bcd60e51b815260040161067f90614bc6565b73__$08d36e59b955a5499e173aaa3c4eaafd65$__63c944276c609760009054906101000a90046001600160a01b03166001600160a01b031663979d7e866040518163ffffffff1660e01b815260040160206040518083038186803b158015611a0457600080fd5b505afa158015611a18573d6000803e3d6000fd5b505050506040513d601f19601f82011682018060405250810190611a3c9190614c4c565b6040516366f15f4560e11b81526001600160a01b038581166004830152919091169063cde2be8a9060240160206040518083038186803b158015611a7f57600080fd5b505afa158015611a93573d6000803e3d6000fd5b505050506040513d601f19601f82011682018060405250810190611ab79190614c4c565b6040516001600160e01b031960e084901b1681526001600160a01b03909116600482015260240160006040518083038186803b158015611af657600080fd5b505af4158015611b0a573d6000803e3d6000fd5b5050505050565b600054610100900460ff1615808015611b315750600054600160ff909116105b80611b4b5750303b158015611b4b575060005460ff166001145b611bae5760405162461bcd60e51b815260206004820152602e60248201527f496e697469616c697a61626c653a20636f6e747261637420697320616c72656160448201526d191e481a5b9a5d1a585b1a5e995960921b606482015260840161067f565b6000805460ff191660011790558015611bd1576000805461ff0019166101001790555b611bda86612e00565b611be5868484612e9e565b856001600160a01b031663979d7e866040518163ffffffff1660e01b815260040160206040518083038186803b158015611c1e57600080fd5b505afa158015611c32573d6000803e3d6000fd5b505050506040513d601f19601f82011682018060405250810190611c569190614c4c565b61012d60006101000a8154816001600160a01b0302191690836001600160a01b03160217905550856001600160a01b0316632f2439b16040518163ffffffff1660e01b815260040160206040518083038186803b158015611cb657600080fd5b505afa158015611cca573d6000803e3d6000fd5b505050506040513d601f19601f82011682018060405250810190611cee9190614c4c565b61012e60006101000a8154816001600160a01b0302191690836001600160a01b03160217905550856001600160a01b031663bfe109286040518163ffffffff1660e01b815260040160206040518083038186803b158015611d4e57600080fd5b505afa158015611d62573d6000803e3d6000fd5b505050506040513d601f19601f82011682018060405250810190611d869190614c4c565b61012f60006101000a8154816001600160a01b0302191690836001600160a01b03160217905550856001600160a01b031663c99dc3dd6040518163ffffffff1660e01b815260040160206040518083038186803b158015611de657600080fd5b505afa158015611dfa573d6000803e3d6000fd5b505050506040513d601f19601f82011682018060405250810190611e1e9190614c4c565b61013160006101000a8154816001600160a01b0302191690836001600160a01b03160217905550856001600160a01b031663531367636040518163ffffffff1660e01b815260040160206040518083038186803b158015611e7e57600080fd5b505afa158015611e92573d6000803e3d6000fd5b505050506040513d601f19601f82011682018060405250810190611eb69190614c4c565b61013360006101000a8154816001600160a01b0302191690836001600160a01b03160217905550856001600160a01b03166341bf0c4e6040518163ffffffff1660e01b815260040160206040518083038186803b158015611f1657600080fd5b505afa158015611f2a573d6000803e3d6000fd5b505050506040513d601f19601f82011682018060405250810190611f4e9190614c4c565b61013460006101000a8154816001600160a01b0302191690836001600160a01b03160217905550856001600160a01b03166340c65f726040518163ffffffff1660e01b815260040160206040518083038186803b158015611fae57600080fd5b505afa158015611fc2573d6000803e3d6000fd5b505050506040513d601f19601f82011682018060405250810190611fe69190614c4c565b61013060006101000a8154816001600160a01b0302191690836001600160a01b03160217905550856001600160a01b0316634780a5e56040518163ffffffff1660e01b815260040160206040518083038186803b15801561204657600080fd5b505afa15801561205a573d6000803e3d6000fd5b505050506040513d601f19601f8201168201806040525081019061207e9190614c4c565b61013280546001600160a01b0319166001600160a01b03929092169190911790556120a885610f3c565b6120b184610990565b80156120f7576000805461ff0019169055604051600181527f7f26b83ff96e1f2b6a682f133852f6798a09c465da95921460cefb38474024989060200160405180910390a15b505050505050565b60975460408051808201909152600581526427aba722a960d91b60208201526001600160a01b03909116906391d148549061213990614c69565b336040516001600160e01b031960e085901b16815260048101929092526001600160a01b0316602482015260440160206040518083038186803b15801561217f57600080fd5b505afa158015612193573d6000803e3d6000fd5b505050506040513d601f19601f820116820180604052508101906121b79190614bab565b6121d35760405162461bcd60e51b815260040161067f90614c90565b670de0b6b3a76400006001600160c01b038216106122335760405162461bcd60e51b815260206004820152601860248201527f696e76616c6964206d61785472616465536c6970706167650000000000000000604482015260640161067f565b60fd546040516001600160c01b0380841692600160301b900416907f58d1f6b92b372d2913abb309ec9503acc2a53ed508ec34f478d7aeab07760f9990600090a360fd80546001600160c01b03909216600160301b026601000000000000600160f01b0319909216919091179055565b6001600160a01b03163b151590565b600260c95414156123055760405162461bcd60e51b815260206004820152601f60248201527f5265656e7472616e637947756172643a207265656e7472616e742063616c6c00604482015260640161067f565b600260c955565b60008061231a868686612f68565b9050600083600281111561233057612330614dc9565b141561233d5790506123b5565b6000848061234d5761234d614ddf565b8688099050600284600281111561236657612366614dc9565b14156123855780156123805761237d600183614df5565b91505b6123b1565b6002612392600187614e0d565b61239c9190614e24565b8111156123b1576123ae600183614df5565b91505b5090505b949350505050565b60975460408051808201909152600581526427aba722a960d91b60208201526001600160a01b03909116906391d14854906123f790614c69565b336040516001600160e01b031960e085901b16815260048101929092526001600160a01b0316602482015260440160206040518083038186803b15801561243d57600080fd5b505afa158015612451573d6000803e3d6000fd5b505050506040513d601f19601f820116820180604052508101906124759190614bab565b61098d5760405162461bcd60e51b815260040161067f90614c90565b7f4910fdfa16fed3260ed0e7147f7cc6da11a60208b5b9406d12a635614ffd91435460ff16156124c9576124c48361304b565b505050565b826001600160a01b03166352d1902d6040518163ffffffff1660e01b815260040160206040518083038186803b15801561250257600080fd5b505afa925050508015612532575060408051601f3d908101601f1916820190925261252f91810190614e38565b60015b6125955760405162461bcd60e51b815260206004820152602e60248201527f45524331393637557067726164653a206e657720696d706c656d656e7461746960448201526d6f6e206973206e6f74205555505360901b606482015260840161067f565b6000805160206152e983398151915281146126045760405162461bcd60e51b815260206004820152602960248201527f45524331393637557067726164653a20756e737570706f727465642070726f786044820152681a58589b195555525160ba1b606482015260840161067f565b506124c48383836130e7565b805160009060015b8181101561268f578361262c600183614e0d565b8151811061263c5761263c614d51565b60200260200101516001600160a01b031684828151811061265f5761265f614d51565b60200260200101516001600160a01b03161161267f575060009392505050565b61268881614dae565b9050612618565b5060019392505050565b61012d60009054906101000a90046001600160a01b03166001600160a01b031663f8ac93e86040518163ffffffff1660e01b8152600401600060405180830381600087803b1580156126ea57600080fd5b505af11580156126fe573d6000803e3d6000fd5b505060fd5465ffffffffffff161591506127189050575050565b61012e5460408051631006976960e11b815290516000926001600160a01b03169163200d2ed2916004808301926020929190829003018186803b15801561275e57600080fd5b505afa158015612772573d6000803e3d6000fd5b505050506040513d601f19601f820116820180604052508101906127969190614e51565b60028111156127a7576127a7614dc9565b146127e75760405162461bcd60e51b815260206004820152601060248201526f18985cdad95d081b9bdd081cdbdd5b9960821b604482015260640161067f565b61012e5460408051635c03bbf560e11b815290516000926001600160a01b03169163b80777ea916004808301926020929190829003018186803b15801561282d57600080fd5b505afa158015612841573d6000803e3d6000fd5b505050506040513d601f19601f820116820180604052508101906128659190614e72565b6101345490915061288590600160a01b900465ffffffffffff1682614e8f565b65ffffffffffff1642101561289957505050565b61012e60009054906101000a90046001600160a01b03166001600160a01b031663e45a5b2d6040518163ffffffff1660e01b815260040160206040518083038186803b1580156128e857600080fd5b505afa1580156128fc573d6000803e3d6000fd5b505050506040513d601f19601f820116820180604052508101906129209190614bab565b1561292f576124c4838361310c565b6040516330bc418760e11b8152306004820152600090819073__$4ebac6caf5da0c5bb537df39309a96f92b$__90636178830e9060240160a06040518083038186803b15801561297e57600080fd5b505af4158015612992573d6000803e3d6000fd5b505050506040513d601f19601f820116820180604052508101906129b69190614eb9565b915091508115612be95761013160009054906101000a90046001600160a01b03166001600160a01b031681600001516001600160a01b031663785e9e866040518163ffffffff1660e01b815260040160206040518083038186803b158015612a1d57600080fd5b505afa158015612a31573d6000803e3d6000fd5b505050506040513d601f19601f82011682018060405250810190612a559190614c4c565b6001600160a01b03161415612bdb57600081600001516001600160a01b031663785e9e866040518163ffffffff1660e01b815260040160206040518083038186803b158015612aa357600080fd5b505afa158015612ab7573d6000803e3d6000fd5b505050506040513d601f19601f82011682018060405250810190612adb9190614c4c565b6040516370a0823160e01b81523060048201526001600160a01b0391909116906370a082319060240160206040518083038186803b158015612b1c57600080fd5b505afa158015612b30573d6000803e3d6000fd5b505050506040513d601f19601f82011682018060405250810190612b549190614e38565b90508082604001511115612bd9576101325460408301516001600160a01b039091169063a439622f90612b88908490614e0d565b6040518263ffffffff1660e01b8152600401612ba691815260200190565b600060405180830381600087803b158015612bc057600080fd5b505af1158015612bd4573d6000803e3d6000fd5b505050505b505b612be481613bee565b611b0a565b611b0a613ece565b801580612c7a5750604051636eb1769f60e11b81523060048201526001600160a01b03838116602483015284169063dd62ed3e9060440160206040518083038186803b158015612c4057600080fd5b505afa158015612c54573d6000803e3d6000fd5b505050506040513d601f19601f82011682018060405250810190612c789190614e38565b155b612ce55760405162461bcd60e51b815260206004820152603660248201527f5361666545524332303a20617070726f76652066726f6d206e6f6e2d7a65726f60448201527520746f206e6f6e2d7a65726f20616c6c6f77616e636560501b606482015260840161067f565b6040516001600160a01b0383166024820152604481018290526124c490849063095ea7b360e01b906064015b60408051601f198184030181529190526020810180516001600160e01b03166001600160e01b031990931692909217909152614053565b805160009060015b8181101561268f5760005b81811015612dca57848181518110612d7557612d75614d51565b60200260200101516001600160a01b0316858381518110612d9857612d98614d51565b60200260200101516001600160a01b03161415612dba57506000949350505050565b612dc381614dae565b9050612d5b565b50612dd481614dae565b9050612d50565b6060610b2d838360405180606001604052806027815260200161530960279139614125565b600054610100900460ff16612e275760405162461bcd60e51b815260040161067f90614f53565b6001600160a01b038116612e745760405162461bcd60e51b81526020600482015260146024820152736d61696e206973207a65726f206164647265737360601b604482015260640161067f565b612e7c61419d565b609780546001600160a01b0319166001600160a01b0392909216919091179055565b600054610100900460ff16612ec55760405162461bcd60e51b815260040161067f90614f53565b826001600160a01b031663abff01106040518163ffffffff1660e01b815260040160206040518083038186803b158015612efe57600080fd5b505afa158015612f12573d6000803e3d6000fd5b505050506040513d601f19601f82011682018060405250810190612f369190614c4c565b60fb80546001600160a01b0319166001600160a01b0392909216919091179055612f5f826120ff565b6124c481610c11565b6000806000612f7786866141c6565b91509150838210612f9b5760405163f44398f560e01b815260040160405180910390fd5b60008480612fab57612fab614ddf565b868809905081811115612fbf576001830392505b908190039060008590038516808681612fda57612fda614ddf565b049550808381612fec57612fec614ddf565b04925080816000038161300157613001614ddf565b046001019390930291909101600285810380870282030280870282030280870282030280870282030280870282030280870282030295860290039094029390930295945050505050565b6001600160a01b0381163b6130b85760405162461bcd60e51b815260206004820152602d60248201527f455243313936373a206e657720696d706c656d656e746174696f6e206973206e60448201526c1bdd08184818dbdb9d1c9858dd609a1b606482015260840161067f565b6000805160206152e983398151915280546001600160a01b0319166001600160a01b0392909216919091179055565b6130f0836141f3565b6000825111806130fd5750805b156124c457610f368383614233565b610131546040516370a0823160e01b81523060048201526000916001600160a01b0316906370a082319060240160206040518083038186803b15801561315157600080fd5b505afa158015613165573d6000803e3d6000fd5b505050506040513d601f19601f820116820180604052508101906131899190614e38565b11156132295761013354610131546040516370a0823160e01b8152306004820152613229926001600160a01b039081169216906370a082319060240160206040518083038186803b1580156131dd57600080fd5b505afa1580156131f1573d6000803e3d6000fd5b505050506040513d601f19601f820116820180604052508101906132159190614e38565b610131546001600160a01b03169190614327565b6101305460408051637121c27360e01b815290516000926001600160a01b031691637121c273916004808301926020929190829003018186803b15801561326f57600080fd5b505afa158015613283573d6000803e3d6000fd5b505050506040513d601f19601f820116820180604052508101906132a79190614f9e565b61012e54604051635523caaf60e11b81523060048201529192506000916001600160a01b039091169063aa47955e9060240160206040518083038186803b1580156132f157600080fd5b505afa158015613305573d6000803e3d6000fd5b505050506040513d601f19601f820116820180604052508101906133299190614f9e565b90506001600160c01b03828116908216111561359457610130546040805163313ce56760e01b815290516000926001600160a01b03169163313ce567916004808301926020929190829003018186803b15801561338557600080fd5b505afa158015613399573d6000803e3d6000fd5b505050506040513d601f19601f820116820180604052508101906133bd9190614fbb565b9050600061345961013060009054906101000a90046001600160a01b03166001600160a01b03166318160ddd6040518163ffffffff1660e01b815260040160206040518083038186803b15801561341357600080fd5b505afa158015613427573d6000803e3d6000fd5b505050506040513d601f19601f8201168201806040525081019061344b9190614e38565b61345484614fde565b614357565b905060006134706001600160c01b03851686614365565b9050600080866001600160c01b03161161348a578161349e565b61349e6001600160c01b0383168488614371565b610130549091506001600160a01b03166340c10f19306134c76001600160c01b03851688614380565b6040516001600160e01b031960e085901b1681526001600160a01b0390921660048301526024820152604401600060405180830381600087803b15801561350d57600080fd5b505af1158015613521573d6000803e3d6000fd5b505061013054604051636396544960e01b81526001600160c01b03891660048201526001600160a01b03909116925063639654499150602401600060405180830381600087803b15801561357457600080fd5b505af1158015613588573d6000803e3d6000fd5b50505050849550505050505b50610135546135c9906135b990670de0b6b3a7640000906001600160c01b031661438e565b6001600160c01b0383169061439a565b61012f546040805163601c51c760e11b8152815193945085936000936001600160a01b03169263c038a38e9260048082019391829003018186803b15801561361057600080fd5b505afa158015613624573d6000803e3d6000fd5b505050506040513d601f19601f820116820180604052508101906136489190615011565b905060008267ffffffffffffffff81111561366557613665614950565b60405190808252806020026020018201604052801561368e578160200160208202803683370190505b50905060008367ffffffffffffffff8111156136ac576136ac614950565b6040519080825280602002602001820160405280156136d5578160200160208202803683370190505b50905060005b84811015613aeb5761012d546000906001600160a01b031663cde2be8a8a8a8581811061370a5761370a614d51565b905060200201602081019061371f9190614816565b6040516001600160e01b031960e084901b1681526001600160a01b03909116600482015260240160206040518083038186803b15801561375e57600080fd5b505afa158015613772573d6000803e3d6000fd5b505050506040513d601f19601f820116820180604052508101906137969190614c4c565b61012e54909150600090613862906001600160a01b031663a5a5828c8c8c878181106137c4576137c4614d51565b90506020020160208101906137d99190614816565b6040516001600160e01b031960e084901b1681526001600160a01b03909116600482015260240160206040518083038186803b15801561381857600080fd5b505afa15801561382c573d6000803e3d6000fd5b505050506040513d601f19601f820116820180604052508101906138509190614f9e565b6001600160c01b038a169060026143a4565b604051632ac07b9560e11b81523060048201529091506138f39082906001600160a01b03851690635580f72a9060240160206040518083038186803b1580156138aa57600080fd5b505afa1580156138be573d6000803e3d6000fd5b505050506040513d601f19601f820116820180604052508101906138e29190614f9e565b6001600160c01b0391821691161190565b15613ad8576000613a2f8b8b8681811061390f5761390f614d51565b90506020020160208101906139249190614816565b6001600160a01b031663313ce5676040518163ffffffff1660e01b815260040160206040518083038186803b15801561395c57600080fd5b505afa158015613970573d6000803e3d6000fd5b505050506040513d601f19601f820116820180604052508101906139949190614fbb565b604051632ac07b9560e11b8152306004820152613a209085906001600160a01b03881690635580f72a9060240160206040518083038186803b1580156139d957600080fd5b505afa1580156139ed573d6000803e3d6000fd5b505050506040513d601f19601f82011682018060405250810190613a119190614f9e565b6001600160c01b031690614365565b6001600160c01b031690614380565b6020880151885191925062ffffff811691613a4a919061506c565b613a599062ffffff1683614e24565b613a63919061508a565b868581518110613a7557613a75614d51565b602002602001018181525050866000015162ffffff1687602001518860000151613a9f919061506c565b613aae9062ffffff1683614e24565b613ab8919061508a565b858581518110613aca57613aca614d51565b602002602001018181525050505b505080613ae490614dae565b90506136db565b5060005b84811015613be4576000888883818110613b0b57613b0b614d51565b9050602002016020810190613b209190614816565b90506000838381518110613b3657613b36614d51565b60200260200101511115613b8b57610134548351613b8b916001600160a01b031690859085908110613b6a57613b6a614d51565b6020026020010151836001600160a01b03166143279092919063ffffffff16565b6000848381518110613b9f57613b9f614d51565b60200260200101511115613bd357610133548451613bd3916001600160a01b031690869085908110613b6a57613b6a614d51565b50613bdd81614dae565b9050613aef565b5050505050505050565b613bf66122b2565b600081600001516001600160a01b031663785e9e866040518163ffffffff1660e01b815260040160206040518083038186803b158015613c3557600080fd5b505afa158015613c49573d6000803e3d6000fd5b505050506040513d601f19601f82011682018060405250810190613c6d9190614c4c565b6001600160a01b03808216600090815260fc60205260409020549192501615613c9857613c986150a9565b60fb54613cb3906001600160a01b0383811691166000612bf1565b60fb546040830151613cd3916001600160a01b0384811692911690612bf1565b60fb546040805163542d5e2960e01b815284516001600160a01b03908116600483015260208601518116602483015291850151604482015260608501516064820152600092919091169063542d5e2990608401602060405180830381600087803b158015613d4057600080fd5b505af1158015613d54573d6000803e3d6000fd5b505050506040513d601f19601f82011682018060405250810190613d789190614c4c565b6001600160a01b03838116600090815260fc6020526040812080546001600160a01b0319169284169290921790915560fd805492935065ffffffffffff9092169190613dc3836150bf565b91906101000a81548165ffffffffffff021916908365ffffffffffff1602179055505082602001516001600160a01b031663785e9e866040518163ffffffff1660e01b815260040160206040518083038186803b158015613e2357600080fd5b505afa158015613e37573d6000803e3d6000fd5b505050506040513d601f19601f82011682018060405250810190613e5b9190614c4c565b6001600160a01b0316826001600160a01b0316826001600160a01b03167ff18b757d93c36d059284838a0328b06d8eb30d7214ffadde3266465a0006f6b386604001518760600151604051613eba929190918252602082015260400190565b60405180910390a4505061098d600160c955565b60fd5465ffffffffffff16158015613f6a575061012e60009054906101000a90046001600160a01b03166001600160a01b031663e45a5b2d6040518163ffffffff1660e01b815260040160206040518083038186803b158015613f3057600080fd5b505afa158015613f44573d6000803e3d6000fd5b505050506040513d601f19601f82011682018060405250810190613f689190614bab565b155b613f7657613f766150a9565b6101305461012e54604051635523caaf60e11b81523060048201526001600160a01b0392831692636396544992169063aa47955e9060240160206040518083038186803b158015613fc657600080fd5b505afa158015613fda573d6000803e3d6000fd5b505050506040513d601f19601f82011682018060405250810190613ffe9190614f9e565b6040516001600160e01b031960e084901b1681526001600160c01b039091166004820152602401600060405180830381600087803b15801561403f57600080fd5b505af1158015610f36573d6000803e3d6000fd5b60006140a8826040518060400160405280602081526020017f5361666545524332303a206c6f772d6c6576656c2063616c6c206661696c6564815250856001600160a01b03166143d69092919063ffffffff16565b8051909150156124c457808060200190518101906140c69190614bab565b6124c45760405162461bcd60e51b815260206004820152602a60248201527f5361666545524332303a204552433230206f7065726174696f6e20646964206e6044820152691bdd081cdd58d8d9595960b21b606482015260840161067f565b6060600080856001600160a01b03168560405161414291906150e5565b600060405180830381855af49150503d806000811461417d576040519150601f19603f3d011682016040523d82523d6000602084013e614182565b606091505b5091509150614193868383876143e5565b9695505050505050565b600054610100900460ff166141c45760405162461bcd60e51b815260040161067f90614f53565b565b60008080600019848609905083850291508181039250818110156141eb576001830392505b509250929050565b6141fc8161304b565b6040516001600160a01b038216907fbc7cd75a20ee27fd9adebab32041f755214dbc6bffa90cc0225b39da2e5c2d3b90600090a250565b60606001600160a01b0383163b61429b5760405162461bcd60e51b815260206004820152602660248201527f416464726573733a2064656c65676174652063616c6c20746f206e6f6e2d636f6044820152651b9d1c9858dd60d21b606482015260840161067f565b600080846001600160a01b0316846040516142b691906150e5565b600060405180830381855af49150503d80600081146142f1576040519150601f19603f3d011682016040523d82523d6000602084013e6142f6565b606091505b509150915061431e82826040518060600160405280602781526020016153096027913961445b565b95945050505050565b6040516001600160a01b0383166024820152604481018290526124c490849063a9059cbb60e01b90606401612d11565b6000610b2d83836000614474565b6000610b2d8284615101565b6000610b2a848484600061453b565b6000610b2d83836000614567565b6000610b2d8284615129565b6000610b2d838360015b6000610b2a6143d16143c26001600160c01b0380871690881661508a565b670de0b6b3a764000085614616565b6146b6565b6060610b2a84846000856146e4565b6060831561445157825161444a576001600160a01b0385163b61444a5760405162461bcd60e51b815260206004820152601d60248201527f416464726573733a2063616c6c20746f206e6f6e2d636f6e7472616374000000604482015260640161067f565b50816123b5565b6123b583836147bf565b6060831561446a575081610b2d565b610b2d83836147bf565b60008361448357506000610b2d565b605f198360000b136144bd5760025b8260028111156144a4576144a4614dc9565b146144b05760006144b3565b60015b60ff169050610b2d565b8260000b6028136144e15760405163f44398f560e01b815260040160405180910390fd5b6144ec60128461514b565b925060006144fc8460000b6147e9565b61450790600a61526a565b90506000808560000b121561452657614521868386614616565b614530565b614530828761508a565b9050614193816146b6565b600061431e6143d1866001600160c01b0316866001600160c01b0316866001600160c01b03168661230c565b60006001600160c01b03841661457f57506000610b2d565b6029198360000b13614592576002614492565b8260000b6060136145b65760405163f44398f560e01b815260040160405180910390fd5b6145c1601284615276565b925060006145d18460000b6147e9565b6145dc90600a61526a565b905060008460000b1215614603576145fe856001600160c01b03168285614616565b61431e565b61431e816001600160c01b03871661508a565b6000806146238486614e24565b9050600083600281111561463957614639614dc9565b1415614646579050610b2d565b600183600281111561465a5761465a614dc9565b141561469a57600261466d600186614e0d565b6146779190614e24565b61468185876152b7565b1115614695578061469181614dae565b9150505b610b2a565b60006146a685876152b7565b1115610b2a578061419381614dae565b60006001600160c01b038211156146e05760405163f44398f560e01b815260040160405180910390fd5b5090565b6060824710156147455760405162461bcd60e51b815260206004820152602660248201527f416464726573733a20696e73756666696369656e742062616c616e636520666f6044820152651c8818d85b1b60d21b606482015260840161067f565b600080866001600160a01b0316858760405161476191906150e5565b60006040518083038185875af1925050503d806000811461479e576040519150601f19603f3d011682016040523d82523d6000602084013e6147a3565b606091505b50915091506147b4878383876143e5565b979650505050505050565b8151156147cf5781518083602001fd5b8060405162461bcd60e51b815260040161067f9190614a97565b60008082126147f857816118f3565b6118f3826152cb565b6001600160a01b038116811461098d57600080fd5b60006020828403121561482857600080fd5b8135610b2d81614801565b6001600160c01b038116811461098d57600080fd5b60006020828403121561485a57600080fd5b8135610b2d81614833565b60008060006060848603121561487a57600080fd5b505081359360208301359350604090920135919050565b65ffffffffffff8116811461098d57600080fd5b6000602082840312156148b757600080fd5b8135610b2d81614891565b60008083601f8401126148d457600080fd5b50813567ffffffffffffffff8111156148ec57600080fd5b6020830191508360208260051b850101111561490757600080fd5b9250929050565b6000806020838503121561492157600080fd5b823567ffffffffffffffff81111561493857600080fd5b614944858286016148c2565b90969095509350505050565b634e487b7160e01b600052604160045260246000fd5b604051601f8201601f1916810167ffffffffffffffff8111828210171561498f5761498f614950565b604052919050565b600080604083850312156149aa57600080fd5b82356149b581614801565b915060208381013567ffffffffffffffff808211156149d357600080fd5b818601915086601f8301126149e757600080fd5b8135818111156149f9576149f9614950565b614a0b601f8201601f19168501614966565b91508082528784828501011115614a2157600080fd5b80848401858401376000848284010152508093505050509250929050565b60005b83811015614a5a578181015183820152602001614a42565b83811115610f365750506000910152565b60008151808452614a83816020860160208601614a3f565b601f01601f19169290920160200192915050565b602081526000610b2d6020830184614a6b565b600060208284031215614abc57600080fd5b5035919050565b6000602080830181845280855180835260408601915060408160051b870101925083870160005b82811015614b1857603f19888603018452614b06858351614a6b565b94509285019290850190600101614aea565b5092979650505050505050565b600080600080600060a08688031215614b3d57600080fd5b8535614b4881614801565b94506020860135614b5881614891565b93506040860135614b6881614833565b92506060860135614b7881614833565b91506080860135614b8881614833565b809150509295509295909350565b80518015158114614ba657600080fd5b919050565b600060208284031215614bbd57600080fd5b610b2d82614b96565b60208082526010908201526f3830bab9b2b21037b910333937bd32b760811b604082015260600190565b634e487b7160e01b600052601160045260246000fd5b600065ffffffffffff821680614c1e57614c1e614bf0565b6000190192915050565b60008060408385031215614c3b57600080fd5b505080516020909101519092909150565b600060208284031215614c5e57600080fd5b8151610b2d81614801565b80516020808301519190811015614c8a576000198160200360031b1b821691505b50919050565b6020808252600f908201526e676f7665726e616e6365206f6e6c7960881b604082015260600190565b6020808252602c908201527f46756e6374696f6e206d7573742062652063616c6c6564207468726f7567682060408201526b19195b1959d85d1958d85b1b60a21b606082015260800190565b6020808252602c908201527f46756e6374696f6e206d7573742062652063616c6c6564207468726f7567682060408201526b6163746976652070726f787960a01b606082015260800190565b634e487b7160e01b600052603260045260246000fd5b6000808335601e19843603018112614d7e57600080fd5b83018035915067ffffffffffffffff821115614d9957600080fd5b60200191503681900382131561490757600080fd5b6000600019821415614dc257614dc2614bf0565b5060010190565b634e487b7160e01b600052602160045260246000fd5b634e487b7160e01b600052601260045260246000fd5b60008219821115614e0857614e08614bf0565b500190565b600082821015614e1f57614e1f614bf0565b500390565b600082614e3357614e33614ddf565b500490565b600060208284031215614e4a57600080fd5b5051919050565b600060208284031215614e6357600080fd5b815160038110610b2d57600080fd5b600060208284031215614e8457600080fd5b8151610b2d81614891565b600065ffffffffffff808316818516808303821115614eb057614eb0614bf0565b01949350505050565b60008082840360a0811215614ecd57600080fd5b614ed684614b96565b92506080601f1982011215614eea57600080fd5b506040516080810181811067ffffffffffffffff82111715614f0e57614f0e614950565b6040526020840151614f1f81614801565b81526040840151614f2f81614801565b60208201526060848101516040830152608090940151938101939093525092909150565b6020808252602b908201527f496e697469616c697a61626c653a20636f6e7472616374206973206e6f74206960408201526a6e697469616c697a696e6760a81b606082015260800190565b600060208284031215614fb057600080fd5b8151610b2d81614833565b600060208284031215614fcd57600080fd5b815160ff81168114610b2d57600080fd5b600081810b607f19811415614ff557614ff5614bf0565b60000392915050565b805162ffffff81168114614ba657600080fd5b60006040828403121561502357600080fd5b6040516040810181811067ffffffffffffffff8211171561504657615046614950565b60405261505283614ffe565b815261506060208401614ffe565b60208201529392505050565b600062ffffff808316818516808303821115614eb057614eb0614bf0565b60008160001904831182151516156150a4576150a4614bf0565b500290565b634e487b7160e01b600052600160045260246000fd5b600065ffffffffffff808316818114156150db576150db614bf0565b6001019392505050565b600082516150f7818460208701614a3f565b9190910192915050565b60006001600160c01b038381169083168181101561512157615121614bf0565b039392505050565b60006001600160c01b03828116848216808303821115614eb057614eb0614bf0565b60008160000b8360000b6000821282607f0382138115161561516f5761516f614bf0565b82607f1903821281161561518557615185614bf0565b50019392505050565b600181815b808511156141eb5781600019048211156151af576151af614bf0565b808516156151bc57918102915b93841c9390800290615193565b6000826151d8575060016118f3565b816151e5575060006118f3565b81600181146151fb576002811461520557615221565b60019150506118f3565b60ff84111561521657615216614bf0565b50506001821b6118f3565b5060208310610133831016604e8410600b8410161715615244575081810a6118f3565b61524e838361518e565b806000190482111561526257615262614bf0565b029392505050565b6000610b2d83836151c9565b600081810b83820b8281128015607f1983018412161561529857615298614bf0565b81607f0183138116156152ad576152ad614bf0565b5090039392505050565b6000826152c6576152c6614ddf565b500690565b6000600160ff1b8214156152e1576152e1614bf0565b506000039056fe360894a13ba1a3210667c828492db98dca3e2076cc3735a920a3ca505d382bbc416464726573733a206c6f772d6c6576656c2064656c65676174652063616c6c206661696c6564a26469706673582212201210a6bcc001eb1641b2ad11fb0ccb441222ab1982d973d88a298c60e4c486ec64736f6c63430008090033",
  "linkReferences": {
    "contracts/reserve/p1/mixins/RecollateralizationLib.sol": {
      "RecollateralizationLibP1": [
        {
          "length": 20,
          "start": 10961
        }
      ]
    },
    "contracts/reserve/p1/mixins/RewardableLib.sol": {
      "RewardableLibP1": [
        {
          "length": 20,
          "start": 4045
        },
        {
          "length": 20,
          "start": 6950
        }
      ]
    }
  },
  "deployedLinkReferences": {
    "contracts/reserve/p1/mixins/RecollateralizationLib.sol": {
      "RecollateralizationLibP1": [
        {
          "length": 20,
          "start": 10569
        }
      ]
    },
    "contracts/reserve/p1/mixins/RewardableLib.sol": {
      "RewardableLibP1": [
        {
          "length": 20,
          "start": 3653
        },
        {
          "length": 20,
          "start": 6558
        }
      ]
    }
  }
}