{
  "_format": "hh-sol-artifact-1",
  "contractName": "CTokenNonFiatCollateral",
  "sourceName": "contracts/reserve/plugins/assets/CTokenNonFiatCollateral.sol",
  "abi": [
    {
      "inputs": [
        {
          "components": [
            {
              "internalType": "uint192",
              "name": "fallbackPrice",
              "type": "uint192"
            },
            {
              "internalType": "contract AggregatorV3Interface",
              "name": "chainlinkFeed",
              "type": "address"
            },
            {
              "internalType": "uint192",
              "name": "oracleError",
              "type": "uint192"
            },
            {
              "internalType": "contract IERC20Metadata",
              "name": "erc20",
              "type": "address"
            },
            {
              "internalType": "uint192",
              "name": "maxTradeVolume",
              "type": "uint192"
            },
            {
              "internalType": "uint48",
              "name": "oracleTimeout",
              "type": "uint48"
            },
            {
              "internalType": "bytes32",
              "name": "targetName",
              "type": "bytes32"
            },
            {
              "internalType": "uint192",
              "name": "defaultThreshold",
              "type": "uint192"
            },
            {
              "internalType": "uint256",
              "name": "delayUntilDefault",
              "type": "uint256"
            }
          ],
          "internalType": "struct CollateralConfig",
          "name": "config",
          "type": "tuple"
        },
        {
          "internalType": "contract AggregatorV3Interface",
          "name": "targetUnitChainlinkFeed_",
          "type": "address"
        },
        {
          "internalType": "contract IComptroller",
          "name": "comptroller_",
          "type": "address"
        }
      ],
      "stateMutability": "nonpayable",
      "type": "constructor"
    },
    {
      "inputs": [],
      "name": "StalePrice",
      "type": "error"
    },
    {
      "inputs": [],
      "name": "UIntOutOfBounds",
      "type": "error"
    },
    {
      "anonymous": false,
      "inputs": [
        {
          "indexed": true,
          "internalType": "enum CollateralStatus",
          "name": "oldStatus",
          "type": "uint8"
        },
        {
          "indexed": true,
          "internalType": "enum CollateralStatus",
          "name": "newStatus",
          "type": "uint8"
        }
      ],
      "name": "CollateralStatusChanged",
      "type": "event"
    },
    {
      "anonymous": false,
      "inputs": [
        {
          "indexed": true,
          "internalType": "contract IERC20",
          "name": "erc20",
          "type": "address"
        },
        {
          "indexed": true,
          "internalType": "uint256",
          "name": "amount",
          "type": "uint256"
        }
      ],
      "name": "RewardsClaimed",
      "type": "event"
    },
    {
      "inputs": [
        {
          "internalType": "address",
          "name": "account",
          "type": "address"
        }
      ],
      "name": "bal",
      "outputs": [
        {
          "internalType": "uint192",
          "name": "",
          "type": "uint192"
        }
      ],
      "stateMutability": "view",
      "type": "function"
    },
    {
      "inputs": [],
      "name": "chainlinkFeed",
      "outputs": [
        {
          "internalType": "contract AggregatorV3Interface",
          "name": "",
          "type": "address"
        }
      ],
      "stateMutability": "view",
      "type": "function"
    },
    {
      "inputs": [],
      "name": "claimRewards",
      "outputs": [],
      "stateMutability": "nonpayable",
      "type": "function"
    },
    {
      "inputs": [],
      "name": "comptroller",
      "outputs": [
        {
          "internalType": "contract IComptroller",
          "name": "",
          "type": "address"
        }
      ],
      "stateMutability": "view",
      "type": "function"
    },
    {
      "inputs": [],
      "name": "delayUntilDefault",
      "outputs": [
        {
          "internalType": "uint256",
          "name": "",
          "type": "uint256"
        }
      ],
      "stateMutability": "view",
      "type": "function"
    },
    {
      "inputs": [],
      "name": "erc20",
      "outputs": [
        {
          "internalType": "contract IERC20Metadata",
          "name": "",
          "type": "address"
        }
      ],
      "stateMutability": "view",
      "type": "function"
    },
    {
      "inputs": [],
      "name": "erc20Decimals",
      "outputs": [
        {
          "internalType": "uint8",
          "name": "",
          "type": "uint8"
        }
      ],
      "stateMutability": "view",
      "type": "function"
    },
    {
      "inputs": [],
      "name": "fallbackPrice",
      "outputs": [
        {
          "internalType": "uint192",
          "name": "",
          "type": "uint192"
        }
      ],
      "stateMutability": "view",
      "type": "function"
    },
    {
      "inputs": [],
      "name": "isCollateral",
      "outputs": [
        {
          "internalType": "bool",
          "name": "",
          "type": "bool"
        }
      ],
      "stateMutability": "pure",
      "type": "function"
    },
    {
      "inputs": [],
      "name": "maxTradeVolume",
      "outputs": [
        {
          "internalType": "uint192",
          "name": "",
          "type": "uint192"
        }
      ],
      "stateMutability": "view",
      "type": "function"
    },
    {
      "inputs": [],
      "name": "oracleError",
      "outputs": [
        {
          "internalType": "uint192",
          "name": "",
          "type": "uint192"
        }
      ],
      "stateMutability": "view",
      "type": "function"
    },
    {
      "inputs": [],
      "name": "oracleTimeout",
      "outputs": [
        {
          "internalType": "uint48",
          "name": "",
          "type": "uint48"
        }
      ],
      "stateMutability": "view",
      "type": "function"
    },
    {
      "inputs": [],
      "name": "pegBottom",
      "outputs": [
        {
          "internalType": "uint192",
          "name": "",
          "type": "uint192"
        }
      ],
      "stateMutability": "view",
      "type": "function"
    },
    {
      "inputs": [],
      "name": "pegTop",
      "outputs": [
        {
          "internalType": "uint192",
          "name": "",
          "type": "uint192"
        }
      ],
      "stateMutability": "view",
      "type": "function"
    },
    {
      "inputs": [],
      "name": "prevReferencePrice",
      "outputs": [
        {
          "internalType": "uint192",
          "name": "",
          "type": "uint192"
        }
      ],
      "stateMutability": "view",
      "type": "function"
    },
    {
      "inputs": [],
      "name": "price",
      "outputs": [
        {
          "internalType": "uint192",
          "name": "",
          "type": "uint192"
        },
        {
          "internalType": "uint192",
          "name": "",
          "type": "uint192"
        }
      ],
      "stateMutability": "view",
      "type": "function"
    },
    {
      "inputs": [],
      "name": "refPerTok",
      "outputs": [
        {
          "internalType": "uint192",
          "name": "",
          "type": "uint192"
        }
      ],
      "stateMutability": "view",
      "type": "function"
    },
    {
      "inputs": [],
      "name": "referenceERC20Decimals",
      "outputs": [
        {
          "internalType": "uint8",
          "name": "",
          "type": "uint8"
        }
      ],
      "stateMutability": "view",
      "type": "function"
    },
    {
      "inputs": [],
      "name": "refresh",
      "outputs": [],
      "stateMutability": "nonpayable",
      "type": "function"
    },
    {
      "inputs": [],
      "name": "status",
      "outputs": [
        {
          "internalType": "enum CollateralStatus",
          "name": "",
          "type": "uint8"
        }
      ],
      "stateMutability": "view",
      "type": "function"
    },
    {
      "inputs": [],
      "name": "targetName",
      "outputs": [
        {
          "internalType": "bytes32",
          "name": "",
          "type": "bytes32"
        }
      ],
      "stateMutability": "view",
      "type": "function"
    },
    {
      "inputs": [],
      "name": "targetPerRef",
      "outputs": [
        {
          "internalType": "uint192",
          "name": "",
          "type": "uint192"
        }
      ],
      "stateMutability": "view",
      "type": "function"
    },
    {
      "inputs": [],
      "name": "targetUnitChainlinkFeed",
      "outputs": [
        {
          "internalType": "contract AggregatorV3Interface",
          "name": "",
          "type": "address"
        }
      ],
      "stateMutability": "view",
      "type": "function"
    },
    {
      "inputs": [],
      "name": "tryPrice",
      "outputs": [
        {
          "internalType": "uint192",
          "name": "low",
          "type": "uint192"
        },
        {
          "internalType": "uint192",
          "name": "high",
          "type": "uint192"
        },
        {
          "internalType": "uint192",
          "name": "pegPrice",
          "type": "uint192"
        }
      ],
      "stateMutability": "view",
      "type": "function"
    },
    {
      "inputs": [],
      "name": "whenDefault",
      "outputs": [
        {
          "internalType": "uint256",
          "name": "",
          "type": "uint256"
        }
      ],
      "stateMutability": "view",
      "type": "function"
    }
  ],
  "bytecode": "0x6102206040526000196001553480156200001857600080fd5b50604051620026ce380380620026ce8339810160408190526200003b9162000a25565b828181806000015181602001518260400151836060015184608001518560a001516000866001600160c01b031611620000bb5760405162461bcd60e51b815260206004820152601360248201527f66616c6c6261636b207072696365207a65726f0000000000000000000000000060448201526064015b60405180910390fd5b6001600160a01b038516620001135760405162461bcd60e51b815260206004820152601660248201527f6d697373696e6720636861696e6c696e6b2066656564000000000000000000006044820152606401620000b2565b6000846001600160c01b03161180156200013d5750670de0b6b3a76400006001600160c01b038516105b6200018b5760405162461bcd60e51b815260206004820152601960248201527f6f7261636c65206572726f72206f7574206f662072616e6765000000000000006044820152606401620000b2565b6001600160a01b038316620001d35760405162461bcd60e51b815260206004820152600d60248201526c06d697373696e6720657263323609c1b6044820152606401620000b2565b6000826001600160c01b0316116200022e5760405162461bcd60e51b815260206004820152601860248201527f696e76616c6964206d617820747261646520766f6c756d6500000000000000006044820152606401620000b2565b60008165ffffffffffff16116200027d5760405162461bcd60e51b81526020600482015260126024820152716f7261636c6554696d656f7574207a65726f60701b6044820152606401620000b2565b600080546001600160c01b0319166001600160c01b03888116919091179091556001600160a01b0386811660805290851661010052831660a08190526040805163313ce56760e01b8152905163313ce56791600480820192602092909190829003018186803b158015620002f057600080fd5b505afa15801562000305573d6000803e3d6000fd5b505050506040513d601f19601f820116820180604052508101906200032b919062000b1b565b60ff1660c09081526001600160c01b0390921660e05265ffffffffffff1661012052850151151593506200039b925050505760405162461bcd60e51b81526020600482015260126024820152717461726765744e616d65206d697373696e6760701b6044820152606401620000b2565b60e08101516001600160c01b0316156200040657600081610100015111620004065760405162461bcd60e51b815260206004820152601660248201527f64656c6179556e74696c44656661756c74207a65726f000000000000000000006044820152606401620000b2565b60c081015161016052610100810151610140526000670de0b6b3a7640000905060006200044f8360e00151836001600160c01b03166200068a60201b62000bca1790919060201c565b90506200045d818362000b56565b6001600160c01b03166101805262000476818362000b81565b6001600160c01b03166101a0525050506001600160a01b038116620004de5760405162461bcd60e51b815260206004820152601360248201527f636f6d7074726f6c6c6572206d697373696e67000000000000000000000000006044820152606401620000b2565b600082606001519050806001600160a01b0316636f307dc36040518163ffffffff1660e01b815260040160206040518083038186803b1580156200052157600080fd5b505afa15801562000536573d6000803e3d6000fd5b505050506040513d601f19601f820116820180604052508101906200055c919062000baf565b6001600160a01b031663313ce5676040518163ffffffff1660e01b815260040160206040518083038186803b1580156200059557600080fd5b505afa158015620005aa573d6000803e3d6000fd5b505050506040513d601f19601f82011682018060405250810190620005d0919062000b1b565b60ff166101c0526001600160a01b0382166101e052620005ef620006a3565b600280546001600160c01b0319166001600160c01b03929092169190911790555050506001600160a01b038216620006755760405162461bcd60e51b815260206004820152602260248201527f6d697373696e672074617267657420756e697420636861696e6c696e6b206665604482015261195960f21b6064820152608401620000b2565b506001600160a01b0316610200525062000e58565b60006200069a8383600162000756565b90505b92915050565b60008060a0516001600160a01b031663182df0f56040518163ffffffff1660e01b815260040160206040518083038186803b158015620006e257600080fd5b505afa158015620006f7573d6000803e3d6000fd5b505050506040513d601f19601f820116820180604052508101906200071d919062000bcf565b9050600060126101c051600862000735919062000be9565b62000741919062000be9565b90506200074f828262000798565b9250505090565b60006200078e62000788620007786001600160c01b0380871690881662000c30565b670de0b6b3a764000085620007a7565b6200086b565b90505b9392505050565b60006200069a8383836200089a565b600080620007b6848662000c68565b90506000836002811115620007cf57620007cf62000c7f565b1415620007de57905062000791565b6001836002811115620007f557620007f562000c7f565b1415620008405760026200080b60018662000c95565b62000817919062000c68565b62000823858762000caf565b11156200083a5780620008368162000cc6565b9150505b6200078e565b60006200084e858762000caf565b11156200078e5780620008618162000cc6565b9695505050505050565b60006001600160c01b03821115620008965760405163f44398f560e01b815260040160405180910390fd5b5090565b600083620008ab5750600062000791565b605f198360000b13620008eb576002826002811115620008cf57620008cf62000c7f565b14620008dd576000620008e0565b60015b60ff16905062000791565b8260000b602813620009105760405163f44398f560e01b815260040160405180910390fd5b6200091d60128462000ce4565b925060006200092e84820b62000977565b6200093b90600a62000e2a565b90506000808560000b12156200095e5762000958868386620007a7565b6200096a565b6200096a828762000c30565b905062000861816200086b565b60008082126200098857816200069d565b6200069d8262000e38565b60405161012081016001600160401b0381118282101715620009c557634e487b7160e01b600052604160045260246000fd5b60405290565b80516001600160c01b0381168114620009e357600080fd5b919050565b6001600160a01b0381168114620009fe57600080fd5b50565b8051620009e381620009e8565b805165ffffffffffff81168114620009e357600080fd5b600080600083850361016081121562000a3d57600080fd5b6101208082121562000a4e57600080fd5b62000a5862000993565b915062000a6586620009cb565b825262000a756020870162000a01565b602083015262000a8860408701620009cb565b604083015262000a9b6060870162000a01565b606083015262000aae60808701620009cb565b608083015262000ac160a0870162000a0e565b60a083015260c086015160c083015262000ade60e08701620009cb565b60e083015261010080870151818401525081945062000aff81870162000a01565b9350505062000b12610140850162000a01565b90509250925092565b60006020828403121562000b2e57600080fd5b815160ff811681146200079157600080fd5b634e487b7160e01b600052601160045260246000fd5b60006001600160c01b038381169083168181101562000b795762000b7962000b40565b039392505050565b60006001600160c01b0382811684821680830382111562000ba65762000ba662000b40565b01949350505050565b60006020828403121562000bc257600080fd5b81516200079181620009e8565b60006020828403121562000be257600080fd5b5051919050565b600081810b83820b8281128015607f1983018412161562000c0e5762000c0e62000b40565b81607f01831381161562000c265762000c2662000b40565b5090039392505050565b600081600019048311821515161562000c4d5762000c4d62000b40565b500290565b634e487b7160e01b600052601260045260246000fd5b60008262000c7a5762000c7a62000c52565b500490565b634e487b7160e01b600052602160045260246000fd5b60008282101562000caa5762000caa62000b40565b500390565b60008262000cc15762000cc162000c52565b500690565b600060001982141562000cdd5762000cdd62000b40565b5060010190565b60008160000b8360000b6000821282607f0382138115161562000d0b5762000d0b62000b40565b82607f1903821281161562000d245762000d2462000b40565b50019392505050565b600181815b8085111562000d6e57816000190482111562000d525762000d5262000b40565b8085161562000d6057918102915b93841c939080029062000d32565b509250929050565b60008262000d87575060016200069d565b8162000d96575060006200069d565b816001811462000daf576002811462000dba5762000dda565b60019150506200069d565b60ff84111562000dce5762000dce62000b40565b50506001821b6200069d565b5060208310610133831016604e8410600b841016171562000dff575081810a6200069d565b62000e0b838362000d2d565b806000190482111562000e225762000e2262000b40565b029392505050565b60006200069a838362000d76565b6000600160ff1b82141562000e515762000e5162000b40565b5060000390565b60805160a05160c05160e05161010051610120516101405161016051610180516101a0516101c0516101e0516102005161176962000f6560003960008181610475015261087301526000818161021b015281816104f4015261061801526000818161025a0152610ae90152600081816103a90152610f000152600081816103d00152610ec4015260006104a401526000818161044e015261125d01526000818161036b0152818161083e01526108950152600081816103f7015281816108fd0152610944015260006103140152600081816101b701526107dc0152600081816102810152818161075d01528181610a4f0152610b2e0152600081816102da015261081c01526117696000f3fe608060405234801561001057600080fd5b50600436106101735760003560e01c8063a035b1fe116100de578063c59b3d6311610097578063e6a1505311610071578063e6a1505314610449578063eae5689414610470578063f8ac93e814610497578063fdfd59171461049f57600080fd5b8063c59b3d6314610419578063d9e8e67014610428578063e28a1b861461043657600080fd5b8063a035b1fe14610336578063a7fa0faf1461035e578063abfeece514610366578063ae4e1875146103a4578063b94d8739146103cb578063c55f29d1146103f257600080fd5b806362b338681161013057806362b3386814610255578063785e9e861461027c5780637d1ea137146102a35780637dbdf1f5146102d55780638b382ee7146102fc57806395acc4ae1461030f57600080fd5b8063200d2ed2146101785780632dc8662414610196578063372500ab146101a85780633cb5d379146101b25780635580f72a146101eb5780635fe3b56714610216575b600080fd5b6101806104c6565b60405161018d91906112f6565b60405180910390f35b6001545b60405190815260200161018d565b6101b06104f0565b005b6101d97f000000000000000000000000000000000000000000000000000000000000000081565b60405160ff909116815260200161018d565b6101fe6101f9366004611333565b610737565b6040516001600160c01b03909116815260200161018d565b61023d7f000000000000000000000000000000000000000000000000000000000000000081565b6040516001600160a01b03909116815260200161018d565b6101d97f000000000000000000000000000000000000000000000000000000000000000081565b61023d7f000000000000000000000000000000000000000000000000000000000000000081565b6102ab61080b565b604080516001600160c01b039485168152928416602084015292169181019190915260600161018d565b61023d7f000000000000000000000000000000000000000000000000000000000000000081565b6002546101fe906001600160c01b031681565b6101fe7f000000000000000000000000000000000000000000000000000000000000000081565b61033e610983565b604080516001600160c01b0393841681529290911660208301520161018d565b6101fe610a4a565b61038d7f000000000000000000000000000000000000000000000000000000000000000081565b60405165ffffffffffff909116815260200161018d565b6101fe7f000000000000000000000000000000000000000000000000000000000000000081565b6101fe7f000000000000000000000000000000000000000000000000000000000000000081565b6101fe7f000000000000000000000000000000000000000000000000000000000000000081565b6040516001815260200161018d565b670de0b6b3a76400006101fe565b6000546101fe906001600160c01b031681565b61019a7f000000000000000000000000000000000000000000000000000000000000000081565b61023d7f000000000000000000000000000000000000000000000000000000000000000081565b6101b0610b2c565b61019a7f000000000000000000000000000000000000000000000000000000000000000081565b600060001960015414156104da5750600090565b4260015411156104ea5750600190565b50600290565b60007f00000000000000000000000000000000000000000000000000000000000000006001600160a01b0316639d1b5a0a6040518163ffffffff1660e01b815260040160206040518083038186803b15801561054b57600080fd5b505afa15801561055f573d6000803e3d6000fd5b505050506040513d601f19601f820116820180604052508101906105839190611350565b6040516370a0823160e01b81523060048201529091506000906001600160a01b038316906370a082319060240160206040518083038186803b1580156105c857600080fd5b505afa1580156105dc573d6000803e3d6000fd5b505050506040513d601f19601f82011682018060405250810190610600919061136d565b6040516374d7814960e11b81523060048201529091507f00000000000000000000000000000000000000000000000000000000000000006001600160a01b03169063e9af029290602401600060405180830381600087803b15801561066457600080fd5b505af1158015610678573d6000803e3d6000fd5b50506040516370a0823160e01b81523060048201528392506001600160a01b03851691506370a082319060240160206040518083038186803b1580156106bd57600080fd5b505afa1580156106d1573d6000803e3d6000fd5b505050506040513d601f19601f820116820180604052508101906106f5919061136d565b6106ff919061139c565b6040516001600160a01b038416907ffc30cddea38e2bf4d6ea7d3f9ed3b6ad7f176419f4963bd81318067a4aee73fe90600090a35050565b6040516370a0823160e01b81526001600160a01b038281166004830152600091610805917f000000000000000000000000000000000000000000000000000000000000000016906370a082319060240160206040518083038186803b15801561079f57600080fd5b505afa1580156107b3573d6000803e3d6000fd5b505050506040513d601f19601f820116820180604052508101906107d7919061136d565b6108007f00000000000000000000000000000000000000000000000000000000000000006113b3565b610bdf565b92915050565b600080806108626001600160a01b037f0000000000000000000000000000000000000000000000000000000000000000167f0000000000000000000000000000000000000000000000000000000000000000610bed565b905060006108b96001600160a01b037f0000000000000000000000000000000000000000000000000000000000000000167f0000000000000000000000000000000000000000000000000000000000000000610bed565b905060006108ea6108c8610a4a565b6108db6001600160c01b03851686610bca565b6001600160c01b031690610bca565b9050610931610921670de0b6b3a76400007f0000000000000000000000000000000000000000000000000000000000000000610d7c565b6001600160c01b03831690610d88565b945061097a610968670de0b6b3a76400007f0000000000000000000000000000000000000000000000000000000000000000610d96565b6001600160c01b038316906002610da2565b93505050909192565b600080306001600160a01b0316637d1ea1376040518163ffffffff1660e01b815260040160606040518083038186803b1580156109bf57600080fd5b505afa9250505080156109ef575060408051601f3d908101601f191682019092526109ec918101906113ef565b60015b610a40573d808015610a1d576040519150601f19603f3d011682016040523d82523d6000602084013e610a22565b606091505b508051610a2e57600080fd5b506000926001600160c01b0392509050565b5090939092509050565b6000807f00000000000000000000000000000000000000000000000000000000000000006001600160a01b031663182df0f56040518163ffffffff1660e01b815260040160206040518083038186803b158015610aa657600080fd5b505afa158015610aba573d6000803e3d6000fd5b505050506040513d601f19601f82011682018060405250810190610ade919061136d565b905060006012610b0f7f00000000000000000000000000000000000000000000000000000000000000006008611432565b610b199190611432565b9050610b258282610bdf565b9250505090565b7f00000000000000000000000000000000000000000000000000000000000000006001600160a01b031663bd6d894d6040518163ffffffff1660e01b8152600401602060405180830381600087803b158015610b8757600080fd5b505af1158015610b9b573d6000803e3d6000fd5b505050506040513d601f19601f82011682018060405250810190610bbf919061136d565b50610bc8610de2565b565b6000610bd883836001611041565b9392505050565b6000610bd88383600061106e565b6000806000806000866001600160a01b031663feaf968c6040518163ffffffff1660e01b815260040160a06040518083038186803b158015610c2e57600080fd5b505afa158015610c42573d6000803e3d6000fd5b505050506040513d601f19601f82011682018060405250810190610c66919061148d565b9450945050935093508160001480610c9557508369ffffffffffffffffffff168169ffffffffffffffffffff16105b15610cb357604051630cd5fa0760e11b815260040160405180910390fd5b6000610cbf834261139c565b90508665ffffffffffff168165ffffffffffff161115610cf257604051630cd5fa0760e11b815260040160405180910390fd5b610d7084896001600160a01b031663313ce5676040518163ffffffff1660e01b815260040160206040518083038186803b158015610d2f57600080fd5b505afa158015610d43573d6000803e3d6000fd5b505050506040513d601f19601f82011682018060405250810190610d6791906114dd565b610800906113b3565b98975050505050505050565b6000610bd88284611500565b6000610bd883836000610da2565b6000610bd8828461152b565b6000610dda610dd5610dc5670de0b6b3a76400006001600160c01b038816611553565b856001600160c01b03168561113e565b6111de565b949350505050565b6001544210610ded57565b6000610df76104c6565b9050306001600160a01b0316637d1ea1376040518163ffffffff1660e01b815260040160606040518083038186803b158015610e3257600080fd5b505afa925050508015610e62575060408051601f3d908101601f19168201909252610e5f918101906113ef565b60015b610eb1573d808015610e90576040519150601f19603f3d011682016040523d82523d6000602084013e610e95565b606091505b508051610ea157600080fd5b610eab600161120c565b50610f70565b6001600160c01b0383161580610ef857507f00000000000000000000000000000000000000000000000000000000000000006001600160c01b0316816001600160c01b0316105b80610f3457507f00000000000000000000000000000000000000000000000000000000000000006001600160c01b0316816001600160c01b0316115b15610f4857610f43600161120c565b610f6c565b600080546001600160c01b0319166001600160c01b038516178155610f6c9061120c565b5050505b6000610f7a610a4a565b6002549091506001600160c01b039081169082161015610f9e57610f9e600261120c565b600280546001600160c01b0319166001600160c01b0383161790556000610fc36104c6565b9050806002811115610fd757610fd76112e0565b836002811115610fe957610fe96112e0565b1461103c57806002811115611000576110006112e0565b836002811115611012576110126112e0565b6040517f99cada7141db4d51b602b2e469ec310c78ffbba0eb05bc3e3e633f30672dea0290600090a35b505050565b6000610dda610dd561105f6001600160c01b03808716908816611553565b670de0b6b3a76400008561113e565b60008361107d57506000610bd8565b605f198360000b136110b657600282600281111561109d5761109d6112e0565b146110a95760006110ac565b60015b60ff169050610bd8565b8260000b6028136110da5760405163f44398f560e01b815260040160405180910390fd5b6110e5601284611572565b925060006110f58460000b6112b2565b61110090600a611699565b90506000808560000b121561111f5761111a86838661113e565b611129565b6111298287611553565b9050611134816111de565b9695505050505050565b60008061114b84866116bb565b90506000836002811115611161576111616112e0565b141561116e579050610bd8565b6001836002811115611182576111826112e0565b14156111c257600261119560018661139c565b61119f91906116bb565b6111a985876116cf565b11156111bd57806111b9816116e3565b9150505b610dda565b60006111ce85876116cf565b1115610dda5780611134816116e3565b60006001600160c01b038211156112085760405163f44398f560e01b815260040160405180910390fd5b5090565b42600154116112185750565b600081600281111561122c5761122c6112e0565b141561123b5760001960015550565b600181600281111561124f5761124f6112e0565b14156112905761128a6112827f0000000000000000000000000000000000000000000000000000000000000000426116fe565b6001546112ca565b60015550565b60028160028111156112a4576112a46112e0565b14156112af57426001555b50565b60008082126112c15781610805565b61080582611716565b60008183106112d95781610bd8565b5090919050565b634e487b7160e01b600052602160045260246000fd5b602081016003831061131857634e487b7160e01b600052602160045260246000fd5b91905290565b6001600160a01b03811681146112af57600080fd5b60006020828403121561134557600080fd5b8135610bd88161131e565b60006020828403121561136257600080fd5b8151610bd88161131e565b60006020828403121561137f57600080fd5b5051919050565b634e487b7160e01b600052601160045260246000fd5b6000828210156113ae576113ae611386565b500390565b600081810b607f198114156113ca576113ca611386565b60000392915050565b80516001600160c01b03811681146113ea57600080fd5b919050565b60008060006060848603121561140457600080fd5b61140d846113d3565b925061141b602085016113d3565b9150611429604085016113d3565b90509250925092565b600081810b83820b8281128015607f1983018412161561145457611454611386565b81607f01831381161561146957611469611386565b5090039392505050565b805169ffffffffffffffffffff811681146113ea57600080fd5b600080600080600060a086880312156114a557600080fd5b6114ae86611473565b94506020860151935060408601519250606086015191506114d160808701611473565b90509295509295909350565b6000602082840312156114ef57600080fd5b815160ff81168114610bd857600080fd5b60006001600160c01b0382811684821680830382111561152257611522611386565b01949350505050565b60006001600160c01b038381169083168181101561154b5761154b611386565b039392505050565b600081600019048311821515161561156d5761156d611386565b500290565b60008160000b8360000b6000821282607f0382138115161561159657611596611386565b82607f190382128116156115ac576115ac611386565b50019392505050565b600181815b808511156115f05781600019048211156115d6576115d6611386565b808516156115e357918102915b93841c93908002906115ba565b509250929050565b60008261160757506001610805565b8161161457506000610805565b816001811461162a576002811461163457611650565b6001915050610805565b60ff84111561164557611645611386565b50506001821b610805565b5060208310610133831016604e8410600b8410161715611673575081810a610805565b61167d83836115b5565b806000190482111561169157611691611386565b029392505050565b6000610bd883836115f8565b634e487b7160e01b600052601260045260246000fd5b6000826116ca576116ca6116a5565b500490565b6000826116de576116de6116a5565b500690565b60006000198214156116f7576116f7611386565b5060010190565b6000821982111561171157611711611386565b500190565b6000600160ff1b82141561172c5761172c611386565b506000039056fea2646970667358221220b21eedc291c22c9b605c880c4d639af1e8ac47b6d092af58ea054708e6ffc19064736f6c63430008090033",
  "linkReferences": {},
  "deployedLinkReferences": {}
}