{
  "_format": "hh-sol-artifact-1",
  "contractName": "BrokerP1",
  "sourceName": "contracts/reserve/p1/Broker.sol",
  "abi": [
    {
      "inputs": [],
      "name": "UIntOutOfBounds",
      "type": "error"
    },
    {
      "anonymous": false,
      "inputs": [
        {
          "indexed": false,
          "internalType": "address",
          "name": "previousAdmin",
          "type": "address"
        },
        {
          "indexed": false,
          "internalType": "address",
          "name": "newAdmin",
          "type": "address"
        }
      ],
      "name": "AdminChanged",
      "type": "event"
    },
    {
      "anonymous": false,
      "inputs": [
        {
          "indexed": true,
          "internalType": "uint48",
          "name": "oldVal",
          "type": "uint48"
        },
        {
          "indexed": true,
          "internalType": "uint48",
          "name": "newVal",
          "type": "uint48"
        }
      ],
      "name": "AuctionLengthSet",
      "type": "event"
    },
    {
      "anonymous": false,
      "inputs": [
        {
          "indexed": true,
          "internalType": "address",
          "name": "beacon",
          "type": "address"
        }
      ],
      "name": "BeaconUpgraded",
      "type": "event"
    },
    {
      "anonymous": false,
      "inputs": [
        {
          "indexed": true,
          "internalType": "bool",
          "name": "prevVal",
          "type": "bool"
        },
        {
          "indexed": true,
          "internalType": "bool",
          "name": "newVal",
          "type": "bool"
        }
      ],
      "name": "DisabledSet",
      "type": "event"
    },
    {
      "anonymous": false,
      "inputs": [
        {
          "indexed": false,
          "internalType": "uint8",
          "name": "version",
          "type": "uint8"
        }
      ],
      "name": "Initialized",
      "type": "event"
    },
    {
      "anonymous": false,
      "inputs": [
        {
          "indexed": true,
          "internalType": "address",
          "name": "implementation",
          "type": "address"
        }
      ],
      "name": "Upgraded",
      "type": "event"
    },
    {
      "inputs": [],
      "name": "MAX_AUCTION_LENGTH",
      "outputs": [
        {
          "internalType": "uint48",
          "name": "",
          "type": "uint48"
        }
      ],
      "stateMutability": "view",
      "type": "function"
    },
    {
      "inputs": [],
      "name": "auctionLength",
      "outputs": [
        {
          "internalType": "uint48",
          "name": "",
          "type": "uint48"
        }
      ],
      "stateMutability": "view",
      "type": "function"
    },
    {
      "inputs": [],
      "name": "disabled",
      "outputs": [
        {
          "internalType": "bool",
          "name": "",
          "type": "bool"
        }
      ],
      "stateMutability": "view",
      "type": "function"
    },
    {
      "inputs": [],
      "name": "gnosis",
      "outputs": [
        {
          "internalType": "contract IGnosis",
          "name": "",
          "type": "address"
        }
      ],
      "stateMutability": "view",
      "type": "function"
    },
    {
      "inputs": [
        {
          "internalType": "contract IMain",
          "name": "main_",
          "type": "address"
        },
        {
          "internalType": "contract IGnosis",
          "name": "gnosis_",
          "type": "address"
        },
        {
          "internalType": "contract ITrade",
          "name": "tradeImplementation_",
          "type": "address"
        },
        {
          "internalType": "uint48",
          "name": "auctionLength_",
          "type": "uint48"
        }
      ],
      "name": "init",
      "outputs": [],
      "stateMutability": "nonpayable",
      "type": "function"
    },
    {
      "inputs": [],
      "name": "main",
      "outputs": [
        {
          "internalType": "contract IMain",
          "name": "",
          "type": "address"
        }
      ],
      "stateMutability": "view",
      "type": "function"
    },
    {
      "inputs": [
        {
          "components": [
            {
              "internalType": "contract IAsset",
              "name": "sell",
              "type": "address"
            },
            {
              "internalType": "contract IAsset",
              "name": "buy",
              "type": "address"
            },
            {
              "internalType": "uint256",
              "name": "sellAmount",
              "type": "uint256"
            },
            {
              "internalType": "uint256",
              "name": "minBuyAmount",
              "type": "uint256"
            }
          ],
          "internalType": "struct TradeRequest",
          "name": "req",
          "type": "tuple"
        }
      ],
      "name": "openTrade",
      "outputs": [
        {
          "internalType": "contract ITrade",
          "name": "",
          "type": "address"
        }
      ],
      "stateMutability": "nonpayable",
      "type": "function"
    },
    {
      "inputs": [],
      "name": "proxiableUUID",
      "outputs": [
        {
          "internalType": "bytes32",
          "name": "",
          "type": "bytes32"
        }
      ],
      "stateMutability": "view",
      "type": "function"
    },
    {
      "inputs": [],
      "name": "reportViolation",
      "outputs": [],
      "stateMutability": "nonpayable",
      "type": "function"
    },
    {
      "inputs": [
        {
          "internalType": "uint48",
          "name": "newAuctionLength",
          "type": "uint48"
        }
      ],
      "name": "setAuctionLength",
      "outputs": [],
      "stateMutability": "nonpayable",
      "type": "function"
    },
    {
      "inputs": [
        {
          "internalType": "bool",
          "name": "disabled_",
          "type": "bool"
        }
      ],
      "name": "setDisabled",
      "outputs": [],
      "stateMutability": "nonpayable",
      "type": "function"
    },
    {
      "inputs": [],
      "name": "tradeImplementation",
      "outputs": [
        {
          "internalType": "contract ITrade",
          "name": "",
          "type": "address"
        }
      ],
      "stateMutability": "view",
      "type": "function"
    },
    {
      "inputs": [
        {
          "internalType": "address",
          "name": "newImplementation",
          "type": "address"
        }
      ],
      "name": "upgradeTo",
      "outputs": [],
      "stateMutability": "nonpayable",
      "type": "function"
    },
    {
      "inputs": [
        {
          "internalType": "address",
          "name": "newImplementation",
          "type": "address"
        },
        {
          "internalType": "bytes",
          "name": "data",
          "type": "bytes"
        }
      ],
      "name": "upgradeToAndCall",
      "outputs": [],
      "stateMutability": "payable",
      "type": "function"
    },
    {
      "inputs": [],
      "name": "version",
      "outputs": [
        {
          "internalType": "string",
          "name": "",
          "type": "string"
        }
      ],
      "stateMutability": "pure",
      "type": "function"
    }
  ],
  "bytecode": "0x60a0604052306080523480156200001557600080fd5b50600054610100900460ff1615808015620000375750600054600160ff909116105b8062000067575062000054306200014160201b620010f61760201c565b15801562000067575060005460ff166001145b620000cf5760405162461bcd60e51b815260206004820152602e60248201527f496e697469616c697a61626c653a20636f6e747261637420697320616c72656160448201526d191e481a5b9a5d1a585b1a5e995960921b606482015260840160405180910390fd5b6000805460ff191660011790558015620000f3576000805461ff0019166101001790555b80156200013a576000805461ff0019169055604051600181527f7f26b83ff96e1f2b6a682f133852f6798a09c465da95921460cefb38474024989060200160405180910390a15b5062000150565b6001600160a01b03163b151590565b6080516120a6620001886000396000818161031b01528181610364015281816104040152818161044401526104d701526120a66000f3fe6080604052600436106100e85760003560e01c806354fd4d501161008a57806393574b1e1161005957806393574b1e1461028a578063af1ebc241461029f578063dffeadd0146102bf578063ee070805146102df57600080fd5b806354fd4d50146101f6578063642606a71461022a5780636c5a7d1e1461024a578063930c63721461026a57600080fd5b80633659cfe6116100c65780633659cfe61461017e5780634f1ef286146101a057806352d1902d146101b3578063542d5e29146101d657600080fd5b80630891f601146100ed578063238c8aad14610120578063325c25a214610158575b600080fd5b3480156100f957600080fd5b5061010462093a8081565b60405165ffffffffffff90911681526020015b60405180910390f35b34801561012c57600080fd5b5060cd54610140906001600160a01b031681565b6040516001600160a01b039091168152602001610117565b34801561016457600080fd5b5060cd5461010490600160a01b900465ffffffffffff1681565b34801561018a57600080fd5b5061019e610199366004611b5e565b610310565b005b61019e6101ae366004611bc2565b6103f9565b3480156101bf57600080fd5b506101c86104ca565b604051908152602001610117565b3480156101e257600080fd5b506101406101f1366004611c6a565b61057d565b34801561020257600080fd5b5060408051808201825260058152640312e322e360dc1b602082015290516101179190611d0b565b34801561023657600080fd5b5061019e610245366004611d54565b610902565b34801561025657600080fd5b5061019e610265366004611dbc565b610cac565b34801561027657600080fd5b5060cc54610140906001600160a01b031681565b34801561029657600080fd5b5061019e610ddb565b3480156102ab57600080fd5b5061019e6102ba366004611dd9565b610f51565b3480156102cb57600080fd5b50609754610140906001600160a01b031681565b3480156102eb57600080fd5b5060cd5461030090600160d01b900460ff1681565b6040519015158152602001610117565b306001600160a01b037f00000000000000000000000000000000000000000000000000000000000000001614156103625760405162461bcd60e51b815260040161035990611df4565b60405180910390fd5b7f00000000000000000000000000000000000000000000000000000000000000006001600160a01b03166103ab60008051602061202a833981519152546001600160a01b031690565b6001600160a01b0316146103d15760405162461bcd60e51b815260040161035990611e40565b6103da81611105565b604080516000808252602082019092526103f6918391906111d9565b50565b306001600160a01b037f00000000000000000000000000000000000000000000000000000000000000001614156104425760405162461bcd60e51b815260040161035990611df4565b7f00000000000000000000000000000000000000000000000000000000000000006001600160a01b031661048b60008051602061202a833981519152546001600160a01b031690565b6001600160a01b0316146104b15760405162461bcd60e51b815260040161035990611e40565b6104ba82611105565b6104c6828260016111d9565b5050565b6000306001600160a01b037f0000000000000000000000000000000000000000000000000000000000000000161461056a5760405162461bcd60e51b815260206004820152603860248201527f555550535570677261646561626c653a206d757374206e6f742062652063616c60448201527f6c6564207468726f7567682064656c656761746563616c6c00000000000000006064820152608401610359565b5060008051602061202a83398151915290565b6097546040805163f170637560e01b815290516000926001600160a01b03169163f1706375916004808301926020929190829003018186803b1580156105c257600080fd5b505afa1580156105d6573d6000803e3d6000fd5b505050506040513d601f19601f820116820180604052508101906105fa9190611e8c565b1561063a5760405162461bcd60e51b815260206004820152601060248201526f3830bab9b2b21037b910333937bd32b760811b6044820152606401610359565b60cd54600160d01b900460ff16156106865760405162461bcd60e51b815260206004820152600f60248201526e189c9bdad95c88191a5cd8589b1959608a1b6044820152606401610359565b60c95433906001600160a01b03168114806106ae575060ca546001600160a01b038281169116145b806106c6575060cb546001600160a01b038281169116145b6107015760405162461bcd60e51b815260206004820152600c60248201526b6f6e6c79207472616465727360a01b6044820152606401610359565b60cc54600090610719906001600160a01b0316611358565b6001600160a01b038116600090815260ce6020526040808220805460ff19166001179055860151606087015192935090911161075957846040015161075f565b84606001515b90506be22ea493b30310a7700000008111156107bb5761079285604001516be22ea493b30310a7700000008360026113ed565b604086015260608501516107b5906be22ea493b30310a7700000008360006113ed565b60608601525b61084b8383876040015188600001516001600160a01b031663785e9e866040518163ffffffff1660e01b815260040160206040518083038186803b15801561080257600080fd5b505afa158015610816573d6000803e3d6000fd5b505050506040513d601f19601f8201168201806040525081019061083a9190611ea9565b6001600160a01b031692919061149e565b60cd54604080516372d0dc0d60e11b81523060048201526001600160a01b0386811660248301528084166044830152600160a01b90930465ffffffffffff1660648201528751831660848201526020880151831660a48201529087015160c4820152606087015160e48201529083169063e5a1b81a9061010401600060405180830381600087803b1580156108df57600080fd5b505af11580156108f3573d6000803e3d6000fd5b5093955050505050505b919050565b600054610100900460ff16158080156109225750600054600160ff909116105b8061093c5750303b15801561093c575060005460ff166001145b61099f5760405162461bcd60e51b815260206004820152602e60248201527f496e697469616c697a61626c653a20636f6e747261637420697320616c72656160448201526d191e481a5b9a5d1a585b1a5e995960921b6064820152608401610359565b6000805460ff1916600117905580156109c2576000805461ff0019166101001790555b6001600160a01b038416610a115760405162461bcd60e51b8152602060048201526016602482015275696e76616c696420476e6f736973206164647265737360501b6044820152606401610359565b6001600160a01b038316610a735760405162461bcd60e51b8152602060048201526024808201527f696e76616c696420547261646520496d706c656d656e746174696f6e206164646044820152637265737360e01b6064820152608401610359565b610a7c856114fe565b846001600160a01b031663dc8af5f66040518163ffffffff1660e01b815260040160206040518083038186803b158015610ab557600080fd5b505afa158015610ac9573d6000803e3d6000fd5b505050506040513d601f19601f82011682018060405250810190610aed9190611ea9565b60c960006101000a8154816001600160a01b0302191690836001600160a01b03160217905550846001600160a01b031663531367636040518163ffffffff1660e01b815260040160206040518083038186803b158015610b4c57600080fd5b505afa158015610b60573d6000803e3d6000fd5b505050506040513d601f19601f82011682018060405250810190610b849190611ea9565b60ca60006101000a8154816001600160a01b0302191690836001600160a01b03160217905550846001600160a01b03166341bf0c4e6040518163ffffffff1660e01b815260040160206040518083038186803b158015610be357600080fd5b505afa158015610bf7573d6000803e3d6000fd5b505050506040513d601f19601f82011682018060405250810190610c1b9190611ea9565b60cb80546001600160a01b03199081166001600160a01b039384161790915560cd8054821687841617905560cc8054909116918516919091179055610c5f82610f51565b8015610ca5576000805461ff0019169055604051600181527f7f26b83ff96e1f2b6a682f133852f6798a09c465da95921460cefb38474024989060200160405180910390a15b5050505050565b60975460408051808201909152600581526427aba722a960d91b60208201526001600160a01b03909116906391d1485490610ce690611ec6565b336040516001600160e01b031960e085901b16815260048101929092526001600160a01b0316602482015260440160206040518083038186803b158015610d2c57600080fd5b505afa158015610d40573d6000803e3d6000fd5b505050506040513d601f19601f82011682018060405250810190610d649190611e8c565b610d805760405162461bcd60e51b815260040161035990611eed565b60cd5460405182151591600160d01b900460ff161515907f50ad88f2d352cfe099dff651bce69b227cf4a4fa1eefde42cbd9ee52e671e12790600090a360cd8054911515600160d01b0260ff60d01b19909216919091179055565b609760009054906101000a90046001600160a01b03166001600160a01b031663f17063756040518163ffffffff1660e01b815260040160206040518083038186803b158015610e2957600080fd5b505afa158015610e3d573d6000803e3d6000fd5b505050506040513d601f19601f82011682018060405250810190610e619190611e8c565b15610ea15760405162461bcd60e51b815260206004820152601060248201526f3830bab9b2b21037b910333937bd32b760811b6044820152606401610359565b33600090815260ce602052604090205460ff16610f005760405162461bcd60e51b815260206004820152601b60248201527f756e7265636f676e697a656420747261646520636f6e747261637400000000006044820152606401610359565b60cd54604051600191600160d01b900460ff161515907f50ad88f2d352cfe099dff651bce69b227cf4a4fa1eefde42cbd9ee52e671e12790600090a360cd805460ff60d01b1916600160d01b179055565b60975460408051808201909152600581526427aba722a960d91b60208201526001600160a01b03909116906391d1485490610f8b90611ec6565b336040516001600160e01b031960e085901b16815260048101929092526001600160a01b0316602482015260440160206040518083038186803b158015610fd157600080fd5b505afa158015610fe5573d6000803e3d6000fd5b505050506040513d601f19601f820116820180604052508101906110099190611e8c565b6110255760405162461bcd60e51b815260040161035990611eed565b60008165ffffffffffff16118015611048575062093a8065ffffffffffff821611155b61108c5760405162461bcd60e51b81526020600482015260156024820152740d2dcecc2d8d2c840c2eac6e8d2dedc98cadccee8d605b1b6044820152606401610359565b60cd5460405165ffffffffffff80841692600160a01b900416907f5367084e5526b7d5d8fcbd6a0e50fe9db6e3dc2a20c54c9820dcb0089728c85790600090a360cd805465ffffffffffff909216600160a01b0265ffffffffffff60a01b19909216919091179055565b6001600160a01b03163b151590565b60975460408051808201909152600581526427aba722a960d91b60208201526001600160a01b03909116906391d148549061113f90611ec6565b336040516001600160e01b031960e085901b16815260048101929092526001600160a01b0316602482015260440160206040518083038186803b15801561118557600080fd5b505afa158015611199573d6000803e3d6000fd5b505050506040513d601f19601f820116820180604052508101906111bd9190611e8c565b6103f65760405162461bcd60e51b815260040161035990611eed565b7f4910fdfa16fed3260ed0e7147f7cc6da11a60208b5b9406d12a635614ffd91435460ff16156112115761120c8361159c565b505050565b826001600160a01b03166352d1902d6040518163ffffffff1660e01b815260040160206040518083038186803b15801561124a57600080fd5b505afa92505050801561127a575060408051601f3d908101601f1916820190925261127791810190611f16565b60015b6112dd5760405162461bcd60e51b815260206004820152602e60248201527f45524331393637557067726164653a206e657720696d706c656d656e7461746960448201526d6f6e206973206e6f74205555505360901b6064820152608401610359565b60008051602061202a833981519152811461134c5760405162461bcd60e51b815260206004820152602960248201527f45524331393637557067726164653a20756e737570706f727465642070726f786044820152681a58589b195555525160ba1b6064820152608401610359565b5061120c838383611638565b6000763d602d80600a3d3981f3363d3d373d3d3d363d730000008260601b60e81c176000526e5af43d82803e903d91602b57fd5bf38260781b17602052603760096000f090506001600160a01b0381166108fd5760405162461bcd60e51b8152602060048201526016602482015275115490cc4c4d8dce8818dc99585d194819985a5b195960521b6044820152606401610359565b6000806113fb86868661165d565b9050600083600281111561141157611411611f2f565b141561141e579050611496565b6000848061142e5761142e611f45565b8688099050600284600281111561144757611447611f2f565b14156114665780156114615761145e600183611f71565b91505b611492565b6002611473600187611f89565b61147d9190611fa0565b8111156114925761148f600183611f71565b91505b5090505b949350505050565b604080516001600160a01b0385811660248301528416604482015260648082018490528251808303909101815260849091019091526020810180516001600160e01b03166323b872dd60e01b1790526114f8908590611740565b50505050565b600054610100900460ff166115255760405162461bcd60e51b815260040161035990611fc2565b6001600160a01b0381166115725760405162461bcd60e51b81526020600482015260146024820152736d61696e206973207a65726f206164647265737360601b6044820152606401610359565b61157a611812565b609780546001600160a01b0319166001600160a01b0392909216919091179055565b6001600160a01b0381163b6116095760405162461bcd60e51b815260206004820152602d60248201527f455243313936373a206e657720696d706c656d656e746174696f6e206973206e60448201526c1bdd08184818dbdb9d1c9858dd609a1b6064820152608401610359565b60008051602061202a83398151915280546001600160a01b0319166001600160a01b0392909216919091179055565b6116418361183b565b60008251118061164e5750805b1561120c576114f8838361187b565b600080600061166c868661196f565b915091508382106116905760405163f44398f560e01b815260040160405180910390fd5b600084806116a0576116a0611f45565b8688099050818111156116b4576001830392505b9081900390600085900385168086816116cf576116cf611f45565b0495508083816116e1576116e1611f45565b0492508081600003816116f6576116f6611f45565b046001019390930291909101600285810380870282030280870282030280870282030280870282030280870282030280870282030295860290039094029390930295945050505050565b6000611795826040518060400160405280602081526020017f5361666545524332303a206c6f772d6c6576656c2063616c6c206661696c6564815250856001600160a01b031661199c9092919063ffffffff16565b80519091501561120c57808060200190518101906117b39190611e8c565b61120c5760405162461bcd60e51b815260206004820152602a60248201527f5361666545524332303a204552433230206f7065726174696f6e20646964206e6044820152691bdd081cdd58d8d9595960b21b6064820152608401610359565b600054610100900460ff166118395760405162461bcd60e51b815260040161035990611fc2565b565b6118448161159c565b6040516001600160a01b038216907fbc7cd75a20ee27fd9adebab32041f755214dbc6bffa90cc0225b39da2e5c2d3b90600090a250565b60606001600160a01b0383163b6118e35760405162461bcd60e51b815260206004820152602660248201527f416464726573733a2064656c65676174652063616c6c20746f206e6f6e2d636f6044820152651b9d1c9858dd60d21b6064820152608401610359565b600080846001600160a01b0316846040516118fe919061200d565b600060405180830381855af49150503d8060008114611939576040519150601f19603f3d011682016040523d82523d6000602084013e61193e565b606091505b5091509150611966828260405180606001604052806027815260200161204a602791396119b5565b95945050505050565b6000808060001984860990508385029150818103925081811015611994576001830392505b509250929050565b60606119ab84846000856119ce565b90505b9392505050565b606083156119c45750816119ae565b6119ae8383611aa9565b606082471015611a2f5760405162461bcd60e51b815260206004820152602660248201527f416464726573733a20696e73756666696369656e742062616c616e636520666f6044820152651c8818d85b1b60d21b6064820152608401610359565b600080866001600160a01b03168587604051611a4b919061200d565b60006040518083038185875af1925050503d8060008114611a88576040519150601f19603f3d011682016040523d82523d6000602084013e611a8d565b606091505b5091509150611a9e87838387611ad3565b979650505050505050565b815115611ab95781518083602001fd5b8060405162461bcd60e51b81526004016103599190611d0b565b60608315611b3f578251611b38576001600160a01b0385163b611b385760405162461bcd60e51b815260206004820152601d60248201527f416464726573733a2063616c6c20746f206e6f6e2d636f6e74726163740000006044820152606401610359565b5081611496565b6114968383611aa9565b6001600160a01b03811681146103f657600080fd5b600060208284031215611b7057600080fd5b81356119ae81611b49565b634e487b7160e01b600052604160045260246000fd5b604051601f8201601f1916810167ffffffffffffffff81118282101715611bba57611bba611b7b565b604052919050565b60008060408385031215611bd557600080fd5b8235611be081611b49565b915060208381013567ffffffffffffffff80821115611bfe57600080fd5b818601915086601f830112611c1257600080fd5b813581811115611c2457611c24611b7b565b611c36601f8201601f19168501611b91565b91508082528784828501011115611c4c57600080fd5b80848401858401376000848284010152508093505050509250929050565b600060808284031215611c7c57600080fd5b6040516080810181811067ffffffffffffffff82111715611c9f57611c9f611b7b565b6040528235611cad81611b49565b81526020830135611cbd81611b49565b6020820152604083810135908201526060928301359281019290925250919050565b60005b83811015611cfa578181015183820152602001611ce2565b838111156114f85750506000910152565b6020815260008251806020840152611d2a816040850160208701611cdf565b601f01601f19169190910160400192915050565b803565ffffffffffff811681146108fd57600080fd5b60008060008060808587031215611d6a57600080fd5b8435611d7581611b49565b93506020850135611d8581611b49565b92506040850135611d9581611b49565b9150611da360608601611d3e565b905092959194509250565b80151581146103f657600080fd5b600060208284031215611dce57600080fd5b81356119ae81611dae565b600060208284031215611deb57600080fd5b6119ae82611d3e565b6020808252602c908201527f46756e6374696f6e206d7573742062652063616c6c6564207468726f7567682060408201526b19195b1959d85d1958d85b1b60a21b606082015260800190565b6020808252602c908201527f46756e6374696f6e206d7573742062652063616c6c6564207468726f7567682060408201526b6163746976652070726f787960a01b606082015260800190565b600060208284031215611e9e57600080fd5b81516119ae81611dae565b600060208284031215611ebb57600080fd5b81516119ae81611b49565b80516020808301519190811015611ee7576000198160200360031b1b821691505b50919050565b6020808252600f908201526e676f7665726e616e6365206f6e6c7960881b604082015260600190565b600060208284031215611f2857600080fd5b5051919050565b634e487b7160e01b600052602160045260246000fd5b634e487b7160e01b600052601260045260246000fd5b634e487b7160e01b600052601160045260246000fd5b60008219821115611f8457611f84611f5b565b500190565b600082821015611f9b57611f9b611f5b565b500390565b600082611fbd57634e487b7160e01b600052601260045260246000fd5b500490565b6020808252602b908201527f496e697469616c697a61626c653a20636f6e7472616374206973206e6f74206960408201526a6e697469616c697a696e6760a81b606082015260800190565b6000825161201f818460208701611cdf565b919091019291505056fe360894a13ba1a3210667c828492db98dca3e2076cc3735a920a3ca505d382bbc416464726573733a206c6f772d6c6576656c2064656c65676174652063616c6c206661696c6564a264697066735822122032b5607029ce955ce4828d542dc7d254179fa780feef909043d6434fff489d9b64736f6c63430008090033",
  "linkReferences": {},
  "deployedLinkReferences": {}
}