{
  "_format": "hh-sol-artifact-1",
  "contractName": "RevenueTraderP0",
  "sourceName": "contracts/reserve/p0/RevenueTrader.sol",
  "abi": [
    {
      "inputs": [],
      "name": "UIntOutOfBounds",
      "type": "error"
    },
    {
      "anonymous": false,
      "inputs": [
        {
          "indexed": false,
          "internalType": "uint8",
          "name": "version",
          "type": "uint8"
        }
      ],
      "name": "Initialized",
      "type": "event"
    },
    {
      "anonymous": false,
      "inputs": [
        {
          "indexed": true,
          "internalType": "uint192",
          "name": "oldVal",
          "type": "uint192"
        },
        {
          "indexed": true,
          "internalType": "uint192",
          "name": "newVal",
          "type": "uint192"
        }
      ],
      "name": "MaxTradeSlippageSet",
      "type": "event"
    },
    {
      "anonymous": false,
      "inputs": [
        {
          "indexed": true,
          "internalType": "uint192",
          "name": "oldVal",
          "type": "uint192"
        },
        {
          "indexed": true,
          "internalType": "uint192",
          "name": "newVal",
          "type": "uint192"
        }
      ],
      "name": "MinTradeVolumeSet",
      "type": "event"
    },
    {
      "anonymous": false,
      "inputs": [
        {
          "indexed": true,
          "internalType": "contract IERC20",
          "name": "erc20",
          "type": "address"
        },
        {
          "indexed": true,
          "internalType": "uint256",
          "name": "amount",
          "type": "uint256"
        }
      ],
      "name": "RewardsClaimed",
      "type": "event"
    },
    {
      "anonymous": false,
      "inputs": [
        {
          "indexed": true,
          "internalType": "contract ITrade",
          "name": "trade",
          "type": "address"
        },
        {
          "indexed": true,
          "internalType": "contract IERC20",
          "name": "sell",
          "type": "address"
        },
        {
          "indexed": true,
          "internalType": "contract IERC20",
          "name": "buy",
          "type": "address"
        },
        {
          "indexed": false,
          "internalType": "uint256",
          "name": "sellAmount",
          "type": "uint256"
        },
        {
          "indexed": false,
          "internalType": "uint256",
          "name": "buyAmount",
          "type": "uint256"
        }
      ],
      "name": "TradeSettled",
      "type": "event"
    },
    {
      "anonymous": false,
      "inputs": [
        {
          "indexed": true,
          "internalType": "contract ITrade",
          "name": "trade",
          "type": "address"
        },
        {
          "indexed": true,
          "internalType": "contract IERC20",
          "name": "sell",
          "type": "address"
        },
        {
          "indexed": true,
          "internalType": "contract IERC20",
          "name": "buy",
          "type": "address"
        },
        {
          "indexed": false,
          "internalType": "uint256",
          "name": "sellAmount",
          "type": "uint256"
        },
        {
          "indexed": false,
          "internalType": "uint256",
          "name": "minBuyAmount",
          "type": "uint256"
        }
      ],
      "name": "TradeStarted",
      "type": "event"
    },
    {
      "inputs": [],
      "name": "MAX_TRADE_SLIPPAGE",
      "outputs": [
        {
          "internalType": "uint192",
          "name": "",
          "type": "uint192"
        }
      ],
      "stateMutability": "view",
      "type": "function"
    },
    {
      "inputs": [],
      "name": "MAX_TRADE_VOLUME",
      "outputs": [
        {
          "internalType": "uint192",
          "name": "",
          "type": "uint192"
        }
      ],
      "stateMutability": "view",
      "type": "function"
    },
    {
      "inputs": [],
      "name": "claimRewards",
      "outputs": [],
      "stateMutability": "nonpayable",
      "type": "function"
    },
    {
      "inputs": [
        {
          "internalType": "contract IERC20",
          "name": "erc20",
          "type": "address"
        }
      ],
      "name": "claimRewardsSingle",
      "outputs": [],
      "stateMutability": "nonpayable",
      "type": "function"
    },
    {
      "inputs": [
        {
          "internalType": "contract IMain",
          "name": "main_",
          "type": "address"
        },
        {
          "internalType": "contract IERC20",
          "name": "tokenToBuy_",
          "type": "address"
        },
        {
          "internalType": "uint192",
          "name": "maxTradeSlippage_",
          "type": "uint192"
        },
        {
          "internalType": "uint192",
          "name": "minTradeVolume_",
          "type": "uint192"
        }
      ],
      "name": "init",
      "outputs": [],
      "stateMutability": "nonpayable",
      "type": "function"
    },
    {
      "inputs": [],
      "name": "main",
      "outputs": [
        {
          "internalType": "contract IMain",
          "name": "",
          "type": "address"
        }
      ],
      "stateMutability": "view",
      "type": "function"
    },
    {
      "inputs": [
        {
          "internalType": "contract IERC20",
          "name": "erc20",
          "type": "address"
        }
      ],
      "name": "manageToken",
      "outputs": [],
      "stateMutability": "nonpayable",
      "type": "function"
    },
    {
      "inputs": [],
      "name": "maxTradeSlippage",
      "outputs": [
        {
          "internalType": "uint192",
          "name": "",
          "type": "uint192"
        }
      ],
      "stateMutability": "view",
      "type": "function"
    },
    {
      "inputs": [],
      "name": "minTradeVolume",
      "outputs": [
        {
          "internalType": "uint192",
          "name": "",
          "type": "uint192"
        }
      ],
      "stateMutability": "view",
      "type": "function"
    },
    {
      "inputs": [
        {
          "internalType": "uint192",
          "name": "val",
          "type": "uint192"
        }
      ],
      "name": "setMaxTradeSlippage",
      "outputs": [],
      "stateMutability": "nonpayable",
      "type": "function"
    },
    {
      "inputs": [
        {
          "internalType": "uint192",
          "name": "val",
          "type": "uint192"
        }
      ],
      "name": "setMinTradeVolume",
      "outputs": [],
      "stateMutability": "nonpayable",
      "type": "function"
    },
    {
      "inputs": [
        {
          "internalType": "contract IERC20",
          "name": "sell",
          "type": "address"
        }
      ],
      "name": "settleTrade",
      "outputs": [],
      "stateMutability": "nonpayable",
      "type": "function"
    },
    {
      "inputs": [],
      "name": "tokenToBuy",
      "outputs": [
        {
          "internalType": "contract IERC20",
          "name": "",
          "type": "address"
        }
      ],
      "stateMutability": "view",
      "type": "function"
    },
    {
      "inputs": [
        {
          "internalType": "contract IERC20",
          "name": "",
          "type": "address"
        }
      ],
      "name": "trades",
      "outputs": [
        {
          "internalType": "contract ITrade",
          "name": "",
          "type": "address"
        }
      ],
      "stateMutability": "view",
      "type": "function"
    },
    {
      "inputs": [],
      "name": "tradesOpen",
      "outputs": [
        {
          "internalType": "uint48",
          "name": "",
          "type": "uint48"
        }
      ],
      "stateMutability": "view",
      "type": "function"
    },
    {
      "inputs": [],
      "name": "version",
      "outputs": [
        {
          "internalType": "string",
          "name": "",
          "type": "string"
        }
      ],
      "stateMutability": "pure",
      "type": "function"
    }
  ],
  "bytecode": "0x608060405234801561001057600080fd5b50613237806100206000396000f3fe608060405234801561001057600080fd5b50600436106101005760003560e01c80639b4ec8e911610097578063b9bebb0411610066578063b9bebb0414610247578063c76aeb1214610256578063cb9414f81461027f578063dffeadd01461029257600080fd5b80639b4ec8e9146101e4578063a9f752e5146101f7578063adaef42c14610220578063b51f8f881461023357600080fd5b8063372500ab116100d3578063372500ab1461018f57806354fd4d50146101975780637cbf6db2146101be5780638b27c574146101d157600080fd5b80630db3d42c146101055780630e0264d11461013c57806319ca8d9d1461015157806336a02f571461017c575b600080fd5b60355461011f90600160301b90046001600160c01b031681565b6040516001600160c01b0390911681526020015b60405180910390f35b61014f61014a366004612ba5565b6102a5565b005b603754610164906001600160a01b031681565b6040516001600160a01b039091168152602001610133565b61014f61018a366004612bd7565b610645565b61014f6107f6565b60408051808201825260058152640312e322e360dc1b602082015290516101339190612c24565b60365461011f906001600160c01b031681565b61014f6101df366004612c57565b610b38565b61014f6101f2366004612ba5565b610cc1565b610164610205366004612ba5565b6034602052600090815260409020546001600160a01b031681565b61014f61022e366004612ba5565b611420565b61011f6c01431e0fae6d7217caa000000081565b61011f670de0b6b3a764000081565b6035546102689065ffffffffffff1681565b60405165ffffffffffff9091168152602001610133565b61014f61028d366004612bd7565b611623565b603354610164906001600160a01b031681565b603360009054906101000a90046001600160a01b03166001600160a01b031663f17063756040518163ffffffff1660e01b815260040160206040518083038186803b1580156102f357600080fd5b505afa158015610307573d6000803e3d6000fd5b505050506040513d601f19601f8201168201806040525081019061032b9190612cb3565b156103515760405162461bcd60e51b815260040161034890612cd5565b60405180910390fd5b6001600160a01b038082166000908152603460205260409020541680610375575050565b806001600160a01b031663faf7ba6a6040518163ffffffff1660e01b815260040160206040518083038186803b1580156103ae57600080fd5b505afa1580156103c2573d6000803e3d6000fd5b505050506040513d601f19601f820116820180604052508101906103e69190612cb3565b6104265760405162461bcd60e51b815260206004820152601160248201527018d85b9b9bdd081cd95d1d1b19481e595d607a1b6044820152606401610348565b6001600160a01b038216600090815260346020526040812080546001600160a01b03191690556035805465ffffffffffff169161046283612d15565b91906101000a81548165ffffffffffff021916908365ffffffffffff16021790555050600080826001600160a01b03166311da60b46040518163ffffffff1660e01b81526004016040805180830381600087803b1580156104c257600080fd5b505af11580156104d6573d6000803e3d6000fd5b505050506040513d601f19601f820116820180604052508101906104fa9190612d37565b91509150826001600160a01b031663a6f2ae3a6040518163ffffffff1660e01b815260040160206040518083038186803b15801561053757600080fd5b505afa15801561054b573d6000803e3d6000fd5b505050506040513d601f19601f8201168201806040525081019061056f9190612d5b565b6001600160a01b0316836001600160a01b031663457100746040518163ffffffff1660e01b815260040160206040518083038186803b1580156105b157600080fd5b505afa1580156105c5573d6000803e3d6000fd5b505050506040513d601f19601f820116820180604052508101906105e99190612d5b565b6001600160a01b0316846001600160a01b03167f058fb1fa484531f400806f666315faf1a45941db93ba069405882b78ba40dc878585604051610636929190918252602082015260400190565b60405180910390a45050505b50565b60335460408051808201909152600581526427aba722a960d91b60208201526001600160a01b03909116906391d148549061067f90612d78565b336040516001600160e01b031960e085901b16815260048101929092526001600160a01b0316602482015260440160206040518083038186803b1580156106c557600080fd5b505afa1580156106d9573d6000803e3d6000fd5b505050506040513d601f19601f820116820180604052508101906106fd9190612cb3565b61073b5760405162461bcd60e51b815260206004820152600f60248201526e676f7665726e616e6365206f6e6c7960881b6044820152606401610348565b6c01431e0fae6d7217caa00000006001600160c01b038216111561079a5760405162461bcd60e51b8152602060048201526016602482015275696e76616c6964206d696e5472616465566f6c756d6560501b6044820152606401610348565b6036546040516001600160c01b038084169216907f1dec1ae9fd64ef0d8a6b130d853a8ab21d337625027cc60c63028f3d383495dc90600090a3603680546001600160c01b0319166001600160c01b0392909216919091179055565b603360009054906101000a90046001600160a01b03166001600160a01b031663f17063756040518163ffffffff1660e01b815260040160206040518083038186803b15801561084457600080fd5b505afa158015610858573d6000803e3d6000fd5b505050506040513d601f19601f8201168201806040525081019061087c9190612cb3565b156108995760405162461bcd60e51b815260040161034890612cd5565b603360009054906101000a90046001600160a01b03166001600160a01b031663181783586040518163ffffffff1660e01b8152600401600060405180830381600087803b1580156108e957600080fd5b505af11580156108fd573d6000803e3d6000fd5b505050506000603360009054906101000a90046001600160a01b03166001600160a01b031663979d7e866040518163ffffffff1660e01b815260040160206040518083038186803b15801561095157600080fd5b505afa158015610965573d6000803e3d6000fd5b505050506040513d601f19601f820116820180604052508101906109899190612d5b565b90506000816001600160a01b0316632510a1d76040518163ffffffff1660e01b815260040160006040518083038186803b1580156109c657600080fd5b505afa1580156109da573d6000803e3d6000fd5b505050506040513d6000823e601f3d908101601f19168201604052610a029190810190612dc5565b905060005b8151811015610b33576000836001600160a01b031663cde2be8a848481518110610a3357610a33612e8a565b60200260200101516040518263ffffffff1660e01b8152600401610a6691906001600160a01b0391909116815260200190565b60206040518083038186803b158015610a7e57600080fd5b505afa158015610a92573d6000803e3d6000fd5b505050506040513d601f19601f82011682018060405250810190610ab69190612d5b565b6040805160048152602481018252602080820180516001600160e01b031663372500ab60e01b179052825180840190935260148352731c995dd85c991cc818db185a5b4819985a5b195960621b90830152919250610b1e916001600160a01b038416916117e9565b50508080610b2b90612ea0565b915050610a07565b505050565b600054610100900460ff1615808015610b585750600054600160ff909116105b80610b725750303b158015610b72575060005460ff166001145b610bd55760405162461bcd60e51b815260206004820152602e60248201527f496e697469616c697a61626c653a20636f6e747261637420697320616c72656160448201526d191e481a5b9a5d1a585b1a5e995960921b6064820152608401610348565b6000805460ff191660011790558015610bf8576000805461ff0019166101001790555b6001600160a01b038416610c465760405162461bcd60e51b8152602060048201526015602482015274696e76616c696420746f6b656e206164647265737360581b6044820152606401610348565b610c4f85611863565b610c5983836118f9565b603780546001600160a01b0319166001600160a01b0386161790558015610cba576000805461ff0019169055604051600181527f7f26b83ff96e1f2b6a682f133852f6798a09c465da95921460cefb38474024989060200160405180910390a15b5050505050565b603360009054906101000a90046001600160a01b03166001600160a01b031663f17063756040518163ffffffff1660e01b815260040160206040518083038186803b158015610d0f57600080fd5b505afa158015610d23573d6000803e3d6000fd5b505050506040513d601f19601f82011682018060405250810190610d479190612cb3565b15610d645760405162461bcd60e51b815260040161034890612cd5565b6001600160a01b038181166000908152603460205260409020541615610d875750565b6040516370a0823160e01b81523060048201526000906001600160a01b038316906370a082319060240160206040518083038186803b158015610dc957600080fd5b505afa158015610ddd573d6000803e3d6000fd5b505050506040513d601f19601f82011682018060405250810190610e019190612ebb565b905080610e0c575050565b6037546001600160a01b038381169116141561103557603354604080516317fc212560e31b81529051610eb2926001600160a01b03169163bfe10928916004808301926020929190829003018186803b158015610e6857600080fd5b505afa158015610e7c573d6000803e3d6000fd5b505050506040513d601f19601f82011682018060405250810190610ea09190612d5b565b6001600160a01b038416906000611936565b603354604080516317fc212560e31b81529051610f41926001600160a01b03169163bfe10928916004808301926020929190829003018186803b158015610ef857600080fd5b505afa158015610f0c573d6000803e3d6000fd5b505050506040513d601f19601f82011682018060405250810190610f309190612d5b565b6001600160a01b0384169083611936565b603360009054906101000a90046001600160a01b03166001600160a01b031663bfe109286040518163ffffffff1660e01b815260040160206040518083038186803b158015610f8f57600080fd5b505afa158015610fa3573d6000803e3d6000fd5b505050506040513d601f19601f82011682018060405250810190610fc79190612d5b565b60405163a16a918360e01b81526001600160a01b03848116600483015230602483015260448201849052919091169063a16a918390606401600060405180830381600087803b15801561101957600080fd5b505af115801561102d573d6000803e3d6000fd5b505050505050565b60335460408051634bcebf4360e11b815290516000926001600160a01b03169163979d7e86916004808301926020929190829003018186803b15801561107a57600080fd5b505afa15801561108e573d6000803e3d6000fd5b505050506040513d601f19601f820116820180604052508101906110b29190612d5b565b6040516366f15f4560e11b81526001600160a01b03858116600483015291925060009183169063cde2be8a9060240160206040518083038186803b1580156110f957600080fd5b505afa15801561110d573d6000803e3d6000fd5b505050506040513d601f19601f820116820180604052508101906111319190612d5b565b6037546040516366f15f4560e11b81526001600160a01b0391821660048201529192506000919084169063cde2be8a9060240160206040518083038186803b15801561117c57600080fd5b505afa158015611190573d6000803e3d6000fd5b505050506040513d601f19601f820116820180604052508101906111b49190612d5b565b90506000826001600160a01b031663a035b1fe6040518163ffffffff1660e01b8152600401604080518083038186803b1580156111f057600080fd5b505afa158015611204573d6000803e3d6000fd5b505050506040513d601f19601f820116820180604052508101906112289190612ed4565b5090506000826001600160a01b031663a035b1fe6040518163ffffffff1660e01b8152600401604080518083038186803b15801561126557600080fd5b505afa158015611279573d6000803e3d6000fd5b505050506040513d601f19601f8201168201806040525081019061129d9190612ed4565b9150506000816001600160c01b03161180156112c157506001600160c01b03818116105b61130d5760405162461bcd60e51b815260206004820152601760248201527f62757920617373657420707269636520756e6b6e6f776e0000000000000000006044820152606401610348565b6040805160c0810182526001600160a01b0386811680835290861660208301528251632ac07b9560e11b815230600482015260009383019190635580f72a9060240160206040518083038186803b15801561136757600080fd5b505afa15801561137b573d6000803e3d6000fd5b505050506040513d601f19601f8201168201806040525081019061139f9190612f0e565b6001600160c01b03908116825260006020808401829052878316604080860191909152878416606090950194909452835180850190945260365483168452603554600160301b90049092169183019190915291925090806114008484611a7c565b9150915081156114135761141381611d96565b5050505050505050505050565b603360009054906101000a90046001600160a01b03166001600160a01b031663f17063756040518163ffffffff1660e01b815260040160206040518083038186803b15801561146e57600080fd5b505afa158015611482573d6000803e3d6000fd5b505050506040513d601f19601f820116820180604052508101906114a69190612cb3565b156114c35760405162461bcd60e51b815260040161034890612cd5565b60335460408051634bcebf4360e11b815290516000926001600160a01b03169163979d7e86916004808301926020929190829003018186803b15801561150857600080fd5b505afa15801561151c573d6000803e3d6000fd5b505050506040513d601f19601f820116820180604052508101906115409190612d5b565b6040516366f15f4560e11b81526001600160a01b038481166004830152919091169063cde2be8a9060240160206040518083038186803b15801561158357600080fd5b505afa158015611597573d6000803e3d6000fd5b505050506040513d601f19601f820116820180604052508101906115bb9190612d5b565b6040805160048152602481018252602080820180516001600160e01b031663372500ab60e01b179052825180840190935260148352731c995dd85c991cc818db185a5b4819985a5b195960621b90830152919250610b33916001600160a01b038416916117e9565b60335460408051808201909152600581526427aba722a960d91b60208201526001600160a01b03909116906391d148549061165d90612d78565b336040516001600160e01b031960e085901b16815260048101929092526001600160a01b0316602482015260440160206040518083038186803b1580156116a357600080fd5b505afa1580156116b7573d6000803e3d6000fd5b505050506040513d601f19601f820116820180604052508101906116db9190612cb3565b6117195760405162461bcd60e51b815260206004820152600f60248201526e676f7665726e616e6365206f6e6c7960881b6044820152606401610348565b670de0b6b3a76400006001600160c01b038216106117795760405162461bcd60e51b815260206004820152601860248201527f696e76616c6964206d61785472616465536c69707061676500000000000000006044820152606401610348565b6035546040516001600160c01b0380841692600160301b900416907f58d1f6b92b372d2913abb309ec9503acc2a53ed508ec34f478d7aeab07760f9990600090a3603580546001600160c01b03909216600160301b026601000000000000600160f01b0319909216919091179055565b6060600080856001600160a01b0316856040516118069190612f2b565b600060405180830381855af49150503d8060008114611841576040519150601f19603f3d011682016040523d82523d6000602084013e611846565b606091505b509150915061185786838387612321565b925050505b9392505050565b600054610100900460ff1661188a5760405162461bcd60e51b815260040161034890612f47565b6001600160a01b0381166118d75760405162461bcd60e51b81526020600482015260146024820152736d61696e206973207a65726f206164647265737360601b6044820152606401610348565b603380546001600160a01b0319166001600160a01b0392909216919091179055565b600054610100900460ff166119205760405162461bcd60e51b815260040161034890612f47565b61192982611623565b61193281610645565b5050565b8015806119bf5750604051636eb1769f60e11b81523060048201526001600160a01b03838116602483015284169063dd62ed3e9060440160206040518083038186803b15801561198557600080fd5b505afa158015611999573d6000803e3d6000fd5b505050506040513d601f19601f820116820180604052508101906119bd9190612ebb565b155b611a2a5760405162461bcd60e51b815260206004820152603660248201527f5361666545524332303a20617070726f76652066726f6d206e6f6e2d7a65726f60448201527520746f206e6f6e2d7a65726f20616c6c6f77616e636560501b6064820152608401610348565b604080516001600160a01b038416602482015260448082018490528251808303909101815260649091019091526020810180516001600160e01b031663095ea7b360e01b179052610b3390849061239f565b604080516080810182526000808252602082018190529181018290526060810182905260008460a001516001600160c01b0316118015611ac9575060a08401516001600160c01b03908116105b8015611ae2575060808401516001600160c01b03908116105b611aee57611aee612f92565b6000611b7285600001516001600160a01b031663e28a1b866040518163ffffffff1660e01b815260040160206040518083038186803b158015611b3057600080fd5b505afa158015611b44573d6000803e3d6000fd5b505050506040513d601f19601f82011682018060405250810190611b689190612f0e565b8660800151612471565b855160408701518651929350611b8992849061249d565b611b97576000925050611d8f565b604085015160808601516000906001600160c01b031615611c4f576000611bc688600001518960800151612557565b9050806001600160c01b0316836001600160c01b03161115611be6578092505b611c4b88608001518960a001516002611c3a611c2a8c60200151670de0b6b3a764000067ffffffffffffffff166001600160c01b031661261890919063ffffffff16565b6001600160c01b03891690612624565b6001600160c01b0316929190612632565b9150505b86516001600160a01b039081168552602080890151821681870152885160408051633cb5d37960e01b81529051611cef949290921692633cb5d37992600480840193829003018186803b158015611ca557600080fd5b505afa158015611cb9573d6000803e3d6000fd5b505050506040513d601f19601f82011682018060405250810190611cdd9190612fa8565b6001600160c01b038416906000612663565b846040018181525050611d8287602001516001600160a01b0316633cb5d3796040518163ffffffff1660e01b815260040160206040518083038186803b158015611d3857600080fd5b505afa158015611d4c573d6000803e3d6000fd5b505050506040513d601f19601f82011682018060405250810190611d709190612fa8565b6001600160c01b038316906002612663565b6060850152506001935050505b9250929050565b60335460408051630abff01160e41b815290516000926001600160a01b03169163abff0110916004808301926020929190829003018186803b158015611ddb57600080fd5b505afa158015611def573d6000803e3d6000fd5b505050506040513d601f19601f82011682018060405250810190611e139190612d5b565b905060006001600160a01b03166034600084600001516001600160a01b031663785e9e866040518163ffffffff1660e01b815260040160206040518083038186803b158015611e6157600080fd5b505afa158015611e75573d6000803e3d6000fd5b505050506040513d601f19601f82011682018060405250810190611e999190612d5b565b6001600160a01b0390811682526020820192909252604001600020541614611ec357611ec3612f92565b806001600160a01b031663ee0708056040518163ffffffff1660e01b815260040160206040518083038186803b158015611efc57600080fd5b505afa158015611f10573d6000803e3d6000fd5b505050506040513d601f19601f82011682018060405250810190611f349190612cb3565b15611f735760405162461bcd60e51b815260206004820152600f60248201526e189c9bdad95c88191a5cd8589b1959608a1b6044820152606401610348565b611ffe81600084600001516001600160a01b031663785e9e866040518163ffffffff1660e01b815260040160206040518083038186803b158015611fb657600080fd5b505afa158015611fca573d6000803e3d6000fd5b505050506040513d601f19601f82011682018060405250810190611fee9190612d5b565b6001600160a01b03169190611936565b61204481836040015184600001516001600160a01b031663785e9e866040518163ffffffff1660e01b815260040160206040518083038186803b158015611fb657600080fd5b6040805163542d5e2960e01b815283516001600160a01b0390811660048301526020850151811660248301529184015160448201526060840151606482015260009183169063542d5e2990608401602060405180830381600087803b1580156120ac57600080fd5b505af11580156120c0573d6000803e3d6000fd5b505050506040513d601f19601f820116820180604052508101906120e49190612d5b565b9050806034600085600001516001600160a01b031663785e9e866040518163ffffffff1660e01b815260040160206040518083038186803b15801561212857600080fd5b505afa15801561213c573d6000803e3d6000fd5b505050506040513d601f19601f820116820180604052508101906121609190612d5b565b6001600160a01b0390811682526020820192909252604001600090812080546001600160a01b031916939092169290921790556035805465ffffffffffff16916121a983612fcb565b91906101000a81548165ffffffffffff021916908365ffffffffffff1602179055505082602001516001600160a01b031663785e9e866040518163ffffffff1660e01b815260040160206040518083038186803b15801561220957600080fd5b505afa15801561221d573d6000803e3d6000fd5b505050506040513d601f19601f820116820180604052508101906122419190612d5b565b6001600160a01b031683600001516001600160a01b031663785e9e866040518163ffffffff1660e01b815260040160206040518083038186803b15801561228757600080fd5b505afa15801561229b573d6000803e3d6000fd5b505050506040513d601f19601f820116820180604052508101906122bf9190612d5b565b6001600160a01b0316826001600160a01b03167ff18b757d93c36d059284838a0328b06d8eb30d7214ffadde3266465a0006f6b386604001518760600151604051612314929190918252602082015260400190565b60405180910390a4505050565b6060831561238d578251612386576001600160a01b0385163b6123865760405162461bcd60e51b815260206004820152601d60248201527f416464726573733a2063616c6c20746f206e6f6e2d636f6e74726163740000006044820152606401610348565b5081612397565b6123978383612738565b949350505050565b60006123f4826040518060400160405280602081526020017f5361666545524332303a206c6f772d6c6576656c2063616c6c206661696c6564815250856001600160a01b03166127629092919063ffffffff16565b805190915015610b3357808060200190518101906124129190612cb3565b610b335760405162461bcd60e51b815260206004820152602a60248201527f5361666545524332303a204552433230206f7065726174696f6e20646964206e6044820152691bdd081cdd58d8d9595960b21b6064820152608401610348565b6000816001600160c01b0316836001600160c01b0316116124925781612494565b825b90505b92915050565b60006124bf6124ac8385612771565b6001600160c01b03908116908616101590565b801561254e5750600161254c866001600160a01b0316633cb5d3796040518163ffffffff1660e01b815260040160206040518083038186803b15801561250457600080fd5b505afa158015612518573d6000803e3d6000fd5b505050506040513d601f19601f8201168201806040525081019061253c9190612fa8565b6001600160c01b03871690612798565b115b95945050505050565b6000806001600160c01b038316156125f5576125f0836001866001600160a01b03166395acc4ae6040518163ffffffff1660e01b815260040160206040518083038186803b1580156125a857600080fd5b505afa1580156125bc573d6000803e3d6000fd5b505050506040513d601f19601f820116820180604052508101906125e09190612f0e565b6001600160c01b031691906127a6565b6125fe565b6001600160c01b035b90506000816001600160c01b03161161185c576001612397565b60006124948284612ff1565b6000612494838360016127d9565b600061254e61265e866001600160c01b0316866001600160c01b0316866001600160c01b031686612806565b6128b5565b60006001600160c01b03841661267b5750600061185c565b6029198360000b136126b457600282600281111561269b5761269b613019565b146126a75760006126aa565b60015b60ff16905061185c565b8260000b6060136126d85760405163f44398f560e01b815260040160405180910390fd5b6126e360128461302f565b925060006126f38460000b6128e3565b6126fe90600a61314c565b905060008460000b121561272557612720856001600160c01b031682856128fb565b61254e565b61254e816001600160c01b038716613158565b8151156127485781518083602001fd5b8060405162461bcd60e51b81526004016103489190612c24565b606061239784846000856129a5565b6000806001600160c01b038316156125f5576125f06001600160c01b0385168460016127a6565b600061249483836000612663565b600061239761265e6127c9670de0b6b3a76400006001600160c01b038816613158565b856001600160c01b0316856128fb565b600061239761265e6127f76001600160c01b03808716908816613158565b670de0b6b3a7640000856128fb565b600080612814868686612a80565b9050600083600281111561282a5761282a613019565b1415612837579050612397565b6000848061284757612847613177565b8688099050600284600281111561286057612860613019565b141561287f57801561287a5761287760018361318d565b91505b6128ab565b600261288c6001876131a5565b61289691906131bc565b8111156128ab576128a860018361318d565b91505b5095945050505050565b60006001600160c01b038211156128df5760405163f44398f560e01b815260040160405180910390fd5b5090565b60008082126128f25781612497565b612497826131d0565b60008061290884866131bc565b9050600083600281111561291e5761291e613019565b141561292b57905061185c565b600183600281111561293f5761293f613019565b141561297f5760026129526001866131a5565b61295c91906131bc565b61296685876131ed565b111561297a578061297681612ea0565b9150505b612397565b600061298b85876131ed565b1115612397578061299b81612ea0565b9695505050505050565b606082471015612a065760405162461bcd60e51b815260206004820152602660248201527f416464726573733a20696e73756666696369656e742062616c616e636520666f6044820152651c8818d85b1b60d21b6064820152608401610348565b600080866001600160a01b03168587604051612a229190612f2b565b60006040518083038185875af1925050503d8060008114612a5f576040519150601f19603f3d011682016040523d82523d6000602084013e612a64565b606091505b5091509150612a7587838387612321565b979650505050505050565b6000806000612a8f8686612b63565b91509150838210612ab35760405163f44398f560e01b815260040160405180910390fd5b60008480612ac357612ac3613177565b868809905081811115612ad7576001830392505b908190039060008590038516808681612af257612af2613177565b049550808381612b0457612b04613177565b049250808160000381612b1957612b19613177565b046001019390930291909101600285810380870282030280870282030280870282030280870282030280870282030280870282030295860290039094029390930295945050505050565b6000808060001984860990508385029150818103925081811015612b88576001830392505b509250929050565b6001600160a01b038116811461064257600080fd5b600060208284031215612bb757600080fd5b813561185c81612b90565b6001600160c01b038116811461064257600080fd5b600060208284031215612be957600080fd5b813561185c81612bc2565b60005b83811015612c0f578181015183820152602001612bf7565b83811115612c1e576000848401525b50505050565b6020815260008251806020840152612c43816040850160208701612bf4565b601f01601f19169190910160400192915050565b60008060008060808587031215612c6d57600080fd5b8435612c7881612b90565b93506020850135612c8881612b90565b92506040850135612c9881612bc2565b91506060850135612ca881612bc2565b939692955090935050565b600060208284031215612cc557600080fd5b8151801515811461185c57600080fd5b60208082526010908201526f3830bab9b2b21037b910333937bd32b760811b604082015260600190565b634e487b7160e01b600052601160045260246000fd5b600065ffffffffffff821680612d2d57612d2d612cff565b6000190192915050565b60008060408385031215612d4a57600080fd5b505080516020909101519092909150565b600060208284031215612d6d57600080fd5b815161185c81612b90565b80516020808301519190811015612d99576000198160200360031b1b821691505b50919050565b634e487b7160e01b600052604160045260246000fd5b8051612dc081612b90565b919050565b60006020808385031215612dd857600080fd5b825167ffffffffffffffff80821115612df057600080fd5b818501915085601f830112612e0457600080fd5b815181811115612e1657612e16612d9f565b8060051b604051601f19603f83011681018181108582111715612e3b57612e3b612d9f565b604052918252848201925083810185019188831115612e5957600080fd5b938501935b82851015612e7e57612e6f85612db5565b84529385019392850192612e5e565b98975050505050505050565b634e487b7160e01b600052603260045260246000fd5b6000600019821415612eb457612eb4612cff565b5060010190565b600060208284031215612ecd57600080fd5b5051919050565b60008060408385031215612ee757600080fd5b8251612ef281612bc2565b6020840151909250612f0381612bc2565b809150509250929050565b600060208284031215612f2057600080fd5b815161185c81612bc2565b60008251612f3d818460208701612bf4565b9190910192915050565b6020808252602b908201527f496e697469616c697a61626c653a20636f6e7472616374206973206e6f74206960408201526a6e697469616c697a696e6760a81b606082015260800190565b634e487b7160e01b600052600160045260246000fd5b600060208284031215612fba57600080fd5b815160ff8116811461185c57600080fd5b600065ffffffffffff80831681811415612fe757612fe7612cff565b6001019392505050565b60006001600160c01b038381169083168181101561301157613011612cff565b039392505050565b634e487b7160e01b600052602160045260246000fd5b600081810b83820b8281128015607f1983018412161561305157613051612cff565b81607f01831381161561306657613066612cff565b5090039392505050565b600181815b80851115612b8857816000190482111561309157613091612cff565b8085161561309e57918102915b93841c9390800290613075565b6000826130ba57506001612497565b816130c757506000612497565b81600181146130dd57600281146130e757613103565b6001915050612497565b60ff8411156130f8576130f8612cff565b50506001821b612497565b5060208310610133831016604e8410600b8410161715613126575081810a612497565b6131308383613070565b806000190482111561314457613144612cff565b029392505050565b600061249483836130ab565b600081600019048311821515161561317257613172612cff565b500290565b634e487b7160e01b600052601260045260246000fd5b600082198211156131a0576131a0612cff565b500190565b6000828210156131b7576131b7612cff565b500390565b6000826131cb576131cb613177565b500490565b6000600160ff1b8214156131e6576131e6612cff565b5060000390565b6000826131fc576131fc613177565b50069056fea264697066735822122064c147f634a082418f8798b635671642a4a942b972d7428921d385dd1ee68ce264736f6c63430008090033",
  "linkReferences": {},
  "deployedLinkReferences": {}
}