{
  "_format": "hh-sol-artifact-1",
  "contractName": "DistributorP0",
  "sourceName": "contracts/reserve/p0/Distributor.sol",
  "abi": [
    {
      "anonymous": false,
      "inputs": [
        {
          "indexed": false,
          "internalType": "address",
          "name": "dest",
          "type": "address"
        },
        {
          "indexed": false,
          "internalType": "uint16",
          "name": "rTokenDist",
          "type": "uint16"
        },
        {
          "indexed": false,
          "internalType": "uint16",
          "name": "rsrDist",
          "type": "uint16"
        }
      ],
      "name": "DistributionSet",
      "type": "event"
    },
    {
      "anonymous": false,
      "inputs": [
        {
          "indexed": false,
          "internalType": "uint8",
          "name": "version",
          "type": "uint8"
        }
      ],
      "name": "Initialized",
      "type": "event"
    },
    {
      "anonymous": false,
      "inputs": [
        {
          "indexed": true,
          "internalType": "contract IERC20",
          "name": "erc20",
          "type": "address"
        },
        {
          "indexed": true,
          "internalType": "address",
          "name": "source",
          "type": "address"
        },
        {
          "indexed": true,
          "internalType": "uint256",
          "name": "amount",
          "type": "uint256"
        }
      ],
      "name": "RevenueDistributed",
      "type": "event"
    },
    {
      "inputs": [],
      "name": "FURNACE",
      "outputs": [
        {
          "internalType": "address",
          "name": "",
          "type": "address"
        }
      ],
      "stateMutability": "view",
      "type": "function"
    },
    {
      "inputs": [],
      "name": "MAX_DESTINATIONS_ALLOWED",
      "outputs": [
        {
          "internalType": "uint8",
          "name": "",
          "type": "uint8"
        }
      ],
      "stateMutability": "view",
      "type": "function"
    },
    {
      "inputs": [],
      "name": "ST_RSR",
      "outputs": [
        {
          "internalType": "address",
          "name": "",
          "type": "address"
        }
      ],
      "stateMutability": "view",
      "type": "function"
    },
    {
      "inputs": [
        {
          "internalType": "contract IERC20",
          "name": "erc20",
          "type": "address"
        },
        {
          "internalType": "address",
          "name": "from",
          "type": "address"
        },
        {
          "internalType": "uint256",
          "name": "amount",
          "type": "uint256"
        }
      ],
      "name": "distribute",
      "outputs": [],
      "stateMutability": "nonpayable",
      "type": "function"
    },
    {
      "inputs": [
        {
          "internalType": "address",
          "name": "",
          "type": "address"
        }
      ],
      "name": "distribution",
      "outputs": [
        {
          "internalType": "uint16",
          "name": "rTokenDist",
          "type": "uint16"
        },
        {
          "internalType": "uint16",
          "name": "rsrDist",
          "type": "uint16"
        }
      ],
      "stateMutability": "view",
      "type": "function"
    },
    {
      "inputs": [
        {
          "internalType": "contract IMain",
          "name": "main_",
          "type": "address"
        },
        {
          "components": [
            {
              "internalType": "uint16",
              "name": "rTokenDist",
              "type": "uint16"
            },
            {
              "internalType": "uint16",
              "name": "rsrDist",
              "type": "uint16"
            }
          ],
          "internalType": "struct RevenueShare",
          "name": "dist",
          "type": "tuple"
        }
      ],
      "name": "init",
      "outputs": [],
      "stateMutability": "nonpayable",
      "type": "function"
    },
    {
      "inputs": [],
      "name": "main",
      "outputs": [
        {
          "internalType": "contract IMain",
          "name": "",
          "type": "address"
        }
      ],
      "stateMutability": "view",
      "type": "function"
    },
    {
      "inputs": [
        {
          "internalType": "address",
          "name": "dest",
          "type": "address"
        },
        {
          "components": [
            {
              "internalType": "uint16",
              "name": "rTokenDist",
              "type": "uint16"
            },
            {
              "internalType": "uint16",
              "name": "rsrDist",
              "type": "uint16"
            }
          ],
          "internalType": "struct RevenueShare",
          "name": "share",
          "type": "tuple"
        }
      ],
      "name": "setDistribution",
      "outputs": [],
      "stateMutability": "nonpayable",
      "type": "function"
    },
    {
      "inputs": [],
      "name": "totals",
      "outputs": [
        {
          "components": [
            {
              "internalType": "uint24",
              "name": "rTokenTotal",
              "type": "uint24"
            },
            {
              "internalType": "uint24",
              "name": "rsrTotal",
              "type": "uint24"
            }
          ],
          "internalType": "struct RevenueTotals",
          "name": "revTotals",
          "type": "tuple"
        }
      ],
      "stateMutability": "view",
      "type": "function"
    },
    {
      "inputs": [],
      "name": "version",
      "outputs": [
        {
          "internalType": "string",
          "name": "",
          "type": "string"
        }
      ],
      "stateMutability": "pure",
      "type": "function"
    }
  ],
  "bytecode": "0x608060405234801561001057600080fd5b506115e6806100206000396000f3fe608060405234801561001057600080fd5b506004361061009e5760003560e01c806399e6dda81161006657806399e6dda814610126578063a16a918314610139578063c038a38e1461014c578063c2db09c114610177578063dffeadd0146101c057600080fd5b80633aab16f7146100a35780633c6e0dec146100c857806352dffcce146100d057806354fd4d50146100ea5780638859443714610111575b600080fd5b6100ab600181565b6040516001600160a01b0390911681526020015b60405180910390f35b6100ab600281565b6100d8606481565b60405160ff90911681526020016100bf565b60408051808201825260058152640312e322e360dc1b602082015290516100bf91906112f0565b61012461011f3660046113be565b6101d3565b005b6101246101343660046113be565b6102fb565b6101246101473660046113f4565b610479565b61015461097c565b60408051825162ffffff90811682526020938401511692810192909252016100bf565b6101a5610185366004611435565b60366020526000908152604090205461ffff808216916201000090041682565b6040805161ffff9384168152929091166020830152016100bf565b6033546100ab906001600160a01b031681565b60335460408051808201909152600581526427aba722a960d91b60208201526001600160a01b03909116906391d148549061020d90611452565b336040516001600160e01b031960e085901b16815260048101929092526001600160a01b0316602482015260440160206040518083038186803b15801561025357600080fd5b505afa158015610267573d6000803e3d6000fd5b505050506040513d601f19601f8201168201806040525081019061028b9190611479565b6102ce5760405162461bcd60e51b815260206004820152600f60248201526e676f7665726e616e6365206f6e6c7960881b60448201526064015b60405180910390fd5b6102d88282610a2d565b60006102e261097c565b90506102f681600001518260200151610d09565b505050565b600054610100900460ff161580801561031b5750600054600160ff909116105b806103355750303b158015610335575060005460ff166001145b6103985760405162461bcd60e51b815260206004820152602e60248201527f496e697469616c697a61626c653a20636f6e747261637420697320616c72656160448201526d191e481a5b9a5d1a585b1a5e995960921b60648201526084016102c5565b6000805460ff1916600117905580156103bb576000805461ff0019166101001790555b6103c483610d72565b6103de826000015161ffff16836020015161ffff16610d09565b60408051808201909152825161ffff1681526000602082015261040390600190610a2d565b61042f60026040518060400160405280600061ffff168152602001856020015161ffff16815250610a2d565b80156102f6576000805461ff0019169055604051600181527f7f26b83ff96e1f2b6a682f133852f6798a09c465da95921460cefb38474024989060200160405180910390a1505050565b603360009054906101000a90046001600160a01b03166001600160a01b031663f17063756040518163ffffffff1660e01b815260040160206040518083038186803b1580156104c757600080fd5b505afa1580156104db573d6000803e3d6000fd5b505050506040513d601f19601f820116820180604052508101906104ff9190611479565b1561053f5760405162461bcd60e51b815260206004820152601060248201526f3830bab9b2b21037b910333937bd32b760811b60448201526064016102c5565b6033546040805163c99dc3dd60e01b815290516000926001600160a01b03169163c99dc3dd916004808301926020929190829003018186803b15801561058457600080fd5b505afa158015610598573d6000803e3d6000fd5b505050506040513d601f19601f820116820180604052508101906105bc919061149b565b9050806001600160a01b0316846001600160a01b031614806106745750603360009054906101000a90046001600160a01b03166001600160a01b03166340c65f726040518163ffffffff1660e01b815260040160206040518083038186803b15801561062757600080fd5b505afa15801561063b573d6000803e3d6000fd5b505050506040513d601f19601f8201168201806040525081019061065f919061149b565b6001600160a01b0316846001600160a01b0316145b6106b05760405162461bcd60e51b815260206004820152600d60248201526c2929a91037b910292a37b5b2b760991b60448201526064016102c5565b6001600160a01b03848116908216146000806106ca61097c565b90506000836106da5781516106e0565b81602001515b62ffffff1690506000811161072f5760405162461bcd60e51b81526020600482015260156024820152746e6f7468696e6720746f206469737472696275746560581b60448201526064016102c5565b61073981876114ce565b9250505060005b61074a6034610e4c565b81101561093257600061075e603483610e5c565b9050600084610789576001600160a01b03821660009081526036602052604090205461ffff166107ad565b6001600160a01b03821660009081526036602052604090205462010000900461ffff165b61ffff169050806107bf575050610920565b60006107cb82866114f0565b90506001600160a01b0383166001141561086c57603360009054906101000a90046001600160a01b03166001600160a01b031663656e96e16040518163ffffffff1660e01b815260040160206040518083038186803b15801561082d57600080fd5b505afa158015610841573d6000803e3d6000fd5b505050506040513d601f19601f82011682018060405250810190610865919061149b565b9250610907565b6001600160a01b0383166002141561090757603360009054906101000a90046001600160a01b03166001600160a01b0316634780a5e56040518163ffffffff1660e01b815260040160206040518083038186803b1580156108cc57600080fd5b505afa1580156108e0573d6000803e3d6000fd5b505050506040513d601f19601f82011682018060405250810190610904919061149b565b92505b61091c6001600160a01b038b168a8584610e6f565b5050505b8061092a8161150f565b915050610740565b5083856001600160a01b0316876001600160a01b03167fe892c32f65273e1958c615dd9fd0eaa040ab9a374d002866bbab6092954bbd2060405160405180910390a4505050505050565b604080518082019091526000808252602082015260005b61099d6034610e4c565b811015610a295760006036816109b4603485610e5c565b6001600160a01b0316815260208101919091526040016000208054845191925061ffff169084906109e690839061152a565b62ffffff1690525080546020840180516201000090920461ffff1691610a0d90839061152a565b62ffffff16905250819050610a218161150f565b915050610993565b5090565b6001600160a01b038216610a795760405162461bcd60e51b8152602060048201526013602482015272646573742063616e6e6f74206265207a65726f60681b60448201526064016102c5565b6001600160a01b03821660011415610ae157602081015161ffff1615610ae15760405162461bcd60e51b815260206004820152601a60248201527f4675726e616365206d75737420676574203025206f662052535200000000000060448201526064016102c5565b6001600160a01b03821660021415610b4657805161ffff1615610b465760405162461bcd60e51b815260206004820152601b60248201527f5374525352206d75737420676574203025206f662052546f6b656e000000000060448201526064016102c5565b612710816020015161ffff161115610ba05760405162461bcd60e51b815260206004820152601960248201527f52535220646973747269627574696f6e20746f6f20686967680000000000000060448201526064016102c5565b612710816000015161ffff161115610bfa5760405162461bcd60e51b815260206004820152601c60248201527f52546f6b656e20646973747269627574696f6e20746f6f20686967680000000060448201526064016102c5565b602081015161ffff16158015610c135750805161ffff16155b15610c2957610c23603483610ecf565b50610c87565b610c34603483610ee4565b506064610c416034610e4c565b1115610c875760405162461bcd60e51b8152602060048201526015602482015274546f6f206d616e792064657374696e6174696f6e7360581b60448201526064016102c5565b6001600160a01b038216600081815260366020908152604091829020845181548684015161ffff92831663ffffffff199092168217620100009390911692830217909255835194855291840152908201527f3ee8237f3f4cb0108563a22b98236b44cee655fc708d3097420b4b9215dbbe5a9060600160405180910390a15050565b60008262ffffff161180610d22575060008162ffffff16115b610d6e5760405162461bcd60e51b815260206004820152601760248201527f6e6f20646973747269627574696f6e20646566696e656400000000000000000060448201526064016102c5565b5050565b600054610100900460ff16610ddd5760405162461bcd60e51b815260206004820152602b60248201527f496e697469616c697a61626c653a20636f6e7472616374206973206e6f74206960448201526a6e697469616c697a696e6760a81b60648201526084016102c5565b6001600160a01b038116610e2a5760405162461bcd60e51b81526020600482015260146024820152736d61696e206973207a65726f206164647265737360601b60448201526064016102c5565b603380546001600160a01b0319166001600160a01b0392909216919091179055565b6000610e56825490565b92915050565b6000610e688383610ef9565b9392505050565b604080516001600160a01b0385811660248301528416604482015260648082018490528251808303909101815260849091019091526020810180516001600160e01b03166323b872dd60e01b179052610ec9908590610f23565b50505050565b6000610e68836001600160a01b038416610ff5565b6000610e68836001600160a01b0384166110e8565b6000826000018281548110610f1057610f10611551565b9060005260206000200154905092915050565b6000610f78826040518060400160405280602081526020017f5361666545524332303a206c6f772d6c6576656c2063616c6c206661696c6564815250856001600160a01b03166111379092919063ffffffff16565b8051909150156102f65780806020019051810190610f969190611479565b6102f65760405162461bcd60e51b815260206004820152602a60248201527f5361666545524332303a204552433230206f7065726174696f6e20646964206e6044820152691bdd081cdd58d8d9595960b21b60648201526084016102c5565b600081815260018301602052604081205480156110de576000611019600183611567565b855490915060009061102d90600190611567565b905081811461109257600086600001828154811061104d5761104d611551565b906000526020600020015490508087600001848154811061107057611070611551565b6000918252602080832090910192909255918252600188019052604090208390555b85548690806110a3576110a361157e565b600190038181906000526020600020016000905590558560010160008681526020019081526020016000206000905560019350505050610e56565b6000915050610e56565b600081815260018301602052604081205461112f57508154600181810184556000848152602080822090930184905584548482528286019093526040902091909155610e56565b506000610e56565b6060611146848460008561114e565b949350505050565b6060824710156111af5760405162461bcd60e51b815260206004820152602660248201527f416464726573733a20696e73756666696369656e742062616c616e636520666f6044820152651c8818d85b1b60d21b60648201526084016102c5565b600080866001600160a01b031685876040516111cb9190611594565b60006040518083038185875af1925050503d8060008114611208576040519150601f19603f3d011682016040523d82523d6000602084013e61120d565b606091505b509150915061121e87838387611229565b979650505050505050565b6060831561129557825161128e576001600160a01b0385163b61128e5760405162461bcd60e51b815260206004820152601d60248201527f416464726573733a2063616c6c20746f206e6f6e2d636f6e747261637400000060448201526064016102c5565b5081611146565b61114683838151156112aa5781518083602001fd5b8060405162461bcd60e51b81526004016102c591906112f0565b60005b838110156112df5781810151838201526020016112c7565b83811115610ec95750506000910152565b602081526000825180602084015261130f8160408501602087016112c4565b601f01601f19169190910160400192915050565b6001600160a01b038116811461133857600080fd5b50565b803561ffff8116811461134d57600080fd5b919050565b60006040828403121561136457600080fd5b6040516040810181811067ffffffffffffffff8211171561139557634e487b7160e01b600052604160045260246000fd5b6040529050806113a48361133b565b81526113b26020840161133b565b60208201525092915050565b600080606083850312156113d157600080fd5b82356113dc81611323565b91506113eb8460208501611352565b90509250929050565b60008060006060848603121561140957600080fd5b833561141481611323565b9250602084013561142481611323565b929592945050506040919091013590565b60006020828403121561144757600080fd5b8135610e6881611323565b80516020808301519190811015611473576000198160200360031b1b821691505b50919050565b60006020828403121561148b57600080fd5b81518015158114610e6857600080fd5b6000602082840312156114ad57600080fd5b8151610e6881611323565b634e487b7160e01b600052601160045260246000fd5b6000826114eb57634e487b7160e01b600052601260045260246000fd5b500490565b600081600019048311821515161561150a5761150a6114b8565b500290565b6000600019821415611523576115236114b8565b5060010190565b600062ffffff808316818516808303821115611548576115486114b8565b01949350505050565b634e487b7160e01b600052603260045260246000fd5b600082821015611579576115796114b8565b500390565b634e487b7160e01b600052603160045260246000fd5b600082516115a68184602087016112c4565b919091019291505056fea2646970667358221220f29cd28eba44fe851eafc7df9cf2be0c6c71c7dcc874f6c26df823b9bac678c264736f6c63430008090033",
  "linkReferences": {},
  "deployedLinkReferences": {}
}