{
  "_format": "hh-sol-artifact-1",
  "contractName": "BrokerP1V2",
  "sourceName": "contracts/reserve/plugins/mocks/upgrades/BrokerV2.sol",
  "abi": [
    {
      "inputs": [],
      "name": "UIntOutOfBounds",
      "type": "error"
    },
    {
      "anonymous": false,
      "inputs": [
        {
          "indexed": false,
          "internalType": "address",
          "name": "previousAdmin",
          "type": "address"
        },
        {
          "indexed": false,
          "internalType": "address",
          "name": "newAdmin",
          "type": "address"
        }
      ],
      "name": "AdminChanged",
      "type": "event"
    },
    {
      "anonymous": false,
      "inputs": [
        {
          "indexed": true,
          "internalType": "uint48",
          "name": "oldVal",
          "type": "uint48"
        },
        {
          "indexed": true,
          "internalType": "uint48",
          "name": "newVal",
          "type": "uint48"
        }
      ],
      "name": "AuctionLengthSet",
      "type": "event"
    },
    {
      "anonymous": false,
      "inputs": [
        {
          "indexed": true,
          "internalType": "address",
          "name": "beacon",
          "type": "address"
        }
      ],
      "name": "BeaconUpgraded",
      "type": "event"
    },
    {
      "anonymous": false,
      "inputs": [
        {
          "indexed": true,
          "internalType": "bool",
          "name": "prevVal",
          "type": "bool"
        },
        {
          "indexed": true,
          "internalType": "bool",
          "name": "newVal",
          "type": "bool"
        }
      ],
      "name": "DisabledSet",
      "type": "event"
    },
    {
      "anonymous": false,
      "inputs": [
        {
          "indexed": false,
          "internalType": "uint8",
          "name": "version",
          "type": "uint8"
        }
      ],
      "name": "Initialized",
      "type": "event"
    },
    {
      "anonymous": false,
      "inputs": [
        {
          "indexed": true,
          "internalType": "address",
          "name": "implementation",
          "type": "address"
        }
      ],
      "name": "Upgraded",
      "type": "event"
    },
    {
      "inputs": [],
      "name": "MAX_AUCTION_LENGTH",
      "outputs": [
        {
          "internalType": "uint48",
          "name": "",
          "type": "uint48"
        }
      ],
      "stateMutability": "view",
      "type": "function"
    },
    {
      "inputs": [],
      "name": "auctionLength",
      "outputs": [
        {
          "internalType": "uint48",
          "name": "",
          "type": "uint48"
        }
      ],
      "stateMutability": "view",
      "type": "function"
    },
    {
      "inputs": [],
      "name": "disabled",
      "outputs": [
        {
          "internalType": "bool",
          "name": "",
          "type": "bool"
        }
      ],
      "stateMutability": "view",
      "type": "function"
    },
    {
      "inputs": [],
      "name": "gnosis",
      "outputs": [
        {
          "internalType": "contract IGnosis",
          "name": "",
          "type": "address"
        }
      ],
      "stateMutability": "view",
      "type": "function"
    },
    {
      "inputs": [
        {
          "internalType": "contract IMain",
          "name": "main_",
          "type": "address"
        },
        {
          "internalType": "contract IGnosis",
          "name": "gnosis_",
          "type": "address"
        },
        {
          "internalType": "contract ITrade",
          "name": "tradeImplementation_",
          "type": "address"
        },
        {
          "internalType": "uint48",
          "name": "auctionLength_",
          "type": "uint48"
        }
      ],
      "name": "init",
      "outputs": [],
      "stateMutability": "nonpayable",
      "type": "function"
    },
    {
      "inputs": [],
      "name": "main",
      "outputs": [
        {
          "internalType": "contract IMain",
          "name": "",
          "type": "address"
        }
      ],
      "stateMutability": "view",
      "type": "function"
    },
    {
      "inputs": [],
      "name": "newValue",
      "outputs": [
        {
          "internalType": "uint256",
          "name": "",
          "type": "uint256"
        }
      ],
      "stateMutability": "view",
      "type": "function"
    },
    {
      "inputs": [
        {
          "components": [
            {
              "internalType": "contract IAsset",
              "name": "sell",
              "type": "address"
            },
            {
              "internalType": "contract IAsset",
              "name": "buy",
              "type": "address"
            },
            {
              "internalType": "uint256",
              "name": "sellAmount",
              "type": "uint256"
            },
            {
              "internalType": "uint256",
              "name": "minBuyAmount",
              "type": "uint256"
            }
          ],
          "internalType": "struct TradeRequest",
          "name": "req",
          "type": "tuple"
        }
      ],
      "name": "openTrade",
      "outputs": [
        {
          "internalType": "contract ITrade",
          "name": "",
          "type": "address"
        }
      ],
      "stateMutability": "nonpayable",
      "type": "function"
    },
    {
      "inputs": [],
      "name": "proxiableUUID",
      "outputs": [
        {
          "internalType": "bytes32",
          "name": "",
          "type": "bytes32"
        }
      ],
      "stateMutability": "view",
      "type": "function"
    },
    {
      "inputs": [],
      "name": "reportViolation",
      "outputs": [],
      "stateMutability": "nonpayable",
      "type": "function"
    },
    {
      "inputs": [
        {
          "internalType": "uint48",
          "name": "newAuctionLength",
          "type": "uint48"
        }
      ],
      "name": "setAuctionLength",
      "outputs": [],
      "stateMutability": "nonpayable",
      "type": "function"
    },
    {
      "inputs": [
        {
          "internalType": "bool",
          "name": "disabled_",
          "type": "bool"
        }
      ],
      "name": "setDisabled",
      "outputs": [],
      "stateMutability": "nonpayable",
      "type": "function"
    },
    {
      "inputs": [
        {
          "internalType": "uint256",
          "name": "newValue_",
          "type": "uint256"
        }
      ],
      "name": "setNewValue",
      "outputs": [],
      "stateMutability": "nonpayable",
      "type": "function"
    },
    {
      "inputs": [],
      "name": "tradeImplementation",
      "outputs": [
        {
          "internalType": "contract ITrade",
          "name": "",
          "type": "address"
        }
      ],
      "stateMutability": "view",
      "type": "function"
    },
    {
      "inputs": [
        {
          "internalType": "address",
          "name": "newImplementation",
          "type": "address"
        }
      ],
      "name": "upgradeTo",
      "outputs": [],
      "stateMutability": "nonpayable",
      "type": "function"
    },
    {
      "inputs": [
        {
          "internalType": "address",
          "name": "newImplementation",
          "type": "address"
        },
        {
          "internalType": "bytes",
          "name": "data",
          "type": "bytes"
        }
      ],
      "name": "upgradeToAndCall",
      "outputs": [],
      "stateMutability": "payable",
      "type": "function"
    },
    {
      "inputs": [],
      "name": "version",
      "outputs": [
        {
          "internalType": "string",
          "name": "",
          "type": "string"
        }
      ],
      "stateMutability": "pure",
      "type": "function"
    }
  ],
  "bytecode": "0x60a0604052306080523480156200001557600080fd5b50600054610100900460ff1615808015620000375750600054600160ff909116105b8062000067575062000054306200014160201b6200121b1760201c565b15801562000067575060005460ff166001145b620000cf5760405162461bcd60e51b815260206004820152602e60248201527f496e697469616c697a61626c653a20636f6e747261637420697320616c72656160448201526d191e481a5b9a5d1a585b1a5e995960921b606482015260840160405180910390fd5b6000805460ff191660011790558015620000f3576000805461ff0019166101001790555b80156200013a576000805461ff0019169055604051600181527f7f26b83ff96e1f2b6a682f133852f6798a09c465da95921460cefb38474024989060200160405180910390a15b5062000150565b6001600160a01b03163b151590565b6080516121e46200018860003960008181610367015281816103b00152818161045001528181610490015261052301526121e46000f3fe6080604052600436106100fe5760003560e01c8063642606a71161009557806393574b1e1161006457806393574b1e146102b6578063951c4077146102cb578063af1ebc24146102eb578063dffeadd01461030b578063ee0708051461032b57600080fd5b8063642606a7146102405780636c5a7d1e146102605780637c65452c14610280578063930c63721461029657600080fd5b80634f1ef286116100d15780634f1ef286146101b657806352d1902d146101c9578063542d5e29146101ec57806354fd4d501461020c57600080fd5b80630891f60114610103578063238c8aad14610136578063325c25a21461016e5780633659cfe614610194575b600080fd5b34801561010f57600080fd5b5061011a62093a8081565b60405165ffffffffffff90911681526020015b60405180910390f35b34801561014257600080fd5b5060cd54610156906001600160a01b031681565b6040516001600160a01b03909116815260200161012d565b34801561017a57600080fd5b5060cd5461011a90600160a01b900465ffffffffffff1681565b3480156101a057600080fd5b506101b46101af366004611c83565b61035c565b005b6101b46101c4366004611ce7565b610445565b3480156101d557600080fd5b506101de610516565b60405190815260200161012d565b3480156101f857600080fd5b50610156610207366004611d8f565b6105c9565b34801561021857600080fd5b5060408051808201825260058152640322e302e360dc1b6020820152905161012d9190611e30565b34801561024c57600080fd5b506101b461025b366004611e79565b61094e565b34801561026c57600080fd5b506101b461027b366004611ee1565b610cf8565b34801561028c57600080fd5b506101de60fb5481565b3480156102a257600080fd5b5060cc54610156906001600160a01b031681565b3480156102c257600080fd5b506101b4610e27565b3480156102d757600080fd5b506101b46102e6366004611efe565b610f9d565b3480156102f757600080fd5b506101b4610306366004611f17565b611076565b34801561031757600080fd5b50609754610156906001600160a01b031681565b34801561033757600080fd5b5060cd5461034c90600160d01b900460ff1681565b604051901515815260200161012d565b306001600160a01b037f00000000000000000000000000000000000000000000000000000000000000001614156103ae5760405162461bcd60e51b81526004016103a590611f32565b60405180910390fd5b7f00000000000000000000000000000000000000000000000000000000000000006001600160a01b03166103f7600080516020612168833981519152546001600160a01b031690565b6001600160a01b03161461041d5760405162461bcd60e51b81526004016103a590611f7e565b6104268161122a565b60408051600080825260208201909252610442918391906112fe565b50565b306001600160a01b037f000000000000000000000000000000000000000000000000000000000000000016141561048e5760405162461bcd60e51b81526004016103a590611f32565b7f00000000000000000000000000000000000000000000000000000000000000006001600160a01b03166104d7600080516020612168833981519152546001600160a01b031690565b6001600160a01b0316146104fd5760405162461bcd60e51b81526004016103a590611f7e565b6105068261122a565b610512828260016112fe565b5050565b6000306001600160a01b037f000000000000000000000000000000000000000000000000000000000000000016146105b65760405162461bcd60e51b815260206004820152603860248201527f555550535570677261646561626c653a206d757374206e6f742062652063616c60448201527f6c6564207468726f7567682064656c656761746563616c6c000000000000000060648201526084016103a5565b5060008051602061216883398151915290565b6097546040805163f170637560e01b815290516000926001600160a01b03169163f1706375916004808301926020929190829003018186803b15801561060e57600080fd5b505afa158015610622573d6000803e3d6000fd5b505050506040513d601f19601f820116820180604052508101906106469190611fca565b156106865760405162461bcd60e51b815260206004820152601060248201526f3830bab9b2b21037b910333937bd32b760811b60448201526064016103a5565b60cd54600160d01b900460ff16156106d25760405162461bcd60e51b815260206004820152600f60248201526e189c9bdad95c88191a5cd8589b1959608a1b60448201526064016103a5565b60c95433906001600160a01b03168114806106fa575060ca546001600160a01b038281169116145b80610712575060cb546001600160a01b038281169116145b61074d5760405162461bcd60e51b815260206004820152600c60248201526b6f6e6c79207472616465727360a01b60448201526064016103a5565b60cc54600090610765906001600160a01b031661147d565b6001600160a01b038116600090815260ce6020526040808220805460ff1916600117905586015160608701519293509091116107a55784604001516107ab565b84606001515b90506be22ea493b30310a770000000811115610807576107de85604001516be22ea493b30310a770000000836002611512565b60408601526060850151610801906be22ea493b30310a770000000836000611512565b60608601525b6108978383876040015188600001516001600160a01b031663785e9e866040518163ffffffff1660e01b815260040160206040518083038186803b15801561084e57600080fd5b505afa158015610862573d6000803e3d6000fd5b505050506040513d601f19601f820116820180604052508101906108869190611fe7565b6001600160a01b03169291906115c3565b60cd54604080516372d0dc0d60e11b81523060048201526001600160a01b0386811660248301528084166044830152600160a01b90930465ffffffffffff1660648201528751831660848201526020880151831660a48201529087015160c4820152606087015160e48201529083169063e5a1b81a9061010401600060405180830381600087803b15801561092b57600080fd5b505af115801561093f573d6000803e3d6000fd5b5093955050505050505b919050565b600054610100900460ff161580801561096e5750600054600160ff909116105b806109885750303b158015610988575060005460ff166001145b6109eb5760405162461bcd60e51b815260206004820152602e60248201527f496e697469616c697a61626c653a20636f6e747261637420697320616c72656160448201526d191e481a5b9a5d1a585b1a5e995960921b60648201526084016103a5565b6000805460ff191660011790558015610a0e576000805461ff0019166101001790555b6001600160a01b038416610a5d5760405162461bcd60e51b8152602060048201526016602482015275696e76616c696420476e6f736973206164647265737360501b60448201526064016103a5565b6001600160a01b038316610abf5760405162461bcd60e51b8152602060048201526024808201527f696e76616c696420547261646520496d706c656d656e746174696f6e206164646044820152637265737360e01b60648201526084016103a5565b610ac885611623565b846001600160a01b031663dc8af5f66040518163ffffffff1660e01b815260040160206040518083038186803b158015610b0157600080fd5b505afa158015610b15573d6000803e3d6000fd5b505050506040513d601f19601f82011682018060405250810190610b399190611fe7565b60c960006101000a8154816001600160a01b0302191690836001600160a01b03160217905550846001600160a01b031663531367636040518163ffffffff1660e01b815260040160206040518083038186803b158015610b9857600080fd5b505afa158015610bac573d6000803e3d6000fd5b505050506040513d601f19601f82011682018060405250810190610bd09190611fe7565b60ca60006101000a8154816001600160a01b0302191690836001600160a01b03160217905550846001600160a01b03166341bf0c4e6040518163ffffffff1660e01b815260040160206040518083038186803b158015610c2f57600080fd5b505afa158015610c43573d6000803e3d6000fd5b505050506040513d601f19601f82011682018060405250810190610c679190611fe7565b60cb80546001600160a01b03199081166001600160a01b039384161790915560cd8054821687841617905560cc8054909116918516919091179055610cab82611076565b8015610cf1576000805461ff0019169055604051600181527f7f26b83ff96e1f2b6a682f133852f6798a09c465da95921460cefb38474024989060200160405180910390a15b5050505050565b60975460408051808201909152600581526427aba722a960d91b60208201526001600160a01b03909116906391d1485490610d3290612004565b336040516001600160e01b031960e085901b16815260048101929092526001600160a01b0316602482015260440160206040518083038186803b158015610d7857600080fd5b505afa158015610d8c573d6000803e3d6000fd5b505050506040513d601f19601f82011682018060405250810190610db09190611fca565b610dcc5760405162461bcd60e51b81526004016103a59061202b565b60cd5460405182151591600160d01b900460ff161515907f50ad88f2d352cfe099dff651bce69b227cf4a4fa1eefde42cbd9ee52e671e12790600090a360cd8054911515600160d01b0260ff60d01b19909216919091179055565b609760009054906101000a90046001600160a01b03166001600160a01b031663f17063756040518163ffffffff1660e01b815260040160206040518083038186803b158015610e7557600080fd5b505afa158015610e89573d6000803e3d6000fd5b505050506040513d601f19601f82011682018060405250810190610ead9190611fca565b15610eed5760405162461bcd60e51b815260206004820152601060248201526f3830bab9b2b21037b910333937bd32b760811b60448201526064016103a5565b33600090815260ce602052604090205460ff16610f4c5760405162461bcd60e51b815260206004820152601b60248201527f756e7265636f676e697a656420747261646520636f6e7472616374000000000060448201526064016103a5565b60cd54604051600191600160d01b900460ff161515907f50ad88f2d352cfe099dff651bce69b227cf4a4fa1eefde42cbd9ee52e671e12790600090a360cd805460ff60d01b1916600160d01b179055565b60975460408051808201909152600581526427aba722a960d91b60208201526001600160a01b03909116906391d1485490610fd790612004565b336040516001600160e01b031960e085901b16815260048101929092526001600160a01b0316602482015260440160206040518083038186803b15801561101d57600080fd5b505afa158015611031573d6000803e3d6000fd5b505050506040513d601f19601f820116820180604052508101906110559190611fca565b6110715760405162461bcd60e51b81526004016103a59061202b565b60fb55565b60975460408051808201909152600581526427aba722a960d91b60208201526001600160a01b03909116906391d14854906110b090612004565b336040516001600160e01b031960e085901b16815260048101929092526001600160a01b0316602482015260440160206040518083038186803b1580156110f657600080fd5b505afa15801561110a573d6000803e3d6000fd5b505050506040513d601f19601f8201168201806040525081019061112e9190611fca565b61114a5760405162461bcd60e51b81526004016103a59061202b565b60008165ffffffffffff1611801561116d575062093a8065ffffffffffff821611155b6111b15760405162461bcd60e51b81526020600482015260156024820152740d2dcecc2d8d2c840c2eac6e8d2dedc98cadccee8d605b1b60448201526064016103a5565b60cd5460405165ffffffffffff80841692600160a01b900416907f5367084e5526b7d5d8fcbd6a0e50fe9db6e3dc2a20c54c9820dcb0089728c85790600090a360cd805465ffffffffffff909216600160a01b0265ffffffffffff60a01b19909216919091179055565b6001600160a01b03163b151590565b60975460408051808201909152600581526427aba722a960d91b60208201526001600160a01b03909116906391d148549061126490612004565b336040516001600160e01b031960e085901b16815260048101929092526001600160a01b0316602482015260440160206040518083038186803b1580156112aa57600080fd5b505afa1580156112be573d6000803e3d6000fd5b505050506040513d601f19601f820116820180604052508101906112e29190611fca565b6104425760405162461bcd60e51b81526004016103a59061202b565b7f4910fdfa16fed3260ed0e7147f7cc6da11a60208b5b9406d12a635614ffd91435460ff161561133657611331836116c1565b505050565b826001600160a01b03166352d1902d6040518163ffffffff1660e01b815260040160206040518083038186803b15801561136f57600080fd5b505afa92505050801561139f575060408051601f3d908101601f1916820190925261139c91810190612054565b60015b6114025760405162461bcd60e51b815260206004820152602e60248201527f45524331393637557067726164653a206e657720696d706c656d656e7461746960448201526d6f6e206973206e6f74205555505360901b60648201526084016103a5565b60008051602061216883398151915281146114715760405162461bcd60e51b815260206004820152602960248201527f45524331393637557067726164653a20756e737570706f727465642070726f786044820152681a58589b195555525160ba1b60648201526084016103a5565b5061133183838361175d565b6000763d602d80600a3d3981f3363d3d373d3d3d363d730000008260601b60e81c176000526e5af43d82803e903d91602b57fd5bf38260781b17602052603760096000f090506001600160a01b0381166109495760405162461bcd60e51b8152602060048201526016602482015275115490cc4c4d8dce8818dc99585d194819985a5b195960521b60448201526064016103a5565b600080611520868686611782565b905060008360028111156115365761153661206d565b14156115435790506115bb565b6000848061155357611553612083565b8688099050600284600281111561156c5761156c61206d565b141561158b578015611586576115836001836120af565b91505b6115b7565b60026115986001876120c7565b6115a291906120de565b8111156115b7576115b46001836120af565b91505b5090505b949350505050565b604080516001600160a01b0385811660248301528416604482015260648082018490528251808303909101815260849091019091526020810180516001600160e01b03166323b872dd60e01b17905261161d908590611865565b50505050565b600054610100900460ff1661164a5760405162461bcd60e51b81526004016103a590612100565b6001600160a01b0381166116975760405162461bcd60e51b81526020600482015260146024820152736d61696e206973207a65726f206164647265737360601b60448201526064016103a5565b61169f611937565b609780546001600160a01b0319166001600160a01b0392909216919091179055565b6001600160a01b0381163b61172e5760405162461bcd60e51b815260206004820152602d60248201527f455243313936373a206e657720696d706c656d656e746174696f6e206973206e60448201526c1bdd08184818dbdb9d1c9858dd609a1b60648201526084016103a5565b60008051602061216883398151915280546001600160a01b0319166001600160a01b0392909216919091179055565b61176683611960565b6000825111806117735750805b156113315761161d83836119a0565b60008060006117918686611a94565b915091508382106117b55760405163f44398f560e01b815260040160405180910390fd5b600084806117c5576117c5612083565b8688099050818111156117d9576001830392505b9081900390600085900385168086816117f4576117f4612083565b04955080838161180657611806612083565b04925080816000038161181b5761181b612083565b046001019390930291909101600285810380870282030280870282030280870282030280870282030280870282030280870282030295860290039094029390930295945050505050565b60006118ba826040518060400160405280602081526020017f5361666545524332303a206c6f772d6c6576656c2063616c6c206661696c6564815250856001600160a01b0316611ac19092919063ffffffff16565b80519091501561133157808060200190518101906118d89190611fca565b6113315760405162461bcd60e51b815260206004820152602a60248201527f5361666545524332303a204552433230206f7065726174696f6e20646964206e6044820152691bdd081cdd58d8d9595960b21b60648201526084016103a5565b600054610100900460ff1661195e5760405162461bcd60e51b81526004016103a590612100565b565b611969816116c1565b6040516001600160a01b038216907fbc7cd75a20ee27fd9adebab32041f755214dbc6bffa90cc0225b39da2e5c2d3b90600090a250565b60606001600160a01b0383163b611a085760405162461bcd60e51b815260206004820152602660248201527f416464726573733a2064656c65676174652063616c6c20746f206e6f6e2d636f6044820152651b9d1c9858dd60d21b60648201526084016103a5565b600080846001600160a01b031684604051611a23919061214b565b600060405180830381855af49150503d8060008114611a5e576040519150601f19603f3d011682016040523d82523d6000602084013e611a63565b606091505b5091509150611a8b828260405180606001604052806027815260200161218860279139611ada565b95945050505050565b6000808060001984860990508385029150818103925081811015611ab9576001830392505b509250929050565b6060611ad08484600085611af3565b90505b9392505050565b60608315611ae9575081611ad3565b611ad38383611bce565b606082471015611b545760405162461bcd60e51b815260206004820152602660248201527f416464726573733a20696e73756666696369656e742062616c616e636520666f6044820152651c8818d85b1b60d21b60648201526084016103a5565b600080866001600160a01b03168587604051611b70919061214b565b60006040518083038185875af1925050503d8060008114611bad576040519150601f19603f3d011682016040523d82523d6000602084013e611bb2565b606091505b5091509150611bc387838387611bf8565b979650505050505050565b815115611bde5781518083602001fd5b8060405162461bcd60e51b81526004016103a59190611e30565b60608315611c64578251611c5d576001600160a01b0385163b611c5d5760405162461bcd60e51b815260206004820152601d60248201527f416464726573733a2063616c6c20746f206e6f6e2d636f6e747261637400000060448201526064016103a5565b50816115bb565b6115bb8383611bce565b6001600160a01b038116811461044257600080fd5b600060208284031215611c9557600080fd5b8135611ad381611c6e565b634e487b7160e01b600052604160045260246000fd5b604051601f8201601f1916810167ffffffffffffffff81118282101715611cdf57611cdf611ca0565b604052919050565b60008060408385031215611cfa57600080fd5b8235611d0581611c6e565b915060208381013567ffffffffffffffff80821115611d2357600080fd5b818601915086601f830112611d3757600080fd5b813581811115611d4957611d49611ca0565b611d5b601f8201601f19168501611cb6565b91508082528784828501011115611d7157600080fd5b80848401858401376000848284010152508093505050509250929050565b600060808284031215611da157600080fd5b6040516080810181811067ffffffffffffffff82111715611dc457611dc4611ca0565b6040528235611dd281611c6e565b81526020830135611de281611c6e565b6020820152604083810135908201526060928301359281019290925250919050565b60005b83811015611e1f578181015183820152602001611e07565b8381111561161d5750506000910152565b6020815260008251806020840152611e4f816040850160208701611e04565b601f01601f19169190910160400192915050565b803565ffffffffffff8116811461094957600080fd5b60008060008060808587031215611e8f57600080fd5b8435611e9a81611c6e565b93506020850135611eaa81611c6e565b92506040850135611eba81611c6e565b9150611ec860608601611e63565b905092959194509250565b801515811461044257600080fd5b600060208284031215611ef357600080fd5b8135611ad381611ed3565b600060208284031215611f1057600080fd5b5035919050565b600060208284031215611f2957600080fd5b611ad382611e63565b6020808252602c908201527f46756e6374696f6e206d7573742062652063616c6c6564207468726f7567682060408201526b19195b1959d85d1958d85b1b60a21b606082015260800190565b6020808252602c908201527f46756e6374696f6e206d7573742062652063616c6c6564207468726f7567682060408201526b6163746976652070726f787960a01b606082015260800190565b600060208284031215611fdc57600080fd5b8151611ad381611ed3565b600060208284031215611ff957600080fd5b8151611ad381611c6e565b80516020808301519190811015612025576000198160200360031b1b821691505b50919050565b6020808252600f908201526e676f7665726e616e6365206f6e6c7960881b604082015260600190565b60006020828403121561206657600080fd5b5051919050565b634e487b7160e01b600052602160045260246000fd5b634e487b7160e01b600052601260045260246000fd5b634e487b7160e01b600052601160045260246000fd5b600082198211156120c2576120c2612099565b500190565b6000828210156120d9576120d9612099565b500390565b6000826120fb57634e487b7160e01b600052601260045260246000fd5b500490565b6020808252602b908201527f496e697469616c697a61626c653a20636f6e7472616374206973206e6f74206960408201526a6e697469616c697a696e6760a81b606082015260800190565b6000825161215d818460208701611e04565b919091019291505056fe360894a13ba1a3210667c828492db98dca3e2076cc3735a920a3ca505d382bbc416464726573733a206c6f772d6c6576656c2064656c65676174652063616c6c206661696c6564a2646970667358221220a806e136ee350985bf2ec93d797b5b7fd6113417f4c3e5e06c37e467b23dbaf164736f6c63430008090033",
  "linkReferences": {},
  "deployedLinkReferences": {}
}