{
  "_format": "hh-sol-artifact-1",
  "contractName": "StaticATokenMock",
  "sourceName": "contracts/reserve/plugins/mocks/ATokenMock.sol",
  "abi": [
    {
      "inputs": [
        {
          "internalType": "string",
          "name": "name",
          "type": "string"
        },
        {
          "internalType": "string",
          "name": "symbol",
          "type": "string"
        },
        {
          "internalType": "address",
          "name": "underlyingAsset",
          "type": "address"
        }
      ],
      "stateMutability": "nonpayable",
      "type": "constructor"
    },
    {
      "inputs": [],
      "name": "UIntOutOfBounds",
      "type": "error"
    },
    {
      "anonymous": false,
      "inputs": [
        {
          "indexed": true,
          "internalType": "address",
          "name": "owner",
          "type": "address"
        },
        {
          "indexed": true,
          "internalType": "address",
          "name": "spender",
          "type": "address"
        },
        {
          "indexed": false,
          "internalType": "uint256",
          "name": "value",
          "type": "uint256"
        }
      ],
      "name": "Approval",
      "type": "event"
    },
    {
      "anonymous": false,
      "inputs": [
        {
          "indexed": true,
          "internalType": "address",
          "name": "from",
          "type": "address"
        },
        {
          "indexed": true,
          "internalType": "address",
          "name": "to",
          "type": "address"
        },
        {
          "indexed": false,
          "internalType": "uint256",
          "name": "value",
          "type": "uint256"
        }
      ],
      "name": "Transfer",
      "type": "event"
    },
    {
      "inputs": [],
      "name": "ATOKEN",
      "outputs": [
        {
          "internalType": "contract ATokenMock",
          "name": "",
          "type": "address"
        }
      ],
      "stateMutability": "view",
      "type": "function"
    },
    {
      "inputs": [],
      "name": "REWARD_TOKEN",
      "outputs": [
        {
          "internalType": "contract IERC20",
          "name": "",
          "type": "address"
        }
      ],
      "stateMutability": "view",
      "type": "function"
    },
    {
      "inputs": [
        {
          "internalType": "address",
          "name": "",
          "type": "address"
        }
      ],
      "name": "aaveBalances",
      "outputs": [
        {
          "internalType": "uint256",
          "name": "",
          "type": "uint256"
        }
      ],
      "stateMutability": "view",
      "type": "function"
    },
    {
      "inputs": [],
      "name": "aaveToken",
      "outputs": [
        {
          "internalType": "contract ERC20Mock",
          "name": "",
          "type": "address"
        }
      ],
      "stateMutability": "view",
      "type": "function"
    },
    {
      "inputs": [
        {
          "internalType": "address",
          "name": "owner",
          "type": "address"
        },
        {
          "internalType": "address",
          "name": "spender",
          "type": "address"
        },
        {
          "internalType": "uint256",
          "name": "amount",
          "type": "uint256"
        }
      ],
      "name": "adminApprove",
      "outputs": [],
      "stateMutability": "nonpayable",
      "type": "function"
    },
    {
      "inputs": [
        {
          "internalType": "address",
          "name": "owner",
          "type": "address"
        },
        {
          "internalType": "address",
          "name": "spender",
          "type": "address"
        }
      ],
      "name": "allowance",
      "outputs": [
        {
          "internalType": "uint256",
          "name": "",
          "type": "uint256"
        }
      ],
      "stateMutability": "view",
      "type": "function"
    },
    {
      "inputs": [
        {
          "internalType": "address",
          "name": "spender",
          "type": "address"
        },
        {
          "internalType": "uint256",
          "name": "amount",
          "type": "uint256"
        }
      ],
      "name": "approve",
      "outputs": [
        {
          "internalType": "bool",
          "name": "",
          "type": "bool"
        }
      ],
      "stateMutability": "nonpayable",
      "type": "function"
    },
    {
      "inputs": [
        {
          "internalType": "address",
          "name": "account",
          "type": "address"
        }
      ],
      "name": "balanceOf",
      "outputs": [
        {
          "internalType": "uint256",
          "name": "",
          "type": "uint256"
        }
      ],
      "stateMutability": "view",
      "type": "function"
    },
    {
      "inputs": [
        {
          "internalType": "address",
          "name": "sender",
          "type": "address"
        },
        {
          "internalType": "uint256",
          "name": "amount",
          "type": "uint256"
        }
      ],
      "name": "burn",
      "outputs": [],
      "stateMutability": "nonpayable",
      "type": "function"
    },
    {
      "inputs": [
        {
          "internalType": "bool",
          "name": "",
          "type": "bool"
        }
      ],
      "name": "claimRewardsToSelf",
      "outputs": [],
      "stateMutability": "nonpayable",
      "type": "function"
    },
    {
      "inputs": [],
      "name": "decimals",
      "outputs": [
        {
          "internalType": "uint8",
          "name": "",
          "type": "uint8"
        }
      ],
      "stateMutability": "pure",
      "type": "function"
    },
    {
      "inputs": [
        {
          "internalType": "address",
          "name": "spender",
          "type": "address"
        },
        {
          "internalType": "uint256",
          "name": "subtractedValue",
          "type": "uint256"
        }
      ],
      "name": "decreaseAllowance",
      "outputs": [
        {
          "internalType": "bool",
          "name": "",
          "type": "bool"
        }
      ],
      "stateMutability": "nonpayable",
      "type": "function"
    },
    {
      "inputs": [
        {
          "internalType": "address",
          "name": "user",
          "type": "address"
        }
      ],
      "name": "getClaimableRewards",
      "outputs": [
        {
          "internalType": "uint256",
          "name": "",
          "type": "uint256"
        }
      ],
      "stateMutability": "view",
      "type": "function"
    },
    {
      "inputs": [
        {
          "internalType": "address",
          "name": "spender",
          "type": "address"
        },
        {
          "internalType": "uint256",
          "name": "addedValue",
          "type": "uint256"
        }
      ],
      "name": "increaseAllowance",
      "outputs": [
        {
          "internalType": "bool",
          "name": "",
          "type": "bool"
        }
      ],
      "stateMutability": "nonpayable",
      "type": "function"
    },
    {
      "inputs": [
        {
          "internalType": "address",
          "name": "recipient",
          "type": "address"
        },
        {
          "internalType": "uint256",
          "name": "amount",
          "type": "uint256"
        }
      ],
      "name": "mint",
      "outputs": [],
      "stateMutability": "nonpayable",
      "type": "function"
    },
    {
      "inputs": [],
      "name": "name",
      "outputs": [
        {
          "internalType": "string",
          "name": "",
          "type": "string"
        }
      ],
      "stateMutability": "view",
      "type": "function"
    },
    {
      "inputs": [],
      "name": "rate",
      "outputs": [
        {
          "internalType": "uint256",
          "name": "",
          "type": "uint256"
        }
      ],
      "stateMutability": "view",
      "type": "function"
    },
    {
      "inputs": [
        {
          "internalType": "address",
          "name": "aaveToken_",
          "type": "address"
        }
      ],
      "name": "setAaveToken",
      "outputs": [],
      "stateMutability": "nonpayable",
      "type": "function"
    },
    {
      "inputs": [
        {
          "internalType": "uint192",
          "name": "fiatcoinRedemptionRate",
          "type": "uint192"
        }
      ],
      "name": "setExchangeRate",
      "outputs": [],
      "stateMutability": "nonpayable",
      "type": "function"
    },
    {
      "inputs": [
        {
          "internalType": "address",
          "name": "recipient",
          "type": "address"
        },
        {
          "internalType": "uint256",
          "name": "amount",
          "type": "uint256"
        }
      ],
      "name": "setRewards",
      "outputs": [],
      "stateMutability": "nonpayable",
      "type": "function"
    },
    {
      "inputs": [],
      "name": "symbol",
      "outputs": [
        {
          "internalType": "string",
          "name": "",
          "type": "string"
        }
      ],
      "stateMutability": "view",
      "type": "function"
    },
    {
      "inputs": [],
      "name": "totalSupply",
      "outputs": [
        {
          "internalType": "uint256",
          "name": "",
          "type": "uint256"
        }
      ],
      "stateMutability": "view",
      "type": "function"
    },
    {
      "inputs": [
        {
          "internalType": "address",
          "name": "to",
          "type": "address"
        },
        {
          "internalType": "uint256",
          "name": "amount",
          "type": "uint256"
        }
      ],
      "name": "transfer",
      "outputs": [
        {
          "internalType": "bool",
          "name": "",
          "type": "bool"
        }
      ],
      "stateMutability": "nonpayable",
      "type": "function"
    },
    {
      "inputs": [
        {
          "internalType": "address",
          "name": "from",
          "type": "address"
        },
        {
          "internalType": "address",
          "name": "to",
          "type": "address"
        },
        {
          "internalType": "uint256",
          "name": "amount",
          "type": "uint256"
        }
      ],
      "name": "transferFrom",
      "outputs": [
        {
          "internalType": "bool",
          "name": "",
          "type": "bool"
        }
      ],
      "stateMutability": "nonpayable",
      "type": "function"
    }
  ],
  "bytecode": "0x60806040523480156200001157600080fd5b50604051620024a5380380620024a58339810160408190526200003491620004c1565b8282818181600390805190602001906200005092919062000333565b5080516200006690600490602084019062000333565b50505050508282826040516200007c90620003c2565b6200008a939291906200057c565b604051809103906000f080158015620000a7573d6000803e3d6000fd5b50600580546001600160a01b0319166001600160a01b0392909216919091179055620000db670de0b6b3a7640000620000e8565b6006555062000695915050565b60006200011c6b033b2e3c9fd0803ce80000006001846001600160c01b03166200012260201b62000649179092919060201c565b92915050565b6000620001436001600160c01b03851684670de0b6b3a7640000856200014b565b949350505050565b6000806200015b86868662000213565b90506000836002811115620001745762000174620005be565b14156200018357905062000143565b60008480620001965762000196620005d4565b86880990506002846002811115620001b257620001b2620005be565b1415620001d6578015620001d057620001cd60018362000600565b91505b62000209565b6002620001e56001876200061b565b620001f1919062000635565b81111562000209576200020660018362000600565b91505b5095945050505050565b6000808062000223868662000305565b91509150838210620002485760405163f44398f560e01b815260040160405180910390fd5b600084806200025b576200025b620005d4565b86880990508181111562000270576001830392505b9081900390600085900385168086816200028e576200028e620005d4565b049550808381620002a357620002a3620005d4565b049250808160000381620002bb57620002bb620005d4565b046001019390930291909101600285810380870282030280870282030280870282030280870282030280870282030280870282030295860290039094029390930295945050505050565b60008080600019848609905083850291508181039250818110156200032b576001830392505b509250929050565b828054620003419062000658565b90600052602060002090601f016020900481019282620003655760008555620003b0565b82601f106200038057805160ff1916838001178555620003b0565b82800160010185558215620003b0579182015b82811115620003b057825182559160200191906001019062000393565b50620003be929150620003d0565b5090565b610dfa80620016ab83390190565b5b80821115620003be5760008155600101620003d1565b634e487b7160e01b600052604160045260246000fd5b60005b838110156200041a57818101518382015260200162000400565b838111156200042a576000848401525b50505050565b600082601f8301126200044257600080fd5b81516001600160401b03808211156200045f576200045f620003e7565b604051601f8301601f19908116603f011681019082821181831017156200048a576200048a620003e7565b81604052838152866020858801011115620004a457600080fd5b620004b7846020830160208901620003fd565b9695505050505050565b600080600060608486031215620004d757600080fd5b83516001600160401b0380821115620004ef57600080fd5b620004fd8783880162000430565b945060208601519150808211156200051457600080fd5b50620005238682870162000430565b604086015190935090506001600160a01b03811681146200054357600080fd5b809150509250925092565b6000815180845262000568816020860160208601620003fd565b601f01601f19169290920160200192915050565b6060815260006200059160608301866200054e565b8281036020840152620005a581866200054e565b91505060018060a01b0383166040830152949350505050565b634e487b7160e01b600052602160045260246000fd5b634e487b7160e01b600052601260045260246000fd5b634e487b7160e01b600052601160045260246000fd5b60008219821115620006165762000616620005ea565b500190565b600082821015620006305762000630620005ea565b500390565b6000826200065357634e487b7160e01b600052601260045260246000fd5b500490565b600181811c908216806200066d57607f821691505b602082108114156200068f57634e487b7160e01b600052602260045260246000fd5b50919050565b61100680620006a56000396000f3fe608060405234801561001057600080fd5b50600436106101585760003560e01c806370a08231116100c35780639dc29fac1161007c5780639dc29fac14610315578063a457c2d714610328578063a9059cbb1461033b578063baf3cf4d1461034e578063dd62ed3e1461037e578063fcd6c1911461039157600080fd5b806370a082311461027657806380c15aaa1461029f5780638fa4f083146102c957806391e3d3cb146102e957806395d89b41146102fc57806399248ea71461030457600080fd5b8063308e401e11610115578063308e401e146101f2578063313ce5671461021b578063395093511461022a57806340c10f191461023d57806345c1ace71461025257806351c0e0611461026557600080fd5b806306a3fe591461015d57806306fdde031461018d578063095ea7b3146101a257806318160ddd146101c557806323b872dd146101d75780632c4e722e146101ea575b600080fd5b600854610170906001600160a01b031681565b6040516001600160a01b0390911681526020015b60405180910390f35b6101956103a4565b6040516101849190610d8b565b6101b56101b0366004610dfc565b610436565b6040519015158152602001610184565b6002545b604051908152602001610184565b6101b56101e5366004610e26565b61044e565b6006546101c9565b6101c9610200366004610e62565b6001600160a01b031660009081526007602052604090205490565b60405160128152602001610184565b6101b5610238366004610dfc565b610472565b61025061024b366004610dfc565b610494565b005b610250610260366004610e84565b6104a2565b6005546001600160a01b0316610170565b6101c9610284366004610e62565b6001600160a01b031660009081526020819052604090205490565b6102506102ad366004610dfc565b6001600160a01b03909116600090815260076020526040902055565b6101c96102d7366004610e62565b60076020526000908152604090205481565b6102506102f7366004610ea6565b610558565b610195610567565b6008546001600160a01b0316610170565b610250610323366004610dfc565b610576565b6101b5610336366004610dfc565b610580565b6101b5610349366004610dfc565b610600565b61025061035c366004610e62565b600880546001600160a01b0319166001600160a01b0392909216919091179055565b6101c961038c366004610ecf565b61060e565b61025061039f366004610e26565b610639565b6060600380546103b390610f02565b80601f01602080910402602001604051908101604052809291908181526020018280546103df90610f02565b801561042c5780601f106104015761010080835404028352916020019161042c565b820191906000526020600020905b81548152906001019060200180831161040f57829003601f168201915b5050505050905090565b600033610444818585610670565b5060019392505050565b60003361045c858285610794565b61046785858561080e565b506001949350505050565b600033610444818585610485838361060e565b61048f9190610f53565b610670565b61049e82826109b2565b5050565b6008546001600160a01b0316158015906104ca57503360009081526007602052604090205415155b156105555760085433600081815260076020526040908190205490516340c10f1960e01b8152600481019290925260248201526001600160a01b03909116906340c10f1990604401600060405180830381600087803b15801561052c57600080fd5b505af1158015610540573d6000803e3d6000fd5b50503360009081526007602052604081205550505b50565b61056181610a71565b60065550565b6060600480546103b390610f02565b61049e8282610a9a565b6000338161058e828661060e565b9050838110156105f35760405162461bcd60e51b815260206004820152602560248201527f45524332303a2064656372656173656420616c6c6f77616e63652062656c6f77604482015264207a65726f60d81b60648201526084015b60405180910390fd5b6104678286868403610670565b60003361044481858561080e565b6001600160a01b03918216600090815260016020908152604080832093909416825291909152205490565b610644838383610670565b505050565b60006106686001600160c01b03851684670de0b6b3a764000085610bcc565b949350505050565b6001600160a01b0383166106d25760405162461bcd60e51b8152602060048201526024808201527f45524332303a20617070726f76652066726f6d20746865207a65726f206164646044820152637265737360e01b60648201526084016105ea565b6001600160a01b0382166107335760405162461bcd60e51b815260206004820152602260248201527f45524332303a20617070726f766520746f20746865207a65726f206164647265604482015261737360f01b60648201526084016105ea565b6001600160a01b0383811660008181526001602090815260408083209487168084529482529182902085905590518481527f8c5be1e5ebec7d5bd14f71427d1e84f3dd0314c0f7b2291e5b200ac8c7c3b925910160405180910390a3505050565b60006107a0848461060e565b9050600019811461080857818110156107fb5760405162461bcd60e51b815260206004820152601d60248201527f45524332303a20696e73756666696369656e7420616c6c6f77616e636500000060448201526064016105ea565b6108088484848403610670565b50505050565b6001600160a01b0383166108725760405162461bcd60e51b815260206004820152602560248201527f45524332303a207472616e736665722066726f6d20746865207a65726f206164604482015264647265737360d81b60648201526084016105ea565b6001600160a01b0382166108d45760405162461bcd60e51b815260206004820152602360248201527f45524332303a207472616e7366657220746f20746865207a65726f206164647260448201526265737360e81b60648201526084016105ea565b6001600160a01b0383166000908152602081905260409020548181101561094c5760405162461bcd60e51b815260206004820152602660248201527f45524332303a207472616e7366657220616d6f756e7420657863656564732062604482015265616c616e636560d01b60648201526084016105ea565b6001600160a01b03848116600081815260208181526040808320878703905593871680835291849020805487019055925185815290927fddf252ad1be2c89b69c2b068fc378daa952ba7f163c4a11628f55a4df523b3ef910160405180910390a3610808565b6001600160a01b038216610a085760405162461bcd60e51b815260206004820152601f60248201527f45524332303a206d696e7420746f20746865207a65726f20616464726573730060448201526064016105ea565b8060026000828254610a1a9190610f53565b90915550506001600160a01b038216600081815260208181526040808320805486019055518481527fddf252ad1be2c89b69c2b068fc378daa952ba7f163c4a11628f55a4df523b3ef910160405180910390a35050565b6000610a946001600160c01b0383166b033b2e3c9fd0803ce80000006001610649565b92915050565b6001600160a01b038216610afa5760405162461bcd60e51b815260206004820152602160248201527f45524332303a206275726e2066726f6d20746865207a65726f206164647265736044820152607360f81b60648201526084016105ea565b6001600160a01b03821660009081526020819052604090205481811015610b6e5760405162461bcd60e51b815260206004820152602260248201527f45524332303a206275726e20616d6f756e7420657863656564732062616c616e604482015261636560f01b60648201526084016105ea565b6001600160a01b0383166000818152602081815260408083208686039055600280548790039055518581529192917fddf252ad1be2c89b69c2b068fc378daa952ba7f163c4a11628f55a4df523b3ef910160405180910390a3505050565b600080610bda868686610c7b565b90506000836002811115610bf057610bf0610f6b565b1415610bfd579050610668565b60008480610c0d57610c0d610f81565b86880990506002846002811115610c2657610c26610f6b565b1415610c45578015610c4057610c3d600183610f53565b91505b610c71565b6002610c52600187610f97565b610c5c9190610fae565b811115610c7157610c6e600183610f53565b91505b5095945050505050565b6000806000610c8a8686610d5e565b91509150838210610cae5760405163f44398f560e01b815260040160405180910390fd5b60008480610cbe57610cbe610f81565b868809905081811115610cd2576001830392505b908190039060008590038516808681610ced57610ced610f81565b049550808381610cff57610cff610f81565b049250808160000381610d1457610d14610f81565b046001019390930291909101600285810380870282030280870282030280870282030280870282030280870282030280870282030295860290039094029390930295945050505050565b6000808060001984860990508385029150818103925081811015610d83576001830392505b509250929050565b600060208083528351808285015260005b81811015610db857858101830151858201604001528201610d9c565b81811115610dca576000604083870101525b50601f01601f1916929092016040019392505050565b80356001600160a01b0381168114610df757600080fd5b919050565b60008060408385031215610e0f57600080fd5b610e1883610de0565b946020939093013593505050565b600080600060608486031215610e3b57600080fd5b610e4484610de0565b9250610e5260208501610de0565b9150604084013590509250925092565b600060208284031215610e7457600080fd5b610e7d82610de0565b9392505050565b600060208284031215610e9657600080fd5b81358015158114610e7d57600080fd5b600060208284031215610eb857600080fd5b81356001600160c01b0381168114610e7d57600080fd5b60008060408385031215610ee257600080fd5b610eeb83610de0565b9150610ef960208401610de0565b90509250929050565b600181811c90821680610f1657607f821691505b60208210811415610f3757634e487b7160e01b600052602260045260246000fd5b50919050565b634e487b7160e01b600052601160045260246000fd5b60008219821115610f6657610f66610f3d565b500190565b634e487b7160e01b600052602160045260246000fd5b634e487b7160e01b600052601260045260246000fd5b600082821015610fa957610fa9610f3d565b500390565b600082610fcb57634e487b7160e01b600052601260045260246000fd5b50049056fea2646970667358221220bf3195d336e7e8ca64e27c7e62c5e4fa3c83980f2455c8d6041230531fd2868964736f6c6343000809003360806040523480156200001157600080fd5b5060405162000dfa38038062000dfa833981016040819052620000349162000208565b8282818181600390805190602001906200005092919062000095565b5080516200006690600490602084019062000095565b5050600580546001600160a01b0319166001600160a01b03959095169490941790935550620002d29350505050565b828054620000a39062000295565b90600052602060002090601f016020900481019282620000c7576000855562000112565b82601f10620000e257805160ff191683800117855562000112565b8280016001018555821562000112579182015b8281111562000112578251825591602001919060010190620000f5565b506200012092915062000124565b5090565b5b8082111562000120576000815560010162000125565b634e487b7160e01b600052604160045260246000fd5b600082601f8301126200016357600080fd5b81516001600160401b03808211156200018057620001806200013b565b604051601f8301601f19908116603f01168101908282118183101715620001ab57620001ab6200013b565b81604052838152602092508683858801011115620001c857600080fd5b600091505b83821015620001ec5785820183015181830184015290820190620001cd565b83821115620001fe5760008385830101525b9695505050505050565b6000806000606084860312156200021e57600080fd5b83516001600160401b03808211156200023657600080fd5b620002448783880162000151565b945060208601519150808211156200025b57600080fd5b506200026a8682870162000151565b604086015190935090506001600160a01b03811681146200028a57600080fd5b809150509250925092565b600181811c90821680620002aa57607f821691505b60208210811415620002cc57634e487b7160e01b600052602260045260246000fd5b50919050565b610b1880620002e26000396000f3fe608060405234801561001057600080fd5b50600436106100f55760003560e01c806370a0823111610097578063a9059cbb11610066578063a9059cbb146101ee578063b16a19de14610201578063dd62ed3e1461021c578063fcd6c1911461022f57600080fd5b806370a082311461019757806395d89b41146101c05780639dc29fac146101c8578063a457c2d7146101db57600080fd5b806323b872dd116100d357806323b872dd1461014d578063313ce56714610160578063395093511461016f57806340c10f191461018257600080fd5b806306fdde03146100fa578063095ea7b31461011857806318160ddd1461013b575b600080fd5b610102610242565b60405161010f9190610955565b60405180910390f35b61012b6101263660046109c6565b6102d4565b604051901515815260200161010f565b6002545b60405190815260200161010f565b61012b61015b3660046109f0565b6102ec565b6040516012815260200161010f565b61012b61017d3660046109c6565b610310565b6101956101903660046109c6565b610332565b005b61013f6101a5366004610a2c565b6001600160a01b031660009081526020819052604090205490565b610102610340565b6101956101d63660046109c6565b61034f565b61012b6101e93660046109c6565b610359565b61012b6101fc3660046109c6565b6103d9565b6005546040516001600160a01b03909116815260200161010f565b61013f61022a366004610a4e565b6103e7565b61019561023d3660046109f0565b610412565b60606003805461025190610a81565b80601f016020809104026020016040519081016040528092919081815260200182805461027d90610a81565b80156102ca5780601f1061029f576101008083540402835291602001916102ca565b820191906000526020600020905b8154815290600101906020018083116102ad57829003601f168201915b5050505050905090565b6000336102e2818585610422565b5060019392505050565b6000336102fa858285610546565b6103058585856105c0565b506001949350505050565b6000336102e281858561032383836103e7565b61032d9190610abc565b610422565b61033c8282610764565b5050565b60606004805461025190610a81565b61033c8282610823565b6000338161036782866103e7565b9050838110156103cc5760405162461bcd60e51b815260206004820152602560248201527f45524332303a2064656372656173656420616c6c6f77616e63652062656c6f77604482015264207a65726f60d81b60648201526084015b60405180910390fd5b6103058286868403610422565b6000336102e28185856105c0565b6001600160a01b03918216600090815260016020908152604080832093909416825291909152205490565b61041d838383610422565b505050565b6001600160a01b0383166104845760405162461bcd60e51b8152602060048201526024808201527f45524332303a20617070726f76652066726f6d20746865207a65726f206164646044820152637265737360e01b60648201526084016103c3565b6001600160a01b0382166104e55760405162461bcd60e51b815260206004820152602260248201527f45524332303a20617070726f766520746f20746865207a65726f206164647265604482015261737360f01b60648201526084016103c3565b6001600160a01b0383811660008181526001602090815260408083209487168084529482529182902085905590518481527f8c5be1e5ebec7d5bd14f71427d1e84f3dd0314c0f7b2291e5b200ac8c7c3b925910160405180910390a3505050565b600061055284846103e7565b905060001981146105ba57818110156105ad5760405162461bcd60e51b815260206004820152601d60248201527f45524332303a20696e73756666696369656e7420616c6c6f77616e636500000060448201526064016103c3565b6105ba8484848403610422565b50505050565b6001600160a01b0383166106245760405162461bcd60e51b815260206004820152602560248201527f45524332303a207472616e736665722066726f6d20746865207a65726f206164604482015264647265737360d81b60648201526084016103c3565b6001600160a01b0382166106865760405162461bcd60e51b815260206004820152602360248201527f45524332303a207472616e7366657220746f20746865207a65726f206164647260448201526265737360e81b60648201526084016103c3565b6001600160a01b038316600090815260208190526040902054818110156106fe5760405162461bcd60e51b815260206004820152602660248201527f45524332303a207472616e7366657220616d6f756e7420657863656564732062604482015265616c616e636560d01b60648201526084016103c3565b6001600160a01b03848116600081815260208181526040808320878703905593871680835291849020805487019055925185815290927fddf252ad1be2c89b69c2b068fc378daa952ba7f163c4a11628f55a4df523b3ef910160405180910390a36105ba565b6001600160a01b0382166107ba5760405162461bcd60e51b815260206004820152601f60248201527f45524332303a206d696e7420746f20746865207a65726f20616464726573730060448201526064016103c3565b80600260008282546107cc9190610abc565b90915550506001600160a01b038216600081815260208181526040808320805486019055518481527fddf252ad1be2c89b69c2b068fc378daa952ba7f163c4a11628f55a4df523b3ef910160405180910390a35050565b6001600160a01b0382166108835760405162461bcd60e51b815260206004820152602160248201527f45524332303a206275726e2066726f6d20746865207a65726f206164647265736044820152607360f81b60648201526084016103c3565b6001600160a01b038216600090815260208190526040902054818110156108f75760405162461bcd60e51b815260206004820152602260248201527f45524332303a206275726e20616d6f756e7420657863656564732062616c616e604482015261636560f01b60648201526084016103c3565b6001600160a01b0383166000818152602081815260408083208686039055600280548790039055518581529192917fddf252ad1be2c89b69c2b068fc378daa952ba7f163c4a11628f55a4df523b3ef910160405180910390a3505050565b600060208083528351808285015260005b8181101561098257858101830151858201604001528201610966565b81811115610994576000604083870101525b50601f01601f1916929092016040019392505050565b80356001600160a01b03811681146109c157600080fd5b919050565b600080604083850312156109d957600080fd5b6109e2836109aa565b946020939093013593505050565b600080600060608486031215610a0557600080fd5b610a0e846109aa565b9250610a1c602085016109aa565b9150604084013590509250925092565b600060208284031215610a3e57600080fd5b610a47826109aa565b9392505050565b60008060408385031215610a6157600080fd5b610a6a836109aa565b9150610a78602084016109aa565b90509250929050565b600181811c90821680610a9557607f821691505b60208210811415610ab657634e487b7160e01b600052602260045260246000fd5b50919050565b60008219821115610add57634e487b7160e01b600052601160045260246000fd5b50019056fea2646970667358221220ddd1949916ad3642b5c6409d10581a12a1d4b9e490dd0b8d74cffae48371b4f364736f6c63430008090033",
  "linkReferences": {},
  "deployedLinkReferences": {}
}