{
  "_format": "hh-sol-artifact-1",
  "contractName": "FurnaceP1V2",
  "sourceName": "contracts/reserve/plugins/mocks/upgrades/FurnaceV2.sol",
  "abi": [
    {
      "inputs": [],
      "name": "UIntOutOfBounds",
      "type": "error"
    },
    {
      "anonymous": false,
      "inputs": [
        {
          "indexed": false,
          "internalType": "address",
          "name": "previousAdmin",
          "type": "address"
        },
        {
          "indexed": false,
          "internalType": "address",
          "name": "newAdmin",
          "type": "address"
        }
      ],
      "name": "AdminChanged",
      "type": "event"
    },
    {
      "anonymous": false,
      "inputs": [
        {
          "indexed": true,
          "internalType": "address",
          "name": "beacon",
          "type": "address"
        }
      ],
      "name": "BeaconUpgraded",
      "type": "event"
    },
    {
      "anonymous": false,
      "inputs": [
        {
          "indexed": false,
          "internalType": "uint8",
          "name": "version",
          "type": "uint8"
        }
      ],
      "name": "Initialized",
      "type": "event"
    },
    {
      "anonymous": false,
      "inputs": [
        {
          "indexed": true,
          "internalType": "uint48",
          "name": "oldPeriod",
          "type": "uint48"
        },
        {
          "indexed": true,
          "internalType": "uint48",
          "name": "newPeriod",
          "type": "uint48"
        }
      ],
      "name": "PeriodSet",
      "type": "event"
    },
    {
      "anonymous": false,
      "inputs": [
        {
          "indexed": true,
          "internalType": "uint192",
          "name": "oldRatio",
          "type": "uint192"
        },
        {
          "indexed": true,
          "internalType": "uint192",
          "name": "newRatio",
          "type": "uint192"
        }
      ],
      "name": "RatioSet",
      "type": "event"
    },
    {
      "anonymous": false,
      "inputs": [
        {
          "indexed": true,
          "internalType": "address",
          "name": "implementation",
          "type": "address"
        }
      ],
      "name": "Upgraded",
      "type": "event"
    },
    {
      "inputs": [],
      "name": "MAX_PERIOD",
      "outputs": [
        {
          "internalType": "uint48",
          "name": "",
          "type": "uint48"
        }
      ],
      "stateMutability": "view",
      "type": "function"
    },
    {
      "inputs": [],
      "name": "MAX_RATIO",
      "outputs": [
        {
          "internalType": "uint192",
          "name": "",
          "type": "uint192"
        }
      ],
      "stateMutability": "view",
      "type": "function"
    },
    {
      "inputs": [
        {
          "internalType": "contract IMain",
          "name": "main_",
          "type": "address"
        },
        {
          "internalType": "uint48",
          "name": "period_",
          "type": "uint48"
        },
        {
          "internalType": "uint192",
          "name": "ratio_",
          "type": "uint192"
        }
      ],
      "name": "init",
      "outputs": [],
      "stateMutability": "nonpayable",
      "type": "function"
    },
    {
      "inputs": [],
      "name": "lastPayout",
      "outputs": [
        {
          "internalType": "uint48",
          "name": "",
          "type": "uint48"
        }
      ],
      "stateMutability": "view",
      "type": "function"
    },
    {
      "inputs": [],
      "name": "lastPayoutBal",
      "outputs": [
        {
          "internalType": "uint256",
          "name": "",
          "type": "uint256"
        }
      ],
      "stateMutability": "view",
      "type": "function"
    },
    {
      "inputs": [],
      "name": "main",
      "outputs": [
        {
          "internalType": "contract IMain",
          "name": "",
          "type": "address"
        }
      ],
      "stateMutability": "view",
      "type": "function"
    },
    {
      "inputs": [],
      "name": "melt",
      "outputs": [],
      "stateMutability": "nonpayable",
      "type": "function"
    },
    {
      "inputs": [],
      "name": "newValue",
      "outputs": [
        {
          "internalType": "uint256",
          "name": "",
          "type": "uint256"
        }
      ],
      "stateMutability": "view",
      "type": "function"
    },
    {
      "inputs": [],
      "name": "period",
      "outputs": [
        {
          "internalType": "uint48",
          "name": "",
          "type": "uint48"
        }
      ],
      "stateMutability": "view",
      "type": "function"
    },
    {
      "inputs": [],
      "name": "proxiableUUID",
      "outputs": [
        {
          "internalType": "bytes32",
          "name": "",
          "type": "bytes32"
        }
      ],
      "stateMutability": "view",
      "type": "function"
    },
    {
      "inputs": [],
      "name": "ratio",
      "outputs": [
        {
          "internalType": "uint192",
          "name": "",
          "type": "uint192"
        }
      ],
      "stateMutability": "view",
      "type": "function"
    },
    {
      "inputs": [
        {
          "internalType": "uint256",
          "name": "newValue_",
          "type": "uint256"
        }
      ],
      "name": "setNewValue",
      "outputs": [],
      "stateMutability": "nonpayable",
      "type": "function"
    },
    {
      "inputs": [
        {
          "internalType": "uint48",
          "name": "period_",
          "type": "uint48"
        }
      ],
      "name": "setPeriod",
      "outputs": [],
      "stateMutability": "nonpayable",
      "type": "function"
    },
    {
      "inputs": [
        {
          "internalType": "uint192",
          "name": "ratio_",
          "type": "uint192"
        }
      ],
      "name": "setRatio",
      "outputs": [],
      "stateMutability": "nonpayable",
      "type": "function"
    },
    {
      "inputs": [
        {
          "internalType": "address",
          "name": "newImplementation",
          "type": "address"
        }
      ],
      "name": "upgradeTo",
      "outputs": [],
      "stateMutability": "nonpayable",
      "type": "function"
    },
    {
      "inputs": [
        {
          "internalType": "address",
          "name": "newImplementation",
          "type": "address"
        },
        {
          "internalType": "bytes",
          "name": "data",
          "type": "bytes"
        }
      ],
      "name": "upgradeToAndCall",
      "outputs": [],
      "stateMutability": "payable",
      "type": "function"
    },
    {
      "inputs": [],
      "name": "version",
      "outputs": [
        {
          "internalType": "string",
          "name": "",
          "type": "string"
        }
      ],
      "stateMutability": "pure",
      "type": "function"
    }
  ],
  "bytecode": "0x60a0604052306080523480156200001557600080fd5b50600054610100900460ff1615808015620000375750600054600160ff909116105b8062000067575062000054306200014160201b62000f131760201c565b15801562000067575060005460ff166001145b620000cf5760405162461bcd60e51b815260206004820152602e60248201527f496e697469616c697a61626c653a20636f6e747261637420697320616c72656160448201526d191e481a5b9a5d1a585b1a5e995960921b606482015260840160405180910390fd5b6000805460ff191660011790558015620000f3576000805461ff0019166101001790555b80156200013a576000805461ff0019169055604051600181527f7f26b83ff96e1f2b6a682f133852f6798a09c465da95921460cefb38474024989060200160405180910390a15b5062000150565b6001600160a01b03163b151590565b608051611d27620001886000396000818161050801528181610548015281816105e8015281816106280152610b3a0152611d276000f3fe6080604052600436106100fe5760003560e01c8063630eb8ab11610095578063951c407711610064578063951c407714610289578063b9db102a146102a9578063c810b7fe146102df578063dffeadd0146102f7578063ef78d4fd1461032f57600080fd5b8063630eb8ab146101ff57806371ca337d146102335780637c65452c1461025357806391163fec1461026957600080fd5b80634f533b23116100d15780634f533b23146101815780635220f510146101a157806352d1902d146101b657806354fd4d50146101cb57600080fd5b80632212965c146101035780632b8869fb1461012c5780633659cfe61461014e5780634f1ef2861461016e575b600080fd5b34801561010f57600080fd5b5061011960ca5481565b6040519081526020015b60405180910390f35b34801561013857600080fd5b5061014c61014736600461177d565b610355565b005b34801561015a57600080fd5b5061014c6101693660046117ad565b6104fd565b61014c61017c3660046117e0565b6105dd565b34801561018d57600080fd5b5061014c61019c3660046118bb565b6106ae565b3480156101ad57600080fd5b5061014c61082f565b3480156101c257600080fd5b50610119610b2d565b3480156101d757600080fd5b5060408051808201825260058152640322e302e360dc1b602082015290516101239190611902565b34801561020b57600080fd5b5061021b670de0b6b3a764000081565b6040516001600160c01b039091168152602001610123565b34801561023f57600080fd5b5060c95461021b906001600160c01b031681565b34801561025f57600080fd5b5061011960fb5481565b34801561027557600080fd5b5061014c610284366004611935565b610be0565b34801561029557600080fd5b5061014c6102a436600461197a565b610e3a565b3480156102b557600080fd5b5060cb546102c89065ffffffffffff1681565b60405165ffffffffffff9091168152602001610123565b3480156102eb57600080fd5b506102c86301e1338081565b34801561030357600080fd5b50609754610317906001600160a01b031681565b6040516001600160a01b039091168152602001610123565b34801561033b57600080fd5b5060c9546102c890600160c01b900465ffffffffffff1681565b60975460408051808201909152600581526427aba722a960d91b60208201526001600160a01b03909116906391d148549061038f90611993565b336040516001600160e01b031960e085901b16815260048101929092526001600160a01b0316602482015260440160206040518083038186803b1580156103d557600080fd5b505afa1580156103e9573d6000803e3d6000fd5b505050506040513d601f19601f8201168201806040525081019061040d91906119ba565b6104325760405162461bcd60e51b8152600401610429906119dc565b60405180910390fd5b60008165ffffffffffff1611801561045657506301e1338065ffffffffffff821611155b6104935760405162461bcd60e51b815260206004820152600e60248201526d1a5b9d985b1a59081c195c9a5bd960921b6044820152606401610429565b60c95460405165ffffffffffff80841692600160c01b900416907fbe247d2a99b68d117449399fce980543968aadb8ebfc20d43fed0b4a9529dc7b90600090a360c9805465ffffffffffff909216600160c01b0265ffffffffffff60c01b19909216919091179055565b306001600160a01b037f00000000000000000000000000000000000000000000000000000000000000001614156105465760405162461bcd60e51b815260040161042990611a05565b7f00000000000000000000000000000000000000000000000000000000000000006001600160a01b031661058f600080516020611cab833981519152546001600160a01b031690565b6001600160a01b0316146105b55760405162461bcd60e51b815260040161042990611a51565b6105be81610f22565b604080516000808252602082019092526105da91839190610ff6565b50565b306001600160a01b037f00000000000000000000000000000000000000000000000000000000000000001614156106265760405162461bcd60e51b815260040161042990611a05565b7f00000000000000000000000000000000000000000000000000000000000000006001600160a01b031661066f600080516020611cab833981519152546001600160a01b031690565b6001600160a01b0316146106955760405162461bcd60e51b815260040161042990611a51565b61069e82610f22565b6106aa82826001610ff6565b5050565b60975460408051808201909152600581526427aba722a960d91b60208201526001600160a01b03909116906391d14854906106e890611993565b336040516001600160e01b031960e085901b16815260048101929092526001600160a01b0316602482015260440160206040518083038186803b15801561072e57600080fd5b505afa158015610742573d6000803e3d6000fd5b505050506040513d601f19601f8201168201806040525081019061076691906119ba565b6107825760405162461bcd60e51b8152600401610429906119dc565b670de0b6b3a76400006001600160c01b03821611156107d35760405162461bcd60e51b815260206004820152600d60248201526c696e76616c696420726174696f60981b6044820152606401610429565b60c9546040516001600160c01b038084169216907fe4370d9c0bc402ac3265a919b985d9e114b75512ced35b436883c18c84284ccb90600090a360c980546001600160c01b0319166001600160c01b0392909216919091179055565b609760009054906101000a90046001600160a01b03166001600160a01b031663f17063756040518163ffffffff1660e01b815260040160206040518083038186803b15801561087d57600080fd5b505afa158015610891573d6000803e3d6000fd5b505050506040513d601f19601f820116820180604052508101906108b591906119ba565b156108f55760405162461bcd60e51b815260206004820152601060248201526f3830bab9b2b21037b910333937bd32b760811b6044820152606401610429565b60c95460cb546109179165ffffffffffff600160c01b90910481169116611ab3565b67ffffffffffffffff164265ffffffffffff16101561093257565b60c95460cb5460009165ffffffffffff600160c01b909104811691610958911642611adf565b6109629190611b0c565b60c9549091506000906109af906109a090849061099190670de0b6b3a7640000906001600160c01b0316611175565b6001600160c01b03169061118a565b670de0b6b3a764000090611175565b905060006109d160ca54836001600160c01b031661130b90919063ffffffff16565b60c9549091506109f090600160c01b900465ffffffffffff1684611b31565b60cb8054600090610a0a90849065ffffffffffff16611b5f565b825465ffffffffffff9182166101009390930a92830291909202199091161790555060cb546040516370a0823160e01b815230600482015282916001600160a01b03600160301b90910416906370a082319060240160206040518083038186803b158015610a7757600080fd5b505afa158015610a8b573d6000803e3d6000fd5b505050506040513d601f19601f82011682018060405250810190610aaf9190611b80565b610ab99190611adf565b60ca558015610b275760cb54604051638c83ed3360e01b815260048101839052600160301b9091046001600160a01b031690638c83ed3390602401600060405180830381600087803b158015610b0e57600080fd5b505af1158015610b22573d6000803e3d6000fd5b505050505b5050505b565b6000306001600160a01b037f00000000000000000000000000000000000000000000000000000000000000001614610bcd5760405162461bcd60e51b815260206004820152603860248201527f555550535570677261646561626c653a206d757374206e6f742062652063616c60448201527f6c6564207468726f7567682064656c656761746563616c6c00000000000000006064820152608401610429565b50600080516020611cab83398151915290565b600054610100900460ff1615808015610c005750600054600160ff909116105b80610c1a5750303b158015610c1a575060005460ff166001145b610c7d5760405162461bcd60e51b815260206004820152602e60248201527f496e697469616c697a61626c653a20636f6e747261637420697320616c72656160448201526d191e481a5b9a5d1a585b1a5e995960921b6064820152608401610429565b6000805460ff191660011790558015610ca0576000805461ff0019166101001790555b610ca984611329565b836001600160a01b03166340c65f726040518163ffffffff1660e01b815260040160206040518083038186803b158015610ce257600080fd5b505afa158015610cf6573d6000803e3d6000fd5b505050506040513d601f19601f82011682018060405250810190610d1a9190611b99565b60cb60066101000a8154816001600160a01b0302191690836001600160a01b03160217905550610d4983610355565b610d52826106ae565b60cb805465ffffffffffff19164265ffffffffffff1617908190556040516370a0823160e01b8152306004820152600160301b9091046001600160a01b0316906370a082319060240160206040518083038186803b158015610db357600080fd5b505afa158015610dc7573d6000803e3d6000fd5b505050506040513d601f19601f82011682018060405250810190610deb9190611b80565b60ca558015610e34576000805461ff0019169055604051600181527f7f26b83ff96e1f2b6a682f133852f6798a09c465da95921460cefb38474024989060200160405180910390a15b50505050565b60975460408051808201909152600581526427aba722a960d91b60208201526001600160a01b03909116906391d1485490610e7490611993565b336040516001600160e01b031960e085901b16815260048101929092526001600160a01b0316602482015260440160206040518083038186803b158015610eba57600080fd5b505afa158015610ece573d6000803e3d6000fd5b505050506040513d601f19601f82011682018060405250810190610ef291906119ba565b610f0e5760405162461bcd60e51b8152600401610429906119dc565b60fb55565b6001600160a01b03163b151590565b60975460408051808201909152600581526427aba722a960d91b60208201526001600160a01b03909116906391d1485490610f5c90611993565b336040516001600160e01b031960e085901b16815260048101929092526001600160a01b0316602482015260440160206040518083038186803b158015610fa257600080fd5b505afa158015610fb6573d6000803e3d6000fd5b505050506040513d601f19601f82011682018060405250810190610fda91906119ba565b6105da5760405162461bcd60e51b8152600401610429906119dc565b7f4910fdfa16fed3260ed0e7147f7cc6da11a60208b5b9406d12a635614ffd91435460ff161561102e57611029836113c7565b610b27565b826001600160a01b03166352d1902d6040518163ffffffff1660e01b815260040160206040518083038186803b15801561106757600080fd5b505afa925050508015611097575060408051601f3d908101601f1916820190925261109491810190611b80565b60015b6110fa5760405162461bcd60e51b815260206004820152602e60248201527f45524331393637557067726164653a206e657720696d706c656d656e7461746960448201526d6f6e206973206e6f74205555505360901b6064820152608401610429565b600080516020611cab83398151915281146111695760405162461bcd60e51b815260206004820152602960248201527f45524331393637557067726164653a20756e737570706f727465642070726f786044820152681a58589b195555525160ba1b6064820152608401610429565b50610b27838383611463565b60006111818284611bb6565b90505b92915050565b6000670de0b6b3a76400006001600160c01b03841611156111aa57600080fd5b8165ffffffffffff16600114156111c2575081611184565b6001600160c01b038316670de0b6b3a764000014806111e7575065ffffffffffff8216155b156111fb5750670de0b6b3a7640000611184565b6000611218670de0b6b3a76400006001600160c01b038616611bde565b90506ec097ce7bc90715b34b9f10000000005b6001808516141561127b576ec097ce7bc90715b34b9f1000000000611251600282611bfd565b6001600160801b03166112648484611bde565b61126e9190611c17565b6112789190611c2f565b90505b60018465ffffffffffff1611611290576112e8565b60019390931c657fffffffffff16926ec097ce7bc90715b34b9f10000000006112ba600282611bfd565b6001600160801b03166112cd8480611bde565b6112d79190611c17565b6112e19190611c2f565b915061122b565b6113026112fd670de0b6b3a764000083611c2f565b611488565b95945050505050565b60006111816001600160c01b03841683670de0b6b3a76400006114b6565b600054610100900460ff166113505760405162461bcd60e51b815260040161042990611c43565b6001600160a01b03811661139d5760405162461bcd60e51b81526020600482015260146024820152736d61696e206973207a65726f206164647265737360601b6044820152606401610429565b6113a5611599565b609780546001600160a01b0319166001600160a01b0392909216919091179055565b6001600160a01b0381163b6114345760405162461bcd60e51b815260206004820152602d60248201527f455243313936373a206e657720696d706c656d656e746174696f6e206973206e60448201526c1bdd08184818dbdb9d1c9858dd609a1b6064820152608401610429565b600080516020611cab83398151915280546001600160a01b0319166001600160a01b0392909216919091179055565b61146c836115c0565b6000825111806114795750805b15610b2757610e348383611600565b60006001600160c01b038211156114b25760405163f44398f560e01b815260040160405180910390fd5b5090565b60008060006114c586866116eb565b915091508382106114e95760405163f44398f560e01b815260040160405180910390fd5b600084806114f9576114f9611af6565b86880990508181111561150d576001830392505b90819003906000859003851680868161152857611528611af6565b04955080838161153a5761153a611af6565b04925080816000038161154f5761154f611af6565b046001019390930291909101600285810380870282030280870282030280870282030280870282030280870282030280870282030295860290039094029390930295945050505050565b600054610100900460ff16610b2b5760405162461bcd60e51b815260040161042990611c43565b6115c9816113c7565b6040516001600160a01b038216907fbc7cd75a20ee27fd9adebab32041f755214dbc6bffa90cc0225b39da2e5c2d3b90600090a250565b60606001600160a01b0383163b6116685760405162461bcd60e51b815260206004820152602660248201527f416464726573733a2064656c65676174652063616c6c20746f206e6f6e2d636f6044820152651b9d1c9858dd60d21b6064820152608401610429565b600080846001600160a01b0316846040516116839190611c8e565b600060405180830381855af49150503d80600081146116be576040519150601f19603f3d011682016040523d82523d6000602084013e6116c3565b606091505b50915091506113028282604051806060016040528060278152602001611ccb60279139611718565b6000808060001984860990508385029150818103925081811015611710576001830392505b509250929050565b60608315611727575081611731565b6117318383611738565b9392505050565b8151156117485781518083602001fd5b8060405162461bcd60e51b81526004016104299190611902565b803565ffffffffffff8116811461177857600080fd5b919050565b60006020828403121561178f57600080fd5b61118182611762565b6001600160a01b03811681146105da57600080fd5b6000602082840312156117bf57600080fd5b813561173181611798565b634e487b7160e01b600052604160045260246000fd5b600080604083850312156117f357600080fd5b82356117fe81611798565b9150602083013567ffffffffffffffff8082111561181b57600080fd5b818501915085601f83011261182f57600080fd5b813581811115611841576118416117ca565b604051601f8201601f19908116603f01168101908382118183101715611869576118696117ca565b8160405282815288602084870101111561188257600080fd5b8260208601602083013760006020848301015280955050505050509250929050565b80356001600160c01b038116811461177857600080fd5b6000602082840312156118cd57600080fd5b611181826118a4565b60005b838110156118f15781810151838201526020016118d9565b83811115610e345750506000910152565b60208152600082518060208401526119218160408501602087016118d6565b601f01601f19169190910160400192915050565b60008060006060848603121561194a57600080fd5b833561195581611798565b925061196360208501611762565b9150611971604085016118a4565b90509250925092565b60006020828403121561198c57600080fd5b5035919050565b805160208083015191908110156119b4576000198160200360031b1b821691505b50919050565b6000602082840312156119cc57600080fd5b8151801515811461173157600080fd5b6020808252600f908201526e676f7665726e616e6365206f6e6c7960881b604082015260600190565b6020808252602c908201527f46756e6374696f6e206d7573742062652063616c6c6564207468726f7567682060408201526b19195b1959d85d1958d85b1b60a21b606082015260800190565b6020808252602c908201527f46756e6374696f6e206d7573742062652063616c6c6564207468726f7567682060408201526b6163746976652070726f787960a01b606082015260800190565b634e487b7160e01b600052601160045260246000fd5b600067ffffffffffffffff808316818516808303821115611ad657611ad6611a9d565b01949350505050565b600082821015611af157611af1611a9d565b500390565b634e487b7160e01b600052601260045260246000fd5b600065ffffffffffff80841680611b2557611b25611af6565b92169190910492915050565b600065ffffffffffff80831681851681830481118215151615611b5657611b56611a9d565b02949350505050565b600065ffffffffffff808316818516808303821115611ad657611ad6611a9d565b600060208284031215611b9257600080fd5b5051919050565b600060208284031215611bab57600080fd5b815161173181611798565b60006001600160c01b0383811690831681811015611bd657611bd6611a9d565b039392505050565b6000816000190483118215151615611bf857611bf8611a9d565b500290565b60006001600160801b0380841680611b2557611b25611af6565b60008219821115611c2a57611c2a611a9d565b500190565b600082611c3e57611c3e611af6565b500490565b6020808252602b908201527f496e697469616c697a61626c653a20636f6e7472616374206973206e6f74206960408201526a6e697469616c697a696e6760a81b606082015260800190565b60008251611ca08184602087016118d6565b919091019291505056fe360894a13ba1a3210667c828492db98dca3e2076cc3735a920a3ca505d382bbc416464726573733a206c6f772d6c6576656c2064656c65676174652063616c6c206661696c6564a26469706673582212203d97444e0c5e5171b1c42423ceea89edbd498aa3eaadf8dcd4e648ecfc6e149c64736f6c63430008090033",
  "linkReferences": {},
  "deployedLinkReferences": {}
}