{
  "_format": "hh-sol-artifact-1",
  "contractName": "ComptrollerMock",
  "sourceName": "contracts/reserve/plugins/mocks/ComptrollerMock.sol",
  "abi": [
    {
      "inputs": [],
      "stateMutability": "nonpayable",
      "type": "constructor"
    },
    {
      "inputs": [
        {
          "internalType": "address",
          "name": "holder",
          "type": "address"
        }
      ],
      "name": "claimComp",
      "outputs": [],
      "stateMutability": "nonpayable",
      "type": "function"
    },
    {
      "inputs": [
        {
          "internalType": "address",
          "name": "",
          "type": "address"
        }
      ],
      "name": "compBalances",
      "outputs": [
        {
          "internalType": "uint256",
          "name": "",
          "type": "uint256"
        }
      ],
      "stateMutability": "view",
      "type": "function"
    },
    {
      "inputs": [],
      "name": "compToken",
      "outputs": [
        {
          "internalType": "contract ERC20Mock",
          "name": "",
          "type": "address"
        }
      ],
      "stateMutability": "view",
      "type": "function"
    },
    {
      "inputs": [],
      "name": "getCompAddress",
      "outputs": [
        {
          "internalType": "address",
          "name": "",
          "type": "address"
        }
      ],
      "stateMutability": "view",
      "type": "function"
    },
    {
      "inputs": [
        {
          "internalType": "address",
          "name": "compToken_",
          "type": "address"
        }
      ],
      "name": "setCompToken",
      "outputs": [],
      "stateMutability": "nonpayable",
      "type": "function"
    },
    {
      "inputs": [
        {
          "internalType": "address",
          "name": "recipient",
          "type": "address"
        },
        {
          "internalType": "uint256",
          "name": "amount",
          "type": "uint256"
        }
      ],
      "name": "setRewards",
      "outputs": [],
      "stateMutability": "nonpayable",
      "type": "function"
    }
  ],
  "bytecode": "0x608060405234801561001057600080fd5b50610270806100206000396000f3fe608060405234801561001057600080fd5b50600436106100625760003560e01c806302730aa814610067578063044509831461009a5780636605dfa7146100cc57806380c15aaa146100f75780639d1b5a0a14610121578063e9af029214610132575b600080fd5b6100876100753660046101ee565b60006020819052908152604090205481565b6040519081526020015b60405180910390f35b6100ca6100a83660046101ee565b600180546001600160a01b0319166001600160a01b0392909216919091179055565b005b6001546100df906001600160a01b031681565b6040516001600160a01b039091168152602001610091565b6100ca610105366004610210565b6001600160a01b03909116600090815260208190526040902055565b6001546001600160a01b03166100df565b6100ca6101403660046101ee565b6001546001600160a01b0316156101cf576001600160a01b03818116600081815260208190526040808220805492905560015490516340c10f1960e01b8152600481019390935260248301829052909216906340c10f1990604401600060405180830381600087803b1580156101b557600080fd5b505af11580156101c9573d6000803e3d6000fd5b50505050505b50565b80356001600160a01b03811681146101e957600080fd5b919050565b60006020828403121561020057600080fd5b610209826101d2565b9392505050565b6000806040838503121561022357600080fd5b61022c836101d2565b94602093909301359350505056fea2646970667358221220852a81b2620bea810ec55cfcb7039df69d63cdf7b95dcd1712158cb02d17dcbe64736f6c63430008090033",
  "linkReferences": {},
  "deployedLinkReferences": {}
}