{
  "_format": "hh-sol-artifact-1",
  "contractName": "InvalidBrokerMock",
  "sourceName": "contracts/reserve/plugins/mocks/InvalidBrokerMock.sol",
  "abi": [
    {
      "anonymous": false,
      "inputs": [
        {
          "indexed": true,
          "internalType": "uint48",
          "name": "oldVal",
          "type": "uint48"
        },
        {
          "indexed": true,
          "internalType": "uint48",
          "name": "newVal",
          "type": "uint48"
        }
      ],
      "name": "AuctionLengthSet",
      "type": "event"
    },
    {
      "anonymous": false,
      "inputs": [
        {
          "indexed": true,
          "internalType": "bool",
          "name": "prevVal",
          "type": "bool"
        },
        {
          "indexed": true,
          "internalType": "bool",
          "name": "newVal",
          "type": "bool"
        }
      ],
      "name": "DisabledSet",
      "type": "event"
    },
    {
      "anonymous": false,
      "inputs": [
        {
          "indexed": false,
          "internalType": "uint8",
          "name": "version",
          "type": "uint8"
        }
      ],
      "name": "Initialized",
      "type": "event"
    },
    {
      "inputs": [],
      "name": "auctionLength",
      "outputs": [
        {
          "internalType": "uint48",
          "name": "",
          "type": "uint48"
        }
      ],
      "stateMutability": "view",
      "type": "function"
    },
    {
      "inputs": [],
      "name": "disabled",
      "outputs": [
        {
          "internalType": "bool",
          "name": "",
          "type": "bool"
        }
      ],
      "stateMutability": "view",
      "type": "function"
    },
    {
      "inputs": [],
      "name": "gnosis",
      "outputs": [
        {
          "internalType": "contract IGnosis",
          "name": "",
          "type": "address"
        }
      ],
      "stateMutability": "view",
      "type": "function"
    },
    {
      "inputs": [
        {
          "internalType": "contract IMain",
          "name": "main_",
          "type": "address"
        },
        {
          "internalType": "contract IGnosis",
          "name": "gnosis_",
          "type": "address"
        },
        {
          "internalType": "contract ITrade",
          "name": "",
          "type": "address"
        },
        {
          "internalType": "uint48",
          "name": "auctionLength_",
          "type": "uint48"
        }
      ],
      "name": "init",
      "outputs": [],
      "stateMutability": "nonpayable",
      "type": "function"
    },
    {
      "inputs": [],
      "name": "main",
      "outputs": [
        {
          "internalType": "contract IMain",
          "name": "",
          "type": "address"
        }
      ],
      "stateMutability": "view",
      "type": "function"
    },
    {
      "inputs": [
        {
          "components": [
            {
              "internalType": "contract IAsset",
              "name": "sell",
              "type": "address"
            },
            {
              "internalType": "contract IAsset",
              "name": "buy",
              "type": "address"
            },
            {
              "internalType": "uint256",
              "name": "sellAmount",
              "type": "uint256"
            },
            {
              "internalType": "uint256",
              "name": "minBuyAmount",
              "type": "uint256"
            }
          ],
          "internalType": "struct TradeRequest",
          "name": "req",
          "type": "tuple"
        }
      ],
      "name": "openTrade",
      "outputs": [
        {
          "internalType": "contract ITrade",
          "name": "",
          "type": "address"
        }
      ],
      "stateMutability": "view",
      "type": "function"
    },
    {
      "inputs": [],
      "name": "reportViolation",
      "outputs": [],
      "stateMutability": "nonpayable",
      "type": "function"
    },
    {
      "inputs": [
        {
          "internalType": "uint48",
          "name": "newAuctionLength",
          "type": "uint48"
        }
      ],
      "name": "setAuctionLength",
      "outputs": [],
      "stateMutability": "nonpayable",
      "type": "function"
    },
    {
      "inputs": [
        {
          "internalType": "bool",
          "name": "disabled_",
          "type": "bool"
        }
      ],
      "name": "setDisabled",
      "outputs": [],
      "stateMutability": "nonpayable",
      "type": "function"
    },
    {
      "inputs": [],
      "name": "version",
      "outputs": [
        {
          "internalType": "string",
          "name": "",
          "type": "string"
        }
      ],
      "stateMutability": "pure",
      "type": "function"
    }
  ],
  "bytecode": "0x60806040526036805460ff60301b1916905534801561001d57600080fd5b5061083d8061002d6000396000f3fe608060405234801561001057600080fd5b506004361061009e5760003560e01c80636c5a7d1e116100665780636c5a7d1e1461014b57806393574b1e14610149578063af1ebc241461015e578063dffeadd01461016c578063ee0708051461017f57600080fd5b8063238c8aad146100a3578063325c25a2146100d3578063542d5e29146100fc57806354fd4d501461010f578063642606a714610136575b600080fd5b6034546100b6906001600160a01b031681565b6040516001600160a01b0390911681526020015b60405180910390f35b6036546100e59065ffffffffffff1681565b60405165ffffffffffff90911681526020016100ca565b6100b661010a366004610629565b6101a6565b60408051808201825260058152640312e322e360dc1b602082015290516100ca91906106ac565b61014961014436600461071c565b6102f7565b005b610149610159366004610784565b610441565b6101496101593660046107a8565b6033546100b6906001600160a01b031681565b603654610196906601000000000000900460ff1681565b60405190151581526020016100ca565b6033546040805163f170637560e01b815290516000926001600160a01b03169163f1706375916004808301926020929190829003018186803b1580156101eb57600080fd5b505afa1580156101ff573d6000803e3d6000fd5b505050506040513d601f19601f8201168201806040525081019061022391906107c3565b156102685760405162461bcd60e51b815260206004820152601060248201526f3830bab9b2b21037b910333937bd32b760811b60448201526064015b60405180910390fd5b6036546601000000000000900460ff16156102b75760405162461bcd60e51b815260206004820152600f60248201526e189c9bdad95c88191a5cd8589b1959608a1b604482015260640161025f565b60405162461bcd60e51b81526020600482015260156024820152744661696c757265206f70656e696e6720747261646560581b604482015260640161025f565b600054610100900460ff16158080156103175750600054600160ff909116105b806103315750303b158015610331575060005460ff166001145b6103945760405162461bcd60e51b815260206004820152602e60248201527f496e697469616c697a61626c653a20636f6e747261637420697320616c72656160448201526d191e481a5b9a5d1a585b1a5e995960921b606482015260840161025f565b6000805460ff1916600117905580156103b7576000805461ff0019166101001790555b6103c08561053a565b603480546001600160a01b0319166001600160a01b0386161790556036805465ffffffffffff191665ffffffffffff8416179055801561043a576000805461ff0019169055604051600181527f7f26b83ff96e1f2b6a682f133852f6798a09c465da95921460cefb38474024989060200160405180910390a15b5050505050565b60335460408051808201909152600581526427aba722a960d91b60208201526001600160a01b03909116906391d148549061047b906107e0565b336040516001600160e01b031960e085901b16815260048101929092526001600160a01b0316602482015260440160206040518083038186803b1580156104c157600080fd5b505afa1580156104d5573d6000803e3d6000fd5b505050506040513d601f19601f820116820180604052508101906104f991906107c3565b6105375760405162461bcd60e51b815260206004820152600f60248201526e676f7665726e616e6365206f6e6c7960881b604482015260640161025f565b50565b600054610100900460ff166105a55760405162461bcd60e51b815260206004820152602b60248201527f496e697469616c697a61626c653a20636f6e7472616374206973206e6f74206960448201526a6e697469616c697a696e6760a81b606482015260840161025f565b6001600160a01b0381166105f25760405162461bcd60e51b81526020600482015260146024820152736d61696e206973207a65726f206164647265737360601b604482015260640161025f565b603380546001600160a01b0319166001600160a01b0392909216919091179055565b6001600160a01b038116811461053757600080fd5b60006080828403121561063b57600080fd5b6040516080810181811067ffffffffffffffff8211171561066c57634e487b7160e01b600052604160045260246000fd5b604052823561067a81610614565b8152602083013561068a81610614565b6020820152604083810135908201526060928301359281019290925250919050565b600060208083528351808285015260005b818110156106d9578581018301518582016040015282016106bd565b818111156106eb576000604083870101525b50601f01601f1916929092016040019392505050565b803565ffffffffffff8116811461071757600080fd5b919050565b6000806000806080858703121561073257600080fd5b843561073d81610614565b9350602085013561074d81610614565b9250604085013561075d81610614565b915061076b60608601610701565b905092959194509250565b801515811461053757600080fd5b60006020828403121561079657600080fd5b81356107a181610776565b9392505050565b6000602082840312156107ba57600080fd5b6107a182610701565b6000602082840312156107d557600080fd5b81516107a181610776565b80516020808301519190811015610801576000198160200360031b1b821691505b5091905056fea2646970667358221220a3906918424b8719867d431025635f47c93eb6b43642caa6ca65349352310f7f64736f6c63430008090033",
  "linkReferences": {},
  "deployedLinkReferences": {}
}