{
  "_format": "hh-sol-artifact-1",
  "contractName": "FacadeRead",
  "sourceName": "contracts/reserve/facade/FacadeRead.sol",
  "abi": [
    {
      "inputs": [],
      "name": "UIntOutOfBounds",
      "type": "error"
    },
    {
      "inputs": [
        {
          "internalType": "contract IRToken",
          "name": "rToken",
          "type": "address"
        }
      ],
      "name": "backingOverview",
      "outputs": [
        {
          "internalType": "uint192",
          "name": "backing",
          "type": "uint192"
        },
        {
          "internalType": "uint192",
          "name": "insurance",
          "type": "uint192"
        }
      ],
      "stateMutability": "view",
      "type": "function"
    },
    {
      "inputs": [
        {
          "internalType": "contract RTokenP1",
          "name": "rToken",
          "type": "address"
        }
      ],
      "name": "basketBreakdown",
      "outputs": [
        {
          "internalType": "address[]",
          "name": "erc20s",
          "type": "address[]"
        },
        {
          "internalType": "uint192[]",
          "name": "uoaShares",
          "type": "uint192[]"
        },
        {
          "internalType": "bytes32[]",
          "name": "targets",
          "type": "bytes32[]"
        }
      ],
      "stateMutability": "nonpayable",
      "type": "function"
    },
    {
      "inputs": [
        {
          "internalType": "contract IRToken",
          "name": "rToken",
          "type": "address"
        }
      ],
      "name": "basketTokens",
      "outputs": [
        {
          "internalType": "address[]",
          "name": "tokens",
          "type": "address[]"
        }
      ],
      "stateMutability": "view",
      "type": "function"
    },
    {
      "inputs": [
        {
          "internalType": "contract RTokenP1",
          "name": "rToken",
          "type": "address"
        },
        {
          "internalType": "address",
          "name": "account",
          "type": "address"
        }
      ],
      "name": "endIdForVest",
      "outputs": [
        {
          "internalType": "uint256",
          "name": "",
          "type": "uint256"
        }
      ],
      "stateMutability": "view",
      "type": "function"
    },
    {
      "inputs": [
        {
          "internalType": "contract IRToken",
          "name": "rToken",
          "type": "address"
        },
        {
          "internalType": "uint256",
          "name": "amount",
          "type": "uint256"
        }
      ],
      "name": "issue",
      "outputs": [
        {
          "internalType": "address[]",
          "name": "tokens",
          "type": "address[]"
        },
        {
          "internalType": "uint256[]",
          "name": "deposits",
          "type": "uint256[]"
        }
      ],
      "stateMutability": "nonpayable",
      "type": "function"
    },
    {
      "inputs": [
        {
          "internalType": "contract IRToken",
          "name": "rToken",
          "type": "address"
        },
        {
          "internalType": "address",
          "name": "account",
          "type": "address"
        }
      ],
      "name": "maxIssuable",
      "outputs": [
        {
          "internalType": "uint256",
          "name": "",
          "type": "uint256"
        }
      ],
      "stateMutability": "nonpayable",
      "type": "function"
    },
    {
      "inputs": [
        {
          "internalType": "contract RTokenP1",
          "name": "rToken",
          "type": "address"
        },
        {
          "internalType": "address",
          "name": "account",
          "type": "address"
        }
      ],
      "name": "pendingIssuances",
      "outputs": [
        {
          "components": [
            {
              "internalType": "uint256",
              "name": "index",
              "type": "uint256"
            },
            {
              "internalType": "uint256",
              "name": "availableAt",
              "type": "uint256"
            },
            {
              "internalType": "uint256",
              "name": "amount",
              "type": "uint256"
            }
          ],
          "internalType": "struct IFacadeRead.Pending[]",
          "name": "issuances",
          "type": "tuple[]"
        }
      ],
      "stateMutability": "view",
      "type": "function"
    },
    {
      "inputs": [
        {
          "internalType": "contract RTokenP1",
          "name": "rToken",
          "type": "address"
        },
        {
          "internalType": "address",
          "name": "account",
          "type": "address"
        }
      ],
      "name": "pendingUnstakings",
      "outputs": [
        {
          "components": [
            {
              "internalType": "uint256",
              "name": "index",
              "type": "uint256"
            },
            {
              "internalType": "uint256",
              "name": "availableAt",
              "type": "uint256"
            },
            {
              "internalType": "uint256",
              "name": "amount",
              "type": "uint256"
            }
          ],
          "internalType": "struct IFacadeRead.Pending[]",
          "name": "unstakings",
          "type": "tuple[]"
        }
      ],
      "stateMutability": "view",
      "type": "function"
    },
    {
      "inputs": [
        {
          "internalType": "contract IRToken",
          "name": "rToken",
          "type": "address"
        }
      ],
      "name": "price",
      "outputs": [
        {
          "internalType": "uint192",
          "name": "low",
          "type": "uint192"
        },
        {
          "internalType": "uint192",
          "name": "high",
          "type": "uint192"
        }
      ],
      "stateMutability": "view",
      "type": "function"
    },
    {
      "inputs": [
        {
          "internalType": "contract IRToken",
          "name": "rToken",
          "type": "address"
        }
      ],
      "name": "stToken",
      "outputs": [
        {
          "internalType": "contract IStRSR",
          "name": "stTokenAddress",
          "type": "address"
        }
      ],
      "stateMutability": "view",
      "type": "function"
    }
  ],
  "bytecode": "0x608060405234801561001057600080fd5b50613c6c806100206000396000f3fe608060405234801561001057600080fd5b506004361061009e5760003560e01c80639d506d1d116100665780639d506d1d14610157578063a2f385851461016a578063a5165b851461018a578063aea91078146101bd578063e0ab7ad8146101d057600080fd5b80631c3debf4146100a357806347a07629146100c9578063826bc7ac146100e9578063867904b4146101145780638dd22ab714610135575b600080fd5b6100b66100b13660046132ba565b6101e3565b6040519081526020015b60405180910390f35b6100dc6100d73660046132ba565b61056d565b6040516100c091906132f3565b6100fc6100f736600461334c565b610864565b6040516001600160a01b0390911681526020016100c0565b610127610122366004613369565b610952565b6040516100c09291906133d9565b61014861014336600461334c565b610d1e565b6040516100c093929190613430565b6100dc6101653660046132ba565b6116cb565b61017d61017836600461334c565b611bc0565b6040516100c091906134c8565b61019d61019836600461334c565b611d3d565b604080516001600160c01b039384168152929091166020830152016100c0565b61019d6101cb36600461334c565b612876565b6100b66101de3660046132ba565b612a4d565b600080836001600160a01b031663dffeadd06040518163ffffffff1660e01b815260040160206040518083038186803b15801561021f57600080fd5b505afa158015610233573d6000803e3d6000fd5b505050506040513d601f19601f8201168201806040525081019061025791906134db565b9050806001600160a01b031663181783586040518163ffffffff1660e01b8152600401600060405180830381600087803b15801561029457600080fd5b505af11580156102a8573d6000803e3d6000fd5b505050506000816001600160a01b0316632f2439b16040518163ffffffff1660e01b815260040160206040518083038186803b1580156102e757600080fd5b505afa1580156102fb573d6000803e3d6000fd5b505050506040513d601f19601f8201168201806040525081019061031f91906134db565b604051635523caaf60e11b81526001600160a01b038681166004830152919091169063aa47955e9060240160206040518083038186803b15801561036257600080fd5b505afa158015610376573d6000803e3d6000fd5b505050506040513d601f19601f8201168201806040525081019061039a9190613514565b90506000856001600160a01b0316637121c2736040518163ffffffff1660e01b815260040160206040518083038186803b1580156103d757600080fd5b505afa1580156103eb573d6000803e3d6000fd5b505050506040513d601f19601f8201168201806040525081019061040f9190613514565b90506000866001600160a01b031663313ce5676040518163ffffffff1660e01b815260040160206040518083038186803b15801561044c57600080fd5b505afa158015610460573d6000803e3d6000fd5b505050506040513d601f19601f82011682018060405250810190610484919061352f565b90506001600160c01b0382166104b2576104a76001600160c01b03841682612d5f565b945050505050610567565b6000610536886001600160a01b03166318160ddd6040518163ffffffff1660e01b815260040160206040518083038186803b1580156104f057600080fd5b505afa158015610504573d6000803e3d6000fd5b505050506040513d601f19601f820116820180604052508101906105289190613552565b61053184613581565b612d6d565b905061055f826105506001600160c01b0387168487612d7b565b6001600160c01b031690612d5f565b955050505050505b92915050565b6040516308e0730960e31b81526001600160a01b03828116600483015260609160009182919086169063470398489060240160606040518083038186803b1580156105b757600080fd5b505afa1580156105cb573d6000803e3d6000fd5b505050506040513d601f19601f820116820180604052508101906105ef91906135a1565b9250925050818161060091906135cf565b6001600160401b03811115610617576106176135e6565b60405190808252806020026020018201604052801561066c57816020015b61065960405180606001604052806000815260200160008152602001600081525090565b8152602001906001900390816106355790505b50925060005b61067c83836135cf565b81101561085b5760006001600160a01b03871663acda2a9d8761069f87866135fc565b6040516001600160e01b031960e085901b1681526001600160a01b039092166004830152602482015260440160006040518083038186803b1580156106e357600080fd5b505afa1580156106f7573d6000803e3d6000fd5b505050506040513d6000823e601f3d908101601f1916820160405261071f91908101906136d2565b9050600061072d85846135fc565b156107f0576001600160a01b03881663acda2a9d88600161074e89886135fc565b61075891906135cf565b6040516001600160e01b031960e085901b1681526001600160a01b039092166004830152602482015260440160006040518083038186803b15801561079c57600080fd5b505afa1580156107b0573d6000803e3d6000fd5b505050506040513d6000823e601f3d908101601f191682016040526107d891908101906136d2565b6020015182602001516107eb91906135cf565b6107f6565b81602001515b90506040518060600160405280868561080f91906135fc565b815283516001600160c01b03166020820152604001829052865187908590811061083b5761083b613780565b60200260200101819052505050808061085390613796565b915050610672565b50505092915050565b600080826001600160a01b031663dffeadd06040518163ffffffff1660e01b815260040160206040518083038186803b1580156108a057600080fd5b505afa1580156108b4573d6000803e3d6000fd5b505050506040513d601f19601f820116820180604052508101906108d891906134db565b9050806001600160a01b0316634780a5e56040518163ffffffff1660e01b815260040160206040518083038186803b15801561091357600080fd5b505afa158015610927573d6000803e3d6000fd5b505050506040513d601f19601f8201168201806040525081019061094b91906134db565b9392505050565b6060806000846001600160a01b031663dffeadd06040518163ffffffff1660e01b815260040160206040518083038186803b15801561099057600080fd5b505afa1580156109a4573d6000803e3d6000fd5b505050506040513d601f19601f820116820180604052508101906109c891906134db565b9050806001600160a01b031663181783586040518163ffffffff1660e01b8152600401600060405180830381600087803b158015610a0557600080fd5b505af1158015610a19573d6000803e3d6000fd5b5050505060008590506000826001600160a01b0316632f2439b16040518163ffffffff1660e01b815260040160206040518083038186803b158015610a5d57600080fd5b505afa158015610a71573d6000803e3d6000fd5b505050506040513d601f19601f82011682018060405250810190610a9591906134db565b9050600080836001600160a01b03166318160ddd6040518163ffffffff1660e01b815260040160206040518083038186803b158015610ad357600080fd5b505afa158015610ae7573d6000803e3d6000fd5b505050506040513d601f19601f82011682018060405250810190610b0b9190613552565b11610b9357610b8e87846001600160a01b031663313ce5676040518163ffffffff1660e01b815260040160206040518083038186803b158015610b4d57600080fd5b505afa158015610b61573d6000803e3d6000fd5b505050506040513d601f19601f82011682018060405250810190610b85919061352f565b61053190613581565b610c89565b610c8987846001600160a01b03166318160ddd6040518163ffffffff1660e01b815260040160206040518083038186803b158015610bd057600080fd5b505afa158015610be4573d6000803e3d6000fd5b505050506040513d601f19601f82011682018060405250810190610c089190613552565b856001600160a01b0316637121c2736040518163ffffffff1660e01b815260040160206040518083038186803b158015610c4157600080fd5b505afa158015610c55573d6000803e3d6000fd5b505050506040513d601f19601f82011682018060405250810190610c799190613514565b6001600160c01b03169190612d92565b6040516331883c3f60e21b81529091506001600160a01b0383169063c620f0fc90610cbb9084906002906004016137c7565b60006040518083038186803b158015610cd357600080fd5b505afa158015610ce7573d6000803e3d6000fd5b505050506040513d6000823e601f3d908101601f19168201604052610d0f9190810190613802565b90999098509650505050505050565b6060806060806000856001600160a01b031663dffeadd06040518163ffffffff1660e01b815260040160206040518083038186803b158015610d5f57600080fd5b505afa158015610d73573d6000803e3d6000fd5b505050506040513d601f19601f82011682018060405250810190610d9791906134db565b6001600160a01b031663979d7e866040518163ffffffff1660e01b815260040160206040518083038186803b158015610dcf57600080fd5b505afa158015610de3573d6000803e3d6000fd5b505050506040513d601f19601f82011682018060405250810190610e0791906134db565b90506000866001600160a01b031663dffeadd06040518163ffffffff1660e01b815260040160206040518083038186803b158015610e4457600080fd5b505afa158015610e58573d6000803e3d6000fd5b505050506040513d601f19601f82011682018060405250810190610e7c91906134db565b6001600160a01b0316632f2439b16040518163ffffffff1660e01b815260040160206040518083038186803b158015610eb457600080fd5b505afa158015610ec8573d6000803e3d6000fd5b505050506040513d601f19601f82011682018060405250810190610eec91906134db565b9050866001600160a01b031663dffeadd06040518163ffffffff1660e01b815260040160206040518083038186803b158015610f2757600080fd5b505afa158015610f3b573d6000803e3d6000fd5b505050506040513d601f19601f82011682018060405250810190610f5f91906134db565b6001600160a01b031663656e96e16040518163ffffffff1660e01b815260040160206040518083038186803b158015610f9757600080fd5b505afa158015610fab573d6000803e3d6000fd5b505050506040513d601f19601f82011682018060405250810190610fcf91906134db565b6001600160a01b0316635220f5106040518163ffffffff1660e01b8152600401600060405180830381600087803b15801561100957600080fd5b505af192505050801561101a575060015b50600080886001600160a01b03166318160ddd6040518163ffffffff1660e01b815260040160206040518083038186803b15801561105757600080fd5b505afa15801561106b573d6000803e3d6000fd5b505050506040513d601f19601f8201168201806040525081019061108f9190613552565b116110a257670de0b6b3a76400006111b0565b6111b0886001600160a01b0316637121c2736040518163ffffffff1660e01b815260040160206040518083038186803b1580156110de57600080fd5b505afa1580156110f2573d6000803e3d6000fd5b505050506040513d601f19601f820116820180604052508101906111169190613514565b6001600160c01b0316670de0b6b3a76400006001600160401b03166001600160c01b03168a6001600160a01b03166318160ddd6040518163ffffffff1660e01b815260040160206040518083038186803b15801561117357600080fd5b505afa158015611187573d6000803e3d6000fd5b505050506040513d601f19601f820116820180604052508101906111ab9190613552565b612da1565b6040516331883c3f60e21b81529091506001600160a01b0383169063c620f0fc906111e29084906002906004016137c7565b60006040518083038186803b1580156111fa57600080fd5b505afa15801561120e573d6000803e3d6000fd5b505050506040513d6000823e601f3d908101601f191682016040526112369190810190613802565b8151919850945060009081906001600160401b03811115611259576112596135e6565b604051908082528060200260200182016040528015611282578160200160208202803683370190505b50905088516001600160401b0381111561129e5761129e6135e6565b6040519080825280602002602001820160405280156112c7578160200160208202803683370190505b50965060005b89518110156115fc576000866001600160a01b03166357a26a408c84815181106112f9576112f9613780565b60200260200101516040518263ffffffff1660e01b815260040161132c91906001600160a01b0391909116815260200190565b60206040518083038186803b15801561134457600080fd5b505afa158015611358573d6000803e3d6000fd5b505050506040513d601f19601f8201168201806040525081019061137c91906134db565b905060008b838151811061139257611392613780565b60200260200101516001600160a01b031663313ce5676040518163ffffffff1660e01b815260040160206040518083038186803b1580156113d257600080fd5b505afa1580156113e6573d6000803e3d6000fd5b505050506040513d601f19601f8201168201806040525081019061140a919061352f565b9050600080836001600160a01b031663a035b1fe6040518163ffffffff1660e01b8152600401604080518083038186803b15801561144757600080fd5b505afa15801561145b573d6000803e3d6000fd5b505050506040513d601f19601f8201168201806040525081019061147f91906138c6565b91509150600080836001600160c01b03161161149b57826114c2565b6114c260026114b36001600160c01b03861685612e84565b6001600160c01b031690612e90565b90506114fe816114ef8e89815181106114dd576114dd613780565b60200260200101518761053190613581565b6001600160c01b031690612e9e565b87878151811061151057611510613780565b60200260200101906001600160c01b031690816001600160c01b03168152505086868151811061154257611542613780565b60200260200101518861155591906138f9565b9750846001600160a01b031663fdfd59176040518163ffffffff1660e01b815260040160206040518083038186803b15801561159057600080fd5b505afa1580156115a4573d6000803e3d6000fd5b505050506040513d601f19601f820116820180604052508101906115c89190613552565b8d87815181106115da576115da613780565b6020026020010181815250505050505050806115f590613796565b90506112cd565b5088516001600160401b03811115611616576116166135e6565b60405190808252806020026020018201604052801561163f578160200160208202803683370190505b50975060005b89518110156116bd576116838383838151811061166457611664613780565b60200260200101516001600160c01b0316612e9090919063ffffffff16565b89828151811061169557611695613780565b6001600160c01b03909216602092830291909101909101526116b681613796565b9050611645565b505050505050509193909250565b60606000836001600160a01b031663dffeadd06040518163ffffffff1660e01b815260040160206040518083038186803b15801561170857600080fd5b505afa15801561171c573d6000803e3d6000fd5b505050506040513d601f19601f8201168201806040525081019061174091906134db565b6001600160a01b0316634780a5e56040518163ffffffff1660e01b815260040160206040518083038186803b15801561177857600080fd5b505afa15801561178c573d6000803e3d6000fd5b505050506040513d601f19601f820116820180604052508101906117b091906134db565b90506000816001600160a01b031663973628f66040518163ffffffff1660e01b815260040160206040518083038186803b1580156117ed57600080fd5b505afa158015611801573d6000803e3d6000fd5b505050506040513d601f19601f820116820180604052508101906118259190613552565b60405163e96bfb2160e01b8152600481018290526001600160a01b03868116602483015291925060009184169063e96bfb219060440160206040518083038186803b15801561187357600080fd5b505afa158015611887573d6000803e3d6000fd5b505050506040513d601f19601f820116820180604052508101906118ab9190613552565b604051636c3db97960e01b8152600481018490526001600160a01b038781166024830152919250600091851690636c3db9799060440160206040518083038186803b1580156118f957600080fd5b505afa15801561190d573d6000803e3d6000fd5b505050506040513d601f19601f820116820180604052508101906119319190613552565b905061193d82826135cf565b6001600160401b03811115611954576119546135e6565b6040519080825280602002602001820160405280156119a957816020015b61199660405180606001604052806000815260200160008152602001600081525090565b8152602001906001900390816119725790505b50945060005b6119b983836135cf565b811015611bb5576000806001600160a01b038716636f94d10a878b6119de89886135fc565b6040516001600160e01b031960e086901b16815260048101939093526001600160a01b0390911660248301526044820152606401604080518083038186803b158015611a2957600080fd5b505afa158015611a3d573d6000803e3d6000fd5b505050506040513d601f19601f82011682018060405250810190611a619190613924565b6001600160b01b039190911692509050816000611a7e87866135fc565b1115611b4a5760006001600160a01b038916636f94d10a898d6001611aa38c8b6135fc565b611aad91906135cf565b6040516001600160e01b031960e086901b16815260048101939093526001600160a01b0390911660248301526044820152606401604080518083038186803b158015611af857600080fd5b505afa158015611b0c573d6000803e3d6000fd5b505050506040513d601f19601f82011682018060405250810190611b309190613924565b506001600160b01b03169050611b46818561396b565b9150505b60405180606001604052808786611b6191906135fc565b8152602001836001600160401b03168152602001826001600160c01b0316815250898581518110611b9457611b94613780565b60200260200101819052505050508080611bad90613796565b9150506119af565b505050505092915050565b60606000826001600160a01b031663dffeadd06040518163ffffffff1660e01b815260040160206040518083038186803b158015611bfd57600080fd5b505afa158015611c11573d6000803e3d6000fd5b505050506040513d601f19601f82011682018060405250810190611c3591906134db565b9050806001600160a01b0316632f2439b16040518163ffffffff1660e01b815260040160206040518083038186803b158015611c7057600080fd5b505afa158015611c84573d6000803e3d6000fd5b505050506040513d601f19601f82011682018060405250810190611ca891906134db565b6040516331883c3f60e21b81526001600160a01b03919091169063c620f0fc90611ce190670de0b6b3a7640000906002906004016137c7565b60006040518083038186803b158015611cf957600080fd5b505afa158015611d0d573d6000803e3d6000fd5b505050506040513d6000823e601f3d908101601f19168201604052611d359190810190613802565b509392505050565b6000806000836001600160a01b03166318160ddd6040518163ffffffff1660e01b815260040160206040518083038186803b158015611d7b57600080fd5b505afa158015611d8f573d6000803e3d6000fd5b505050506040513d601f19601f82011682018060405250810190611db39190613552565b905080611dc65750600093849350915050565b600080856001600160a01b031663dffeadd06040518163ffffffff1660e01b815260040160206040518083038186803b158015611e0257600080fd5b505afa158015611e16573d6000803e3d6000fd5b505050506040513d601f19601f82011682018060405250810190611e3a91906134db565b6001600160a01b0316632f2439b16040518163ffffffff1660e01b815260040160206040518083038186803b158015611e7257600080fd5b505afa158015611e86573d6000803e3d6000fd5b505050506040513d601f19601f82011682018060405250810190611eaa91906134db565b6001600160a01b031663a035b1fe6040518163ffffffff1660e01b8152600401604080518083038186803b158015611ee157600080fd5b505afa158015611ef5573d6000803e3d6000fd5b505050506040513d601f19601f82011682018060405250810190611f1991906138c6565b91509150600080836001600160c01b031611611f355782611f4d565b611f4d60026114b36001600160c01b03861685612e84565b90506000611fc682896001600160a01b0316637121c2736040518163ffffffff1660e01b815260040160206040518083038186803b158015611f8e57600080fd5b505afa158015611fa2573d6000803e3d6000fd5b505050506040513d601f19601f820116820180604052508101906114ef9190613514565b90506000886001600160a01b031663dffeadd06040518163ffffffff1660e01b815260040160206040518083038186803b15801561200357600080fd5b505afa158015612017573d6000803e3d6000fd5b505050506040513d601f19601f8201168201806040525081019061203b91906134db565b6001600160a01b031663979d7e866040518163ffffffff1660e01b815260040160206040518083038186803b15801561207357600080fd5b505afa158015612087573d6000803e3d6000fd5b505050506040513d601f19601f820116820180604052508101906120ab91906134db565b90506000896001600160a01b031663dffeadd06040518163ffffffff1660e01b815260040160206040518083038186803b1580156120e857600080fd5b505afa1580156120fc573d6000803e3d6000fd5b505050506040513d601f19601f8201168201806040525081019061212091906134db565b6001600160a01b031663dc8af5f66040518163ffffffff1660e01b815260040160206040518083038186803b15801561215857600080fd5b505afa15801561216c573d6000803e3d6000fd5b505050506040513d601f19601f8201168201806040525081019061219091906134db565b905060008a6001600160a01b031663dffeadd06040518163ffffffff1660e01b815260040160206040518083038186803b1580156121cd57600080fd5b505afa1580156121e1573d6000803e3d6000fd5b505050506040513d601f19601f8201168201806040525081019061220591906134db565b6001600160a01b031663c99dc3dd6040518163ffffffff1660e01b815260040160206040518083038186803b15801561223d57600080fd5b505afa158015612251573d6000803e3d6000fd5b505050506040513d601f19601f8201168201806040525081019061227591906134db565b90506000836001600160a01b0316632510a1d76040518163ffffffff1660e01b815260040160006040518083038186803b1580156122b257600080fd5b505afa1580156122c6573d6000803e3d6000fd5b505050506040513d6000823e601f3d908101601f191682016040526122ee9190810190613993565b90506000805b825181101561250057836001600160a01b031683828151811061231957612319613780565b60200260200101516001600160a01b03161415612335576124ee565b6000866001600160a01b031663cde2be8a85848151811061235857612358613780565b60200260200101516040518263ffffffff1660e01b815260040161238b91906001600160a01b0391909116815260200190565b60206040518083038186803b1580156123a357600080fd5b505afa1580156123b7573d6000803e3d6000fd5b505050506040513d601f19601f820116820180604052508101906123db91906134db565b9050600080826001600160a01b031663a035b1fe6040518163ffffffff1660e01b8152600401604080518083038186803b15801561241857600080fd5b505afa15801561242c573d6000803e3d6000fd5b505050506040513d601f19601f8201168201806040525081019061245091906138c6565b91509150600080836001600160c01b03161161246c5782612484565b61248460026114b36001600160c01b03861685612e84565b604051632ac07b9560e11b81526001600160a01b038b811660048301529192506000916124d1918491881690635580f72a9060240160206040518083038186803b158015611f8e57600080fd5b90506124e66001600160c01b03881682612e84565b965050505050505b806124f881613796565b9150506122f4565b506125146001600160c01b03821687612e90565b6040516366f15f4560e11b81526001600160a01b038581166004830152919d5060009350908616915063cde2be8a9060240160206040518083038186803b15801561255e57600080fd5b505afa158015612572573d6000803e3d6000fd5b505050506040513d601f19601f8201168201806040525081019061259691906134db565b9050600061278c826001600160a01b0316635580f72a8f6001600160a01b031663dffeadd06040518163ffffffff1660e01b815260040160206040518083038186803b1580156125e557600080fd5b505afa1580156125f9573d6000803e3d6000fd5b505050506040513d601f19601f8201168201806040525081019061261d91906134db565b6001600160a01b0316634780a5e56040518163ffffffff1660e01b815260040160206040518083038186803b15801561265557600080fd5b505afa158015612669573d6000803e3d6000fd5b505050506040513d601f19601f8201168201806040525081019061268d91906134db565b6040516001600160e01b031960e084901b1681526001600160a01b03909116600482015260240160206040518083038186803b1580156126cc57600080fd5b505afa1580156126e0573d6000803e3d6000fd5b505050506040513d601f19601f820116820180604052508101906127049190613514565b604051632ac07b9560e11b81526001600160a01b038781166004830152851690635580f72a9060240160206040518083038186803b15801561274557600080fd5b505afa158015612759573d6000803e3d6000fd5b505050506040513d601f19601f8201168201806040525081019061277d9190613514565b6001600160c01b031690612e84565b9050600080836001600160a01b031663a035b1fe6040518163ffffffff1660e01b8152600401604080518083038186803b1580156127c957600080fd5b505afa1580156127dd573d6000803e3d6000fd5b505050506040513d601f19601f8201168201806040525081019061280191906138c6565b91509150600080836001600160c01b03161161281d5782612835565b61283560026114b36001600160c01b03861685612e84565b9050600061284c6001600160c01b03861683612e9e565b90506128616001600160c01b0382168b612e90565b9e505050505050505050505050505050915091565b600080826001600160a01b031663dffeadd06040518163ffffffff1660e01b815260040160206040518083038186803b1580156128b257600080fd5b505afa1580156128c6573d6000803e3d6000fd5b505050506040513d601f19601f820116820180604052508101906128ea91906134db565b6001600160a01b031663979d7e866040518163ffffffff1660e01b815260040160206040518083038186803b15801561292257600080fd5b505afa158015612936573d6000803e3d6000fd5b505050506040513d601f19601f8201168201806040525081019061295a91906134db565b6040516366f15f4560e11b81526001600160a01b038581166004830152919091169063cde2be8a9060240160206040518083038186803b15801561299d57600080fd5b505afa1580156129b1573d6000803e3d6000fd5b505050506040513d601f19601f820116820180604052508101906129d591906134db565b6001600160a01b031663a035b1fe6040518163ffffffff1660e01b8152600401604080518083038186803b158015612a0c57600080fd5b505afa158015612a20573d6000803e3d6000fd5b505050506040513d601f19601f82011682018060405250810190612a4491906138c6565b91509150915091565b60405163c9d6bb7960e01b81526001600160a01b038281166004830152600091829182919086169063c9d6bb7990602401604080518083038186803b158015612a9557600080fd5b505afa158015612aa9573d6000803e3d6000fd5b505050506040513d601f19601f82011682018060405250810190612acd9190613a2c565b90925090506000612ae643670de0b6b3a7640000613a50565b604080516080810182526000808252602082018190529181019190915260608082015290915082841415612b205783945050505050610567565b60405163acda2a9d60e01b81526001600160a01b0387811660048301526024820186905288169063acda2a9d9060440160006040518083038186803b158015612b6857600080fd5b505afa158015612b7c573d6000803e3d6000fd5b505050506040513d6000823e601f3d908101601f19168201604052612ba491908101906136d2565b80519091506001600160c01b0316821015612bc55783945050505050610567565b6001600160a01b03871663acda2a9d87612be06001876135cf565b6040516001600160e01b031960e085901b1681526001600160a01b039092166004830152602482015260440160006040518083038186803b158015612c2457600080fd5b505afa158015612c38573d6000803e3d6000fd5b505050506040513d6000823e601f3d908101601f19168201604052612c6091908101906136d2565b90508181600001516001600160c01b031611612c825782945050505050610567565b83835b612c906001826135cf565b82101561055f5760006002612ca583856135fc565b612caf9190613a85565b60405163acda2a9d60e01b81526001600160a01b038b8116600483015260248201839052919250908b169063acda2a9d9060440160006040518083038186803b158015612cfb57600080fd5b505afa158015612d0f573d6000803e3d6000fd5b505050506040513d6000823e601f3d908101601f19168201604052612d3791908101906136d2565b93508484600001516001600160c01b031611612d5557809250612d59565b8091505b50612c85565b600061094b83836000612eac565b600061094b83836000612f8b565b6000612d8a8484846000613035565b949350505050565b6000612d8a8484846000613066565b6000806000612db08686613080565b91509150838210612dd45760405163f44398f560e01b815260040160405180910390fd5b60008480612de457612de4613a6f565b868809905081811115612df8576001830392505b908190039060008590038516808681612e1357612e13613a6f565b049550808381612e2557612e25613a6f565b049250808160000381612e3a57612e3a613a6f565b046001019390930291909101600285810380870282030280870282030280870282030280870282030280870282030280870282030295860290039094029390930295945050505050565b600061094b82846138f9565b600061094b838360006130ad565b600061094b838360016130e0565b60006001600160c01b038416612ec45750600061094b565b6029198360000b13612efe5760025b826002811115612ee557612ee56137b1565b14612ef1576000612ef4565b60015b60ff16905061094b565b8260000b606013612f225760405163f44398f560e01b815260040160405180910390fd5b612f2d601284613a99565b92506000612f3d8460000b61310d565b612f4890600a613bb6565b905060008460000b1215612f6f57612f6a856001600160c01b03168285613125565b612f82565b612f82816001600160c01b038716613a50565b95945050505050565b600083612f9a5750600061094b565b605f198360000b13612fad576002612ed3565b8260000b602813612fd15760405163f44398f560e01b815260040160405180910390fd5b612fdc601284613bc2565b92506000612fec8460000b61310d565b612ff790600a613bb6565b90506000808560000b121561301657613011868386613125565b613020565b6130208287613a50565b905061302b816131c5565b9695505050505050565b6000612f82613061866001600160c01b0316866001600160c01b0316866001600160c01b0316866131f3565b6131c5565b6000612f82613061866001600160c01b03168686866131f3565b60008080600019848609905083850291508181039250818110156130a5576001830392505b509250929050565b6000612d8a6130616130d0670de0b6b3a76400006001600160c01b038816613a50565b856001600160c01b031685613125565b6000612d8a6130616130fe6001600160c01b03808716908816613a50565b670de0b6b3a764000085613125565b600080821261311c5781610567565b61056782613c05565b6000806131328486613a85565b90506000836002811115613148576131486137b1565b141561315557905061094b565b6001836002811115613169576131696137b1565b14156131a957600261317c6001866135cf565b6131869190613a85565b6131908587613c22565b11156131a457806131a081613796565b9150505b612d8a565b60006131b58587613c22565b1115612d8a578061302b81613796565b60006001600160c01b038211156131ef5760405163f44398f560e01b815260040160405180910390fd5b5090565b600080613201868686612da1565b90506000836002811115613217576132176137b1565b1415613224579050612d8a565b6000848061323457613234613a6f565b8688099050600284600281111561324d5761324d6137b1565b141561326c578015613267576132646001836135fc565b91505b613298565b60026132796001876135cf565b6132839190613a85565b811115613298576132956001836135fc565b91505b5095945050505050565b6001600160a01b03811681146132b757600080fd5b50565b600080604083850312156132cd57600080fd5b82356132d8816132a2565b915060208301356132e8816132a2565b809150509250929050565b602080825282518282018190526000919060409081850190868401855b8281101561333f5781518051855286810151878601528501518585015260609093019290850190600101613310565b5091979650505050505050565b60006020828403121561335e57600080fd5b813561094b816132a2565b6000806040838503121561337c57600080fd5b8235613387816132a2565b946020939093013593505050565b600081518084526020808501945080840160005b838110156133ce5781516001600160a01b0316875295820195908201906001016133a9565b509495945050505050565b6040815260006133ec6040830185613395565b82810360208481019190915284518083528582019282019060005b8181101561342357845183529383019391830191600101613407565b5090979650505050505050565b6060815260006134436060830186613395565b82810360208481019190915285518083528682019282019060005b818110156134835784516001600160c01b03168352938301939183019160010161345e565b50508481036040860152855180825290820192508186019060005b818110156134ba5782518552938301939183019160010161349e565b509298975050505050505050565b60208152600061094b6020830184613395565b6000602082840312156134ed57600080fd5b815161094b816132a2565b80516001600160c01b038116811461350f57600080fd5b919050565b60006020828403121561352657600080fd5b61094b826134f8565b60006020828403121561354157600080fd5b815160ff8116811461094b57600080fd5b60006020828403121561356457600080fd5b5051919050565b634e487b7160e01b600052601160045260246000fd5b600081810b607f198114156135985761359861356b565b60000392915050565b6000806000606084860312156135b657600080fd5b8351925060208401519150604084015190509250925092565b6000828210156135e1576135e161356b565b500390565b634e487b7160e01b600052604160045260246000fd5b6000821982111561360f5761360f61356b565b500190565b604051601f8201601f191681016001600160401b038111828210171561363c5761363c6135e6565b604052919050565b60006001600160401b0382111561365d5761365d6135e6565b5060051b60200190565b600082601f83011261367857600080fd5b8151602061368d61368883613644565b613614565b82815260059290921b840181019181810190868411156136ac57600080fd5b8286015b848110156136c757805183529183019183016136b0565b509695505050505050565b6000602082840312156136e457600080fd5b81516001600160401b03808211156136fb57600080fd5b908301906080828603121561370f57600080fd5b60405160808101818110838211171561372a5761372a6135e6565b604052613736836134f8565b81526020830151602082015261374e604084016134f8565b604082015260608301518281111561376557600080fd5b61377187828601613667565b60608301525095945050505050565b634e487b7160e01b600052603260045260246000fd5b60006000198214156137aa576137aa61356b565b5060010190565b634e487b7160e01b600052602160045260246000fd5b6001600160c01b038316815260408101600383106137f557634e487b7160e01b600052602160045260246000fd5b8260208301529392505050565b6000806040838503121561381557600080fd5b82516001600160401b038082111561382c57600080fd5b818501915085601f83011261384057600080fd5b8151602061385061368883613644565b82815260059290921b8401810191818101908984111561386f57600080fd5b948201945b83861015613896578551613887816132a2565b82529482019490820190613874565b918801519196509093505050808211156138af57600080fd5b506138bc85828601613667565b9150509250929050565b600080604083850312156138d957600080fd5b6138e2836134f8565b91506138f0602084016134f8565b90509250929050565b60006001600160c01b0382811684821680830382111561391b5761391b61356b565b01949350505050565b6000806040838503121561393757600080fd5b82516001600160b01b038116811461394e57600080fd5b60208401519092506001600160401b03811681146132e857600080fd5b60006001600160c01b038381169083168181101561398b5761398b61356b565b039392505050565b600060208083850312156139a657600080fd5b82516001600160401b038111156139bc57600080fd5b8301601f810185136139cd57600080fd5b80516139db61368882613644565b81815260059190911b820183019083810190878311156139fa57600080fd5b928401925b82841015613a21578351613a12816132a2565b825292840192908401906139ff565b979650505050505050565b60008060408385031215613a3f57600080fd5b505080516020909101519092909150565b6000816000190483118215151615613a6a57613a6a61356b565b500290565b634e487b7160e01b600052601260045260246000fd5b600082613a9457613a94613a6f565b500490565b600081810b83820b8281128015607f19830184121615613abb57613abb61356b565b81607f018313811615613ad057613ad061356b565b5090039392505050565b600181815b808511156130a5578160001904821115613afb57613afb61356b565b80851615613b0857918102915b93841c9390800290613adf565b600082613b2457506001610567565b81613b3157506000610567565b8160018114613b475760028114613b5157613b6d565b6001915050610567565b60ff841115613b6257613b6261356b565b50506001821b610567565b5060208310610133831016604e8410600b8410161715613b90575081810a610567565b613b9a8383613ada565b8060001904821115613bae57613bae61356b565b029392505050565b600061094b8383613b15565b60008160000b8360000b6000821282607f03821381151615613be657613be661356b565b82607f19038212811615613bfc57613bfc61356b565b50019392505050565b6000600160ff1b821415613c1b57613c1b61356b565b5060000390565b600082613c3157613c31613a6f565b50069056fea26469706673582212206cbf7adf815082394ae3f3784fb4a7dcd58189012916d37176dcc13a3853d73a64736f6c63430008090033",
  "linkReferences": {},
  "deployedLinkReferences": {}
}