{
  "_format": "hh-sol-artifact-1",
  "contractName": "RevenueTraderP1",
  "sourceName": "contracts/reserve/p1/RevenueTrader.sol",
  "abi": [
    {
      "inputs": [],
      "name": "UIntOutOfBounds",
      "type": "error"
    },
    {
      "anonymous": false,
      "inputs": [
        {
          "indexed": false,
          "internalType": "address",
          "name": "previousAdmin",
          "type": "address"
        },
        {
          "indexed": false,
          "internalType": "address",
          "name": "newAdmin",
          "type": "address"
        }
      ],
      "name": "AdminChanged",
      "type": "event"
    },
    {
      "anonymous": false,
      "inputs": [
        {
          "indexed": true,
          "internalType": "address",
          "name": "beacon",
          "type": "address"
        }
      ],
      "name": "BeaconUpgraded",
      "type": "event"
    },
    {
      "anonymous": false,
      "inputs": [
        {
          "indexed": false,
          "internalType": "uint8",
          "name": "version",
          "type": "uint8"
        }
      ],
      "name": "Initialized",
      "type": "event"
    },
    {
      "anonymous": false,
      "inputs": [
        {
          "indexed": true,
          "internalType": "uint192",
          "name": "oldVal",
          "type": "uint192"
        },
        {
          "indexed": true,
          "internalType": "uint192",
          "name": "newVal",
          "type": "uint192"
        }
      ],
      "name": "MaxTradeSlippageSet",
      "type": "event"
    },
    {
      "anonymous": false,
      "inputs": [
        {
          "indexed": true,
          "internalType": "uint192",
          "name": "oldVal",
          "type": "uint192"
        },
        {
          "indexed": true,
          "internalType": "uint192",
          "name": "newVal",
          "type": "uint192"
        }
      ],
      "name": "MinTradeVolumeSet",
      "type": "event"
    },
    {
      "anonymous": false,
      "inputs": [
        {
          "indexed": true,
          "internalType": "contract IERC20",
          "name": "erc20",
          "type": "address"
        },
        {
          "indexed": true,
          "internalType": "uint256",
          "name": "amount",
          "type": "uint256"
        }
      ],
      "name": "RewardsClaimed",
      "type": "event"
    },
    {
      "anonymous": false,
      "inputs": [
        {
          "indexed": true,
          "internalType": "contract ITrade",
          "name": "trade",
          "type": "address"
        },
        {
          "indexed": true,
          "internalType": "contract IERC20",
          "name": "sell",
          "type": "address"
        },
        {
          "indexed": true,
          "internalType": "contract IERC20",
          "name": "buy",
          "type": "address"
        },
        {
          "indexed": false,
          "internalType": "uint256",
          "name": "sellAmount",
          "type": "uint256"
        },
        {
          "indexed": false,
          "internalType": "uint256",
          "name": "buyAmount",
          "type": "uint256"
        }
      ],
      "name": "TradeSettled",
      "type": "event"
    },
    {
      "anonymous": false,
      "inputs": [
        {
          "indexed": true,
          "internalType": "contract ITrade",
          "name": "trade",
          "type": "address"
        },
        {
          "indexed": true,
          "internalType": "contract IERC20",
          "name": "sell",
          "type": "address"
        },
        {
          "indexed": true,
          "internalType": "contract IERC20",
          "name": "buy",
          "type": "address"
        },
        {
          "indexed": false,
          "internalType": "uint256",
          "name": "sellAmount",
          "type": "uint256"
        },
        {
          "indexed": false,
          "internalType": "uint256",
          "name": "minBuyAmount",
          "type": "uint256"
        }
      ],
      "name": "TradeStarted",
      "type": "event"
    },
    {
      "anonymous": false,
      "inputs": [
        {
          "indexed": true,
          "internalType": "address",
          "name": "implementation",
          "type": "address"
        }
      ],
      "name": "Upgraded",
      "type": "event"
    },
    {
      "inputs": [],
      "name": "MAX_TRADE_SLIPPAGE",
      "outputs": [
        {
          "internalType": "uint192",
          "name": "",
          "type": "uint192"
        }
      ],
      "stateMutability": "view",
      "type": "function"
    },
    {
      "inputs": [],
      "name": "MIN_TRADE_VOLUME",
      "outputs": [
        {
          "internalType": "uint192",
          "name": "",
          "type": "uint192"
        }
      ],
      "stateMutability": "view",
      "type": "function"
    },
    {
      "inputs": [],
      "name": "claimRewards",
      "outputs": [],
      "stateMutability": "nonpayable",
      "type": "function"
    },
    {
      "inputs": [
        {
          "internalType": "contract IERC20",
          "name": "erc20",
          "type": "address"
        }
      ],
      "name": "claimRewardsSingle",
      "outputs": [],
      "stateMutability": "nonpayable",
      "type": "function"
    },
    {
      "inputs": [
        {
          "internalType": "contract IMain",
          "name": "main_",
          "type": "address"
        },
        {
          "internalType": "contract IERC20",
          "name": "tokenToBuy_",
          "type": "address"
        },
        {
          "internalType": "uint192",
          "name": "maxTradeSlippage_",
          "type": "uint192"
        },
        {
          "internalType": "uint192",
          "name": "minTradeVolume_",
          "type": "uint192"
        }
      ],
      "name": "init",
      "outputs": [],
      "stateMutability": "nonpayable",
      "type": "function"
    },
    {
      "inputs": [],
      "name": "main",
      "outputs": [
        {
          "internalType": "contract IMain",
          "name": "",
          "type": "address"
        }
      ],
      "stateMutability": "view",
      "type": "function"
    },
    {
      "inputs": [
        {
          "internalType": "contract IERC20",
          "name": "erc20",
          "type": "address"
        }
      ],
      "name": "manageToken",
      "outputs": [],
      "stateMutability": "nonpayable",
      "type": "function"
    },
    {
      "inputs": [],
      "name": "maxTradeSlippage",
      "outputs": [
        {
          "internalType": "uint192",
          "name": "",
          "type": "uint192"
        }
      ],
      "stateMutability": "view",
      "type": "function"
    },
    {
      "inputs": [],
      "name": "minTradeVolume",
      "outputs": [
        {
          "internalType": "uint192",
          "name": "",
          "type": "uint192"
        }
      ],
      "stateMutability": "view",
      "type": "function"
    },
    {
      "inputs": [
        {
          "internalType": "bytes[]",
          "name": "data",
          "type": "bytes[]"
        }
      ],
      "name": "multicall",
      "outputs": [
        {
          "internalType": "bytes[]",
          "name": "results",
          "type": "bytes[]"
        }
      ],
      "stateMutability": "nonpayable",
      "type": "function"
    },
    {
      "inputs": [],
      "name": "proxiableUUID",
      "outputs": [
        {
          "internalType": "bytes32",
          "name": "",
          "type": "bytes32"
        }
      ],
      "stateMutability": "view",
      "type": "function"
    },
    {
      "inputs": [
        {
          "internalType": "uint192",
          "name": "val",
          "type": "uint192"
        }
      ],
      "name": "setMaxTradeSlippage",
      "outputs": [],
      "stateMutability": "nonpayable",
      "type": "function"
    },
    {
      "inputs": [
        {
          "internalType": "uint192",
          "name": "val",
          "type": "uint192"
        }
      ],
      "name": "setMinTradeVolume",
      "outputs": [],
      "stateMutability": "nonpayable",
      "type": "function"
    },
    {
      "inputs": [
        {
          "internalType": "contract IERC20",
          "name": "sell",
          "type": "address"
        }
      ],
      "name": "settleTrade",
      "outputs": [],
      "stateMutability": "nonpayable",
      "type": "function"
    },
    {
      "inputs": [],
      "name": "tokenToBuy",
      "outputs": [
        {
          "internalType": "contract IERC20",
          "name": "",
          "type": "address"
        }
      ],
      "stateMutability": "view",
      "type": "function"
    },
    {
      "inputs": [
        {
          "internalType": "contract IERC20",
          "name": "",
          "type": "address"
        }
      ],
      "name": "trades",
      "outputs": [
        {
          "internalType": "contract ITrade",
          "name": "",
          "type": "address"
        }
      ],
      "stateMutability": "view",
      "type": "function"
    },
    {
      "inputs": [],
      "name": "tradesOpen",
      "outputs": [
        {
          "internalType": "uint48",
          "name": "",
          "type": "uint48"
        }
      ],
      "stateMutability": "view",
      "type": "function"
    },
    {
      "inputs": [
        {
          "internalType": "address",
          "name": "newImplementation",
          "type": "address"
        }
      ],
      "name": "upgradeTo",
      "outputs": [],
      "stateMutability": "nonpayable",
      "type": "function"
    },
    {
      "inputs": [
        {
          "internalType": "address",
          "name": "newImplementation",
          "type": "address"
        },
        {
          "internalType": "bytes",
          "name": "data",
          "type": "bytes"
        }
      ],
      "name": "upgradeToAndCall",
      "outputs": [],
      "stateMutability": "payable",
      "type": "function"
    },
    {
      "inputs": [],
      "name": "version",
      "outputs": [
        {
          "internalType": "string",
          "name": "",
          "type": "string"
        }
      ],
      "stateMutability": "pure",
      "type": "function"
    }
  ],
  "bytecode": "0x60a0604052306080523480156200001557600080fd5b50600054610100900460ff1615808015620000375750600054600160ff909116105b8062000067575062000054306200014160201b62001a271760201c565b15801562000067575060005460ff166001145b620000cf5760405162461bcd60e51b815260206004820152602e60248201527f496e697469616c697a61626c653a20636f6e747261637420697320616c72656160448201526d191e481a5b9a5d1a585b1a5e995960921b606482015260840160405180910390fd5b6000805460ff191660011790558015620000f3576000805461ff0019166101001790555b80156200013a576000805461ff0019169055604051600181527f7f26b83ff96e1f2b6a682f133852f6798a09c465da95921460cefb38474024989060200160405180910390a15b5062000150565b6001600160a01b03163b151590565b60805161398562000188600039600081816107d70152818161081701528181610bdf01528181610c1f0152610cb201526139856000f3fe60806040526004361061011f5760003560e01c80638b27c574116100a0578063b9bebb0411610064578063b9bebb0414610365578063c76aeb1214610381578063cb9414f8146103b7578063dd47cebf146103d7578063dffeadd0146103f857600080fd5b80638b27c574146102a25780639b4ec8e9146102c2578063a9f752e5146102e2578063ac9650d814610318578063adaef42c1461034557600080fd5b8063372500ab116100e7578063372500ab146102035780634f1ef2861461021857806352d1902d1461022b57806354fd4d501461024e5780637cbf6db21461028257600080fd5b80630db3d42c146101245780630e0264d11461016857806319ca8d9d1461018a5780633659cfe6146101c357806336a02f57146101e3575b600080fd5b34801561013057600080fd5b5060fd5461014b90600160301b90046001600160c01b031681565b6040516001600160c01b0390911681526020015b60405180910390f35b34801561017457600080fd5b506101886101833660046130d6565b610418565b005b34801561019657600080fd5b5061012d546101ab906001600160a01b031681565b6040516001600160a01b03909116815260200161015f565b3480156101cf57600080fd5b506101886101de3660046130d6565b6107cc565b3480156101ef57600080fd5b506101886101fe366004613108565b6108a9565b34801561020f57600080fd5b50610188610a38565b61018861022636600461313b565b610bd4565b34801561023757600080fd5b50610240610ca5565b60405190815260200161015f565b34801561025a57600080fd5b5060408051808201825260058152640312e322e360dc1b6020820152905161015f9190613257565b34801561028e57600080fd5b5060fe5461014b906001600160c01b031681565b3480156102ae57600080fd5b506101886102bd36600461326a565b610d58565b3480156102ce57600080fd5b506101886102dd3660046130d6565b611001565b3480156102ee57600080fd5b506101ab6102fd3660046130d6565b60fc602052600090815260409020546001600160a01b031681565b34801561032457600080fd5b506103386103333660046132c6565b61157c565b60405161015f919061333b565b34801561035157600080fd5b506101886103603660046130d6565b611672565b34801561037157600080fd5b5061014b670de0b6b3a764000081565b34801561038d57600080fd5b5060fd546103a09065ffffffffffff1681565b60405165ffffffffffff909116815260200161015f565b3480156103c357600080fd5b506101886103d2366004613108565b611883565b3480156103e357600080fd5b5061014b6c01431e0fae6d7217caa000000081565b34801561040457600080fd5b506097546101ab906001600160a01b031681565b609760009054906101000a90046001600160a01b03166001600160a01b031663f17063756040518163ffffffff1660e01b815260040160206040518083038186803b15801561046657600080fd5b505afa15801561047a573d6000803e3d6000fd5b505050506040513d601f19601f8201168201806040525081019061049e919061339d565b156104c45760405162461bcd60e51b81526004016104bb906133bf565b60405180910390fd5b6104cc611a36565b6001600160a01b03808216600090815260fc602052604090205416806104f257506107bf565b806001600160a01b031663faf7ba6a6040518163ffffffff1660e01b815260040160206040518083038186803b15801561052b57600080fd5b505afa15801561053f573d6000803e3d6000fd5b505050506040513d601f19601f82011682018060405250810190610563919061339d565b6105a35760405162461bcd60e51b815260206004820152601160248201527018d85b9b9bdd081cd95d1d1b19481e595d607a1b60448201526064016104bb565b6001600160a01b038216600090815260fc6020526040812080546001600160a01b031916905560fd805465ffffffffffff16916105df836133ff565b91906101000a81548165ffffffffffff021916908365ffffffffffff16021790555050600080826001600160a01b03166311da60b46040518163ffffffff1660e01b81526004016040805180830381600087803b15801561063f57600080fd5b505af1158015610653573d6000803e3d6000fd5b505050506040513d601f19601f820116820180604052508101906106779190613421565b91509150826001600160a01b031663a6f2ae3a6040518163ffffffff1660e01b815260040160206040518083038186803b1580156106b457600080fd5b505afa1580156106c8573d6000803e3d6000fd5b505050506040513d601f19601f820116820180604052508101906106ec9190613445565b6001600160a01b0316836001600160a01b031663457100746040518163ffffffff1660e01b815260040160206040518083038186803b15801561072e57600080fd5b505afa158015610742573d6000803e3d6000fd5b505050506040513d601f19601f820116820180604052508101906107669190613445565b6001600160a01b0316846001600160a01b03167f058fb1fa484531f400806f666315faf1a45941db93ba069405882b78ba40dc8785856040516107b3929190918252602082015260400190565b60405180910390a45050505b6107c9600160c955565b50565b306001600160a01b037f00000000000000000000000000000000000000000000000000000000000000001614156108155760405162461bcd60e51b81526004016104bb90613462565b7f00000000000000000000000000000000000000000000000000000000000000006001600160a01b031661085e600080516020613909833981519152546001600160a01b031690565b6001600160a01b0316146108845760405162461bcd60e51b81526004016104bb906134ae565b61088d81611a90565b604080516000808252602082019092526107c991839190611b64565b60975460408051808201909152600581526427aba722a960d91b60208201526001600160a01b03909116906391d14854906108e3906134fa565b336040516001600160e01b031960e085901b16815260048101929092526001600160a01b0316602482015260440160206040518083038186803b15801561092957600080fd5b505afa15801561093d573d6000803e3d6000fd5b505050506040513d601f19601f82011682018060405250810190610961919061339d565b61097d5760405162461bcd60e51b81526004016104bb90613521565b6c01431e0fae6d7217caa00000006001600160c01b03821611156109dc5760405162461bcd60e51b8152602060048201526016602482015275696e76616c6964206d696e5472616465566f6c756d6560501b60448201526064016104bb565b60fe546040516001600160c01b038084169216907f1dec1ae9fd64ef0d8a6b130d853a8ab21d337625027cc60c63028f3d383495dc90600090a360fe80546001600160c01b0319166001600160c01b0392909216919091179055565b609760009054906101000a90046001600160a01b03166001600160a01b031663f17063756040518163ffffffff1660e01b815260040160206040518083038186803b158015610a8657600080fd5b505afa158015610a9a573d6000803e3d6000fd5b505050506040513d601f19601f82011682018060405250810190610abe919061339d565b15610adb5760405162461bcd60e51b81526004016104bb906133bf565b73__$08d36e59b955a5499e173aaa3c4eaafd65$__63d93888ad609760009054906101000a90046001600160a01b03166001600160a01b031663979d7e866040518163ffffffff1660e01b815260040160206040518083038186803b158015610b4357600080fd5b505afa158015610b57573d6000803e3d6000fd5b505050506040513d601f19601f82011682018060405250810190610b7b9190613445565b6040516001600160e01b031960e084901b1681526001600160a01b03909116600482015260240160006040518083038186803b158015610bba57600080fd5b505af4158015610bce573d6000803e3d6000fd5b50505050565b306001600160a01b037f0000000000000000000000000000000000000000000000000000000000000000161415610c1d5760405162461bcd60e51b81526004016104bb90613462565b7f00000000000000000000000000000000000000000000000000000000000000006001600160a01b0316610c66600080516020613909833981519152546001600160a01b031690565b6001600160a01b031614610c8c5760405162461bcd60e51b81526004016104bb906134ae565b610c9582611a90565b610ca182826001611b64565b5050565b6000306001600160a01b037f00000000000000000000000000000000000000000000000000000000000000001614610d455760405162461bcd60e51b815260206004820152603860248201527f555550535570677261646561626c653a206d757374206e6f742062652063616c60448201527f6c6564207468726f7567682064656c656761746563616c6c000000000000000060648201526084016104bb565b5060008051602061390983398151915290565b600054610100900460ff1615808015610d785750600054600160ff909116105b80610d925750303b158015610d92575060005460ff166001145b610df55760405162461bcd60e51b815260206004820152602e60248201527f496e697469616c697a61626c653a20636f6e747261637420697320616c72656160448201526d191e481a5b9a5d1a585b1a5e995960921b60648201526084016104bb565b6000805460ff191660011790558015610e18576000805461ff0019166101001790555b6001600160a01b038416610e665760405162461bcd60e51b8152602060048201526015602482015274696e76616c696420746f6b656e206164647265737360581b60448201526064016104bb565b610e6f85611ce3565b610e7a858484611d81565b846001600160a01b031663979d7e866040518163ffffffff1660e01b815260040160206040518083038186803b158015610eb357600080fd5b505afa158015610ec7573d6000803e3d6000fd5b505050506040513d601f19601f82011682018060405250810190610eeb9190613445565b61012e60006101000a8154816001600160a01b0302191690836001600160a01b03160217905550846001600160a01b031663bfe109286040518163ffffffff1660e01b815260040160206040518083038186803b158015610f4b57600080fd5b505afa158015610f5f573d6000803e3d6000fd5b505050506040513d601f19601f82011682018060405250810190610f839190613445565b61012f80546001600160a01b03199081166001600160a01b039384161790915561012d80549091169186169190911790558015610ffa576000805461ff0019169055604051600181527f7f26b83ff96e1f2b6a682f133852f6798a09c465da95921460cefb38474024989060200160405180910390a15b5050505050565b609760009054906101000a90046001600160a01b03166001600160a01b031663f17063756040518163ffffffff1660e01b815260040160206040518083038186803b15801561104f57600080fd5b505afa158015611063573d6000803e3d6000fd5b505050506040513d601f19601f82011682018060405250810190611087919061339d565b156110a45760405162461bcd60e51b81526004016104bb906133bf565b6001600160a01b03818116600090815260fc602052604090205416156110c75750565b6040516370a0823160e01b81523060048201526000906001600160a01b038316906370a082319060240160206040518083038186803b15801561110957600080fd5b505afa15801561111d573d6000803e3d6000fd5b505050506040513d601f19601f82011682018060405250810190611141919061354a565b90508061114c575050565b61012d546001600160a01b038381169116141561120b5761012f5461117f906001600160a01b0384811691166000611e4b565b61012f5461119a906001600160a01b03848116911683611e4b565b61012f5460405163a16a918360e01b81526001600160a01b038481166004830152306024830152604482018490529091169063a16a918390606401600060405180830381600087803b1580156111ef57600080fd5b505af1158015611203573d6000803e3d6000fd5b505050505050565b61012e546040516366f15f4560e11b81526001600160a01b038481166004830152600092169063cde2be8a9060240160206040518083038186803b15801561125257600080fd5b505afa158015611266573d6000803e3d6000fd5b505050506040513d601f19601f8201168201806040525081019061128a9190613445565b61012e5461012d546040516366f15f4560e11b81526001600160a01b03918216600482015292935060009291169063cde2be8a9060240160206040518083038186803b1580156112d957600080fd5b505afa1580156112ed573d6000803e3d6000fd5b505050506040513d601f19601f820116820180604052508101906113119190613445565b90506000826001600160a01b031663a035b1fe6040518163ffffffff1660e01b8152600401604080518083038186803b15801561134d57600080fd5b505afa158015611361573d6000803e3d6000fd5b505050506040513d601f19601f820116820180604052508101906113859190613563565b5090506000826001600160a01b031663a035b1fe6040518163ffffffff1660e01b8152600401604080518083038186803b1580156113c257600080fd5b505afa1580156113d6573d6000803e3d6000fd5b505050506040513d601f19601f820116820180604052508101906113fa9190613563565b9150506000816001600160c01b031611801561141e57506001600160c01b03818116105b61146a5760405162461bcd60e51b815260206004820152601760248201527f62757920617373657420707269636520756e6b6e6f776e00000000000000000060448201526064016104bb565b6040805160c0810182526001600160a01b0386811680835290861660208301528251632ac07b9560e11b815230600482015260009383019190635580f72a9060240160206040518083038186803b1580156114c457600080fd5b505afa1580156114d8573d6000803e3d6000fd5b505050506040513d601f19601f820116820180604052508101906114fc919061359d565b6001600160c01b03908116825260006020808401829052878316604080860191909152878416606090950194909452835180850190945260fe548316845260fd54600160301b900490921691830191909152919250908061155d8484611f91565b91509150811561157057611570816122ab565b50505050505050505050565b60608167ffffffffffffffff81111561159757611597613125565b6040519080825280602002602001820160405280156115ca57816020015b60608152602001906001900390816115b55790505b50905060005b8281101561166a5761163a308585848181106115ee576115ee6135ba565b905060200281019061160091906135d0565b8080601f01602080910402602001604051908101604052809392919081815260200183838082843760009201919091525061258b92505050565b82828151811061164c5761164c6135ba565b6020026020010181905250808061166290613617565b9150506115d0565b505b92915050565b609760009054906101000a90046001600160a01b03166001600160a01b031663f17063756040518163ffffffff1660e01b815260040160206040518083038186803b1580156116c057600080fd5b505afa1580156116d4573d6000803e3d6000fd5b505050506040513d601f19601f820116820180604052508101906116f8919061339d565b156117155760405162461bcd60e51b81526004016104bb906133bf565b73__$08d36e59b955a5499e173aaa3c4eaafd65$__63c944276c609760009054906101000a90046001600160a01b03166001600160a01b031663979d7e866040518163ffffffff1660e01b815260040160206040518083038186803b15801561177d57600080fd5b505afa158015611791573d6000803e3d6000fd5b505050506040513d601f19601f820116820180604052508101906117b59190613445565b6040516366f15f4560e11b81526001600160a01b038581166004830152919091169063cde2be8a9060240160206040518083038186803b1580156117f857600080fd5b505afa15801561180c573d6000803e3d6000fd5b505050506040513d601f19601f820116820180604052508101906118309190613445565b6040516001600160e01b031960e084901b1681526001600160a01b03909116600482015260240160006040518083038186803b15801561186f57600080fd5b505af4158015610ffa573d6000803e3d6000fd5b60975460408051808201909152600581526427aba722a960d91b60208201526001600160a01b03909116906391d14854906118bd906134fa565b336040516001600160e01b031960e085901b16815260048101929092526001600160a01b0316602482015260440160206040518083038186803b15801561190357600080fd5b505afa158015611917573d6000803e3d6000fd5b505050506040513d601f19601f8201168201806040525081019061193b919061339d565b6119575760405162461bcd60e51b81526004016104bb90613521565b670de0b6b3a76400006001600160c01b038216106119b75760405162461bcd60e51b815260206004820152601860248201527f696e76616c6964206d61785472616465536c697070616765000000000000000060448201526064016104bb565b60fd546040516001600160c01b0380841692600160301b900416907f58d1f6b92b372d2913abb309ec9503acc2a53ed508ec34f478d7aeab07760f9990600090a360fd80546001600160c01b03909216600160301b026601000000000000600160f01b0319909216919091179055565b6001600160a01b03163b151590565b600260c9541415611a895760405162461bcd60e51b815260206004820152601f60248201527f5265656e7472616e637947756172643a207265656e7472616e742063616c6c0060448201526064016104bb565b600260c955565b60975460408051808201909152600581526427aba722a960d91b60208201526001600160a01b03909116906391d1485490611aca906134fa565b336040516001600160e01b031960e085901b16815260048101929092526001600160a01b0316602482015260440160206040518083038186803b158015611b1057600080fd5b505afa158015611b24573d6000803e3d6000fd5b505050506040513d601f19601f82011682018060405250810190611b48919061339d565b6107c95760405162461bcd60e51b81526004016104bb90613521565b7f4910fdfa16fed3260ed0e7147f7cc6da11a60208b5b9406d12a635614ffd91435460ff1615611b9c57611b97836125b7565b505050565b826001600160a01b03166352d1902d6040518163ffffffff1660e01b815260040160206040518083038186803b158015611bd557600080fd5b505afa925050508015611c05575060408051601f3d908101601f19168201909252611c029181019061354a565b60015b611c685760405162461bcd60e51b815260206004820152602e60248201527f45524331393637557067726164653a206e657720696d706c656d656e7461746960448201526d6f6e206973206e6f74205555505360901b60648201526084016104bb565b6000805160206139098339815191528114611cd75760405162461bcd60e51b815260206004820152602960248201527f45524331393637557067726164653a20756e737570706f727465642070726f786044820152681a58589b195555525160ba1b60648201526084016104bb565b50611b97838383612653565b600054610100900460ff16611d0a5760405162461bcd60e51b81526004016104bb90613632565b6001600160a01b038116611d575760405162461bcd60e51b81526020600482015260146024820152736d61696e206973207a65726f206164647265737360601b60448201526064016104bb565b611d5f612678565b609780546001600160a01b0319166001600160a01b0392909216919091179055565b600054610100900460ff16611da85760405162461bcd60e51b81526004016104bb90613632565b826001600160a01b031663abff01106040518163ffffffff1660e01b815260040160206040518083038186803b158015611de157600080fd5b505afa158015611df5573d6000803e3d6000fd5b505050506040513d601f19601f82011682018060405250810190611e199190613445565b60fb80546001600160a01b0319166001600160a01b0392909216919091179055611e4282611883565b611b97816108a9565b801580611ed45750604051636eb1769f60e11b81523060048201526001600160a01b03838116602483015284169063dd62ed3e9060440160206040518083038186803b158015611e9a57600080fd5b505afa158015611eae573d6000803e3d6000fd5b505050506040513d601f19601f82011682018060405250810190611ed2919061354a565b155b611f3f5760405162461bcd60e51b815260206004820152603660248201527f5361666545524332303a20617070726f76652066726f6d206e6f6e2d7a65726f60448201527520746f206e6f6e2d7a65726f20616c6c6f77616e636560501b60648201526084016104bb565b604080516001600160a01b038416602482015260448082018490528251808303909101815260649091019091526020810180516001600160e01b031663095ea7b360e01b179052611b979084906126a1565b604080516080810182526000808252602082018190529181018290526060810182905260008460a001516001600160c01b0316118015611fde575060a08401516001600160c01b03908116105b8015611ff7575060808401516001600160c01b03908116105b6120035761200361367d565b600061208785600001516001600160a01b031663e28a1b866040518163ffffffff1660e01b815260040160206040518083038186803b15801561204557600080fd5b505afa158015612059573d6000803e3d6000fd5b505050506040513d601f19601f8201168201806040525081019061207d919061359d565b8660800151612773565b85516040870151865192935061209e92849061279b565b6120ac5760009250506122a4565b604085015160808601516000906001600160c01b0316156121645760006120db88600001518960800151612857565b9050806001600160c01b0316836001600160c01b031611156120fb578092505b61216088608001518960a00151600261214f61213f8c60200151670de0b6b3a764000067ffffffffffffffff166001600160c01b031661291890919063ffffffff16565b6001600160c01b03891690612924565b6001600160c01b0316929190612932565b9150505b86516001600160a01b039081168552602080890151821681870152885160408051633cb5d37960e01b81529051612204949290921692633cb5d37992600480840193829003018186803b1580156121ba57600080fd5b505afa1580156121ce573d6000803e3d6000fd5b505050506040513d601f19601f820116820180604052508101906121f29190613693565b6001600160c01b038416906000612963565b84604001818152505061229787602001516001600160a01b0316633cb5d3796040518163ffffffff1660e01b815260040160206040518083038186803b15801561224d57600080fd5b505afa158015612261573d6000803e3d6000fd5b505050506040513d601f19601f820116820180604052508101906122859190613693565b6001600160c01b038316906002612963565b6060850152506001935050505b9250929050565b6122b3611a36565b600081600001516001600160a01b031663785e9e866040518163ffffffff1660e01b815260040160206040518083038186803b1580156122f257600080fd5b505afa158015612306573d6000803e3d6000fd5b505050506040513d601f19601f8201168201806040525081019061232a9190613445565b6001600160a01b03808216600090815260fc602052604090205491925016156123555761235561367d565b60fb54612370906001600160a01b0383811691166000611e4b565b60fb546040830151612390916001600160a01b0384811692911690611e4b565b60fb546040805163542d5e2960e01b815284516001600160a01b03908116600483015260208601518116602483015291850151604482015260608501516064820152600092919091169063542d5e2990608401602060405180830381600087803b1580156123fd57600080fd5b505af1158015612411573d6000803e3d6000fd5b505050506040513d601f19601f820116820180604052508101906124359190613445565b6001600160a01b03838116600090815260fc6020526040812080546001600160a01b0319169284169290921790915560fd805492935065ffffffffffff9092169190612480836136b6565b91906101000a81548165ffffffffffff021916908365ffffffffffff1602179055505082602001516001600160a01b031663785e9e866040518163ffffffff1660e01b815260040160206040518083038186803b1580156124e057600080fd5b505afa1580156124f4573d6000803e3d6000fd5b505050506040513d601f19601f820116820180604052508101906125189190613445565b6001600160a01b0316826001600160a01b0316826001600160a01b03167ff18b757d93c36d059284838a0328b06d8eb30d7214ffadde3266465a0006f6b386604001518760600151604051612577929190918252602082015260400190565b60405180910390a450506107c9600160c955565b60606125b0838360405180606001604052806027815260200161392960279139612a41565b9392505050565b6001600160a01b0381163b6126245760405162461bcd60e51b815260206004820152602d60248201527f455243313936373a206e657720696d706c656d656e746174696f6e206973206e60448201526c1bdd08184818dbdb9d1c9858dd609a1b60648201526084016104bb565b60008051602061390983398151915280546001600160a01b0319166001600160a01b0392909216919091179055565b61265c83612ab9565b6000825111806126695750805b15611b9757610bce8383612af9565b600054610100900460ff1661269f5760405162461bcd60e51b81526004016104bb90613632565b565b60006126f6826040518060400160405280602081526020017f5361666545524332303a206c6f772d6c6576656c2063616c6c206661696c6564815250856001600160a01b0316612be49092919063ffffffff16565b805190915015611b975780806020019051810190612714919061339d565b611b975760405162461bcd60e51b815260206004820152602a60248201527f5361666545524332303a204552433230206f7065726174696f6e20646964206e6044820152691bdd081cdd58d8d9595960b21b60648201526084016104bb565b6000816001600160c01b0316836001600160c01b03161161279457816125b0565b5090919050565b60006127bd6127aa8385612bf3565b6001600160c01b03908116908616101590565b801561284c5750600161284a866001600160a01b0316633cb5d3796040518163ffffffff1660e01b815260040160206040518083038186803b15801561280257600080fd5b505afa158015612816573d6000803e3d6000fd5b505050506040513d601f19601f8201168201806040525081019061283a9190613693565b6001600160c01b03871690612c1a565b115b90505b949350505050565b6000806001600160c01b038316156128f5576128f0836001866001600160a01b03166395acc4ae6040518163ffffffff1660e01b815260040160206040518083038186803b1580156128a857600080fd5b505afa1580156128bc573d6000803e3d6000fd5b505050506040513d601f19601f820116820180604052508101906128e0919061359d565b6001600160c01b03169190612c28565b6128fe565b6001600160c01b035b90506000816001600160c01b0316116125b057600161284f565b60006125b082846136dc565b60006125b083836001612c5b565b600061284c61295e866001600160c01b0316866001600160c01b0316866001600160c01b031686612c88565b612d37565b60006001600160c01b03841661297b575060006125b0565b6029198360000b136129b457600282600281111561299b5761299b613704565b146129a75760006129aa565b60015b60ff1690506125b0565b8260000b6060136129d85760405163f44398f560e01b815260040160405180910390fd5b6129e360128461371a565b925060006129f38460000b612d65565b6129fe90600a613837565b905060008460000b1215612a2557612a20856001600160c01b03168285612d7d565b612a38565b612a38816001600160c01b038716613843565b95945050505050565b6060600080856001600160a01b031685604051612a5e9190613862565b600060405180830381855af49150503d8060008114612a99576040519150601f19603f3d011682016040523d82523d6000602084013e612a9e565b606091505b5091509150612aaf86838387612e1d565b9695505050505050565b612ac2816125b7565b6040516001600160a01b038216907fbc7cd75a20ee27fd9adebab32041f755214dbc6bffa90cc0225b39da2e5c2d3b90600090a250565b60606001600160a01b0383163b612b615760405162461bcd60e51b815260206004820152602660248201527f416464726573733a2064656c65676174652063616c6c20746f206e6f6e2d636f6044820152651b9d1c9858dd60d21b60648201526084016104bb565b600080846001600160a01b031684604051612b7c9190613862565b600060405180830381855af49150503d8060008114612bb7576040519150601f19603f3d011682016040523d82523d6000602084013e612bbc565b606091505b5091509150612a38828260405180606001604052806027815260200161392960279139612e93565b606061284f8484600085612eac565b6000806001600160c01b038316156128f5576128f06001600160c01b038516846001612c28565b60006125b083836000612963565b600061284f61295e612c4b670de0b6b3a76400006001600160c01b038816613843565b856001600160c01b031685612d7d565b600061284f61295e612c796001600160c01b03808716908816613843565b670de0b6b3a764000085612d7d565b600080612c96868686612f87565b90506000836002811115612cac57612cac613704565b1415612cb957905061284f565b60008480612cc957612cc961387e565b86880990506002846002811115612ce257612ce2613704565b1415612d01578015612cfc57612cf9600183613894565b91505b612d2d565b6002612d0e6001876138ac565b612d1891906138c3565b811115612d2d57612d2a600183613894565b91505b5095945050505050565b60006001600160c01b03821115612d615760405163f44398f560e01b815260040160405180910390fd5b5090565b6000808212612d74578161166c565b61166c826138d7565b600080612d8a84866138c3565b90506000836002811115612da057612da0613704565b1415612dad5790506125b0565b6001836002811115612dc157612dc1613704565b1415612e01576002612dd46001866138ac565b612dde91906138c3565b612de885876138f4565b1115612dfc5780612df881613617565b9150505b61284f565b6000612e0d85876138f4565b111561284f5780612aaf81613617565b60608315612e89578251612e82576001600160a01b0385163b612e825760405162461bcd60e51b815260206004820152601d60248201527f416464726573733a2063616c6c20746f206e6f6e2d636f6e747261637400000060448201526064016104bb565b508161284f565b61284f838361306a565b60608315612ea25750816125b0565b6125b0838361306a565b606082471015612f0d5760405162461bcd60e51b815260206004820152602660248201527f416464726573733a20696e73756666696369656e742062616c616e636520666f6044820152651c8818d85b1b60d21b60648201526084016104bb565b600080866001600160a01b03168587604051612f299190613862565b60006040518083038185875af1925050503d8060008114612f66576040519150601f19603f3d011682016040523d82523d6000602084013e612f6b565b606091505b5091509150612f7c87838387612e1d565b979650505050505050565b6000806000612f968686613094565b91509150838210612fba5760405163f44398f560e01b815260040160405180910390fd5b60008480612fca57612fca61387e565b868809905081811115612fde576001830392505b908190039060008590038516808681612ff957612ff961387e565b04955080838161300b5761300b61387e565b0492508081600003816130205761302061387e565b046001019390930291909101600285810380870282030280870282030280870282030280870282030280870282030280870282030295860290039094029390930295945050505050565b81511561307a5781518083602001fd5b8060405162461bcd60e51b81526004016104bb9190613257565b60008080600019848609905083850291508181039250818110156130b9576001830392505b509250929050565b6001600160a01b03811681146107c957600080fd5b6000602082840312156130e857600080fd5b81356125b0816130c1565b6001600160c01b03811681146107c957600080fd5b60006020828403121561311a57600080fd5b81356125b0816130f3565b634e487b7160e01b600052604160045260246000fd5b6000806040838503121561314e57600080fd5b8235613159816130c1565b9150602083013567ffffffffffffffff8082111561317657600080fd5b818501915085601f83011261318a57600080fd5b81358181111561319c5761319c613125565b604051601f8201601f19908116603f011681019083821181831017156131c4576131c4613125565b816040528281528860208487010111156131dd57600080fd5b8260208601602083013760006020848301015280955050505050509250929050565b60005b8381101561321a578181015183820152602001613202565b83811115610bce5750506000910152565b600081518084526132438160208601602086016131ff565b601f01601f19169290920160200192915050565b6020815260006125b0602083018461322b565b6000806000806080858703121561328057600080fd5b843561328b816130c1565b9350602085013561329b816130c1565b925060408501356132ab816130f3565b915060608501356132bb816130f3565b939692955090935050565b600080602083850312156132d957600080fd5b823567ffffffffffffffff808211156132f157600080fd5b818501915085601f83011261330557600080fd5b81358181111561331457600080fd5b8660208260051b850101111561332957600080fd5b60209290920196919550909350505050565b6000602080830181845280855180835260408601915060408160051b870101925083870160005b8281101561339057603f1988860301845261337e85835161322b565b94509285019290850190600101613362565b5092979650505050505050565b6000602082840312156133af57600080fd5b815180151581146125b057600080fd5b60208082526010908201526f3830bab9b2b21037b910333937bd32b760811b604082015260600190565b634e487b7160e01b600052601160045260246000fd5b600065ffffffffffff821680613417576134176133e9565b6000190192915050565b6000806040838503121561343457600080fd5b505080516020909101519092909150565b60006020828403121561345757600080fd5b81516125b0816130c1565b6020808252602c908201527f46756e6374696f6e206d7573742062652063616c6c6564207468726f7567682060408201526b19195b1959d85d1958d85b1b60a21b606082015260800190565b6020808252602c908201527f46756e6374696f6e206d7573742062652063616c6c6564207468726f7567682060408201526b6163746976652070726f787960a01b606082015260800190565b8051602080830151919081101561351b576000198160200360031b1b821691505b50919050565b6020808252600f908201526e676f7665726e616e6365206f6e6c7960881b604082015260600190565b60006020828403121561355c57600080fd5b5051919050565b6000806040838503121561357657600080fd5b8251613581816130f3565b6020840151909250613592816130f3565b809150509250929050565b6000602082840312156135af57600080fd5b81516125b0816130f3565b634e487b7160e01b600052603260045260246000fd5b6000808335601e198436030181126135e757600080fd5b83018035915067ffffffffffffffff82111561360257600080fd5b6020019150368190038213156122a457600080fd5b600060001982141561362b5761362b6133e9565b5060010190565b6020808252602b908201527f496e697469616c697a61626c653a20636f6e7472616374206973206e6f74206960408201526a6e697469616c697a696e6760a81b606082015260800190565b634e487b7160e01b600052600160045260246000fd5b6000602082840312156136a557600080fd5b815160ff811681146125b057600080fd5b600065ffffffffffff808316818114156136d2576136d26133e9565b6001019392505050565b60006001600160c01b03838116908316818110156136fc576136fc6133e9565b039392505050565b634e487b7160e01b600052602160045260246000fd5b600081810b83820b8281128015607f1983018412161561373c5761373c6133e9565b81607f018313811615613751576137516133e9565b5090039392505050565b600181815b808511156130b957816000190482111561377c5761377c6133e9565b8085161561378957918102915b93841c9390800290613760565b6000826137a55750600161166c565b816137b25750600061166c565b81600181146137c857600281146137d2576137ee565b600191505061166c565b60ff8411156137e3576137e36133e9565b50506001821b61166c565b5060208310610133831016604e8410600b8410161715613811575081810a61166c565b61381b838361375b565b806000190482111561382f5761382f6133e9565b029392505050565b60006125b08383613796565b600081600019048311821515161561385d5761385d6133e9565b500290565b600082516138748184602087016131ff565b9190910192915050565b634e487b7160e01b600052601260045260246000fd5b600082198211156138a7576138a76133e9565b500190565b6000828210156138be576138be6133e9565b500390565b6000826138d2576138d261387e565b500490565b6000600160ff1b8214156138ed576138ed6133e9565b5060000390565b6000826139035761390361387e565b50069056fe360894a13ba1a3210667c828492db98dca3e2076cc3735a920a3ca505d382bbc416464726573733a206c6f772d6c6576656c2064656c65676174652063616c6c206661696c6564a26469706673582212208e05b09857531608285caafd26b22a5bce028379f8a90bffea49cc08e71d236664736f6c63430008090033",
  "linkReferences": {
    "contracts/reserve/p1/mixins/RewardableLib.sol": {
      "RewardableLibP1": [
        {
          "length": 20,
          "start": 3173
        },
        {
          "length": 20,
          "start": 6303
        }
      ]
    }
  },
  "deployedLinkReferences": {
    "contracts/reserve/p1/mixins/RewardableLib.sol": {
      "RewardableLibP1": [
        {
          "length": 20,
          "start": 2781
        },
        {
          "length": 20,
          "start": 5911
        }
      ]
    }
  }
}