{
  "_format": "hh-sol-artifact-1",
  "contractName": "StringCallerMock",
  "sourceName": "contracts/reserve/libraries/test/StringCallerMock.sol",
  "abi": [
    {
      "inputs": [
        {
          "internalType": "string",
          "name": "str",
          "type": "string"
        }
      ],
      "name": "toLower",
      "outputs": [
        {
          "internalType": "string",
          "name": "",
          "type": "string"
        }
      ],
      "stateMutability": "pure",
      "type": "function"
    }
  ],
  "bytecode": "0x608060405234801561001057600080fd5b5061038b806100206000396000f3fe608060405234801561001057600080fd5b506004361061002b5760003560e01c80639416b42314610030575b600080fd5b61004361003e3660046101e3565b610059565b6040516100509190610294565b60405180910390f35b60606100648261006a565b92915050565b606060008290506000815167ffffffffffffffff81111561008d5761008d6101cd565b6040519080825280601f01601f1916602001820160405280156100b7576020820181803683370190505b50905060005b82518110156101c55760418382815181106100da576100da6102e9565b016020015160f81c1080159061010a5750605a8382815181106100ff576100ff6102e9565b016020015160f81c11155b1561016c57828181518110610121576101216102e9565b602001015160f81c60f81b60f81c602061013b9190610315565b60f81b828281518110610150576101506102e9565b60200101906001600160f81b031916908160001a9053506101b3565b82818151811061017e5761017e6102e9565b602001015160f81c60f81b82828151811061019b5761019b6102e9565b60200101906001600160f81b031916908160001a9053505b806101bd8161033a565b9150506100bd565b509392505050565b634e487b7160e01b600052604160045260246000fd5b6000602082840312156101f557600080fd5b813567ffffffffffffffff8082111561020d57600080fd5b818401915084601f83011261022157600080fd5b813581811115610233576102336101cd565b604051601f8201601f19908116603f0116810190838211818310171561025b5761025b6101cd565b8160405282815287602084870101111561027457600080fd5b826020860160208301376000928101602001929092525095945050505050565b600060208083528351808285015260005b818110156102c1578581018301518582016040015282016102a5565b818111156102d3576000604083870101525b50601f01601f1916929092016040019392505050565b634e487b7160e01b600052603260045260246000fd5b634e487b7160e01b600052601160045260246000fd5b600060ff821660ff84168060ff03821115610332576103326102ff565b019392505050565b600060001982141561034e5761034e6102ff565b506001019056fea26469706673582212201151841b08a720ba37ebe36c5965f295cbe3c8e2c9c5a0caf693b4d852b23b3564736f6c63430008090033",
  "linkReferences": {},
  "deployedLinkReferences": {}
}